{
  "_format": "hh-sol-artifact-1",
  "contractName": "MehVoteV1",
  "sourceName": "contracts/MehVoteV1.sol",
  "abi": [
    {
      "inputs": [
        {
          "internalType": "contract IERC20",
          "name": "_mehToken",
          "type": "address"
        },
        {
          "internalType": "contract IRoyalty",
          "name": "_royalties",
          "type": "address"
        }
      ],
      "stateMutability": "nonpayable",
      "type": "constructor"
    },
    {
      "anonymous": false,
      "inputs": [
        {
          "indexed": false,
          "internalType": "uint256",
          "name": "productId",
          "type": "uint256"
        },
        {
          "indexed": false,
          "internalType": "string",
          "name": "productName",
          "type": "string"
        },
        {
          "indexed": false,
          "internalType": "string",
          "name": "allocatorMerkleRoot",
          "type": "string"
        },
        {
          "indexed": false,
          "internalType": "uint256",
          "name": "totalContracts",
          "type": "uint256"
        }
      ],
      "name": "MehStore",
      "type": "event"
    },
    {
      "anonymous": false,
      "inputs": [
        {
          "indexed": true,
          "internalType": "address",
          "name": "previousOwner",
          "type": "address"
        },
        {
          "indexed": true,
          "internalType": "address",
          "name": "newOwner",
          "type": "address"
        }
      ],
      "name": "OwnershipTransferred",
      "type": "event"
    },
    {
      "inputs": [
        {
          "internalType": "uint256",
          "name": "_gameId",
          "type": "uint256"
        },
        {
          "internalType": "string",
          "name": "_name",
          "type": "string"
        },
        {
          "internalType": "uint256",
          "name": "_mehContracts",
          "type": "uint256"
        },
        {
          "internalType": "uint256",
          "name": "_mehContractPrice",
          "type": "uint256"
        },
        {
          "internalType": "uint256",
          "name": "_begin",
          "type": "uint256"
        },
        {
          "internalType": "uint256",
          "name": "_end",
          "type": "uint256"
        },
        {
          "internalType": "uint256",
          "name": "_totalContracts",
          "type": "uint256"
        },
        {
          "internalType": "bool",
          "name": "_limitedRun",
          "type": "bool"
        },
        {
          "internalType": "uint256",
          "name": "_prizeMeh",
          "type": "uint256"
        }
      ],
      "name": "addProductToGame",
      "outputs": [],
      "stateMutability": "nonpayable",
      "type": "function"
    },
    {
      "inputs": [
        {
          "internalType": "uint256",
          "name": "_gameId",
          "type": "uint256"
        },
        {
          "internalType": "uint256",
          "name": "_productId",
          "type": "uint256"
        }
      ],
      "name": "claim",
      "outputs": [],
      "stateMutability": "nonpayable",
      "type": "function"
    },
    {
      "inputs": [
        {
          "internalType": "uint256",
          "name": "_begin",
          "type": "uint256"
        },
        {
          "internalType": "uint256",
          "name": "_end",
          "type": "uint256"
        }
      ],
      "name": "createGame",
      "outputs": [],
      "stateMutability": "nonpayable",
      "type": "function"
    },
    {
      "inputs": [
        {
          "internalType": "uint256",
          "name": "_gameId",
          "type": "uint256"
        },
        {
          "internalType": "uint256",
          "name": "_productId",
          "type": "uint256"
        },
        {
          "internalType": "uint256",
          "name": "_numContracts",
          "type": "uint256"
        }
      ],
      "name": "depositMeh",
      "outputs": [],
      "stateMutability": "nonpayable",
      "type": "function"
    },
    {
      "inputs": [
        {
          "internalType": "uint256",
          "name": "_amount",
          "type": "uint256"
        }
      ],
      "name": "depositMehStore",
      "outputs": [],
      "stateMutability": "nonpayable",
      "type": "function"
    },
    {
      "inputs": [
        {
          "internalType": "address",
          "name": "",
          "type": "address"
        },
        {
          "internalType": "uint256",
          "name": "",
          "type": "uint256"
        }
      ],
      "name": "deposits",
      "outputs": [
        {
          "internalType": "uint256",
          "name": "",
          "type": "uint256"
        }
      ],
      "stateMutability": "view",
      "type": "function"
    },
    {
      "inputs": [
        {
          "internalType": "uint256",
          "name": "",
          "type": "uint256"
        }
      ],
      "name": "games",
      "outputs": [
        {
          "internalType": "uint256",
          "name": "id",
          "type": "uint256"
        },
        {
          "internalType": "uint256",
          "name": "begin",
          "type": "uint256"
        },
        {
          "internalType": "uint256",
          "name": "end",
          "type": "uint256"
        },
        {
          "internalType": "uint256",
          "name": "numProducts",
          "type": "uint256"
        }
      ],
      "stateMutability": "view",
      "type": "function"
    },
    {
      "inputs": [
        {
          "internalType": "uint256",
          "name": "gameId",
          "type": "uint256"
        }
      ],
      "name": "getProductsByGameId",
      "outputs": [
        {
          "components": [
            {
              "internalType": "uint256",
              "name": "id",
              "type": "uint256"
            },
            {
              "internalType": "string",
              "name": "name",
              "type": "string"
            },
            {
              "internalType": "uint256",
              "name": "mehContractsDeposited",
              "type": "uint256"
            },
            {
              "internalType": "uint256",
              "name": "mehContracts",
              "type": "uint256"
            },
            {
              "internalType": "uint256",
              "name": "mehContractPrice",
              "type": "uint256"
            },
            {
              "internalType": "uint256",
              "name": "prizeMeh",
              "type": "uint256"
            },
            {
              "internalType": "bool",
              "name": "mehStore",
              "type": "bool"
            },
            {
              "internalType": "uint256",
              "name": "begin",
              "type": "uint256"
            },
            {
              "internalType": "uint256",
              "name": "end",
              "type": "uint256"
            },
            {
              "internalType": "uint256",
              "name": "totalContracts",
              "type": "uint256"
            },
            {
              "internalType": "bool",
              "name": "limitedRun",
              "type": "bool"
            }
          ],
          "internalType": "struct MehVoteV1.Product[]",
          "name": "",
          "type": "tuple[]"
        }
      ],
      "stateMutability": "view",
      "type": "function"
    },
    {
      "inputs": [],
      "name": "mehToken",
      "outputs": [
        {
          "internalType": "contract IERC20",
          "name": "",
          "type": "address"
        }
      ],
      "stateMutability": "view",
      "type": "function"
    },
    {
      "inputs": [],
      "name": "owner",
      "outputs": [
        {
          "internalType": "address",
          "name": "",
          "type": "address"
        }
      ],
      "stateMutability": "view",
      "type": "function"
    },
    {
      "inputs": [],
      "name": "renounceOwnership",
      "outputs": [],
      "stateMutability": "nonpayable",
      "type": "function"
    },
    {
      "inputs": [],
      "name": "royalties",
      "outputs": [
        {
          "internalType": "contract IRoyalty",
          "name": "",
          "type": "address"
        }
      ],
      "stateMutability": "view",
      "type": "function"
    },
    {
      "inputs": [
        {
          "internalType": "address",
          "name": "newOwner",
          "type": "address"
        }
      ],
      "name": "transferOwnership",
      "outputs": [],
      "stateMutability": "nonpayable",
      "type": "function"
    }
  ],
  "bytecode": "0x60c06040523480156200001157600080fd5b506040516200284838038062002848833981810160405281019062000037919062000297565b620000576200004b620000f260201b60201c565b620000fa60201b60201c565b600180819055508173ffffffffffffffffffffffffffffffffffffffff1660808173ffffffffffffffffffffffffffffffffffffffff16815250508073ffffffffffffffffffffffffffffffffffffffff1660a08173ffffffffffffffffffffffffffffffffffffffff1681525050620000d86002620001be60201b60201c565b620000ea6003620001be60201b60201c565b5050620002de565b600033905090565b60008060009054906101000a900473ffffffffffffffffffffffffffffffffffffffff169050816000806101000a81548173ffffffffffffffffffffffffffffffffffffffff021916908373ffffffffffffffffffffffffffffffffffffffff1602179055508173ffffffffffffffffffffffffffffffffffffffff168173ffffffffffffffffffffffffffffffffffffffff167f8be0079c531659141344cd1fd0a4f28419497f9722a3daafe3b4186f6b6457e060405160405180910390a35050565b6001816000016000828254019250508190555050565b600080fd5b600073ffffffffffffffffffffffffffffffffffffffff82169050919050565b60006200020682620001d9565b9050919050565b60006200021a82620001f9565b9050919050565b6200022c816200020d565b81146200023857600080fd5b50565b6000815190506200024c8162000221565b92915050565b60006200025f82620001f9565b9050919050565b620002718162000252565b81146200027d57600080fd5b50565b600081519050620002918162000266565b92915050565b60008060408385031215620002b157620002b0620001d4565b5b6000620002c1858286016200023b565b9250506020620002d48582860162000280565b9150509250929050565b60805160a05161252f620003196000396000818161079b0152610ac80152600081816104ee01528181610aa40152610dc5015261252f6000f3fe608060405234801561001057600080fd5b50600436106100cf5760003560e01c8063c34902631161008c578063e2c2c88411610066578063e2c2c884146101ff578063f053dc5c1461021d578063f2fde38b1461023b578063f38bee1814610257576100cf565b8063c349026314610183578063c7b568421461019f578063d6d68177146101cf576100cf565b8063117a5b90146100d457806348edf1bb1461010757806360104cef14610123578063715018a61461013f57806376f7b500146101495780638da5cb5b14610165575b600080fd5b6100ee60048036038101906100e99190611196565b610273565b6040516100fe94939291906111d2565b60405180910390f35b610121600480360381019061011c9190611395565b6102a3565b005b61013d6004803603810190610138919061147b565b610478565b005b6101476104d0565b005b610163600480360381019061015e9190611196565b6104e4565b005b61016d610595565b60405161017a91906114fc565b60405180910390f35b61019d6004803603810190610198919061147b565b6105be565b005b6101b960048036038101906101b49190611196565b6108ef565b6040516101c69190611765565b60405180910390f35b6101e960048036038101906101e491906117b3565b610a7d565b6040516101f691906117f3565b60405180910390f35b610207610aa2565b604051610214919061186d565b60405180910390f35b610225610ac6565b60405161023291906118a9565b60405180910390f35b610255600480360381019061025091906118c4565b610aea565b005b610271600480360381019061026c91906118f1565b610b6d565b005b60046020528060005260406000206000915090508060000154908060010154908060020154908060040154905084565b6102ab610f86565b6000600460008b815260200190815260200160002090506000816000015403610309576040517f08c379a0000000000000000000000000000000000000000000000000000000008152600401610300906119a1565b60405180910390fd5b60006103156003611004565b905060006040518061016001604052808381526020018c8152602001600081526020018b81526020018a81526020018581526020016000151581526020018981526020018881526020018781526020018615158152509050826003018190806001815401808255809150506001900390600052602060002090600b02016000909190919091506000820151816000015560208201518160010190816103ba9190611bc3565b5060408201518160020155606082015181600301556080820151816004015560a0820151816005015560c08201518160060160006101000a81548160ff02191690831515021790555060e082015181600701556101008201518160080155610120820151816009015561014082015181600a0160006101000a81548160ff021916908315150217905550505082600401600081548092919061045b90611cc4565b919050555061046a6003611012565b505050505050505050505050565b610480610f86565b600061048c6002611004565b905060006004600083815260200190815260200160002090508181600001819055508381600101819055508281600201819055506104ca6002611012565b50505050565b6104d8610f86565b6104e26000611028565b565b6104ec610f86565b7f000000000000000000000000000000000000000000000000000000000000000073ffffffffffffffffffffffffffffffffffffffff1663a9059cbb610530610595565b836040518363ffffffff1660e01b815260040161054e929190611d0c565b6020604051808303816000875af115801561056d573d6000803e3d6000fd5b505050506040513d601f19601f820116820180604052508101906105919190611d4a565b5050565b60008060009054906101000a900473ffffffffffffffffffffffffffffffffffffffff16905090565b6105c66110ec565b600060046000848152602001908152602001600020905060005b81600301805490508110156108a7578282600301828154811061060657610605611d77565b5b90600052602060002090600b0201600001540361089a57600082600301828154811061063557610634611d77565b5b90600052602060002090600b020190504281600801541061068b576040517f08c379a000000000000000000000000000000000000000000000000000000000815260040161068290611df2565b60405180910390fd5b8060060160009054906101000a900460ff166106dc576040517f08c379a00000000000000000000000000000000000000000000000000000000081526004016106d390611e5e565b60405180910390fd5b6000600560003373ffffffffffffffffffffffffffffffffffffffff1673ffffffffffffffffffffffffffffffffffffffff168152602001908152602001600020600086815260200190815260200160002054905060008111610774576040517f08c379a000000000000000000000000000000000000000000000000000000000815260040161076b90611eca565b60405180910390fd5b8160060160009054906101000a900460ff161561083b576000600190505b818111610839577f000000000000000000000000000000000000000000000000000000000000000073ffffffffffffffffffffffffffffffffffffffff166394bf804d87336040518363ffffffff1660e01b81526004016107f4929190611eea565b600060405180830381600087803b15801561080e57600080fd5b505af1158015610822573d6000803e3d6000fd5b50505050808061083190611cc4565b915050610792565b505b6000600560003373ffffffffffffffffffffffffffffffffffffffff1673ffffffffffffffffffffffffffffffffffffffff168152602001908152602001600020600087815260200190815260200160002081905550505050506108e3565b80806001019150506105e0565b506040517f08c379a00000000000000000000000000000000000000000000000000000000081526004016108da90611f5f565b60405180910390fd5b6108eb61113b565b5050565b606060046000838152602001908152602001600020600301805480602002602001604051908101604052809291908181526020016000905b82821015610a7257838290600052602060002090600b02016040518061016001604052908160008201548152602001600182018054610965906119f0565b80601f0160208091040260200160405190810160405280929190818152602001828054610991906119f0565b80156109de5780601f106109b3576101008083540402835291602001916109de565b820191906000526020600020905b8154815290600101906020018083116109c157829003601f168201915b50505050508152602001600282015481526020016003820154815260200160048201548152602001600582015481526020016006820160009054906101000a900460ff16151515158152602001600782015481526020016008820154815260200160098201548152602001600a820160009054906101000a900460ff16151515158152505081526020019060010190610927565b505050509050919050565b6005602052816000526040600020602052806000526040600020600091509150505481565b7f000000000000000000000000000000000000000000000000000000000000000081565b7f000000000000000000000000000000000000000000000000000000000000000081565b610af2610f86565b600073ffffffffffffffffffffffffffffffffffffffff168173ffffffffffffffffffffffffffffffffffffffff1603610b61576040517f08c379a0000000000000000000000000000000000000000000000000000000008152600401610b5890611ff1565b60405180910390fd5b610b6a81611028565b50565b610b756110ec565b60006004600085815260200190815260200160002090506000806000905060005b8360030180549050811015610f355785846003018281548110610bbc57610bbb611d77565b5b90600052602060002090600b02016000015403610f2857836003018181548110610be957610be8611d77565b5b90600052602060002090600b020192508260060160009054906101000a900460ff1615610c4b576040517f08c379a0000000000000000000000000000000000000000000000000000000008152600401610c4290612083565b60405180910390fd5b8260030154858460020154610c6091906120a3565b1115610ca1576040517f08c379a0000000000000000000000000000000000000000000000000000000008152600401610c9890612123565b60405180910390fd5b82600701544211610ce7576040517f08c379a0000000000000000000000000000000000000000000000000000000008152600401610cde9061218f565b60405180910390fd5b82600801544210610d2d576040517f08c379a0000000000000000000000000000000000000000000000000000000008152600401610d249061218f565b60405180910390fd5b6000836004015486610d3f91906121af565b905085600560003373ffffffffffffffffffffffffffffffffffffffff1673ffffffffffffffffffffffffffffffffffffffff16815260200190815260200160002060008981526020019081526020016000206000828254610da191906120a3565b9250508190555085846002016000828254610dbc91906120a3565b925050819055507f000000000000000000000000000000000000000000000000000000000000000073ffffffffffffffffffffffffffffffffffffffff166323b872dd3330846040518463ffffffff1660e01b8152600401610e20939291906121f1565b6020604051808303816000875af1158015610e3f573d6000803e3d6000fd5b505050506040513d601f19601f82011682018060405250810190610e639190611d4a565b610ea2576040517f08c379a0000000000000000000000000000000000000000000000000000000008152600401610e9990612274565b60405180910390fd5b600192508360030154846002015403610f225760018460060160006101000a81548160ff0219169083151502179055504284600801819055507f48bdd33bb928f44a7b0b890963d9afe34abf223c0de29e0174cd429d9ac0c18a8460000154856001018660090154604051610f1993929190612364565b60405180910390a15b50610f35565b8080600101915050610b96565b5080610f76576040517f08c379a0000000000000000000000000000000000000000000000000000000008152600401610f6d90612401565b60405180910390fd5b505050610f8161113b565b505050565b610f8e611144565b73ffffffffffffffffffffffffffffffffffffffff16610fac610595565b73ffffffffffffffffffffffffffffffffffffffff1614611002576040517f08c379a0000000000000000000000000000000000000000000000000000000008152600401610ff99061246d565b60405180910390fd5b565b600081600001549050919050565b6001816000016000828254019250508190555050565b60008060009054906101000a900473ffffffffffffffffffffffffffffffffffffffff169050816000806101000a81548173ffffffffffffffffffffffffffffffffffffffff021916908373ffffffffffffffffffffffffffffffffffffffff1602179055508173ffffffffffffffffffffffffffffffffffffffff168173ffffffffffffffffffffffffffffffffffffffff167f8be0079c531659141344cd1fd0a4f28419497f9722a3daafe3b4186f6b6457e060405160405180910390a35050565b600260015403611131576040517f08c379a0000000000000000000000000000000000000000000000000000000008152600401611128906124d9565b60405180910390fd5b6002600181905550565b60018081905550565b600033905090565b6000604051905090565b600080fd5b600080fd5b6000819050919050565b61117381611160565b811461117e57600080fd5b50565b6000813590506111908161116a565b92915050565b6000602082840312156111ac576111ab611156565b5b60006111ba84828501611181565b91505092915050565b6111cc81611160565b82525050565b60006080820190506111e760008301876111c3565b6111f460208301866111c3565b61120160408301856111c3565b61120e60608301846111c3565b95945050505050565b600080fd5b600080fd5b6000601f19601f8301169050919050565b7f4e487b7100000000000000000000000000000000000000000000000000000000600052604160045260246000fd5b61126a82611221565b810181811067ffffffffffffffff8211171561128957611288611232565b5b80604052505050565b600061129c61114c565b90506112a88282611261565b919050565b600067ffffffffffffffff8211156112c8576112c7611232565b5b6112d182611221565b9050602081019050919050565b82818337600083830152505050565b60006113006112fb846112ad565b611292565b90508281526020810184848401111561131c5761131b61121c565b5b6113278482856112de565b509392505050565b600082601f83011261134457611343611217565b5b81356113548482602086016112ed565b91505092915050565b60008115159050919050565b6113728161135d565b811461137d57600080fd5b50565b60008135905061138f81611369565b92915050565b60008060008060008060008060006101208a8c0312156113b8576113b7611156565b5b60006113c68c828d01611181565b99505060208a013567ffffffffffffffff8111156113e7576113e661115b565b5b6113f38c828d0161132f565b98505060406114048c828d01611181565b97505060606114158c828d01611181565b96505060806114268c828d01611181565b95505060a06114378c828d01611181565b94505060c06114488c828d01611181565b93505060e06114598c828d01611380565b92505061010061146b8c828d01611181565b9150509295985092959850929598565b6000806040838503121561149257611491611156565b5b60006114a085828601611181565b92505060206114b185828601611181565b9150509250929050565b600073ffffffffffffffffffffffffffffffffffffffff82169050919050565b60006114e6826114bb565b9050919050565b6114f6816114db565b82525050565b600060208201905061151160008301846114ed565b92915050565b600081519050919050565b600082825260208201905092915050565b6000819050602082019050919050565b61154c81611160565b82525050565b600081519050919050565b600082825260208201905092915050565b60005b8381101561158c578082015181840152602081019050611571565b60008484015250505050565b60006115a382611552565b6115ad818561155d565b93506115bd81856020860161156e565b6115c681611221565b840191505092915050565b6115da8161135d565b82525050565b6000610160830160008301516115f96000860182611543565b50602083015184820360208601526116118282611598565b91505060408301516116266040860182611543565b5060608301516116396060860182611543565b50608083015161164c6080860182611543565b5060a083015161165f60a0860182611543565b5060c083015161167260c08601826115d1565b5060e083015161168560e0860182611543565b5061010083015161169a610100860182611543565b506101208301516116af610120860182611543565b506101408301516116c46101408601826115d1565b508091505092915050565b60006116db83836115e0565b905092915050565b6000602082019050919050565b60006116fb82611517565b6117058185611522565b93508360208202850161171785611533565b8060005b85811015611753578484038952815161173485826116cf565b945061173f836116e3565b925060208a0199505060018101905061171b565b50829750879550505050505092915050565b6000602082019050818103600083015261177f81846116f0565b905092915050565b611790816114db565b811461179b57600080fd5b50565b6000813590506117ad81611787565b92915050565b600080604083850312156117ca576117c9611156565b5b60006117d88582860161179e565b92505060206117e985828601611181565b9150509250929050565b600060208201905061180860008301846111c3565b92915050565b6000819050919050565b600061183361182e611829846114bb565b61180e565b6114bb565b9050919050565b600061184582611818565b9050919050565b60006118578261183a565b9050919050565b6118678161184c565b82525050565b6000602082019050611882600083018461185e565b92915050565b60006118938261183a565b9050919050565b6118a381611888565b82525050565b60006020820190506118be600083018461189a565b92915050565b6000602082840312156118da576118d9611156565b5b60006118e88482850161179e565b91505092915050565b60008060006060848603121561190a57611909611156565b5b600061191886828701611181565b935050602061192986828701611181565b925050604061193a86828701611181565b9150509250925092565b600082825260208201905092915050565b7f67616d6520646f6573206e6f7420657869737400000000000000000000000000600082015250565b600061198b601383611944565b915061199682611955565b602082019050919050565b600060208201905081810360008301526119ba8161197e565b9050919050565b7f4e487b7100000000000000000000000000000000000000000000000000000000600052602260045260246000fd5b60006002820490506001821680611a0857607f821691505b602082108103611a1b57611a1a6119c1565b5b50919050565b60008190508160005260206000209050919050565b60006020601f8301049050919050565b600082821b905092915050565b600060088302611a837fffffffffffffffffffffffffffffffffffffffffffffffffffffffffffffffff82611a46565b611a8d8683611a46565b95508019841693508086168417925050509392505050565b6000611ac0611abb611ab684611160565b61180e565b611160565b9050919050565b6000819050919050565b611ada83611aa5565b611aee611ae682611ac7565b848454611a53565b825550505050565b600090565b611b03611af6565b611b0e818484611ad1565b505050565b5b81811015611b3257611b27600082611afb565b600181019050611b14565b5050565b601f821115611b7757611b4881611a21565b611b5184611a36565b81016020851015611b60578190505b611b74611b6c85611a36565b830182611b13565b50505b505050565b600082821c905092915050565b6000611b9a60001984600802611b7c565b1980831691505092915050565b6000611bb38383611b89565b9150826002028217905092915050565b611bcc82611552565b67ffffffffffffffff811115611be557611be4611232565b5b611bef82546119f0565b611bfa828285611b36565b600060209050601f831160018114611c2d5760008415611c1b578287015190505b611c258582611ba7565b865550611c8d565b601f198416611c3b86611a21565b60005b82811015611c6357848901518255600182019150602085019450602081019050611c3e565b86831015611c805784890151611c7c601f891682611b89565b8355505b6001600288020188555050505b505050505050565b7f4e487b7100000000000000000000000000000000000000000000000000000000600052601160045260246000fd5b6000611ccf82611160565b91507fffffffffffffffffffffffffffffffffffffffffffffffffffffffffffffffff8203611d0157611d00611c95565b5b600182019050919050565b6000604082019050611d2160008301856114ed565b611d2e60208301846111c3565b9392505050565b600081519050611d4481611369565b92915050565b600060208284031215611d6057611d5f611156565b5b6000611d6e84828501611d35565b91505092915050565b7f4e487b7100000000000000000000000000000000000000000000000000000000600052603260045260246000fd5b7f70726f6475637420616374697665000000000000000000000000000000000000600082015250565b6000611ddc600e83611944565b9150611de782611da6565b602082019050919050565b60006020820190508181036000830152611e0b81611dcf565b9050919050565b7f70726f64756374206e6f7420696e2073746f7265000000000000000000000000600082015250565b6000611e48601483611944565b9150611e5382611e12565b602082019050919050565b60006020820190508181036000830152611e7781611e3b565b9050919050565b7f6e6f20636f6e7472616374730000000000000000000000000000000000000000600082015250565b6000611eb4600c83611944565b9150611ebf82611e7e565b602082019050919050565b60006020820190508181036000830152611ee381611ea7565b9050919050565b6000604082019050611eff60008301856111c3565b611f0c60208301846114ed565b9392505050565b7f696e76616c69642070726f647563740000000000000000000000000000000000600082015250565b6000611f49600f83611944565b9150611f5482611f13565b602082019050919050565b60006020820190508181036000830152611f7881611f3c565b9050919050565b7f4f776e61626c653a206e6577206f776e657220697320746865207a65726f206160008201527f6464726573730000000000000000000000000000000000000000000000000000602082015250565b6000611fdb602683611944565b9150611fe682611f7f565b604082019050919050565b6000602082019050818103600083015261200a81611fce565b9050919050565b7f70726f6475637420616c7265616479206c6973746564206f6e206d65682e737460008201527f6f72650000000000000000000000000000000000000000000000000000000000602082015250565b600061206d602383611944565b915061207882612011565b604082019050919050565b6000602082019050818103600083015261209c81612060565b9050919050565b60006120ae82611160565b91506120b983611160565b92508282019050808211156120d1576120d0611c95565b5b92915050565b7f6e6f7420656e6f75676820636f6e74726163747320617661696c61626c650000600082015250565b600061210d601e83611944565b9150612118826120d7565b602082019050919050565b6000602082019050818103600083015261213c81612100565b9050919050565b7f70726f64756374206e6f74206f70656e20666f72206465706f73697400000000600082015250565b6000612179601c83611944565b915061218482612143565b602082019050919050565b600060208201905081810360008301526121a88161216c565b9050919050565b60006121ba82611160565b91506121c583611160565b92508282026121d381611160565b915082820484148315176121ea576121e9611c95565b5b5092915050565b600060608201905061220660008301866114ed565b61221360208301856114ed565b61222060408301846111c3565b949350505050565b7f6d6568206465706f736974206661696c65640000000000000000000000000000600082015250565b600061225e601283611944565b915061226982612228565b602082019050919050565b6000602082019050818103600083015261228d81612251565b9050919050565b600081546122a1816119f0565b6122ab8186611944565b945060018216600081146122c657600181146122dc5761230f565b60ff19831686528115156020028601935061230f565b6122e585611a21565b60005b83811015612307578154818901526001820191506020810190506122e8565b808801955050505b50505092915050565b7f6465662d31323300000000000000000000000000000000000000000000000000600082015250565b600061234e600783611944565b915061235982612318565b602082019050919050565b600060808201905061237960008301866111c3565b818103602083015261238b8185612294565b9050818103604083015261239e81612341565b90506123ad60608301846111c3565b949350505050565b7f70726f64756374206e6f7420666f756e64000000000000000000000000000000600082015250565b60006123eb601183611944565b91506123f6826123b5565b602082019050919050565b6000602082019050818103600083015261241a816123de565b9050919050565b7f4f776e61626c653a2063616c6c6572206973206e6f7420746865206f776e6572600082015250565b6000612457602083611944565b915061246282612421565b602082019050919050565b600060208201905081810360008301526124868161244a565b9050919050565b7f5265656e7472616e637947756172643a207265656e7472616e742063616c6c00600082015250565b60006124c3601f83611944565b91506124ce8261248d565b602082019050919050565b600060208201905081810360008301526124f2816124b6565b905091905056fea26469706673582212200f2f3aaae1c9f7afbf3c10892ff7199920f05fda385780e74f01db226d38becc64736f6c63430008180033",
  "linkReferences": {},
  "deployedLinkReferences": {}
}