{
  "_format": "hh-sol-artifact-1",
  "contractName": "MehVoteV1",
  "sourceName": "contracts/MehVoteV1.sol",
  "abi": [
    {
      "inputs": [
        {
          "internalType": "contract IERC20Burnable",
          "name": "_mehToken",
          "type": "address"
        }
      ],
      "stateMutability": "nonpayable",
      "type": "constructor"
    },
    {
      "anonymous": false,
      "inputs": [
        {
          "indexed": false,
          "internalType": "uint256",
          "name": "productId",
          "type": "uint256"
        },
        {
          "indexed": false,
          "internalType": "string",
          "name": "productName",
          "type": "string"
        },
        {
          "indexed": false,
          "internalType": "string",
          "name": "allocatorMerkleRoot",
          "type": "string"
        },
        {
          "indexed": false,
          "internalType": "uint256",
          "name": "totalContracts",
          "type": "uint256"
        }
      ],
      "name": "MehStore",
      "type": "event"
    },
    {
      "anonymous": false,
      "inputs": [
        {
          "indexed": true,
          "internalType": "address",
          "name": "previousOwner",
          "type": "address"
        },
        {
          "indexed": true,
          "internalType": "address",
          "name": "newOwner",
          "type": "address"
        }
      ],
      "name": "OwnershipTransferred",
      "type": "event"
    },
    {
      "inputs": [
        {
          "internalType": "uint256",
          "name": "_gameId",
          "type": "uint256"
        },
        {
          "internalType": "string",
          "name": "_name",
          "type": "string"
        },
        {
          "internalType": "uint256",
          "name": "_mehContracts",
          "type": "uint256"
        },
        {
          "internalType": "uint256",
          "name": "_mehContractPrice",
          "type": "uint256"
        },
        {
          "internalType": "uint256",
          "name": "_begin",
          "type": "uint256"
        },
        {
          "internalType": "uint256",
          "name": "_end",
          "type": "uint256"
        },
        {
          "internalType": "uint256",
          "name": "_totalContracts",
          "type": "uint256"
        },
        {
          "internalType": "bool",
          "name": "_limitedRun",
          "type": "bool"
        }
      ],
      "name": "addProductToGame",
      "outputs": [],
      "stateMutability": "nonpayable",
      "type": "function"
    },
    {
      "inputs": [
        {
          "internalType": "uint256",
          "name": "_gameId",
          "type": "uint256"
        },
        {
          "internalType": "uint256",
          "name": "_productId",
          "type": "uint256"
        }
      ],
      "name": "burnLoserPrizeMeh",
      "outputs": [],
      "stateMutability": "nonpayable",
      "type": "function"
    },
    {
      "inputs": [
        {
          "internalType": "uint256",
          "name": "_gameId",
          "type": "uint256"
        },
        {
          "internalType": "uint256",
          "name": "_productId",
          "type": "uint256"
        }
      ],
      "name": "claim",
      "outputs": [],
      "stateMutability": "nonpayable",
      "type": "function"
    },
    {
      "inputs": [
        {
          "internalType": "uint256",
          "name": "_begin",
          "type": "uint256"
        },
        {
          "internalType": "uint256",
          "name": "_end",
          "type": "uint256"
        }
      ],
      "name": "createGame",
      "outputs": [],
      "stateMutability": "nonpayable",
      "type": "function"
    },
    {
      "inputs": [
        {
          "internalType": "uint256",
          "name": "_gameId",
          "type": "uint256"
        },
        {
          "internalType": "uint256",
          "name": "_productId",
          "type": "uint256"
        },
        {
          "internalType": "uint256",
          "name": "_numContracts",
          "type": "uint256"
        }
      ],
      "name": "depositMeh",
      "outputs": [],
      "stateMutability": "nonpayable",
      "type": "function"
    },
    {
      "inputs": [
        {
          "internalType": "uint256",
          "name": "_amount",
          "type": "uint256"
        }
      ],
      "name": "depositMehStore",
      "outputs": [],
      "stateMutability": "nonpayable",
      "type": "function"
    },
    {
      "inputs": [
        {
          "internalType": "uint256",
          "name": "_gameId",
          "type": "uint256"
        },
        {
          "internalType": "uint256",
          "name": "_productId",
          "type": "uint256"
        },
        {
          "internalType": "uint256",
          "name": "_amount",
          "type": "uint256"
        }
      ],
      "name": "depositPrizeMeh",
      "outputs": [],
      "stateMutability": "nonpayable",
      "type": "function"
    },
    {
      "inputs": [
        {
          "internalType": "address",
          "name": "",
          "type": "address"
        },
        {
          "internalType": "uint256",
          "name": "",
          "type": "uint256"
        }
      ],
      "name": "deposits",
      "outputs": [
        {
          "internalType": "uint256",
          "name": "",
          "type": "uint256"
        }
      ],
      "stateMutability": "view",
      "type": "function"
    },
    {
      "inputs": [
        {
          "internalType": "uint256",
          "name": "",
          "type": "uint256"
        }
      ],
      "name": "games",
      "outputs": [
        {
          "internalType": "uint256",
          "name": "id",
          "type": "uint256"
        },
        {
          "internalType": "uint256",
          "name": "begin",
          "type": "uint256"
        },
        {
          "internalType": "uint256",
          "name": "end",
          "type": "uint256"
        },
        {
          "internalType": "uint256",
          "name": "numProducts",
          "type": "uint256"
        }
      ],
      "stateMutability": "view",
      "type": "function"
    },
    {
      "inputs": [
        {
          "internalType": "uint256",
          "name": "gameId",
          "type": "uint256"
        }
      ],
      "name": "getProductsByGameId",
      "outputs": [
        {
          "components": [
            {
              "internalType": "uint256",
              "name": "id",
              "type": "uint256"
            },
            {
              "internalType": "string",
              "name": "name",
              "type": "string"
            },
            {
              "internalType": "uint256",
              "name": "mehContractsDeposited",
              "type": "uint256"
            },
            {
              "internalType": "uint256",
              "name": "mehContracts",
              "type": "uint256"
            },
            {
              "internalType": "uint256",
              "name": "mehContractPrice",
              "type": "uint256"
            },
            {
              "internalType": "uint256",
              "name": "prizeMeh",
              "type": "uint256"
            },
            {
              "internalType": "bool",
              "name": "mehStore",
              "type": "bool"
            },
            {
              "internalType": "uint256",
              "name": "begin",
              "type": "uint256"
            },
            {
              "internalType": "uint256",
              "name": "end",
              "type": "uint256"
            },
            {
              "internalType": "uint256",
              "name": "totalContracts",
              "type": "uint256"
            },
            {
              "internalType": "bool",
              "name": "limitedRun",
              "type": "bool"
            }
          ],
          "internalType": "struct MehVoteV1.Product[]",
          "name": "",
          "type": "tuple[]"
        }
      ],
      "stateMutability": "view",
      "type": "function"
    },
    {
      "inputs": [],
      "name": "mehToken",
      "outputs": [
        {
          "internalType": "contract IERC20Burnable",
          "name": "",
          "type": "address"
        }
      ],
      "stateMutability": "view",
      "type": "function"
    },
    {
      "inputs": [],
      "name": "owner",
      "outputs": [
        {
          "internalType": "address",
          "name": "",
          "type": "address"
        }
      ],
      "stateMutability": "view",
      "type": "function"
    },
    {
      "inputs": [],
      "name": "renounceOwnership",
      "outputs": [],
      "stateMutability": "nonpayable",
      "type": "function"
    },
    {
      "inputs": [
        {
          "internalType": "address",
          "name": "newOwner",
          "type": "address"
        }
      ],
      "name": "transferOwnership",
      "outputs": [],
      "stateMutability": "nonpayable",
      "type": "function"
    }
  ],
  "bytecode": "0x60a06040523480156200001157600080fd5b50604051620027f8380380620027f883398181016040528101906200003791906200021d565b620000576200004b620000bd60201b60201c565b620000c560201b60201c565b600180819055508073ffffffffffffffffffffffffffffffffffffffff1660808173ffffffffffffffffffffffffffffffffffffffff1681525050620000a460026200018960201b60201c565b620000b660036200018960201b60201c565b506200024f565b600033905090565b60008060009054906101000a900473ffffffffffffffffffffffffffffffffffffffff169050816000806101000a81548173ffffffffffffffffffffffffffffffffffffffff021916908373ffffffffffffffffffffffffffffffffffffffff1602179055508173ffffffffffffffffffffffffffffffffffffffff168173ffffffffffffffffffffffffffffffffffffffff167f8be0079c531659141344cd1fd0a4f28419497f9722a3daafe3b4186f6b6457e060405160405180910390a35050565b6001816000016000828254019250508190555050565b600080fd5b600073ffffffffffffffffffffffffffffffffffffffff82169050919050565b6000620001d182620001a4565b9050919050565b6000620001e582620001c4565b9050919050565b620001f781620001d8565b81146200020357600080fd5b50565b6000815190506200021781620001ec565b92915050565b6000602082840312156200023657620002356200019f565b5b6000620002468482850162000206565b91505092915050565b60805161256a6200028e600039600081816103830152818161049f015281816105ee015281816108bf01528181610cf60152610ee6015261256a6000f3fe608060405234801561001057600080fd5b50600436106100ea5760003560e01c8063c34902631161008c578063d6d6817711610066578063d6d6817714610222578063e2c2c88414610252578063f2fde38b14610270578063f38bee181461028c576100ea565b8063c3490263146101ba578063c7b56842146101d6578063cfb663db14610206576100ea565b8063715018a6116100c8578063715018a61461015a57806376f7b500146101645780638c5b883d146101805780638da5cb5b1461019c576100ea565b8063117a5b90146100ef57806353f8c4831461012257806360104cef1461013e575b600080fd5b610109600480360381019061010491906112f9565b6102a8565b6040516101199493929190611335565b60405180910390f35b61013c6004803603810190610137919061137a565b6102d8565b005b610158600480360381019061015391906113cd565b610429565b005b610162610481565b005b61017e600480360381019061017991906112f9565b610495565b005b61019a600480360381019061019591906113cd565b610546565b005b6101a4610682565b6040516101b1919061144e565b60405180910390f35b6101d460048036038101906101cf91906113cd565b6106ab565b005b6101f060048036038101906101eb91906112f9565b61096c565b6040516101fd91906116d4565b60405180910390f35b610220600480360381019061021b9190611857565b610afa565b005b61023c60048036038101906102379190611955565b610ccf565b6040516102499190611995565b60405180910390f35b61025a610cf4565b6040516102679190611a0f565b60405180910390f35b61028a60048036038101906102859190611a2a565b610d18565b005b6102a660048036038101906102a1919061137a565b610d9b565b005b60046020528060005260406000206000915090508060000154908060010154908060020154908060040154905084565b6102e06110e9565b6000600460008581526020019081526020016000209050600081600301848154811061030f5761030e611a57565b5b90600052602060002090600b020190506000816000015403610366576040517f08c379a000000000000000000000000000000000000000000000000000000000815260040161035d90611ae3565b60405180910390fd5b8281600501600082825461037a9190611b32565b925050819055507f000000000000000000000000000000000000000000000000000000000000000073ffffffffffffffffffffffffffffffffffffffff166323b872dd3330866040518463ffffffff1660e01b81526004016103de93929190611b66565b6020604051808303816000875af11580156103fd573d6000803e3d6000fd5b505050506040513d601f19601f820116820180604052508101906104219190611bb2565b505050505050565b6104316110e9565b600061043d6002611167565b9050600060046000838152602001908152602001600020905081816000018190555083816001018190555082816002018190555061047b6002611175565b50505050565b6104896110e9565b610493600061118b565b565b61049d6110e9565b7f000000000000000000000000000000000000000000000000000000000000000073ffffffffffffffffffffffffffffffffffffffff1663a9059cbb6104e1610682565b836040518363ffffffff1660e01b81526004016104ff929190611bdf565b6020604051808303816000875af115801561051e573d6000803e3d6000fd5b505050506040513d601f19601f820116820180604052508101906105429190611bb2565b5050565b61054e6110e9565b6000600460008481526020019081526020016000209050600081600301838154811061057d5761057c611a57565b5b90600052602060002090600b020190508060060160009054906101000a900460ff16156105df576040517f08c379a00000000000000000000000000000000000000000000000000000000081526004016105d690611c54565b60405180910390fd5b60008160050154111561067c577f000000000000000000000000000000000000000000000000000000000000000073ffffffffffffffffffffffffffffffffffffffff166342966c6882600501546040518263ffffffff1660e01b81526004016106499190611995565b600060405180830381600087803b15801561066357600080fd5b505af1158015610677573d6000803e3d6000fd5b505050505b50505050565b60008060009054906101000a900473ffffffffffffffffffffffffffffffffffffffff16905090565b6106b361124f565b600060046000848152602001908152602001600020905042816002015410610710576040517f08c379a000000000000000000000000000000000000000000000000000000000815260040161070790611cc0565b60405180910390fd5b80600301828154811061072657610725611a57565b5b90600052602060002090600b020160060160009054906101000a900460ff16610784576040517f08c379a000000000000000000000000000000000000000000000000000000000815260040161077b90611d2c565b60405180910390fd5b6000600560003373ffffffffffffffffffffffffffffffffffffffff1673ffffffffffffffffffffffffffffffffffffffff16815260200190815260200160002060008481526020019081526020016000205490506000811161081c576040517f08c379a000000000000000000000000000000000000000000000000000000000815260040161081390611d98565b60405180910390fd5b600082600301848154811061083457610833611a57565b5b90600052602060002090600b0201905060008160030154836108569190611de7565b82600501546108659190611e18565b90506000600560003373ffffffffffffffffffffffffffffffffffffffff1673ffffffffffffffffffffffffffffffffffffffff1681526020019081526020016000206000878152602001908152602001600020819055507f000000000000000000000000000000000000000000000000000000000000000073ffffffffffffffffffffffffffffffffffffffff1663a9059cbb33836040518363ffffffff1660e01b8152600401610918929190611bdf565b6020604051808303816000875af1158015610937573d6000803e3d6000fd5b505050506040513d601f19601f8201168201806040525081019061095b9190611bb2565b505050505061096861129e565b5050565b606060046000838152602001908152602001600020600301805480602002602001604051908101604052809291908181526020016000905b82821015610aef57838290600052602060002090600b020160405180610160016040529081600082015481526020016001820180546109e290611e89565b80601f0160208091040260200160405190810160405280929190818152602001828054610a0e90611e89565b8015610a5b5780601f10610a3057610100808354040283529160200191610a5b565b820191906000526020600020905b815481529060010190602001808311610a3e57829003601f168201915b50505050508152602001600282015481526020016003820154815260200160048201548152602001600582015481526020016006820160009054906101000a900460ff16151515158152602001600782015481526020016008820154815260200160098201548152602001600a820160009054906101000a900460ff161515151581525050815260200190600101906109a4565b505050509050919050565b610b026110e9565b6000600460008a815260200190815260200160002090506000816000015403610b60576040517f08c379a0000000000000000000000000000000000000000000000000000000008152600401610b5790611f06565b60405180910390fd5b6000610b6c6003611167565b905060006040518061016001604052808381526020018b8152602001600081526020018a8152602001898152602001600081526020016000151581526020018881526020018781526020018681526020018515158152509050826003018190806001815401808255809150506001900390600052602060002090600b0201600090919091909150600082015181600001556020820151816001019081610c1291906120c8565b5060408201518160020155606082015181600301556080820151816004015560a0820151816005015560c08201518160060160006101000a81548160ff02191690831515021790555060e082015181600701556101008201518160080155610120820151816009015561014082015181600a0160006101000a81548160ff0219169083151502179055505050826004016000815480929190610cb39061219a565b9190505550610cc26003611175565b5050505050505050505050565b6005602052816000526040600020602052806000526040600020600091509150505481565b7f000000000000000000000000000000000000000000000000000000000000000081565b610d206110e9565b600073ffffffffffffffffffffffffffffffffffffffff168173ffffffffffffffffffffffffffffffffffffffff1603610d8f576040517f08c379a0000000000000000000000000000000000000000000000000000000008152600401610d8690612254565b60405180910390fd5b610d988161118b565b50565b610da361124f565b60006004600085815260200190815260200160002090506000816003018481548110610dd257610dd1611a57565b5b90600052602060002090600b020190506000816000015403610e29576040517f08c379a0000000000000000000000000000000000000000000000000000000008152600401610e2090611ae3565b60405180910390fd5b8060060160009054906101000a900460ff1615610e7b576040517f08c379a0000000000000000000000000000000000000000000000000000000008152600401610e72906122c0565b60405180910390fd5b8060030154838260020154610e909190611b32565b11610ed0576040517f08c379a0000000000000000000000000000000000000000000000000000000008152600401610ec79061232c565b60405180910390fd5b6000816004015484610ee29190611e18565b90507f000000000000000000000000000000000000000000000000000000000000000073ffffffffffffffffffffffffffffffffffffffff166323b872dd3330846040518463ffffffff1660e01b8152600401610f4193929190611b66565b6020604051808303816000875af1158015610f60573d6000803e3d6000fd5b505050506040513d601f19601f82011682018060405250810190610f849190611bb2565b5083600560003373ffffffffffffffffffffffffffffffffffffffff1673ffffffffffffffffffffffffffffffffffffffff16815260200190815260200160002060008781526020019081526020016000206000828254610fe59190611b32565b92505081905550838260020160008282546110009190611b32565b92505081905550816003015484836002015461101c9190611b32565b106110be5760018260060160006101000a81548160ff02191690831515021790555060006040518060400160405280600781526020017f6465662d3030310000000000000000000000000000000000000000000000000081525090507f48bdd33bb928f44a7b0b890963d9afe34abf223c0de29e0174cd429d9ac0c18a86846001018386600901546040516110b49493929190612409565b60405180910390a1505b838260020160008282546110d29190611b32565b925050819055505050506110e461129e565b505050565b6110f16112a7565b73ffffffffffffffffffffffffffffffffffffffff1661110f610682565b73ffffffffffffffffffffffffffffffffffffffff1614611165576040517f08c379a000000000000000000000000000000000000000000000000000000000815260040161115c906124a8565b60405180910390fd5b565b600081600001549050919050565b6001816000016000828254019250508190555050565b60008060009054906101000a900473ffffffffffffffffffffffffffffffffffffffff169050816000806101000a81548173ffffffffffffffffffffffffffffffffffffffff021916908373ffffffffffffffffffffffffffffffffffffffff1602179055508173ffffffffffffffffffffffffffffffffffffffff168173ffffffffffffffffffffffffffffffffffffffff167f8be0079c531659141344cd1fd0a4f28419497f9722a3daafe3b4186f6b6457e060405160405180910390a35050565b600260015403611294576040517f08c379a000000000000000000000000000000000000000000000000000000000815260040161128b90612514565b60405180910390fd5b6002600181905550565b60018081905550565b600033905090565b6000604051905090565b600080fd5b600080fd5b6000819050919050565b6112d6816112c3565b81146112e157600080fd5b50565b6000813590506112f3816112cd565b92915050565b60006020828403121561130f5761130e6112b9565b5b600061131d848285016112e4565b91505092915050565b61132f816112c3565b82525050565b600060808201905061134a6000830187611326565b6113576020830186611326565b6113646040830185611326565b6113716060830184611326565b95945050505050565b600080600060608486031215611393576113926112b9565b5b60006113a1868287016112e4565b93505060206113b2868287016112e4565b92505060406113c3868287016112e4565b9150509250925092565b600080604083850312156113e4576113e36112b9565b5b60006113f2858286016112e4565b9250506020611403858286016112e4565b9150509250929050565b600073ffffffffffffffffffffffffffffffffffffffff82169050919050565b60006114388261140d565b9050919050565b6114488161142d565b82525050565b6000602082019050611463600083018461143f565b92915050565b600081519050919050565b600082825260208201905092915050565b6000819050602082019050919050565b61149e816112c3565b82525050565b600081519050919050565b600082825260208201905092915050565b60005b838110156114de5780820151818401526020810190506114c3565b60008484015250505050565b6000601f19601f8301169050919050565b6000611506826114a4565b61151081856114af565b93506115208185602086016114c0565b611529816114ea565b840191505092915050565b60008115159050919050565b61154981611534565b82525050565b6000610160830160008301516115686000860182611495565b506020830151848203602086015261158082826114fb565b91505060408301516115956040860182611495565b5060608301516115a86060860182611495565b5060808301516115bb6080860182611495565b5060a08301516115ce60a0860182611495565b5060c08301516115e160c0860182611540565b5060e08301516115f460e0860182611495565b50610100830151611609610100860182611495565b5061012083015161161e610120860182611495565b50610140830151611633610140860182611540565b508091505092915050565b600061164a838361154f565b905092915050565b6000602082019050919050565b600061166a82611469565b6116748185611474565b93508360208202850161168685611485565b8060005b858110156116c257848403895281516116a3858261163e565b94506116ae83611652565b925060208a0199505060018101905061168a565b50829750879550505050505092915050565b600060208201905081810360008301526116ee818461165f565b905092915050565b600080fd5b600080fd5b7f4e487b7100000000000000000000000000000000000000000000000000000000600052604160045260246000fd5b611738826114ea565b810181811067ffffffffffffffff8211171561175757611756611700565b5b80604052505050565b600061176a6112af565b9050611776828261172f565b919050565b600067ffffffffffffffff82111561179657611795611700565b5b61179f826114ea565b9050602081019050919050565b82818337600083830152505050565b60006117ce6117c98461177b565b611760565b9050828152602081018484840111156117ea576117e96116fb565b5b6117f58482856117ac565b509392505050565b600082601f830112611812576118116116f6565b5b81356118228482602086016117bb565b91505092915050565b61183481611534565b811461183f57600080fd5b50565b6000813590506118518161182b565b92915050565b600080600080600080600080610100898b031215611878576118776112b9565b5b60006118868b828c016112e4565b985050602089013567ffffffffffffffff8111156118a7576118a66112be565b5b6118b38b828c016117fd565b97505060406118c48b828c016112e4565b96505060606118d58b828c016112e4565b95505060806118e68b828c016112e4565b94505060a06118f78b828c016112e4565b93505060c06119088b828c016112e4565b92505060e06119198b828c01611842565b9150509295985092959890939650565b6119328161142d565b811461193d57600080fd5b50565b60008135905061194f81611929565b92915050565b6000806040838503121561196c5761196b6112b9565b5b600061197a85828601611940565b925050602061198b858286016112e4565b9150509250929050565b60006020820190506119aa6000830184611326565b92915050565b6000819050919050565b60006119d56119d06119cb8461140d565b6119b0565b61140d565b9050919050565b60006119e7826119ba565b9050919050565b60006119f9826119dc565b9050919050565b611a09816119ee565b82525050565b6000602082019050611a246000830184611a00565b92915050565b600060208284031215611a4057611a3f6112b9565b5b6000611a4e84828501611940565b91505092915050565b7f4e487b7100000000000000000000000000000000000000000000000000000000600052603260045260246000fd5b600082825260208201905092915050565b7f70726f6475637420646f6573206e6f7420657869737400000000000000000000600082015250565b6000611acd601683611a86565b9150611ad882611a97565b602082019050919050565b60006020820190508181036000830152611afc81611ac0565b9050919050565b7f4e487b7100000000000000000000000000000000000000000000000000000000600052601160045260246000fd5b6000611b3d826112c3565b9150611b48836112c3565b9250828201905080821115611b6057611b5f611b03565b5b92915050565b6000606082019050611b7b600083018661143f565b611b88602083018561143f565b611b956040830184611326565b949350505050565b600081519050611bac8161182b565b92915050565b600060208284031215611bc857611bc76112b9565b5b6000611bd684828501611b9d565b91505092915050565b6000604082019050611bf4600083018561143f565b611c016020830184611326565b9392505050565b7f70726f6475637420696e2073746f726500000000000000000000000000000000600082015250565b6000611c3e601083611a86565b9150611c4982611c08565b602082019050919050565b60006020820190508181036000830152611c6d81611c31565b9050919050565b7f67616d65206e6f7420656e646564000000000000000000000000000000000000600082015250565b6000611caa600e83611a86565b9150611cb582611c74565b602082019050919050565b60006020820190508181036000830152611cd981611c9d565b9050919050565b7f70726f64756374206e6f7420696e2073746f7265000000000000000000000000600082015250565b6000611d16601483611a86565b9150611d2182611ce0565b602082019050919050565b60006020820190508181036000830152611d4581611d09565b9050919050565b7f6e6f20636f6e7472616374730000000000000000000000000000000000000000600082015250565b6000611d82600c83611a86565b9150611d8d82611d4c565b602082019050919050565b60006020820190508181036000830152611db181611d75565b9050919050565b7f4e487b7100000000000000000000000000000000000000000000000000000000600052601260045260246000fd5b6000611df2826112c3565b9150611dfd836112c3565b925082611e0d57611e0c611db8565b5b828204905092915050565b6000611e23826112c3565b9150611e2e836112c3565b9250828202611e3c816112c3565b91508282048414831517611e5357611e52611b03565b5b5092915050565b7f4e487b7100000000000000000000000000000000000000000000000000000000600052602260045260246000fd5b60006002820490506001821680611ea157607f821691505b602082108103611eb457611eb3611e5a565b5b50919050565b7f67616d6520646f6573206e6f7420657869737400000000000000000000000000600082015250565b6000611ef0601383611a86565b9150611efb82611eba565b602082019050919050565b60006020820190508181036000830152611f1f81611ee3565b9050919050565b60008190508160005260206000209050919050565b60006020601f8301049050919050565b600082821b905092915050565b600060088302611f887fffffffffffffffffffffffffffffffffffffffffffffffffffffffffffffffff82611f4b565b611f928683611f4b565b95508019841693508086168417925050509392505050565b6000611fc5611fc0611fbb846112c3565b6119b0565b6112c3565b9050919050565b6000819050919050565b611fdf83611faa565b611ff3611feb82611fcc565b848454611f58565b825550505050565b600090565b612008611ffb565b612013818484611fd6565b505050565b5b818110156120375761202c600082612000565b600181019050612019565b5050565b601f82111561207c5761204d81611f26565b61205684611f3b565b81016020851015612065578190505b61207961207185611f3b565b830182612018565b50505b505050565b600082821c905092915050565b600061209f60001984600802612081565b1980831691505092915050565b60006120b8838361208e565b9150826002028217905092915050565b6120d1826114a4565b67ffffffffffffffff8111156120ea576120e9611700565b5b6120f48254611e89565b6120ff82828561203b565b600060209050601f8311600181146121325760008415612120578287015190505b61212a85826120ac565b865550612192565b601f19841661214086611f26565b60005b8281101561216857848901518255600182019150602085019450602081019050612143565b868310156121855784890151612181601f89168261208e565b8355505b6001600288020188555050505b505050505050565b60006121a5826112c3565b91507fffffffffffffffffffffffffffffffffffffffffffffffffffffffffffffffff82036121d7576121d6611b03565b5b600182019050919050565b7f4f776e61626c653a206e6577206f776e657220697320746865207a65726f206160008201527f6464726573730000000000000000000000000000000000000000000000000000602082015250565b600061223e602683611a86565b9150612249826121e2565b604082019050919050565b6000602082019050818103600083015261226d81612231565b9050919050565b7f70726f6475637420616c726561647920696e206d65682e73746f726500000000600082015250565b60006122aa601c83611a86565b91506122b582612274565b602082019050919050565b600060208201905081810360008301526122d98161229d565b9050919050565b7f73656c6c6f757400000000000000000000000000000000000000000000000000600082015250565b6000612316600783611a86565b9150612321826122e0565b602082019050919050565b6000602082019050818103600083015261234581612309565b9050919050565b6000815461235981611e89565b6123638186611a86565b9450600182166000811461237e5760018114612394576123c7565b60ff1983168652811515602002860193506123c7565b61239d85611f26565b60005b838110156123bf578154818901526001820191506020810190506123a0565b808801955050505b50505092915050565b60006123db826114a4565b6123e58185611a86565b93506123f58185602086016114c0565b6123fe816114ea565b840191505092915050565b600060808201905061241e6000830187611326565b8181036020830152612430818661234c565b9050818103604083015261244481856123d0565b90506124536060830184611326565b95945050505050565b7f4f776e61626c653a2063616c6c6572206973206e6f7420746865206f776e6572600082015250565b6000612492602083611a86565b915061249d8261245c565b602082019050919050565b600060208201905081810360008301526124c181612485565b9050919050565b7f5265656e7472616e637947756172643a207265656e7472616e742063616c6c00600082015250565b60006124fe601f83611a86565b9150612509826124c8565b602082019050919050565b6000602082019050818103600083015261252d816124f1565b905091905056fea26469706673582212209467002ddfdc60f722b5c176694e5db41e727e263c70c4783d50e961c045244864736f6c63430008180033",
  "linkReferences": {},
  "deployedLinkReferences": {}
}