{
  "_format": "hh-sol-artifact-1",
  "contractName": "MehVoteV1",
  "sourceName": "contracts/MehVoteV1.sol",
  "abi": [
    {
      "inputs": [
        {
          "internalType": "contract IERC20Burnable",
          "name": "_mehToken",
          "type": "address"
        }
      ],
      "stateMutability": "nonpayable",
      "type": "constructor"
    },
    {
      "anonymous": false,
      "inputs": [
        {
          "indexed": true,
          "internalType": "address",
          "name": "previousOwner",
          "type": "address"
        },
        {
          "indexed": true,
          "internalType": "address",
          "name": "newOwner",
          "type": "address"
        }
      ],
      "name": "OwnershipTransferred",
      "type": "event"
    },
    {
      "inputs": [
        {
          "internalType": "uint256",
          "name": "_gameId",
          "type": "uint256"
        },
        {
          "internalType": "uint256",
          "name": "_prizeMeh",
          "type": "uint256"
        },
        {
          "internalType": "uint256",
          "name": "_mehNeeded",
          "type": "uint256"
        },
        {
          "internalType": "uint256",
          "name": "_limitedRun",
          "type": "uint256"
        }
      ],
      "name": "addProductToGame",
      "outputs": [],
      "stateMutability": "nonpayable",
      "type": "function"
    },
    {
      "inputs": [
        {
          "internalType": "uint256",
          "name": "_gameId",
          "type": "uint256"
        },
        {
          "internalType": "uint256",
          "name": "_productId",
          "type": "uint256"
        }
      ],
      "name": "burnLoserMeh",
      "outputs": [],
      "stateMutability": "nonpayable",
      "type": "function"
    },
    {
      "inputs": [
        {
          "internalType": "uint256",
          "name": "_gameId",
          "type": "uint256"
        },
        {
          "internalType": "uint256",
          "name": "_productId",
          "type": "uint256"
        }
      ],
      "name": "claim",
      "outputs": [],
      "stateMutability": "nonpayable",
      "type": "function"
    },
    {
      "inputs": [
        {
          "internalType": "uint256",
          "name": "_begin",
          "type": "uint256"
        },
        {
          "internalType": "uint256",
          "name": "_end",
          "type": "uint256"
        }
      ],
      "name": "createGame",
      "outputs": [],
      "stateMutability": "nonpayable",
      "type": "function"
    },
    {
      "inputs": [
        {
          "internalType": "uint256",
          "name": "_gameId",
          "type": "uint256"
        },
        {
          "internalType": "uint256",
          "name": "_productId",
          "type": "uint256"
        },
        {
          "internalType": "uint256",
          "name": "_amt",
          "type": "uint256"
        }
      ],
      "name": "depositMeh",
      "outputs": [],
      "stateMutability": "nonpayable",
      "type": "function"
    },
    {
      "inputs": [
        {
          "internalType": "uint256",
          "name": "_amount",
          "type": "uint256"
        }
      ],
      "name": "depositMehStore",
      "outputs": [],
      "stateMutability": "nonpayable",
      "type": "function"
    },
    {
      "inputs": [
        {
          "internalType": "uint256",
          "name": "_gameId",
          "type": "uint256"
        },
        {
          "internalType": "uint256",
          "name": "_productId",
          "type": "uint256"
        },
        {
          "internalType": "uint256",
          "name": "_amount",
          "type": "uint256"
        }
      ],
      "name": "depositPrizeMeh",
      "outputs": [],
      "stateMutability": "nonpayable",
      "type": "function"
    },
    {
      "inputs": [
        {
          "internalType": "address",
          "name": "",
          "type": "address"
        },
        {
          "internalType": "uint256",
          "name": "",
          "type": "uint256"
        }
      ],
      "name": "deposits",
      "outputs": [
        {
          "internalType": "uint256",
          "name": "",
          "type": "uint256"
        }
      ],
      "stateMutability": "view",
      "type": "function"
    },
    {
      "inputs": [
        {
          "internalType": "uint256",
          "name": "",
          "type": "uint256"
        }
      ],
      "name": "games",
      "outputs": [
        {
          "internalType": "uint256",
          "name": "id",
          "type": "uint256"
        },
        {
          "internalType": "uint256",
          "name": "begin",
          "type": "uint256"
        },
        {
          "internalType": "uint256",
          "name": "end",
          "type": "uint256"
        },
        {
          "internalType": "uint256",
          "name": "numProducts",
          "type": "uint256"
        }
      ],
      "stateMutability": "view",
      "type": "function"
    },
    {
      "inputs": [],
      "name": "mehToken",
      "outputs": [
        {
          "internalType": "contract IERC20Burnable",
          "name": "",
          "type": "address"
        }
      ],
      "stateMutability": "view",
      "type": "function"
    },
    {
      "inputs": [],
      "name": "owner",
      "outputs": [
        {
          "internalType": "address",
          "name": "",
          "type": "address"
        }
      ],
      "stateMutability": "view",
      "type": "function"
    },
    {
      "inputs": [],
      "name": "renounceOwnership",
      "outputs": [],
      "stateMutability": "nonpayable",
      "type": "function"
    },
    {
      "inputs": [
        {
          "internalType": "address",
          "name": "newOwner",
          "type": "address"
        }
      ],
      "name": "transferOwnership",
      "outputs": [],
      "stateMutability": "nonpayable",
      "type": "function"
    }
  ],
  "bytecode": "0x60a06040523480156200001157600080fd5b5060405162001a1738038062001a178339818101604052810190620000379190620001e3565b620000576200004b6200009960201b60201c565b620000a160201b60201c565b600180819055508073ffffffffffffffffffffffffffffffffffffffff1660808173ffffffffffffffffffffffffffffffffffffffff16815250505062000215565b600033905090565b60008060009054906101000a900473ffffffffffffffffffffffffffffffffffffffff169050816000806101000a81548173ffffffffffffffffffffffffffffffffffffffff021916908373ffffffffffffffffffffffffffffffffffffffff1602179055508173ffffffffffffffffffffffffffffffffffffffff168173ffffffffffffffffffffffffffffffffffffffff167f8be0079c531659141344cd1fd0a4f28419497f9722a3daafe3b4186f6b6457e060405160405180910390a35050565b600080fd5b600073ffffffffffffffffffffffffffffffffffffffff82169050919050565b600062000197826200016a565b9050919050565b6000620001ab826200018a565b9050919050565b620001bd816200019e565b8114620001c957600080fd5b50565b600081519050620001dd81620001b2565b92915050565b600060208284031215620001fc57620001fb62000165565b5b60006200020c84828501620001cc565b91505092915050565b6080516117c3620002546000396000818161032901528181610445015281816107fb0152818161097201528181610a050152610bac01526117c36000f3fe608060405234801561001057600080fd5b50600436106100cf5760003560e01c8063ad95624b1161008c578063da9b1bb711610066578063da9b1bb7146101eb578063e2c2c88414610207578063f2fde38b14610225578063f38bee1814610241576100cf565b8063ad95624b14610183578063c34902631461019f578063d6d68177146101bb576100cf565b8063117a5b90146100d457806353f8c4831461010757806360104cef14610123578063715018a61461013f57806376f7b500146101495780638da5cb5b14610165575b600080fd5b6100ee60048036038101906100e99190610eab565b61025d565b6040516100fe9493929190610ee7565b60405180910390f35b610121600480360381019061011c9190610f2c565b61028d565b005b61013d60048036038101906101389190610f7f565b6103cf565b005b610147610427565b005b610163600480360381019061015e9190610eab565b61043b565b005b61016d6104ec565b60405161017a9190611000565b60405180910390f35b61019d6004803603810190610198919061101b565b610515565b005b6101b960048036038101906101b49190610f7f565b610650565b005b6101d560048036038101906101d091906110ae565b6108a0565b6040516101e291906110ee565b60405180910390f35b61020560048036038101906102009190610f7f565b6108c5565b005b61020f610a03565b60405161021c9190611168565b60405180910390f35b61023f600480360381019061023a9190611183565b610a27565b005b61025b60048036038101906102569190610f2c565b610aaa565b005b60046020528060005260406000206000915090508060000154908060010154908060020154908060040154905084565b610295610d02565b600060046000858152602001908152602001600020905060008160030160008581526020019081526020016000209050600081600001540361030c576040517f08c379a00000000000000000000000000000000000000000000000000000000081526004016103039061120d565b60405180910390fd5b82816003016000828254610320919061125c565b925050819055507f000000000000000000000000000000000000000000000000000000000000000073ffffffffffffffffffffffffffffffffffffffff166323b872dd3330866040518463ffffffff1660e01b815260040161038493929190611290565b6020604051808303816000875af11580156103a3573d6000803e3d6000fd5b505050506040513d601f19601f820116820180604052508101906103c791906112ff565b505050505050565b6103d7610d02565b60006103e36002610d80565b905060006004600083815260200190815260200160002090508181600001819055508381600101819055508281600201819055506104216002610d8e565b50505050565b61042f610d02565b6104396000610da4565b565b610443610d02565b7f000000000000000000000000000000000000000000000000000000000000000073ffffffffffffffffffffffffffffffffffffffff1663a9059cbb6104876104ec565b836040518363ffffffff1660e01b81526004016104a592919061132c565b6020604051808303816000875af11580156104c4573d6000803e3d6000fd5b505050506040513d601f19601f820116820180604052508101906104e891906112ff565b5050565b60008060009054906101000a900473ffffffffffffffffffffffffffffffffffffffff16905090565b61051d610d02565b6000600460008681526020019081526020016000209050600081600001540361057b576040517f08c379a0000000000000000000000000000000000000000000000000000000008152600401610572906113a1565b60405180910390fd5b60006105876003610d80565b90506040518060c001604052808281526020016000815260200185815260200186815260200184815260200160001515815250826003016000838152602001908152602001600020600082015181600001556020820151816001015560408201518160020155606082015181600301556080820151816004015560a08201518160050160006101000a81548160ff02191690831515021790555090505061062e6003610d8e565b816004016000815480929190610643906113c1565b9190505550505050505050565b6000600460008481526020019081526020016000209050428160020154106106ad576040517f08c379a00000000000000000000000000000000000000000000000000000000081526004016106a490611455565b60405180910390fd5b80600301600083815260200190815260200160002060050160009054906101000a900460ff16610712576040517f08c379a0000000000000000000000000000000000000000000000000000000008152600401610709906114c1565b60405180910390fd5b6000600560003373ffffffffffffffffffffffffffffffffffffffff1673ffffffffffffffffffffffffffffffffffffffff1681526020019081526020016000206000848152602001908152602001600020549050600082600301600085815260200190815260200160002090506000816001015482600301548461079791906114e1565b6107a19190611552565b90506000600560003373ffffffffffffffffffffffffffffffffffffffff1673ffffffffffffffffffffffffffffffffffffffff1681526020019081526020016000206000878152602001908152602001600020819055507f000000000000000000000000000000000000000000000000000000000000000073ffffffffffffffffffffffffffffffffffffffff1663a9059cbb33836040518363ffffffff1660e01b815260040161085492919061132c565b6020604051808303816000875af1158015610873573d6000803e3d6000fd5b505050506040513d601f19601f8201168201806040525081019061089791906112ff565b50505050505050565b6005602052816000526040600020602052806000526040600020600091509150505481565b6108cd610d02565b6000600460008481526020019081526020016000209050600081600301600084815260200190815260200160002090508060050160009054906101000a900460ff161561094f576040517f08c379a0000000000000000000000000000000000000000000000000000000008152600401610946906115cf565b60405180910390fd5b600081600301548260010154610965919061125c565b905060008111156109fc577f000000000000000000000000000000000000000000000000000000000000000073ffffffffffffffffffffffffffffffffffffffff166342966c68826040518263ffffffff1660e01b81526004016109c991906110ee565b600060405180830381600087803b1580156109e357600080fd5b505af11580156109f7573d6000803e3d6000fd5b505050505b5050505050565b7f000000000000000000000000000000000000000000000000000000000000000081565b610a2f610d02565b600073ffffffffffffffffffffffffffffffffffffffff168173ffffffffffffffffffffffffffffffffffffffff1603610a9e576040517f08c379a0000000000000000000000000000000000000000000000000000000008152600401610a9590611661565b60405180910390fd5b610aa781610da4565b50565b6000600460008581526020019081526020016000209050600081600301600085815260200190815260200160002090506000816000015403610b21576040517f08c379a0000000000000000000000000000000000000000000000000000000008152600401610b189061120d565b60405180910390fd5b8060050160009054906101000a900460ff1615610b73576040517f08c379a0000000000000000000000000000000000000000000000000000000008152600401610b6a906116cd565b60405180910390fd5b60008390508160020154818360010154610b8d919061125c565b1115610baa5781600101548260020154610ba791906116ed565b90505b7f000000000000000000000000000000000000000000000000000000000000000073ffffffffffffffffffffffffffffffffffffffff166323b872dd3330846040518463ffffffff1660e01b8152600401610c0793929190611290565b6020604051808303816000875af1158015610c26573d6000803e3d6000fd5b505050506040513d601f19601f82011682018060405250810190610c4a91906112ff565b5080826001016000828254610c5f919061125c565b925050819055508160020154826001015403610c935760018260050160006101000a81548160ff0219169083151502179055505b80600560003373ffffffffffffffffffffffffffffffffffffffff1673ffffffffffffffffffffffffffffffffffffffff16815260200190815260200160002060008781526020019081526020016000206000828254610cf3919061125c565b92505081905550505050505050565b610d0a610e68565b73ffffffffffffffffffffffffffffffffffffffff16610d286104ec565b73ffffffffffffffffffffffffffffffffffffffff1614610d7e576040517f08c379a0000000000000000000000000000000000000000000000000000000008152600401610d759061176d565b60405180910390fd5b565b600081600001549050919050565b6001816000016000828254019250508190555050565b60008060009054906101000a900473ffffffffffffffffffffffffffffffffffffffff169050816000806101000a81548173ffffffffffffffffffffffffffffffffffffffff021916908373ffffffffffffffffffffffffffffffffffffffff1602179055508173ffffffffffffffffffffffffffffffffffffffff168173ffffffffffffffffffffffffffffffffffffffff167f8be0079c531659141344cd1fd0a4f28419497f9722a3daafe3b4186f6b6457e060405160405180910390a35050565b600033905090565b600080fd5b6000819050919050565b610e8881610e75565b8114610e9357600080fd5b50565b600081359050610ea581610e7f565b92915050565b600060208284031215610ec157610ec0610e70565b5b6000610ecf84828501610e96565b91505092915050565b610ee181610e75565b82525050565b6000608082019050610efc6000830187610ed8565b610f096020830186610ed8565b610f166040830185610ed8565b610f236060830184610ed8565b95945050505050565b600080600060608486031215610f4557610f44610e70565b5b6000610f5386828701610e96565b9350506020610f6486828701610e96565b9250506040610f7586828701610e96565b9150509250925092565b60008060408385031215610f9657610f95610e70565b5b6000610fa485828601610e96565b9250506020610fb585828601610e96565b9150509250929050565b600073ffffffffffffffffffffffffffffffffffffffff82169050919050565b6000610fea82610fbf565b9050919050565b610ffa81610fdf565b82525050565b60006020820190506110156000830184610ff1565b92915050565b6000806000806080858703121561103557611034610e70565b5b600061104387828801610e96565b945050602061105487828801610e96565b935050604061106587828801610e96565b925050606061107687828801610e96565b91505092959194509250565b61108b81610fdf565b811461109657600080fd5b50565b6000813590506110a881611082565b92915050565b600080604083850312156110c5576110c4610e70565b5b60006110d385828601611099565b92505060206110e485828601610e96565b9150509250929050565b60006020820190506111036000830184610ed8565b92915050565b6000819050919050565b600061112e61112961112484610fbf565b611109565b610fbf565b9050919050565b600061114082611113565b9050919050565b600061115282611135565b9050919050565b61116281611147565b82525050565b600060208201905061117d6000830184611159565b92915050565b60006020828403121561119957611198610e70565b5b60006111a784828501611099565b91505092915050565b600082825260208201905092915050565b7f70726f6475637420646f6573206e6f7420657869737400000000000000000000600082015250565b60006111f76016836111b0565b9150611202826111c1565b602082019050919050565b60006020820190508181036000830152611226816111ea565b9050919050565b7f4e487b7100000000000000000000000000000000000000000000000000000000600052601160045260246000fd5b600061126782610e75565b915061127283610e75565b925082820190508082111561128a5761128961122d565b5b92915050565b60006060820190506112a56000830186610ff1565b6112b26020830185610ff1565b6112bf6040830184610ed8565b949350505050565b60008115159050919050565b6112dc816112c7565b81146112e757600080fd5b50565b6000815190506112f9816112d3565b92915050565b60006020828403121561131557611314610e70565b5b6000611323848285016112ea565b91505092915050565b60006040820190506113416000830185610ff1565b61134e6020830184610ed8565b9392505050565b7f67616d6520646f6573206e6f7420657869737400000000000000000000000000600082015250565b600061138b6013836111b0565b915061139682611355565b602082019050919050565b600060208201905081810360008301526113ba8161137e565b9050919050565b60006113cc82610e75565b91507fffffffffffffffffffffffffffffffffffffffffffffffffffffffffffffffff82036113fe576113fd61122d565b5b600182019050919050565b7f67616d65206e6f7420656e646564000000000000000000000000000000000000600082015250565b600061143f600e836111b0565b915061144a82611409565b602082019050919050565b6000602082019050818103600083015261146e81611432565b9050919050565b7f70726f64756374206e6f7420696e2073746f7265000000000000000000000000600082015250565b60006114ab6014836111b0565b91506114b682611475565b602082019050919050565b600060208201905081810360008301526114da8161149e565b9050919050565b60006114ec82610e75565b91506114f783610e75565b925082820261150581610e75565b9150828204841483151761151c5761151b61122d565b5b5092915050565b7f4e487b7100000000000000000000000000000000000000000000000000000000600052601260045260246000fd5b600061155d82610e75565b915061156883610e75565b92508261157857611577611523565b5b828204905092915050565b7f70726f6475637420696e2073746f726500000000000000000000000000000000600082015250565b60006115b96010836111b0565b91506115c482611583565b602082019050919050565b600060208201905081810360008301526115e8816115ac565b9050919050565b7f4f776e61626c653a206e6577206f776e657220697320746865207a65726f206160008201527f6464726573730000000000000000000000000000000000000000000000000000602082015250565b600061164b6026836111b0565b9150611656826115ef565b604082019050919050565b6000602082019050818103600083015261167a8161163e565b9050919050565b7f70726f6475637420616c726561647920696e206d65682e73746f726500000000600082015250565b60006116b7601c836111b0565b91506116c282611681565b602082019050919050565b600060208201905081810360008301526116e6816116aa565b9050919050565b60006116f882610e75565b915061170383610e75565b925082820390508181111561171b5761171a61122d565b5b92915050565b7f4f776e61626c653a2063616c6c6572206973206e6f7420746865206f776e6572600082015250565b60006117576020836111b0565b915061176282611721565b602082019050919050565b600060208201905081810360008301526117868161174a565b905091905056fea2646970667358221220b20564a994764e710602a7531ea9767f0484767b2d012fa413985a036ae7d69a64736f6c63430008180033",
  "linkReferences": {},
  "deployedLinkReferences": {}
}