{
  "_format": "hh-sol-artifact-1",
  "contractName": "MehVoteV1",
  "sourceName": "contracts/MehVoteV1.sol",
  "abi": [
    {
      "inputs": [
        {
          "internalType": "contract IERC20Burnable",
          "name": "_mehToken",
          "type": "address"
        }
      ],
      "stateMutability": "nonpayable",
      "type": "constructor"
    },
    {
      "anonymous": false,
      "inputs": [
        {
          "indexed": true,
          "internalType": "address",
          "name": "previousOwner",
          "type": "address"
        },
        {
          "indexed": true,
          "internalType": "address",
          "name": "newOwner",
          "type": "address"
        }
      ],
      "name": "OwnershipTransferred",
      "type": "event"
    },
    {
      "inputs": [
        {
          "internalType": "uint256",
          "name": "gameId",
          "type": "uint256"
        },
        {
          "internalType": "uint256",
          "name": "prizeMeh",
          "type": "uint256"
        },
        {
          "internalType": "uint256",
          "name": "mehNeeded",
          "type": "uint256"
        }
      ],
      "name": "addProductToGame",
      "outputs": [],
      "stateMutability": "nonpayable",
      "type": "function"
    },
    {
      "inputs": [
        {
          "internalType": "uint256",
          "name": "gameId",
          "type": "uint256"
        },
        {
          "internalType": "uint256",
          "name": "productId",
          "type": "uint256"
        },
        {
          "internalType": "bool",
          "name": "lock",
          "type": "bool"
        }
      ],
      "name": "claim",
      "outputs": [],
      "stateMutability": "nonpayable",
      "type": "function"
    },
    {
      "inputs": [
        {
          "internalType": "uint256",
          "name": "begin",
          "type": "uint256"
        },
        {
          "internalType": "uint256",
          "name": "end",
          "type": "uint256"
        }
      ],
      "name": "createGame",
      "outputs": [],
      "stateMutability": "nonpayable",
      "type": "function"
    },
    {
      "inputs": [
        {
          "internalType": "uint256",
          "name": "gameId",
          "type": "uint256"
        },
        {
          "internalType": "uint256",
          "name": "productId",
          "type": "uint256"
        },
        {
          "internalType": "uint256",
          "name": "amt",
          "type": "uint256"
        }
      ],
      "name": "depositMeh",
      "outputs": [],
      "stateMutability": "nonpayable",
      "type": "function"
    },
    {
      "inputs": [
        {
          "internalType": "uint256",
          "name": "gameId",
          "type": "uint256"
        },
        {
          "internalType": "uint256",
          "name": "productId",
          "type": "uint256"
        },
        {
          "internalType": "uint256",
          "name": "amount",
          "type": "uint256"
        }
      ],
      "name": "depositPrizeMeh",
      "outputs": [],
      "stateMutability": "nonpayable",
      "type": "function"
    },
    {
      "inputs": [
        {
          "internalType": "uint256",
          "name": "amount",
          "type": "uint256"
        }
      ],
      "name": "extractMeh",
      "outputs": [],
      "stateMutability": "nonpayable",
      "type": "function"
    },
    {
      "inputs": [
        {
          "internalType": "uint256",
          "name": "",
          "type": "uint256"
        }
      ],
      "name": "games",
      "outputs": [
        {
          "internalType": "uint256",
          "name": "id",
          "type": "uint256"
        },
        {
          "internalType": "uint256",
          "name": "begin",
          "type": "uint256"
        },
        {
          "internalType": "uint256",
          "name": "end",
          "type": "uint256"
        },
        {
          "internalType": "uint256",
          "name": "numProducts",
          "type": "uint256"
        }
      ],
      "stateMutability": "view",
      "type": "function"
    },
    {
      "inputs": [],
      "name": "mehToken",
      "outputs": [
        {
          "internalType": "contract IERC20Burnable",
          "name": "",
          "type": "address"
        }
      ],
      "stateMutability": "view",
      "type": "function"
    },
    {
      "inputs": [],
      "name": "owner",
      "outputs": [
        {
          "internalType": "address",
          "name": "",
          "type": "address"
        }
      ],
      "stateMutability": "view",
      "type": "function"
    },
    {
      "inputs": [],
      "name": "renounceOwnership",
      "outputs": [],
      "stateMutability": "nonpayable",
      "type": "function"
    },
    {
      "inputs": [
        {
          "internalType": "address",
          "name": "newOwner",
          "type": "address"
        }
      ],
      "name": "transferOwnership",
      "outputs": [],
      "stateMutability": "nonpayable",
      "type": "function"
    },
    {
      "inputs": [
        {
          "internalType": "uint256",
          "name": "gameId",
          "type": "uint256"
        },
        {
          "internalType": "uint256",
          "name": "productId",
          "type": "uint256"
        },
        {
          "internalType": "bool",
          "name": "isWinner",
          "type": "bool"
        }
      ],
      "name": "updateProductWinStatus",
      "outputs": [],
      "stateMutability": "nonpayable",
      "type": "function"
    },
    {
      "inputs": [
        {
          "internalType": "address",
          "name": "",
          "type": "address"
        },
        {
          "internalType": "uint256",
          "name": "",
          "type": "uint256"
        }
      ],
      "name": "userDeposits",
      "outputs": [
        {
          "internalType": "uint256",
          "name": "",
          "type": "uint256"
        }
      ],
      "stateMutability": "view",
      "type": "function"
    }
  ],
  "bytecode": "0x60a06040523480156200001157600080fd5b5060405162001a8438038062001a848339818101604052810190620000379190620001e3565b620000576200004b6200009960201b60201c565b620000a160201b60201c565b600180819055508073ffffffffffffffffffffffffffffffffffffffff1660808173ffffffffffffffffffffffffffffffffffffffff16815250505062000215565b600033905090565b60008060009054906101000a900473ffffffffffffffffffffffffffffffffffffffff169050816000806101000a81548173ffffffffffffffffffffffffffffffffffffffff021916908373ffffffffffffffffffffffffffffffffffffffff1602179055508173ffffffffffffffffffffffffffffffffffffffff168173ffffffffffffffffffffffffffffffffffffffff167f8be0079c531659141344cd1fd0a4f28419497f9722a3daafe3b4186f6b6457e060405160405180910390a35050565b600080fd5b600073ffffffffffffffffffffffffffffffffffffffff82169050919050565b600062000197826200016a565b9050919050565b6000620001ab826200018a565b9050919050565b620001bd816200019e565b8114620001c957600080fd5b50565b600081519050620001dd81620001b2565b92915050565b600060208284031215620001fc57620001fb62000165565b5b60006200020c84828501620001cc565b91505092915050565b6080516118306200025460003960008181610478015281816106e901528181610887015281816109ce01528181610a770152610c1901526118306000f3fe608060405234801561001057600080fd5b50600436106100cf5760003560e01c8063715018a61161008c578063aa733df611610066578063aa733df6146101eb578063e2c2c88414610207578063f2fde38b14610225578063f38bee1814610241576100cf565b8063715018a6146101a75780638da5cb5b146101b1578063a6fca2e1146101cf576100cf565b806308f43333146100d4578063117a5b90146101045780633e2c19401461013757806353f8c483146101535780635d8b788a1461016f57806360104cef1461018b575b600080fd5b6100ee60048036038101906100e99190610f75565b61025d565b6040516100fb9190610fc4565b60405180910390f35b61011e60048036038101906101199190610fdf565b610282565b60405161012e949392919061100c565b60405180910390f35b610151600480360381019061014c9190611051565b6102b2565b005b61016d60048036038101906101689190611051565b6103dc565b005b610189600480360381019061018491906110dc565b61051e565b005b6101a560048036038101906101a0919061112f565b6107e8565b005b6101af610840565b005b6101b9610854565b6040516101c6919061117e565b60405180910390f35b6101e960048036038101906101e49190610fdf565b61087d565b005b610205600480360381019061020091906110dc565b61092e565b005b61020f610a75565b60405161021c91906111f8565b60405180910390f35b61023f600480360381019061023a9190611213565b610a99565b005b61025b60048036038101906102569190611051565b610b1c565b005b6005602052816000526040600020602052806000526040600020600091509150505481565b60046020528060005260406000206000915090508060000154908060010154908060020154908060040154905084565b6102ba610d6e565b60006004600085815260200190815260200160002090506000816000015403610318576040517f08c379a000000000000000000000000000000000000000000000000000000000815260040161030f9061129d565b60405180910390fd5b60006103246003610dec565b90506040518060a0016040528082815260200160008152602001848152602001858152602001600015158152508260030160008381526020019081526020016000206000820151816000015560208201518160010155604082015181600201556060820151816003015560808201518160040160006101000a81548160ff0219169083151502179055509050506103bb6003610dfa565b8160040160008154809291906103d0906112ec565b91905055505050505050565b6103e4610d6e565b600060046000858152602001908152602001600020905060008160030160008581526020019081526020016000209050600081600001540361045b576040517f08c379a000000000000000000000000000000000000000000000000000000000815260040161045290611380565b60405180910390fd5b8281600301600082825461046f91906113a0565b925050819055507f000000000000000000000000000000000000000000000000000000000000000073ffffffffffffffffffffffffffffffffffffffff166323b872dd3330866040518463ffffffff1660e01b81526004016104d3939291906113d4565b6020604051808303816000875af11580156104f2573d6000803e3d6000fd5b505050506040513d601f19601f820116820180604052508101906105169190611420565b505050505050565b60006004600085815260200190815260200160002090504281600201541061057b576040517f08c379a000000000000000000000000000000000000000000000000000000000815260040161057290611499565b60405180910390fd5b80600301600084815260200190815260200160002060040160009054906101000a900460ff166105e0576040517f08c379a00000000000000000000000000000000000000000000000000000000081526004016105d790611505565b60405180910390fd5b6000600560003373ffffffffffffffffffffffffffffffffffffffff1673ffffffffffffffffffffffffffffffffffffffff16815260200190815260200160002060008581526020019081526020016000205490506000826003016000868152602001908152602001600020905060008160010154905060008260030154905085156106c1576000600560003373ffffffffffffffffffffffffffffffffffffffff1673ffffffffffffffffffffffffffffffffffffffff1681526020019081526020016000206000898152602001908152602001600020819055506107de565b60008282866106d09190611525565b6106da9190611596565b856106e591906113a0565b90507f000000000000000000000000000000000000000000000000000000000000000073ffffffffffffffffffffffffffffffffffffffff1663a9059cbb33836040518363ffffffff1660e01b81526004016107429291906115c7565b6020604051808303816000875af1158015610761573d6000803e3d6000fd5b505050506040513d601f19601f820116820180604052508101906107859190611420565b506000600560003373ffffffffffffffffffffffffffffffffffffffff1673ffffffffffffffffffffffffffffffffffffffff16815260200190815260200160002060008a815260200190815260200160002081905550505b5050505050505050565b6107f0610d6e565b60006107fc6002610dec565b9050600060046000838152602001908152602001600020905081816000018190555083816001018190555082816002018190555061083a6002610dfa565b50505050565b610848610d6e565b6108526000610e10565b565b60008060009054906101000a900473ffffffffffffffffffffffffffffffffffffffff16905090565b610885610d6e565b7f000000000000000000000000000000000000000000000000000000000000000073ffffffffffffffffffffffffffffffffffffffff1663a9059cbb6108c9610854565b836040518363ffffffff1660e01b81526004016108e79291906115c7565b6020604051808303816000875af1158015610906573d6000803e3d6000fd5b505050506040513d601f19601f8201168201806040525081019061092a9190611420565b5050565b610936610d6e565b600060046000858152602001908152602001600020905060008160030160008581526020019081526020016000209050821561098e5760018160040160006101000a81548160ff021916908315150217905550610a6e565b60008160040160006101000a81548160ff0219169083151502179055506000816003015482600101546109c191906113a0565b90506000811115610a58577f000000000000000000000000000000000000000000000000000000000000000073ffffffffffffffffffffffffffffffffffffffff166342966c68826040518263ffffffff1660e01b8152600401610a259190610fc4565b600060405180830381600087803b158015610a3f57600080fd5b505af1158015610a53573d6000803e3d6000fd5b505050505b6000826001018190555060008260030181905550505b5050505050565b7f000000000000000000000000000000000000000000000000000000000000000081565b610aa1610d6e565b600073ffffffffffffffffffffffffffffffffffffffff168173ffffffffffffffffffffffffffffffffffffffff1603610b10576040517f08c379a0000000000000000000000000000000000000000000000000000000008152600401610b0790611662565b60405180910390fd5b610b1981610e10565b50565b6000600460008581526020019081526020016000209050600081600301600085815260200190815260200160002090506000816000015403610b93576040517f08c379a0000000000000000000000000000000000000000000000000000000008152600401610b8a906116ce565b60405180910390fd5b8060040160009054906101000a900460ff1615610be5576040517f08c379a0000000000000000000000000000000000000000000000000000000008152600401610bdc9061173a565b60405180910390fd5b8060020154838260010154610bfa91906113a0565b1115610c175780600101548160020154610c14919061175a565b92505b7f000000000000000000000000000000000000000000000000000000000000000073ffffffffffffffffffffffffffffffffffffffff166323b872dd3330866040518463ffffffff1660e01b8152600401610c74939291906113d4565b6020604051808303816000875af1158015610c93573d6000803e3d6000fd5b505050506040513d601f19601f82011682018060405250810190610cb79190611420565b5082816001016000828254610ccc91906113a0565b925050819055508060020154816001015403610d005760018160040160006101000a81548160ff0219169083151502179055505b82600560003373ffffffffffffffffffffffffffffffffffffffff1673ffffffffffffffffffffffffffffffffffffffff16815260200190815260200160002060008681526020019081526020016000206000828254610d6091906113a0565b925050819055505050505050565b610d76610ed4565b73ffffffffffffffffffffffffffffffffffffffff16610d94610854565b73ffffffffffffffffffffffffffffffffffffffff1614610dea576040517f08c379a0000000000000000000000000000000000000000000000000000000008152600401610de1906117da565b60405180910390fd5b565b600081600001549050919050565b6001816000016000828254019250508190555050565b60008060009054906101000a900473ffffffffffffffffffffffffffffffffffffffff169050816000806101000a81548173ffffffffffffffffffffffffffffffffffffffff021916908373ffffffffffffffffffffffffffffffffffffffff1602179055508173ffffffffffffffffffffffffffffffffffffffff168173ffffffffffffffffffffffffffffffffffffffff167f8be0079c531659141344cd1fd0a4f28419497f9722a3daafe3b4186f6b6457e060405160405180910390a35050565b600033905090565b600080fd5b600073ffffffffffffffffffffffffffffffffffffffff82169050919050565b6000610f0c82610ee1565b9050919050565b610f1c81610f01565b8114610f2757600080fd5b50565b600081359050610f3981610f13565b92915050565b6000819050919050565b610f5281610f3f565b8114610f5d57600080fd5b50565b600081359050610f6f81610f49565b92915050565b60008060408385031215610f8c57610f8b610edc565b5b6000610f9a85828601610f2a565b9250506020610fab85828601610f60565b9150509250929050565b610fbe81610f3f565b82525050565b6000602082019050610fd96000830184610fb5565b92915050565b600060208284031215610ff557610ff4610edc565b5b600061100384828501610f60565b91505092915050565b60006080820190506110216000830187610fb5565b61102e6020830186610fb5565b61103b6040830185610fb5565b6110486060830184610fb5565b95945050505050565b60008060006060848603121561106a57611069610edc565b5b600061107886828701610f60565b935050602061108986828701610f60565b925050604061109a86828701610f60565b9150509250925092565b60008115159050919050565b6110b9816110a4565b81146110c457600080fd5b50565b6000813590506110d6816110b0565b92915050565b6000806000606084860312156110f5576110f4610edc565b5b600061110386828701610f60565b935050602061111486828701610f60565b9250506040611125868287016110c7565b9150509250925092565b6000806040838503121561114657611145610edc565b5b600061115485828601610f60565b925050602061116585828601610f60565b9150509250929050565b61117881610f01565b82525050565b6000602082019050611193600083018461116f565b92915050565b6000819050919050565b60006111be6111b96111b484610ee1565b611199565b610ee1565b9050919050565b60006111d0826111a3565b9050919050565b60006111e2826111c5565b9050919050565b6111f2816111d7565b82525050565b600060208201905061120d60008301846111e9565b92915050565b60006020828403121561122957611228610edc565b5b600061123784828501610f2a565b91505092915050565b600082825260208201905092915050565b7f47616d6520646f6573206e6f7420657869737400000000000000000000000000600082015250565b6000611287601383611240565b915061129282611251565b602082019050919050565b600060208201905081810360008301526112b68161127a565b9050919050565b7f4e487b7100000000000000000000000000000000000000000000000000000000600052601160045260246000fd5b60006112f782610f3f565b91507fffffffffffffffffffffffffffffffffffffffffffffffffffffffffffffffff8203611329576113286112bd565b5b600182019050919050565b7f50726f6475637420646f6573206e6f7420657869737400000000000000000000600082015250565b600061136a601683611240565b915061137582611334565b602082019050919050565b600060208201905081810360008301526113998161135d565b9050919050565b60006113ab82610f3f565b91506113b683610f3f565b92508282019050808211156113ce576113cd6112bd565b5b92915050565b60006060820190506113e9600083018661116f565b6113f6602083018561116f565b6114036040830184610fb5565b949350505050565b60008151905061141a816110b0565b92915050565b60006020828403121561143657611435610edc565b5b60006114448482850161140b565b91505092915050565b7f47616d65206e6f7420656e646564207965740000000000000000000000000000600082015250565b6000611483601283611240565b915061148e8261144d565b602082019050919050565b600060208201905081810360008301526114b281611476565b9050919050565b7f50726f6475637420646964206e6f742077696e00000000000000000000000000600082015250565b60006114ef601383611240565b91506114fa826114b9565b602082019050919050565b6000602082019050818103600083015261151e816114e2565b9050919050565b600061153082610f3f565b915061153b83610f3f565b925082820261154981610f3f565b915082820484148315176115605761155f6112bd565b5b5092915050565b7f4e487b7100000000000000000000000000000000000000000000000000000000600052601260045260246000fd5b60006115a182610f3f565b91506115ac83610f3f565b9250826115bc576115bb611567565b5b828204905092915050565b60006040820190506115dc600083018561116f565b6115e96020830184610fb5565b9392505050565b7f4f776e61626c653a206e6577206f776e657220697320746865207a65726f206160008201527f6464726573730000000000000000000000000000000000000000000000000000602082015250565b600061164c602683611240565b9150611657826115f0565b604082019050919050565b6000602082019050818103600083015261167b8161163f565b9050919050565b7f70726f6475637420646f6573206e6f7420657869737400000000000000000000600082015250565b60006116b8601683611240565b91506116c382611682565b602082019050919050565b600060208201905081810360008301526116e7816116ab565b9050919050565b7f70726f64756374206e6f742066756e6465640000000000000000000000000000600082015250565b6000611724601283611240565b915061172f826116ee565b602082019050919050565b6000602082019050818103600083015261175381611717565b9050919050565b600061176582610f3f565b915061177083610f3f565b9250828203905081811115611788576117876112bd565b5b92915050565b7f4f776e61626c653a2063616c6c6572206973206e6f7420746865206f776e6572600082015250565b60006117c4602083611240565b91506117cf8261178e565b602082019050919050565b600060208201905081810360008301526117f3816117b7565b905091905056fea2646970667358221220417f5267835b8d4e7ac0797e103381946a0d72e63321b2a6a98d85d31860545264736f6c63430008180033",
  "linkReferences": {},
  "deployedLinkReferences": {}
}