{
  "_format": "hh-sol-artifact-1",
  "contractName": "MehVoteV1",
  "sourceName": "contracts/MehVoteV1.sol",
  "abi": [
    {
      "inputs": [
        {
          "internalType": "contract IERC20Burnable",
          "name": "_mehToken",
          "type": "address"
        }
      ],
      "stateMutability": "nonpayable",
      "type": "constructor"
    },
    {
      "anonymous": false,
      "inputs": [
        {
          "indexed": true,
          "internalType": "address",
          "name": "previousOwner",
          "type": "address"
        },
        {
          "indexed": true,
          "internalType": "address",
          "name": "newOwner",
          "type": "address"
        }
      ],
      "name": "OwnershipTransferred",
      "type": "event"
    },
    {
      "inputs": [
        {
          "internalType": "uint256",
          "name": "_gameId",
          "type": "uint256"
        },
        {
          "internalType": "uint256",
          "name": "_prizeMeh",
          "type": "uint256"
        },
        {
          "internalType": "uint256",
          "name": "_mehNeeded",
          "type": "uint256"
        },
        {
          "internalType": "uint256",
          "name": "_limitedRun",
          "type": "uint256"
        },
        {
          "internalType": "uint256",
          "name": "_begin",
          "type": "uint256"
        },
        {
          "internalType": "uint256",
          "name": "_end",
          "type": "uint256"
        }
      ],
      "name": "addProductToGame",
      "outputs": [],
      "stateMutability": "nonpayable",
      "type": "function"
    },
    {
      "inputs": [
        {
          "internalType": "uint256",
          "name": "_gameId",
          "type": "uint256"
        },
        {
          "internalType": "uint256",
          "name": "_productId",
          "type": "uint256"
        }
      ],
      "name": "burnLoserMeh",
      "outputs": [],
      "stateMutability": "nonpayable",
      "type": "function"
    },
    {
      "inputs": [
        {
          "internalType": "uint256",
          "name": "_gameId",
          "type": "uint256"
        },
        {
          "internalType": "uint256",
          "name": "_productId",
          "type": "uint256"
        }
      ],
      "name": "claim",
      "outputs": [],
      "stateMutability": "nonpayable",
      "type": "function"
    },
    {
      "inputs": [
        {
          "internalType": "uint256",
          "name": "_begin",
          "type": "uint256"
        },
        {
          "internalType": "uint256",
          "name": "_end",
          "type": "uint256"
        }
      ],
      "name": "createGame",
      "outputs": [],
      "stateMutability": "nonpayable",
      "type": "function"
    },
    {
      "inputs": [
        {
          "internalType": "uint256",
          "name": "_gameId",
          "type": "uint256"
        },
        {
          "internalType": "uint256",
          "name": "_productId",
          "type": "uint256"
        },
        {
          "internalType": "uint256",
          "name": "_amt",
          "type": "uint256"
        }
      ],
      "name": "depositMeh",
      "outputs": [],
      "stateMutability": "nonpayable",
      "type": "function"
    },
    {
      "inputs": [
        {
          "internalType": "uint256",
          "name": "_amount",
          "type": "uint256"
        }
      ],
      "name": "depositMehStore",
      "outputs": [],
      "stateMutability": "nonpayable",
      "type": "function"
    },
    {
      "inputs": [
        {
          "internalType": "uint256",
          "name": "_gameId",
          "type": "uint256"
        },
        {
          "internalType": "uint256",
          "name": "_productId",
          "type": "uint256"
        },
        {
          "internalType": "uint256",
          "name": "_amount",
          "type": "uint256"
        }
      ],
      "name": "depositPrizeMeh",
      "outputs": [],
      "stateMutability": "nonpayable",
      "type": "function"
    },
    {
      "inputs": [
        {
          "internalType": "address",
          "name": "",
          "type": "address"
        },
        {
          "internalType": "uint256",
          "name": "",
          "type": "uint256"
        }
      ],
      "name": "deposits",
      "outputs": [
        {
          "internalType": "uint256",
          "name": "",
          "type": "uint256"
        }
      ],
      "stateMutability": "view",
      "type": "function"
    },
    {
      "inputs": [
        {
          "internalType": "uint256",
          "name": "",
          "type": "uint256"
        }
      ],
      "name": "games",
      "outputs": [
        {
          "internalType": "uint256",
          "name": "id",
          "type": "uint256"
        },
        {
          "internalType": "uint256",
          "name": "begin",
          "type": "uint256"
        },
        {
          "internalType": "uint256",
          "name": "end",
          "type": "uint256"
        },
        {
          "internalType": "uint256",
          "name": "numProducts",
          "type": "uint256"
        }
      ],
      "stateMutability": "view",
      "type": "function"
    },
    {
      "inputs": [],
      "name": "mehToken",
      "outputs": [
        {
          "internalType": "contract IERC20Burnable",
          "name": "",
          "type": "address"
        }
      ],
      "stateMutability": "view",
      "type": "function"
    },
    {
      "inputs": [],
      "name": "owner",
      "outputs": [
        {
          "internalType": "address",
          "name": "",
          "type": "address"
        }
      ],
      "stateMutability": "view",
      "type": "function"
    },
    {
      "inputs": [],
      "name": "renounceOwnership",
      "outputs": [],
      "stateMutability": "nonpayable",
      "type": "function"
    },
    {
      "inputs": [
        {
          "internalType": "address",
          "name": "newOwner",
          "type": "address"
        }
      ],
      "name": "transferOwnership",
      "outputs": [],
      "stateMutability": "nonpayable",
      "type": "function"
    }
  ],
  "bytecode": "0x60a06040523480156200001157600080fd5b5060405162001a9a38038062001a9a83398181016040528101906200003791906200021d565b620000576200004b620000bd60201b60201c565b620000c560201b60201c565b600180819055508073ffffffffffffffffffffffffffffffffffffffff1660808173ffffffffffffffffffffffffffffffffffffffff1681525050620000a460026200018960201b60201c565b620000b660036200018960201b60201c565b506200024f565b600033905090565b60008060009054906101000a900473ffffffffffffffffffffffffffffffffffffffff169050816000806101000a81548173ffffffffffffffffffffffffffffffffffffffff021916908373ffffffffffffffffffffffffffffffffffffffff1602179055508173ffffffffffffffffffffffffffffffffffffffff168173ffffffffffffffffffffffffffffffffffffffff167f8be0079c531659141344cd1fd0a4f28419497f9722a3daafe3b4186f6b6457e060405160405180910390a35050565b6001816000016000828254019250508190555050565b600080fd5b600073ffffffffffffffffffffffffffffffffffffffff82169050919050565b6000620001d182620001a4565b9050919050565b6000620001e582620001c4565b9050919050565b620001f781620001d8565b81146200020357600080fd5b50565b6000815190506200021781620001ec565b92915050565b6000602082840312156200023657620002356200019f565b5b6000620002468482850162000206565b91505092915050565b60805161180c6200028e60003960008181610329015281816105a30152818161081e0152818161099501528181610a280152610bcf015261180c6000f3fe608060405234801561001057600080fd5b50600436106100cf5760003560e01c80638da5cb5b1161008c578063da9b1bb711610066578063da9b1bb7146101eb578063e2c2c88414610207578063f2fde38b14610225578063f38bee1814610241576100cf565b80638da5cb5b14610181578063c34902631461019f578063d6d68177146101bb576100cf565b8063117a5b90146100d457806353f8c4831461010757806360104cef1461012357806365e5f0531461013f578063715018a61461015b57806376f7b50014610165575b600080fd5b6100ee60048036038101906100e99190610ece565b61025d565b6040516100fe9493929190610f0a565b60405180910390f35b610121600480360381019061011c9190610f4f565b61028d565b005b61013d60048036038101906101389190610fa2565b6103cf565b005b61015960048036038101906101549190610fe2565b610427565b005b610163610585565b005b61017f600480360381019061017a9190610ece565b610599565b005b61018961064a565b60405161019691906110b0565b60405180910390f35b6101b960048036038101906101b49190610fa2565b610673565b005b6101d560048036038101906101d091906110f7565b6108c3565b6040516101e29190611137565b60405180910390f35b61020560048036038101906102009190610fa2565b6108e8565b005b61020f610a26565b60405161021c91906111b1565b60405180910390f35b61023f600480360381019061023a91906111cc565b610a4a565b005b61025b60048036038101906102569190610f4f565b610acd565b005b60046020528060005260406000206000915090508060000154908060010154908060020154908060040154905084565b610295610d25565b600060046000858152602001908152602001600020905060008160030160008581526020019081526020016000209050600081600001540361030c576040517f08c379a000000000000000000000000000000000000000000000000000000000815260040161030390611256565b60405180910390fd5b8281600301600082825461032091906112a5565b925050819055507f000000000000000000000000000000000000000000000000000000000000000073ffffffffffffffffffffffffffffffffffffffff166323b872dd3330866040518463ffffffff1660e01b8152600401610384939291906112d9565b6020604051808303816000875af11580156103a3573d6000803e3d6000fd5b505050506040513d601f19601f820116820180604052508101906103c79190611348565b505050505050565b6103d7610d25565b60006103e36002610da3565b905060006004600083815260200190815260200160002090508181600001819055508381600101819055508281600201819055506104216002610db1565b50505050565b61042f610d25565b6000600460008881526020019081526020016000209050600081600001540361048d576040517f08c379a0000000000000000000000000000000000000000000000000000000008152600401610484906113c1565b60405180910390fd5b60006104996003610da3565b90506040518061010001604052808281526020016000815260200187815260200188815260200186815260200160001515815260200185815260200184815250826003016000838152602001908152602001600020600082015181600001556020820151816001015560408201518160020155606082015181600301556080820151816004015560a08201518160050160006101000a81548160ff02191690831515021790555060c0820151816006015560e082015181600701559050506105616003610db1565b816004016000815480929190610576906113e1565b91905055505050505050505050565b61058d610d25565b6105976000610dc7565b565b6105a1610d25565b7f000000000000000000000000000000000000000000000000000000000000000073ffffffffffffffffffffffffffffffffffffffff1663a9059cbb6105e561064a565b836040518363ffffffff1660e01b8152600401610603929190611429565b6020604051808303816000875af1158015610622573d6000803e3d6000fd5b505050506040513d601f19601f820116820180604052508101906106469190611348565b5050565b60008060009054906101000a900473ffffffffffffffffffffffffffffffffffffffff16905090565b6000600460008481526020019081526020016000209050428160020154106106d0576040517f08c379a00000000000000000000000000000000000000000000000000000000081526004016106c79061149e565b60405180910390fd5b80600301600083815260200190815260200160002060050160009054906101000a900460ff16610735576040517f08c379a000000000000000000000000000000000000000000000000000000000815260040161072c9061150a565b60405180910390fd5b6000600560003373ffffffffffffffffffffffffffffffffffffffff1673ffffffffffffffffffffffffffffffffffffffff168152602001908152602001600020600084815260200190815260200160002054905060008260030160008581526020019081526020016000209050600081600101548260030154846107ba919061152a565b6107c4919061159b565b90506000600560003373ffffffffffffffffffffffffffffffffffffffff1673ffffffffffffffffffffffffffffffffffffffff1681526020019081526020016000206000878152602001908152602001600020819055507f000000000000000000000000000000000000000000000000000000000000000073ffffffffffffffffffffffffffffffffffffffff1663a9059cbb33836040518363ffffffff1660e01b8152600401610877929190611429565b6020604051808303816000875af1158015610896573d6000803e3d6000fd5b505050506040513d601f19601f820116820180604052508101906108ba9190611348565b50505050505050565b6005602052816000526040600020602052806000526040600020600091509150505481565b6108f0610d25565b6000600460008481526020019081526020016000209050600081600301600084815260200190815260200160002090508060050160009054906101000a900460ff1615610972576040517f08c379a000000000000000000000000000000000000000000000000000000000815260040161096990611618565b60405180910390fd5b60008160030154826001015461098891906112a5565b90506000811115610a1f577f000000000000000000000000000000000000000000000000000000000000000073ffffffffffffffffffffffffffffffffffffffff166342966c68826040518263ffffffff1660e01b81526004016109ec9190611137565b600060405180830381600087803b158015610a0657600080fd5b505af1158015610a1a573d6000803e3d6000fd5b505050505b5050505050565b7f000000000000000000000000000000000000000000000000000000000000000081565b610a52610d25565b600073ffffffffffffffffffffffffffffffffffffffff168173ffffffffffffffffffffffffffffffffffffffff1603610ac1576040517f08c379a0000000000000000000000000000000000000000000000000000000008152600401610ab8906116aa565b60405180910390fd5b610aca81610dc7565b50565b6000600460008581526020019081526020016000209050600081600301600085815260200190815260200160002090506000816000015403610b44576040517f08c379a0000000000000000000000000000000000000000000000000000000008152600401610b3b90611256565b60405180910390fd5b8060050160009054906101000a900460ff1615610b96576040517f08c379a0000000000000000000000000000000000000000000000000000000008152600401610b8d90611716565b60405180910390fd5b60008390508160020154818360010154610bb091906112a5565b1115610bcd5781600101548260020154610bca9190611736565b90505b7f000000000000000000000000000000000000000000000000000000000000000073ffffffffffffffffffffffffffffffffffffffff166323b872dd3330846040518463ffffffff1660e01b8152600401610c2a939291906112d9565b6020604051808303816000875af1158015610c49573d6000803e3d6000fd5b505050506040513d601f19601f82011682018060405250810190610c6d9190611348565b5080826001016000828254610c8291906112a5565b925050819055508160020154826001015403610cb65760018260050160006101000a81548160ff0219169083151502179055505b80600560003373ffffffffffffffffffffffffffffffffffffffff1673ffffffffffffffffffffffffffffffffffffffff16815260200190815260200160002060008781526020019081526020016000206000828254610d1691906112a5565b92505081905550505050505050565b610d2d610e8b565b73ffffffffffffffffffffffffffffffffffffffff16610d4b61064a565b73ffffffffffffffffffffffffffffffffffffffff1614610da1576040517f08c379a0000000000000000000000000000000000000000000000000000000008152600401610d98906117b6565b60405180910390fd5b565b600081600001549050919050565b6001816000016000828254019250508190555050565b60008060009054906101000a900473ffffffffffffffffffffffffffffffffffffffff169050816000806101000a81548173ffffffffffffffffffffffffffffffffffffffff021916908373ffffffffffffffffffffffffffffffffffffffff1602179055508173ffffffffffffffffffffffffffffffffffffffff168173ffffffffffffffffffffffffffffffffffffffff167f8be0079c531659141344cd1fd0a4f28419497f9722a3daafe3b4186f6b6457e060405160405180910390a35050565b600033905090565b600080fd5b6000819050919050565b610eab81610e98565b8114610eb657600080fd5b50565b600081359050610ec881610ea2565b92915050565b600060208284031215610ee457610ee3610e93565b5b6000610ef284828501610eb9565b91505092915050565b610f0481610e98565b82525050565b6000608082019050610f1f6000830187610efb565b610f2c6020830186610efb565b610f396040830185610efb565b610f466060830184610efb565b95945050505050565b600080600060608486031215610f6857610f67610e93565b5b6000610f7686828701610eb9565b9350506020610f8786828701610eb9565b9250506040610f9886828701610eb9565b9150509250925092565b60008060408385031215610fb957610fb8610e93565b5b6000610fc785828601610eb9565b9250506020610fd885828601610eb9565b9150509250929050565b60008060008060008060c08789031215610fff57610ffe610e93565b5b600061100d89828a01610eb9565b965050602061101e89828a01610eb9565b955050604061102f89828a01610eb9565b945050606061104089828a01610eb9565b935050608061105189828a01610eb9565b92505060a061106289828a01610eb9565b9150509295509295509295565b600073ffffffffffffffffffffffffffffffffffffffff82169050919050565b600061109a8261106f565b9050919050565b6110aa8161108f565b82525050565b60006020820190506110c560008301846110a1565b92915050565b6110d48161108f565b81146110df57600080fd5b50565b6000813590506110f1816110cb565b92915050565b6000806040838503121561110e5761110d610e93565b5b600061111c858286016110e2565b925050602061112d85828601610eb9565b9150509250929050565b600060208201905061114c6000830184610efb565b92915050565b6000819050919050565b600061117761117261116d8461106f565b611152565b61106f565b9050919050565b60006111898261115c565b9050919050565b600061119b8261117e565b9050919050565b6111ab81611190565b82525050565b60006020820190506111c660008301846111a2565b92915050565b6000602082840312156111e2576111e1610e93565b5b60006111f0848285016110e2565b91505092915050565b600082825260208201905092915050565b7f70726f6475637420646f6573206e6f7420657869737400000000000000000000600082015250565b60006112406016836111f9565b915061124b8261120a565b602082019050919050565b6000602082019050818103600083015261126f81611233565b9050919050565b7f4e487b7100000000000000000000000000000000000000000000000000000000600052601160045260246000fd5b60006112b082610e98565b91506112bb83610e98565b92508282019050808211156112d3576112d2611276565b5b92915050565b60006060820190506112ee60008301866110a1565b6112fb60208301856110a1565b6113086040830184610efb565b949350505050565b60008115159050919050565b61132581611310565b811461133057600080fd5b50565b6000815190506113428161131c565b92915050565b60006020828403121561135e5761135d610e93565b5b600061136c84828501611333565b91505092915050565b7f67616d6520646f6573206e6f7420657869737400000000000000000000000000600082015250565b60006113ab6013836111f9565b91506113b682611375565b602082019050919050565b600060208201905081810360008301526113da8161139e565b9050919050565b60006113ec82610e98565b91507fffffffffffffffffffffffffffffffffffffffffffffffffffffffffffffffff820361141e5761141d611276565b5b600182019050919050565b600060408201905061143e60008301856110a1565b61144b6020830184610efb565b9392505050565b7f67616d65206e6f7420656e646564000000000000000000000000000000000000600082015250565b6000611488600e836111f9565b915061149382611452565b602082019050919050565b600060208201905081810360008301526114b78161147b565b9050919050565b7f70726f64756374206e6f7420696e2073746f7265000000000000000000000000600082015250565b60006114f46014836111f9565b91506114ff826114be565b602082019050919050565b60006020820190508181036000830152611523816114e7565b9050919050565b600061153582610e98565b915061154083610e98565b925082820261154e81610e98565b9150828204841483151761156557611564611276565b5b5092915050565b7f4e487b7100000000000000000000000000000000000000000000000000000000600052601260045260246000fd5b60006115a682610e98565b91506115b183610e98565b9250826115c1576115c061156c565b5b828204905092915050565b7f70726f6475637420696e2073746f726500000000000000000000000000000000600082015250565b60006116026010836111f9565b915061160d826115cc565b602082019050919050565b60006020820190508181036000830152611631816115f5565b9050919050565b7f4f776e61626c653a206e6577206f776e657220697320746865207a65726f206160008201527f6464726573730000000000000000000000000000000000000000000000000000602082015250565b60006116946026836111f9565b915061169f82611638565b604082019050919050565b600060208201905081810360008301526116c381611687565b9050919050565b7f70726f6475637420616c726561647920696e206d65682e73746f726500000000600082015250565b6000611700601c836111f9565b915061170b826116ca565b602082019050919050565b6000602082019050818103600083015261172f816116f3565b9050919050565b600061174182610e98565b915061174c83610e98565b925082820390508181111561176457611763611276565b5b92915050565b7f4f776e61626c653a2063616c6c6572206973206e6f7420746865206f776e6572600082015250565b60006117a06020836111f9565b91506117ab8261176a565b602082019050919050565b600060208201905081810360008301526117cf81611793565b905091905056fea26469706673582212203d65500af986314e6a456ad0363ab4e4b2feb76e910d87b3153542212990a8bb64736f6c63430008180033",
  "linkReferences": {},
  "deployedLinkReferences": {}
}