{
  "_format": "hh-sol-artifact-1",
  "contractName": "MehVoteV1",
  "sourceName": "contracts/MehVoteV1.sol",
  "abi": [
    {
      "inputs": [
        {
          "internalType": "contract IERC20Burnable",
          "name": "_mehToken",
          "type": "address"
        },
        {
          "internalType": "contract IRoyalty",
          "name": "_royalties",
          "type": "address"
        }
      ],
      "stateMutability": "nonpayable",
      "type": "constructor"
    },
    {
      "anonymous": false,
      "inputs": [
        {
          "indexed": false,
          "internalType": "uint256",
          "name": "productId",
          "type": "uint256"
        },
        {
          "indexed": false,
          "internalType": "string",
          "name": "productName",
          "type": "string"
        },
        {
          "indexed": false,
          "internalType": "string",
          "name": "allocatorMerkleRoot",
          "type": "string"
        },
        {
          "indexed": false,
          "internalType": "uint256",
          "name": "totalContracts",
          "type": "uint256"
        }
      ],
      "name": "MehStore",
      "type": "event"
    },
    {
      "anonymous": false,
      "inputs": [
        {
          "indexed": true,
          "internalType": "address",
          "name": "previousOwner",
          "type": "address"
        },
        {
          "indexed": true,
          "internalType": "address",
          "name": "newOwner",
          "type": "address"
        }
      ],
      "name": "OwnershipTransferred",
      "type": "event"
    },
    {
      "inputs": [
        {
          "internalType": "uint256",
          "name": "_gameId",
          "type": "uint256"
        },
        {
          "internalType": "string",
          "name": "_name",
          "type": "string"
        },
        {
          "internalType": "uint256",
          "name": "_mehContracts",
          "type": "uint256"
        },
        {
          "internalType": "uint256",
          "name": "_mehContractPrice",
          "type": "uint256"
        },
        {
          "internalType": "uint256",
          "name": "_begin",
          "type": "uint256"
        },
        {
          "internalType": "uint256",
          "name": "_end",
          "type": "uint256"
        },
        {
          "internalType": "uint256",
          "name": "_totalContracts",
          "type": "uint256"
        },
        {
          "internalType": "bool",
          "name": "_limitedRun",
          "type": "bool"
        },
        {
          "internalType": "uint256",
          "name": "_prizeMeh",
          "type": "uint256"
        }
      ],
      "name": "addProductToGame",
      "outputs": [],
      "stateMutability": "nonpayable",
      "type": "function"
    },
    {
      "inputs": [
        {
          "internalType": "uint256",
          "name": "_gameId",
          "type": "uint256"
        },
        {
          "internalType": "uint256",
          "name": "_productId",
          "type": "uint256"
        }
      ],
      "name": "claim",
      "outputs": [],
      "stateMutability": "nonpayable",
      "type": "function"
    },
    {
      "inputs": [
        {
          "internalType": "uint256",
          "name": "_begin",
          "type": "uint256"
        },
        {
          "internalType": "uint256",
          "name": "_end",
          "type": "uint256"
        }
      ],
      "name": "createGame",
      "outputs": [],
      "stateMutability": "nonpayable",
      "type": "function"
    },
    {
      "inputs": [
        {
          "internalType": "uint256",
          "name": "_gameId",
          "type": "uint256"
        },
        {
          "internalType": "uint256",
          "name": "_productId",
          "type": "uint256"
        },
        {
          "internalType": "uint256",
          "name": "_numContracts",
          "type": "uint256"
        }
      ],
      "name": "depositMeh",
      "outputs": [],
      "stateMutability": "nonpayable",
      "type": "function"
    },
    {
      "inputs": [
        {
          "internalType": "uint256",
          "name": "_amount",
          "type": "uint256"
        }
      ],
      "name": "depositMehStore",
      "outputs": [],
      "stateMutability": "nonpayable",
      "type": "function"
    },
    {
      "inputs": [
        {
          "internalType": "address",
          "name": "",
          "type": "address"
        },
        {
          "internalType": "uint256",
          "name": "",
          "type": "uint256"
        }
      ],
      "name": "deposits",
      "outputs": [
        {
          "internalType": "uint256",
          "name": "",
          "type": "uint256"
        }
      ],
      "stateMutability": "view",
      "type": "function"
    },
    {
      "inputs": [
        {
          "internalType": "uint256",
          "name": "",
          "type": "uint256"
        }
      ],
      "name": "games",
      "outputs": [
        {
          "internalType": "uint256",
          "name": "id",
          "type": "uint256"
        },
        {
          "internalType": "uint256",
          "name": "begin",
          "type": "uint256"
        },
        {
          "internalType": "uint256",
          "name": "end",
          "type": "uint256"
        },
        {
          "internalType": "uint256",
          "name": "numProducts",
          "type": "uint256"
        }
      ],
      "stateMutability": "view",
      "type": "function"
    },
    {
      "inputs": [
        {
          "internalType": "uint256",
          "name": "gameId",
          "type": "uint256"
        }
      ],
      "name": "getProductsByGameId",
      "outputs": [
        {
          "components": [
            {
              "internalType": "uint256",
              "name": "id",
              "type": "uint256"
            },
            {
              "internalType": "string",
              "name": "name",
              "type": "string"
            },
            {
              "internalType": "uint256",
              "name": "mehContractsDeposited",
              "type": "uint256"
            },
            {
              "internalType": "uint256",
              "name": "mehContracts",
              "type": "uint256"
            },
            {
              "internalType": "uint256",
              "name": "mehContractPrice",
              "type": "uint256"
            },
            {
              "internalType": "uint256",
              "name": "prizeMeh",
              "type": "uint256"
            },
            {
              "internalType": "bool",
              "name": "mehStore",
              "type": "bool"
            },
            {
              "internalType": "uint256",
              "name": "begin",
              "type": "uint256"
            },
            {
              "internalType": "uint256",
              "name": "end",
              "type": "uint256"
            },
            {
              "internalType": "uint256",
              "name": "totalContracts",
              "type": "uint256"
            },
            {
              "internalType": "bool",
              "name": "limitedRun",
              "type": "bool"
            }
          ],
          "internalType": "struct MehVoteV1.Product[]",
          "name": "",
          "type": "tuple[]"
        }
      ],
      "stateMutability": "view",
      "type": "function"
    },
    {
      "inputs": [],
      "name": "mehToken",
      "outputs": [
        {
          "internalType": "contract IERC20Burnable",
          "name": "",
          "type": "address"
        }
      ],
      "stateMutability": "view",
      "type": "function"
    },
    {
      "inputs": [],
      "name": "owner",
      "outputs": [
        {
          "internalType": "address",
          "name": "",
          "type": "address"
        }
      ],
      "stateMutability": "view",
      "type": "function"
    },
    {
      "inputs": [],
      "name": "renounceOwnership",
      "outputs": [],
      "stateMutability": "nonpayable",
      "type": "function"
    },
    {
      "inputs": [],
      "name": "royalties",
      "outputs": [
        {
          "internalType": "contract IRoyalty",
          "name": "",
          "type": "address"
        }
      ],
      "stateMutability": "view",
      "type": "function"
    },
    {
      "inputs": [
        {
          "internalType": "address",
          "name": "newOwner",
          "type": "address"
        }
      ],
      "name": "transferOwnership",
      "outputs": [],
      "stateMutability": "nonpayable",
      "type": "function"
    }
  ],
  "bytecode": "0x60c06040523480156200001157600080fd5b506040516200275038038062002750833981810160405281019062000037919062000297565b620000576200004b620000f260201b60201c565b620000fa60201b60201c565b600180819055508173ffffffffffffffffffffffffffffffffffffffff1660808173ffffffffffffffffffffffffffffffffffffffff16815250508073ffffffffffffffffffffffffffffffffffffffff1660a08173ffffffffffffffffffffffffffffffffffffffff1681525050620000d86002620001be60201b60201c565b620000ea6003620001be60201b60201c565b5050620002de565b600033905090565b60008060009054906101000a900473ffffffffffffffffffffffffffffffffffffffff169050816000806101000a81548173ffffffffffffffffffffffffffffffffffffffff021916908373ffffffffffffffffffffffffffffffffffffffff1602179055508173ffffffffffffffffffffffffffffffffffffffff168173ffffffffffffffffffffffffffffffffffffffff167f8be0079c531659141344cd1fd0a4f28419497f9722a3daafe3b4186f6b6457e060405160405180910390a35050565b6001816000016000828254019250508190555050565b600080fd5b600073ffffffffffffffffffffffffffffffffffffffff82169050919050565b60006200020682620001d9565b9050919050565b60006200021a82620001f9565b9050919050565b6200022c816200020d565b81146200023857600080fd5b50565b6000815190506200024c8162000221565b92915050565b60006200025f82620001f9565b9050919050565b620002718162000252565b81146200027d57600080fd5b50565b600081519050620002918162000266565b92915050565b60008060408385031215620002b157620002b0620001d4565b5b6000620002c1858286016200023b565b9250506020620002d48582860162000280565b9150509250929050565b60805160a051612437620003196000396000818161079b0152610ac80152600081816104ee01528181610aa40152610d3901526124376000f3fe608060405234801561001057600080fd5b50600436106100cf5760003560e01c8063c34902631161008c578063e2c2c88411610066578063e2c2c884146101ff578063f053dc5c1461021d578063f2fde38b1461023b578063f38bee1814610257576100cf565b8063c349026314610183578063c7b568421461019f578063d6d68177146101cf576100cf565b8063117a5b90146100d457806348edf1bb1461010757806360104cef14610123578063715018a61461013f57806376f7b500146101495780638da5cb5b14610165575b600080fd5b6100ee60048036038101906100e9919061110a565b610273565b6040516100fe9493929190611146565b60405180910390f35b610121600480360381019061011c9190611309565b6102a3565b005b61013d600480360381019061013891906113ef565b610478565b005b6101476104d0565b005b610163600480360381019061015e919061110a565b6104e4565b005b61016d610595565b60405161017a9190611470565b60405180910390f35b61019d600480360381019061019891906113ef565b6105be565b005b6101b960048036038101906101b4919061110a565b6108ef565b6040516101c691906116d9565b60405180910390f35b6101e960048036038101906101e49190611727565b610a7d565b6040516101f69190611767565b60405180910390f35b610207610aa2565b60405161021491906117e1565b60405180910390f35b610225610ac6565b604051610232919061181d565b60405180910390f35b61025560048036038101906102509190611838565b610aea565b005b610271600480360381019061026c9190611865565b610b6d565b005b60046020528060005260406000206000915090508060000154908060010154908060020154908060040154905084565b6102ab610efa565b6000600460008b815260200190815260200160002090506000816000015403610309576040517f08c379a000000000000000000000000000000000000000000000000000000000815260040161030090611915565b60405180910390fd5b60006103156003610f78565b905060006040518061016001604052808381526020018c8152602001600081526020018b81526020018a81526020018581526020016000151581526020018981526020018881526020018781526020018615158152509050826003018190806001815401808255809150506001900390600052602060002090600b02016000909190919091506000820151816000015560208201518160010190816103ba9190611b37565b5060408201518160020155606082015181600301556080820151816004015560a0820151816005015560c08201518160060160006101000a81548160ff02191690831515021790555060e082015181600701556101008201518160080155610120820151816009015561014082015181600a0160006101000a81548160ff021916908315150217905550505082600401600081548092919061045b90611c38565b919050555061046a6003610f86565b505050505050505050505050565b610480610efa565b600061048c6002610f78565b905060006004600083815260200190815260200160002090508181600001819055508381600101819055508281600201819055506104ca6002610f86565b50505050565b6104d8610efa565b6104e26000610f9c565b565b6104ec610efa565b7f000000000000000000000000000000000000000000000000000000000000000073ffffffffffffffffffffffffffffffffffffffff1663a9059cbb610530610595565b836040518363ffffffff1660e01b815260040161054e929190611c80565b6020604051808303816000875af115801561056d573d6000803e3d6000fd5b505050506040513d601f19601f820116820180604052508101906105919190611cbe565b5050565b60008060009054906101000a900473ffffffffffffffffffffffffffffffffffffffff16905090565b6105c6611060565b600060046000848152602001908152602001600020905060005b81600301805490508110156108a7578282600301828154811061060657610605611ceb565b5b90600052602060002090600b0201600001540361089a57600082600301828154811061063557610634611ceb565b5b90600052602060002090600b020190504281600801541061068b576040517f08c379a000000000000000000000000000000000000000000000000000000000815260040161068290611d66565b60405180910390fd5b8060060160009054906101000a900460ff166106dc576040517f08c379a00000000000000000000000000000000000000000000000000000000081526004016106d390611dd2565b60405180910390fd5b6000600560003373ffffffffffffffffffffffffffffffffffffffff1673ffffffffffffffffffffffffffffffffffffffff168152602001908152602001600020600086815260200190815260200160002054905060008111610774576040517f08c379a000000000000000000000000000000000000000000000000000000000815260040161076b90611e3e565b60405180910390fd5b8160060160009054906101000a900460ff161561083b576000600190505b818111610839577f000000000000000000000000000000000000000000000000000000000000000073ffffffffffffffffffffffffffffffffffffffff166394bf804d87336040518363ffffffff1660e01b81526004016107f4929190611e5e565b600060405180830381600087803b15801561080e57600080fd5b505af1158015610822573d6000803e3d6000fd5b50505050808061083190611c38565b915050610792565b505b6000600560003373ffffffffffffffffffffffffffffffffffffffff1673ffffffffffffffffffffffffffffffffffffffff168152602001908152602001600020600087815260200190815260200160002081905550505050506108e3565b80806001019150506105e0565b506040517f08c379a00000000000000000000000000000000000000000000000000000000081526004016108da90611ed3565b60405180910390fd5b6108eb6110af565b5050565b606060046000838152602001908152602001600020600301805480602002602001604051908101604052809291908181526020016000905b82821015610a7257838290600052602060002090600b0201604051806101600160405290816000820154815260200160018201805461096590611964565b80601f016020809104026020016040519081016040528092919081815260200182805461099190611964565b80156109de5780601f106109b3576101008083540402835291602001916109de565b820191906000526020600020905b8154815290600101906020018083116109c157829003601f168201915b50505050508152602001600282015481526020016003820154815260200160048201548152602001600582015481526020016006820160009054906101000a900460ff16151515158152602001600782015481526020016008820154815260200160098201548152602001600a820160009054906101000a900460ff16151515158152505081526020019060010190610927565b505050509050919050565b6005602052816000526040600020602052806000526040600020600091509150505481565b7f000000000000000000000000000000000000000000000000000000000000000081565b7f000000000000000000000000000000000000000000000000000000000000000081565b610af2610efa565b600073ffffffffffffffffffffffffffffffffffffffff168173ffffffffffffffffffffffffffffffffffffffff1603610b61576040517f08c379a0000000000000000000000000000000000000000000000000000000008152600401610b5890611f65565b60405180910390fd5b610b6a81610f9c565b50565b610b75611060565b60006004600085815260200190815260200160002090506000806000905060005b8360030180549050811015610ea95785846003018281548110610bbc57610bbb611ceb565b5b90600052602060002090600b02016000015403610e9c57836003018181548110610be957610be8611ceb565b5b90600052602060002090600b020192508260060160009054906101000a900460ff1615610c4b576040517f08c379a0000000000000000000000000000000000000000000000000000000008152600401610c4290611ff7565b60405180910390fd5b8260030154858460020154610c609190612017565b1115610ca1576040517f08c379a0000000000000000000000000000000000000000000000000000000008152600401610c9890612097565b60405180910390fd5b6000836004015486610cb391906120b7565b905085600560003373ffffffffffffffffffffffffffffffffffffffff1673ffffffffffffffffffffffffffffffffffffffff16815260200190815260200160002060008981526020019081526020016000206000828254610d159190612017565b9250508190555085846002016000828254610d309190612017565b925050819055507f000000000000000000000000000000000000000000000000000000000000000073ffffffffffffffffffffffffffffffffffffffff166323b872dd3330846040518463ffffffff1660e01b8152600401610d94939291906120f9565b6020604051808303816000875af1158015610db3573d6000803e3d6000fd5b505050506040513d601f19601f82011682018060405250810190610dd79190611cbe565b610e16576040517f08c379a0000000000000000000000000000000000000000000000000000000008152600401610e0d9061217c565b60405180910390fd5b600192508360030154846002015403610e965760018460060160006101000a81548160ff0219169083151502179055504284600801819055507f48bdd33bb928f44a7b0b890963d9afe34abf223c0de29e0174cd429d9ac0c18a8460000154856001018660090154604051610e8d9392919061226c565b60405180910390a15b50610ea9565b8080600101915050610b96565b5080610eea576040517f08c379a0000000000000000000000000000000000000000000000000000000008152600401610ee190612309565b60405180910390fd5b505050610ef56110af565b505050565b610f026110b8565b73ffffffffffffffffffffffffffffffffffffffff16610f20610595565b73ffffffffffffffffffffffffffffffffffffffff1614610f76576040517f08c379a0000000000000000000000000000000000000000000000000000000008152600401610f6d90612375565b60405180910390fd5b565b600081600001549050919050565b6001816000016000828254019250508190555050565b60008060009054906101000a900473ffffffffffffffffffffffffffffffffffffffff169050816000806101000a81548173ffffffffffffffffffffffffffffffffffffffff021916908373ffffffffffffffffffffffffffffffffffffffff1602179055508173ffffffffffffffffffffffffffffffffffffffff168173ffffffffffffffffffffffffffffffffffffffff167f8be0079c531659141344cd1fd0a4f28419497f9722a3daafe3b4186f6b6457e060405160405180910390a35050565b6002600154036110a5576040517f08c379a000000000000000000000000000000000000000000000000000000000815260040161109c906123e1565b60405180910390fd5b6002600181905550565b60018081905550565b600033905090565b6000604051905090565b600080fd5b600080fd5b6000819050919050565b6110e7816110d4565b81146110f257600080fd5b50565b600081359050611104816110de565b92915050565b6000602082840312156111205761111f6110ca565b5b600061112e848285016110f5565b91505092915050565b611140816110d4565b82525050565b600060808201905061115b6000830187611137565b6111686020830186611137565b6111756040830185611137565b6111826060830184611137565b95945050505050565b600080fd5b600080fd5b6000601f19601f8301169050919050565b7f4e487b7100000000000000000000000000000000000000000000000000000000600052604160045260246000fd5b6111de82611195565b810181811067ffffffffffffffff821117156111fd576111fc6111a6565b5b80604052505050565b60006112106110c0565b905061121c82826111d5565b919050565b600067ffffffffffffffff82111561123c5761123b6111a6565b5b61124582611195565b9050602081019050919050565b82818337600083830152505050565b600061127461126f84611221565b611206565b9050828152602081018484840111156112905761128f611190565b5b61129b848285611252565b509392505050565b600082601f8301126112b8576112b761118b565b5b81356112c8848260208601611261565b91505092915050565b60008115159050919050565b6112e6816112d1565b81146112f157600080fd5b50565b600081359050611303816112dd565b92915050565b60008060008060008060008060006101208a8c03121561132c5761132b6110ca565b5b600061133a8c828d016110f5565b99505060208a013567ffffffffffffffff81111561135b5761135a6110cf565b5b6113678c828d016112a3565b98505060406113788c828d016110f5565b97505060606113898c828d016110f5565b965050608061139a8c828d016110f5565b95505060a06113ab8c828d016110f5565b94505060c06113bc8c828d016110f5565b93505060e06113cd8c828d016112f4565b9250506101006113df8c828d016110f5565b9150509295985092959850929598565b60008060408385031215611406576114056110ca565b5b6000611414858286016110f5565b9250506020611425858286016110f5565b9150509250929050565b600073ffffffffffffffffffffffffffffffffffffffff82169050919050565b600061145a8261142f565b9050919050565b61146a8161144f565b82525050565b60006020820190506114856000830184611461565b92915050565b600081519050919050565b600082825260208201905092915050565b6000819050602082019050919050565b6114c0816110d4565b82525050565b600081519050919050565b600082825260208201905092915050565b60005b838110156115005780820151818401526020810190506114e5565b60008484015250505050565b6000611517826114c6565b61152181856114d1565b93506115318185602086016114e2565b61153a81611195565b840191505092915050565b61154e816112d1565b82525050565b60006101608301600083015161156d60008601826114b7565b5060208301518482036020860152611585828261150c565b915050604083015161159a60408601826114b7565b5060608301516115ad60608601826114b7565b5060808301516115c060808601826114b7565b5060a08301516115d360a08601826114b7565b5060c08301516115e660c0860182611545565b5060e08301516115f960e08601826114b7565b5061010083015161160e6101008601826114b7565b506101208301516116236101208601826114b7565b50610140830151611638610140860182611545565b508091505092915050565b600061164f8383611554565b905092915050565b6000602082019050919050565b600061166f8261148b565b6116798185611496565b93508360208202850161168b856114a7565b8060005b858110156116c757848403895281516116a88582611643565b94506116b383611657565b925060208a0199505060018101905061168f565b50829750879550505050505092915050565b600060208201905081810360008301526116f38184611664565b905092915050565b6117048161144f565b811461170f57600080fd5b50565b600081359050611721816116fb565b92915050565b6000806040838503121561173e5761173d6110ca565b5b600061174c85828601611712565b925050602061175d858286016110f5565b9150509250929050565b600060208201905061177c6000830184611137565b92915050565b6000819050919050565b60006117a76117a261179d8461142f565b611782565b61142f565b9050919050565b60006117b98261178c565b9050919050565b60006117cb826117ae565b9050919050565b6117db816117c0565b82525050565b60006020820190506117f660008301846117d2565b92915050565b6000611807826117ae565b9050919050565b611817816117fc565b82525050565b6000602082019050611832600083018461180e565b92915050565b60006020828403121561184e5761184d6110ca565b5b600061185c84828501611712565b91505092915050565b60008060006060848603121561187e5761187d6110ca565b5b600061188c868287016110f5565b935050602061189d868287016110f5565b92505060406118ae868287016110f5565b9150509250925092565b600082825260208201905092915050565b7f67616d6520646f6573206e6f7420657869737400000000000000000000000000600082015250565b60006118ff6013836118b8565b915061190a826118c9565b602082019050919050565b6000602082019050818103600083015261192e816118f2565b9050919050565b7f4e487b7100000000000000000000000000000000000000000000000000000000600052602260045260246000fd5b6000600282049050600182168061197c57607f821691505b60208210810361198f5761198e611935565b5b50919050565b60008190508160005260206000209050919050565b60006020601f8301049050919050565b600082821b905092915050565b6000600883026119f77fffffffffffffffffffffffffffffffffffffffffffffffffffffffffffffffff826119ba565b611a0186836119ba565b95508019841693508086168417925050509392505050565b6000611a34611a2f611a2a846110d4565b611782565b6110d4565b9050919050565b6000819050919050565b611a4e83611a19565b611a62611a5a82611a3b565b8484546119c7565b825550505050565b600090565b611a77611a6a565b611a82818484611a45565b505050565b5b81811015611aa657611a9b600082611a6f565b600181019050611a88565b5050565b601f821115611aeb57611abc81611995565b611ac5846119aa565b81016020851015611ad4578190505b611ae8611ae0856119aa565b830182611a87565b50505b505050565b600082821c905092915050565b6000611b0e60001984600802611af0565b1980831691505092915050565b6000611b278383611afd565b9150826002028217905092915050565b611b40826114c6565b67ffffffffffffffff811115611b5957611b586111a6565b5b611b638254611964565b611b6e828285611aaa565b600060209050601f831160018114611ba15760008415611b8f578287015190505b611b998582611b1b565b865550611c01565b601f198416611baf86611995565b60005b82811015611bd757848901518255600182019150602085019450602081019050611bb2565b86831015611bf45784890151611bf0601f891682611afd565b8355505b6001600288020188555050505b505050505050565b7f4e487b7100000000000000000000000000000000000000000000000000000000600052601160045260246000fd5b6000611c43826110d4565b91507fffffffffffffffffffffffffffffffffffffffffffffffffffffffffffffffff8203611c7557611c74611c09565b5b600182019050919050565b6000604082019050611c956000830185611461565b611ca26020830184611137565b9392505050565b600081519050611cb8816112dd565b92915050565b600060208284031215611cd457611cd36110ca565b5b6000611ce284828501611ca9565b91505092915050565b7f4e487b7100000000000000000000000000000000000000000000000000000000600052603260045260246000fd5b7f70726f6475637420616374697665000000000000000000000000000000000000600082015250565b6000611d50600e836118b8565b9150611d5b82611d1a565b602082019050919050565b60006020820190508181036000830152611d7f81611d43565b9050919050565b7f70726f64756374206e6f7420696e2073746f7265000000000000000000000000600082015250565b6000611dbc6014836118b8565b9150611dc782611d86565b602082019050919050565b60006020820190508181036000830152611deb81611daf565b9050919050565b7f6e6f20636f6e7472616374730000000000000000000000000000000000000000600082015250565b6000611e28600c836118b8565b9150611e3382611df2565b602082019050919050565b60006020820190508181036000830152611e5781611e1b565b9050919050565b6000604082019050611e736000830185611137565b611e806020830184611461565b9392505050565b7f696e76616c69642070726f647563740000000000000000000000000000000000600082015250565b6000611ebd600f836118b8565b9150611ec882611e87565b602082019050919050565b60006020820190508181036000830152611eec81611eb0565b9050919050565b7f4f776e61626c653a206e6577206f776e657220697320746865207a65726f206160008201527f6464726573730000000000000000000000000000000000000000000000000000602082015250565b6000611f4f6026836118b8565b9150611f5a82611ef3565b604082019050919050565b60006020820190508181036000830152611f7e81611f42565b9050919050565b7f70726f6475637420616c7265616479206c6973746564206f6e206d65682e737460008201527f6f72650000000000000000000000000000000000000000000000000000000000602082015250565b6000611fe16023836118b8565b9150611fec82611f85565b604082019050919050565b6000602082019050818103600083015261201081611fd4565b9050919050565b6000612022826110d4565b915061202d836110d4565b925082820190508082111561204557612044611c09565b5b92915050565b7f6e6f7420656e6f75676820636f6e74726163747320617661696c61626c650000600082015250565b6000612081601e836118b8565b915061208c8261204b565b602082019050919050565b600060208201905081810360008301526120b081612074565b9050919050565b60006120c2826110d4565b91506120cd836110d4565b92508282026120db816110d4565b915082820484148315176120f2576120f1611c09565b5b5092915050565b600060608201905061210e6000830186611461565b61211b6020830185611461565b6121286040830184611137565b949350505050565b7f6d6568206465706f736974206661696c65640000000000000000000000000000600082015250565b60006121666012836118b8565b915061217182612130565b602082019050919050565b6000602082019050818103600083015261219581612159565b9050919050565b600081546121a981611964565b6121b381866118b8565b945060018216600081146121ce57600181146121e457612217565b60ff198316865281151560200286019350612217565b6121ed85611995565b60005b8381101561220f578154818901526001820191506020810190506121f0565b808801955050505b50505092915050565b7f6465662d31323300000000000000000000000000000000000000000000000000600082015250565b60006122566007836118b8565b915061226182612220565b602082019050919050565b60006080820190506122816000830186611137565b8181036020830152612293818561219c565b905081810360408301526122a681612249565b90506122b56060830184611137565b949350505050565b7f70726f64756374206e6f7420666f756e64000000000000000000000000000000600082015250565b60006122f36011836118b8565b91506122fe826122bd565b602082019050919050565b60006020820190508181036000830152612322816122e6565b9050919050565b7f4f776e61626c653a2063616c6c6572206973206e6f7420746865206f776e6572600082015250565b600061235f6020836118b8565b915061236a82612329565b602082019050919050565b6000602082019050818103600083015261238e81612352565b9050919050565b7f5265656e7472616e637947756172643a207265656e7472616e742063616c6c00600082015250565b60006123cb601f836118b8565b91506123d682612395565b602082019050919050565b600060208201905081810360008301526123fa816123be565b905091905056fea26469706673582212206a4aad311db6e6aaa1e09864e83f7c4995d9a18b1876b410a949d917efe74ba864736f6c63430008180033",
  "linkReferences": {},
  "deployedLinkReferences": {}
}