{
  "_format": "hh-sol-artifact-1",
  "contractName": "MehVoteV1",
  "sourceName": "contracts/MehVoteV1.sol",
  "abi": [
    {
      "inputs": [
        {
          "internalType": "contract IERC20Burnable",
          "name": "_mehToken",
          "type": "address"
        }
      ],
      "stateMutability": "nonpayable",
      "type": "constructor"
    },
    {
      "anonymous": false,
      "inputs": [
        {
          "indexed": false,
          "internalType": "uint256",
          "name": "productId",
          "type": "uint256"
        },
        {
          "indexed": false,
          "internalType": "string",
          "name": "productName",
          "type": "string"
        },
        {
          "indexed": false,
          "internalType": "string",
          "name": "allocatorMerkleRoot",
          "type": "string"
        },
        {
          "indexed": false,
          "internalType": "uint256",
          "name": "royaltyBase",
          "type": "uint256"
        }
      ],
      "name": "MehStore",
      "type": "event"
    },
    {
      "anonymous": false,
      "inputs": [
        {
          "indexed": true,
          "internalType": "address",
          "name": "previousOwner",
          "type": "address"
        },
        {
          "indexed": true,
          "internalType": "address",
          "name": "newOwner",
          "type": "address"
        }
      ],
      "name": "OwnershipTransferred",
      "type": "event"
    },
    {
      "inputs": [
        {
          "internalType": "uint256",
          "name": "_gameId",
          "type": "uint256"
        },
        {
          "internalType": "string",
          "name": "_name",
          "type": "string"
        },
        {
          "internalType": "uint256",
          "name": "_mehContractPrice",
          "type": "uint256"
        },
        {
          "internalType": "uint256",
          "name": "_mehContracts",
          "type": "uint256"
        },
        {
          "internalType": "uint256",
          "name": "_begin",
          "type": "uint256"
        },
        {
          "internalType": "uint256",
          "name": "_end",
          "type": "uint256"
        },
        {
          "internalType": "uint256",
          "name": "_royaltyBase",
          "type": "uint256"
        }
      ],
      "name": "addProductToGame",
      "outputs": [],
      "stateMutability": "nonpayable",
      "type": "function"
    },
    {
      "inputs": [
        {
          "internalType": "uint256",
          "name": "_gameId",
          "type": "uint256"
        },
        {
          "internalType": "uint256",
          "name": "_productId",
          "type": "uint256"
        }
      ],
      "name": "burnLoserPrizeMeh",
      "outputs": [],
      "stateMutability": "nonpayable",
      "type": "function"
    },
    {
      "inputs": [
        {
          "internalType": "uint256",
          "name": "_gameId",
          "type": "uint256"
        },
        {
          "internalType": "uint256",
          "name": "_productId",
          "type": "uint256"
        }
      ],
      "name": "claim",
      "outputs": [],
      "stateMutability": "nonpayable",
      "type": "function"
    },
    {
      "inputs": [
        {
          "internalType": "uint256",
          "name": "_begin",
          "type": "uint256"
        },
        {
          "internalType": "uint256",
          "name": "_end",
          "type": "uint256"
        }
      ],
      "name": "createGame",
      "outputs": [],
      "stateMutability": "nonpayable",
      "type": "function"
    },
    {
      "inputs": [
        {
          "internalType": "uint256",
          "name": "_gameId",
          "type": "uint256"
        },
        {
          "internalType": "uint256",
          "name": "_productId",
          "type": "uint256"
        },
        {
          "internalType": "uint256",
          "name": "_numContracts",
          "type": "uint256"
        }
      ],
      "name": "depositMeh",
      "outputs": [],
      "stateMutability": "nonpayable",
      "type": "function"
    },
    {
      "inputs": [
        {
          "internalType": "uint256",
          "name": "_amount",
          "type": "uint256"
        }
      ],
      "name": "depositMehStore",
      "outputs": [],
      "stateMutability": "nonpayable",
      "type": "function"
    },
    {
      "inputs": [
        {
          "internalType": "uint256",
          "name": "_gameId",
          "type": "uint256"
        },
        {
          "internalType": "uint256",
          "name": "_productId",
          "type": "uint256"
        },
        {
          "internalType": "uint256",
          "name": "_amount",
          "type": "uint256"
        }
      ],
      "name": "depositPrizeMeh",
      "outputs": [],
      "stateMutability": "nonpayable",
      "type": "function"
    },
    {
      "inputs": [
        {
          "internalType": "address",
          "name": "",
          "type": "address"
        },
        {
          "internalType": "uint256",
          "name": "",
          "type": "uint256"
        }
      ],
      "name": "deposits",
      "outputs": [
        {
          "internalType": "uint256",
          "name": "",
          "type": "uint256"
        }
      ],
      "stateMutability": "view",
      "type": "function"
    },
    {
      "inputs": [
        {
          "internalType": "uint256",
          "name": "",
          "type": "uint256"
        }
      ],
      "name": "games",
      "outputs": [
        {
          "internalType": "uint256",
          "name": "id",
          "type": "uint256"
        },
        {
          "internalType": "uint256",
          "name": "begin",
          "type": "uint256"
        },
        {
          "internalType": "uint256",
          "name": "end",
          "type": "uint256"
        },
        {
          "internalType": "uint256",
          "name": "numProducts",
          "type": "uint256"
        }
      ],
      "stateMutability": "view",
      "type": "function"
    },
    {
      "inputs": [
        {
          "internalType": "uint256",
          "name": "gameId",
          "type": "uint256"
        }
      ],
      "name": "getProductsByGameId",
      "outputs": [
        {
          "components": [
            {
              "internalType": "uint256",
              "name": "id",
              "type": "uint256"
            },
            {
              "internalType": "string",
              "name": "name",
              "type": "string"
            },
            {
              "internalType": "uint256",
              "name": "mehContractsDeposited",
              "type": "uint256"
            },
            {
              "internalType": "uint256",
              "name": "mehContracts",
              "type": "uint256"
            },
            {
              "internalType": "uint256",
              "name": "mehContractPrice",
              "type": "uint256"
            },
            {
              "internalType": "uint256",
              "name": "prizeMeh",
              "type": "uint256"
            },
            {
              "internalType": "bool",
              "name": "mehStore",
              "type": "bool"
            },
            {
              "internalType": "uint256",
              "name": "begin",
              "type": "uint256"
            },
            {
              "internalType": "uint256",
              "name": "end",
              "type": "uint256"
            },
            {
              "internalType": "uint256",
              "name": "royaltyBase",
              "type": "uint256"
            }
          ],
          "internalType": "struct MehVoteV1.Product[]",
          "name": "",
          "type": "tuple[]"
        }
      ],
      "stateMutability": "view",
      "type": "function"
    },
    {
      "inputs": [],
      "name": "mehToken",
      "outputs": [
        {
          "internalType": "contract IERC20Burnable",
          "name": "",
          "type": "address"
        }
      ],
      "stateMutability": "view",
      "type": "function"
    },
    {
      "inputs": [],
      "name": "owner",
      "outputs": [
        {
          "internalType": "address",
          "name": "",
          "type": "address"
        }
      ],
      "stateMutability": "view",
      "type": "function"
    },
    {
      "inputs": [],
      "name": "renounceOwnership",
      "outputs": [],
      "stateMutability": "nonpayable",
      "type": "function"
    },
    {
      "inputs": [
        {
          "internalType": "address",
          "name": "newOwner",
          "type": "address"
        }
      ],
      "name": "transferOwnership",
      "outputs": [],
      "stateMutability": "nonpayable",
      "type": "function"
    }
  ],
  "bytecode": "0x60a06040523480156200001157600080fd5b506040516200275f3803806200275f83398181016040528101906200003791906200021d565b620000576200004b620000bd60201b60201c565b620000c560201b60201c565b600180819055508073ffffffffffffffffffffffffffffffffffffffff1660808173ffffffffffffffffffffffffffffffffffffffff1681525050620000a460026200018960201b60201c565b620000b660036200018960201b60201c565b506200024f565b600033905090565b60008060009054906101000a900473ffffffffffffffffffffffffffffffffffffffff169050816000806101000a81548173ffffffffffffffffffffffffffffffffffffffff021916908373ffffffffffffffffffffffffffffffffffffffff1602179055508173ffffffffffffffffffffffffffffffffffffffff168173ffffffffffffffffffffffffffffffffffffffff167f8be0079c531659141344cd1fd0a4f28419497f9722a3daafe3b4186f6b6457e060405160405180910390a35050565b6001816000016000828254019250508190555050565b600080fd5b600073ffffffffffffffffffffffffffffffffffffffff82169050919050565b6000620001d182620001a4565b9050919050565b6000620001e582620001c4565b9050919050565b620001f781620001d8565b81146200020357600080fd5b50565b6000815190506200021781620001ec565b92915050565b6000602082840312156200023657620002356200019f565b5b6000620002468482850162000206565b91505092915050565b6080516124d16200028e6000396000818161052e0152818161064a0152818161079901528181610a7901528181610cc00152610eb101526124d16000f3fe608060405234801561001057600080fd5b50600436106100ea5760003560e01c80638da5cb5b1161008c578063d6d6817711610066578063d6d6817714610222578063e2c2c88414610252578063f2fde38b14610270578063f38bee181461028c576100ea565b80638da5cb5b146101b8578063c3490263146101d6578063c7b56842146101f2576100ea565b806360104cef116100c857806360104cef1461015a578063715018a61461017657806376f7b500146101805780638c5b883d1461019c576100ea565b8063117a5b90146100ef5780632849625d1461012257806353f8c4831461013e575b600080fd5b6101096004803603810190610104919061129e565b6102a8565b60405161011994939291906112da565b60405180910390f35b61013c60048036038101906101379190611465565b6102d8565b005b61015860048036038101906101539190611523565b610483565b005b610174600480360381019061016f9190611576565b6105d4565b005b61017e61062c565b005b61019a6004803603810190610195919061129e565b610640565b005b6101b660048036038101906101b19190611576565b6106f1565b005b6101c061082d565b6040516101cd91906115f7565b60405180910390f35b6101f060048036038101906101eb9190611576565b610856565b005b61020c6004803603810190610207919061129e565b610b26565b6040516102199190611857565b60405180910390f35b61023c600480360381019061023791906118a5565b610c99565b60405161024991906118e5565b60405180910390f35b61025a610cbe565b604051610267919061195f565b60405180910390f35b61028a6004803603810190610285919061197a565b610ce2565b005b6102a660048036038101906102a19190611523565b610d65565b005b60046020528060005260406000206000915090508060000154908060010154908060020154908060040154905084565b6102e061108e565b6000600460008981526020019081526020016000209050600081600001540361033e576040517f08c379a000000000000000000000000000000000000000000000000000000000815260040161033590611a04565b60405180910390fd5b600061034a600361110c565b905060006040518061014001604052808381526020018a81526020016000815260200188815260200189815260200160008152602001600015158152602001878152602001868152602001858152509050826003018190806001815401808255809150506001900390600052602060002090600a02016000909190919091506000820151816000015560208201518160010190816103e89190611c26565b5060408201518160020155606082015181600301556080820151816004015560a0820151816005015560c08201518160060160006101000a81548160ff02191690831515021790555060e0820151816007015561010082015181600801556101208201518160090155505082600401600081548092919061046890611d27565b9190505550610477600361111a565b50505050505050505050565b61048b61108e565b600060046000858152602001908152602001600020905060008160030184815481106104ba576104b9611d6f565b5b90600052602060002090600a020190506000816000015403610511576040517f08c379a000000000000000000000000000000000000000000000000000000000815260040161050890611dea565b60405180910390fd5b828160050160008282546105259190611e0a565b925050819055507f000000000000000000000000000000000000000000000000000000000000000073ffffffffffffffffffffffffffffffffffffffff166323b872dd3330866040518463ffffffff1660e01b815260040161058993929190611e3e565b6020604051808303816000875af11580156105a8573d6000803e3d6000fd5b505050506040513d601f19601f820116820180604052508101906105cc9190611ea1565b505050505050565b6105dc61108e565b60006105e8600261110c565b90506000600460008381526020019081526020016000209050818160000181905550838160010181905550828160020181905550610626600261111a565b50505050565b61063461108e565b61063e6000611130565b565b61064861108e565b7f000000000000000000000000000000000000000000000000000000000000000073ffffffffffffffffffffffffffffffffffffffff1663a9059cbb61068c61082d565b836040518363ffffffff1660e01b81526004016106aa929190611ece565b6020604051808303816000875af11580156106c9573d6000803e3d6000fd5b505050506040513d601f19601f820116820180604052508101906106ed9190611ea1565b5050565b6106f961108e565b6000600460008481526020019081526020016000209050600081600301838154811061072857610727611d6f565b5b90600052602060002090600a020190508060060160009054906101000a900460ff161561078a576040517f08c379a000000000000000000000000000000000000000000000000000000000815260040161078190611f43565b60405180910390fd5b600081600501541115610827577f000000000000000000000000000000000000000000000000000000000000000073ffffffffffffffffffffffffffffffffffffffff166342966c6882600501546040518263ffffffff1660e01b81526004016107f491906118e5565b600060405180830381600087803b15801561080e57600080fd5b505af1158015610822573d6000803e3d6000fd5b505050505b50505050565b60008060009054906101000a900473ffffffffffffffffffffffffffffffffffffffff16905090565b61085e6111f4565b6000600460008481526020019081526020016000209050428160020154106108bb576040517f08c379a00000000000000000000000000000000000000000000000000000000081526004016108b290611faf565b60405180910390fd5b8060030182815481106108d1576108d0611d6f565b5b90600052602060002090600a020160060160009054906101000a900460ff1661092f576040517f08c379a00000000000000000000000000000000000000000000000000000000081526004016109269061201b565b60405180910390fd5b6000600560003373ffffffffffffffffffffffffffffffffffffffff1673ffffffffffffffffffffffffffffffffffffffff1681526020019081526020016000206000848152602001908152602001600020549050600081116109c7576040517f08c379a00000000000000000000000000000000000000000000000000000000081526004016109be90612087565b60405180910390fd5b60008260030184815481106109df576109de611d6f565b5b90600052602060002090600a02019050600081600201548260030154610a0591906120a7565b826005015484610a1591906120a7565b610a1f9190612118565b90506000600560003373ffffffffffffffffffffffffffffffffffffffff1673ffffffffffffffffffffffffffffffffffffffff1681526020019081526020016000206000878152602001908152602001600020819055507f000000000000000000000000000000000000000000000000000000000000000073ffffffffffffffffffffffffffffffffffffffff1663a9059cbb33836040518363ffffffff1660e01b8152600401610ad2929190611ece565b6020604051808303816000875af1158015610af1573d6000803e3d6000fd5b505050506040513d601f19601f82011682018060405250810190610b159190611ea1565b5050505050610b22611243565b5050565b606060046000838152602001908152602001600020600301805480602002602001604051908101604052809291908181526020016000905b82821015610c8e57838290600052602060002090600a02016040518061014001604052908160008201548152602001600182018054610b9c90611a53565b80601f0160208091040260200160405190810160405280929190818152602001828054610bc890611a53565b8015610c155780601f10610bea57610100808354040283529160200191610c15565b820191906000526020600020905b815481529060010190602001808311610bf857829003601f168201915b50505050508152602001600282015481526020016003820154815260200160048201548152602001600582015481526020016006820160009054906101000a900460ff16151515158152602001600782015481526020016008820154815260200160098201548152505081526020019060010190610b5e565b505050509050919050565b6005602052816000526040600020602052806000526040600020600091509150505481565b7f000000000000000000000000000000000000000000000000000000000000000081565b610cea61108e565b600073ffffffffffffffffffffffffffffffffffffffff168173ffffffffffffffffffffffffffffffffffffffff1603610d59576040517f08c379a0000000000000000000000000000000000000000000000000000000008152600401610d50906121bb565b60405180910390fd5b610d6281611130565b50565b610d6d6111f4565b60006004600085815260200190815260200160002090506000816003018481548110610d9c57610d9b611d6f565b5b90600052602060002090600a020190506000816000015403610df3576040517f08c379a0000000000000000000000000000000000000000000000000000000008152600401610dea90611dea565b60405180910390fd5b8060060160009054906101000a900460ff1615610e45576040517f08c379a0000000000000000000000000000000000000000000000000000000008152600401610e3c90612227565b60405180910390fd5b8060030154838260020154610e5a9190611e0a565b1115610e9b576040517f08c379a0000000000000000000000000000000000000000000000000000000008152600401610e9290612293565b60405180910390fd5b6000816004015484610ead91906120a7565b90507f000000000000000000000000000000000000000000000000000000000000000073ffffffffffffffffffffffffffffffffffffffff166323b872dd3330846040518463ffffffff1660e01b8152600401610f0c93929190611e3e565b6020604051808303816000875af1158015610f2b573d6000803e3d6000fd5b505050506040513d601f19601f82011682018060405250810190610f4f9190611ea1565b5083600560003373ffffffffffffffffffffffffffffffffffffffff1673ffffffffffffffffffffffffffffffffffffffff16815260200190815260200160002060008781526020019081526020016000206000828254610fb09190611e0a565b9250508190555083826002016000828254610fcb9190611e0a565b92505081905550816003015482600201540361107e5760018260060160006101000a81548160ff02191690831515021790555060006040518060400160405280600781526020017f6465662d3030310000000000000000000000000000000000000000000000000081525090507f48bdd33bb928f44a7b0b890963d9afe34abf223c0de29e0174cd429d9ac0c18a86846001018386600901546040516110749493929190612370565b60405180910390a1505b505050611089611243565b505050565b61109661124c565b73ffffffffffffffffffffffffffffffffffffffff166110b461082d565b73ffffffffffffffffffffffffffffffffffffffff161461110a576040517f08c379a00000000000000000000000000000000000000000000000000000000081526004016111019061240f565b60405180910390fd5b565b600081600001549050919050565b6001816000016000828254019250508190555050565b60008060009054906101000a900473ffffffffffffffffffffffffffffffffffffffff169050816000806101000a81548173ffffffffffffffffffffffffffffffffffffffff021916908373ffffffffffffffffffffffffffffffffffffffff1602179055508173ffffffffffffffffffffffffffffffffffffffff168173ffffffffffffffffffffffffffffffffffffffff167f8be0079c531659141344cd1fd0a4f28419497f9722a3daafe3b4186f6b6457e060405160405180910390a35050565b600260015403611239576040517f08c379a00000000000000000000000000000000000000000000000000000000081526004016112309061247b565b60405180910390fd5b6002600181905550565b60018081905550565b600033905090565b6000604051905090565b600080fd5b600080fd5b6000819050919050565b61127b81611268565b811461128657600080fd5b50565b60008135905061129881611272565b92915050565b6000602082840312156112b4576112b361125e565b5b60006112c284828501611289565b91505092915050565b6112d481611268565b82525050565b60006080820190506112ef60008301876112cb565b6112fc60208301866112cb565b61130960408301856112cb565b61131660608301846112cb565b95945050505050565b600080fd5b600080fd5b6000601f19601f8301169050919050565b7f4e487b7100000000000000000000000000000000000000000000000000000000600052604160045260246000fd5b61137282611329565b810181811067ffffffffffffffff821117156113915761139061133a565b5b80604052505050565b60006113a4611254565b90506113b08282611369565b919050565b600067ffffffffffffffff8211156113d0576113cf61133a565b5b6113d982611329565b9050602081019050919050565b82818337600083830152505050565b6000611408611403846113b5565b61139a565b90508281526020810184848401111561142457611423611324565b5b61142f8482856113e6565b509392505050565b600082601f83011261144c5761144b61131f565b5b813561145c8482602086016113f5565b91505092915050565b600080600080600080600060e0888a0312156114845761148361125e565b5b60006114928a828b01611289565b975050602088013567ffffffffffffffff8111156114b3576114b2611263565b5b6114bf8a828b01611437565b96505060406114d08a828b01611289565b95505060606114e18a828b01611289565b94505060806114f28a828b01611289565b93505060a06115038a828b01611289565b92505060c06115148a828b01611289565b91505092959891949750929550565b60008060006060848603121561153c5761153b61125e565b5b600061154a86828701611289565b935050602061155b86828701611289565b925050604061156c86828701611289565b9150509250925092565b6000806040838503121561158d5761158c61125e565b5b600061159b85828601611289565b92505060206115ac85828601611289565b9150509250929050565b600073ffffffffffffffffffffffffffffffffffffffff82169050919050565b60006115e1826115b6565b9050919050565b6115f1816115d6565b82525050565b600060208201905061160c60008301846115e8565b92915050565b600081519050919050565b600082825260208201905092915050565b6000819050602082019050919050565b61164781611268565b82525050565b600081519050919050565b600082825260208201905092915050565b60005b8381101561168757808201518184015260208101905061166c565b60008484015250505050565b600061169e8261164d565b6116a88185611658565b93506116b8818560208601611669565b6116c181611329565b840191505092915050565b60008115159050919050565b6116e1816116cc565b82525050565b600061014083016000830151611700600086018261163e565b50602083015184820360208601526117188282611693565b915050604083015161172d604086018261163e565b506060830151611740606086018261163e565b506080830151611753608086018261163e565b5060a083015161176660a086018261163e565b5060c083015161177960c08601826116d8565b5060e083015161178c60e086018261163e565b506101008301516117a161010086018261163e565b506101208301516117b661012086018261163e565b508091505092915050565b60006117cd83836116e7565b905092915050565b6000602082019050919050565b60006117ed82611612565b6117f7818561161d565b9350836020820285016118098561162e565b8060005b85811015611845578484038952815161182685826117c1565b9450611831836117d5565b925060208a0199505060018101905061180d565b50829750879550505050505092915050565b6000602082019050818103600083015261187181846117e2565b905092915050565b611882816115d6565b811461188d57600080fd5b50565b60008135905061189f81611879565b92915050565b600080604083850312156118bc576118bb61125e565b5b60006118ca85828601611890565b92505060206118db85828601611289565b9150509250929050565b60006020820190506118fa60008301846112cb565b92915050565b6000819050919050565b600061192561192061191b846115b6565b611900565b6115b6565b9050919050565b60006119378261190a565b9050919050565b60006119498261192c565b9050919050565b6119598161193e565b82525050565b60006020820190506119746000830184611950565b92915050565b6000602082840312156119905761198f61125e565b5b600061199e84828501611890565b91505092915050565b600082825260208201905092915050565b7f67616d6520646f6573206e6f7420657869737400000000000000000000000000600082015250565b60006119ee6013836119a7565b91506119f9826119b8565b602082019050919050565b60006020820190508181036000830152611a1d816119e1565b9050919050565b7f4e487b7100000000000000000000000000000000000000000000000000000000600052602260045260246000fd5b60006002820490506001821680611a6b57607f821691505b602082108103611a7e57611a7d611a24565b5b50919050565b60008190508160005260206000209050919050565b60006020601f8301049050919050565b600082821b905092915050565b600060088302611ae67fffffffffffffffffffffffffffffffffffffffffffffffffffffffffffffffff82611aa9565b611af08683611aa9565b95508019841693508086168417925050509392505050565b6000611b23611b1e611b1984611268565b611900565b611268565b9050919050565b6000819050919050565b611b3d83611b08565b611b51611b4982611b2a565b848454611ab6565b825550505050565b600090565b611b66611b59565b611b71818484611b34565b505050565b5b81811015611b9557611b8a600082611b5e565b600181019050611b77565b5050565b601f821115611bda57611bab81611a84565b611bb484611a99565b81016020851015611bc3578190505b611bd7611bcf85611a99565b830182611b76565b50505b505050565b600082821c905092915050565b6000611bfd60001984600802611bdf565b1980831691505092915050565b6000611c168383611bec565b9150826002028217905092915050565b611c2f8261164d565b67ffffffffffffffff811115611c4857611c4761133a565b5b611c528254611a53565b611c5d828285611b99565b600060209050601f831160018114611c905760008415611c7e578287015190505b611c888582611c0a565b865550611cf0565b601f198416611c9e86611a84565b60005b82811015611cc657848901518255600182019150602085019450602081019050611ca1565b86831015611ce35784890151611cdf601f891682611bec565b8355505b6001600288020188555050505b505050505050565b7f4e487b7100000000000000000000000000000000000000000000000000000000600052601160045260246000fd5b6000611d3282611268565b91507fffffffffffffffffffffffffffffffffffffffffffffffffffffffffffffffff8203611d6457611d63611cf8565b5b600182019050919050565b7f4e487b7100000000000000000000000000000000000000000000000000000000600052603260045260246000fd5b7f70726f6475637420646f6573206e6f7420657869737400000000000000000000600082015250565b6000611dd46016836119a7565b9150611ddf82611d9e565b602082019050919050565b60006020820190508181036000830152611e0381611dc7565b9050919050565b6000611e1582611268565b9150611e2083611268565b9250828201905080821115611e3857611e37611cf8565b5b92915050565b6000606082019050611e5360008301866115e8565b611e6060208301856115e8565b611e6d60408301846112cb565b949350505050565b611e7e816116cc565b8114611e8957600080fd5b50565b600081519050611e9b81611e75565b92915050565b600060208284031215611eb757611eb661125e565b5b6000611ec584828501611e8c565b91505092915050565b6000604082019050611ee360008301856115e8565b611ef060208301846112cb565b9392505050565b7f70726f6475637420696e2073746f726500000000000000000000000000000000600082015250565b6000611f2d6010836119a7565b9150611f3882611ef7565b602082019050919050565b60006020820190508181036000830152611f5c81611f20565b9050919050565b7f67616d65206e6f7420656e646564000000000000000000000000000000000000600082015250565b6000611f99600e836119a7565b9150611fa482611f63565b602082019050919050565b60006020820190508181036000830152611fc881611f8c565b9050919050565b7f70726f64756374206e6f7420696e2073746f7265000000000000000000000000600082015250565b60006120056014836119a7565b915061201082611fcf565b602082019050919050565b6000602082019050818103600083015261203481611ff8565b9050919050565b7f6e6f206465706f73697400000000000000000000000000000000000000000000600082015250565b6000612071600a836119a7565b915061207c8261203b565b602082019050919050565b600060208201905081810360008301526120a081612064565b9050919050565b60006120b282611268565b91506120bd83611268565b92508282026120cb81611268565b915082820484148315176120e2576120e1611cf8565b5b5092915050565b7f4e487b7100000000000000000000000000000000000000000000000000000000600052601260045260246000fd5b600061212382611268565b915061212e83611268565b92508261213e5761213d6120e9565b5b828204905092915050565b7f4f776e61626c653a206e6577206f776e657220697320746865207a65726f206160008201527f6464726573730000000000000000000000000000000000000000000000000000602082015250565b60006121a56026836119a7565b91506121b082612149565b604082019050919050565b600060208201905081810360008301526121d481612198565b9050919050565b7f70726f6475637420616c726561647920696e206d65682e73746f726500000000600082015250565b6000612211601c836119a7565b915061221c826121db565b602082019050919050565b6000602082019050818103600083015261224081612204565b9050919050565b7f746f6f206d616e7920636f6e7472616374730000000000000000000000000000600082015250565b600061227d6012836119a7565b915061228882612247565b602082019050919050565b600060208201905081810360008301526122ac81612270565b9050919050565b600081546122c081611a53565b6122ca81866119a7565b945060018216600081146122e557600181146122fb5761232e565b60ff19831686528115156020028601935061232e565b61230485611a84565b60005b8381101561232657815481890152600182019150602081019050612307565b808801955050505b50505092915050565b60006123428261164d565b61234c81856119a7565b935061235c818560208601611669565b61236581611329565b840191505092915050565b600060808201905061238560008301876112cb565b818103602083015261239781866122b3565b905081810360408301526123ab8185612337565b90506123ba60608301846112cb565b95945050505050565b7f4f776e61626c653a2063616c6c6572206973206e6f7420746865206f776e6572600082015250565b60006123f96020836119a7565b9150612404826123c3565b602082019050919050565b60006020820190508181036000830152612428816123ec565b9050919050565b7f5265656e7472616e637947756172643a207265656e7472616e742063616c6c00600082015250565b6000612465601f836119a7565b91506124708261242f565b602082019050919050565b6000602082019050818103600083015261249481612458565b905091905056fea264697066735822122069b9c581020ec3926bded4d5da3775f7f5add1959f3359ae049f4d9dcdda006064736f6c63430008180033",
  "linkReferences": {},
  "deployedLinkReferences": {}
}