{
  "_format": "hh-sol-artifact-1",
  "contractName": "MehVoteV1",
  "sourceName": "contracts/MehVoteV1.sol",
  "abi": [
    {
      "inputs": [
        {
          "internalType": "contract IERC20Burnable",
          "name": "_mehToken",
          "type": "address"
        }
      ],
      "stateMutability": "nonpayable",
      "type": "constructor"
    },
    {
      "anonymous": false,
      "inputs": [
        {
          "indexed": false,
          "internalType": "uint256",
          "name": "productId",
          "type": "uint256"
        },
        {
          "indexed": false,
          "internalType": "uint256",
          "name": "genesisRun",
          "type": "uint256"
        },
        {
          "indexed": false,
          "internalType": "string",
          "name": "genesisMerkleRoot",
          "type": "string"
        },
        {
          "indexed": false,
          "internalType": "string",
          "name": "allocatorMerkleRoot",
          "type": "string"
        },
        {
          "indexed": false,
          "internalType": "uint256",
          "name": "mehCost",
          "type": "uint256"
        },
        {
          "indexed": false,
          "internalType": "uint256",
          "name": "royaltyBase",
          "type": "uint256"
        }
      ],
      "name": "MehStore",
      "type": "event"
    },
    {
      "anonymous": false,
      "inputs": [
        {
          "indexed": true,
          "internalType": "address",
          "name": "previousOwner",
          "type": "address"
        },
        {
          "indexed": true,
          "internalType": "address",
          "name": "newOwner",
          "type": "address"
        }
      ],
      "name": "OwnershipTransferred",
      "type": "event"
    },
    {
      "inputs": [
        {
          "internalType": "uint256",
          "name": "_gameId",
          "type": "uint256"
        },
        {
          "internalType": "uint256",
          "name": "_mehNeeded",
          "type": "uint256"
        },
        {
          "internalType": "uint256",
          "name": "_genesisLimit",
          "type": "uint256"
        },
        {
          "internalType": "uint256",
          "name": "_begin",
          "type": "uint256"
        },
        {
          "internalType": "uint256",
          "name": "_end",
          "type": "uint256"
        },
        {
          "internalType": "uint256",
          "name": "_mehCost",
          "type": "uint256"
        },
        {
          "internalType": "uint256",
          "name": "_royaltyBase",
          "type": "uint256"
        }
      ],
      "name": "addProductToGame",
      "outputs": [],
      "stateMutability": "nonpayable",
      "type": "function"
    },
    {
      "inputs": [
        {
          "internalType": "uint256",
          "name": "_gameId",
          "type": "uint256"
        },
        {
          "internalType": "uint256",
          "name": "_productId",
          "type": "uint256"
        }
      ],
      "name": "burnLoserMeh",
      "outputs": [],
      "stateMutability": "nonpayable",
      "type": "function"
    },
    {
      "inputs": [
        {
          "internalType": "uint256",
          "name": "_gameId",
          "type": "uint256"
        },
        {
          "internalType": "uint256",
          "name": "_productId",
          "type": "uint256"
        }
      ],
      "name": "claim",
      "outputs": [],
      "stateMutability": "nonpayable",
      "type": "function"
    },
    {
      "inputs": [
        {
          "internalType": "uint256",
          "name": "_begin",
          "type": "uint256"
        },
        {
          "internalType": "uint256",
          "name": "_end",
          "type": "uint256"
        }
      ],
      "name": "createGame",
      "outputs": [],
      "stateMutability": "nonpayable",
      "type": "function"
    },
    {
      "inputs": [
        {
          "internalType": "uint256",
          "name": "_gameId",
          "type": "uint256"
        },
        {
          "internalType": "uint256",
          "name": "_productId",
          "type": "uint256"
        },
        {
          "internalType": "uint256",
          "name": "_amt",
          "type": "uint256"
        }
      ],
      "name": "depositMeh",
      "outputs": [],
      "stateMutability": "nonpayable",
      "type": "function"
    },
    {
      "inputs": [
        {
          "internalType": "uint256",
          "name": "_amount",
          "type": "uint256"
        }
      ],
      "name": "depositMehStore",
      "outputs": [],
      "stateMutability": "nonpayable",
      "type": "function"
    },
    {
      "inputs": [
        {
          "internalType": "uint256",
          "name": "_gameId",
          "type": "uint256"
        },
        {
          "internalType": "uint256",
          "name": "_productId",
          "type": "uint256"
        },
        {
          "internalType": "uint256",
          "name": "_amount",
          "type": "uint256"
        }
      ],
      "name": "depositPrizeMeh",
      "outputs": [],
      "stateMutability": "nonpayable",
      "type": "function"
    },
    {
      "inputs": [
        {
          "internalType": "address",
          "name": "",
          "type": "address"
        },
        {
          "internalType": "uint256",
          "name": "",
          "type": "uint256"
        }
      ],
      "name": "deposits",
      "outputs": [
        {
          "internalType": "uint256",
          "name": "",
          "type": "uint256"
        }
      ],
      "stateMutability": "view",
      "type": "function"
    },
    {
      "inputs": [
        {
          "internalType": "uint256",
          "name": "",
          "type": "uint256"
        }
      ],
      "name": "games",
      "outputs": [
        {
          "internalType": "uint256",
          "name": "id",
          "type": "uint256"
        },
        {
          "internalType": "uint256",
          "name": "begin",
          "type": "uint256"
        },
        {
          "internalType": "uint256",
          "name": "end",
          "type": "uint256"
        },
        {
          "internalType": "uint256",
          "name": "numProducts",
          "type": "uint256"
        }
      ],
      "stateMutability": "view",
      "type": "function"
    },
    {
      "inputs": [],
      "name": "mehToken",
      "outputs": [
        {
          "internalType": "contract IERC20Burnable",
          "name": "",
          "type": "address"
        }
      ],
      "stateMutability": "view",
      "type": "function"
    },
    {
      "inputs": [],
      "name": "owner",
      "outputs": [
        {
          "internalType": "address",
          "name": "",
          "type": "address"
        }
      ],
      "stateMutability": "view",
      "type": "function"
    },
    {
      "inputs": [],
      "name": "renounceOwnership",
      "outputs": [],
      "stateMutability": "nonpayable",
      "type": "function"
    },
    {
      "inputs": [
        {
          "internalType": "address",
          "name": "newOwner",
          "type": "address"
        }
      ],
      "name": "transferOwnership",
      "outputs": [],
      "stateMutability": "nonpayable",
      "type": "function"
    }
  ],
  "bytecode": "0x60a06040523480156200001157600080fd5b5060405162001d2d38038062001d2d83398181016040528101906200003791906200021d565b620000576200004b620000bd60201b60201c565b620000c560201b60201c565b600180819055508073ffffffffffffffffffffffffffffffffffffffff1660808173ffffffffffffffffffffffffffffffffffffffff1681525050620000a460026200018960201b60201c565b620000b660036200018960201b60201c565b506200024f565b600033905090565b60008060009054906101000a900473ffffffffffffffffffffffffffffffffffffffff169050816000806101000a81548173ffffffffffffffffffffffffffffffffffffffff021916908373ffffffffffffffffffffffffffffffffffffffff1602179055508173ffffffffffffffffffffffffffffffffffffffff168173ffffffffffffffffffffffffffffffffffffffff167f8be0079c531659141344cd1fd0a4f28419497f9722a3daafe3b4186f6b6457e060405160405180910390a35050565b6001816000016000828254019250508190555050565b600080fd5b600073ffffffffffffffffffffffffffffffffffffffff82169050919050565b6000620001d182620001a4565b9050919050565b6000620001e582620001c4565b9050919050565b620001f781620001d8565b81146200020357600080fd5b50565b6000815190506200021781620001ec565b92915050565b6000602082840312156200023657620002356200019f565b5b6000620002468482850162000206565b91505092915050565b608051611a9f6200028e60003960008181610329015281816104450152818161084a015281816109c901528181610a5c0152610c0b0152611a9f6000f3fe608060405234801561001057600080fd5b50600436106100cf5760003560e01c8063bfb2fa9c1161008c578063da9b1bb711610066578063da9b1bb7146101eb578063e2c2c88414610207578063f2fde38b14610225578063f38bee1814610241576100cf565b8063bfb2fa9c14610183578063c34902631461019f578063d6d68177146101bb576100cf565b8063117a5b90146100d457806353f8c4831461010757806360104cef14610123578063715018a61461013f57806376f7b500146101495780638da5cb5b14610165575b600080fd5b6100ee60048036038101906100e99190610ff2565b61025d565b6040516100fe949392919061102e565b60405180910390f35b610121600480360381019061011c9190611073565b61028d565b005b61013d600480360381019061013891906110c6565b6103cf565b005b610147610427565b005b610163600480360381019061015e9190610ff2565b61043b565b005b61016d6104ec565b60405161017a9190611147565b60405180910390f35b61019d60048036038101906101989190611162565b610515565b005b6101b960048036038101906101b491906110c6565b610697565b005b6101d560048036038101906101d09190611230565b6108f7565b6040516101e29190611270565b60405180910390f35b610205600480360381019061020091906110c6565b61091c565b005b61020f610a5a565b60405161021c91906112ea565b60405180910390f35b61023f600480360381019061023a9190611305565b610a7e565b005b61025b60048036038101906102569190611073565b610b01565b005b60046020528060005260406000206000915090508060000154908060010154908060020154908060040154905084565b610295610df1565b600060046000858152602001908152602001600020905060008160030160008581526020019081526020016000209050600081600001540361030c576040517f08c379a00000000000000000000000000000000000000000000000000000000081526004016103039061138f565b60405180910390fd5b8281600301600082825461032091906113de565b925050819055507f000000000000000000000000000000000000000000000000000000000000000073ffffffffffffffffffffffffffffffffffffffff166323b872dd3330866040518463ffffffff1660e01b815260040161038493929190611412565b6020604051808303816000875af11580156103a3573d6000803e3d6000fd5b505050506040513d601f19601f820116820180604052508101906103c79190611481565b505050505050565b6103d7610df1565b60006103e36002610e6f565b905060006004600083815260200190815260200160002090508181600001819055508381600101819055508281600201819055506104216002610e7d565b50505050565b61042f610df1565b6104396000610e93565b565b610443610df1565b7f000000000000000000000000000000000000000000000000000000000000000073ffffffffffffffffffffffffffffffffffffffff1663a9059cbb6104876104ec565b836040518363ffffffff1660e01b81526004016104a59291906114ae565b6020604051808303816000875af11580156104c4573d6000803e3d6000fd5b505050506040513d601f19601f820116820180604052508101906104e89190611481565b5050565b60008060009054906101000a900473ffffffffffffffffffffffffffffffffffffffff16905090565b61051d610df1565b6000600460008981526020019081526020016000209050600081600001540361057b576040517f08c379a000000000000000000000000000000000000000000000000000000000815260040161057290611523565b60405180910390fd5b60006105876003610e6f565b9050604051806101400160405280828152602001600081526020018981526020016000815260200188815260200160001515815260200187815260200186815260200185815260200184815250826003016000838152602001908152602001600020600082015181600001556020820151816001015560408201518160020155606082015181600301556080820151816004015560a08201518160050160006101000a81548160ff02191690831515021790555060c0820151816006015560e08201518160070155610100820151816008015561012082015181600901559050506106726003610e7d565b81600401600081548092919061068790611543565b9190505550505050505050505050565b61069f610f57565b6000600460008481526020019081526020016000209050428160020154106106fc576040517f08c379a00000000000000000000000000000000000000000000000000000000081526004016106f3906115d7565b60405180910390fd5b80600301600083815260200190815260200160002060050160009054906101000a900460ff16610761576040517f08c379a000000000000000000000000000000000000000000000000000000000815260040161075890611643565b60405180910390fd5b6000600560003373ffffffffffffffffffffffffffffffffffffffff1673ffffffffffffffffffffffffffffffffffffffff168152602001908152602001600020600084815260200190815260200160002054905060008260030160008581526020019081526020016000209050600081600101548260030154846107e69190611663565b6107f091906116d4565b90506000600560003373ffffffffffffffffffffffffffffffffffffffff1673ffffffffffffffffffffffffffffffffffffffff1681526020019081526020016000206000878152602001908152602001600020819055507f000000000000000000000000000000000000000000000000000000000000000073ffffffffffffffffffffffffffffffffffffffff1663a9059cbb33836040518363ffffffff1660e01b81526004016108a39291906114ae565b6020604051808303816000875af11580156108c2573d6000803e3d6000fd5b505050506040513d601f19601f820116820180604052508101906108e69190611481565b50505050506108f3610fa6565b5050565b6005602052816000526040600020602052806000526040600020600091509150505481565b610924610df1565b6000600460008481526020019081526020016000209050600081600301600084815260200190815260200160002090508060050160009054906101000a900460ff16156109a6576040517f08c379a000000000000000000000000000000000000000000000000000000000815260040161099d90611751565b60405180910390fd5b6000816003015482600101546109bc91906113de565b90506000811115610a53577f000000000000000000000000000000000000000000000000000000000000000073ffffffffffffffffffffffffffffffffffffffff166342966c68826040518263ffffffff1660e01b8152600401610a209190611270565b600060405180830381600087803b158015610a3a57600080fd5b505af1158015610a4e573d6000803e3d6000fd5b505050505b5050505050565b7f000000000000000000000000000000000000000000000000000000000000000081565b610a86610df1565b600073ffffffffffffffffffffffffffffffffffffffff168173ffffffffffffffffffffffffffffffffffffffff1603610af5576040517f08c379a0000000000000000000000000000000000000000000000000000000008152600401610aec906117e3565b60405180910390fd5b610afe81610e93565b50565b610b09610f57565b6000600460008581526020019081526020016000209050600081600301600085815260200190815260200160002090506000816000015403610b80576040517f08c379a0000000000000000000000000000000000000000000000000000000008152600401610b779061138f565b60405180910390fd5b8060050160009054906101000a900460ff1615610bd2576040517f08c379a0000000000000000000000000000000000000000000000000000000008152600401610bc99061184f565b60405180910390fd5b60008390508160020154818360010154610bec91906113de565b1115610c095781600101548260020154610c06919061186f565b90505b7f000000000000000000000000000000000000000000000000000000000000000073ffffffffffffffffffffffffffffffffffffffff166323b872dd3330846040518463ffffffff1660e01b8152600401610c6693929190611412565b6020604051808303816000875af1158015610c85573d6000803e3d6000fd5b505050506040513d601f19601f82011682018060405250810190610ca99190611481565b5080826001016000828254610cbe91906113de565b925050819055508160020154826001015403610d7a5760018260050160006101000a81548160ff02191690831515021790555060006040518060400160405280600781526020017f6465662d3030310000000000000000000000000000000000000000000000000081525090507f73a17f5ffac4961a771f69c4f8e31906a2ffd97986e7b27253b4a4acbd66ab24868460040154838487600801548860090154604051610d7096959493929190611922565b60405180910390a1505b80600560003373ffffffffffffffffffffffffffffffffffffffff1673ffffffffffffffffffffffffffffffffffffffff16815260200190815260200160002060008781526020019081526020016000206000828254610dda91906113de565b92505081905550505050610dec610fa6565b505050565b610df9610faf565b73ffffffffffffffffffffffffffffffffffffffff16610e176104ec565b73ffffffffffffffffffffffffffffffffffffffff1614610e6d576040517f08c379a0000000000000000000000000000000000000000000000000000000008152600401610e64906119dd565b60405180910390fd5b565b600081600001549050919050565b6001816000016000828254019250508190555050565b60008060009054906101000a900473ffffffffffffffffffffffffffffffffffffffff169050816000806101000a81548173ffffffffffffffffffffffffffffffffffffffff021916908373ffffffffffffffffffffffffffffffffffffffff1602179055508173ffffffffffffffffffffffffffffffffffffffff168173ffffffffffffffffffffffffffffffffffffffff167f8be0079c531659141344cd1fd0a4f28419497f9722a3daafe3b4186f6b6457e060405160405180910390a35050565b600260015403610f9c576040517f08c379a0000000000000000000000000000000000000000000000000000000008152600401610f9390611a49565b60405180910390fd5b6002600181905550565b60018081905550565b600033905090565b600080fd5b6000819050919050565b610fcf81610fbc565b8114610fda57600080fd5b50565b600081359050610fec81610fc6565b92915050565b60006020828403121561100857611007610fb7565b5b600061101684828501610fdd565b91505092915050565b61102881610fbc565b82525050565b6000608082019050611043600083018761101f565b611050602083018661101f565b61105d604083018561101f565b61106a606083018461101f565b95945050505050565b60008060006060848603121561108c5761108b610fb7565b5b600061109a86828701610fdd565b93505060206110ab86828701610fdd565b92505060406110bc86828701610fdd565b9150509250925092565b600080604083850312156110dd576110dc610fb7565b5b60006110eb85828601610fdd565b92505060206110fc85828601610fdd565b9150509250929050565b600073ffffffffffffffffffffffffffffffffffffffff82169050919050565b600061113182611106565b9050919050565b61114181611126565b82525050565b600060208201905061115c6000830184611138565b92915050565b600080600080600080600060e0888a03121561118157611180610fb7565b5b600061118f8a828b01610fdd565b97505060206111a08a828b01610fdd565b96505060406111b18a828b01610fdd565b95505060606111c28a828b01610fdd565b94505060806111d38a828b01610fdd565b93505060a06111e48a828b01610fdd565b92505060c06111f58a828b01610fdd565b91505092959891949750929550565b61120d81611126565b811461121857600080fd5b50565b60008135905061122a81611204565b92915050565b6000806040838503121561124757611246610fb7565b5b60006112558582860161121b565b925050602061126685828601610fdd565b9150509250929050565b6000602082019050611285600083018461101f565b92915050565b6000819050919050565b60006112b06112ab6112a684611106565b61128b565b611106565b9050919050565b60006112c282611295565b9050919050565b60006112d4826112b7565b9050919050565b6112e4816112c9565b82525050565b60006020820190506112ff60008301846112db565b92915050565b60006020828403121561131b5761131a610fb7565b5b60006113298482850161121b565b91505092915050565b600082825260208201905092915050565b7f70726f6475637420646f6573206e6f7420657869737400000000000000000000600082015250565b6000611379601683611332565b915061138482611343565b602082019050919050565b600060208201905081810360008301526113a88161136c565b9050919050565b7f4e487b7100000000000000000000000000000000000000000000000000000000600052601160045260246000fd5b60006113e982610fbc565b91506113f483610fbc565b925082820190508082111561140c5761140b6113af565b5b92915050565b60006060820190506114276000830186611138565b6114346020830185611138565b611441604083018461101f565b949350505050565b60008115159050919050565b61145e81611449565b811461146957600080fd5b50565b60008151905061147b81611455565b92915050565b60006020828403121561149757611496610fb7565b5b60006114a58482850161146c565b91505092915050565b60006040820190506114c36000830185611138565b6114d0602083018461101f565b9392505050565b7f67616d6520646f6573206e6f7420657869737400000000000000000000000000600082015250565b600061150d601383611332565b9150611518826114d7565b602082019050919050565b6000602082019050818103600083015261153c81611500565b9050919050565b600061154e82610fbc565b91507fffffffffffffffffffffffffffffffffffffffffffffffffffffffffffffffff82036115805761157f6113af565b5b600182019050919050565b7f67616d65206e6f7420656e646564000000000000000000000000000000000000600082015250565b60006115c1600e83611332565b91506115cc8261158b565b602082019050919050565b600060208201905081810360008301526115f0816115b4565b9050919050565b7f70726f64756374206e6f7420696e2073746f7265000000000000000000000000600082015250565b600061162d601483611332565b9150611638826115f7565b602082019050919050565b6000602082019050818103600083015261165c81611620565b9050919050565b600061166e82610fbc565b915061167983610fbc565b925082820261168781610fbc565b9150828204841483151761169e5761169d6113af565b5b5092915050565b7f4e487b7100000000000000000000000000000000000000000000000000000000600052601260045260246000fd5b60006116df82610fbc565b91506116ea83610fbc565b9250826116fa576116f96116a5565b5b828204905092915050565b7f70726f6475637420696e2073746f726500000000000000000000000000000000600082015250565b600061173b601083611332565b915061174682611705565b602082019050919050565b6000602082019050818103600083015261176a8161172e565b9050919050565b7f4f776e61626c653a206e6577206f776e657220697320746865207a65726f206160008201527f6464726573730000000000000000000000000000000000000000000000000000602082015250565b60006117cd602683611332565b91506117d882611771565b604082019050919050565b600060208201905081810360008301526117fc816117c0565b9050919050565b7f70726f6475637420616c726561647920696e206d65682e73746f726500000000600082015250565b6000611839601c83611332565b915061184482611803565b602082019050919050565b600060208201905081810360008301526118688161182c565b9050919050565b600061187a82610fbc565b915061188583610fbc565b925082820390508181111561189d5761189c6113af565b5b92915050565b600081519050919050565b60005b838110156118cc5780820151818401526020810190506118b1565b60008484015250505050565b6000601f19601f8301169050919050565b60006118f4826118a3565b6118fe8185611332565b935061190e8185602086016118ae565b611917816118d8565b840191505092915050565b600060c082019050611937600083018961101f565b611944602083018861101f565b818103604083015261195681876118e9565b9050818103606083015261196a81866118e9565b9050611979608083018561101f565b61198660a083018461101f565b979650505050505050565b7f4f776e61626c653a2063616c6c6572206973206e6f7420746865206f776e6572600082015250565b60006119c7602083611332565b91506119d282611991565b602082019050919050565b600060208201905081810360008301526119f6816119ba565b9050919050565b7f5265656e7472616e637947756172643a207265656e7472616e742063616c6c00600082015250565b6000611a33601f83611332565b9150611a3e826119fd565b602082019050919050565b60006020820190508181036000830152611a6281611a26565b905091905056fea2646970667358221220cd4c61a8fd1a0ecb12d20ec15ecd6b69117b0cfce9f604efd091cbfb315ce6ee64736f6c63430008180033",
  "linkReferences": {},
  "deployedLinkReferences": {}
}