{
  "_format": "hh-sol-artifact-1",
  "contractName": "MehVoteV1",
  "sourceName": "contracts/MehVoteV1.sol",
  "abi": [
    {
      "inputs": [
        {
          "internalType": "contract IERC20Burnable",
          "name": "_mehToken",
          "type": "address"
        }
      ],
      "stateMutability": "nonpayable",
      "type": "constructor"
    },
    {
      "anonymous": false,
      "inputs": [
        {
          "indexed": false,
          "internalType": "uint256",
          "name": "productId",
          "type": "uint256"
        },
        {
          "indexed": false,
          "internalType": "string",
          "name": "productName",
          "type": "string"
        },
        {
          "indexed": false,
          "internalType": "string",
          "name": "allocatorMerkleRoot",
          "type": "string"
        },
        {
          "indexed": false,
          "internalType": "uint256",
          "name": "royaltyBase",
          "type": "uint256"
        }
      ],
      "name": "MehStore",
      "type": "event"
    },
    {
      "anonymous": false,
      "inputs": [
        {
          "indexed": true,
          "internalType": "address",
          "name": "previousOwner",
          "type": "address"
        },
        {
          "indexed": true,
          "internalType": "address",
          "name": "newOwner",
          "type": "address"
        }
      ],
      "name": "OwnershipTransferred",
      "type": "event"
    },
    {
      "inputs": [
        {
          "internalType": "uint256",
          "name": "_gameId",
          "type": "uint256"
        },
        {
          "internalType": "string",
          "name": "_name",
          "type": "string"
        },
        {
          "internalType": "uint256",
          "name": "_mehContractPrice",
          "type": "uint256"
        },
        {
          "internalType": "uint256",
          "name": "_mehContracts",
          "type": "uint256"
        },
        {
          "internalType": "uint256",
          "name": "_begin",
          "type": "uint256"
        },
        {
          "internalType": "uint256",
          "name": "_end",
          "type": "uint256"
        },
        {
          "internalType": "uint256",
          "name": "_royaltyBase",
          "type": "uint256"
        }
      ],
      "name": "addProductToGame",
      "outputs": [],
      "stateMutability": "nonpayable",
      "type": "function"
    },
    {
      "inputs": [
        {
          "internalType": "uint256",
          "name": "_gameId",
          "type": "uint256"
        },
        {
          "internalType": "uint256",
          "name": "_productId",
          "type": "uint256"
        }
      ],
      "name": "burnLoserPrizeMeh",
      "outputs": [],
      "stateMutability": "nonpayable",
      "type": "function"
    },
    {
      "inputs": [
        {
          "internalType": "uint256",
          "name": "_gameId",
          "type": "uint256"
        },
        {
          "internalType": "uint256",
          "name": "_productId",
          "type": "uint256"
        }
      ],
      "name": "claim",
      "outputs": [],
      "stateMutability": "nonpayable",
      "type": "function"
    },
    {
      "inputs": [
        {
          "internalType": "uint256",
          "name": "_begin",
          "type": "uint256"
        },
        {
          "internalType": "uint256",
          "name": "_end",
          "type": "uint256"
        }
      ],
      "name": "createGame",
      "outputs": [],
      "stateMutability": "nonpayable",
      "type": "function"
    },
    {
      "inputs": [
        {
          "internalType": "uint256",
          "name": "_gameId",
          "type": "uint256"
        },
        {
          "internalType": "uint256",
          "name": "_productId",
          "type": "uint256"
        },
        {
          "internalType": "uint256",
          "name": "_numContracts",
          "type": "uint256"
        }
      ],
      "name": "depositMeh",
      "outputs": [],
      "stateMutability": "nonpayable",
      "type": "function"
    },
    {
      "inputs": [
        {
          "internalType": "uint256",
          "name": "_amount",
          "type": "uint256"
        }
      ],
      "name": "depositMehStore",
      "outputs": [],
      "stateMutability": "nonpayable",
      "type": "function"
    },
    {
      "inputs": [
        {
          "internalType": "uint256",
          "name": "_gameId",
          "type": "uint256"
        },
        {
          "internalType": "uint256",
          "name": "_productId",
          "type": "uint256"
        },
        {
          "internalType": "uint256",
          "name": "_amount",
          "type": "uint256"
        }
      ],
      "name": "depositPrizeMeh",
      "outputs": [],
      "stateMutability": "nonpayable",
      "type": "function"
    },
    {
      "inputs": [
        {
          "internalType": "address",
          "name": "",
          "type": "address"
        },
        {
          "internalType": "uint256",
          "name": "",
          "type": "uint256"
        }
      ],
      "name": "deposits",
      "outputs": [
        {
          "internalType": "uint256",
          "name": "",
          "type": "uint256"
        }
      ],
      "stateMutability": "view",
      "type": "function"
    },
    {
      "inputs": [
        {
          "internalType": "uint256",
          "name": "",
          "type": "uint256"
        }
      ],
      "name": "games",
      "outputs": [
        {
          "internalType": "uint256",
          "name": "id",
          "type": "uint256"
        },
        {
          "internalType": "uint256",
          "name": "begin",
          "type": "uint256"
        },
        {
          "internalType": "uint256",
          "name": "end",
          "type": "uint256"
        },
        {
          "internalType": "uint256",
          "name": "numProducts",
          "type": "uint256"
        }
      ],
      "stateMutability": "view",
      "type": "function"
    },
    {
      "inputs": [
        {
          "internalType": "uint256",
          "name": "gameId",
          "type": "uint256"
        }
      ],
      "name": "getProductsByGameId",
      "outputs": [
        {
          "components": [
            {
              "internalType": "uint256",
              "name": "id",
              "type": "uint256"
            },
            {
              "internalType": "string",
              "name": "name",
              "type": "string"
            },
            {
              "internalType": "uint256",
              "name": "mehContractsDeposited",
              "type": "uint256"
            },
            {
              "internalType": "uint256",
              "name": "mehContracts",
              "type": "uint256"
            },
            {
              "internalType": "uint256",
              "name": "mehContractPrice",
              "type": "uint256"
            },
            {
              "internalType": "uint256",
              "name": "prizeMeh",
              "type": "uint256"
            },
            {
              "internalType": "bool",
              "name": "mehStore",
              "type": "bool"
            },
            {
              "internalType": "uint256",
              "name": "begin",
              "type": "uint256"
            },
            {
              "internalType": "uint256",
              "name": "end",
              "type": "uint256"
            },
            {
              "internalType": "uint256",
              "name": "royaltyBase",
              "type": "uint256"
            }
          ],
          "internalType": "struct MehVoteV1.Product[]",
          "name": "",
          "type": "tuple[]"
        }
      ],
      "stateMutability": "view",
      "type": "function"
    },
    {
      "inputs": [],
      "name": "mehToken",
      "outputs": [
        {
          "internalType": "contract IERC20Burnable",
          "name": "",
          "type": "address"
        }
      ],
      "stateMutability": "view",
      "type": "function"
    },
    {
      "inputs": [],
      "name": "owner",
      "outputs": [
        {
          "internalType": "address",
          "name": "",
          "type": "address"
        }
      ],
      "stateMutability": "view",
      "type": "function"
    },
    {
      "inputs": [],
      "name": "renounceOwnership",
      "outputs": [],
      "stateMutability": "nonpayable",
      "type": "function"
    },
    {
      "inputs": [
        {
          "internalType": "address",
          "name": "newOwner",
          "type": "address"
        }
      ],
      "name": "transferOwnership",
      "outputs": [],
      "stateMutability": "nonpayable",
      "type": "function"
    }
  ],
  "bytecode": "0x60a06040523480156200001157600080fd5b50604051620027503803806200275083398181016040528101906200003791906200021d565b620000576200004b620000bd60201b60201c565b620000c560201b60201c565b600180819055508073ffffffffffffffffffffffffffffffffffffffff1660808173ffffffffffffffffffffffffffffffffffffffff1681525050620000a460026200018960201b60201c565b620000b660036200018960201b60201c565b506200024f565b600033905090565b60008060009054906101000a900473ffffffffffffffffffffffffffffffffffffffff169050816000806101000a81548173ffffffffffffffffffffffffffffffffffffffff021916908373ffffffffffffffffffffffffffffffffffffffff1602179055508173ffffffffffffffffffffffffffffffffffffffff168173ffffffffffffffffffffffffffffffffffffffff167f8be0079c531659141344cd1fd0a4f28419497f9722a3daafe3b4186f6b6457e060405160405180910390a35050565b6001816000016000828254019250508190555050565b600080fd5b600073ffffffffffffffffffffffffffffffffffffffff82169050919050565b6000620001d182620001a4565b9050919050565b6000620001e582620001c4565b9050919050565b620001f781620001d8565b81146200020357600080fd5b50565b6000815190506200021781620001ec565b92915050565b6000602082840312156200023657620002356200019f565b5b6000620002468482850162000206565b91505092915050565b6080516124c26200028e6000396000818161052e0152818161064a0152818161079901528181610a6a01528181610cb10152610ea201526124c26000f3fe608060405234801561001057600080fd5b50600436106100ea5760003560e01c80638da5cb5b1161008c578063d6d6817711610066578063d6d6817714610222578063e2c2c88414610252578063f2fde38b14610270578063f38bee181461028c576100ea565b80638da5cb5b146101b8578063c3490263146101d6578063c7b56842146101f2576100ea565b806360104cef116100c857806360104cef1461015a578063715018a61461017657806376f7b500146101805780638c5b883d1461019c576100ea565b8063117a5b90146100ef5780632849625d1461012257806353f8c4831461013e575b600080fd5b6101096004803603810190610104919061128f565b6102a8565b60405161011994939291906112cb565b60405180910390f35b61013c60048036038101906101379190611456565b6102d8565b005b61015860048036038101906101539190611514565b610483565b005b610174600480360381019061016f9190611567565b6105d4565b005b61017e61062c565b005b61019a6004803603810190610195919061128f565b610640565b005b6101b660048036038101906101b19190611567565b6106f1565b005b6101c061082d565b6040516101cd91906115e8565b60405180910390f35b6101f060048036038101906101eb9190611567565b610856565b005b61020c6004803603810190610207919061128f565b610b17565b6040516102199190611848565b60405180910390f35b61023c60048036038101906102379190611896565b610c8a565b60405161024991906118d6565b60405180910390f35b61025a610caf565b6040516102679190611950565b60405180910390f35b61028a6004803603810190610285919061196b565b610cd3565b005b6102a660048036038101906102a19190611514565b610d56565b005b60046020528060005260406000206000915090508060000154908060010154908060020154908060040154905084565b6102e061107f565b6000600460008981526020019081526020016000209050600081600001540361033e576040517f08c379a0000000000000000000000000000000000000000000000000000000008152600401610335906119f5565b60405180910390fd5b600061034a60036110fd565b905060006040518061014001604052808381526020018a81526020016000815260200188815260200189815260200160008152602001600015158152602001878152602001868152602001858152509050826003018190806001815401808255809150506001900390600052602060002090600a02016000909190919091506000820151816000015560208201518160010190816103e89190611c17565b5060408201518160020155606082015181600301556080820151816004015560a0820151816005015560c08201518160060160006101000a81548160ff02191690831515021790555060e0820151816007015561010082015181600801556101208201518160090155505082600401600081548092919061046890611d18565b9190505550610477600361110b565b50505050505050505050565b61048b61107f565b600060046000858152602001908152602001600020905060008160030184815481106104ba576104b9611d60565b5b90600052602060002090600a020190506000816000015403610511576040517f08c379a000000000000000000000000000000000000000000000000000000000815260040161050890611ddb565b60405180910390fd5b828160050160008282546105259190611dfb565b925050819055507f000000000000000000000000000000000000000000000000000000000000000073ffffffffffffffffffffffffffffffffffffffff166323b872dd3330866040518463ffffffff1660e01b815260040161058993929190611e2f565b6020604051808303816000875af11580156105a8573d6000803e3d6000fd5b505050506040513d601f19601f820116820180604052508101906105cc9190611e92565b505050505050565b6105dc61107f565b60006105e860026110fd565b90506000600460008381526020019081526020016000209050818160000181905550838160010181905550828160020181905550610626600261110b565b50505050565b61063461107f565b61063e6000611121565b565b61064861107f565b7f000000000000000000000000000000000000000000000000000000000000000073ffffffffffffffffffffffffffffffffffffffff1663a9059cbb61068c61082d565b836040518363ffffffff1660e01b81526004016106aa929190611ebf565b6020604051808303816000875af11580156106c9573d6000803e3d6000fd5b505050506040513d601f19601f820116820180604052508101906106ed9190611e92565b5050565b6106f961107f565b6000600460008481526020019081526020016000209050600081600301838154811061072857610727611d60565b5b90600052602060002090600a020190508060060160009054906101000a900460ff161561078a576040517f08c379a000000000000000000000000000000000000000000000000000000000815260040161078190611f34565b60405180910390fd5b600081600501541115610827577f000000000000000000000000000000000000000000000000000000000000000073ffffffffffffffffffffffffffffffffffffffff166342966c6882600501546040518263ffffffff1660e01b81526004016107f491906118d6565b600060405180830381600087803b15801561080e57600080fd5b505af1158015610822573d6000803e3d6000fd5b505050505b50505050565b60008060009054906101000a900473ffffffffffffffffffffffffffffffffffffffff16905090565b61085e6111e5565b6000600460008481526020019081526020016000209050428160020154106108bb576040517f08c379a00000000000000000000000000000000000000000000000000000000081526004016108b290611fa0565b60405180910390fd5b8060030182815481106108d1576108d0611d60565b5b90600052602060002090600a020160060160009054906101000a900460ff1661092f576040517f08c379a00000000000000000000000000000000000000000000000000000000081526004016109269061200c565b60405180910390fd5b6000600560003373ffffffffffffffffffffffffffffffffffffffff1673ffffffffffffffffffffffffffffffffffffffff1681526020019081526020016000206000848152602001908152602001600020549050600081116109c7576040517f08c379a00000000000000000000000000000000000000000000000000000000081526004016109be90612078565b60405180910390fd5b60008260030184815481106109df576109de611d60565b5b90600052602060002090600a020190506000816003015483610a0191906120c7565b8260050154610a1091906120f8565b90506000600560003373ffffffffffffffffffffffffffffffffffffffff1673ffffffffffffffffffffffffffffffffffffffff1681526020019081526020016000206000878152602001908152602001600020819055507f000000000000000000000000000000000000000000000000000000000000000073ffffffffffffffffffffffffffffffffffffffff1663a9059cbb33836040518363ffffffff1660e01b8152600401610ac3929190611ebf565b6020604051808303816000875af1158015610ae2573d6000803e3d6000fd5b505050506040513d601f19601f82011682018060405250810190610b069190611e92565b5050505050610b13611234565b5050565b606060046000838152602001908152602001600020600301805480602002602001604051908101604052809291908181526020016000905b82821015610c7f57838290600052602060002090600a02016040518061014001604052908160008201548152602001600182018054610b8d90611a44565b80601f0160208091040260200160405190810160405280929190818152602001828054610bb990611a44565b8015610c065780601f10610bdb57610100808354040283529160200191610c06565b820191906000526020600020905b815481529060010190602001808311610be957829003601f168201915b50505050508152602001600282015481526020016003820154815260200160048201548152602001600582015481526020016006820160009054906101000a900460ff16151515158152602001600782015481526020016008820154815260200160098201548152505081526020019060010190610b4f565b505050509050919050565b6005602052816000526040600020602052806000526040600020600091509150505481565b7f000000000000000000000000000000000000000000000000000000000000000081565b610cdb61107f565b600073ffffffffffffffffffffffffffffffffffffffff168173ffffffffffffffffffffffffffffffffffffffff1603610d4a576040517f08c379a0000000000000000000000000000000000000000000000000000000008152600401610d41906121ac565b60405180910390fd5b610d5381611121565b50565b610d5e6111e5565b60006004600085815260200190815260200160002090506000816003018481548110610d8d57610d8c611d60565b5b90600052602060002090600a020190506000816000015403610de4576040517f08c379a0000000000000000000000000000000000000000000000000000000008152600401610ddb90611ddb565b60405180910390fd5b8060060160009054906101000a900460ff1615610e36576040517f08c379a0000000000000000000000000000000000000000000000000000000008152600401610e2d90612218565b60405180910390fd5b8060030154838260020154610e4b9190611dfb565b1115610e8c576040517f08c379a0000000000000000000000000000000000000000000000000000000008152600401610e8390612284565b60405180910390fd5b6000816004015484610e9e91906120f8565b90507f000000000000000000000000000000000000000000000000000000000000000073ffffffffffffffffffffffffffffffffffffffff166323b872dd3330846040518463ffffffff1660e01b8152600401610efd93929190611e2f565b6020604051808303816000875af1158015610f1c573d6000803e3d6000fd5b505050506040513d601f19601f82011682018060405250810190610f409190611e92565b5083600560003373ffffffffffffffffffffffffffffffffffffffff1673ffffffffffffffffffffffffffffffffffffffff16815260200190815260200160002060008781526020019081526020016000206000828254610fa19190611dfb565b9250508190555083826002016000828254610fbc9190611dfb565b92505081905550816003015482600201540361106f5760018260060160006101000a81548160ff02191690831515021790555060006040518060400160405280600781526020017f6465662d3030310000000000000000000000000000000000000000000000000081525090507f48bdd33bb928f44a7b0b890963d9afe34abf223c0de29e0174cd429d9ac0c18a86846001018386600901546040516110659493929190612361565b60405180910390a1505b50505061107a611234565b505050565b61108761123d565b73ffffffffffffffffffffffffffffffffffffffff166110a561082d565b73ffffffffffffffffffffffffffffffffffffffff16146110fb576040517f08c379a00000000000000000000000000000000000000000000000000000000081526004016110f290612400565b60405180910390fd5b565b600081600001549050919050565b6001816000016000828254019250508190555050565b60008060009054906101000a900473ffffffffffffffffffffffffffffffffffffffff169050816000806101000a81548173ffffffffffffffffffffffffffffffffffffffff021916908373ffffffffffffffffffffffffffffffffffffffff1602179055508173ffffffffffffffffffffffffffffffffffffffff168173ffffffffffffffffffffffffffffffffffffffff167f8be0079c531659141344cd1fd0a4f28419497f9722a3daafe3b4186f6b6457e060405160405180910390a35050565b60026001540361122a576040517f08c379a00000000000000000000000000000000000000000000000000000000081526004016112219061246c565b60405180910390fd5b6002600181905550565b60018081905550565b600033905090565b6000604051905090565b600080fd5b600080fd5b6000819050919050565b61126c81611259565b811461127757600080fd5b50565b60008135905061128981611263565b92915050565b6000602082840312156112a5576112a461124f565b5b60006112b38482850161127a565b91505092915050565b6112c581611259565b82525050565b60006080820190506112e060008301876112bc565b6112ed60208301866112bc565b6112fa60408301856112bc565b61130760608301846112bc565b95945050505050565b600080fd5b600080fd5b6000601f19601f8301169050919050565b7f4e487b7100000000000000000000000000000000000000000000000000000000600052604160045260246000fd5b6113638261131a565b810181811067ffffffffffffffff821117156113825761138161132b565b5b80604052505050565b6000611395611245565b90506113a1828261135a565b919050565b600067ffffffffffffffff8211156113c1576113c061132b565b5b6113ca8261131a565b9050602081019050919050565b82818337600083830152505050565b60006113f96113f4846113a6565b61138b565b90508281526020810184848401111561141557611414611315565b5b6114208482856113d7565b509392505050565b600082601f83011261143d5761143c611310565b5b813561144d8482602086016113e6565b91505092915050565b600080600080600080600060e0888a0312156114755761147461124f565b5b60006114838a828b0161127a565b975050602088013567ffffffffffffffff8111156114a4576114a3611254565b5b6114b08a828b01611428565b96505060406114c18a828b0161127a565b95505060606114d28a828b0161127a565b94505060806114e38a828b0161127a565b93505060a06114f48a828b0161127a565b92505060c06115058a828b0161127a565b91505092959891949750929550565b60008060006060848603121561152d5761152c61124f565b5b600061153b8682870161127a565b935050602061154c8682870161127a565b925050604061155d8682870161127a565b9150509250925092565b6000806040838503121561157e5761157d61124f565b5b600061158c8582860161127a565b925050602061159d8582860161127a565b9150509250929050565b600073ffffffffffffffffffffffffffffffffffffffff82169050919050565b60006115d2826115a7565b9050919050565b6115e2816115c7565b82525050565b60006020820190506115fd60008301846115d9565b92915050565b600081519050919050565b600082825260208201905092915050565b6000819050602082019050919050565b61163881611259565b82525050565b600081519050919050565b600082825260208201905092915050565b60005b8381101561167857808201518184015260208101905061165d565b60008484015250505050565b600061168f8261163e565b6116998185611649565b93506116a981856020860161165a565b6116b28161131a565b840191505092915050565b60008115159050919050565b6116d2816116bd565b82525050565b6000610140830160008301516116f1600086018261162f565b50602083015184820360208601526117098282611684565b915050604083015161171e604086018261162f565b506060830151611731606086018261162f565b506080830151611744608086018261162f565b5060a083015161175760a086018261162f565b5060c083015161176a60c08601826116c9565b5060e083015161177d60e086018261162f565b5061010083015161179261010086018261162f565b506101208301516117a761012086018261162f565b508091505092915050565b60006117be83836116d8565b905092915050565b6000602082019050919050565b60006117de82611603565b6117e8818561160e565b9350836020820285016117fa8561161f565b8060005b85811015611836578484038952815161181785826117b2565b9450611822836117c6565b925060208a019950506001810190506117fe565b50829750879550505050505092915050565b6000602082019050818103600083015261186281846117d3565b905092915050565b611873816115c7565b811461187e57600080fd5b50565b6000813590506118908161186a565b92915050565b600080604083850312156118ad576118ac61124f565b5b60006118bb85828601611881565b92505060206118cc8582860161127a565b9150509250929050565b60006020820190506118eb60008301846112bc565b92915050565b6000819050919050565b600061191661191161190c846115a7565b6118f1565b6115a7565b9050919050565b6000611928826118fb565b9050919050565b600061193a8261191d565b9050919050565b61194a8161192f565b82525050565b60006020820190506119656000830184611941565b92915050565b6000602082840312156119815761198061124f565b5b600061198f84828501611881565b91505092915050565b600082825260208201905092915050565b7f67616d6520646f6573206e6f7420657869737400000000000000000000000000600082015250565b60006119df601383611998565b91506119ea826119a9565b602082019050919050565b60006020820190508181036000830152611a0e816119d2565b9050919050565b7f4e487b7100000000000000000000000000000000000000000000000000000000600052602260045260246000fd5b60006002820490506001821680611a5c57607f821691505b602082108103611a6f57611a6e611a15565b5b50919050565b60008190508160005260206000209050919050565b60006020601f8301049050919050565b600082821b905092915050565b600060088302611ad77fffffffffffffffffffffffffffffffffffffffffffffffffffffffffffffffff82611a9a565b611ae18683611a9a565b95508019841693508086168417925050509392505050565b6000611b14611b0f611b0a84611259565b6118f1565b611259565b9050919050565b6000819050919050565b611b2e83611af9565b611b42611b3a82611b1b565b848454611aa7565b825550505050565b600090565b611b57611b4a565b611b62818484611b25565b505050565b5b81811015611b8657611b7b600082611b4f565b600181019050611b68565b5050565b601f821115611bcb57611b9c81611a75565b611ba584611a8a565b81016020851015611bb4578190505b611bc8611bc085611a8a565b830182611b67565b50505b505050565b600082821c905092915050565b6000611bee60001984600802611bd0565b1980831691505092915050565b6000611c078383611bdd565b9150826002028217905092915050565b611c208261163e565b67ffffffffffffffff811115611c3957611c3861132b565b5b611c438254611a44565b611c4e828285611b8a565b600060209050601f831160018114611c815760008415611c6f578287015190505b611c798582611bfb565b865550611ce1565b601f198416611c8f86611a75565b60005b82811015611cb757848901518255600182019150602085019450602081019050611c92565b86831015611cd45784890151611cd0601f891682611bdd565b8355505b6001600288020188555050505b505050505050565b7f4e487b7100000000000000000000000000000000000000000000000000000000600052601160045260246000fd5b6000611d2382611259565b91507fffffffffffffffffffffffffffffffffffffffffffffffffffffffffffffffff8203611d5557611d54611ce9565b5b600182019050919050565b7f4e487b7100000000000000000000000000000000000000000000000000000000600052603260045260246000fd5b7f70726f6475637420646f6573206e6f7420657869737400000000000000000000600082015250565b6000611dc5601683611998565b9150611dd082611d8f565b602082019050919050565b60006020820190508181036000830152611df481611db8565b9050919050565b6000611e0682611259565b9150611e1183611259565b9250828201905080821115611e2957611e28611ce9565b5b92915050565b6000606082019050611e4460008301866115d9565b611e5160208301856115d9565b611e5e60408301846112bc565b949350505050565b611e6f816116bd565b8114611e7a57600080fd5b50565b600081519050611e8c81611e66565b92915050565b600060208284031215611ea857611ea761124f565b5b6000611eb684828501611e7d565b91505092915050565b6000604082019050611ed460008301856115d9565b611ee160208301846112bc565b9392505050565b7f70726f6475637420696e2073746f726500000000000000000000000000000000600082015250565b6000611f1e601083611998565b9150611f2982611ee8565b602082019050919050565b60006020820190508181036000830152611f4d81611f11565b9050919050565b7f67616d65206e6f7420656e646564000000000000000000000000000000000000600082015250565b6000611f8a600e83611998565b9150611f9582611f54565b602082019050919050565b60006020820190508181036000830152611fb981611f7d565b9050919050565b7f70726f64756374206e6f7420696e2073746f7265000000000000000000000000600082015250565b6000611ff6601483611998565b915061200182611fc0565b602082019050919050565b6000602082019050818103600083015261202581611fe9565b9050919050565b7f6e6f20636f6e7472616374730000000000000000000000000000000000000000600082015250565b6000612062600c83611998565b915061206d8261202c565b602082019050919050565b6000602082019050818103600083015261209181612055565b9050919050565b7f4e487b7100000000000000000000000000000000000000000000000000000000600052601260045260246000fd5b60006120d282611259565b91506120dd83611259565b9250826120ed576120ec612098565b5b828204905092915050565b600061210382611259565b915061210e83611259565b925082820261211c81611259565b9150828204841483151761213357612132611ce9565b5b5092915050565b7f4f776e61626c653a206e6577206f776e657220697320746865207a65726f206160008201527f6464726573730000000000000000000000000000000000000000000000000000602082015250565b6000612196602683611998565b91506121a18261213a565b604082019050919050565b600060208201905081810360008301526121c581612189565b9050919050565b7f70726f6475637420616c726561647920696e206d65682e73746f726500000000600082015250565b6000612202601c83611998565b915061220d826121cc565b602082019050919050565b60006020820190508181036000830152612231816121f5565b9050919050565b7f73656c6c6f757400000000000000000000000000000000000000000000000000600082015250565b600061226e600783611998565b915061227982612238565b602082019050919050565b6000602082019050818103600083015261229d81612261565b9050919050565b600081546122b181611a44565b6122bb8186611998565b945060018216600081146122d657600181146122ec5761231f565b60ff19831686528115156020028601935061231f565b6122f585611a75565b60005b83811015612317578154818901526001820191506020810190506122f8565b808801955050505b50505092915050565b60006123338261163e565b61233d8185611998565b935061234d81856020860161165a565b6123568161131a565b840191505092915050565b600060808201905061237660008301876112bc565b818103602083015261238881866122a4565b9050818103604083015261239c8185612328565b90506123ab60608301846112bc565b95945050505050565b7f4f776e61626c653a2063616c6c6572206973206e6f7420746865206f776e6572600082015250565b60006123ea602083611998565b91506123f5826123b4565b602082019050919050565b60006020820190508181036000830152612419816123dd565b9050919050565b7f5265656e7472616e637947756172643a207265656e7472616e742063616c6c00600082015250565b6000612456601f83611998565b915061246182612420565b602082019050919050565b6000602082019050818103600083015261248581612449565b905091905056fea26469706673582212205fa1e1fb3571a1572a10f9a5478fcd94eec8dd5aa53311e74f363eaa8767a8e664736f6c63430008180033",
  "linkReferences": {},
  "deployedLinkReferences": {}
}