{
  "_format": "hh-sol-artifact-1",
  "contractName": "MehVoteV1",
  "sourceName": "contracts/MehVoteV1.sol",
  "abi": [
    {
      "inputs": [
        {
          "internalType": "contract IERC20Burnable",
          "name": "_mehToken",
          "type": "address"
        },
        {
          "internalType": "contract IRoyalty",
          "name": "_royalties",
          "type": "address"
        }
      ],
      "stateMutability": "nonpayable",
      "type": "constructor"
    },
    {
      "anonymous": false,
      "inputs": [
        {
          "indexed": false,
          "internalType": "uint256",
          "name": "productId",
          "type": "uint256"
        },
        {
          "indexed": false,
          "internalType": "string",
          "name": "productName",
          "type": "string"
        },
        {
          "indexed": false,
          "internalType": "string",
          "name": "allocatorMerkleRoot",
          "type": "string"
        },
        {
          "indexed": false,
          "internalType": "uint256",
          "name": "totalContracts",
          "type": "uint256"
        }
      ],
      "name": "MehStore",
      "type": "event"
    },
    {
      "anonymous": false,
      "inputs": [
        {
          "indexed": true,
          "internalType": "address",
          "name": "previousOwner",
          "type": "address"
        },
        {
          "indexed": true,
          "internalType": "address",
          "name": "newOwner",
          "type": "address"
        }
      ],
      "name": "OwnershipTransferred",
      "type": "event"
    },
    {
      "inputs": [
        {
          "internalType": "uint256",
          "name": "_gameId",
          "type": "uint256"
        },
        {
          "internalType": "string",
          "name": "_name",
          "type": "string"
        },
        {
          "internalType": "uint256",
          "name": "_mehContracts",
          "type": "uint256"
        },
        {
          "internalType": "uint256",
          "name": "_mehContractPrice",
          "type": "uint256"
        },
        {
          "internalType": "uint256",
          "name": "_begin",
          "type": "uint256"
        },
        {
          "internalType": "uint256",
          "name": "_end",
          "type": "uint256"
        },
        {
          "internalType": "uint256",
          "name": "_totalContracts",
          "type": "uint256"
        },
        {
          "internalType": "bool",
          "name": "_limitedRun",
          "type": "bool"
        }
      ],
      "name": "addProductToGame",
      "outputs": [],
      "stateMutability": "nonpayable",
      "type": "function"
    },
    {
      "inputs": [
        {
          "internalType": "uint256",
          "name": "_gameId",
          "type": "uint256"
        },
        {
          "internalType": "uint256",
          "name": "_productId",
          "type": "uint256"
        }
      ],
      "name": "claim",
      "outputs": [],
      "stateMutability": "nonpayable",
      "type": "function"
    },
    {
      "inputs": [
        {
          "internalType": "uint256",
          "name": "_begin",
          "type": "uint256"
        },
        {
          "internalType": "uint256",
          "name": "_end",
          "type": "uint256"
        }
      ],
      "name": "createGame",
      "outputs": [],
      "stateMutability": "nonpayable",
      "type": "function"
    },
    {
      "inputs": [
        {
          "internalType": "uint256",
          "name": "_gameId",
          "type": "uint256"
        },
        {
          "internalType": "uint256",
          "name": "_productId",
          "type": "uint256"
        },
        {
          "internalType": "uint256",
          "name": "_numContracts",
          "type": "uint256"
        }
      ],
      "name": "depositMeh",
      "outputs": [],
      "stateMutability": "nonpayable",
      "type": "function"
    },
    {
      "inputs": [
        {
          "internalType": "uint256",
          "name": "_amount",
          "type": "uint256"
        }
      ],
      "name": "depositMehStore",
      "outputs": [],
      "stateMutability": "nonpayable",
      "type": "function"
    },
    {
      "inputs": [
        {
          "internalType": "uint256",
          "name": "_gameId",
          "type": "uint256"
        },
        {
          "internalType": "uint256",
          "name": "_productId",
          "type": "uint256"
        },
        {
          "internalType": "uint256",
          "name": "_amount",
          "type": "uint256"
        }
      ],
      "name": "depositPrizeMeh",
      "outputs": [],
      "stateMutability": "nonpayable",
      "type": "function"
    },
    {
      "inputs": [
        {
          "internalType": "address",
          "name": "",
          "type": "address"
        },
        {
          "internalType": "uint256",
          "name": "",
          "type": "uint256"
        }
      ],
      "name": "deposits",
      "outputs": [
        {
          "internalType": "uint256",
          "name": "",
          "type": "uint256"
        }
      ],
      "stateMutability": "view",
      "type": "function"
    },
    {
      "inputs": [
        {
          "internalType": "uint256",
          "name": "",
          "type": "uint256"
        }
      ],
      "name": "games",
      "outputs": [
        {
          "internalType": "uint256",
          "name": "id",
          "type": "uint256"
        },
        {
          "internalType": "uint256",
          "name": "begin",
          "type": "uint256"
        },
        {
          "internalType": "uint256",
          "name": "end",
          "type": "uint256"
        },
        {
          "internalType": "uint256",
          "name": "numProducts",
          "type": "uint256"
        }
      ],
      "stateMutability": "view",
      "type": "function"
    },
    {
      "inputs": [
        {
          "internalType": "uint256",
          "name": "gameId",
          "type": "uint256"
        }
      ],
      "name": "getProductsByGameId",
      "outputs": [
        {
          "components": [
            {
              "internalType": "uint256",
              "name": "id",
              "type": "uint256"
            },
            {
              "internalType": "string",
              "name": "name",
              "type": "string"
            },
            {
              "internalType": "uint256",
              "name": "mehContractsDeposited",
              "type": "uint256"
            },
            {
              "internalType": "uint256",
              "name": "mehContracts",
              "type": "uint256"
            },
            {
              "internalType": "uint256",
              "name": "mehContractPrice",
              "type": "uint256"
            },
            {
              "internalType": "uint256",
              "name": "prizeMeh",
              "type": "uint256"
            },
            {
              "internalType": "bool",
              "name": "mehStore",
              "type": "bool"
            },
            {
              "internalType": "uint256",
              "name": "begin",
              "type": "uint256"
            },
            {
              "internalType": "uint256",
              "name": "end",
              "type": "uint256"
            },
            {
              "internalType": "uint256",
              "name": "totalContracts",
              "type": "uint256"
            },
            {
              "internalType": "bool",
              "name": "limitedRun",
              "type": "bool"
            }
          ],
          "internalType": "struct MehVoteV1.Product[]",
          "name": "",
          "type": "tuple[]"
        }
      ],
      "stateMutability": "view",
      "type": "function"
    },
    {
      "inputs": [],
      "name": "mehToken",
      "outputs": [
        {
          "internalType": "contract IERC20Burnable",
          "name": "",
          "type": "address"
        }
      ],
      "stateMutability": "view",
      "type": "function"
    },
    {
      "inputs": [],
      "name": "owner",
      "outputs": [
        {
          "internalType": "address",
          "name": "",
          "type": "address"
        }
      ],
      "stateMutability": "view",
      "type": "function"
    },
    {
      "inputs": [],
      "name": "renounceOwnership",
      "outputs": [],
      "stateMutability": "nonpayable",
      "type": "function"
    },
    {
      "inputs": [],
      "name": "royalties",
      "outputs": [
        {
          "internalType": "contract IRoyalty",
          "name": "",
          "type": "address"
        }
      ],
      "stateMutability": "view",
      "type": "function"
    },
    {
      "inputs": [
        {
          "internalType": "address",
          "name": "newOwner",
          "type": "address"
        }
      ],
      "name": "transferOwnership",
      "outputs": [],
      "stateMutability": "nonpayable",
      "type": "function"
    }
  ],
  "bytecode": "0x60c06040523480156200001157600080fd5b50604051620026ca380380620026ca833981810160405281019062000037919062000297565b620000576200004b620000f260201b60201c565b620000fa60201b60201c565b600180819055508173ffffffffffffffffffffffffffffffffffffffff1660808173ffffffffffffffffffffffffffffffffffffffff16815250508073ffffffffffffffffffffffffffffffffffffffff1660a08173ffffffffffffffffffffffffffffffffffffffff1681525050620000d86002620001be60201b60201c565b620000ea6003620001be60201b60201c565b5050620002de565b600033905090565b60008060009054906101000a900473ffffffffffffffffffffffffffffffffffffffff169050816000806101000a81548173ffffffffffffffffffffffffffffffffffffffff021916908373ffffffffffffffffffffffffffffffffffffffff1602179055508173ffffffffffffffffffffffffffffffffffffffff168173ffffffffffffffffffffffffffffffffffffffff167f8be0079c531659141344cd1fd0a4f28419497f9722a3daafe3b4186f6b6457e060405160405180910390a35050565b6001816000016000828254019250508190555050565b600080fd5b600073ffffffffffffffffffffffffffffffffffffffff82169050919050565b60006200020682620001d9565b9050919050565b60006200021a82620001f9565b9050919050565b6200022c816200020d565b81146200023857600080fd5b50565b6000815190506200024c8162000221565b92915050565b60006200025f82620001f9565b9050919050565b620002718162000252565b81146200027d57600080fd5b50565b600081519050620002918162000266565b92915050565b60008060408385031215620002b157620002b0620001d4565b5b6000620002c1858286016200023b565b9250506020620002d48582860162000280565b9150509250929050565b60805160a0516123a3620003276000396000818161070a0152610c5d015260008181610367015281816104950152818161080201528181610c390152610ece01526123a36000f3fe608060405234801561001057600080fd5b50600436106100ea5760003560e01c8063c7b568421161008c578063e2c2c88411610066578063e2c2c88414610236578063f053dc5c14610254578063f2fde38b14610272578063f38bee181461028e576100ea565b8063c7b56842146101ba578063cfb663db146101ea578063d6d6817714610206576100ea565b8063715018a6116100c8578063715018a61461015a57806376f7b500146101645780638da5cb5b14610180578063c34902631461019e576100ea565b8063117a5b90146100ef57806353f8c4831461012257806360104cef1461013e575b600080fd5b61010960048036038101906101049190611223565b6102aa565b604051610119949392919061125f565b60405180910390f35b61013c600480360381019061013791906112a4565b6102da565b005b610158600480360381019061015391906112f7565b61041f565b005b610162610477565b005b61017e60048036038101906101799190611223565b61048b565b005b61018861053c565b6040516101959190611378565b60405180910390f35b6101b860048036038101906101b391906112f7565b610565565b005b6101d460048036038101906101cf9190611223565b6108af565b6040516101e191906115fe565b60405180910390f35b61020460048036038101906101ff9190611781565b610a3d565b005b610220600480360381019061021b919061187f565b610c12565b60405161022d91906118bf565b60405180910390f35b61023e610c37565b60405161024b9190611939565b60405180910390f35b61025c610c5b565b6040516102699190611975565b60405180910390f35b61028c60048036038101906102879190611990565b610c7f565b005b6102a860048036038101906102a391906112a4565b610d02565b005b60046020528060005260406000206000915090508060000154908060010154908060020154908060040154905084565b6102e2611013565b600060046000858152602001908152602001600020905060005b81600301805490508110156104185783826003018281548110610322576103216119bd565b5b90600052602060002090600b0201600001540361040b57828260030182815481106103505761034f6119bd565b5b90600052602060002090600b0201600501819055507f000000000000000000000000000000000000000000000000000000000000000073ffffffffffffffffffffffffffffffffffffffff166323b872dd3330866040518463ffffffff1660e01b81526004016103c2939291906119ec565b6020604051808303816000875af11580156103e1573d6000803e3d6000fd5b505050506040513d601f19601f820116820180604052508101906104059190611a38565b50610418565b80806001019150506102fc565b5050505050565b610427611013565b60006104336002611091565b90506000600460008381526020019081526020016000209050818160000181905550838160010181905550828160020181905550610471600261109f565b50505050565b61047f611013565b61048960006110b5565b565b610493611013565b7f000000000000000000000000000000000000000000000000000000000000000073ffffffffffffffffffffffffffffffffffffffff1663a9059cbb6104d761053c565b836040518363ffffffff1660e01b81526004016104f5929190611a65565b6020604051808303816000875af1158015610514573d6000803e3d6000fd5b505050506040513d601f19601f820116820180604052508101906105389190611a38565b5050565b60008060009054906101000a900473ffffffffffffffffffffffffffffffffffffffff16905090565b61056d611179565b6000600460008481526020019081526020016000209050600081600301838154811061059c5761059b6119bd565b5b90600052602060002090600b0201905060008160000154036105f3576040517f08c379a00000000000000000000000000000000000000000000000000000000081526004016105ea90611aeb565b60405180910390fd5b6000600560003373ffffffffffffffffffffffffffffffffffffffff1673ffffffffffffffffffffffffffffffffffffffff16815260200190815260200160002060008581526020019081526020016000205490506000811161068b576040517f08c379a000000000000000000000000000000000000000000000000000000000815260040161068290611b57565b60405180910390fd5b600082600401548261069d9190611ba6565b90508360030185815481106106b5576106b46119bd565b5b90600052602060002090600b020160060160009054906101000a900460ff16156107aa578260030154826106e99190611c17565b83600501546106f89190611ba6565b90506000600190505b8281116107a8577f000000000000000000000000000000000000000000000000000000000000000073ffffffffffffffffffffffffffffffffffffffff166394bf804d87336040518363ffffffff1660e01b8152600401610763929190611c48565b600060405180830381600087803b15801561077d57600080fd5b505af1158015610791573d6000803e3d6000fd5b5050505080806107a090611c71565b915050610701565b505b6000600560003373ffffffffffffffffffffffffffffffffffffffff1673ffffffffffffffffffffffffffffffffffffffff1681526020019081526020016000206000878152602001908152602001600020819055507f000000000000000000000000000000000000000000000000000000000000000073ffffffffffffffffffffffffffffffffffffffff1663a9059cbb33836040518363ffffffff1660e01b815260040161085b929190611a65565b6020604051808303816000875af115801561087a573d6000803e3d6000fd5b505050506040513d601f19601f8201168201806040525081019061089e9190611a38565b50505050506108ab6111c8565b5050565b606060046000838152602001908152602001600020600301805480602002602001604051908101604052809291908181526020016000905b82821015610a3257838290600052602060002090600b0201604051806101600160405290816000820154815260200160018201805461092590611ce8565b80601f016020809104026020016040519081016040528092919081815260200182805461095190611ce8565b801561099e5780601f106109735761010080835404028352916020019161099e565b820191906000526020600020905b81548152906001019060200180831161098157829003601f168201915b50505050508152602001600282015481526020016003820154815260200160048201548152602001600582015481526020016006820160009054906101000a900460ff16151515158152602001600782015481526020016008820154815260200160098201548152602001600a820160009054906101000a900460ff161515151581525050815260200190600101906108e7565b505050509050919050565b610a45611013565b6000600460008a815260200190815260200160002090506000816000015403610aa3576040517f08c379a0000000000000000000000000000000000000000000000000000000008152600401610a9a90611d65565b60405180910390fd5b6000610aaf6003611091565b905060006040518061016001604052808381526020018b8152602001600081526020018a8152602001898152602001600081526020016000151581526020018881526020018781526020018681526020018515158152509050826003018190806001815401808255809150506001900390600052602060002090600b0201600090919091909150600082015181600001556020820151816001019081610b559190611f27565b5060408201518160020155606082015181600301556080820151816004015560a0820151816005015560c08201518160060160006101000a81548160ff02191690831515021790555060e082015181600701556101008201518160080155610120820151816009015561014082015181600a0160006101000a81548160ff0219169083151502179055505050826004016000815480929190610bf690611c71565b9190505550610c05600361109f565b5050505050505050505050565b6005602052816000526040600020602052806000526040600020600091509150505481565b7f000000000000000000000000000000000000000000000000000000000000000081565b7f000000000000000000000000000000000000000000000000000000000000000081565b610c87611013565b600073ffffffffffffffffffffffffffffffffffffffff168173ffffffffffffffffffffffffffffffffffffffff1603610cf6576040517f08c379a0000000000000000000000000000000000000000000000000000000008152600401610ced9061206b565b60405180910390fd5b610cff816110b5565b50565b610d0a611179565b60006004600085815260200190815260200160002090506000806000905060005b8360030180549050811015610fc25785846003018281548110610d5157610d506119bd565b5b90600052602060002090600b02016000015403610fb557836003018181548110610d7e57610d7d6119bd565b5b90600052602060002090600b020192508260060160009054906101000a900460ff1615610de0576040517f08c379a0000000000000000000000000000000000000000000000000000000008152600401610dd7906120fd565b60405180910390fd5b8260030154858460020154610df5919061211d565b1115610e36576040517f08c379a0000000000000000000000000000000000000000000000000000000008152600401610e2d9061219d565b60405180910390fd5b6000836004015486610e489190611ba6565b905085600560003373ffffffffffffffffffffffffffffffffffffffff1673ffffffffffffffffffffffffffffffffffffffff16815260200190815260200160002060008981526020019081526020016000206000828254610eaa919061211d565b9250508190555085846002016000828254610ec5919061211d565b925050819055507f000000000000000000000000000000000000000000000000000000000000000073ffffffffffffffffffffffffffffffffffffffff166323b872dd3330846040518463ffffffff1660e01b8152600401610f29939291906119ec565b6020604051808303816000875af1158015610f48573d6000803e3d6000fd5b505050506040513d601f19601f82011682018060405250810190610f6c9190611a38565b610fab576040517f08c379a0000000000000000000000000000000000000000000000000000000008152600401610fa290612209565b60405180910390fd5b6001925050610fc2565b8080600101915050610d2b565b5080611003576040517f08c379a0000000000000000000000000000000000000000000000000000000008152600401610ffa90612275565b60405180910390fd5b50505061100e6111c8565b505050565b61101b6111d1565b73ffffffffffffffffffffffffffffffffffffffff1661103961053c565b73ffffffffffffffffffffffffffffffffffffffff161461108f576040517f08c379a0000000000000000000000000000000000000000000000000000000008152600401611086906122e1565b60405180910390fd5b565b600081600001549050919050565b6001816000016000828254019250508190555050565b60008060009054906101000a900473ffffffffffffffffffffffffffffffffffffffff169050816000806101000a81548173ffffffffffffffffffffffffffffffffffffffff021916908373ffffffffffffffffffffffffffffffffffffffff1602179055508173ffffffffffffffffffffffffffffffffffffffff168173ffffffffffffffffffffffffffffffffffffffff167f8be0079c531659141344cd1fd0a4f28419497f9722a3daafe3b4186f6b6457e060405160405180910390a35050565b6002600154036111be576040517f08c379a00000000000000000000000000000000000000000000000000000000081526004016111b59061234d565b60405180910390fd5b6002600181905550565b60018081905550565b600033905090565b6000604051905090565b600080fd5b600080fd5b6000819050919050565b611200816111ed565b811461120b57600080fd5b50565b60008135905061121d816111f7565b92915050565b600060208284031215611239576112386111e3565b5b60006112478482850161120e565b91505092915050565b611259816111ed565b82525050565b60006080820190506112746000830187611250565b6112816020830186611250565b61128e6040830185611250565b61129b6060830184611250565b95945050505050565b6000806000606084860312156112bd576112bc6111e3565b5b60006112cb8682870161120e565b93505060206112dc8682870161120e565b92505060406112ed8682870161120e565b9150509250925092565b6000806040838503121561130e5761130d6111e3565b5b600061131c8582860161120e565b925050602061132d8582860161120e565b9150509250929050565b600073ffffffffffffffffffffffffffffffffffffffff82169050919050565b600061136282611337565b9050919050565b61137281611357565b82525050565b600060208201905061138d6000830184611369565b92915050565b600081519050919050565b600082825260208201905092915050565b6000819050602082019050919050565b6113c8816111ed565b82525050565b600081519050919050565b600082825260208201905092915050565b60005b838110156114085780820151818401526020810190506113ed565b60008484015250505050565b6000601f19601f8301169050919050565b6000611430826113ce565b61143a81856113d9565b935061144a8185602086016113ea565b61145381611414565b840191505092915050565b60008115159050919050565b6114738161145e565b82525050565b60006101608301600083015161149260008601826113bf565b50602083015184820360208601526114aa8282611425565b91505060408301516114bf60408601826113bf565b5060608301516114d260608601826113bf565b5060808301516114e560808601826113bf565b5060a08301516114f860a08601826113bf565b5060c083015161150b60c086018261146a565b5060e083015161151e60e08601826113bf565b506101008301516115336101008601826113bf565b506101208301516115486101208601826113bf565b5061014083015161155d61014086018261146a565b508091505092915050565b60006115748383611479565b905092915050565b6000602082019050919050565b600061159482611393565b61159e818561139e565b9350836020820285016115b0856113af565b8060005b858110156115ec57848403895281516115cd8582611568565b94506115d88361157c565b925060208a019950506001810190506115b4565b50829750879550505050505092915050565b600060208201905081810360008301526116188184611589565b905092915050565b600080fd5b600080fd5b7f4e487b7100000000000000000000000000000000000000000000000000000000600052604160045260246000fd5b61166282611414565b810181811067ffffffffffffffff821117156116815761168061162a565b5b80604052505050565b60006116946111d9565b90506116a08282611659565b919050565b600067ffffffffffffffff8211156116c0576116bf61162a565b5b6116c982611414565b9050602081019050919050565b82818337600083830152505050565b60006116f86116f3846116a5565b61168a565b90508281526020810184848401111561171457611713611625565b5b61171f8482856116d6565b509392505050565b600082601f83011261173c5761173b611620565b5b813561174c8482602086016116e5565b91505092915050565b61175e8161145e565b811461176957600080fd5b50565b60008135905061177b81611755565b92915050565b600080600080600080600080610100898b0312156117a2576117a16111e3565b5b60006117b08b828c0161120e565b985050602089013567ffffffffffffffff8111156117d1576117d06111e8565b5b6117dd8b828c01611727565b97505060406117ee8b828c0161120e565b96505060606117ff8b828c0161120e565b95505060806118108b828c0161120e565b94505060a06118218b828c0161120e565b93505060c06118328b828c0161120e565b92505060e06118438b828c0161176c565b9150509295985092959890939650565b61185c81611357565b811461186757600080fd5b50565b60008135905061187981611853565b92915050565b60008060408385031215611896576118956111e3565b5b60006118a48582860161186a565b92505060206118b58582860161120e565b9150509250929050565b60006020820190506118d46000830184611250565b92915050565b6000819050919050565b60006118ff6118fa6118f584611337565b6118da565b611337565b9050919050565b6000611911826118e4565b9050919050565b600061192382611906565b9050919050565b61193381611918565b82525050565b600060208201905061194e600083018461192a565b92915050565b600061195f82611906565b9050919050565b61196f81611954565b82525050565b600060208201905061198a6000830184611966565b92915050565b6000602082840312156119a6576119a56111e3565b5b60006119b48482850161186a565b91505092915050565b7f4e487b7100000000000000000000000000000000000000000000000000000000600052603260045260246000fd5b6000606082019050611a016000830186611369565b611a0e6020830185611369565b611a1b6040830184611250565b949350505050565b600081519050611a3281611755565b92915050565b600060208284031215611a4e57611a4d6111e3565b5b6000611a5c84828501611a23565b91505092915050565b6000604082019050611a7a6000830185611369565b611a876020830184611250565b9392505050565b600082825260208201905092915050565b7f70726f6475637420646f6573206e6f7420657869737400000000000000000000600082015250565b6000611ad5601683611a8e565b9150611ae082611a9f565b602082019050919050565b60006020820190508181036000830152611b0481611ac8565b9050919050565b7f6e6f20636f6e7472616374730000000000000000000000000000000000000000600082015250565b6000611b41600c83611a8e565b9150611b4c82611b0b565b602082019050919050565b60006020820190508181036000830152611b7081611b34565b9050919050565b7f4e487b7100000000000000000000000000000000000000000000000000000000600052601160045260246000fd5b6000611bb1826111ed565b9150611bbc836111ed565b9250828202611bca816111ed565b91508282048414831517611be157611be0611b77565b5b5092915050565b7f4e487b7100000000000000000000000000000000000000000000000000000000600052601260045260246000fd5b6000611c22826111ed565b9150611c2d836111ed565b925082611c3d57611c3c611be8565b5b828204905092915050565b6000604082019050611c5d6000830185611250565b611c6a6020830184611369565b9392505050565b6000611c7c826111ed565b91507fffffffffffffffffffffffffffffffffffffffffffffffffffffffffffffffff8203611cae57611cad611b77565b5b600182019050919050565b7f4e487b7100000000000000000000000000000000000000000000000000000000600052602260045260246000fd5b60006002820490506001821680611d0057607f821691505b602082108103611d1357611d12611cb9565b5b50919050565b7f67616d6520646f6573206e6f7420657869737400000000000000000000000000600082015250565b6000611d4f601383611a8e565b9150611d5a82611d19565b602082019050919050565b60006020820190508181036000830152611d7e81611d42565b9050919050565b60008190508160005260206000209050919050565b60006020601f8301049050919050565b600082821b905092915050565b600060088302611de77fffffffffffffffffffffffffffffffffffffffffffffffffffffffffffffffff82611daa565b611df18683611daa565b95508019841693508086168417925050509392505050565b6000611e24611e1f611e1a846111ed565b6118da565b6111ed565b9050919050565b6000819050919050565b611e3e83611e09565b611e52611e4a82611e2b565b848454611db7565b825550505050565b600090565b611e67611e5a565b611e72818484611e35565b505050565b5b81811015611e9657611e8b600082611e5f565b600181019050611e78565b5050565b601f821115611edb57611eac81611d85565b611eb584611d9a565b81016020851015611ec4578190505b611ed8611ed085611d9a565b830182611e77565b50505b505050565b600082821c905092915050565b6000611efe60001984600802611ee0565b1980831691505092915050565b6000611f178383611eed565b9150826002028217905092915050565b611f30826113ce565b67ffffffffffffffff811115611f4957611f4861162a565b5b611f538254611ce8565b611f5e828285611e9a565b600060209050601f831160018114611f915760008415611f7f578287015190505b611f898582611f0b565b865550611ff1565b601f198416611f9f86611d85565b60005b82811015611fc757848901518255600182019150602085019450602081019050611fa2565b86831015611fe45784890151611fe0601f891682611eed565b8355505b6001600288020188555050505b505050505050565b7f4f776e61626c653a206e6577206f776e657220697320746865207a65726f206160008201527f6464726573730000000000000000000000000000000000000000000000000000602082015250565b6000612055602683611a8e565b915061206082611ff9565b604082019050919050565b6000602082019050818103600083015261208481612048565b9050919050565b7f70726f6475637420616c7265616479206c6973746564206f6e206d65682e737460008201527f6f72650000000000000000000000000000000000000000000000000000000000602082015250565b60006120e7602383611a8e565b91506120f28261208b565b604082019050919050565b60006020820190508181036000830152612116816120da565b9050919050565b6000612128826111ed565b9150612133836111ed565b925082820190508082111561214b5761214a611b77565b5b92915050565b7f6e6f7420656e6f75676820636f6e74726163747320617661696c61626c650000600082015250565b6000612187601e83611a8e565b915061219282612151565b602082019050919050565b600060208201905081810360008301526121b68161217a565b9050919050565b7f6d6568206465706f736974206661696c65640000000000000000000000000000600082015250565b60006121f3601283611a8e565b91506121fe826121bd565b602082019050919050565b60006020820190508181036000830152612222816121e6565b9050919050565b7f70726f64756374206e6f7420666f756e64000000000000000000000000000000600082015250565b600061225f601183611a8e565b915061226a82612229565b602082019050919050565b6000602082019050818103600083015261228e81612252565b9050919050565b7f4f776e61626c653a2063616c6c6572206973206e6f7420746865206f776e6572600082015250565b60006122cb602083611a8e565b91506122d682612295565b602082019050919050565b600060208201905081810360008301526122fa816122be565b9050919050565b7f5265656e7472616e637947756172643a207265656e7472616e742063616c6c00600082015250565b6000612337601f83611a8e565b915061234282612301565b602082019050919050565b600060208201905081810360008301526123668161232a565b905091905056fea26469706673582212201c22c7c199dc3c4d283c540b6c1edb5ee9df7c4d76a7c7fe490b69b6e6a842ef64736f6c63430008180033",
  "linkReferences": {},
  "deployedLinkReferences": {}
}