{
  "_format": "hh-sol-artifact-1",
  "contractName": "MehVoteV1",
  "sourceName": "contracts/MehVoteV1.sol",
  "abi": [
    {
      "inputs": [
        {
          "internalType": "contract IERC20Burnable",
          "name": "_mehToken",
          "type": "address"
        }
      ],
      "stateMutability": "nonpayable",
      "type": "constructor"
    },
    {
      "anonymous": false,
      "inputs": [
        {
          "indexed": false,
          "internalType": "uint256",
          "name": "productId",
          "type": "uint256"
        },
        {
          "indexed": false,
          "internalType": "string",
          "name": "productName",
          "type": "string"
        },
        {
          "indexed": false,
          "internalType": "string",
          "name": "allocatorMerkleRoot",
          "type": "string"
        },
        {
          "indexed": false,
          "internalType": "uint256",
          "name": "royaltyBase",
          "type": "uint256"
        }
      ],
      "name": "MehStore",
      "type": "event"
    },
    {
      "anonymous": false,
      "inputs": [
        {
          "indexed": true,
          "internalType": "address",
          "name": "previousOwner",
          "type": "address"
        },
        {
          "indexed": true,
          "internalType": "address",
          "name": "newOwner",
          "type": "address"
        }
      ],
      "name": "OwnershipTransferred",
      "type": "event"
    },
    {
      "inputs": [
        {
          "internalType": "uint256",
          "name": "_gameId",
          "type": "uint256"
        },
        {
          "internalType": "string",
          "name": "_name",
          "type": "string"
        },
        {
          "internalType": "uint256",
          "name": "_mehNeeded",
          "type": "uint256"
        },
        {
          "internalType": "uint256",
          "name": "_begin",
          "type": "uint256"
        },
        {
          "internalType": "uint256",
          "name": "_end",
          "type": "uint256"
        },
        {
          "internalType": "uint256",
          "name": "_royaltyBase",
          "type": "uint256"
        }
      ],
      "name": "addProductToGame",
      "outputs": [],
      "stateMutability": "nonpayable",
      "type": "function"
    },
    {
      "inputs": [
        {
          "internalType": "uint256",
          "name": "_gameId",
          "type": "uint256"
        },
        {
          "internalType": "uint256",
          "name": "_productId",
          "type": "uint256"
        }
      ],
      "name": "burnLoserMeh",
      "outputs": [],
      "stateMutability": "nonpayable",
      "type": "function"
    },
    {
      "inputs": [
        {
          "internalType": "uint256",
          "name": "_gameId",
          "type": "uint256"
        },
        {
          "internalType": "uint256",
          "name": "_productId",
          "type": "uint256"
        }
      ],
      "name": "claim",
      "outputs": [],
      "stateMutability": "nonpayable",
      "type": "function"
    },
    {
      "inputs": [
        {
          "internalType": "uint256",
          "name": "_begin",
          "type": "uint256"
        },
        {
          "internalType": "uint256",
          "name": "_end",
          "type": "uint256"
        }
      ],
      "name": "createGame",
      "outputs": [],
      "stateMutability": "nonpayable",
      "type": "function"
    },
    {
      "inputs": [
        {
          "internalType": "uint256",
          "name": "_gameId",
          "type": "uint256"
        },
        {
          "internalType": "uint256",
          "name": "_productId",
          "type": "uint256"
        },
        {
          "internalType": "uint256",
          "name": "_amt",
          "type": "uint256"
        }
      ],
      "name": "depositMeh",
      "outputs": [],
      "stateMutability": "nonpayable",
      "type": "function"
    },
    {
      "inputs": [
        {
          "internalType": "uint256",
          "name": "_amount",
          "type": "uint256"
        }
      ],
      "name": "depositMehStore",
      "outputs": [],
      "stateMutability": "nonpayable",
      "type": "function"
    },
    {
      "inputs": [
        {
          "internalType": "uint256",
          "name": "_gameId",
          "type": "uint256"
        },
        {
          "internalType": "uint256",
          "name": "_productId",
          "type": "uint256"
        },
        {
          "internalType": "uint256",
          "name": "_amount",
          "type": "uint256"
        }
      ],
      "name": "depositPrizeMeh",
      "outputs": [],
      "stateMutability": "nonpayable",
      "type": "function"
    },
    {
      "inputs": [
        {
          "internalType": "address",
          "name": "",
          "type": "address"
        },
        {
          "internalType": "uint256",
          "name": "",
          "type": "uint256"
        }
      ],
      "name": "deposits",
      "outputs": [
        {
          "internalType": "uint256",
          "name": "",
          "type": "uint256"
        }
      ],
      "stateMutability": "view",
      "type": "function"
    },
    {
      "inputs": [
        {
          "internalType": "uint256",
          "name": "",
          "type": "uint256"
        }
      ],
      "name": "games",
      "outputs": [
        {
          "internalType": "uint256",
          "name": "id",
          "type": "uint256"
        },
        {
          "internalType": "uint256",
          "name": "begin",
          "type": "uint256"
        },
        {
          "internalType": "uint256",
          "name": "end",
          "type": "uint256"
        },
        {
          "internalType": "uint256",
          "name": "numProducts",
          "type": "uint256"
        }
      ],
      "stateMutability": "view",
      "type": "function"
    },
    {
      "inputs": [
        {
          "internalType": "uint256",
          "name": "gameId",
          "type": "uint256"
        }
      ],
      "name": "getProductsByGameId",
      "outputs": [
        {
          "components": [
            {
              "internalType": "uint256",
              "name": "id",
              "type": "uint256"
            },
            {
              "internalType": "string",
              "name": "name",
              "type": "string"
            },
            {
              "internalType": "uint256",
              "name": "mehDeposited",
              "type": "uint256"
            },
            {
              "internalType": "uint256",
              "name": "mehNeeded",
              "type": "uint256"
            },
            {
              "internalType": "uint256",
              "name": "prizeMeh",
              "type": "uint256"
            },
            {
              "internalType": "bool",
              "name": "mehStore",
              "type": "bool"
            },
            {
              "internalType": "uint256",
              "name": "begin",
              "type": "uint256"
            },
            {
              "internalType": "uint256",
              "name": "end",
              "type": "uint256"
            },
            {
              "internalType": "uint256",
              "name": "royaltyBase",
              "type": "uint256"
            }
          ],
          "internalType": "struct MehVoteV1.Product[]",
          "name": "",
          "type": "tuple[]"
        }
      ],
      "stateMutability": "view",
      "type": "function"
    },
    {
      "inputs": [],
      "name": "mehToken",
      "outputs": [
        {
          "internalType": "contract IERC20Burnable",
          "name": "",
          "type": "address"
        }
      ],
      "stateMutability": "view",
      "type": "function"
    },
    {
      "inputs": [],
      "name": "owner",
      "outputs": [
        {
          "internalType": "address",
          "name": "",
          "type": "address"
        }
      ],
      "stateMutability": "view",
      "type": "function"
    },
    {
      "inputs": [],
      "name": "renounceOwnership",
      "outputs": [],
      "stateMutability": "nonpayable",
      "type": "function"
    },
    {
      "inputs": [
        {
          "internalType": "address",
          "name": "newOwner",
          "type": "address"
        }
      ],
      "name": "transferOwnership",
      "outputs": [],
      "stateMutability": "nonpayable",
      "type": "function"
    }
  ],
  "bytecode": "0x60a06040523480156200001157600080fd5b50604051620026013803806200260183398181016040528101906200003791906200021d565b620000576200004b620000bd60201b60201c565b620000c560201b60201c565b600180819055508073ffffffffffffffffffffffffffffffffffffffff1660808173ffffffffffffffffffffffffffffffffffffffff1681525050620000a460026200018960201b60201c565b620000b660036200018960201b60201c565b506200024f565b600033905090565b60008060009054906101000a900473ffffffffffffffffffffffffffffffffffffffff169050816000806101000a81548173ffffffffffffffffffffffffffffffffffffffff021916908373ffffffffffffffffffffffffffffffffffffffff1602179055508173ffffffffffffffffffffffffffffffffffffffff168173ffffffffffffffffffffffffffffffffffffffff167f8be0079c531659141344cd1fd0a4f28419497f9722a3daafe3b4186f6b6457e060405160405180910390a35050565b6001816000016000828254019250508190555050565b600080fd5b600073ffffffffffffffffffffffffffffffffffffffff82169050919050565b6000620001d182620001a4565b9050919050565b6000620001e582620001c4565b9050919050565b620001f781620001d8565b81146200020357600080fd5b50565b6000815190506200021781620001ec565b92915050565b6000602082840312156200023657620002356200019f565b5b6000620002468482850162000206565b91505092915050565b6080516123736200028e6000396000818161051c01528181610638015281816108d901528181610bd001528181610c630152610e2101526123736000f3fe608060405234801561001057600080fd5b50600436106100ea5760003560e01c8063c34902631161008c578063da9b1bb711610066578063da9b1bb714610236578063e2c2c88414610252578063f2fde38b14610270578063f38bee181461028c576100ea565b8063c3490263146101ba578063c7b56842146101d6578063d6d6817714610206576100ea565b806360104cef116100c857806360104cef1461015a578063715018a61461017657806376f7b500146101805780638da5cb5b1461019c576100ea565b8063117a5b90146100ef5780632a194dfe1461012257806353f8c4831461013e575b600080fd5b6101096004803603810190610104919061120e565b6102a8565b604051610119949392919061124a565b60405180910390f35b61013c600480360381019061013791906113d5565b6102d8565b005b6101586004803603810190610153919061147e565b610471565b005b610174600480360381019061016f91906114d1565b6105c2565b005b61017e61061a565b005b61019a6004803603810190610195919061120e565b61062e565b005b6101a46106df565b6040516101b19190611552565b60405180910390f35b6101d460048036038101906101cf91906114d1565b610708565b005b6101f060048036038101906101eb919061120e565b610986565b6040516101fd919061179d565b60405180910390f35b610220600480360381019061021b91906117eb565b610aef565b60405161022d919061182b565b60405180910390f35b610250600480360381019061024b91906114d1565b610b14565b005b61025a610c61565b60405161026791906118a5565b60405180910390f35b61028a600480360381019061028591906118c0565b610c85565b005b6102a660048036038101906102a1919061147e565b610d08565b005b60046020528060005260406000206000915090508060000154908060010154908060020154908060040154905084565b6102e0610ffe565b6000600460008881526020019081526020016000209050600081600001540361033e576040517f08c379a00000000000000000000000000000000000000000000000000000000081526004016103359061194a565b60405180910390fd5b600061034a600361107c565b905060006040518061012001604052808381526020018981526020016000815260200188815260200160008152602001600015158152602001878152602001868152602001858152509050826003018190806001815401808255809150506001900390600052602060002090600902016000909190919091506000820151816000015560208201518160010190816103e29190611b6c565b5060408201518160020155606082015181600301556080820151816004015560a08201518160050160006101000a81548160ff02191690831515021790555060c0820151816006015560e082015181600701556101008201518160080155505082600401600081548092919061045790611c6d565b9190505550610466600361108a565b505050505050505050565b610479610ffe565b600060046000858152602001908152602001600020905060008160030184815481106104a8576104a7611cb5565b5b9060005260206000209060090201905060008160000154036104ff576040517f08c379a00000000000000000000000000000000000000000000000000000000081526004016104f690611d30565b60405180910390fd5b828160040160008282546105139190611d50565b925050819055507f000000000000000000000000000000000000000000000000000000000000000073ffffffffffffffffffffffffffffffffffffffff166323b872dd3330866040518463ffffffff1660e01b815260040161057793929190611d84565b6020604051808303816000875af1158015610596573d6000803e3d6000fd5b505050506040513d601f19601f820116820180604052508101906105ba9190611de7565b505050505050565b6105ca610ffe565b60006105d6600261107c565b90506000600460008381526020019081526020016000209050818160000181905550838160010181905550828160020181905550610614600261108a565b50505050565b610622610ffe565b61062c60006110a0565b565b610636610ffe565b7f000000000000000000000000000000000000000000000000000000000000000073ffffffffffffffffffffffffffffffffffffffff1663a9059cbb61067a6106df565b836040518363ffffffff1660e01b8152600401610698929190611e14565b6020604051808303816000875af11580156106b7573d6000803e3d6000fd5b505050506040513d601f19601f820116820180604052508101906106db9190611de7565b5050565b60008060009054906101000a900473ffffffffffffffffffffffffffffffffffffffff16905090565b610710611164565b60006004600084815260200190815260200160002090504281600201541061076d576040517f08c379a000000000000000000000000000000000000000000000000000000000815260040161076490611e89565b60405180910390fd5b80600301828154811061078357610782611cb5565b5b906000526020600020906009020160050160009054906101000a900460ff166107e1576040517f08c379a00000000000000000000000000000000000000000000000000000000081526004016107d890611ef5565b60405180910390fd5b6000600560003373ffffffffffffffffffffffffffffffffffffffff1673ffffffffffffffffffffffffffffffffffffffff1681526020019081526020016000206000848152602001908152602001600020549050600082600301848154811061084e5761084d611cb5565b5b90600052602060002090600902019050600081600201548260040154846108759190611f15565b61087f9190611f86565b90506000600560003373ffffffffffffffffffffffffffffffffffffffff1673ffffffffffffffffffffffffffffffffffffffff1681526020019081526020016000206000878152602001908152602001600020819055507f000000000000000000000000000000000000000000000000000000000000000073ffffffffffffffffffffffffffffffffffffffff1663a9059cbb33836040518363ffffffff1660e01b8152600401610932929190611e14565b6020604051808303816000875af1158015610951573d6000803e3d6000fd5b505050506040513d601f19601f820116820180604052508101906109759190611de7565b50505050506109826111b3565b5050565b606060046000838152602001908152602001600020600301805480602002602001604051908101604052809291908181526020016000905b82821015610ae4578382906000526020600020906009020160405180610120016040529081600082015481526020016001820180546109fc90611999565b80601f0160208091040260200160405190810160405280929190818152602001828054610a2890611999565b8015610a755780601f10610a4a57610100808354040283529160200191610a75565b820191906000526020600020905b815481529060010190602001808311610a5857829003601f168201915b505050505081526020016002820154815260200160038201548152602001600482015481526020016005820160009054906101000a900460ff161515151581526020016006820154815260200160078201548152602001600882015481525050815260200190600101906109be565b505050509050919050565b6005602052816000526040600020602052806000526040600020600091509150505481565b610b1c610ffe565b60006004600084815260200190815260200160002090506000816003018381548110610b4b57610b4a611cb5565b5b906000526020600020906009020190508060050160009054906101000a900460ff1615610bad576040517f08c379a0000000000000000000000000000000000000000000000000000000008152600401610ba490612003565b60405180910390fd5b600081600401548260020154610bc39190611d50565b90506000811115610c5a577f000000000000000000000000000000000000000000000000000000000000000073ffffffffffffffffffffffffffffffffffffffff166342966c68826040518263ffffffff1660e01b8152600401610c27919061182b565b600060405180830381600087803b158015610c4157600080fd5b505af1158015610c55573d6000803e3d6000fd5b505050505b5050505050565b7f000000000000000000000000000000000000000000000000000000000000000081565b610c8d610ffe565b600073ffffffffffffffffffffffffffffffffffffffff168173ffffffffffffffffffffffffffffffffffffffff1603610cfc576040517f08c379a0000000000000000000000000000000000000000000000000000000008152600401610cf390612095565b60405180910390fd5b610d05816110a0565b50565b610d10611164565b60006004600085815260200190815260200160002090506000816003018481548110610d3f57610d3e611cb5565b5b906000526020600020906009020190506000816000015403610d96576040517f08c379a0000000000000000000000000000000000000000000000000000000008152600401610d8d90611d30565b60405180910390fd5b8060050160009054906101000a900460ff1615610de8576040517f08c379a0000000000000000000000000000000000000000000000000000000008152600401610ddf90612101565b60405180910390fd5b60008390508160030154818360020154610e029190611d50565b1115610e1f5781600201548260030154610e1c9190612121565b90505b7f000000000000000000000000000000000000000000000000000000000000000073ffffffffffffffffffffffffffffffffffffffff166323b872dd3330846040518463ffffffff1660e01b8152600401610e7c93929190611d84565b6020604051808303816000875af1158015610e9b573d6000803e3d6000fd5b505050506040513d601f19601f82011682018060405250810190610ebf9190611de7565b5080826002016000828254610ed49190611d50565b925050819055508160030154826002015403610f875760018260050160006101000a81548160ff02191690831515021790555060006040518060400160405280600781526020017f6465662d3030310000000000000000000000000000000000000000000000000081525090507f48bdd33bb928f44a7b0b890963d9afe34abf223c0de29e0174cd429d9ac0c18a8684600101838660080154604051610f7d9493929190612212565b60405180910390a1505b80600560003373ffffffffffffffffffffffffffffffffffffffff1673ffffffffffffffffffffffffffffffffffffffff16815260200190815260200160002060008781526020019081526020016000206000828254610fe79190611d50565b92505081905550505050610ff96111b3565b505050565b6110066111bc565b73ffffffffffffffffffffffffffffffffffffffff166110246106df565b73ffffffffffffffffffffffffffffffffffffffff161461107a576040517f08c379a0000000000000000000000000000000000000000000000000000000008152600401611071906122b1565b60405180910390fd5b565b600081600001549050919050565b6001816000016000828254019250508190555050565b60008060009054906101000a900473ffffffffffffffffffffffffffffffffffffffff169050816000806101000a81548173ffffffffffffffffffffffffffffffffffffffff021916908373ffffffffffffffffffffffffffffffffffffffff1602179055508173ffffffffffffffffffffffffffffffffffffffff168173ffffffffffffffffffffffffffffffffffffffff167f8be0079c531659141344cd1fd0a4f28419497f9722a3daafe3b4186f6b6457e060405160405180910390a35050565b6002600154036111a9576040517f08c379a00000000000000000000000000000000000000000000000000000000081526004016111a09061231d565b60405180910390fd5b6002600181905550565b60018081905550565b600033905090565b6000604051905090565b600080fd5b600080fd5b6000819050919050565b6111eb816111d8565b81146111f657600080fd5b50565b600081359050611208816111e2565b92915050565b600060208284031215611224576112236111ce565b5b6000611232848285016111f9565b91505092915050565b611244816111d8565b82525050565b600060808201905061125f600083018761123b565b61126c602083018661123b565b611279604083018561123b565b611286606083018461123b565b95945050505050565b600080fd5b600080fd5b6000601f19601f8301169050919050565b7f4e487b7100000000000000000000000000000000000000000000000000000000600052604160045260246000fd5b6112e282611299565b810181811067ffffffffffffffff82111715611301576113006112aa565b5b80604052505050565b60006113146111c4565b905061132082826112d9565b919050565b600067ffffffffffffffff8211156113405761133f6112aa565b5b61134982611299565b9050602081019050919050565b82818337600083830152505050565b600061137861137384611325565b61130a565b90508281526020810184848401111561139457611393611294565b5b61139f848285611356565b509392505050565b600082601f8301126113bc576113bb61128f565b5b81356113cc848260208601611365565b91505092915050565b60008060008060008060c087890312156113f2576113f16111ce565b5b600061140089828a016111f9565b965050602087013567ffffffffffffffff811115611421576114206111d3565b5b61142d89828a016113a7565b955050604061143e89828a016111f9565b945050606061144f89828a016111f9565b935050608061146089828a016111f9565b92505060a061147189828a016111f9565b9150509295509295509295565b600080600060608486031215611497576114966111ce565b5b60006114a5868287016111f9565b93505060206114b6868287016111f9565b92505060406114c7868287016111f9565b9150509250925092565b600080604083850312156114e8576114e76111ce565b5b60006114f6858286016111f9565b9250506020611507858286016111f9565b9150509250929050565b600073ffffffffffffffffffffffffffffffffffffffff82169050919050565b600061153c82611511565b9050919050565b61154c81611531565b82525050565b60006020820190506115676000830184611543565b92915050565b600081519050919050565b600082825260208201905092915050565b6000819050602082019050919050565b6115a2816111d8565b82525050565b600081519050919050565b600082825260208201905092915050565b60005b838110156115e25780820151818401526020810190506115c7565b60008484015250505050565b60006115f9826115a8565b61160381856115b3565b93506116138185602086016115c4565b61161c81611299565b840191505092915050565b60008115159050919050565b61163c81611627565b82525050565b60006101208301600083015161165b6000860182611599565b506020830151848203602086015261167382826115ee565b91505060408301516116886040860182611599565b50606083015161169b6060860182611599565b5060808301516116ae6080860182611599565b5060a08301516116c160a0860182611633565b5060c08301516116d460c0860182611599565b5060e08301516116e760e0860182611599565b506101008301516116fc610100860182611599565b508091505092915050565b60006117138383611642565b905092915050565b6000602082019050919050565b60006117338261156d565b61173d8185611578565b93508360208202850161174f85611589565b8060005b8581101561178b578484038952815161176c8582611707565b94506117778361171b565b925060208a01995050600181019050611753565b50829750879550505050505092915050565b600060208201905081810360008301526117b78184611728565b905092915050565b6117c881611531565b81146117d357600080fd5b50565b6000813590506117e5816117bf565b92915050565b60008060408385031215611802576118016111ce565b5b6000611810858286016117d6565b9250506020611821858286016111f9565b9150509250929050565b6000602082019050611840600083018461123b565b92915050565b6000819050919050565b600061186b61186661186184611511565b611846565b611511565b9050919050565b600061187d82611850565b9050919050565b600061188f82611872565b9050919050565b61189f81611884565b82525050565b60006020820190506118ba6000830184611896565b92915050565b6000602082840312156118d6576118d56111ce565b5b60006118e4848285016117d6565b91505092915050565b600082825260208201905092915050565b7f67616d6520646f6573206e6f7420657869737400000000000000000000000000600082015250565b60006119346013836118ed565b915061193f826118fe565b602082019050919050565b6000602082019050818103600083015261196381611927565b9050919050565b7f4e487b7100000000000000000000000000000000000000000000000000000000600052602260045260246000fd5b600060028204905060018216806119b157607f821691505b6020821081036119c4576119c361196a565b5b50919050565b60008190508160005260206000209050919050565b60006020601f8301049050919050565b600082821b905092915050565b600060088302611a2c7fffffffffffffffffffffffffffffffffffffffffffffffffffffffffffffffff826119ef565b611a3686836119ef565b95508019841693508086168417925050509392505050565b6000611a69611a64611a5f846111d8565b611846565b6111d8565b9050919050565b6000819050919050565b611a8383611a4e565b611a97611a8f82611a70565b8484546119fc565b825550505050565b600090565b611aac611a9f565b611ab7818484611a7a565b505050565b5b81811015611adb57611ad0600082611aa4565b600181019050611abd565b5050565b601f821115611b2057611af1816119ca565b611afa846119df565b81016020851015611b09578190505b611b1d611b15856119df565b830182611abc565b50505b505050565b600082821c905092915050565b6000611b4360001984600802611b25565b1980831691505092915050565b6000611b5c8383611b32565b9150826002028217905092915050565b611b75826115a8565b67ffffffffffffffff811115611b8e57611b8d6112aa565b5b611b988254611999565b611ba3828285611adf565b600060209050601f831160018114611bd65760008415611bc4578287015190505b611bce8582611b50565b865550611c36565b601f198416611be4866119ca565b60005b82811015611c0c57848901518255600182019150602085019450602081019050611be7565b86831015611c295784890151611c25601f891682611b32565b8355505b6001600288020188555050505b505050505050565b7f4e487b7100000000000000000000000000000000000000000000000000000000600052601160045260246000fd5b6000611c78826111d8565b91507fffffffffffffffffffffffffffffffffffffffffffffffffffffffffffffffff8203611caa57611ca9611c3e565b5b600182019050919050565b7f4e487b7100000000000000000000000000000000000000000000000000000000600052603260045260246000fd5b7f70726f6475637420646f6573206e6f7420657869737400000000000000000000600082015250565b6000611d1a6016836118ed565b9150611d2582611ce4565b602082019050919050565b60006020820190508181036000830152611d4981611d0d565b9050919050565b6000611d5b826111d8565b9150611d66836111d8565b9250828201905080821115611d7e57611d7d611c3e565b5b92915050565b6000606082019050611d996000830186611543565b611da66020830185611543565b611db3604083018461123b565b949350505050565b611dc481611627565b8114611dcf57600080fd5b50565b600081519050611de181611dbb565b92915050565b600060208284031215611dfd57611dfc6111ce565b5b6000611e0b84828501611dd2565b91505092915050565b6000604082019050611e296000830185611543565b611e36602083018461123b565b9392505050565b7f67616d65206e6f7420656e646564000000000000000000000000000000000000600082015250565b6000611e73600e836118ed565b9150611e7e82611e3d565b602082019050919050565b60006020820190508181036000830152611ea281611e66565b9050919050565b7f70726f64756374206e6f7420696e2073746f7265000000000000000000000000600082015250565b6000611edf6014836118ed565b9150611eea82611ea9565b602082019050919050565b60006020820190508181036000830152611f0e81611ed2565b9050919050565b6000611f20826111d8565b9150611f2b836111d8565b9250828202611f39816111d8565b91508282048414831517611f5057611f4f611c3e565b5b5092915050565b7f4e487b7100000000000000000000000000000000000000000000000000000000600052601260045260246000fd5b6000611f91826111d8565b9150611f9c836111d8565b925082611fac57611fab611f57565b5b828204905092915050565b7f70726f6475637420696e2073746f726500000000000000000000000000000000600082015250565b6000611fed6010836118ed565b9150611ff882611fb7565b602082019050919050565b6000602082019050818103600083015261201c81611fe0565b9050919050565b7f4f776e61626c653a206e6577206f776e657220697320746865207a65726f206160008201527f6464726573730000000000000000000000000000000000000000000000000000602082015250565b600061207f6026836118ed565b915061208a82612023565b604082019050919050565b600060208201905081810360008301526120ae81612072565b9050919050565b7f70726f6475637420616c726561647920696e206d65682e73746f726500000000600082015250565b60006120eb601c836118ed565b91506120f6826120b5565b602082019050919050565b6000602082019050818103600083015261211a816120de565b9050919050565b600061212c826111d8565b9150612137836111d8565b925082820390508181111561214f5761214e611c3e565b5b92915050565b6000815461216281611999565b61216c81866118ed565b94506001821660008114612187576001811461219d576121d0565b60ff1983168652811515602002860193506121d0565b6121a6856119ca565b60005b838110156121c8578154818901526001820191506020810190506121a9565b808801955050505b50505092915050565b60006121e4826115a8565b6121ee81856118ed565b93506121fe8185602086016115c4565b61220781611299565b840191505092915050565b6000608082019050612227600083018761123b565b81810360208301526122398186612155565b9050818103604083015261224d81856121d9565b905061225c606083018461123b565b95945050505050565b7f4f776e61626c653a2063616c6c6572206973206e6f7420746865206f776e6572600082015250565b600061229b6020836118ed565b91506122a682612265565b602082019050919050565b600060208201905081810360008301526122ca8161228e565b9050919050565b7f5265656e7472616e637947756172643a207265656e7472616e742063616c6c00600082015250565b6000612307601f836118ed565b9150612312826122d1565b602082019050919050565b60006020820190508181036000830152612336816122fa565b905091905056fea2646970667358221220048c528d1ff916121e7cac799aa28547a5f5d1494871db9e1e75678e83dafc7864736f6c63430008180033",
  "linkReferences": {},
  "deployedLinkReferences": {}
}