{
  "_format": "hh-sol-artifact-1",
  "contractName": "MehCCIPReceiver",
  "sourceName": "contracts/MehCCIPReceiver.sol",
  "abi": [
    {
      "inputs": [
        {
          "internalType": "address",
          "name": "_router",
          "type": "address"
        },
        {
          "internalType": "address",
          "name": "_mehTokenAddress",
          "type": "address"
        }
      ],
      "stateMutability": "nonpayable",
      "type": "constructor"
    },
    {
      "inputs": [
        {
          "internalType": "address",
          "name": "router",
          "type": "address"
        }
      ],
      "name": "InvalidRouter",
      "type": "error"
    },
    {
      "anonymous": false,
      "inputs": [
        {
          "indexed": false,
          "internalType": "bytes32",
          "name": "messageId",
          "type": "bytes32"
        },
        {
          "indexed": false,
          "internalType": "address",
          "name": "sender",
          "type": "address"
        },
        {
          "indexed": false,
          "internalType": "uint256",
          "name": "linkBalance",
          "type": "uint256"
        }
      ],
      "name": "MessageReceived",
      "type": "event"
    },
    {
      "anonymous": false,
      "inputs": [
        {
          "indexed": true,
          "internalType": "address",
          "name": "previousOwner",
          "type": "address"
        },
        {
          "indexed": true,
          "internalType": "address",
          "name": "newOwner",
          "type": "address"
        }
      ],
      "name": "OwnershipTransferred",
      "type": "event"
    },
    {
      "inputs": [
        {
          "components": [
            {
              "internalType": "bytes32",
              "name": "messageId",
              "type": "bytes32"
            },
            {
              "internalType": "uint64",
              "name": "sourceChainSelector",
              "type": "uint64"
            },
            {
              "internalType": "bytes",
              "name": "sender",
              "type": "bytes"
            },
            {
              "internalType": "bytes",
              "name": "data",
              "type": "bytes"
            },
            {
              "components": [
                {
                  "internalType": "address",
                  "name": "token",
                  "type": "address"
                },
                {
                  "internalType": "uint256",
                  "name": "amount",
                  "type": "uint256"
                }
              ],
              "internalType": "struct Client.EVMTokenAmount[]",
              "name": "destTokenAmounts",
              "type": "tuple[]"
            }
          ],
          "internalType": "struct Client.Any2EVMMessage",
          "name": "message",
          "type": "tuple"
        }
      ],
      "name": "ccipReceive",
      "outputs": [],
      "stateMutability": "nonpayable",
      "type": "function"
    },
    {
      "inputs": [],
      "name": "getRouter",
      "outputs": [
        {
          "internalType": "address",
          "name": "",
          "type": "address"
        }
      ],
      "stateMutability": "view",
      "type": "function"
    },
    {
      "inputs": [],
      "name": "mehToken",
      "outputs": [
        {
          "internalType": "contract IERC20",
          "name": "",
          "type": "address"
        }
      ],
      "stateMutability": "view",
      "type": "function"
    },
    {
      "inputs": [],
      "name": "owner",
      "outputs": [
        {
          "internalType": "address",
          "name": "",
          "type": "address"
        }
      ],
      "stateMutability": "view",
      "type": "function"
    },
    {
      "inputs": [],
      "name": "renounceOwnership",
      "outputs": [],
      "stateMutability": "nonpayable",
      "type": "function"
    },
    {
      "inputs": [],
      "name": "router",
      "outputs": [
        {
          "internalType": "contract IRouterClient",
          "name": "",
          "type": "address"
        }
      ],
      "stateMutability": "view",
      "type": "function"
    },
    {
      "inputs": [
        {
          "internalType": "bytes4",
          "name": "interfaceId",
          "type": "bytes4"
        }
      ],
      "name": "supportsInterface",
      "outputs": [
        {
          "internalType": "bool",
          "name": "",
          "type": "bool"
        }
      ],
      "stateMutability": "pure",
      "type": "function"
    },
    {
      "inputs": [
        {
          "internalType": "address",
          "name": "newOwner",
          "type": "address"
        }
      ],
      "name": "transferOwnership",
      "outputs": [],
      "stateMutability": "nonpayable",
      "type": "function"
    },
    {
      "inputs": [],
      "name": "withdrawMeh",
      "outputs": [],
      "stateMutability": "nonpayable",
      "type": "function"
    }
  ],
  "bytecode": "0x60a06040523480156200001157600080fd5b50604051620015e8380380620015e88339818101604052810190620000379190620002c2565b81600073ffffffffffffffffffffffffffffffffffffffff168173ffffffffffffffffffffffffffffffffffffffff1603620000ad5760006040517fd7f73334000000000000000000000000000000000000000000000000000000008152600401620000a491906200031a565b60405180910390fd5b8073ffffffffffffffffffffffffffffffffffffffff1660808173ffffffffffffffffffffffffffffffffffffffff16815250505062000102620000f66200018c60201b60201c565b6200019460201b60201c565b81600260006101000a81548173ffffffffffffffffffffffffffffffffffffffff021916908373ffffffffffffffffffffffffffffffffffffffff16021790555080600160006101000a81548173ffffffffffffffffffffffffffffffffffffffff021916908373ffffffffffffffffffffffffffffffffffffffff160217905550505062000337565b600033905090565b60008060009054906101000a900473ffffffffffffffffffffffffffffffffffffffff169050816000806101000a81548173ffffffffffffffffffffffffffffffffffffffff021916908373ffffffffffffffffffffffffffffffffffffffff1602179055508173ffffffffffffffffffffffffffffffffffffffff168173ffffffffffffffffffffffffffffffffffffffff167f8be0079c531659141344cd1fd0a4f28419497f9722a3daafe3b4186f6b6457e060405160405180910390a35050565b600080fd5b600073ffffffffffffffffffffffffffffffffffffffff82169050919050565b60006200028a826200025d565b9050919050565b6200029c816200027d565b8114620002a857600080fd5b50565b600081519050620002bc8162000291565b92915050565b60008060408385031215620002dc57620002db62000258565b5b6000620002ec85828601620002ab565b9250506020620002ff85828601620002ab565b9150509250929050565b62000314816200027d565b82525050565b600060208201905062000331600083018462000309565b92915050565b60805161128e6200035a600039600081816102740152610344015261128e6000f3fe608060405234801561001057600080fd5b50600436106100935760003560e01c8063b0f479a111610066578063b0f479a11461010c578063e2c2c8841461012a578063f2fde38b14610148578063f887ea4014610164578063fd56b55a1461018257610093565b806301ffc9a714610098578063715018a6146100c857806385572ffb146100d25780638da5cb5b146100ee575b600080fd5b6100b260048036038101906100ad91906108a3565b61018c565b6040516100bf91906108eb565b60405180910390f35b6100d061025e565b005b6100ec60048036038101906100e7919061092a565b610272565b005b6100f6610317565b60405161010391906109b4565b60405180910390f35b610114610340565b60405161012191906109b4565b60405180910390f35b610132610368565b60405161013f9190610a2e565b60405180910390f35b610162600480360381019061015d9190610a75565b61038e565b005b61016c610411565b6040516101799190610ac3565b60405180910390f35b61018a610437565b005b60007f85572ffb000000000000000000000000000000000000000000000000000000007bffffffffffffffffffffffffffffffffffffffffffffffffffffffff1916827bffffffffffffffffffffffffffffffffffffffffffffffffffffffff1916148061025757507f01ffc9a7000000000000000000000000000000000000000000000000000000007bffffffffffffffffffffffffffffffffffffffffffffffffffffffff1916827bffffffffffffffffffffffffffffffffffffffffffffffffffffffff1916145b9050919050565b61026661058a565b6102706000610608565b565b7f000000000000000000000000000000000000000000000000000000000000000073ffffffffffffffffffffffffffffffffffffffff163373ffffffffffffffffffffffffffffffffffffffff161461030257336040517fd7f733340000000000000000000000000000000000000000000000000000000081526004016102f991906109b4565b60405180910390fd5b6103148161030f90610ed2565b6106cc565b50565b60008060009054906101000a900473ffffffffffffffffffffffffffffffffffffffff16905090565b60007f0000000000000000000000000000000000000000000000000000000000000000905090565b600160009054906101000a900473ffffffffffffffffffffffffffffffffffffffff1681565b61039661058a565b600073ffffffffffffffffffffffffffffffffffffffff168173ffffffffffffffffffffffffffffffffffffffff1603610405576040517f08c379a00000000000000000000000000000000000000000000000000000000081526004016103fc90610f68565b60405180910390fd5b61040e81610608565b50565b600260009054906101000a900473ffffffffffffffffffffffffffffffffffffffff1681565b61043f61058a565b6000600160009054906101000a900473ffffffffffffffffffffffffffffffffffffffff1673ffffffffffffffffffffffffffffffffffffffff166370a08231306040518263ffffffff1660e01b815260040161049c91906109b4565b602060405180830381865afa1580156104b9573d6000803e3d6000fd5b505050506040513d601f19601f820116820180604052508101906104dd9190610f9d565b9050600160009054906101000a900473ffffffffffffffffffffffffffffffffffffffff1673ffffffffffffffffffffffffffffffffffffffff1663a9059cbb610525610317565b836040518363ffffffff1660e01b8152600401610543929190610fd9565b6020604051808303816000875af1158015610562573d6000803e3d6000fd5b505050506040513d601f19601f82011682018060405250810190610586919061102e565b5050565b61059261082f565b73ffffffffffffffffffffffffffffffffffffffff166105b0610317565b73ffffffffffffffffffffffffffffffffffffffff1614610606576040517f08c379a00000000000000000000000000000000000000000000000000000000081526004016105fd906110a7565b60405180910390fd5b565b60008060009054906101000a900473ffffffffffffffffffffffffffffffffffffffff169050816000806101000a81548173ffffffffffffffffffffffffffffffffffffffff021916908373ffffffffffffffffffffffffffffffffffffffff1602179055508173ffffffffffffffffffffffffffffffffffffffff168173ffffffffffffffffffffffffffffffffffffffff167f8be0079c531659141344cd1fd0a4f28419497f9722a3daafe3b4186f6b6457e060405160405180910390a35050565b600081600001519050600082604001518060200190518101906106ef9190611105565b90506000836060015180602001905181019061070b9190611182565b90506000690a968163f0a57b4000009050670de0b6b3a7640000826020015110610748576969e10de76676d08000008161074591906111de565b90505b600160009054906101000a900473ffffffffffffffffffffffffffffffffffffffff1673ffffffffffffffffffffffffffffffffffffffff1663a9059cbb33836040518363ffffffff1660e01b81526004016107a5929190610fd9565b6020604051808303816000875af11580156107c4573d6000803e3d6000fd5b505050506040513d601f19601f820116820180604052508101906107e8919061102e565b507f4ad8286366216a121ffbecdd11163a134fc364cdf7cc99aae4cc3221d8d922698484846020015160405161082093929190611221565b60405180910390a15050505050565b600033905090565b6000604051905090565b600080fd5b600080fd5b60007fffffffff0000000000000000000000000000000000000000000000000000000082169050919050565b6108808161084b565b811461088b57600080fd5b50565b60008135905061089d81610877565b92915050565b6000602082840312156108b9576108b8610841565b5b60006108c78482850161088e565b91505092915050565b60008115159050919050565b6108e5816108d0565b82525050565b600060208201905061090060008301846108dc565b92915050565b600080fd5b600060a0828403121561092157610920610906565b5b81905092915050565b6000602082840312156109405761093f610841565b5b600082013567ffffffffffffffff81111561095e5761095d610846565b5b61096a8482850161090b565b91505092915050565b600073ffffffffffffffffffffffffffffffffffffffff82169050919050565b600061099e82610973565b9050919050565b6109ae81610993565b82525050565b60006020820190506109c960008301846109a5565b92915050565b6000819050919050565b60006109f46109ef6109ea84610973565b6109cf565b610973565b9050919050565b6000610a06826109d9565b9050919050565b6000610a18826109fb565b9050919050565b610a2881610a0d565b82525050565b6000602082019050610a436000830184610a1f565b92915050565b610a5281610993565b8114610a5d57600080fd5b50565b600081359050610a6f81610a49565b92915050565b600060208284031215610a8b57610a8a610841565b5b6000610a9984828501610a60565b91505092915050565b6000610aad826109fb565b9050919050565b610abd81610aa2565b82525050565b6000602082019050610ad86000830184610ab4565b92915050565b600080fd5b6000601f19601f8301169050919050565b7f4e487b7100000000000000000000000000000000000000000000000000000000600052604160045260246000fd5b610b2c82610ae3565b810181811067ffffffffffffffff82111715610b4b57610b4a610af4565b5b80604052505050565b6000610b5e610837565b9050610b6a8282610b23565b919050565b600080fd5b6000819050919050565b610b8781610b74565b8114610b9257600080fd5b50565b600081359050610ba481610b7e565b92915050565b600067ffffffffffffffff82169050919050565b610bc781610baa565b8114610bd257600080fd5b50565b600081359050610be481610bbe565b92915050565b600080fd5b600080fd5b600067ffffffffffffffff821115610c0f57610c0e610af4565b5b610c1882610ae3565b9050602081019050919050565b82818337600083830152505050565b6000610c47610c4284610bf4565b610b54565b905082815260208101848484011115610c6357610c62610bef565b5b610c6e848285610c25565b509392505050565b600082601f830112610c8b57610c8a610bea565b5b8135610c9b848260208601610c34565b91505092915050565b600067ffffffffffffffff821115610cbf57610cbe610af4565b5b602082029050602081019050919050565b600080fd5b6000819050919050565b610ce881610cd5565b8114610cf357600080fd5b50565b600081359050610d0581610cdf565b92915050565b600060408284031215610d2157610d20610ade565b5b610d2b6040610b54565b90506000610d3b84828501610a60565b6000830152506020610d4f84828501610cf6565b60208301525092915050565b6000610d6e610d6984610ca4565b610b54565b90508083825260208201905060408402830185811115610d9157610d90610cd0565b5b835b81811015610dba5780610da68882610d0b565b845260208401935050604081019050610d93565b5050509392505050565b600082601f830112610dd957610dd8610bea565b5b8135610de9848260208601610d5b565b91505092915050565b600060a08284031215610e0857610e07610ade565b5b610e1260a0610b54565b90506000610e2284828501610b95565b6000830152506020610e3684828501610bd5565b602083015250604082013567ffffffffffffffff811115610e5a57610e59610b6f565b5b610e6684828501610c76565b604083015250606082013567ffffffffffffffff811115610e8a57610e89610b6f565b5b610e9684828501610c76565b606083015250608082013567ffffffffffffffff811115610eba57610eb9610b6f565b5b610ec684828501610dc4565b60808301525092915050565b6000610ede3683610df2565b9050919050565b600082825260208201905092915050565b7f4f776e61626c653a206e6577206f776e657220697320746865207a65726f206160008201527f6464726573730000000000000000000000000000000000000000000000000000602082015250565b6000610f52602683610ee5565b9150610f5d82610ef6565b604082019050919050565b60006020820190508181036000830152610f8181610f45565b9050919050565b600081519050610f9781610cdf565b92915050565b600060208284031215610fb357610fb2610841565b5b6000610fc184828501610f88565b91505092915050565b610fd381610cd5565b82525050565b6000604082019050610fee60008301856109a5565b610ffb6020830184610fca565b9392505050565b61100b816108d0565b811461101657600080fd5b50565b60008151905061102881611002565b92915050565b60006020828403121561104457611043610841565b5b600061105284828501611019565b91505092915050565b7f4f776e61626c653a2063616c6c6572206973206e6f7420746865206f776e6572600082015250565b6000611091602083610ee5565b915061109c8261105b565b602082019050919050565b600060208201905081810360008301526110c081611084565b9050919050565b60006110d282610973565b9050919050565b6110e2816110c7565b81146110ed57600080fd5b50565b6000815190506110ff816110d9565b92915050565b60006020828403121561111b5761111a610841565b5b6000611129848285016110f0565b91505092915050565b60006040828403121561114857611147610ade565b5b6111526040610b54565b9050600061116284828501610f88565b600083015250602061117684828501610f88565b60208301525092915050565b60006040828403121561119857611197610841565b5b60006111a684828501611132565b91505092915050565b7f4e487b7100000000000000000000000000000000000000000000000000000000600052601160045260246000fd5b60006111e982610cd5565b91506111f483610cd5565b925082820190508082111561120c5761120b6111af565b5b92915050565b61121b81610b74565b82525050565b60006060820190506112366000830186611212565b61124360208301856109a5565b6112506040830184610fca565b94935050505056fea2646970667358221220eded710b31cef009a86e0d67c67db4cab1b039baaa321f2300453dbf6d30456264736f6c63430008180033",
  "linkReferences": {},
  "deployedLinkReferences": {}
}