{"contracts/MehVoteV1.sol":{"MehVoteV1":{"abi":[{"inputs":[{"internalType":"contract IERC20Burnable","name":"_mehToken","type":"address"}],"stateMutability":"nonpayable","type":"constructor"},{"anonymous":false,"inputs":[{"indexed":false,"internalType":"uint256","name":"productId","type":"uint256"},{"indexed":false,"internalType":"string","name":"productName","type":"string"},{"indexed":false,"internalType":"string","name":"allocatorMerkleRoot","type":"string"},{"indexed":false,"internalType":"uint256","name":"royaltyBase","type":"uint256"}],"name":"MehStore","type":"event"},{"anonymous":false,"inputs":[{"indexed":true,"internalType":"address","name":"previousOwner","type":"address"},{"indexed":true,"internalType":"address","name":"newOwner","type":"address"}],"name":"OwnershipTransferred","type":"event"},{"inputs":[{"internalType":"uint256","name":"_gameId","type":"uint256"},{"internalType":"string","name":"_name","type":"string"},{"internalType":"uint256","name":"_mehContractPrice","type":"uint256"},{"internalType":"uint256","name":"_mehContracts","type":"uint256"},{"internalType":"uint256","name":"_begin","type":"uint256"},{"internalType":"uint256","name":"_end","type":"uint256"},{"internalType":"uint256","name":"_royaltyBase","type":"uint256"}],"name":"addProductToGame","outputs":[],"stateMutability":"nonpayable","type":"function"},{"inputs":[{"internalType":"uint256","name":"_gameId","type":"uint256"},{"internalType":"uint256","name":"_productId","type":"uint256"}],"name":"burnLoserPrizeMeh","outputs":[],"stateMutability":"nonpayable","type":"function"},{"inputs":[{"internalType":"uint256","name":"_gameId","type":"uint256"},{"internalType":"uint256","name":"_productId","type":"uint256"}],"name":"claim","outputs":[],"stateMutability":"nonpayable","type":"function"},{"inputs":[{"internalType":"uint256","name":"_begin","type":"uint256"},{"internalType":"uint256","name":"_end","type":"uint256"}],"name":"createGame","outputs":[],"stateMutability":"nonpayable","type":"function"},{"inputs":[{"internalType":"uint256","name":"_gameId","type":"uint256"},{"internalType":"uint256","name":"_productId","type":"uint256"},{"internalType":"uint256","name":"_numContracts","type":"uint256"}],"name":"depositMeh","outputs":[],"stateMutability":"nonpayable","type":"function"},{"inputs":[{"internalType":"uint256","name":"_amount","type":"uint256"}],"name":"depositMehStore","outputs":[],"stateMutability":"nonpayable","type":"function"},{"inputs":[{"internalType":"uint256","name":"_gameId","type":"uint256"},{"internalType":"uint256","name":"_productId","type":"uint256"},{"internalType":"uint256","name":"_amount","type":"uint256"}],"name":"depositPrizeMeh","outputs":[],"stateMutability":"nonpayable","type":"function"},{"inputs":[{"internalType":"address","name":"","type":"address"},{"internalType":"uint256","name":"","type":"uint256"}],"name":"deposits","outputs":[{"internalType":"uint256","name":"","type":"uint256"}],"stateMutability":"view","type":"function"},{"inputs":[{"internalType":"uint256","name":"","type":"uint256"}],"name":"games","outputs":[{"internalType":"uint256","name":"id","type":"uint256"},{"internalType":"uint256","name":"begin","type":"uint256"},{"internalType":"uint256","name":"end","type":"uint256"},{"internalType":"uint256","name":"numProducts","type":"uint256"}],"stateMutability":"view","type":"function"},{"inputs":[{"internalType":"uint256","name":"gameId","type":"uint256"}],"name":"getProductsByGameId","outputs":[{"components":[{"internalType":"uint256","name":"id","type":"uint256"},{"internalType":"string","name":"name","type":"string"},{"internalType":"uint256","name":"mehContractsDeposited","type":"uint256"},{"internalType":"uint256","name":"mehContracts","type":"uint256"},{"internalType":"uint256","name":"mehContractPrice","type":"uint256"},{"internalType":"uint256","name":"prizeMeh","type":"uint256"},{"internalType":"bool","name":"mehStore","type":"bool"},{"internalType":"uint256","name":"begin","type":"uint256"},{"internalType":"uint256","name":"end","type":"uint256"},{"internalType":"uint256","name":"royaltyBase","type":"uint256"}],"internalType":"struct MehVoteV1.Product[]","name":"","type":"tuple[]"}],"stateMutability":"view","type":"function"},{"inputs":[],"name":"mehToken","outputs":[{"internalType":"contract IERC20Burnable","name":"","type":"address"}],"stateMutability":"view","type":"function"},{"inputs":[],"name":"owner","outputs":[{"internalType":"address","name":"","type":"address"}],"stateMutability":"view","type":"function"},{"inputs":[],"name":"renounceOwnership","outputs":[],"stateMutability":"nonpayable","type":"function"},{"inputs":[{"internalType":"address","name":"newOwner","type":"address"}],"name":"transferOwnership","outputs":[],"stateMutability":"nonpayable","type":"function"}],"evm":{"bytecode":{"linkReferences":{},"object":"60a06040523480156200001157600080fd5b50604051620027503803806200275083398181016040528101906200003791906200021d565b620000576200004b620000bd60201b60201c565b620000c560201b60201c565b600180819055508073ffffffffffffffffffffffffffffffffffffffff1660808173ffffffffffffffffffffffffffffffffffffffff1681525050620000a460026200018960201b60201c565b620000b660036200018960201b60201c565b506200024f565b600033905090565b60008060009054906101000a900473ffffffffffffffffffffffffffffffffffffffff169050816000806101000a81548173ffffffffffffffffffffffffffffffffffffffff021916908373ffffffffffffffffffffffffffffffffffffffff1602179055508173ffffffffffffffffffffffffffffffffffffffff168173ffffffffffffffffffffffffffffffffffffffff167f8be0079c531659141344cd1fd0a4f28419497f9722a3daafe3b4186f6b6457e060405160405180910390a35050565b6001816000016000828254019250508190555050565b600080fd5b600073ffffffffffffffffffffffffffffffffffffffff82169050919050565b6000620001d182620001a4565b9050919050565b6000620001e582620001c4565b9050919050565b620001f781620001d8565b81146200020357600080fd5b50565b6000815190506200021781620001ec565b92915050565b6000602082840312156200023657620002356200019f565b5b6000620002468482850162000206565b91505092915050565b6080516124c26200028e6000396000818161052e0152818161064a0152818161079901528181610a6a01528181610cb10152610ea201526124c26000f3fe608060405234801561001057600080fd5b50600436106100ea5760003560e01c80638da5cb5b1161008c578063d6d6817711610066578063d6d6817714610222578063e2c2c88414610252578063f2fde38b14610270578063f38bee181461028c576100ea565b80638da5cb5b146101b8578063c3490263146101d6578063c7b56842146101f2576100ea565b806360104cef116100c857806360104cef1461015a578063715018a61461017657806376f7b500146101805780638c5b883d1461019c576100ea565b8063117a5b90146100ef5780632849625d1461012257806353f8c4831461013e575b600080fd5b6101096004803603810190610104919061128f565b6102a8565b60405161011994939291906112cb565b60405180910390f35b61013c60048036038101906101379190611456565b6102d8565b005b61015860048036038101906101539190611514565b610483565b005b610174600480360381019061016f9190611567565b6105d4565b005b61017e61062c565b005b61019a6004803603810190610195919061128f565b610640565b005b6101b660048036038101906101b19190611567565b6106f1565b005b6101c061082d565b6040516101cd91906115e8565b60405180910390f35b6101f060048036038101906101eb9190611567565b610856565b005b61020c6004803603810190610207919061128f565b610b17565b6040516102199190611848565b60405180910390f35b61023c60048036038101906102379190611896565b610c8a565b60405161024991906118d6565b60405180910390f35b61025a610caf565b6040516102679190611950565b60405180910390f35b61028a6004803603810190610285919061196b565b610cd3565b005b6102a660048036038101906102a19190611514565b610d56565b005b60046020528060005260406000206000915090508060000154908060010154908060020154908060040154905084565b6102e061107f565b6000600460008981526020019081526020016000209050600081600001540361033e576040517f08c379a0000000000000000000000000000000000000000000000000000000008152600401610335906119f5565b60405180910390fd5b600061034a60036110fd565b905060006040518061014001604052808381526020018a81526020016000815260200188815260200189815260200160008152602001600015158152602001878152602001868152602001858152509050826003018190806001815401808255809150506001900390600052602060002090600a02016000909190919091506000820151816000015560208201518160010190816103e89190611c17565b5060408201518160020155606082015181600301556080820151816004015560a0820151816005015560c08201518160060160006101000a81548160ff02191690831515021790555060e0820151816007015561010082015181600801556101208201518160090155505082600401600081548092919061046890611d18565b9190505550610477600361110b565b50505050505050505050565b61048b61107f565b600060046000858152602001908152602001600020905060008160030184815481106104ba576104b9611d60565b5b90600052602060002090600a020190506000816000015403610511576040517f08c379a000000000000000000000000000000000000000000000000000000000815260040161050890611ddb565b60405180910390fd5b828160050160008282546105259190611dfb565b925050819055507f000000000000000000000000000000000000000000000000000000000000000073ffffffffffffffffffffffffffffffffffffffff166323b872dd3330866040518463ffffffff1660e01b815260040161058993929190611e2f565b6020604051808303816000875af11580156105a8573d6000803e3d6000fd5b505050506040513d601f19601f820116820180604052508101906105cc9190611e92565b505050505050565b6105dc61107f565b60006105e860026110fd565b90506000600460008381526020019081526020016000209050818160000181905550838160010181905550828160020181905550610626600261110b565b50505050565b61063461107f565b61063e6000611121565b565b61064861107f565b7f000000000000000000000000000000000000000000000000000000000000000073ffffffffffffffffffffffffffffffffffffffff1663a9059cbb61068c61082d565b836040518363ffffffff1660e01b81526004016106aa929190611ebf565b6020604051808303816000875af11580156106c9573d6000803e3d6000fd5b505050506040513d601f19601f820116820180604052508101906106ed9190611e92565b5050565b6106f961107f565b6000600460008481526020019081526020016000209050600081600301838154811061072857610727611d60565b5b90600052602060002090600a020190508060060160009054906101000a900460ff161561078a576040517f08c379a000000000000000000000000000000000000000000000000000000000815260040161078190611f34565b60405180910390fd5b600081600501541115610827577f000000000000000000000000000000000000000000000000000000000000000073ffffffffffffffffffffffffffffffffffffffff166342966c6882600501546040518263ffffffff1660e01b81526004016107f491906118d6565b600060405180830381600087803b15801561080e57600080fd5b505af1158015610822573d6000803e3d6000fd5b505050505b50505050565b60008060009054906101000a900473ffffffffffffffffffffffffffffffffffffffff16905090565b61085e6111e5565b6000600460008481526020019081526020016000209050428160020154106108bb576040517f08c379a00000000000000000000000000000000000000000000000000000000081526004016108b290611fa0565b60405180910390fd5b8060030182815481106108d1576108d0611d60565b5b90600052602060002090600a020160060160009054906101000a900460ff1661092f576040517f08c379a00000000000000000000000000000000000000000000000000000000081526004016109269061200c565b60405180910390fd5b6000600560003373ffffffffffffffffffffffffffffffffffffffff1673ffffffffffffffffffffffffffffffffffffffff1681526020019081526020016000206000848152602001908152602001600020549050600081116109c7576040517f08c379a00000000000000000000000000000000000000000000000000000000081526004016109be90612078565b60405180910390fd5b60008260030184815481106109df576109de611d60565b5b90600052602060002090600a020190506000816003015483610a0191906120c7565b8260050154610a1091906120f8565b90506000600560003373ffffffffffffffffffffffffffffffffffffffff1673ffffffffffffffffffffffffffffffffffffffff1681526020019081526020016000206000878152602001908152602001600020819055507f000000000000000000000000000000000000000000000000000000000000000073ffffffffffffffffffffffffffffffffffffffff1663a9059cbb33836040518363ffffffff1660e01b8152600401610ac3929190611ebf565b6020604051808303816000875af1158015610ae2573d6000803e3d6000fd5b505050506040513d601f19601f82011682018060405250810190610b069190611e92565b5050505050610b13611234565b5050565b606060046000838152602001908152602001600020600301805480602002602001604051908101604052809291908181526020016000905b82821015610c7f57838290600052602060002090600a02016040518061014001604052908160008201548152602001600182018054610b8d90611a44565b80601f0160208091040260200160405190810160405280929190818152602001828054610bb990611a44565b8015610c065780601f10610bdb57610100808354040283529160200191610c06565b820191906000526020600020905b815481529060010190602001808311610be957829003601f168201915b50505050508152602001600282015481526020016003820154815260200160048201548152602001600582015481526020016006820160009054906101000a900460ff16151515158152602001600782015481526020016008820154815260200160098201548152505081526020019060010190610b4f565b505050509050919050565b6005602052816000526040600020602052806000526040600020600091509150505481565b7f000000000000000000000000000000000000000000000000000000000000000081565b610cdb61107f565b600073ffffffffffffffffffffffffffffffffffffffff168173ffffffffffffffffffffffffffffffffffffffff1603610d4a576040517f08c379a0000000000000000000000000000000000000000000000000000000008152600401610d41906121ac565b60405180910390fd5b610d5381611121565b50565b610d5e6111e5565b60006004600085815260200190815260200160002090506000816003018481548110610d8d57610d8c611d60565b5b90600052602060002090600a020190506000816000015403610de4576040517f08c379a0000000000000000000000000000000000000000000000000000000008152600401610ddb90611ddb565b60405180910390fd5b8060060160009054906101000a900460ff1615610e36576040517f08c379a0000000000000000000000000000000000000000000000000000000008152600401610e2d90612218565b60405180910390fd5b8060030154838260020154610e4b9190611dfb565b1115610e8c576040517f08c379a0000000000000000000000000000000000000000000000000000000008152600401610e8390612284565b60405180910390fd5b6000816004015484610e9e91906120f8565b90507f000000000000000000000000000000000000000000000000000000000000000073ffffffffffffffffffffffffffffffffffffffff166323b872dd3330846040518463ffffffff1660e01b8152600401610efd93929190611e2f565b6020604051808303816000875af1158015610f1c573d6000803e3d6000fd5b505050506040513d601f19601f82011682018060405250810190610f409190611e92565b5083600560003373ffffffffffffffffffffffffffffffffffffffff1673ffffffffffffffffffffffffffffffffffffffff16815260200190815260200160002060008781526020019081526020016000206000828254610fa19190611dfb565b9250508190555083826002016000828254610fbc9190611dfb565b92505081905550816003015482600201540361106f5760018260060160006101000a81548160ff02191690831515021790555060006040518060400160405280600781526020017f6465662d3030310000000000000000000000000000000000000000000000000081525090507f48bdd33bb928f44a7b0b890963d9afe34abf223c0de29e0174cd429d9ac0c18a86846001018386600901546040516110659493929190612361565b60405180910390a1505b50505061107a611234565b505050565b61108761123d565b73ffffffffffffffffffffffffffffffffffffffff166110a561082d565b73ffffffffffffffffffffffffffffffffffffffff16146110fb576040517f08c379a00000000000000000000000000000000000000000000000000000000081526004016110f290612400565b60405180910390fd5b565b600081600001549050919050565b6001816000016000828254019250508190555050565b60008060009054906101000a900473ffffffffffffffffffffffffffffffffffffffff169050816000806101000a81548173ffffffffffffffffffffffffffffffffffffffff021916908373ffffffffffffffffffffffffffffffffffffffff1602179055508173ffffffffffffffffffffffffffffffffffffffff168173ffffffffffffffffffffffffffffffffffffffff167f8be0079c531659141344cd1fd0a4f28419497f9722a3daafe3b4186f6b6457e060405160405180910390a35050565b60026001540361122a576040517f08c379a00000000000000000000000000000000000000000000000000000000081526004016112219061246c565b60405180910390fd5b6002600181905550565b60018081905550565b600033905090565b6000604051905090565b600080fd5b600080fd5b6000819050919050565b61126c81611259565b811461127757600080fd5b50565b60008135905061128981611263565b92915050565b6000602082840312156112a5576112a461124f565b5b60006112b38482850161127a565b91505092915050565b6112c581611259565b82525050565b60006080820190506112e060008301876112bc565b6112ed60208301866112bc565b6112fa60408301856112bc565b61130760608301846112bc565b95945050505050565b600080fd5b600080fd5b6000601f19601f8301169050919050565b7f4e487b7100000000000000000000000000000000000000000000000000000000600052604160045260246000fd5b6113638261131a565b810181811067ffffffffffffffff821117156113825761138161132b565b5b80604052505050565b6000611395611245565b90506113a1828261135a565b919050565b600067ffffffffffffffff8211156113c1576113c061132b565b5b6113ca8261131a565b9050602081019050919050565b82818337600083830152505050565b60006113f96113f4846113a6565b61138b565b90508281526020810184848401111561141557611414611315565b5b6114208482856113d7565b509392505050565b600082601f83011261143d5761143c611310565b5b813561144d8482602086016113e6565b91505092915050565b600080600080600080600060e0888a0312156114755761147461124f565b5b60006114838a828b0161127a565b975050602088013567ffffffffffffffff8111156114a4576114a3611254565b5b6114b08a828b01611428565b96505060406114c18a828b0161127a565b95505060606114d28a828b0161127a565b94505060806114e38a828b0161127a565b93505060a06114f48a828b0161127a565b92505060c06115058a828b0161127a565b91505092959891949750929550565b60008060006060848603121561152d5761152c61124f565b5b600061153b8682870161127a565b935050602061154c8682870161127a565b925050604061155d8682870161127a565b9150509250925092565b6000806040838503121561157e5761157d61124f565b5b600061158c8582860161127a565b925050602061159d8582860161127a565b9150509250929050565b600073ffffffffffffffffffffffffffffffffffffffff82169050919050565b60006115d2826115a7565b9050919050565b6115e2816115c7565b82525050565b60006020820190506115fd60008301846115d9565b92915050565b600081519050919050565b600082825260208201905092915050565b6000819050602082019050919050565b61163881611259565b82525050565b600081519050919050565b600082825260208201905092915050565b60005b8381101561167857808201518184015260208101905061165d565b60008484015250505050565b600061168f8261163e565b6116998185611649565b93506116a981856020860161165a565b6116b28161131a565b840191505092915050565b60008115159050919050565b6116d2816116bd565b82525050565b6000610140830160008301516116f1600086018261162f565b50602083015184820360208601526117098282611684565b915050604083015161171e604086018261162f565b506060830151611731606086018261162f565b506080830151611744608086018261162f565b5060a083015161175760a086018261162f565b5060c083015161176a60c08601826116c9565b5060e083015161177d60e086018261162f565b5061010083015161179261010086018261162f565b506101208301516117a761012086018261162f565b508091505092915050565b60006117be83836116d8565b905092915050565b6000602082019050919050565b60006117de82611603565b6117e8818561160e565b9350836020820285016117fa8561161f565b8060005b85811015611836578484038952815161181785826117b2565b9450611822836117c6565b925060208a019950506001810190506117fe565b50829750879550505050505092915050565b6000602082019050818103600083015261186281846117d3565b905092915050565b611873816115c7565b811461187e57600080fd5b50565b6000813590506118908161186a565b92915050565b600080604083850312156118ad576118ac61124f565b5b60006118bb85828601611881565b92505060206118cc8582860161127a565b9150509250929050565b60006020820190506118eb60008301846112bc565b92915050565b6000819050919050565b600061191661191161190c846115a7565b6118f1565b6115a7565b9050919050565b6000611928826118fb565b9050919050565b600061193a8261191d565b9050919050565b61194a8161192f565b82525050565b60006020820190506119656000830184611941565b92915050565b6000602082840312156119815761198061124f565b5b600061198f84828501611881565b91505092915050565b600082825260208201905092915050565b7f67616d6520646f6573206e6f7420657869737400000000000000000000000000600082015250565b60006119df601383611998565b91506119ea826119a9565b602082019050919050565b60006020820190508181036000830152611a0e816119d2565b9050919050565b7f4e487b7100000000000000000000000000000000000000000000000000000000600052602260045260246000fd5b60006002820490506001821680611a5c57607f821691505b602082108103611a6f57611a6e611a15565b5b50919050565b60008190508160005260206000209050919050565b60006020601f8301049050919050565b600082821b905092915050565b600060088302611ad77fffffffffffffffffffffffffffffffffffffffffffffffffffffffffffffffff82611a9a565b611ae18683611a9a565b95508019841693508086168417925050509392505050565b6000611b14611b0f611b0a84611259565b6118f1565b611259565b9050919050565b6000819050919050565b611b2e83611af9565b611b42611b3a82611b1b565b848454611aa7565b825550505050565b600090565b611b57611b4a565b611b62818484611b25565b505050565b5b81811015611b8657611b7b600082611b4f565b600181019050611b68565b5050565b601f821115611bcb57611b9c81611a75565b611ba584611a8a565b81016020851015611bb4578190505b611bc8611bc085611a8a565b830182611b67565b50505b505050565b600082821c905092915050565b6000611bee60001984600802611bd0565b1980831691505092915050565b6000611c078383611bdd565b9150826002028217905092915050565b611c208261163e565b67ffffffffffffffff811115611c3957611c3861132b565b5b611c438254611a44565b611c4e828285611b8a565b600060209050601f831160018114611c815760008415611c6f578287015190505b611c798582611bfb565b865550611ce1565b601f198416611c8f86611a75565b60005b82811015611cb757848901518255600182019150602085019450602081019050611c92565b86831015611cd45784890151611cd0601f891682611bdd565b8355505b6001600288020188555050505b505050505050565b7f4e487b7100000000000000000000000000000000000000000000000000000000600052601160045260246000fd5b6000611d2382611259565b91507fffffffffffffffffffffffffffffffffffffffffffffffffffffffffffffffff8203611d5557611d54611ce9565b5b600182019050919050565b7f4e487b7100000000000000000000000000000000000000000000000000000000600052603260045260246000fd5b7f70726f6475637420646f6573206e6f7420657869737400000000000000000000600082015250565b6000611dc5601683611998565b9150611dd082611d8f565b602082019050919050565b60006020820190508181036000830152611df481611db8565b9050919050565b6000611e0682611259565b9150611e1183611259565b9250828201905080821115611e2957611e28611ce9565b5b92915050565b6000606082019050611e4460008301866115d9565b611e5160208301856115d9565b611e5e60408301846112bc565b949350505050565b611e6f816116bd565b8114611e7a57600080fd5b50565b600081519050611e8c81611e66565b92915050565b600060208284031215611ea857611ea761124f565b5b6000611eb684828501611e7d565b91505092915050565b6000604082019050611ed460008301856115d9565b611ee160208301846112bc565b9392505050565b7f70726f6475637420696e2073746f726500000000000000000000000000000000600082015250565b6000611f1e601083611998565b9150611f2982611ee8565b602082019050919050565b60006020820190508181036000830152611f4d81611f11565b9050919050565b7f67616d65206e6f7420656e646564000000000000000000000000000000000000600082015250565b6000611f8a600e83611998565b9150611f9582611f54565b602082019050919050565b60006020820190508181036000830152611fb981611f7d565b9050919050565b7f70726f64756374206e6f7420696e2073746f7265000000000000000000000000600082015250565b6000611ff6601483611998565b915061200182611fc0565b602082019050919050565b6000602082019050818103600083015261202581611fe9565b9050919050565b7f6e6f20636f6e7472616374730000000000000000000000000000000000000000600082015250565b6000612062600c83611998565b915061206d8261202c565b602082019050919050565b6000602082019050818103600083015261209181612055565b9050919050565b7f4e487b7100000000000000000000000000000000000000000000000000000000600052601260045260246000fd5b60006120d282611259565b91506120dd83611259565b9250826120ed576120ec612098565b5b828204905092915050565b600061210382611259565b915061210e83611259565b925082820261211c81611259565b9150828204841483151761213357612132611ce9565b5b5092915050565b7f4f776e61626c653a206e6577206f776e657220697320746865207a65726f206160008201527f6464726573730000000000000000000000000000000000000000000000000000602082015250565b6000612196602683611998565b91506121a18261213a565b604082019050919050565b600060208201905081810360008301526121c581612189565b9050919050565b7f70726f6475637420616c726561647920696e206d65682e73746f726500000000600082015250565b6000612202601c83611998565b915061220d826121cc565b602082019050919050565b60006020820190508181036000830152612231816121f5565b9050919050565b7f73656c6c6f757400000000000000000000000000000000000000000000000000600082015250565b600061226e600783611998565b915061227982612238565b602082019050919050565b6000602082019050818103600083015261229d81612261565b9050919050565b600081546122b181611a44565b6122bb8186611998565b945060018216600081146122d657600181146122ec5761231f565b60ff19831686528115156020028601935061231f565b6122f585611a75565b60005b83811015612317578154818901526001820191506020810190506122f8565b808801955050505b50505092915050565b60006123338261163e565b61233d8185611998565b935061234d81856020860161165a565b6123568161131a565b840191505092915050565b600060808201905061237660008301876112bc565b818103602083015261238881866122a4565b9050818103604083015261239c8185612328565b90506123ab60608301846112bc565b95945050505050565b7f4f776e61626c653a2063616c6c6572206973206e6f7420746865206f776e6572600082015250565b60006123ea602083611998565b91506123f5826123b4565b602082019050919050565b60006020820190508181036000830152612419816123dd565b9050919050565b7f5265656e7472616e637947756172643a207265656e7472616e742063616c6c00600082015250565b6000612456601f83611998565b915061246182612420565b602082019050919050565b6000602082019050818103600083015261248581612449565b905091905056fea26469706673582212205fa1e1fb3571a1572a10f9a5478fcd94eec8dd5aa53311e74f363eaa8767a8e664736f6c63430008180033","opcodes":"PUSH1 0xA0 PUSH1 0x40 MSTORE CALLVALUE DUP1 ISZERO PUSH3 0x11 JUMPI PUSH1 0x0 DUP1 REVERT JUMPDEST POP PUSH1 0x40 MLOAD PUSH3 0x2750 CODESIZE SUB DUP1 PUSH3 0x2750 DUP4 CODECOPY DUP2 DUP2 ADD PUSH1 0x40 MSTORE DUP2 ADD SWAP1 PUSH3 0x37 SWAP2 SWAP1 PUSH3 0x21D JUMP JUMPDEST PUSH3 0x57 PUSH3 0x4B PUSH3 0xBD PUSH1 0x20 SHL PUSH1 0x20 SHR JUMP JUMPDEST PUSH3 0xC5 PUSH1 0x20 SHL PUSH1 0x20 SHR JUMP JUMPDEST PUSH1 0x1 DUP1 DUP2 SWAP1 SSTORE POP DUP1 PUSH20 0xFFFFFFFFFFFFFFFFFFFFFFFFFFFFFFFFFFFFFFFF AND PUSH1 0x80 DUP2 PUSH20 0xFFFFFFFFFFFFFFFFFFFFFFFFFFFFFFFFFFFFFFFF AND DUP2 MSTORE POP POP PUSH3 0xA4 PUSH1 0x2 PUSH3 0x189 PUSH1 0x20 SHL PUSH1 0x20 SHR JUMP JUMPDEST PUSH3 0xB6 PUSH1 0x3 PUSH3 0x189 PUSH1 0x20 SHL PUSH1 0x20 SHR JUMP JUMPDEST POP PUSH3 0x24F JUMP JUMPDEST PUSH1 0x0 CALLER SWAP1 POP SWAP1 JUMP JUMPDEST PUSH1 0x0 DUP1 PUSH1 0x0 SWAP1 SLOAD SWAP1 PUSH2 0x100 EXP SWAP1 DIV PUSH20 0xFFFFFFFFFFFFFFFFFFFFFFFFFFFFFFFFFFFFFFFF AND SWAP1 POP DUP2 PUSH1 0x0 DUP1 PUSH2 0x100 EXP DUP2 SLOAD DUP2 PUSH20 0xFFFFFFFFFFFFFFFFFFFFFFFFFFFFFFFFFFFFFFFF MUL NOT AND SWAP1 DUP4 PUSH20 0xFFFFFFFFFFFFFFFFFFFFFFFFFFFFFFFFFFFFFFFF AND MUL OR SWAP1 SSTORE POP DUP2 PUSH20 0xFFFFFFFFFFFFFFFFFFFFFFFFFFFFFFFFFFFFFFFF AND DUP2 PUSH20 0xFFFFFFFFFFFFFFFFFFFFFFFFFFFFFFFFFFFFFFFF AND PUSH32 0x8BE0079C531659141344CD1FD0A4F28419497F9722A3DAAFE3B4186F6B6457E0 PUSH1 0x40 MLOAD PUSH1 0x40 MLOAD DUP1 SWAP2 SUB SWAP1 LOG3 POP POP JUMP JUMPDEST PUSH1 0x1 DUP2 PUSH1 0x0 ADD PUSH1 0x0 DUP3 DUP3 SLOAD ADD SWAP3 POP POP DUP2 SWAP1 SSTORE POP POP JUMP JUMPDEST PUSH1 0x0 DUP1 REVERT JUMPDEST PUSH1 0x0 PUSH20 0xFFFFFFFFFFFFFFFFFFFFFFFFFFFFFFFFFFFFFFFF DUP3 AND SWAP1 POP SWAP2 SWAP1 POP JUMP JUMPDEST PUSH1 0x0 PUSH3 0x1D1 DUP3 PUSH3 0x1A4 JUMP JUMPDEST SWAP1 POP SWAP2 SWAP1 POP JUMP JUMPDEST PUSH1 0x0 PUSH3 0x1E5 DUP3 PUSH3 0x1C4 JUMP JUMPDEST SWAP1 POP SWAP2 SWAP1 POP JUMP JUMPDEST PUSH3 0x1F7 DUP2 PUSH3 0x1D8 JUMP JUMPDEST DUP2 EQ PUSH3 0x203 JUMPI PUSH1 0x0 DUP1 REVERT JUMPDEST POP JUMP JUMPDEST PUSH1 0x0 DUP2 MLOAD SWAP1 POP PUSH3 0x217 DUP2 PUSH3 0x1EC JUMP JUMPDEST SWAP3 SWAP2 POP POP JUMP JUMPDEST PUSH1 0x0 PUSH1 0x20 DUP3 DUP5 SUB SLT ISZERO PUSH3 0x236 JUMPI PUSH3 0x235 PUSH3 0x19F JUMP JUMPDEST JUMPDEST PUSH1 0x0 PUSH3 0x246 DUP5 DUP3 DUP6 ADD PUSH3 0x206 JUMP JUMPDEST SWAP2 POP POP SWAP3 SWAP2 POP POP JUMP JUMPDEST PUSH1 0x80 MLOAD PUSH2 0x24C2 PUSH3 0x28E PUSH1 0x0 CODECOPY PUSH1 0x0 DUP2 DUP2 PUSH2 0x52E ADD MSTORE DUP2 DUP2 PUSH2 0x64A ADD MSTORE DUP2 DUP2 PUSH2 0x799 ADD MSTORE DUP2 DUP2 PUSH2 0xA6A ADD MSTORE DUP2 DUP2 PUSH2 0xCB1 ADD MSTORE PUSH2 0xEA2 ADD MSTORE PUSH2 0x24C2 PUSH1 0x0 RETURN INVALID PUSH1 0x80 PUSH1 0x40 MSTORE CALLVALUE DUP1 ISZERO PUSH2 0x10 JUMPI PUSH1 0x0 DUP1 REVERT JUMPDEST POP PUSH1 0x4 CALLDATASIZE LT PUSH2 0xEA JUMPI PUSH1 0x0 CALLDATALOAD PUSH1 0xE0 SHR DUP1 PUSH4 0x8DA5CB5B GT PUSH2 0x8C JUMPI DUP1 PUSH4 0xD6D68177 GT PUSH2 0x66 JUMPI DUP1 PUSH4 0xD6D68177 EQ PUSH2 0x222 JUMPI DUP1 PUSH4 0xE2C2C884 EQ PUSH2 0x252 JUMPI DUP1 PUSH4 0xF2FDE38B EQ PUSH2 0x270 JUMPI DUP1 PUSH4 0xF38BEE18 EQ PUSH2 0x28C JUMPI PUSH2 0xEA JUMP JUMPDEST DUP1 PUSH4 0x8DA5CB5B EQ PUSH2 0x1B8 JUMPI DUP1 PUSH4 0xC3490263 EQ PUSH2 0x1D6 JUMPI DUP1 PUSH4 0xC7B56842 EQ PUSH2 0x1F2 JUMPI PUSH2 0xEA JUMP JUMPDEST DUP1 PUSH4 0x60104CEF GT PUSH2 0xC8 JUMPI DUP1 PUSH4 0x60104CEF EQ PUSH2 0x15A JUMPI DUP1 PUSH4 0x715018A6 EQ PUSH2 0x176 JUMPI DUP1 PUSH4 0x76F7B500 EQ PUSH2 0x180 JUMPI DUP1 PUSH4 0x8C5B883D EQ PUSH2 0x19C JUMPI PUSH2 0xEA JUMP JUMPDEST DUP1 PUSH4 0x117A5B90 EQ PUSH2 0xEF JUMPI DUP1 PUSH4 0x2849625D EQ PUSH2 0x122 JUMPI DUP1 PUSH4 0x53F8C483 EQ PUSH2 0x13E JUMPI JUMPDEST PUSH1 0x0 DUP1 REVERT JUMPDEST PUSH2 0x109 PUSH1 0x4 DUP1 CALLDATASIZE SUB DUP2 ADD SWAP1 PUSH2 0x104 SWAP2 SWAP1 PUSH2 0x128F JUMP JUMPDEST PUSH2 0x2A8 JUMP JUMPDEST PUSH1 0x40 MLOAD PUSH2 0x119 SWAP5 SWAP4 SWAP3 SWAP2 SWAP1 PUSH2 0x12CB JUMP JUMPDEST PUSH1 0x40 MLOAD DUP1 SWAP2 SUB SWAP1 RETURN JUMPDEST PUSH2 0x13C PUSH1 0x4 DUP1 CALLDATASIZE SUB DUP2 ADD SWAP1 PUSH2 0x137 SWAP2 SWAP1 PUSH2 0x1456 JUMP JUMPDEST PUSH2 0x2D8 JUMP JUMPDEST STOP JUMPDEST PUSH2 0x158 PUSH1 0x4 DUP1 CALLDATASIZE SUB DUP2 ADD SWAP1 PUSH2 0x153 SWAP2 SWAP1 PUSH2 0x1514 JUMP JUMPDEST PUSH2 0x483 JUMP JUMPDEST STOP JUMPDEST PUSH2 0x174 PUSH1 0x4 DUP1 CALLDATASIZE SUB DUP2 ADD SWAP1 PUSH2 0x16F SWAP2 SWAP1 PUSH2 0x1567 JUMP JUMPDEST PUSH2 0x5D4 JUMP JUMPDEST STOP JUMPDEST PUSH2 0x17E PUSH2 0x62C JUMP JUMPDEST STOP JUMPDEST PUSH2 0x19A PUSH1 0x4 DUP1 CALLDATASIZE SUB DUP2 ADD SWAP1 PUSH2 0x195 SWAP2 SWAP1 PUSH2 0x128F JUMP JUMPDEST PUSH2 0x640 JUMP JUMPDEST STOP JUMPDEST PUSH2 0x1B6 PUSH1 0x4 DUP1 CALLDATASIZE SUB DUP2 ADD SWAP1 PUSH2 0x1B1 SWAP2 SWAP1 PUSH2 0x1567 JUMP JUMPDEST PUSH2 0x6F1 JUMP JUMPDEST STOP JUMPDEST PUSH2 0x1C0 PUSH2 0x82D JUMP JUMPDEST PUSH1 0x40 MLOAD PUSH2 0x1CD SWAP2 SWAP1 PUSH2 0x15E8 JUMP JUMPDEST PUSH1 0x40 MLOAD DUP1 SWAP2 SUB SWAP1 RETURN JUMPDEST PUSH2 0x1F0 PUSH1 0x4 DUP1 CALLDATASIZE SUB DUP2 ADD SWAP1 PUSH2 0x1EB SWAP2 SWAP1 PUSH2 0x1567 JUMP JUMPDEST PUSH2 0x856 JUMP JUMPDEST STOP JUMPDEST PUSH2 0x20C PUSH1 0x4 DUP1 CALLDATASIZE SUB DUP2 ADD SWAP1 PUSH2 0x207 SWAP2 SWAP1 PUSH2 0x128F JUMP JUMPDEST PUSH2 0xB17 JUMP JUMPDEST PUSH1 0x40 MLOAD PUSH2 0x219 SWAP2 SWAP1 PUSH2 0x1848 JUMP JUMPDEST PUSH1 0x40 MLOAD DUP1 SWAP2 SUB SWAP1 RETURN JUMPDEST PUSH2 0x23C PUSH1 0x4 DUP1 CALLDATASIZE SUB DUP2 ADD SWAP1 PUSH2 0x237 SWAP2 SWAP1 PUSH2 0x1896 JUMP JUMPDEST PUSH2 0xC8A JUMP JUMPDEST PUSH1 0x40 MLOAD PUSH2 0x249 SWAP2 SWAP1 PUSH2 0x18D6 JUMP JUMPDEST PUSH1 0x40 MLOAD DUP1 SWAP2 SUB SWAP1 RETURN JUMPDEST PUSH2 0x25A PUSH2 0xCAF JUMP JUMPDEST PUSH1 0x40 MLOAD PUSH2 0x267 SWAP2 SWAP1 PUSH2 0x1950 JUMP JUMPDEST PUSH1 0x40 MLOAD DUP1 SWAP2 SUB SWAP1 RETURN JUMPDEST PUSH2 0x28A PUSH1 0x4 DUP1 CALLDATASIZE SUB DUP2 ADD SWAP1 PUSH2 0x285 SWAP2 SWAP1 PUSH2 0x196B JUMP JUMPDEST PUSH2 0xCD3 JUMP JUMPDEST STOP JUMPDEST PUSH2 0x2A6 PUSH1 0x4 DUP1 CALLDATASIZE SUB DUP2 ADD SWAP1 PUSH2 0x2A1 SWAP2 SWAP1 PUSH2 0x1514 JUMP JUMPDEST PUSH2 0xD56 JUMP JUMPDEST STOP JUMPDEST PUSH1 0x4 PUSH1 0x20 MSTORE DUP1 PUSH1 0x0 MSTORE PUSH1 0x40 PUSH1 0x0 KECCAK256 PUSH1 0x0 SWAP2 POP SWAP1 POP DUP1 PUSH1 0x0 ADD SLOAD SWAP1 DUP1 PUSH1 0x1 ADD SLOAD SWAP1 DUP1 PUSH1 0x2 ADD SLOAD SWAP1 DUP1 PUSH1 0x4 ADD SLOAD SWAP1 POP DUP5 JUMP JUMPDEST PUSH2 0x2E0 PUSH2 0x107F JUMP JUMPDEST PUSH1 0x0 PUSH1 0x4 PUSH1 0x0 DUP10 DUP2 MSTORE PUSH1 0x20 ADD SWAP1 DUP2 MSTORE PUSH1 0x20 ADD PUSH1 0x0 KECCAK256 SWAP1 POP PUSH1 0x0 DUP2 PUSH1 0x0 ADD SLOAD SUB PUSH2 0x33E JUMPI PUSH1 0x40 MLOAD PUSH32 0x8C379A000000000000000000000000000000000000000000000000000000000 DUP2 MSTORE PUSH1 0x4 ADD PUSH2 0x335 SWAP1 PUSH2 0x19F5 JUMP JUMPDEST PUSH1 0x40 MLOAD DUP1 SWAP2 SUB SWAP1 REVERT JUMPDEST PUSH1 0x0 PUSH2 0x34A PUSH1 0x3 PUSH2 0x10FD JUMP JUMPDEST SWAP1 POP PUSH1 0x0 PUSH1 0x40 MLOAD DUP1 PUSH2 0x140 ADD PUSH1 0x40 MSTORE DUP1 DUP4 DUP2 MSTORE PUSH1 0x20 ADD DUP11 DUP2 MSTORE PUSH1 0x20 ADD PUSH1 0x0 DUP2 MSTORE PUSH1 0x20 ADD DUP9 DUP2 MSTORE PUSH1 0x20 ADD DUP10 DUP2 MSTORE PUSH1 0x20 ADD PUSH1 0x0 DUP2 MSTORE PUSH1 0x20 ADD PUSH1 0x0 ISZERO ISZERO DUP2 MSTORE PUSH1 0x20 ADD DUP8 DUP2 MSTORE PUSH1 0x20 ADD DUP7 DUP2 MSTORE PUSH1 0x20 ADD DUP6 DUP2 MSTORE POP SWAP1 POP DUP3 PUSH1 0x3 ADD DUP2 SWAP1 DUP1 PUSH1 0x1 DUP2 SLOAD ADD DUP1 DUP3 SSTORE DUP1 SWAP2 POP POP PUSH1 0x1 SWAP1 SUB SWAP1 PUSH1 0x0 MSTORE PUSH1 0x20 PUSH1 0x0 KECCAK256 SWAP1 PUSH1 0xA MUL ADD PUSH1 0x0 SWAP1 SWAP2 SWAP1 SWAP2 SWAP1 SWAP2 POP PUSH1 0x0 DUP3 ADD MLOAD DUP2 PUSH1 0x0 ADD SSTORE PUSH1 0x20 DUP3 ADD MLOAD DUP2 PUSH1 0x1 ADD SWAP1 DUP2 PUSH2 0x3E8 SWAP2 SWAP1 PUSH2 0x1C17 JUMP JUMPDEST POP PUSH1 0x40 DUP3 ADD MLOAD DUP2 PUSH1 0x2 ADD SSTORE PUSH1 0x60 DUP3 ADD MLOAD DUP2 PUSH1 0x3 ADD SSTORE PUSH1 0x80 DUP3 ADD MLOAD DUP2 PUSH1 0x4 ADD SSTORE PUSH1 0xA0 DUP3 ADD MLOAD DUP2 PUSH1 0x5 ADD SSTORE PUSH1 0xC0 DUP3 ADD MLOAD DUP2 PUSH1 0x6 ADD PUSH1 0x0 PUSH2 0x100 EXP DUP2 SLOAD DUP2 PUSH1 0xFF MUL NOT AND SWAP1 DUP4 ISZERO ISZERO MUL OR SWAP1 SSTORE POP PUSH1 0xE0 DUP3 ADD MLOAD DUP2 PUSH1 0x7 ADD SSTORE PUSH2 0x100 DUP3 ADD MLOAD DUP2 PUSH1 0x8 ADD SSTORE PUSH2 0x120 DUP3 ADD MLOAD DUP2 PUSH1 0x9 ADD SSTORE POP POP DUP3 PUSH1 0x4 ADD PUSH1 0x0 DUP2 SLOAD DUP1 SWAP3 SWAP2 SWAP1 PUSH2 0x468 SWAP1 PUSH2 0x1D18 JUMP JUMPDEST SWAP2 SWAP1 POP SSTORE POP PUSH2 0x477 PUSH1 0x3 PUSH2 0x110B JUMP JUMPDEST POP POP POP POP POP POP POP POP POP POP JUMP JUMPDEST PUSH2 0x48B PUSH2 0x107F JUMP JUMPDEST PUSH1 0x0 PUSH1 0x4 PUSH1 0x0 DUP6 DUP2 MSTORE PUSH1 0x20 ADD SWAP1 DUP2 MSTORE PUSH1 0x20 ADD PUSH1 0x0 KECCAK256 SWAP1 POP PUSH1 0x0 DUP2 PUSH1 0x3 ADD DUP5 DUP2 SLOAD DUP2 LT PUSH2 0x4BA JUMPI PUSH2 0x4B9 PUSH2 0x1D60 JUMP JUMPDEST JUMPDEST SWAP1 PUSH1 0x0 MSTORE PUSH1 0x20 PUSH1 0x0 KECCAK256 SWAP1 PUSH1 0xA MUL ADD SWAP1 POP PUSH1 0x0 DUP2 PUSH1 0x0 ADD SLOAD SUB PUSH2 0x511 JUMPI PUSH1 0x40 MLOAD PUSH32 0x8C379A000000000000000000000000000000000000000000000000000000000 DUP2 MSTORE PUSH1 0x4 ADD PUSH2 0x508 SWAP1 PUSH2 0x1DDB JUMP JUMPDEST PUSH1 0x40 MLOAD DUP1 SWAP2 SUB SWAP1 REVERT JUMPDEST DUP3 DUP2 PUSH1 0x5 ADD PUSH1 0x0 DUP3 DUP3 SLOAD PUSH2 0x525 SWAP2 SWAP1 PUSH2 0x1DFB JUMP JUMPDEST SWAP3 POP POP DUP2 SWAP1 SSTORE POP PUSH32 0x0 PUSH20 0xFFFFFFFFFFFFFFFFFFFFFFFFFFFFFFFFFFFFFFFF AND PUSH4 0x23B872DD CALLER ADDRESS DUP7 PUSH1 0x40 MLOAD DUP5 PUSH4 0xFFFFFFFF AND PUSH1 0xE0 SHL DUP2 MSTORE PUSH1 0x4 ADD PUSH2 0x589 SWAP4 SWAP3 SWAP2 SWAP1 PUSH2 0x1E2F JUMP JUMPDEST PUSH1 0x20 PUSH1 0x40 MLOAD DUP1 DUP4 SUB DUP2 PUSH1 0x0 DUP8 GAS CALL ISZERO DUP1 ISZERO PUSH2 0x5A8 JUMPI RETURNDATASIZE PUSH1 0x0 DUP1 RETURNDATACOPY RETURNDATASIZE PUSH1 0x0 REVERT JUMPDEST POP POP POP POP PUSH1 0x40 MLOAD RETURNDATASIZE PUSH1 0x1F NOT PUSH1 0x1F DUP3 ADD AND DUP3 ADD DUP1 PUSH1 0x40 MSTORE POP DUP2 ADD SWAP1 PUSH2 0x5CC SWAP2 SWAP1 PUSH2 0x1E92 JUMP JUMPDEST POP POP POP POP POP POP JUMP JUMPDEST PUSH2 0x5DC PUSH2 0x107F JUMP JUMPDEST PUSH1 0x0 PUSH2 0x5E8 PUSH1 0x2 PUSH2 0x10FD JUMP JUMPDEST SWAP1 POP PUSH1 0x0 PUSH1 0x4 PUSH1 0x0 DUP4 DUP2 MSTORE PUSH1 0x20 ADD SWAP1 DUP2 MSTORE PUSH1 0x20 ADD PUSH1 0x0 KECCAK256 SWAP1 POP DUP2 DUP2 PUSH1 0x0 ADD DUP2 SWAP1 SSTORE POP DUP4 DUP2 PUSH1 0x1 ADD DUP2 SWAP1 SSTORE POP DUP3 DUP2 PUSH1 0x2 ADD DUP2 SWAP1 SSTORE POP PUSH2 0x626 PUSH1 0x2 PUSH2 0x110B JUMP JUMPDEST POP POP POP POP JUMP JUMPDEST PUSH2 0x634 PUSH2 0x107F JUMP JUMPDEST PUSH2 0x63E PUSH1 0x0 PUSH2 0x1121 JUMP JUMPDEST JUMP JUMPDEST PUSH2 0x648 PUSH2 0x107F JUMP JUMPDEST PUSH32 0x0 PUSH20 0xFFFFFFFFFFFFFFFFFFFFFFFFFFFFFFFFFFFFFFFF AND PUSH4 0xA9059CBB PUSH2 0x68C PUSH2 0x82D JUMP JUMPDEST DUP4 PUSH1 0x40 MLOAD DUP4 PUSH4 0xFFFFFFFF AND PUSH1 0xE0 SHL DUP2 MSTORE PUSH1 0x4 ADD PUSH2 0x6AA SWAP3 SWAP2 SWAP1 PUSH2 0x1EBF JUMP JUMPDEST PUSH1 0x20 PUSH1 0x40 MLOAD DUP1 DUP4 SUB DUP2 PUSH1 0x0 DUP8 GAS CALL ISZERO DUP1 ISZERO PUSH2 0x6C9 JUMPI RETURNDATASIZE PUSH1 0x0 DUP1 RETURNDATACOPY RETURNDATASIZE PUSH1 0x0 REVERT JUMPDEST POP POP POP POP PUSH1 0x40 MLOAD RETURNDATASIZE PUSH1 0x1F NOT PUSH1 0x1F DUP3 ADD AND DUP3 ADD DUP1 PUSH1 0x40 MSTORE POP DUP2 ADD SWAP1 PUSH2 0x6ED SWAP2 SWAP1 PUSH2 0x1E92 JUMP JUMPDEST POP POP JUMP JUMPDEST PUSH2 0x6F9 PUSH2 0x107F JUMP JUMPDEST PUSH1 0x0 PUSH1 0x4 PUSH1 0x0 DUP5 DUP2 MSTORE PUSH1 0x20 ADD SWAP1 DUP2 MSTORE PUSH1 0x20 ADD PUSH1 0x0 KECCAK256 SWAP1 POP PUSH1 0x0 DUP2 PUSH1 0x3 ADD DUP4 DUP2 SLOAD DUP2 LT PUSH2 0x728 JUMPI PUSH2 0x727 PUSH2 0x1D60 JUMP JUMPDEST JUMPDEST SWAP1 PUSH1 0x0 MSTORE PUSH1 0x20 PUSH1 0x0 KECCAK256 SWAP1 PUSH1 0xA MUL ADD SWAP1 POP DUP1 PUSH1 0x6 ADD PUSH1 0x0 SWAP1 SLOAD SWAP1 PUSH2 0x100 EXP SWAP1 DIV PUSH1 0xFF AND ISZERO PUSH2 0x78A JUMPI PUSH1 0x40 MLOAD PUSH32 0x8C379A000000000000000000000000000000000000000000000000000000000 DUP2 MSTORE PUSH1 0x4 ADD PUSH2 0x781 SWAP1 PUSH2 0x1F34 JUMP JUMPDEST PUSH1 0x40 MLOAD DUP1 SWAP2 SUB SWAP1 REVERT JUMPDEST PUSH1 0x0 DUP2 PUSH1 0x5 ADD SLOAD GT ISZERO PUSH2 0x827 JUMPI PUSH32 0x0 PUSH20 0xFFFFFFFFFFFFFFFFFFFFFFFFFFFFFFFFFFFFFFFF AND PUSH4 0x42966C68 DUP3 PUSH1 0x5 ADD SLOAD PUSH1 0x40 MLOAD DUP3 PUSH4 0xFFFFFFFF AND PUSH1 0xE0 SHL DUP2 MSTORE PUSH1 0x4 ADD PUSH2 0x7F4 SWAP2 SWAP1 PUSH2 0x18D6 JUMP JUMPDEST PUSH1 0x0 PUSH1 0x40 MLOAD DUP1 DUP4 SUB DUP2 PUSH1 0x0 DUP8 DUP1 EXTCODESIZE ISZERO DUP1 ISZERO PUSH2 0x80E JUMPI PUSH1 0x0 DUP1 REVERT JUMPDEST POP GAS CALL ISZERO DUP1 ISZERO PUSH2 0x822 JUMPI RETURNDATASIZE PUSH1 0x0 DUP1 RETURNDATACOPY RETURNDATASIZE PUSH1 0x0 REVERT JUMPDEST POP POP POP POP JUMPDEST POP POP POP POP JUMP JUMPDEST PUSH1 0x0 DUP1 PUSH1 0x0 SWAP1 SLOAD SWAP1 PUSH2 0x100 EXP SWAP1 DIV PUSH20 0xFFFFFFFFFFFFFFFFFFFFFFFFFFFFFFFFFFFFFFFF AND SWAP1 POP SWAP1 JUMP JUMPDEST PUSH2 0x85E PUSH2 0x11E5 JUMP JUMPDEST PUSH1 0x0 PUSH1 0x4 PUSH1 0x0 DUP5 DUP2 MSTORE PUSH1 0x20 ADD SWAP1 DUP2 MSTORE PUSH1 0x20 ADD PUSH1 0x0 KECCAK256 SWAP1 POP TIMESTAMP DUP2 PUSH1 0x2 ADD SLOAD LT PUSH2 0x8BB JUMPI PUSH1 0x40 MLOAD PUSH32 0x8C379A000000000000000000000000000000000000000000000000000000000 DUP2 MSTORE PUSH1 0x4 ADD PUSH2 0x8B2 SWAP1 PUSH2 0x1FA0 JUMP JUMPDEST PUSH1 0x40 MLOAD DUP1 SWAP2 SUB SWAP1 REVERT JUMPDEST DUP1 PUSH1 0x3 ADD DUP3 DUP2 SLOAD DUP2 LT PUSH2 0x8D1 JUMPI PUSH2 0x8D0 PUSH2 0x1D60 JUMP JUMPDEST JUMPDEST SWAP1 PUSH1 0x0 MSTORE PUSH1 0x20 PUSH1 0x0 KECCAK256 SWAP1 PUSH1 0xA MUL ADD PUSH1 0x6 ADD PUSH1 0x0 SWAP1 SLOAD SWAP1 PUSH2 0x100 EXP SWAP1 DIV PUSH1 0xFF AND PUSH2 0x92F JUMPI PUSH1 0x40 MLOAD PUSH32 0x8C379A000000000000000000000000000000000000000000000000000000000 DUP2 MSTORE PUSH1 0x4 ADD PUSH2 0x926 SWAP1 PUSH2 0x200C JUMP JUMPDEST PUSH1 0x40 MLOAD DUP1 SWAP2 SUB SWAP1 REVERT JUMPDEST PUSH1 0x0 PUSH1 0x5 PUSH1 0x0 CALLER PUSH20 0xFFFFFFFFFFFFFFFFFFFFFFFFFFFFFFFFFFFFFFFF AND PUSH20 0xFFFFFFFFFFFFFFFFFFFFFFFFFFFFFFFFFFFFFFFF AND DUP2 MSTORE PUSH1 0x20 ADD SWAP1 DUP2 MSTORE PUSH1 0x20 ADD PUSH1 0x0 KECCAK256 PUSH1 0x0 DUP5 DUP2 MSTORE PUSH1 0x20 ADD SWAP1 DUP2 MSTORE PUSH1 0x20 ADD PUSH1 0x0 KECCAK256 SLOAD SWAP1 POP PUSH1 0x0 DUP2 GT PUSH2 0x9C7 JUMPI PUSH1 0x40 MLOAD PUSH32 0x8C379A000000000000000000000000000000000000000000000000000000000 DUP2 MSTORE PUSH1 0x4 ADD PUSH2 0x9BE SWAP1 PUSH2 0x2078 JUMP JUMPDEST PUSH1 0x40 MLOAD DUP1 SWAP2 SUB SWAP1 REVERT JUMPDEST PUSH1 0x0 DUP3 PUSH1 0x3 ADD DUP5 DUP2 SLOAD DUP2 LT PUSH2 0x9DF JUMPI PUSH2 0x9DE PUSH2 0x1D60 JUMP JUMPDEST JUMPDEST SWAP1 PUSH1 0x0 MSTORE PUSH1 0x20 PUSH1 0x0 KECCAK256 SWAP1 PUSH1 0xA MUL ADD SWAP1 POP PUSH1 0x0 DUP2 PUSH1 0x3 ADD SLOAD DUP4 PUSH2 0xA01 SWAP2 SWAP1 PUSH2 0x20C7 JUMP JUMPDEST DUP3 PUSH1 0x5 ADD SLOAD PUSH2 0xA10 SWAP2 SWAP1 PUSH2 0x20F8 JUMP JUMPDEST SWAP1 POP PUSH1 0x0 PUSH1 0x5 PUSH1 0x0 CALLER PUSH20 0xFFFFFFFFFFFFFFFFFFFFFFFFFFFFFFFFFFFFFFFF AND PUSH20 0xFFFFFFFFFFFFFFFFFFFFFFFFFFFFFFFFFFFFFFFF AND DUP2 MSTORE PUSH1 0x20 ADD SWAP1 DUP2 MSTORE PUSH1 0x20 ADD PUSH1 0x0 KECCAK256 PUSH1 0x0 DUP8 DUP2 MSTORE PUSH1 0x20 ADD SWAP1 DUP2 MSTORE PUSH1 0x20 ADD PUSH1 0x0 KECCAK256 DUP2 SWAP1 SSTORE POP PUSH32 0x0 PUSH20 0xFFFFFFFFFFFFFFFFFFFFFFFFFFFFFFFFFFFFFFFF AND PUSH4 0xA9059CBB CALLER DUP4 PUSH1 0x40 MLOAD DUP4 PUSH4 0xFFFFFFFF AND PUSH1 0xE0 SHL DUP2 MSTORE PUSH1 0x4 ADD PUSH2 0xAC3 SWAP3 SWAP2 SWAP1 PUSH2 0x1EBF JUMP JUMPDEST PUSH1 0x20 PUSH1 0x40 MLOAD DUP1 DUP4 SUB DUP2 PUSH1 0x0 DUP8 GAS CALL ISZERO DUP1 ISZERO PUSH2 0xAE2 JUMPI RETURNDATASIZE PUSH1 0x0 DUP1 RETURNDATACOPY RETURNDATASIZE PUSH1 0x0 REVERT JUMPDEST POP POP POP POP PUSH1 0x40 MLOAD RETURNDATASIZE PUSH1 0x1F NOT PUSH1 0x1F DUP3 ADD AND DUP3 ADD DUP1 PUSH1 0x40 MSTORE POP DUP2 ADD SWAP1 PUSH2 0xB06 SWAP2 SWAP1 PUSH2 0x1E92 JUMP JUMPDEST POP POP POP POP POP PUSH2 0xB13 PUSH2 0x1234 JUMP JUMPDEST POP POP JUMP JUMPDEST PUSH1 0x60 PUSH1 0x4 PUSH1 0x0 DUP4 DUP2 MSTORE PUSH1 0x20 ADD SWAP1 DUP2 MSTORE PUSH1 0x20 ADD PUSH1 0x0 KECCAK256 PUSH1 0x3 ADD DUP1 SLOAD DUP1 PUSH1 0x20 MUL PUSH1 0x20 ADD PUSH1 0x40 MLOAD SWAP1 DUP2 ADD PUSH1 0x40 MSTORE DUP1 SWAP3 SWAP2 SWAP1 DUP2 DUP2 MSTORE PUSH1 0x20 ADD PUSH1 0x0 SWAP1 JUMPDEST DUP3 DUP3 LT ISZERO PUSH2 0xC7F JUMPI DUP4 DUP3 SWAP1 PUSH1 0x0 MSTORE PUSH1 0x20 PUSH1 0x0 KECCAK256 SWAP1 PUSH1 0xA MUL ADD PUSH1 0x40 MLOAD DUP1 PUSH2 0x140 ADD PUSH1 0x40 MSTORE SWAP1 DUP2 PUSH1 0x0 DUP3 ADD SLOAD DUP2 MSTORE PUSH1 0x20 ADD PUSH1 0x1 DUP3 ADD DUP1 SLOAD PUSH2 0xB8D SWAP1 PUSH2 0x1A44 JUMP JUMPDEST DUP1 PUSH1 0x1F ADD PUSH1 0x20 DUP1 SWAP2 DIV MUL PUSH1 0x20 ADD PUSH1 0x40 MLOAD SWAP1 DUP2 ADD PUSH1 0x40 MSTORE DUP1 SWAP3 SWAP2 SWAP1 DUP2 DUP2 MSTORE PUSH1 0x20 ADD DUP3 DUP1 SLOAD PUSH2 0xBB9 SWAP1 PUSH2 0x1A44 JUMP JUMPDEST DUP1 ISZERO PUSH2 0xC06 JUMPI DUP1 PUSH1 0x1F LT PUSH2 0xBDB JUMPI PUSH2 0x100 DUP1 DUP4 SLOAD DIV MUL DUP4 MSTORE SWAP2 PUSH1 0x20 ADD SWAP2 PUSH2 0xC06 JUMP JUMPDEST DUP3 ADD SWAP2 SWAP1 PUSH1 0x0 MSTORE PUSH1 0x20 PUSH1 0x0 KECCAK256 SWAP1 JUMPDEST DUP2 SLOAD DUP2 MSTORE SWAP1 PUSH1 0x1 ADD SWAP1 PUSH1 0x20 ADD DUP1 DUP4 GT PUSH2 0xBE9 JUMPI DUP3 SWAP1 SUB PUSH1 0x1F AND DUP3 ADD SWAP2 JUMPDEST POP POP POP POP POP DUP2 MSTORE PUSH1 0x20 ADD PUSH1 0x2 DUP3 ADD SLOAD DUP2 MSTORE PUSH1 0x20 ADD PUSH1 0x3 DUP3 ADD SLOAD DUP2 MSTORE PUSH1 0x20 ADD PUSH1 0x4 DUP3 ADD SLOAD DUP2 MSTORE PUSH1 0x20 ADD PUSH1 0x5 DUP3 ADD SLOAD DUP2 MSTORE PUSH1 0x20 ADD PUSH1 0x6 DUP3 ADD PUSH1 0x0 SWAP1 SLOAD SWAP1 PUSH2 0x100 EXP SWAP1 DIV PUSH1 0xFF AND ISZERO ISZERO ISZERO ISZERO DUP2 MSTORE PUSH1 0x20 ADD PUSH1 0x7 DUP3 ADD SLOAD DUP2 MSTORE PUSH1 0x20 ADD PUSH1 0x8 DUP3 ADD SLOAD DUP2 MSTORE PUSH1 0x20 ADD PUSH1 0x9 DUP3 ADD SLOAD DUP2 MSTORE POP POP DUP2 MSTORE PUSH1 0x20 ADD SWAP1 PUSH1 0x1 ADD SWAP1 PUSH2 0xB4F JUMP JUMPDEST POP POP POP POP SWAP1 POP SWAP2 SWAP1 POP JUMP JUMPDEST PUSH1 0x5 PUSH1 0x20 MSTORE DUP2 PUSH1 0x0 MSTORE PUSH1 0x40 PUSH1 0x0 KECCAK256 PUSH1 0x20 MSTORE DUP1 PUSH1 0x0 MSTORE PUSH1 0x40 PUSH1 0x0 KECCAK256 PUSH1 0x0 SWAP2 POP SWAP2 POP POP SLOAD DUP2 JUMP JUMPDEST PUSH32 0x0 DUP2 JUMP JUMPDEST PUSH2 0xCDB PUSH2 0x107F JUMP JUMPDEST PUSH1 0x0 PUSH20 0xFFFFFFFFFFFFFFFFFFFFFFFFFFFFFFFFFFFFFFFF AND DUP2 PUSH20 0xFFFFFFFFFFFFFFFFFFFFFFFFFFFFFFFFFFFFFFFF AND SUB PUSH2 0xD4A JUMPI PUSH1 0x40 MLOAD PUSH32 0x8C379A000000000000000000000000000000000000000000000000000000000 DUP2 MSTORE PUSH1 0x4 ADD PUSH2 0xD41 SWAP1 PUSH2 0x21AC JUMP JUMPDEST PUSH1 0x40 MLOAD DUP1 SWAP2 SUB SWAP1 REVERT JUMPDEST PUSH2 0xD53 DUP2 PUSH2 0x1121 JUMP JUMPDEST POP JUMP JUMPDEST PUSH2 0xD5E PUSH2 0x11E5 JUMP JUMPDEST PUSH1 0x0 PUSH1 0x4 PUSH1 0x0 DUP6 DUP2 MSTORE PUSH1 0x20 ADD SWAP1 DUP2 MSTORE PUSH1 0x20 ADD PUSH1 0x0 KECCAK256 SWAP1 POP PUSH1 0x0 DUP2 PUSH1 0x3 ADD DUP5 DUP2 SLOAD DUP2 LT PUSH2 0xD8D JUMPI PUSH2 0xD8C PUSH2 0x1D60 JUMP JUMPDEST JUMPDEST SWAP1 PUSH1 0x0 MSTORE PUSH1 0x20 PUSH1 0x0 KECCAK256 SWAP1 PUSH1 0xA MUL ADD SWAP1 POP PUSH1 0x0 DUP2 PUSH1 0x0 ADD SLOAD SUB PUSH2 0xDE4 JUMPI PUSH1 0x40 MLOAD PUSH32 0x8C379A000000000000000000000000000000000000000000000000000000000 DUP2 MSTORE PUSH1 0x4 ADD PUSH2 0xDDB SWAP1 PUSH2 0x1DDB JUMP JUMPDEST PUSH1 0x40 MLOAD DUP1 SWAP2 SUB SWAP1 REVERT JUMPDEST DUP1 PUSH1 0x6 ADD PUSH1 0x0 SWAP1 SLOAD SWAP1 PUSH2 0x100 EXP SWAP1 DIV PUSH1 0xFF AND ISZERO PUSH2 0xE36 JUMPI PUSH1 0x40 MLOAD PUSH32 0x8C379A000000000000000000000000000000000000000000000000000000000 DUP2 MSTORE PUSH1 0x4 ADD PUSH2 0xE2D SWAP1 PUSH2 0x2218 JUMP JUMPDEST PUSH1 0x40 MLOAD DUP1 SWAP2 SUB SWAP1 REVERT JUMPDEST DUP1 PUSH1 0x3 ADD SLOAD DUP4 DUP3 PUSH1 0x2 ADD SLOAD PUSH2 0xE4B SWAP2 SWAP1 PUSH2 0x1DFB JUMP JUMPDEST GT ISZERO PUSH2 0xE8C JUMPI PUSH1 0x40 MLOAD PUSH32 0x8C379A000000000000000000000000000000000000000000000000000000000 DUP2 MSTORE PUSH1 0x4 ADD PUSH2 0xE83 SWAP1 PUSH2 0x2284 JUMP JUMPDEST PUSH1 0x40 MLOAD DUP1 SWAP2 SUB SWAP1 REVERT JUMPDEST PUSH1 0x0 DUP2 PUSH1 0x4 ADD SLOAD DUP5 PUSH2 0xE9E SWAP2 SWAP1 PUSH2 0x20F8 JUMP JUMPDEST SWAP1 POP PUSH32 0x0 PUSH20 0xFFFFFFFFFFFFFFFFFFFFFFFFFFFFFFFFFFFFFFFF AND PUSH4 0x23B872DD CALLER ADDRESS DUP5 PUSH1 0x40 MLOAD DUP5 PUSH4 0xFFFFFFFF AND PUSH1 0xE0 SHL DUP2 MSTORE PUSH1 0x4 ADD PUSH2 0xEFD SWAP4 SWAP3 SWAP2 SWAP1 PUSH2 0x1E2F JUMP JUMPDEST PUSH1 0x20 PUSH1 0x40 MLOAD DUP1 DUP4 SUB DUP2 PUSH1 0x0 DUP8 GAS CALL ISZERO DUP1 ISZERO PUSH2 0xF1C JUMPI RETURNDATASIZE PUSH1 0x0 DUP1 RETURNDATACOPY RETURNDATASIZE PUSH1 0x0 REVERT JUMPDEST POP POP POP POP PUSH1 0x40 MLOAD RETURNDATASIZE PUSH1 0x1F NOT PUSH1 0x1F DUP3 ADD AND DUP3 ADD DUP1 PUSH1 0x40 MSTORE POP DUP2 ADD SWAP1 PUSH2 0xF40 SWAP2 SWAP1 PUSH2 0x1E92 JUMP JUMPDEST POP DUP4 PUSH1 0x5 PUSH1 0x0 CALLER PUSH20 0xFFFFFFFFFFFFFFFFFFFFFFFFFFFFFFFFFFFFFFFF AND PUSH20 0xFFFFFFFFFFFFFFFFFFFFFFFFFFFFFFFFFFFFFFFF AND DUP2 MSTORE PUSH1 0x20 ADD SWAP1 DUP2 MSTORE PUSH1 0x20 ADD PUSH1 0x0 KECCAK256 PUSH1 0x0 DUP8 DUP2 MSTORE PUSH1 0x20 ADD SWAP1 DUP2 MSTORE PUSH1 0x20 ADD PUSH1 0x0 KECCAK256 PUSH1 0x0 DUP3 DUP3 SLOAD PUSH2 0xFA1 SWAP2 SWAP1 PUSH2 0x1DFB JUMP JUMPDEST SWAP3 POP POP DUP2 SWAP1 SSTORE POP DUP4 DUP3 PUSH1 0x2 ADD PUSH1 0x0 DUP3 DUP3 SLOAD PUSH2 0xFBC SWAP2 SWAP1 PUSH2 0x1DFB JUMP JUMPDEST SWAP3 POP POP DUP2 SWAP1 SSTORE POP DUP2 PUSH1 0x3 ADD SLOAD DUP3 PUSH1 0x2 ADD SLOAD SUB PUSH2 0x106F JUMPI PUSH1 0x1 DUP3 PUSH1 0x6 ADD PUSH1 0x0 PUSH2 0x100 EXP DUP2 SLOAD DUP2 PUSH1 0xFF MUL NOT AND SWAP1 DUP4 ISZERO ISZERO MUL OR SWAP1 SSTORE POP PUSH1 0x0 PUSH1 0x40 MLOAD DUP1 PUSH1 0x40 ADD PUSH1 0x40 MSTORE DUP1 PUSH1 0x7 DUP2 MSTORE PUSH1 0x20 ADD PUSH32 0x6465662D30303100000000000000000000000000000000000000000000000000 DUP2 MSTORE POP SWAP1 POP PUSH32 0x48BDD33BB928F44A7B0B890963D9AFE34ABF223C0DE29E0174CD429D9AC0C18A DUP7 DUP5 PUSH1 0x1 ADD DUP4 DUP7 PUSH1 0x9 ADD SLOAD PUSH1 0x40 MLOAD PUSH2 0x1065 SWAP5 SWAP4 SWAP3 SWAP2 SWAP1 PUSH2 0x2361 JUMP JUMPDEST PUSH1 0x40 MLOAD DUP1 SWAP2 SUB SWAP1 LOG1 POP JUMPDEST POP POP POP PUSH2 0x107A PUSH2 0x1234 JUMP JUMPDEST POP POP POP JUMP JUMPDEST PUSH2 0x1087 PUSH2 0x123D JUMP JUMPDEST PUSH20 0xFFFFFFFFFFFFFFFFFFFFFFFFFFFFFFFFFFFFFFFF AND PUSH2 0x10A5 PUSH2 0x82D JUMP JUMPDEST PUSH20 0xFFFFFFFFFFFFFFFFFFFFFFFFFFFFFFFFFFFFFFFF AND EQ PUSH2 0x10FB JUMPI PUSH1 0x40 MLOAD PUSH32 0x8C379A000000000000000000000000000000000000000000000000000000000 DUP2 MSTORE PUSH1 0x4 ADD PUSH2 0x10F2 SWAP1 PUSH2 0x2400 JUMP JUMPDEST PUSH1 0x40 MLOAD DUP1 SWAP2 SUB SWAP1 REVERT JUMPDEST JUMP JUMPDEST PUSH1 0x0 DUP2 PUSH1 0x0 ADD SLOAD SWAP1 POP SWAP2 SWAP1 POP JUMP JUMPDEST PUSH1 0x1 DUP2 PUSH1 0x0 ADD PUSH1 0x0 DUP3 DUP3 SLOAD ADD SWAP3 POP POP DUP2 SWAP1 SSTORE POP POP JUMP JUMPDEST PUSH1 0x0 DUP1 PUSH1 0x0 SWAP1 SLOAD SWAP1 PUSH2 0x100 EXP SWAP1 DIV PUSH20 0xFFFFFFFFFFFFFFFFFFFFFFFFFFFFFFFFFFFFFFFF AND SWAP1 POP DUP2 PUSH1 0x0 DUP1 PUSH2 0x100 EXP DUP2 SLOAD DUP2 PUSH20 0xFFFFFFFFFFFFFFFFFFFFFFFFFFFFFFFFFFFFFFFF MUL NOT AND SWAP1 DUP4 PUSH20 0xFFFFFFFFFFFFFFFFFFFFFFFFFFFFFFFFFFFFFFFF AND MUL OR SWAP1 SSTORE POP DUP2 PUSH20 0xFFFFFFFFFFFFFFFFFFFFFFFFFFFFFFFFFFFFFFFF AND DUP2 PUSH20 0xFFFFFFFFFFFFFFFFFFFFFFFFFFFFFFFFFFFFFFFF AND PUSH32 0x8BE0079C531659141344CD1FD0A4F28419497F9722A3DAAFE3B4186F6B6457E0 PUSH1 0x40 MLOAD PUSH1 0x40 MLOAD DUP1 SWAP2 SUB SWAP1 LOG3 POP POP JUMP JUMPDEST PUSH1 0x2 PUSH1 0x1 SLOAD SUB PUSH2 0x122A JUMPI PUSH1 0x40 MLOAD PUSH32 0x8C379A000000000000000000000000000000000000000000000000000000000 DUP2 MSTORE PUSH1 0x4 ADD PUSH2 0x1221 SWAP1 PUSH2 0x246C JUMP JUMPDEST PUSH1 0x40 MLOAD DUP1 SWAP2 SUB SWAP1 REVERT JUMPDEST PUSH1 0x2 PUSH1 0x1 DUP2 SWAP1 SSTORE POP JUMP JUMPDEST PUSH1 0x1 DUP1 DUP2 SWAP1 SSTORE POP JUMP JUMPDEST PUSH1 0x0 CALLER SWAP1 POP SWAP1 JUMP JUMPDEST PUSH1 0x0 PUSH1 0x40 MLOAD SWAP1 POP SWAP1 JUMP JUMPDEST PUSH1 0x0 DUP1 REVERT JUMPDEST PUSH1 0x0 DUP1 REVERT JUMPDEST PUSH1 0x0 DUP2 SWAP1 POP SWAP2 SWAP1 POP JUMP JUMPDEST PUSH2 0x126C DUP2 PUSH2 0x1259 JUMP JUMPDEST DUP2 EQ PUSH2 0x1277 JUMPI PUSH1 0x0 DUP1 REVERT JUMPDEST POP JUMP JUMPDEST PUSH1 0x0 DUP2 CALLDATALOAD SWAP1 POP PUSH2 0x1289 DUP2 PUSH2 0x1263 JUMP JUMPDEST SWAP3 SWAP2 POP POP JUMP JUMPDEST PUSH1 0x0 PUSH1 0x20 DUP3 DUP5 SUB SLT ISZERO PUSH2 0x12A5 JUMPI PUSH2 0x12A4 PUSH2 0x124F JUMP JUMPDEST JUMPDEST PUSH1 0x0 PUSH2 0x12B3 DUP5 DUP3 DUP6 ADD PUSH2 0x127A JUMP JUMPDEST SWAP2 POP POP SWAP3 SWAP2 POP POP JUMP JUMPDEST PUSH2 0x12C5 DUP2 PUSH2 0x1259 JUMP JUMPDEST DUP3 MSTORE POP POP JUMP JUMPDEST PUSH1 0x0 PUSH1 0x80 DUP3 ADD SWAP1 POP PUSH2 0x12E0 PUSH1 0x0 DUP4 ADD DUP8 PUSH2 0x12BC JUMP JUMPDEST PUSH2 0x12ED PUSH1 0x20 DUP4 ADD DUP7 PUSH2 0x12BC JUMP JUMPDEST PUSH2 0x12FA PUSH1 0x40 DUP4 ADD DUP6 PUSH2 0x12BC JUMP JUMPDEST PUSH2 0x1307 PUSH1 0x60 DUP4 ADD DUP5 PUSH2 0x12BC JUMP JUMPDEST SWAP6 SWAP5 POP POP POP POP POP JUMP JUMPDEST PUSH1 0x0 DUP1 REVERT JUMPDEST PUSH1 0x0 DUP1 REVERT JUMPDEST PUSH1 0x0 PUSH1 0x1F NOT PUSH1 0x1F DUP4 ADD AND SWAP1 POP SWAP2 SWAP1 POP JUMP JUMPDEST PUSH32 0x4E487B7100000000000000000000000000000000000000000000000000000000 PUSH1 0x0 MSTORE PUSH1 0x41 PUSH1 0x4 MSTORE PUSH1 0x24 PUSH1 0x0 REVERT JUMPDEST PUSH2 0x1363 DUP3 PUSH2 0x131A JUMP JUMPDEST DUP2 ADD DUP2 DUP2 LT PUSH8 0xFFFFFFFFFFFFFFFF DUP3 GT OR ISZERO PUSH2 0x1382 JUMPI PUSH2 0x1381 PUSH2 0x132B JUMP JUMPDEST JUMPDEST DUP1 PUSH1 0x40 MSTORE POP POP POP JUMP JUMPDEST PUSH1 0x0 PUSH2 0x1395 PUSH2 0x1245 JUMP JUMPDEST SWAP1 POP PUSH2 0x13A1 DUP3 DUP3 PUSH2 0x135A JUMP JUMPDEST SWAP2 SWAP1 POP JUMP JUMPDEST PUSH1 0x0 PUSH8 0xFFFFFFFFFFFFFFFF DUP3 GT ISZERO PUSH2 0x13C1 JUMPI PUSH2 0x13C0 PUSH2 0x132B JUMP JUMPDEST JUMPDEST PUSH2 0x13CA DUP3 PUSH2 0x131A JUMP JUMPDEST SWAP1 POP PUSH1 0x20 DUP2 ADD SWAP1 POP SWAP2 SWAP1 POP JUMP JUMPDEST DUP3 DUP2 DUP4 CALLDATACOPY PUSH1 0x0 DUP4 DUP4 ADD MSTORE POP POP POP JUMP JUMPDEST PUSH1 0x0 PUSH2 0x13F9 PUSH2 0x13F4 DUP5 PUSH2 0x13A6 JUMP JUMPDEST PUSH2 0x138B JUMP JUMPDEST SWAP1 POP DUP3 DUP2 MSTORE PUSH1 0x20 DUP2 ADD DUP5 DUP5 DUP5 ADD GT ISZERO PUSH2 0x1415 JUMPI PUSH2 0x1414 PUSH2 0x1315 JUMP JUMPDEST JUMPDEST PUSH2 0x1420 DUP5 DUP3 DUP6 PUSH2 0x13D7 JUMP JUMPDEST POP SWAP4 SWAP3 POP POP POP JUMP JUMPDEST PUSH1 0x0 DUP3 PUSH1 0x1F DUP4 ADD SLT PUSH2 0x143D JUMPI PUSH2 0x143C PUSH2 0x1310 JUMP JUMPDEST JUMPDEST DUP2 CALLDATALOAD PUSH2 0x144D DUP5 DUP3 PUSH1 0x20 DUP7 ADD PUSH2 0x13E6 JUMP JUMPDEST SWAP2 POP POP SWAP3 SWAP2 POP POP JUMP JUMPDEST PUSH1 0x0 DUP1 PUSH1 0x0 DUP1 PUSH1 0x0 DUP1 PUSH1 0x0 PUSH1 0xE0 DUP9 DUP11 SUB SLT ISZERO PUSH2 0x1475 JUMPI PUSH2 0x1474 PUSH2 0x124F JUMP JUMPDEST JUMPDEST PUSH1 0x0 PUSH2 0x1483 DUP11 DUP3 DUP12 ADD PUSH2 0x127A JUMP JUMPDEST SWAP8 POP POP PUSH1 0x20 DUP9 ADD CALLDATALOAD PUSH8 0xFFFFFFFFFFFFFFFF DUP2 GT ISZERO PUSH2 0x14A4 JUMPI PUSH2 0x14A3 PUSH2 0x1254 JUMP JUMPDEST JUMPDEST PUSH2 0x14B0 DUP11 DUP3 DUP12 ADD PUSH2 0x1428 JUMP JUMPDEST SWAP7 POP POP PUSH1 0x40 PUSH2 0x14C1 DUP11 DUP3 DUP12 ADD PUSH2 0x127A JUMP JUMPDEST SWAP6 POP POP PUSH1 0x60 PUSH2 0x14D2 DUP11 DUP3 DUP12 ADD PUSH2 0x127A JUMP JUMPDEST SWAP5 POP POP PUSH1 0x80 PUSH2 0x14E3 DUP11 DUP3 DUP12 ADD PUSH2 0x127A JUMP JUMPDEST SWAP4 POP POP PUSH1 0xA0 PUSH2 0x14F4 DUP11 DUP3 DUP12 ADD PUSH2 0x127A JUMP JUMPDEST SWAP3 POP POP PUSH1 0xC0 PUSH2 0x1505 DUP11 DUP3 DUP12 ADD PUSH2 0x127A JUMP JUMPDEST SWAP2 POP POP SWAP3 SWAP6 SWAP9 SWAP2 SWAP5 SWAP8 POP SWAP3 SWAP6 POP JUMP JUMPDEST PUSH1 0x0 DUP1 PUSH1 0x0 PUSH1 0x60 DUP5 DUP7 SUB SLT ISZERO PUSH2 0x152D JUMPI PUSH2 0x152C PUSH2 0x124F JUMP JUMPDEST JUMPDEST PUSH1 0x0 PUSH2 0x153B DUP7 DUP3 DUP8 ADD PUSH2 0x127A JUMP JUMPDEST SWAP4 POP POP PUSH1 0x20 PUSH2 0x154C DUP7 DUP3 DUP8 ADD PUSH2 0x127A JUMP JUMPDEST SWAP3 POP POP PUSH1 0x40 PUSH2 0x155D DUP7 DUP3 DUP8 ADD PUSH2 0x127A JUMP JUMPDEST SWAP2 POP POP SWAP3 POP SWAP3 POP SWAP3 JUMP JUMPDEST PUSH1 0x0 DUP1 PUSH1 0x40 DUP4 DUP6 SUB SLT ISZERO PUSH2 0x157E JUMPI PUSH2 0x157D PUSH2 0x124F JUMP JUMPDEST JUMPDEST PUSH1 0x0 PUSH2 0x158C DUP6 DUP3 DUP7 ADD PUSH2 0x127A JUMP JUMPDEST SWAP3 POP POP PUSH1 0x20 PUSH2 0x159D DUP6 DUP3 DUP7 ADD PUSH2 0x127A JUMP JUMPDEST SWAP2 POP POP SWAP3 POP SWAP3 SWAP1 POP JUMP JUMPDEST PUSH1 0x0 PUSH20 0xFFFFFFFFFFFFFFFFFFFFFFFFFFFFFFFFFFFFFFFF DUP3 AND SWAP1 POP SWAP2 SWAP1 POP JUMP JUMPDEST PUSH1 0x0 PUSH2 0x15D2 DUP3 PUSH2 0x15A7 JUMP JUMPDEST SWAP1 POP SWAP2 SWAP1 POP JUMP JUMPDEST PUSH2 0x15E2 DUP2 PUSH2 0x15C7 JUMP JUMPDEST DUP3 MSTORE POP POP JUMP JUMPDEST PUSH1 0x0 PUSH1 0x20 DUP3 ADD SWAP1 POP PUSH2 0x15FD PUSH1 0x0 DUP4 ADD DUP5 PUSH2 0x15D9 JUMP JUMPDEST SWAP3 SWAP2 POP POP JUMP JUMPDEST PUSH1 0x0 DUP2 MLOAD SWAP1 POP SWAP2 SWAP1 POP JUMP JUMPDEST PUSH1 0x0 DUP3 DUP3 MSTORE PUSH1 0x20 DUP3 ADD SWAP1 POP SWAP3 SWAP2 POP POP JUMP JUMPDEST PUSH1 0x0 DUP2 SWAP1 POP PUSH1 0x20 DUP3 ADD SWAP1 POP SWAP2 SWAP1 POP JUMP JUMPDEST PUSH2 0x1638 DUP2 PUSH2 0x1259 JUMP JUMPDEST DUP3 MSTORE POP POP JUMP JUMPDEST PUSH1 0x0 DUP2 MLOAD SWAP1 POP SWAP2 SWAP1 POP JUMP JUMPDEST PUSH1 0x0 DUP3 DUP3 MSTORE PUSH1 0x20 DUP3 ADD SWAP1 POP SWAP3 SWAP2 POP POP JUMP JUMPDEST PUSH1 0x0 JUMPDEST DUP4 DUP2 LT ISZERO PUSH2 0x1678 JUMPI DUP1 DUP3 ADD MLOAD DUP2 DUP5 ADD MSTORE PUSH1 0x20 DUP2 ADD SWAP1 POP PUSH2 0x165D JUMP JUMPDEST PUSH1 0x0 DUP5 DUP5 ADD MSTORE POP POP POP POP JUMP JUMPDEST PUSH1 0x0 PUSH2 0x168F DUP3 PUSH2 0x163E JUMP JUMPDEST PUSH2 0x1699 DUP2 DUP6 PUSH2 0x1649 JUMP JUMPDEST SWAP4 POP PUSH2 0x16A9 DUP2 DUP6 PUSH1 0x20 DUP7 ADD PUSH2 0x165A JUMP JUMPDEST PUSH2 0x16B2 DUP2 PUSH2 0x131A JUMP JUMPDEST DUP5 ADD SWAP2 POP POP SWAP3 SWAP2 POP POP JUMP JUMPDEST PUSH1 0x0 DUP2 ISZERO ISZERO SWAP1 POP SWAP2 SWAP1 POP JUMP JUMPDEST PUSH2 0x16D2 DUP2 PUSH2 0x16BD JUMP JUMPDEST DUP3 MSTORE POP POP JUMP JUMPDEST PUSH1 0x0 PUSH2 0x140 DUP4 ADD PUSH1 0x0 DUP4 ADD MLOAD PUSH2 0x16F1 PUSH1 0x0 DUP7 ADD DUP3 PUSH2 0x162F JUMP JUMPDEST POP PUSH1 0x20 DUP4 ADD MLOAD DUP5 DUP3 SUB PUSH1 0x20 DUP7 ADD MSTORE PUSH2 0x1709 DUP3 DUP3 PUSH2 0x1684 JUMP JUMPDEST SWAP2 POP POP PUSH1 0x40 DUP4 ADD MLOAD PUSH2 0x171E PUSH1 0x40 DUP7 ADD DUP3 PUSH2 0x162F JUMP JUMPDEST POP PUSH1 0x60 DUP4 ADD MLOAD PUSH2 0x1731 PUSH1 0x60 DUP7 ADD DUP3 PUSH2 0x162F JUMP JUMPDEST POP PUSH1 0x80 DUP4 ADD MLOAD PUSH2 0x1744 PUSH1 0x80 DUP7 ADD DUP3 PUSH2 0x162F JUMP JUMPDEST POP PUSH1 0xA0 DUP4 ADD MLOAD PUSH2 0x1757 PUSH1 0xA0 DUP7 ADD DUP3 PUSH2 0x162F JUMP JUMPDEST POP PUSH1 0xC0 DUP4 ADD MLOAD PUSH2 0x176A PUSH1 0xC0 DUP7 ADD DUP3 PUSH2 0x16C9 JUMP JUMPDEST POP PUSH1 0xE0 DUP4 ADD MLOAD PUSH2 0x177D PUSH1 0xE0 DUP7 ADD DUP3 PUSH2 0x162F JUMP JUMPDEST POP PUSH2 0x100 DUP4 ADD MLOAD PUSH2 0x1792 PUSH2 0x100 DUP7 ADD DUP3 PUSH2 0x162F JUMP JUMPDEST POP PUSH2 0x120 DUP4 ADD MLOAD PUSH2 0x17A7 PUSH2 0x120 DUP7 ADD DUP3 PUSH2 0x162F JUMP JUMPDEST POP DUP1 SWAP2 POP POP SWAP3 SWAP2 POP POP JUMP JUMPDEST PUSH1 0x0 PUSH2 0x17BE DUP4 DUP4 PUSH2 0x16D8 JUMP JUMPDEST SWAP1 POP SWAP3 SWAP2 POP POP JUMP JUMPDEST PUSH1 0x0 PUSH1 0x20 DUP3 ADD SWAP1 POP SWAP2 SWAP1 POP JUMP JUMPDEST PUSH1 0x0 PUSH2 0x17DE DUP3 PUSH2 0x1603 JUMP JUMPDEST PUSH2 0x17E8 DUP2 DUP6 PUSH2 0x160E JUMP JUMPDEST SWAP4 POP DUP4 PUSH1 0x20 DUP3 MUL DUP6 ADD PUSH2 0x17FA DUP6 PUSH2 0x161F JUMP JUMPDEST DUP1 PUSH1 0x0 JUMPDEST DUP6 DUP2 LT ISZERO PUSH2 0x1836 JUMPI DUP5 DUP5 SUB DUP10 MSTORE DUP2 MLOAD PUSH2 0x1817 DUP6 DUP3 PUSH2 0x17B2 JUMP JUMPDEST SWAP5 POP PUSH2 0x1822 DUP4 PUSH2 0x17C6 JUMP JUMPDEST SWAP3 POP PUSH1 0x20 DUP11 ADD SWAP10 POP POP PUSH1 0x1 DUP2 ADD SWAP1 POP PUSH2 0x17FE JUMP JUMPDEST POP DUP3 SWAP8 POP DUP8 SWAP6 POP POP POP POP POP POP SWAP3 SWAP2 POP POP JUMP JUMPDEST PUSH1 0x0 PUSH1 0x20 DUP3 ADD SWAP1 POP DUP2 DUP2 SUB PUSH1 0x0 DUP4 ADD MSTORE PUSH2 0x1862 DUP2 DUP5 PUSH2 0x17D3 JUMP JUMPDEST SWAP1 POP SWAP3 SWAP2 POP POP JUMP JUMPDEST PUSH2 0x1873 DUP2 PUSH2 0x15C7 JUMP JUMPDEST DUP2 EQ PUSH2 0x187E JUMPI PUSH1 0x0 DUP1 REVERT JUMPDEST POP JUMP JUMPDEST PUSH1 0x0 DUP2 CALLDATALOAD SWAP1 POP PUSH2 0x1890 DUP2 PUSH2 0x186A JUMP JUMPDEST SWAP3 SWAP2 POP POP JUMP JUMPDEST PUSH1 0x0 DUP1 PUSH1 0x40 DUP4 DUP6 SUB SLT ISZERO PUSH2 0x18AD JUMPI PUSH2 0x18AC PUSH2 0x124F JUMP JUMPDEST JUMPDEST PUSH1 0x0 PUSH2 0x18BB DUP6 DUP3 DUP7 ADD PUSH2 0x1881 JUMP JUMPDEST SWAP3 POP POP PUSH1 0x20 PUSH2 0x18CC DUP6 DUP3 DUP7 ADD PUSH2 0x127A JUMP JUMPDEST SWAP2 POP POP SWAP3 POP SWAP3 SWAP1 POP JUMP JUMPDEST PUSH1 0x0 PUSH1 0x20 DUP3 ADD SWAP1 POP PUSH2 0x18EB PUSH1 0x0 DUP4 ADD DUP5 PUSH2 0x12BC JUMP JUMPDEST SWAP3 SWAP2 POP POP JUMP JUMPDEST PUSH1 0x0 DUP2 SWAP1 POP SWAP2 SWAP1 POP JUMP JUMPDEST PUSH1 0x0 PUSH2 0x1916 PUSH2 0x1911 PUSH2 0x190C DUP5 PUSH2 0x15A7 JUMP JUMPDEST PUSH2 0x18F1 JUMP JUMPDEST PUSH2 0x15A7 JUMP JUMPDEST SWAP1 POP SWAP2 SWAP1 POP JUMP JUMPDEST PUSH1 0x0 PUSH2 0x1928 DUP3 PUSH2 0x18FB JUMP JUMPDEST SWAP1 POP SWAP2 SWAP1 POP JUMP JUMPDEST PUSH1 0x0 PUSH2 0x193A DUP3 PUSH2 0x191D JUMP JUMPDEST SWAP1 POP SWAP2 SWAP1 POP JUMP JUMPDEST PUSH2 0x194A DUP2 PUSH2 0x192F JUMP JUMPDEST DUP3 MSTORE POP POP JUMP JUMPDEST PUSH1 0x0 PUSH1 0x20 DUP3 ADD SWAP1 POP PUSH2 0x1965 PUSH1 0x0 DUP4 ADD DUP5 PUSH2 0x1941 JUMP JUMPDEST SWAP3 SWAP2 POP POP JUMP JUMPDEST PUSH1 0x0 PUSH1 0x20 DUP3 DUP5 SUB SLT ISZERO PUSH2 0x1981 JUMPI PUSH2 0x1980 PUSH2 0x124F JUMP JUMPDEST JUMPDEST PUSH1 0x0 PUSH2 0x198F DUP5 DUP3 DUP6 ADD PUSH2 0x1881 JUMP JUMPDEST SWAP2 POP POP SWAP3 SWAP2 POP POP JUMP JUMPDEST PUSH1 0x0 DUP3 DUP3 MSTORE PUSH1 0x20 DUP3 ADD SWAP1 POP SWAP3 SWAP2 POP POP JUMP JUMPDEST PUSH32 0x67616D6520646F6573206E6F7420657869737400000000000000000000000000 PUSH1 0x0 DUP3 ADD MSTORE POP JUMP JUMPDEST PUSH1 0x0 PUSH2 0x19DF PUSH1 0x13 DUP4 PUSH2 0x1998 JUMP JUMPDEST SWAP2 POP PUSH2 0x19EA DUP3 PUSH2 0x19A9 JUMP JUMPDEST PUSH1 0x20 DUP3 ADD SWAP1 POP SWAP2 SWAP1 POP JUMP JUMPDEST PUSH1 0x0 PUSH1 0x20 DUP3 ADD SWAP1 POP DUP2 DUP2 SUB PUSH1 0x0 DUP4 ADD MSTORE PUSH2 0x1A0E DUP2 PUSH2 0x19D2 JUMP JUMPDEST SWAP1 POP SWAP2 SWAP1 POP JUMP JUMPDEST PUSH32 0x4E487B7100000000000000000000000000000000000000000000000000000000 PUSH1 0x0 MSTORE PUSH1 0x22 PUSH1 0x4 MSTORE PUSH1 0x24 PUSH1 0x0 REVERT JUMPDEST PUSH1 0x0 PUSH1 0x2 DUP3 DIV SWAP1 POP PUSH1 0x1 DUP3 AND DUP1 PUSH2 0x1A5C JUMPI PUSH1 0x7F DUP3 AND SWAP2 POP JUMPDEST PUSH1 0x20 DUP3 LT DUP2 SUB PUSH2 0x1A6F JUMPI PUSH2 0x1A6E PUSH2 0x1A15 JUMP JUMPDEST JUMPDEST POP SWAP2 SWAP1 POP JUMP JUMPDEST PUSH1 0x0 DUP2 SWAP1 POP DUP2 PUSH1 0x0 MSTORE PUSH1 0x20 PUSH1 0x0 KECCAK256 SWAP1 POP SWAP2 SWAP1 POP JUMP JUMPDEST PUSH1 0x0 PUSH1 0x20 PUSH1 0x1F DUP4 ADD DIV SWAP1 POP SWAP2 SWAP1 POP JUMP JUMPDEST PUSH1 0x0 DUP3 DUP3 SHL SWAP1 POP SWAP3 SWAP2 POP POP JUMP JUMPDEST PUSH1 0x0 PUSH1 0x8 DUP4 MUL PUSH2 0x1AD7 PUSH32 0xFFFFFFFFFFFFFFFFFFFFFFFFFFFFFFFFFFFFFFFFFFFFFFFFFFFFFFFFFFFFFFFF DUP3 PUSH2 0x1A9A JUMP JUMPDEST PUSH2 0x1AE1 DUP7 DUP4 PUSH2 0x1A9A JUMP JUMPDEST SWAP6 POP DUP1 NOT DUP5 AND SWAP4 POP DUP1 DUP7 AND DUP5 OR SWAP3 POP POP POP SWAP4 SWAP3 POP POP POP JUMP JUMPDEST PUSH1 0x0 PUSH2 0x1B14 PUSH2 0x1B0F PUSH2 0x1B0A DUP5 PUSH2 0x1259 JUMP JUMPDEST PUSH2 0x18F1 JUMP JUMPDEST PUSH2 0x1259 JUMP JUMPDEST SWAP1 POP SWAP2 SWAP1 POP JUMP JUMPDEST PUSH1 0x0 DUP2 SWAP1 POP SWAP2 SWAP1 POP JUMP JUMPDEST PUSH2 0x1B2E DUP4 PUSH2 0x1AF9 JUMP JUMPDEST PUSH2 0x1B42 PUSH2 0x1B3A DUP3 PUSH2 0x1B1B JUMP JUMPDEST DUP5 DUP5 SLOAD PUSH2 0x1AA7 JUMP JUMPDEST DUP3 SSTORE POP POP POP POP JUMP JUMPDEST PUSH1 0x0 SWAP1 JUMP JUMPDEST PUSH2 0x1B57 PUSH2 0x1B4A JUMP JUMPDEST PUSH2 0x1B62 DUP2 DUP5 DUP5 PUSH2 0x1B25 JUMP JUMPDEST POP POP POP JUMP JUMPDEST JUMPDEST DUP2 DUP2 LT ISZERO PUSH2 0x1B86 JUMPI PUSH2 0x1B7B PUSH1 0x0 DUP3 PUSH2 0x1B4F JUMP JUMPDEST PUSH1 0x1 DUP2 ADD SWAP1 POP PUSH2 0x1B68 JUMP JUMPDEST POP POP JUMP JUMPDEST PUSH1 0x1F DUP3 GT ISZERO PUSH2 0x1BCB JUMPI PUSH2 0x1B9C DUP2 PUSH2 0x1A75 JUMP JUMPDEST PUSH2 0x1BA5 DUP5 PUSH2 0x1A8A JUMP JUMPDEST DUP2 ADD PUSH1 0x20 DUP6 LT ISZERO PUSH2 0x1BB4 JUMPI DUP2 SWAP1 POP JUMPDEST PUSH2 0x1BC8 PUSH2 0x1BC0 DUP6 PUSH2 0x1A8A JUMP JUMPDEST DUP4 ADD DUP3 PUSH2 0x1B67 JUMP JUMPDEST POP POP JUMPDEST POP POP POP JUMP JUMPDEST PUSH1 0x0 DUP3 DUP3 SHR SWAP1 POP SWAP3 SWAP2 POP POP JUMP JUMPDEST PUSH1 0x0 PUSH2 0x1BEE PUSH1 0x0 NOT DUP5 PUSH1 0x8 MUL PUSH2 0x1BD0 JUMP JUMPDEST NOT DUP1 DUP4 AND SWAP2 POP POP SWAP3 SWAP2 POP POP JUMP JUMPDEST PUSH1 0x0 PUSH2 0x1C07 DUP4 DUP4 PUSH2 0x1BDD JUMP JUMPDEST SWAP2 POP DUP3 PUSH1 0x2 MUL DUP3 OR SWAP1 POP SWAP3 SWAP2 POP POP JUMP JUMPDEST PUSH2 0x1C20 DUP3 PUSH2 0x163E JUMP JUMPDEST PUSH8 0xFFFFFFFFFFFFFFFF DUP2 GT ISZERO PUSH2 0x1C39 JUMPI PUSH2 0x1C38 PUSH2 0x132B JUMP JUMPDEST JUMPDEST PUSH2 0x1C43 DUP3 SLOAD PUSH2 0x1A44 JUMP JUMPDEST PUSH2 0x1C4E DUP3 DUP3 DUP6 PUSH2 0x1B8A JUMP JUMPDEST PUSH1 0x0 PUSH1 0x20 SWAP1 POP PUSH1 0x1F DUP4 GT PUSH1 0x1 DUP2 EQ PUSH2 0x1C81 JUMPI PUSH1 0x0 DUP5 ISZERO PUSH2 0x1C6F JUMPI DUP3 DUP8 ADD MLOAD SWAP1 POP JUMPDEST PUSH2 0x1C79 DUP6 DUP3 PUSH2 0x1BFB JUMP JUMPDEST DUP7 SSTORE POP PUSH2 0x1CE1 JUMP JUMPDEST PUSH1 0x1F NOT DUP5 AND PUSH2 0x1C8F DUP7 PUSH2 0x1A75 JUMP JUMPDEST PUSH1 0x0 JUMPDEST DUP3 DUP2 LT ISZERO PUSH2 0x1CB7 JUMPI DUP5 DUP10 ADD MLOAD DUP3 SSTORE PUSH1 0x1 DUP3 ADD SWAP2 POP PUSH1 0x20 DUP6 ADD SWAP5 POP PUSH1 0x20 DUP2 ADD SWAP1 POP PUSH2 0x1C92 JUMP JUMPDEST DUP7 DUP4 LT ISZERO PUSH2 0x1CD4 JUMPI DUP5 DUP10 ADD MLOAD PUSH2 0x1CD0 PUSH1 0x1F DUP10 AND DUP3 PUSH2 0x1BDD JUMP JUMPDEST DUP4 SSTORE POP JUMPDEST PUSH1 0x1 PUSH1 0x2 DUP9 MUL ADD DUP9 SSTORE POP POP POP JUMPDEST POP POP POP POP POP POP JUMP JUMPDEST PUSH32 0x4E487B7100000000000000000000000000000000000000000000000000000000 PUSH1 0x0 MSTORE PUSH1 0x11 PUSH1 0x4 MSTORE PUSH1 0x24 PUSH1 0x0 REVERT JUMPDEST PUSH1 0x0 PUSH2 0x1D23 DUP3 PUSH2 0x1259 JUMP JUMPDEST SWAP2 POP PUSH32 0xFFFFFFFFFFFFFFFFFFFFFFFFFFFFFFFFFFFFFFFFFFFFFFFFFFFFFFFFFFFFFFFF DUP3 SUB PUSH2 0x1D55 JUMPI PUSH2 0x1D54 PUSH2 0x1CE9 JUMP JUMPDEST JUMPDEST PUSH1 0x1 DUP3 ADD SWAP1 POP SWAP2 SWAP1 POP JUMP JUMPDEST PUSH32 0x4E487B7100000000000000000000000000000000000000000000000000000000 PUSH1 0x0 MSTORE PUSH1 0x32 PUSH1 0x4 MSTORE PUSH1 0x24 PUSH1 0x0 REVERT JUMPDEST PUSH32 0x70726F6475637420646F6573206E6F7420657869737400000000000000000000 PUSH1 0x0 DUP3 ADD MSTORE POP JUMP JUMPDEST PUSH1 0x0 PUSH2 0x1DC5 PUSH1 0x16 DUP4 PUSH2 0x1998 JUMP JUMPDEST SWAP2 POP PUSH2 0x1DD0 DUP3 PUSH2 0x1D8F JUMP JUMPDEST PUSH1 0x20 DUP3 ADD SWAP1 POP SWAP2 SWAP1 POP JUMP JUMPDEST PUSH1 0x0 PUSH1 0x20 DUP3 ADD SWAP1 POP DUP2 DUP2 SUB PUSH1 0x0 DUP4 ADD MSTORE PUSH2 0x1DF4 DUP2 PUSH2 0x1DB8 JUMP JUMPDEST SWAP1 POP SWAP2 SWAP1 POP JUMP JUMPDEST PUSH1 0x0 PUSH2 0x1E06 DUP3 PUSH2 0x1259 JUMP JUMPDEST SWAP2 POP PUSH2 0x1E11 DUP4 PUSH2 0x1259 JUMP JUMPDEST SWAP3 POP DUP3 DUP3 ADD SWAP1 POP DUP1 DUP3 GT ISZERO PUSH2 0x1E29 JUMPI PUSH2 0x1E28 PUSH2 0x1CE9 JUMP JUMPDEST JUMPDEST SWAP3 SWAP2 POP POP JUMP JUMPDEST PUSH1 0x0 PUSH1 0x60 DUP3 ADD SWAP1 POP PUSH2 0x1E44 PUSH1 0x0 DUP4 ADD DUP7 PUSH2 0x15D9 JUMP JUMPDEST PUSH2 0x1E51 PUSH1 0x20 DUP4 ADD DUP6 PUSH2 0x15D9 JUMP JUMPDEST PUSH2 0x1E5E PUSH1 0x40 DUP4 ADD DUP5 PUSH2 0x12BC JUMP JUMPDEST SWAP5 SWAP4 POP POP POP POP JUMP JUMPDEST PUSH2 0x1E6F DUP2 PUSH2 0x16BD JUMP JUMPDEST DUP2 EQ PUSH2 0x1E7A JUMPI PUSH1 0x0 DUP1 REVERT JUMPDEST POP JUMP JUMPDEST PUSH1 0x0 DUP2 MLOAD SWAP1 POP PUSH2 0x1E8C DUP2 PUSH2 0x1E66 JUMP JUMPDEST SWAP3 SWAP2 POP POP JUMP JUMPDEST PUSH1 0x0 PUSH1 0x20 DUP3 DUP5 SUB SLT ISZERO PUSH2 0x1EA8 JUMPI PUSH2 0x1EA7 PUSH2 0x124F JUMP JUMPDEST JUMPDEST PUSH1 0x0 PUSH2 0x1EB6 DUP5 DUP3 DUP6 ADD PUSH2 0x1E7D JUMP JUMPDEST SWAP2 POP POP SWAP3 SWAP2 POP POP JUMP JUMPDEST PUSH1 0x0 PUSH1 0x40 DUP3 ADD SWAP1 POP PUSH2 0x1ED4 PUSH1 0x0 DUP4 ADD DUP6 PUSH2 0x15D9 JUMP JUMPDEST PUSH2 0x1EE1 PUSH1 0x20 DUP4 ADD DUP5 PUSH2 0x12BC JUMP JUMPDEST SWAP4 SWAP3 POP POP POP JUMP JUMPDEST PUSH32 0x70726F6475637420696E2073746F726500000000000000000000000000000000 PUSH1 0x0 DUP3 ADD MSTORE POP JUMP JUMPDEST PUSH1 0x0 PUSH2 0x1F1E PUSH1 0x10 DUP4 PUSH2 0x1998 JUMP JUMPDEST SWAP2 POP PUSH2 0x1F29 DUP3 PUSH2 0x1EE8 JUMP JUMPDEST PUSH1 0x20 DUP3 ADD SWAP1 POP SWAP2 SWAP1 POP JUMP JUMPDEST PUSH1 0x0 PUSH1 0x20 DUP3 ADD SWAP1 POP DUP2 DUP2 SUB PUSH1 0x0 DUP4 ADD MSTORE PUSH2 0x1F4D DUP2 PUSH2 0x1F11 JUMP JUMPDEST SWAP1 POP SWAP2 SWAP1 POP JUMP JUMPDEST PUSH32 0x67616D65206E6F7420656E646564000000000000000000000000000000000000 PUSH1 0x0 DUP3 ADD MSTORE POP JUMP JUMPDEST PUSH1 0x0 PUSH2 0x1F8A PUSH1 0xE DUP4 PUSH2 0x1998 JUMP JUMPDEST SWAP2 POP PUSH2 0x1F95 DUP3 PUSH2 0x1F54 JUMP JUMPDEST PUSH1 0x20 DUP3 ADD SWAP1 POP SWAP2 SWAP1 POP JUMP JUMPDEST PUSH1 0x0 PUSH1 0x20 DUP3 ADD SWAP1 POP DUP2 DUP2 SUB PUSH1 0x0 DUP4 ADD MSTORE PUSH2 0x1FB9 DUP2 PUSH2 0x1F7D JUMP JUMPDEST SWAP1 POP SWAP2 SWAP1 POP JUMP JUMPDEST PUSH32 0x70726F64756374206E6F7420696E2073746F7265000000000000000000000000 PUSH1 0x0 DUP3 ADD MSTORE POP JUMP JUMPDEST PUSH1 0x0 PUSH2 0x1FF6 PUSH1 0x14 DUP4 PUSH2 0x1998 JUMP JUMPDEST SWAP2 POP PUSH2 0x2001 DUP3 PUSH2 0x1FC0 JUMP JUMPDEST PUSH1 0x20 DUP3 ADD SWAP1 POP SWAP2 SWAP1 POP JUMP JUMPDEST PUSH1 0x0 PUSH1 0x20 DUP3 ADD SWAP1 POP DUP2 DUP2 SUB PUSH1 0x0 DUP4 ADD MSTORE PUSH2 0x2025 DUP2 PUSH2 0x1FE9 JUMP JUMPDEST SWAP1 POP SWAP2 SWAP1 POP JUMP JUMPDEST PUSH32 0x6E6F20636F6E7472616374730000000000000000000000000000000000000000 PUSH1 0x0 DUP3 ADD MSTORE POP JUMP JUMPDEST PUSH1 0x0 PUSH2 0x2062 PUSH1 0xC DUP4 PUSH2 0x1998 JUMP JUMPDEST SWAP2 POP PUSH2 0x206D DUP3 PUSH2 0x202C JUMP JUMPDEST PUSH1 0x20 DUP3 ADD SWAP1 POP SWAP2 SWAP1 POP JUMP JUMPDEST PUSH1 0x0 PUSH1 0x20 DUP3 ADD SWAP1 POP DUP2 DUP2 SUB PUSH1 0x0 DUP4 ADD MSTORE PUSH2 0x2091 DUP2 PUSH2 0x2055 JUMP JUMPDEST SWAP1 POP SWAP2 SWAP1 POP JUMP JUMPDEST PUSH32 0x4E487B7100000000000000000000000000000000000000000000000000000000 PUSH1 0x0 MSTORE PUSH1 0x12 PUSH1 0x4 MSTORE PUSH1 0x24 PUSH1 0x0 REVERT JUMPDEST PUSH1 0x0 PUSH2 0x20D2 DUP3 PUSH2 0x1259 JUMP JUMPDEST SWAP2 POP PUSH2 0x20DD DUP4 PUSH2 0x1259 JUMP JUMPDEST SWAP3 POP DUP3 PUSH2 0x20ED JUMPI PUSH2 0x20EC PUSH2 0x2098 JUMP JUMPDEST JUMPDEST DUP3 DUP3 DIV SWAP1 POP SWAP3 SWAP2 POP POP JUMP JUMPDEST PUSH1 0x0 PUSH2 0x2103 DUP3 PUSH2 0x1259 JUMP JUMPDEST SWAP2 POP PUSH2 0x210E DUP4 PUSH2 0x1259 JUMP JUMPDEST SWAP3 POP DUP3 DUP3 MUL PUSH2 0x211C DUP2 PUSH2 0x1259 JUMP JUMPDEST SWAP2 POP DUP3 DUP3 DIV DUP5 EQ DUP4 ISZERO OR PUSH2 0x2133 JUMPI PUSH2 0x2132 PUSH2 0x1CE9 JUMP JUMPDEST JUMPDEST POP SWAP3 SWAP2 POP POP JUMP JUMPDEST PUSH32 0x4F776E61626C653A206E6577206F776E657220697320746865207A65726F2061 PUSH1 0x0 DUP3 ADD MSTORE PUSH32 0x6464726573730000000000000000000000000000000000000000000000000000 PUSH1 0x20 DUP3 ADD MSTORE POP JUMP JUMPDEST PUSH1 0x0 PUSH2 0x2196 PUSH1 0x26 DUP4 PUSH2 0x1998 JUMP JUMPDEST SWAP2 POP PUSH2 0x21A1 DUP3 PUSH2 0x213A JUMP JUMPDEST PUSH1 0x40 DUP3 ADD SWAP1 POP SWAP2 SWAP1 POP JUMP JUMPDEST PUSH1 0x0 PUSH1 0x20 DUP3 ADD SWAP1 POP DUP2 DUP2 SUB PUSH1 0x0 DUP4 ADD MSTORE PUSH2 0x21C5 DUP2 PUSH2 0x2189 JUMP JUMPDEST SWAP1 POP SWAP2 SWAP1 POP JUMP JUMPDEST PUSH32 0x70726F6475637420616C726561647920696E206D65682E73746F726500000000 PUSH1 0x0 DUP3 ADD MSTORE POP JUMP JUMPDEST PUSH1 0x0 PUSH2 0x2202 PUSH1 0x1C DUP4 PUSH2 0x1998 JUMP JUMPDEST SWAP2 POP PUSH2 0x220D DUP3 PUSH2 0x21CC JUMP JUMPDEST PUSH1 0x20 DUP3 ADD SWAP1 POP SWAP2 SWAP1 POP JUMP JUMPDEST PUSH1 0x0 PUSH1 0x20 DUP3 ADD SWAP1 POP DUP2 DUP2 SUB PUSH1 0x0 DUP4 ADD MSTORE PUSH2 0x2231 DUP2 PUSH2 0x21F5 JUMP JUMPDEST SWAP1 POP SWAP2 SWAP1 POP JUMP JUMPDEST PUSH32 0x73656C6C6F757400000000000000000000000000000000000000000000000000 PUSH1 0x0 DUP3 ADD MSTORE POP JUMP JUMPDEST PUSH1 0x0 PUSH2 0x226E PUSH1 0x7 DUP4 PUSH2 0x1998 JUMP JUMPDEST SWAP2 POP PUSH2 0x2279 DUP3 PUSH2 0x2238 JUMP JUMPDEST PUSH1 0x20 DUP3 ADD SWAP1 POP SWAP2 SWAP1 POP JUMP JUMPDEST PUSH1 0x0 PUSH1 0x20 DUP3 ADD SWAP1 POP DUP2 DUP2 SUB PUSH1 0x0 DUP4 ADD MSTORE PUSH2 0x229D DUP2 PUSH2 0x2261 JUMP JUMPDEST SWAP1 POP SWAP2 SWAP1 POP JUMP JUMPDEST PUSH1 0x0 DUP2 SLOAD PUSH2 0x22B1 DUP2 PUSH2 0x1A44 JUMP JUMPDEST PUSH2 0x22BB DUP2 DUP7 PUSH2 0x1998 JUMP JUMPDEST SWAP5 POP PUSH1 0x1 DUP3 AND PUSH1 0x0 DUP2 EQ PUSH2 0x22D6 JUMPI PUSH1 0x1 DUP2 EQ PUSH2 0x22EC JUMPI PUSH2 0x231F JUMP JUMPDEST PUSH1 0xFF NOT DUP4 AND DUP7 MSTORE DUP2 ISZERO ISZERO PUSH1 0x20 MUL DUP7 ADD SWAP4 POP PUSH2 0x231F JUMP JUMPDEST PUSH2 0x22F5 DUP6 PUSH2 0x1A75 JUMP JUMPDEST PUSH1 0x0 JUMPDEST DUP4 DUP2 LT ISZERO PUSH2 0x2317 JUMPI DUP2 SLOAD DUP2 DUP10 ADD MSTORE PUSH1 0x1 DUP3 ADD SWAP2 POP PUSH1 0x20 DUP2 ADD SWAP1 POP PUSH2 0x22F8 JUMP JUMPDEST DUP1 DUP9 ADD SWAP6 POP POP POP JUMPDEST POP POP POP SWAP3 SWAP2 POP POP JUMP JUMPDEST PUSH1 0x0 PUSH2 0x2333 DUP3 PUSH2 0x163E JUMP JUMPDEST PUSH2 0x233D DUP2 DUP6 PUSH2 0x1998 JUMP JUMPDEST SWAP4 POP PUSH2 0x234D DUP2 DUP6 PUSH1 0x20 DUP7 ADD PUSH2 0x165A JUMP JUMPDEST PUSH2 0x2356 DUP2 PUSH2 0x131A JUMP JUMPDEST DUP5 ADD SWAP2 POP POP SWAP3 SWAP2 POP POP JUMP JUMPDEST PUSH1 0x0 PUSH1 0x80 DUP3 ADD SWAP1 POP PUSH2 0x2376 PUSH1 0x0 DUP4 ADD DUP8 PUSH2 0x12BC JUMP JUMPDEST DUP2 DUP2 SUB PUSH1 0x20 DUP4 ADD MSTORE PUSH2 0x2388 DUP2 DUP7 PUSH2 0x22A4 JUMP JUMPDEST SWAP1 POP DUP2 DUP2 SUB PUSH1 0x40 DUP4 ADD MSTORE PUSH2 0x239C DUP2 DUP6 PUSH2 0x2328 JUMP JUMPDEST SWAP1 POP PUSH2 0x23AB PUSH1 0x60 DUP4 ADD DUP5 PUSH2 0x12BC JUMP JUMPDEST SWAP6 SWAP5 POP POP POP POP POP JUMP JUMPDEST PUSH32 0x4F776E61626C653A2063616C6C6572206973206E6F7420746865206F776E6572 PUSH1 0x0 DUP3 ADD MSTORE POP JUMP JUMPDEST PUSH1 0x0 PUSH2 0x23EA PUSH1 0x20 DUP4 PUSH2 0x1998 JUMP JUMPDEST SWAP2 POP PUSH2 0x23F5 DUP3 PUSH2 0x23B4 JUMP JUMPDEST PUSH1 0x20 DUP3 ADD SWAP1 POP SWAP2 SWAP1 POP JUMP JUMPDEST PUSH1 0x0 PUSH1 0x20 DUP3 ADD SWAP1 POP DUP2 DUP2 SUB PUSH1 0x0 DUP4 ADD MSTORE PUSH2 0x2419 DUP2 PUSH2 0x23DD JUMP JUMPDEST SWAP1 POP SWAP2 SWAP1 POP JUMP JUMPDEST PUSH32 0x5265656E7472616E637947756172643A207265656E7472616E742063616C6C00 PUSH1 0x0 DUP3 ADD MSTORE POP JUMP JUMPDEST PUSH1 0x0 PUSH2 0x2456 PUSH1 0x1F DUP4 PUSH2 0x1998 JUMP JUMPDEST SWAP2 POP PUSH2 0x2461 DUP3 PUSH2 0x2420 JUMP JUMPDEST PUSH1 0x20 DUP3 ADD SWAP1 POP SWAP2 SWAP1 POP JUMP JUMPDEST PUSH1 0x0 PUSH1 0x20 DUP3 ADD SWAP1 POP DUP2 DUP2 SUB PUSH1 0x0 DUP4 ADD MSTORE PUSH2 0x2485 DUP2 PUSH2 0x2449 JUMP JUMPDEST SWAP1 POP SWAP2 SWAP1 POP JUMP INVALID LOG2 PUSH5 0x6970667358 0x22 SLT KECCAK256 PUSH0 LOG1 0xE1 0xFB CALLDATALOAD PUSH18 0xA1572A10F9A5478FCD94EEC8DD5AA53311E7 0x4F CALLDATASIZE RETURNDATACOPY 0xAA DUP8 PUSH8 0xA8E664736F6C6343 STOP ADDMOD XOR STOP CALLER "},"methodIdentifiers":{"addProductToGame(uint256,string,uint256,uint256,uint256,uint256,uint256)":"2849625d","burnLoserPrizeMeh(uint256,uint256)":"8c5b883d","claim(uint256,uint256)":"c3490263","createGame(uint256,uint256)":"60104cef","depositMeh(uint256,uint256,uint256)":"f38bee18","depositMehStore(uint256)":"76f7b500","depositPrizeMeh(uint256,uint256,uint256)":"53f8c483","deposits(address,uint256)":"d6d68177","games(uint256)":"117a5b90","getProductsByGameId(uint256)":"c7b56842","mehToken()":"e2c2c884","owner()":"8da5cb5b","renounceOwnership()":"715018a6","transferOwnership(address)":"f2fde38b"}},"storageLayout":{"storage":[{"astId":7,"contract":"contracts/MehVoteV1.sol:MehVoteV1","label":"_owner","offset":0,"slot":"0","type":"t_address"},{"astId":123,"contract":"contracts/MehVoteV1.sol:MehVoteV1","label":"_status","offset":0,"slot":"1","type":"t_uint256"},{"astId":387,"contract":"contracts/MehVoteV1.sol:MehVoteV1","label":"gameIdCounter","offset":0,"slot":"2","type":"t_struct(Counter)291_storage"},{"astId":390,"contract":"contracts/MehVoteV1.sol:MehVoteV1","label":"productIdCounter","offset":0,"slot":"3","type":"t_struct(Counter)291_storage"},{"astId":439,"contract":"contracts/MehVoteV1.sol:MehVoteV1","label":"games","offset":0,"slot":"4","type":"t_mapping(t_uint256,t_struct(Game)403_storage)"},{"astId":445,"contract":"contracts/MehVoteV1.sol:MehVoteV1","label":"deposits","offset":0,"slot":"5","type":"t_mapping(t_address,t_mapping(t_uint256,t_uint256))"}],"types":{"t_address":{"encoding":"inplace","label":"address","numberOfBytes":"20"},"t_array(t_struct(Product)424_storage)dyn_storage":{"base":"t_struct(Product)424_storage","encoding":"dynamic_array","label":"struct MehVoteV1.Product[]","numberOfBytes":"32"},"t_bool":{"encoding":"inplace","label":"bool","numberOfBytes":"1"},"t_mapping(t_address,t_mapping(t_uint256,t_uint256))":{"encoding":"mapping","key":"t_address","label":"mapping(address => mapping(uint256 => uint256))","numberOfBytes":"32","value":"t_mapping(t_uint256,t_uint256)"},"t_mapping(t_uint256,t_struct(Game)403_storage)":{"encoding":"mapping","key":"t_uint256","label":"mapping(uint256 => struct MehVoteV1.Game)","numberOfBytes":"32","value":"t_struct(Game)403_storage"},"t_mapping(t_uint256,t_uint256)":{"encoding":"mapping","key":"t_uint256","label":"mapping(uint256 => uint256)","numberOfBytes":"32","value":"t_uint256"},"t_string_storage":{"encoding":"bytes","label":"string","numberOfBytes":"32"},"t_struct(Counter)291_storage":{"encoding":"inplace","label":"struct Counters.Counter","members":[{"astId":290,"contract":"contracts/MehVoteV1.sol:MehVoteV1","label":"_value","offset":0,"slot":"0","type":"t_uint256"}],"numberOfBytes":"32"},"t_struct(Game)403_storage":{"encoding":"inplace","label":"struct MehVoteV1.Game","members":[{"astId":392,"contract":"contracts/MehVoteV1.sol:MehVoteV1","label":"id","offset":0,"slot":"0","type":"t_uint256"},{"astId":394,"contract":"contracts/MehVoteV1.sol:MehVoteV1","label":"begin","offset":0,"slot":"1","type":"t_uint256"},{"astId":396,"contract":"contracts/MehVoteV1.sol:MehVoteV1","label":"end","offset":0,"slot":"2","type":"t_uint256"},{"astId":400,"contract":"contracts/MehVoteV1.sol:MehVoteV1","label":"products","offset":0,"slot":"3","type":"t_array(t_struct(Product)424_storage)dyn_storage"},{"astId":402,"contract":"contracts/MehVoteV1.sol:MehVoteV1","label":"numProducts","offset":0,"slot":"4","type":"t_uint256"}],"numberOfBytes":"160"},"t_struct(Product)424_storage":{"encoding":"inplace","label":"struct MehVoteV1.Product","members":[{"astId":405,"contract":"contracts/MehVoteV1.sol:MehVoteV1","label":"id","offset":0,"slot":"0","type":"t_uint256"},{"astId":407,"contract":"contracts/MehVoteV1.sol:MehVoteV1","label":"name","offset":0,"slot":"1","type":"t_string_storage"},{"astId":409,"contract":"contracts/MehVoteV1.sol:MehVoteV1","label":"mehContractsDeposited","offset":0,"slot":"2","type":"t_uint256"},{"astId":411,"contract":"contracts/MehVoteV1.sol:MehVoteV1","label":"mehContracts","offset":0,"slot":"3","type":"t_uint256"},{"astId":413,"contract":"contracts/MehVoteV1.sol:MehVoteV1","label":"mehContractPrice","offset":0,"slot":"4","type":"t_uint256"},{"astId":415,"contract":"contracts/MehVoteV1.sol:MehVoteV1","label":"prizeMeh","offset":0,"slot":"5","type":"t_uint256"},{"astId":417,"contract":"contracts/MehVoteV1.sol:MehVoteV1","label":"mehStore","offset":0,"slot":"6","type":"t_bool"},{"astId":419,"contract":"contracts/MehVoteV1.sol:MehVoteV1","label":"begin","offset":0,"slot":"7","type":"t_uint256"},{"astId":421,"contract":"contracts/MehVoteV1.sol:MehVoteV1","label":"end","offset":0,"slot":"8","type":"t_uint256"},{"astId":423,"contract":"contracts/MehVoteV1.sol:MehVoteV1","label":"royaltyBase","offset":0,"slot":"9","type":"t_uint256"}],"numberOfBytes":"320"},"t_uint256":{"encoding":"inplace","label":"uint256","numberOfBytes":"32"}}}}}}