{"contracts/MehAdV2.sol":{"MehAdV2":{"abi":[{"inputs":[{"internalType":"address","name":"_mainnetContractAddress","type":"address"},{"internalType":"address","name":"_router","type":"address"},{"internalType":"address","name":"_linkTokenAddress","type":"address"},{"internalType":"address","name":"_mehTokenAddress","type":"address"},{"internalType":"address","name":"_ercAdAddress","type":"address"}],"stateMutability":"nonpayable","type":"constructor"},{"inputs":[{"internalType":"address","name":"router","type":"address"}],"name":"InvalidRouter","type":"error"},{"anonymous":false,"inputs":[{"indexed":false,"internalType":"bytes32","name":"messageId","type":"bytes32"},{"indexed":false,"internalType":"uint64","name":"sourceChainSelector","type":"uint64"},{"indexed":false,"internalType":"address","name":"sender","type":"address"},{"indexed":false,"internalType":"uint256","name":"balance","type":"uint256"}],"name":"MessageReceived","type":"event"},{"anonymous":false,"inputs":[{"indexed":false,"internalType":"bytes32","name":"messageId","type":"bytes32"}],"name":"MessageSent","type":"event"},{"inputs":[{"components":[{"internalType":"bytes32","name":"messageId","type":"bytes32"},{"internalType":"uint64","name":"sourceChainSelector","type":"uint64"},{"internalType":"bytes","name":"sender","type":"bytes"},{"internalType":"bytes","name":"data","type":"bytes"},{"components":[{"internalType":"address","name":"token","type":"address"},{"internalType":"uint256","name":"amount","type":"uint256"}],"internalType":"struct Client.EVMTokenAmount[]","name":"destTokenAmounts","type":"tuple[]"}],"internalType":"struct Client.Any2EVMMessage","name":"message","type":"tuple"}],"name":"ccipReceive","outputs":[],"stateMutability":"nonpayable","type":"function"},{"inputs":[{"internalType":"uint256","name":"id","type":"uint256"}],"name":"displayAd","outputs":[{"components":[{"internalType":"string","name":"adURI","type":"string"},{"internalType":"string","name":"dataURI","type":"string"},{"internalType":"bytes32","name":"signatureRoot","type":"bytes32"},{"internalType":"bytes32","name":"audienceRoot","type":"bytes32"}],"internalType":"struct IERCAd.Ad","name":"","type":"tuple"}],"stateMutability":"view","type":"function"},{"inputs":[],"name":"ercAdContract","outputs":[{"internalType":"contract IERCAd","name":"","type":"address"}],"stateMutability":"view","type":"function"},{"inputs":[],"name":"getLinkBalance","outputs":[],"stateMutability":"nonpayable","type":"function"},{"inputs":[],"name":"getRouter","outputs":[{"internalType":"address","name":"","type":"address"}],"stateMutability":"view","type":"function"},{"inputs":[],"name":"linkToken","outputs":[{"internalType":"contract IERC20","name":"","type":"address"}],"stateMutability":"view","type":"function"},{"inputs":[],"name":"mainnetContractAddress","outputs":[{"internalType":"address","name":"","type":"address"}],"stateMutability":"view","type":"function"},{"inputs":[],"name":"mehToken","outputs":[{"internalType":"contract IERC20","name":"","type":"address"}],"stateMutability":"view","type":"function"},{"inputs":[],"name":"router","outputs":[{"internalType":"contract IRouterClient","name":"","type":"address"}],"stateMutability":"view","type":"function"},{"inputs":[{"internalType":"uint256","name":"id","type":"uint256"},{"internalType":"bytes32[]","name":"proof","type":"bytes32[]"}],"name":"signAd","outputs":[],"stateMutability":"nonpayable","type":"function"},{"inputs":[{"internalType":"bytes4","name":"interfaceId","type":"bytes4"}],"name":"supportsInterface","outputs":[{"internalType":"bool","name":"","type":"bool"}],"stateMutability":"pure","type":"function"}],"evm":{"bytecode":{"linkReferences":{},"object":"60a06040523480156200001157600080fd5b5060405162001e7838038062001e7883398181016040528101906200003791906200029b565b83600073ffffffffffffffffffffffffffffffffffffffff168173ffffffffffffffffffffffffffffffffffffffff1603620000ad5760006040517fd7f73334000000000000000000000000000000000000000000000000000000008152600401620000a4919062000334565b60405180910390fd5b8073ffffffffffffffffffffffffffffffffffffffff1660808173ffffffffffffffffffffffffffffffffffffffff168152505050846000806101000a81548173ffffffffffffffffffffffffffffffffffffffff021916908373ffffffffffffffffffffffffffffffffffffffff16021790555083600160006101000a81548173ffffffffffffffffffffffffffffffffffffffff021916908373ffffffffffffffffffffffffffffffffffffffff16021790555081600260006101000a81548173ffffffffffffffffffffffffffffffffffffffff021916908373ffffffffffffffffffffffffffffffffffffffff16021790555082600360006101000a81548173ffffffffffffffffffffffffffffffffffffffff021916908373ffffffffffffffffffffffffffffffffffffffff16021790555080600460006101000a81548173ffffffffffffffffffffffffffffffffffffffff021916908373ffffffffffffffffffffffffffffffffffffffff160217905550505050505062000351565b600080fd5b600073ffffffffffffffffffffffffffffffffffffffff82169050919050565b6000620002638262000236565b9050919050565b620002758162000256565b81146200028157600080fd5b50565b60008151905062000295816200026a565b92915050565b600080600080600060a08688031215620002ba57620002b962000231565b5b6000620002ca8882890162000284565b9550506020620002dd8882890162000284565b9450506040620002f08882890162000284565b9350506060620003038882890162000284565b9250506080620003168882890162000284565b9150509295509295909350565b6200032e8162000256565b82525050565b60006020820190506200034b600083018462000323565b92915050565b608051611b0462000374600039600081816106a401526107710152611b046000f3fe608060405234801561001057600080fd5b50600436106100a95760003560e01c806392b9d0251161007157806392b9d02514610152578063b0f479a114610170578063c62693891461018e578063e2c2c884146101ac578063f887ea40146101ca578063fe49e833146101e8576100a9565b806301ffc9a7146100ae57806350c5f975146100de57806357970e93146100e8578063672fb9691461010657806385572ffb14610136575b600080fd5b6100c860048036038101906100c39190610b71565b610204565b6040516100d59190610bb9565b60405180910390f35b6100e66102d6565b005b6100f06105cc565b6040516100fd9190610c53565b60405180910390f35b610120600480360381019061011b9190610ca4565b6105f2565b60405161012d9190610de4565b60405180910390f35b610150600480360381019061014b9190610e2a565b6106a2565b005b61015a610747565b6040516101679190610e94565b60405180910390f35b61017861076d565b6040516101859190610ed0565b60405180910390f35b610196610795565b6040516101a39190610ed0565b60405180910390f35b6101b46107b9565b6040516101c19190610c53565b60405180910390f35b6101d26107df565b6040516101df9190610f0c565b60405180910390f35b61020260048036038101906101fd9190610f8c565b610805565b005b60007f85572ffb000000000000000000000000000000000000000000000000000000007bffffffffffffffffffffffffffffffffffffffffffffffffffffffff1916827bffffffffffffffffffffffffffffffffffffffffffffffffffffffff191614806102cf57507f01ffc9a7000000000000000000000000000000000000000000000000000000007bffffffffffffffffffffffffffffffffffffffffffffffffffffffff1916827bffffffffffffffffffffffffffffffffffffffffffffffffffffffff1916145b9050919050565b60006040516024016040516020818303038152906040527f50c5f975000000000000000000000000000000000000000000000000000000007bffffffffffffffffffffffffffffffffffffffffffffffffffffffff19166020820180517bffffffffffffffffffffffffffffffffffffffffffffffffffffffff8381831617835250505050905060008067ffffffffffffffff81111561037957610378610fec565b5b6040519080825280602002602001820160405280156103b257816020015b61039f610aa7565b8152602001906001900390816103975790505b50905060006040518060a0016040528060008054906101000a900473ffffffffffffffffffffffffffffffffffffffff166040516020016103f39190610ed0565b6040516020818303038152906040528152602001848152602001838152602001600073ffffffffffffffffffffffffffffffffffffffff1681526020016040518060200160405280600081525081525090506000600160009054906101000a900473ffffffffffffffffffffffffffffffffffffffff1673ffffffffffffffffffffffffffffffffffffffff166320487ded6000846040518363ffffffff1660e01b81526004016104a5929190611246565b602060405180830381865afa1580156104c2573d6000803e3d6000fd5b505050506040513d601f19601f820116820180604052508101906104e6919061128b565b90506000600160009054906101000a900473ffffffffffffffffffffffffffffffffffffffff1673ffffffffffffffffffffffffffffffffffffffff166396f4e9f9836000866040518463ffffffff1660e01b8152600401610549929190611246565b60206040518083038185885af1158015610567573d6000803e3d6000fd5b50505050506040513d601f19601f8201168201806040525081019061058c91906112e4565b90507f54791b38f3859327992a1ca0590ad3c0f08feba98d1a4f56ab0dca74d203392a816040516105bd9190611320565b60405180910390a15050505050565b600360009054906101000a900473ffffffffffffffffffffffffffffffffffffffff1681565b6105fa610ad7565b600460009054906101000a900473ffffffffffffffffffffffffffffffffffffffff1673ffffffffffffffffffffffffffffffffffffffff1663672fb969836040518263ffffffff1660e01b8152600401610655919061134a565b600060405180830381865afa158015610672573d6000803e3d6000fd5b505050506040513d6000823e3d601f19601f8201168201806040525081019061069b9190611511565b9050919050565b7f000000000000000000000000000000000000000000000000000000000000000073ffffffffffffffffffffffffffffffffffffffff163373ffffffffffffffffffffffffffffffffffffffff161461073257336040517fd7f733340000000000000000000000000000000000000000000000000000000081526004016107299190610ed0565b60405180910390fd5b6107448161073f9061186a565b6108a3565b50565b600460009054906101000a900473ffffffffffffffffffffffffffffffffffffffff1681565b60007f0000000000000000000000000000000000000000000000000000000000000000905090565b60008054906101000a900473ffffffffffffffffffffffffffffffffffffffff1681565b600260009054906101000a900473ffffffffffffffffffffffffffffffffffffffff1681565b600160009054906101000a900473ffffffffffffffffffffffffffffffffffffffff1681565b600460009054906101000a900473ffffffffffffffffffffffffffffffffffffffff1673ffffffffffffffffffffffffffffffffffffffff1663fe49e8338484846040518463ffffffff1660e01b8152600401610864939291906118f8565b600060405180830381600087803b15801561087e57600080fd5b505af1158015610892573d6000803e3d6000fd5b5050505061089e6102d6565b505050565b600081606001518060200190518101906108bd919061128b565b9050600082604001518060200190518101906108d99190611968565b9050600360009054906101000a900473ffffffffffffffffffffffffffffffffffffffff1673ffffffffffffffffffffffffffffffffffffffff166370a08231306040518263ffffffff1660e01b81526004016109369190610ed0565b602060405180830381865afa158015610953573d6000803e3d6000fd5b505050506040513d601f19601f82011682018060405250810190610977919061128b565b8261098291906119c4565b91506000690a968163f0a57b4000009050670de0b6b3a764000083106109bb576969e10de76676d0800000816109b891906119c4565b90505b600260009054906101000a900473ffffffffffffffffffffffffffffffffffffffff1673ffffffffffffffffffffffffffffffffffffffff1663a9059cbb33836040518363ffffffff1660e01b8152600401610a189291906119f8565b6020604051808303816000875af1158015610a37573d6000803e3d6000fd5b505050506040513d601f19601f82011682018060405250810190610a5b9190611a4d565b507f9e0cedd023f625fb8db19f2eb903c24aa1a45f05fd9ef9431a80505ad65e30fe846000015185602001518486604051610a999493929190611a89565b60405180910390a150505050565b6040518060400160405280600073ffffffffffffffffffffffffffffffffffffffff168152602001600081525090565b6040518060800160405280606081526020016060815260200160008019168152602001600080191681525090565b6000604051905090565b600080fd5b600080fd5b60007fffffffff0000000000000000000000000000000000000000000000000000000082169050919050565b610b4e81610b19565b8114610b5957600080fd5b50565b600081359050610b6b81610b45565b92915050565b600060208284031215610b8757610b86610b0f565b5b6000610b9584828501610b5c565b91505092915050565b60008115159050919050565b610bb381610b9e565b82525050565b6000602082019050610bce6000830184610baa565b92915050565b600073ffffffffffffffffffffffffffffffffffffffff82169050919050565b6000819050919050565b6000610c19610c14610c0f84610bd4565b610bf4565b610bd4565b9050919050565b6000610c2b82610bfe565b9050919050565b6000610c3d82610c20565b9050919050565b610c4d81610c32565b82525050565b6000602082019050610c686000830184610c44565b92915050565b6000819050919050565b610c8181610c6e565b8114610c8c57600080fd5b50565b600081359050610c9e81610c78565b92915050565b600060208284031215610cba57610cb9610b0f565b5b6000610cc884828501610c8f565b91505092915050565b600081519050919050565b600082825260208201905092915050565b60005b83811015610d0b578082015181840152602081019050610cf0565b60008484015250505050565b6000601f19601f8301169050919050565b6000610d3382610cd1565b610d3d8185610cdc565b9350610d4d818560208601610ced565b610d5681610d17565b840191505092915050565b6000819050919050565b610d7481610d61565b82525050565b60006080830160008301518482036000860152610d978282610d28565b91505060208301518482036020860152610db18282610d28565b9150506040830151610dc66040860182610d6b565b506060830151610dd96060860182610d6b565b508091505092915050565b60006020820190508181036000830152610dfe8184610d7a565b905092915050565b600080fd5b600060a08284031215610e2157610e20610e06565b5b81905092915050565b600060208284031215610e4057610e3f610b0f565b5b600082013567ffffffffffffffff811115610e5e57610e5d610b14565b5b610e6a84828501610e0b565b91505092915050565b6000610e7e82610c20565b9050919050565b610e8e81610e73565b82525050565b6000602082019050610ea96000830184610e85565b92915050565b6000610eba82610bd4565b9050919050565b610eca81610eaf565b82525050565b6000602082019050610ee56000830184610ec1565b92915050565b6000610ef682610c20565b9050919050565b610f0681610eeb565b82525050565b6000602082019050610f216000830184610efd565b92915050565b600080fd5b600080fd5b600080fd5b60008083601f840112610f4c57610f4b610f27565b5b8235905067ffffffffffffffff811115610f6957610f68610f2c565b5b602083019150836020820283011115610f8557610f84610f31565b5b9250929050565b600080600060408486031215610fa557610fa4610b0f565b5b6000610fb386828701610c8f565b935050602084013567ffffffffffffffff811115610fd457610fd3610b14565b5b610fe086828701610f36565b92509250509250925092565b7f4e487b7100000000000000000000000000000000000000000000000000000000600052604160045260246000fd5b6000819050919050565b600067ffffffffffffffff82169050919050565b600061105461104f61104a8461101b565b610bf4565b611025565b9050919050565b61106481611039565b82525050565b600081519050919050565b600082825260208201905092915050565b60006110918261106a565b61109b8185611075565b93506110ab818560208601610ced565b6110b481610d17565b840191505092915050565b600081519050919050565b600082825260208201905092915050565b6000819050602082019050919050565b6110f481610eaf565b82525050565b61110381610c6e565b82525050565b60408201600082015161111f60008501826110eb565b50602082015161113260208501826110fa565b50505050565b60006111448383611109565b60408301905092915050565b6000602082019050919050565b6000611168826110bf565b61117281856110ca565b935061117d836110db565b8060005b838110156111ae5781516111958882611138565b97506111a083611150565b925050600181019050611181565b5085935050505092915050565b600060a08301600083015184820360008601526111d88282611086565b915050602083015184820360208601526111f28282611086565b9150506040830151848203604086015261120c828261115d565b915050606083015161122160608601826110eb565b50608083015184820360808601526112398282611086565b9150508091505092915050565b600060408201905061125b600083018561105b565b818103602083015261126d81846111bb565b90509392505050565b60008151905061128581610c78565b92915050565b6000602082840312156112a1576112a0610b0f565b5b60006112af84828501611276565b91505092915050565b6112c181610d61565b81146112cc57600080fd5b50565b6000815190506112de816112b8565b92915050565b6000602082840312156112fa576112f9610b0f565b5b6000611308848285016112cf565b91505092915050565b61131a81610d61565b82525050565b60006020820190506113356000830184611311565b92915050565b61134481610c6e565b82525050565b600060208201905061135f600083018461133b565b92915050565b600080fd5b61137382610d17565b810181811067ffffffffffffffff8211171561139257611391610fec565b5b80604052505050565b60006113a5610b05565b90506113b1828261136a565b919050565b600080fd5b600080fd5b600067ffffffffffffffff8211156113db576113da610fec565b5b6113e482610d17565b9050602081019050919050565b60006114046113ff846113c0565b61139b565b9050828152602081018484840111156114205761141f6113bb565b5b61142b848285610ced565b509392505050565b600082601f83011261144857611447610f27565b5b81516114588482602086016113f1565b91505092915050565b60006080828403121561147757611476611365565b5b611481608061139b565b9050600082015167ffffffffffffffff8111156114a1576114a06113b6565b5b6114ad84828501611433565b600083015250602082015167ffffffffffffffff8111156114d1576114d06113b6565b5b6114dd84828501611433565b60208301525060406114f1848285016112cf565b6040830152506060611505848285016112cf565b60608301525092915050565b60006020828403121561152757611526610b0f565b5b600082015167ffffffffffffffff81111561154557611544610b14565b5b61155184828501611461565b91505092915050565b600081359050611569816112b8565b92915050565b61157881611025565b811461158357600080fd5b50565b6000813590506115958161156f565b92915050565b600067ffffffffffffffff8211156115b6576115b5610fec565b5b6115bf82610d17565b9050602081019050919050565b82818337600083830152505050565b60006115ee6115e98461159b565b61139b565b90508281526020810184848401111561160a576116096113bb565b5b6116158482856115cc565b509392505050565b600082601f83011261163257611631610f27565b5b81356116428482602086016115db565b91505092915050565b600067ffffffffffffffff82111561166657611665610fec565b5b602082029050602081019050919050565b61168081610eaf565b811461168b57600080fd5b50565b60008135905061169d81611677565b92915050565b6000604082840312156116b9576116b8611365565b5b6116c3604061139b565b905060006116d38482850161168e565b60008301525060206116e784828501610c8f565b60208301525092915050565b60006117066117018461164b565b61139b565b9050808382526020820190506040840283018581111561172957611728610f31565b5b835b81811015611752578061173e88826116a3565b84526020840193505060408101905061172b565b5050509392505050565b600082601f83011261177157611770610f27565b5b81356117818482602086016116f3565b91505092915050565b600060a082840312156117a05761179f611365565b5b6117aa60a061139b565b905060006117ba8482850161155a565b60008301525060206117ce84828501611586565b602083015250604082013567ffffffffffffffff8111156117f2576117f16113b6565b5b6117fe8482850161161d565b604083015250606082013567ffffffffffffffff811115611822576118216113b6565b5b61182e8482850161161d565b606083015250608082013567ffffffffffffffff811115611852576118516113b6565b5b61185e8482850161175c565b60808301525092915050565b6000611876368361178a565b9050919050565b600082825260208201905092915050565b600080fd5b82818337505050565b60006118a8838561187d565b93507f07ffffffffffffffffffffffffffffffffffffffffffffffffffffffffffffff8311156118db576118da61188e565b5b6020830292506118ec838584611893565b82840190509392505050565b600060408201905061190d600083018661133b565b818103602083015261192081848661189c565b9050949350505050565b600061193582610bd4565b9050919050565b6119458161192a565b811461195057600080fd5b50565b6000815190506119628161193c565b92915050565b60006020828403121561197e5761197d610b0f565b5b600061198c84828501611953565b91505092915050565b7f4e487b7100000000000000000000000000000000000000000000000000000000600052601160045260246000fd5b60006119cf82610c6e565b91506119da83610c6e565b92508282019050808211156119f2576119f1611995565b5b92915050565b6000604082019050611a0d6000830185610ec1565b611a1a602083018461133b565b9392505050565b611a2a81610b9e565b8114611a3557600080fd5b50565b600081519050611a4781611a21565b92915050565b600060208284031215611a6357611a62610b0f565b5b6000611a7184828501611a38565b91505092915050565b611a8381611025565b82525050565b6000608082019050611a9e6000830187611311565b611aab6020830186611a7a565b611ab86040830185610ec1565b611ac5606083018461133b565b9594505050505056fea2646970667358221220ad0ee6399aa78b582e74c5f9a0f14aaa13a8c54eb7adf6ca5727516a30f1d21164736f6c63430008180033","opcodes":"PUSH1 0xA0 PUSH1 0x40 MSTORE CALLVALUE DUP1 ISZERO PUSH3 0x11 JUMPI PUSH1 0x0 DUP1 REVERT JUMPDEST POP PUSH1 0x40 MLOAD PUSH3 0x1E78 CODESIZE SUB DUP1 PUSH3 0x1E78 DUP4 CODECOPY DUP2 DUP2 ADD PUSH1 0x40 MSTORE DUP2 ADD SWAP1 PUSH3 0x37 SWAP2 SWAP1 PUSH3 0x29B JUMP JUMPDEST DUP4 PUSH1 0x0 PUSH20 0xFFFFFFFFFFFFFFFFFFFFFFFFFFFFFFFFFFFFFFFF AND DUP2 PUSH20 0xFFFFFFFFFFFFFFFFFFFFFFFFFFFFFFFFFFFFFFFF AND SUB PUSH3 0xAD JUMPI PUSH1 0x0 PUSH1 0x40 MLOAD PUSH32 0xD7F7333400000000000000000000000000000000000000000000000000000000 DUP2 MSTORE PUSH1 0x4 ADD PUSH3 0xA4 SWAP2 SWAP1 PUSH3 0x334 JUMP JUMPDEST PUSH1 0x40 MLOAD DUP1 SWAP2 SUB SWAP1 REVERT JUMPDEST DUP1 PUSH20 0xFFFFFFFFFFFFFFFFFFFFFFFFFFFFFFFFFFFFFFFF AND PUSH1 0x80 DUP2 PUSH20 0xFFFFFFFFFFFFFFFFFFFFFFFFFFFFFFFFFFFFFFFF AND DUP2 MSTORE POP POP POP DUP5 PUSH1 0x0 DUP1 PUSH2 0x100 EXP DUP2 SLOAD DUP2 PUSH20 0xFFFFFFFFFFFFFFFFFFFFFFFFFFFFFFFFFFFFFFFF MUL NOT AND SWAP1 DUP4 PUSH20 0xFFFFFFFFFFFFFFFFFFFFFFFFFFFFFFFFFFFFFFFF AND MUL OR SWAP1 SSTORE POP DUP4 PUSH1 0x1 PUSH1 0x0 PUSH2 0x100 EXP DUP2 SLOAD DUP2 PUSH20 0xFFFFFFFFFFFFFFFFFFFFFFFFFFFFFFFFFFFFFFFF MUL NOT AND SWAP1 DUP4 PUSH20 0xFFFFFFFFFFFFFFFFFFFFFFFFFFFFFFFFFFFFFFFF AND MUL OR SWAP1 SSTORE POP DUP2 PUSH1 0x2 PUSH1 0x0 PUSH2 0x100 EXP DUP2 SLOAD DUP2 PUSH20 0xFFFFFFFFFFFFFFFFFFFFFFFFFFFFFFFFFFFFFFFF MUL NOT AND SWAP1 DUP4 PUSH20 0xFFFFFFFFFFFFFFFFFFFFFFFFFFFFFFFFFFFFFFFF AND MUL OR SWAP1 SSTORE POP DUP3 PUSH1 0x3 PUSH1 0x0 PUSH2 0x100 EXP DUP2 SLOAD DUP2 PUSH20 0xFFFFFFFFFFFFFFFFFFFFFFFFFFFFFFFFFFFFFFFF MUL NOT AND SWAP1 DUP4 PUSH20 0xFFFFFFFFFFFFFFFFFFFFFFFFFFFFFFFFFFFFFFFF AND MUL OR SWAP1 SSTORE POP DUP1 PUSH1 0x4 PUSH1 0x0 PUSH2 0x100 EXP DUP2 SLOAD DUP2 PUSH20 0xFFFFFFFFFFFFFFFFFFFFFFFFFFFFFFFFFFFFFFFF MUL NOT AND SWAP1 DUP4 PUSH20 0xFFFFFFFFFFFFFFFFFFFFFFFFFFFFFFFFFFFFFFFF AND MUL OR SWAP1 SSTORE POP POP POP POP POP POP PUSH3 0x351 JUMP JUMPDEST PUSH1 0x0 DUP1 REVERT JUMPDEST PUSH1 0x0 PUSH20 0xFFFFFFFFFFFFFFFFFFFFFFFFFFFFFFFFFFFFFFFF DUP3 AND SWAP1 POP SWAP2 SWAP1 POP JUMP JUMPDEST PUSH1 0x0 PUSH3 0x263 DUP3 PUSH3 0x236 JUMP JUMPDEST SWAP1 POP SWAP2 SWAP1 POP JUMP JUMPDEST PUSH3 0x275 DUP2 PUSH3 0x256 JUMP JUMPDEST DUP2 EQ PUSH3 0x281 JUMPI PUSH1 0x0 DUP1 REVERT JUMPDEST POP JUMP JUMPDEST PUSH1 0x0 DUP2 MLOAD SWAP1 POP PUSH3 0x295 DUP2 PUSH3 0x26A JUMP JUMPDEST SWAP3 SWAP2 POP POP JUMP JUMPDEST PUSH1 0x0 DUP1 PUSH1 0x0 DUP1 PUSH1 0x0 PUSH1 0xA0 DUP7 DUP9 SUB SLT ISZERO PUSH3 0x2BA JUMPI PUSH3 0x2B9 PUSH3 0x231 JUMP JUMPDEST JUMPDEST PUSH1 0x0 PUSH3 0x2CA DUP9 DUP3 DUP10 ADD PUSH3 0x284 JUMP JUMPDEST SWAP6 POP POP PUSH1 0x20 PUSH3 0x2DD DUP9 DUP3 DUP10 ADD PUSH3 0x284 JUMP JUMPDEST SWAP5 POP POP PUSH1 0x40 PUSH3 0x2F0 DUP9 DUP3 DUP10 ADD PUSH3 0x284 JUMP JUMPDEST SWAP4 POP POP PUSH1 0x60 PUSH3 0x303 DUP9 DUP3 DUP10 ADD PUSH3 0x284 JUMP JUMPDEST SWAP3 POP POP PUSH1 0x80 PUSH3 0x316 DUP9 DUP3 DUP10 ADD PUSH3 0x284 JUMP JUMPDEST SWAP2 POP POP SWAP3 SWAP6 POP SWAP3 SWAP6 SWAP1 SWAP4 POP JUMP JUMPDEST PUSH3 0x32E DUP2 PUSH3 0x256 JUMP JUMPDEST DUP3 MSTORE POP POP JUMP JUMPDEST PUSH1 0x0 PUSH1 0x20 DUP3 ADD SWAP1 POP PUSH3 0x34B PUSH1 0x0 DUP4 ADD DUP5 PUSH3 0x323 JUMP JUMPDEST SWAP3 SWAP2 POP POP JUMP JUMPDEST PUSH1 0x80 MLOAD PUSH2 0x1B04 PUSH3 0x374 PUSH1 0x0 CODECOPY PUSH1 0x0 DUP2 DUP2 PUSH2 0x6A4 ADD MSTORE PUSH2 0x771 ADD MSTORE PUSH2 0x1B04 PUSH1 0x0 RETURN INVALID PUSH1 0x80 PUSH1 0x40 MSTORE CALLVALUE DUP1 ISZERO PUSH2 0x10 JUMPI PUSH1 0x0 DUP1 REVERT JUMPDEST POP PUSH1 0x4 CALLDATASIZE LT PUSH2 0xA9 JUMPI PUSH1 0x0 CALLDATALOAD PUSH1 0xE0 SHR DUP1 PUSH4 0x92B9D025 GT PUSH2 0x71 JUMPI DUP1 PUSH4 0x92B9D025 EQ PUSH2 0x152 JUMPI DUP1 PUSH4 0xB0F479A1 EQ PUSH2 0x170 JUMPI DUP1 PUSH4 0xC6269389 EQ PUSH2 0x18E JUMPI DUP1 PUSH4 0xE2C2C884 EQ PUSH2 0x1AC JUMPI DUP1 PUSH4 0xF887EA40 EQ PUSH2 0x1CA JUMPI DUP1 PUSH4 0xFE49E833 EQ PUSH2 0x1E8 JUMPI PUSH2 0xA9 JUMP JUMPDEST DUP1 PUSH4 0x1FFC9A7 EQ PUSH2 0xAE JUMPI DUP1 PUSH4 0x50C5F975 EQ PUSH2 0xDE JUMPI DUP1 PUSH4 0x57970E93 EQ PUSH2 0xE8 JUMPI DUP1 PUSH4 0x672FB969 EQ PUSH2 0x106 JUMPI DUP1 PUSH4 0x85572FFB EQ PUSH2 0x136 JUMPI JUMPDEST PUSH1 0x0 DUP1 REVERT JUMPDEST PUSH2 0xC8 PUSH1 0x4 DUP1 CALLDATASIZE SUB DUP2 ADD SWAP1 PUSH2 0xC3 SWAP2 SWAP1 PUSH2 0xB71 JUMP JUMPDEST PUSH2 0x204 JUMP JUMPDEST PUSH1 0x40 MLOAD PUSH2 0xD5 SWAP2 SWAP1 PUSH2 0xBB9 JUMP JUMPDEST PUSH1 0x40 MLOAD DUP1 SWAP2 SUB SWAP1 RETURN JUMPDEST PUSH2 0xE6 PUSH2 0x2D6 JUMP JUMPDEST STOP JUMPDEST PUSH2 0xF0 PUSH2 0x5CC JUMP JUMPDEST PUSH1 0x40 MLOAD PUSH2 0xFD SWAP2 SWAP1 PUSH2 0xC53 JUMP JUMPDEST PUSH1 0x40 MLOAD DUP1 SWAP2 SUB SWAP1 RETURN JUMPDEST PUSH2 0x120 PUSH1 0x4 DUP1 CALLDATASIZE SUB DUP2 ADD SWAP1 PUSH2 0x11B SWAP2 SWAP1 PUSH2 0xCA4 JUMP JUMPDEST PUSH2 0x5F2 JUMP JUMPDEST PUSH1 0x40 MLOAD PUSH2 0x12D SWAP2 SWAP1 PUSH2 0xDE4 JUMP JUMPDEST PUSH1 0x40 MLOAD DUP1 SWAP2 SUB SWAP1 RETURN JUMPDEST PUSH2 0x150 PUSH1 0x4 DUP1 CALLDATASIZE SUB DUP2 ADD SWAP1 PUSH2 0x14B SWAP2 SWAP1 PUSH2 0xE2A JUMP JUMPDEST PUSH2 0x6A2 JUMP JUMPDEST STOP JUMPDEST PUSH2 0x15A PUSH2 0x747 JUMP JUMPDEST PUSH1 0x40 MLOAD PUSH2 0x167 SWAP2 SWAP1 PUSH2 0xE94 JUMP JUMPDEST PUSH1 0x40 MLOAD DUP1 SWAP2 SUB SWAP1 RETURN JUMPDEST PUSH2 0x178 PUSH2 0x76D JUMP JUMPDEST PUSH1 0x40 MLOAD PUSH2 0x185 SWAP2 SWAP1 PUSH2 0xED0 JUMP JUMPDEST PUSH1 0x40 MLOAD DUP1 SWAP2 SUB SWAP1 RETURN JUMPDEST PUSH2 0x196 PUSH2 0x795 JUMP JUMPDEST PUSH1 0x40 MLOAD PUSH2 0x1A3 SWAP2 SWAP1 PUSH2 0xED0 JUMP JUMPDEST PUSH1 0x40 MLOAD DUP1 SWAP2 SUB SWAP1 RETURN JUMPDEST PUSH2 0x1B4 PUSH2 0x7B9 JUMP JUMPDEST PUSH1 0x40 MLOAD PUSH2 0x1C1 SWAP2 SWAP1 PUSH2 0xC53 JUMP JUMPDEST PUSH1 0x40 MLOAD DUP1 SWAP2 SUB SWAP1 RETURN JUMPDEST PUSH2 0x1D2 PUSH2 0x7DF JUMP JUMPDEST PUSH1 0x40 MLOAD PUSH2 0x1DF SWAP2 SWAP1 PUSH2 0xF0C JUMP JUMPDEST PUSH1 0x40 MLOAD DUP1 SWAP2 SUB SWAP1 RETURN JUMPDEST PUSH2 0x202 PUSH1 0x4 DUP1 CALLDATASIZE SUB DUP2 ADD SWAP1 PUSH2 0x1FD SWAP2 SWAP1 PUSH2 0xF8C JUMP JUMPDEST PUSH2 0x805 JUMP JUMPDEST STOP JUMPDEST PUSH1 0x0 PUSH32 0x85572FFB00000000000000000000000000000000000000000000000000000000 PUSH28 0xFFFFFFFFFFFFFFFFFFFFFFFFFFFFFFFFFFFFFFFFFFFFFFFFFFFFFFFF NOT AND DUP3 PUSH28 0xFFFFFFFFFFFFFFFFFFFFFFFFFFFFFFFFFFFFFFFFFFFFFFFFFFFFFFFF NOT AND EQ DUP1 PUSH2 0x2CF JUMPI POP PUSH32 0x1FFC9A700000000000000000000000000000000000000000000000000000000 PUSH28 0xFFFFFFFFFFFFFFFFFFFFFFFFFFFFFFFFFFFFFFFFFFFFFFFFFFFFFFFF NOT AND DUP3 PUSH28 0xFFFFFFFFFFFFFFFFFFFFFFFFFFFFFFFFFFFFFFFFFFFFFFFFFFFFFFFF NOT AND EQ JUMPDEST SWAP1 POP SWAP2 SWAP1 POP JUMP JUMPDEST PUSH1 0x0 PUSH1 0x40 MLOAD PUSH1 0x24 ADD PUSH1 0x40 MLOAD PUSH1 0x20 DUP2 DUP4 SUB SUB DUP2 MSTORE SWAP1 PUSH1 0x40 MSTORE PUSH32 0x50C5F97500000000000000000000000000000000000000000000000000000000 PUSH28 0xFFFFFFFFFFFFFFFFFFFFFFFFFFFFFFFFFFFFFFFFFFFFFFFFFFFFFFFF NOT AND PUSH1 0x20 DUP3 ADD DUP1 MLOAD PUSH28 0xFFFFFFFFFFFFFFFFFFFFFFFFFFFFFFFFFFFFFFFFFFFFFFFFFFFFFFFF DUP4 DUP2 DUP4 AND OR DUP4 MSTORE POP POP POP POP SWAP1 POP PUSH1 0x0 DUP1 PUSH8 0xFFFFFFFFFFFFFFFF DUP2 GT ISZERO PUSH2 0x379 JUMPI PUSH2 0x378 PUSH2 0xFEC JUMP JUMPDEST JUMPDEST PUSH1 0x40 MLOAD SWAP1 DUP1 DUP3 MSTORE DUP1 PUSH1 0x20 MUL PUSH1 0x20 ADD DUP3 ADD PUSH1 0x40 MSTORE DUP1 ISZERO PUSH2 0x3B2 JUMPI DUP2 PUSH1 0x20 ADD JUMPDEST PUSH2 0x39F PUSH2 0xAA7 JUMP JUMPDEST DUP2 MSTORE PUSH1 0x20 ADD SWAP1 PUSH1 0x1 SWAP1 SUB SWAP1 DUP2 PUSH2 0x397 JUMPI SWAP1 POP JUMPDEST POP SWAP1 POP PUSH1 0x0 PUSH1 0x40 MLOAD DUP1 PUSH1 0xA0 ADD PUSH1 0x40 MSTORE DUP1 PUSH1 0x0 DUP1 SLOAD SWAP1 PUSH2 0x100 EXP SWAP1 DIV PUSH20 0xFFFFFFFFFFFFFFFFFFFFFFFFFFFFFFFFFFFFFFFF AND PUSH1 0x40 MLOAD PUSH1 0x20 ADD PUSH2 0x3F3 SWAP2 SWAP1 PUSH2 0xED0 JUMP JUMPDEST PUSH1 0x40 MLOAD PUSH1 0x20 DUP2 DUP4 SUB SUB DUP2 MSTORE SWAP1 PUSH1 0x40 MSTORE DUP2 MSTORE PUSH1 0x20 ADD DUP5 DUP2 MSTORE PUSH1 0x20 ADD DUP4 DUP2 MSTORE PUSH1 0x20 ADD PUSH1 0x0 PUSH20 0xFFFFFFFFFFFFFFFFFFFFFFFFFFFFFFFFFFFFFFFF AND DUP2 MSTORE PUSH1 0x20 ADD PUSH1 0x40 MLOAD DUP1 PUSH1 0x20 ADD PUSH1 0x40 MSTORE DUP1 PUSH1 0x0 DUP2 MSTORE POP DUP2 MSTORE POP SWAP1 POP PUSH1 0x0 PUSH1 0x1 PUSH1 0x0 SWAP1 SLOAD SWAP1 PUSH2 0x100 EXP SWAP1 DIV PUSH20 0xFFFFFFFFFFFFFFFFFFFFFFFFFFFFFFFFFFFFFFFF AND PUSH20 0xFFFFFFFFFFFFFFFFFFFFFFFFFFFFFFFFFFFFFFFF AND PUSH4 0x20487DED PUSH1 0x0 DUP5 PUSH1 0x40 MLOAD DUP4 PUSH4 0xFFFFFFFF AND PUSH1 0xE0 SHL DUP2 MSTORE PUSH1 0x4 ADD PUSH2 0x4A5 SWAP3 SWAP2 SWAP1 PUSH2 0x1246 JUMP JUMPDEST PUSH1 0x20 PUSH1 0x40 MLOAD DUP1 DUP4 SUB DUP2 DUP7 GAS STATICCALL ISZERO DUP1 ISZERO PUSH2 0x4C2 JUMPI RETURNDATASIZE PUSH1 0x0 DUP1 RETURNDATACOPY RETURNDATASIZE PUSH1 0x0 REVERT JUMPDEST POP POP POP POP PUSH1 0x40 MLOAD RETURNDATASIZE PUSH1 0x1F NOT PUSH1 0x1F DUP3 ADD AND DUP3 ADD DUP1 PUSH1 0x40 MSTORE POP DUP2 ADD SWAP1 PUSH2 0x4E6 SWAP2 SWAP1 PUSH2 0x128B JUMP JUMPDEST SWAP1 POP PUSH1 0x0 PUSH1 0x1 PUSH1 0x0 SWAP1 SLOAD SWAP1 PUSH2 0x100 EXP SWAP1 DIV PUSH20 0xFFFFFFFFFFFFFFFFFFFFFFFFFFFFFFFFFFFFFFFF AND PUSH20 0xFFFFFFFFFFFFFFFFFFFFFFFFFFFFFFFFFFFFFFFF AND PUSH4 0x96F4E9F9 DUP4 PUSH1 0x0 DUP7 PUSH1 0x40 MLOAD DUP5 PUSH4 0xFFFFFFFF AND PUSH1 0xE0 SHL DUP2 MSTORE PUSH1 0x4 ADD PUSH2 0x549 SWAP3 SWAP2 SWAP1 PUSH2 0x1246 JUMP JUMPDEST PUSH1 0x20 PUSH1 0x40 MLOAD DUP1 DUP4 SUB DUP2 DUP6 DUP9 GAS CALL ISZERO DUP1 ISZERO PUSH2 0x567 JUMPI RETURNDATASIZE PUSH1 0x0 DUP1 RETURNDATACOPY RETURNDATASIZE PUSH1 0x0 REVERT JUMPDEST POP POP POP POP POP PUSH1 0x40 MLOAD RETURNDATASIZE PUSH1 0x1F NOT PUSH1 0x1F DUP3 ADD AND DUP3 ADD DUP1 PUSH1 0x40 MSTORE POP DUP2 ADD SWAP1 PUSH2 0x58C SWAP2 SWAP1 PUSH2 0x12E4 JUMP JUMPDEST SWAP1 POP PUSH32 0x54791B38F3859327992A1CA0590AD3C0F08FEBA98D1A4F56AB0DCA74D203392A DUP2 PUSH1 0x40 MLOAD PUSH2 0x5BD SWAP2 SWAP1 PUSH2 0x1320 JUMP JUMPDEST PUSH1 0x40 MLOAD DUP1 SWAP2 SUB SWAP1 LOG1 POP POP POP POP POP JUMP JUMPDEST PUSH1 0x3 PUSH1 0x0 SWAP1 SLOAD SWAP1 PUSH2 0x100 EXP SWAP1 DIV PUSH20 0xFFFFFFFFFFFFFFFFFFFFFFFFFFFFFFFFFFFFFFFF AND DUP2 JUMP JUMPDEST PUSH2 0x5FA PUSH2 0xAD7 JUMP JUMPDEST PUSH1 0x4 PUSH1 0x0 SWAP1 SLOAD SWAP1 PUSH2 0x100 EXP SWAP1 DIV PUSH20 0xFFFFFFFFFFFFFFFFFFFFFFFFFFFFFFFFFFFFFFFF AND PUSH20 0xFFFFFFFFFFFFFFFFFFFFFFFFFFFFFFFFFFFFFFFF AND PUSH4 0x672FB969 DUP4 PUSH1 0x40 MLOAD DUP3 PUSH4 0xFFFFFFFF AND PUSH1 0xE0 SHL DUP2 MSTORE PUSH1 0x4 ADD PUSH2 0x655 SWAP2 SWAP1 PUSH2 0x134A JUMP JUMPDEST PUSH1 0x0 PUSH1 0x40 MLOAD DUP1 DUP4 SUB DUP2 DUP7 GAS STATICCALL ISZERO DUP1 ISZERO PUSH2 0x672 JUMPI RETURNDATASIZE PUSH1 0x0 DUP1 RETURNDATACOPY RETURNDATASIZE PUSH1 0x0 REVERT JUMPDEST POP POP POP POP PUSH1 0x40 MLOAD RETURNDATASIZE PUSH1 0x0 DUP3 RETURNDATACOPY RETURNDATASIZE PUSH1 0x1F NOT PUSH1 0x1F DUP3 ADD AND DUP3 ADD DUP1 PUSH1 0x40 MSTORE POP DUP2 ADD SWAP1 PUSH2 0x69B SWAP2 SWAP1 PUSH2 0x1511 JUMP JUMPDEST SWAP1 POP SWAP2 SWAP1 POP JUMP JUMPDEST PUSH32 0x0 PUSH20 0xFFFFFFFFFFFFFFFFFFFFFFFFFFFFFFFFFFFFFFFF AND CALLER PUSH20 0xFFFFFFFFFFFFFFFFFFFFFFFFFFFFFFFFFFFFFFFF AND EQ PUSH2 0x732 JUMPI CALLER PUSH1 0x40 MLOAD PUSH32 0xD7F7333400000000000000000000000000000000000000000000000000000000 DUP2 MSTORE PUSH1 0x4 ADD PUSH2 0x729 SWAP2 SWAP1 PUSH2 0xED0 JUMP JUMPDEST PUSH1 0x40 MLOAD DUP1 SWAP2 SUB SWAP1 REVERT JUMPDEST PUSH2 0x744 DUP2 PUSH2 0x73F SWAP1 PUSH2 0x186A JUMP JUMPDEST PUSH2 0x8A3 JUMP JUMPDEST POP JUMP JUMPDEST PUSH1 0x4 PUSH1 0x0 SWAP1 SLOAD SWAP1 PUSH2 0x100 EXP SWAP1 DIV PUSH20 0xFFFFFFFFFFFFFFFFFFFFFFFFFFFFFFFFFFFFFFFF AND DUP2 JUMP JUMPDEST PUSH1 0x0 PUSH32 0x0 SWAP1 POP SWAP1 JUMP JUMPDEST PUSH1 0x0 DUP1 SLOAD SWAP1 PUSH2 0x100 EXP SWAP1 DIV PUSH20 0xFFFFFFFFFFFFFFFFFFFFFFFFFFFFFFFFFFFFFFFF AND DUP2 JUMP JUMPDEST PUSH1 0x2 PUSH1 0x0 SWAP1 SLOAD SWAP1 PUSH2 0x100 EXP SWAP1 DIV PUSH20 0xFFFFFFFFFFFFFFFFFFFFFFFFFFFFFFFFFFFFFFFF AND DUP2 JUMP JUMPDEST PUSH1 0x1 PUSH1 0x0 SWAP1 SLOAD SWAP1 PUSH2 0x100 EXP SWAP1 DIV PUSH20 0xFFFFFFFFFFFFFFFFFFFFFFFFFFFFFFFFFFFFFFFF AND DUP2 JUMP JUMPDEST PUSH1 0x4 PUSH1 0x0 SWAP1 SLOAD SWAP1 PUSH2 0x100 EXP SWAP1 DIV PUSH20 0xFFFFFFFFFFFFFFFFFFFFFFFFFFFFFFFFFFFFFFFF AND PUSH20 0xFFFFFFFFFFFFFFFFFFFFFFFFFFFFFFFFFFFFFFFF AND PUSH4 0xFE49E833 DUP5 DUP5 DUP5 PUSH1 0x40 MLOAD DUP5 PUSH4 0xFFFFFFFF AND PUSH1 0xE0 SHL DUP2 MSTORE PUSH1 0x4 ADD PUSH2 0x864 SWAP4 SWAP3 SWAP2 SWAP1 PUSH2 0x18F8 JUMP JUMPDEST PUSH1 0x0 PUSH1 0x40 MLOAD DUP1 DUP4 SUB DUP2 PUSH1 0x0 DUP8 DUP1 EXTCODESIZE ISZERO DUP1 ISZERO PUSH2 0x87E JUMPI PUSH1 0x0 DUP1 REVERT JUMPDEST POP GAS CALL ISZERO DUP1 ISZERO PUSH2 0x892 JUMPI RETURNDATASIZE PUSH1 0x0 DUP1 RETURNDATACOPY RETURNDATASIZE PUSH1 0x0 REVERT JUMPDEST POP POP POP POP PUSH2 0x89E PUSH2 0x2D6 JUMP JUMPDEST POP POP POP JUMP JUMPDEST PUSH1 0x0 DUP2 PUSH1 0x60 ADD MLOAD DUP1 PUSH1 0x20 ADD SWAP1 MLOAD DUP2 ADD SWAP1 PUSH2 0x8BD SWAP2 SWAP1 PUSH2 0x128B JUMP JUMPDEST SWAP1 POP PUSH1 0x0 DUP3 PUSH1 0x40 ADD MLOAD DUP1 PUSH1 0x20 ADD SWAP1 MLOAD DUP2 ADD SWAP1 PUSH2 0x8D9 SWAP2 SWAP1 PUSH2 0x1968 JUMP JUMPDEST SWAP1 POP PUSH1 0x3 PUSH1 0x0 SWAP1 SLOAD SWAP1 PUSH2 0x100 EXP SWAP1 DIV PUSH20 0xFFFFFFFFFFFFFFFFFFFFFFFFFFFFFFFFFFFFFFFF AND PUSH20 0xFFFFFFFFFFFFFFFFFFFFFFFFFFFFFFFFFFFFFFFF AND PUSH4 0x70A08231 ADDRESS PUSH1 0x40 MLOAD DUP3 PUSH4 0xFFFFFFFF AND PUSH1 0xE0 SHL DUP2 MSTORE PUSH1 0x4 ADD PUSH2 0x936 SWAP2 SWAP1 PUSH2 0xED0 JUMP JUMPDEST PUSH1 0x20 PUSH1 0x40 MLOAD DUP1 DUP4 SUB DUP2 DUP7 GAS STATICCALL ISZERO DUP1 ISZERO PUSH2 0x953 JUMPI RETURNDATASIZE PUSH1 0x0 DUP1 RETURNDATACOPY RETURNDATASIZE PUSH1 0x0 REVERT JUMPDEST POP POP POP POP PUSH1 0x40 MLOAD RETURNDATASIZE PUSH1 0x1F NOT PUSH1 0x1F DUP3 ADD AND DUP3 ADD DUP1 PUSH1 0x40 MSTORE POP DUP2 ADD SWAP1 PUSH2 0x977 SWAP2 SWAP1 PUSH2 0x128B JUMP JUMPDEST DUP3 PUSH2 0x982 SWAP2 SWAP1 PUSH2 0x19C4 JUMP JUMPDEST SWAP2 POP PUSH1 0x0 PUSH10 0xA968163F0A57B400000 SWAP1 POP PUSH8 0xDE0B6B3A7640000 DUP4 LT PUSH2 0x9BB JUMPI PUSH10 0x69E10DE76676D0800000 DUP2 PUSH2 0x9B8 SWAP2 SWAP1 PUSH2 0x19C4 JUMP JUMPDEST SWAP1 POP JUMPDEST PUSH1 0x2 PUSH1 0x0 SWAP1 SLOAD SWAP1 PUSH2 0x100 EXP SWAP1 DIV PUSH20 0xFFFFFFFFFFFFFFFFFFFFFFFFFFFFFFFFFFFFFFFF AND PUSH20 0xFFFFFFFFFFFFFFFFFFFFFFFFFFFFFFFFFFFFFFFF AND PUSH4 0xA9059CBB CALLER DUP4 PUSH1 0x40 MLOAD DUP4 PUSH4 0xFFFFFFFF AND PUSH1 0xE0 SHL DUP2 MSTORE PUSH1 0x4 ADD PUSH2 0xA18 SWAP3 SWAP2 SWAP1 PUSH2 0x19F8 JUMP JUMPDEST PUSH1 0x20 PUSH1 0x40 MLOAD DUP1 DUP4 SUB DUP2 PUSH1 0x0 DUP8 GAS CALL ISZERO DUP1 ISZERO PUSH2 0xA37 JUMPI RETURNDATASIZE PUSH1 0x0 DUP1 RETURNDATACOPY RETURNDATASIZE PUSH1 0x0 REVERT JUMPDEST POP POP POP POP PUSH1 0x40 MLOAD RETURNDATASIZE PUSH1 0x1F NOT PUSH1 0x1F DUP3 ADD AND DUP3 ADD DUP1 PUSH1 0x40 MSTORE POP DUP2 ADD SWAP1 PUSH2 0xA5B SWAP2 SWAP1 PUSH2 0x1A4D JUMP JUMPDEST POP PUSH32 0x9E0CEDD023F625FB8DB19F2EB903C24AA1A45F05FD9EF9431A80505AD65E30FE DUP5 PUSH1 0x0 ADD MLOAD DUP6 PUSH1 0x20 ADD MLOAD DUP5 DUP7 PUSH1 0x40 MLOAD PUSH2 0xA99 SWAP5 SWAP4 SWAP3 SWAP2 SWAP1 PUSH2 0x1A89 JUMP JUMPDEST PUSH1 0x40 MLOAD DUP1 SWAP2 SUB SWAP1 LOG1 POP POP POP POP JUMP JUMPDEST PUSH1 0x40 MLOAD DUP1 PUSH1 0x40 ADD PUSH1 0x40 MSTORE DUP1 PUSH1 0x0 PUSH20 0xFFFFFFFFFFFFFFFFFFFFFFFFFFFFFFFFFFFFFFFF AND DUP2 MSTORE PUSH1 0x20 ADD PUSH1 0x0 DUP2 MSTORE POP SWAP1 JUMP JUMPDEST PUSH1 0x40 MLOAD DUP1 PUSH1 0x80 ADD PUSH1 0x40 MSTORE DUP1 PUSH1 0x60 DUP2 MSTORE PUSH1 0x20 ADD PUSH1 0x60 DUP2 MSTORE PUSH1 0x20 ADD PUSH1 0x0 DUP1 NOT AND DUP2 MSTORE PUSH1 0x20 ADD PUSH1 0x0 DUP1 NOT AND DUP2 MSTORE POP SWAP1 JUMP JUMPDEST PUSH1 0x0 PUSH1 0x40 MLOAD SWAP1 POP SWAP1 JUMP JUMPDEST PUSH1 0x0 DUP1 REVERT JUMPDEST PUSH1 0x0 DUP1 REVERT JUMPDEST PUSH1 0x0 PUSH32 0xFFFFFFFF00000000000000000000000000000000000000000000000000000000 DUP3 AND SWAP1 POP SWAP2 SWAP1 POP JUMP JUMPDEST PUSH2 0xB4E DUP2 PUSH2 0xB19 JUMP JUMPDEST DUP2 EQ PUSH2 0xB59 JUMPI PUSH1 0x0 DUP1 REVERT JUMPDEST POP JUMP JUMPDEST PUSH1 0x0 DUP2 CALLDATALOAD SWAP1 POP PUSH2 0xB6B DUP2 PUSH2 0xB45 JUMP JUMPDEST SWAP3 SWAP2 POP POP JUMP JUMPDEST PUSH1 0x0 PUSH1 0x20 DUP3 DUP5 SUB SLT ISZERO PUSH2 0xB87 JUMPI PUSH2 0xB86 PUSH2 0xB0F JUMP JUMPDEST JUMPDEST PUSH1 0x0 PUSH2 0xB95 DUP5 DUP3 DUP6 ADD PUSH2 0xB5C JUMP JUMPDEST SWAP2 POP POP SWAP3 SWAP2 POP POP JUMP JUMPDEST PUSH1 0x0 DUP2 ISZERO ISZERO SWAP1 POP SWAP2 SWAP1 POP JUMP JUMPDEST PUSH2 0xBB3 DUP2 PUSH2 0xB9E JUMP JUMPDEST DUP3 MSTORE POP POP JUMP JUMPDEST PUSH1 0x0 PUSH1 0x20 DUP3 ADD SWAP1 POP PUSH2 0xBCE PUSH1 0x0 DUP4 ADD DUP5 PUSH2 0xBAA JUMP JUMPDEST SWAP3 SWAP2 POP POP JUMP JUMPDEST PUSH1 0x0 PUSH20 0xFFFFFFFFFFFFFFFFFFFFFFFFFFFFFFFFFFFFFFFF DUP3 AND SWAP1 POP SWAP2 SWAP1 POP JUMP JUMPDEST PUSH1 0x0 DUP2 SWAP1 POP SWAP2 SWAP1 POP JUMP JUMPDEST PUSH1 0x0 PUSH2 0xC19 PUSH2 0xC14 PUSH2 0xC0F DUP5 PUSH2 0xBD4 JUMP JUMPDEST PUSH2 0xBF4 JUMP JUMPDEST PUSH2 0xBD4 JUMP JUMPDEST SWAP1 POP SWAP2 SWAP1 POP JUMP JUMPDEST PUSH1 0x0 PUSH2 0xC2B DUP3 PUSH2 0xBFE JUMP JUMPDEST SWAP1 POP SWAP2 SWAP1 POP JUMP JUMPDEST PUSH1 0x0 PUSH2 0xC3D DUP3 PUSH2 0xC20 JUMP JUMPDEST SWAP1 POP SWAP2 SWAP1 POP JUMP JUMPDEST PUSH2 0xC4D DUP2 PUSH2 0xC32 JUMP JUMPDEST DUP3 MSTORE POP POP JUMP JUMPDEST PUSH1 0x0 PUSH1 0x20 DUP3 ADD SWAP1 POP PUSH2 0xC68 PUSH1 0x0 DUP4 ADD DUP5 PUSH2 0xC44 JUMP JUMPDEST SWAP3 SWAP2 POP POP JUMP JUMPDEST PUSH1 0x0 DUP2 SWAP1 POP SWAP2 SWAP1 POP JUMP JUMPDEST PUSH2 0xC81 DUP2 PUSH2 0xC6E JUMP JUMPDEST DUP2 EQ PUSH2 0xC8C JUMPI PUSH1 0x0 DUP1 REVERT JUMPDEST POP JUMP JUMPDEST PUSH1 0x0 DUP2 CALLDATALOAD SWAP1 POP PUSH2 0xC9E DUP2 PUSH2 0xC78 JUMP JUMPDEST SWAP3 SWAP2 POP POP JUMP JUMPDEST PUSH1 0x0 PUSH1 0x20 DUP3 DUP5 SUB SLT ISZERO PUSH2 0xCBA JUMPI PUSH2 0xCB9 PUSH2 0xB0F JUMP JUMPDEST JUMPDEST PUSH1 0x0 PUSH2 0xCC8 DUP5 DUP3 DUP6 ADD PUSH2 0xC8F JUMP JUMPDEST SWAP2 POP POP SWAP3 SWAP2 POP POP JUMP JUMPDEST PUSH1 0x0 DUP2 MLOAD SWAP1 POP SWAP2 SWAP1 POP JUMP JUMPDEST PUSH1 0x0 DUP3 DUP3 MSTORE PUSH1 0x20 DUP3 ADD SWAP1 POP SWAP3 SWAP2 POP POP JUMP JUMPDEST PUSH1 0x0 JUMPDEST DUP4 DUP2 LT ISZERO PUSH2 0xD0B JUMPI DUP1 DUP3 ADD MLOAD DUP2 DUP5 ADD MSTORE PUSH1 0x20 DUP2 ADD SWAP1 POP PUSH2 0xCF0 JUMP JUMPDEST PUSH1 0x0 DUP5 DUP5 ADD MSTORE POP POP POP POP JUMP JUMPDEST PUSH1 0x0 PUSH1 0x1F NOT PUSH1 0x1F DUP4 ADD AND SWAP1 POP SWAP2 SWAP1 POP JUMP JUMPDEST PUSH1 0x0 PUSH2 0xD33 DUP3 PUSH2 0xCD1 JUMP JUMPDEST PUSH2 0xD3D DUP2 DUP6 PUSH2 0xCDC JUMP JUMPDEST SWAP4 POP PUSH2 0xD4D DUP2 DUP6 PUSH1 0x20 DUP7 ADD PUSH2 0xCED JUMP JUMPDEST PUSH2 0xD56 DUP2 PUSH2 0xD17 JUMP JUMPDEST DUP5 ADD SWAP2 POP POP SWAP3 SWAP2 POP POP JUMP JUMPDEST PUSH1 0x0 DUP2 SWAP1 POP SWAP2 SWAP1 POP JUMP JUMPDEST PUSH2 0xD74 DUP2 PUSH2 0xD61 JUMP JUMPDEST DUP3 MSTORE POP POP JUMP JUMPDEST PUSH1 0x0 PUSH1 0x80 DUP4 ADD PUSH1 0x0 DUP4 ADD MLOAD DUP5 DUP3 SUB PUSH1 0x0 DUP7 ADD MSTORE PUSH2 0xD97 DUP3 DUP3 PUSH2 0xD28 JUMP JUMPDEST SWAP2 POP POP PUSH1 0x20 DUP4 ADD MLOAD DUP5 DUP3 SUB PUSH1 0x20 DUP7 ADD MSTORE PUSH2 0xDB1 DUP3 DUP3 PUSH2 0xD28 JUMP JUMPDEST SWAP2 POP POP PUSH1 0x40 DUP4 ADD MLOAD PUSH2 0xDC6 PUSH1 0x40 DUP7 ADD DUP3 PUSH2 0xD6B JUMP JUMPDEST POP PUSH1 0x60 DUP4 ADD MLOAD PUSH2 0xDD9 PUSH1 0x60 DUP7 ADD DUP3 PUSH2 0xD6B JUMP JUMPDEST POP DUP1 SWAP2 POP POP SWAP3 SWAP2 POP POP JUMP JUMPDEST PUSH1 0x0 PUSH1 0x20 DUP3 ADD SWAP1 POP DUP2 DUP2 SUB PUSH1 0x0 DUP4 ADD MSTORE PUSH2 0xDFE DUP2 DUP5 PUSH2 0xD7A JUMP JUMPDEST SWAP1 POP SWAP3 SWAP2 POP POP JUMP JUMPDEST PUSH1 0x0 DUP1 REVERT JUMPDEST PUSH1 0x0 PUSH1 0xA0 DUP3 DUP5 SUB SLT ISZERO PUSH2 0xE21 JUMPI PUSH2 0xE20 PUSH2 0xE06 JUMP JUMPDEST JUMPDEST DUP2 SWAP1 POP SWAP3 SWAP2 POP POP JUMP JUMPDEST PUSH1 0x0 PUSH1 0x20 DUP3 DUP5 SUB SLT ISZERO PUSH2 0xE40 JUMPI PUSH2 0xE3F PUSH2 0xB0F JUMP JUMPDEST JUMPDEST PUSH1 0x0 DUP3 ADD CALLDATALOAD PUSH8 0xFFFFFFFFFFFFFFFF DUP2 GT ISZERO PUSH2 0xE5E JUMPI PUSH2 0xE5D PUSH2 0xB14 JUMP JUMPDEST JUMPDEST PUSH2 0xE6A DUP5 DUP3 DUP6 ADD PUSH2 0xE0B JUMP JUMPDEST SWAP2 POP POP SWAP3 SWAP2 POP POP JUMP JUMPDEST PUSH1 0x0 PUSH2 0xE7E DUP3 PUSH2 0xC20 JUMP JUMPDEST SWAP1 POP SWAP2 SWAP1 POP JUMP JUMPDEST PUSH2 0xE8E DUP2 PUSH2 0xE73 JUMP JUMPDEST DUP3 MSTORE POP POP JUMP JUMPDEST PUSH1 0x0 PUSH1 0x20 DUP3 ADD SWAP1 POP PUSH2 0xEA9 PUSH1 0x0 DUP4 ADD DUP5 PUSH2 0xE85 JUMP JUMPDEST SWAP3 SWAP2 POP POP JUMP JUMPDEST PUSH1 0x0 PUSH2 0xEBA DUP3 PUSH2 0xBD4 JUMP JUMPDEST SWAP1 POP SWAP2 SWAP1 POP JUMP JUMPDEST PUSH2 0xECA DUP2 PUSH2 0xEAF JUMP JUMPDEST DUP3 MSTORE POP POP JUMP JUMPDEST PUSH1 0x0 PUSH1 0x20 DUP3 ADD SWAP1 POP PUSH2 0xEE5 PUSH1 0x0 DUP4 ADD DUP5 PUSH2 0xEC1 JUMP JUMPDEST SWAP3 SWAP2 POP POP JUMP JUMPDEST PUSH1 0x0 PUSH2 0xEF6 DUP3 PUSH2 0xC20 JUMP JUMPDEST SWAP1 POP SWAP2 SWAP1 POP JUMP JUMPDEST PUSH2 0xF06 DUP2 PUSH2 0xEEB JUMP JUMPDEST DUP3 MSTORE POP POP JUMP JUMPDEST PUSH1 0x0 PUSH1 0x20 DUP3 ADD SWAP1 POP PUSH2 0xF21 PUSH1 0x0 DUP4 ADD DUP5 PUSH2 0xEFD JUMP JUMPDEST SWAP3 SWAP2 POP POP JUMP JUMPDEST PUSH1 0x0 DUP1 REVERT JUMPDEST PUSH1 0x0 DUP1 REVERT JUMPDEST PUSH1 0x0 DUP1 REVERT JUMPDEST PUSH1 0x0 DUP1 DUP4 PUSH1 0x1F DUP5 ADD SLT PUSH2 0xF4C JUMPI PUSH2 0xF4B PUSH2 0xF27 JUMP JUMPDEST JUMPDEST DUP3 CALLDATALOAD SWAP1 POP PUSH8 0xFFFFFFFFFFFFFFFF DUP2 GT ISZERO PUSH2 0xF69 JUMPI PUSH2 0xF68 PUSH2 0xF2C JUMP JUMPDEST JUMPDEST PUSH1 0x20 DUP4 ADD SWAP2 POP DUP4 PUSH1 0x20 DUP3 MUL DUP4 ADD GT ISZERO PUSH2 0xF85 JUMPI PUSH2 0xF84 PUSH2 0xF31 JUMP JUMPDEST JUMPDEST SWAP3 POP SWAP3 SWAP1 POP JUMP JUMPDEST PUSH1 0x0 DUP1 PUSH1 0x0 PUSH1 0x40 DUP5 DUP7 SUB SLT ISZERO PUSH2 0xFA5 JUMPI PUSH2 0xFA4 PUSH2 0xB0F JUMP JUMPDEST JUMPDEST PUSH1 0x0 PUSH2 0xFB3 DUP7 DUP3 DUP8 ADD PUSH2 0xC8F JUMP JUMPDEST SWAP4 POP POP PUSH1 0x20 DUP5 ADD CALLDATALOAD PUSH8 0xFFFFFFFFFFFFFFFF DUP2 GT ISZERO PUSH2 0xFD4 JUMPI PUSH2 0xFD3 PUSH2 0xB14 JUMP JUMPDEST JUMPDEST PUSH2 0xFE0 DUP7 DUP3 DUP8 ADD PUSH2 0xF36 JUMP JUMPDEST SWAP3 POP SWAP3 POP POP SWAP3 POP SWAP3 POP SWAP3 JUMP JUMPDEST PUSH32 0x4E487B7100000000000000000000000000000000000000000000000000000000 PUSH1 0x0 MSTORE PUSH1 0x41 PUSH1 0x4 MSTORE PUSH1 0x24 PUSH1 0x0 REVERT JUMPDEST PUSH1 0x0 DUP2 SWAP1 POP SWAP2 SWAP1 POP JUMP JUMPDEST PUSH1 0x0 PUSH8 0xFFFFFFFFFFFFFFFF DUP3 AND SWAP1 POP SWAP2 SWAP1 POP JUMP JUMPDEST PUSH1 0x0 PUSH2 0x1054 PUSH2 0x104F PUSH2 0x104A DUP5 PUSH2 0x101B JUMP JUMPDEST PUSH2 0xBF4 JUMP JUMPDEST PUSH2 0x1025 JUMP JUMPDEST SWAP1 POP SWAP2 SWAP1 POP JUMP JUMPDEST PUSH2 0x1064 DUP2 PUSH2 0x1039 JUMP JUMPDEST DUP3 MSTORE POP POP JUMP JUMPDEST PUSH1 0x0 DUP2 MLOAD SWAP1 POP SWAP2 SWAP1 POP JUMP JUMPDEST PUSH1 0x0 DUP3 DUP3 MSTORE PUSH1 0x20 DUP3 ADD SWAP1 POP SWAP3 SWAP2 POP POP JUMP JUMPDEST PUSH1 0x0 PUSH2 0x1091 DUP3 PUSH2 0x106A JUMP JUMPDEST PUSH2 0x109B DUP2 DUP6 PUSH2 0x1075 JUMP JUMPDEST SWAP4 POP PUSH2 0x10AB DUP2 DUP6 PUSH1 0x20 DUP7 ADD PUSH2 0xCED JUMP JUMPDEST PUSH2 0x10B4 DUP2 PUSH2 0xD17 JUMP JUMPDEST DUP5 ADD SWAP2 POP POP SWAP3 SWAP2 POP POP JUMP JUMPDEST PUSH1 0x0 DUP2 MLOAD SWAP1 POP SWAP2 SWAP1 POP JUMP JUMPDEST PUSH1 0x0 DUP3 DUP3 MSTORE PUSH1 0x20 DUP3 ADD SWAP1 POP SWAP3 SWAP2 POP POP JUMP JUMPDEST PUSH1 0x0 DUP2 SWAP1 POP PUSH1 0x20 DUP3 ADD SWAP1 POP SWAP2 SWAP1 POP JUMP JUMPDEST PUSH2 0x10F4 DUP2 PUSH2 0xEAF JUMP JUMPDEST DUP3 MSTORE POP POP JUMP JUMPDEST PUSH2 0x1103 DUP2 PUSH2 0xC6E JUMP JUMPDEST DUP3 MSTORE POP POP JUMP JUMPDEST PUSH1 0x40 DUP3 ADD PUSH1 0x0 DUP3 ADD MLOAD PUSH2 0x111F PUSH1 0x0 DUP6 ADD DUP3 PUSH2 0x10EB JUMP JUMPDEST POP PUSH1 0x20 DUP3 ADD MLOAD PUSH2 0x1132 PUSH1 0x20 DUP6 ADD DUP3 PUSH2 0x10FA JUMP JUMPDEST POP POP POP POP JUMP JUMPDEST PUSH1 0x0 PUSH2 0x1144 DUP4 DUP4 PUSH2 0x1109 JUMP JUMPDEST PUSH1 0x40 DUP4 ADD SWAP1 POP SWAP3 SWAP2 POP POP JUMP JUMPDEST PUSH1 0x0 PUSH1 0x20 DUP3 ADD SWAP1 POP SWAP2 SWAP1 POP JUMP JUMPDEST PUSH1 0x0 PUSH2 0x1168 DUP3 PUSH2 0x10BF JUMP JUMPDEST PUSH2 0x1172 DUP2 DUP6 PUSH2 0x10CA JUMP JUMPDEST SWAP4 POP PUSH2 0x117D DUP4 PUSH2 0x10DB JUMP JUMPDEST DUP1 PUSH1 0x0 JUMPDEST DUP4 DUP2 LT ISZERO PUSH2 0x11AE JUMPI DUP2 MLOAD PUSH2 0x1195 DUP9 DUP3 PUSH2 0x1138 JUMP JUMPDEST SWAP8 POP PUSH2 0x11A0 DUP4 PUSH2 0x1150 JUMP JUMPDEST SWAP3 POP POP PUSH1 0x1 DUP2 ADD SWAP1 POP PUSH2 0x1181 JUMP JUMPDEST POP DUP6 SWAP4 POP POP POP POP SWAP3 SWAP2 POP POP JUMP JUMPDEST PUSH1 0x0 PUSH1 0xA0 DUP4 ADD PUSH1 0x0 DUP4 ADD MLOAD DUP5 DUP3 SUB PUSH1 0x0 DUP7 ADD MSTORE PUSH2 0x11D8 DUP3 DUP3 PUSH2 0x1086 JUMP JUMPDEST SWAP2 POP POP PUSH1 0x20 DUP4 ADD MLOAD DUP5 DUP3 SUB PUSH1 0x20 DUP7 ADD MSTORE PUSH2 0x11F2 DUP3 DUP3 PUSH2 0x1086 JUMP JUMPDEST SWAP2 POP POP PUSH1 0x40 DUP4 ADD MLOAD DUP5 DUP3 SUB PUSH1 0x40 DUP7 ADD MSTORE PUSH2 0x120C DUP3 DUP3 PUSH2 0x115D JUMP JUMPDEST SWAP2 POP POP PUSH1 0x60 DUP4 ADD MLOAD PUSH2 0x1221 PUSH1 0x60 DUP7 ADD DUP3 PUSH2 0x10EB JUMP JUMPDEST POP PUSH1 0x80 DUP4 ADD MLOAD DUP5 DUP3 SUB PUSH1 0x80 DUP7 ADD MSTORE PUSH2 0x1239 DUP3 DUP3 PUSH2 0x1086 JUMP JUMPDEST SWAP2 POP POP DUP1 SWAP2 POP POP SWAP3 SWAP2 POP POP JUMP JUMPDEST PUSH1 0x0 PUSH1 0x40 DUP3 ADD SWAP1 POP PUSH2 0x125B PUSH1 0x0 DUP4 ADD DUP6 PUSH2 0x105B JUMP JUMPDEST DUP2 DUP2 SUB PUSH1 0x20 DUP4 ADD MSTORE PUSH2 0x126D DUP2 DUP5 PUSH2 0x11BB JUMP JUMPDEST SWAP1 POP SWAP4 SWAP3 POP POP POP JUMP JUMPDEST PUSH1 0x0 DUP2 MLOAD SWAP1 POP PUSH2 0x1285 DUP2 PUSH2 0xC78 JUMP JUMPDEST SWAP3 SWAP2 POP POP JUMP JUMPDEST PUSH1 0x0 PUSH1 0x20 DUP3 DUP5 SUB SLT ISZERO PUSH2 0x12A1 JUMPI PUSH2 0x12A0 PUSH2 0xB0F JUMP JUMPDEST JUMPDEST PUSH1 0x0 PUSH2 0x12AF DUP5 DUP3 DUP6 ADD PUSH2 0x1276 JUMP JUMPDEST SWAP2 POP POP SWAP3 SWAP2 POP POP JUMP JUMPDEST PUSH2 0x12C1 DUP2 PUSH2 0xD61 JUMP JUMPDEST DUP2 EQ PUSH2 0x12CC JUMPI PUSH1 0x0 DUP1 REVERT JUMPDEST POP JUMP JUMPDEST PUSH1 0x0 DUP2 MLOAD SWAP1 POP PUSH2 0x12DE DUP2 PUSH2 0x12B8 JUMP JUMPDEST SWAP3 SWAP2 POP POP JUMP JUMPDEST PUSH1 0x0 PUSH1 0x20 DUP3 DUP5 SUB SLT ISZERO PUSH2 0x12FA JUMPI PUSH2 0x12F9 PUSH2 0xB0F JUMP JUMPDEST JUMPDEST PUSH1 0x0 PUSH2 0x1308 DUP5 DUP3 DUP6 ADD PUSH2 0x12CF JUMP JUMPDEST SWAP2 POP POP SWAP3 SWAP2 POP POP JUMP JUMPDEST PUSH2 0x131A DUP2 PUSH2 0xD61 JUMP JUMPDEST DUP3 MSTORE POP POP JUMP JUMPDEST PUSH1 0x0 PUSH1 0x20 DUP3 ADD SWAP1 POP PUSH2 0x1335 PUSH1 0x0 DUP4 ADD DUP5 PUSH2 0x1311 JUMP JUMPDEST SWAP3 SWAP2 POP POP JUMP JUMPDEST PUSH2 0x1344 DUP2 PUSH2 0xC6E JUMP JUMPDEST DUP3 MSTORE POP POP JUMP JUMPDEST PUSH1 0x0 PUSH1 0x20 DUP3 ADD SWAP1 POP PUSH2 0x135F PUSH1 0x0 DUP4 ADD DUP5 PUSH2 0x133B JUMP JUMPDEST SWAP3 SWAP2 POP POP JUMP JUMPDEST PUSH1 0x0 DUP1 REVERT JUMPDEST PUSH2 0x1373 DUP3 PUSH2 0xD17 JUMP JUMPDEST DUP2 ADD DUP2 DUP2 LT PUSH8 0xFFFFFFFFFFFFFFFF DUP3 GT OR ISZERO PUSH2 0x1392 JUMPI PUSH2 0x1391 PUSH2 0xFEC JUMP JUMPDEST JUMPDEST DUP1 PUSH1 0x40 MSTORE POP POP POP JUMP JUMPDEST PUSH1 0x0 PUSH2 0x13A5 PUSH2 0xB05 JUMP JUMPDEST SWAP1 POP PUSH2 0x13B1 DUP3 DUP3 PUSH2 0x136A JUMP JUMPDEST SWAP2 SWAP1 POP JUMP JUMPDEST PUSH1 0x0 DUP1 REVERT JUMPDEST PUSH1 0x0 DUP1 REVERT JUMPDEST PUSH1 0x0 PUSH8 0xFFFFFFFFFFFFFFFF DUP3 GT ISZERO PUSH2 0x13DB JUMPI PUSH2 0x13DA PUSH2 0xFEC JUMP JUMPDEST JUMPDEST PUSH2 0x13E4 DUP3 PUSH2 0xD17 JUMP JUMPDEST SWAP1 POP PUSH1 0x20 DUP2 ADD SWAP1 POP SWAP2 SWAP1 POP JUMP JUMPDEST PUSH1 0x0 PUSH2 0x1404 PUSH2 0x13FF DUP5 PUSH2 0x13C0 JUMP JUMPDEST PUSH2 0x139B JUMP JUMPDEST SWAP1 POP DUP3 DUP2 MSTORE PUSH1 0x20 DUP2 ADD DUP5 DUP5 DUP5 ADD GT ISZERO PUSH2 0x1420 JUMPI PUSH2 0x141F PUSH2 0x13BB JUMP JUMPDEST JUMPDEST PUSH2 0x142B DUP5 DUP3 DUP6 PUSH2 0xCED JUMP JUMPDEST POP SWAP4 SWAP3 POP POP POP JUMP JUMPDEST PUSH1 0x0 DUP3 PUSH1 0x1F DUP4 ADD SLT PUSH2 0x1448 JUMPI PUSH2 0x1447 PUSH2 0xF27 JUMP JUMPDEST JUMPDEST DUP2 MLOAD PUSH2 0x1458 DUP5 DUP3 PUSH1 0x20 DUP7 ADD PUSH2 0x13F1 JUMP JUMPDEST SWAP2 POP POP SWAP3 SWAP2 POP POP JUMP JUMPDEST PUSH1 0x0 PUSH1 0x80 DUP3 DUP5 SUB SLT ISZERO PUSH2 0x1477 JUMPI PUSH2 0x1476 PUSH2 0x1365 JUMP JUMPDEST JUMPDEST PUSH2 0x1481 PUSH1 0x80 PUSH2 0x139B JUMP JUMPDEST SWAP1 POP PUSH1 0x0 DUP3 ADD MLOAD PUSH8 0xFFFFFFFFFFFFFFFF DUP2 GT ISZERO PUSH2 0x14A1 JUMPI PUSH2 0x14A0 PUSH2 0x13B6 JUMP JUMPDEST JUMPDEST PUSH2 0x14AD DUP5 DUP3 DUP6 ADD PUSH2 0x1433 JUMP JUMPDEST PUSH1 0x0 DUP4 ADD MSTORE POP PUSH1 0x20 DUP3 ADD MLOAD PUSH8 0xFFFFFFFFFFFFFFFF DUP2 GT ISZERO PUSH2 0x14D1 JUMPI PUSH2 0x14D0 PUSH2 0x13B6 JUMP JUMPDEST JUMPDEST PUSH2 0x14DD DUP5 DUP3 DUP6 ADD PUSH2 0x1433 JUMP JUMPDEST PUSH1 0x20 DUP4 ADD MSTORE POP PUSH1 0x40 PUSH2 0x14F1 DUP5 DUP3 DUP6 ADD PUSH2 0x12CF JUMP JUMPDEST PUSH1 0x40 DUP4 ADD MSTORE POP PUSH1 0x60 PUSH2 0x1505 DUP5 DUP3 DUP6 ADD PUSH2 0x12CF JUMP JUMPDEST PUSH1 0x60 DUP4 ADD MSTORE POP SWAP3 SWAP2 POP POP JUMP JUMPDEST PUSH1 0x0 PUSH1 0x20 DUP3 DUP5 SUB SLT ISZERO PUSH2 0x1527 JUMPI PUSH2 0x1526 PUSH2 0xB0F JUMP JUMPDEST JUMPDEST PUSH1 0x0 DUP3 ADD MLOAD PUSH8 0xFFFFFFFFFFFFFFFF DUP2 GT ISZERO PUSH2 0x1545 JUMPI PUSH2 0x1544 PUSH2 0xB14 JUMP JUMPDEST JUMPDEST PUSH2 0x1551 DUP5 DUP3 DUP6 ADD PUSH2 0x1461 JUMP JUMPDEST SWAP2 POP POP SWAP3 SWAP2 POP POP JUMP JUMPDEST PUSH1 0x0 DUP2 CALLDATALOAD SWAP1 POP PUSH2 0x1569 DUP2 PUSH2 0x12B8 JUMP JUMPDEST SWAP3 SWAP2 POP POP JUMP JUMPDEST PUSH2 0x1578 DUP2 PUSH2 0x1025 JUMP JUMPDEST DUP2 EQ PUSH2 0x1583 JUMPI PUSH1 0x0 DUP1 REVERT JUMPDEST POP JUMP JUMPDEST PUSH1 0x0 DUP2 CALLDATALOAD SWAP1 POP PUSH2 0x1595 DUP2 PUSH2 0x156F JUMP JUMPDEST SWAP3 SWAP2 POP POP JUMP JUMPDEST PUSH1 0x0 PUSH8 0xFFFFFFFFFFFFFFFF DUP3 GT ISZERO PUSH2 0x15B6 JUMPI PUSH2 0x15B5 PUSH2 0xFEC JUMP JUMPDEST JUMPDEST PUSH2 0x15BF DUP3 PUSH2 0xD17 JUMP JUMPDEST SWAP1 POP PUSH1 0x20 DUP2 ADD SWAP1 POP SWAP2 SWAP1 POP JUMP JUMPDEST DUP3 DUP2 DUP4 CALLDATACOPY PUSH1 0x0 DUP4 DUP4 ADD MSTORE POP POP POP JUMP JUMPDEST PUSH1 0x0 PUSH2 0x15EE PUSH2 0x15E9 DUP5 PUSH2 0x159B JUMP JUMPDEST PUSH2 0x139B JUMP JUMPDEST SWAP1 POP DUP3 DUP2 MSTORE PUSH1 0x20 DUP2 ADD DUP5 DUP5 DUP5 ADD GT ISZERO PUSH2 0x160A JUMPI PUSH2 0x1609 PUSH2 0x13BB JUMP JUMPDEST JUMPDEST PUSH2 0x1615 DUP5 DUP3 DUP6 PUSH2 0x15CC JUMP JUMPDEST POP SWAP4 SWAP3 POP POP POP JUMP JUMPDEST PUSH1 0x0 DUP3 PUSH1 0x1F DUP4 ADD SLT PUSH2 0x1632 JUMPI PUSH2 0x1631 PUSH2 0xF27 JUMP JUMPDEST JUMPDEST DUP2 CALLDATALOAD PUSH2 0x1642 DUP5 DUP3 PUSH1 0x20 DUP7 ADD PUSH2 0x15DB JUMP JUMPDEST SWAP2 POP POP SWAP3 SWAP2 POP POP JUMP JUMPDEST PUSH1 0x0 PUSH8 0xFFFFFFFFFFFFFFFF DUP3 GT ISZERO PUSH2 0x1666 JUMPI PUSH2 0x1665 PUSH2 0xFEC JUMP JUMPDEST JUMPDEST PUSH1 0x20 DUP3 MUL SWAP1 POP PUSH1 0x20 DUP2 ADD SWAP1 POP SWAP2 SWAP1 POP JUMP JUMPDEST PUSH2 0x1680 DUP2 PUSH2 0xEAF JUMP JUMPDEST DUP2 EQ PUSH2 0x168B JUMPI PUSH1 0x0 DUP1 REVERT JUMPDEST POP JUMP JUMPDEST PUSH1 0x0 DUP2 CALLDATALOAD SWAP1 POP PUSH2 0x169D DUP2 PUSH2 0x1677 JUMP JUMPDEST SWAP3 SWAP2 POP POP JUMP JUMPDEST PUSH1 0x0 PUSH1 0x40 DUP3 DUP5 SUB SLT ISZERO PUSH2 0x16B9 JUMPI PUSH2 0x16B8 PUSH2 0x1365 JUMP JUMPDEST JUMPDEST PUSH2 0x16C3 PUSH1 0x40 PUSH2 0x139B JUMP JUMPDEST SWAP1 POP PUSH1 0x0 PUSH2 0x16D3 DUP5 DUP3 DUP6 ADD PUSH2 0x168E JUMP JUMPDEST PUSH1 0x0 DUP4 ADD MSTORE POP PUSH1 0x20 PUSH2 0x16E7 DUP5 DUP3 DUP6 ADD PUSH2 0xC8F JUMP JUMPDEST PUSH1 0x20 DUP4 ADD MSTORE POP SWAP3 SWAP2 POP POP JUMP JUMPDEST PUSH1 0x0 PUSH2 0x1706 PUSH2 0x1701 DUP5 PUSH2 0x164B JUMP JUMPDEST PUSH2 0x139B JUMP JUMPDEST SWAP1 POP DUP1 DUP4 DUP3 MSTORE PUSH1 0x20 DUP3 ADD SWAP1 POP PUSH1 0x40 DUP5 MUL DUP4 ADD DUP6 DUP2 GT ISZERO PUSH2 0x1729 JUMPI PUSH2 0x1728 PUSH2 0xF31 JUMP JUMPDEST JUMPDEST DUP4 JUMPDEST DUP2 DUP2 LT ISZERO PUSH2 0x1752 JUMPI DUP1 PUSH2 0x173E DUP9 DUP3 PUSH2 0x16A3 JUMP JUMPDEST DUP5 MSTORE PUSH1 0x20 DUP5 ADD SWAP4 POP POP PUSH1 0x40 DUP2 ADD SWAP1 POP PUSH2 0x172B JUMP JUMPDEST POP POP POP SWAP4 SWAP3 POP POP POP JUMP JUMPDEST PUSH1 0x0 DUP3 PUSH1 0x1F DUP4 ADD SLT PUSH2 0x1771 JUMPI PUSH2 0x1770 PUSH2 0xF27 JUMP JUMPDEST JUMPDEST DUP2 CALLDATALOAD PUSH2 0x1781 DUP5 DUP3 PUSH1 0x20 DUP7 ADD PUSH2 0x16F3 JUMP JUMPDEST SWAP2 POP POP SWAP3 SWAP2 POP POP JUMP JUMPDEST PUSH1 0x0 PUSH1 0xA0 DUP3 DUP5 SUB SLT ISZERO PUSH2 0x17A0 JUMPI PUSH2 0x179F PUSH2 0x1365 JUMP JUMPDEST JUMPDEST PUSH2 0x17AA PUSH1 0xA0 PUSH2 0x139B JUMP JUMPDEST SWAP1 POP PUSH1 0x0 PUSH2 0x17BA DUP5 DUP3 DUP6 ADD PUSH2 0x155A JUMP JUMPDEST PUSH1 0x0 DUP4 ADD MSTORE POP PUSH1 0x20 PUSH2 0x17CE DUP5 DUP3 DUP6 ADD PUSH2 0x1586 JUMP JUMPDEST PUSH1 0x20 DUP4 ADD MSTORE POP PUSH1 0x40 DUP3 ADD CALLDATALOAD PUSH8 0xFFFFFFFFFFFFFFFF DUP2 GT ISZERO PUSH2 0x17F2 JUMPI PUSH2 0x17F1 PUSH2 0x13B6 JUMP JUMPDEST JUMPDEST PUSH2 0x17FE DUP5 DUP3 DUP6 ADD PUSH2 0x161D JUMP JUMPDEST PUSH1 0x40 DUP4 ADD MSTORE POP PUSH1 0x60 DUP3 ADD CALLDATALOAD PUSH8 0xFFFFFFFFFFFFFFFF DUP2 GT ISZERO PUSH2 0x1822 JUMPI PUSH2 0x1821 PUSH2 0x13B6 JUMP JUMPDEST JUMPDEST PUSH2 0x182E DUP5 DUP3 DUP6 ADD PUSH2 0x161D JUMP JUMPDEST PUSH1 0x60 DUP4 ADD MSTORE POP PUSH1 0x80 DUP3 ADD CALLDATALOAD PUSH8 0xFFFFFFFFFFFFFFFF DUP2 GT ISZERO PUSH2 0x1852 JUMPI PUSH2 0x1851 PUSH2 0x13B6 JUMP JUMPDEST JUMPDEST PUSH2 0x185E DUP5 DUP3 DUP6 ADD PUSH2 0x175C JUMP JUMPDEST PUSH1 0x80 DUP4 ADD MSTORE POP SWAP3 SWAP2 POP POP JUMP JUMPDEST PUSH1 0x0 PUSH2 0x1876 CALLDATASIZE DUP4 PUSH2 0x178A JUMP JUMPDEST SWAP1 POP SWAP2 SWAP1 POP JUMP JUMPDEST PUSH1 0x0 DUP3 DUP3 MSTORE PUSH1 0x20 DUP3 ADD SWAP1 POP SWAP3 SWAP2 POP POP JUMP JUMPDEST PUSH1 0x0 DUP1 REVERT JUMPDEST DUP3 DUP2 DUP4 CALLDATACOPY POP POP POP JUMP JUMPDEST PUSH1 0x0 PUSH2 0x18A8 DUP4 DUP6 PUSH2 0x187D JUMP JUMPDEST SWAP4 POP PUSH32 0x7FFFFFFFFFFFFFFFFFFFFFFFFFFFFFFFFFFFFFFFFFFFFFFFFFFFFFFFFFFFFFF DUP4 GT ISZERO PUSH2 0x18DB JUMPI PUSH2 0x18DA PUSH2 0x188E JUMP JUMPDEST JUMPDEST PUSH1 0x20 DUP4 MUL SWAP3 POP PUSH2 0x18EC DUP4 DUP6 DUP5 PUSH2 0x1893 JUMP JUMPDEST DUP3 DUP5 ADD SWAP1 POP SWAP4 SWAP3 POP POP POP JUMP JUMPDEST PUSH1 0x0 PUSH1 0x40 DUP3 ADD SWAP1 POP PUSH2 0x190D PUSH1 0x0 DUP4 ADD DUP7 PUSH2 0x133B JUMP JUMPDEST DUP2 DUP2 SUB PUSH1 0x20 DUP4 ADD MSTORE PUSH2 0x1920 DUP2 DUP5 DUP7 PUSH2 0x189C JUMP JUMPDEST SWAP1 POP SWAP5 SWAP4 POP POP POP POP JUMP JUMPDEST PUSH1 0x0 PUSH2 0x1935 DUP3 PUSH2 0xBD4 JUMP JUMPDEST SWAP1 POP SWAP2 SWAP1 POP JUMP JUMPDEST PUSH2 0x1945 DUP2 PUSH2 0x192A JUMP JUMPDEST DUP2 EQ PUSH2 0x1950 JUMPI PUSH1 0x0 DUP1 REVERT JUMPDEST POP JUMP JUMPDEST PUSH1 0x0 DUP2 MLOAD SWAP1 POP PUSH2 0x1962 DUP2 PUSH2 0x193C JUMP JUMPDEST SWAP3 SWAP2 POP POP JUMP JUMPDEST PUSH1 0x0 PUSH1 0x20 DUP3 DUP5 SUB SLT ISZERO PUSH2 0x197E JUMPI PUSH2 0x197D PUSH2 0xB0F JUMP JUMPDEST JUMPDEST PUSH1 0x0 PUSH2 0x198C DUP5 DUP3 DUP6 ADD PUSH2 0x1953 JUMP JUMPDEST SWAP2 POP POP SWAP3 SWAP2 POP POP JUMP JUMPDEST PUSH32 0x4E487B7100000000000000000000000000000000000000000000000000000000 PUSH1 0x0 MSTORE PUSH1 0x11 PUSH1 0x4 MSTORE PUSH1 0x24 PUSH1 0x0 REVERT JUMPDEST PUSH1 0x0 PUSH2 0x19CF DUP3 PUSH2 0xC6E JUMP JUMPDEST SWAP2 POP PUSH2 0x19DA DUP4 PUSH2 0xC6E JUMP JUMPDEST SWAP3 POP DUP3 DUP3 ADD SWAP1 POP DUP1 DUP3 GT ISZERO PUSH2 0x19F2 JUMPI PUSH2 0x19F1 PUSH2 0x1995 JUMP JUMPDEST JUMPDEST SWAP3 SWAP2 POP POP JUMP JUMPDEST PUSH1 0x0 PUSH1 0x40 DUP3 ADD SWAP1 POP PUSH2 0x1A0D PUSH1 0x0 DUP4 ADD DUP6 PUSH2 0xEC1 JUMP JUMPDEST PUSH2 0x1A1A PUSH1 0x20 DUP4 ADD DUP5 PUSH2 0x133B JUMP JUMPDEST SWAP4 SWAP3 POP POP POP JUMP JUMPDEST PUSH2 0x1A2A DUP2 PUSH2 0xB9E JUMP JUMPDEST DUP2 EQ PUSH2 0x1A35 JUMPI PUSH1 0x0 DUP1 REVERT JUMPDEST POP JUMP JUMPDEST PUSH1 0x0 DUP2 MLOAD SWAP1 POP PUSH2 0x1A47 DUP2 PUSH2 0x1A21 JUMP JUMPDEST SWAP3 SWAP2 POP POP JUMP JUMPDEST PUSH1 0x0 PUSH1 0x20 DUP3 DUP5 SUB SLT ISZERO PUSH2 0x1A63 JUMPI PUSH2 0x1A62 PUSH2 0xB0F JUMP JUMPDEST JUMPDEST PUSH1 0x0 PUSH2 0x1A71 DUP5 DUP3 DUP6 ADD PUSH2 0x1A38 JUMP JUMPDEST SWAP2 POP POP SWAP3 SWAP2 POP POP JUMP JUMPDEST PUSH2 0x1A83 DUP2 PUSH2 0x1025 JUMP JUMPDEST DUP3 MSTORE POP POP JUMP JUMPDEST PUSH1 0x0 PUSH1 0x80 DUP3 ADD SWAP1 POP PUSH2 0x1A9E PUSH1 0x0 DUP4 ADD DUP8 PUSH2 0x1311 JUMP JUMPDEST PUSH2 0x1AAB PUSH1 0x20 DUP4 ADD DUP7 PUSH2 0x1A7A JUMP JUMPDEST PUSH2 0x1AB8 PUSH1 0x40 DUP4 ADD DUP6 PUSH2 0xEC1 JUMP JUMPDEST PUSH2 0x1AC5 PUSH1 0x60 DUP4 ADD DUP5 PUSH2 0x133B JUMP JUMPDEST SWAP6 SWAP5 POP POP POP POP POP JUMP INVALID LOG2 PUSH5 0x6970667358 0x22 SLT KECCAK256 0xAD 0xE 0xE6 CODECOPY SWAP11 0xA7 DUP12 PC 0x2E PUSH21 0xC5F9A0F14AAA13A8C54EB7ADF6CA5727516A30F1D2 GT PUSH5 0x736F6C6343 STOP ADDMOD XOR STOP CALLER "},"methodIdentifiers":{"ccipReceive((bytes32,uint64,bytes,bytes,(address,uint256)[]))":"85572ffb","displayAd(uint256)":"672fb969","ercAdContract()":"92b9d025","getLinkBalance()":"50c5f975","getRouter()":"b0f479a1","linkToken()":"57970e93","mainnetContractAddress()":"c6269389","mehToken()":"e2c2c884","router()":"f887ea40","signAd(uint256,bytes32[])":"fe49e833","supportsInterface(bytes4)":"01ffc9a7"}},"storageLayout":{"storage":[{"astId":480,"contract":"contracts/MehAdV2.sol:MehAdV2","label":"mainnetContractAddress","offset":0,"slot":"0","type":"t_address"},{"astId":483,"contract":"contracts/MehAdV2.sol:MehAdV2","label":"router","offset":0,"slot":"1","type":"t_contract(IRouterClient)184"},{"astId":486,"contract":"contracts/MehAdV2.sol:MehAdV2","label":"mehToken","offset":0,"slot":"2","type":"t_contract(IERC20)425"},{"astId":489,"contract":"contracts/MehAdV2.sol:MehAdV2","label":"linkToken","offset":0,"slot":"3","type":"t_contract(IERC20)425"},{"astId":492,"contract":"contracts/MehAdV2.sol:MehAdV2","label":"ercAdContract","offset":0,"slot":"4","type":"t_contract(IERCAd)462"}],"types":{"t_address":{"encoding":"inplace","label":"address","numberOfBytes":"20"},"t_contract(IERC20)425":{"encoding":"inplace","label":"contract IERC20","numberOfBytes":"20"},"t_contract(IERCAd)462":{"encoding":"inplace","label":"contract IERCAd","numberOfBytes":"20"},"t_contract(IRouterClient)184":{"encoding":"inplace","label":"contract IRouterClient","numberOfBytes":"20"}}}}}}