{"contracts/MehVoteV1.sol":{"MehVoteV1":{"abi":[{"inputs":[{"internalType":"contract IERC20Burnable","name":"_mehToken","type":"address"}],"stateMutability":"nonpayable","type":"constructor"},{"anonymous":false,"inputs":[{"indexed":false,"internalType":"uint256","name":"productId","type":"uint256"},{"indexed":false,"internalType":"string","name":"productName","type":"string"},{"indexed":false,"internalType":"string","name":"allocatorMerkleRoot","type":"string"},{"indexed":false,"internalType":"uint256","name":"royaltyBase","type":"uint256"}],"name":"MehStore","type":"event"},{"anonymous":false,"inputs":[{"indexed":true,"internalType":"address","name":"previousOwner","type":"address"},{"indexed":true,"internalType":"address","name":"newOwner","type":"address"}],"name":"OwnershipTransferred","type":"event"},{"inputs":[{"internalType":"uint256","name":"_gameId","type":"uint256"},{"internalType":"string","name":"_name","type":"string"},{"internalType":"uint256","name":"_mehContractPrice","type":"uint256"},{"internalType":"uint256","name":"_mehContracts","type":"uint256"},{"internalType":"uint256","name":"_begin","type":"uint256"},{"internalType":"uint256","name":"_end","type":"uint256"},{"internalType":"uint256","name":"_royaltyBase","type":"uint256"}],"name":"addProductToGame","outputs":[],"stateMutability":"nonpayable","type":"function"},{"inputs":[{"internalType":"uint256","name":"_gameId","type":"uint256"},{"internalType":"uint256","name":"_productId","type":"uint256"}],"name":"burnLoserPrizeMeh","outputs":[],"stateMutability":"nonpayable","type":"function"},{"inputs":[{"internalType":"uint256","name":"_gameId","type":"uint256"},{"internalType":"uint256","name":"_productId","type":"uint256"}],"name":"claim","outputs":[],"stateMutability":"nonpayable","type":"function"},{"inputs":[{"internalType":"uint256","name":"_begin","type":"uint256"},{"internalType":"uint256","name":"_end","type":"uint256"}],"name":"createGame","outputs":[],"stateMutability":"nonpayable","type":"function"},{"inputs":[{"internalType":"uint256","name":"_gameId","type":"uint256"},{"internalType":"uint256","name":"_productId","type":"uint256"},{"internalType":"uint256","name":"_numContracts","type":"uint256"}],"name":"depositMeh","outputs":[],"stateMutability":"nonpayable","type":"function"},{"inputs":[{"internalType":"uint256","name":"_amount","type":"uint256"}],"name":"depositMehStore","outputs":[],"stateMutability":"nonpayable","type":"function"},{"inputs":[{"internalType":"uint256","name":"_gameId","type":"uint256"},{"internalType":"uint256","name":"_productId","type":"uint256"},{"internalType":"uint256","name":"_amount","type":"uint256"}],"name":"depositPrizeMeh","outputs":[],"stateMutability":"nonpayable","type":"function"},{"inputs":[{"internalType":"address","name":"","type":"address"},{"internalType":"uint256","name":"","type":"uint256"}],"name":"deposits","outputs":[{"internalType":"uint256","name":"","type":"uint256"}],"stateMutability":"view","type":"function"},{"inputs":[{"internalType":"uint256","name":"","type":"uint256"}],"name":"games","outputs":[{"internalType":"uint256","name":"id","type":"uint256"},{"internalType":"uint256","name":"begin","type":"uint256"},{"internalType":"uint256","name":"end","type":"uint256"},{"internalType":"uint256","name":"numProducts","type":"uint256"}],"stateMutability":"view","type":"function"},{"inputs":[{"internalType":"uint256","name":"gameId","type":"uint256"}],"name":"getProductsByGameId","outputs":[{"components":[{"internalType":"uint256","name":"id","type":"uint256"},{"internalType":"string","name":"name","type":"string"},{"internalType":"uint256","name":"mehContractsDeposited","type":"uint256"},{"internalType":"uint256","name":"mehContracts","type":"uint256"},{"internalType":"uint256","name":"mehContractPrice","type":"uint256"},{"internalType":"uint256","name":"prizeMeh","type":"uint256"},{"internalType":"bool","name":"mehStore","type":"bool"},{"internalType":"uint256","name":"begin","type":"uint256"},{"internalType":"uint256","name":"end","type":"uint256"},{"internalType":"uint256","name":"royaltyBase","type":"uint256"}],"internalType":"struct MehVoteV1.Product[]","name":"","type":"tuple[]"}],"stateMutability":"view","type":"function"},{"inputs":[],"name":"mehToken","outputs":[{"internalType":"contract IERC20Burnable","name":"","type":"address"}],"stateMutability":"view","type":"function"},{"inputs":[],"name":"owner","outputs":[{"internalType":"address","name":"","type":"address"}],"stateMutability":"view","type":"function"},{"inputs":[],"name":"renounceOwnership","outputs":[],"stateMutability":"nonpayable","type":"function"},{"inputs":[{"internalType":"address","name":"newOwner","type":"address"}],"name":"transferOwnership","outputs":[],"stateMutability":"nonpayable","type":"function"}],"evm":{"bytecode":{"linkReferences":{},"object":"60a06040523480156200001157600080fd5b506040516200275f3803806200275f83398181016040528101906200003791906200021d565b620000576200004b620000bd60201b60201c565b620000c560201b60201c565b600180819055508073ffffffffffffffffffffffffffffffffffffffff1660808173ffffffffffffffffffffffffffffffffffffffff1681525050620000a460026200018960201b60201c565b620000b660036200018960201b60201c565b506200024f565b600033905090565b60008060009054906101000a900473ffffffffffffffffffffffffffffffffffffffff169050816000806101000a81548173ffffffffffffffffffffffffffffffffffffffff021916908373ffffffffffffffffffffffffffffffffffffffff1602179055508173ffffffffffffffffffffffffffffffffffffffff168173ffffffffffffffffffffffffffffffffffffffff167f8be0079c531659141344cd1fd0a4f28419497f9722a3daafe3b4186f6b6457e060405160405180910390a35050565b6001816000016000828254019250508190555050565b600080fd5b600073ffffffffffffffffffffffffffffffffffffffff82169050919050565b6000620001d182620001a4565b9050919050565b6000620001e582620001c4565b9050919050565b620001f781620001d8565b81146200020357600080fd5b50565b6000815190506200021781620001ec565b92915050565b6000602082840312156200023657620002356200019f565b5b6000620002468482850162000206565b91505092915050565b6080516124d16200028e6000396000818161052e0152818161064a0152818161079901528181610a7901528181610cc00152610eb101526124d16000f3fe608060405234801561001057600080fd5b50600436106100ea5760003560e01c80638da5cb5b1161008c578063d6d6817711610066578063d6d6817714610222578063e2c2c88414610252578063f2fde38b14610270578063f38bee181461028c576100ea565b80638da5cb5b146101b8578063c3490263146101d6578063c7b56842146101f2576100ea565b806360104cef116100c857806360104cef1461015a578063715018a61461017657806376f7b500146101805780638c5b883d1461019c576100ea565b8063117a5b90146100ef5780632849625d1461012257806353f8c4831461013e575b600080fd5b6101096004803603810190610104919061129e565b6102a8565b60405161011994939291906112da565b60405180910390f35b61013c60048036038101906101379190611465565b6102d8565b005b61015860048036038101906101539190611523565b610483565b005b610174600480360381019061016f9190611576565b6105d4565b005b61017e61062c565b005b61019a6004803603810190610195919061129e565b610640565b005b6101b660048036038101906101b19190611576565b6106f1565b005b6101c061082d565b6040516101cd91906115f7565b60405180910390f35b6101f060048036038101906101eb9190611576565b610856565b005b61020c6004803603810190610207919061129e565b610b26565b6040516102199190611857565b60405180910390f35b61023c600480360381019061023791906118a5565b610c99565b60405161024991906118e5565b60405180910390f35b61025a610cbe565b604051610267919061195f565b60405180910390f35b61028a6004803603810190610285919061197a565b610ce2565b005b6102a660048036038101906102a19190611523565b610d65565b005b60046020528060005260406000206000915090508060000154908060010154908060020154908060040154905084565b6102e061108e565b6000600460008981526020019081526020016000209050600081600001540361033e576040517f08c379a000000000000000000000000000000000000000000000000000000000815260040161033590611a04565b60405180910390fd5b600061034a600361110c565b905060006040518061014001604052808381526020018a81526020016000815260200188815260200189815260200160008152602001600015158152602001878152602001868152602001858152509050826003018190806001815401808255809150506001900390600052602060002090600a02016000909190919091506000820151816000015560208201518160010190816103e89190611c26565b5060408201518160020155606082015181600301556080820151816004015560a0820151816005015560c08201518160060160006101000a81548160ff02191690831515021790555060e0820151816007015561010082015181600801556101208201518160090155505082600401600081548092919061046890611d27565b9190505550610477600361111a565b50505050505050505050565b61048b61108e565b600060046000858152602001908152602001600020905060008160030184815481106104ba576104b9611d6f565b5b90600052602060002090600a020190506000816000015403610511576040517f08c379a000000000000000000000000000000000000000000000000000000000815260040161050890611dea565b60405180910390fd5b828160050160008282546105259190611e0a565b925050819055507f000000000000000000000000000000000000000000000000000000000000000073ffffffffffffffffffffffffffffffffffffffff166323b872dd3330866040518463ffffffff1660e01b815260040161058993929190611e3e565b6020604051808303816000875af11580156105a8573d6000803e3d6000fd5b505050506040513d601f19601f820116820180604052508101906105cc9190611ea1565b505050505050565b6105dc61108e565b60006105e8600261110c565b90506000600460008381526020019081526020016000209050818160000181905550838160010181905550828160020181905550610626600261111a565b50505050565b61063461108e565b61063e6000611130565b565b61064861108e565b7f000000000000000000000000000000000000000000000000000000000000000073ffffffffffffffffffffffffffffffffffffffff1663a9059cbb61068c61082d565b836040518363ffffffff1660e01b81526004016106aa929190611ece565b6020604051808303816000875af11580156106c9573d6000803e3d6000fd5b505050506040513d601f19601f820116820180604052508101906106ed9190611ea1565b5050565b6106f961108e565b6000600460008481526020019081526020016000209050600081600301838154811061072857610727611d6f565b5b90600052602060002090600a020190508060060160009054906101000a900460ff161561078a576040517f08c379a000000000000000000000000000000000000000000000000000000000815260040161078190611f43565b60405180910390fd5b600081600501541115610827577f000000000000000000000000000000000000000000000000000000000000000073ffffffffffffffffffffffffffffffffffffffff166342966c6882600501546040518263ffffffff1660e01b81526004016107f491906118e5565b600060405180830381600087803b15801561080e57600080fd5b505af1158015610822573d6000803e3d6000fd5b505050505b50505050565b60008060009054906101000a900473ffffffffffffffffffffffffffffffffffffffff16905090565b61085e6111f4565b6000600460008481526020019081526020016000209050428160020154106108bb576040517f08c379a00000000000000000000000000000000000000000000000000000000081526004016108b290611faf565b60405180910390fd5b8060030182815481106108d1576108d0611d6f565b5b90600052602060002090600a020160060160009054906101000a900460ff1661092f576040517f08c379a00000000000000000000000000000000000000000000000000000000081526004016109269061201b565b60405180910390fd5b6000600560003373ffffffffffffffffffffffffffffffffffffffff1673ffffffffffffffffffffffffffffffffffffffff1681526020019081526020016000206000848152602001908152602001600020549050600081116109c7576040517f08c379a00000000000000000000000000000000000000000000000000000000081526004016109be90612087565b60405180910390fd5b60008260030184815481106109df576109de611d6f565b5b90600052602060002090600a02019050600081600201548260030154610a0591906120a7565b826005015484610a1591906120a7565b610a1f9190612118565b90506000600560003373ffffffffffffffffffffffffffffffffffffffff1673ffffffffffffffffffffffffffffffffffffffff1681526020019081526020016000206000878152602001908152602001600020819055507f000000000000000000000000000000000000000000000000000000000000000073ffffffffffffffffffffffffffffffffffffffff1663a9059cbb33836040518363ffffffff1660e01b8152600401610ad2929190611ece565b6020604051808303816000875af1158015610af1573d6000803e3d6000fd5b505050506040513d601f19601f82011682018060405250810190610b159190611ea1565b5050505050610b22611243565b5050565b606060046000838152602001908152602001600020600301805480602002602001604051908101604052809291908181526020016000905b82821015610c8e57838290600052602060002090600a02016040518061014001604052908160008201548152602001600182018054610b9c90611a53565b80601f0160208091040260200160405190810160405280929190818152602001828054610bc890611a53565b8015610c155780601f10610bea57610100808354040283529160200191610c15565b820191906000526020600020905b815481529060010190602001808311610bf857829003601f168201915b50505050508152602001600282015481526020016003820154815260200160048201548152602001600582015481526020016006820160009054906101000a900460ff16151515158152602001600782015481526020016008820154815260200160098201548152505081526020019060010190610b5e565b505050509050919050565b6005602052816000526040600020602052806000526040600020600091509150505481565b7f000000000000000000000000000000000000000000000000000000000000000081565b610cea61108e565b600073ffffffffffffffffffffffffffffffffffffffff168173ffffffffffffffffffffffffffffffffffffffff1603610d59576040517f08c379a0000000000000000000000000000000000000000000000000000000008152600401610d50906121bb565b60405180910390fd5b610d6281611130565b50565b610d6d6111f4565b60006004600085815260200190815260200160002090506000816003018481548110610d9c57610d9b611d6f565b5b90600052602060002090600a020190506000816000015403610df3576040517f08c379a0000000000000000000000000000000000000000000000000000000008152600401610dea90611dea565b60405180910390fd5b8060060160009054906101000a900460ff1615610e45576040517f08c379a0000000000000000000000000000000000000000000000000000000008152600401610e3c90612227565b60405180910390fd5b8060030154838260020154610e5a9190611e0a565b1115610e9b576040517f08c379a0000000000000000000000000000000000000000000000000000000008152600401610e9290612293565b60405180910390fd5b6000816004015484610ead91906120a7565b90507f000000000000000000000000000000000000000000000000000000000000000073ffffffffffffffffffffffffffffffffffffffff166323b872dd3330846040518463ffffffff1660e01b8152600401610f0c93929190611e3e565b6020604051808303816000875af1158015610f2b573d6000803e3d6000fd5b505050506040513d601f19601f82011682018060405250810190610f4f9190611ea1565b5083600560003373ffffffffffffffffffffffffffffffffffffffff1673ffffffffffffffffffffffffffffffffffffffff16815260200190815260200160002060008781526020019081526020016000206000828254610fb09190611e0a565b9250508190555083826002016000828254610fcb9190611e0a565b92505081905550816003015482600201540361107e5760018260060160006101000a81548160ff02191690831515021790555060006040518060400160405280600781526020017f6465662d3030310000000000000000000000000000000000000000000000000081525090507f48bdd33bb928f44a7b0b890963d9afe34abf223c0de29e0174cd429d9ac0c18a86846001018386600901546040516110749493929190612370565b60405180910390a1505b505050611089611243565b505050565b61109661124c565b73ffffffffffffffffffffffffffffffffffffffff166110b461082d565b73ffffffffffffffffffffffffffffffffffffffff161461110a576040517f08c379a00000000000000000000000000000000000000000000000000000000081526004016111019061240f565b60405180910390fd5b565b600081600001549050919050565b6001816000016000828254019250508190555050565b60008060009054906101000a900473ffffffffffffffffffffffffffffffffffffffff169050816000806101000a81548173ffffffffffffffffffffffffffffffffffffffff021916908373ffffffffffffffffffffffffffffffffffffffff1602179055508173ffffffffffffffffffffffffffffffffffffffff168173ffffffffffffffffffffffffffffffffffffffff167f8be0079c531659141344cd1fd0a4f28419497f9722a3daafe3b4186f6b6457e060405160405180910390a35050565b600260015403611239576040517f08c379a00000000000000000000000000000000000000000000000000000000081526004016112309061247b565b60405180910390fd5b6002600181905550565b60018081905550565b600033905090565b6000604051905090565b600080fd5b600080fd5b6000819050919050565b61127b81611268565b811461128657600080fd5b50565b60008135905061129881611272565b92915050565b6000602082840312156112b4576112b361125e565b5b60006112c284828501611289565b91505092915050565b6112d481611268565b82525050565b60006080820190506112ef60008301876112cb565b6112fc60208301866112cb565b61130960408301856112cb565b61131660608301846112cb565b95945050505050565b600080fd5b600080fd5b6000601f19601f8301169050919050565b7f4e487b7100000000000000000000000000000000000000000000000000000000600052604160045260246000fd5b61137282611329565b810181811067ffffffffffffffff821117156113915761139061133a565b5b80604052505050565b60006113a4611254565b90506113b08282611369565b919050565b600067ffffffffffffffff8211156113d0576113cf61133a565b5b6113d982611329565b9050602081019050919050565b82818337600083830152505050565b6000611408611403846113b5565b61139a565b90508281526020810184848401111561142457611423611324565b5b61142f8482856113e6565b509392505050565b600082601f83011261144c5761144b61131f565b5b813561145c8482602086016113f5565b91505092915050565b600080600080600080600060e0888a0312156114845761148361125e565b5b60006114928a828b01611289565b975050602088013567ffffffffffffffff8111156114b3576114b2611263565b5b6114bf8a828b01611437565b96505060406114d08a828b01611289565b95505060606114e18a828b01611289565b94505060806114f28a828b01611289565b93505060a06115038a828b01611289565b92505060c06115148a828b01611289565b91505092959891949750929550565b60008060006060848603121561153c5761153b61125e565b5b600061154a86828701611289565b935050602061155b86828701611289565b925050604061156c86828701611289565b9150509250925092565b6000806040838503121561158d5761158c61125e565b5b600061159b85828601611289565b92505060206115ac85828601611289565b9150509250929050565b600073ffffffffffffffffffffffffffffffffffffffff82169050919050565b60006115e1826115b6565b9050919050565b6115f1816115d6565b82525050565b600060208201905061160c60008301846115e8565b92915050565b600081519050919050565b600082825260208201905092915050565b6000819050602082019050919050565b61164781611268565b82525050565b600081519050919050565b600082825260208201905092915050565b60005b8381101561168757808201518184015260208101905061166c565b60008484015250505050565b600061169e8261164d565b6116a88185611658565b93506116b8818560208601611669565b6116c181611329565b840191505092915050565b60008115159050919050565b6116e1816116cc565b82525050565b600061014083016000830151611700600086018261163e565b50602083015184820360208601526117188282611693565b915050604083015161172d604086018261163e565b506060830151611740606086018261163e565b506080830151611753608086018261163e565b5060a083015161176660a086018261163e565b5060c083015161177960c08601826116d8565b5060e083015161178c60e086018261163e565b506101008301516117a161010086018261163e565b506101208301516117b661012086018261163e565b508091505092915050565b60006117cd83836116e7565b905092915050565b6000602082019050919050565b60006117ed82611612565b6117f7818561161d565b9350836020820285016118098561162e565b8060005b85811015611845578484038952815161182685826117c1565b9450611831836117d5565b925060208a0199505060018101905061180d565b50829750879550505050505092915050565b6000602082019050818103600083015261187181846117e2565b905092915050565b611882816115d6565b811461188d57600080fd5b50565b60008135905061189f81611879565b92915050565b600080604083850312156118bc576118bb61125e565b5b60006118ca85828601611890565b92505060206118db85828601611289565b9150509250929050565b60006020820190506118fa60008301846112cb565b92915050565b6000819050919050565b600061192561192061191b846115b6565b611900565b6115b6565b9050919050565b60006119378261190a565b9050919050565b60006119498261192c565b9050919050565b6119598161193e565b82525050565b60006020820190506119746000830184611950565b92915050565b6000602082840312156119905761198f61125e565b5b600061199e84828501611890565b91505092915050565b600082825260208201905092915050565b7f67616d6520646f6573206e6f7420657869737400000000000000000000000000600082015250565b60006119ee6013836119a7565b91506119f9826119b8565b602082019050919050565b60006020820190508181036000830152611a1d816119e1565b9050919050565b7f4e487b7100000000000000000000000000000000000000000000000000000000600052602260045260246000fd5b60006002820490506001821680611a6b57607f821691505b602082108103611a7e57611a7d611a24565b5b50919050565b60008190508160005260206000209050919050565b60006020601f8301049050919050565b600082821b905092915050565b600060088302611ae67fffffffffffffffffffffffffffffffffffffffffffffffffffffffffffffffff82611aa9565b611af08683611aa9565b95508019841693508086168417925050509392505050565b6000611b23611b1e611b1984611268565b611900565b611268565b9050919050565b6000819050919050565b611b3d83611b08565b611b51611b4982611b2a565b848454611ab6565b825550505050565b600090565b611b66611b59565b611b71818484611b34565b505050565b5b81811015611b9557611b8a600082611b5e565b600181019050611b77565b5050565b601f821115611bda57611bab81611a84565b611bb484611a99565b81016020851015611bc3578190505b611bd7611bcf85611a99565b830182611b76565b50505b505050565b600082821c905092915050565b6000611bfd60001984600802611bdf565b1980831691505092915050565b6000611c168383611bec565b9150826002028217905092915050565b611c2f8261164d565b67ffffffffffffffff811115611c4857611c4761133a565b5b611c528254611a53565b611c5d828285611b99565b600060209050601f831160018114611c905760008415611c7e578287015190505b611c888582611c0a565b865550611cf0565b601f198416611c9e86611a84565b60005b82811015611cc657848901518255600182019150602085019450602081019050611ca1565b86831015611ce35784890151611cdf601f891682611bec565b8355505b6001600288020188555050505b505050505050565b7f4e487b7100000000000000000000000000000000000000000000000000000000600052601160045260246000fd5b6000611d3282611268565b91507fffffffffffffffffffffffffffffffffffffffffffffffffffffffffffffffff8203611d6457611d63611cf8565b5b600182019050919050565b7f4e487b7100000000000000000000000000000000000000000000000000000000600052603260045260246000fd5b7f70726f6475637420646f6573206e6f7420657869737400000000000000000000600082015250565b6000611dd46016836119a7565b9150611ddf82611d9e565b602082019050919050565b60006020820190508181036000830152611e0381611dc7565b9050919050565b6000611e1582611268565b9150611e2083611268565b9250828201905080821115611e3857611e37611cf8565b5b92915050565b6000606082019050611e5360008301866115e8565b611e6060208301856115e8565b611e6d60408301846112cb565b949350505050565b611e7e816116cc565b8114611e8957600080fd5b50565b600081519050611e9b81611e75565b92915050565b600060208284031215611eb757611eb661125e565b5b6000611ec584828501611e8c565b91505092915050565b6000604082019050611ee360008301856115e8565b611ef060208301846112cb565b9392505050565b7f70726f6475637420696e2073746f726500000000000000000000000000000000600082015250565b6000611f2d6010836119a7565b9150611f3882611ef7565b602082019050919050565b60006020820190508181036000830152611f5c81611f20565b9050919050565b7f67616d65206e6f7420656e646564000000000000000000000000000000000000600082015250565b6000611f99600e836119a7565b9150611fa482611f63565b602082019050919050565b60006020820190508181036000830152611fc881611f8c565b9050919050565b7f70726f64756374206e6f7420696e2073746f7265000000000000000000000000600082015250565b60006120056014836119a7565b915061201082611fcf565b602082019050919050565b6000602082019050818103600083015261203481611ff8565b9050919050565b7f6e6f206465706f73697400000000000000000000000000000000000000000000600082015250565b6000612071600a836119a7565b915061207c8261203b565b602082019050919050565b600060208201905081810360008301526120a081612064565b9050919050565b60006120b282611268565b91506120bd83611268565b92508282026120cb81611268565b915082820484148315176120e2576120e1611cf8565b5b5092915050565b7f4e487b7100000000000000000000000000000000000000000000000000000000600052601260045260246000fd5b600061212382611268565b915061212e83611268565b92508261213e5761213d6120e9565b5b828204905092915050565b7f4f776e61626c653a206e6577206f776e657220697320746865207a65726f206160008201527f6464726573730000000000000000000000000000000000000000000000000000602082015250565b60006121a56026836119a7565b91506121b082612149565b604082019050919050565b600060208201905081810360008301526121d481612198565b9050919050565b7f70726f6475637420616c726561647920696e206d65682e73746f726500000000600082015250565b6000612211601c836119a7565b915061221c826121db565b602082019050919050565b6000602082019050818103600083015261224081612204565b9050919050565b7f746f6f206d616e7920636f6e7472616374730000000000000000000000000000600082015250565b600061227d6012836119a7565b915061228882612247565b602082019050919050565b600060208201905081810360008301526122ac81612270565b9050919050565b600081546122c081611a53565b6122ca81866119a7565b945060018216600081146122e557600181146122fb5761232e565b60ff19831686528115156020028601935061232e565b61230485611a84565b60005b8381101561232657815481890152600182019150602081019050612307565b808801955050505b50505092915050565b60006123428261164d565b61234c81856119a7565b935061235c818560208601611669565b61236581611329565b840191505092915050565b600060808201905061238560008301876112cb565b818103602083015261239781866122b3565b905081810360408301526123ab8185612337565b90506123ba60608301846112cb565b95945050505050565b7f4f776e61626c653a2063616c6c6572206973206e6f7420746865206f776e6572600082015250565b60006123f96020836119a7565b9150612404826123c3565b602082019050919050565b60006020820190508181036000830152612428816123ec565b9050919050565b7f5265656e7472616e637947756172643a207265656e7472616e742063616c6c00600082015250565b6000612465601f836119a7565b91506124708261242f565b602082019050919050565b6000602082019050818103600083015261249481612458565b905091905056fea264697066735822122069b9c581020ec3926bded4d5da3775f7f5add1959f3359ae049f4d9dcdda006064736f6c63430008180033","opcodes":"PUSH1 0xA0 PUSH1 0x40 MSTORE CALLVALUE DUP1 ISZERO PUSH3 0x11 JUMPI PUSH1 0x0 DUP1 REVERT JUMPDEST POP PUSH1 0x40 MLOAD PUSH3 0x275F CODESIZE SUB DUP1 PUSH3 0x275F DUP4 CODECOPY DUP2 DUP2 ADD PUSH1 0x40 MSTORE DUP2 ADD SWAP1 PUSH3 0x37 SWAP2 SWAP1 PUSH3 0x21D JUMP JUMPDEST PUSH3 0x57 PUSH3 0x4B PUSH3 0xBD PUSH1 0x20 SHL PUSH1 0x20 SHR JUMP JUMPDEST PUSH3 0xC5 PUSH1 0x20 SHL PUSH1 0x20 SHR JUMP JUMPDEST PUSH1 0x1 DUP1 DUP2 SWAP1 SSTORE POP DUP1 PUSH20 0xFFFFFFFFFFFFFFFFFFFFFFFFFFFFFFFFFFFFFFFF AND PUSH1 0x80 DUP2 PUSH20 0xFFFFFFFFFFFFFFFFFFFFFFFFFFFFFFFFFFFFFFFF AND DUP2 MSTORE POP POP PUSH3 0xA4 PUSH1 0x2 PUSH3 0x189 PUSH1 0x20 SHL PUSH1 0x20 SHR JUMP JUMPDEST PUSH3 0xB6 PUSH1 0x3 PUSH3 0x189 PUSH1 0x20 SHL PUSH1 0x20 SHR JUMP JUMPDEST POP PUSH3 0x24F JUMP JUMPDEST PUSH1 0x0 CALLER SWAP1 POP SWAP1 JUMP JUMPDEST PUSH1 0x0 DUP1 PUSH1 0x0 SWAP1 SLOAD SWAP1 PUSH2 0x100 EXP SWAP1 DIV PUSH20 0xFFFFFFFFFFFFFFFFFFFFFFFFFFFFFFFFFFFFFFFF AND SWAP1 POP DUP2 PUSH1 0x0 DUP1 PUSH2 0x100 EXP DUP2 SLOAD DUP2 PUSH20 0xFFFFFFFFFFFFFFFFFFFFFFFFFFFFFFFFFFFFFFFF MUL NOT AND SWAP1 DUP4 PUSH20 0xFFFFFFFFFFFFFFFFFFFFFFFFFFFFFFFFFFFFFFFF AND MUL OR SWAP1 SSTORE POP DUP2 PUSH20 0xFFFFFFFFFFFFFFFFFFFFFFFFFFFFFFFFFFFFFFFF AND DUP2 PUSH20 0xFFFFFFFFFFFFFFFFFFFFFFFFFFFFFFFFFFFFFFFF AND PUSH32 0x8BE0079C531659141344CD1FD0A4F28419497F9722A3DAAFE3B4186F6B6457E0 PUSH1 0x40 MLOAD PUSH1 0x40 MLOAD DUP1 SWAP2 SUB SWAP1 LOG3 POP POP JUMP JUMPDEST PUSH1 0x1 DUP2 PUSH1 0x0 ADD PUSH1 0x0 DUP3 DUP3 SLOAD ADD SWAP3 POP POP DUP2 SWAP1 SSTORE POP POP JUMP JUMPDEST PUSH1 0x0 DUP1 REVERT JUMPDEST PUSH1 0x0 PUSH20 0xFFFFFFFFFFFFFFFFFFFFFFFFFFFFFFFFFFFFFFFF DUP3 AND SWAP1 POP SWAP2 SWAP1 POP JUMP JUMPDEST PUSH1 0x0 PUSH3 0x1D1 DUP3 PUSH3 0x1A4 JUMP JUMPDEST SWAP1 POP SWAP2 SWAP1 POP JUMP JUMPDEST PUSH1 0x0 PUSH3 0x1E5 DUP3 PUSH3 0x1C4 JUMP JUMPDEST SWAP1 POP SWAP2 SWAP1 POP JUMP JUMPDEST PUSH3 0x1F7 DUP2 PUSH3 0x1D8 JUMP JUMPDEST DUP2 EQ PUSH3 0x203 JUMPI PUSH1 0x0 DUP1 REVERT JUMPDEST POP JUMP JUMPDEST PUSH1 0x0 DUP2 MLOAD SWAP1 POP PUSH3 0x217 DUP2 PUSH3 0x1EC JUMP JUMPDEST SWAP3 SWAP2 POP POP JUMP JUMPDEST PUSH1 0x0 PUSH1 0x20 DUP3 DUP5 SUB SLT ISZERO PUSH3 0x236 JUMPI PUSH3 0x235 PUSH3 0x19F JUMP JUMPDEST JUMPDEST PUSH1 0x0 PUSH3 0x246 DUP5 DUP3 DUP6 ADD PUSH3 0x206 JUMP JUMPDEST SWAP2 POP POP SWAP3 SWAP2 POP POP JUMP JUMPDEST PUSH1 0x80 MLOAD PUSH2 0x24D1 PUSH3 0x28E PUSH1 0x0 CODECOPY PUSH1 0x0 DUP2 DUP2 PUSH2 0x52E ADD MSTORE DUP2 DUP2 PUSH2 0x64A ADD MSTORE DUP2 DUP2 PUSH2 0x799 ADD MSTORE DUP2 DUP2 PUSH2 0xA79 ADD MSTORE DUP2 DUP2 PUSH2 0xCC0 ADD MSTORE PUSH2 0xEB1 ADD MSTORE PUSH2 0x24D1 PUSH1 0x0 RETURN INVALID PUSH1 0x80 PUSH1 0x40 MSTORE CALLVALUE DUP1 ISZERO PUSH2 0x10 JUMPI PUSH1 0x0 DUP1 REVERT JUMPDEST POP PUSH1 0x4 CALLDATASIZE LT PUSH2 0xEA JUMPI PUSH1 0x0 CALLDATALOAD PUSH1 0xE0 SHR DUP1 PUSH4 0x8DA5CB5B GT PUSH2 0x8C JUMPI DUP1 PUSH4 0xD6D68177 GT PUSH2 0x66 JUMPI DUP1 PUSH4 0xD6D68177 EQ PUSH2 0x222 JUMPI DUP1 PUSH4 0xE2C2C884 EQ PUSH2 0x252 JUMPI DUP1 PUSH4 0xF2FDE38B EQ PUSH2 0x270 JUMPI DUP1 PUSH4 0xF38BEE18 EQ PUSH2 0x28C JUMPI PUSH2 0xEA JUMP JUMPDEST DUP1 PUSH4 0x8DA5CB5B EQ PUSH2 0x1B8 JUMPI DUP1 PUSH4 0xC3490263 EQ PUSH2 0x1D6 JUMPI DUP1 PUSH4 0xC7B56842 EQ PUSH2 0x1F2 JUMPI PUSH2 0xEA JUMP JUMPDEST DUP1 PUSH4 0x60104CEF GT PUSH2 0xC8 JUMPI DUP1 PUSH4 0x60104CEF EQ PUSH2 0x15A JUMPI DUP1 PUSH4 0x715018A6 EQ PUSH2 0x176 JUMPI DUP1 PUSH4 0x76F7B500 EQ PUSH2 0x180 JUMPI DUP1 PUSH4 0x8C5B883D EQ PUSH2 0x19C JUMPI PUSH2 0xEA JUMP JUMPDEST DUP1 PUSH4 0x117A5B90 EQ PUSH2 0xEF JUMPI DUP1 PUSH4 0x2849625D EQ PUSH2 0x122 JUMPI DUP1 PUSH4 0x53F8C483 EQ PUSH2 0x13E JUMPI JUMPDEST PUSH1 0x0 DUP1 REVERT JUMPDEST PUSH2 0x109 PUSH1 0x4 DUP1 CALLDATASIZE SUB DUP2 ADD SWAP1 PUSH2 0x104 SWAP2 SWAP1 PUSH2 0x129E JUMP JUMPDEST PUSH2 0x2A8 JUMP JUMPDEST PUSH1 0x40 MLOAD PUSH2 0x119 SWAP5 SWAP4 SWAP3 SWAP2 SWAP1 PUSH2 0x12DA JUMP JUMPDEST PUSH1 0x40 MLOAD DUP1 SWAP2 SUB SWAP1 RETURN JUMPDEST PUSH2 0x13C PUSH1 0x4 DUP1 CALLDATASIZE SUB DUP2 ADD SWAP1 PUSH2 0x137 SWAP2 SWAP1 PUSH2 0x1465 JUMP JUMPDEST PUSH2 0x2D8 JUMP JUMPDEST STOP JUMPDEST PUSH2 0x158 PUSH1 0x4 DUP1 CALLDATASIZE SUB DUP2 ADD SWAP1 PUSH2 0x153 SWAP2 SWAP1 PUSH2 0x1523 JUMP JUMPDEST PUSH2 0x483 JUMP JUMPDEST STOP JUMPDEST PUSH2 0x174 PUSH1 0x4 DUP1 CALLDATASIZE SUB DUP2 ADD SWAP1 PUSH2 0x16F SWAP2 SWAP1 PUSH2 0x1576 JUMP JUMPDEST PUSH2 0x5D4 JUMP JUMPDEST STOP JUMPDEST PUSH2 0x17E PUSH2 0x62C JUMP JUMPDEST STOP JUMPDEST PUSH2 0x19A PUSH1 0x4 DUP1 CALLDATASIZE SUB DUP2 ADD SWAP1 PUSH2 0x195 SWAP2 SWAP1 PUSH2 0x129E JUMP JUMPDEST PUSH2 0x640 JUMP JUMPDEST STOP JUMPDEST PUSH2 0x1B6 PUSH1 0x4 DUP1 CALLDATASIZE SUB DUP2 ADD SWAP1 PUSH2 0x1B1 SWAP2 SWAP1 PUSH2 0x1576 JUMP JUMPDEST PUSH2 0x6F1 JUMP JUMPDEST STOP JUMPDEST PUSH2 0x1C0 PUSH2 0x82D JUMP JUMPDEST PUSH1 0x40 MLOAD PUSH2 0x1CD SWAP2 SWAP1 PUSH2 0x15F7 JUMP JUMPDEST PUSH1 0x40 MLOAD DUP1 SWAP2 SUB SWAP1 RETURN JUMPDEST PUSH2 0x1F0 PUSH1 0x4 DUP1 CALLDATASIZE SUB DUP2 ADD SWAP1 PUSH2 0x1EB SWAP2 SWAP1 PUSH2 0x1576 JUMP JUMPDEST PUSH2 0x856 JUMP JUMPDEST STOP JUMPDEST PUSH2 0x20C PUSH1 0x4 DUP1 CALLDATASIZE SUB DUP2 ADD SWAP1 PUSH2 0x207 SWAP2 SWAP1 PUSH2 0x129E JUMP JUMPDEST PUSH2 0xB26 JUMP JUMPDEST PUSH1 0x40 MLOAD PUSH2 0x219 SWAP2 SWAP1 PUSH2 0x1857 JUMP JUMPDEST PUSH1 0x40 MLOAD DUP1 SWAP2 SUB SWAP1 RETURN JUMPDEST PUSH2 0x23C PUSH1 0x4 DUP1 CALLDATASIZE SUB DUP2 ADD SWAP1 PUSH2 0x237 SWAP2 SWAP1 PUSH2 0x18A5 JUMP JUMPDEST PUSH2 0xC99 JUMP JUMPDEST PUSH1 0x40 MLOAD PUSH2 0x249 SWAP2 SWAP1 PUSH2 0x18E5 JUMP JUMPDEST PUSH1 0x40 MLOAD DUP1 SWAP2 SUB SWAP1 RETURN JUMPDEST PUSH2 0x25A PUSH2 0xCBE JUMP JUMPDEST PUSH1 0x40 MLOAD PUSH2 0x267 SWAP2 SWAP1 PUSH2 0x195F JUMP JUMPDEST PUSH1 0x40 MLOAD DUP1 SWAP2 SUB SWAP1 RETURN JUMPDEST PUSH2 0x28A PUSH1 0x4 DUP1 CALLDATASIZE SUB DUP2 ADD SWAP1 PUSH2 0x285 SWAP2 SWAP1 PUSH2 0x197A JUMP JUMPDEST PUSH2 0xCE2 JUMP JUMPDEST STOP JUMPDEST PUSH2 0x2A6 PUSH1 0x4 DUP1 CALLDATASIZE SUB DUP2 ADD SWAP1 PUSH2 0x2A1 SWAP2 SWAP1 PUSH2 0x1523 JUMP JUMPDEST PUSH2 0xD65 JUMP JUMPDEST STOP JUMPDEST PUSH1 0x4 PUSH1 0x20 MSTORE DUP1 PUSH1 0x0 MSTORE PUSH1 0x40 PUSH1 0x0 KECCAK256 PUSH1 0x0 SWAP2 POP SWAP1 POP DUP1 PUSH1 0x0 ADD SLOAD SWAP1 DUP1 PUSH1 0x1 ADD SLOAD SWAP1 DUP1 PUSH1 0x2 ADD SLOAD SWAP1 DUP1 PUSH1 0x4 ADD SLOAD SWAP1 POP DUP5 JUMP JUMPDEST PUSH2 0x2E0 PUSH2 0x108E JUMP JUMPDEST PUSH1 0x0 PUSH1 0x4 PUSH1 0x0 DUP10 DUP2 MSTORE PUSH1 0x20 ADD SWAP1 DUP2 MSTORE PUSH1 0x20 ADD PUSH1 0x0 KECCAK256 SWAP1 POP PUSH1 0x0 DUP2 PUSH1 0x0 ADD SLOAD SUB PUSH2 0x33E JUMPI PUSH1 0x40 MLOAD PUSH32 0x8C379A000000000000000000000000000000000000000000000000000000000 DUP2 MSTORE PUSH1 0x4 ADD PUSH2 0x335 SWAP1 PUSH2 0x1A04 JUMP JUMPDEST PUSH1 0x40 MLOAD DUP1 SWAP2 SUB SWAP1 REVERT JUMPDEST PUSH1 0x0 PUSH2 0x34A PUSH1 0x3 PUSH2 0x110C JUMP JUMPDEST SWAP1 POP PUSH1 0x0 PUSH1 0x40 MLOAD DUP1 PUSH2 0x140 ADD PUSH1 0x40 MSTORE DUP1 DUP4 DUP2 MSTORE PUSH1 0x20 ADD DUP11 DUP2 MSTORE PUSH1 0x20 ADD PUSH1 0x0 DUP2 MSTORE PUSH1 0x20 ADD DUP9 DUP2 MSTORE PUSH1 0x20 ADD DUP10 DUP2 MSTORE PUSH1 0x20 ADD PUSH1 0x0 DUP2 MSTORE PUSH1 0x20 ADD PUSH1 0x0 ISZERO ISZERO DUP2 MSTORE PUSH1 0x20 ADD DUP8 DUP2 MSTORE PUSH1 0x20 ADD DUP7 DUP2 MSTORE PUSH1 0x20 ADD DUP6 DUP2 MSTORE POP SWAP1 POP DUP3 PUSH1 0x3 ADD DUP2 SWAP1 DUP1 PUSH1 0x1 DUP2 SLOAD ADD DUP1 DUP3 SSTORE DUP1 SWAP2 POP POP PUSH1 0x1 SWAP1 SUB SWAP1 PUSH1 0x0 MSTORE PUSH1 0x20 PUSH1 0x0 KECCAK256 SWAP1 PUSH1 0xA MUL ADD PUSH1 0x0 SWAP1 SWAP2 SWAP1 SWAP2 SWAP1 SWAP2 POP PUSH1 0x0 DUP3 ADD MLOAD DUP2 PUSH1 0x0 ADD SSTORE PUSH1 0x20 DUP3 ADD MLOAD DUP2 PUSH1 0x1 ADD SWAP1 DUP2 PUSH2 0x3E8 SWAP2 SWAP1 PUSH2 0x1C26 JUMP JUMPDEST POP PUSH1 0x40 DUP3 ADD MLOAD DUP2 PUSH1 0x2 ADD SSTORE PUSH1 0x60 DUP3 ADD MLOAD DUP2 PUSH1 0x3 ADD SSTORE PUSH1 0x80 DUP3 ADD MLOAD DUP2 PUSH1 0x4 ADD SSTORE PUSH1 0xA0 DUP3 ADD MLOAD DUP2 PUSH1 0x5 ADD SSTORE PUSH1 0xC0 DUP3 ADD MLOAD DUP2 PUSH1 0x6 ADD PUSH1 0x0 PUSH2 0x100 EXP DUP2 SLOAD DUP2 PUSH1 0xFF MUL NOT AND SWAP1 DUP4 ISZERO ISZERO MUL OR SWAP1 SSTORE POP PUSH1 0xE0 DUP3 ADD MLOAD DUP2 PUSH1 0x7 ADD SSTORE PUSH2 0x100 DUP3 ADD MLOAD DUP2 PUSH1 0x8 ADD SSTORE PUSH2 0x120 DUP3 ADD MLOAD DUP2 PUSH1 0x9 ADD SSTORE POP POP DUP3 PUSH1 0x4 ADD PUSH1 0x0 DUP2 SLOAD DUP1 SWAP3 SWAP2 SWAP1 PUSH2 0x468 SWAP1 PUSH2 0x1D27 JUMP JUMPDEST SWAP2 SWAP1 POP SSTORE POP PUSH2 0x477 PUSH1 0x3 PUSH2 0x111A JUMP JUMPDEST POP POP POP POP POP POP POP POP POP POP JUMP JUMPDEST PUSH2 0x48B PUSH2 0x108E JUMP JUMPDEST PUSH1 0x0 PUSH1 0x4 PUSH1 0x0 DUP6 DUP2 MSTORE PUSH1 0x20 ADD SWAP1 DUP2 MSTORE PUSH1 0x20 ADD PUSH1 0x0 KECCAK256 SWAP1 POP PUSH1 0x0 DUP2 PUSH1 0x3 ADD DUP5 DUP2 SLOAD DUP2 LT PUSH2 0x4BA JUMPI PUSH2 0x4B9 PUSH2 0x1D6F JUMP JUMPDEST JUMPDEST SWAP1 PUSH1 0x0 MSTORE PUSH1 0x20 PUSH1 0x0 KECCAK256 SWAP1 PUSH1 0xA MUL ADD SWAP1 POP PUSH1 0x0 DUP2 PUSH1 0x0 ADD SLOAD SUB PUSH2 0x511 JUMPI PUSH1 0x40 MLOAD PUSH32 0x8C379A000000000000000000000000000000000000000000000000000000000 DUP2 MSTORE PUSH1 0x4 ADD PUSH2 0x508 SWAP1 PUSH2 0x1DEA JUMP JUMPDEST PUSH1 0x40 MLOAD DUP1 SWAP2 SUB SWAP1 REVERT JUMPDEST DUP3 DUP2 PUSH1 0x5 ADD PUSH1 0x0 DUP3 DUP3 SLOAD PUSH2 0x525 SWAP2 SWAP1 PUSH2 0x1E0A JUMP JUMPDEST SWAP3 POP POP DUP2 SWAP1 SSTORE POP PUSH32 0x0 PUSH20 0xFFFFFFFFFFFFFFFFFFFFFFFFFFFFFFFFFFFFFFFF AND PUSH4 0x23B872DD CALLER ADDRESS DUP7 PUSH1 0x40 MLOAD DUP5 PUSH4 0xFFFFFFFF AND PUSH1 0xE0 SHL DUP2 MSTORE PUSH1 0x4 ADD PUSH2 0x589 SWAP4 SWAP3 SWAP2 SWAP1 PUSH2 0x1E3E JUMP JUMPDEST PUSH1 0x20 PUSH1 0x40 MLOAD DUP1 DUP4 SUB DUP2 PUSH1 0x0 DUP8 GAS CALL ISZERO DUP1 ISZERO PUSH2 0x5A8 JUMPI RETURNDATASIZE PUSH1 0x0 DUP1 RETURNDATACOPY RETURNDATASIZE PUSH1 0x0 REVERT JUMPDEST POP POP POP POP PUSH1 0x40 MLOAD RETURNDATASIZE PUSH1 0x1F NOT PUSH1 0x1F DUP3 ADD AND DUP3 ADD DUP1 PUSH1 0x40 MSTORE POP DUP2 ADD SWAP1 PUSH2 0x5CC SWAP2 SWAP1 PUSH2 0x1EA1 JUMP JUMPDEST POP POP POP POP POP POP JUMP JUMPDEST PUSH2 0x5DC PUSH2 0x108E JUMP JUMPDEST PUSH1 0x0 PUSH2 0x5E8 PUSH1 0x2 PUSH2 0x110C JUMP JUMPDEST SWAP1 POP PUSH1 0x0 PUSH1 0x4 PUSH1 0x0 DUP4 DUP2 MSTORE PUSH1 0x20 ADD SWAP1 DUP2 MSTORE PUSH1 0x20 ADD PUSH1 0x0 KECCAK256 SWAP1 POP DUP2 DUP2 PUSH1 0x0 ADD DUP2 SWAP1 SSTORE POP DUP4 DUP2 PUSH1 0x1 ADD DUP2 SWAP1 SSTORE POP DUP3 DUP2 PUSH1 0x2 ADD DUP2 SWAP1 SSTORE POP PUSH2 0x626 PUSH1 0x2 PUSH2 0x111A JUMP JUMPDEST POP POP POP POP JUMP JUMPDEST PUSH2 0x634 PUSH2 0x108E JUMP JUMPDEST PUSH2 0x63E PUSH1 0x0 PUSH2 0x1130 JUMP JUMPDEST JUMP JUMPDEST PUSH2 0x648 PUSH2 0x108E JUMP JUMPDEST PUSH32 0x0 PUSH20 0xFFFFFFFFFFFFFFFFFFFFFFFFFFFFFFFFFFFFFFFF AND PUSH4 0xA9059CBB PUSH2 0x68C PUSH2 0x82D JUMP JUMPDEST DUP4 PUSH1 0x40 MLOAD DUP4 PUSH4 0xFFFFFFFF AND PUSH1 0xE0 SHL DUP2 MSTORE PUSH1 0x4 ADD PUSH2 0x6AA SWAP3 SWAP2 SWAP1 PUSH2 0x1ECE JUMP JUMPDEST PUSH1 0x20 PUSH1 0x40 MLOAD DUP1 DUP4 SUB DUP2 PUSH1 0x0 DUP8 GAS CALL ISZERO DUP1 ISZERO PUSH2 0x6C9 JUMPI RETURNDATASIZE PUSH1 0x0 DUP1 RETURNDATACOPY RETURNDATASIZE PUSH1 0x0 REVERT JUMPDEST POP POP POP POP PUSH1 0x40 MLOAD RETURNDATASIZE PUSH1 0x1F NOT PUSH1 0x1F DUP3 ADD AND DUP3 ADD DUP1 PUSH1 0x40 MSTORE POP DUP2 ADD SWAP1 PUSH2 0x6ED SWAP2 SWAP1 PUSH2 0x1EA1 JUMP JUMPDEST POP POP JUMP JUMPDEST PUSH2 0x6F9 PUSH2 0x108E JUMP JUMPDEST PUSH1 0x0 PUSH1 0x4 PUSH1 0x0 DUP5 DUP2 MSTORE PUSH1 0x20 ADD SWAP1 DUP2 MSTORE PUSH1 0x20 ADD PUSH1 0x0 KECCAK256 SWAP1 POP PUSH1 0x0 DUP2 PUSH1 0x3 ADD DUP4 DUP2 SLOAD DUP2 LT PUSH2 0x728 JUMPI PUSH2 0x727 PUSH2 0x1D6F JUMP JUMPDEST JUMPDEST SWAP1 PUSH1 0x0 MSTORE PUSH1 0x20 PUSH1 0x0 KECCAK256 SWAP1 PUSH1 0xA MUL ADD SWAP1 POP DUP1 PUSH1 0x6 ADD PUSH1 0x0 SWAP1 SLOAD SWAP1 PUSH2 0x100 EXP SWAP1 DIV PUSH1 0xFF AND ISZERO PUSH2 0x78A JUMPI PUSH1 0x40 MLOAD PUSH32 0x8C379A000000000000000000000000000000000000000000000000000000000 DUP2 MSTORE PUSH1 0x4 ADD PUSH2 0x781 SWAP1 PUSH2 0x1F43 JUMP JUMPDEST PUSH1 0x40 MLOAD DUP1 SWAP2 SUB SWAP1 REVERT JUMPDEST PUSH1 0x0 DUP2 PUSH1 0x5 ADD SLOAD GT ISZERO PUSH2 0x827 JUMPI PUSH32 0x0 PUSH20 0xFFFFFFFFFFFFFFFFFFFFFFFFFFFFFFFFFFFFFFFF AND PUSH4 0x42966C68 DUP3 PUSH1 0x5 ADD SLOAD PUSH1 0x40 MLOAD DUP3 PUSH4 0xFFFFFFFF AND PUSH1 0xE0 SHL DUP2 MSTORE PUSH1 0x4 ADD PUSH2 0x7F4 SWAP2 SWAP1 PUSH2 0x18E5 JUMP JUMPDEST PUSH1 0x0 PUSH1 0x40 MLOAD DUP1 DUP4 SUB DUP2 PUSH1 0x0 DUP8 DUP1 EXTCODESIZE ISZERO DUP1 ISZERO PUSH2 0x80E JUMPI PUSH1 0x0 DUP1 REVERT JUMPDEST POP GAS CALL ISZERO DUP1 ISZERO PUSH2 0x822 JUMPI RETURNDATASIZE PUSH1 0x0 DUP1 RETURNDATACOPY RETURNDATASIZE PUSH1 0x0 REVERT JUMPDEST POP POP POP POP JUMPDEST POP POP POP POP JUMP JUMPDEST PUSH1 0x0 DUP1 PUSH1 0x0 SWAP1 SLOAD SWAP1 PUSH2 0x100 EXP SWAP1 DIV PUSH20 0xFFFFFFFFFFFFFFFFFFFFFFFFFFFFFFFFFFFFFFFF AND SWAP1 POP SWAP1 JUMP JUMPDEST PUSH2 0x85E PUSH2 0x11F4 JUMP JUMPDEST PUSH1 0x0 PUSH1 0x4 PUSH1 0x0 DUP5 DUP2 MSTORE PUSH1 0x20 ADD SWAP1 DUP2 MSTORE PUSH1 0x20 ADD PUSH1 0x0 KECCAK256 SWAP1 POP TIMESTAMP DUP2 PUSH1 0x2 ADD SLOAD LT PUSH2 0x8BB JUMPI PUSH1 0x40 MLOAD PUSH32 0x8C379A000000000000000000000000000000000000000000000000000000000 DUP2 MSTORE PUSH1 0x4 ADD PUSH2 0x8B2 SWAP1 PUSH2 0x1FAF JUMP JUMPDEST PUSH1 0x40 MLOAD DUP1 SWAP2 SUB SWAP1 REVERT JUMPDEST DUP1 PUSH1 0x3 ADD DUP3 DUP2 SLOAD DUP2 LT PUSH2 0x8D1 JUMPI PUSH2 0x8D0 PUSH2 0x1D6F JUMP JUMPDEST JUMPDEST SWAP1 PUSH1 0x0 MSTORE PUSH1 0x20 PUSH1 0x0 KECCAK256 SWAP1 PUSH1 0xA MUL ADD PUSH1 0x6 ADD PUSH1 0x0 SWAP1 SLOAD SWAP1 PUSH2 0x100 EXP SWAP1 DIV PUSH1 0xFF AND PUSH2 0x92F JUMPI PUSH1 0x40 MLOAD PUSH32 0x8C379A000000000000000000000000000000000000000000000000000000000 DUP2 MSTORE PUSH1 0x4 ADD PUSH2 0x926 SWAP1 PUSH2 0x201B JUMP JUMPDEST PUSH1 0x40 MLOAD DUP1 SWAP2 SUB SWAP1 REVERT JUMPDEST PUSH1 0x0 PUSH1 0x5 PUSH1 0x0 CALLER PUSH20 0xFFFFFFFFFFFFFFFFFFFFFFFFFFFFFFFFFFFFFFFF AND PUSH20 0xFFFFFFFFFFFFFFFFFFFFFFFFFFFFFFFFFFFFFFFF AND DUP2 MSTORE PUSH1 0x20 ADD SWAP1 DUP2 MSTORE PUSH1 0x20 ADD PUSH1 0x0 KECCAK256 PUSH1 0x0 DUP5 DUP2 MSTORE PUSH1 0x20 ADD SWAP1 DUP2 MSTORE PUSH1 0x20 ADD PUSH1 0x0 KECCAK256 SLOAD SWAP1 POP PUSH1 0x0 DUP2 GT PUSH2 0x9C7 JUMPI PUSH1 0x40 MLOAD PUSH32 0x8C379A000000000000000000000000000000000000000000000000000000000 DUP2 MSTORE PUSH1 0x4 ADD PUSH2 0x9BE SWAP1 PUSH2 0x2087 JUMP JUMPDEST PUSH1 0x40 MLOAD DUP1 SWAP2 SUB SWAP1 REVERT JUMPDEST PUSH1 0x0 DUP3 PUSH1 0x3 ADD DUP5 DUP2 SLOAD DUP2 LT PUSH2 0x9DF JUMPI PUSH2 0x9DE PUSH2 0x1D6F JUMP JUMPDEST JUMPDEST SWAP1 PUSH1 0x0 MSTORE PUSH1 0x20 PUSH1 0x0 KECCAK256 SWAP1 PUSH1 0xA MUL ADD SWAP1 POP PUSH1 0x0 DUP2 PUSH1 0x2 ADD SLOAD DUP3 PUSH1 0x3 ADD SLOAD PUSH2 0xA05 SWAP2 SWAP1 PUSH2 0x20A7 JUMP JUMPDEST DUP3 PUSH1 0x5 ADD SLOAD DUP5 PUSH2 0xA15 SWAP2 SWAP1 PUSH2 0x20A7 JUMP JUMPDEST PUSH2 0xA1F SWAP2 SWAP1 PUSH2 0x2118 JUMP JUMPDEST SWAP1 POP PUSH1 0x0 PUSH1 0x5 PUSH1 0x0 CALLER PUSH20 0xFFFFFFFFFFFFFFFFFFFFFFFFFFFFFFFFFFFFFFFF AND PUSH20 0xFFFFFFFFFFFFFFFFFFFFFFFFFFFFFFFFFFFFFFFF AND DUP2 MSTORE PUSH1 0x20 ADD SWAP1 DUP2 MSTORE PUSH1 0x20 ADD PUSH1 0x0 KECCAK256 PUSH1 0x0 DUP8 DUP2 MSTORE PUSH1 0x20 ADD SWAP1 DUP2 MSTORE PUSH1 0x20 ADD PUSH1 0x0 KECCAK256 DUP2 SWAP1 SSTORE POP PUSH32 0x0 PUSH20 0xFFFFFFFFFFFFFFFFFFFFFFFFFFFFFFFFFFFFFFFF AND PUSH4 0xA9059CBB CALLER DUP4 PUSH1 0x40 MLOAD DUP4 PUSH4 0xFFFFFFFF AND PUSH1 0xE0 SHL DUP2 MSTORE PUSH1 0x4 ADD PUSH2 0xAD2 SWAP3 SWAP2 SWAP1 PUSH2 0x1ECE JUMP JUMPDEST PUSH1 0x20 PUSH1 0x40 MLOAD DUP1 DUP4 SUB DUP2 PUSH1 0x0 DUP8 GAS CALL ISZERO DUP1 ISZERO PUSH2 0xAF1 JUMPI RETURNDATASIZE PUSH1 0x0 DUP1 RETURNDATACOPY RETURNDATASIZE PUSH1 0x0 REVERT JUMPDEST POP POP POP POP PUSH1 0x40 MLOAD RETURNDATASIZE PUSH1 0x1F NOT PUSH1 0x1F DUP3 ADD AND DUP3 ADD DUP1 PUSH1 0x40 MSTORE POP DUP2 ADD SWAP1 PUSH2 0xB15 SWAP2 SWAP1 PUSH2 0x1EA1 JUMP JUMPDEST POP POP POP POP POP PUSH2 0xB22 PUSH2 0x1243 JUMP JUMPDEST POP POP JUMP JUMPDEST PUSH1 0x60 PUSH1 0x4 PUSH1 0x0 DUP4 DUP2 MSTORE PUSH1 0x20 ADD SWAP1 DUP2 MSTORE PUSH1 0x20 ADD PUSH1 0x0 KECCAK256 PUSH1 0x3 ADD DUP1 SLOAD DUP1 PUSH1 0x20 MUL PUSH1 0x20 ADD PUSH1 0x40 MLOAD SWAP1 DUP2 ADD PUSH1 0x40 MSTORE DUP1 SWAP3 SWAP2 SWAP1 DUP2 DUP2 MSTORE PUSH1 0x20 ADD PUSH1 0x0 SWAP1 JUMPDEST DUP3 DUP3 LT ISZERO PUSH2 0xC8E JUMPI DUP4 DUP3 SWAP1 PUSH1 0x0 MSTORE PUSH1 0x20 PUSH1 0x0 KECCAK256 SWAP1 PUSH1 0xA MUL ADD PUSH1 0x40 MLOAD DUP1 PUSH2 0x140 ADD PUSH1 0x40 MSTORE SWAP1 DUP2 PUSH1 0x0 DUP3 ADD SLOAD DUP2 MSTORE PUSH1 0x20 ADD PUSH1 0x1 DUP3 ADD DUP1 SLOAD PUSH2 0xB9C SWAP1 PUSH2 0x1A53 JUMP JUMPDEST DUP1 PUSH1 0x1F ADD PUSH1 0x20 DUP1 SWAP2 DIV MUL PUSH1 0x20 ADD PUSH1 0x40 MLOAD SWAP1 DUP2 ADD PUSH1 0x40 MSTORE DUP1 SWAP3 SWAP2 SWAP1 DUP2 DUP2 MSTORE PUSH1 0x20 ADD DUP3 DUP1 SLOAD PUSH2 0xBC8 SWAP1 PUSH2 0x1A53 JUMP JUMPDEST DUP1 ISZERO PUSH2 0xC15 JUMPI DUP1 PUSH1 0x1F LT PUSH2 0xBEA JUMPI PUSH2 0x100 DUP1 DUP4 SLOAD DIV MUL DUP4 MSTORE SWAP2 PUSH1 0x20 ADD SWAP2 PUSH2 0xC15 JUMP JUMPDEST DUP3 ADD SWAP2 SWAP1 PUSH1 0x0 MSTORE PUSH1 0x20 PUSH1 0x0 KECCAK256 SWAP1 JUMPDEST DUP2 SLOAD DUP2 MSTORE SWAP1 PUSH1 0x1 ADD SWAP1 PUSH1 0x20 ADD DUP1 DUP4 GT PUSH2 0xBF8 JUMPI DUP3 SWAP1 SUB PUSH1 0x1F AND DUP3 ADD SWAP2 JUMPDEST POP POP POP POP POP DUP2 MSTORE PUSH1 0x20 ADD PUSH1 0x2 DUP3 ADD SLOAD DUP2 MSTORE PUSH1 0x20 ADD PUSH1 0x3 DUP3 ADD SLOAD DUP2 MSTORE PUSH1 0x20 ADD PUSH1 0x4 DUP3 ADD SLOAD DUP2 MSTORE PUSH1 0x20 ADD PUSH1 0x5 DUP3 ADD SLOAD DUP2 MSTORE PUSH1 0x20 ADD PUSH1 0x6 DUP3 ADD PUSH1 0x0 SWAP1 SLOAD SWAP1 PUSH2 0x100 EXP SWAP1 DIV PUSH1 0xFF AND ISZERO ISZERO ISZERO ISZERO DUP2 MSTORE PUSH1 0x20 ADD PUSH1 0x7 DUP3 ADD SLOAD DUP2 MSTORE PUSH1 0x20 ADD PUSH1 0x8 DUP3 ADD SLOAD DUP2 MSTORE PUSH1 0x20 ADD PUSH1 0x9 DUP3 ADD SLOAD DUP2 MSTORE POP POP DUP2 MSTORE PUSH1 0x20 ADD SWAP1 PUSH1 0x1 ADD SWAP1 PUSH2 0xB5E JUMP JUMPDEST POP POP POP POP SWAP1 POP SWAP2 SWAP1 POP JUMP JUMPDEST PUSH1 0x5 PUSH1 0x20 MSTORE DUP2 PUSH1 0x0 MSTORE PUSH1 0x40 PUSH1 0x0 KECCAK256 PUSH1 0x20 MSTORE DUP1 PUSH1 0x0 MSTORE PUSH1 0x40 PUSH1 0x0 KECCAK256 PUSH1 0x0 SWAP2 POP SWAP2 POP POP SLOAD DUP2 JUMP JUMPDEST PUSH32 0x0 DUP2 JUMP JUMPDEST PUSH2 0xCEA PUSH2 0x108E JUMP JUMPDEST PUSH1 0x0 PUSH20 0xFFFFFFFFFFFFFFFFFFFFFFFFFFFFFFFFFFFFFFFF AND DUP2 PUSH20 0xFFFFFFFFFFFFFFFFFFFFFFFFFFFFFFFFFFFFFFFF AND SUB PUSH2 0xD59 JUMPI PUSH1 0x40 MLOAD PUSH32 0x8C379A000000000000000000000000000000000000000000000000000000000 DUP2 MSTORE PUSH1 0x4 ADD PUSH2 0xD50 SWAP1 PUSH2 0x21BB JUMP JUMPDEST PUSH1 0x40 MLOAD DUP1 SWAP2 SUB SWAP1 REVERT JUMPDEST PUSH2 0xD62 DUP2 PUSH2 0x1130 JUMP JUMPDEST POP JUMP JUMPDEST PUSH2 0xD6D PUSH2 0x11F4 JUMP JUMPDEST PUSH1 0x0 PUSH1 0x4 PUSH1 0x0 DUP6 DUP2 MSTORE PUSH1 0x20 ADD SWAP1 DUP2 MSTORE PUSH1 0x20 ADD PUSH1 0x0 KECCAK256 SWAP1 POP PUSH1 0x0 DUP2 PUSH1 0x3 ADD DUP5 DUP2 SLOAD DUP2 LT PUSH2 0xD9C JUMPI PUSH2 0xD9B PUSH2 0x1D6F JUMP JUMPDEST JUMPDEST SWAP1 PUSH1 0x0 MSTORE PUSH1 0x20 PUSH1 0x0 KECCAK256 SWAP1 PUSH1 0xA MUL ADD SWAP1 POP PUSH1 0x0 DUP2 PUSH1 0x0 ADD SLOAD SUB PUSH2 0xDF3 JUMPI PUSH1 0x40 MLOAD PUSH32 0x8C379A000000000000000000000000000000000000000000000000000000000 DUP2 MSTORE PUSH1 0x4 ADD PUSH2 0xDEA SWAP1 PUSH2 0x1DEA JUMP JUMPDEST PUSH1 0x40 MLOAD DUP1 SWAP2 SUB SWAP1 REVERT JUMPDEST DUP1 PUSH1 0x6 ADD PUSH1 0x0 SWAP1 SLOAD SWAP1 PUSH2 0x100 EXP SWAP1 DIV PUSH1 0xFF AND ISZERO PUSH2 0xE45 JUMPI PUSH1 0x40 MLOAD PUSH32 0x8C379A000000000000000000000000000000000000000000000000000000000 DUP2 MSTORE PUSH1 0x4 ADD PUSH2 0xE3C SWAP1 PUSH2 0x2227 JUMP JUMPDEST PUSH1 0x40 MLOAD DUP1 SWAP2 SUB SWAP1 REVERT JUMPDEST DUP1 PUSH1 0x3 ADD SLOAD DUP4 DUP3 PUSH1 0x2 ADD SLOAD PUSH2 0xE5A SWAP2 SWAP1 PUSH2 0x1E0A JUMP JUMPDEST GT ISZERO PUSH2 0xE9B JUMPI PUSH1 0x40 MLOAD PUSH32 0x8C379A000000000000000000000000000000000000000000000000000000000 DUP2 MSTORE PUSH1 0x4 ADD PUSH2 0xE92 SWAP1 PUSH2 0x2293 JUMP JUMPDEST PUSH1 0x40 MLOAD DUP1 SWAP2 SUB SWAP1 REVERT JUMPDEST PUSH1 0x0 DUP2 PUSH1 0x4 ADD SLOAD DUP5 PUSH2 0xEAD SWAP2 SWAP1 PUSH2 0x20A7 JUMP JUMPDEST SWAP1 POP PUSH32 0x0 PUSH20 0xFFFFFFFFFFFFFFFFFFFFFFFFFFFFFFFFFFFFFFFF AND PUSH4 0x23B872DD CALLER ADDRESS DUP5 PUSH1 0x40 MLOAD DUP5 PUSH4 0xFFFFFFFF AND PUSH1 0xE0 SHL DUP2 MSTORE PUSH1 0x4 ADD PUSH2 0xF0C SWAP4 SWAP3 SWAP2 SWAP1 PUSH2 0x1E3E JUMP JUMPDEST PUSH1 0x20 PUSH1 0x40 MLOAD DUP1 DUP4 SUB DUP2 PUSH1 0x0 DUP8 GAS CALL ISZERO DUP1 ISZERO PUSH2 0xF2B JUMPI RETURNDATASIZE PUSH1 0x0 DUP1 RETURNDATACOPY RETURNDATASIZE PUSH1 0x0 REVERT JUMPDEST POP POP POP POP PUSH1 0x40 MLOAD RETURNDATASIZE PUSH1 0x1F NOT PUSH1 0x1F DUP3 ADD AND DUP3 ADD DUP1 PUSH1 0x40 MSTORE POP DUP2 ADD SWAP1 PUSH2 0xF4F SWAP2 SWAP1 PUSH2 0x1EA1 JUMP JUMPDEST POP DUP4 PUSH1 0x5 PUSH1 0x0 CALLER PUSH20 0xFFFFFFFFFFFFFFFFFFFFFFFFFFFFFFFFFFFFFFFF AND PUSH20 0xFFFFFFFFFFFFFFFFFFFFFFFFFFFFFFFFFFFFFFFF AND DUP2 MSTORE PUSH1 0x20 ADD SWAP1 DUP2 MSTORE PUSH1 0x20 ADD PUSH1 0x0 KECCAK256 PUSH1 0x0 DUP8 DUP2 MSTORE PUSH1 0x20 ADD SWAP1 DUP2 MSTORE PUSH1 0x20 ADD PUSH1 0x0 KECCAK256 PUSH1 0x0 DUP3 DUP3 SLOAD PUSH2 0xFB0 SWAP2 SWAP1 PUSH2 0x1E0A JUMP JUMPDEST SWAP3 POP POP DUP2 SWAP1 SSTORE POP DUP4 DUP3 PUSH1 0x2 ADD PUSH1 0x0 DUP3 DUP3 SLOAD PUSH2 0xFCB SWAP2 SWAP1 PUSH2 0x1E0A JUMP JUMPDEST SWAP3 POP POP DUP2 SWAP1 SSTORE POP DUP2 PUSH1 0x3 ADD SLOAD DUP3 PUSH1 0x2 ADD SLOAD SUB PUSH2 0x107E JUMPI PUSH1 0x1 DUP3 PUSH1 0x6 ADD PUSH1 0x0 PUSH2 0x100 EXP DUP2 SLOAD DUP2 PUSH1 0xFF MUL NOT AND SWAP1 DUP4 ISZERO ISZERO MUL OR SWAP1 SSTORE POP PUSH1 0x0 PUSH1 0x40 MLOAD DUP1 PUSH1 0x40 ADD PUSH1 0x40 MSTORE DUP1 PUSH1 0x7 DUP2 MSTORE PUSH1 0x20 ADD PUSH32 0x6465662D30303100000000000000000000000000000000000000000000000000 DUP2 MSTORE POP SWAP1 POP PUSH32 0x48BDD33BB928F44A7B0B890963D9AFE34ABF223C0DE29E0174CD429D9AC0C18A DUP7 DUP5 PUSH1 0x1 ADD DUP4 DUP7 PUSH1 0x9 ADD SLOAD PUSH1 0x40 MLOAD PUSH2 0x1074 SWAP5 SWAP4 SWAP3 SWAP2 SWAP1 PUSH2 0x2370 JUMP JUMPDEST PUSH1 0x40 MLOAD DUP1 SWAP2 SUB SWAP1 LOG1 POP JUMPDEST POP POP POP PUSH2 0x1089 PUSH2 0x1243 JUMP JUMPDEST POP POP POP JUMP JUMPDEST PUSH2 0x1096 PUSH2 0x124C JUMP JUMPDEST PUSH20 0xFFFFFFFFFFFFFFFFFFFFFFFFFFFFFFFFFFFFFFFF AND PUSH2 0x10B4 PUSH2 0x82D JUMP JUMPDEST PUSH20 0xFFFFFFFFFFFFFFFFFFFFFFFFFFFFFFFFFFFFFFFF AND EQ PUSH2 0x110A JUMPI PUSH1 0x40 MLOAD PUSH32 0x8C379A000000000000000000000000000000000000000000000000000000000 DUP2 MSTORE PUSH1 0x4 ADD PUSH2 0x1101 SWAP1 PUSH2 0x240F JUMP JUMPDEST PUSH1 0x40 MLOAD DUP1 SWAP2 SUB SWAP1 REVERT JUMPDEST JUMP JUMPDEST PUSH1 0x0 DUP2 PUSH1 0x0 ADD SLOAD SWAP1 POP SWAP2 SWAP1 POP JUMP JUMPDEST PUSH1 0x1 DUP2 PUSH1 0x0 ADD PUSH1 0x0 DUP3 DUP3 SLOAD ADD SWAP3 POP POP DUP2 SWAP1 SSTORE POP POP JUMP JUMPDEST PUSH1 0x0 DUP1 PUSH1 0x0 SWAP1 SLOAD SWAP1 PUSH2 0x100 EXP SWAP1 DIV PUSH20 0xFFFFFFFFFFFFFFFFFFFFFFFFFFFFFFFFFFFFFFFF AND SWAP1 POP DUP2 PUSH1 0x0 DUP1 PUSH2 0x100 EXP DUP2 SLOAD DUP2 PUSH20 0xFFFFFFFFFFFFFFFFFFFFFFFFFFFFFFFFFFFFFFFF MUL NOT AND SWAP1 DUP4 PUSH20 0xFFFFFFFFFFFFFFFFFFFFFFFFFFFFFFFFFFFFFFFF AND MUL OR SWAP1 SSTORE POP DUP2 PUSH20 0xFFFFFFFFFFFFFFFFFFFFFFFFFFFFFFFFFFFFFFFF AND DUP2 PUSH20 0xFFFFFFFFFFFFFFFFFFFFFFFFFFFFFFFFFFFFFFFF AND PUSH32 0x8BE0079C531659141344CD1FD0A4F28419497F9722A3DAAFE3B4186F6B6457E0 PUSH1 0x40 MLOAD PUSH1 0x40 MLOAD DUP1 SWAP2 SUB SWAP1 LOG3 POP POP JUMP JUMPDEST PUSH1 0x2 PUSH1 0x1 SLOAD SUB PUSH2 0x1239 JUMPI PUSH1 0x40 MLOAD PUSH32 0x8C379A000000000000000000000000000000000000000000000000000000000 DUP2 MSTORE PUSH1 0x4 ADD PUSH2 0x1230 SWAP1 PUSH2 0x247B JUMP JUMPDEST PUSH1 0x40 MLOAD DUP1 SWAP2 SUB SWAP1 REVERT JUMPDEST PUSH1 0x2 PUSH1 0x1 DUP2 SWAP1 SSTORE POP JUMP JUMPDEST PUSH1 0x1 DUP1 DUP2 SWAP1 SSTORE POP JUMP JUMPDEST PUSH1 0x0 CALLER SWAP1 POP SWAP1 JUMP JUMPDEST PUSH1 0x0 PUSH1 0x40 MLOAD SWAP1 POP SWAP1 JUMP JUMPDEST PUSH1 0x0 DUP1 REVERT JUMPDEST PUSH1 0x0 DUP1 REVERT JUMPDEST PUSH1 0x0 DUP2 SWAP1 POP SWAP2 SWAP1 POP JUMP JUMPDEST PUSH2 0x127B DUP2 PUSH2 0x1268 JUMP JUMPDEST DUP2 EQ PUSH2 0x1286 JUMPI PUSH1 0x0 DUP1 REVERT JUMPDEST POP JUMP JUMPDEST PUSH1 0x0 DUP2 CALLDATALOAD SWAP1 POP PUSH2 0x1298 DUP2 PUSH2 0x1272 JUMP JUMPDEST SWAP3 SWAP2 POP POP JUMP JUMPDEST PUSH1 0x0 PUSH1 0x20 DUP3 DUP5 SUB SLT ISZERO PUSH2 0x12B4 JUMPI PUSH2 0x12B3 PUSH2 0x125E JUMP JUMPDEST JUMPDEST PUSH1 0x0 PUSH2 0x12C2 DUP5 DUP3 DUP6 ADD PUSH2 0x1289 JUMP JUMPDEST SWAP2 POP POP SWAP3 SWAP2 POP POP JUMP JUMPDEST PUSH2 0x12D4 DUP2 PUSH2 0x1268 JUMP JUMPDEST DUP3 MSTORE POP POP JUMP JUMPDEST PUSH1 0x0 PUSH1 0x80 DUP3 ADD SWAP1 POP PUSH2 0x12EF PUSH1 0x0 DUP4 ADD DUP8 PUSH2 0x12CB JUMP JUMPDEST PUSH2 0x12FC PUSH1 0x20 DUP4 ADD DUP7 PUSH2 0x12CB JUMP JUMPDEST PUSH2 0x1309 PUSH1 0x40 DUP4 ADD DUP6 PUSH2 0x12CB JUMP JUMPDEST PUSH2 0x1316 PUSH1 0x60 DUP4 ADD DUP5 PUSH2 0x12CB JUMP JUMPDEST SWAP6 SWAP5 POP POP POP POP POP JUMP JUMPDEST PUSH1 0x0 DUP1 REVERT JUMPDEST PUSH1 0x0 DUP1 REVERT JUMPDEST PUSH1 0x0 PUSH1 0x1F NOT PUSH1 0x1F DUP4 ADD AND SWAP1 POP SWAP2 SWAP1 POP JUMP JUMPDEST PUSH32 0x4E487B7100000000000000000000000000000000000000000000000000000000 PUSH1 0x0 MSTORE PUSH1 0x41 PUSH1 0x4 MSTORE PUSH1 0x24 PUSH1 0x0 REVERT JUMPDEST PUSH2 0x1372 DUP3 PUSH2 0x1329 JUMP JUMPDEST DUP2 ADD DUP2 DUP2 LT PUSH8 0xFFFFFFFFFFFFFFFF DUP3 GT OR ISZERO PUSH2 0x1391 JUMPI PUSH2 0x1390 PUSH2 0x133A JUMP JUMPDEST JUMPDEST DUP1 PUSH1 0x40 MSTORE POP POP POP JUMP JUMPDEST PUSH1 0x0 PUSH2 0x13A4 PUSH2 0x1254 JUMP JUMPDEST SWAP1 POP PUSH2 0x13B0 DUP3 DUP3 PUSH2 0x1369 JUMP JUMPDEST SWAP2 SWAP1 POP JUMP JUMPDEST PUSH1 0x0 PUSH8 0xFFFFFFFFFFFFFFFF DUP3 GT ISZERO PUSH2 0x13D0 JUMPI PUSH2 0x13CF PUSH2 0x133A JUMP JUMPDEST JUMPDEST PUSH2 0x13D9 DUP3 PUSH2 0x1329 JUMP JUMPDEST SWAP1 POP PUSH1 0x20 DUP2 ADD SWAP1 POP SWAP2 SWAP1 POP JUMP JUMPDEST DUP3 DUP2 DUP4 CALLDATACOPY PUSH1 0x0 DUP4 DUP4 ADD MSTORE POP POP POP JUMP JUMPDEST PUSH1 0x0 PUSH2 0x1408 PUSH2 0x1403 DUP5 PUSH2 0x13B5 JUMP JUMPDEST PUSH2 0x139A JUMP JUMPDEST SWAP1 POP DUP3 DUP2 MSTORE PUSH1 0x20 DUP2 ADD DUP5 DUP5 DUP5 ADD GT ISZERO PUSH2 0x1424 JUMPI PUSH2 0x1423 PUSH2 0x1324 JUMP JUMPDEST JUMPDEST PUSH2 0x142F DUP5 DUP3 DUP6 PUSH2 0x13E6 JUMP JUMPDEST POP SWAP4 SWAP3 POP POP POP JUMP JUMPDEST PUSH1 0x0 DUP3 PUSH1 0x1F DUP4 ADD SLT PUSH2 0x144C JUMPI PUSH2 0x144B PUSH2 0x131F JUMP JUMPDEST JUMPDEST DUP2 CALLDATALOAD PUSH2 0x145C DUP5 DUP3 PUSH1 0x20 DUP7 ADD PUSH2 0x13F5 JUMP JUMPDEST SWAP2 POP POP SWAP3 SWAP2 POP POP JUMP JUMPDEST PUSH1 0x0 DUP1 PUSH1 0x0 DUP1 PUSH1 0x0 DUP1 PUSH1 0x0 PUSH1 0xE0 DUP9 DUP11 SUB SLT ISZERO PUSH2 0x1484 JUMPI PUSH2 0x1483 PUSH2 0x125E JUMP JUMPDEST JUMPDEST PUSH1 0x0 PUSH2 0x1492 DUP11 DUP3 DUP12 ADD PUSH2 0x1289 JUMP JUMPDEST SWAP8 POP POP PUSH1 0x20 DUP9 ADD CALLDATALOAD PUSH8 0xFFFFFFFFFFFFFFFF DUP2 GT ISZERO PUSH2 0x14B3 JUMPI PUSH2 0x14B2 PUSH2 0x1263 JUMP JUMPDEST JUMPDEST PUSH2 0x14BF DUP11 DUP3 DUP12 ADD PUSH2 0x1437 JUMP JUMPDEST SWAP7 POP POP PUSH1 0x40 PUSH2 0x14D0 DUP11 DUP3 DUP12 ADD PUSH2 0x1289 JUMP JUMPDEST SWAP6 POP POP PUSH1 0x60 PUSH2 0x14E1 DUP11 DUP3 DUP12 ADD PUSH2 0x1289 JUMP JUMPDEST SWAP5 POP POP PUSH1 0x80 PUSH2 0x14F2 DUP11 DUP3 DUP12 ADD PUSH2 0x1289 JUMP JUMPDEST SWAP4 POP POP PUSH1 0xA0 PUSH2 0x1503 DUP11 DUP3 DUP12 ADD PUSH2 0x1289 JUMP JUMPDEST SWAP3 POP POP PUSH1 0xC0 PUSH2 0x1514 DUP11 DUP3 DUP12 ADD PUSH2 0x1289 JUMP JUMPDEST SWAP2 POP POP SWAP3 SWAP6 SWAP9 SWAP2 SWAP5 SWAP8 POP SWAP3 SWAP6 POP JUMP JUMPDEST PUSH1 0x0 DUP1 PUSH1 0x0 PUSH1 0x60 DUP5 DUP7 SUB SLT ISZERO PUSH2 0x153C JUMPI PUSH2 0x153B PUSH2 0x125E JUMP JUMPDEST JUMPDEST PUSH1 0x0 PUSH2 0x154A DUP7 DUP3 DUP8 ADD PUSH2 0x1289 JUMP JUMPDEST SWAP4 POP POP PUSH1 0x20 PUSH2 0x155B DUP7 DUP3 DUP8 ADD PUSH2 0x1289 JUMP JUMPDEST SWAP3 POP POP PUSH1 0x40 PUSH2 0x156C DUP7 DUP3 DUP8 ADD PUSH2 0x1289 JUMP JUMPDEST SWAP2 POP POP SWAP3 POP SWAP3 POP SWAP3 JUMP JUMPDEST PUSH1 0x0 DUP1 PUSH1 0x40 DUP4 DUP6 SUB SLT ISZERO PUSH2 0x158D JUMPI PUSH2 0x158C PUSH2 0x125E JUMP JUMPDEST JUMPDEST PUSH1 0x0 PUSH2 0x159B DUP6 DUP3 DUP7 ADD PUSH2 0x1289 JUMP JUMPDEST SWAP3 POP POP PUSH1 0x20 PUSH2 0x15AC DUP6 DUP3 DUP7 ADD PUSH2 0x1289 JUMP JUMPDEST SWAP2 POP POP SWAP3 POP SWAP3 SWAP1 POP JUMP JUMPDEST PUSH1 0x0 PUSH20 0xFFFFFFFFFFFFFFFFFFFFFFFFFFFFFFFFFFFFFFFF DUP3 AND SWAP1 POP SWAP2 SWAP1 POP JUMP JUMPDEST PUSH1 0x0 PUSH2 0x15E1 DUP3 PUSH2 0x15B6 JUMP JUMPDEST SWAP1 POP SWAP2 SWAP1 POP JUMP JUMPDEST PUSH2 0x15F1 DUP2 PUSH2 0x15D6 JUMP JUMPDEST DUP3 MSTORE POP POP JUMP JUMPDEST PUSH1 0x0 PUSH1 0x20 DUP3 ADD SWAP1 POP PUSH2 0x160C PUSH1 0x0 DUP4 ADD DUP5 PUSH2 0x15E8 JUMP JUMPDEST SWAP3 SWAP2 POP POP JUMP JUMPDEST PUSH1 0x0 DUP2 MLOAD SWAP1 POP SWAP2 SWAP1 POP JUMP JUMPDEST PUSH1 0x0 DUP3 DUP3 MSTORE PUSH1 0x20 DUP3 ADD SWAP1 POP SWAP3 SWAP2 POP POP JUMP JUMPDEST PUSH1 0x0 DUP2 SWAP1 POP PUSH1 0x20 DUP3 ADD SWAP1 POP SWAP2 SWAP1 POP JUMP JUMPDEST PUSH2 0x1647 DUP2 PUSH2 0x1268 JUMP JUMPDEST DUP3 MSTORE POP POP JUMP JUMPDEST PUSH1 0x0 DUP2 MLOAD SWAP1 POP SWAP2 SWAP1 POP JUMP JUMPDEST PUSH1 0x0 DUP3 DUP3 MSTORE PUSH1 0x20 DUP3 ADD SWAP1 POP SWAP3 SWAP2 POP POP JUMP JUMPDEST PUSH1 0x0 JUMPDEST DUP4 DUP2 LT ISZERO PUSH2 0x1687 JUMPI DUP1 DUP3 ADD MLOAD DUP2 DUP5 ADD MSTORE PUSH1 0x20 DUP2 ADD SWAP1 POP PUSH2 0x166C JUMP JUMPDEST PUSH1 0x0 DUP5 DUP5 ADD MSTORE POP POP POP POP JUMP JUMPDEST PUSH1 0x0 PUSH2 0x169E DUP3 PUSH2 0x164D JUMP JUMPDEST PUSH2 0x16A8 DUP2 DUP6 PUSH2 0x1658 JUMP JUMPDEST SWAP4 POP PUSH2 0x16B8 DUP2 DUP6 PUSH1 0x20 DUP7 ADD PUSH2 0x1669 JUMP JUMPDEST PUSH2 0x16C1 DUP2 PUSH2 0x1329 JUMP JUMPDEST DUP5 ADD SWAP2 POP POP SWAP3 SWAP2 POP POP JUMP JUMPDEST PUSH1 0x0 DUP2 ISZERO ISZERO SWAP1 POP SWAP2 SWAP1 POP JUMP JUMPDEST PUSH2 0x16E1 DUP2 PUSH2 0x16CC JUMP JUMPDEST DUP3 MSTORE POP POP JUMP JUMPDEST PUSH1 0x0 PUSH2 0x140 DUP4 ADD PUSH1 0x0 DUP4 ADD MLOAD PUSH2 0x1700 PUSH1 0x0 DUP7 ADD DUP3 PUSH2 0x163E JUMP JUMPDEST POP PUSH1 0x20 DUP4 ADD MLOAD DUP5 DUP3 SUB PUSH1 0x20 DUP7 ADD MSTORE PUSH2 0x1718 DUP3 DUP3 PUSH2 0x1693 JUMP JUMPDEST SWAP2 POP POP PUSH1 0x40 DUP4 ADD MLOAD PUSH2 0x172D PUSH1 0x40 DUP7 ADD DUP3 PUSH2 0x163E JUMP JUMPDEST POP PUSH1 0x60 DUP4 ADD MLOAD PUSH2 0x1740 PUSH1 0x60 DUP7 ADD DUP3 PUSH2 0x163E JUMP JUMPDEST POP PUSH1 0x80 DUP4 ADD MLOAD PUSH2 0x1753 PUSH1 0x80 DUP7 ADD DUP3 PUSH2 0x163E JUMP JUMPDEST POP PUSH1 0xA0 DUP4 ADD MLOAD PUSH2 0x1766 PUSH1 0xA0 DUP7 ADD DUP3 PUSH2 0x163E JUMP JUMPDEST POP PUSH1 0xC0 DUP4 ADD MLOAD PUSH2 0x1779 PUSH1 0xC0 DUP7 ADD DUP3 PUSH2 0x16D8 JUMP JUMPDEST POP PUSH1 0xE0 DUP4 ADD MLOAD PUSH2 0x178C PUSH1 0xE0 DUP7 ADD DUP3 PUSH2 0x163E JUMP JUMPDEST POP PUSH2 0x100 DUP4 ADD MLOAD PUSH2 0x17A1 PUSH2 0x100 DUP7 ADD DUP3 PUSH2 0x163E JUMP JUMPDEST POP PUSH2 0x120 DUP4 ADD MLOAD PUSH2 0x17B6 PUSH2 0x120 DUP7 ADD DUP3 PUSH2 0x163E JUMP JUMPDEST POP DUP1 SWAP2 POP POP SWAP3 SWAP2 POP POP JUMP JUMPDEST PUSH1 0x0 PUSH2 0x17CD DUP4 DUP4 PUSH2 0x16E7 JUMP JUMPDEST SWAP1 POP SWAP3 SWAP2 POP POP JUMP JUMPDEST PUSH1 0x0 PUSH1 0x20 DUP3 ADD SWAP1 POP SWAP2 SWAP1 POP JUMP JUMPDEST PUSH1 0x0 PUSH2 0x17ED DUP3 PUSH2 0x1612 JUMP JUMPDEST PUSH2 0x17F7 DUP2 DUP6 PUSH2 0x161D JUMP JUMPDEST SWAP4 POP DUP4 PUSH1 0x20 DUP3 MUL DUP6 ADD PUSH2 0x1809 DUP6 PUSH2 0x162E JUMP JUMPDEST DUP1 PUSH1 0x0 JUMPDEST DUP6 DUP2 LT ISZERO PUSH2 0x1845 JUMPI DUP5 DUP5 SUB DUP10 MSTORE DUP2 MLOAD PUSH2 0x1826 DUP6 DUP3 PUSH2 0x17C1 JUMP JUMPDEST SWAP5 POP PUSH2 0x1831 DUP4 PUSH2 0x17D5 JUMP JUMPDEST SWAP3 POP PUSH1 0x20 DUP11 ADD SWAP10 POP POP PUSH1 0x1 DUP2 ADD SWAP1 POP PUSH2 0x180D JUMP JUMPDEST POP DUP3 SWAP8 POP DUP8 SWAP6 POP POP POP POP POP POP SWAP3 SWAP2 POP POP JUMP JUMPDEST PUSH1 0x0 PUSH1 0x20 DUP3 ADD SWAP1 POP DUP2 DUP2 SUB PUSH1 0x0 DUP4 ADD MSTORE PUSH2 0x1871 DUP2 DUP5 PUSH2 0x17E2 JUMP JUMPDEST SWAP1 POP SWAP3 SWAP2 POP POP JUMP JUMPDEST PUSH2 0x1882 DUP2 PUSH2 0x15D6 JUMP JUMPDEST DUP2 EQ PUSH2 0x188D JUMPI PUSH1 0x0 DUP1 REVERT JUMPDEST POP JUMP JUMPDEST PUSH1 0x0 DUP2 CALLDATALOAD SWAP1 POP PUSH2 0x189F DUP2 PUSH2 0x1879 JUMP JUMPDEST SWAP3 SWAP2 POP POP JUMP JUMPDEST PUSH1 0x0 DUP1 PUSH1 0x40 DUP4 DUP6 SUB SLT ISZERO PUSH2 0x18BC JUMPI PUSH2 0x18BB PUSH2 0x125E JUMP JUMPDEST JUMPDEST PUSH1 0x0 PUSH2 0x18CA DUP6 DUP3 DUP7 ADD PUSH2 0x1890 JUMP JUMPDEST SWAP3 POP POP PUSH1 0x20 PUSH2 0x18DB DUP6 DUP3 DUP7 ADD PUSH2 0x1289 JUMP JUMPDEST SWAP2 POP POP SWAP3 POP SWAP3 SWAP1 POP JUMP JUMPDEST PUSH1 0x0 PUSH1 0x20 DUP3 ADD SWAP1 POP PUSH2 0x18FA PUSH1 0x0 DUP4 ADD DUP5 PUSH2 0x12CB JUMP JUMPDEST SWAP3 SWAP2 POP POP JUMP JUMPDEST PUSH1 0x0 DUP2 SWAP1 POP SWAP2 SWAP1 POP JUMP JUMPDEST PUSH1 0x0 PUSH2 0x1925 PUSH2 0x1920 PUSH2 0x191B DUP5 PUSH2 0x15B6 JUMP JUMPDEST PUSH2 0x1900 JUMP JUMPDEST PUSH2 0x15B6 JUMP JUMPDEST SWAP1 POP SWAP2 SWAP1 POP JUMP JUMPDEST PUSH1 0x0 PUSH2 0x1937 DUP3 PUSH2 0x190A JUMP JUMPDEST SWAP1 POP SWAP2 SWAP1 POP JUMP JUMPDEST PUSH1 0x0 PUSH2 0x1949 DUP3 PUSH2 0x192C JUMP JUMPDEST SWAP1 POP SWAP2 SWAP1 POP JUMP JUMPDEST PUSH2 0x1959 DUP2 PUSH2 0x193E JUMP JUMPDEST DUP3 MSTORE POP POP JUMP JUMPDEST PUSH1 0x0 PUSH1 0x20 DUP3 ADD SWAP1 POP PUSH2 0x1974 PUSH1 0x0 DUP4 ADD DUP5 PUSH2 0x1950 JUMP JUMPDEST SWAP3 SWAP2 POP POP JUMP JUMPDEST PUSH1 0x0 PUSH1 0x20 DUP3 DUP5 SUB SLT ISZERO PUSH2 0x1990 JUMPI PUSH2 0x198F PUSH2 0x125E JUMP JUMPDEST JUMPDEST PUSH1 0x0 PUSH2 0x199E DUP5 DUP3 DUP6 ADD PUSH2 0x1890 JUMP JUMPDEST SWAP2 POP POP SWAP3 SWAP2 POP POP JUMP JUMPDEST PUSH1 0x0 DUP3 DUP3 MSTORE PUSH1 0x20 DUP3 ADD SWAP1 POP SWAP3 SWAP2 POP POP JUMP JUMPDEST PUSH32 0x67616D6520646F6573206E6F7420657869737400000000000000000000000000 PUSH1 0x0 DUP3 ADD MSTORE POP JUMP JUMPDEST PUSH1 0x0 PUSH2 0x19EE PUSH1 0x13 DUP4 PUSH2 0x19A7 JUMP JUMPDEST SWAP2 POP PUSH2 0x19F9 DUP3 PUSH2 0x19B8 JUMP JUMPDEST PUSH1 0x20 DUP3 ADD SWAP1 POP SWAP2 SWAP1 POP JUMP JUMPDEST PUSH1 0x0 PUSH1 0x20 DUP3 ADD SWAP1 POP DUP2 DUP2 SUB PUSH1 0x0 DUP4 ADD MSTORE PUSH2 0x1A1D DUP2 PUSH2 0x19E1 JUMP JUMPDEST SWAP1 POP SWAP2 SWAP1 POP JUMP JUMPDEST PUSH32 0x4E487B7100000000000000000000000000000000000000000000000000000000 PUSH1 0x0 MSTORE PUSH1 0x22 PUSH1 0x4 MSTORE PUSH1 0x24 PUSH1 0x0 REVERT JUMPDEST PUSH1 0x0 PUSH1 0x2 DUP3 DIV SWAP1 POP PUSH1 0x1 DUP3 AND DUP1 PUSH2 0x1A6B JUMPI PUSH1 0x7F DUP3 AND SWAP2 POP JUMPDEST PUSH1 0x20 DUP3 LT DUP2 SUB PUSH2 0x1A7E JUMPI PUSH2 0x1A7D PUSH2 0x1A24 JUMP JUMPDEST JUMPDEST POP SWAP2 SWAP1 POP JUMP JUMPDEST PUSH1 0x0 DUP2 SWAP1 POP DUP2 PUSH1 0x0 MSTORE PUSH1 0x20 PUSH1 0x0 KECCAK256 SWAP1 POP SWAP2 SWAP1 POP JUMP JUMPDEST PUSH1 0x0 PUSH1 0x20 PUSH1 0x1F DUP4 ADD DIV SWAP1 POP SWAP2 SWAP1 POP JUMP JUMPDEST PUSH1 0x0 DUP3 DUP3 SHL SWAP1 POP SWAP3 SWAP2 POP POP JUMP JUMPDEST PUSH1 0x0 PUSH1 0x8 DUP4 MUL PUSH2 0x1AE6 PUSH32 0xFFFFFFFFFFFFFFFFFFFFFFFFFFFFFFFFFFFFFFFFFFFFFFFFFFFFFFFFFFFFFFFF DUP3 PUSH2 0x1AA9 JUMP JUMPDEST PUSH2 0x1AF0 DUP7 DUP4 PUSH2 0x1AA9 JUMP JUMPDEST SWAP6 POP DUP1 NOT DUP5 AND SWAP4 POP DUP1 DUP7 AND DUP5 OR SWAP3 POP POP POP SWAP4 SWAP3 POP POP POP JUMP JUMPDEST PUSH1 0x0 PUSH2 0x1B23 PUSH2 0x1B1E PUSH2 0x1B19 DUP5 PUSH2 0x1268 JUMP JUMPDEST PUSH2 0x1900 JUMP JUMPDEST PUSH2 0x1268 JUMP JUMPDEST SWAP1 POP SWAP2 SWAP1 POP JUMP JUMPDEST PUSH1 0x0 DUP2 SWAP1 POP SWAP2 SWAP1 POP JUMP JUMPDEST PUSH2 0x1B3D DUP4 PUSH2 0x1B08 JUMP JUMPDEST PUSH2 0x1B51 PUSH2 0x1B49 DUP3 PUSH2 0x1B2A JUMP JUMPDEST DUP5 DUP5 SLOAD PUSH2 0x1AB6 JUMP JUMPDEST DUP3 SSTORE POP POP POP POP JUMP JUMPDEST PUSH1 0x0 SWAP1 JUMP JUMPDEST PUSH2 0x1B66 PUSH2 0x1B59 JUMP JUMPDEST PUSH2 0x1B71 DUP2 DUP5 DUP5 PUSH2 0x1B34 JUMP JUMPDEST POP POP POP JUMP JUMPDEST JUMPDEST DUP2 DUP2 LT ISZERO PUSH2 0x1B95 JUMPI PUSH2 0x1B8A PUSH1 0x0 DUP3 PUSH2 0x1B5E JUMP JUMPDEST PUSH1 0x1 DUP2 ADD SWAP1 POP PUSH2 0x1B77 JUMP JUMPDEST POP POP JUMP JUMPDEST PUSH1 0x1F DUP3 GT ISZERO PUSH2 0x1BDA JUMPI PUSH2 0x1BAB DUP2 PUSH2 0x1A84 JUMP JUMPDEST PUSH2 0x1BB4 DUP5 PUSH2 0x1A99 JUMP JUMPDEST DUP2 ADD PUSH1 0x20 DUP6 LT ISZERO PUSH2 0x1BC3 JUMPI DUP2 SWAP1 POP JUMPDEST PUSH2 0x1BD7 PUSH2 0x1BCF DUP6 PUSH2 0x1A99 JUMP JUMPDEST DUP4 ADD DUP3 PUSH2 0x1B76 JUMP JUMPDEST POP POP JUMPDEST POP POP POP JUMP JUMPDEST PUSH1 0x0 DUP3 DUP3 SHR SWAP1 POP SWAP3 SWAP2 POP POP JUMP JUMPDEST PUSH1 0x0 PUSH2 0x1BFD PUSH1 0x0 NOT DUP5 PUSH1 0x8 MUL PUSH2 0x1BDF JUMP JUMPDEST NOT DUP1 DUP4 AND SWAP2 POP POP SWAP3 SWAP2 POP POP JUMP JUMPDEST PUSH1 0x0 PUSH2 0x1C16 DUP4 DUP4 PUSH2 0x1BEC JUMP JUMPDEST SWAP2 POP DUP3 PUSH1 0x2 MUL DUP3 OR SWAP1 POP SWAP3 SWAP2 POP POP JUMP JUMPDEST PUSH2 0x1C2F DUP3 PUSH2 0x164D JUMP JUMPDEST PUSH8 0xFFFFFFFFFFFFFFFF DUP2 GT ISZERO PUSH2 0x1C48 JUMPI PUSH2 0x1C47 PUSH2 0x133A JUMP JUMPDEST JUMPDEST PUSH2 0x1C52 DUP3 SLOAD PUSH2 0x1A53 JUMP JUMPDEST PUSH2 0x1C5D DUP3 DUP3 DUP6 PUSH2 0x1B99 JUMP JUMPDEST PUSH1 0x0 PUSH1 0x20 SWAP1 POP PUSH1 0x1F DUP4 GT PUSH1 0x1 DUP2 EQ PUSH2 0x1C90 JUMPI PUSH1 0x0 DUP5 ISZERO PUSH2 0x1C7E JUMPI DUP3 DUP8 ADD MLOAD SWAP1 POP JUMPDEST PUSH2 0x1C88 DUP6 DUP3 PUSH2 0x1C0A JUMP JUMPDEST DUP7 SSTORE POP PUSH2 0x1CF0 JUMP JUMPDEST PUSH1 0x1F NOT DUP5 AND PUSH2 0x1C9E DUP7 PUSH2 0x1A84 JUMP JUMPDEST PUSH1 0x0 JUMPDEST DUP3 DUP2 LT ISZERO PUSH2 0x1CC6 JUMPI DUP5 DUP10 ADD MLOAD DUP3 SSTORE PUSH1 0x1 DUP3 ADD SWAP2 POP PUSH1 0x20 DUP6 ADD SWAP5 POP PUSH1 0x20 DUP2 ADD SWAP1 POP PUSH2 0x1CA1 JUMP JUMPDEST DUP7 DUP4 LT ISZERO PUSH2 0x1CE3 JUMPI DUP5 DUP10 ADD MLOAD PUSH2 0x1CDF PUSH1 0x1F DUP10 AND DUP3 PUSH2 0x1BEC JUMP JUMPDEST DUP4 SSTORE POP JUMPDEST PUSH1 0x1 PUSH1 0x2 DUP9 MUL ADD DUP9 SSTORE POP POP POP JUMPDEST POP POP POP POP POP POP JUMP JUMPDEST PUSH32 0x4E487B7100000000000000000000000000000000000000000000000000000000 PUSH1 0x0 MSTORE PUSH1 0x11 PUSH1 0x4 MSTORE PUSH1 0x24 PUSH1 0x0 REVERT JUMPDEST PUSH1 0x0 PUSH2 0x1D32 DUP3 PUSH2 0x1268 JUMP JUMPDEST SWAP2 POP PUSH32 0xFFFFFFFFFFFFFFFFFFFFFFFFFFFFFFFFFFFFFFFFFFFFFFFFFFFFFFFFFFFFFFFF DUP3 SUB PUSH2 0x1D64 JUMPI PUSH2 0x1D63 PUSH2 0x1CF8 JUMP JUMPDEST JUMPDEST PUSH1 0x1 DUP3 ADD SWAP1 POP SWAP2 SWAP1 POP JUMP JUMPDEST PUSH32 0x4E487B7100000000000000000000000000000000000000000000000000000000 PUSH1 0x0 MSTORE PUSH1 0x32 PUSH1 0x4 MSTORE PUSH1 0x24 PUSH1 0x0 REVERT JUMPDEST PUSH32 0x70726F6475637420646F6573206E6F7420657869737400000000000000000000 PUSH1 0x0 DUP3 ADD MSTORE POP JUMP JUMPDEST PUSH1 0x0 PUSH2 0x1DD4 PUSH1 0x16 DUP4 PUSH2 0x19A7 JUMP JUMPDEST SWAP2 POP PUSH2 0x1DDF DUP3 PUSH2 0x1D9E JUMP JUMPDEST PUSH1 0x20 DUP3 ADD SWAP1 POP SWAP2 SWAP1 POP JUMP JUMPDEST PUSH1 0x0 PUSH1 0x20 DUP3 ADD SWAP1 POP DUP2 DUP2 SUB PUSH1 0x0 DUP4 ADD MSTORE PUSH2 0x1E03 DUP2 PUSH2 0x1DC7 JUMP JUMPDEST SWAP1 POP SWAP2 SWAP1 POP JUMP JUMPDEST PUSH1 0x0 PUSH2 0x1E15 DUP3 PUSH2 0x1268 JUMP JUMPDEST SWAP2 POP PUSH2 0x1E20 DUP4 PUSH2 0x1268 JUMP JUMPDEST SWAP3 POP DUP3 DUP3 ADD SWAP1 POP DUP1 DUP3 GT ISZERO PUSH2 0x1E38 JUMPI PUSH2 0x1E37 PUSH2 0x1CF8 JUMP JUMPDEST JUMPDEST SWAP3 SWAP2 POP POP JUMP JUMPDEST PUSH1 0x0 PUSH1 0x60 DUP3 ADD SWAP1 POP PUSH2 0x1E53 PUSH1 0x0 DUP4 ADD DUP7 PUSH2 0x15E8 JUMP JUMPDEST PUSH2 0x1E60 PUSH1 0x20 DUP4 ADD DUP6 PUSH2 0x15E8 JUMP JUMPDEST PUSH2 0x1E6D PUSH1 0x40 DUP4 ADD DUP5 PUSH2 0x12CB JUMP JUMPDEST SWAP5 SWAP4 POP POP POP POP JUMP JUMPDEST PUSH2 0x1E7E DUP2 PUSH2 0x16CC JUMP JUMPDEST DUP2 EQ PUSH2 0x1E89 JUMPI PUSH1 0x0 DUP1 REVERT JUMPDEST POP JUMP JUMPDEST PUSH1 0x0 DUP2 MLOAD SWAP1 POP PUSH2 0x1E9B DUP2 PUSH2 0x1E75 JUMP JUMPDEST SWAP3 SWAP2 POP POP JUMP JUMPDEST PUSH1 0x0 PUSH1 0x20 DUP3 DUP5 SUB SLT ISZERO PUSH2 0x1EB7 JUMPI PUSH2 0x1EB6 PUSH2 0x125E JUMP JUMPDEST JUMPDEST PUSH1 0x0 PUSH2 0x1EC5 DUP5 DUP3 DUP6 ADD PUSH2 0x1E8C JUMP JUMPDEST SWAP2 POP POP SWAP3 SWAP2 POP POP JUMP JUMPDEST PUSH1 0x0 PUSH1 0x40 DUP3 ADD SWAP1 POP PUSH2 0x1EE3 PUSH1 0x0 DUP4 ADD DUP6 PUSH2 0x15E8 JUMP JUMPDEST PUSH2 0x1EF0 PUSH1 0x20 DUP4 ADD DUP5 PUSH2 0x12CB JUMP JUMPDEST SWAP4 SWAP3 POP POP POP JUMP JUMPDEST PUSH32 0x70726F6475637420696E2073746F726500000000000000000000000000000000 PUSH1 0x0 DUP3 ADD MSTORE POP JUMP JUMPDEST PUSH1 0x0 PUSH2 0x1F2D PUSH1 0x10 DUP4 PUSH2 0x19A7 JUMP JUMPDEST SWAP2 POP PUSH2 0x1F38 DUP3 PUSH2 0x1EF7 JUMP JUMPDEST PUSH1 0x20 DUP3 ADD SWAP1 POP SWAP2 SWAP1 POP JUMP JUMPDEST PUSH1 0x0 PUSH1 0x20 DUP3 ADD SWAP1 POP DUP2 DUP2 SUB PUSH1 0x0 DUP4 ADD MSTORE PUSH2 0x1F5C DUP2 PUSH2 0x1F20 JUMP JUMPDEST SWAP1 POP SWAP2 SWAP1 POP JUMP JUMPDEST PUSH32 0x67616D65206E6F7420656E646564000000000000000000000000000000000000 PUSH1 0x0 DUP3 ADD MSTORE POP JUMP JUMPDEST PUSH1 0x0 PUSH2 0x1F99 PUSH1 0xE DUP4 PUSH2 0x19A7 JUMP JUMPDEST SWAP2 POP PUSH2 0x1FA4 DUP3 PUSH2 0x1F63 JUMP JUMPDEST PUSH1 0x20 DUP3 ADD SWAP1 POP SWAP2 SWAP1 POP JUMP JUMPDEST PUSH1 0x0 PUSH1 0x20 DUP3 ADD SWAP1 POP DUP2 DUP2 SUB PUSH1 0x0 DUP4 ADD MSTORE PUSH2 0x1FC8 DUP2 PUSH2 0x1F8C JUMP JUMPDEST SWAP1 POP SWAP2 SWAP1 POP JUMP JUMPDEST PUSH32 0x70726F64756374206E6F7420696E2073746F7265000000000000000000000000 PUSH1 0x0 DUP3 ADD MSTORE POP JUMP JUMPDEST PUSH1 0x0 PUSH2 0x2005 PUSH1 0x14 DUP4 PUSH2 0x19A7 JUMP JUMPDEST SWAP2 POP PUSH2 0x2010 DUP3 PUSH2 0x1FCF JUMP JUMPDEST PUSH1 0x20 DUP3 ADD SWAP1 POP SWAP2 SWAP1 POP JUMP JUMPDEST PUSH1 0x0 PUSH1 0x20 DUP3 ADD SWAP1 POP DUP2 DUP2 SUB PUSH1 0x0 DUP4 ADD MSTORE PUSH2 0x2034 DUP2 PUSH2 0x1FF8 JUMP JUMPDEST SWAP1 POP SWAP2 SWAP1 POP JUMP JUMPDEST PUSH32 0x6E6F206465706F73697400000000000000000000000000000000000000000000 PUSH1 0x0 DUP3 ADD MSTORE POP JUMP JUMPDEST PUSH1 0x0 PUSH2 0x2071 PUSH1 0xA DUP4 PUSH2 0x19A7 JUMP JUMPDEST SWAP2 POP PUSH2 0x207C DUP3 PUSH2 0x203B JUMP JUMPDEST PUSH1 0x20 DUP3 ADD SWAP1 POP SWAP2 SWAP1 POP JUMP JUMPDEST PUSH1 0x0 PUSH1 0x20 DUP3 ADD SWAP1 POP DUP2 DUP2 SUB PUSH1 0x0 DUP4 ADD MSTORE PUSH2 0x20A0 DUP2 PUSH2 0x2064 JUMP JUMPDEST SWAP1 POP SWAP2 SWAP1 POP JUMP JUMPDEST PUSH1 0x0 PUSH2 0x20B2 DUP3 PUSH2 0x1268 JUMP JUMPDEST SWAP2 POP PUSH2 0x20BD DUP4 PUSH2 0x1268 JUMP JUMPDEST SWAP3 POP DUP3 DUP3 MUL PUSH2 0x20CB DUP2 PUSH2 0x1268 JUMP JUMPDEST SWAP2 POP DUP3 DUP3 DIV DUP5 EQ DUP4 ISZERO OR PUSH2 0x20E2 JUMPI PUSH2 0x20E1 PUSH2 0x1CF8 JUMP JUMPDEST JUMPDEST POP SWAP3 SWAP2 POP POP JUMP JUMPDEST PUSH32 0x4E487B7100000000000000000000000000000000000000000000000000000000 PUSH1 0x0 MSTORE PUSH1 0x12 PUSH1 0x4 MSTORE PUSH1 0x24 PUSH1 0x0 REVERT JUMPDEST PUSH1 0x0 PUSH2 0x2123 DUP3 PUSH2 0x1268 JUMP JUMPDEST SWAP2 POP PUSH2 0x212E DUP4 PUSH2 0x1268 JUMP JUMPDEST SWAP3 POP DUP3 PUSH2 0x213E JUMPI PUSH2 0x213D PUSH2 0x20E9 JUMP JUMPDEST JUMPDEST DUP3 DUP3 DIV SWAP1 POP SWAP3 SWAP2 POP POP JUMP JUMPDEST PUSH32 0x4F776E61626C653A206E6577206F776E657220697320746865207A65726F2061 PUSH1 0x0 DUP3 ADD MSTORE PUSH32 0x6464726573730000000000000000000000000000000000000000000000000000 PUSH1 0x20 DUP3 ADD MSTORE POP JUMP JUMPDEST PUSH1 0x0 PUSH2 0x21A5 PUSH1 0x26 DUP4 PUSH2 0x19A7 JUMP JUMPDEST SWAP2 POP PUSH2 0x21B0 DUP3 PUSH2 0x2149 JUMP JUMPDEST PUSH1 0x40 DUP3 ADD SWAP1 POP SWAP2 SWAP1 POP JUMP JUMPDEST PUSH1 0x0 PUSH1 0x20 DUP3 ADD SWAP1 POP DUP2 DUP2 SUB PUSH1 0x0 DUP4 ADD MSTORE PUSH2 0x21D4 DUP2 PUSH2 0x2198 JUMP JUMPDEST SWAP1 POP SWAP2 SWAP1 POP JUMP JUMPDEST PUSH32 0x70726F6475637420616C726561647920696E206D65682E73746F726500000000 PUSH1 0x0 DUP3 ADD MSTORE POP JUMP JUMPDEST PUSH1 0x0 PUSH2 0x2211 PUSH1 0x1C DUP4 PUSH2 0x19A7 JUMP JUMPDEST SWAP2 POP PUSH2 0x221C DUP3 PUSH2 0x21DB JUMP JUMPDEST PUSH1 0x20 DUP3 ADD SWAP1 POP SWAP2 SWAP1 POP JUMP JUMPDEST PUSH1 0x0 PUSH1 0x20 DUP3 ADD SWAP1 POP DUP2 DUP2 SUB PUSH1 0x0 DUP4 ADD MSTORE PUSH2 0x2240 DUP2 PUSH2 0x2204 JUMP JUMPDEST SWAP1 POP SWAP2 SWAP1 POP JUMP JUMPDEST PUSH32 0x746F6F206D616E7920636F6E7472616374730000000000000000000000000000 PUSH1 0x0 DUP3 ADD MSTORE POP JUMP JUMPDEST PUSH1 0x0 PUSH2 0x227D PUSH1 0x12 DUP4 PUSH2 0x19A7 JUMP JUMPDEST SWAP2 POP PUSH2 0x2288 DUP3 PUSH2 0x2247 JUMP JUMPDEST PUSH1 0x20 DUP3 ADD SWAP1 POP SWAP2 SWAP1 POP JUMP JUMPDEST PUSH1 0x0 PUSH1 0x20 DUP3 ADD SWAP1 POP DUP2 DUP2 SUB PUSH1 0x0 DUP4 ADD MSTORE PUSH2 0x22AC DUP2 PUSH2 0x2270 JUMP JUMPDEST SWAP1 POP SWAP2 SWAP1 POP JUMP JUMPDEST PUSH1 0x0 DUP2 SLOAD PUSH2 0x22C0 DUP2 PUSH2 0x1A53 JUMP JUMPDEST PUSH2 0x22CA DUP2 DUP7 PUSH2 0x19A7 JUMP JUMPDEST SWAP5 POP PUSH1 0x1 DUP3 AND PUSH1 0x0 DUP2 EQ PUSH2 0x22E5 JUMPI PUSH1 0x1 DUP2 EQ PUSH2 0x22FB JUMPI PUSH2 0x232E JUMP JUMPDEST PUSH1 0xFF NOT DUP4 AND DUP7 MSTORE DUP2 ISZERO ISZERO PUSH1 0x20 MUL DUP7 ADD SWAP4 POP PUSH2 0x232E JUMP JUMPDEST PUSH2 0x2304 DUP6 PUSH2 0x1A84 JUMP JUMPDEST PUSH1 0x0 JUMPDEST DUP4 DUP2 LT ISZERO PUSH2 0x2326 JUMPI DUP2 SLOAD DUP2 DUP10 ADD MSTORE PUSH1 0x1 DUP3 ADD SWAP2 POP PUSH1 0x20 DUP2 ADD SWAP1 POP PUSH2 0x2307 JUMP JUMPDEST DUP1 DUP9 ADD SWAP6 POP POP POP JUMPDEST POP POP POP SWAP3 SWAP2 POP POP JUMP JUMPDEST PUSH1 0x0 PUSH2 0x2342 DUP3 PUSH2 0x164D JUMP JUMPDEST PUSH2 0x234C DUP2 DUP6 PUSH2 0x19A7 JUMP JUMPDEST SWAP4 POP PUSH2 0x235C DUP2 DUP6 PUSH1 0x20 DUP7 ADD PUSH2 0x1669 JUMP JUMPDEST PUSH2 0x2365 DUP2 PUSH2 0x1329 JUMP JUMPDEST DUP5 ADD SWAP2 POP POP SWAP3 SWAP2 POP POP JUMP JUMPDEST PUSH1 0x0 PUSH1 0x80 DUP3 ADD SWAP1 POP PUSH2 0x2385 PUSH1 0x0 DUP4 ADD DUP8 PUSH2 0x12CB JUMP JUMPDEST DUP2 DUP2 SUB PUSH1 0x20 DUP4 ADD MSTORE PUSH2 0x2397 DUP2 DUP7 PUSH2 0x22B3 JUMP JUMPDEST SWAP1 POP DUP2 DUP2 SUB PUSH1 0x40 DUP4 ADD MSTORE PUSH2 0x23AB DUP2 DUP6 PUSH2 0x2337 JUMP JUMPDEST SWAP1 POP PUSH2 0x23BA PUSH1 0x60 DUP4 ADD DUP5 PUSH2 0x12CB JUMP JUMPDEST SWAP6 SWAP5 POP POP POP POP POP JUMP JUMPDEST PUSH32 0x4F776E61626C653A2063616C6C6572206973206E6F7420746865206F776E6572 PUSH1 0x0 DUP3 ADD MSTORE POP JUMP JUMPDEST PUSH1 0x0 PUSH2 0x23F9 PUSH1 0x20 DUP4 PUSH2 0x19A7 JUMP JUMPDEST SWAP2 POP PUSH2 0x2404 DUP3 PUSH2 0x23C3 JUMP JUMPDEST PUSH1 0x20 DUP3 ADD SWAP1 POP SWAP2 SWAP1 POP JUMP JUMPDEST PUSH1 0x0 PUSH1 0x20 DUP3 ADD SWAP1 POP DUP2 DUP2 SUB PUSH1 0x0 DUP4 ADD MSTORE PUSH2 0x2428 DUP2 PUSH2 0x23EC JUMP JUMPDEST SWAP1 POP SWAP2 SWAP1 POP JUMP JUMPDEST PUSH32 0x5265656E7472616E637947756172643A207265656E7472616E742063616C6C00 PUSH1 0x0 DUP3 ADD MSTORE POP JUMP JUMPDEST PUSH1 0x0 PUSH2 0x2465 PUSH1 0x1F DUP4 PUSH2 0x19A7 JUMP JUMPDEST SWAP2 POP PUSH2 0x2470 DUP3 PUSH2 0x242F JUMP JUMPDEST PUSH1 0x20 DUP3 ADD SWAP1 POP SWAP2 SWAP1 POP JUMP JUMPDEST PUSH1 0x0 PUSH1 0x20 DUP3 ADD SWAP1 POP DUP2 DUP2 SUB PUSH1 0x0 DUP4 ADD MSTORE PUSH2 0x2494 DUP2 PUSH2 0x2458 JUMP JUMPDEST SWAP1 POP SWAP2 SWAP1 POP JUMP INVALID LOG2 PUSH5 0x6970667358 0x22 SLT KECCAK256 PUSH10 0xB9C581020EC3926BDED4 0xD5 0xDA CALLDATACOPY PUSH22 0xF7F5ADD1959F3359AE049F4D9DCDDA006064736F6C63 NUMBER STOP ADDMOD XOR STOP CALLER "},"methodIdentifiers":{"addProductToGame(uint256,string,uint256,uint256,uint256,uint256,uint256)":"2849625d","burnLoserPrizeMeh(uint256,uint256)":"8c5b883d","claim(uint256,uint256)":"c3490263","createGame(uint256,uint256)":"60104cef","depositMeh(uint256,uint256,uint256)":"f38bee18","depositMehStore(uint256)":"76f7b500","depositPrizeMeh(uint256,uint256,uint256)":"53f8c483","deposits(address,uint256)":"d6d68177","games(uint256)":"117a5b90","getProductsByGameId(uint256)":"c7b56842","mehToken()":"e2c2c884","owner()":"8da5cb5b","renounceOwnership()":"715018a6","transferOwnership(address)":"f2fde38b"}},"storageLayout":{"storage":[{"astId":7,"contract":"contracts/MehVoteV1.sol:MehVoteV1","label":"_owner","offset":0,"slot":"0","type":"t_address"},{"astId":123,"contract":"contracts/MehVoteV1.sol:MehVoteV1","label":"_status","offset":0,"slot":"1","type":"t_uint256"},{"astId":387,"contract":"contracts/MehVoteV1.sol:MehVoteV1","label":"gameIdCounter","offset":0,"slot":"2","type":"t_struct(Counter)291_storage"},{"astId":390,"contract":"contracts/MehVoteV1.sol:MehVoteV1","label":"productIdCounter","offset":0,"slot":"3","type":"t_struct(Counter)291_storage"},{"astId":439,"contract":"contracts/MehVoteV1.sol:MehVoteV1","label":"games","offset":0,"slot":"4","type":"t_mapping(t_uint256,t_struct(Game)403_storage)"},{"astId":445,"contract":"contracts/MehVoteV1.sol:MehVoteV1","label":"deposits","offset":0,"slot":"5","type":"t_mapping(t_address,t_mapping(t_uint256,t_uint256))"}],"types":{"t_address":{"encoding":"inplace","label":"address","numberOfBytes":"20"},"t_array(t_struct(Product)424_storage)dyn_storage":{"base":"t_struct(Product)424_storage","encoding":"dynamic_array","label":"struct MehVoteV1.Product[]","numberOfBytes":"32"},"t_bool":{"encoding":"inplace","label":"bool","numberOfBytes":"1"},"t_mapping(t_address,t_mapping(t_uint256,t_uint256))":{"encoding":"mapping","key":"t_address","label":"mapping(address => mapping(uint256 => uint256))","numberOfBytes":"32","value":"t_mapping(t_uint256,t_uint256)"},"t_mapping(t_uint256,t_struct(Game)403_storage)":{"encoding":"mapping","key":"t_uint256","label":"mapping(uint256 => struct MehVoteV1.Game)","numberOfBytes":"32","value":"t_struct(Game)403_storage"},"t_mapping(t_uint256,t_uint256)":{"encoding":"mapping","key":"t_uint256","label":"mapping(uint256 => uint256)","numberOfBytes":"32","value":"t_uint256"},"t_string_storage":{"encoding":"bytes","label":"string","numberOfBytes":"32"},"t_struct(Counter)291_storage":{"encoding":"inplace","label":"struct Counters.Counter","members":[{"astId":290,"contract":"contracts/MehVoteV1.sol:MehVoteV1","label":"_value","offset":0,"slot":"0","type":"t_uint256"}],"numberOfBytes":"32"},"t_struct(Game)403_storage":{"encoding":"inplace","label":"struct MehVoteV1.Game","members":[{"astId":392,"contract":"contracts/MehVoteV1.sol:MehVoteV1","label":"id","offset":0,"slot":"0","type":"t_uint256"},{"astId":394,"contract":"contracts/MehVoteV1.sol:MehVoteV1","label":"begin","offset":0,"slot":"1","type":"t_uint256"},{"astId":396,"contract":"contracts/MehVoteV1.sol:MehVoteV1","label":"end","offset":0,"slot":"2","type":"t_uint256"},{"astId":400,"contract":"contracts/MehVoteV1.sol:MehVoteV1","label":"products","offset":0,"slot":"3","type":"t_array(t_struct(Product)424_storage)dyn_storage"},{"astId":402,"contract":"contracts/MehVoteV1.sol:MehVoteV1","label":"numProducts","offset":0,"slot":"4","type":"t_uint256"}],"numberOfBytes":"160"},"t_struct(Product)424_storage":{"encoding":"inplace","label":"struct MehVoteV1.Product","members":[{"astId":405,"contract":"contracts/MehVoteV1.sol:MehVoteV1","label":"id","offset":0,"slot":"0","type":"t_uint256"},{"astId":407,"contract":"contracts/MehVoteV1.sol:MehVoteV1","label":"name","offset":0,"slot":"1","type":"t_string_storage"},{"astId":409,"contract":"contracts/MehVoteV1.sol:MehVoteV1","label":"mehContractsDeposited","offset":0,"slot":"2","type":"t_uint256"},{"astId":411,"contract":"contracts/MehVoteV1.sol:MehVoteV1","label":"mehContracts","offset":0,"slot":"3","type":"t_uint256"},{"astId":413,"contract":"contracts/MehVoteV1.sol:MehVoteV1","label":"mehContractPrice","offset":0,"slot":"4","type":"t_uint256"},{"astId":415,"contract":"contracts/MehVoteV1.sol:MehVoteV1","label":"prizeMeh","offset":0,"slot":"5","type":"t_uint256"},{"astId":417,"contract":"contracts/MehVoteV1.sol:MehVoteV1","label":"mehStore","offset":0,"slot":"6","type":"t_bool"},{"astId":419,"contract":"contracts/MehVoteV1.sol:MehVoteV1","label":"begin","offset":0,"slot":"7","type":"t_uint256"},{"astId":421,"contract":"contracts/MehVoteV1.sol:MehVoteV1","label":"end","offset":0,"slot":"8","type":"t_uint256"},{"astId":423,"contract":"contracts/MehVoteV1.sol:MehVoteV1","label":"royaltyBase","offset":0,"slot":"9","type":"t_uint256"}],"numberOfBytes":"320"},"t_uint256":{"encoding":"inplace","label":"uint256","numberOfBytes":"32"}}}}}}