{"contracts/MehVoteV1.sol":{"MehVoteV1":{"abi":[{"inputs":[{"internalType":"contract IERC20","name":"_mehToken","type":"address"},{"internalType":"contract IRoyalty","name":"_royalties","type":"address"}],"stateMutability":"nonpayable","type":"constructor"},{"anonymous":false,"inputs":[{"indexed":false,"internalType":"uint256","name":"productId","type":"uint256"},{"indexed":false,"internalType":"string","name":"productName","type":"string"},{"indexed":false,"internalType":"string","name":"allocatorMerkleRoot","type":"string"},{"indexed":false,"internalType":"uint256","name":"totalContracts","type":"uint256"}],"name":"MehStore","type":"event"},{"anonymous":false,"inputs":[{"indexed":true,"internalType":"address","name":"previousOwner","type":"address"},{"indexed":true,"internalType":"address","name":"newOwner","type":"address"}],"name":"OwnershipTransferred","type":"event"},{"inputs":[{"internalType":"uint256","name":"_gameId","type":"uint256"},{"internalType":"string","name":"_name","type":"string"},{"internalType":"uint256","name":"_mehContracts","type":"uint256"},{"internalType":"uint256","name":"_mehContractPrice","type":"uint256"},{"internalType":"uint256","name":"_begin","type":"uint256"},{"internalType":"uint256","name":"_end","type":"uint256"},{"internalType":"uint256","name":"_totalContracts","type":"uint256"},{"internalType":"bool","name":"_limitedRun","type":"bool"},{"internalType":"uint256","name":"_prizeMeh","type":"uint256"}],"name":"addProductToGame","outputs":[],"stateMutability":"nonpayable","type":"function"},{"inputs":[{"internalType":"uint256","name":"_gameId","type":"uint256"},{"internalType":"uint256","name":"_productId","type":"uint256"}],"name":"claim","outputs":[],"stateMutability":"nonpayable","type":"function"},{"inputs":[{"internalType":"uint256","name":"_begin","type":"uint256"},{"internalType":"uint256","name":"_end","type":"uint256"}],"name":"createGame","outputs":[],"stateMutability":"nonpayable","type":"function"},{"inputs":[{"internalType":"uint256","name":"_gameId","type":"uint256"},{"internalType":"uint256","name":"_productId","type":"uint256"},{"internalType":"uint256","name":"_numContracts","type":"uint256"}],"name":"depositMeh","outputs":[],"stateMutability":"nonpayable","type":"function"},{"inputs":[{"internalType":"uint256","name":"_amount","type":"uint256"}],"name":"depositMehStore","outputs":[],"stateMutability":"nonpayable","type":"function"},{"inputs":[{"internalType":"address","name":"","type":"address"},{"internalType":"uint256","name":"","type":"uint256"}],"name":"deposits","outputs":[{"internalType":"uint256","name":"","type":"uint256"}],"stateMutability":"view","type":"function"},{"inputs":[{"internalType":"uint256","name":"","type":"uint256"}],"name":"games","outputs":[{"internalType":"uint256","name":"id","type":"uint256"},{"internalType":"uint256","name":"begin","type":"uint256"},{"internalType":"uint256","name":"end","type":"uint256"},{"internalType":"uint256","name":"numProducts","type":"uint256"}],"stateMutability":"view","type":"function"},{"inputs":[{"internalType":"uint256","name":"gameId","type":"uint256"}],"name":"getProductsByGameId","outputs":[{"components":[{"internalType":"uint256","name":"id","type":"uint256"},{"internalType":"string","name":"name","type":"string"},{"internalType":"uint256","name":"mehContractsDeposited","type":"uint256"},{"internalType":"uint256","name":"mehContracts","type":"uint256"},{"internalType":"uint256","name":"mehContractPrice","type":"uint256"},{"internalType":"uint256","name":"prizeMeh","type":"uint256"},{"internalType":"bool","name":"mehStore","type":"bool"},{"internalType":"uint256","name":"begin","type":"uint256"},{"internalType":"uint256","name":"end","type":"uint256"},{"internalType":"uint256","name":"totalContracts","type":"uint256"},{"internalType":"bool","name":"limitedRun","type":"bool"}],"internalType":"struct MehVoteV1.Product[]","name":"","type":"tuple[]"}],"stateMutability":"view","type":"function"},{"inputs":[],"name":"mehToken","outputs":[{"internalType":"contract IERC20","name":"","type":"address"}],"stateMutability":"view","type":"function"},{"inputs":[],"name":"owner","outputs":[{"internalType":"address","name":"","type":"address"}],"stateMutability":"view","type":"function"},{"inputs":[],"name":"renounceOwnership","outputs":[],"stateMutability":"nonpayable","type":"function"},{"inputs":[],"name":"royalties","outputs":[{"internalType":"contract IRoyalty","name":"","type":"address"}],"stateMutability":"view","type":"function"},{"inputs":[{"internalType":"address","name":"newOwner","type":"address"}],"name":"transferOwnership","outputs":[],"stateMutability":"nonpayable","type":"function"}],"evm":{"bytecode":{"linkReferences":{},"object":"60c06040523480156200001157600080fd5b506040516200284838038062002848833981810160405281019062000037919062000297565b620000576200004b620000f260201b60201c565b620000fa60201b60201c565b600180819055508173ffffffffffffffffffffffffffffffffffffffff1660808173ffffffffffffffffffffffffffffffffffffffff16815250508073ffffffffffffffffffffffffffffffffffffffff1660a08173ffffffffffffffffffffffffffffffffffffffff1681525050620000d86002620001be60201b60201c565b620000ea6003620001be60201b60201c565b5050620002de565b600033905090565b60008060009054906101000a900473ffffffffffffffffffffffffffffffffffffffff169050816000806101000a81548173ffffffffffffffffffffffffffffffffffffffff021916908373ffffffffffffffffffffffffffffffffffffffff1602179055508173ffffffffffffffffffffffffffffffffffffffff168173ffffffffffffffffffffffffffffffffffffffff167f8be0079c531659141344cd1fd0a4f28419497f9722a3daafe3b4186f6b6457e060405160405180910390a35050565b6001816000016000828254019250508190555050565b600080fd5b600073ffffffffffffffffffffffffffffffffffffffff82169050919050565b60006200020682620001d9565b9050919050565b60006200021a82620001f9565b9050919050565b6200022c816200020d565b81146200023857600080fd5b50565b6000815190506200024c8162000221565b92915050565b60006200025f82620001f9565b9050919050565b620002718162000252565b81146200027d57600080fd5b50565b600081519050620002918162000266565b92915050565b60008060408385031215620002b157620002b0620001d4565b5b6000620002c1858286016200023b565b9250506020620002d48582860162000280565b9150509250929050565b60805160a05161252f620003196000396000818161079b0152610ac80152600081816104ee01528181610aa40152610dc5015261252f6000f3fe608060405234801561001057600080fd5b50600436106100cf5760003560e01c8063c34902631161008c578063e2c2c88411610066578063e2c2c884146101ff578063f053dc5c1461021d578063f2fde38b1461023b578063f38bee1814610257576100cf565b8063c349026314610183578063c7b568421461019f578063d6d68177146101cf576100cf565b8063117a5b90146100d457806348edf1bb1461010757806360104cef14610123578063715018a61461013f57806376f7b500146101495780638da5cb5b14610165575b600080fd5b6100ee60048036038101906100e99190611196565b610273565b6040516100fe94939291906111d2565b60405180910390f35b610121600480360381019061011c9190611395565b6102a3565b005b61013d6004803603810190610138919061147b565b610478565b005b6101476104d0565b005b610163600480360381019061015e9190611196565b6104e4565b005b61016d610595565b60405161017a91906114fc565b60405180910390f35b61019d6004803603810190610198919061147b565b6105be565b005b6101b960048036038101906101b49190611196565b6108ef565b6040516101c69190611765565b60405180910390f35b6101e960048036038101906101e491906117b3565b610a7d565b6040516101f691906117f3565b60405180910390f35b610207610aa2565b604051610214919061186d565b60405180910390f35b610225610ac6565b60405161023291906118a9565b60405180910390f35b610255600480360381019061025091906118c4565b610aea565b005b610271600480360381019061026c91906118f1565b610b6d565b005b60046020528060005260406000206000915090508060000154908060010154908060020154908060040154905084565b6102ab610f86565b6000600460008b815260200190815260200160002090506000816000015403610309576040517f08c379a0000000000000000000000000000000000000000000000000000000008152600401610300906119a1565b60405180910390fd5b60006103156003611004565b905060006040518061016001604052808381526020018c8152602001600081526020018b81526020018a81526020018581526020016000151581526020018981526020018881526020018781526020018615158152509050826003018190806001815401808255809150506001900390600052602060002090600b02016000909190919091506000820151816000015560208201518160010190816103ba9190611bc3565b5060408201518160020155606082015181600301556080820151816004015560a0820151816005015560c08201518160060160006101000a81548160ff02191690831515021790555060e082015181600701556101008201518160080155610120820151816009015561014082015181600a0160006101000a81548160ff021916908315150217905550505082600401600081548092919061045b90611cc4565b919050555061046a6003611012565b505050505050505050505050565b610480610f86565b600061048c6002611004565b905060006004600083815260200190815260200160002090508181600001819055508381600101819055508281600201819055506104ca6002611012565b50505050565b6104d8610f86565b6104e26000611028565b565b6104ec610f86565b7f000000000000000000000000000000000000000000000000000000000000000073ffffffffffffffffffffffffffffffffffffffff1663a9059cbb610530610595565b836040518363ffffffff1660e01b815260040161054e929190611d0c565b6020604051808303816000875af115801561056d573d6000803e3d6000fd5b505050506040513d601f19601f820116820180604052508101906105919190611d4a565b5050565b60008060009054906101000a900473ffffffffffffffffffffffffffffffffffffffff16905090565b6105c66110ec565b600060046000848152602001908152602001600020905060005b81600301805490508110156108a7578282600301828154811061060657610605611d77565b5b90600052602060002090600b0201600001540361089a57600082600301828154811061063557610634611d77565b5b90600052602060002090600b020190504281600801541061068b576040517f08c379a000000000000000000000000000000000000000000000000000000000815260040161068290611df2565b60405180910390fd5b8060060160009054906101000a900460ff166106dc576040517f08c379a00000000000000000000000000000000000000000000000000000000081526004016106d390611e5e565b60405180910390fd5b6000600560003373ffffffffffffffffffffffffffffffffffffffff1673ffffffffffffffffffffffffffffffffffffffff168152602001908152602001600020600086815260200190815260200160002054905060008111610774576040517f08c379a000000000000000000000000000000000000000000000000000000000815260040161076b90611eca565b60405180910390fd5b8160060160009054906101000a900460ff161561083b576000600190505b818111610839577f000000000000000000000000000000000000000000000000000000000000000073ffffffffffffffffffffffffffffffffffffffff166394bf804d87336040518363ffffffff1660e01b81526004016107f4929190611eea565b600060405180830381600087803b15801561080e57600080fd5b505af1158015610822573d6000803e3d6000fd5b50505050808061083190611cc4565b915050610792565b505b6000600560003373ffffffffffffffffffffffffffffffffffffffff1673ffffffffffffffffffffffffffffffffffffffff168152602001908152602001600020600087815260200190815260200160002081905550505050506108e3565b80806001019150506105e0565b506040517f08c379a00000000000000000000000000000000000000000000000000000000081526004016108da90611f5f565b60405180910390fd5b6108eb61113b565b5050565b606060046000838152602001908152602001600020600301805480602002602001604051908101604052809291908181526020016000905b82821015610a7257838290600052602060002090600b02016040518061016001604052908160008201548152602001600182018054610965906119f0565b80601f0160208091040260200160405190810160405280929190818152602001828054610991906119f0565b80156109de5780601f106109b3576101008083540402835291602001916109de565b820191906000526020600020905b8154815290600101906020018083116109c157829003601f168201915b50505050508152602001600282015481526020016003820154815260200160048201548152602001600582015481526020016006820160009054906101000a900460ff16151515158152602001600782015481526020016008820154815260200160098201548152602001600a820160009054906101000a900460ff16151515158152505081526020019060010190610927565b505050509050919050565b6005602052816000526040600020602052806000526040600020600091509150505481565b7f000000000000000000000000000000000000000000000000000000000000000081565b7f000000000000000000000000000000000000000000000000000000000000000081565b610af2610f86565b600073ffffffffffffffffffffffffffffffffffffffff168173ffffffffffffffffffffffffffffffffffffffff1603610b61576040517f08c379a0000000000000000000000000000000000000000000000000000000008152600401610b5890611ff1565b60405180910390fd5b610b6a81611028565b50565b610b756110ec565b60006004600085815260200190815260200160002090506000806000905060005b8360030180549050811015610f355785846003018281548110610bbc57610bbb611d77565b5b90600052602060002090600b02016000015403610f2857836003018181548110610be957610be8611d77565b5b90600052602060002090600b020192508260060160009054906101000a900460ff1615610c4b576040517f08c379a0000000000000000000000000000000000000000000000000000000008152600401610c4290612083565b60405180910390fd5b8260030154858460020154610c6091906120a3565b1115610ca1576040517f08c379a0000000000000000000000000000000000000000000000000000000008152600401610c9890612123565b60405180910390fd5b82600701544211610ce7576040517f08c379a0000000000000000000000000000000000000000000000000000000008152600401610cde9061218f565b60405180910390fd5b82600801544210610d2d576040517f08c379a0000000000000000000000000000000000000000000000000000000008152600401610d249061218f565b60405180910390fd5b6000836004015486610d3f91906121af565b905085600560003373ffffffffffffffffffffffffffffffffffffffff1673ffffffffffffffffffffffffffffffffffffffff16815260200190815260200160002060008981526020019081526020016000206000828254610da191906120a3565b9250508190555085846002016000828254610dbc91906120a3565b925050819055507f000000000000000000000000000000000000000000000000000000000000000073ffffffffffffffffffffffffffffffffffffffff166323b872dd3330846040518463ffffffff1660e01b8152600401610e20939291906121f1565b6020604051808303816000875af1158015610e3f573d6000803e3d6000fd5b505050506040513d601f19601f82011682018060405250810190610e639190611d4a565b610ea2576040517f08c379a0000000000000000000000000000000000000000000000000000000008152600401610e9990612274565b60405180910390fd5b600192508360030154846002015403610f225760018460060160006101000a81548160ff0219169083151502179055504284600801819055507f48bdd33bb928f44a7b0b890963d9afe34abf223c0de29e0174cd429d9ac0c18a8460000154856001018660090154604051610f1993929190612364565b60405180910390a15b50610f35565b8080600101915050610b96565b5080610f76576040517f08c379a0000000000000000000000000000000000000000000000000000000008152600401610f6d90612401565b60405180910390fd5b505050610f8161113b565b505050565b610f8e611144565b73ffffffffffffffffffffffffffffffffffffffff16610fac610595565b73ffffffffffffffffffffffffffffffffffffffff1614611002576040517f08c379a0000000000000000000000000000000000000000000000000000000008152600401610ff99061246d565b60405180910390fd5b565b600081600001549050919050565b6001816000016000828254019250508190555050565b60008060009054906101000a900473ffffffffffffffffffffffffffffffffffffffff169050816000806101000a81548173ffffffffffffffffffffffffffffffffffffffff021916908373ffffffffffffffffffffffffffffffffffffffff1602179055508173ffffffffffffffffffffffffffffffffffffffff168173ffffffffffffffffffffffffffffffffffffffff167f8be0079c531659141344cd1fd0a4f28419497f9722a3daafe3b4186f6b6457e060405160405180910390a35050565b600260015403611131576040517f08c379a0000000000000000000000000000000000000000000000000000000008152600401611128906124d9565b60405180910390fd5b6002600181905550565b60018081905550565b600033905090565b6000604051905090565b600080fd5b600080fd5b6000819050919050565b61117381611160565b811461117e57600080fd5b50565b6000813590506111908161116a565b92915050565b6000602082840312156111ac576111ab611156565b5b60006111ba84828501611181565b91505092915050565b6111cc81611160565b82525050565b60006080820190506111e760008301876111c3565b6111f460208301866111c3565b61120160408301856111c3565b61120e60608301846111c3565b95945050505050565b600080fd5b600080fd5b6000601f19601f8301169050919050565b7f4e487b7100000000000000000000000000000000000000000000000000000000600052604160045260246000fd5b61126a82611221565b810181811067ffffffffffffffff8211171561128957611288611232565b5b80604052505050565b600061129c61114c565b90506112a88282611261565b919050565b600067ffffffffffffffff8211156112c8576112c7611232565b5b6112d182611221565b9050602081019050919050565b82818337600083830152505050565b60006113006112fb846112ad565b611292565b90508281526020810184848401111561131c5761131b61121c565b5b6113278482856112de565b509392505050565b600082601f83011261134457611343611217565b5b81356113548482602086016112ed565b91505092915050565b60008115159050919050565b6113728161135d565b811461137d57600080fd5b50565b60008135905061138f81611369565b92915050565b60008060008060008060008060006101208a8c0312156113b8576113b7611156565b5b60006113c68c828d01611181565b99505060208a013567ffffffffffffffff8111156113e7576113e661115b565b5b6113f38c828d0161132f565b98505060406114048c828d01611181565b97505060606114158c828d01611181565b96505060806114268c828d01611181565b95505060a06114378c828d01611181565b94505060c06114488c828d01611181565b93505060e06114598c828d01611380565b92505061010061146b8c828d01611181565b9150509295985092959850929598565b6000806040838503121561149257611491611156565b5b60006114a085828601611181565b92505060206114b185828601611181565b9150509250929050565b600073ffffffffffffffffffffffffffffffffffffffff82169050919050565b60006114e6826114bb565b9050919050565b6114f6816114db565b82525050565b600060208201905061151160008301846114ed565b92915050565b600081519050919050565b600082825260208201905092915050565b6000819050602082019050919050565b61154c81611160565b82525050565b600081519050919050565b600082825260208201905092915050565b60005b8381101561158c578082015181840152602081019050611571565b60008484015250505050565b60006115a382611552565b6115ad818561155d565b93506115bd81856020860161156e565b6115c681611221565b840191505092915050565b6115da8161135d565b82525050565b6000610160830160008301516115f96000860182611543565b50602083015184820360208601526116118282611598565b91505060408301516116266040860182611543565b5060608301516116396060860182611543565b50608083015161164c6080860182611543565b5060a083015161165f60a0860182611543565b5060c083015161167260c08601826115d1565b5060e083015161168560e0860182611543565b5061010083015161169a610100860182611543565b506101208301516116af610120860182611543565b506101408301516116c46101408601826115d1565b508091505092915050565b60006116db83836115e0565b905092915050565b6000602082019050919050565b60006116fb82611517565b6117058185611522565b93508360208202850161171785611533565b8060005b85811015611753578484038952815161173485826116cf565b945061173f836116e3565b925060208a0199505060018101905061171b565b50829750879550505050505092915050565b6000602082019050818103600083015261177f81846116f0565b905092915050565b611790816114db565b811461179b57600080fd5b50565b6000813590506117ad81611787565b92915050565b600080604083850312156117ca576117c9611156565b5b60006117d88582860161179e565b92505060206117e985828601611181565b9150509250929050565b600060208201905061180860008301846111c3565b92915050565b6000819050919050565b600061183361182e611829846114bb565b61180e565b6114bb565b9050919050565b600061184582611818565b9050919050565b60006118578261183a565b9050919050565b6118678161184c565b82525050565b6000602082019050611882600083018461185e565b92915050565b60006118938261183a565b9050919050565b6118a381611888565b82525050565b60006020820190506118be600083018461189a565b92915050565b6000602082840312156118da576118d9611156565b5b60006118e88482850161179e565b91505092915050565b60008060006060848603121561190a57611909611156565b5b600061191886828701611181565b935050602061192986828701611181565b925050604061193a86828701611181565b9150509250925092565b600082825260208201905092915050565b7f67616d6520646f6573206e6f7420657869737400000000000000000000000000600082015250565b600061198b601383611944565b915061199682611955565b602082019050919050565b600060208201905081810360008301526119ba8161197e565b9050919050565b7f4e487b7100000000000000000000000000000000000000000000000000000000600052602260045260246000fd5b60006002820490506001821680611a0857607f821691505b602082108103611a1b57611a1a6119c1565b5b50919050565b60008190508160005260206000209050919050565b60006020601f8301049050919050565b600082821b905092915050565b600060088302611a837fffffffffffffffffffffffffffffffffffffffffffffffffffffffffffffffff82611a46565b611a8d8683611a46565b95508019841693508086168417925050509392505050565b6000611ac0611abb611ab684611160565b61180e565b611160565b9050919050565b6000819050919050565b611ada83611aa5565b611aee611ae682611ac7565b848454611a53565b825550505050565b600090565b611b03611af6565b611b0e818484611ad1565b505050565b5b81811015611b3257611b27600082611afb565b600181019050611b14565b5050565b601f821115611b7757611b4881611a21565b611b5184611a36565b81016020851015611b60578190505b611b74611b6c85611a36565b830182611b13565b50505b505050565b600082821c905092915050565b6000611b9a60001984600802611b7c565b1980831691505092915050565b6000611bb38383611b89565b9150826002028217905092915050565b611bcc82611552565b67ffffffffffffffff811115611be557611be4611232565b5b611bef82546119f0565b611bfa828285611b36565b600060209050601f831160018114611c2d5760008415611c1b578287015190505b611c258582611ba7565b865550611c8d565b601f198416611c3b86611a21565b60005b82811015611c6357848901518255600182019150602085019450602081019050611c3e565b86831015611c805784890151611c7c601f891682611b89565b8355505b6001600288020188555050505b505050505050565b7f4e487b7100000000000000000000000000000000000000000000000000000000600052601160045260246000fd5b6000611ccf82611160565b91507fffffffffffffffffffffffffffffffffffffffffffffffffffffffffffffffff8203611d0157611d00611c95565b5b600182019050919050565b6000604082019050611d2160008301856114ed565b611d2e60208301846111c3565b9392505050565b600081519050611d4481611369565b92915050565b600060208284031215611d6057611d5f611156565b5b6000611d6e84828501611d35565b91505092915050565b7f4e487b7100000000000000000000000000000000000000000000000000000000600052603260045260246000fd5b7f70726f6475637420616374697665000000000000000000000000000000000000600082015250565b6000611ddc600e83611944565b9150611de782611da6565b602082019050919050565b60006020820190508181036000830152611e0b81611dcf565b9050919050565b7f70726f64756374206e6f7420696e2073746f7265000000000000000000000000600082015250565b6000611e48601483611944565b9150611e5382611e12565b602082019050919050565b60006020820190508181036000830152611e7781611e3b565b9050919050565b7f6e6f20636f6e7472616374730000000000000000000000000000000000000000600082015250565b6000611eb4600c83611944565b9150611ebf82611e7e565b602082019050919050565b60006020820190508181036000830152611ee381611ea7565b9050919050565b6000604082019050611eff60008301856111c3565b611f0c60208301846114ed565b9392505050565b7f696e76616c69642070726f647563740000000000000000000000000000000000600082015250565b6000611f49600f83611944565b9150611f5482611f13565b602082019050919050565b60006020820190508181036000830152611f7881611f3c565b9050919050565b7f4f776e61626c653a206e6577206f776e657220697320746865207a65726f206160008201527f6464726573730000000000000000000000000000000000000000000000000000602082015250565b6000611fdb602683611944565b9150611fe682611f7f565b604082019050919050565b6000602082019050818103600083015261200a81611fce565b9050919050565b7f70726f6475637420616c7265616479206c6973746564206f6e206d65682e737460008201527f6f72650000000000000000000000000000000000000000000000000000000000602082015250565b600061206d602383611944565b915061207882612011565b604082019050919050565b6000602082019050818103600083015261209c81612060565b9050919050565b60006120ae82611160565b91506120b983611160565b92508282019050808211156120d1576120d0611c95565b5b92915050565b7f6e6f7420656e6f75676820636f6e74726163747320617661696c61626c650000600082015250565b600061210d601e83611944565b9150612118826120d7565b602082019050919050565b6000602082019050818103600083015261213c81612100565b9050919050565b7f70726f64756374206e6f74206f70656e20666f72206465706f73697400000000600082015250565b6000612179601c83611944565b915061218482612143565b602082019050919050565b600060208201905081810360008301526121a88161216c565b9050919050565b60006121ba82611160565b91506121c583611160565b92508282026121d381611160565b915082820484148315176121ea576121e9611c95565b5b5092915050565b600060608201905061220660008301866114ed565b61221360208301856114ed565b61222060408301846111c3565b949350505050565b7f6d6568206465706f736974206661696c65640000000000000000000000000000600082015250565b600061225e601283611944565b915061226982612228565b602082019050919050565b6000602082019050818103600083015261228d81612251565b9050919050565b600081546122a1816119f0565b6122ab8186611944565b945060018216600081146122c657600181146122dc5761230f565b60ff19831686528115156020028601935061230f565b6122e585611a21565b60005b83811015612307578154818901526001820191506020810190506122e8565b808801955050505b50505092915050565b7f6465662d31323300000000000000000000000000000000000000000000000000600082015250565b600061234e600783611944565b915061235982612318565b602082019050919050565b600060808201905061237960008301866111c3565b818103602083015261238b8185612294565b9050818103604083015261239e81612341565b90506123ad60608301846111c3565b949350505050565b7f70726f64756374206e6f7420666f756e64000000000000000000000000000000600082015250565b60006123eb601183611944565b91506123f6826123b5565b602082019050919050565b6000602082019050818103600083015261241a816123de565b9050919050565b7f4f776e61626c653a2063616c6c6572206973206e6f7420746865206f776e6572600082015250565b6000612457602083611944565b915061246282612421565b602082019050919050565b600060208201905081810360008301526124868161244a565b9050919050565b7f5265656e7472616e637947756172643a207265656e7472616e742063616c6c00600082015250565b60006124c3601f83611944565b91506124ce8261248d565b602082019050919050565b600060208201905081810360008301526124f2816124b6565b905091905056fea26469706673582212200f2f3aaae1c9f7afbf3c10892ff7199920f05fda385780e74f01db226d38becc64736f6c63430008180033","opcodes":"PUSH1 0xC0 PUSH1 0x40 MSTORE CALLVALUE DUP1 ISZERO PUSH3 0x11 JUMPI PUSH1 0x0 DUP1 REVERT JUMPDEST POP PUSH1 0x40 MLOAD PUSH3 0x2848 CODESIZE SUB DUP1 PUSH3 0x2848 DUP4 CODECOPY DUP2 DUP2 ADD PUSH1 0x40 MSTORE DUP2 ADD SWAP1 PUSH3 0x37 SWAP2 SWAP1 PUSH3 0x297 JUMP JUMPDEST PUSH3 0x57 PUSH3 0x4B PUSH3 0xF2 PUSH1 0x20 SHL PUSH1 0x20 SHR JUMP JUMPDEST PUSH3 0xFA PUSH1 0x20 SHL PUSH1 0x20 SHR JUMP JUMPDEST PUSH1 0x1 DUP1 DUP2 SWAP1 SSTORE POP DUP2 PUSH20 0xFFFFFFFFFFFFFFFFFFFFFFFFFFFFFFFFFFFFFFFF AND PUSH1 0x80 DUP2 PUSH20 0xFFFFFFFFFFFFFFFFFFFFFFFFFFFFFFFFFFFFFFFF AND DUP2 MSTORE POP POP DUP1 PUSH20 0xFFFFFFFFFFFFFFFFFFFFFFFFFFFFFFFFFFFFFFFF AND PUSH1 0xA0 DUP2 PUSH20 0xFFFFFFFFFFFFFFFFFFFFFFFFFFFFFFFFFFFFFFFF AND DUP2 MSTORE POP POP PUSH3 0xD8 PUSH1 0x2 PUSH3 0x1BE PUSH1 0x20 SHL PUSH1 0x20 SHR JUMP JUMPDEST PUSH3 0xEA PUSH1 0x3 PUSH3 0x1BE PUSH1 0x20 SHL PUSH1 0x20 SHR JUMP JUMPDEST POP POP PUSH3 0x2DE JUMP JUMPDEST PUSH1 0x0 CALLER SWAP1 POP SWAP1 JUMP JUMPDEST PUSH1 0x0 DUP1 PUSH1 0x0 SWAP1 SLOAD SWAP1 PUSH2 0x100 EXP SWAP1 DIV PUSH20 0xFFFFFFFFFFFFFFFFFFFFFFFFFFFFFFFFFFFFFFFF AND SWAP1 POP DUP2 PUSH1 0x0 DUP1 PUSH2 0x100 EXP DUP2 SLOAD DUP2 PUSH20 0xFFFFFFFFFFFFFFFFFFFFFFFFFFFFFFFFFFFFFFFF MUL NOT AND SWAP1 DUP4 PUSH20 0xFFFFFFFFFFFFFFFFFFFFFFFFFFFFFFFFFFFFFFFF AND MUL OR SWAP1 SSTORE POP DUP2 PUSH20 0xFFFFFFFFFFFFFFFFFFFFFFFFFFFFFFFFFFFFFFFF AND DUP2 PUSH20 0xFFFFFFFFFFFFFFFFFFFFFFFFFFFFFFFFFFFFFFFF AND PUSH32 0x8BE0079C531659141344CD1FD0A4F28419497F9722A3DAAFE3B4186F6B6457E0 PUSH1 0x40 MLOAD PUSH1 0x40 MLOAD DUP1 SWAP2 SUB SWAP1 LOG3 POP POP JUMP JUMPDEST PUSH1 0x1 DUP2 PUSH1 0x0 ADD PUSH1 0x0 DUP3 DUP3 SLOAD ADD SWAP3 POP POP DUP2 SWAP1 SSTORE POP POP JUMP JUMPDEST PUSH1 0x0 DUP1 REVERT JUMPDEST PUSH1 0x0 PUSH20 0xFFFFFFFFFFFFFFFFFFFFFFFFFFFFFFFFFFFFFFFF DUP3 AND SWAP1 POP SWAP2 SWAP1 POP JUMP JUMPDEST PUSH1 0x0 PUSH3 0x206 DUP3 PUSH3 0x1D9 JUMP JUMPDEST SWAP1 POP SWAP2 SWAP1 POP JUMP JUMPDEST PUSH1 0x0 PUSH3 0x21A DUP3 PUSH3 0x1F9 JUMP JUMPDEST SWAP1 POP SWAP2 SWAP1 POP JUMP JUMPDEST PUSH3 0x22C DUP2 PUSH3 0x20D JUMP JUMPDEST DUP2 EQ PUSH3 0x238 JUMPI PUSH1 0x0 DUP1 REVERT JUMPDEST POP JUMP JUMPDEST PUSH1 0x0 DUP2 MLOAD SWAP1 POP PUSH3 0x24C DUP2 PUSH3 0x221 JUMP JUMPDEST SWAP3 SWAP2 POP POP JUMP JUMPDEST PUSH1 0x0 PUSH3 0x25F DUP3 PUSH3 0x1F9 JUMP JUMPDEST SWAP1 POP SWAP2 SWAP1 POP JUMP JUMPDEST PUSH3 0x271 DUP2 PUSH3 0x252 JUMP JUMPDEST DUP2 EQ PUSH3 0x27D JUMPI PUSH1 0x0 DUP1 REVERT JUMPDEST POP JUMP JUMPDEST PUSH1 0x0 DUP2 MLOAD SWAP1 POP PUSH3 0x291 DUP2 PUSH3 0x266 JUMP JUMPDEST SWAP3 SWAP2 POP POP JUMP JUMPDEST PUSH1 0x0 DUP1 PUSH1 0x40 DUP4 DUP6 SUB SLT ISZERO PUSH3 0x2B1 JUMPI PUSH3 0x2B0 PUSH3 0x1D4 JUMP JUMPDEST JUMPDEST PUSH1 0x0 PUSH3 0x2C1 DUP6 DUP3 DUP7 ADD PUSH3 0x23B JUMP JUMPDEST SWAP3 POP POP PUSH1 0x20 PUSH3 0x2D4 DUP6 DUP3 DUP7 ADD PUSH3 0x280 JUMP JUMPDEST SWAP2 POP POP SWAP3 POP SWAP3 SWAP1 POP JUMP JUMPDEST PUSH1 0x80 MLOAD PUSH1 0xA0 MLOAD PUSH2 0x252F PUSH3 0x319 PUSH1 0x0 CODECOPY PUSH1 0x0 DUP2 DUP2 PUSH2 0x79B ADD MSTORE PUSH2 0xAC8 ADD MSTORE PUSH1 0x0 DUP2 DUP2 PUSH2 0x4EE ADD MSTORE DUP2 DUP2 PUSH2 0xAA4 ADD MSTORE PUSH2 0xDC5 ADD MSTORE PUSH2 0x252F PUSH1 0x0 RETURN INVALID PUSH1 0x80 PUSH1 0x40 MSTORE CALLVALUE DUP1 ISZERO PUSH2 0x10 JUMPI PUSH1 0x0 DUP1 REVERT JUMPDEST POP PUSH1 0x4 CALLDATASIZE LT PUSH2 0xCF JUMPI PUSH1 0x0 CALLDATALOAD PUSH1 0xE0 SHR DUP1 PUSH4 0xC3490263 GT PUSH2 0x8C JUMPI DUP1 PUSH4 0xE2C2C884 GT PUSH2 0x66 JUMPI DUP1 PUSH4 0xE2C2C884 EQ PUSH2 0x1FF JUMPI DUP1 PUSH4 0xF053DC5C EQ PUSH2 0x21D JUMPI DUP1 PUSH4 0xF2FDE38B EQ PUSH2 0x23B JUMPI DUP1 PUSH4 0xF38BEE18 EQ PUSH2 0x257 JUMPI PUSH2 0xCF JUMP JUMPDEST DUP1 PUSH4 0xC3490263 EQ PUSH2 0x183 JUMPI DUP1 PUSH4 0xC7B56842 EQ PUSH2 0x19F JUMPI DUP1 PUSH4 0xD6D68177 EQ PUSH2 0x1CF JUMPI PUSH2 0xCF JUMP JUMPDEST DUP1 PUSH4 0x117A5B90 EQ PUSH2 0xD4 JUMPI DUP1 PUSH4 0x48EDF1BB EQ PUSH2 0x107 JUMPI DUP1 PUSH4 0x60104CEF EQ PUSH2 0x123 JUMPI DUP1 PUSH4 0x715018A6 EQ PUSH2 0x13F JUMPI DUP1 PUSH4 0x76F7B500 EQ PUSH2 0x149 JUMPI DUP1 PUSH4 0x8DA5CB5B EQ PUSH2 0x165 JUMPI JUMPDEST PUSH1 0x0 DUP1 REVERT JUMPDEST PUSH2 0xEE PUSH1 0x4 DUP1 CALLDATASIZE SUB DUP2 ADD SWAP1 PUSH2 0xE9 SWAP2 SWAP1 PUSH2 0x1196 JUMP JUMPDEST PUSH2 0x273 JUMP JUMPDEST PUSH1 0x40 MLOAD PUSH2 0xFE SWAP5 SWAP4 SWAP3 SWAP2 SWAP1 PUSH2 0x11D2 JUMP JUMPDEST PUSH1 0x40 MLOAD DUP1 SWAP2 SUB SWAP1 RETURN JUMPDEST PUSH2 0x121 PUSH1 0x4 DUP1 CALLDATASIZE SUB DUP2 ADD SWAP1 PUSH2 0x11C SWAP2 SWAP1 PUSH2 0x1395 JUMP JUMPDEST PUSH2 0x2A3 JUMP JUMPDEST STOP JUMPDEST PUSH2 0x13D PUSH1 0x4 DUP1 CALLDATASIZE SUB DUP2 ADD SWAP1 PUSH2 0x138 SWAP2 SWAP1 PUSH2 0x147B JUMP JUMPDEST PUSH2 0x478 JUMP JUMPDEST STOP JUMPDEST PUSH2 0x147 PUSH2 0x4D0 JUMP JUMPDEST STOP JUMPDEST PUSH2 0x163 PUSH1 0x4 DUP1 CALLDATASIZE SUB DUP2 ADD SWAP1 PUSH2 0x15E SWAP2 SWAP1 PUSH2 0x1196 JUMP JUMPDEST PUSH2 0x4E4 JUMP JUMPDEST STOP JUMPDEST PUSH2 0x16D PUSH2 0x595 JUMP JUMPDEST PUSH1 0x40 MLOAD PUSH2 0x17A SWAP2 SWAP1 PUSH2 0x14FC JUMP JUMPDEST PUSH1 0x40 MLOAD DUP1 SWAP2 SUB SWAP1 RETURN JUMPDEST PUSH2 0x19D PUSH1 0x4 DUP1 CALLDATASIZE SUB DUP2 ADD SWAP1 PUSH2 0x198 SWAP2 SWAP1 PUSH2 0x147B JUMP JUMPDEST PUSH2 0x5BE JUMP JUMPDEST STOP JUMPDEST PUSH2 0x1B9 PUSH1 0x4 DUP1 CALLDATASIZE SUB DUP2 ADD SWAP1 PUSH2 0x1B4 SWAP2 SWAP1 PUSH2 0x1196 JUMP JUMPDEST PUSH2 0x8EF JUMP JUMPDEST PUSH1 0x40 MLOAD PUSH2 0x1C6 SWAP2 SWAP1 PUSH2 0x1765 JUMP JUMPDEST PUSH1 0x40 MLOAD DUP1 SWAP2 SUB SWAP1 RETURN JUMPDEST PUSH2 0x1E9 PUSH1 0x4 DUP1 CALLDATASIZE SUB DUP2 ADD SWAP1 PUSH2 0x1E4 SWAP2 SWAP1 PUSH2 0x17B3 JUMP JUMPDEST PUSH2 0xA7D JUMP JUMPDEST PUSH1 0x40 MLOAD PUSH2 0x1F6 SWAP2 SWAP1 PUSH2 0x17F3 JUMP JUMPDEST PUSH1 0x40 MLOAD DUP1 SWAP2 SUB SWAP1 RETURN JUMPDEST PUSH2 0x207 PUSH2 0xAA2 JUMP JUMPDEST PUSH1 0x40 MLOAD PUSH2 0x214 SWAP2 SWAP1 PUSH2 0x186D JUMP JUMPDEST PUSH1 0x40 MLOAD DUP1 SWAP2 SUB SWAP1 RETURN JUMPDEST PUSH2 0x225 PUSH2 0xAC6 JUMP JUMPDEST PUSH1 0x40 MLOAD PUSH2 0x232 SWAP2 SWAP1 PUSH2 0x18A9 JUMP JUMPDEST PUSH1 0x40 MLOAD DUP1 SWAP2 SUB SWAP1 RETURN JUMPDEST PUSH2 0x255 PUSH1 0x4 DUP1 CALLDATASIZE SUB DUP2 ADD SWAP1 PUSH2 0x250 SWAP2 SWAP1 PUSH2 0x18C4 JUMP JUMPDEST PUSH2 0xAEA JUMP JUMPDEST STOP JUMPDEST PUSH2 0x271 PUSH1 0x4 DUP1 CALLDATASIZE SUB DUP2 ADD SWAP1 PUSH2 0x26C SWAP2 SWAP1 PUSH2 0x18F1 JUMP JUMPDEST PUSH2 0xB6D JUMP JUMPDEST STOP JUMPDEST PUSH1 0x4 PUSH1 0x20 MSTORE DUP1 PUSH1 0x0 MSTORE PUSH1 0x40 PUSH1 0x0 KECCAK256 PUSH1 0x0 SWAP2 POP SWAP1 POP DUP1 PUSH1 0x0 ADD SLOAD SWAP1 DUP1 PUSH1 0x1 ADD SLOAD SWAP1 DUP1 PUSH1 0x2 ADD SLOAD SWAP1 DUP1 PUSH1 0x4 ADD SLOAD SWAP1 POP DUP5 JUMP JUMPDEST PUSH2 0x2AB PUSH2 0xF86 JUMP JUMPDEST PUSH1 0x0 PUSH1 0x4 PUSH1 0x0 DUP12 DUP2 MSTORE PUSH1 0x20 ADD SWAP1 DUP2 MSTORE PUSH1 0x20 ADD PUSH1 0x0 KECCAK256 SWAP1 POP PUSH1 0x0 DUP2 PUSH1 0x0 ADD SLOAD SUB PUSH2 0x309 JUMPI PUSH1 0x40 MLOAD PUSH32 0x8C379A000000000000000000000000000000000000000000000000000000000 DUP2 MSTORE PUSH1 0x4 ADD PUSH2 0x300 SWAP1 PUSH2 0x19A1 JUMP JUMPDEST PUSH1 0x40 MLOAD DUP1 SWAP2 SUB SWAP1 REVERT JUMPDEST PUSH1 0x0 PUSH2 0x315 PUSH1 0x3 PUSH2 0x1004 JUMP JUMPDEST SWAP1 POP PUSH1 0x0 PUSH1 0x40 MLOAD DUP1 PUSH2 0x160 ADD PUSH1 0x40 MSTORE DUP1 DUP4 DUP2 MSTORE PUSH1 0x20 ADD DUP13 DUP2 MSTORE PUSH1 0x20 ADD PUSH1 0x0 DUP2 MSTORE PUSH1 0x20 ADD DUP12 DUP2 MSTORE PUSH1 0x20 ADD DUP11 DUP2 MSTORE PUSH1 0x20 ADD DUP6 DUP2 MSTORE PUSH1 0x20 ADD PUSH1 0x0 ISZERO ISZERO DUP2 MSTORE PUSH1 0x20 ADD DUP10 DUP2 MSTORE PUSH1 0x20 ADD DUP9 DUP2 MSTORE PUSH1 0x20 ADD DUP8 DUP2 MSTORE PUSH1 0x20 ADD DUP7 ISZERO ISZERO DUP2 MSTORE POP SWAP1 POP DUP3 PUSH1 0x3 ADD DUP2 SWAP1 DUP1 PUSH1 0x1 DUP2 SLOAD ADD DUP1 DUP3 SSTORE DUP1 SWAP2 POP POP PUSH1 0x1 SWAP1 SUB SWAP1 PUSH1 0x0 MSTORE PUSH1 0x20 PUSH1 0x0 KECCAK256 SWAP1 PUSH1 0xB MUL ADD PUSH1 0x0 SWAP1 SWAP2 SWAP1 SWAP2 SWAP1 SWAP2 POP PUSH1 0x0 DUP3 ADD MLOAD DUP2 PUSH1 0x0 ADD SSTORE PUSH1 0x20 DUP3 ADD MLOAD DUP2 PUSH1 0x1 ADD SWAP1 DUP2 PUSH2 0x3BA SWAP2 SWAP1 PUSH2 0x1BC3 JUMP JUMPDEST POP PUSH1 0x40 DUP3 ADD MLOAD DUP2 PUSH1 0x2 ADD SSTORE PUSH1 0x60 DUP3 ADD MLOAD DUP2 PUSH1 0x3 ADD SSTORE PUSH1 0x80 DUP3 ADD MLOAD DUP2 PUSH1 0x4 ADD SSTORE PUSH1 0xA0 DUP3 ADD MLOAD DUP2 PUSH1 0x5 ADD SSTORE PUSH1 0xC0 DUP3 ADD MLOAD DUP2 PUSH1 0x6 ADD PUSH1 0x0 PUSH2 0x100 EXP DUP2 SLOAD DUP2 PUSH1 0xFF MUL NOT AND SWAP1 DUP4 ISZERO ISZERO MUL OR SWAP1 SSTORE POP PUSH1 0xE0 DUP3 ADD MLOAD DUP2 PUSH1 0x7 ADD SSTORE PUSH2 0x100 DUP3 ADD MLOAD DUP2 PUSH1 0x8 ADD SSTORE PUSH2 0x120 DUP3 ADD MLOAD DUP2 PUSH1 0x9 ADD SSTORE PUSH2 0x140 DUP3 ADD MLOAD DUP2 PUSH1 0xA ADD PUSH1 0x0 PUSH2 0x100 EXP DUP2 SLOAD DUP2 PUSH1 0xFF MUL NOT AND SWAP1 DUP4 ISZERO ISZERO MUL OR SWAP1 SSTORE POP POP POP DUP3 PUSH1 0x4 ADD PUSH1 0x0 DUP2 SLOAD DUP1 SWAP3 SWAP2 SWAP1 PUSH2 0x45B SWAP1 PUSH2 0x1CC4 JUMP JUMPDEST SWAP2 SWAP1 POP SSTORE POP PUSH2 0x46A PUSH1 0x3 PUSH2 0x1012 JUMP JUMPDEST POP POP POP POP POP POP POP POP POP POP POP POP JUMP JUMPDEST PUSH2 0x480 PUSH2 0xF86 JUMP JUMPDEST PUSH1 0x0 PUSH2 0x48C PUSH1 0x2 PUSH2 0x1004 JUMP JUMPDEST SWAP1 POP PUSH1 0x0 PUSH1 0x4 PUSH1 0x0 DUP4 DUP2 MSTORE PUSH1 0x20 ADD SWAP1 DUP2 MSTORE PUSH1 0x20 ADD PUSH1 0x0 KECCAK256 SWAP1 POP DUP2 DUP2 PUSH1 0x0 ADD DUP2 SWAP1 SSTORE POP DUP4 DUP2 PUSH1 0x1 ADD DUP2 SWAP1 SSTORE POP DUP3 DUP2 PUSH1 0x2 ADD DUP2 SWAP1 SSTORE POP PUSH2 0x4CA PUSH1 0x2 PUSH2 0x1012 JUMP JUMPDEST POP POP POP POP JUMP JUMPDEST PUSH2 0x4D8 PUSH2 0xF86 JUMP JUMPDEST PUSH2 0x4E2 PUSH1 0x0 PUSH2 0x1028 JUMP JUMPDEST JUMP JUMPDEST PUSH2 0x4EC PUSH2 0xF86 JUMP JUMPDEST PUSH32 0x0 PUSH20 0xFFFFFFFFFFFFFFFFFFFFFFFFFFFFFFFFFFFFFFFF AND PUSH4 0xA9059CBB PUSH2 0x530 PUSH2 0x595 JUMP JUMPDEST DUP4 PUSH1 0x40 MLOAD DUP4 PUSH4 0xFFFFFFFF AND PUSH1 0xE0 SHL DUP2 MSTORE PUSH1 0x4 ADD PUSH2 0x54E SWAP3 SWAP2 SWAP1 PUSH2 0x1D0C JUMP JUMPDEST PUSH1 0x20 PUSH1 0x40 MLOAD DUP1 DUP4 SUB DUP2 PUSH1 0x0 DUP8 GAS CALL ISZERO DUP1 ISZERO PUSH2 0x56D JUMPI RETURNDATASIZE PUSH1 0x0 DUP1 RETURNDATACOPY RETURNDATASIZE PUSH1 0x0 REVERT JUMPDEST POP POP POP POP PUSH1 0x40 MLOAD RETURNDATASIZE PUSH1 0x1F NOT PUSH1 0x1F DUP3 ADD AND DUP3 ADD DUP1 PUSH1 0x40 MSTORE POP DUP2 ADD SWAP1 PUSH2 0x591 SWAP2 SWAP1 PUSH2 0x1D4A JUMP JUMPDEST POP POP JUMP JUMPDEST PUSH1 0x0 DUP1 PUSH1 0x0 SWAP1 SLOAD SWAP1 PUSH2 0x100 EXP SWAP1 DIV PUSH20 0xFFFFFFFFFFFFFFFFFFFFFFFFFFFFFFFFFFFFFFFF AND SWAP1 POP SWAP1 JUMP JUMPDEST PUSH2 0x5C6 PUSH2 0x10EC JUMP JUMPDEST PUSH1 0x0 PUSH1 0x4 PUSH1 0x0 DUP5 DUP2 MSTORE PUSH1 0x20 ADD SWAP1 DUP2 MSTORE PUSH1 0x20 ADD PUSH1 0x0 KECCAK256 SWAP1 POP PUSH1 0x0 JUMPDEST DUP2 PUSH1 0x3 ADD DUP1 SLOAD SWAP1 POP DUP2 LT ISZERO PUSH2 0x8A7 JUMPI DUP3 DUP3 PUSH1 0x3 ADD DUP3 DUP2 SLOAD DUP2 LT PUSH2 0x606 JUMPI PUSH2 0x605 PUSH2 0x1D77 JUMP JUMPDEST JUMPDEST SWAP1 PUSH1 0x0 MSTORE PUSH1 0x20 PUSH1 0x0 KECCAK256 SWAP1 PUSH1 0xB MUL ADD PUSH1 0x0 ADD SLOAD SUB PUSH2 0x89A JUMPI PUSH1 0x0 DUP3 PUSH1 0x3 ADD DUP3 DUP2 SLOAD DUP2 LT PUSH2 0x635 JUMPI PUSH2 0x634 PUSH2 0x1D77 JUMP JUMPDEST JUMPDEST SWAP1 PUSH1 0x0 MSTORE PUSH1 0x20 PUSH1 0x0 KECCAK256 SWAP1 PUSH1 0xB MUL ADD SWAP1 POP TIMESTAMP DUP2 PUSH1 0x8 ADD SLOAD LT PUSH2 0x68B JUMPI PUSH1 0x40 MLOAD PUSH32 0x8C379A000000000000000000000000000000000000000000000000000000000 DUP2 MSTORE PUSH1 0x4 ADD PUSH2 0x682 SWAP1 PUSH2 0x1DF2 JUMP JUMPDEST PUSH1 0x40 MLOAD DUP1 SWAP2 SUB SWAP1 REVERT JUMPDEST DUP1 PUSH1 0x6 ADD PUSH1 0x0 SWAP1 SLOAD SWAP1 PUSH2 0x100 EXP SWAP1 DIV PUSH1 0xFF AND PUSH2 0x6DC JUMPI PUSH1 0x40 MLOAD PUSH32 0x8C379A000000000000000000000000000000000000000000000000000000000 DUP2 MSTORE PUSH1 0x4 ADD PUSH2 0x6D3 SWAP1 PUSH2 0x1E5E JUMP JUMPDEST PUSH1 0x40 MLOAD DUP1 SWAP2 SUB SWAP1 REVERT JUMPDEST PUSH1 0x0 PUSH1 0x5 PUSH1 0x0 CALLER PUSH20 0xFFFFFFFFFFFFFFFFFFFFFFFFFFFFFFFFFFFFFFFF AND PUSH20 0xFFFFFFFFFFFFFFFFFFFFFFFFFFFFFFFFFFFFFFFF AND DUP2 MSTORE PUSH1 0x20 ADD SWAP1 DUP2 MSTORE PUSH1 0x20 ADD PUSH1 0x0 KECCAK256 PUSH1 0x0 DUP7 DUP2 MSTORE PUSH1 0x20 ADD SWAP1 DUP2 MSTORE PUSH1 0x20 ADD PUSH1 0x0 KECCAK256 SLOAD SWAP1 POP PUSH1 0x0 DUP2 GT PUSH2 0x774 JUMPI PUSH1 0x40 MLOAD PUSH32 0x8C379A000000000000000000000000000000000000000000000000000000000 DUP2 MSTORE PUSH1 0x4 ADD PUSH2 0x76B SWAP1 PUSH2 0x1ECA JUMP JUMPDEST PUSH1 0x40 MLOAD DUP1 SWAP2 SUB SWAP1 REVERT JUMPDEST DUP2 PUSH1 0x6 ADD PUSH1 0x0 SWAP1 SLOAD SWAP1 PUSH2 0x100 EXP SWAP1 DIV PUSH1 0xFF AND ISZERO PUSH2 0x83B JUMPI PUSH1 0x0 PUSH1 0x1 SWAP1 POP JUMPDEST DUP2 DUP2 GT PUSH2 0x839 JUMPI PUSH32 0x0 PUSH20 0xFFFFFFFFFFFFFFFFFFFFFFFFFFFFFFFFFFFFFFFF AND PUSH4 0x94BF804D DUP8 CALLER PUSH1 0x40 MLOAD DUP4 PUSH4 0xFFFFFFFF AND PUSH1 0xE0 SHL DUP2 MSTORE PUSH1 0x4 ADD PUSH2 0x7F4 SWAP3 SWAP2 SWAP1 PUSH2 0x1EEA JUMP JUMPDEST PUSH1 0x0 PUSH1 0x40 MLOAD DUP1 DUP4 SUB DUP2 PUSH1 0x0 DUP8 DUP1 EXTCODESIZE ISZERO DUP1 ISZERO PUSH2 0x80E JUMPI PUSH1 0x0 DUP1 REVERT JUMPDEST POP GAS CALL ISZERO DUP1 ISZERO PUSH2 0x822 JUMPI RETURNDATASIZE PUSH1 0x0 DUP1 RETURNDATACOPY RETURNDATASIZE PUSH1 0x0 REVERT JUMPDEST POP POP POP POP DUP1 DUP1 PUSH2 0x831 SWAP1 PUSH2 0x1CC4 JUMP JUMPDEST SWAP2 POP POP PUSH2 0x792 JUMP JUMPDEST POP JUMPDEST PUSH1 0x0 PUSH1 0x5 PUSH1 0x0 CALLER PUSH20 0xFFFFFFFFFFFFFFFFFFFFFFFFFFFFFFFFFFFFFFFF AND PUSH20 0xFFFFFFFFFFFFFFFFFFFFFFFFFFFFFFFFFFFFFFFF AND DUP2 MSTORE PUSH1 0x20 ADD SWAP1 DUP2 MSTORE PUSH1 0x20 ADD PUSH1 0x0 KECCAK256 PUSH1 0x0 DUP8 DUP2 MSTORE PUSH1 0x20 ADD SWAP1 DUP2 MSTORE PUSH1 0x20 ADD PUSH1 0x0 KECCAK256 DUP2 SWAP1 SSTORE POP POP POP POP POP PUSH2 0x8E3 JUMP JUMPDEST DUP1 DUP1 PUSH1 0x1 ADD SWAP2 POP POP PUSH2 0x5E0 JUMP JUMPDEST POP PUSH1 0x40 MLOAD PUSH32 0x8C379A000000000000000000000000000000000000000000000000000000000 DUP2 MSTORE PUSH1 0x4 ADD PUSH2 0x8DA SWAP1 PUSH2 0x1F5F JUMP JUMPDEST PUSH1 0x40 MLOAD DUP1 SWAP2 SUB SWAP1 REVERT JUMPDEST PUSH2 0x8EB PUSH2 0x113B JUMP JUMPDEST POP POP JUMP JUMPDEST PUSH1 0x60 PUSH1 0x4 PUSH1 0x0 DUP4 DUP2 MSTORE PUSH1 0x20 ADD SWAP1 DUP2 MSTORE PUSH1 0x20 ADD PUSH1 0x0 KECCAK256 PUSH1 0x3 ADD DUP1 SLOAD DUP1 PUSH1 0x20 MUL PUSH1 0x20 ADD PUSH1 0x40 MLOAD SWAP1 DUP2 ADD PUSH1 0x40 MSTORE DUP1 SWAP3 SWAP2 SWAP1 DUP2 DUP2 MSTORE PUSH1 0x20 ADD PUSH1 0x0 SWAP1 JUMPDEST DUP3 DUP3 LT ISZERO PUSH2 0xA72 JUMPI DUP4 DUP3 SWAP1 PUSH1 0x0 MSTORE PUSH1 0x20 PUSH1 0x0 KECCAK256 SWAP1 PUSH1 0xB MUL ADD PUSH1 0x40 MLOAD DUP1 PUSH2 0x160 ADD PUSH1 0x40 MSTORE SWAP1 DUP2 PUSH1 0x0 DUP3 ADD SLOAD DUP2 MSTORE PUSH1 0x20 ADD PUSH1 0x1 DUP3 ADD DUP1 SLOAD PUSH2 0x965 SWAP1 PUSH2 0x19F0 JUMP JUMPDEST DUP1 PUSH1 0x1F ADD PUSH1 0x20 DUP1 SWAP2 DIV MUL PUSH1 0x20 ADD PUSH1 0x40 MLOAD SWAP1 DUP2 ADD PUSH1 0x40 MSTORE DUP1 SWAP3 SWAP2 SWAP1 DUP2 DUP2 MSTORE PUSH1 0x20 ADD DUP3 DUP1 SLOAD PUSH2 0x991 SWAP1 PUSH2 0x19F0 JUMP JUMPDEST DUP1 ISZERO PUSH2 0x9DE JUMPI DUP1 PUSH1 0x1F LT PUSH2 0x9B3 JUMPI PUSH2 0x100 DUP1 DUP4 SLOAD DIV MUL DUP4 MSTORE SWAP2 PUSH1 0x20 ADD SWAP2 PUSH2 0x9DE JUMP JUMPDEST DUP3 ADD SWAP2 SWAP1 PUSH1 0x0 MSTORE PUSH1 0x20 PUSH1 0x0 KECCAK256 SWAP1 JUMPDEST DUP2 SLOAD DUP2 MSTORE SWAP1 PUSH1 0x1 ADD SWAP1 PUSH1 0x20 ADD DUP1 DUP4 GT PUSH2 0x9C1 JUMPI DUP3 SWAP1 SUB PUSH1 0x1F AND DUP3 ADD SWAP2 JUMPDEST POP POP POP POP POP DUP2 MSTORE PUSH1 0x20 ADD PUSH1 0x2 DUP3 ADD SLOAD DUP2 MSTORE PUSH1 0x20 ADD PUSH1 0x3 DUP3 ADD SLOAD DUP2 MSTORE PUSH1 0x20 ADD PUSH1 0x4 DUP3 ADD SLOAD DUP2 MSTORE PUSH1 0x20 ADD PUSH1 0x5 DUP3 ADD SLOAD DUP2 MSTORE PUSH1 0x20 ADD PUSH1 0x6 DUP3 ADD PUSH1 0x0 SWAP1 SLOAD SWAP1 PUSH2 0x100 EXP SWAP1 DIV PUSH1 0xFF AND ISZERO ISZERO ISZERO ISZERO DUP2 MSTORE PUSH1 0x20 ADD PUSH1 0x7 DUP3 ADD SLOAD DUP2 MSTORE PUSH1 0x20 ADD PUSH1 0x8 DUP3 ADD SLOAD DUP2 MSTORE PUSH1 0x20 ADD PUSH1 0x9 DUP3 ADD SLOAD DUP2 MSTORE PUSH1 0x20 ADD PUSH1 0xA DUP3 ADD PUSH1 0x0 SWAP1 SLOAD SWAP1 PUSH2 0x100 EXP SWAP1 DIV PUSH1 0xFF AND ISZERO ISZERO ISZERO ISZERO DUP2 MSTORE POP POP DUP2 MSTORE PUSH1 0x20 ADD SWAP1 PUSH1 0x1 ADD SWAP1 PUSH2 0x927 JUMP JUMPDEST POP POP POP POP SWAP1 POP SWAP2 SWAP1 POP JUMP JUMPDEST PUSH1 0x5 PUSH1 0x20 MSTORE DUP2 PUSH1 0x0 MSTORE PUSH1 0x40 PUSH1 0x0 KECCAK256 PUSH1 0x20 MSTORE DUP1 PUSH1 0x0 MSTORE PUSH1 0x40 PUSH1 0x0 KECCAK256 PUSH1 0x0 SWAP2 POP SWAP2 POP POP SLOAD DUP2 JUMP JUMPDEST PUSH32 0x0 DUP2 JUMP JUMPDEST PUSH32 0x0 DUP2 JUMP JUMPDEST PUSH2 0xAF2 PUSH2 0xF86 JUMP JUMPDEST PUSH1 0x0 PUSH20 0xFFFFFFFFFFFFFFFFFFFFFFFFFFFFFFFFFFFFFFFF AND DUP2 PUSH20 0xFFFFFFFFFFFFFFFFFFFFFFFFFFFFFFFFFFFFFFFF AND SUB PUSH2 0xB61 JUMPI PUSH1 0x40 MLOAD PUSH32 0x8C379A000000000000000000000000000000000000000000000000000000000 DUP2 MSTORE PUSH1 0x4 ADD PUSH2 0xB58 SWAP1 PUSH2 0x1FF1 JUMP JUMPDEST PUSH1 0x40 MLOAD DUP1 SWAP2 SUB SWAP1 REVERT JUMPDEST PUSH2 0xB6A DUP2 PUSH2 0x1028 JUMP JUMPDEST POP JUMP JUMPDEST PUSH2 0xB75 PUSH2 0x10EC JUMP JUMPDEST PUSH1 0x0 PUSH1 0x4 PUSH1 0x0 DUP6 DUP2 MSTORE PUSH1 0x20 ADD SWAP1 DUP2 MSTORE PUSH1 0x20 ADD PUSH1 0x0 KECCAK256 SWAP1 POP PUSH1 0x0 DUP1 PUSH1 0x0 SWAP1 POP PUSH1 0x0 JUMPDEST DUP4 PUSH1 0x3 ADD DUP1 SLOAD SWAP1 POP DUP2 LT ISZERO PUSH2 0xF35 JUMPI DUP6 DUP5 PUSH1 0x3 ADD DUP3 DUP2 SLOAD DUP2 LT PUSH2 0xBBC JUMPI PUSH2 0xBBB PUSH2 0x1D77 JUMP JUMPDEST JUMPDEST SWAP1 PUSH1 0x0 MSTORE PUSH1 0x20 PUSH1 0x0 KECCAK256 SWAP1 PUSH1 0xB MUL ADD PUSH1 0x0 ADD SLOAD SUB PUSH2 0xF28 JUMPI DUP4 PUSH1 0x3 ADD DUP2 DUP2 SLOAD DUP2 LT PUSH2 0xBE9 JUMPI PUSH2 0xBE8 PUSH2 0x1D77 JUMP JUMPDEST JUMPDEST SWAP1 PUSH1 0x0 MSTORE PUSH1 0x20 PUSH1 0x0 KECCAK256 SWAP1 PUSH1 0xB MUL ADD SWAP3 POP DUP3 PUSH1 0x6 ADD PUSH1 0x0 SWAP1 SLOAD SWAP1 PUSH2 0x100 EXP SWAP1 DIV PUSH1 0xFF AND ISZERO PUSH2 0xC4B JUMPI PUSH1 0x40 MLOAD PUSH32 0x8C379A000000000000000000000000000000000000000000000000000000000 DUP2 MSTORE PUSH1 0x4 ADD PUSH2 0xC42 SWAP1 PUSH2 0x2083 JUMP JUMPDEST PUSH1 0x40 MLOAD DUP1 SWAP2 SUB SWAP1 REVERT JUMPDEST DUP3 PUSH1 0x3 ADD SLOAD DUP6 DUP5 PUSH1 0x2 ADD SLOAD PUSH2 0xC60 SWAP2 SWAP1 PUSH2 0x20A3 JUMP JUMPDEST GT ISZERO PUSH2 0xCA1 JUMPI PUSH1 0x40 MLOAD PUSH32 0x8C379A000000000000000000000000000000000000000000000000000000000 DUP2 MSTORE PUSH1 0x4 ADD PUSH2 0xC98 SWAP1 PUSH2 0x2123 JUMP JUMPDEST PUSH1 0x40 MLOAD DUP1 SWAP2 SUB SWAP1 REVERT JUMPDEST DUP3 PUSH1 0x7 ADD SLOAD TIMESTAMP GT PUSH2 0xCE7 JUMPI PUSH1 0x40 MLOAD PUSH32 0x8C379A000000000000000000000000000000000000000000000000000000000 DUP2 MSTORE PUSH1 0x4 ADD PUSH2 0xCDE SWAP1 PUSH2 0x218F JUMP JUMPDEST PUSH1 0x40 MLOAD DUP1 SWAP2 SUB SWAP1 REVERT JUMPDEST DUP3 PUSH1 0x8 ADD SLOAD TIMESTAMP LT PUSH2 0xD2D JUMPI PUSH1 0x40 MLOAD PUSH32 0x8C379A000000000000000000000000000000000000000000000000000000000 DUP2 MSTORE PUSH1 0x4 ADD PUSH2 0xD24 SWAP1 PUSH2 0x218F JUMP JUMPDEST PUSH1 0x40 MLOAD DUP1 SWAP2 SUB SWAP1 REVERT JUMPDEST PUSH1 0x0 DUP4 PUSH1 0x4 ADD SLOAD DUP7 PUSH2 0xD3F SWAP2 SWAP1 PUSH2 0x21AF JUMP JUMPDEST SWAP1 POP DUP6 PUSH1 0x5 PUSH1 0x0 CALLER PUSH20 0xFFFFFFFFFFFFFFFFFFFFFFFFFFFFFFFFFFFFFFFF AND PUSH20 0xFFFFFFFFFFFFFFFFFFFFFFFFFFFFFFFFFFFFFFFF AND DUP2 MSTORE PUSH1 0x20 ADD SWAP1 DUP2 MSTORE PUSH1 0x20 ADD PUSH1 0x0 KECCAK256 PUSH1 0x0 DUP10 DUP2 MSTORE PUSH1 0x20 ADD SWAP1 DUP2 MSTORE PUSH1 0x20 ADD PUSH1 0x0 KECCAK256 PUSH1 0x0 DUP3 DUP3 SLOAD PUSH2 0xDA1 SWAP2 SWAP1 PUSH2 0x20A3 JUMP JUMPDEST SWAP3 POP POP DUP2 SWAP1 SSTORE POP DUP6 DUP5 PUSH1 0x2 ADD PUSH1 0x0 DUP3 DUP3 SLOAD PUSH2 0xDBC SWAP2 SWAP1 PUSH2 0x20A3 JUMP JUMPDEST SWAP3 POP POP DUP2 SWAP1 SSTORE POP PUSH32 0x0 PUSH20 0xFFFFFFFFFFFFFFFFFFFFFFFFFFFFFFFFFFFFFFFF AND PUSH4 0x23B872DD CALLER ADDRESS DUP5 PUSH1 0x40 MLOAD DUP5 PUSH4 0xFFFFFFFF AND PUSH1 0xE0 SHL DUP2 MSTORE PUSH1 0x4 ADD PUSH2 0xE20 SWAP4 SWAP3 SWAP2 SWAP1 PUSH2 0x21F1 JUMP JUMPDEST PUSH1 0x20 PUSH1 0x40 MLOAD DUP1 DUP4 SUB DUP2 PUSH1 0x0 DUP8 GAS CALL ISZERO DUP1 ISZERO PUSH2 0xE3F JUMPI RETURNDATASIZE PUSH1 0x0 DUP1 RETURNDATACOPY RETURNDATASIZE PUSH1 0x0 REVERT JUMPDEST POP POP POP POP PUSH1 0x40 MLOAD RETURNDATASIZE PUSH1 0x1F NOT PUSH1 0x1F DUP3 ADD AND DUP3 ADD DUP1 PUSH1 0x40 MSTORE POP DUP2 ADD SWAP1 PUSH2 0xE63 SWAP2 SWAP1 PUSH2 0x1D4A JUMP JUMPDEST PUSH2 0xEA2 JUMPI PUSH1 0x40 MLOAD PUSH32 0x8C379A000000000000000000000000000000000000000000000000000000000 DUP2 MSTORE PUSH1 0x4 ADD PUSH2 0xE99 SWAP1 PUSH2 0x2274 JUMP JUMPDEST PUSH1 0x40 MLOAD DUP1 SWAP2 SUB SWAP1 REVERT JUMPDEST PUSH1 0x1 SWAP3 POP DUP4 PUSH1 0x3 ADD SLOAD DUP5 PUSH1 0x2 ADD SLOAD SUB PUSH2 0xF22 JUMPI PUSH1 0x1 DUP5 PUSH1 0x6 ADD PUSH1 0x0 PUSH2 0x100 EXP DUP2 SLOAD DUP2 PUSH1 0xFF MUL NOT AND SWAP1 DUP4 ISZERO ISZERO MUL OR SWAP1 SSTORE POP TIMESTAMP DUP5 PUSH1 0x8 ADD DUP2 SWAP1 SSTORE POP PUSH32 0x48BDD33BB928F44A7B0B890963D9AFE34ABF223C0DE29E0174CD429D9AC0C18A DUP5 PUSH1 0x0 ADD SLOAD DUP6 PUSH1 0x1 ADD DUP7 PUSH1 0x9 ADD SLOAD PUSH1 0x40 MLOAD PUSH2 0xF19 SWAP4 SWAP3 SWAP2 SWAP1 PUSH2 0x2364 JUMP JUMPDEST PUSH1 0x40 MLOAD DUP1 SWAP2 SUB SWAP1 LOG1 JUMPDEST POP PUSH2 0xF35 JUMP JUMPDEST DUP1 DUP1 PUSH1 0x1 ADD SWAP2 POP POP PUSH2 0xB96 JUMP JUMPDEST POP DUP1 PUSH2 0xF76 JUMPI PUSH1 0x40 MLOAD PUSH32 0x8C379A000000000000000000000000000000000000000000000000000000000 DUP2 MSTORE PUSH1 0x4 ADD PUSH2 0xF6D SWAP1 PUSH2 0x2401 JUMP JUMPDEST PUSH1 0x40 MLOAD DUP1 SWAP2 SUB SWAP1 REVERT JUMPDEST POP POP POP PUSH2 0xF81 PUSH2 0x113B JUMP JUMPDEST POP POP POP JUMP JUMPDEST PUSH2 0xF8E PUSH2 0x1144 JUMP JUMPDEST PUSH20 0xFFFFFFFFFFFFFFFFFFFFFFFFFFFFFFFFFFFFFFFF AND PUSH2 0xFAC PUSH2 0x595 JUMP JUMPDEST PUSH20 0xFFFFFFFFFFFFFFFFFFFFFFFFFFFFFFFFFFFFFFFF AND EQ PUSH2 0x1002 JUMPI PUSH1 0x40 MLOAD PUSH32 0x8C379A000000000000000000000000000000000000000000000000000000000 DUP2 MSTORE PUSH1 0x4 ADD PUSH2 0xFF9 SWAP1 PUSH2 0x246D JUMP JUMPDEST PUSH1 0x40 MLOAD DUP1 SWAP2 SUB SWAP1 REVERT JUMPDEST JUMP JUMPDEST PUSH1 0x0 DUP2 PUSH1 0x0 ADD SLOAD SWAP1 POP SWAP2 SWAP1 POP JUMP JUMPDEST PUSH1 0x1 DUP2 PUSH1 0x0 ADD PUSH1 0x0 DUP3 DUP3 SLOAD ADD SWAP3 POP POP DUP2 SWAP1 SSTORE POP POP JUMP JUMPDEST PUSH1 0x0 DUP1 PUSH1 0x0 SWAP1 SLOAD SWAP1 PUSH2 0x100 EXP SWAP1 DIV PUSH20 0xFFFFFFFFFFFFFFFFFFFFFFFFFFFFFFFFFFFFFFFF AND SWAP1 POP DUP2 PUSH1 0x0 DUP1 PUSH2 0x100 EXP DUP2 SLOAD DUP2 PUSH20 0xFFFFFFFFFFFFFFFFFFFFFFFFFFFFFFFFFFFFFFFF MUL NOT AND SWAP1 DUP4 PUSH20 0xFFFFFFFFFFFFFFFFFFFFFFFFFFFFFFFFFFFFFFFF AND MUL OR SWAP1 SSTORE POP DUP2 PUSH20 0xFFFFFFFFFFFFFFFFFFFFFFFFFFFFFFFFFFFFFFFF AND DUP2 PUSH20 0xFFFFFFFFFFFFFFFFFFFFFFFFFFFFFFFFFFFFFFFF AND PUSH32 0x8BE0079C531659141344CD1FD0A4F28419497F9722A3DAAFE3B4186F6B6457E0 PUSH1 0x40 MLOAD PUSH1 0x40 MLOAD DUP1 SWAP2 SUB SWAP1 LOG3 POP POP JUMP JUMPDEST PUSH1 0x2 PUSH1 0x1 SLOAD SUB PUSH2 0x1131 JUMPI PUSH1 0x40 MLOAD PUSH32 0x8C379A000000000000000000000000000000000000000000000000000000000 DUP2 MSTORE PUSH1 0x4 ADD PUSH2 0x1128 SWAP1 PUSH2 0x24D9 JUMP JUMPDEST PUSH1 0x40 MLOAD DUP1 SWAP2 SUB SWAP1 REVERT JUMPDEST PUSH1 0x2 PUSH1 0x1 DUP2 SWAP1 SSTORE POP JUMP JUMPDEST PUSH1 0x1 DUP1 DUP2 SWAP1 SSTORE POP JUMP JUMPDEST PUSH1 0x0 CALLER SWAP1 POP SWAP1 JUMP JUMPDEST PUSH1 0x0 PUSH1 0x40 MLOAD SWAP1 POP SWAP1 JUMP JUMPDEST PUSH1 0x0 DUP1 REVERT JUMPDEST PUSH1 0x0 DUP1 REVERT JUMPDEST PUSH1 0x0 DUP2 SWAP1 POP SWAP2 SWAP1 POP JUMP JUMPDEST PUSH2 0x1173 DUP2 PUSH2 0x1160 JUMP JUMPDEST DUP2 EQ PUSH2 0x117E JUMPI PUSH1 0x0 DUP1 REVERT JUMPDEST POP JUMP JUMPDEST PUSH1 0x0 DUP2 CALLDATALOAD SWAP1 POP PUSH2 0x1190 DUP2 PUSH2 0x116A JUMP JUMPDEST SWAP3 SWAP2 POP POP JUMP JUMPDEST PUSH1 0x0 PUSH1 0x20 DUP3 DUP5 SUB SLT ISZERO PUSH2 0x11AC JUMPI PUSH2 0x11AB PUSH2 0x1156 JUMP JUMPDEST JUMPDEST PUSH1 0x0 PUSH2 0x11BA DUP5 DUP3 DUP6 ADD PUSH2 0x1181 JUMP JUMPDEST SWAP2 POP POP SWAP3 SWAP2 POP POP JUMP JUMPDEST PUSH2 0x11CC DUP2 PUSH2 0x1160 JUMP JUMPDEST DUP3 MSTORE POP POP JUMP JUMPDEST PUSH1 0x0 PUSH1 0x80 DUP3 ADD SWAP1 POP PUSH2 0x11E7 PUSH1 0x0 DUP4 ADD DUP8 PUSH2 0x11C3 JUMP JUMPDEST PUSH2 0x11F4 PUSH1 0x20 DUP4 ADD DUP7 PUSH2 0x11C3 JUMP JUMPDEST PUSH2 0x1201 PUSH1 0x40 DUP4 ADD DUP6 PUSH2 0x11C3 JUMP JUMPDEST PUSH2 0x120E PUSH1 0x60 DUP4 ADD DUP5 PUSH2 0x11C3 JUMP JUMPDEST SWAP6 SWAP5 POP POP POP POP POP JUMP JUMPDEST PUSH1 0x0 DUP1 REVERT JUMPDEST PUSH1 0x0 DUP1 REVERT JUMPDEST PUSH1 0x0 PUSH1 0x1F NOT PUSH1 0x1F DUP4 ADD AND SWAP1 POP SWAP2 SWAP1 POP JUMP JUMPDEST PUSH32 0x4E487B7100000000000000000000000000000000000000000000000000000000 PUSH1 0x0 MSTORE PUSH1 0x41 PUSH1 0x4 MSTORE PUSH1 0x24 PUSH1 0x0 REVERT JUMPDEST PUSH2 0x126A DUP3 PUSH2 0x1221 JUMP JUMPDEST DUP2 ADD DUP2 DUP2 LT PUSH8 0xFFFFFFFFFFFFFFFF DUP3 GT OR ISZERO PUSH2 0x1289 JUMPI PUSH2 0x1288 PUSH2 0x1232 JUMP JUMPDEST JUMPDEST DUP1 PUSH1 0x40 MSTORE POP POP POP JUMP JUMPDEST PUSH1 0x0 PUSH2 0x129C PUSH2 0x114C JUMP JUMPDEST SWAP1 POP PUSH2 0x12A8 DUP3 DUP3 PUSH2 0x1261 JUMP JUMPDEST SWAP2 SWAP1 POP JUMP JUMPDEST PUSH1 0x0 PUSH8 0xFFFFFFFFFFFFFFFF DUP3 GT ISZERO PUSH2 0x12C8 JUMPI PUSH2 0x12C7 PUSH2 0x1232 JUMP JUMPDEST JUMPDEST PUSH2 0x12D1 DUP3 PUSH2 0x1221 JUMP JUMPDEST SWAP1 POP PUSH1 0x20 DUP2 ADD SWAP1 POP SWAP2 SWAP1 POP JUMP JUMPDEST DUP3 DUP2 DUP4 CALLDATACOPY PUSH1 0x0 DUP4 DUP4 ADD MSTORE POP POP POP JUMP JUMPDEST PUSH1 0x0 PUSH2 0x1300 PUSH2 0x12FB DUP5 PUSH2 0x12AD JUMP JUMPDEST PUSH2 0x1292 JUMP JUMPDEST SWAP1 POP DUP3 DUP2 MSTORE PUSH1 0x20 DUP2 ADD DUP5 DUP5 DUP5 ADD GT ISZERO PUSH2 0x131C JUMPI PUSH2 0x131B PUSH2 0x121C JUMP JUMPDEST JUMPDEST PUSH2 0x1327 DUP5 DUP3 DUP6 PUSH2 0x12DE JUMP JUMPDEST POP SWAP4 SWAP3 POP POP POP JUMP JUMPDEST PUSH1 0x0 DUP3 PUSH1 0x1F DUP4 ADD SLT PUSH2 0x1344 JUMPI PUSH2 0x1343 PUSH2 0x1217 JUMP JUMPDEST JUMPDEST DUP2 CALLDATALOAD PUSH2 0x1354 DUP5 DUP3 PUSH1 0x20 DUP7 ADD PUSH2 0x12ED JUMP JUMPDEST SWAP2 POP POP SWAP3 SWAP2 POP POP JUMP JUMPDEST PUSH1 0x0 DUP2 ISZERO ISZERO SWAP1 POP SWAP2 SWAP1 POP JUMP JUMPDEST PUSH2 0x1372 DUP2 PUSH2 0x135D JUMP JUMPDEST DUP2 EQ PUSH2 0x137D JUMPI PUSH1 0x0 DUP1 REVERT JUMPDEST POP JUMP JUMPDEST PUSH1 0x0 DUP2 CALLDATALOAD SWAP1 POP PUSH2 0x138F DUP2 PUSH2 0x1369 JUMP JUMPDEST SWAP3 SWAP2 POP POP JUMP JUMPDEST PUSH1 0x0 DUP1 PUSH1 0x0 DUP1 PUSH1 0x0 DUP1 PUSH1 0x0 DUP1 PUSH1 0x0 PUSH2 0x120 DUP11 DUP13 SUB SLT ISZERO PUSH2 0x13B8 JUMPI PUSH2 0x13B7 PUSH2 0x1156 JUMP JUMPDEST JUMPDEST PUSH1 0x0 PUSH2 0x13C6 DUP13 DUP3 DUP14 ADD PUSH2 0x1181 JUMP JUMPDEST SWAP10 POP POP PUSH1 0x20 DUP11 ADD CALLDATALOAD PUSH8 0xFFFFFFFFFFFFFFFF DUP2 GT ISZERO PUSH2 0x13E7 JUMPI PUSH2 0x13E6 PUSH2 0x115B JUMP JUMPDEST JUMPDEST PUSH2 0x13F3 DUP13 DUP3 DUP14 ADD PUSH2 0x132F JUMP JUMPDEST SWAP9 POP POP PUSH1 0x40 PUSH2 0x1404 DUP13 DUP3 DUP14 ADD PUSH2 0x1181 JUMP JUMPDEST SWAP8 POP POP PUSH1 0x60 PUSH2 0x1415 DUP13 DUP3 DUP14 ADD PUSH2 0x1181 JUMP JUMPDEST SWAP7 POP POP PUSH1 0x80 PUSH2 0x1426 DUP13 DUP3 DUP14 ADD PUSH2 0x1181 JUMP JUMPDEST SWAP6 POP POP PUSH1 0xA0 PUSH2 0x1437 DUP13 DUP3 DUP14 ADD PUSH2 0x1181 JUMP JUMPDEST SWAP5 POP POP PUSH1 0xC0 PUSH2 0x1448 DUP13 DUP3 DUP14 ADD PUSH2 0x1181 JUMP JUMPDEST SWAP4 POP POP PUSH1 0xE0 PUSH2 0x1459 DUP13 DUP3 DUP14 ADD PUSH2 0x1380 JUMP JUMPDEST SWAP3 POP POP PUSH2 0x100 PUSH2 0x146B DUP13 DUP3 DUP14 ADD PUSH2 0x1181 JUMP JUMPDEST SWAP2 POP POP SWAP3 SWAP6 SWAP9 POP SWAP3 SWAP6 SWAP9 POP SWAP3 SWAP6 SWAP9 JUMP JUMPDEST PUSH1 0x0 DUP1 PUSH1 0x40 DUP4 DUP6 SUB SLT ISZERO PUSH2 0x1492 JUMPI PUSH2 0x1491 PUSH2 0x1156 JUMP JUMPDEST JUMPDEST PUSH1 0x0 PUSH2 0x14A0 DUP6 DUP3 DUP7 ADD PUSH2 0x1181 JUMP JUMPDEST SWAP3 POP POP PUSH1 0x20 PUSH2 0x14B1 DUP6 DUP3 DUP7 ADD PUSH2 0x1181 JUMP JUMPDEST SWAP2 POP POP SWAP3 POP SWAP3 SWAP1 POP JUMP JUMPDEST PUSH1 0x0 PUSH20 0xFFFFFFFFFFFFFFFFFFFFFFFFFFFFFFFFFFFFFFFF DUP3 AND SWAP1 POP SWAP2 SWAP1 POP JUMP JUMPDEST PUSH1 0x0 PUSH2 0x14E6 DUP3 PUSH2 0x14BB JUMP JUMPDEST SWAP1 POP SWAP2 SWAP1 POP JUMP JUMPDEST PUSH2 0x14F6 DUP2 PUSH2 0x14DB JUMP JUMPDEST DUP3 MSTORE POP POP JUMP JUMPDEST PUSH1 0x0 PUSH1 0x20 DUP3 ADD SWAP1 POP PUSH2 0x1511 PUSH1 0x0 DUP4 ADD DUP5 PUSH2 0x14ED JUMP JUMPDEST SWAP3 SWAP2 POP POP JUMP JUMPDEST PUSH1 0x0 DUP2 MLOAD SWAP1 POP SWAP2 SWAP1 POP JUMP JUMPDEST PUSH1 0x0 DUP3 DUP3 MSTORE PUSH1 0x20 DUP3 ADD SWAP1 POP SWAP3 SWAP2 POP POP JUMP JUMPDEST PUSH1 0x0 DUP2 SWAP1 POP PUSH1 0x20 DUP3 ADD SWAP1 POP SWAP2 SWAP1 POP JUMP JUMPDEST PUSH2 0x154C DUP2 PUSH2 0x1160 JUMP JUMPDEST DUP3 MSTORE POP POP JUMP JUMPDEST PUSH1 0x0 DUP2 MLOAD SWAP1 POP SWAP2 SWAP1 POP JUMP JUMPDEST PUSH1 0x0 DUP3 DUP3 MSTORE PUSH1 0x20 DUP3 ADD SWAP1 POP SWAP3 SWAP2 POP POP JUMP JUMPDEST PUSH1 0x0 JUMPDEST DUP4 DUP2 LT ISZERO PUSH2 0x158C JUMPI DUP1 DUP3 ADD MLOAD DUP2 DUP5 ADD MSTORE PUSH1 0x20 DUP2 ADD SWAP1 POP PUSH2 0x1571 JUMP JUMPDEST PUSH1 0x0 DUP5 DUP5 ADD MSTORE POP POP POP POP JUMP JUMPDEST PUSH1 0x0 PUSH2 0x15A3 DUP3 PUSH2 0x1552 JUMP JUMPDEST PUSH2 0x15AD DUP2 DUP6 PUSH2 0x155D JUMP JUMPDEST SWAP4 POP PUSH2 0x15BD DUP2 DUP6 PUSH1 0x20 DUP7 ADD PUSH2 0x156E JUMP JUMPDEST PUSH2 0x15C6 DUP2 PUSH2 0x1221 JUMP JUMPDEST DUP5 ADD SWAP2 POP POP SWAP3 SWAP2 POP POP JUMP JUMPDEST PUSH2 0x15DA DUP2 PUSH2 0x135D JUMP JUMPDEST DUP3 MSTORE POP POP JUMP JUMPDEST PUSH1 0x0 PUSH2 0x160 DUP4 ADD PUSH1 0x0 DUP4 ADD MLOAD PUSH2 0x15F9 PUSH1 0x0 DUP7 ADD DUP3 PUSH2 0x1543 JUMP JUMPDEST POP PUSH1 0x20 DUP4 ADD MLOAD DUP5 DUP3 SUB PUSH1 0x20 DUP7 ADD MSTORE PUSH2 0x1611 DUP3 DUP3 PUSH2 0x1598 JUMP JUMPDEST SWAP2 POP POP PUSH1 0x40 DUP4 ADD MLOAD PUSH2 0x1626 PUSH1 0x40 DUP7 ADD DUP3 PUSH2 0x1543 JUMP JUMPDEST POP PUSH1 0x60 DUP4 ADD MLOAD PUSH2 0x1639 PUSH1 0x60 DUP7 ADD DUP3 PUSH2 0x1543 JUMP JUMPDEST POP PUSH1 0x80 DUP4 ADD MLOAD PUSH2 0x164C PUSH1 0x80 DUP7 ADD DUP3 PUSH2 0x1543 JUMP JUMPDEST POP PUSH1 0xA0 DUP4 ADD MLOAD PUSH2 0x165F PUSH1 0xA0 DUP7 ADD DUP3 PUSH2 0x1543 JUMP JUMPDEST POP PUSH1 0xC0 DUP4 ADD MLOAD PUSH2 0x1672 PUSH1 0xC0 DUP7 ADD DUP3 PUSH2 0x15D1 JUMP JUMPDEST POP PUSH1 0xE0 DUP4 ADD MLOAD PUSH2 0x1685 PUSH1 0xE0 DUP7 ADD DUP3 PUSH2 0x1543 JUMP JUMPDEST POP PUSH2 0x100 DUP4 ADD MLOAD PUSH2 0x169A PUSH2 0x100 DUP7 ADD DUP3 PUSH2 0x1543 JUMP JUMPDEST POP PUSH2 0x120 DUP4 ADD MLOAD PUSH2 0x16AF PUSH2 0x120 DUP7 ADD DUP3 PUSH2 0x1543 JUMP JUMPDEST POP PUSH2 0x140 DUP4 ADD MLOAD PUSH2 0x16C4 PUSH2 0x140 DUP7 ADD DUP3 PUSH2 0x15D1 JUMP JUMPDEST POP DUP1 SWAP2 POP POP SWAP3 SWAP2 POP POP JUMP JUMPDEST PUSH1 0x0 PUSH2 0x16DB DUP4 DUP4 PUSH2 0x15E0 JUMP JUMPDEST SWAP1 POP SWAP3 SWAP2 POP POP JUMP JUMPDEST PUSH1 0x0 PUSH1 0x20 DUP3 ADD SWAP1 POP SWAP2 SWAP1 POP JUMP JUMPDEST PUSH1 0x0 PUSH2 0x16FB DUP3 PUSH2 0x1517 JUMP JUMPDEST PUSH2 0x1705 DUP2 DUP6 PUSH2 0x1522 JUMP JUMPDEST SWAP4 POP DUP4 PUSH1 0x20 DUP3 MUL DUP6 ADD PUSH2 0x1717 DUP6 PUSH2 0x1533 JUMP JUMPDEST DUP1 PUSH1 0x0 JUMPDEST DUP6 DUP2 LT ISZERO PUSH2 0x1753 JUMPI DUP5 DUP5 SUB DUP10 MSTORE DUP2 MLOAD PUSH2 0x1734 DUP6 DUP3 PUSH2 0x16CF JUMP JUMPDEST SWAP5 POP PUSH2 0x173F DUP4 PUSH2 0x16E3 JUMP JUMPDEST SWAP3 POP PUSH1 0x20 DUP11 ADD SWAP10 POP POP PUSH1 0x1 DUP2 ADD SWAP1 POP PUSH2 0x171B JUMP JUMPDEST POP DUP3 SWAP8 POP DUP8 SWAP6 POP POP POP POP POP POP SWAP3 SWAP2 POP POP JUMP JUMPDEST PUSH1 0x0 PUSH1 0x20 DUP3 ADD SWAP1 POP DUP2 DUP2 SUB PUSH1 0x0 DUP4 ADD MSTORE PUSH2 0x177F DUP2 DUP5 PUSH2 0x16F0 JUMP JUMPDEST SWAP1 POP SWAP3 SWAP2 POP POP JUMP JUMPDEST PUSH2 0x1790 DUP2 PUSH2 0x14DB JUMP JUMPDEST DUP2 EQ PUSH2 0x179B JUMPI PUSH1 0x0 DUP1 REVERT JUMPDEST POP JUMP JUMPDEST PUSH1 0x0 DUP2 CALLDATALOAD SWAP1 POP PUSH2 0x17AD DUP2 PUSH2 0x1787 JUMP JUMPDEST SWAP3 SWAP2 POP POP JUMP JUMPDEST PUSH1 0x0 DUP1 PUSH1 0x40 DUP4 DUP6 SUB SLT ISZERO PUSH2 0x17CA JUMPI PUSH2 0x17C9 PUSH2 0x1156 JUMP JUMPDEST JUMPDEST PUSH1 0x0 PUSH2 0x17D8 DUP6 DUP3 DUP7 ADD PUSH2 0x179E JUMP JUMPDEST SWAP3 POP POP PUSH1 0x20 PUSH2 0x17E9 DUP6 DUP3 DUP7 ADD PUSH2 0x1181 JUMP JUMPDEST SWAP2 POP POP SWAP3 POP SWAP3 SWAP1 POP JUMP JUMPDEST PUSH1 0x0 PUSH1 0x20 DUP3 ADD SWAP1 POP PUSH2 0x1808 PUSH1 0x0 DUP4 ADD DUP5 PUSH2 0x11C3 JUMP JUMPDEST SWAP3 SWAP2 POP POP JUMP JUMPDEST PUSH1 0x0 DUP2 SWAP1 POP SWAP2 SWAP1 POP JUMP JUMPDEST PUSH1 0x0 PUSH2 0x1833 PUSH2 0x182E PUSH2 0x1829 DUP5 PUSH2 0x14BB JUMP JUMPDEST PUSH2 0x180E JUMP JUMPDEST PUSH2 0x14BB JUMP JUMPDEST SWAP1 POP SWAP2 SWAP1 POP JUMP JUMPDEST PUSH1 0x0 PUSH2 0x1845 DUP3 PUSH2 0x1818 JUMP JUMPDEST SWAP1 POP SWAP2 SWAP1 POP JUMP JUMPDEST PUSH1 0x0 PUSH2 0x1857 DUP3 PUSH2 0x183A JUMP JUMPDEST SWAP1 POP SWAP2 SWAP1 POP JUMP JUMPDEST PUSH2 0x1867 DUP2 PUSH2 0x184C JUMP JUMPDEST DUP3 MSTORE POP POP JUMP JUMPDEST PUSH1 0x0 PUSH1 0x20 DUP3 ADD SWAP1 POP PUSH2 0x1882 PUSH1 0x0 DUP4 ADD DUP5 PUSH2 0x185E JUMP JUMPDEST SWAP3 SWAP2 POP POP JUMP JUMPDEST PUSH1 0x0 PUSH2 0x1893 DUP3 PUSH2 0x183A JUMP JUMPDEST SWAP1 POP SWAP2 SWAP1 POP JUMP JUMPDEST PUSH2 0x18A3 DUP2 PUSH2 0x1888 JUMP JUMPDEST DUP3 MSTORE POP POP JUMP JUMPDEST PUSH1 0x0 PUSH1 0x20 DUP3 ADD SWAP1 POP PUSH2 0x18BE PUSH1 0x0 DUP4 ADD DUP5 PUSH2 0x189A JUMP JUMPDEST SWAP3 SWAP2 POP POP JUMP JUMPDEST PUSH1 0x0 PUSH1 0x20 DUP3 DUP5 SUB SLT ISZERO PUSH2 0x18DA JUMPI PUSH2 0x18D9 PUSH2 0x1156 JUMP JUMPDEST JUMPDEST PUSH1 0x0 PUSH2 0x18E8 DUP5 DUP3 DUP6 ADD PUSH2 0x179E JUMP JUMPDEST SWAP2 POP POP SWAP3 SWAP2 POP POP JUMP JUMPDEST PUSH1 0x0 DUP1 PUSH1 0x0 PUSH1 0x60 DUP5 DUP7 SUB SLT ISZERO PUSH2 0x190A JUMPI PUSH2 0x1909 PUSH2 0x1156 JUMP JUMPDEST JUMPDEST PUSH1 0x0 PUSH2 0x1918 DUP7 DUP3 DUP8 ADD PUSH2 0x1181 JUMP JUMPDEST SWAP4 POP POP PUSH1 0x20 PUSH2 0x1929 DUP7 DUP3 DUP8 ADD PUSH2 0x1181 JUMP JUMPDEST SWAP3 POP POP PUSH1 0x40 PUSH2 0x193A DUP7 DUP3 DUP8 ADD PUSH2 0x1181 JUMP JUMPDEST SWAP2 POP POP SWAP3 POP SWAP3 POP SWAP3 JUMP JUMPDEST PUSH1 0x0 DUP3 DUP3 MSTORE PUSH1 0x20 DUP3 ADD SWAP1 POP SWAP3 SWAP2 POP POP JUMP JUMPDEST PUSH32 0x67616D6520646F6573206E6F7420657869737400000000000000000000000000 PUSH1 0x0 DUP3 ADD MSTORE POP JUMP JUMPDEST PUSH1 0x0 PUSH2 0x198B PUSH1 0x13 DUP4 PUSH2 0x1944 JUMP JUMPDEST SWAP2 POP PUSH2 0x1996 DUP3 PUSH2 0x1955 JUMP JUMPDEST PUSH1 0x20 DUP3 ADD SWAP1 POP SWAP2 SWAP1 POP JUMP JUMPDEST PUSH1 0x0 PUSH1 0x20 DUP3 ADD SWAP1 POP DUP2 DUP2 SUB PUSH1 0x0 DUP4 ADD MSTORE PUSH2 0x19BA DUP2 PUSH2 0x197E JUMP JUMPDEST SWAP1 POP SWAP2 SWAP1 POP JUMP JUMPDEST PUSH32 0x4E487B7100000000000000000000000000000000000000000000000000000000 PUSH1 0x0 MSTORE PUSH1 0x22 PUSH1 0x4 MSTORE PUSH1 0x24 PUSH1 0x0 REVERT JUMPDEST PUSH1 0x0 PUSH1 0x2 DUP3 DIV SWAP1 POP PUSH1 0x1 DUP3 AND DUP1 PUSH2 0x1A08 JUMPI PUSH1 0x7F DUP3 AND SWAP2 POP JUMPDEST PUSH1 0x20 DUP3 LT DUP2 SUB PUSH2 0x1A1B JUMPI PUSH2 0x1A1A PUSH2 0x19C1 JUMP JUMPDEST JUMPDEST POP SWAP2 SWAP1 POP JUMP JUMPDEST PUSH1 0x0 DUP2 SWAP1 POP DUP2 PUSH1 0x0 MSTORE PUSH1 0x20 PUSH1 0x0 KECCAK256 SWAP1 POP SWAP2 SWAP1 POP JUMP JUMPDEST PUSH1 0x0 PUSH1 0x20 PUSH1 0x1F DUP4 ADD DIV SWAP1 POP SWAP2 SWAP1 POP JUMP JUMPDEST PUSH1 0x0 DUP3 DUP3 SHL SWAP1 POP SWAP3 SWAP2 POP POP JUMP JUMPDEST PUSH1 0x0 PUSH1 0x8 DUP4 MUL PUSH2 0x1A83 PUSH32 0xFFFFFFFFFFFFFFFFFFFFFFFFFFFFFFFFFFFFFFFFFFFFFFFFFFFFFFFFFFFFFFFF DUP3 PUSH2 0x1A46 JUMP JUMPDEST PUSH2 0x1A8D DUP7 DUP4 PUSH2 0x1A46 JUMP JUMPDEST SWAP6 POP DUP1 NOT DUP5 AND SWAP4 POP DUP1 DUP7 AND DUP5 OR SWAP3 POP POP POP SWAP4 SWAP3 POP POP POP JUMP JUMPDEST PUSH1 0x0 PUSH2 0x1AC0 PUSH2 0x1ABB PUSH2 0x1AB6 DUP5 PUSH2 0x1160 JUMP JUMPDEST PUSH2 0x180E JUMP JUMPDEST PUSH2 0x1160 JUMP JUMPDEST SWAP1 POP SWAP2 SWAP1 POP JUMP JUMPDEST PUSH1 0x0 DUP2 SWAP1 POP SWAP2 SWAP1 POP JUMP JUMPDEST PUSH2 0x1ADA DUP4 PUSH2 0x1AA5 JUMP JUMPDEST PUSH2 0x1AEE PUSH2 0x1AE6 DUP3 PUSH2 0x1AC7 JUMP JUMPDEST DUP5 DUP5 SLOAD PUSH2 0x1A53 JUMP JUMPDEST DUP3 SSTORE POP POP POP POP JUMP JUMPDEST PUSH1 0x0 SWAP1 JUMP JUMPDEST PUSH2 0x1B03 PUSH2 0x1AF6 JUMP JUMPDEST PUSH2 0x1B0E DUP2 DUP5 DUP5 PUSH2 0x1AD1 JUMP JUMPDEST POP POP POP JUMP JUMPDEST JUMPDEST DUP2 DUP2 LT ISZERO PUSH2 0x1B32 JUMPI PUSH2 0x1B27 PUSH1 0x0 DUP3 PUSH2 0x1AFB JUMP JUMPDEST PUSH1 0x1 DUP2 ADD SWAP1 POP PUSH2 0x1B14 JUMP JUMPDEST POP POP JUMP JUMPDEST PUSH1 0x1F DUP3 GT ISZERO PUSH2 0x1B77 JUMPI PUSH2 0x1B48 DUP2 PUSH2 0x1A21 JUMP JUMPDEST PUSH2 0x1B51 DUP5 PUSH2 0x1A36 JUMP JUMPDEST DUP2 ADD PUSH1 0x20 DUP6 LT ISZERO PUSH2 0x1B60 JUMPI DUP2 SWAP1 POP JUMPDEST PUSH2 0x1B74 PUSH2 0x1B6C DUP6 PUSH2 0x1A36 JUMP JUMPDEST DUP4 ADD DUP3 PUSH2 0x1B13 JUMP JUMPDEST POP POP JUMPDEST POP POP POP JUMP JUMPDEST PUSH1 0x0 DUP3 DUP3 SHR SWAP1 POP SWAP3 SWAP2 POP POP JUMP JUMPDEST PUSH1 0x0 PUSH2 0x1B9A PUSH1 0x0 NOT DUP5 PUSH1 0x8 MUL PUSH2 0x1B7C JUMP JUMPDEST NOT DUP1 DUP4 AND SWAP2 POP POP SWAP3 SWAP2 POP POP JUMP JUMPDEST PUSH1 0x0 PUSH2 0x1BB3 DUP4 DUP4 PUSH2 0x1B89 JUMP JUMPDEST SWAP2 POP DUP3 PUSH1 0x2 MUL DUP3 OR SWAP1 POP SWAP3 SWAP2 POP POP JUMP JUMPDEST PUSH2 0x1BCC DUP3 PUSH2 0x1552 JUMP JUMPDEST PUSH8 0xFFFFFFFFFFFFFFFF DUP2 GT ISZERO PUSH2 0x1BE5 JUMPI PUSH2 0x1BE4 PUSH2 0x1232 JUMP JUMPDEST JUMPDEST PUSH2 0x1BEF DUP3 SLOAD PUSH2 0x19F0 JUMP JUMPDEST PUSH2 0x1BFA DUP3 DUP3 DUP6 PUSH2 0x1B36 JUMP JUMPDEST PUSH1 0x0 PUSH1 0x20 SWAP1 POP PUSH1 0x1F DUP4 GT PUSH1 0x1 DUP2 EQ PUSH2 0x1C2D JUMPI PUSH1 0x0 DUP5 ISZERO PUSH2 0x1C1B JUMPI DUP3 DUP8 ADD MLOAD SWAP1 POP JUMPDEST PUSH2 0x1C25 DUP6 DUP3 PUSH2 0x1BA7 JUMP JUMPDEST DUP7 SSTORE POP PUSH2 0x1C8D JUMP JUMPDEST PUSH1 0x1F NOT DUP5 AND PUSH2 0x1C3B DUP7 PUSH2 0x1A21 JUMP JUMPDEST PUSH1 0x0 JUMPDEST DUP3 DUP2 LT ISZERO PUSH2 0x1C63 JUMPI DUP5 DUP10 ADD MLOAD DUP3 SSTORE PUSH1 0x1 DUP3 ADD SWAP2 POP PUSH1 0x20 DUP6 ADD SWAP5 POP PUSH1 0x20 DUP2 ADD SWAP1 POP PUSH2 0x1C3E JUMP JUMPDEST DUP7 DUP4 LT ISZERO PUSH2 0x1C80 JUMPI DUP5 DUP10 ADD MLOAD PUSH2 0x1C7C PUSH1 0x1F DUP10 AND DUP3 PUSH2 0x1B89 JUMP JUMPDEST DUP4 SSTORE POP JUMPDEST PUSH1 0x1 PUSH1 0x2 DUP9 MUL ADD DUP9 SSTORE POP POP POP JUMPDEST POP POP POP POP POP POP JUMP JUMPDEST PUSH32 0x4E487B7100000000000000000000000000000000000000000000000000000000 PUSH1 0x0 MSTORE PUSH1 0x11 PUSH1 0x4 MSTORE PUSH1 0x24 PUSH1 0x0 REVERT JUMPDEST PUSH1 0x0 PUSH2 0x1CCF DUP3 PUSH2 0x1160 JUMP JUMPDEST SWAP2 POP PUSH32 0xFFFFFFFFFFFFFFFFFFFFFFFFFFFFFFFFFFFFFFFFFFFFFFFFFFFFFFFFFFFFFFFF DUP3 SUB PUSH2 0x1D01 JUMPI PUSH2 0x1D00 PUSH2 0x1C95 JUMP JUMPDEST JUMPDEST PUSH1 0x1 DUP3 ADD SWAP1 POP SWAP2 SWAP1 POP JUMP JUMPDEST PUSH1 0x0 PUSH1 0x40 DUP3 ADD SWAP1 POP PUSH2 0x1D21 PUSH1 0x0 DUP4 ADD DUP6 PUSH2 0x14ED JUMP JUMPDEST PUSH2 0x1D2E PUSH1 0x20 DUP4 ADD DUP5 PUSH2 0x11C3 JUMP JUMPDEST SWAP4 SWAP3 POP POP POP JUMP JUMPDEST PUSH1 0x0 DUP2 MLOAD SWAP1 POP PUSH2 0x1D44 DUP2 PUSH2 0x1369 JUMP JUMPDEST SWAP3 SWAP2 POP POP JUMP JUMPDEST PUSH1 0x0 PUSH1 0x20 DUP3 DUP5 SUB SLT ISZERO PUSH2 0x1D60 JUMPI PUSH2 0x1D5F PUSH2 0x1156 JUMP JUMPDEST JUMPDEST PUSH1 0x0 PUSH2 0x1D6E DUP5 DUP3 DUP6 ADD PUSH2 0x1D35 JUMP JUMPDEST SWAP2 POP POP SWAP3 SWAP2 POP POP JUMP JUMPDEST PUSH32 0x4E487B7100000000000000000000000000000000000000000000000000000000 PUSH1 0x0 MSTORE PUSH1 0x32 PUSH1 0x4 MSTORE PUSH1 0x24 PUSH1 0x0 REVERT JUMPDEST PUSH32 0x70726F6475637420616374697665000000000000000000000000000000000000 PUSH1 0x0 DUP3 ADD MSTORE POP JUMP JUMPDEST PUSH1 0x0 PUSH2 0x1DDC PUSH1 0xE DUP4 PUSH2 0x1944 JUMP JUMPDEST SWAP2 POP PUSH2 0x1DE7 DUP3 PUSH2 0x1DA6 JUMP JUMPDEST PUSH1 0x20 DUP3 ADD SWAP1 POP SWAP2 SWAP1 POP JUMP JUMPDEST PUSH1 0x0 PUSH1 0x20 DUP3 ADD SWAP1 POP DUP2 DUP2 SUB PUSH1 0x0 DUP4 ADD MSTORE PUSH2 0x1E0B DUP2 PUSH2 0x1DCF JUMP JUMPDEST SWAP1 POP SWAP2 SWAP1 POP JUMP JUMPDEST PUSH32 0x70726F64756374206E6F7420696E2073746F7265000000000000000000000000 PUSH1 0x0 DUP3 ADD MSTORE POP JUMP JUMPDEST PUSH1 0x0 PUSH2 0x1E48 PUSH1 0x14 DUP4 PUSH2 0x1944 JUMP JUMPDEST SWAP2 POP PUSH2 0x1E53 DUP3 PUSH2 0x1E12 JUMP JUMPDEST PUSH1 0x20 DUP3 ADD SWAP1 POP SWAP2 SWAP1 POP JUMP JUMPDEST PUSH1 0x0 PUSH1 0x20 DUP3 ADD SWAP1 POP DUP2 DUP2 SUB PUSH1 0x0 DUP4 ADD MSTORE PUSH2 0x1E77 DUP2 PUSH2 0x1E3B JUMP JUMPDEST SWAP1 POP SWAP2 SWAP1 POP JUMP JUMPDEST PUSH32 0x6E6F20636F6E7472616374730000000000000000000000000000000000000000 PUSH1 0x0 DUP3 ADD MSTORE POP JUMP JUMPDEST PUSH1 0x0 PUSH2 0x1EB4 PUSH1 0xC DUP4 PUSH2 0x1944 JUMP JUMPDEST SWAP2 POP PUSH2 0x1EBF DUP3 PUSH2 0x1E7E JUMP JUMPDEST PUSH1 0x20 DUP3 ADD SWAP1 POP SWAP2 SWAP1 POP JUMP JUMPDEST PUSH1 0x0 PUSH1 0x20 DUP3 ADD SWAP1 POP DUP2 DUP2 SUB PUSH1 0x0 DUP4 ADD MSTORE PUSH2 0x1EE3 DUP2 PUSH2 0x1EA7 JUMP JUMPDEST SWAP1 POP SWAP2 SWAP1 POP JUMP JUMPDEST PUSH1 0x0 PUSH1 0x40 DUP3 ADD SWAP1 POP PUSH2 0x1EFF PUSH1 0x0 DUP4 ADD DUP6 PUSH2 0x11C3 JUMP JUMPDEST PUSH2 0x1F0C PUSH1 0x20 DUP4 ADD DUP5 PUSH2 0x14ED JUMP JUMPDEST SWAP4 SWAP3 POP POP POP JUMP JUMPDEST PUSH32 0x696E76616C69642070726F647563740000000000000000000000000000000000 PUSH1 0x0 DUP3 ADD MSTORE POP JUMP JUMPDEST PUSH1 0x0 PUSH2 0x1F49 PUSH1 0xF DUP4 PUSH2 0x1944 JUMP JUMPDEST SWAP2 POP PUSH2 0x1F54 DUP3 PUSH2 0x1F13 JUMP JUMPDEST PUSH1 0x20 DUP3 ADD SWAP1 POP SWAP2 SWAP1 POP JUMP JUMPDEST PUSH1 0x0 PUSH1 0x20 DUP3 ADD SWAP1 POP DUP2 DUP2 SUB PUSH1 0x0 DUP4 ADD MSTORE PUSH2 0x1F78 DUP2 PUSH2 0x1F3C JUMP JUMPDEST SWAP1 POP SWAP2 SWAP1 POP JUMP JUMPDEST PUSH32 0x4F776E61626C653A206E6577206F776E657220697320746865207A65726F2061 PUSH1 0x0 DUP3 ADD MSTORE PUSH32 0x6464726573730000000000000000000000000000000000000000000000000000 PUSH1 0x20 DUP3 ADD MSTORE POP JUMP JUMPDEST PUSH1 0x0 PUSH2 0x1FDB PUSH1 0x26 DUP4 PUSH2 0x1944 JUMP JUMPDEST SWAP2 POP PUSH2 0x1FE6 DUP3 PUSH2 0x1F7F JUMP JUMPDEST PUSH1 0x40 DUP3 ADD SWAP1 POP SWAP2 SWAP1 POP JUMP JUMPDEST PUSH1 0x0 PUSH1 0x20 DUP3 ADD SWAP1 POP DUP2 DUP2 SUB PUSH1 0x0 DUP4 ADD MSTORE PUSH2 0x200A DUP2 PUSH2 0x1FCE JUMP JUMPDEST SWAP1 POP SWAP2 SWAP1 POP JUMP JUMPDEST PUSH32 0x70726F6475637420616C7265616479206C6973746564206F6E206D65682E7374 PUSH1 0x0 DUP3 ADD MSTORE PUSH32 0x6F72650000000000000000000000000000000000000000000000000000000000 PUSH1 0x20 DUP3 ADD MSTORE POP JUMP JUMPDEST PUSH1 0x0 PUSH2 0x206D PUSH1 0x23 DUP4 PUSH2 0x1944 JUMP JUMPDEST SWAP2 POP PUSH2 0x2078 DUP3 PUSH2 0x2011 JUMP JUMPDEST PUSH1 0x40 DUP3 ADD SWAP1 POP SWAP2 SWAP1 POP JUMP JUMPDEST PUSH1 0x0 PUSH1 0x20 DUP3 ADD SWAP1 POP DUP2 DUP2 SUB PUSH1 0x0 DUP4 ADD MSTORE PUSH2 0x209C DUP2 PUSH2 0x2060 JUMP JUMPDEST SWAP1 POP SWAP2 SWAP1 POP JUMP JUMPDEST PUSH1 0x0 PUSH2 0x20AE DUP3 PUSH2 0x1160 JUMP JUMPDEST SWAP2 POP PUSH2 0x20B9 DUP4 PUSH2 0x1160 JUMP JUMPDEST SWAP3 POP DUP3 DUP3 ADD SWAP1 POP DUP1 DUP3 GT ISZERO PUSH2 0x20D1 JUMPI PUSH2 0x20D0 PUSH2 0x1C95 JUMP JUMPDEST JUMPDEST SWAP3 SWAP2 POP POP JUMP JUMPDEST PUSH32 0x6E6F7420656E6F75676820636F6E74726163747320617661696C61626C650000 PUSH1 0x0 DUP3 ADD MSTORE POP JUMP JUMPDEST PUSH1 0x0 PUSH2 0x210D PUSH1 0x1E DUP4 PUSH2 0x1944 JUMP JUMPDEST SWAP2 POP PUSH2 0x2118 DUP3 PUSH2 0x20D7 JUMP JUMPDEST PUSH1 0x20 DUP3 ADD SWAP1 POP SWAP2 SWAP1 POP JUMP JUMPDEST PUSH1 0x0 PUSH1 0x20 DUP3 ADD SWAP1 POP DUP2 DUP2 SUB PUSH1 0x0 DUP4 ADD MSTORE PUSH2 0x213C DUP2 PUSH2 0x2100 JUMP JUMPDEST SWAP1 POP SWAP2 SWAP1 POP JUMP JUMPDEST PUSH32 0x70726F64756374206E6F74206F70656E20666F72206465706F73697400000000 PUSH1 0x0 DUP3 ADD MSTORE POP JUMP JUMPDEST PUSH1 0x0 PUSH2 0x2179 PUSH1 0x1C DUP4 PUSH2 0x1944 JUMP JUMPDEST SWAP2 POP PUSH2 0x2184 DUP3 PUSH2 0x2143 JUMP JUMPDEST PUSH1 0x20 DUP3 ADD SWAP1 POP SWAP2 SWAP1 POP JUMP JUMPDEST PUSH1 0x0 PUSH1 0x20 DUP3 ADD SWAP1 POP DUP2 DUP2 SUB PUSH1 0x0 DUP4 ADD MSTORE PUSH2 0x21A8 DUP2 PUSH2 0x216C JUMP JUMPDEST SWAP1 POP SWAP2 SWAP1 POP JUMP JUMPDEST PUSH1 0x0 PUSH2 0x21BA DUP3 PUSH2 0x1160 JUMP JUMPDEST SWAP2 POP PUSH2 0x21C5 DUP4 PUSH2 0x1160 JUMP JUMPDEST SWAP3 POP DUP3 DUP3 MUL PUSH2 0x21D3 DUP2 PUSH2 0x1160 JUMP JUMPDEST SWAP2 POP DUP3 DUP3 DIV DUP5 EQ DUP4 ISZERO OR PUSH2 0x21EA JUMPI PUSH2 0x21E9 PUSH2 0x1C95 JUMP JUMPDEST JUMPDEST POP SWAP3 SWAP2 POP POP JUMP JUMPDEST PUSH1 0x0 PUSH1 0x60 DUP3 ADD SWAP1 POP PUSH2 0x2206 PUSH1 0x0 DUP4 ADD DUP7 PUSH2 0x14ED JUMP JUMPDEST PUSH2 0x2213 PUSH1 0x20 DUP4 ADD DUP6 PUSH2 0x14ED JUMP JUMPDEST PUSH2 0x2220 PUSH1 0x40 DUP4 ADD DUP5 PUSH2 0x11C3 JUMP JUMPDEST SWAP5 SWAP4 POP POP POP POP JUMP JUMPDEST PUSH32 0x6D6568206465706F736974206661696C65640000000000000000000000000000 PUSH1 0x0 DUP3 ADD MSTORE POP JUMP JUMPDEST PUSH1 0x0 PUSH2 0x225E PUSH1 0x12 DUP4 PUSH2 0x1944 JUMP JUMPDEST SWAP2 POP PUSH2 0x2269 DUP3 PUSH2 0x2228 JUMP JUMPDEST PUSH1 0x20 DUP3 ADD SWAP1 POP SWAP2 SWAP1 POP JUMP JUMPDEST PUSH1 0x0 PUSH1 0x20 DUP3 ADD SWAP1 POP DUP2 DUP2 SUB PUSH1 0x0 DUP4 ADD MSTORE PUSH2 0x228D DUP2 PUSH2 0x2251 JUMP JUMPDEST SWAP1 POP SWAP2 SWAP1 POP JUMP JUMPDEST PUSH1 0x0 DUP2 SLOAD PUSH2 0x22A1 DUP2 PUSH2 0x19F0 JUMP JUMPDEST PUSH2 0x22AB DUP2 DUP7 PUSH2 0x1944 JUMP JUMPDEST SWAP5 POP PUSH1 0x1 DUP3 AND PUSH1 0x0 DUP2 EQ PUSH2 0x22C6 JUMPI PUSH1 0x1 DUP2 EQ PUSH2 0x22DC JUMPI PUSH2 0x230F JUMP JUMPDEST PUSH1 0xFF NOT DUP4 AND DUP7 MSTORE DUP2 ISZERO ISZERO PUSH1 0x20 MUL DUP7 ADD SWAP4 POP PUSH2 0x230F JUMP JUMPDEST PUSH2 0x22E5 DUP6 PUSH2 0x1A21 JUMP JUMPDEST PUSH1 0x0 JUMPDEST DUP4 DUP2 LT ISZERO PUSH2 0x2307 JUMPI DUP2 SLOAD DUP2 DUP10 ADD MSTORE PUSH1 0x1 DUP3 ADD SWAP2 POP PUSH1 0x20 DUP2 ADD SWAP1 POP PUSH2 0x22E8 JUMP JUMPDEST DUP1 DUP9 ADD SWAP6 POP POP POP JUMPDEST POP POP POP SWAP3 SWAP2 POP POP JUMP JUMPDEST PUSH32 0x6465662D31323300000000000000000000000000000000000000000000000000 PUSH1 0x0 DUP3 ADD MSTORE POP JUMP JUMPDEST PUSH1 0x0 PUSH2 0x234E PUSH1 0x7 DUP4 PUSH2 0x1944 JUMP JUMPDEST SWAP2 POP PUSH2 0x2359 DUP3 PUSH2 0x2318 JUMP JUMPDEST PUSH1 0x20 DUP3 ADD SWAP1 POP SWAP2 SWAP1 POP JUMP JUMPDEST PUSH1 0x0 PUSH1 0x80 DUP3 ADD SWAP1 POP PUSH2 0x2379 PUSH1 0x0 DUP4 ADD DUP7 PUSH2 0x11C3 JUMP JUMPDEST DUP2 DUP2 SUB PUSH1 0x20 DUP4 ADD MSTORE PUSH2 0x238B DUP2 DUP6 PUSH2 0x2294 JUMP JUMPDEST SWAP1 POP DUP2 DUP2 SUB PUSH1 0x40 DUP4 ADD MSTORE PUSH2 0x239E DUP2 PUSH2 0x2341 JUMP JUMPDEST SWAP1 POP PUSH2 0x23AD PUSH1 0x60 DUP4 ADD DUP5 PUSH2 0x11C3 JUMP JUMPDEST SWAP5 SWAP4 POP POP POP POP JUMP JUMPDEST PUSH32 0x70726F64756374206E6F7420666F756E64000000000000000000000000000000 PUSH1 0x0 DUP3 ADD MSTORE POP JUMP JUMPDEST PUSH1 0x0 PUSH2 0x23EB PUSH1 0x11 DUP4 PUSH2 0x1944 JUMP JUMPDEST SWAP2 POP PUSH2 0x23F6 DUP3 PUSH2 0x23B5 JUMP JUMPDEST PUSH1 0x20 DUP3 ADD SWAP1 POP SWAP2 SWAP1 POP JUMP JUMPDEST PUSH1 0x0 PUSH1 0x20 DUP3 ADD SWAP1 POP DUP2 DUP2 SUB PUSH1 0x0 DUP4 ADD MSTORE PUSH2 0x241A DUP2 PUSH2 0x23DE JUMP JUMPDEST SWAP1 POP SWAP2 SWAP1 POP JUMP JUMPDEST PUSH32 0x4F776E61626C653A2063616C6C6572206973206E6F7420746865206F776E6572 PUSH1 0x0 DUP3 ADD MSTORE POP JUMP JUMPDEST PUSH1 0x0 PUSH2 0x2457 PUSH1 0x20 DUP4 PUSH2 0x1944 JUMP JUMPDEST SWAP2 POP PUSH2 0x2462 DUP3 PUSH2 0x2421 JUMP JUMPDEST PUSH1 0x20 DUP3 ADD SWAP1 POP SWAP2 SWAP1 POP JUMP JUMPDEST PUSH1 0x0 PUSH1 0x20 DUP3 ADD SWAP1 POP DUP2 DUP2 SUB PUSH1 0x0 DUP4 ADD MSTORE PUSH2 0x2486 DUP2 PUSH2 0x244A JUMP JUMPDEST SWAP1 POP SWAP2 SWAP1 POP JUMP JUMPDEST PUSH32 0x5265656E7472616E637947756172643A207265656E7472616E742063616C6C00 PUSH1 0x0 DUP3 ADD MSTORE POP JUMP JUMPDEST PUSH1 0x0 PUSH2 0x24C3 PUSH1 0x1F DUP4 PUSH2 0x1944 JUMP JUMPDEST SWAP2 POP PUSH2 0x24CE DUP3 PUSH2 0x248D JUMP JUMPDEST PUSH1 0x20 DUP3 ADD SWAP1 POP SWAP2 SWAP1 POP JUMP JUMPDEST PUSH1 0x0 PUSH1 0x20 DUP3 ADD SWAP1 POP DUP2 DUP2 SUB PUSH1 0x0 DUP4 ADD MSTORE PUSH2 0x24F2 DUP2 PUSH2 0x24B6 JUMP JUMPDEST SWAP1 POP SWAP2 SWAP1 POP JUMP INVALID LOG2 PUSH5 0x6970667358 0x22 SLT KECCAK256 0xF 0x2F GASPRICE 0xAA 0xE1 0xC9 0xF7 0xAF 0xBF EXTCODECOPY LT DUP10 0x2F 0xF7 NOT SWAP10 KECCAK256 CREATE PUSH0 0xDA CODESIZE JUMPI DUP1 0xE7 0x4F ADD 0xDB 0x22 PUSH14 0x38BECC64736F6C63430008180033 "},"methodIdentifiers":{"addProductToGame(uint256,string,uint256,uint256,uint256,uint256,uint256,bool,uint256)":"48edf1bb","claim(uint256,uint256)":"c3490263","createGame(uint256,uint256)":"60104cef","depositMeh(uint256,uint256,uint256)":"f38bee18","depositMehStore(uint256)":"76f7b500","deposits(address,uint256)":"d6d68177","games(uint256)":"117a5b90","getProductsByGameId(uint256)":"c7b56842","mehToken()":"e2c2c884","owner()":"8da5cb5b","renounceOwnership()":"715018a6","royalties()":"f053dc5c","transferOwnership(address)":"f2fde38b"}},"storageLayout":{"storage":[{"astId":7,"contract":"contracts/MehVoteV1.sol:MehVoteV1","label":"_owner","offset":0,"slot":"0","type":"t_address"},{"astId":123,"contract":"contracts/MehVoteV1.sol:MehVoteV1","label":"_status","offset":0,"slot":"1","type":"t_uint256"},{"astId":397,"contract":"contracts/MehVoteV1.sol:MehVoteV1","label":"gameIdCounter","offset":0,"slot":"2","type":"t_struct(Counter)291_storage"},{"astId":400,"contract":"contracts/MehVoteV1.sol:MehVoteV1","label":"productIdCounter","offset":0,"slot":"3","type":"t_struct(Counter)291_storage"},{"astId":451,"contract":"contracts/MehVoteV1.sol:MehVoteV1","label":"games","offset":0,"slot":"4","type":"t_mapping(t_uint256,t_struct(Game)413_storage)"},{"astId":457,"contract":"contracts/MehVoteV1.sol:MehVoteV1","label":"deposits","offset":0,"slot":"5","type":"t_mapping(t_address,t_mapping(t_uint256,t_uint256))"}],"types":{"t_address":{"encoding":"inplace","label":"address","numberOfBytes":"20"},"t_array(t_struct(Product)436_storage)dyn_storage":{"base":"t_struct(Product)436_storage","encoding":"dynamic_array","label":"struct MehVoteV1.Product[]","numberOfBytes":"32"},"t_bool":{"encoding":"inplace","label":"bool","numberOfBytes":"1"},"t_mapping(t_address,t_mapping(t_uint256,t_uint256))":{"encoding":"mapping","key":"t_address","label":"mapping(address => mapping(uint256 => uint256))","numberOfBytes":"32","value":"t_mapping(t_uint256,t_uint256)"},"t_mapping(t_uint256,t_struct(Game)413_storage)":{"encoding":"mapping","key":"t_uint256","label":"mapping(uint256 => struct MehVoteV1.Game)","numberOfBytes":"32","value":"t_struct(Game)413_storage"},"t_mapping(t_uint256,t_uint256)":{"encoding":"mapping","key":"t_uint256","label":"mapping(uint256 => uint256)","numberOfBytes":"32","value":"t_uint256"},"t_string_storage":{"encoding":"bytes","label":"string","numberOfBytes":"32"},"t_struct(Counter)291_storage":{"encoding":"inplace","label":"struct Counters.Counter","members":[{"astId":290,"contract":"contracts/MehVoteV1.sol:MehVoteV1","label":"_value","offset":0,"slot":"0","type":"t_uint256"}],"numberOfBytes":"32"},"t_struct(Game)413_storage":{"encoding":"inplace","label":"struct MehVoteV1.Game","members":[{"astId":402,"contract":"contracts/MehVoteV1.sol:MehVoteV1","label":"id","offset":0,"slot":"0","type":"t_uint256"},{"astId":404,"contract":"contracts/MehVoteV1.sol:MehVoteV1","label":"begin","offset":0,"slot":"1","type":"t_uint256"},{"astId":406,"contract":"contracts/MehVoteV1.sol:MehVoteV1","label":"end","offset":0,"slot":"2","type":"t_uint256"},{"astId":410,"contract":"contracts/MehVoteV1.sol:MehVoteV1","label":"products","offset":0,"slot":"3","type":"t_array(t_struct(Product)436_storage)dyn_storage"},{"astId":412,"contract":"contracts/MehVoteV1.sol:MehVoteV1","label":"numProducts","offset":0,"slot":"4","type":"t_uint256"}],"numberOfBytes":"160"},"t_struct(Product)436_storage":{"encoding":"inplace","label":"struct MehVoteV1.Product","members":[{"astId":415,"contract":"contracts/MehVoteV1.sol:MehVoteV1","label":"id","offset":0,"slot":"0","type":"t_uint256"},{"astId":417,"contract":"contracts/MehVoteV1.sol:MehVoteV1","label":"name","offset":0,"slot":"1","type":"t_string_storage"},{"astId":419,"contract":"contracts/MehVoteV1.sol:MehVoteV1","label":"mehContractsDeposited","offset":0,"slot":"2","type":"t_uint256"},{"astId":421,"contract":"contracts/MehVoteV1.sol:MehVoteV1","label":"mehContracts","offset":0,"slot":"3","type":"t_uint256"},{"astId":423,"contract":"contracts/MehVoteV1.sol:MehVoteV1","label":"mehContractPrice","offset":0,"slot":"4","type":"t_uint256"},{"astId":425,"contract":"contracts/MehVoteV1.sol:MehVoteV1","label":"prizeMeh","offset":0,"slot":"5","type":"t_uint256"},{"astId":427,"contract":"contracts/MehVoteV1.sol:MehVoteV1","label":"mehStore","offset":0,"slot":"6","type":"t_bool"},{"astId":429,"contract":"contracts/MehVoteV1.sol:MehVoteV1","label":"begin","offset":0,"slot":"7","type":"t_uint256"},{"astId":431,"contract":"contracts/MehVoteV1.sol:MehVoteV1","label":"end","offset":0,"slot":"8","type":"t_uint256"},{"astId":433,"contract":"contracts/MehVoteV1.sol:MehVoteV1","label":"totalContracts","offset":0,"slot":"9","type":"t_uint256"},{"astId":435,"contract":"contracts/MehVoteV1.sol:MehVoteV1","label":"limitedRun","offset":0,"slot":"10","type":"t_bool"}],"numberOfBytes":"352"},"t_uint256":{"encoding":"inplace","label":"uint256","numberOfBytes":"32"}}}}}}