{
  "_format": "hh-sol-artifact-1",
  "contractName": "MehRoyalty",
  "sourceName": "contracts/MehRoyaltyV1.sol",
  "abi": [
    {
      "inputs": [
        {
          "internalType": "contract IERC20Burnable",
          "name": "_mehToken",
          "type": "address"
        }
      ],
      "stateMutability": "nonpayable",
      "type": "constructor"
    },
    {
      "anonymous": false,
      "inputs": [
        {
          "indexed": true,
          "internalType": "address",
          "name": "owner",
          "type": "address"
        },
        {
          "indexed": true,
          "internalType": "address",
          "name": "approved",
          "type": "address"
        },
        {
          "indexed": true,
          "internalType": "uint256",
          "name": "tokenId",
          "type": "uint256"
        }
      ],
      "name": "Approval",
      "type": "event"
    },
    {
      "anonymous": false,
      "inputs": [
        {
          "indexed": true,
          "internalType": "address",
          "name": "owner",
          "type": "address"
        },
        {
          "indexed": true,
          "internalType": "address",
          "name": "operator",
          "type": "address"
        },
        {
          "indexed": false,
          "internalType": "bool",
          "name": "approved",
          "type": "bool"
        }
      ],
      "name": "ApprovalForAll",
      "type": "event"
    },
    {
      "anonymous": false,
      "inputs": [
        {
          "indexed": true,
          "internalType": "address",
          "name": "previousOwner",
          "type": "address"
        },
        {
          "indexed": true,
          "internalType": "address",
          "name": "newOwner",
          "type": "address"
        }
      ],
      "name": "OwnershipTransferred",
      "type": "event"
    },
    {
      "anonymous": false,
      "inputs": [
        {
          "indexed": true,
          "internalType": "address",
          "name": "from",
          "type": "address"
        },
        {
          "indexed": true,
          "internalType": "address",
          "name": "to",
          "type": "address"
        },
        {
          "indexed": true,
          "internalType": "uint256",
          "name": "tokenId",
          "type": "uint256"
        }
      ],
      "name": "Transfer",
      "type": "event"
    },
    {
      "inputs": [],
      "name": "MEH_ROYALTY_DENOMINATOR",
      "outputs": [
        {
          "internalType": "uint256",
          "name": "",
          "type": "uint256"
        }
      ],
      "stateMutability": "view",
      "type": "function"
    },
    {
      "inputs": [
        {
          "internalType": "address",
          "name": "to",
          "type": "address"
        },
        {
          "internalType": "uint256",
          "name": "tokenId",
          "type": "uint256"
        }
      ],
      "name": "approve",
      "outputs": [],
      "stateMutability": "nonpayable",
      "type": "function"
    },
    {
      "inputs": [
        {
          "internalType": "address",
          "name": "owner",
          "type": "address"
        }
      ],
      "name": "balanceOf",
      "outputs": [
        {
          "internalType": "uint256",
          "name": "",
          "type": "uint256"
        }
      ],
      "stateMutability": "view",
      "type": "function"
    },
    {
      "inputs": [
        {
          "internalType": "uint256",
          "name": "tokenId",
          "type": "uint256"
        }
      ],
      "name": "depositMeh",
      "outputs": [],
      "stateMutability": "payable",
      "type": "function"
    },
    {
      "inputs": [
        {
          "internalType": "uint256",
          "name": "tokenId",
          "type": "uint256"
        },
        {
          "internalType": "uint256",
          "name": "amount",
          "type": "uint256"
        }
      ],
      "name": "extractMeh",
      "outputs": [],
      "stateMutability": "nonpayable",
      "type": "function"
    },
    {
      "inputs": [
        {
          "internalType": "uint256",
          "name": "tokenId",
          "type": "uint256"
        }
      ],
      "name": "getApproved",
      "outputs": [
        {
          "internalType": "address",
          "name": "",
          "type": "address"
        }
      ],
      "stateMutability": "view",
      "type": "function"
    },
    {
      "inputs": [
        {
          "internalType": "address",
          "name": "owner",
          "type": "address"
        },
        {
          "internalType": "address",
          "name": "operator",
          "type": "address"
        }
      ],
      "name": "isApprovedForAll",
      "outputs": [
        {
          "internalType": "bool",
          "name": "",
          "type": "bool"
        }
      ],
      "stateMutability": "view",
      "type": "function"
    },
    {
      "inputs": [],
      "name": "mehToken",
      "outputs": [
        {
          "internalType": "contract IERC20Burnable",
          "name": "",
          "type": "address"
        }
      ],
      "stateMutability": "view",
      "type": "function"
    },
    {
      "inputs": [
        {
          "internalType": "uint256",
          "name": "tokenId",
          "type": "uint256"
        },
        {
          "internalType": "uint256",
          "name": "royaltyValue",
          "type": "uint256"
        },
        {
          "internalType": "uint256",
          "name": "productId",
          "type": "uint256"
        },
        {
          "internalType": "address",
          "name": "to",
          "type": "address"
        }
      ],
      "name": "mint",
      "outputs": [],
      "stateMutability": "nonpayable",
      "type": "function"
    },
    {
      "inputs": [],
      "name": "name",
      "outputs": [
        {
          "internalType": "string",
          "name": "",
          "type": "string"
        }
      ],
      "stateMutability": "view",
      "type": "function"
    },
    {
      "inputs": [],
      "name": "owner",
      "outputs": [
        {
          "internalType": "address",
          "name": "",
          "type": "address"
        }
      ],
      "stateMutability": "view",
      "type": "function"
    },
    {
      "inputs": [
        {
          "internalType": "uint256",
          "name": "tokenId",
          "type": "uint256"
        }
      ],
      "name": "ownerOf",
      "outputs": [
        {
          "internalType": "address",
          "name": "",
          "type": "address"
        }
      ],
      "stateMutability": "view",
      "type": "function"
    },
    {
      "inputs": [],
      "name": "renounceOwnership",
      "outputs": [],
      "stateMutability": "nonpayable",
      "type": "function"
    },
    {
      "inputs": [
        {
          "internalType": "uint256",
          "name": "",
          "type": "uint256"
        }
      ],
      "name": "royalties",
      "outputs": [
        {
          "internalType": "uint256",
          "name": "royaltyNumerator",
          "type": "uint256"
        },
        {
          "internalType": "uint256",
          "name": "royaltyDenominator",
          "type": "uint256"
        },
        {
          "internalType": "uint256",
          "name": "productId",
          "type": "uint256"
        },
        {
          "internalType": "uint256",
          "name": "mehDeposited",
          "type": "uint256"
        }
      ],
      "stateMutability": "view",
      "type": "function"
    },
    {
      "inputs": [
        {
          "internalType": "address",
          "name": "from",
          "type": "address"
        },
        {
          "internalType": "address",
          "name": "to",
          "type": "address"
        },
        {
          "internalType": "uint256",
          "name": "tokenId",
          "type": "uint256"
        }
      ],
      "name": "safeTransferFrom",
      "outputs": [],
      "stateMutability": "nonpayable",
      "type": "function"
    },
    {
      "inputs": [
        {
          "internalType": "address",
          "name": "from",
          "type": "address"
        },
        {
          "internalType": "address",
          "name": "to",
          "type": "address"
        },
        {
          "internalType": "uint256",
          "name": "tokenId",
          "type": "uint256"
        },
        {
          "internalType": "bytes",
          "name": "data",
          "type": "bytes"
        }
      ],
      "name": "safeTransferFrom",
      "outputs": [],
      "stateMutability": "nonpayable",
      "type": "function"
    },
    {
      "inputs": [
        {
          "internalType": "address",
          "name": "operator",
          "type": "address"
        },
        {
          "internalType": "bool",
          "name": "approved",
          "type": "bool"
        }
      ],
      "name": "setApprovalForAll",
      "outputs": [],
      "stateMutability": "nonpayable",
      "type": "function"
    },
    {
      "inputs": [
        {
          "internalType": "bytes4",
          "name": "interfaceId",
          "type": "bytes4"
        }
      ],
      "name": "supportsInterface",
      "outputs": [
        {
          "internalType": "bool",
          "name": "",
          "type": "bool"
        }
      ],
      "stateMutability": "view",
      "type": "function"
    },
    {
      "inputs": [],
      "name": "symbol",
      "outputs": [
        {
          "internalType": "string",
          "name": "",
          "type": "string"
        }
      ],
      "stateMutability": "view",
      "type": "function"
    },
    {
      "inputs": [
        {
          "internalType": "uint256",
          "name": "tokenId",
          "type": "uint256"
        }
      ],
      "name": "tokenURI",
      "outputs": [
        {
          "internalType": "string",
          "name": "",
          "type": "string"
        }
      ],
      "stateMutability": "view",
      "type": "function"
    },
    {
      "inputs": [
        {
          "internalType": "address",
          "name": "from",
          "type": "address"
        },
        {
          "internalType": "address",
          "name": "to",
          "type": "address"
        },
        {
          "internalType": "uint256",
          "name": "tokenId",
          "type": "uint256"
        }
      ],
      "name": "transferFrom",
      "outputs": [],
      "stateMutability": "nonpayable",
      "type": "function"
    },
    {
      "inputs": [
        {
          "internalType": "address",
          "name": "newOwner",
          "type": "address"
        }
      ],
      "name": "transferOwnership",
      "outputs": [],
      "stateMutability": "nonpayable",
      "type": "function"
    }
  ],
  "bytecode": "0x60a06040523480156200001157600080fd5b506040516200362a3803806200362a833981810160405281019062000037919062000270565b6040518060400160405280600a81526020017f4d6568526f79616c7479000000000000000000000000000000000000000000008152506040518060400160405280600381526020017f4d523100000000000000000000000000000000000000000000000000000000008152508160009081620000b491906200051c565b508060019081620000c691906200051c565b505050620000e9620000dd6200012460201b60201c565b6200012c60201b60201c565b8073ffffffffffffffffffffffffffffffffffffffff1660808173ffffffffffffffffffffffffffffffffffffffff16815250505062000603565b600033905090565b6000600660009054906101000a900473ffffffffffffffffffffffffffffffffffffffff16905081600660006101000a81548173ffffffffffffffffffffffffffffffffffffffff021916908373ffffffffffffffffffffffffffffffffffffffff1602179055508173ffffffffffffffffffffffffffffffffffffffff168173ffffffffffffffffffffffffffffffffffffffff167f8be0079c531659141344cd1fd0a4f28419497f9722a3daafe3b4186f6b6457e060405160405180910390a35050565b600080fd5b600073ffffffffffffffffffffffffffffffffffffffff82169050919050565b60006200022482620001f7565b9050919050565b6000620002388262000217565b9050919050565b6200024a816200022b565b81146200025657600080fd5b50565b6000815190506200026a816200023f565b92915050565b600060208284031215620002895762000288620001f2565b5b6000620002998482850162000259565b91505092915050565b600081519050919050565b7f4e487b7100000000000000000000000000000000000000000000000000000000600052604160045260246000fd5b7f4e487b7100000000000000000000000000000000000000000000000000000000600052602260045260246000fd5b600060028204905060018216806200032457607f821691505b6020821081036200033a5762000339620002dc565b5b50919050565b60008190508160005260206000209050919050565b60006020601f8301049050919050565b600082821b905092915050565b600060088302620003a47fffffffffffffffffffffffffffffffffffffffffffffffffffffffffffffffff8262000365565b620003b0868362000365565b95508019841693508086168417925050509392505050565b6000819050919050565b6000819050919050565b6000620003fd620003f7620003f184620003c8565b620003d2565b620003c8565b9050919050565b6000819050919050565b6200041983620003dc565b62000431620004288262000404565b84845462000372565b825550505050565b600090565b6200044862000439565b620004558184846200040e565b505050565b5b818110156200047d57620004716000826200043e565b6001810190506200045b565b5050565b601f821115620004cc57620004968162000340565b620004a18462000355565b81016020851015620004b1578190505b620004c9620004c08562000355565b8301826200045a565b50505b505050565b600082821c905092915050565b6000620004f160001984600802620004d1565b1980831691505092915050565b60006200050c8383620004de565b9150826002028217905092915050565b6200052782620002a2565b67ffffffffffffffff811115620005435762000542620002ad565b5b6200054f82546200030b565b6200055c82828562000481565b600060209050601f8311600181146200059457600084156200057f578287015190505b6200058b8582620004fe565b865550620005fb565b601f198416620005a48662000340565b60005b82811015620005ce57848901518255600182019150602085019450602081019050620005a7565b86831015620005ee5784890151620005ea601f891682620004de565b8355505b6001600288020188555050505b505050505050565b60805161300b6200061f6000396000610de9015261300b6000f3fe6080604052600436106101355760003560e01c8063715018a6116100ab578063b3744b861161006f578063b3744b8614610427578063b88d4fde14610443578063c87b56dd1461046c578063e2c2c884146104a9578063e985e9c5146104d4578063f2fde38b1461051157610135565b8063715018a6146103515780637f77f574146103685780638da5cb5b146103a857806395d89b41146103d3578063a22cb465146103fe57610135565b806323b872dd116100fd57806323b872dd1461023357806342842e0e1461025c5780636352211e14610285578063643183bf146102c2578063680a8421146102eb57806370a082311461031457610135565b806301ffc9a71461013a5780630210a1601461017757806306fdde03146101a2578063081812fc146101cd578063095ea7b31461020a575b600080fd5b34801561014657600080fd5b50610161600480360381019061015c9190611ea2565b61053a565b60405161016e9190611eea565b60405180910390f35b34801561018357600080fd5b5061018c61061c565b6040516101999190611f1e565b60405180910390f35b3480156101ae57600080fd5b506101b7610622565b6040516101c49190611fc9565b60405180910390f35b3480156101d957600080fd5b506101f460048036038101906101ef9190612017565b6106b4565b6040516102019190612085565b60405180910390f35b34801561021657600080fd5b50610231600480360381019061022c91906120cc565b6106fa565b005b34801561023f57600080fd5b5061025a6004803603810190610255919061210c565b610811565b005b34801561026857600080fd5b50610283600480360381019061027e919061210c565b610871565b005b34801561029157600080fd5b506102ac60048036038101906102a79190612017565b610891565b6040516102b99190612085565b60405180910390f35b3480156102ce57600080fd5b506102e960048036038101906102e4919061215f565b610917565b005b3480156102f757600080fd5b50610312600480360381019061030d91906121c6565b610991565b005b34801561032057600080fd5b5061033b60048036038101906103369190612206565b610ad8565b6040516103489190611f1e565b60405180910390f35b34801561035d57600080fd5b50610366610b8f565b005b34801561037457600080fd5b5061038f600480360381019061038a9190612017565b610ba3565b60405161039f9493929190612233565b60405180910390f35b3480156103b457600080fd5b506103bd610bd3565b6040516103ca9190612085565b60405180910390f35b3480156103df57600080fd5b506103e8610bfd565b6040516103f59190611fc9565b60405180910390f35b34801561040a57600080fd5b50610425600480360381019061042091906122a4565b610c8f565b005b610441600480360381019061043c9190612017565b610ca5565b005b34801561044f57600080fd5b5061046a60048036038101906104659190612419565b610d1d565b005b34801561047857600080fd5b50610493600480360381019061048e9190612017565b610d7f565b6040516104a09190611fc9565b60405180910390f35b3480156104b557600080fd5b506104be610de7565b6040516104cb91906124fb565b60405180910390f35b3480156104e057600080fd5b506104fb60048036038101906104f69190612516565b610e0b565b6040516105089190611eea565b60405180910390f35b34801561051d57600080fd5b5061053860048036038101906105339190612206565b610e9f565b005b60007f80ac58cd000000000000000000000000000000000000000000000000000000007bffffffffffffffffffffffffffffffffffffffffffffffffffffffff1916827bffffffffffffffffffffffffffffffffffffffffffffffffffffffff1916148061060557507f5b5e139f000000000000000000000000000000000000000000000000000000007bffffffffffffffffffffffffffffffffffffffffffffffffffffffff1916827bffffffffffffffffffffffffffffffffffffffffffffffffffffffff1916145b80610615575061061482610f22565b5b9050919050565b6103e881565b60606000805461063190612585565b80601f016020809104026020016040519081016040528092919081815260200182805461065d90612585565b80156106aa5780601f1061067f576101008083540402835291602001916106aa565b820191906000526020600020905b81548152906001019060200180831161068d57829003601f168201915b5050505050905090565b60006106bf82610f8c565b6004600083815260200190815260200160002060009054906101000a900473ffffffffffffffffffffffffffffffffffffffff169050919050565b600061070582610891565b90508073ffffffffffffffffffffffffffffffffffffffff168373ffffffffffffffffffffffffffffffffffffffff1603610775576040517f08c379a000000000000000000000000000000000000000000000000000000000815260040161076c90612628565b60405180910390fd5b8073ffffffffffffffffffffffffffffffffffffffff16610794610fd7565b73ffffffffffffffffffffffffffffffffffffffff1614806107c357506107c2816107bd610fd7565b610e0b565b5b610802576040517f08c379a00000000000000000000000000000000000000000000000000000000081526004016107f9906126ba565b60405180910390fd5b61080c8383610fdf565b505050565b61082261081c610fd7565b82611098565b610861576040517f08c379a00000000000000000000000000000000000000000000000000000000081526004016108589061274c565b60405180910390fd5b61086c83838361112d565b505050565b61088c83838360405180602001604052806000815250610d1d565b505050565b60008061089d83611426565b9050600073ffffffffffffffffffffffffffffffffffffffff168173ffffffffffffffffffffffffffffffffffffffff160361090e576040517f08c379a0000000000000000000000000000000000000000000000000000000008152600401610905906127b8565b60405180910390fd5b80915050919050565b61091f611463565b61092981856114e1565b60405180608001604052808481526020016103e881526020018381526020016000815250600860008681526020019081526020016000206000820151816000015560208201518160010155604082015181600201556060820151816003015590505050505050565b3373ffffffffffffffffffffffffffffffffffffffff166109b183610891565b73ffffffffffffffffffffffffffffffffffffffff1614610a07576040517f08c379a00000000000000000000000000000000000000000000000000000000081526004016109fe9061284a565b60405180910390fd5b8060086000848152602001908152602001600020600301541015610a60576040517f08c379a0000000000000000000000000000000000000000000000000000000008152600401610a57906128b6565b60405180910390fd5b80600860008481526020019081526020016000206003016000828254610a869190612905565b925050819055503373ffffffffffffffffffffffffffffffffffffffff166108fc829081150290604051600060405180830381858888f19350505050158015610ad3573d6000803e3d6000fd5b505050565b60008073ffffffffffffffffffffffffffffffffffffffff168273ffffffffffffffffffffffffffffffffffffffff1603610b48576040517f08c379a0000000000000000000000000000000000000000000000000000000008152600401610b3f906129ab565b60405180910390fd5b600360008373ffffffffffffffffffffffffffffffffffffffff1673ffffffffffffffffffffffffffffffffffffffff168152602001908152602001600020549050919050565b610b97611463565b610ba160006116fe565b565b60086020528060005260406000206000915090508060000154908060010154908060020154908060030154905084565b6000600660009054906101000a900473ffffffffffffffffffffffffffffffffffffffff16905090565b606060018054610c0c90612585565b80601f0160208091040260200160405190810160405280929190818152602001828054610c3890612585565b8015610c855780601f10610c5a57610100808354040283529160200191610c85565b820191906000526020600020905b815481529060010190602001808311610c6857829003601f168201915b5050505050905090565b610ca1610c9a610fd7565b83836117c4565b5050565b610cae81611930565b610ced576040517f08c379a0000000000000000000000000000000000000000000000000000000008152600401610ce490612a17565b60405180910390fd5b34600860008381526020019081526020016000206003016000828254610d139190612a37565b9250508190555050565b610d2e610d28610fd7565b83611098565b610d6d576040517f08c379a0000000000000000000000000000000000000000000000000000000008152600401610d649061274c565b60405180910390fd5b610d7984848484611971565b50505050565b6060610d8a82610f8c565b6000610d946119cd565b90506000815111610db45760405180602001604052806000815250610ddf565b80610dbe84611a5f565b604051602001610dcf929190612aa7565b6040516020818303038152906040525b915050919050565b7f000000000000000000000000000000000000000000000000000000000000000081565b6000600560008473ffffffffffffffffffffffffffffffffffffffff1673ffffffffffffffffffffffffffffffffffffffff16815260200190815260200160002060008373ffffffffffffffffffffffffffffffffffffffff1673ffffffffffffffffffffffffffffffffffffffff16815260200190815260200160002060009054906101000a900460ff16905092915050565b610ea7611463565b600073ffffffffffffffffffffffffffffffffffffffff168173ffffffffffffffffffffffffffffffffffffffff1603610f16576040517f08c379a0000000000000000000000000000000000000000000000000000000008152600401610f0d90612b3d565b60405180910390fd5b610f1f816116fe565b50565b60007f01ffc9a7000000000000000000000000000000000000000000000000000000007bffffffffffffffffffffffffffffffffffffffffffffffffffffffff1916827bffffffffffffffffffffffffffffffffffffffffffffffffffffffff1916149050919050565b610f9581611930565b610fd4576040517f08c379a0000000000000000000000000000000000000000000000000000000008152600401610fcb906127b8565b60405180910390fd5b50565b600033905090565b816004600083815260200190815260200160002060006101000a81548173ffffffffffffffffffffffffffffffffffffffff021916908373ffffffffffffffffffffffffffffffffffffffff160217905550808273ffffffffffffffffffffffffffffffffffffffff1661105283610891565b73ffffffffffffffffffffffffffffffffffffffff167f8c5be1e5ebec7d5bd14f71427d1e84f3dd0314c0f7b2291e5b200ac8c7c3b92560405160405180910390a45050565b6000806110a483610891565b90508073ffffffffffffffffffffffffffffffffffffffff168473ffffffffffffffffffffffffffffffffffffffff1614806110e657506110e58185610e0b565b5b8061112457508373ffffffffffffffffffffffffffffffffffffffff1661110c846106b4565b73ffffffffffffffffffffffffffffffffffffffff16145b91505092915050565b8273ffffffffffffffffffffffffffffffffffffffff1661114d82610891565b73ffffffffffffffffffffffffffffffffffffffff16146111a3576040517f08c379a000000000000000000000000000000000000000000000000000000000815260040161119a90612bcf565b60405180910390fd5b600073ffffffffffffffffffffffffffffffffffffffff168273ffffffffffffffffffffffffffffffffffffffff1603611212576040517f08c379a000000000000000000000000000000000000000000000000000000000815260040161120990612c61565b60405180910390fd5b61121f8383836001611b2d565b8273ffffffffffffffffffffffffffffffffffffffff1661123f82610891565b73ffffffffffffffffffffffffffffffffffffffff1614611295576040517f08c379a000000000000000000000000000000000000000000000000000000000815260040161128c90612bcf565b60405180910390fd5b6004600082815260200190815260200160002060006101000a81549073ffffffffffffffffffffffffffffffffffffffff02191690556001600360008573ffffffffffffffffffffffffffffffffffffffff1673ffffffffffffffffffffffffffffffffffffffff168152602001908152602001600020600082825403925050819055506001600360008473ffffffffffffffffffffffffffffffffffffffff1673ffffffffffffffffffffffffffffffffffffffff16815260200190815260200160002060008282540192505081905550816002600083815260200190815260200160002060006101000a81548173ffffffffffffffffffffffffffffffffffffffff021916908373ffffffffffffffffffffffffffffffffffffffff160217905550808273ffffffffffffffffffffffffffffffffffffffff168473ffffffffffffffffffffffffffffffffffffffff167fddf252ad1be2c89b69c2b068fc378daa952ba7f163c4a11628f55a4df523b3ef60405160405180910390a46114218383836001611b33565b505050565b60006002600083815260200190815260200160002060009054906101000a900473ffffffffffffffffffffffffffffffffffffffff169050919050565b61146b610fd7565b73ffffffffffffffffffffffffffffffffffffffff16611489610bd3565b73ffffffffffffffffffffffffffffffffffffffff16146114df576040517f08c379a00000000000000000000000000000000000000000000000000000000081526004016114d690612ccd565b60405180910390fd5b565b600073ffffffffffffffffffffffffffffffffffffffff168273ffffffffffffffffffffffffffffffffffffffff1603611550576040517f08c379a000000000000000000000000000000000000000000000000000000000815260040161154790612d39565b60405180910390fd5b61155981611930565b15611599576040517f08c379a000000000000000000000000000000000000000000000000000000000815260040161159090612da5565b60405180910390fd5b6115a7600083836001611b2d565b6115b081611930565b156115f0576040517f08c379a00000000000000000000000000000000000000000000000000000000081526004016115e790612da5565b60405180910390fd5b6001600360008473ffffffffffffffffffffffffffffffffffffffff1673ffffffffffffffffffffffffffffffffffffffff16815260200190815260200160002060008282540192505081905550816002600083815260200190815260200160002060006101000a81548173ffffffffffffffffffffffffffffffffffffffff021916908373ffffffffffffffffffffffffffffffffffffffff160217905550808273ffffffffffffffffffffffffffffffffffffffff16600073ffffffffffffffffffffffffffffffffffffffff167fddf252ad1be2c89b69c2b068fc378daa952ba7f163c4a11628f55a4df523b3ef60405160405180910390a46116fa600083836001611b33565b5050565b6000600660009054906101000a900473ffffffffffffffffffffffffffffffffffffffff16905081600660006101000a81548173ffffffffffffffffffffffffffffffffffffffff021916908373ffffffffffffffffffffffffffffffffffffffff1602179055508173ffffffffffffffffffffffffffffffffffffffff168173ffffffffffffffffffffffffffffffffffffffff167f8be0079c531659141344cd1fd0a4f28419497f9722a3daafe3b4186f6b6457e060405160405180910390a35050565b8173ffffffffffffffffffffffffffffffffffffffff168373ffffffffffffffffffffffffffffffffffffffff1603611832576040517f08c379a000000000000000000000000000000000000000000000000000000000815260040161182990612e11565b60405180910390fd5b80600560008573ffffffffffffffffffffffffffffffffffffffff1673ffffffffffffffffffffffffffffffffffffffff16815260200190815260200160002060008473ffffffffffffffffffffffffffffffffffffffff1673ffffffffffffffffffffffffffffffffffffffff16815260200190815260200160002060006101000a81548160ff0219169083151502179055508173ffffffffffffffffffffffffffffffffffffffff168373ffffffffffffffffffffffffffffffffffffffff167f17307eab39ab6107e8899845ad3d59bd9653f200f220920489ca2b5937696c31836040516119239190611eea565b60405180910390a3505050565b60008073ffffffffffffffffffffffffffffffffffffffff1661195283611426565b73ffffffffffffffffffffffffffffffffffffffff1614159050919050565b61197c84848461112d565b61198884848484611b39565b6119c7576040517f08c379a00000000000000000000000000000000000000000000000000000000081526004016119be90612ea3565b60405180910390fd5b50505050565b6060600780546119dc90612585565b80601f0160208091040260200160405190810160405280929190818152602001828054611a0890612585565b8015611a555780601f10611a2a57610100808354040283529160200191611a55565b820191906000526020600020905b815481529060010190602001808311611a3857829003601f168201915b5050505050905090565b606060006001611a6e84611cc0565b01905060008167ffffffffffffffff811115611a8d57611a8c6122ee565b5b6040519080825280601f01601f191660200182016040528015611abf5781602001600182028036833780820191505090505b509050600082602001820190505b600115611b22578080600190039150507f3031323334353637383961626364656600000000000000000000000000000000600a86061a8153600a8581611b1657611b15612ec3565b5b04945060008503611acd575b819350505050919050565b50505050565b50505050565b6000611b5a8473ffffffffffffffffffffffffffffffffffffffff16611e13565b15611cb3578373ffffffffffffffffffffffffffffffffffffffff1663150b7a02611b83610fd7565b8786866040518563ffffffff1660e01b8152600401611ba59493929190612f47565b6020604051808303816000875af1925050508015611be157506040513d601f19601f82011682018060405250810190611bde9190612fa8565b60015b611c63573d8060008114611c11576040519150601f19603f3d011682016040523d82523d6000602084013e611c16565b606091505b506000815103611c5b576040517f08c379a0000000000000000000000000000000000000000000000000000000008152600401611c5290612ea3565b60405180910390fd5b805181602001fd5b63150b7a0260e01b7bffffffffffffffffffffffffffffffffffffffffffffffffffffffff1916817bffffffffffffffffffffffffffffffffffffffffffffffffffffffff191614915050611cb8565b600190505b949350505050565b600080600090507a184f03e93ff9f4daa797ed6e38ed64bf6a1f0100000000000000008310611d1e577a184f03e93ff9f4daa797ed6e38ed64bf6a1f0100000000000000008381611d1457611d13612ec3565b5b0492506040810190505b6d04ee2d6d415b85acef81000000008310611d5b576d04ee2d6d415b85acef81000000008381611d5157611d50612ec3565b5b0492506020810190505b662386f26fc100008310611d8a57662386f26fc100008381611d8057611d7f612ec3565b5b0492506010810190505b6305f5e1008310611db3576305f5e1008381611da957611da8612ec3565b5b0492506008810190505b6127108310611dd8576127108381611dce57611dcd612ec3565b5b0492506004810190505b60648310611dfb5760648381611df157611df0612ec3565b5b0492506002810190505b600a8310611e0a576001810190505b80915050919050565b6000808273ffffffffffffffffffffffffffffffffffffffff163b119050919050565b6000604051905090565b600080fd5b600080fd5b60007fffffffff0000000000000000000000000000000000000000000000000000000082169050919050565b611e7f81611e4a565b8114611e8a57600080fd5b50565b600081359050611e9c81611e76565b92915050565b600060208284031215611eb857611eb7611e40565b5b6000611ec684828501611e8d565b91505092915050565b60008115159050919050565b611ee481611ecf565b82525050565b6000602082019050611eff6000830184611edb565b92915050565b6000819050919050565b611f1881611f05565b82525050565b6000602082019050611f336000830184611f0f565b92915050565b600081519050919050565b600082825260208201905092915050565b60005b83811015611f73578082015181840152602081019050611f58565b60008484015250505050565b6000601f19601f8301169050919050565b6000611f9b82611f39565b611fa58185611f44565b9350611fb5818560208601611f55565b611fbe81611f7f565b840191505092915050565b60006020820190508181036000830152611fe38184611f90565b905092915050565b611ff481611f05565b8114611fff57600080fd5b50565b60008135905061201181611feb565b92915050565b60006020828403121561202d5761202c611e40565b5b600061203b84828501612002565b91505092915050565b600073ffffffffffffffffffffffffffffffffffffffff82169050919050565b600061206f82612044565b9050919050565b61207f81612064565b82525050565b600060208201905061209a6000830184612076565b92915050565b6120a981612064565b81146120b457600080fd5b50565b6000813590506120c6816120a0565b92915050565b600080604083850312156120e3576120e2611e40565b5b60006120f1858286016120b7565b925050602061210285828601612002565b9150509250929050565b60008060006060848603121561212557612124611e40565b5b6000612133868287016120b7565b9350506020612144868287016120b7565b925050604061215586828701612002565b9150509250925092565b6000806000806080858703121561217957612178611e40565b5b600061218787828801612002565b945050602061219887828801612002565b93505060406121a987828801612002565b92505060606121ba878288016120b7565b91505092959194509250565b600080604083850312156121dd576121dc611e40565b5b60006121eb85828601612002565b92505060206121fc85828601612002565b9150509250929050565b60006020828403121561221c5761221b611e40565b5b600061222a848285016120b7565b91505092915050565b60006080820190506122486000830187611f0f565b6122556020830186611f0f565b6122626040830185611f0f565b61226f6060830184611f0f565b95945050505050565b61228181611ecf565b811461228c57600080fd5b50565b60008135905061229e81612278565b92915050565b600080604083850312156122bb576122ba611e40565b5b60006122c9858286016120b7565b92505060206122da8582860161228f565b9150509250929050565b600080fd5b600080fd5b7f4e487b7100000000000000000000000000000000000000000000000000000000600052604160045260246000fd5b61232682611f7f565b810181811067ffffffffffffffff82111715612345576123446122ee565b5b80604052505050565b6000612358611e36565b9050612364828261231d565b919050565b600067ffffffffffffffff821115612384576123836122ee565b5b61238d82611f7f565b9050602081019050919050565b82818337600083830152505050565b60006123bc6123b784612369565b61234e565b9050828152602081018484840111156123d8576123d76122e9565b5b6123e384828561239a565b509392505050565b600082601f830112612400576123ff6122e4565b5b81356124108482602086016123a9565b91505092915050565b6000806000806080858703121561243357612432611e40565b5b6000612441878288016120b7565b9450506020612452878288016120b7565b935050604061246387828801612002565b925050606085013567ffffffffffffffff81111561248457612483611e45565b5b612490878288016123eb565b91505092959194509250565b6000819050919050565b60006124c16124bc6124b784612044565b61249c565b612044565b9050919050565b60006124d3826124a6565b9050919050565b60006124e5826124c8565b9050919050565b6124f5816124da565b82525050565b600060208201905061251060008301846124ec565b92915050565b6000806040838503121561252d5761252c611e40565b5b600061253b858286016120b7565b925050602061254c858286016120b7565b9150509250929050565b7f4e487b7100000000000000000000000000000000000000000000000000000000600052602260045260246000fd5b6000600282049050600182168061259d57607f821691505b6020821081036125b0576125af612556565b5b50919050565b7f4552433732313a20617070726f76616c20746f2063757272656e74206f776e6560008201527f7200000000000000000000000000000000000000000000000000000000000000602082015250565b6000612612602183611f44565b915061261d826125b6565b604082019050919050565b6000602082019050818103600083015261264181612605565b9050919050565b7f4552433732313a20617070726f76652063616c6c6572206973206e6f7420746f60008201527f6b656e206f776e6572206f7220617070726f76656420666f7220616c6c000000602082015250565b60006126a4603d83611f44565b91506126af82612648565b604082019050919050565b600060208201905081810360008301526126d381612697565b9050919050565b7f4552433732313a2063616c6c6572206973206e6f7420746f6b656e206f776e6560008201527f72206f7220617070726f76656400000000000000000000000000000000000000602082015250565b6000612736602d83611f44565b9150612741826126da565b604082019050919050565b6000602082019050818103600083015261276581612729565b9050919050565b7f4552433732313a20696e76616c696420746f6b656e2049440000000000000000600082015250565b60006127a2601883611f44565b91506127ad8261276c565b602082019050919050565b600060208201905081810360008301526127d181612795565b9050919050565b7f63616c6c6572206973206e6f7420746865206f776e6572206f6620746865207460008201527f6f6b656e00000000000000000000000000000000000000000000000000000000602082015250565b6000612834602483611f44565b915061283f826127d8565b604082019050919050565b6000602082019050818103600083015261286381612827565b9050919050565b7f696e73756666696369656e74206d656800000000000000000000000000000000600082015250565b60006128a0601083611f44565b91506128ab8261286a565b602082019050919050565b600060208201905081810360008301526128cf81612893565b9050919050565b7f4e487b7100000000000000000000000000000000000000000000000000000000600052601160045260246000fd5b600061291082611f05565b915061291b83611f05565b9250828203905081811115612933576129326128d6565b5b92915050565b7f4552433732313a2061646472657373207a65726f206973206e6f74206120766160008201527f6c6964206f776e65720000000000000000000000000000000000000000000000602082015250565b6000612995602983611f44565b91506129a082612939565b604082019050919050565b600060208201905081810360008301526129c481612988565b9050919050565b7f746f6b656e20646f6573206e6f74206578697374000000000000000000000000600082015250565b6000612a01601483611f44565b9150612a0c826129cb565b602082019050919050565b60006020820190508181036000830152612a30816129f4565b9050919050565b6000612a4282611f05565b9150612a4d83611f05565b9250828201905080821115612a6557612a646128d6565b5b92915050565b600081905092915050565b6000612a8182611f39565b612a8b8185612a6b565b9350612a9b818560208601611f55565b80840191505092915050565b6000612ab38285612a76565b9150612abf8284612a76565b91508190509392505050565b7f4f776e61626c653a206e6577206f776e657220697320746865207a65726f206160008201527f6464726573730000000000000000000000000000000000000000000000000000602082015250565b6000612b27602683611f44565b9150612b3282612acb565b604082019050919050565b60006020820190508181036000830152612b5681612b1a565b9050919050565b7f4552433732313a207472616e736665722066726f6d20696e636f72726563742060008201527f6f776e6572000000000000000000000000000000000000000000000000000000602082015250565b6000612bb9602583611f44565b9150612bc482612b5d565b604082019050919050565b60006020820190508181036000830152612be881612bac565b9050919050565b7f4552433732313a207472616e7366657220746f20746865207a65726f2061646460008201527f7265737300000000000000000000000000000000000000000000000000000000602082015250565b6000612c4b602483611f44565b9150612c5682612bef565b604082019050919050565b60006020820190508181036000830152612c7a81612c3e565b9050919050565b7f4f776e61626c653a2063616c6c6572206973206e6f7420746865206f776e6572600082015250565b6000612cb7602083611f44565b9150612cc282612c81565b602082019050919050565b60006020820190508181036000830152612ce681612caa565b9050919050565b7f4552433732313a206d696e7420746f20746865207a65726f2061646472657373600082015250565b6000612d23602083611f44565b9150612d2e82612ced565b602082019050919050565b60006020820190508181036000830152612d5281612d16565b9050919050565b7f4552433732313a20746f6b656e20616c7265616479206d696e74656400000000600082015250565b6000612d8f601c83611f44565b9150612d9a82612d59565b602082019050919050565b60006020820190508181036000830152612dbe81612d82565b9050919050565b7f4552433732313a20617070726f766520746f2063616c6c657200000000000000600082015250565b6000612dfb601983611f44565b9150612e0682612dc5565b602082019050919050565b60006020820190508181036000830152612e2a81612dee565b9050919050565b7f4552433732313a207472616e7366657220746f206e6f6e20455243373231526560008201527f63656976657220696d706c656d656e7465720000000000000000000000000000602082015250565b6000612e8d603283611f44565b9150612e9882612e31565b604082019050919050565b60006020820190508181036000830152612ebc81612e80565b9050919050565b7f4e487b7100000000000000000000000000000000000000000000000000000000600052601260045260246000fd5b600081519050919050565b600082825260208201905092915050565b6000612f1982612ef2565b612f238185612efd565b9350612f33818560208601611f55565b612f3c81611f7f565b840191505092915050565b6000608082019050612f5c6000830187612076565b612f696020830186612076565b612f766040830185611f0f565b8181036060830152612f888184612f0e565b905095945050505050565b600081519050612fa281611e76565b92915050565b600060208284031215612fbe57612fbd611e40565b5b6000612fcc84828501612f93565b9150509291505056fea264697066735822122031f9e6fb50c0ebbd2a88b6ebac03cc08cd6464f68dbc7a7a37f37df8951670f964736f6c63430008180033",
  "linkReferences": {},
  "deployedLinkReferences": {}
}