{
  "_format": "hh-sol-artifact-1",
  "contractName": "MehRoyaltyV1",
  "sourceName": "contracts/MehRoyaltyV1.sol",
  "abi": [
    {
      "inputs": [
        {
          "internalType": "contract IERC20Burnable",
          "name": "_mehToken",
          "type": "address"
        }
      ],
      "stateMutability": "nonpayable",
      "type": "constructor"
    },
    {
      "anonymous": false,
      "inputs": [
        {
          "indexed": true,
          "internalType": "address",
          "name": "owner",
          "type": "address"
        },
        {
          "indexed": true,
          "internalType": "address",
          "name": "approved",
          "type": "address"
        },
        {
          "indexed": true,
          "internalType": "uint256",
          "name": "tokenId",
          "type": "uint256"
        }
      ],
      "name": "Approval",
      "type": "event"
    },
    {
      "anonymous": false,
      "inputs": [
        {
          "indexed": true,
          "internalType": "address",
          "name": "owner",
          "type": "address"
        },
        {
          "indexed": true,
          "internalType": "address",
          "name": "operator",
          "type": "address"
        },
        {
          "indexed": false,
          "internalType": "bool",
          "name": "approved",
          "type": "bool"
        }
      ],
      "name": "ApprovalForAll",
      "type": "event"
    },
    {
      "anonymous": false,
      "inputs": [
        {
          "indexed": true,
          "internalType": "address",
          "name": "previousOwner",
          "type": "address"
        },
        {
          "indexed": true,
          "internalType": "address",
          "name": "newOwner",
          "type": "address"
        }
      ],
      "name": "OwnershipTransferred",
      "type": "event"
    },
    {
      "anonymous": false,
      "inputs": [
        {
          "indexed": true,
          "internalType": "address",
          "name": "from",
          "type": "address"
        },
        {
          "indexed": true,
          "internalType": "address",
          "name": "to",
          "type": "address"
        },
        {
          "indexed": true,
          "internalType": "uint256",
          "name": "tokenId",
          "type": "uint256"
        }
      ],
      "name": "Transfer",
      "type": "event"
    },
    {
      "inputs": [],
      "name": "MINTER_ADDRESS",
      "outputs": [
        {
          "internalType": "address",
          "name": "",
          "type": "address"
        }
      ],
      "stateMutability": "view",
      "type": "function"
    },
    {
      "inputs": [
        {
          "internalType": "address",
          "name": "to",
          "type": "address"
        },
        {
          "internalType": "uint256",
          "name": "tokenId",
          "type": "uint256"
        }
      ],
      "name": "approve",
      "outputs": [],
      "stateMutability": "nonpayable",
      "type": "function"
    },
    {
      "inputs": [
        {
          "internalType": "address",
          "name": "owner",
          "type": "address"
        }
      ],
      "name": "balanceOf",
      "outputs": [
        {
          "internalType": "uint256",
          "name": "",
          "type": "uint256"
        }
      ],
      "stateMutability": "view",
      "type": "function"
    },
    {
      "inputs": [
        {
          "internalType": "uint256",
          "name": "_productId",
          "type": "uint256"
        },
        {
          "internalType": "uint256",
          "name": "_totalContracts",
          "type": "uint256"
        }
      ],
      "name": "createProduct",
      "outputs": [],
      "stateMutability": "nonpayable",
      "type": "function"
    },
    {
      "inputs": [
        {
          "internalType": "uint256",
          "name": "tokenId",
          "type": "uint256"
        },
        {
          "internalType": "uint256",
          "name": "amt",
          "type": "uint256"
        }
      ],
      "name": "depositMehToken",
      "outputs": [],
      "stateMutability": "nonpayable",
      "type": "function"
    },
    {
      "inputs": [
        {
          "internalType": "uint256",
          "name": "",
          "type": "uint256"
        }
      ],
      "name": "deposits",
      "outputs": [
        {
          "internalType": "uint256",
          "name": "",
          "type": "uint256"
        }
      ],
      "stateMutability": "view",
      "type": "function"
    },
    {
      "inputs": [
        {
          "internalType": "uint256",
          "name": "tokenId",
          "type": "uint256"
        },
        {
          "internalType": "uint256",
          "name": "amt",
          "type": "uint256"
        }
      ],
      "name": "extractMehToken",
      "outputs": [],
      "stateMutability": "nonpayable",
      "type": "function"
    },
    {
      "inputs": [
        {
          "internalType": "uint256",
          "name": "tokenId",
          "type": "uint256"
        }
      ],
      "name": "getApproved",
      "outputs": [
        {
          "internalType": "address",
          "name": "",
          "type": "address"
        }
      ],
      "stateMutability": "view",
      "type": "function"
    },
    {
      "inputs": [
        {
          "internalType": "address",
          "name": "owner",
          "type": "address"
        },
        {
          "internalType": "address",
          "name": "operator",
          "type": "address"
        }
      ],
      "name": "isApprovedForAll",
      "outputs": [
        {
          "internalType": "bool",
          "name": "",
          "type": "bool"
        }
      ],
      "stateMutability": "view",
      "type": "function"
    },
    {
      "inputs": [],
      "name": "mehToken",
      "outputs": [
        {
          "internalType": "contract IERC20Burnable",
          "name": "",
          "type": "address"
        }
      ],
      "stateMutability": "view",
      "type": "function"
    },
    {
      "inputs": [
        {
          "internalType": "uint256",
          "name": "_productId",
          "type": "uint256"
        },
        {
          "internalType": "address",
          "name": "_to",
          "type": "address"
        }
      ],
      "name": "mint",
      "outputs": [],
      "stateMutability": "nonpayable",
      "type": "function"
    },
    {
      "inputs": [],
      "name": "name",
      "outputs": [
        {
          "internalType": "string",
          "name": "",
          "type": "string"
        }
      ],
      "stateMutability": "view",
      "type": "function"
    },
    {
      "inputs": [],
      "name": "owner",
      "outputs": [
        {
          "internalType": "address",
          "name": "",
          "type": "address"
        }
      ],
      "stateMutability": "view",
      "type": "function"
    },
    {
      "inputs": [
        {
          "internalType": "uint256",
          "name": "tokenId",
          "type": "uint256"
        }
      ],
      "name": "ownerOf",
      "outputs": [
        {
          "internalType": "address",
          "name": "",
          "type": "address"
        }
      ],
      "stateMutability": "view",
      "type": "function"
    },
    {
      "inputs": [
        {
          "internalType": "uint256",
          "name": "",
          "type": "uint256"
        }
      ],
      "name": "products",
      "outputs": [
        {
          "internalType": "uint256",
          "name": "totalContracts",
          "type": "uint256"
        },
        {
          "internalType": "uint256",
          "name": "currentSerial",
          "type": "uint256"
        }
      ],
      "stateMutability": "view",
      "type": "function"
    },
    {
      "inputs": [],
      "name": "renounceOwnership",
      "outputs": [],
      "stateMutability": "nonpayable",
      "type": "function"
    },
    {
      "inputs": [
        {
          "internalType": "address",
          "name": "from",
          "type": "address"
        },
        {
          "internalType": "address",
          "name": "to",
          "type": "address"
        },
        {
          "internalType": "uint256",
          "name": "tokenId",
          "type": "uint256"
        }
      ],
      "name": "safeTransferFrom",
      "outputs": [],
      "stateMutability": "nonpayable",
      "type": "function"
    },
    {
      "inputs": [
        {
          "internalType": "address",
          "name": "from",
          "type": "address"
        },
        {
          "internalType": "address",
          "name": "to",
          "type": "address"
        },
        {
          "internalType": "uint256",
          "name": "tokenId",
          "type": "uint256"
        },
        {
          "internalType": "bytes",
          "name": "data",
          "type": "bytes"
        }
      ],
      "name": "safeTransferFrom",
      "outputs": [],
      "stateMutability": "nonpayable",
      "type": "function"
    },
    {
      "inputs": [
        {
          "internalType": "address",
          "name": "operator",
          "type": "address"
        },
        {
          "internalType": "bool",
          "name": "approved",
          "type": "bool"
        }
      ],
      "name": "setApprovalForAll",
      "outputs": [],
      "stateMutability": "nonpayable",
      "type": "function"
    },
    {
      "inputs": [
        {
          "internalType": "string",
          "name": "newURI",
          "type": "string"
        }
      ],
      "name": "setBaseTokenURI",
      "outputs": [],
      "stateMutability": "nonpayable",
      "type": "function"
    },
    {
      "inputs": [
        {
          "internalType": "bytes4",
          "name": "interfaceId",
          "type": "bytes4"
        }
      ],
      "name": "supportsInterface",
      "outputs": [
        {
          "internalType": "bool",
          "name": "",
          "type": "bool"
        }
      ],
      "stateMutability": "view",
      "type": "function"
    },
    {
      "inputs": [],
      "name": "symbol",
      "outputs": [
        {
          "internalType": "string",
          "name": "",
          "type": "string"
        }
      ],
      "stateMutability": "view",
      "type": "function"
    },
    {
      "inputs": [
        {
          "internalType": "uint256",
          "name": "tokenId",
          "type": "uint256"
        }
      ],
      "name": "tokenURI",
      "outputs": [
        {
          "internalType": "string",
          "name": "",
          "type": "string"
        }
      ],
      "stateMutability": "view",
      "type": "function"
    },
    {
      "inputs": [
        {
          "internalType": "address",
          "name": "from",
          "type": "address"
        },
        {
          "internalType": "address",
          "name": "to",
          "type": "address"
        },
        {
          "internalType": "uint256",
          "name": "tokenId",
          "type": "uint256"
        }
      ],
      "name": "transferFrom",
      "outputs": [],
      "stateMutability": "nonpayable",
      "type": "function"
    },
    {
      "inputs": [
        {
          "internalType": "address",
          "name": "newOwner",
          "type": "address"
        }
      ],
      "name": "transferOwnership",
      "outputs": [],
      "stateMutability": "nonpayable",
      "type": "function"
    },
    {
      "inputs": [
        {
          "internalType": "address",
          "name": "newMinter",
          "type": "address"
        }
      ],
      "name": "updateMinter",
      "outputs": [],
      "stateMutability": "nonpayable",
      "type": "function"
    }
  ],
  "bytecode": "0x60a06040523480156200001157600080fd5b5060405162003f5638038062003f56833981810160405281019062000037919062000278565b6040518060400160405280600a81526020017f4d6568526f79616c7479000000000000000000000000000000000000000000008152506040518060400160405280600381526020017f4d523100000000000000000000000000000000000000000000000000000000008152508160009081620000b4919062000524565b508060019081620000c6919062000524565b505050620000e9620000dd6200012c60201b60201c565b6200013460201b60201c565b60016007819055508073ffffffffffffffffffffffffffffffffffffffff1660808173ffffffffffffffffffffffffffffffffffffffff1681525050506200060b565b600033905090565b6000600660009054906101000a900473ffffffffffffffffffffffffffffffffffffffff16905081600660006101000a81548173ffffffffffffffffffffffffffffffffffffffff021916908373ffffffffffffffffffffffffffffffffffffffff1602179055508173ffffffffffffffffffffffffffffffffffffffff168173ffffffffffffffffffffffffffffffffffffffff167f8be0079c531659141344cd1fd0a4f28419497f9722a3daafe3b4186f6b6457e060405160405180910390a35050565b600080fd5b600073ffffffffffffffffffffffffffffffffffffffff82169050919050565b60006200022c82620001ff565b9050919050565b600062000240826200021f565b9050919050565b620002528162000233565b81146200025e57600080fd5b50565b600081519050620002728162000247565b92915050565b600060208284031215620002915762000290620001fa565b5b6000620002a18482850162000261565b91505092915050565b600081519050919050565b7f4e487b7100000000000000000000000000000000000000000000000000000000600052604160045260246000fd5b7f4e487b7100000000000000000000000000000000000000000000000000000000600052602260045260246000fd5b600060028204905060018216806200032c57607f821691505b602082108103620003425762000341620002e4565b5b50919050565b60008190508160005260206000209050919050565b60006020601f8301049050919050565b600082821b905092915050565b600060088302620003ac7fffffffffffffffffffffffffffffffffffffffffffffffffffffffffffffffff826200036d565b620003b886836200036d565b95508019841693508086168417925050509392505050565b6000819050919050565b6000819050919050565b600062000405620003ff620003f984620003d0565b620003da565b620003d0565b9050919050565b6000819050919050565b6200042183620003e4565b6200043962000430826200040c565b8484546200037a565b825550505050565b600090565b6200045062000441565b6200045d81848462000416565b505050565b5b8181101562000485576200047960008262000446565b60018101905062000463565b5050565b601f821115620004d4576200049e8162000348565b620004a9846200035d565b81016020851015620004b9578190505b620004d1620004c8856200035d565b83018262000462565b50505b505050565b600082821c905092915050565b6000620004f960001984600802620004d9565b1980831691505092915050565b6000620005148383620004e6565b9150826002028217905092915050565b6200052f82620002aa565b67ffffffffffffffff8111156200054b576200054a620002b5565b5b62000557825462000313565b6200056482828562000489565b600060209050601f8311600181146200059c576000841562000587578287015190505b62000593858262000506565b86555062000603565b601f198416620005ac8662000348565b60005b82811015620005d657848901518255600182019150602085019450602081019050620005af565b86831015620005f65784890151620005f2601f891682620004e6565b8355505b6001600288020188555050505b505050505050565b6080516139216200063560003960008181610ab001528181610ec1015261114c01526139216000f3fe608060405234801561001057600080fd5b506004361061018e5760003560e01c80638e6410a1116100de578063b1e3457d11610097578063e2c2c88411610071578063e2c2c8841461047e578063e985e9c51461049c578063f2fde38b146104cc578063fedfc8af146104e85761018e565b8063b1e3457d14610416578063b88d4fde14610432578063c87b56dd1461044e5761018e565b80638e6410a11461035657806394bf804d1461037257806395d89b411461038e578063a22cb465146103ac578063a4b80b6a146103c8578063b02c43d0146103e65761018e565b806342842e0e1161014b57806370a082311161012557806370a08231146102cd578063715018a6146102fd5780637acc0b20146103075780638da5cb5b146103385761018e565b806342842e0e146102655780634eb03f6e146102815780636352211e1461029d5761018e565b806301ffc9a71461019357806306fdde03146101c3578063081812fc146101e1578063095ea7b31461021157806323b872dd1461022d57806330176e1314610249575b600080fd5b6101ad60048036038101906101a891906121f1565b610504565b6040516101ba9190612239565b60405180910390f35b6101cb6105e6565b6040516101d891906122e4565b60405180910390f35b6101fb60048036038101906101f6919061233c565b610678565b60405161020891906123aa565b60405180910390f35b61022b600480360381019061022691906123f1565b6106be565b005b61024760048036038101906102429190612431565b6107d5565b005b610263600480360381019061025e91906124e9565b610835565b005b61027f600480360381019061027a9190612431565b610853565b005b61029b60048036038101906102969190612536565b610873565b005b6102b760048036038101906102b2919061233c565b6108bf565b6040516102c491906123aa565b60405180910390f35b6102e760048036038101906102e29190612536565b610945565b6040516102f49190612572565b60405180910390f35b6103056109fc565b005b610321600480360381019061031c919061233c565b610a10565b60405161032f92919061258d565b60405180910390f35b610340610a34565b60405161034d91906123aa565b60405180910390f35b610370600480360381019061036b91906125b6565b610a5e565b005b61038c600480360381019061038791906125f6565b610b85565b005b610396610cc3565b6040516103a391906122e4565b60405180910390f35b6103c660048036038101906103c19190612662565b610d55565b005b6103d0610d6b565b6040516103dd91906123aa565b60405180910390f35b61040060048036038101906103fb919061233c565b610d91565b60405161040d9190612572565b60405180910390f35b610430600480360381019061042b91906125b6565b610da9565b005b61044c600480360381019061044791906127d2565b610df5565b005b6104686004803603810190610463919061233c565b610e57565b60405161047591906122e4565b60405180910390f35b610486610ebf565b60405161049391906128b4565b60405180910390f35b6104b660048036038101906104b191906128cf565b610ee3565b6040516104c39190612239565b60405180910390f35b6104e660048036038101906104e19190612536565b610f77565b005b61050260048036038101906104fd91906125b6565b610ffa565b005b60007f80ac58cd000000000000000000000000000000000000000000000000000000007bffffffffffffffffffffffffffffffffffffffffffffffffffffffff1916827bffffffffffffffffffffffffffffffffffffffffffffffffffffffff191614806105cf57507f5b5e139f000000000000000000000000000000000000000000000000000000007bffffffffffffffffffffffffffffffffffffffffffffffffffffffff1916827bffffffffffffffffffffffffffffffffffffffffffffffffffffffff1916145b806105df57506105de826111f5565b5b9050919050565b6060600080546105f59061293e565b80601f01602080910402602001604051908101604052809291908181526020018280546106219061293e565b801561066e5780601f106106435761010080835404028352916020019161066e565b820191906000526020600020905b81548152906001019060200180831161065157829003601f168201915b5050505050905090565b60006106838261125f565b6004600083815260200190815260200160002060009054906101000a900473ffffffffffffffffffffffffffffffffffffffff169050919050565b60006106c9826108bf565b90508073ffffffffffffffffffffffffffffffffffffffff168373ffffffffffffffffffffffffffffffffffffffff1603610739576040517f08c379a0000000000000000000000000000000000000000000000000000000008152600401610730906129e1565b60405180910390fd5b8073ffffffffffffffffffffffffffffffffffffffff166107586112aa565b73ffffffffffffffffffffffffffffffffffffffff1614806107875750610786816107816112aa565b610ee3565b5b6107c6576040517f08c379a00000000000000000000000000000000000000000000000000000000081526004016107bd90612a73565b60405180910390fd5b6107d083836112b2565b505050565b6107e66107e06112aa565b8261136b565b610825576040517f08c379a000000000000000000000000000000000000000000000000000000000815260040161081c90612b05565b60405180910390fd5b610830838383611400565b505050565b61083d6116f9565b81816008918261084e929190612cd2565b505050565b61086e83838360405180602001604052806000815250610df5565b505050565b61087b6116f9565b80600960006101000a81548173ffffffffffffffffffffffffffffffffffffffff021916908373ffffffffffffffffffffffffffffffffffffffff16021790555050565b6000806108cb83611777565b9050600073ffffffffffffffffffffffffffffffffffffffff168173ffffffffffffffffffffffffffffffffffffffff160361093c576040517f08c379a000000000000000000000000000000000000000000000000000000000815260040161093390612dee565b60405180910390fd5b80915050919050565b60008073ffffffffffffffffffffffffffffffffffffffff168273ffffffffffffffffffffffffffffffffffffffff16036109b5576040517f08c379a00000000000000000000000000000000000000000000000000000000081526004016109ac90612e80565b60405180910390fd5b600360008373ffffffffffffffffffffffffffffffffffffffff1673ffffffffffffffffffffffffffffffffffffffff168152602001908152602001600020549050919050565b610a046116f9565b610a0e60006117b4565b565b600a6020528060005260406000206000915090508060000154908060010154905082565b6000600660009054906101000a900473ffffffffffffffffffffffffffffffffffffffff16905090565b610a6661187a565b610a6f826118c9565b610aae576040517f08c379a0000000000000000000000000000000000000000000000000000000008152600401610aa590612eec565b60405180910390fd5b7f000000000000000000000000000000000000000000000000000000000000000073ffffffffffffffffffffffffffffffffffffffff166323b872dd3330846040518463ffffffff1660e01b8152600401610b0b93929190612f0c565b6020604051808303816000875af1158015610b2a573d6000803e3d6000fd5b505050506040513d601f19601f82011682018060405250810190610b4e9190612f58565b5080600b60008481526020019081526020016000206000828254610b729190612fb4565b92505081905550610b8161190a565b5050565b610b8d61187a565b600960009054906101000a900473ffffffffffffffffffffffffffffffffffffffff1673ffffffffffffffffffffffffffffffffffffffff163373ffffffffffffffffffffffffffffffffffffffff1614610c1d576040517f08c379a0000000000000000000000000000000000000000000000000000000008152600401610c149061305a565b60405180910390fd5b6000600a600084815260200190815260200160002090508060000154816001015410610c7e576040517f08c379a0000000000000000000000000000000000000000000000000000000008152600401610c75906130ec565b60405180910390fd5b600060018260010154610c919190612fb4565b90506000610c9f8583611914565b9050610cab8482611937565b818360010181905550505050610cbf61190a565b5050565b606060018054610cd29061293e565b80601f0160208091040260200160405190810160405280929190818152602001828054610cfe9061293e565b8015610d4b5780601f10610d2057610100808354040283529160200191610d4b565b820191906000526020600020905b815481529060010190602001808311610d2e57829003601f168201915b5050505050905090565b610d67610d606112aa565b8383611b54565b5050565b600960009054906101000a900473ffffffffffffffffffffffffffffffffffffffff1681565b600b6020528060005260406000206000915090505481565b610db16116f9565b60405180604001604052808281526020016000815250600a600084815260200190815260200160002060008201518160000155602082015181600101559050505050565b610e06610e006112aa565b8361136b565b610e45576040517f08c379a0000000000000000000000000000000000000000000000000000000008152600401610e3c90612b05565b60405180910390fd5b610e5184848484611cc0565b50505050565b6060610e628261125f565b6000610e6c611d1c565b90506000815111610e8c5760405180602001604052806000815250610eb7565b80610e9684611dae565b604051602001610ea7929190613148565b6040516020818303038152906040525b915050919050565b7f000000000000000000000000000000000000000000000000000000000000000081565b6000600560008473ffffffffffffffffffffffffffffffffffffffff1673ffffffffffffffffffffffffffffffffffffffff16815260200190815260200160002060008373ffffffffffffffffffffffffffffffffffffffff1673ffffffffffffffffffffffffffffffffffffffff16815260200190815260200160002060009054906101000a900460ff16905092915050565b610f7f6116f9565b600073ffffffffffffffffffffffffffffffffffffffff168173ffffffffffffffffffffffffffffffffffffffff1603610fee576040517f08c379a0000000000000000000000000000000000000000000000000000000008152600401610fe5906131de565b60405180910390fd5b610ff7816117b4565b50565b61100261187a565b3373ffffffffffffffffffffffffffffffffffffffff16611022836108bf565b73ffffffffffffffffffffffffffffffffffffffff1614611078576040517f08c379a000000000000000000000000000000000000000000000000000000000815260040161106f90613270565b60405180910390fd5b80600b60008481526020019081526020016000205410156110ce576040517f08c379a00000000000000000000000000000000000000000000000000000000081526004016110c5906132dc565b60405180910390fd5b636685f4104211611114576040517f08c379a000000000000000000000000000000000000000000000000000000000815260040161110b90613348565b60405180910390fd5b80600b6000848152602001908152602001600020546111339190613368565b600b6000848152602001908152602001600020819055507f000000000000000000000000000000000000000000000000000000000000000073ffffffffffffffffffffffffffffffffffffffff1663a9059cbb33836040518363ffffffff1660e01b81526004016111a592919061339c565b6020604051808303816000875af11580156111c4573d6000803e3d6000fd5b505050506040513d601f19601f820116820180604052508101906111e89190612f58565b506111f161190a565b5050565b60007f01ffc9a7000000000000000000000000000000000000000000000000000000007bffffffffffffffffffffffffffffffffffffffffffffffffffffffff1916827bffffffffffffffffffffffffffffffffffffffffffffffffffffffff1916149050919050565b611268816118c9565b6112a7576040517f08c379a000000000000000000000000000000000000000000000000000000000815260040161129e90612dee565b60405180910390fd5b50565b600033905090565b816004600083815260200190815260200160002060006101000a81548173ffffffffffffffffffffffffffffffffffffffff021916908373ffffffffffffffffffffffffffffffffffffffff160217905550808273ffffffffffffffffffffffffffffffffffffffff16611325836108bf565b73ffffffffffffffffffffffffffffffffffffffff167f8c5be1e5ebec7d5bd14f71427d1e84f3dd0314c0f7b2291e5b200ac8c7c3b92560405160405180910390a45050565b600080611377836108bf565b90508073ffffffffffffffffffffffffffffffffffffffff168473ffffffffffffffffffffffffffffffffffffffff1614806113b957506113b88185610ee3565b5b806113f757508373ffffffffffffffffffffffffffffffffffffffff166113df84610678565b73ffffffffffffffffffffffffffffffffffffffff16145b91505092915050565b8273ffffffffffffffffffffffffffffffffffffffff16611420826108bf565b73ffffffffffffffffffffffffffffffffffffffff1614611476576040517f08c379a000000000000000000000000000000000000000000000000000000000815260040161146d90613437565b60405180910390fd5b600073ffffffffffffffffffffffffffffffffffffffff168273ffffffffffffffffffffffffffffffffffffffff16036114e5576040517f08c379a00000000000000000000000000000000000000000000000000000000081526004016114dc906134c9565b60405180910390fd5b6114f28383836001611e7c565b8273ffffffffffffffffffffffffffffffffffffffff16611512826108bf565b73ffffffffffffffffffffffffffffffffffffffff1614611568576040517f08c379a000000000000000000000000000000000000000000000000000000000815260040161155f90613437565b60405180910390fd5b6004600082815260200190815260200160002060006101000a81549073ffffffffffffffffffffffffffffffffffffffff02191690556001600360008573ffffffffffffffffffffffffffffffffffffffff1673ffffffffffffffffffffffffffffffffffffffff168152602001908152602001600020600082825403925050819055506001600360008473ffffffffffffffffffffffffffffffffffffffff1673ffffffffffffffffffffffffffffffffffffffff16815260200190815260200160002060008282540192505081905550816002600083815260200190815260200160002060006101000a81548173ffffffffffffffffffffffffffffffffffffffff021916908373ffffffffffffffffffffffffffffffffffffffff160217905550808273ffffffffffffffffffffffffffffffffffffffff168473ffffffffffffffffffffffffffffffffffffffff167fddf252ad1be2c89b69c2b068fc378daa952ba7f163c4a11628f55a4df523b3ef60405160405180910390a46116f48383836001611e82565b505050565b6117016112aa565b73ffffffffffffffffffffffffffffffffffffffff1661171f610a34565b73ffffffffffffffffffffffffffffffffffffffff1614611775576040517f08c379a000000000000000000000000000000000000000000000000000000000815260040161176c90613535565b60405180910390fd5b565b60006002600083815260200190815260200160002060009054906101000a900473ffffffffffffffffffffffffffffffffffffffff169050919050565b6000600660009054906101000a900473ffffffffffffffffffffffffffffffffffffffff16905081600660006101000a81548173ffffffffffffffffffffffffffffffffffffffff021916908373ffffffffffffffffffffffffffffffffffffffff1602179055508173ffffffffffffffffffffffffffffffffffffffff168173ffffffffffffffffffffffffffffffffffffffff167f8be0079c531659141344cd1fd0a4f28419497f9722a3daafe3b4186f6b6457e060405160405180910390a35050565b6002600754036118bf576040517f08c379a00000000000000000000000000000000000000000000000000000000081526004016118b6906135a1565b60405180910390fd5b6002600781905550565b60008073ffffffffffffffffffffffffffffffffffffffff166118eb83611777565b73ffffffffffffffffffffffffffffffffffffffff1614159050919050565b6001600781905550565b6000816127108461192591906135c1565b61192f9190612fb4565b905092915050565b600073ffffffffffffffffffffffffffffffffffffffff168273ffffffffffffffffffffffffffffffffffffffff16036119a6576040517f08c379a000000000000000000000000000000000000000000000000000000000815260040161199d9061364f565b60405180910390fd5b6119af816118c9565b156119ef576040517f08c379a00000000000000000000000000000000000000000000000000000000081526004016119e6906136bb565b60405180910390fd5b6119fd600083836001611e7c565b611a06816118c9565b15611a46576040517f08c379a0000000000000000000000000000000000000000000000000000000008152600401611a3d906136bb565b60405180910390fd5b6001600360008473ffffffffffffffffffffffffffffffffffffffff1673ffffffffffffffffffffffffffffffffffffffff16815260200190815260200160002060008282540192505081905550816002600083815260200190815260200160002060006101000a81548173ffffffffffffffffffffffffffffffffffffffff021916908373ffffffffffffffffffffffffffffffffffffffff160217905550808273ffffffffffffffffffffffffffffffffffffffff16600073ffffffffffffffffffffffffffffffffffffffff167fddf252ad1be2c89b69c2b068fc378daa952ba7f163c4a11628f55a4df523b3ef60405160405180910390a4611b50600083836001611e82565b5050565b8173ffffffffffffffffffffffffffffffffffffffff168373ffffffffffffffffffffffffffffffffffffffff1603611bc2576040517f08c379a0000000000000000000000000000000000000000000000000000000008152600401611bb990613727565b60405180910390fd5b80600560008573ffffffffffffffffffffffffffffffffffffffff1673ffffffffffffffffffffffffffffffffffffffff16815260200190815260200160002060008473ffffffffffffffffffffffffffffffffffffffff1673ffffffffffffffffffffffffffffffffffffffff16815260200190815260200160002060006101000a81548160ff0219169083151502179055508173ffffffffffffffffffffffffffffffffffffffff168373ffffffffffffffffffffffffffffffffffffffff167f17307eab39ab6107e8899845ad3d59bd9653f200f220920489ca2b5937696c3183604051611cb39190612239565b60405180910390a3505050565b611ccb848484611400565b611cd784848484611e88565b611d16576040517f08c379a0000000000000000000000000000000000000000000000000000000008152600401611d0d906137b9565b60405180910390fd5b50505050565b606060088054611d2b9061293e565b80601f0160208091040260200160405190810160405280929190818152602001828054611d579061293e565b8015611da45780601f10611d7957610100808354040283529160200191611da4565b820191906000526020600020905b815481529060010190602001808311611d8757829003601f168201915b5050505050905090565b606060006001611dbd8461200f565b01905060008167ffffffffffffffff811115611ddc57611ddb6126a7565b5b6040519080825280601f01601f191660200182016040528015611e0e5781602001600182028036833780820191505090505b509050600082602001820190505b600115611e71578080600190039150507f3031323334353637383961626364656600000000000000000000000000000000600a86061a8153600a8581611e6557611e646137d9565b5b04945060008503611e1c575b819350505050919050565b50505050565b50505050565b6000611ea98473ffffffffffffffffffffffffffffffffffffffff16612162565b15612002578373ffffffffffffffffffffffffffffffffffffffff1663150b7a02611ed26112aa565b8786866040518563ffffffff1660e01b8152600401611ef4949392919061385d565b6020604051808303816000875af1925050508015611f3057506040513d601f19601f82011682018060405250810190611f2d91906138be565b60015b611fb2573d8060008114611f60576040519150601f19603f3d011682016040523d82523d6000602084013e611f65565b606091505b506000815103611faa576040517f08c379a0000000000000000000000000000000000000000000000000000000008152600401611fa1906137b9565b60405180910390fd5b805181602001fd5b63150b7a0260e01b7bffffffffffffffffffffffffffffffffffffffffffffffffffffffff1916817bffffffffffffffffffffffffffffffffffffffffffffffffffffffff191614915050612007565b600190505b949350505050565b600080600090507a184f03e93ff9f4daa797ed6e38ed64bf6a1f010000000000000000831061206d577a184f03e93ff9f4daa797ed6e38ed64bf6a1f0100000000000000008381612063576120626137d9565b5b0492506040810190505b6d04ee2d6d415b85acef810000000083106120aa576d04ee2d6d415b85acef810000000083816120a05761209f6137d9565b5b0492506020810190505b662386f26fc1000083106120d957662386f26fc1000083816120cf576120ce6137d9565b5b0492506010810190505b6305f5e1008310612102576305f5e10083816120f8576120f76137d9565b5b0492506008810190505b612710831061212757612710838161211d5761211c6137d9565b5b0492506004810190505b6064831061214a57606483816121405761213f6137d9565b5b0492506002810190505b600a8310612159576001810190505b80915050919050565b6000808273ffffffffffffffffffffffffffffffffffffffff163b119050919050565b6000604051905090565b600080fd5b600080fd5b60007fffffffff0000000000000000000000000000000000000000000000000000000082169050919050565b6121ce81612199565b81146121d957600080fd5b50565b6000813590506121eb816121c5565b92915050565b6000602082840312156122075761220661218f565b5b6000612215848285016121dc565b91505092915050565b60008115159050919050565b6122338161221e565b82525050565b600060208201905061224e600083018461222a565b92915050565b600081519050919050565b600082825260208201905092915050565b60005b8381101561228e578082015181840152602081019050612273565b60008484015250505050565b6000601f19601f8301169050919050565b60006122b682612254565b6122c0818561225f565b93506122d0818560208601612270565b6122d98161229a565b840191505092915050565b600060208201905081810360008301526122fe81846122ab565b905092915050565b6000819050919050565b61231981612306565b811461232457600080fd5b50565b60008135905061233681612310565b92915050565b6000602082840312156123525761235161218f565b5b600061236084828501612327565b91505092915050565b600073ffffffffffffffffffffffffffffffffffffffff82169050919050565b600061239482612369565b9050919050565b6123a481612389565b82525050565b60006020820190506123bf600083018461239b565b92915050565b6123ce81612389565b81146123d957600080fd5b50565b6000813590506123eb816123c5565b92915050565b600080604083850312156124085761240761218f565b5b6000612416858286016123dc565b925050602061242785828601612327565b9150509250929050565b60008060006060848603121561244a5761244961218f565b5b6000612458868287016123dc565b9350506020612469868287016123dc565b925050604061247a86828701612327565b9150509250925092565b600080fd5b600080fd5b600080fd5b60008083601f8401126124a9576124a8612484565b5b8235905067ffffffffffffffff8111156124c6576124c5612489565b5b6020830191508360018202830111156124e2576124e161248e565b5b9250929050565b60008060208385031215612500576124ff61218f565b5b600083013567ffffffffffffffff81111561251e5761251d612194565b5b61252a85828601612493565b92509250509250929050565b60006020828403121561254c5761254b61218f565b5b600061255a848285016123dc565b91505092915050565b61256c81612306565b82525050565b60006020820190506125876000830184612563565b92915050565b60006040820190506125a26000830185612563565b6125af6020830184612563565b9392505050565b600080604083850312156125cd576125cc61218f565b5b60006125db85828601612327565b92505060206125ec85828601612327565b9150509250929050565b6000806040838503121561260d5761260c61218f565b5b600061261b85828601612327565b925050602061262c858286016123dc565b9150509250929050565b61263f8161221e565b811461264a57600080fd5b50565b60008135905061265c81612636565b92915050565b600080604083850312156126795761267861218f565b5b6000612687858286016123dc565b92505060206126988582860161264d565b9150509250929050565b600080fd5b7f4e487b7100000000000000000000000000000000000000000000000000000000600052604160045260246000fd5b6126df8261229a565b810181811067ffffffffffffffff821117156126fe576126fd6126a7565b5b80604052505050565b6000612711612185565b905061271d82826126d6565b919050565b600067ffffffffffffffff82111561273d5761273c6126a7565b5b6127468261229a565b9050602081019050919050565b82818337600083830152505050565b600061277561277084612722565b612707565b905082815260208101848484011115612791576127906126a2565b5b61279c848285612753565b509392505050565b600082601f8301126127b9576127b8612484565b5b81356127c9848260208601612762565b91505092915050565b600080600080608085870312156127ec576127eb61218f565b5b60006127fa878288016123dc565b945050602061280b878288016123dc565b935050604061281c87828801612327565b925050606085013567ffffffffffffffff81111561283d5761283c612194565b5b612849878288016127a4565b91505092959194509250565b6000819050919050565b600061287a61287561287084612369565b612855565b612369565b9050919050565b600061288c8261285f565b9050919050565b600061289e82612881565b9050919050565b6128ae81612893565b82525050565b60006020820190506128c960008301846128a5565b92915050565b600080604083850312156128e6576128e561218f565b5b60006128f4858286016123dc565b9250506020612905858286016123dc565b9150509250929050565b7f4e487b7100000000000000000000000000000000000000000000000000000000600052602260045260246000fd5b6000600282049050600182168061295657607f821691505b6020821081036129695761296861290f565b5b50919050565b7f4552433732313a20617070726f76616c20746f2063757272656e74206f776e6560008201527f7200000000000000000000000000000000000000000000000000000000000000602082015250565b60006129cb60218361225f565b91506129d68261296f565b604082019050919050565b600060208201905081810360008301526129fa816129be565b9050919050565b7f4552433732313a20617070726f76652063616c6c6572206973206e6f7420746f60008201527f6b656e206f776e6572206f7220617070726f76656420666f7220616c6c000000602082015250565b6000612a5d603d8361225f565b9150612a6882612a01565b604082019050919050565b60006020820190508181036000830152612a8c81612a50565b9050919050565b7f4552433732313a2063616c6c6572206973206e6f7420746f6b656e206f776e6560008201527f72206f7220617070726f76656400000000000000000000000000000000000000602082015250565b6000612aef602d8361225f565b9150612afa82612a93565b604082019050919050565b60006020820190508181036000830152612b1e81612ae2565b9050919050565b600082905092915050565b60008190508160005260206000209050919050565b60006020601f8301049050919050565b600082821b905092915050565b600060088302612b927fffffffffffffffffffffffffffffffffffffffffffffffffffffffffffffffff82612b55565b612b9c8683612b55565b95508019841693508086168417925050509392505050565b6000612bcf612bca612bc584612306565b612855565b612306565b9050919050565b6000819050919050565b612be983612bb4565b612bfd612bf582612bd6565b848454612b62565b825550505050565b600090565b612c12612c05565b612c1d818484612be0565b505050565b5b81811015612c4157612c36600082612c0a565b600181019050612c23565b5050565b601f821115612c8657612c5781612b30565b612c6084612b45565b81016020851015612c6f578190505b612c83612c7b85612b45565b830182612c22565b50505b505050565b600082821c905092915050565b6000612ca960001984600802612c8b565b1980831691505092915050565b6000612cc28383612c98565b9150826002028217905092915050565b612cdc8383612b25565b67ffffffffffffffff811115612cf557612cf46126a7565b5b612cff825461293e565b612d0a828285612c45565b6000601f831160018114612d395760008415612d27578287013590505b612d318582612cb6565b865550612d99565b601f198416612d4786612b30565b60005b82811015612d6f57848901358255600182019150602085019450602081019050612d4a565b86831015612d8c5784890135612d88601f891682612c98565b8355505b6001600288020188555050505b50505050505050565b7f4552433732313a20696e76616c696420746f6b656e2049440000000000000000600082015250565b6000612dd860188361225f565b9150612de382612da2565b602082019050919050565b60006020820190508181036000830152612e0781612dcb565b9050919050565b7f4552433732313a2061646472657373207a65726f206973206e6f74206120766160008201527f6c6964206f776e65720000000000000000000000000000000000000000000000602082015250565b6000612e6a60298361225f565b9150612e7582612e0e565b604082019050919050565b60006020820190508181036000830152612e9981612e5d565b9050919050565b7f746f6b656e20646f6573206e6f74206578697374000000000000000000000000600082015250565b6000612ed660148361225f565b9150612ee182612ea0565b602082019050919050565b60006020820190508181036000830152612f0581612ec9565b9050919050565b6000606082019050612f21600083018661239b565b612f2e602083018561239b565b612f3b6040830184612563565b949350505050565b600081519050612f5281612636565b92915050565b600060208284031215612f6e57612f6d61218f565b5b6000612f7c84828501612f43565b91505092915050565b7f4e487b7100000000000000000000000000000000000000000000000000000000600052601160045260246000fd5b6000612fbf82612306565b9150612fca83612306565b9250828201905080821115612fe257612fe1612f85565b5b92915050565b7f6d696e742063616e206f6e6c792062652063616c6c6564206279206d696e746560008201527f7200000000000000000000000000000000000000000000000000000000000000602082015250565b600061304460218361225f565b915061304f82612fe8565b604082019050919050565b6000602082019050818103600083015261307381613037565b9050919050565b7f616c6c20746f6b656e73206d696e74656420666f7220746869732070726f647560008201527f6374000000000000000000000000000000000000000000000000000000000000602082015250565b60006130d660228361225f565b91506130e18261307a565b604082019050919050565b60006020820190508181036000830152613105816130c9565b9050919050565b600081905092915050565b600061312282612254565b61312c818561310c565b935061313c818560208601612270565b80840191505092915050565b60006131548285613117565b91506131608284613117565b91508190509392505050565b7f4f776e61626c653a206e6577206f776e657220697320746865207a65726f206160008201527f6464726573730000000000000000000000000000000000000000000000000000602082015250565b60006131c860268361225f565b91506131d38261316c565b604082019050919050565b600060208201905081810360008301526131f7816131bb565b9050919050565b7f63616c6c6572206973206e6f7420746865206f776e6572206f6620746865207460008201527f6f6b656e00000000000000000000000000000000000000000000000000000000602082015250565b600061325a60248361225f565b9150613265826131fe565b604082019050919050565b600060208201905081810360008301526132898161324d565b9050919050565b7f696e73756666696369656e74206d656800000000000000000000000000000000600082015250565b60006132c660108361225f565b91506132d182613290565b602082019050919050565b600060208201905081810360008301526132f5816132b9565b9050919050565b7f666f75727468206f66206a756c79000000000000000000000000000000000000600082015250565b6000613332600e8361225f565b915061333d826132fc565b602082019050919050565b6000602082019050818103600083015261336181613325565b9050919050565b600061337382612306565b915061337e83612306565b925082820390508181111561339657613395612f85565b5b92915050565b60006040820190506133b1600083018561239b565b6133be6020830184612563565b9392505050565b7f4552433732313a207472616e736665722066726f6d20696e636f72726563742060008201527f6f776e6572000000000000000000000000000000000000000000000000000000602082015250565b600061342160258361225f565b915061342c826133c5565b604082019050919050565b6000602082019050818103600083015261345081613414565b9050919050565b7f4552433732313a207472616e7366657220746f20746865207a65726f2061646460008201527f7265737300000000000000000000000000000000000000000000000000000000602082015250565b60006134b360248361225f565b91506134be82613457565b604082019050919050565b600060208201905081810360008301526134e2816134a6565b9050919050565b7f4f776e61626c653a2063616c6c6572206973206e6f7420746865206f776e6572600082015250565b600061351f60208361225f565b915061352a826134e9565b602082019050919050565b6000602082019050818103600083015261354e81613512565b9050919050565b7f5265656e7472616e637947756172643a207265656e7472616e742063616c6c00600082015250565b600061358b601f8361225f565b915061359682613555565b602082019050919050565b600060208201905081810360008301526135ba8161357e565b9050919050565b60006135cc82612306565b91506135d783612306565b92508282026135e581612306565b915082820484148315176135fc576135fb612f85565b5b5092915050565b7f4552433732313a206d696e7420746f20746865207a65726f2061646472657373600082015250565b600061363960208361225f565b915061364482613603565b602082019050919050565b600060208201905081810360008301526136688161362c565b9050919050565b7f4552433732313a20746f6b656e20616c7265616479206d696e74656400000000600082015250565b60006136a5601c8361225f565b91506136b08261366f565b602082019050919050565b600060208201905081810360008301526136d481613698565b9050919050565b7f4552433732313a20617070726f766520746f2063616c6c657200000000000000600082015250565b600061371160198361225f565b915061371c826136db565b602082019050919050565b6000602082019050818103600083015261374081613704565b9050919050565b7f4552433732313a207472616e7366657220746f206e6f6e20455243373231526560008201527f63656976657220696d706c656d656e7465720000000000000000000000000000602082015250565b60006137a360328361225f565b91506137ae82613747565b604082019050919050565b600060208201905081810360008301526137d281613796565b9050919050565b7f4e487b7100000000000000000000000000000000000000000000000000000000600052601260045260246000fd5b600081519050919050565b600082825260208201905092915050565b600061382f82613808565b6138398185613813565b9350613849818560208601612270565b6138528161229a565b840191505092915050565b6000608082019050613872600083018761239b565b61387f602083018661239b565b61388c6040830185612563565b818103606083015261389e8184613824565b905095945050505050565b6000815190506138b8816121c5565b92915050565b6000602082840312156138d4576138d361218f565b5b60006138e2848285016138a9565b9150509291505056fea2646970667358221220de2a3e1d9371b8e2206b2f642c6d836e5ed1ff492c9a652f11d2a70c59d1b07364736f6c63430008180033",
  "linkReferences": {},
  "deployedLinkReferences": {}
}