{
  "_format": "hh-sol-artifact-1",
  "contractName": "MehRoyaltyV1",
  "sourceName": "contracts/MehRoyaltyV1.sol",
  "abi": [
    {
      "inputs": [
        {
          "internalType": "contract IERC20",
          "name": "_mehToken",
          "type": "address"
        }
      ],
      "stateMutability": "nonpayable",
      "type": "constructor"
    },
    {
      "anonymous": false,
      "inputs": [
        {
          "indexed": true,
          "internalType": "address",
          "name": "owner",
          "type": "address"
        },
        {
          "indexed": true,
          "internalType": "address",
          "name": "approved",
          "type": "address"
        },
        {
          "indexed": true,
          "internalType": "uint256",
          "name": "tokenId",
          "type": "uint256"
        }
      ],
      "name": "Approval",
      "type": "event"
    },
    {
      "anonymous": false,
      "inputs": [
        {
          "indexed": true,
          "internalType": "address",
          "name": "owner",
          "type": "address"
        },
        {
          "indexed": true,
          "internalType": "address",
          "name": "operator",
          "type": "address"
        },
        {
          "indexed": false,
          "internalType": "bool",
          "name": "approved",
          "type": "bool"
        }
      ],
      "name": "ApprovalForAll",
      "type": "event"
    },
    {
      "anonymous": false,
      "inputs": [
        {
          "indexed": true,
          "internalType": "address",
          "name": "previousOwner",
          "type": "address"
        },
        {
          "indexed": true,
          "internalType": "address",
          "name": "newOwner",
          "type": "address"
        }
      ],
      "name": "OwnershipTransferred",
      "type": "event"
    },
    {
      "anonymous": false,
      "inputs": [
        {
          "indexed": true,
          "internalType": "address",
          "name": "from",
          "type": "address"
        },
        {
          "indexed": true,
          "internalType": "address",
          "name": "to",
          "type": "address"
        },
        {
          "indexed": true,
          "internalType": "uint256",
          "name": "tokenId",
          "type": "uint256"
        }
      ],
      "name": "Transfer",
      "type": "event"
    },
    {
      "inputs": [],
      "name": "MINTER_ADDRESS",
      "outputs": [
        {
          "internalType": "address",
          "name": "",
          "type": "address"
        }
      ],
      "stateMutability": "view",
      "type": "function"
    },
    {
      "inputs": [
        {
          "internalType": "address",
          "name": "to",
          "type": "address"
        },
        {
          "internalType": "uint256",
          "name": "tokenId",
          "type": "uint256"
        }
      ],
      "name": "approve",
      "outputs": [],
      "stateMutability": "nonpayable",
      "type": "function"
    },
    {
      "inputs": [
        {
          "internalType": "address",
          "name": "owner",
          "type": "address"
        }
      ],
      "name": "balanceOf",
      "outputs": [
        {
          "internalType": "uint256",
          "name": "",
          "type": "uint256"
        }
      ],
      "stateMutability": "view",
      "type": "function"
    },
    {
      "inputs": [],
      "name": "baseURI",
      "outputs": [
        {
          "internalType": "string",
          "name": "",
          "type": "string"
        }
      ],
      "stateMutability": "view",
      "type": "function"
    },
    {
      "inputs": [
        {
          "internalType": "uint256",
          "name": "_productId",
          "type": "uint256"
        },
        {
          "internalType": "uint256",
          "name": "_totalContracts",
          "type": "uint256"
        }
      ],
      "name": "createProduct",
      "outputs": [],
      "stateMutability": "nonpayable",
      "type": "function"
    },
    {
      "inputs": [
        {
          "internalType": "uint256",
          "name": "tokenId",
          "type": "uint256"
        },
        {
          "internalType": "uint256",
          "name": "amt",
          "type": "uint256"
        }
      ],
      "name": "depositMehToken",
      "outputs": [],
      "stateMutability": "nonpayable",
      "type": "function"
    },
    {
      "inputs": [
        {
          "internalType": "uint256",
          "name": "",
          "type": "uint256"
        }
      ],
      "name": "deposits",
      "outputs": [
        {
          "internalType": "uint256",
          "name": "",
          "type": "uint256"
        }
      ],
      "stateMutability": "view",
      "type": "function"
    },
    {
      "inputs": [
        {
          "internalType": "uint256",
          "name": "tokenId",
          "type": "uint256"
        },
        {
          "internalType": "uint256",
          "name": "amt",
          "type": "uint256"
        }
      ],
      "name": "extractMehToken",
      "outputs": [],
      "stateMutability": "nonpayable",
      "type": "function"
    },
    {
      "inputs": [
        {
          "internalType": "uint256",
          "name": "tokenId",
          "type": "uint256"
        }
      ],
      "name": "getApproved",
      "outputs": [
        {
          "internalType": "address",
          "name": "",
          "type": "address"
        }
      ],
      "stateMutability": "view",
      "type": "function"
    },
    {
      "inputs": [
        {
          "internalType": "address",
          "name": "owner",
          "type": "address"
        },
        {
          "internalType": "address",
          "name": "operator",
          "type": "address"
        }
      ],
      "name": "isApprovedForAll",
      "outputs": [
        {
          "internalType": "bool",
          "name": "",
          "type": "bool"
        }
      ],
      "stateMutability": "view",
      "type": "function"
    },
    {
      "inputs": [],
      "name": "mehToken",
      "outputs": [
        {
          "internalType": "contract IERC20",
          "name": "",
          "type": "address"
        }
      ],
      "stateMutability": "view",
      "type": "function"
    },
    {
      "inputs": [
        {
          "internalType": "uint256",
          "name": "_productId",
          "type": "uint256"
        },
        {
          "internalType": "address",
          "name": "_to",
          "type": "address"
        }
      ],
      "name": "mint",
      "outputs": [],
      "stateMutability": "nonpayable",
      "type": "function"
    },
    {
      "inputs": [],
      "name": "name",
      "outputs": [
        {
          "internalType": "string",
          "name": "",
          "type": "string"
        }
      ],
      "stateMutability": "view",
      "type": "function"
    },
    {
      "inputs": [],
      "name": "owner",
      "outputs": [
        {
          "internalType": "address",
          "name": "",
          "type": "address"
        }
      ],
      "stateMutability": "view",
      "type": "function"
    },
    {
      "inputs": [
        {
          "internalType": "uint256",
          "name": "tokenId",
          "type": "uint256"
        }
      ],
      "name": "ownerOf",
      "outputs": [
        {
          "internalType": "address",
          "name": "",
          "type": "address"
        }
      ],
      "stateMutability": "view",
      "type": "function"
    },
    {
      "inputs": [
        {
          "internalType": "uint256",
          "name": "",
          "type": "uint256"
        }
      ],
      "name": "products",
      "outputs": [
        {
          "internalType": "uint256",
          "name": "totalContracts",
          "type": "uint256"
        },
        {
          "internalType": "uint256",
          "name": "currentSerial",
          "type": "uint256"
        }
      ],
      "stateMutability": "view",
      "type": "function"
    },
    {
      "inputs": [],
      "name": "renounceOwnership",
      "outputs": [],
      "stateMutability": "nonpayable",
      "type": "function"
    },
    {
      "inputs": [
        {
          "internalType": "address",
          "name": "from",
          "type": "address"
        },
        {
          "internalType": "address",
          "name": "to",
          "type": "address"
        },
        {
          "internalType": "uint256",
          "name": "tokenId",
          "type": "uint256"
        }
      ],
      "name": "safeTransferFrom",
      "outputs": [],
      "stateMutability": "nonpayable",
      "type": "function"
    },
    {
      "inputs": [
        {
          "internalType": "address",
          "name": "from",
          "type": "address"
        },
        {
          "internalType": "address",
          "name": "to",
          "type": "address"
        },
        {
          "internalType": "uint256",
          "name": "tokenId",
          "type": "uint256"
        },
        {
          "internalType": "bytes",
          "name": "data",
          "type": "bytes"
        }
      ],
      "name": "safeTransferFrom",
      "outputs": [],
      "stateMutability": "nonpayable",
      "type": "function"
    },
    {
      "inputs": [
        {
          "internalType": "address",
          "name": "operator",
          "type": "address"
        },
        {
          "internalType": "bool",
          "name": "approved",
          "type": "bool"
        }
      ],
      "name": "setApprovalForAll",
      "outputs": [],
      "stateMutability": "nonpayable",
      "type": "function"
    },
    {
      "inputs": [
        {
          "internalType": "string",
          "name": "newURI",
          "type": "string"
        }
      ],
      "name": "setBaseTokenURI",
      "outputs": [],
      "stateMutability": "nonpayable",
      "type": "function"
    },
    {
      "inputs": [
        {
          "internalType": "bytes4",
          "name": "interfaceId",
          "type": "bytes4"
        }
      ],
      "name": "supportsInterface",
      "outputs": [
        {
          "internalType": "bool",
          "name": "",
          "type": "bool"
        }
      ],
      "stateMutability": "view",
      "type": "function"
    },
    {
      "inputs": [],
      "name": "symbol",
      "outputs": [
        {
          "internalType": "string",
          "name": "",
          "type": "string"
        }
      ],
      "stateMutability": "view",
      "type": "function"
    },
    {
      "inputs": [
        {
          "internalType": "uint256",
          "name": "tokenId",
          "type": "uint256"
        }
      ],
      "name": "tokenURI",
      "outputs": [
        {
          "internalType": "string",
          "name": "",
          "type": "string"
        }
      ],
      "stateMutability": "view",
      "type": "function"
    },
    {
      "inputs": [
        {
          "internalType": "address",
          "name": "from",
          "type": "address"
        },
        {
          "internalType": "address",
          "name": "to",
          "type": "address"
        },
        {
          "internalType": "uint256",
          "name": "tokenId",
          "type": "uint256"
        }
      ],
      "name": "transferFrom",
      "outputs": [],
      "stateMutability": "nonpayable",
      "type": "function"
    },
    {
      "inputs": [
        {
          "internalType": "address",
          "name": "newOwner",
          "type": "address"
        }
      ],
      "name": "transferOwnership",
      "outputs": [],
      "stateMutability": "nonpayable",
      "type": "function"
    },
    {
      "inputs": [
        {
          "internalType": "address",
          "name": "newMinter",
          "type": "address"
        }
      ],
      "name": "updateMinter",
      "outputs": [],
      "stateMutability": "nonpayable",
      "type": "function"
    }
  ],
  "bytecode": "0x60a06040523480156200001157600080fd5b506040516200402138038062004021833981810160405281019062000037919062000278565b6040518060400160405280600a81526020017f4d6568526f79616c7479000000000000000000000000000000000000000000008152506040518060400160405280600381526020017f4d523100000000000000000000000000000000000000000000000000000000008152508160009081620000b4919062000524565b508060019081620000c6919062000524565b505050620000e9620000dd6200012c60201b60201c565b6200013460201b60201c565b60016007819055508073ffffffffffffffffffffffffffffffffffffffff1660808173ffffffffffffffffffffffffffffffffffffffff1681525050506200060b565b600033905090565b6000600660009054906101000a900473ffffffffffffffffffffffffffffffffffffffff16905081600660006101000a81548173ffffffffffffffffffffffffffffffffffffffff021916908373ffffffffffffffffffffffffffffffffffffffff1602179055508173ffffffffffffffffffffffffffffffffffffffff168173ffffffffffffffffffffffffffffffffffffffff167f8be0079c531659141344cd1fd0a4f28419497f9722a3daafe3b4186f6b6457e060405160405180910390a35050565b600080fd5b600073ffffffffffffffffffffffffffffffffffffffff82169050919050565b60006200022c82620001ff565b9050919050565b600062000240826200021f565b9050919050565b620002528162000233565b81146200025e57600080fd5b50565b600081519050620002728162000247565b92915050565b600060208284031215620002915762000290620001fa565b5b6000620002a18482850162000261565b91505092915050565b600081519050919050565b7f4e487b7100000000000000000000000000000000000000000000000000000000600052604160045260246000fd5b7f4e487b7100000000000000000000000000000000000000000000000000000000600052602260045260246000fd5b600060028204905060018216806200032c57607f821691505b602082108103620003425762000341620002e4565b5b50919050565b60008190508160005260206000209050919050565b60006020601f8301049050919050565b600082821b905092915050565b600060088302620003ac7fffffffffffffffffffffffffffffffffffffffffffffffffffffffffffffffff826200036d565b620003b886836200036d565b95508019841693508086168417925050509392505050565b6000819050919050565b6000819050919050565b600062000405620003ff620003f984620003d0565b620003da565b620003d0565b9050919050565b6000819050919050565b6200042183620003e4565b6200043962000430826200040c565b8484546200037a565b825550505050565b600090565b6200045062000441565b6200045d81848462000416565b505050565b5b8181101562000485576200047960008262000446565b60018101905062000463565b5050565b601f821115620004d4576200049e8162000348565b620004a9846200035d565b81016020851015620004b9578190505b620004d1620004c8856200035d565b83018262000462565b50505b505050565b600082821c905092915050565b6000620004f960001984600802620004d9565b1980831691505092915050565b6000620005148383620004e6565b9150826002028217905092915050565b6200052f82620002aa565b67ffffffffffffffff8111156200054b576200054a620002b5565b5b62000557825462000313565b6200056482828562000489565b600060209050601f8311600181146200059c576000841562000587578287015190505b62000593858262000506565b86555062000603565b601f198416620005ac8662000348565b60005b82811015620005d657848901518255600182019150602085019450602081019050620005af565b86831015620005f65784890151620005f2601f891682620004e6565b8355505b6001600288020188555050505b505050505050565b6080516139ec6200063560003960008181610b7b01528181610f8c015261121701526139ec6000f3fe608060405234801561001057600080fd5b50600436106101a95760003560e01c80638da5cb5b116100f9578063b1e3457d11610097578063e2c2c88411610071578063e2c2c884146104b7578063e985e9c5146104d5578063f2fde38b14610505578063fedfc8af14610521576101a9565b8063b1e3457d1461044f578063b88d4fde1461046b578063c87b56dd14610487576101a9565b806395d89b41116100d357806395d89b41146103c7578063a22cb465146103e5578063a4b80b6a14610401578063b02c43d01461041f576101a9565b80638da5cb5b146103715780638e6410a11461038f57806394bf804d146103ab576101a9565b806342842e0e116101665780636c0360eb116101405780636c0360eb146102e857806370a0823114610306578063715018a6146103365780637acc0b2014610340576101a9565b806342842e0e146102805780634eb03f6e1461029c5780636352211e146102b8576101a9565b806301ffc9a7146101ae57806306fdde03146101de578063081812fc146101fc578063095ea7b31461022c57806323b872dd1461024857806330176e1314610264575b600080fd5b6101c860048036038101906101c391906122bc565b61053d565b6040516101d59190612304565b60405180910390f35b6101e661061f565b6040516101f391906123af565b60405180910390f35b61021660048036038101906102119190612407565b6106b1565b6040516102239190612475565b60405180910390f35b610246600480360381019061024191906124bc565b6106f7565b005b610262600480360381019061025d91906124fc565b61080e565b005b61027e600480360381019061027991906125b4565b61086e565b005b61029a600480360381019061029591906124fc565b61088c565b005b6102b660048036038101906102b19190612601565b6108ac565b005b6102d260048036038101906102cd9190612407565b6108f8565b6040516102df9190612475565b60405180910390f35b6102f061097e565b6040516102fd91906123af565b60405180910390f35b610320600480360381019061031b9190612601565b610a10565b60405161032d919061263d565b60405180910390f35b61033e610ac7565b005b61035a60048036038101906103559190612407565b610adb565b604051610368929190612658565b60405180910390f35b610379610aff565b6040516103869190612475565b60405180910390f35b6103a960048036038101906103a49190612681565b610b29565b005b6103c560048036038101906103c091906126c1565b610c50565b005b6103cf610d8e565b6040516103dc91906123af565b60405180910390f35b6103ff60048036038101906103fa919061272d565b610e20565b005b610409610e36565b6040516104169190612475565b60405180910390f35b61043960048036038101906104349190612407565b610e5c565b604051610446919061263d565b60405180910390f35b61046960048036038101906104649190612681565b610e74565b005b6104856004803603810190610480919061289d565b610ec0565b005b6104a1600480360381019061049c9190612407565b610f22565b6040516104ae91906123af565b60405180910390f35b6104bf610f8a565b6040516104cc919061297f565b60405180910390f35b6104ef60048036038101906104ea919061299a565b610fae565b6040516104fc9190612304565b60405180910390f35b61051f600480360381019061051a9190612601565b611042565b005b61053b60048036038101906105369190612681565b6110c5565b005b60007f80ac58cd000000000000000000000000000000000000000000000000000000007bffffffffffffffffffffffffffffffffffffffffffffffffffffffff1916827bffffffffffffffffffffffffffffffffffffffffffffffffffffffff1916148061060857507f5b5e139f000000000000000000000000000000000000000000000000000000007bffffffffffffffffffffffffffffffffffffffffffffffffffffffff1916827bffffffffffffffffffffffffffffffffffffffffffffffffffffffff1916145b806106185750610617826112c0565b5b9050919050565b60606000805461062e90612a09565b80601f016020809104026020016040519081016040528092919081815260200182805461065a90612a09565b80156106a75780601f1061067c576101008083540402835291602001916106a7565b820191906000526020600020905b81548152906001019060200180831161068a57829003601f168201915b5050505050905090565b60006106bc8261132a565b6004600083815260200190815260200160002060009054906101000a900473ffffffffffffffffffffffffffffffffffffffff169050919050565b6000610702826108f8565b90508073ffffffffffffffffffffffffffffffffffffffff168373ffffffffffffffffffffffffffffffffffffffff1603610772576040517f08c379a000000000000000000000000000000000000000000000000000000000815260040161076990612aac565b60405180910390fd5b8073ffffffffffffffffffffffffffffffffffffffff16610791611375565b73ffffffffffffffffffffffffffffffffffffffff1614806107c057506107bf816107ba611375565b610fae565b5b6107ff576040517f08c379a00000000000000000000000000000000000000000000000000000000081526004016107f690612b3e565b60405180910390fd5b610809838361137d565b505050565b61081f610819611375565b82611436565b61085e576040517f08c379a000000000000000000000000000000000000000000000000000000000815260040161085590612bd0565b60405180910390fd5b6108698383836114cb565b505050565b6108766117c4565b818160089182610887929190612d9d565b505050565b6108a783838360405180602001604052806000815250610ec0565b505050565b6108b46117c4565b80600960006101000a81548173ffffffffffffffffffffffffffffffffffffffff021916908373ffffffffffffffffffffffffffffffffffffffff16021790555050565b60008061090483611842565b9050600073ffffffffffffffffffffffffffffffffffffffff168173ffffffffffffffffffffffffffffffffffffffff1603610975576040517f08c379a000000000000000000000000000000000000000000000000000000000815260040161096c90612eb9565b60405180910390fd5b80915050919050565b60606008805461098d90612a09565b80601f01602080910402602001604051908101604052809291908181526020018280546109b990612a09565b8015610a065780601f106109db57610100808354040283529160200191610a06565b820191906000526020600020905b8154815290600101906020018083116109e957829003601f168201915b5050505050905090565b60008073ffffffffffffffffffffffffffffffffffffffff168273ffffffffffffffffffffffffffffffffffffffff1603610a80576040517f08c379a0000000000000000000000000000000000000000000000000000000008152600401610a7790612f4b565b60405180910390fd5b600360008373ffffffffffffffffffffffffffffffffffffffff1673ffffffffffffffffffffffffffffffffffffffff168152602001908152602001600020549050919050565b610acf6117c4565b610ad9600061187f565b565b600a6020528060005260406000206000915090508060000154908060010154905082565b6000600660009054906101000a900473ffffffffffffffffffffffffffffffffffffffff16905090565b610b31611945565b610b3a82611994565b610b79576040517f08c379a0000000000000000000000000000000000000000000000000000000008152600401610b7090612fb7565b60405180910390fd5b7f000000000000000000000000000000000000000000000000000000000000000073ffffffffffffffffffffffffffffffffffffffff166323b872dd3330846040518463ffffffff1660e01b8152600401610bd693929190612fd7565b6020604051808303816000875af1158015610bf5573d6000803e3d6000fd5b505050506040513d601f19601f82011682018060405250810190610c199190613023565b5080600b60008481526020019081526020016000206000828254610c3d919061307f565b92505081905550610c4c6119d5565b5050565b610c58611945565b600960009054906101000a900473ffffffffffffffffffffffffffffffffffffffff1673ffffffffffffffffffffffffffffffffffffffff163373ffffffffffffffffffffffffffffffffffffffff1614610ce8576040517f08c379a0000000000000000000000000000000000000000000000000000000008152600401610cdf90613125565b60405180910390fd5b6000600a600084815260200190815260200160002090508060000154816001015410610d49576040517f08c379a0000000000000000000000000000000000000000000000000000000008152600401610d40906131b7565b60405180910390fd5b600060018260010154610d5c919061307f565b90506000610d6a85836119df565b9050610d768482611a02565b818360010181905550505050610d8a6119d5565b5050565b606060018054610d9d90612a09565b80601f0160208091040260200160405190810160405280929190818152602001828054610dc990612a09565b8015610e165780601f10610deb57610100808354040283529160200191610e16565b820191906000526020600020905b815481529060010190602001808311610df957829003601f168201915b5050505050905090565b610e32610e2b611375565b8383611c1f565b5050565b600960009054906101000a900473ffffffffffffffffffffffffffffffffffffffff1681565b600b6020528060005260406000206000915090505481565b610e7c6117c4565b60405180604001604052808281526020016000815250600a600084815260200190815260200160002060008201518160000155602082015181600101559050505050565b610ed1610ecb611375565b83611436565b610f10576040517f08c379a0000000000000000000000000000000000000000000000000000000008152600401610f0790612bd0565b60405180910390fd5b610f1c84848484611d8b565b50505050565b6060610f2d8261132a565b6000610f37611de7565b90506000815111610f575760405180602001604052806000815250610f82565b80610f6184611e79565b604051602001610f72929190613213565b6040516020818303038152906040525b915050919050565b7f000000000000000000000000000000000000000000000000000000000000000081565b6000600560008473ffffffffffffffffffffffffffffffffffffffff1673ffffffffffffffffffffffffffffffffffffffff16815260200190815260200160002060008373ffffffffffffffffffffffffffffffffffffffff1673ffffffffffffffffffffffffffffffffffffffff16815260200190815260200160002060009054906101000a900460ff16905092915050565b61104a6117c4565b600073ffffffffffffffffffffffffffffffffffffffff168173ffffffffffffffffffffffffffffffffffffffff16036110b9576040517f08c379a00000000000000000000000000000000000000000000000000000000081526004016110b0906132a9565b60405180910390fd5b6110c28161187f565b50565b6110cd611945565b3373ffffffffffffffffffffffffffffffffffffffff166110ed836108f8565b73ffffffffffffffffffffffffffffffffffffffff1614611143576040517f08c379a000000000000000000000000000000000000000000000000000000000815260040161113a9061333b565b60405180910390fd5b80600b6000848152602001908152602001600020541015611199576040517f08c379a0000000000000000000000000000000000000000000000000000000008152600401611190906133a7565b60405180910390fd5b636685f41042116111df576040517f08c379a00000000000000000000000000000000000000000000000000000000081526004016111d690613413565b60405180910390fd5b80600b6000848152602001908152602001600020546111fe9190613433565b600b6000848152602001908152602001600020819055507f000000000000000000000000000000000000000000000000000000000000000073ffffffffffffffffffffffffffffffffffffffff1663a9059cbb33836040518363ffffffff1660e01b8152600401611270929190613467565b6020604051808303816000875af115801561128f573d6000803e3d6000fd5b505050506040513d601f19601f820116820180604052508101906112b39190613023565b506112bc6119d5565b5050565b60007f01ffc9a7000000000000000000000000000000000000000000000000000000007bffffffffffffffffffffffffffffffffffffffffffffffffffffffff1916827bffffffffffffffffffffffffffffffffffffffffffffffffffffffff1916149050919050565b61133381611994565b611372576040517f08c379a000000000000000000000000000000000000000000000000000000000815260040161136990612eb9565b60405180910390fd5b50565b600033905090565b816004600083815260200190815260200160002060006101000a81548173ffffffffffffffffffffffffffffffffffffffff021916908373ffffffffffffffffffffffffffffffffffffffff160217905550808273ffffffffffffffffffffffffffffffffffffffff166113f0836108f8565b73ffffffffffffffffffffffffffffffffffffffff167f8c5be1e5ebec7d5bd14f71427d1e84f3dd0314c0f7b2291e5b200ac8c7c3b92560405160405180910390a45050565b600080611442836108f8565b90508073ffffffffffffffffffffffffffffffffffffffff168473ffffffffffffffffffffffffffffffffffffffff16148061148457506114838185610fae565b5b806114c257508373ffffffffffffffffffffffffffffffffffffffff166114aa846106b1565b73ffffffffffffffffffffffffffffffffffffffff16145b91505092915050565b8273ffffffffffffffffffffffffffffffffffffffff166114eb826108f8565b73ffffffffffffffffffffffffffffffffffffffff1614611541576040517f08c379a000000000000000000000000000000000000000000000000000000000815260040161153890613502565b60405180910390fd5b600073ffffffffffffffffffffffffffffffffffffffff168273ffffffffffffffffffffffffffffffffffffffff16036115b0576040517f08c379a00000000000000000000000000000000000000000000000000000000081526004016115a790613594565b60405180910390fd5b6115bd8383836001611f47565b8273ffffffffffffffffffffffffffffffffffffffff166115dd826108f8565b73ffffffffffffffffffffffffffffffffffffffff1614611633576040517f08c379a000000000000000000000000000000000000000000000000000000000815260040161162a90613502565b60405180910390fd5b6004600082815260200190815260200160002060006101000a81549073ffffffffffffffffffffffffffffffffffffffff02191690556001600360008573ffffffffffffffffffffffffffffffffffffffff1673ffffffffffffffffffffffffffffffffffffffff168152602001908152602001600020600082825403925050819055506001600360008473ffffffffffffffffffffffffffffffffffffffff1673ffffffffffffffffffffffffffffffffffffffff16815260200190815260200160002060008282540192505081905550816002600083815260200190815260200160002060006101000a81548173ffffffffffffffffffffffffffffffffffffffff021916908373ffffffffffffffffffffffffffffffffffffffff160217905550808273ffffffffffffffffffffffffffffffffffffffff168473ffffffffffffffffffffffffffffffffffffffff167fddf252ad1be2c89b69c2b068fc378daa952ba7f163c4a11628f55a4df523b3ef60405160405180910390a46117bf8383836001611f4d565b505050565b6117cc611375565b73ffffffffffffffffffffffffffffffffffffffff166117ea610aff565b73ffffffffffffffffffffffffffffffffffffffff1614611840576040517f08c379a000000000000000000000000000000000000000000000000000000000815260040161183790613600565b60405180910390fd5b565b60006002600083815260200190815260200160002060009054906101000a900473ffffffffffffffffffffffffffffffffffffffff169050919050565b6000600660009054906101000a900473ffffffffffffffffffffffffffffffffffffffff16905081600660006101000a81548173ffffffffffffffffffffffffffffffffffffffff021916908373ffffffffffffffffffffffffffffffffffffffff1602179055508173ffffffffffffffffffffffffffffffffffffffff168173ffffffffffffffffffffffffffffffffffffffff167f8be0079c531659141344cd1fd0a4f28419497f9722a3daafe3b4186f6b6457e060405160405180910390a35050565b60026007540361198a576040517f08c379a00000000000000000000000000000000000000000000000000000000081526004016119819061366c565b60405180910390fd5b6002600781905550565b60008073ffffffffffffffffffffffffffffffffffffffff166119b683611842565b73ffffffffffffffffffffffffffffffffffffffff1614159050919050565b6001600781905550565b600081612710846119f0919061368c565b6119fa919061307f565b905092915050565b600073ffffffffffffffffffffffffffffffffffffffff168273ffffffffffffffffffffffffffffffffffffffff1603611a71576040517f08c379a0000000000000000000000000000000000000000000000000000000008152600401611a689061371a565b60405180910390fd5b611a7a81611994565b15611aba576040517f08c379a0000000000000000000000000000000000000000000000000000000008152600401611ab190613786565b60405180910390fd5b611ac8600083836001611f47565b611ad181611994565b15611b11576040517f08c379a0000000000000000000000000000000000000000000000000000000008152600401611b0890613786565b60405180910390fd5b6001600360008473ffffffffffffffffffffffffffffffffffffffff1673ffffffffffffffffffffffffffffffffffffffff16815260200190815260200160002060008282540192505081905550816002600083815260200190815260200160002060006101000a81548173ffffffffffffffffffffffffffffffffffffffff021916908373ffffffffffffffffffffffffffffffffffffffff160217905550808273ffffffffffffffffffffffffffffffffffffffff16600073ffffffffffffffffffffffffffffffffffffffff167fddf252ad1be2c89b69c2b068fc378daa952ba7f163c4a11628f55a4df523b3ef60405160405180910390a4611c1b600083836001611f4d565b5050565b8173ffffffffffffffffffffffffffffffffffffffff168373ffffffffffffffffffffffffffffffffffffffff1603611c8d576040517f08c379a0000000000000000000000000000000000000000000000000000000008152600401611c84906137f2565b60405180910390fd5b80600560008573ffffffffffffffffffffffffffffffffffffffff1673ffffffffffffffffffffffffffffffffffffffff16815260200190815260200160002060008473ffffffffffffffffffffffffffffffffffffffff1673ffffffffffffffffffffffffffffffffffffffff16815260200190815260200160002060006101000a81548160ff0219169083151502179055508173ffffffffffffffffffffffffffffffffffffffff168373ffffffffffffffffffffffffffffffffffffffff167f17307eab39ab6107e8899845ad3d59bd9653f200f220920489ca2b5937696c3183604051611d7e9190612304565b60405180910390a3505050565b611d968484846114cb565b611da284848484611f53565b611de1576040517f08c379a0000000000000000000000000000000000000000000000000000000008152600401611dd890613884565b60405180910390fd5b50505050565b606060088054611df690612a09565b80601f0160208091040260200160405190810160405280929190818152602001828054611e2290612a09565b8015611e6f5780601f10611e4457610100808354040283529160200191611e6f565b820191906000526020600020905b815481529060010190602001808311611e5257829003601f168201915b5050505050905090565b606060006001611e88846120da565b01905060008167ffffffffffffffff811115611ea757611ea6612772565b5b6040519080825280601f01601f191660200182016040528015611ed95781602001600182028036833780820191505090505b509050600082602001820190505b600115611f3c578080600190039150507f3031323334353637383961626364656600000000000000000000000000000000600a86061a8153600a8581611f3057611f2f6138a4565b5b04945060008503611ee7575b819350505050919050565b50505050565b50505050565b6000611f748473ffffffffffffffffffffffffffffffffffffffff1661222d565b156120cd578373ffffffffffffffffffffffffffffffffffffffff1663150b7a02611f9d611375565b8786866040518563ffffffff1660e01b8152600401611fbf9493929190613928565b6020604051808303816000875af1925050508015611ffb57506040513d601f19601f82011682018060405250810190611ff89190613989565b60015b61207d573d806000811461202b576040519150601f19603f3d011682016040523d82523d6000602084013e612030565b606091505b506000815103612075576040517f08c379a000000000000000000000000000000000000000000000000000000000815260040161206c90613884565b60405180910390fd5b805181602001fd5b63150b7a0260e01b7bffffffffffffffffffffffffffffffffffffffffffffffffffffffff1916817bffffffffffffffffffffffffffffffffffffffffffffffffffffffff1916149150506120d2565b600190505b949350505050565b600080600090507a184f03e93ff9f4daa797ed6e38ed64bf6a1f0100000000000000008310612138577a184f03e93ff9f4daa797ed6e38ed64bf6a1f010000000000000000838161212e5761212d6138a4565b5b0492506040810190505b6d04ee2d6d415b85acef81000000008310612175576d04ee2d6d415b85acef8100000000838161216b5761216a6138a4565b5b0492506020810190505b662386f26fc1000083106121a457662386f26fc10000838161219a576121996138a4565b5b0492506010810190505b6305f5e10083106121cd576305f5e10083816121c3576121c26138a4565b5b0492506008810190505b61271083106121f25761271083816121e8576121e76138a4565b5b0492506004810190505b60648310612215576064838161220b5761220a6138a4565b5b0492506002810190505b600a8310612224576001810190505b80915050919050565b6000808273ffffffffffffffffffffffffffffffffffffffff163b119050919050565b6000604051905090565b600080fd5b600080fd5b60007fffffffff0000000000000000000000000000000000000000000000000000000082169050919050565b61229981612264565b81146122a457600080fd5b50565b6000813590506122b681612290565b92915050565b6000602082840312156122d2576122d161225a565b5b60006122e0848285016122a7565b91505092915050565b60008115159050919050565b6122fe816122e9565b82525050565b600060208201905061231960008301846122f5565b92915050565b600081519050919050565b600082825260208201905092915050565b60005b8381101561235957808201518184015260208101905061233e565b60008484015250505050565b6000601f19601f8301169050919050565b60006123818261231f565b61238b818561232a565b935061239b81856020860161233b565b6123a481612365565b840191505092915050565b600060208201905081810360008301526123c98184612376565b905092915050565b6000819050919050565b6123e4816123d1565b81146123ef57600080fd5b50565b600081359050612401816123db565b92915050565b60006020828403121561241d5761241c61225a565b5b600061242b848285016123f2565b91505092915050565b600073ffffffffffffffffffffffffffffffffffffffff82169050919050565b600061245f82612434565b9050919050565b61246f81612454565b82525050565b600060208201905061248a6000830184612466565b92915050565b61249981612454565b81146124a457600080fd5b50565b6000813590506124b681612490565b92915050565b600080604083850312156124d3576124d261225a565b5b60006124e1858286016124a7565b92505060206124f2858286016123f2565b9150509250929050565b6000806000606084860312156125155761251461225a565b5b6000612523868287016124a7565b9350506020612534868287016124a7565b9250506040612545868287016123f2565b9150509250925092565b600080fd5b600080fd5b600080fd5b60008083601f8401126125745761257361254f565b5b8235905067ffffffffffffffff81111561259157612590612554565b5b6020830191508360018202830111156125ad576125ac612559565b5b9250929050565b600080602083850312156125cb576125ca61225a565b5b600083013567ffffffffffffffff8111156125e9576125e861225f565b5b6125f58582860161255e565b92509250509250929050565b6000602082840312156126175761261661225a565b5b6000612625848285016124a7565b91505092915050565b612637816123d1565b82525050565b6000602082019050612652600083018461262e565b92915050565b600060408201905061266d600083018561262e565b61267a602083018461262e565b9392505050565b600080604083850312156126985761269761225a565b5b60006126a6858286016123f2565b92505060206126b7858286016123f2565b9150509250929050565b600080604083850312156126d8576126d761225a565b5b60006126e6858286016123f2565b92505060206126f7858286016124a7565b9150509250929050565b61270a816122e9565b811461271557600080fd5b50565b60008135905061272781612701565b92915050565b600080604083850312156127445761274361225a565b5b6000612752858286016124a7565b925050602061276385828601612718565b9150509250929050565b600080fd5b7f4e487b7100000000000000000000000000000000000000000000000000000000600052604160045260246000fd5b6127aa82612365565b810181811067ffffffffffffffff821117156127c9576127c8612772565b5b80604052505050565b60006127dc612250565b90506127e882826127a1565b919050565b600067ffffffffffffffff82111561280857612807612772565b5b61281182612365565b9050602081019050919050565b82818337600083830152505050565b600061284061283b846127ed565b6127d2565b90508281526020810184848401111561285c5761285b61276d565b5b61286784828561281e565b509392505050565b600082601f8301126128845761288361254f565b5b813561289484826020860161282d565b91505092915050565b600080600080608085870312156128b7576128b661225a565b5b60006128c5878288016124a7565b94505060206128d6878288016124a7565b93505060406128e7878288016123f2565b925050606085013567ffffffffffffffff8111156129085761290761225f565b5b6129148782880161286f565b91505092959194509250565b6000819050919050565b600061294561294061293b84612434565b612920565b612434565b9050919050565b60006129578261292a565b9050919050565b60006129698261294c565b9050919050565b6129798161295e565b82525050565b60006020820190506129946000830184612970565b92915050565b600080604083850312156129b1576129b061225a565b5b60006129bf858286016124a7565b92505060206129d0858286016124a7565b9150509250929050565b7f4e487b7100000000000000000000000000000000000000000000000000000000600052602260045260246000fd5b60006002820490506001821680612a2157607f821691505b602082108103612a3457612a336129da565b5b50919050565b7f4552433732313a20617070726f76616c20746f2063757272656e74206f776e6560008201527f7200000000000000000000000000000000000000000000000000000000000000602082015250565b6000612a9660218361232a565b9150612aa182612a3a565b604082019050919050565b60006020820190508181036000830152612ac581612a89565b9050919050565b7f4552433732313a20617070726f76652063616c6c6572206973206e6f7420746f60008201527f6b656e206f776e6572206f7220617070726f76656420666f7220616c6c000000602082015250565b6000612b28603d8361232a565b9150612b3382612acc565b604082019050919050565b60006020820190508181036000830152612b5781612b1b565b9050919050565b7f4552433732313a2063616c6c6572206973206e6f7420746f6b656e206f776e6560008201527f72206f7220617070726f76656400000000000000000000000000000000000000602082015250565b6000612bba602d8361232a565b9150612bc582612b5e565b604082019050919050565b60006020820190508181036000830152612be981612bad565b9050919050565b600082905092915050565b60008190508160005260206000209050919050565b60006020601f8301049050919050565b600082821b905092915050565b600060088302612c5d7fffffffffffffffffffffffffffffffffffffffffffffffffffffffffffffffff82612c20565b612c678683612c20565b95508019841693508086168417925050509392505050565b6000612c9a612c95612c90846123d1565b612920565b6123d1565b9050919050565b6000819050919050565b612cb483612c7f565b612cc8612cc082612ca1565b848454612c2d565b825550505050565b600090565b612cdd612cd0565b612ce8818484612cab565b505050565b5b81811015612d0c57612d01600082612cd5565b600181019050612cee565b5050565b601f821115612d5157612d2281612bfb565b612d2b84612c10565b81016020851015612d3a578190505b612d4e612d4685612c10565b830182612ced565b50505b505050565b600082821c905092915050565b6000612d7460001984600802612d56565b1980831691505092915050565b6000612d8d8383612d63565b9150826002028217905092915050565b612da78383612bf0565b67ffffffffffffffff811115612dc057612dbf612772565b5b612dca8254612a09565b612dd5828285612d10565b6000601f831160018114612e045760008415612df2578287013590505b612dfc8582612d81565b865550612e64565b601f198416612e1286612bfb565b60005b82811015612e3a57848901358255600182019150602085019450602081019050612e15565b86831015612e575784890135612e53601f891682612d63565b8355505b6001600288020188555050505b50505050505050565b7f4552433732313a20696e76616c696420746f6b656e2049440000000000000000600082015250565b6000612ea360188361232a565b9150612eae82612e6d565b602082019050919050565b60006020820190508181036000830152612ed281612e96565b9050919050565b7f4552433732313a2061646472657373207a65726f206973206e6f74206120766160008201527f6c6964206f776e65720000000000000000000000000000000000000000000000602082015250565b6000612f3560298361232a565b9150612f4082612ed9565b604082019050919050565b60006020820190508181036000830152612f6481612f28565b9050919050565b7f746f6b656e20646f6573206e6f74206578697374000000000000000000000000600082015250565b6000612fa160148361232a565b9150612fac82612f6b565b602082019050919050565b60006020820190508181036000830152612fd081612f94565b9050919050565b6000606082019050612fec6000830186612466565b612ff96020830185612466565b613006604083018461262e565b949350505050565b60008151905061301d81612701565b92915050565b6000602082840312156130395761303861225a565b5b60006130478482850161300e565b91505092915050565b7f4e487b7100000000000000000000000000000000000000000000000000000000600052601160045260246000fd5b600061308a826123d1565b9150613095836123d1565b92508282019050808211156130ad576130ac613050565b5b92915050565b7f6d696e742063616e206f6e6c792062652063616c6c6564206279206d696e746560008201527f7200000000000000000000000000000000000000000000000000000000000000602082015250565b600061310f60218361232a565b915061311a826130b3565b604082019050919050565b6000602082019050818103600083015261313e81613102565b9050919050565b7f616c6c20746f6b656e73206d696e74656420666f7220746869732070726f647560008201527f6374000000000000000000000000000000000000000000000000000000000000602082015250565b60006131a160228361232a565b91506131ac82613145565b604082019050919050565b600060208201905081810360008301526131d081613194565b9050919050565b600081905092915050565b60006131ed8261231f565b6131f781856131d7565b935061320781856020860161233b565b80840191505092915050565b600061321f82856131e2565b915061322b82846131e2565b91508190509392505050565b7f4f776e61626c653a206e6577206f776e657220697320746865207a65726f206160008201527f6464726573730000000000000000000000000000000000000000000000000000602082015250565b600061329360268361232a565b915061329e82613237565b604082019050919050565b600060208201905081810360008301526132c281613286565b9050919050565b7f63616c6c6572206973206e6f7420746865206f776e6572206f6620746865207460008201527f6f6b656e00000000000000000000000000000000000000000000000000000000602082015250565b600061332560248361232a565b9150613330826132c9565b604082019050919050565b6000602082019050818103600083015261335481613318565b9050919050565b7f696e73756666696369656e74206d656800000000000000000000000000000000600082015250565b600061339160108361232a565b915061339c8261335b565b602082019050919050565b600060208201905081810360008301526133c081613384565b9050919050565b7f666f75727468206f66206a756c79000000000000000000000000000000000000600082015250565b60006133fd600e8361232a565b9150613408826133c7565b602082019050919050565b6000602082019050818103600083015261342c816133f0565b9050919050565b600061343e826123d1565b9150613449836123d1565b925082820390508181111561346157613460613050565b5b92915050565b600060408201905061347c6000830185612466565b613489602083018461262e565b9392505050565b7f4552433732313a207472616e736665722066726f6d20696e636f72726563742060008201527f6f776e6572000000000000000000000000000000000000000000000000000000602082015250565b60006134ec60258361232a565b91506134f782613490565b604082019050919050565b6000602082019050818103600083015261351b816134df565b9050919050565b7f4552433732313a207472616e7366657220746f20746865207a65726f2061646460008201527f7265737300000000000000000000000000000000000000000000000000000000602082015250565b600061357e60248361232a565b915061358982613522565b604082019050919050565b600060208201905081810360008301526135ad81613571565b9050919050565b7f4f776e61626c653a2063616c6c6572206973206e6f7420746865206f776e6572600082015250565b60006135ea60208361232a565b91506135f5826135b4565b602082019050919050565b60006020820190508181036000830152613619816135dd565b9050919050565b7f5265656e7472616e637947756172643a207265656e7472616e742063616c6c00600082015250565b6000613656601f8361232a565b915061366182613620565b602082019050919050565b6000602082019050818103600083015261368581613649565b9050919050565b6000613697826123d1565b91506136a2836123d1565b92508282026136b0816123d1565b915082820484148315176136c7576136c6613050565b5b5092915050565b7f4552433732313a206d696e7420746f20746865207a65726f2061646472657373600082015250565b600061370460208361232a565b915061370f826136ce565b602082019050919050565b60006020820190508181036000830152613733816136f7565b9050919050565b7f4552433732313a20746f6b656e20616c7265616479206d696e74656400000000600082015250565b6000613770601c8361232a565b915061377b8261373a565b602082019050919050565b6000602082019050818103600083015261379f81613763565b9050919050565b7f4552433732313a20617070726f766520746f2063616c6c657200000000000000600082015250565b60006137dc60198361232a565b91506137e7826137a6565b602082019050919050565b6000602082019050818103600083015261380b816137cf565b9050919050565b7f4552433732313a207472616e7366657220746f206e6f6e20455243373231526560008201527f63656976657220696d706c656d656e7465720000000000000000000000000000602082015250565b600061386e60328361232a565b915061387982613812565b604082019050919050565b6000602082019050818103600083015261389d81613861565b9050919050565b7f4e487b7100000000000000000000000000000000000000000000000000000000600052601260045260246000fd5b600081519050919050565b600082825260208201905092915050565b60006138fa826138d3565b61390481856138de565b935061391481856020860161233b565b61391d81612365565b840191505092915050565b600060808201905061393d6000830187612466565b61394a6020830186612466565b613957604083018561262e565b818103606083015261396981846138ef565b905095945050505050565b60008151905061398381612290565b92915050565b60006020828403121561399f5761399e61225a565b5b60006139ad84828501613974565b9150509291505056fea26469706673582212206a66638326b0972c1337874121e0c67da1b314ea80e1c96e41d007c15f5ab89864736f6c63430008180033",
  "linkReferences": {},
  "deployedLinkReferences": {}
}