{
  "_format": "hh-sol-artifact-1",
  "contractName": "MehRoyalty",
  "sourceName": "contracts/MehRoyaltyV1.sol",
  "abi": [
    {
      "inputs": [
        {
          "internalType": "contract IERC20Burnable",
          "name": "_mehToken",
          "type": "address"
        }
      ],
      "stateMutability": "nonpayable",
      "type": "constructor"
    },
    {
      "anonymous": false,
      "inputs": [
        {
          "indexed": true,
          "internalType": "address",
          "name": "owner",
          "type": "address"
        },
        {
          "indexed": true,
          "internalType": "address",
          "name": "approved",
          "type": "address"
        },
        {
          "indexed": true,
          "internalType": "uint256",
          "name": "tokenId",
          "type": "uint256"
        }
      ],
      "name": "Approval",
      "type": "event"
    },
    {
      "anonymous": false,
      "inputs": [
        {
          "indexed": true,
          "internalType": "address",
          "name": "owner",
          "type": "address"
        },
        {
          "indexed": true,
          "internalType": "address",
          "name": "operator",
          "type": "address"
        },
        {
          "indexed": false,
          "internalType": "bool",
          "name": "approved",
          "type": "bool"
        }
      ],
      "name": "ApprovalForAll",
      "type": "event"
    },
    {
      "anonymous": false,
      "inputs": [
        {
          "indexed": true,
          "internalType": "address",
          "name": "previousOwner",
          "type": "address"
        },
        {
          "indexed": true,
          "internalType": "address",
          "name": "newOwner",
          "type": "address"
        }
      ],
      "name": "OwnershipTransferred",
      "type": "event"
    },
    {
      "anonymous": false,
      "inputs": [
        {
          "indexed": true,
          "internalType": "address",
          "name": "from",
          "type": "address"
        },
        {
          "indexed": true,
          "internalType": "address",
          "name": "to",
          "type": "address"
        },
        {
          "indexed": true,
          "internalType": "uint256",
          "name": "tokenId",
          "type": "uint256"
        }
      ],
      "name": "Transfer",
      "type": "event"
    },
    {
      "inputs": [],
      "name": "MINTER_ADDRESS",
      "outputs": [
        {
          "internalType": "address",
          "name": "",
          "type": "address"
        }
      ],
      "stateMutability": "view",
      "type": "function"
    },
    {
      "inputs": [
        {
          "internalType": "address",
          "name": "to",
          "type": "address"
        },
        {
          "internalType": "uint256",
          "name": "tokenId",
          "type": "uint256"
        }
      ],
      "name": "approve",
      "outputs": [],
      "stateMutability": "nonpayable",
      "type": "function"
    },
    {
      "inputs": [
        {
          "internalType": "address",
          "name": "owner",
          "type": "address"
        }
      ],
      "name": "balanceOf",
      "outputs": [
        {
          "internalType": "uint256",
          "name": "",
          "type": "uint256"
        }
      ],
      "stateMutability": "view",
      "type": "function"
    },
    {
      "inputs": [
        {
          "internalType": "uint256",
          "name": "_productId",
          "type": "uint256"
        },
        {
          "internalType": "uint256",
          "name": "_totalContracts",
          "type": "uint256"
        }
      ],
      "name": "createProduct",
      "outputs": [],
      "stateMutability": "nonpayable",
      "type": "function"
    },
    {
      "inputs": [
        {
          "internalType": "uint256",
          "name": "tokenId",
          "type": "uint256"
        },
        {
          "internalType": "uint256",
          "name": "amt",
          "type": "uint256"
        }
      ],
      "name": "depositMeh",
      "outputs": [],
      "stateMutability": "payable",
      "type": "function"
    },
    {
      "inputs": [
        {
          "internalType": "uint256",
          "name": "",
          "type": "uint256"
        }
      ],
      "name": "deposits",
      "outputs": [
        {
          "internalType": "uint256",
          "name": "",
          "type": "uint256"
        }
      ],
      "stateMutability": "view",
      "type": "function"
    },
    {
      "inputs": [
        {
          "internalType": "uint256",
          "name": "tokenId",
          "type": "uint256"
        },
        {
          "internalType": "uint256",
          "name": "amt",
          "type": "uint256"
        }
      ],
      "name": "extractMeh",
      "outputs": [],
      "stateMutability": "nonpayable",
      "type": "function"
    },
    {
      "inputs": [
        {
          "internalType": "uint256",
          "name": "tokenId",
          "type": "uint256"
        }
      ],
      "name": "getApproved",
      "outputs": [
        {
          "internalType": "address",
          "name": "",
          "type": "address"
        }
      ],
      "stateMutability": "view",
      "type": "function"
    },
    {
      "inputs": [
        {
          "internalType": "address",
          "name": "owner",
          "type": "address"
        },
        {
          "internalType": "address",
          "name": "operator",
          "type": "address"
        }
      ],
      "name": "isApprovedForAll",
      "outputs": [
        {
          "internalType": "bool",
          "name": "",
          "type": "bool"
        }
      ],
      "stateMutability": "view",
      "type": "function"
    },
    {
      "inputs": [],
      "name": "mehToken",
      "outputs": [
        {
          "internalType": "contract IERC20Burnable",
          "name": "",
          "type": "address"
        }
      ],
      "stateMutability": "view",
      "type": "function"
    },
    {
      "inputs": [
        {
          "internalType": "uint256",
          "name": "_productId",
          "type": "uint256"
        },
        {
          "internalType": "address",
          "name": "_to",
          "type": "address"
        }
      ],
      "name": "mint",
      "outputs": [],
      "stateMutability": "nonpayable",
      "type": "function"
    },
    {
      "inputs": [],
      "name": "name",
      "outputs": [
        {
          "internalType": "string",
          "name": "",
          "type": "string"
        }
      ],
      "stateMutability": "view",
      "type": "function"
    },
    {
      "inputs": [],
      "name": "owner",
      "outputs": [
        {
          "internalType": "address",
          "name": "",
          "type": "address"
        }
      ],
      "stateMutability": "view",
      "type": "function"
    },
    {
      "inputs": [
        {
          "internalType": "uint256",
          "name": "tokenId",
          "type": "uint256"
        }
      ],
      "name": "ownerOf",
      "outputs": [
        {
          "internalType": "address",
          "name": "",
          "type": "address"
        }
      ],
      "stateMutability": "view",
      "type": "function"
    },
    {
      "inputs": [
        {
          "internalType": "uint256",
          "name": "",
          "type": "uint256"
        }
      ],
      "name": "products",
      "outputs": [
        {
          "internalType": "uint256",
          "name": "totalContracts",
          "type": "uint256"
        },
        {
          "internalType": "uint256",
          "name": "currentSerial",
          "type": "uint256"
        }
      ],
      "stateMutability": "view",
      "type": "function"
    },
    {
      "inputs": [],
      "name": "renounceOwnership",
      "outputs": [],
      "stateMutability": "nonpayable",
      "type": "function"
    },
    {
      "inputs": [
        {
          "internalType": "address",
          "name": "from",
          "type": "address"
        },
        {
          "internalType": "address",
          "name": "to",
          "type": "address"
        },
        {
          "internalType": "uint256",
          "name": "tokenId",
          "type": "uint256"
        }
      ],
      "name": "safeTransferFrom",
      "outputs": [],
      "stateMutability": "nonpayable",
      "type": "function"
    },
    {
      "inputs": [
        {
          "internalType": "address",
          "name": "from",
          "type": "address"
        },
        {
          "internalType": "address",
          "name": "to",
          "type": "address"
        },
        {
          "internalType": "uint256",
          "name": "tokenId",
          "type": "uint256"
        },
        {
          "internalType": "bytes",
          "name": "data",
          "type": "bytes"
        }
      ],
      "name": "safeTransferFrom",
      "outputs": [],
      "stateMutability": "nonpayable",
      "type": "function"
    },
    {
      "inputs": [
        {
          "internalType": "address",
          "name": "operator",
          "type": "address"
        },
        {
          "internalType": "bool",
          "name": "approved",
          "type": "bool"
        }
      ],
      "name": "setApprovalForAll",
      "outputs": [],
      "stateMutability": "nonpayable",
      "type": "function"
    },
    {
      "inputs": [
        {
          "internalType": "string",
          "name": "newURI",
          "type": "string"
        }
      ],
      "name": "setBaseTokenURI",
      "outputs": [],
      "stateMutability": "nonpayable",
      "type": "function"
    },
    {
      "inputs": [
        {
          "internalType": "bytes4",
          "name": "interfaceId",
          "type": "bytes4"
        }
      ],
      "name": "supportsInterface",
      "outputs": [
        {
          "internalType": "bool",
          "name": "",
          "type": "bool"
        }
      ],
      "stateMutability": "view",
      "type": "function"
    },
    {
      "inputs": [],
      "name": "symbol",
      "outputs": [
        {
          "internalType": "string",
          "name": "",
          "type": "string"
        }
      ],
      "stateMutability": "view",
      "type": "function"
    },
    {
      "inputs": [
        {
          "internalType": "uint256",
          "name": "tokenId",
          "type": "uint256"
        }
      ],
      "name": "tokenURI",
      "outputs": [
        {
          "internalType": "string",
          "name": "",
          "type": "string"
        }
      ],
      "stateMutability": "view",
      "type": "function"
    },
    {
      "inputs": [
        {
          "internalType": "address",
          "name": "from",
          "type": "address"
        },
        {
          "internalType": "address",
          "name": "to",
          "type": "address"
        },
        {
          "internalType": "uint256",
          "name": "tokenId",
          "type": "uint256"
        }
      ],
      "name": "transferFrom",
      "outputs": [],
      "stateMutability": "nonpayable",
      "type": "function"
    },
    {
      "inputs": [
        {
          "internalType": "address",
          "name": "newOwner",
          "type": "address"
        }
      ],
      "name": "transferOwnership",
      "outputs": [],
      "stateMutability": "nonpayable",
      "type": "function"
    },
    {
      "inputs": [
        {
          "internalType": "address",
          "name": "newMinter",
          "type": "address"
        }
      ],
      "name": "updateMinter",
      "outputs": [],
      "stateMutability": "nonpayable",
      "type": "function"
    }
  ],
  "bytecode": "0x60a06040523480156200001157600080fd5b5060405162003fa538038062003fa5833981810160405281019062000037919062000278565b6040518060400160405280600a81526020017f4d6568526f79616c7479000000000000000000000000000000000000000000008152506040518060400160405280600381526020017f4d523100000000000000000000000000000000000000000000000000000000008152508160009081620000b4919062000524565b508060019081620000c6919062000524565b505050620000e9620000dd6200012c60201b60201c565b6200013460201b60201c565b60016007819055508073ffffffffffffffffffffffffffffffffffffffff1660808173ffffffffffffffffffffffffffffffffffffffff1681525050506200060b565b600033905090565b6000600660009054906101000a900473ffffffffffffffffffffffffffffffffffffffff16905081600660006101000a81548173ffffffffffffffffffffffffffffffffffffffff021916908373ffffffffffffffffffffffffffffffffffffffff1602179055508173ffffffffffffffffffffffffffffffffffffffff168173ffffffffffffffffffffffffffffffffffffffff167f8be0079c531659141344cd1fd0a4f28419497f9722a3daafe3b4186f6b6457e060405160405180910390a35050565b600080fd5b600073ffffffffffffffffffffffffffffffffffffffff82169050919050565b60006200022c82620001ff565b9050919050565b600062000240826200021f565b9050919050565b620002528162000233565b81146200025e57600080fd5b50565b600081519050620002728162000247565b92915050565b600060208284031215620002915762000290620001fa565b5b6000620002a18482850162000261565b91505092915050565b600081519050919050565b7f4e487b7100000000000000000000000000000000000000000000000000000000600052604160045260246000fd5b7f4e487b7100000000000000000000000000000000000000000000000000000000600052602260045260246000fd5b600060028204905060018216806200032c57607f821691505b602082108103620003425762000341620002e4565b5b50919050565b60008190508160005260206000209050919050565b60006020601f8301049050919050565b600082821b905092915050565b600060088302620003ac7fffffffffffffffffffffffffffffffffffffffffffffffffffffffffffffffff826200036d565b620003b886836200036d565b95508019841693508086168417925050509392505050565b6000819050919050565b6000819050919050565b600062000405620003ff620003f984620003d0565b620003da565b620003d0565b9050919050565b6000819050919050565b6200042183620003e4565b6200043962000430826200040c565b8484546200037a565b825550505050565b600090565b6200045062000441565b6200045d81848462000416565b505050565b5b8181101562000485576200047960008262000446565b60018101905062000463565b5050565b601f821115620004d4576200049e8162000348565b620004a9846200035d565b81016020851015620004b9578190505b620004d1620004c8856200035d565b83018262000462565b50505b505050565b600082821c905092915050565b6000620004f960001984600802620004d9565b1980831691505092915050565b6000620005148383620004e6565b9150826002028217905092915050565b6200052f82620002aa565b67ffffffffffffffff8111156200054b576200054a620002b5565b5b62000557825462000313565b6200056482828562000489565b600060209050601f8311600181146200059c576000841562000587578287015190505b62000593858262000506565b86555062000603565b601f198416620005ac8662000348565b60005b82811015620005d657848901518255600182019150602085019450602081019050620005af565b86831015620005f65784890151620005f2601f891682620004e6565b8355505b6001600288020188555050505b505050505050565b6080516139706200063560003960008181610b8901528181610c8601526111a001526139706000f3fe6080604052600436106101815760003560e01c80637acc0b20116100d1578063b02c43d01161008a578063c87b56dd11610064578063c87b56dd1461056e578063e2c2c884146105ab578063e985e9c5146105d6578063f2fde38b1461061357610181565b8063b02c43d0146104df578063b1e3457d1461051c578063b88d4fde1461054557610181565b80637acc0b20146103ce5780638da5cb5b1461040c57806394bf804d1461043757806395d89b4114610460578063a22cb4651461048b578063a4b80b6a146104b457610181565b806342842e0e1161013e578063680a842111610118578063680a84211461033557806368484d4a1461035e57806370a082311461037a578063715018a6146103b757610181565b806342842e0e146102a65780634eb03f6e146102cf5780636352211e146102f857610181565b806301ffc9a71461018657806306fdde03146101c3578063081812fc146101ee578063095ea7b31461022b57806323b872dd1461025457806330176e131461027d575b600080fd5b34801561019257600080fd5b506101ad60048036038101906101a891906122d5565b61063c565b6040516101ba919061231d565b60405180910390f35b3480156101cf57600080fd5b506101d861071e565b6040516101e591906123c8565b60405180910390f35b3480156101fa57600080fd5b5061021560048036038101906102109190612420565b6107b0565b604051610222919061248e565b60405180910390f35b34801561023757600080fd5b50610252600480360381019061024d91906124d5565b6107f6565b005b34801561026057600080fd5b5061027b60048036038101906102769190612515565b61090d565b005b34801561028957600080fd5b506102a4600480360381019061029f91906125cd565b61096d565b005b3480156102b257600080fd5b506102cd60048036038101906102c89190612515565b61098b565b005b3480156102db57600080fd5b506102f660048036038101906102f1919061261a565b6109ab565b005b34801561030457600080fd5b5061031f600480360381019061031a9190612420565b6109f7565b60405161032c919061248e565b60405180910390f35b34801561034157600080fd5b5061035c60048036038101906103579190612647565b610a7d565b005b61037860048036038101906103739190612647565b610c34565b005b34801561038657600080fd5b506103a1600480360381019061039c919061261a565b610d5b565b6040516103ae9190612696565b60405180910390f35b3480156103c357600080fd5b506103cc610e12565b005b3480156103da57600080fd5b506103f560048036038101906103f09190612420565b610e26565b6040516104039291906126b1565b60405180910390f35b34801561041857600080fd5b50610421610e4a565b60405161042e919061248e565b60405180910390f35b34801561044357600080fd5b5061045e600480360381019061045991906126da565b610e74565b005b34801561046c57600080fd5b50610475610fa2565b60405161048291906123c8565b60405180910390f35b34801561049757600080fd5b506104b260048036038101906104ad9190612746565b611034565b005b3480156104c057600080fd5b506104c961104a565b6040516104d6919061248e565b60405180910390f35b3480156104eb57600080fd5b5061050660048036038101906105019190612420565b611070565b6040516105139190612696565b60405180910390f35b34801561052857600080fd5b50610543600480360381019061053e9190612647565b611088565b005b34801561055157600080fd5b5061056c600480360381019061056791906128b6565b6110d4565b005b34801561057a57600080fd5b5061059560048036038101906105909190612420565b611136565b6040516105a291906123c8565b60405180910390f35b3480156105b757600080fd5b506105c061119e565b6040516105cd9190612998565b60405180910390f35b3480156105e257600080fd5b506105fd60048036038101906105f891906129b3565b6111c2565b60405161060a919061231d565b60405180910390f35b34801561061f57600080fd5b5061063a6004803603810190610635919061261a565b611256565b005b60007f80ac58cd000000000000000000000000000000000000000000000000000000007bffffffffffffffffffffffffffffffffffffffffffffffffffffffff1916827bffffffffffffffffffffffffffffffffffffffffffffffffffffffff1916148061070757507f5b5e139f000000000000000000000000000000000000000000000000000000007bffffffffffffffffffffffffffffffffffffffffffffffffffffffff1916827bffffffffffffffffffffffffffffffffffffffffffffffffffffffff1916145b806107175750610716826112d9565b5b9050919050565b60606000805461072d90612a22565b80601f016020809104026020016040519081016040528092919081815260200182805461075990612a22565b80156107a65780601f1061077b576101008083540402835291602001916107a6565b820191906000526020600020905b81548152906001019060200180831161078957829003601f168201915b5050505050905090565b60006107bb82611343565b6004600083815260200190815260200160002060009054906101000a900473ffffffffffffffffffffffffffffffffffffffff169050919050565b6000610801826109f7565b90508073ffffffffffffffffffffffffffffffffffffffff168373ffffffffffffffffffffffffffffffffffffffff1603610871576040517f08c379a000000000000000000000000000000000000000000000000000000000815260040161086890612ac5565b60405180910390fd5b8073ffffffffffffffffffffffffffffffffffffffff1661089061138e565b73ffffffffffffffffffffffffffffffffffffffff1614806108bf57506108be816108b961138e565b6111c2565b5b6108fe576040517f08c379a00000000000000000000000000000000000000000000000000000000081526004016108f590612b57565b60405180910390fd5b6109088383611396565b505050565b61091e61091861138e565b8261144f565b61095d576040517f08c379a000000000000000000000000000000000000000000000000000000000815260040161095490612be9565b60405180910390fd5b6109688383836114e4565b505050565b6109756117dd565b818160089182610986929190612db6565b505050565b6109a6838383604051806020016040528060008152506110d4565b505050565b6109b36117dd565b80600960006101000a81548173ffffffffffffffffffffffffffffffffffffffff021916908373ffffffffffffffffffffffffffffffffffffffff16021790555050565b600080610a038361185b565b9050600073ffffffffffffffffffffffffffffffffffffffff168173ffffffffffffffffffffffffffffffffffffffff1603610a74576040517f08c379a0000000000000000000000000000000000000000000000000000000008152600401610a6b90612ed2565b60405180910390fd5b80915050919050565b610a85611898565b3373ffffffffffffffffffffffffffffffffffffffff16610aa5836109f7565b73ffffffffffffffffffffffffffffffffffffffff1614610afb576040517f08c379a0000000000000000000000000000000000000000000000000000000008152600401610af290612f64565b60405180910390fd5b80600b6000848152602001908152602001600020541015610b51576040517f08c379a0000000000000000000000000000000000000000000000000000000008152600401610b4890612fd0565b60405180910390fd5b80600b600084815260200190815260200160002054610b70919061301f565b600b6000848152602001908152602001600020819055507f000000000000000000000000000000000000000000000000000000000000000073ffffffffffffffffffffffffffffffffffffffff166323b872dd3033846040518463ffffffff1660e01b8152600401610be493929190613053565b6020604051808303816000875af1158015610c03573d6000803e3d6000fd5b505050506040513d601f19601f82011682018060405250810190610c27919061309f565b50610c306118e7565b5050565b610c3c611898565b610c45826118f1565b610c84576040517f08c379a0000000000000000000000000000000000000000000000000000000008152600401610c7b90613118565b60405180910390fd5b7f000000000000000000000000000000000000000000000000000000000000000073ffffffffffffffffffffffffffffffffffffffff166323b872dd3330846040518463ffffffff1660e01b8152600401610ce193929190613053565b6020604051808303816000875af1158015610d00573d6000803e3d6000fd5b505050506040513d601f19601f82011682018060405250810190610d24919061309f565b5080600b60008481526020019081526020016000206000828254610d489190613138565b92505081905550610d576118e7565b5050565b60008073ffffffffffffffffffffffffffffffffffffffff168273ffffffffffffffffffffffffffffffffffffffff1603610dcb576040517f08c379a0000000000000000000000000000000000000000000000000000000008152600401610dc2906131de565b60405180910390fd5b600360008373ffffffffffffffffffffffffffffffffffffffff1673ffffffffffffffffffffffffffffffffffffffff168152602001908152602001600020549050919050565b610e1a6117dd565b610e246000611932565b565b600a6020528060005260406000206000915090508060000154908060010154905082565b6000600660009054906101000a900473ffffffffffffffffffffffffffffffffffffffff16905090565b600960009054906101000a900473ffffffffffffffffffffffffffffffffffffffff1673ffffffffffffffffffffffffffffffffffffffff163373ffffffffffffffffffffffffffffffffffffffff1614610f04576040517f08c379a0000000000000000000000000000000000000000000000000000000008152600401610efb90613270565b60405180910390fd5b6000600a600084815260200190815260200160002090508060000154816001015410610f65576040517f08c379a0000000000000000000000000000000000000000000000000000000008152600401610f5c90613302565b60405180910390fd5b600060018260010154610f789190613138565b90506000610f8685836119f8565b9050610f928482611a1b565b8183600101819055505050505050565b606060018054610fb190612a22565b80601f0160208091040260200160405190810160405280929190818152602001828054610fdd90612a22565b801561102a5780601f10610fff5761010080835404028352916020019161102a565b820191906000526020600020905b81548152906001019060200180831161100d57829003601f168201915b5050505050905090565b61104661103f61138e565b8383611c38565b5050565b600960009054906101000a900473ffffffffffffffffffffffffffffffffffffffff1681565b600b6020528060005260406000206000915090505481565b6110906117dd565b60405180604001604052808281526020016000815250600a600084815260200190815260200160002060008201518160000155602082015181600101559050505050565b6110e56110df61138e565b8361144f565b611124576040517f08c379a000000000000000000000000000000000000000000000000000000000815260040161111b90612be9565b60405180910390fd5b61113084848484611da4565b50505050565b606061114182611343565b600061114b611e00565b9050600081511161116b5760405180602001604052806000815250611196565b8061117584611e92565b60405160200161118692919061335e565b6040516020818303038152906040525b915050919050565b7f000000000000000000000000000000000000000000000000000000000000000081565b6000600560008473ffffffffffffffffffffffffffffffffffffffff1673ffffffffffffffffffffffffffffffffffffffff16815260200190815260200160002060008373ffffffffffffffffffffffffffffffffffffffff1673ffffffffffffffffffffffffffffffffffffffff16815260200190815260200160002060009054906101000a900460ff16905092915050565b61125e6117dd565b600073ffffffffffffffffffffffffffffffffffffffff168173ffffffffffffffffffffffffffffffffffffffff16036112cd576040517f08c379a00000000000000000000000000000000000000000000000000000000081526004016112c4906133f4565b60405180910390fd5b6112d681611932565b50565b60007f01ffc9a7000000000000000000000000000000000000000000000000000000007bffffffffffffffffffffffffffffffffffffffffffffffffffffffff1916827bffffffffffffffffffffffffffffffffffffffffffffffffffffffff1916149050919050565b61134c816118f1565b61138b576040517f08c379a000000000000000000000000000000000000000000000000000000000815260040161138290612ed2565b60405180910390fd5b50565b600033905090565b816004600083815260200190815260200160002060006101000a81548173ffffffffffffffffffffffffffffffffffffffff021916908373ffffffffffffffffffffffffffffffffffffffff160217905550808273ffffffffffffffffffffffffffffffffffffffff16611409836109f7565b73ffffffffffffffffffffffffffffffffffffffff167f8c5be1e5ebec7d5bd14f71427d1e84f3dd0314c0f7b2291e5b200ac8c7c3b92560405160405180910390a45050565b60008061145b836109f7565b90508073ffffffffffffffffffffffffffffffffffffffff168473ffffffffffffffffffffffffffffffffffffffff16148061149d575061149c81856111c2565b5b806114db57508373ffffffffffffffffffffffffffffffffffffffff166114c3846107b0565b73ffffffffffffffffffffffffffffffffffffffff16145b91505092915050565b8273ffffffffffffffffffffffffffffffffffffffff16611504826109f7565b73ffffffffffffffffffffffffffffffffffffffff161461155a576040517f08c379a000000000000000000000000000000000000000000000000000000000815260040161155190613486565b60405180910390fd5b600073ffffffffffffffffffffffffffffffffffffffff168273ffffffffffffffffffffffffffffffffffffffff16036115c9576040517f08c379a00000000000000000000000000000000000000000000000000000000081526004016115c090613518565b60405180910390fd5b6115d68383836001611f60565b8273ffffffffffffffffffffffffffffffffffffffff166115f6826109f7565b73ffffffffffffffffffffffffffffffffffffffff161461164c576040517f08c379a000000000000000000000000000000000000000000000000000000000815260040161164390613486565b60405180910390fd5b6004600082815260200190815260200160002060006101000a81549073ffffffffffffffffffffffffffffffffffffffff02191690556001600360008573ffffffffffffffffffffffffffffffffffffffff1673ffffffffffffffffffffffffffffffffffffffff168152602001908152602001600020600082825403925050819055506001600360008473ffffffffffffffffffffffffffffffffffffffff1673ffffffffffffffffffffffffffffffffffffffff16815260200190815260200160002060008282540192505081905550816002600083815260200190815260200160002060006101000a81548173ffffffffffffffffffffffffffffffffffffffff021916908373ffffffffffffffffffffffffffffffffffffffff160217905550808273ffffffffffffffffffffffffffffffffffffffff168473ffffffffffffffffffffffffffffffffffffffff167fddf252ad1be2c89b69c2b068fc378daa952ba7f163c4a11628f55a4df523b3ef60405160405180910390a46117d88383836001611f66565b505050565b6117e561138e565b73ffffffffffffffffffffffffffffffffffffffff16611803610e4a565b73ffffffffffffffffffffffffffffffffffffffff1614611859576040517f08c379a000000000000000000000000000000000000000000000000000000000815260040161185090613584565b60405180910390fd5b565b60006002600083815260200190815260200160002060009054906101000a900473ffffffffffffffffffffffffffffffffffffffff169050919050565b6002600754036118dd576040517f08c379a00000000000000000000000000000000000000000000000000000000081526004016118d4906135f0565b60405180910390fd5b6002600781905550565b6001600781905550565b60008073ffffffffffffffffffffffffffffffffffffffff166119138361185b565b73ffffffffffffffffffffffffffffffffffffffff1614159050919050565b6000600660009054906101000a900473ffffffffffffffffffffffffffffffffffffffff16905081600660006101000a81548173ffffffffffffffffffffffffffffffffffffffff021916908373ffffffffffffffffffffffffffffffffffffffff1602179055508173ffffffffffffffffffffffffffffffffffffffff168173ffffffffffffffffffffffffffffffffffffffff167f8be0079c531659141344cd1fd0a4f28419497f9722a3daafe3b4186f6b6457e060405160405180910390a35050565b60008161271084611a099190613610565b611a139190613138565b905092915050565b600073ffffffffffffffffffffffffffffffffffffffff168273ffffffffffffffffffffffffffffffffffffffff1603611a8a576040517f08c379a0000000000000000000000000000000000000000000000000000000008152600401611a819061369e565b60405180910390fd5b611a93816118f1565b15611ad3576040517f08c379a0000000000000000000000000000000000000000000000000000000008152600401611aca9061370a565b60405180910390fd5b611ae1600083836001611f60565b611aea816118f1565b15611b2a576040517f08c379a0000000000000000000000000000000000000000000000000000000008152600401611b219061370a565b60405180910390fd5b6001600360008473ffffffffffffffffffffffffffffffffffffffff1673ffffffffffffffffffffffffffffffffffffffff16815260200190815260200160002060008282540192505081905550816002600083815260200190815260200160002060006101000a81548173ffffffffffffffffffffffffffffffffffffffff021916908373ffffffffffffffffffffffffffffffffffffffff160217905550808273ffffffffffffffffffffffffffffffffffffffff16600073ffffffffffffffffffffffffffffffffffffffff167fddf252ad1be2c89b69c2b068fc378daa952ba7f163c4a11628f55a4df523b3ef60405160405180910390a4611c34600083836001611f66565b5050565b8173ffffffffffffffffffffffffffffffffffffffff168373ffffffffffffffffffffffffffffffffffffffff1603611ca6576040517f08c379a0000000000000000000000000000000000000000000000000000000008152600401611c9d90613776565b60405180910390fd5b80600560008573ffffffffffffffffffffffffffffffffffffffff1673ffffffffffffffffffffffffffffffffffffffff16815260200190815260200160002060008473ffffffffffffffffffffffffffffffffffffffff1673ffffffffffffffffffffffffffffffffffffffff16815260200190815260200160002060006101000a81548160ff0219169083151502179055508173ffffffffffffffffffffffffffffffffffffffff168373ffffffffffffffffffffffffffffffffffffffff167f17307eab39ab6107e8899845ad3d59bd9653f200f220920489ca2b5937696c3183604051611d97919061231d565b60405180910390a3505050565b611daf8484846114e4565b611dbb84848484611f6c565b611dfa576040517f08c379a0000000000000000000000000000000000000000000000000000000008152600401611df190613808565b60405180910390fd5b50505050565b606060088054611e0f90612a22565b80601f0160208091040260200160405190810160405280929190818152602001828054611e3b90612a22565b8015611e885780601f10611e5d57610100808354040283529160200191611e88565b820191906000526020600020905b815481529060010190602001808311611e6b57829003601f168201915b5050505050905090565b606060006001611ea1846120f3565b01905060008167ffffffffffffffff811115611ec057611ebf61278b565b5b6040519080825280601f01601f191660200182016040528015611ef25781602001600182028036833780820191505090505b509050600082602001820190505b600115611f55578080600190039150507f3031323334353637383961626364656600000000000000000000000000000000600a86061a8153600a8581611f4957611f48613828565b5b04945060008503611f00575b819350505050919050565b50505050565b50505050565b6000611f8d8473ffffffffffffffffffffffffffffffffffffffff16612246565b156120e6578373ffffffffffffffffffffffffffffffffffffffff1663150b7a02611fb661138e565b8786866040518563ffffffff1660e01b8152600401611fd894939291906138ac565b6020604051808303816000875af192505050801561201457506040513d601f19601f82011682018060405250810190612011919061390d565b60015b612096573d8060008114612044576040519150601f19603f3d011682016040523d82523d6000602084013e612049565b606091505b50600081510361208e576040517f08c379a000000000000000000000000000000000000000000000000000000000815260040161208590613808565b60405180910390fd5b805181602001fd5b63150b7a0260e01b7bffffffffffffffffffffffffffffffffffffffffffffffffffffffff1916817bffffffffffffffffffffffffffffffffffffffffffffffffffffffff1916149150506120eb565b600190505b949350505050565b600080600090507a184f03e93ff9f4daa797ed6e38ed64bf6a1f0100000000000000008310612151577a184f03e93ff9f4daa797ed6e38ed64bf6a1f010000000000000000838161214757612146613828565b5b0492506040810190505b6d04ee2d6d415b85acef8100000000831061218e576d04ee2d6d415b85acef8100000000838161218457612183613828565b5b0492506020810190505b662386f26fc1000083106121bd57662386f26fc1000083816121b3576121b2613828565b5b0492506010810190505b6305f5e10083106121e6576305f5e10083816121dc576121db613828565b5b0492506008810190505b612710831061220b57612710838161220157612200613828565b5b0492506004810190505b6064831061222e576064838161222457612223613828565b5b0492506002810190505b600a831061223d576001810190505b80915050919050565b6000808273ffffffffffffffffffffffffffffffffffffffff163b119050919050565b6000604051905090565b600080fd5b600080fd5b60007fffffffff0000000000000000000000000000000000000000000000000000000082169050919050565b6122b28161227d565b81146122bd57600080fd5b50565b6000813590506122cf816122a9565b92915050565b6000602082840312156122eb576122ea612273565b5b60006122f9848285016122c0565b91505092915050565b60008115159050919050565b61231781612302565b82525050565b6000602082019050612332600083018461230e565b92915050565b600081519050919050565b600082825260208201905092915050565b60005b83811015612372578082015181840152602081019050612357565b60008484015250505050565b6000601f19601f8301169050919050565b600061239a82612338565b6123a48185612343565b93506123b4818560208601612354565b6123bd8161237e565b840191505092915050565b600060208201905081810360008301526123e2818461238f565b905092915050565b6000819050919050565b6123fd816123ea565b811461240857600080fd5b50565b60008135905061241a816123f4565b92915050565b60006020828403121561243657612435612273565b5b60006124448482850161240b565b91505092915050565b600073ffffffffffffffffffffffffffffffffffffffff82169050919050565b60006124788261244d565b9050919050565b6124888161246d565b82525050565b60006020820190506124a3600083018461247f565b92915050565b6124b28161246d565b81146124bd57600080fd5b50565b6000813590506124cf816124a9565b92915050565b600080604083850312156124ec576124eb612273565b5b60006124fa858286016124c0565b925050602061250b8582860161240b565b9150509250929050565b60008060006060848603121561252e5761252d612273565b5b600061253c868287016124c0565b935050602061254d868287016124c0565b925050604061255e8682870161240b565b9150509250925092565b600080fd5b600080fd5b600080fd5b60008083601f84011261258d5761258c612568565b5b8235905067ffffffffffffffff8111156125aa576125a961256d565b5b6020830191508360018202830111156125c6576125c5612572565b5b9250929050565b600080602083850312156125e4576125e3612273565b5b600083013567ffffffffffffffff81111561260257612601612278565b5b61260e85828601612577565b92509250509250929050565b6000602082840312156126305761262f612273565b5b600061263e848285016124c0565b91505092915050565b6000806040838503121561265e5761265d612273565b5b600061266c8582860161240b565b925050602061267d8582860161240b565b9150509250929050565b612690816123ea565b82525050565b60006020820190506126ab6000830184612687565b92915050565b60006040820190506126c66000830185612687565b6126d36020830184612687565b9392505050565b600080604083850312156126f1576126f0612273565b5b60006126ff8582860161240b565b9250506020612710858286016124c0565b9150509250929050565b61272381612302565b811461272e57600080fd5b50565b6000813590506127408161271a565b92915050565b6000806040838503121561275d5761275c612273565b5b600061276b858286016124c0565b925050602061277c85828601612731565b9150509250929050565b600080fd5b7f4e487b7100000000000000000000000000000000000000000000000000000000600052604160045260246000fd5b6127c38261237e565b810181811067ffffffffffffffff821117156127e2576127e161278b565b5b80604052505050565b60006127f5612269565b905061280182826127ba565b919050565b600067ffffffffffffffff8211156128215761282061278b565b5b61282a8261237e565b9050602081019050919050565b82818337600083830152505050565b600061285961285484612806565b6127eb565b90508281526020810184848401111561287557612874612786565b5b612880848285612837565b509392505050565b600082601f83011261289d5761289c612568565b5b81356128ad848260208601612846565b91505092915050565b600080600080608085870312156128d0576128cf612273565b5b60006128de878288016124c0565b94505060206128ef878288016124c0565b93505060406129008782880161240b565b925050606085013567ffffffffffffffff81111561292157612920612278565b5b61292d87828801612888565b91505092959194509250565b6000819050919050565b600061295e6129596129548461244d565b612939565b61244d565b9050919050565b600061297082612943565b9050919050565b600061298282612965565b9050919050565b61299281612977565b82525050565b60006020820190506129ad6000830184612989565b92915050565b600080604083850312156129ca576129c9612273565b5b60006129d8858286016124c0565b92505060206129e9858286016124c0565b9150509250929050565b7f4e487b7100000000000000000000000000000000000000000000000000000000600052602260045260246000fd5b60006002820490506001821680612a3a57607f821691505b602082108103612a4d57612a4c6129f3565b5b50919050565b7f4552433732313a20617070726f76616c20746f2063757272656e74206f776e6560008201527f7200000000000000000000000000000000000000000000000000000000000000602082015250565b6000612aaf602183612343565b9150612aba82612a53565b604082019050919050565b60006020820190508181036000830152612ade81612aa2565b9050919050565b7f4552433732313a20617070726f76652063616c6c6572206973206e6f7420746f60008201527f6b656e206f776e6572206f7220617070726f76656420666f7220616c6c000000602082015250565b6000612b41603d83612343565b9150612b4c82612ae5565b604082019050919050565b60006020820190508181036000830152612b7081612b34565b9050919050565b7f4552433732313a2063616c6c6572206973206e6f7420746f6b656e206f776e6560008201527f72206f7220617070726f76656400000000000000000000000000000000000000602082015250565b6000612bd3602d83612343565b9150612bde82612b77565b604082019050919050565b60006020820190508181036000830152612c0281612bc6565b9050919050565b600082905092915050565b60008190508160005260206000209050919050565b60006020601f8301049050919050565b600082821b905092915050565b600060088302612c767fffffffffffffffffffffffffffffffffffffffffffffffffffffffffffffffff82612c39565b612c808683612c39565b95508019841693508086168417925050509392505050565b6000612cb3612cae612ca9846123ea565b612939565b6123ea565b9050919050565b6000819050919050565b612ccd83612c98565b612ce1612cd982612cba565b848454612c46565b825550505050565b600090565b612cf6612ce9565b612d01818484612cc4565b505050565b5b81811015612d2557612d1a600082612cee565b600181019050612d07565b5050565b601f821115612d6a57612d3b81612c14565b612d4484612c29565b81016020851015612d53578190505b612d67612d5f85612c29565b830182612d06565b50505b505050565b600082821c905092915050565b6000612d8d60001984600802612d6f565b1980831691505092915050565b6000612da68383612d7c565b9150826002028217905092915050565b612dc08383612c09565b67ffffffffffffffff811115612dd957612dd861278b565b5b612de38254612a22565b612dee828285612d29565b6000601f831160018114612e1d5760008415612e0b578287013590505b612e158582612d9a565b865550612e7d565b601f198416612e2b86612c14565b60005b82811015612e5357848901358255600182019150602085019450602081019050612e2e565b86831015612e705784890135612e6c601f891682612d7c565b8355505b6001600288020188555050505b50505050505050565b7f4552433732313a20696e76616c696420746f6b656e2049440000000000000000600082015250565b6000612ebc601883612343565b9150612ec782612e86565b602082019050919050565b60006020820190508181036000830152612eeb81612eaf565b9050919050565b7f63616c6c6572206973206e6f7420746865206f776e6572206f6620746865207460008201527f6f6b656e00000000000000000000000000000000000000000000000000000000602082015250565b6000612f4e602483612343565b9150612f5982612ef2565b604082019050919050565b60006020820190508181036000830152612f7d81612f41565b9050919050565b7f696e73756666696369656e74206d656800000000000000000000000000000000600082015250565b6000612fba601083612343565b9150612fc582612f84565b602082019050919050565b60006020820190508181036000830152612fe981612fad565b9050919050565b7f4e487b7100000000000000000000000000000000000000000000000000000000600052601160045260246000fd5b600061302a826123ea565b9150613035836123ea565b925082820390508181111561304d5761304c612ff0565b5b92915050565b6000606082019050613068600083018661247f565b613075602083018561247f565b6130826040830184612687565b949350505050565b6000815190506130998161271a565b92915050565b6000602082840312156130b5576130b4612273565b5b60006130c38482850161308a565b91505092915050565b7f746f6b656e20646f6573206e6f74206578697374000000000000000000000000600082015250565b6000613102601483612343565b915061310d826130cc565b602082019050919050565b60006020820190508181036000830152613131816130f5565b9050919050565b6000613143826123ea565b915061314e836123ea565b925082820190508082111561316657613165612ff0565b5b92915050565b7f4552433732313a2061646472657373207a65726f206973206e6f74206120766160008201527f6c6964206f776e65720000000000000000000000000000000000000000000000602082015250565b60006131c8602983612343565b91506131d38261316c565b604082019050919050565b600060208201905081810360008301526131f7816131bb565b9050919050565b7f6d696e742063616e206f6e6c792062652063616c6c6564206279206d696e746560008201527f7200000000000000000000000000000000000000000000000000000000000000602082015250565b600061325a602183612343565b9150613265826131fe565b604082019050919050565b600060208201905081810360008301526132898161324d565b9050919050565b7f416c6c20746f6b656e73206d696e74656420666f7220746869732070726f647560008201527f6374000000000000000000000000000000000000000000000000000000000000602082015250565b60006132ec602283612343565b91506132f782613290565b604082019050919050565b6000602082019050818103600083015261331b816132df565b9050919050565b600081905092915050565b600061333882612338565b6133428185613322565b9350613352818560208601612354565b80840191505092915050565b600061336a828561332d565b9150613376828461332d565b91508190509392505050565b7f4f776e61626c653a206e6577206f776e657220697320746865207a65726f206160008201527f6464726573730000000000000000000000000000000000000000000000000000602082015250565b60006133de602683612343565b91506133e982613382565b604082019050919050565b6000602082019050818103600083015261340d816133d1565b9050919050565b7f4552433732313a207472616e736665722066726f6d20696e636f72726563742060008201527f6f776e6572000000000000000000000000000000000000000000000000000000602082015250565b6000613470602583612343565b915061347b82613414565b604082019050919050565b6000602082019050818103600083015261349f81613463565b9050919050565b7f4552433732313a207472616e7366657220746f20746865207a65726f2061646460008201527f7265737300000000000000000000000000000000000000000000000000000000602082015250565b6000613502602483612343565b915061350d826134a6565b604082019050919050565b60006020820190508181036000830152613531816134f5565b9050919050565b7f4f776e61626c653a2063616c6c6572206973206e6f7420746865206f776e6572600082015250565b600061356e602083612343565b915061357982613538565b602082019050919050565b6000602082019050818103600083015261359d81613561565b9050919050565b7f5265656e7472616e637947756172643a207265656e7472616e742063616c6c00600082015250565b60006135da601f83612343565b91506135e5826135a4565b602082019050919050565b60006020820190508181036000830152613609816135cd565b9050919050565b600061361b826123ea565b9150613626836123ea565b9250828202613634816123ea565b9150828204841483151761364b5761364a612ff0565b5b5092915050565b7f4552433732313a206d696e7420746f20746865207a65726f2061646472657373600082015250565b6000613688602083612343565b915061369382613652565b602082019050919050565b600060208201905081810360008301526136b78161367b565b9050919050565b7f4552433732313a20746f6b656e20616c7265616479206d696e74656400000000600082015250565b60006136f4601c83612343565b91506136ff826136be565b602082019050919050565b60006020820190508181036000830152613723816136e7565b9050919050565b7f4552433732313a20617070726f766520746f2063616c6c657200000000000000600082015250565b6000613760601983612343565b915061376b8261372a565b602082019050919050565b6000602082019050818103600083015261378f81613753565b9050919050565b7f4552433732313a207472616e7366657220746f206e6f6e20455243373231526560008201527f63656976657220696d706c656d656e7465720000000000000000000000000000602082015250565b60006137f2603283612343565b91506137fd82613796565b604082019050919050565b60006020820190508181036000830152613821816137e5565b9050919050565b7f4e487b7100000000000000000000000000000000000000000000000000000000600052601260045260246000fd5b600081519050919050565b600082825260208201905092915050565b600061387e82613857565b6138888185613862565b9350613898818560208601612354565b6138a18161237e565b840191505092915050565b60006080820190506138c1600083018761247f565b6138ce602083018661247f565b6138db6040830185612687565b81810360608301526138ed8184613873565b905095945050505050565b600081519050613907816122a9565b92915050565b60006020828403121561392357613922612273565b5b6000613931848285016138f8565b9150509291505056fea2646970667358221220bb37a692a201e7a93d290d7f5e5aa229f55d644bbcb16d22e4e36810ec87709b64736f6c63430008180033",
  "linkReferences": {},
  "deployedLinkReferences": {}
}