{
  "_format": "hh-sol-artifact-1",
  "contractName": "MehAirdropV1",
  "sourceName": "contracts/MehAirdropV1.sol",
  "abi": [
    {
      "inputs": [
        {
          "internalType": "contract IERC20",
          "name": "_meh",
          "type": "address"
        }
      ],
      "stateMutability": "nonpayable",
      "type": "constructor"
    },
    {
      "anonymous": false,
      "inputs": [
        {
          "indexed": true,
          "internalType": "address",
          "name": "previousOwner",
          "type": "address"
        },
        {
          "indexed": true,
          "internalType": "address",
          "name": "newOwner",
          "type": "address"
        }
      ],
      "name": "OwnershipTransferred",
      "type": "event"
    },
    {
      "inputs": [
        {
          "internalType": "address[]",
          "name": "_contributors",
          "type": "address[]"
        },
        {
          "internalType": "uint256[]",
          "name": "_balances",
          "type": "uint256[]"
        }
      ],
      "name": "airdrop",
      "outputs": [],
      "stateMutability": "payable",
      "type": "function"
    },
    {
      "inputs": [],
      "name": "meh",
      "outputs": [
        {
          "internalType": "contract IERC20",
          "name": "",
          "type": "address"
        }
      ],
      "stateMutability": "view",
      "type": "function"
    },
    {
      "inputs": [],
      "name": "owner",
      "outputs": [
        {
          "internalType": "address",
          "name": "",
          "type": "address"
        }
      ],
      "stateMutability": "view",
      "type": "function"
    },
    {
      "inputs": [],
      "name": "renounceOwnership",
      "outputs": [],
      "stateMutability": "nonpayable",
      "type": "function"
    },
    {
      "inputs": [
        {
          "internalType": "address",
          "name": "newOwner",
          "type": "address"
        }
      ],
      "name": "transferOwnership",
      "outputs": [],
      "stateMutability": "nonpayable",
      "type": "function"
    },
    {
      "inputs": [
        {
          "internalType": "uint256",
          "name": "amount",
          "type": "uint256"
        }
      ],
      "name": "withdrawMeh",
      "outputs": [],
      "stateMutability": "nonpayable",
      "type": "function"
    }
  ],
  "bytecode": "0x60a06040523480156200001157600080fd5b50604051620012ee380380620012ee8339818101604052810190620000379190620001dc565b620000576200004b6200009260201b60201c565b6200009a60201b60201c565b8073ffffffffffffffffffffffffffffffffffffffff1660808173ffffffffffffffffffffffffffffffffffffffff1681525050506200020e565b600033905090565b60008060009054906101000a900473ffffffffffffffffffffffffffffffffffffffff169050816000806101000a81548173ffffffffffffffffffffffffffffffffffffffff021916908373ffffffffffffffffffffffffffffffffffffffff1602179055508173ffffffffffffffffffffffffffffffffffffffff168173ffffffffffffffffffffffffffffffffffffffff167f8be0079c531659141344cd1fd0a4f28419497f9722a3daafe3b4186f6b6457e060405160405180910390a35050565b600080fd5b600073ffffffffffffffffffffffffffffffffffffffff82169050919050565b6000620001908262000163565b9050919050565b6000620001a48262000183565b9050919050565b620001b68162000197565b8114620001c257600080fd5b50565b600081519050620001d681620001ab565b92915050565b600060208284031215620001f557620001f46200015e565b5b60006200020584828501620001c5565b91505092915050565b6080516110b66200023860003960008181610144015281816101e3015261027e01526110b66000f3fe6080604052600436106100555760003560e01c806302847bdd1461005a5780636724348214610083578063715018a61461009f5780638da5cb5b146100b6578063d8ec55ed146100e1578063f2fde38b1461010c575b600080fd5b34801561006657600080fd5b50610081600480360381019061007c91906107d2565b610135565b005b61009d60048036038101906100989190610a79565b61018b565b005b3480156100ab57600080fd5b506100b461023f565b005b3480156100c257600080fd5b506100cb610253565b6040516100d89190610b00565b60405180910390f35b3480156100ed57600080fd5b506100f661027c565b6040516101039190610b7a565b60405180910390f35b34801561011857600080fd5b50610133600480360381019061012e9190610b95565b6102a0565b005b61013d610323565b61018833827f000000000000000000000000000000000000000000000000000000000000000073ffffffffffffffffffffffffffffffffffffffff166103a19092919063ffffffff16565b50565b610193610323565b60005b82518160ff16101561023a57610227838260ff16815181106101bb576101ba610bc2565b5b6020026020010151838360ff16815181106101d9576101d8610bc2565b5b60200260200101517f000000000000000000000000000000000000000000000000000000000000000073ffffffffffffffffffffffffffffffffffffffff166103a19092919063ffffffff16565b808061023290610c2d565b915050610196565b505050565b610247610323565b6102516000610427565b565b60008060009054906101000a900473ffffffffffffffffffffffffffffffffffffffff16905090565b7f000000000000000000000000000000000000000000000000000000000000000081565b6102a8610323565b600073ffffffffffffffffffffffffffffffffffffffff168173ffffffffffffffffffffffffffffffffffffffff1603610317576040517f08c379a000000000000000000000000000000000000000000000000000000000815260040161030e90610cd9565b60405180910390fd5b61032081610427565b50565b61032b6104eb565b73ffffffffffffffffffffffffffffffffffffffff16610349610253565b73ffffffffffffffffffffffffffffffffffffffff161461039f576040517f08c379a000000000000000000000000000000000000000000000000000000000815260040161039690610d45565b60405180910390fd5b565b6104228363a9059cbb60e01b84846040516024016103c0929190610d74565b604051602081830303815290604052907bffffffffffffffffffffffffffffffffffffffffffffffffffffffff19166020820180517bffffffffffffffffffffffffffffffffffffffffffffffffffffffff83818316178352505050506104f3565b505050565b60008060009054906101000a900473ffffffffffffffffffffffffffffffffffffffff169050816000806101000a81548173ffffffffffffffffffffffffffffffffffffffff021916908373ffffffffffffffffffffffffffffffffffffffff1602179055508173ffffffffffffffffffffffffffffffffffffffff168173ffffffffffffffffffffffffffffffffffffffff167f8be0079c531659141344cd1fd0a4f28419497f9722a3daafe3b4186f6b6457e060405160405180910390a35050565b600033905090565b6000610555826040518060400160405280602081526020017f5361666545524332303a206c6f772d6c6576656c2063616c6c206661696c65648152508573ffffffffffffffffffffffffffffffffffffffff166105bb9092919063ffffffff16565b90506000815114806105775750808060200190518101906105769190610dd5565b5b6105b6576040517f08c379a00000000000000000000000000000000000000000000000000000000081526004016105ad90610e74565b60405180910390fd5b505050565b60606105ca84846000856105d3565b90509392505050565b606082471015610618576040517f08c379a000000000000000000000000000000000000000000000000000000000815260040161060f90610f06565b60405180910390fd5b6000808673ffffffffffffffffffffffffffffffffffffffff1685876040516106419190610f97565b60006040518083038185875af1925050503d806000811461067e576040519150601f19603f3d011682016040523d82523d6000602084013e610683565b606091505b5091509150610694878383876106a0565b92505050949350505050565b606083156107025760008351036106fa576106ba85610715565b6106f9576040517f08c379a00000000000000000000000000000000000000000000000000000000081526004016106f090610ffa565b60405180910390fd5b5b82905061070d565b61070c8383610738565b5b949350505050565b6000808273ffffffffffffffffffffffffffffffffffffffff163b119050919050565b60008251111561074b5781518083602001fd5b806040517f08c379a000000000000000000000000000000000000000000000000000000000815260040161077f919061105e565b60405180910390fd5b6000604051905090565b600080fd5b600080fd5b6000819050919050565b6107af8161079c565b81146107ba57600080fd5b50565b6000813590506107cc816107a6565b92915050565b6000602082840312156107e8576107e7610792565b5b60006107f6848285016107bd565b91505092915050565b600080fd5b6000601f19601f8301169050919050565b7f4e487b7100000000000000000000000000000000000000000000000000000000600052604160045260246000fd5b61084d82610804565b810181811067ffffffffffffffff8211171561086c5761086b610815565b5b80604052505050565b600061087f610788565b905061088b8282610844565b919050565b600067ffffffffffffffff8211156108ab576108aa610815565b5b602082029050602081019050919050565b600080fd5b600073ffffffffffffffffffffffffffffffffffffffff82169050919050565b60006108ec826108c1565b9050919050565b6108fc816108e1565b811461090757600080fd5b50565b600081359050610919816108f3565b92915050565b600061093261092d84610890565b610875565b90508083825260208201905060208402830185811115610955576109546108bc565b5b835b8181101561097e578061096a888261090a565b845260208401935050602081019050610957565b5050509392505050565b600082601f83011261099d5761099c6107ff565b5b81356109ad84826020860161091f565b91505092915050565b600067ffffffffffffffff8211156109d1576109d0610815565b5b602082029050602081019050919050565b60006109f56109f0846109b6565b610875565b90508083825260208201905060208402830185811115610a1857610a176108bc565b5b835b81811015610a415780610a2d88826107bd565b845260208401935050602081019050610a1a565b5050509392505050565b600082601f830112610a6057610a5f6107ff565b5b8135610a708482602086016109e2565b91505092915050565b60008060408385031215610a9057610a8f610792565b5b600083013567ffffffffffffffff811115610aae57610aad610797565b5b610aba85828601610988565b925050602083013567ffffffffffffffff811115610adb57610ada610797565b5b610ae785828601610a4b565b9150509250929050565b610afa816108e1565b82525050565b6000602082019050610b156000830184610af1565b92915050565b6000819050919050565b6000610b40610b3b610b36846108c1565b610b1b565b6108c1565b9050919050565b6000610b5282610b25565b9050919050565b6000610b6482610b47565b9050919050565b610b7481610b59565b82525050565b6000602082019050610b8f6000830184610b6b565b92915050565b600060208284031215610bab57610baa610792565b5b6000610bb98482850161090a565b91505092915050565b7f4e487b7100000000000000000000000000000000000000000000000000000000600052603260045260246000fd5b7f4e487b7100000000000000000000000000000000000000000000000000000000600052601160045260246000fd5b600060ff82169050919050565b6000610c3882610c20565b915060ff8203610c4b57610c4a610bf1565b5b600182019050919050565b600082825260208201905092915050565b7f4f776e61626c653a206e6577206f776e657220697320746865207a65726f206160008201527f6464726573730000000000000000000000000000000000000000000000000000602082015250565b6000610cc3602683610c56565b9150610cce82610c67565b604082019050919050565b60006020820190508181036000830152610cf281610cb6565b9050919050565b7f4f776e61626c653a2063616c6c6572206973206e6f7420746865206f776e6572600082015250565b6000610d2f602083610c56565b9150610d3a82610cf9565b602082019050919050565b60006020820190508181036000830152610d5e81610d22565b9050919050565b610d6e8161079c565b82525050565b6000604082019050610d896000830185610af1565b610d966020830184610d65565b9392505050565b60008115159050919050565b610db281610d9d565b8114610dbd57600080fd5b50565b600081519050610dcf81610da9565b92915050565b600060208284031215610deb57610dea610792565b5b6000610df984828501610dc0565b91505092915050565b7f5361666545524332303a204552433230206f7065726174696f6e20646964206e60008201527f6f74207375636365656400000000000000000000000000000000000000000000602082015250565b6000610e5e602a83610c56565b9150610e6982610e02565b604082019050919050565b60006020820190508181036000830152610e8d81610e51565b9050919050565b7f416464726573733a20696e73756666696369656e742062616c616e636520666f60008201527f722063616c6c0000000000000000000000000000000000000000000000000000602082015250565b6000610ef0602683610c56565b9150610efb82610e94565b604082019050919050565b60006020820190508181036000830152610f1f81610ee3565b9050919050565b600081519050919050565b600081905092915050565b60005b83811015610f5a578082015181840152602081019050610f3f565b60008484015250505050565b6000610f7182610f26565b610f7b8185610f31565b9350610f8b818560208601610f3c565b80840191505092915050565b6000610fa38284610f66565b915081905092915050565b7f416464726573733a2063616c6c20746f206e6f6e2d636f6e7472616374000000600082015250565b6000610fe4601d83610c56565b9150610fef82610fae565b602082019050919050565b6000602082019050818103600083015261101381610fd7565b9050919050565b600081519050919050565b60006110308261101a565b61103a8185610c56565b935061104a818560208601610f3c565b61105381610804565b840191505092915050565b600060208201905081810360008301526110788184611025565b90509291505056fea2646970667358221220096a5b722634722a5a872d7d6c0dd7115ae14a3a614e41935af3ab5f5b13d04f64736f6c63430008180033",
  "linkReferences": {},
  "deployedLinkReferences": {}
}