{
  "_format": "hh-sol-artifact-1",
  "contractName": "MehCCIPLink",
  "sourceName": "contracts/ccip/MehCCIPLink.sol",
  "abi": [
    {
      "inputs": [
        {
          "internalType": "address",
          "name": "_linkAddress",
          "type": "address"
        },
        {
          "internalType": "address",
          "name": "_router",
          "type": "address"
        },
        {
          "internalType": "uint64",
          "name": "_sourceChainSelector",
          "type": "uint64"
        }
      ],
      "stateMutability": "nonpayable",
      "type": "constructor"
    },
    {
      "inputs": [
        {
          "internalType": "address",
          "name": "router",
          "type": "address"
        }
      ],
      "name": "InvalidRouter",
      "type": "error"
    },
    {
      "anonymous": false,
      "inputs": [
        {
          "indexed": false,
          "internalType": "string",
          "name": "reason",
          "type": "string"
        }
      ],
      "name": "ErrorOccurred",
      "type": "event"
    },
    {
      "anonymous": false,
      "inputs": [
        {
          "indexed": false,
          "internalType": "bytes32",
          "name": "messageId",
          "type": "bytes32"
        }
      ],
      "name": "MessageSent",
      "type": "event"
    },
    {
      "anonymous": false,
      "inputs": [
        {
          "indexed": true,
          "internalType": "address",
          "name": "previousOwner",
          "type": "address"
        },
        {
          "indexed": true,
          "internalType": "address",
          "name": "newOwner",
          "type": "address"
        }
      ],
      "name": "OwnershipTransferred",
      "type": "event"
    },
    {
      "inputs": [
        {
          "components": [
            {
              "internalType": "bytes32",
              "name": "messageId",
              "type": "bytes32"
            },
            {
              "internalType": "uint64",
              "name": "sourceChainSelector",
              "type": "uint64"
            },
            {
              "internalType": "bytes",
              "name": "sender",
              "type": "bytes"
            },
            {
              "internalType": "bytes",
              "name": "data",
              "type": "bytes"
            },
            {
              "components": [
                {
                  "internalType": "address",
                  "name": "token",
                  "type": "address"
                },
                {
                  "internalType": "uint256",
                  "name": "amount",
                  "type": "uint256"
                }
              ],
              "internalType": "struct Client.EVMTokenAmount[]",
              "name": "destTokenAmounts",
              "type": "tuple[]"
            }
          ],
          "internalType": "struct Client.Any2EVMMessage",
          "name": "message",
          "type": "tuple"
        }
      ],
      "name": "ccipReceive",
      "outputs": [],
      "stateMutability": "nonpayable",
      "type": "function"
    },
    {
      "inputs": [],
      "name": "getRouter",
      "outputs": [
        {
          "internalType": "address",
          "name": "",
          "type": "address"
        }
      ],
      "stateMutability": "view",
      "type": "function"
    },
    {
      "inputs": [],
      "name": "linkToken",
      "outputs": [
        {
          "internalType": "contract IERC20",
          "name": "",
          "type": "address"
        }
      ],
      "stateMutability": "view",
      "type": "function"
    },
    {
      "inputs": [],
      "name": "owner",
      "outputs": [
        {
          "internalType": "address",
          "name": "",
          "type": "address"
        }
      ],
      "stateMutability": "view",
      "type": "function"
    },
    {
      "inputs": [],
      "name": "renounceOwnership",
      "outputs": [],
      "stateMutability": "nonpayable",
      "type": "function"
    },
    {
      "inputs": [],
      "name": "router",
      "outputs": [
        {
          "internalType": "contract IRouterClient",
          "name": "",
          "type": "address"
        }
      ],
      "stateMutability": "view",
      "type": "function"
    },
    {
      "inputs": [
        {
          "internalType": "address",
          "name": "_sourceContractAddress",
          "type": "address"
        }
      ],
      "name": "setSourceContractAddress",
      "outputs": [],
      "stateMutability": "nonpayable",
      "type": "function"
    },
    {
      "inputs": [],
      "name": "sourceChainSelector",
      "outputs": [
        {
          "internalType": "uint64",
          "name": "",
          "type": "uint64"
        }
      ],
      "stateMutability": "view",
      "type": "function"
    },
    {
      "inputs": [],
      "name": "sourceContractAddress",
      "outputs": [
        {
          "internalType": "address",
          "name": "",
          "type": "address"
        }
      ],
      "stateMutability": "view",
      "type": "function"
    },
    {
      "inputs": [
        {
          "internalType": "bytes4",
          "name": "interfaceId",
          "type": "bytes4"
        }
      ],
      "name": "supportsInterface",
      "outputs": [
        {
          "internalType": "bool",
          "name": "",
          "type": "bool"
        }
      ],
      "stateMutability": "pure",
      "type": "function"
    },
    {
      "inputs": [
        {
          "internalType": "address",
          "name": "newOwner",
          "type": "address"
        }
      ],
      "name": "transferOwnership",
      "outputs": [],
      "stateMutability": "nonpayable",
      "type": "function"
    },
    {
      "inputs": [],
      "name": "withdrawETH",
      "outputs": [],
      "stateMutability": "nonpayable",
      "type": "function"
    },
    {
      "stateMutability": "payable",
      "type": "receive"
    }
  ],
  "bytecode": "0x60a06040523480156200001157600080fd5b5060405162001d2938038062001d29833981810160405281019062000037919062000331565b81600073ffffffffffffffffffffffffffffffffffffffff168173ffffffffffffffffffffffffffffffffffffffff1603620000ad5760006040517fd7f73334000000000000000000000000000000000000000000000000000000008152600401620000a491906200039e565b60405180910390fd5b8073ffffffffffffffffffffffffffffffffffffffff1660808173ffffffffffffffffffffffffffffffffffffffff16815250505062000102620000f6620001b660201b60201c565b620001be60201b60201c565b82600160006101000a81548173ffffffffffffffffffffffffffffffffffffffff021916908373ffffffffffffffffffffffffffffffffffffffff16021790555081600260006101000a81548173ffffffffffffffffffffffffffffffffffffffff021916908373ffffffffffffffffffffffffffffffffffffffff16021790555080600260146101000a81548167ffffffffffffffff021916908367ffffffffffffffff160217905550505050620003bb565b600033905090565b60008060009054906101000a900473ffffffffffffffffffffffffffffffffffffffff169050816000806101000a81548173ffffffffffffffffffffffffffffffffffffffff021916908373ffffffffffffffffffffffffffffffffffffffff1602179055508173ffffffffffffffffffffffffffffffffffffffff168173ffffffffffffffffffffffffffffffffffffffff167f8be0079c531659141344cd1fd0a4f28419497f9722a3daafe3b4186f6b6457e060405160405180910390a35050565b600080fd5b600073ffffffffffffffffffffffffffffffffffffffff82169050919050565b6000620002b48262000287565b9050919050565b620002c681620002a7565b8114620002d257600080fd5b50565b600081519050620002e681620002bb565b92915050565b600067ffffffffffffffff82169050919050565b6200030b81620002ec565b81146200031757600080fd5b50565b6000815190506200032b8162000300565b92915050565b6000806000606084860312156200034d576200034c62000282565b5b60006200035d86828701620002d5565b93505060206200037086828701620002d5565b925050604062000383868287016200031a565b9150509250925092565b6200039881620002a7565b82525050565b6000602082019050620003b560008301846200038d565b92915050565b60805161194b620003de6000396000818161041f01526104ef015261194b6000f3fe6080604052600436106100ab5760003560e01c80638da5cb5b116100645780638da5cb5b146101b3578063b0f479a1146101de578063e086e5ec14610209578063f2fde38b14610220578063f887ea4014610249578063fbf4e70814610274576100b2565b806301ffc9a7146100b75780633a85f16a146100f457806357970e931461011f578063715018a61461014a57806373df29d31461016157806385572ffb1461018a576100b2565b366100b257005b600080fd5b3480156100c357600080fd5b506100de60048036038101906100d99190610c2d565b61029f565b6040516100eb9190610c75565b60405180910390f35b34801561010057600080fd5b50610109610371565b6040516101169190610cd1565b60405180910390f35b34801561012b57600080fd5b50610134610397565b6040516101419190610d4b565b60405180910390f35b34801561015657600080fd5b5061015f6103bd565b005b34801561016d57600080fd5b5061018860048036038101906101839190610d92565b6103d1565b005b34801561019657600080fd5b506101b160048036038101906101ac9190610de3565b61041d565b005b3480156101bf57600080fd5b506101c86104c2565b6040516101d59190610cd1565b60405180910390f35b3480156101ea57600080fd5b506101f36104eb565b6040516102009190610cd1565b60405180910390f35b34801561021557600080fd5b5061021e610513565b005b34801561022c57600080fd5b5061024760048036038101906102429190610d92565b61056b565b005b34801561025557600080fd5b5061025e6105ee565b60405161026b9190610e4d565b60405180910390f35b34801561028057600080fd5b50610289610614565b6040516102969190610e8b565b60405180910390f35b60007f85572ffb000000000000000000000000000000000000000000000000000000007bffffffffffffffffffffffffffffffffffffffffffffffffffffffff1916827bffffffffffffffffffffffffffffffffffffffffffffffffffffffff1916148061036a57507f01ffc9a7000000000000000000000000000000000000000000000000000000007bffffffffffffffffffffffffffffffffffffffffffffffffffffffff1916827bffffffffffffffffffffffffffffffffffffffffffffffffffffffff1916145b9050919050565b600360009054906101000a900473ffffffffffffffffffffffffffffffffffffffff1681565b600160009054906101000a900473ffffffffffffffffffffffffffffffffffffffff1681565b6103c561062e565b6103cf60006106ac565b565b6103d961062e565b80600360006101000a81548173ffffffffffffffffffffffffffffffffffffffff021916908373ffffffffffffffffffffffffffffffffffffffff16021790555050565b7f000000000000000000000000000000000000000000000000000000000000000073ffffffffffffffffffffffffffffffffffffffff163373ffffffffffffffffffffffffffffffffffffffff16146104ad57336040517fd7f733340000000000000000000000000000000000000000000000000000000081526004016104a49190610cd1565b60405180910390fd5b6104bf816104ba90611286565b610770565b50565b60008060009054906101000a900473ffffffffffffffffffffffffffffffffffffffff16905090565b60007f0000000000000000000000000000000000000000000000000000000000000000905090565b61051b61062e565b6105236104c2565b73ffffffffffffffffffffffffffffffffffffffff166108fc479081150290604051600060405180830381858888f19350505050158015610568573d6000803e3d6000fd5b50565b61057361062e565b600073ffffffffffffffffffffffffffffffffffffffff168173ffffffffffffffffffffffffffffffffffffffff16036105e2576040517f08c379a00000000000000000000000000000000000000000000000000000000081526004016105d99061131c565b60405180910390fd5b6105eb816106ac565b50565b600260009054906101000a900473ffffffffffffffffffffffffffffffffffffffff1681565b600260149054906101000a900467ffffffffffffffff1681565b610636610b89565b73ffffffffffffffffffffffffffffffffffffffff166106546104c2565b73ffffffffffffffffffffffffffffffffffffffff16146106aa576040517f08c379a00000000000000000000000000000000000000000000000000000000081526004016106a190611388565b60405180910390fd5b565b60008060009054906101000a900473ffffffffffffffffffffffffffffffffffffffff169050816000806101000a81548173ffffffffffffffffffffffffffffffffffffffff021916908373ffffffffffffffffffffffffffffffffffffffff1602179055508173ffffffffffffffffffffffffffffffffffffffff168173ffffffffffffffffffffffffffffffffffffffff167f8be0079c531659141344cd1fd0a4f28419497f9722a3daafe3b4186f6b6457e060405160405180910390a35050565b6000816040015180602001905181019061078a91906113e6565b90506000600160009054906101000a900473ffffffffffffffffffffffffffffffffffffffff1673ffffffffffffffffffffffffffffffffffffffff166370a08231836040518263ffffffff1660e01b81526004016107e99190610cd1565b602060405180830381865afa158015610806573d6000803e3d6000fd5b505050506040513d601f19601f8201168201806040525081019061082a9190611428565b905060008160405160200161083f9190611464565b604051602081830303815290604052905060008067ffffffffffffffff81111561086c5761086b610ebc565b5b6040519080825280602002602001820160405280156108a557816020015b610892610b91565b81526020019060019003908161088a5790505b50905060006040518060a00160405280600360009054906101000a900473ffffffffffffffffffffffffffffffffffffffff166040516020016108e891906114c7565b6040516020818303038152906040528152602001848152602001838152602001600073ffffffffffffffffffffffffffffffffffffffff1681526020016040518060200160405280600081525081525090506000600260009054906101000a900473ffffffffffffffffffffffffffffffffffffffff1673ffffffffffffffffffffffffffffffffffffffff166320487ded600260149054906101000a900467ffffffffffffffff16846040518363ffffffff1660e01b81526004016109af9291906116e8565b602060405180830381865afa1580156109cc573d6000803e3d6000fd5b505050506040513d601f19601f820116820180604052508101906109f09190611428565b9050600260009054906101000a900473ffffffffffffffffffffffffffffffffffffffff1673ffffffffffffffffffffffffffffffffffffffff166396f4e9f982600260149054906101000a900467ffffffffffffffff16856040518463ffffffff1660e01b8152600401610a669291906116e8565b60206040518083038185885af193505050508015610aa257506040513d601f19601f82011682018060405250810190610a9f919061172d565b60015b610b4757610aae611767565b806308c379a003610b0a5750610ac2611789565b80610acd5750610b0c565b7fcc8610635659273962514cbb1e149386cc83625cb5595394a01869a0c3fbf7cb81604051610afc919061185d565b60405180910390a150610b42565b505b7fcc8610635659273962514cbb1e149386cc83625cb5595394a01869a0c3fbf7cb604051610b39906118cb565b60405180910390a15b610b80565b7f54791b38f3859327992a1ca0590ad3c0f08feba98d1a4f56ab0dca74d203392a81604051610b7691906118fa565b60405180910390a1505b50505050505050565b600033905090565b6040518060400160405280600073ffffffffffffffffffffffffffffffffffffffff168152602001600081525090565b6000604051905090565b600080fd5b600080fd5b60007fffffffff0000000000000000000000000000000000000000000000000000000082169050919050565b610c0a81610bd5565b8114610c1557600080fd5b50565b600081359050610c2781610c01565b92915050565b600060208284031215610c4357610c42610bcb565b5b6000610c5184828501610c18565b91505092915050565b60008115159050919050565b610c6f81610c5a565b82525050565b6000602082019050610c8a6000830184610c66565b92915050565b600073ffffffffffffffffffffffffffffffffffffffff82169050919050565b6000610cbb82610c90565b9050919050565b610ccb81610cb0565b82525050565b6000602082019050610ce66000830184610cc2565b92915050565b6000819050919050565b6000610d11610d0c610d0784610c90565b610cec565b610c90565b9050919050565b6000610d2382610cf6565b9050919050565b6000610d3582610d18565b9050919050565b610d4581610d2a565b82525050565b6000602082019050610d606000830184610d3c565b92915050565b610d6f81610cb0565b8114610d7a57600080fd5b50565b600081359050610d8c81610d66565b92915050565b600060208284031215610da857610da7610bcb565b5b6000610db684828501610d7d565b91505092915050565b600080fd5b600060a08284031215610dda57610dd9610dbf565b5b81905092915050565b600060208284031215610df957610df8610bcb565b5b600082013567ffffffffffffffff811115610e1757610e16610bd0565b5b610e2384828501610dc4565b91505092915050565b6000610e3782610d18565b9050919050565b610e4781610e2c565b82525050565b6000602082019050610e626000830184610e3e565b92915050565b600067ffffffffffffffff82169050919050565b610e8581610e68565b82525050565b6000602082019050610ea06000830184610e7c565b92915050565b600080fd5b6000601f19601f8301169050919050565b7f4e487b7100000000000000000000000000000000000000000000000000000000600052604160045260246000fd5b610ef482610eab565b810181811067ffffffffffffffff82111715610f1357610f12610ebc565b5b80604052505050565b6000610f26610bc1565b9050610f328282610eeb565b919050565b600080fd5b6000819050919050565b610f4f81610f3c565b8114610f5a57600080fd5b50565b600081359050610f6c81610f46565b92915050565b610f7b81610e68565b8114610f8657600080fd5b50565b600081359050610f9881610f72565b92915050565b600080fd5b600080fd5b600067ffffffffffffffff821115610fc357610fc2610ebc565b5b610fcc82610eab565b9050602081019050919050565b82818337600083830152505050565b6000610ffb610ff684610fa8565b610f1c565b90508281526020810184848401111561101757611016610fa3565b5b611022848285610fd9565b509392505050565b600082601f83011261103f5761103e610f9e565b5b813561104f848260208601610fe8565b91505092915050565b600067ffffffffffffffff82111561107357611072610ebc565b5b602082029050602081019050919050565b600080fd5b6000819050919050565b61109c81611089565b81146110a757600080fd5b50565b6000813590506110b981611093565b92915050565b6000604082840312156110d5576110d4610ea6565b5b6110df6040610f1c565b905060006110ef84828501610d7d565b6000830152506020611103848285016110aa565b60208301525092915050565b600061112261111d84611058565b610f1c565b9050808382526020820190506040840283018581111561114557611144611084565b5b835b8181101561116e578061115a88826110bf565b845260208401935050604081019050611147565b5050509392505050565b600082601f83011261118d5761118c610f9e565b5b813561119d84826020860161110f565b91505092915050565b600060a082840312156111bc576111bb610ea6565b5b6111c660a0610f1c565b905060006111d684828501610f5d565b60008301525060206111ea84828501610f89565b602083015250604082013567ffffffffffffffff81111561120e5761120d610f37565b5b61121a8482850161102a565b604083015250606082013567ffffffffffffffff81111561123e5761123d610f37565b5b61124a8482850161102a565b606083015250608082013567ffffffffffffffff81111561126e5761126d610f37565b5b61127a84828501611178565b60808301525092915050565b600061129236836111a6565b9050919050565b600082825260208201905092915050565b7f4f776e61626c653a206e6577206f776e657220697320746865207a65726f206160008201527f6464726573730000000000000000000000000000000000000000000000000000602082015250565b6000611306602683611299565b9150611311826112aa565b604082019050919050565b60006020820190508181036000830152611335816112f9565b9050919050565b7f4f776e61626c653a2063616c6c6572206973206e6f7420746865206f776e6572600082015250565b6000611372602083611299565b915061137d8261133c565b602082019050919050565b600060208201905081810360008301526113a181611365565b9050919050565b60006113b382610c90565b9050919050565b6113c3816113a8565b81146113ce57600080fd5b50565b6000815190506113e0816113ba565b92915050565b6000602082840312156113fc576113fb610bcb565b5b600061140a848285016113d1565b91505092915050565b60008151905061142281611093565b92915050565b60006020828403121561143e5761143d610bcb565b5b600061144c84828501611413565b91505092915050565b61145e81611089565b82525050565b60006020820190506114796000830184611455565b92915050565b60008160601b9050919050565b60006114978261147f565b9050919050565b60006114a98261148c565b9050919050565b6114c16114bc82610cb0565b61149e565b82525050565b60006114d382846114b0565b60148201915081905092915050565b600081519050919050565b600082825260208201905092915050565b60005b8381101561151c578082015181840152602081019050611501565b60008484015250505050565b6000611533826114e2565b61153d81856114ed565b935061154d8185602086016114fe565b61155681610eab565b840191505092915050565b600081519050919050565b600082825260208201905092915050565b6000819050602082019050919050565b61159681610cb0565b82525050565b6115a581611089565b82525050565b6040820160008201516115c1600085018261158d565b5060208201516115d4602085018261159c565b50505050565b60006115e683836115ab565b60408301905092915050565b6000602082019050919050565b600061160a82611561565b611614818561156c565b935061161f8361157d565b8060005b8381101561165057815161163788826115da565b9750611642836115f2565b925050600181019050611623565b5085935050505092915050565b600060a083016000830151848203600086015261167a8282611528565b915050602083015184820360208601526116948282611528565b915050604083015184820360408601526116ae82826115ff565b91505060608301516116c3606086018261158d565b50608083015184820360808601526116db8282611528565b9150508091505092915050565b60006040820190506116fd6000830185610e7c565b818103602083015261170f818461165d565b90509392505050565b60008151905061172781610f46565b92915050565b60006020828403121561174357611742610bcb565b5b600061175184828501611718565b91505092915050565b60008160e01c9050919050565b600060033d11156117865760046000803e61178360005161175a565b90505b90565b600060443d106118165761179b610bc1565b60043d036004823e80513d602482011167ffffffffffffffff821117156117c3575050611816565b808201805167ffffffffffffffff8111156117e15750505050611816565b80602083010160043d0385018111156117fe575050505050611816565b61180d82602001850186610eeb565b82955050505050505b90565b600081519050919050565b600061182f82611819565b6118398185611299565b93506118498185602086016114fe565b61185281610eab565b840191505092915050565b600060208201905081810360008301526118778184611824565b905092915050565b7f556e6b6e6f776e206572726f72206f6363757272656400000000000000000000600082015250565b60006118b5601683611299565b91506118c08261187f565b602082019050919050565b600060208201905081810360008301526118e4816118a8565b9050919050565b6118f481610f3c565b82525050565b600060208201905061190f60008301846118eb565b9291505056fea264697066735822122090f80ade3054a2d89bd5846222621e17f74b044499bb5acccfce525917b4390364736f6c63430008180033",
  "linkReferences": {},
  "deployedLinkReferences": {}
}