{
  "_format": "hh-sol-artifact-1",
  "contractName": "MehCCIPLink",
  "sourceName": "contracts/CCIP/MehCCIPLink.sol",
  "abi": [
    {
      "inputs": [
        {
          "internalType": "address",
          "name": "_linkAddress",
          "type": "address"
        }
      ],
      "stateMutability": "nonpayable",
      "type": "constructor"
    },
    {
      "inputs": [],
      "name": "getLinkBalance",
      "outputs": [
        {
          "internalType": "uint256",
          "name": "",
          "type": "uint256"
        }
      ],
      "stateMutability": "view",
      "type": "function"
    },
    {
      "inputs": [],
      "name": "linkToken",
      "outputs": [
        {
          "internalType": "contract IERC20",
          "name": "",
          "type": "address"
        }
      ],
      "stateMutability": "view",
      "type": "function"
    }
  ],
  "bytecode": "0x608060405234801561001057600080fd5b506040516103f23803806103f2833981810160405281019061003291906100db565b806000806101000a81548173ffffffffffffffffffffffffffffffffffffffff021916908373ffffffffffffffffffffffffffffffffffffffff16021790555050610108565b600080fd5b600073ffffffffffffffffffffffffffffffffffffffff82169050919050565b60006100a88261007d565b9050919050565b6100b88161009d565b81146100c357600080fd5b50565b6000815190506100d5816100af565b92915050565b6000602082840312156100f1576100f0610078565b5b60006100ff848285016100c6565b91505092915050565b6102db806101176000396000f3fe608060405234801561001057600080fd5b50600436106100365760003560e01c806350c5f9751461003b57806357970e9314610059575b600080fd5b610043610077565b6040516100509190610156565b60405180910390f35b610061610119565b60405161006e91906101f0565b60405180910390f35b60008060009054906101000a900473ffffffffffffffffffffffffffffffffffffffff1673ffffffffffffffffffffffffffffffffffffffff166370a08231306040518263ffffffff1660e01b81526004016100d3919061022c565b602060405180830381865afa1580156100f0573d6000803e3d6000fd5b505050506040513d601f19601f820116820180604052508101906101149190610278565b905090565b60008054906101000a900473ffffffffffffffffffffffffffffffffffffffff1681565b6000819050919050565b6101508161013d565b82525050565b600060208201905061016b6000830184610147565b92915050565b600073ffffffffffffffffffffffffffffffffffffffff82169050919050565b6000819050919050565b60006101b66101b16101ac84610171565b610191565b610171565b9050919050565b60006101c88261019b565b9050919050565b60006101da826101bd565b9050919050565b6101ea816101cf565b82525050565b600060208201905061020560008301846101e1565b92915050565b600061021682610171565b9050919050565b6102268161020b565b82525050565b6000602082019050610241600083018461021d565b92915050565b600080fd5b6102558161013d565b811461026057600080fd5b50565b6000815190506102728161024c565b92915050565b60006020828403121561028e5761028d610247565b5b600061029c84828501610263565b9150509291505056fea2646970667358221220a9615e1276cdcd04e6d68cffb5dece0cd604e43d8e3b769fa4ff9fc1c2208c4964736f6c63430008180033",
  "linkReferences": {},
  "deployedLinkReferences": {}
}