{
  "_format": "hh-sol-artifact-1",
  "contractName": "MehCCIPLink",
  "sourceName": "contracts/CCIP/MehCCIPLink.sol",
  "abi": [
    {
      "inputs": [
        {
          "internalType": "uint256",
          "name": "_linkBalance",
          "type": "uint256"
        }
      ],
      "stateMutability": "nonpayable",
      "type": "constructor"
    },
    {
      "inputs": [],
      "name": "getLinkBalance",
      "outputs": [
        {
          "internalType": "uint256",
          "name": "",
          "type": "uint256"
        }
      ],
      "stateMutability": "view",
      "type": "function"
    },
    {
      "inputs": [],
      "name": "linkBalance",
      "outputs": [
        {
          "internalType": "uint256",
          "name": "",
          "type": "uint256"
        }
      ],
      "stateMutability": "view",
      "type": "function"
    }
  ],
  "bytecode": "0x608060405234801561001057600080fd5b506040516101953803806101958339818101604052810190610032919061007a565b80600081905550506100a7565b600080fd5b6000819050919050565b61005781610044565b811461006257600080fd5b50565b6000815190506100748161004e565b92915050565b6000602082840312156100905761008f61003f565b5b600061009e84828501610065565b91505092915050565b60e0806100b56000396000f3fe6080604052348015600f57600080fd5b506004361060325760003560e01c806350c5f975146037578063c26ecefa146051575b600080fd5b603d606b565b604051604891906091565b60405180910390f35b60576074565b604051606291906091565b60405180910390f35b60008054905090565b60005481565b6000819050919050565b608b81607a565b82525050565b600060208201905060a460008301846084565b9291505056fea2646970667358221220acb21849af75ebfdc2690a018c098473bdb0918cee4e85ee7c5f64cfd20f09c564736f6c63430008180033",
  "linkReferences": {},
  "deployedLinkReferences": {}
}