{
  "_format": "hh-sol-artifact-1",
  "contractName": "MehAdV2",
  "sourceName": "contracts/MehAdV2.sol",
  "abi": [
    {
      "inputs": [
        {
          "internalType": "address",
          "name": "_mainnetContractAddress",
          "type": "address"
        },
        {
          "internalType": "address",
          "name": "_router",
          "type": "address"
        },
        {
          "internalType": "address",
          "name": "_linkTokenAddress",
          "type": "address"
        },
        {
          "internalType": "address",
          "name": "_mehTokenAddress",
          "type": "address"
        },
        {
          "internalType": "address",
          "name": "_ercAdAddress",
          "type": "address"
        }
      ],
      "stateMutability": "nonpayable",
      "type": "constructor"
    },
    {
      "inputs": [
        {
          "internalType": "address",
          "name": "router",
          "type": "address"
        }
      ],
      "name": "InvalidRouter",
      "type": "error"
    },
    {
      "anonymous": false,
      "inputs": [
        {
          "indexed": false,
          "internalType": "bytes32",
          "name": "messageId",
          "type": "bytes32"
        },
        {
          "indexed": false,
          "internalType": "uint64",
          "name": "sourceChainSelector",
          "type": "uint64"
        },
        {
          "indexed": false,
          "internalType": "address",
          "name": "sender",
          "type": "address"
        },
        {
          "indexed": false,
          "internalType": "uint256",
          "name": "balance",
          "type": "uint256"
        }
      ],
      "name": "MessageReceived",
      "type": "event"
    },
    {
      "anonymous": false,
      "inputs": [
        {
          "indexed": false,
          "internalType": "bytes32",
          "name": "messageId",
          "type": "bytes32"
        }
      ],
      "name": "MessageSent",
      "type": "event"
    },
    {
      "inputs": [
        {
          "components": [
            {
              "internalType": "bytes32",
              "name": "messageId",
              "type": "bytes32"
            },
            {
              "internalType": "uint64",
              "name": "sourceChainSelector",
              "type": "uint64"
            },
            {
              "internalType": "bytes",
              "name": "sender",
              "type": "bytes"
            },
            {
              "internalType": "bytes",
              "name": "data",
              "type": "bytes"
            },
            {
              "components": [
                {
                  "internalType": "address",
                  "name": "token",
                  "type": "address"
                },
                {
                  "internalType": "uint256",
                  "name": "amount",
                  "type": "uint256"
                }
              ],
              "internalType": "struct Client.EVMTokenAmount[]",
              "name": "destTokenAmounts",
              "type": "tuple[]"
            }
          ],
          "internalType": "struct Client.Any2EVMMessage",
          "name": "message",
          "type": "tuple"
        }
      ],
      "name": "ccipReceive",
      "outputs": [],
      "stateMutability": "nonpayable",
      "type": "function"
    },
    {
      "inputs": [
        {
          "internalType": "uint256",
          "name": "id",
          "type": "uint256"
        }
      ],
      "name": "displayAd",
      "outputs": [
        {
          "components": [
            {
              "internalType": "string",
              "name": "adURI",
              "type": "string"
            },
            {
              "internalType": "string",
              "name": "dataURI",
              "type": "string"
            },
            {
              "internalType": "bytes32",
              "name": "signatureRoot",
              "type": "bytes32"
            },
            {
              "internalType": "bytes32",
              "name": "audienceRoot",
              "type": "bytes32"
            }
          ],
          "internalType": "struct IERCAd.Ad",
          "name": "",
          "type": "tuple"
        }
      ],
      "stateMutability": "view",
      "type": "function"
    },
    {
      "inputs": [],
      "name": "ercAdContract",
      "outputs": [
        {
          "internalType": "contract IERCAd",
          "name": "",
          "type": "address"
        }
      ],
      "stateMutability": "view",
      "type": "function"
    },
    {
      "inputs": [],
      "name": "getLinkBalance",
      "outputs": [],
      "stateMutability": "nonpayable",
      "type": "function"
    },
    {
      "inputs": [],
      "name": "getRouter",
      "outputs": [
        {
          "internalType": "address",
          "name": "",
          "type": "address"
        }
      ],
      "stateMutability": "view",
      "type": "function"
    },
    {
      "inputs": [],
      "name": "linkToken",
      "outputs": [
        {
          "internalType": "contract IERC20",
          "name": "",
          "type": "address"
        }
      ],
      "stateMutability": "view",
      "type": "function"
    },
    {
      "inputs": [],
      "name": "mainnetContractAddress",
      "outputs": [
        {
          "internalType": "address",
          "name": "",
          "type": "address"
        }
      ],
      "stateMutability": "view",
      "type": "function"
    },
    {
      "inputs": [],
      "name": "mehToken",
      "outputs": [
        {
          "internalType": "contract IERC20",
          "name": "",
          "type": "address"
        }
      ],
      "stateMutability": "view",
      "type": "function"
    },
    {
      "inputs": [],
      "name": "router",
      "outputs": [
        {
          "internalType": "contract IRouterClient",
          "name": "",
          "type": "address"
        }
      ],
      "stateMutability": "view",
      "type": "function"
    },
    {
      "inputs": [
        {
          "internalType": "uint256",
          "name": "id",
          "type": "uint256"
        },
        {
          "internalType": "bytes32[]",
          "name": "proof",
          "type": "bytes32[]"
        }
      ],
      "name": "signAd",
      "outputs": [],
      "stateMutability": "nonpayable",
      "type": "function"
    },
    {
      "inputs": [
        {
          "internalType": "bytes4",
          "name": "interfaceId",
          "type": "bytes4"
        }
      ],
      "name": "supportsInterface",
      "outputs": [
        {
          "internalType": "bool",
          "name": "",
          "type": "bool"
        }
      ],
      "stateMutability": "pure",
      "type": "function"
    }
  ],
  "bytecode": "0x60a06040523480156200001157600080fd5b5060405162001e7838038062001e7883398181016040528101906200003791906200029b565b83600073ffffffffffffffffffffffffffffffffffffffff168173ffffffffffffffffffffffffffffffffffffffff1603620000ad5760006040517fd7f73334000000000000000000000000000000000000000000000000000000008152600401620000a4919062000334565b60405180910390fd5b8073ffffffffffffffffffffffffffffffffffffffff1660808173ffffffffffffffffffffffffffffffffffffffff168152505050846000806101000a81548173ffffffffffffffffffffffffffffffffffffffff021916908373ffffffffffffffffffffffffffffffffffffffff16021790555083600160006101000a81548173ffffffffffffffffffffffffffffffffffffffff021916908373ffffffffffffffffffffffffffffffffffffffff16021790555081600260006101000a81548173ffffffffffffffffffffffffffffffffffffffff021916908373ffffffffffffffffffffffffffffffffffffffff16021790555082600360006101000a81548173ffffffffffffffffffffffffffffffffffffffff021916908373ffffffffffffffffffffffffffffffffffffffff16021790555080600460006101000a81548173ffffffffffffffffffffffffffffffffffffffff021916908373ffffffffffffffffffffffffffffffffffffffff160217905550505050505062000351565b600080fd5b600073ffffffffffffffffffffffffffffffffffffffff82169050919050565b6000620002638262000236565b9050919050565b620002758162000256565b81146200028157600080fd5b50565b60008151905062000295816200026a565b92915050565b600080600080600060a08688031215620002ba57620002b962000231565b5b6000620002ca8882890162000284565b9550506020620002dd8882890162000284565b9450506040620002f08882890162000284565b9350506060620003038882890162000284565b9250506080620003168882890162000284565b9150509295509295909350565b6200032e8162000256565b82525050565b60006020820190506200034b600083018462000323565b92915050565b608051611b0462000374600039600081816106a401526107710152611b046000f3fe608060405234801561001057600080fd5b50600436106100a95760003560e01c806392b9d0251161007157806392b9d02514610152578063b0f479a114610170578063c62693891461018e578063e2c2c884146101ac578063f887ea40146101ca578063fe49e833146101e8576100a9565b806301ffc9a7146100ae57806350c5f975146100de57806357970e93146100e8578063672fb9691461010657806385572ffb14610136575b600080fd5b6100c860048036038101906100c39190610b71565b610204565b6040516100d59190610bb9565b60405180910390f35b6100e66102d6565b005b6100f06105cc565b6040516100fd9190610c53565b60405180910390f35b610120600480360381019061011b9190610ca4565b6105f2565b60405161012d9190610de4565b60405180910390f35b610150600480360381019061014b9190610e2a565b6106a2565b005b61015a610747565b6040516101679190610e94565b60405180910390f35b61017861076d565b6040516101859190610ed0565b60405180910390f35b610196610795565b6040516101a39190610ed0565b60405180910390f35b6101b46107b9565b6040516101c19190610c53565b60405180910390f35b6101d26107df565b6040516101df9190610f0c565b60405180910390f35b61020260048036038101906101fd9190610f8c565b610805565b005b60007f85572ffb000000000000000000000000000000000000000000000000000000007bffffffffffffffffffffffffffffffffffffffffffffffffffffffff1916827bffffffffffffffffffffffffffffffffffffffffffffffffffffffff191614806102cf57507f01ffc9a7000000000000000000000000000000000000000000000000000000007bffffffffffffffffffffffffffffffffffffffffffffffffffffffff1916827bffffffffffffffffffffffffffffffffffffffffffffffffffffffff1916145b9050919050565b60006040516024016040516020818303038152906040527f50c5f975000000000000000000000000000000000000000000000000000000007bffffffffffffffffffffffffffffffffffffffffffffffffffffffff19166020820180517bffffffffffffffffffffffffffffffffffffffffffffffffffffffff8381831617835250505050905060008067ffffffffffffffff81111561037957610378610fec565b5b6040519080825280602002602001820160405280156103b257816020015b61039f610aa7565b8152602001906001900390816103975790505b50905060006040518060a0016040528060008054906101000a900473ffffffffffffffffffffffffffffffffffffffff166040516020016103f39190610ed0565b6040516020818303038152906040528152602001848152602001838152602001600073ffffffffffffffffffffffffffffffffffffffff1681526020016040518060200160405280600081525081525090506000600160009054906101000a900473ffffffffffffffffffffffffffffffffffffffff1673ffffffffffffffffffffffffffffffffffffffff166320487ded6000846040518363ffffffff1660e01b81526004016104a5929190611246565b602060405180830381865afa1580156104c2573d6000803e3d6000fd5b505050506040513d601f19601f820116820180604052508101906104e6919061128b565b90506000600160009054906101000a900473ffffffffffffffffffffffffffffffffffffffff1673ffffffffffffffffffffffffffffffffffffffff166396f4e9f9836000866040518463ffffffff1660e01b8152600401610549929190611246565b60206040518083038185885af1158015610567573d6000803e3d6000fd5b50505050506040513d601f19601f8201168201806040525081019061058c91906112e4565b90507f54791b38f3859327992a1ca0590ad3c0f08feba98d1a4f56ab0dca74d203392a816040516105bd9190611320565b60405180910390a15050505050565b600360009054906101000a900473ffffffffffffffffffffffffffffffffffffffff1681565b6105fa610ad7565b600460009054906101000a900473ffffffffffffffffffffffffffffffffffffffff1673ffffffffffffffffffffffffffffffffffffffff1663672fb969836040518263ffffffff1660e01b8152600401610655919061134a565b600060405180830381865afa158015610672573d6000803e3d6000fd5b505050506040513d6000823e3d601f19601f8201168201806040525081019061069b9190611511565b9050919050565b7f000000000000000000000000000000000000000000000000000000000000000073ffffffffffffffffffffffffffffffffffffffff163373ffffffffffffffffffffffffffffffffffffffff161461073257336040517fd7f733340000000000000000000000000000000000000000000000000000000081526004016107299190610ed0565b60405180910390fd5b6107448161073f9061186a565b6108a3565b50565b600460009054906101000a900473ffffffffffffffffffffffffffffffffffffffff1681565b60007f0000000000000000000000000000000000000000000000000000000000000000905090565b60008054906101000a900473ffffffffffffffffffffffffffffffffffffffff1681565b600260009054906101000a900473ffffffffffffffffffffffffffffffffffffffff1681565b600160009054906101000a900473ffffffffffffffffffffffffffffffffffffffff1681565b600460009054906101000a900473ffffffffffffffffffffffffffffffffffffffff1673ffffffffffffffffffffffffffffffffffffffff1663fe49e8338484846040518463ffffffff1660e01b8152600401610864939291906118f8565b600060405180830381600087803b15801561087e57600080fd5b505af1158015610892573d6000803e3d6000fd5b5050505061089e6102d6565b505050565b600081606001518060200190518101906108bd919061128b565b9050600082604001518060200190518101906108d99190611968565b9050600360009054906101000a900473ffffffffffffffffffffffffffffffffffffffff1673ffffffffffffffffffffffffffffffffffffffff166370a08231306040518263ffffffff1660e01b81526004016109369190610ed0565b602060405180830381865afa158015610953573d6000803e3d6000fd5b505050506040513d601f19601f82011682018060405250810190610977919061128b565b8261098291906119c4565b91506000690a968163f0a57b4000009050670de0b6b3a764000083106109bb576969e10de76676d0800000816109b891906119c4565b90505b600260009054906101000a900473ffffffffffffffffffffffffffffffffffffffff1673ffffffffffffffffffffffffffffffffffffffff1663a9059cbb33836040518363ffffffff1660e01b8152600401610a189291906119f8565b6020604051808303816000875af1158015610a37573d6000803e3d6000fd5b505050506040513d601f19601f82011682018060405250810190610a5b9190611a4d565b507f9e0cedd023f625fb8db19f2eb903c24aa1a45f05fd9ef9431a80505ad65e30fe846000015185602001518486604051610a999493929190611a89565b60405180910390a150505050565b6040518060400160405280600073ffffffffffffffffffffffffffffffffffffffff168152602001600081525090565b6040518060800160405280606081526020016060815260200160008019168152602001600080191681525090565b6000604051905090565b600080fd5b600080fd5b60007fffffffff0000000000000000000000000000000000000000000000000000000082169050919050565b610b4e81610b19565b8114610b5957600080fd5b50565b600081359050610b6b81610b45565b92915050565b600060208284031215610b8757610b86610b0f565b5b6000610b9584828501610b5c565b91505092915050565b60008115159050919050565b610bb381610b9e565b82525050565b6000602082019050610bce6000830184610baa565b92915050565b600073ffffffffffffffffffffffffffffffffffffffff82169050919050565b6000819050919050565b6000610c19610c14610c0f84610bd4565b610bf4565b610bd4565b9050919050565b6000610c2b82610bfe565b9050919050565b6000610c3d82610c20565b9050919050565b610c4d81610c32565b82525050565b6000602082019050610c686000830184610c44565b92915050565b6000819050919050565b610c8181610c6e565b8114610c8c57600080fd5b50565b600081359050610c9e81610c78565b92915050565b600060208284031215610cba57610cb9610b0f565b5b6000610cc884828501610c8f565b91505092915050565b600081519050919050565b600082825260208201905092915050565b60005b83811015610d0b578082015181840152602081019050610cf0565b60008484015250505050565b6000601f19601f8301169050919050565b6000610d3382610cd1565b610d3d8185610cdc565b9350610d4d818560208601610ced565b610d5681610d17565b840191505092915050565b6000819050919050565b610d7481610d61565b82525050565b60006080830160008301518482036000860152610d978282610d28565b91505060208301518482036020860152610db18282610d28565b9150506040830151610dc66040860182610d6b565b506060830151610dd96060860182610d6b565b508091505092915050565b60006020820190508181036000830152610dfe8184610d7a565b905092915050565b600080fd5b600060a08284031215610e2157610e20610e06565b5b81905092915050565b600060208284031215610e4057610e3f610b0f565b5b600082013567ffffffffffffffff811115610e5e57610e5d610b14565b5b610e6a84828501610e0b565b91505092915050565b6000610e7e82610c20565b9050919050565b610e8e81610e73565b82525050565b6000602082019050610ea96000830184610e85565b92915050565b6000610eba82610bd4565b9050919050565b610eca81610eaf565b82525050565b6000602082019050610ee56000830184610ec1565b92915050565b6000610ef682610c20565b9050919050565b610f0681610eeb565b82525050565b6000602082019050610f216000830184610efd565b92915050565b600080fd5b600080fd5b600080fd5b60008083601f840112610f4c57610f4b610f27565b5b8235905067ffffffffffffffff811115610f6957610f68610f2c565b5b602083019150836020820283011115610f8557610f84610f31565b5b9250929050565b600080600060408486031215610fa557610fa4610b0f565b5b6000610fb386828701610c8f565b935050602084013567ffffffffffffffff811115610fd457610fd3610b14565b5b610fe086828701610f36565b92509250509250925092565b7f4e487b7100000000000000000000000000000000000000000000000000000000600052604160045260246000fd5b6000819050919050565b600067ffffffffffffffff82169050919050565b600061105461104f61104a8461101b565b610bf4565b611025565b9050919050565b61106481611039565b82525050565b600081519050919050565b600082825260208201905092915050565b60006110918261106a565b61109b8185611075565b93506110ab818560208601610ced565b6110b481610d17565b840191505092915050565b600081519050919050565b600082825260208201905092915050565b6000819050602082019050919050565b6110f481610eaf565b82525050565b61110381610c6e565b82525050565b60408201600082015161111f60008501826110eb565b50602082015161113260208501826110fa565b50505050565b60006111448383611109565b60408301905092915050565b6000602082019050919050565b6000611168826110bf565b61117281856110ca565b935061117d836110db565b8060005b838110156111ae5781516111958882611138565b97506111a083611150565b925050600181019050611181565b5085935050505092915050565b600060a08301600083015184820360008601526111d88282611086565b915050602083015184820360208601526111f28282611086565b9150506040830151848203604086015261120c828261115d565b915050606083015161122160608601826110eb565b50608083015184820360808601526112398282611086565b9150508091505092915050565b600060408201905061125b600083018561105b565b818103602083015261126d81846111bb565b90509392505050565b60008151905061128581610c78565b92915050565b6000602082840312156112a1576112a0610b0f565b5b60006112af84828501611276565b91505092915050565b6112c181610d61565b81146112cc57600080fd5b50565b6000815190506112de816112b8565b92915050565b6000602082840312156112fa576112f9610b0f565b5b6000611308848285016112cf565b91505092915050565b61131a81610d61565b82525050565b60006020820190506113356000830184611311565b92915050565b61134481610c6e565b82525050565b600060208201905061135f600083018461133b565b92915050565b600080fd5b61137382610d17565b810181811067ffffffffffffffff8211171561139257611391610fec565b5b80604052505050565b60006113a5610b05565b90506113b1828261136a565b919050565b600080fd5b600080fd5b600067ffffffffffffffff8211156113db576113da610fec565b5b6113e482610d17565b9050602081019050919050565b60006114046113ff846113c0565b61139b565b9050828152602081018484840111156114205761141f6113bb565b5b61142b848285610ced565b509392505050565b600082601f83011261144857611447610f27565b5b81516114588482602086016113f1565b91505092915050565b60006080828403121561147757611476611365565b5b611481608061139b565b9050600082015167ffffffffffffffff8111156114a1576114a06113b6565b5b6114ad84828501611433565b600083015250602082015167ffffffffffffffff8111156114d1576114d06113b6565b5b6114dd84828501611433565b60208301525060406114f1848285016112cf565b6040830152506060611505848285016112cf565b60608301525092915050565b60006020828403121561152757611526610b0f565b5b600082015167ffffffffffffffff81111561154557611544610b14565b5b61155184828501611461565b91505092915050565b600081359050611569816112b8565b92915050565b61157881611025565b811461158357600080fd5b50565b6000813590506115958161156f565b92915050565b600067ffffffffffffffff8211156115b6576115b5610fec565b5b6115bf82610d17565b9050602081019050919050565b82818337600083830152505050565b60006115ee6115e98461159b565b61139b565b90508281526020810184848401111561160a576116096113bb565b5b6116158482856115cc565b509392505050565b600082601f83011261163257611631610f27565b5b81356116428482602086016115db565b91505092915050565b600067ffffffffffffffff82111561166657611665610fec565b5b602082029050602081019050919050565b61168081610eaf565b811461168b57600080fd5b50565b60008135905061169d81611677565b92915050565b6000604082840312156116b9576116b8611365565b5b6116c3604061139b565b905060006116d38482850161168e565b60008301525060206116e784828501610c8f565b60208301525092915050565b60006117066117018461164b565b61139b565b9050808382526020820190506040840283018581111561172957611728610f31565b5b835b81811015611752578061173e88826116a3565b84526020840193505060408101905061172b565b5050509392505050565b600082601f83011261177157611770610f27565b5b81356117818482602086016116f3565b91505092915050565b600060a082840312156117a05761179f611365565b5b6117aa60a061139b565b905060006117ba8482850161155a565b60008301525060206117ce84828501611586565b602083015250604082013567ffffffffffffffff8111156117f2576117f16113b6565b5b6117fe8482850161161d565b604083015250606082013567ffffffffffffffff811115611822576118216113b6565b5b61182e8482850161161d565b606083015250608082013567ffffffffffffffff811115611852576118516113b6565b5b61185e8482850161175c565b60808301525092915050565b6000611876368361178a565b9050919050565b600082825260208201905092915050565b600080fd5b82818337505050565b60006118a8838561187d565b93507f07ffffffffffffffffffffffffffffffffffffffffffffffffffffffffffffff8311156118db576118da61188e565b5b6020830292506118ec838584611893565b82840190509392505050565b600060408201905061190d600083018661133b565b818103602083015261192081848661189c565b9050949350505050565b600061193582610bd4565b9050919050565b6119458161192a565b811461195057600080fd5b50565b6000815190506119628161193c565b92915050565b60006020828403121561197e5761197d610b0f565b5b600061198c84828501611953565b91505092915050565b7f4e487b7100000000000000000000000000000000000000000000000000000000600052601160045260246000fd5b60006119cf82610c6e565b91506119da83610c6e565b92508282019050808211156119f2576119f1611995565b5b92915050565b6000604082019050611a0d6000830185610ec1565b611a1a602083018461133b565b9392505050565b611a2a81610b9e565b8114611a3557600080fd5b50565b600081519050611a4781611a21565b92915050565b600060208284031215611a6357611a62610b0f565b5b6000611a7184828501611a38565b91505092915050565b611a8381611025565b82525050565b6000608082019050611a9e6000830187611311565b611aab6020830186611a7a565b611ab86040830185610ec1565b611ac5606083018461133b565b9594505050505056fea2646970667358221220ad0ee6399aa78b582e74c5f9a0f14aaa13a8c54eb7adf6ca5727516a30f1d21164736f6c63430008180033",
  "linkReferences": {},
  "deployedLinkReferences": {}
}