{
  "_format": "hh-sol-artifact-1",
  "contractName": "MehAdV2",
  "sourceName": "contracts/MehAdV2.sol",
  "abi": [
    {
      "inputs": [
        {
          "internalType": "address",
          "name": "_baseContractAddress",
          "type": "address"
        },
        {
          "internalType": "address",
          "name": "_router",
          "type": "address"
        },
        {
          "internalType": "address",
          "name": "_linkTokenAddress",
          "type": "address"
        },
        {
          "internalType": "address",
          "name": "_ercAdAddress",
          "type": "address"
        },
        {
          "internalType": "uint64",
          "name": "_destinationChainSelector",
          "type": "uint64"
        }
      ],
      "stateMutability": "nonpayable",
      "type": "constructor"
    },
    {
      "anonymous": false,
      "inputs": [
        {
          "indexed": false,
          "internalType": "bytes32",
          "name": "messageId",
          "type": "bytes32"
        },
        {
          "indexed": false,
          "internalType": "address",
          "name": "sender",
          "type": "address"
        },
        {
          "indexed": false,
          "internalType": "uint256",
          "name": "fees",
          "type": "uint256"
        },
        {
          "indexed": false,
          "internalType": "uint256",
          "name": "linkBalance",
          "type": "uint256"
        }
      ],
      "name": "MessageSent",
      "type": "event"
    },
    {
      "anonymous": false,
      "inputs": [
        {
          "indexed": true,
          "internalType": "address",
          "name": "previousOwner",
          "type": "address"
        },
        {
          "indexed": true,
          "internalType": "address",
          "name": "newOwner",
          "type": "address"
        }
      ],
      "name": "OwnershipTransferred",
      "type": "event"
    },
    {
      "inputs": [],
      "name": "baseContractAddress",
      "outputs": [
        {
          "internalType": "address",
          "name": "",
          "type": "address"
        }
      ],
      "stateMutability": "view",
      "type": "function"
    },
    {
      "inputs": [],
      "name": "destinationChainSelector",
      "outputs": [
        {
          "internalType": "uint64",
          "name": "",
          "type": "uint64"
        }
      ],
      "stateMutability": "view",
      "type": "function"
    },
    {
      "inputs": [
        {
          "internalType": "uint256",
          "name": "id",
          "type": "uint256"
        }
      ],
      "name": "displayAd",
      "outputs": [
        {
          "components": [
            {
              "internalType": "string",
              "name": "adURI",
              "type": "string"
            },
            {
              "internalType": "string",
              "name": "dataURI",
              "type": "string"
            },
            {
              "internalType": "bytes32",
              "name": "signatureRoot",
              "type": "bytes32"
            },
            {
              "internalType": "bytes32",
              "name": "audienceRoot",
              "type": "bytes32"
            }
          ],
          "internalType": "struct IERCAd.Ad",
          "name": "",
          "type": "tuple"
        }
      ],
      "stateMutability": "view",
      "type": "function"
    },
    {
      "inputs": [],
      "name": "ercAdContract",
      "outputs": [
        {
          "internalType": "contract IERCAd",
          "name": "",
          "type": "address"
        }
      ],
      "stateMutability": "view",
      "type": "function"
    },
    {
      "inputs": [],
      "name": "linkToken",
      "outputs": [
        {
          "internalType": "contract IERC20",
          "name": "",
          "type": "address"
        }
      ],
      "stateMutability": "view",
      "type": "function"
    },
    {
      "inputs": [],
      "name": "owner",
      "outputs": [
        {
          "internalType": "address",
          "name": "",
          "type": "address"
        }
      ],
      "stateMutability": "view",
      "type": "function"
    },
    {
      "inputs": [],
      "name": "renounceOwnership",
      "outputs": [],
      "stateMutability": "nonpayable",
      "type": "function"
    },
    {
      "inputs": [],
      "name": "router",
      "outputs": [
        {
          "internalType": "contract IRouterClient",
          "name": "",
          "type": "address"
        }
      ],
      "stateMutability": "view",
      "type": "function"
    },
    {
      "inputs": [
        {
          "components": [
            {
              "internalType": "uint256",
              "name": "eth",
              "type": "uint256"
            },
            {
              "internalType": "uint256",
              "name": "link",
              "type": "uint256"
            }
          ],
          "internalType": "struct MehAdV2.CrossChainCapital",
          "name": "message",
          "type": "tuple"
        }
      ],
      "name": "sendMessage",
      "outputs": [
        {
          "internalType": "bytes32",
          "name": "messageId",
          "type": "bytes32"
        }
      ],
      "stateMutability": "nonpayable",
      "type": "function"
    },
    {
      "inputs": [
        {
          "internalType": "uint256",
          "name": "id",
          "type": "uint256"
        },
        {
          "internalType": "bytes32[]",
          "name": "proof",
          "type": "bytes32[]"
        }
      ],
      "name": "signAd",
      "outputs": [],
      "stateMutability": "nonpayable",
      "type": "function"
    },
    {
      "inputs": [
        {
          "internalType": "address",
          "name": "newOwner",
          "type": "address"
        }
      ],
      "name": "transferOwnership",
      "outputs": [],
      "stateMutability": "nonpayable",
      "type": "function"
    },
    {
      "inputs": [],
      "name": "withdrawEth",
      "outputs": [],
      "stateMutability": "nonpayable",
      "type": "function"
    },
    {
      "stateMutability": "payable",
      "type": "receive"
    }
  ],
  "bytecode": "0x60806040523480156200001157600080fd5b5060405162001bd038038062001bd083398181016040528101906200003791906200030a565b620000576200004b6200018f60201b60201c565b6200019760201b60201c565b84600160006101000a81548173ffffffffffffffffffffffffffffffffffffffff021916908373ffffffffffffffffffffffffffffffffffffffff16021790555083600260006101000a81548173ffffffffffffffffffffffffffffffffffffffff021916908373ffffffffffffffffffffffffffffffffffffffff16021790555082600360006101000a81548173ffffffffffffffffffffffffffffffffffffffff021916908373ffffffffffffffffffffffffffffffffffffffff16021790555081600460006101000a81548173ffffffffffffffffffffffffffffffffffffffff021916908373ffffffffffffffffffffffffffffffffffffffff16021790555080600460146101000a81548167ffffffffffffffff021916908367ffffffffffffffff160217905550505050505062000392565b600033905090565b60008060009054906101000a900473ffffffffffffffffffffffffffffffffffffffff169050816000806101000a81548173ffffffffffffffffffffffffffffffffffffffff021916908373ffffffffffffffffffffffffffffffffffffffff1602179055508173ffffffffffffffffffffffffffffffffffffffff168173ffffffffffffffffffffffffffffffffffffffff167f8be0079c531659141344cd1fd0a4f28419497f9722a3daafe3b4186f6b6457e060405160405180910390a35050565b600080fd5b600073ffffffffffffffffffffffffffffffffffffffff82169050919050565b60006200028d8262000260565b9050919050565b6200029f8162000280565b8114620002ab57600080fd5b50565b600081519050620002bf8162000294565b92915050565b600067ffffffffffffffff82169050919050565b620002e481620002c5565b8114620002f057600080fd5b50565b6000815190506200030481620002d9565b92915050565b600080600080600060a086880312156200032957620003286200025b565b5b60006200033988828901620002ae565b95505060206200034c88828901620002ae565b94505060406200035f88828901620002ae565b93505060606200037288828901620002ae565b92505060806200038588828901620002f3565b9150509295509295909350565b61182e80620003a26000396000f3fe6080604052600436106100ab5760003560e01c80638da5cb5b116100645780638da5cb5b146101c957806392b9d025146101f4578063a0ef91df1461021f578063f2fde38b14610236578063f887ea401461025f578063fe49e8331461028a576100b2565b806331db1ffc146100b75780635252d083146100e257806357970e931461011f5780635f1ca7011461014a578063672fb96914610175578063715018a6146101b2576100b2565b366100b257005b600080fd5b3480156100c357600080fd5b506100cc6102b3565b6040516100d99190610ba7565b60405180910390f35b3480156100ee57600080fd5b5061010960048036038101906101049190610cf2565b6102cd565b6040516101169190610d38565b60405180910390f35b34801561012b57600080fd5b50610134610596565b6040516101419190610dd2565b60405180910390f35b34801561015657600080fd5b5061015f6105bc565b60405161016c9190610e0e565b60405180910390f35b34801561018157600080fd5b5061019c60048036038101906101979190610e29565b6105e2565b6040516101a99190610f4e565b60405180910390f35b3480156101be57600080fd5b506101c7610692565b005b3480156101d557600080fd5b506101de6106a6565b6040516101eb9190610e0e565b60405180910390f35b34801561020057600080fd5b506102096106cf565b6040516102169190610f91565b60405180910390f35b34801561022b57600080fd5b506102346106f5565b005b34801561024257600080fd5b5061025d60048036038101906102589190610fd8565b610753565b005b34801561026b57600080fd5b506102746107d6565b6040516102819190611026565b60405180910390f35b34801561029657600080fd5b506102b160048036038101906102ac91906110a6565b6107fc565b005b600460149054906101000a900467ffffffffffffffff1681565b6000806040518060a00160405280600160009054906101000a900473ffffffffffffffffffffffffffffffffffffffff1660405160200161030e9190610e0e565b6040516020818303038152906040528152602001846040516020016103339190611144565b6040516020818303038152906040528152602001600067ffffffffffffffff81111561036257610361610bec565b5b60405190808252806020026020018201604052801561039b57816020015b610388610b26565b8152602001906001900390816103805790505b508152602001600073ffffffffffffffffffffffffffffffffffffffff1681526020016103d8604051806020016040528062061a8081525061095d565b81525090506000600260009054906101000a900473ffffffffffffffffffffffffffffffffffffffff1673ffffffffffffffffffffffffffffffffffffffff166320487ded600460149054906101000a900467ffffffffffffffff16846040518363ffffffff1660e01b815260040161045292919061132c565b602060405180830381865afa15801561046f573d6000803e3d6000fd5b505050506040513d601f19601f820116820180604052508101906104939190611371565b9050600260009054906101000a900473ffffffffffffffffffffffffffffffffffffffff1673ffffffffffffffffffffffffffffffffffffffff166396f4e9f982600460149054906101000a900467ffffffffffffffff16856040518463ffffffff1660e01b815260040161050992919061132c565b60206040518083038185885af1158015610527573d6000803e3d6000fd5b50505050506040513d601f19601f8201168201806040525081019061054c91906113ca565b92507fa1b6c39465f3228ad8bc71e80a4e6b6b4ff8c562238e799d97e47a5993a0415983338387602001516040516105879493929190611406565b60405180910390a15050919050565b600360009054906101000a900473ffffffffffffffffffffffffffffffffffffffff1681565b600160009054906101000a900473ffffffffffffffffffffffffffffffffffffffff1681565b6105ea610b56565b600460009054906101000a900473ffffffffffffffffffffffffffffffffffffffff1673ffffffffffffffffffffffffffffffffffffffff1663672fb969836040518263ffffffff1660e01b8152600401610645919061144b565b600060405180830381865afa158015610662573d6000803e3d6000fd5b505050506040513d6000823e3d601f19601f8201168201806040525081019061068b91906115bc565b9050919050565b61069a6109dc565b6106a46000610a5a565b565b60008060009054906101000a900473ffffffffffffffffffffffffffffffffffffffff16905090565b600460009054906101000a900473ffffffffffffffffffffffffffffffffffffffff1681565b6106fd6109dc565b600047905061070a6106a6565b73ffffffffffffffffffffffffffffffffffffffff166108fc829081150290604051600060405180830381858888f1935050505015801561074f573d6000803e3d6000fd5b5050565b61075b6109dc565b600073ffffffffffffffffffffffffffffffffffffffff168173ffffffffffffffffffffffffffffffffffffffff16036107ca576040517f08c379a00000000000000000000000000000000000000000000000000000000081526004016107c190611688565b60405180910390fd5b6107d381610a5a565b50565b600260009054906101000a900473ffffffffffffffffffffffffffffffffffffffff1681565b600460009054906101000a900473ffffffffffffffffffffffffffffffffffffffff1673ffffffffffffffffffffffffffffffffffffffff1663fe49e8338484846040518463ffffffff1660e01b815260040161085b93929190611723565b600060405180830381600087803b15801561087557600080fd5b505af1158015610889573d6000803e3d6000fd5b5050505060004790506000600360009054906101000a900473ffffffffffffffffffffffffffffffffffffffff1673ffffffffffffffffffffffffffffffffffffffff166370a08231336040518263ffffffff1660e01b81526004016108ef9190610e0e565b602060405180830381865afa15801561090c573d6000803e3d6000fd5b505050506040513d601f19601f820116820180604052508101906109309190611371565b905060006040518060400160405280848152602001838152509050610954816102cd565b50505050505050565b60606397a657c960e01b826040516024016109789190611771565b604051602081830303815290604052907bffffffffffffffffffffffffffffffffffffffffffffffffffffffff19166020820180517bffffffffffffffffffffffffffffffffffffffffffffffffffffffff83818316178352505050509050919050565b6109e4610b1e565b73ffffffffffffffffffffffffffffffffffffffff16610a026106a6565b73ffffffffffffffffffffffffffffffffffffffff1614610a58576040517f08c379a0000000000000000000000000000000000000000000000000000000008152600401610a4f906117d8565b60405180910390fd5b565b60008060009054906101000a900473ffffffffffffffffffffffffffffffffffffffff169050816000806101000a81548173ffffffffffffffffffffffffffffffffffffffff021916908373ffffffffffffffffffffffffffffffffffffffff1602179055508173ffffffffffffffffffffffffffffffffffffffff168173ffffffffffffffffffffffffffffffffffffffff167f8be0079c531659141344cd1fd0a4f28419497f9722a3daafe3b4186f6b6457e060405160405180910390a35050565b600033905090565b6040518060400160405280600073ffffffffffffffffffffffffffffffffffffffff168152602001600081525090565b6040518060800160405280606081526020016060815260200160008019168152602001600080191681525090565b600067ffffffffffffffff82169050919050565b610ba181610b84565b82525050565b6000602082019050610bbc6000830184610b98565b92915050565b6000604051905090565b600080fd5b600080fd5b600080fd5b6000601f19601f8301169050919050565b7f4e487b7100000000000000000000000000000000000000000000000000000000600052604160045260246000fd5b610c2482610bdb565b810181811067ffffffffffffffff82111715610c4357610c42610bec565b5b80604052505050565b6000610c56610bc2565b9050610c628282610c1b565b919050565b600080fd5b6000819050919050565b610c7f81610c6c565b8114610c8a57600080fd5b50565b600081359050610c9c81610c76565b92915050565b600060408284031215610cb857610cb7610bd6565b5b610cc26040610c4c565b90506000610cd284828501610c8d565b6000830152506020610ce684828501610c8d565b60208301525092915050565b600060408284031215610d0857610d07610bcc565b5b6000610d1684828501610ca2565b91505092915050565b6000819050919050565b610d3281610d1f565b82525050565b6000602082019050610d4d6000830184610d29565b92915050565b600073ffffffffffffffffffffffffffffffffffffffff82169050919050565b6000819050919050565b6000610d98610d93610d8e84610d53565b610d73565b610d53565b9050919050565b6000610daa82610d7d565b9050919050565b6000610dbc82610d9f565b9050919050565b610dcc81610db1565b82525050565b6000602082019050610de76000830184610dc3565b92915050565b6000610df882610d53565b9050919050565b610e0881610ded565b82525050565b6000602082019050610e236000830184610dff565b92915050565b600060208284031215610e3f57610e3e610bcc565b5b6000610e4d84828501610c8d565b91505092915050565b600081519050919050565b600082825260208201905092915050565b60005b83811015610e90578082015181840152602081019050610e75565b60008484015250505050565b6000610ea782610e56565b610eb18185610e61565b9350610ec1818560208601610e72565b610eca81610bdb565b840191505092915050565b610ede81610d1f565b82525050565b60006080830160008301518482036000860152610f018282610e9c565b91505060208301518482036020860152610f1b8282610e9c565b9150506040830151610f306040860182610ed5565b506060830151610f436060860182610ed5565b508091505092915050565b60006020820190508181036000830152610f688184610ee4565b905092915050565b6000610f7b82610d9f565b9050919050565b610f8b81610f70565b82525050565b6000602082019050610fa66000830184610f82565b92915050565b610fb581610ded565b8114610fc057600080fd5b50565b600081359050610fd281610fac565b92915050565b600060208284031215610fee57610fed610bcc565b5b6000610ffc84828501610fc3565b91505092915050565b600061101082610d9f565b9050919050565b61102081611005565b82525050565b600060208201905061103b6000830184611017565b92915050565b600080fd5b600080fd5b600080fd5b60008083601f84011261106657611065611041565b5b8235905067ffffffffffffffff81111561108357611082611046565b5b60208301915083602082028301111561109f5761109e61104b565b5b9250929050565b6000806000604084860312156110bf576110be610bcc565b5b60006110cd86828701610c8d565b935050602084013567ffffffffffffffff8111156110ee576110ed610bd1565b5b6110fa86828701611050565b92509250509250925092565b61110f81610c6c565b82525050565b60408201600082015161112b6000850182611106565b50602082015161113e6020850182611106565b50505050565b60006040820190506111596000830184611115565b92915050565b600081519050919050565b600082825260208201905092915050565b60006111868261115f565b611190818561116a565b93506111a0818560208601610e72565b6111a981610bdb565b840191505092915050565b600081519050919050565b600082825260208201905092915050565b6000819050602082019050919050565b6111e981610ded565b82525050565b60408201600082015161120560008501826111e0565b5060208201516112186020850182611106565b50505050565b600061122a83836111ef565b60408301905092915050565b6000602082019050919050565b600061124e826111b4565b61125881856111bf565b9350611263836111d0565b8060005b8381101561129457815161127b888261121e565b975061128683611236565b925050600181019050611267565b5085935050505092915050565b600060a08301600083015184820360008601526112be828261117b565b915050602083015184820360208601526112d8828261117b565b915050604083015184820360408601526112f28282611243565b915050606083015161130760608601826111e0565b506080830151848203608086015261131f828261117b565b9150508091505092915050565b60006040820190506113416000830185610b98565b818103602083015261135381846112a1565b90509392505050565b60008151905061136b81610c76565b92915050565b60006020828403121561138757611386610bcc565b5b60006113958482850161135c565b91505092915050565b6113a781610d1f565b81146113b257600080fd5b50565b6000815190506113c48161139e565b92915050565b6000602082840312156113e0576113df610bcc565b5b60006113ee848285016113b5565b91505092915050565b61140081610c6c565b82525050565b600060808201905061141b6000830187610d29565b6114286020830186610dff565b61143560408301856113f7565b61144260608301846113f7565b95945050505050565b600060208201905061146060008301846113f7565b92915050565b600080fd5b600067ffffffffffffffff82111561148657611485610bec565b5b61148f82610bdb565b9050602081019050919050565b60006114af6114aa8461146b565b610c4c565b9050828152602081018484840111156114cb576114ca611466565b5b6114d6848285610e72565b509392505050565b600082601f8301126114f3576114f2611041565b5b815161150384826020860161149c565b91505092915050565b60006080828403121561152257611521610bd6565b5b61152c6080610c4c565b9050600082015167ffffffffffffffff81111561154c5761154b610c67565b5b611558848285016114de565b600083015250602082015167ffffffffffffffff81111561157c5761157b610c67565b5b611588848285016114de565b602083015250604061159c848285016113b5565b60408301525060606115b0848285016113b5565b60608301525092915050565b6000602082840312156115d2576115d1610bcc565b5b600082015167ffffffffffffffff8111156115f0576115ef610bd1565b5b6115fc8482850161150c565b91505092915050565b600082825260208201905092915050565b7f4f776e61626c653a206e6577206f776e657220697320746865207a65726f206160008201527f6464726573730000000000000000000000000000000000000000000000000000602082015250565b6000611672602683611605565b915061167d82611616565b604082019050919050565b600060208201905081810360008301526116a181611665565b9050919050565b600082825260208201905092915050565b600080fd5b82818337505050565b60006116d383856116a8565b93507f07ffffffffffffffffffffffffffffffffffffffffffffffffffffffffffffff831115611706576117056116b9565b5b6020830292506117178385846116be565b82840190509392505050565b600060408201905061173860008301866113f7565b818103602083015261174b8184866116c7565b9050949350505050565b60208201600082015161176b6000850182611106565b50505050565b60006020820190506117866000830184611755565b92915050565b7f4f776e61626c653a2063616c6c6572206973206e6f7420746865206f776e6572600082015250565b60006117c2602083611605565b91506117cd8261178c565b602082019050919050565b600060208201905081810360008301526117f1816117b5565b905091905056fea26469706673582212200f220fc767685535df1a04dc9dd2343d3e5242dc76367ab673b6ccd659c469a964736f6c63430008180033",
  "linkReferences": {},
  "deployedLinkReferences": {}
}