{
  "_format": "hh-sol-artifact-1",
  "contractName": "MehAdV2",
  "sourceName": "contracts/MehAdV2.sol",
  "abi": [
    {
      "inputs": [
        {
          "internalType": "address",
          "name": "_mainnetContractAddress",
          "type": "address"
        },
        {
          "internalType": "address",
          "name": "_router",
          "type": "address"
        },
        {
          "internalType": "address",
          "name": "_linkToken",
          "type": "address"
        },
        {
          "internalType": "address",
          "name": "mehTokenAddress",
          "type": "address"
        }
      ],
      "stateMutability": "nonpayable",
      "type": "constructor"
    },
    {
      "inputs": [
        {
          "internalType": "address",
          "name": "router",
          "type": "address"
        }
      ],
      "name": "InvalidRouter",
      "type": "error"
    },
    {
      "anonymous": false,
      "inputs": [
        {
          "indexed": false,
          "internalType": "bytes32",
          "name": "messageId",
          "type": "bytes32"
        },
        {
          "indexed": false,
          "internalType": "uint64",
          "name": "sourceChainSelector",
          "type": "uint64"
        },
        {
          "indexed": false,
          "internalType": "address",
          "name": "sender",
          "type": "address"
        },
        {
          "indexed": false,
          "internalType": "uint256",
          "name": "balance",
          "type": "uint256"
        }
      ],
      "name": "MessageReceived",
      "type": "event"
    },
    {
      "anonymous": false,
      "inputs": [
        {
          "indexed": false,
          "internalType": "bytes32",
          "name": "messageId",
          "type": "bytes32"
        }
      ],
      "name": "MessageSent",
      "type": "event"
    },
    {
      "inputs": [
        {
          "components": [
            {
              "internalType": "bytes32",
              "name": "messageId",
              "type": "bytes32"
            },
            {
              "internalType": "uint64",
              "name": "sourceChainSelector",
              "type": "uint64"
            },
            {
              "internalType": "bytes",
              "name": "sender",
              "type": "bytes"
            },
            {
              "internalType": "bytes",
              "name": "data",
              "type": "bytes"
            },
            {
              "components": [
                {
                  "internalType": "address",
                  "name": "token",
                  "type": "address"
                },
                {
                  "internalType": "uint256",
                  "name": "amount",
                  "type": "uint256"
                }
              ],
              "internalType": "struct Client.EVMTokenAmount[]",
              "name": "destTokenAmounts",
              "type": "tuple[]"
            }
          ],
          "internalType": "struct Client.Any2EVMMessage",
          "name": "message",
          "type": "tuple"
        }
      ],
      "name": "ccipReceive",
      "outputs": [],
      "stateMutability": "nonpayable",
      "type": "function"
    },
    {
      "inputs": [],
      "name": "getLinkBalance",
      "outputs": [],
      "stateMutability": "nonpayable",
      "type": "function"
    },
    {
      "inputs": [],
      "name": "getRouter",
      "outputs": [
        {
          "internalType": "address",
          "name": "",
          "type": "address"
        }
      ],
      "stateMutability": "view",
      "type": "function"
    },
    {
      "inputs": [
        {
          "internalType": "address",
          "name": "",
          "type": "address"
        }
      ],
      "name": "hasSigned",
      "outputs": [
        {
          "internalType": "bool",
          "name": "",
          "type": "bool"
        }
      ],
      "stateMutability": "view",
      "type": "function"
    },
    {
      "inputs": [],
      "name": "linkToken",
      "outputs": [
        {
          "internalType": "address",
          "name": "",
          "type": "address"
        }
      ],
      "stateMutability": "view",
      "type": "function"
    },
    {
      "inputs": [],
      "name": "mainnetContractAddress",
      "outputs": [
        {
          "internalType": "address",
          "name": "",
          "type": "address"
        }
      ],
      "stateMutability": "view",
      "type": "function"
    },
    {
      "inputs": [],
      "name": "mehToken",
      "outputs": [
        {
          "internalType": "contract IERC20",
          "name": "",
          "type": "address"
        }
      ],
      "stateMutability": "view",
      "type": "function"
    },
    {
      "inputs": [],
      "name": "router",
      "outputs": [
        {
          "internalType": "contract IRouterClient",
          "name": "",
          "type": "address"
        }
      ],
      "stateMutability": "view",
      "type": "function"
    },
    {
      "inputs": [
        {
          "internalType": "bytes4",
          "name": "interfaceId",
          "type": "bytes4"
        }
      ],
      "name": "supportsInterface",
      "outputs": [
        {
          "internalType": "bool",
          "name": "",
          "type": "bool"
        }
      ],
      "stateMutability": "pure",
      "type": "function"
    }
  ],
  "bytecode": "0x60a06040523480156200001157600080fd5b506040516200175638038062001756833981810160405281019062000037919062000259565b82600073ffffffffffffffffffffffffffffffffffffffff168173ffffffffffffffffffffffffffffffffffffffff1603620000ad5760006040517fd7f73334000000000000000000000000000000000000000000000000000000008152600401620000a49190620002dc565b60405180910390fd5b8073ffffffffffffffffffffffffffffffffffffffff1660808173ffffffffffffffffffffffffffffffffffffffff16815250505083600260006101000a81548173ffffffffffffffffffffffffffffffffffffffff021916908373ffffffffffffffffffffffffffffffffffffffff16021790555082600360006101000a81548173ffffffffffffffffffffffffffffffffffffffff021916908373ffffffffffffffffffffffffffffffffffffffff16021790555081600460006101000a81548173ffffffffffffffffffffffffffffffffffffffff021916908373ffffffffffffffffffffffffffffffffffffffff160217905550806000806101000a81548173ffffffffffffffffffffffffffffffffffffffff021916908373ffffffffffffffffffffffffffffffffffffffff16021790555050505050620002f9565b600080fd5b600073ffffffffffffffffffffffffffffffffffffffff82169050919050565b60006200022182620001f4565b9050919050565b620002338162000214565b81146200023f57600080fd5b50565b600081519050620002538162000228565b92915050565b60008060008060808587031215620002765762000275620001ef565b5b6000620002868782880162000242565b9450506020620002998782880162000242565b9350506040620002ac8782880162000242565b9250506060620002bf8782880162000242565b91505092959194509250565b620002d68162000214565b82525050565b6000602082019050620002f36000830184620002cb565b92915050565b60805161143a6200031c600039600081816105a6015261064d015261143a6000f3fe608060405234801561001057600080fd5b50600436106100935760003560e01c8063b0f479a111610066578063b0f479a11461010c578063bf6a14131461012a578063c62693891461015a578063e2c2c88414610178578063f887ea401461019657610093565b806301ffc9a71461009857806350c5f975146100c857806357970e93146100d257806385572ffb146100f0575b600080fd5b6100b260048036038101906100ad91906108f0565b6101b4565b6040516100bf9190610938565b60405180910390f35b6100d0610286565b005b6100da61057e565b6040516100e79190610994565b60405180910390f35b61010a600480360381019061010591906109d3565b6105a4565b005b610114610649565b6040516101219190610994565b60405180910390f35b610144600480360381019061013f9190610a48565b610671565b6040516101519190610938565b60405180910390f35b610162610691565b60405161016f9190610994565b60405180910390f35b6101806106b7565b60405161018d9190610ad4565b60405180910390f35b61019e6106db565b6040516101ab9190610b10565b60405180910390f35b60007f85572ffb000000000000000000000000000000000000000000000000000000007bffffffffffffffffffffffffffffffffffffffffffffffffffffffff1916827bffffffffffffffffffffffffffffffffffffffffffffffffffffffff1916148061027f57507f01ffc9a7000000000000000000000000000000000000000000000000000000007bffffffffffffffffffffffffffffffffffffffffffffffffffffffff1916827bffffffffffffffffffffffffffffffffffffffffffffffffffffffff1916145b9050919050565b60006040516024016040516020818303038152906040527f50c5f975000000000000000000000000000000000000000000000000000000007bffffffffffffffffffffffffffffffffffffffffffffffffffffffff19166020820180517bffffffffffffffffffffffffffffffffffffffffffffffffffffffff8381831617835250505050905060008067ffffffffffffffff81111561032957610328610b2b565b5b60405190808252806020026020018201604052801561036257816020015b61034f610854565b8152602001906001900390816103475790505b50905060006040518060a00160405280600260009054906101000a900473ffffffffffffffffffffffffffffffffffffffff166040516020016103a59190610994565b6040516020818303038152906040528152602001848152602001838152602001600073ffffffffffffffffffffffffffffffffffffffff1681526020016040518060200160405280600081525081525090506000600360009054906101000a900473ffffffffffffffffffffffffffffffffffffffff1673ffffffffffffffffffffffffffffffffffffffff166320487ded6000846040518363ffffffff1660e01b8152600401610457929190610dca565b602060405180830381865afa158015610474573d6000803e3d6000fd5b505050506040513d601f19601f820116820180604052508101906104989190610e26565b90506000600360009054906101000a900473ffffffffffffffffffffffffffffffffffffffff1673ffffffffffffffffffffffffffffffffffffffff166396f4e9f9836000866040518463ffffffff1660e01b81526004016104fb929190610dca565b60206040518083038185885af1158015610519573d6000803e3d6000fd5b50505050506040513d601f19601f8201168201806040525081019061053e9190610e89565b90507f54791b38f3859327992a1ca0590ad3c0f08feba98d1a4f56ab0dca74d203392a8160405161056f9190610ec5565b60405180910390a15050505050565b600460009054906101000a900473ffffffffffffffffffffffffffffffffffffffff1681565b7f000000000000000000000000000000000000000000000000000000000000000073ffffffffffffffffffffffffffffffffffffffff163373ffffffffffffffffffffffffffffffffffffffff161461063457336040517fd7f7333400000000000000000000000000000000000000000000000000000000815260040161062b9190610994565b60405180910390fd5b610646816106419061123e565b610701565b50565b60007f0000000000000000000000000000000000000000000000000000000000000000905090565b60016020528060005260406000206000915054906101000a900460ff1681565b600260009054906101000a900473ffffffffffffffffffffffffffffffffffffffff1681565b60008054906101000a900473ffffffffffffffffffffffffffffffffffffffff1681565b600360009054906101000a900473ffffffffffffffffffffffffffffffffffffffff1681565b6000816060015180602001905181019061071b9190610e26565b905060008260400151806020019051810190610737919061128f565b905060006969e10de76676d08000009050600183111561076a576934f086f3b33b684000008161076791906112eb565b90505b60008054906101000a900473ffffffffffffffffffffffffffffffffffffffff1673ffffffffffffffffffffffffffffffffffffffff1663a9059cbb33836040518363ffffffff1660e01b81526004016107c592919061132e565b6020604051808303816000875af11580156107e4573d6000803e3d6000fd5b505050506040513d601f19601f820116820180604052508101906108089190611383565b507f9e0cedd023f625fb8db19f2eb903c24aa1a45f05fd9ef9431a80505ad65e30fe84600001518560200151848660405161084694939291906113bf565b60405180910390a150505050565b6040518060400160405280600073ffffffffffffffffffffffffffffffffffffffff168152602001600081525090565b6000604051905090565b600080fd5b600080fd5b60007fffffffff0000000000000000000000000000000000000000000000000000000082169050919050565b6108cd81610898565b81146108d857600080fd5b50565b6000813590506108ea816108c4565b92915050565b6000602082840312156109065761090561088e565b5b6000610914848285016108db565b91505092915050565b60008115159050919050565b6109328161091d565b82525050565b600060208201905061094d6000830184610929565b92915050565b600073ffffffffffffffffffffffffffffffffffffffff82169050919050565b600061097e82610953565b9050919050565b61098e81610973565b82525050565b60006020820190506109a96000830184610985565b92915050565b600080fd5b600060a082840312156109ca576109c96109af565b5b81905092915050565b6000602082840312156109e9576109e861088e565b5b600082013567ffffffffffffffff811115610a0757610a06610893565b5b610a13848285016109b4565b91505092915050565b610a2581610973565b8114610a3057600080fd5b50565b600081359050610a4281610a1c565b92915050565b600060208284031215610a5e57610a5d61088e565b5b6000610a6c84828501610a33565b91505092915050565b6000819050919050565b6000610a9a610a95610a9084610953565b610a75565b610953565b9050919050565b6000610aac82610a7f565b9050919050565b6000610abe82610aa1565b9050919050565b610ace81610ab3565b82525050565b6000602082019050610ae96000830184610ac5565b92915050565b6000610afa82610aa1565b9050919050565b610b0a81610aef565b82525050565b6000602082019050610b256000830184610b01565b92915050565b7f4e487b7100000000000000000000000000000000000000000000000000000000600052604160045260246000fd5b6000819050919050565b600067ffffffffffffffff82169050919050565b6000610b93610b8e610b8984610b5a565b610a75565b610b64565b9050919050565b610ba381610b78565b82525050565b600081519050919050565b600082825260208201905092915050565b60005b83811015610be3578082015181840152602081019050610bc8565b60008484015250505050565b6000601f19601f8301169050919050565b6000610c0b82610ba9565b610c158185610bb4565b9350610c25818560208601610bc5565b610c2e81610bef565b840191505092915050565b600081519050919050565b600082825260208201905092915050565b6000819050602082019050919050565b610c6e81610973565b82525050565b6000819050919050565b610c8781610c74565b82525050565b604082016000820151610ca36000850182610c65565b506020820151610cb66020850182610c7e565b50505050565b6000610cc88383610c8d565b60408301905092915050565b6000602082019050919050565b6000610cec82610c39565b610cf68185610c44565b9350610d0183610c55565b8060005b83811015610d32578151610d198882610cbc565b9750610d2483610cd4565b925050600181019050610d05565b5085935050505092915050565b600060a0830160008301518482036000860152610d5c8282610c00565b91505060208301518482036020860152610d768282610c00565b91505060408301518482036040860152610d908282610ce1565b9150506060830151610da56060860182610c65565b5060808301518482036080860152610dbd8282610c00565b9150508091505092915050565b6000604082019050610ddf6000830185610b9a565b8181036020830152610df18184610d3f565b90509392505050565b610e0381610c74565b8114610e0e57600080fd5b50565b600081519050610e2081610dfa565b92915050565b600060208284031215610e3c57610e3b61088e565b5b6000610e4a84828501610e11565b91505092915050565b6000819050919050565b610e6681610e53565b8114610e7157600080fd5b50565b600081519050610e8381610e5d565b92915050565b600060208284031215610e9f57610e9e61088e565b5b6000610ead84828501610e74565b91505092915050565b610ebf81610e53565b82525050565b6000602082019050610eda6000830184610eb6565b92915050565b600080fd5b610eee82610bef565b810181811067ffffffffffffffff82111715610f0d57610f0c610b2b565b5b80604052505050565b6000610f20610884565b9050610f2c8282610ee5565b919050565b600080fd5b600081359050610f4581610e5d565b92915050565b610f5481610b64565b8114610f5f57600080fd5b50565b600081359050610f7181610f4b565b92915050565b600080fd5b600080fd5b600067ffffffffffffffff821115610f9c57610f9b610b2b565b5b610fa582610bef565b9050602081019050919050565b82818337600083830152505050565b6000610fd4610fcf84610f81565b610f16565b905082815260208101848484011115610ff057610fef610f7c565b5b610ffb848285610fb2565b509392505050565b600082601f83011261101857611017610f77565b5b8135611028848260208601610fc1565b91505092915050565b600067ffffffffffffffff82111561104c5761104b610b2b565b5b602082029050602081019050919050565b600080fd5b60008135905061107181610dfa565b92915050565b60006040828403121561108d5761108c610ee0565b5b6110976040610f16565b905060006110a784828501610a33565b60008301525060206110bb84828501611062565b60208301525092915050565b60006110da6110d584611031565b610f16565b905080838252602082019050604084028301858111156110fd576110fc61105d565b5b835b8181101561112657806111128882611077565b8452602084019350506040810190506110ff565b5050509392505050565b600082601f83011261114557611144610f77565b5b81356111558482602086016110c7565b91505092915050565b600060a0828403121561117457611173610ee0565b5b61117e60a0610f16565b9050600061118e84828501610f36565b60008301525060206111a284828501610f62565b602083015250604082013567ffffffffffffffff8111156111c6576111c5610f31565b5b6111d284828501611003565b604083015250606082013567ffffffffffffffff8111156111f6576111f5610f31565b5b61120284828501611003565b606083015250608082013567ffffffffffffffff81111561122657611225610f31565b5b61123284828501611130565b60808301525092915050565b600061124a368361115e565b9050919050565b600061125c82610953565b9050919050565b61126c81611251565b811461127757600080fd5b50565b60008151905061128981611263565b92915050565b6000602082840312156112a5576112a461088e565b5b60006112b38482850161127a565b91505092915050565b7f4e487b7100000000000000000000000000000000000000000000000000000000600052601160045260246000fd5b60006112f682610c74565b915061130183610c74565b9250828201905080821115611319576113186112bc565b5b92915050565b61132881610c74565b82525050565b60006040820190506113436000830185610985565b611350602083018461131f565b9392505050565b6113608161091d565b811461136b57600080fd5b50565b60008151905061137d81611357565b92915050565b6000602082840312156113995761139861088e565b5b60006113a78482850161136e565b91505092915050565b6113b981610b64565b82525050565b60006080820190506113d46000830187610eb6565b6113e160208301866113b0565b6113ee6040830185610985565b6113fb606083018461131f565b9594505050505056fea26469706673582212203e41698282d47b296ebe6e73bb9f29e26819e9e85e81ff1cb3e47171cb0bee0064736f6c63430008180033",
  "linkReferences": {},
  "deployedLinkReferences": {}
}