{
  "_format": "hh-sol-artifact-1",
  "contractName": "MehAdV2",
  "sourceName": "contracts/MehAdV2.sol",
  "abi": [
    {
      "inputs": [
        {
          "internalType": "address",
          "name": "_mainnetContractAddress",
          "type": "address"
        },
        {
          "internalType": "address",
          "name": "_router",
          "type": "address"
        },
        {
          "internalType": "address",
          "name": "_linkToken",
          "type": "address"
        },
        {
          "internalType": "address",
          "name": "_mehTokenAddress",
          "type": "address"
        },
        {
          "internalType": "address",
          "name": "_ercAdAddress",
          "type": "address"
        }
      ],
      "stateMutability": "nonpayable",
      "type": "constructor"
    },
    {
      "inputs": [
        {
          "internalType": "address",
          "name": "router",
          "type": "address"
        }
      ],
      "name": "InvalidRouter",
      "type": "error"
    },
    {
      "anonymous": false,
      "inputs": [
        {
          "indexed": false,
          "internalType": "bytes32",
          "name": "messageId",
          "type": "bytes32"
        },
        {
          "indexed": false,
          "internalType": "uint64",
          "name": "sourceChainSelector",
          "type": "uint64"
        },
        {
          "indexed": false,
          "internalType": "address",
          "name": "sender",
          "type": "address"
        },
        {
          "indexed": false,
          "internalType": "uint256",
          "name": "balance",
          "type": "uint256"
        }
      ],
      "name": "MessageReceived",
      "type": "event"
    },
    {
      "anonymous": false,
      "inputs": [
        {
          "indexed": false,
          "internalType": "bytes32",
          "name": "messageId",
          "type": "bytes32"
        }
      ],
      "name": "MessageSent",
      "type": "event"
    },
    {
      "inputs": [
        {
          "components": [
            {
              "internalType": "bytes32",
              "name": "messageId",
              "type": "bytes32"
            },
            {
              "internalType": "uint64",
              "name": "sourceChainSelector",
              "type": "uint64"
            },
            {
              "internalType": "bytes",
              "name": "sender",
              "type": "bytes"
            },
            {
              "internalType": "bytes",
              "name": "data",
              "type": "bytes"
            },
            {
              "components": [
                {
                  "internalType": "address",
                  "name": "token",
                  "type": "address"
                },
                {
                  "internalType": "uint256",
                  "name": "amount",
                  "type": "uint256"
                }
              ],
              "internalType": "struct Client.EVMTokenAmount[]",
              "name": "destTokenAmounts",
              "type": "tuple[]"
            }
          ],
          "internalType": "struct Client.Any2EVMMessage",
          "name": "message",
          "type": "tuple"
        }
      ],
      "name": "ccipReceive",
      "outputs": [],
      "stateMutability": "nonpayable",
      "type": "function"
    },
    {
      "inputs": [
        {
          "internalType": "uint256",
          "name": "id",
          "type": "uint256"
        }
      ],
      "name": "displayAd",
      "outputs": [
        {
          "components": [
            {
              "internalType": "string",
              "name": "adURI",
              "type": "string"
            },
            {
              "internalType": "string",
              "name": "dataURI",
              "type": "string"
            },
            {
              "internalType": "bytes32",
              "name": "signatureRoot",
              "type": "bytes32"
            },
            {
              "internalType": "bytes32",
              "name": "audienceRoot",
              "type": "bytes32"
            }
          ],
          "internalType": "struct IERCAd.Ad",
          "name": "",
          "type": "tuple"
        }
      ],
      "stateMutability": "view",
      "type": "function"
    },
    {
      "inputs": [],
      "name": "ercAdContract",
      "outputs": [
        {
          "internalType": "contract IERCAd",
          "name": "",
          "type": "address"
        }
      ],
      "stateMutability": "view",
      "type": "function"
    },
    {
      "inputs": [],
      "name": "getLinkBalance",
      "outputs": [],
      "stateMutability": "nonpayable",
      "type": "function"
    },
    {
      "inputs": [],
      "name": "getRouter",
      "outputs": [
        {
          "internalType": "address",
          "name": "",
          "type": "address"
        }
      ],
      "stateMutability": "view",
      "type": "function"
    },
    {
      "inputs": [
        {
          "internalType": "address",
          "name": "",
          "type": "address"
        }
      ],
      "name": "hasSigned",
      "outputs": [
        {
          "internalType": "bool",
          "name": "",
          "type": "bool"
        }
      ],
      "stateMutability": "view",
      "type": "function"
    },
    {
      "inputs": [
        {
          "internalType": "uint256",
          "name": "id",
          "type": "uint256"
        },
        {
          "internalType": "bytes32[]",
          "name": "proof",
          "type": "bytes32[]"
        }
      ],
      "name": "hasSignedAd",
      "outputs": [
        {
          "internalType": "bool",
          "name": "",
          "type": "bool"
        }
      ],
      "stateMutability": "view",
      "type": "function"
    },
    {
      "inputs": [],
      "name": "linkToken",
      "outputs": [
        {
          "internalType": "address",
          "name": "",
          "type": "address"
        }
      ],
      "stateMutability": "view",
      "type": "function"
    },
    {
      "inputs": [],
      "name": "mainnetContractAddress",
      "outputs": [
        {
          "internalType": "address",
          "name": "",
          "type": "address"
        }
      ],
      "stateMutability": "view",
      "type": "function"
    },
    {
      "inputs": [],
      "name": "mehToken",
      "outputs": [
        {
          "internalType": "contract IERC20",
          "name": "",
          "type": "address"
        }
      ],
      "stateMutability": "view",
      "type": "function"
    },
    {
      "inputs": [],
      "name": "router",
      "outputs": [
        {
          "internalType": "contract IRouterClient",
          "name": "",
          "type": "address"
        }
      ],
      "stateMutability": "view",
      "type": "function"
    },
    {
      "inputs": [
        {
          "internalType": "uint256",
          "name": "id",
          "type": "uint256"
        },
        {
          "internalType": "bytes32[]",
          "name": "proof",
          "type": "bytes32[]"
        }
      ],
      "name": "signAd",
      "outputs": [],
      "stateMutability": "nonpayable",
      "type": "function"
    },
    {
      "inputs": [
        {
          "internalType": "bytes4",
          "name": "interfaceId",
          "type": "bytes4"
        }
      ],
      "name": "supportsInterface",
      "outputs": [
        {
          "internalType": "bool",
          "name": "",
          "type": "bool"
        }
      ],
      "stateMutability": "pure",
      "type": "function"
    }
  ],
  "bytecode": "0x60a06040523480156200001157600080fd5b5060405162001f3f38038062001f3f83398181016040528101906200003791906200029b565b83600073ffffffffffffffffffffffffffffffffffffffff168173ffffffffffffffffffffffffffffffffffffffff1603620000ad5760006040517fd7f73334000000000000000000000000000000000000000000000000000000008152600401620000a4919062000334565b60405180910390fd5b8073ffffffffffffffffffffffffffffffffffffffff1660808173ffffffffffffffffffffffffffffffffffffffff16815250505084600260006101000a81548173ffffffffffffffffffffffffffffffffffffffff021916908373ffffffffffffffffffffffffffffffffffffffff16021790555083600360006101000a81548173ffffffffffffffffffffffffffffffffffffffff021916908373ffffffffffffffffffffffffffffffffffffffff16021790555082600460006101000a81548173ffffffffffffffffffffffffffffffffffffffff021916908373ffffffffffffffffffffffffffffffffffffffff160217905550816000806101000a81548173ffffffffffffffffffffffffffffffffffffffff021916908373ffffffffffffffffffffffffffffffffffffffff16021790555080600560006101000a81548173ffffffffffffffffffffffffffffffffffffffff021916908373ffffffffffffffffffffffffffffffffffffffff160217905550505050505062000351565b600080fd5b600073ffffffffffffffffffffffffffffffffffffffff82169050919050565b6000620002638262000236565b9050919050565b620002758162000256565b81146200028157600080fd5b50565b60008151905062000295816200026a565b92915050565b600080600080600060a08688031215620002ba57620002b962000231565b5b6000620002ca8882890162000284565b9550506020620002dd8882890162000284565b9450506040620002f08882890162000284565b9350506060620003038882890162000284565b9250506080620003168882890162000284565b9150509295509295909350565b6200032e8162000256565b82525050565b60006020820190506200034b600083018462000323565b92915050565b608051611bcb620003746000396000818161072c01526108a40152611bcb6000f3fe608060405234801561001057600080fd5b50600436106100cf5760003560e01c806392b9d0251161008c578063c626938911610066578063c626938914610214578063e2c2c88414610232578063f887ea4014610250578063fe49e8331461026e576100cf565b806392b9d025146101a8578063b0f479a1146101c6578063bf6a1413146101e4576100cf565b806301ffc9a7146100d457806350c5f9751461010457806357970e931461010e578063672fb9691461012c57806385572ffb1461015c5780638b4d9eb914610178575b600080fd5b6100ee60048036038101906100e99190610c0b565b61028a565b6040516100fb9190610c53565b60405180910390f35b61010c61035c565b005b610116610654565b6040516101239190610caf565b60405180910390f35b61014660048036038101906101419190610d00565b61067a565b6040516101539190610e40565b60405180910390f35b61017660048036038101906101719190610e86565b61072a565b005b610192600480360381019061018d9190610f34565b6107cf565b60405161019f9190610c53565b60405180910390f35b6101b061087a565b6040516101bd9190610ff3565b60405180910390f35b6101ce6108a0565b6040516101db9190610caf565b60405180910390f35b6101fe60048036038101906101f9919061103a565b6108c8565b60405161020b9190610c53565b60405180910390f35b61021c6108e8565b6040516102299190610caf565b60405180910390f35b61023a61090e565b6040516102479190611088565b60405180910390f35b610258610932565b60405161026591906110c4565b60405180910390f35b61028860048036038101906102839190610f34565b610958565b005b60007f85572ffb000000000000000000000000000000000000000000000000000000007bffffffffffffffffffffffffffffffffffffffffffffffffffffffff1916827bffffffffffffffffffffffffffffffffffffffffffffffffffffffff1916148061035557507f01ffc9a7000000000000000000000000000000000000000000000000000000007bffffffffffffffffffffffffffffffffffffffffffffffffffffffff1916827bffffffffffffffffffffffffffffffffffffffffffffffffffffffff1916145b9050919050565b60006040516024016040516020818303038152906040527f50c5f975000000000000000000000000000000000000000000000000000000007bffffffffffffffffffffffffffffffffffffffffffffffffffffffff19166020820180517bffffffffffffffffffffffffffffffffffffffffffffffffffffffff8381831617835250505050905060008067ffffffffffffffff8111156103ff576103fe6110df565b5b60405190808252806020026020018201604052801561043857816020015b610425610b41565b81526020019060019003908161041d5790505b50905060006040518060a00160405280600260009054906101000a900473ffffffffffffffffffffffffffffffffffffffff1660405160200161047b9190610caf565b6040516020818303038152906040528152602001848152602001838152602001600073ffffffffffffffffffffffffffffffffffffffff1681526020016040518060200160405280600081525081525090506000600360009054906101000a900473ffffffffffffffffffffffffffffffffffffffff1673ffffffffffffffffffffffffffffffffffffffff166320487ded6000846040518363ffffffff1660e01b815260040161052d929190611339565b602060405180830381865afa15801561054a573d6000803e3d6000fd5b505050506040513d601f19601f8201168201806040525081019061056e919061137e565b90506000600360009054906101000a900473ffffffffffffffffffffffffffffffffffffffff1673ffffffffffffffffffffffffffffffffffffffff166396f4e9f9836000866040518463ffffffff1660e01b81526004016105d1929190611339565b60206040518083038185885af11580156105ef573d6000803e3d6000fd5b50505050506040513d601f19601f8201168201806040525081019061061491906113d7565b90507f54791b38f3859327992a1ca0590ad3c0f08feba98d1a4f56ab0dca74d203392a816040516106459190611413565b60405180910390a15050505050565b600460009054906101000a900473ffffffffffffffffffffffffffffffffffffffff1681565b610682610b71565b600560009054906101000a900473ffffffffffffffffffffffffffffffffffffffff1673ffffffffffffffffffffffffffffffffffffffff1663672fb969836040518263ffffffff1660e01b81526004016106dd919061143d565b600060405180830381865afa1580156106fa573d6000803e3d6000fd5b505050506040513d6000823e3d601f19601f820116820180604052508101906107239190611604565b9050919050565b7f000000000000000000000000000000000000000000000000000000000000000073ffffffffffffffffffffffffffffffffffffffff163373ffffffffffffffffffffffffffffffffffffffff16146107ba57336040517fd7f733340000000000000000000000000000000000000000000000000000000081526004016107b19190610caf565b60405180910390fd5b6107cc816107c790611931565b6109ee565b50565b6000600560009054906101000a900473ffffffffffffffffffffffffffffffffffffffff1673ffffffffffffffffffffffffffffffffffffffff16638b4d9eb98585856040518463ffffffff1660e01b8152600401610830939291906119bf565b602060405180830381865afa15801561084d573d6000803e3d6000fd5b505050506040513d601f19601f820116820180604052508101906108719190611a1d565b90509392505050565b600560009054906101000a900473ffffffffffffffffffffffffffffffffffffffff1681565b60007f0000000000000000000000000000000000000000000000000000000000000000905090565b60016020528060005260406000206000915054906101000a900460ff1681565b600260009054906101000a900473ffffffffffffffffffffffffffffffffffffffff1681565b60008054906101000a900473ffffffffffffffffffffffffffffffffffffffff1681565b600360009054906101000a900473ffffffffffffffffffffffffffffffffffffffff1681565b600560009054906101000a900473ffffffffffffffffffffffffffffffffffffffff1673ffffffffffffffffffffffffffffffffffffffff1663fe49e8338484846040518463ffffffff1660e01b81526004016109b7939291906119bf565b600060405180830381600087803b1580156109d157600080fd5b505af11580156109e5573d6000803e3d6000fd5b50505050505050565b60008160600151806020019051810190610a08919061137e565b905060008260400151806020019051810190610a249190611a88565b905060006969e10de76676d080000090506001831115610a57576934f086f3b33b6840000081610a549190611ae4565b90505b60008054906101000a900473ffffffffffffffffffffffffffffffffffffffff1673ffffffffffffffffffffffffffffffffffffffff1663a9059cbb33836040518363ffffffff1660e01b8152600401610ab2929190611b18565b6020604051808303816000875af1158015610ad1573d6000803e3d6000fd5b505050506040513d601f19601f82011682018060405250810190610af59190611a1d565b507f9e0cedd023f625fb8db19f2eb903c24aa1a45f05fd9ef9431a80505ad65e30fe846000015185602001518486604051610b339493929190611b50565b60405180910390a150505050565b6040518060400160405280600073ffffffffffffffffffffffffffffffffffffffff168152602001600081525090565b6040518060800160405280606081526020016060815260200160008019168152602001600080191681525090565b6000604051905090565b600080fd5b600080fd5b60007fffffffff0000000000000000000000000000000000000000000000000000000082169050919050565b610be881610bb3565b8114610bf357600080fd5b50565b600081359050610c0581610bdf565b92915050565b600060208284031215610c2157610c20610ba9565b5b6000610c2f84828501610bf6565b91505092915050565b60008115159050919050565b610c4d81610c38565b82525050565b6000602082019050610c686000830184610c44565b92915050565b600073ffffffffffffffffffffffffffffffffffffffff82169050919050565b6000610c9982610c6e565b9050919050565b610ca981610c8e565b82525050565b6000602082019050610cc46000830184610ca0565b92915050565b6000819050919050565b610cdd81610cca565b8114610ce857600080fd5b50565b600081359050610cfa81610cd4565b92915050565b600060208284031215610d1657610d15610ba9565b5b6000610d2484828501610ceb565b91505092915050565b600081519050919050565b600082825260208201905092915050565b60005b83811015610d67578082015181840152602081019050610d4c565b60008484015250505050565b6000601f19601f8301169050919050565b6000610d8f82610d2d565b610d998185610d38565b9350610da9818560208601610d49565b610db281610d73565b840191505092915050565b6000819050919050565b610dd081610dbd565b82525050565b60006080830160008301518482036000860152610df38282610d84565b91505060208301518482036020860152610e0d8282610d84565b9150506040830151610e226040860182610dc7565b506060830151610e356060860182610dc7565b508091505092915050565b60006020820190508181036000830152610e5a8184610dd6565b905092915050565b600080fd5b600060a08284031215610e7d57610e7c610e62565b5b81905092915050565b600060208284031215610e9c57610e9b610ba9565b5b600082013567ffffffffffffffff811115610eba57610eb9610bae565b5b610ec684828501610e67565b91505092915050565b600080fd5b600080fd5b600080fd5b60008083601f840112610ef457610ef3610ecf565b5b8235905067ffffffffffffffff811115610f1157610f10610ed4565b5b602083019150836020820283011115610f2d57610f2c610ed9565b5b9250929050565b600080600060408486031215610f4d57610f4c610ba9565b5b6000610f5b86828701610ceb565b935050602084013567ffffffffffffffff811115610f7c57610f7b610bae565b5b610f8886828701610ede565b92509250509250925092565b6000819050919050565b6000610fb9610fb4610faf84610c6e565b610f94565b610c6e565b9050919050565b6000610fcb82610f9e565b9050919050565b6000610fdd82610fc0565b9050919050565b610fed81610fd2565b82525050565b60006020820190506110086000830184610fe4565b92915050565b61101781610c8e565b811461102257600080fd5b50565b6000813590506110348161100e565b92915050565b6000602082840312156110505761104f610ba9565b5b600061105e84828501611025565b91505092915050565b600061107282610fc0565b9050919050565b61108281611067565b82525050565b600060208201905061109d6000830184611079565b92915050565b60006110ae82610fc0565b9050919050565b6110be816110a3565b82525050565b60006020820190506110d960008301846110b5565b92915050565b7f4e487b7100000000000000000000000000000000000000000000000000000000600052604160045260246000fd5b6000819050919050565b600067ffffffffffffffff82169050919050565b600061114761114261113d8461110e565b610f94565b611118565b9050919050565b6111578161112c565b82525050565b600081519050919050565b600082825260208201905092915050565b60006111848261115d565b61118e8185611168565b935061119e818560208601610d49565b6111a781610d73565b840191505092915050565b600081519050919050565b600082825260208201905092915050565b6000819050602082019050919050565b6111e781610c8e565b82525050565b6111f681610cca565b82525050565b60408201600082015161121260008501826111de565b50602082015161122560208501826111ed565b50505050565b600061123783836111fc565b60408301905092915050565b6000602082019050919050565b600061125b826111b2565b61126581856111bd565b9350611270836111ce565b8060005b838110156112a1578151611288888261122b565b975061129383611243565b925050600181019050611274565b5085935050505092915050565b600060a08301600083015184820360008601526112cb8282611179565b915050602083015184820360208601526112e58282611179565b915050604083015184820360408601526112ff8282611250565b915050606083015161131460608601826111de565b506080830151848203608086015261132c8282611179565b9150508091505092915050565b600060408201905061134e600083018561114e565b818103602083015261136081846112ae565b90509392505050565b60008151905061137881610cd4565b92915050565b60006020828403121561139457611393610ba9565b5b60006113a284828501611369565b91505092915050565b6113b481610dbd565b81146113bf57600080fd5b50565b6000815190506113d1816113ab565b92915050565b6000602082840312156113ed576113ec610ba9565b5b60006113fb848285016113c2565b91505092915050565b61140d81610dbd565b82525050565b60006020820190506114286000830184611404565b92915050565b61143781610cca565b82525050565b6000602082019050611452600083018461142e565b92915050565b600080fd5b61146682610d73565b810181811067ffffffffffffffff82111715611485576114846110df565b5b80604052505050565b6000611498610b9f565b90506114a4828261145d565b919050565b600080fd5b600080fd5b600067ffffffffffffffff8211156114ce576114cd6110df565b5b6114d782610d73565b9050602081019050919050565b60006114f76114f2846114b3565b61148e565b905082815260208101848484011115611513576115126114ae565b5b61151e848285610d49565b509392505050565b600082601f83011261153b5761153a610ecf565b5b815161154b8482602086016114e4565b91505092915050565b60006080828403121561156a57611569611458565b5b611574608061148e565b9050600082015167ffffffffffffffff811115611594576115936114a9565b5b6115a084828501611526565b600083015250602082015167ffffffffffffffff8111156115c4576115c36114a9565b5b6115d084828501611526565b60208301525060406115e4848285016113c2565b60408301525060606115f8848285016113c2565b60608301525092915050565b60006020828403121561161a57611619610ba9565b5b600082015167ffffffffffffffff81111561163857611637610bae565b5b61164484828501611554565b91505092915050565b60008135905061165c816113ab565b92915050565b61166b81611118565b811461167657600080fd5b50565b60008135905061168881611662565b92915050565b600067ffffffffffffffff8211156116a9576116a86110df565b5b6116b282610d73565b9050602081019050919050565b82818337600083830152505050565b60006116e16116dc8461168e565b61148e565b9050828152602081018484840111156116fd576116fc6114ae565b5b6117088482856116bf565b509392505050565b600082601f83011261172557611724610ecf565b5b81356117358482602086016116ce565b91505092915050565b600067ffffffffffffffff821115611759576117586110df565b5b602082029050602081019050919050565b6000604082840312156117805761177f611458565b5b61178a604061148e565b9050600061179a84828501611025565b60008301525060206117ae84828501610ceb565b60208301525092915050565b60006117cd6117c88461173e565b61148e565b905080838252602082019050604084028301858111156117f0576117ef610ed9565b5b835b818110156118195780611805888261176a565b8452602084019350506040810190506117f2565b5050509392505050565b600082601f83011261183857611837610ecf565b5b81356118488482602086016117ba565b91505092915050565b600060a0828403121561186757611866611458565b5b61187160a061148e565b905060006118818482850161164d565b600083015250602061189584828501611679565b602083015250604082013567ffffffffffffffff8111156118b9576118b86114a9565b5b6118c584828501611710565b604083015250606082013567ffffffffffffffff8111156118e9576118e86114a9565b5b6118f584828501611710565b606083015250608082013567ffffffffffffffff811115611919576119186114a9565b5b61192584828501611823565b60808301525092915050565b600061193d3683611851565b9050919050565b600082825260208201905092915050565b600080fd5b82818337505050565b600061196f8385611944565b93507f07ffffffffffffffffffffffffffffffffffffffffffffffffffffffffffffff8311156119a2576119a1611955565b5b6020830292506119b383858461195a565b82840190509392505050565b60006040820190506119d4600083018661142e565b81810360208301526119e7818486611963565b9050949350505050565b6119fa81610c38565b8114611a0557600080fd5b50565b600081519050611a17816119f1565b92915050565b600060208284031215611a3357611a32610ba9565b5b6000611a4184828501611a08565b91505092915050565b6000611a5582610c6e565b9050919050565b611a6581611a4a565b8114611a7057600080fd5b50565b600081519050611a8281611a5c565b92915050565b600060208284031215611a9e57611a9d610ba9565b5b6000611aac84828501611a73565b91505092915050565b7f4e487b7100000000000000000000000000000000000000000000000000000000600052601160045260246000fd5b6000611aef82610cca565b9150611afa83610cca565b9250828201905080821115611b1257611b11611ab5565b5b92915050565b6000604082019050611b2d6000830185610ca0565b611b3a602083018461142e565b9392505050565b611b4a81611118565b82525050565b6000608082019050611b656000830187611404565b611b726020830186611b41565b611b7f6040830185610ca0565b611b8c606083018461142e565b9594505050505056fea2646970667358221220efb255af9eb48ddffe933a4c7272f559b219f52709fefa985bb9c3cdf3a00c5664736f6c63430008180033",
  "linkReferences": {},
  "deployedLinkReferences": {}
}