{
  "_format": "hh-sol-artifact-1",
  "contractName": "MehAdV2",
  "sourceName": "contracts/MehAdV2.sol",
  "abi": [
    {
      "inputs": [
        {
          "internalType": "address",
          "name": "_mainnetContractAddress",
          "type": "address"
        },
        {
          "internalType": "address",
          "name": "_router",
          "type": "address"
        },
        {
          "internalType": "address",
          "name": "_linkToken",
          "type": "address"
        }
      ],
      "stateMutability": "nonpayable",
      "type": "constructor"
    },
    {
      "inputs": [
        {
          "internalType": "address",
          "name": "router",
          "type": "address"
        }
      ],
      "name": "InvalidRouter",
      "type": "error"
    },
    {
      "anonymous": false,
      "inputs": [
        {
          "indexed": false,
          "internalType": "bytes32",
          "name": "messageId",
          "type": "bytes32"
        },
        {
          "indexed": false,
          "internalType": "uint64",
          "name": "sourceChainSelector",
          "type": "uint64"
        },
        {
          "indexed": false,
          "internalType": "address",
          "name": "sender",
          "type": "address"
        },
        {
          "indexed": false,
          "internalType": "uint256",
          "name": "balance",
          "type": "uint256"
        }
      ],
      "name": "MessageReceived",
      "type": "event"
    },
    {
      "anonymous": false,
      "inputs": [
        {
          "indexed": false,
          "internalType": "bytes32",
          "name": "messageId",
          "type": "bytes32"
        }
      ],
      "name": "MessageSent",
      "type": "event"
    },
    {
      "inputs": [
        {
          "components": [
            {
              "internalType": "bytes32",
              "name": "messageId",
              "type": "bytes32"
            },
            {
              "internalType": "uint64",
              "name": "sourceChainSelector",
              "type": "uint64"
            },
            {
              "internalType": "bytes",
              "name": "sender",
              "type": "bytes"
            },
            {
              "internalType": "bytes",
              "name": "data",
              "type": "bytes"
            },
            {
              "components": [
                {
                  "internalType": "address",
                  "name": "token",
                  "type": "address"
                },
                {
                  "internalType": "uint256",
                  "name": "amount",
                  "type": "uint256"
                }
              ],
              "internalType": "struct Client.EVMTokenAmount[]",
              "name": "destTokenAmounts",
              "type": "tuple[]"
            }
          ],
          "internalType": "struct Client.Any2EVMMessage",
          "name": "message",
          "type": "tuple"
        }
      ],
      "name": "ccipReceive",
      "outputs": [],
      "stateMutability": "nonpayable",
      "type": "function"
    },
    {
      "inputs": [],
      "name": "getLinkBalance",
      "outputs": [],
      "stateMutability": "nonpayable",
      "type": "function"
    },
    {
      "inputs": [],
      "name": "getRouter",
      "outputs": [
        {
          "internalType": "address",
          "name": "",
          "type": "address"
        }
      ],
      "stateMutability": "view",
      "type": "function"
    },
    {
      "inputs": [],
      "name": "linkToken",
      "outputs": [
        {
          "internalType": "address",
          "name": "",
          "type": "address"
        }
      ],
      "stateMutability": "view",
      "type": "function"
    },
    {
      "inputs": [],
      "name": "mainnetContractAddress",
      "outputs": [
        {
          "internalType": "address",
          "name": "",
          "type": "address"
        }
      ],
      "stateMutability": "view",
      "type": "function"
    },
    {
      "inputs": [],
      "name": "router",
      "outputs": [
        {
          "internalType": "contract IRouterClient",
          "name": "",
          "type": "address"
        }
      ],
      "stateMutability": "view",
      "type": "function"
    },
    {
      "inputs": [
        {
          "internalType": "bytes4",
          "name": "interfaceId",
          "type": "bytes4"
        }
      ],
      "name": "supportsInterface",
      "outputs": [
        {
          "internalType": "bool",
          "name": "",
          "type": "bool"
        }
      ],
      "stateMutability": "pure",
      "type": "function"
    }
  ],
  "bytecode": "0x60a06040523480156200001157600080fd5b506040516200143338038062001433833981810160405281019062000037919062000217565b81600073ffffffffffffffffffffffffffffffffffffffff168173ffffffffffffffffffffffffffffffffffffffff1603620000ad5760006040517fd7f73334000000000000000000000000000000000000000000000000000000008152600401620000a4919062000284565b60405180910390fd5b8073ffffffffffffffffffffffffffffffffffffffff1660808173ffffffffffffffffffffffffffffffffffffffff168152505050826000806101000a81548173ffffffffffffffffffffffffffffffffffffffff021916908373ffffffffffffffffffffffffffffffffffffffff16021790555081600160006101000a81548173ffffffffffffffffffffffffffffffffffffffff021916908373ffffffffffffffffffffffffffffffffffffffff16021790555080600260006101000a81548173ffffffffffffffffffffffffffffffffffffffff021916908373ffffffffffffffffffffffffffffffffffffffff160217905550505050620002a1565b600080fd5b600073ffffffffffffffffffffffffffffffffffffffff82169050919050565b6000620001df82620001b2565b9050919050565b620001f181620001d2565b8114620001fd57600080fd5b50565b6000815190506200021181620001e6565b92915050565b600080600060608486031215620002335762000232620001ad565b5b6000620002438682870162000200565b9350506020620002568682870162000200565b9250506040620002698682870162000200565b9150509250925092565b6200027e81620001d2565b82525050565b60006020820190506200029b600083018462000273565b92915050565b60805161116f620002c46000396000818161054001526105e7015261116f6000f3fe608060405234801561001057600080fd5b506004361061007d5760003560e01c806385572ffb1161005b57806385572ffb146100da578063b0f479a1146100f6578063c626938914610114578063f887ea40146101325761007d565b806301ffc9a71461008257806350c5f975146100b257806357970e93146100bc575b600080fd5b61009c60048036038101906100979190610773565b610150565b6040516100a991906107bb565b60405180910390f35b6100ba610222565b005b6100c4610518565b6040516100d19190610817565b60405180910390f35b6100f460048036038101906100ef9190610856565b61053e565b005b6100fe6105e3565b60405161010b9190610817565b60405180910390f35b61011c61060b565b6040516101299190610817565b60405180910390f35b61013a61062f565b60405161014791906108fe565b60405180910390f35b60007f85572ffb000000000000000000000000000000000000000000000000000000007bffffffffffffffffffffffffffffffffffffffffffffffffffffffff1916827bffffffffffffffffffffffffffffffffffffffffffffffffffffffff1916148061021b57507f01ffc9a7000000000000000000000000000000000000000000000000000000007bffffffffffffffffffffffffffffffffffffffffffffffffffffffff1916827bffffffffffffffffffffffffffffffffffffffffffffffffffffffff1916145b9050919050565b60006040516024016040516020818303038152906040527f50c5f975000000000000000000000000000000000000000000000000000000007bffffffffffffffffffffffffffffffffffffffffffffffffffffffff19166020820180517bffffffffffffffffffffffffffffffffffffffffffffffffffffffff8381831617835250505050905060008067ffffffffffffffff8111156102c5576102c4610919565b5b6040519080825280602002602001820160405280156102fe57816020015b6102eb6106d7565b8152602001906001900390816102e35790505b50905060006040518060a0016040528060008054906101000a900473ffffffffffffffffffffffffffffffffffffffff1660405160200161033f9190610817565b6040516020818303038152906040528152602001848152602001838152602001600073ffffffffffffffffffffffffffffffffffffffff1681526020016040518060200160405280600081525081525090506000600160009054906101000a900473ffffffffffffffffffffffffffffffffffffffff1673ffffffffffffffffffffffffffffffffffffffff166320487ded6001846040518363ffffffff1660e01b81526004016103f1929190610bb8565b602060405180830381865afa15801561040e573d6000803e3d6000fd5b505050506040513d601f19601f820116820180604052508101906104329190610c14565b90506000600160009054906101000a900473ffffffffffffffffffffffffffffffffffffffff1673ffffffffffffffffffffffffffffffffffffffff166396f4e9f9836001866040518463ffffffff1660e01b8152600401610495929190610bb8565b60206040518083038185885af11580156104b3573d6000803e3d6000fd5b50505050506040513d601f19601f820116820180604052508101906104d89190610c77565b90507f54791b38f3859327992a1ca0590ad3c0f08feba98d1a4f56ab0dca74d203392a816040516105099190610cb3565b60405180910390a15050505050565b600260009054906101000a900473ffffffffffffffffffffffffffffffffffffffff1681565b7f000000000000000000000000000000000000000000000000000000000000000073ffffffffffffffffffffffffffffffffffffffff163373ffffffffffffffffffffffffffffffffffffffff16146105ce57336040517fd7f733340000000000000000000000000000000000000000000000000000000081526004016105c59190610817565b60405180910390fd5b6105e0816105db90611058565b610655565b50565b60007f0000000000000000000000000000000000000000000000000000000000000000905090565b60008054906101000a900473ffffffffffffffffffffffffffffffffffffffff1681565b600160009054906101000a900473ffffffffffffffffffffffffffffffffffffffff1681565b6000816060015180602001905181019061066f9190610c14565b90506000826040015180602001905181019061068b91906110a9565b90507f9e0cedd023f625fb8db19f2eb903c24aa1a45f05fd9ef9431a80505ad65e30fe8360000151846020015183856040516106ca94939291906110f4565b60405180910390a1505050565b6040518060400160405280600073ffffffffffffffffffffffffffffffffffffffff168152602001600081525090565b6000604051905090565b600080fd5b600080fd5b60007fffffffff0000000000000000000000000000000000000000000000000000000082169050919050565b6107508161071b565b811461075b57600080fd5b50565b60008135905061076d81610747565b92915050565b60006020828403121561078957610788610711565b5b60006107978482850161075e565b91505092915050565b60008115159050919050565b6107b5816107a0565b82525050565b60006020820190506107d060008301846107ac565b92915050565b600073ffffffffffffffffffffffffffffffffffffffff82169050919050565b6000610801826107d6565b9050919050565b610811816107f6565b82525050565b600060208201905061082c6000830184610808565b92915050565b600080fd5b600060a0828403121561084d5761084c610832565b5b81905092915050565b60006020828403121561086c5761086b610711565b5b600082013567ffffffffffffffff81111561088a57610889610716565b5b61089684828501610837565b91505092915050565b6000819050919050565b60006108c46108bf6108ba846107d6565b61089f565b6107d6565b9050919050565b60006108d6826108a9565b9050919050565b60006108e8826108cb565b9050919050565b6108f8816108dd565b82525050565b600060208201905061091360008301846108ef565b92915050565b7f4e487b7100000000000000000000000000000000000000000000000000000000600052604160045260246000fd5b6000819050919050565b600067ffffffffffffffff82169050919050565b600061098161097c61097784610948565b61089f565b610952565b9050919050565b61099181610966565b82525050565b600081519050919050565b600082825260208201905092915050565b60005b838110156109d15780820151818401526020810190506109b6565b60008484015250505050565b6000601f19601f8301169050919050565b60006109f982610997565b610a0381856109a2565b9350610a138185602086016109b3565b610a1c816109dd565b840191505092915050565b600081519050919050565b600082825260208201905092915050565b6000819050602082019050919050565b610a5c816107f6565b82525050565b6000819050919050565b610a7581610a62565b82525050565b604082016000820151610a916000850182610a53565b506020820151610aa46020850182610a6c565b50505050565b6000610ab68383610a7b565b60408301905092915050565b6000602082019050919050565b6000610ada82610a27565b610ae48185610a32565b9350610aef83610a43565b8060005b83811015610b20578151610b078882610aaa565b9750610b1283610ac2565b925050600181019050610af3565b5085935050505092915050565b600060a0830160008301518482036000860152610b4a82826109ee565b91505060208301518482036020860152610b6482826109ee565b91505060408301518482036040860152610b7e8282610acf565b9150506060830151610b936060860182610a53565b5060808301518482036080860152610bab82826109ee565b9150508091505092915050565b6000604082019050610bcd6000830185610988565b8181036020830152610bdf8184610b2d565b90509392505050565b610bf181610a62565b8114610bfc57600080fd5b50565b600081519050610c0e81610be8565b92915050565b600060208284031215610c2a57610c29610711565b5b6000610c3884828501610bff565b91505092915050565b6000819050919050565b610c5481610c41565b8114610c5f57600080fd5b50565b600081519050610c7181610c4b565b92915050565b600060208284031215610c8d57610c8c610711565b5b6000610c9b84828501610c62565b91505092915050565b610cad81610c41565b82525050565b6000602082019050610cc86000830184610ca4565b92915050565b600080fd5b610cdc826109dd565b810181811067ffffffffffffffff82111715610cfb57610cfa610919565b5b80604052505050565b6000610d0e610707565b9050610d1a8282610cd3565b919050565b600080fd5b600081359050610d3381610c4b565b92915050565b610d4281610952565b8114610d4d57600080fd5b50565b600081359050610d5f81610d39565b92915050565b600080fd5b600080fd5b600067ffffffffffffffff821115610d8a57610d89610919565b5b610d93826109dd565b9050602081019050919050565b82818337600083830152505050565b6000610dc2610dbd84610d6f565b610d04565b905082815260208101848484011115610dde57610ddd610d6a565b5b610de9848285610da0565b509392505050565b600082601f830112610e0657610e05610d65565b5b8135610e16848260208601610daf565b91505092915050565b600067ffffffffffffffff821115610e3a57610e39610919565b5b602082029050602081019050919050565b600080fd5b610e59816107f6565b8114610e6457600080fd5b50565b600081359050610e7681610e50565b92915050565b600081359050610e8b81610be8565b92915050565b600060408284031215610ea757610ea6610cce565b5b610eb16040610d04565b90506000610ec184828501610e67565b6000830152506020610ed584828501610e7c565b60208301525092915050565b6000610ef4610eef84610e1f565b610d04565b90508083825260208201905060408402830185811115610f1757610f16610e4b565b5b835b81811015610f405780610f2c8882610e91565b845260208401935050604081019050610f19565b5050509392505050565b600082601f830112610f5f57610f5e610d65565b5b8135610f6f848260208601610ee1565b91505092915050565b600060a08284031215610f8e57610f8d610cce565b5b610f9860a0610d04565b90506000610fa884828501610d24565b6000830152506020610fbc84828501610d50565b602083015250604082013567ffffffffffffffff811115610fe057610fdf610d1f565b5b610fec84828501610df1565b604083015250606082013567ffffffffffffffff8111156110105761100f610d1f565b5b61101c84828501610df1565b606083015250608082013567ffffffffffffffff8111156110405761103f610d1f565b5b61104c84828501610f4a565b60808301525092915050565b60006110643683610f78565b9050919050565b6000611076826107d6565b9050919050565b6110868161106b565b811461109157600080fd5b50565b6000815190506110a38161107d565b92915050565b6000602082840312156110bf576110be610711565b5b60006110cd84828501611094565b91505092915050565b6110df81610952565b82525050565b6110ee81610a62565b82525050565b60006080820190506111096000830187610ca4565b61111660208301866110d6565b6111236040830185610808565b61113060608301846110e5565b9594505050505056fea26469706673582212200aba86da4006759e443dd446cb3e83066fd7f058d1f7031e09e40a07c6c5e7e364736f6c63430008180033",
  "linkReferences": {},
  "deployedLinkReferences": {}
}