{
  "_format": "hh-sol-artifact-1",
  "contractName": "MehAdV2",
  "sourceName": "contracts/MehAdV2.sol",
  "abi": [
    {
      "inputs": [
        {
          "internalType": "address",
          "name": "_mainnetContractAddress",
          "type": "address"
        },
        {
          "internalType": "address",
          "name": "_router",
          "type": "address"
        },
        {
          "internalType": "address",
          "name": "_linkTokenAddress",
          "type": "address"
        },
        {
          "internalType": "address",
          "name": "_mehTokenAddress",
          "type": "address"
        },
        {
          "internalType": "address",
          "name": "_ercAdAddress",
          "type": "address"
        },
        {
          "internalType": "uint64",
          "name": "_destinationChainSelector",
          "type": "uint64"
        }
      ],
      "stateMutability": "nonpayable",
      "type": "constructor"
    },
    {
      "inputs": [
        {
          "internalType": "address",
          "name": "router",
          "type": "address"
        }
      ],
      "name": "InvalidRouter",
      "type": "error"
    },
    {
      "anonymous": false,
      "inputs": [
        {
          "indexed": false,
          "internalType": "string",
          "name": "reason",
          "type": "string"
        }
      ],
      "name": "ErrorOccurred",
      "type": "event"
    },
    {
      "anonymous": false,
      "inputs": [
        {
          "indexed": false,
          "internalType": "bytes32",
          "name": "messageId",
          "type": "bytes32"
        },
        {
          "indexed": false,
          "internalType": "uint64",
          "name": "sourceChainSelector",
          "type": "uint64"
        },
        {
          "indexed": false,
          "internalType": "address",
          "name": "sender",
          "type": "address"
        },
        {
          "indexed": false,
          "internalType": "uint256",
          "name": "balance",
          "type": "uint256"
        }
      ],
      "name": "MessageReceived",
      "type": "event"
    },
    {
      "anonymous": false,
      "inputs": [
        {
          "indexed": false,
          "internalType": "bytes32",
          "name": "messageId",
          "type": "bytes32"
        }
      ],
      "name": "MessageSent",
      "type": "event"
    },
    {
      "anonymous": false,
      "inputs": [
        {
          "indexed": true,
          "internalType": "address",
          "name": "previousOwner",
          "type": "address"
        },
        {
          "indexed": true,
          "internalType": "address",
          "name": "newOwner",
          "type": "address"
        }
      ],
      "name": "OwnershipTransferred",
      "type": "event"
    },
    {
      "inputs": [
        {
          "components": [
            {
              "internalType": "bytes32",
              "name": "messageId",
              "type": "bytes32"
            },
            {
              "internalType": "uint64",
              "name": "sourceChainSelector",
              "type": "uint64"
            },
            {
              "internalType": "bytes",
              "name": "sender",
              "type": "bytes"
            },
            {
              "internalType": "bytes",
              "name": "data",
              "type": "bytes"
            },
            {
              "components": [
                {
                  "internalType": "address",
                  "name": "token",
                  "type": "address"
                },
                {
                  "internalType": "uint256",
                  "name": "amount",
                  "type": "uint256"
                }
              ],
              "internalType": "struct Client.EVMTokenAmount[]",
              "name": "destTokenAmounts",
              "type": "tuple[]"
            }
          ],
          "internalType": "struct Client.Any2EVMMessage",
          "name": "message",
          "type": "tuple"
        }
      ],
      "name": "ccipReceive",
      "outputs": [],
      "stateMutability": "nonpayable",
      "type": "function"
    },
    {
      "inputs": [],
      "name": "destinationChainSelector",
      "outputs": [
        {
          "internalType": "uint64",
          "name": "",
          "type": "uint64"
        }
      ],
      "stateMutability": "view",
      "type": "function"
    },
    {
      "inputs": [
        {
          "internalType": "uint256",
          "name": "id",
          "type": "uint256"
        }
      ],
      "name": "displayAd",
      "outputs": [
        {
          "components": [
            {
              "internalType": "string",
              "name": "adURI",
              "type": "string"
            },
            {
              "internalType": "string",
              "name": "dataURI",
              "type": "string"
            },
            {
              "internalType": "bytes32",
              "name": "signatureRoot",
              "type": "bytes32"
            },
            {
              "internalType": "bytes32",
              "name": "audienceRoot",
              "type": "bytes32"
            }
          ],
          "internalType": "struct IERCAd.Ad",
          "name": "",
          "type": "tuple"
        }
      ],
      "stateMutability": "view",
      "type": "function"
    },
    {
      "inputs": [],
      "name": "ercAdContract",
      "outputs": [
        {
          "internalType": "contract IERCAd",
          "name": "",
          "type": "address"
        }
      ],
      "stateMutability": "view",
      "type": "function"
    },
    {
      "inputs": [],
      "name": "getRouter",
      "outputs": [
        {
          "internalType": "address",
          "name": "",
          "type": "address"
        }
      ],
      "stateMutability": "view",
      "type": "function"
    },
    {
      "inputs": [],
      "name": "linkToken",
      "outputs": [
        {
          "internalType": "contract IERC20",
          "name": "",
          "type": "address"
        }
      ],
      "stateMutability": "view",
      "type": "function"
    },
    {
      "inputs": [],
      "name": "mainnetContractAddress",
      "outputs": [
        {
          "internalType": "address",
          "name": "",
          "type": "address"
        }
      ],
      "stateMutability": "view",
      "type": "function"
    },
    {
      "inputs": [],
      "name": "mehToken",
      "outputs": [
        {
          "internalType": "contract IERC20",
          "name": "",
          "type": "address"
        }
      ],
      "stateMutability": "view",
      "type": "function"
    },
    {
      "inputs": [],
      "name": "owner",
      "outputs": [
        {
          "internalType": "address",
          "name": "",
          "type": "address"
        }
      ],
      "stateMutability": "view",
      "type": "function"
    },
    {
      "inputs": [],
      "name": "renounceOwnership",
      "outputs": [],
      "stateMutability": "nonpayable",
      "type": "function"
    },
    {
      "inputs": [],
      "name": "router",
      "outputs": [
        {
          "internalType": "contract IRouterClient",
          "name": "",
          "type": "address"
        }
      ],
      "stateMutability": "view",
      "type": "function"
    },
    {
      "inputs": [
        {
          "internalType": "uint64",
          "name": "destinationChainSelector",
          "type": "uint64"
        },
        {
          "internalType": "address",
          "name": "receiver",
          "type": "address"
        },
        {
          "components": [
            {
              "internalType": "uint256",
              "name": "eth",
              "type": "uint256"
            },
            {
              "internalType": "uint256",
              "name": "link",
              "type": "uint256"
            }
          ],
          "internalType": "struct MehAdV2.CrossChainCapital",
          "name": "message",
          "type": "tuple"
        }
      ],
      "name": "sendMessage",
      "outputs": [
        {
          "internalType": "bytes32",
          "name": "messageId",
          "type": "bytes32"
        }
      ],
      "stateMutability": "nonpayable",
      "type": "function"
    },
    {
      "inputs": [
        {
          "internalType": "uint256",
          "name": "id",
          "type": "uint256"
        },
        {
          "internalType": "bytes32[]",
          "name": "proof",
          "type": "bytes32[]"
        }
      ],
      "name": "signAd",
      "outputs": [],
      "stateMutability": "nonpayable",
      "type": "function"
    },
    {
      "inputs": [
        {
          "internalType": "bytes4",
          "name": "interfaceId",
          "type": "bytes4"
        }
      ],
      "name": "supportsInterface",
      "outputs": [
        {
          "internalType": "bool",
          "name": "",
          "type": "bool"
        }
      ],
      "stateMutability": "pure",
      "type": "function"
    },
    {
      "inputs": [
        {
          "internalType": "address",
          "name": "newOwner",
          "type": "address"
        }
      ],
      "name": "transferOwnership",
      "outputs": [],
      "stateMutability": "nonpayable",
      "type": "function"
    },
    {
      "inputs": [],
      "name": "withdrawMeh",
      "outputs": [],
      "stateMutability": "nonpayable",
      "type": "function"
    },
    {
      "stateMutability": "payable",
      "type": "receive"
    }
  ],
  "bytecode": "0x60a06040523480156200001157600080fd5b5060405162002851380380620028518339818101604052810190620000379190620003f7565b84600073ffffffffffffffffffffffffffffffffffffffff168173ffffffffffffffffffffffffffffffffffffffff1603620000ad5760006040517fd7f73334000000000000000000000000000000000000000000000000000000008152600401620000a49190620004a4565b60405180910390fd5b8073ffffffffffffffffffffffffffffffffffffffff1660808173ffffffffffffffffffffffffffffffffffffffff16815250505062000102620000f66200027c60201b60201c565b6200028460201b60201c565b85600160006101000a81548173ffffffffffffffffffffffffffffffffffffffff021916908373ffffffffffffffffffffffffffffffffffffffff16021790555084600260006101000a81548173ffffffffffffffffffffffffffffffffffffffff021916908373ffffffffffffffffffffffffffffffffffffffff16021790555082600360006101000a81548173ffffffffffffffffffffffffffffffffffffffff021916908373ffffffffffffffffffffffffffffffffffffffff16021790555083600460006101000a81548173ffffffffffffffffffffffffffffffffffffffff021916908373ffffffffffffffffffffffffffffffffffffffff16021790555081600560006101000a81548173ffffffffffffffffffffffffffffffffffffffff021916908373ffffffffffffffffffffffffffffffffffffffff16021790555080600560146101000a81548167ffffffffffffffff021916908367ffffffffffffffff160217905550505050505050620004c1565b600033905090565b60008060009054906101000a900473ffffffffffffffffffffffffffffffffffffffff169050816000806101000a81548173ffffffffffffffffffffffffffffffffffffffff021916908373ffffffffffffffffffffffffffffffffffffffff1602179055508173ffffffffffffffffffffffffffffffffffffffff168173ffffffffffffffffffffffffffffffffffffffff167f8be0079c531659141344cd1fd0a4f28419497f9722a3daafe3b4186f6b6457e060405160405180910390a35050565b600080fd5b600073ffffffffffffffffffffffffffffffffffffffff82169050919050565b60006200037a826200034d565b9050919050565b6200038c816200036d565b81146200039857600080fd5b50565b600081519050620003ac8162000381565b92915050565b600067ffffffffffffffff82169050919050565b620003d181620003b2565b8114620003dd57600080fd5b50565b600081519050620003f181620003c6565b92915050565b60008060008060008060c0878903121562000417576200041662000348565b5b60006200042789828a016200039b565b96505060206200043a89828a016200039b565b95505060406200044d89828a016200039b565b94505060606200046089828a016200039b565b93505060806200047389828a016200039b565b92505060a06200048689828a01620003e0565b9150509295509295509295565b6200049e816200036d565b82525050565b6000602082019050620004bb600083018462000493565b92915050565b60805161236d620004e4600039600081816105930152610689015261236d6000f3fe6080604052600436106100f75760003560e01c8063b0f479a11161008a578063f887ea4011610059578063f887ea4014610313578063fd56b55a1461033e578063fe49e83314610355578063fece27a31461037e576100fe565b8063b0f479a114610269578063c626938914610294578063e2c2c884146102bf578063f2fde38b146102ea576100fe565b8063715018a6116100c6578063715018a6146101d357806385572ffb146101ea5780638da5cb5b1461021357806392b9d0251461023e576100fe565b806301ffc9a71461010357806331db1ffc1461014057806357970e931461016b578063672fb96914610196576100fe565b366100fe57005b600080fd5b34801561010f57600080fd5b5061012a6004803603810190610125919061119a565b6103bb565b60405161013791906111e2565b60405180910390f35b34801561014c57600080fd5b5061015561048d565b6040516101629190611220565b60405180910390f35b34801561017757600080fd5b506101806104a7565b60405161018d91906112ba565b60405180910390f35b3480156101a257600080fd5b506101bd60048036038101906101b8919061130b565b6104cd565b6040516101ca919061144b565b60405180910390f35b3480156101df57600080fd5b506101e861057d565b005b3480156101f657600080fd5b50610211600480360381019061020c9190611491565b610591565b005b34801561021f57600080fd5b50610228610636565b60405161023591906114fb565b60405180910390f35b34801561024a57600080fd5b5061025361065f565b6040516102609190611537565b60405180910390f35b34801561027557600080fd5b5061027e610685565b60405161028b91906114fb565b60405180910390f35b3480156102a057600080fd5b506102a96106ad565b6040516102b691906114fb565b60405180910390f35b3480156102cb57600080fd5b506102d46106d3565b6040516102e191906112ba565b60405180910390f35b3480156102f657600080fd5b50610311600480360381019061030c919061157e565b6106f9565b005b34801561031f57600080fd5b5061032861077c565b60405161033591906115cc565b60405180910390f35b34801561034a57600080fd5b506103536107a2565b005b34801561036157600080fd5b5061037c6004803603810190610377919061164c565b6108f5565b005b34801561038a57600080fd5b506103a560048036038101906103a091906117ad565b610a90565b6040516103b2919061180f565b60405180910390f35b60007f85572ffb000000000000000000000000000000000000000000000000000000007bffffffffffffffffffffffffffffffffffffffffffffffffffffffff1916827bffffffffffffffffffffffffffffffffffffffffffffffffffffffff1916148061048657507f01ffc9a7000000000000000000000000000000000000000000000000000000007bffffffffffffffffffffffffffffffffffffffffffffffffffffffff1916827bffffffffffffffffffffffffffffffffffffffffffffffffffffffff1916145b9050919050565b600560149054906101000a900467ffffffffffffffff1681565b600460009054906101000a900473ffffffffffffffffffffffffffffffffffffffff1681565b6104d56110d0565b600560009054906101000a900473ffffffffffffffffffffffffffffffffffffffff1673ffffffffffffffffffffffffffffffffffffffff1663672fb969836040518263ffffffff1660e01b81526004016105309190611839565b600060405180830381865afa15801561054d573d6000803e3d6000fd5b505050506040513d6000823e3d601f19601f8201168201806040525081019061057691906119d6565b9050919050565b610585610d03565b61058f6000610d81565b565b7f000000000000000000000000000000000000000000000000000000000000000073ffffffffffffffffffffffffffffffffffffffff163373ffffffffffffffffffffffffffffffffffffffff161461062157336040517fd7f7333400000000000000000000000000000000000000000000000000000000815260040161061891906114fb565b60405180910390fd5b6106338161062e90611cd7565b610e45565b50565b60008060009054906101000a900473ffffffffffffffffffffffffffffffffffffffff16905090565b600560009054906101000a900473ffffffffffffffffffffffffffffffffffffffff1681565b60007f0000000000000000000000000000000000000000000000000000000000000000905090565b600160009054906101000a900473ffffffffffffffffffffffffffffffffffffffff1681565b600360009054906101000a900473ffffffffffffffffffffffffffffffffffffffff1681565b610701610d03565b600073ffffffffffffffffffffffffffffffffffffffff168173ffffffffffffffffffffffffffffffffffffffff1603610770576040517f08c379a000000000000000000000000000000000000000000000000000000000815260040161076790611d6d565b60405180910390fd5b61077981610d81565b50565b600260009054906101000a900473ffffffffffffffffffffffffffffffffffffffff1681565b6107aa610d03565b6000600360009054906101000a900473ffffffffffffffffffffffffffffffffffffffff1673ffffffffffffffffffffffffffffffffffffffff166370a08231306040518263ffffffff1660e01b815260040161080791906114fb565b602060405180830381865afa158015610824573d6000803e3d6000fd5b505050506040513d601f19601f820116820180604052508101906108489190611da2565b9050600360009054906101000a900473ffffffffffffffffffffffffffffffffffffffff1673ffffffffffffffffffffffffffffffffffffffff1663a9059cbb610890610636565b836040518363ffffffff1660e01b81526004016108ae929190611dcf565b6020604051808303816000875af11580156108cd573d6000803e3d6000fd5b505050506040513d601f19601f820116820180604052508101906108f19190611e24565b5050565b600560009054906101000a900473ffffffffffffffffffffffffffffffffffffffff1673ffffffffffffffffffffffffffffffffffffffff1663fe49e8338484846040518463ffffffff1660e01b815260040161095493929190611ecc565b600060405180830381600087803b15801561096e57600080fd5b505af1158015610982573d6000803e3d6000fd5b5050505060004790506000600460009054906101000a900473ffffffffffffffffffffffffffffffffffffffff1673ffffffffffffffffffffffffffffffffffffffff166370a08231306040518263ffffffff1660e01b81526004016109e891906114fb565b602060405180830381865afa158015610a05573d6000803e3d6000fd5b505050506040513d601f19601f82011682018060405250810190610a299190611da2565b905060006040518060400160405280848152602001838152509050610a87600560149054906101000a900467ffffffffffffffff16600160009054906101000a900473ffffffffffffffffffffffffffffffffffffffff1683610a90565b50505050505050565b6000806040518060a0016040528085604051602001610aaf91906114fb565b604051602081830303815290604052815260200184604051602001610ad49190611f3c565b6040516020818303038152906040528152602001600067ffffffffffffffff811115610b0357610b026116dd565b5b604051908082528060200260200182016040528015610b3c57816020015b610b296110fe565b815260200190600190039081610b215790505b508152602001600073ffffffffffffffffffffffffffffffffffffffff168152602001610b79604051806020016040528062061a80815250611049565b81525090506000600260009054906101000a900473ffffffffffffffffffffffffffffffffffffffff1673ffffffffffffffffffffffffffffffffffffffff166320487ded87846040518363ffffffff1660e01b8152600401610bdd929190612124565b602060405180830381865afa158015610bfa573d6000803e3d6000fd5b505050506040513d601f19601f82011682018060405250810190610c1e9190611da2565b9050600260009054906101000a900473ffffffffffffffffffffffffffffffffffffffff1673ffffffffffffffffffffffffffffffffffffffff166396f4e9f98288856040518463ffffffff1660e01b8152600401610c7e929190612124565b60206040518083038185885af1158015610c9c573d6000803e3d6000fd5b50505050506040513d601f19601f82011682018060405250810190610cc19190612154565b92507f54791b38f3859327992a1ca0590ad3c0f08feba98d1a4f56ab0dca74d203392a83604051610cf2919061180f565b60405180910390a150509392505050565b610d0b6110c8565b73ffffffffffffffffffffffffffffffffffffffff16610d29610636565b73ffffffffffffffffffffffffffffffffffffffff1614610d7f576040517f08c379a0000000000000000000000000000000000000000000000000000000008152600401610d76906121cd565b60405180910390fd5b565b60008060009054906101000a900473ffffffffffffffffffffffffffffffffffffffff169050816000806101000a81548173ffffffffffffffffffffffffffffffffffffffff021916908373ffffffffffffffffffffffffffffffffffffffff1602179055508173ffffffffffffffffffffffffffffffffffffffff168173ffffffffffffffffffffffffffffffffffffffff167f8be0079c531659141344cd1fd0a4f28419497f9722a3daafe3b4186f6b6457e060405160405180910390a35050565b60008160600151806020019051810190610e5f9190611da2565b905060008260400151806020019051810190610e7b919061222b565b9050600460009054906101000a900473ffffffffffffffffffffffffffffffffffffffff1673ffffffffffffffffffffffffffffffffffffffff166370a08231306040518263ffffffff1660e01b8152600401610ed891906114fb565b602060405180830381865afa158015610ef5573d6000803e3d6000fd5b505050506040513d601f19601f82011682018060405250810190610f199190611da2565b82610f249190612287565b91506000690a968163f0a57b4000009050670de0b6b3a76400008310610f5d576969e10de76676d080000081610f5a9190612287565b90505b600360009054906101000a900473ffffffffffffffffffffffffffffffffffffffff1673ffffffffffffffffffffffffffffffffffffffff1663a9059cbb33836040518363ffffffff1660e01b8152600401610fba929190611dcf565b6020604051808303816000875af1158015610fd9573d6000803e3d6000fd5b505050506040513d601f19601f82011682018060405250810190610ffd9190611e24565b507f9e0cedd023f625fb8db19f2eb903c24aa1a45f05fd9ef9431a80505ad65e30fe84600001518560200151848660405161103b94939291906122bb565b60405180910390a150505050565b60606397a657c960e01b82604051602401611064919061231c565b604051602081830303815290604052907bffffffffffffffffffffffffffffffffffffffffffffffffffffffff19166020820180517bffffffffffffffffffffffffffffffffffffffffffffffffffffffff83818316178352505050509050919050565b600033905090565b6040518060800160405280606081526020016060815260200160008019168152602001600080191681525090565b6040518060400160405280600073ffffffffffffffffffffffffffffffffffffffff168152602001600081525090565b6000604051905090565b600080fd5b600080fd5b60007fffffffff0000000000000000000000000000000000000000000000000000000082169050919050565b61117781611142565b811461118257600080fd5b50565b6000813590506111948161116e565b92915050565b6000602082840312156111b0576111af611138565b5b60006111be84828501611185565b91505092915050565b60008115159050919050565b6111dc816111c7565b82525050565b60006020820190506111f760008301846111d3565b92915050565b600067ffffffffffffffff82169050919050565b61121a816111fd565b82525050565b60006020820190506112356000830184611211565b92915050565b600073ffffffffffffffffffffffffffffffffffffffff82169050919050565b6000819050919050565b600061128061127b6112768461123b565b61125b565b61123b565b9050919050565b600061129282611265565b9050919050565b60006112a482611287565b9050919050565b6112b481611299565b82525050565b60006020820190506112cf60008301846112ab565b92915050565b6000819050919050565b6112e8816112d5565b81146112f357600080fd5b50565b600081359050611305816112df565b92915050565b60006020828403121561132157611320611138565b5b600061132f848285016112f6565b91505092915050565b600081519050919050565b600082825260208201905092915050565b60005b83811015611372578082015181840152602081019050611357565b60008484015250505050565b6000601f19601f8301169050919050565b600061139a82611338565b6113a48185611343565b93506113b4818560208601611354565b6113bd8161137e565b840191505092915050565b6000819050919050565b6113db816113c8565b82525050565b600060808301600083015184820360008601526113fe828261138f565b91505060208301518482036020860152611418828261138f565b915050604083015161142d60408601826113d2565b50606083015161144060608601826113d2565b508091505092915050565b6000602082019050818103600083015261146581846113e1565b905092915050565b600080fd5b600060a082840312156114885761148761146d565b5b81905092915050565b6000602082840312156114a7576114a6611138565b5b600082013567ffffffffffffffff8111156114c5576114c461113d565b5b6114d184828501611472565b91505092915050565b60006114e58261123b565b9050919050565b6114f5816114da565b82525050565b600060208201905061151060008301846114ec565b92915050565b600061152182611287565b9050919050565b61153181611516565b82525050565b600060208201905061154c6000830184611528565b92915050565b61155b816114da565b811461156657600080fd5b50565b60008135905061157881611552565b92915050565b60006020828403121561159457611593611138565b5b60006115a284828501611569565b91505092915050565b60006115b682611287565b9050919050565b6115c6816115ab565b82525050565b60006020820190506115e160008301846115bd565b92915050565b600080fd5b600080fd5b600080fd5b60008083601f84011261160c5761160b6115e7565b5b8235905067ffffffffffffffff811115611629576116286115ec565b5b602083019150836020820283011115611645576116446115f1565b5b9250929050565b60008060006040848603121561166557611664611138565b5b6000611673868287016112f6565b935050602084013567ffffffffffffffff8111156116945761169361113d565b5b6116a0868287016115f6565b92509250509250925092565b6116b5816111fd565b81146116c057600080fd5b50565b6000813590506116d2816116ac565b92915050565b600080fd5b7f4e487b7100000000000000000000000000000000000000000000000000000000600052604160045260246000fd5b6117158261137e565b810181811067ffffffffffffffff82111715611734576117336116dd565b5b80604052505050565b600061174761112e565b9050611753828261170c565b919050565b600080fd5b600060408284031215611773576117726116d8565b5b61177d604061173d565b9050600061178d848285016112f6565b60008301525060206117a1848285016112f6565b60208301525092915050565b6000806000608084860312156117c6576117c5611138565b5b60006117d4868287016116c3565b93505060206117e586828701611569565b92505060406117f68682870161175d565b9150509250925092565b611809816113c8565b82525050565b60006020820190506118246000830184611800565b92915050565b611833816112d5565b82525050565b600060208201905061184e600083018461182a565b92915050565b600080fd5b600067ffffffffffffffff821115611874576118736116dd565b5b61187d8261137e565b9050602081019050919050565b600061189d61189884611859565b61173d565b9050828152602081018484840111156118b9576118b8611854565b5b6118c4848285611354565b509392505050565b600082601f8301126118e1576118e06115e7565b5b81516118f184826020860161188a565b91505092915050565b611903816113c8565b811461190e57600080fd5b50565b600081519050611920816118fa565b92915050565b60006080828403121561193c5761193b6116d8565b5b611946608061173d565b9050600082015167ffffffffffffffff81111561196657611965611758565b5b611972848285016118cc565b600083015250602082015167ffffffffffffffff81111561199657611995611758565b5b6119a2848285016118cc565b60208301525060406119b684828501611911565b60408301525060606119ca84828501611911565b60608301525092915050565b6000602082840312156119ec576119eb611138565b5b600082015167ffffffffffffffff811115611a0a57611a0961113d565b5b611a1684828501611926565b91505092915050565b600081359050611a2e816118fa565b92915050565b600067ffffffffffffffff821115611a4f57611a4e6116dd565b5b611a588261137e565b9050602081019050919050565b82818337600083830152505050565b6000611a87611a8284611a34565b61173d565b905082815260208101848484011115611aa357611aa2611854565b5b611aae848285611a65565b509392505050565b600082601f830112611acb57611aca6115e7565b5b8135611adb848260208601611a74565b91505092915050565b600067ffffffffffffffff821115611aff57611afe6116dd565b5b602082029050602081019050919050565b600060408284031215611b2657611b256116d8565b5b611b30604061173d565b90506000611b4084828501611569565b6000830152506020611b54848285016112f6565b60208301525092915050565b6000611b73611b6e84611ae4565b61173d565b90508083825260208201905060408402830185811115611b9657611b956115f1565b5b835b81811015611bbf5780611bab8882611b10565b845260208401935050604081019050611b98565b5050509392505050565b600082601f830112611bde57611bdd6115e7565b5b8135611bee848260208601611b60565b91505092915050565b600060a08284031215611c0d57611c0c6116d8565b5b611c1760a061173d565b90506000611c2784828501611a1f565b6000830152506020611c3b848285016116c3565b602083015250604082013567ffffffffffffffff811115611c5f57611c5e611758565b5b611c6b84828501611ab6565b604083015250606082013567ffffffffffffffff811115611c8f57611c8e611758565b5b611c9b84828501611ab6565b606083015250608082013567ffffffffffffffff811115611cbf57611cbe611758565b5b611ccb84828501611bc9565b60808301525092915050565b6000611ce33683611bf7565b9050919050565b600082825260208201905092915050565b7f4f776e61626c653a206e6577206f776e657220697320746865207a65726f206160008201527f6464726573730000000000000000000000000000000000000000000000000000602082015250565b6000611d57602683611cea565b9150611d6282611cfb565b604082019050919050565b60006020820190508181036000830152611d8681611d4a565b9050919050565b600081519050611d9c816112df565b92915050565b600060208284031215611db857611db7611138565b5b6000611dc684828501611d8d565b91505092915050565b6000604082019050611de460008301856114ec565b611df1602083018461182a565b9392505050565b611e01816111c7565b8114611e0c57600080fd5b50565b600081519050611e1e81611df8565b92915050565b600060208284031215611e3a57611e39611138565b5b6000611e4884828501611e0f565b91505092915050565b600082825260208201905092915050565b600080fd5b82818337505050565b6000611e7c8385611e51565b93507f07ffffffffffffffffffffffffffffffffffffffffffffffffffffffffffffff831115611eaf57611eae611e62565b5b602083029250611ec0838584611e67565b82840190509392505050565b6000604082019050611ee1600083018661182a565b8181036020830152611ef4818486611e70565b9050949350505050565b611f07816112d5565b82525050565b604082016000820151611f236000850182611efe565b506020820151611f366020850182611efe565b50505050565b6000604082019050611f516000830184611f0d565b92915050565b600081519050919050565b600082825260208201905092915050565b6000611f7e82611f57565b611f888185611f62565b9350611f98818560208601611354565b611fa18161137e565b840191505092915050565b600081519050919050565b600082825260208201905092915050565b6000819050602082019050919050565b611fe1816114da565b82525050565b604082016000820151611ffd6000850182611fd8565b5060208201516120106020850182611efe565b50505050565b60006120228383611fe7565b60408301905092915050565b6000602082019050919050565b600061204682611fac565b6120508185611fb7565b935061205b83611fc8565b8060005b8381101561208c5781516120738882612016565b975061207e8361202e565b92505060018101905061205f565b5085935050505092915050565b600060a08301600083015184820360008601526120b68282611f73565b915050602083015184820360208601526120d08282611f73565b915050604083015184820360408601526120ea828261203b565b91505060608301516120ff6060860182611fd8565b50608083015184820360808601526121178282611f73565b9150508091505092915050565b60006040820190506121396000830185611211565b818103602083015261214b8184612099565b90509392505050565b60006020828403121561216a57612169611138565b5b600061217884828501611911565b91505092915050565b7f4f776e61626c653a2063616c6c6572206973206e6f7420746865206f776e6572600082015250565b60006121b7602083611cea565b91506121c282612181565b602082019050919050565b600060208201905081810360008301526121e6816121aa565b9050919050565b60006121f88261123b565b9050919050565b612208816121ed565b811461221357600080fd5b50565b600081519050612225816121ff565b92915050565b60006020828403121561224157612240611138565b5b600061224f84828501612216565b91505092915050565b7f4e487b7100000000000000000000000000000000000000000000000000000000600052601160045260246000fd5b6000612292826112d5565b915061229d836112d5565b92508282019050808211156122b5576122b4612258565b5b92915050565b60006080820190506122d06000830187611800565b6122dd6020830186611211565b6122ea60408301856114ec565b6122f7606083018461182a565b95945050505050565b6020820160008201516123166000850182611efe565b50505050565b60006020820190506123316000830184612300565b9291505056fea264697066735822122085a0929a3c4a5c4b648587367e45c029e46fb00e4c1b9a4b6699c19547c992f864736f6c63430008180033",
  "linkReferences": {},
  "deployedLinkReferences": {}
}