{
  "_format": "hh-sol-artifact-1",
  "contractName": "MehAdV2",
  "sourceName": "contracts/MehAdV2.sol",
  "abi": [
    {
      "inputs": [
        {
          "internalType": "address",
          "name": "_mainnetContractAddress",
          "type": "address"
        },
        {
          "internalType": "address",
          "name": "_router",
          "type": "address"
        },
        {
          "internalType": "address",
          "name": "_linkTokenAddress",
          "type": "address"
        },
        {
          "internalType": "address",
          "name": "_mehTokenAddress",
          "type": "address"
        },
        {
          "internalType": "address",
          "name": "_ercAdAddress",
          "type": "address"
        }
      ],
      "stateMutability": "nonpayable",
      "type": "constructor"
    },
    {
      "inputs": [
        {
          "internalType": "address",
          "name": "router",
          "type": "address"
        }
      ],
      "name": "InvalidRouter",
      "type": "error"
    },
    {
      "anonymous": false,
      "inputs": [
        {
          "indexed": false,
          "internalType": "bytes32",
          "name": "messageId",
          "type": "bytes32"
        },
        {
          "indexed": false,
          "internalType": "uint64",
          "name": "sourceChainSelector",
          "type": "uint64"
        },
        {
          "indexed": false,
          "internalType": "address",
          "name": "sender",
          "type": "address"
        },
        {
          "indexed": false,
          "internalType": "uint256",
          "name": "balance",
          "type": "uint256"
        }
      ],
      "name": "MessageReceived",
      "type": "event"
    },
    {
      "anonymous": false,
      "inputs": [
        {
          "indexed": false,
          "internalType": "bytes32",
          "name": "messageId",
          "type": "bytes32"
        }
      ],
      "name": "MessageSent",
      "type": "event"
    },
    {
      "inputs": [
        {
          "components": [
            {
              "internalType": "bytes32",
              "name": "messageId",
              "type": "bytes32"
            },
            {
              "internalType": "uint64",
              "name": "sourceChainSelector",
              "type": "uint64"
            },
            {
              "internalType": "bytes",
              "name": "sender",
              "type": "bytes"
            },
            {
              "internalType": "bytes",
              "name": "data",
              "type": "bytes"
            },
            {
              "components": [
                {
                  "internalType": "address",
                  "name": "token",
                  "type": "address"
                },
                {
                  "internalType": "uint256",
                  "name": "amount",
                  "type": "uint256"
                }
              ],
              "internalType": "struct Client.EVMTokenAmount[]",
              "name": "destTokenAmounts",
              "type": "tuple[]"
            }
          ],
          "internalType": "struct Client.Any2EVMMessage",
          "name": "message",
          "type": "tuple"
        }
      ],
      "name": "ccipReceive",
      "outputs": [],
      "stateMutability": "nonpayable",
      "type": "function"
    },
    {
      "inputs": [
        {
          "internalType": "uint256",
          "name": "id",
          "type": "uint256"
        }
      ],
      "name": "displayAd",
      "outputs": [
        {
          "components": [
            {
              "internalType": "string",
              "name": "adURI",
              "type": "string"
            },
            {
              "internalType": "string",
              "name": "dataURI",
              "type": "string"
            },
            {
              "internalType": "bytes32",
              "name": "signatureRoot",
              "type": "bytes32"
            },
            {
              "internalType": "bytes32",
              "name": "audienceRoot",
              "type": "bytes32"
            }
          ],
          "internalType": "struct IERCAd.Ad",
          "name": "",
          "type": "tuple"
        }
      ],
      "stateMutability": "view",
      "type": "function"
    },
    {
      "inputs": [],
      "name": "ercAdContract",
      "outputs": [
        {
          "internalType": "contract IERCAd",
          "name": "",
          "type": "address"
        }
      ],
      "stateMutability": "view",
      "type": "function"
    },
    {
      "inputs": [],
      "name": "getLinkBalance",
      "outputs": [],
      "stateMutability": "nonpayable",
      "type": "function"
    },
    {
      "inputs": [],
      "name": "getRouter",
      "outputs": [
        {
          "internalType": "address",
          "name": "",
          "type": "address"
        }
      ],
      "stateMutability": "view",
      "type": "function"
    },
    {
      "inputs": [],
      "name": "linkToken",
      "outputs": [
        {
          "internalType": "contract IERC20",
          "name": "",
          "type": "address"
        }
      ],
      "stateMutability": "view",
      "type": "function"
    },
    {
      "inputs": [],
      "name": "mainnetContractAddress",
      "outputs": [
        {
          "internalType": "address",
          "name": "",
          "type": "address"
        }
      ],
      "stateMutability": "view",
      "type": "function"
    },
    {
      "inputs": [],
      "name": "mehToken",
      "outputs": [
        {
          "internalType": "contract IERC20",
          "name": "",
          "type": "address"
        }
      ],
      "stateMutability": "view",
      "type": "function"
    },
    {
      "inputs": [],
      "name": "router",
      "outputs": [
        {
          "internalType": "contract IRouterClient",
          "name": "",
          "type": "address"
        }
      ],
      "stateMutability": "view",
      "type": "function"
    },
    {
      "inputs": [
        {
          "internalType": "uint256",
          "name": "id",
          "type": "uint256"
        },
        {
          "internalType": "bytes32[]",
          "name": "proof",
          "type": "bytes32[]"
        }
      ],
      "name": "signAd",
      "outputs": [],
      "stateMutability": "nonpayable",
      "type": "function"
    },
    {
      "inputs": [
        {
          "internalType": "bytes4",
          "name": "interfaceId",
          "type": "bytes4"
        }
      ],
      "name": "supportsInterface",
      "outputs": [
        {
          "internalType": "bool",
          "name": "",
          "type": "bool"
        }
      ],
      "stateMutability": "pure",
      "type": "function"
    }
  ],
  "bytecode": "0x60a06040523480156200001157600080fd5b5060405162001e6938038062001e6983398181016040528101906200003791906200029b565b83600073ffffffffffffffffffffffffffffffffffffffff168173ffffffffffffffffffffffffffffffffffffffff1603620000ad5760006040517fd7f73334000000000000000000000000000000000000000000000000000000008152600401620000a4919062000334565b60405180910390fd5b8073ffffffffffffffffffffffffffffffffffffffff1660808173ffffffffffffffffffffffffffffffffffffffff168152505050846000806101000a81548173ffffffffffffffffffffffffffffffffffffffff021916908373ffffffffffffffffffffffffffffffffffffffff16021790555083600160006101000a81548173ffffffffffffffffffffffffffffffffffffffff021916908373ffffffffffffffffffffffffffffffffffffffff16021790555081600260006101000a81548173ffffffffffffffffffffffffffffffffffffffff021916908373ffffffffffffffffffffffffffffffffffffffff16021790555082600360006101000a81548173ffffffffffffffffffffffffffffffffffffffff021916908373ffffffffffffffffffffffffffffffffffffffff16021790555080600460006101000a81548173ffffffffffffffffffffffffffffffffffffffff021916908373ffffffffffffffffffffffffffffffffffffffff160217905550505050505062000351565b600080fd5b600073ffffffffffffffffffffffffffffffffffffffff82169050919050565b6000620002638262000236565b9050919050565b620002758162000256565b81146200028157600080fd5b50565b60008151905062000295816200026a565b92915050565b600080600080600060a08688031215620002ba57620002b962000231565b5b6000620002ca8882890162000284565b9550506020620002dd8882890162000284565b9450506040620002f08882890162000284565b9350506060620003038882890162000284565b9250506080620003168882890162000284565b9150509295509295909350565b6200032e8162000256565b82525050565b60006020820190506200034b600083018462000323565b92915050565b608051611af562000374600039600081816106a401526107710152611af56000f3fe608060405234801561001057600080fd5b50600436106100a95760003560e01c806392b9d0251161007157806392b9d02514610152578063b0f479a114610170578063c62693891461018e578063e2c2c884146101ac578063f887ea40146101ca578063fe49e833146101e8576100a9565b806301ffc9a7146100ae57806350c5f975146100de57806357970e93146100e8578063672fb9691461010657806385572ffb14610136575b600080fd5b6100c860048036038101906100c39190610b62565b610204565b6040516100d59190610baa565b60405180910390f35b6100e66102d6565b005b6100f06105cc565b6040516100fd9190610c44565b60405180910390f35b610120600480360381019061011b9190610c95565b6105f2565b60405161012d9190610dd5565b60405180910390f35b610150600480360381019061014b9190610e1b565b6106a2565b005b61015a610747565b6040516101679190610e85565b60405180910390f35b61017861076d565b6040516101859190610ec1565b60405180910390f35b610196610795565b6040516101a39190610ec1565b60405180910390f35b6101b46107b9565b6040516101c19190610c44565b60405180910390f35b6101d26107df565b6040516101df9190610efd565b60405180910390f35b61020260048036038101906101fd9190610f7d565b610805565b005b60007f85572ffb000000000000000000000000000000000000000000000000000000007bffffffffffffffffffffffffffffffffffffffffffffffffffffffff1916827bffffffffffffffffffffffffffffffffffffffffffffffffffffffff191614806102cf57507f01ffc9a7000000000000000000000000000000000000000000000000000000007bffffffffffffffffffffffffffffffffffffffffffffffffffffffff1916827bffffffffffffffffffffffffffffffffffffffffffffffffffffffff1916145b9050919050565b60006040516024016040516020818303038152906040527f50c5f975000000000000000000000000000000000000000000000000000000007bffffffffffffffffffffffffffffffffffffffffffffffffffffffff19166020820180517bffffffffffffffffffffffffffffffffffffffffffffffffffffffff8381831617835250505050905060008067ffffffffffffffff81111561037957610378610fdd565b5b6040519080825280602002602001820160405280156103b257816020015b61039f610a98565b8152602001906001900390816103975790505b50905060006040518060a0016040528060008054906101000a900473ffffffffffffffffffffffffffffffffffffffff166040516020016103f39190610ec1565b6040516020818303038152906040528152602001848152602001838152602001600073ffffffffffffffffffffffffffffffffffffffff1681526020016040518060200160405280600081525081525090506000600160009054906101000a900473ffffffffffffffffffffffffffffffffffffffff1673ffffffffffffffffffffffffffffffffffffffff166320487ded6000846040518363ffffffff1660e01b81526004016104a5929190611237565b602060405180830381865afa1580156104c2573d6000803e3d6000fd5b505050506040513d601f19601f820116820180604052508101906104e6919061127c565b90506000600160009054906101000a900473ffffffffffffffffffffffffffffffffffffffff1673ffffffffffffffffffffffffffffffffffffffff166396f4e9f9836000866040518463ffffffff1660e01b8152600401610549929190611237565b60206040518083038185885af1158015610567573d6000803e3d6000fd5b50505050506040513d601f19601f8201168201806040525081019061058c91906112d5565b90507f54791b38f3859327992a1ca0590ad3c0f08feba98d1a4f56ab0dca74d203392a816040516105bd9190611311565b60405180910390a15050505050565b600360009054906101000a900473ffffffffffffffffffffffffffffffffffffffff1681565b6105fa610ac8565b600460009054906101000a900473ffffffffffffffffffffffffffffffffffffffff1673ffffffffffffffffffffffffffffffffffffffff1663672fb969836040518263ffffffff1660e01b8152600401610655919061133b565b600060405180830381865afa158015610672573d6000803e3d6000fd5b505050506040513d6000823e3d601f19601f8201168201806040525081019061069b9190611502565b9050919050565b7f000000000000000000000000000000000000000000000000000000000000000073ffffffffffffffffffffffffffffffffffffffff163373ffffffffffffffffffffffffffffffffffffffff161461073257336040517fd7f733340000000000000000000000000000000000000000000000000000000081526004016107299190610ec1565b60405180910390fd5b6107448161073f9061185b565b61089b565b50565b600460009054906101000a900473ffffffffffffffffffffffffffffffffffffffff1681565b60007f0000000000000000000000000000000000000000000000000000000000000000905090565b60008054906101000a900473ffffffffffffffffffffffffffffffffffffffff1681565b600260009054906101000a900473ffffffffffffffffffffffffffffffffffffffff1681565b600160009054906101000a900473ffffffffffffffffffffffffffffffffffffffff1681565b600460009054906101000a900473ffffffffffffffffffffffffffffffffffffffff1673ffffffffffffffffffffffffffffffffffffffff1663fe49e8338484846040518463ffffffff1660e01b8152600401610864939291906118e9565b600060405180830381600087803b15801561087e57600080fd5b505af1158015610892573d6000803e3d6000fd5b50505050505050565b600081606001518060200190518101906108b5919061127c565b9050600082604001518060200190518101906108d19190611959565b9050600360009054906101000a900473ffffffffffffffffffffffffffffffffffffffff1673ffffffffffffffffffffffffffffffffffffffff166370a08231306040518263ffffffff1660e01b815260040161092e9190610ec1565b602060405180830381865afa15801561094b573d6000803e3d6000fd5b505050506040513d601f19601f8201168201806040525081019061096f919061127c565b8261097a91906119b5565b915060006969e10de76676d08000009050600183106109ac576934f086f3b33b68400000816109a991906119b5565b90505b600260009054906101000a900473ffffffffffffffffffffffffffffffffffffffff1673ffffffffffffffffffffffffffffffffffffffff1663a9059cbb33836040518363ffffffff1660e01b8152600401610a099291906119e9565b6020604051808303816000875af1158015610a28573d6000803e3d6000fd5b505050506040513d601f19601f82011682018060405250810190610a4c9190611a3e565b507f9e0cedd023f625fb8db19f2eb903c24aa1a45f05fd9ef9431a80505ad65e30fe846000015185602001518486604051610a8a9493929190611a7a565b60405180910390a150505050565b6040518060400160405280600073ffffffffffffffffffffffffffffffffffffffff168152602001600081525090565b6040518060800160405280606081526020016060815260200160008019168152602001600080191681525090565b6000604051905090565b600080fd5b600080fd5b60007fffffffff0000000000000000000000000000000000000000000000000000000082169050919050565b610b3f81610b0a565b8114610b4a57600080fd5b50565b600081359050610b5c81610b36565b92915050565b600060208284031215610b7857610b77610b00565b5b6000610b8684828501610b4d565b91505092915050565b60008115159050919050565b610ba481610b8f565b82525050565b6000602082019050610bbf6000830184610b9b565b92915050565b600073ffffffffffffffffffffffffffffffffffffffff82169050919050565b6000819050919050565b6000610c0a610c05610c0084610bc5565b610be5565b610bc5565b9050919050565b6000610c1c82610bef565b9050919050565b6000610c2e82610c11565b9050919050565b610c3e81610c23565b82525050565b6000602082019050610c596000830184610c35565b92915050565b6000819050919050565b610c7281610c5f565b8114610c7d57600080fd5b50565b600081359050610c8f81610c69565b92915050565b600060208284031215610cab57610caa610b00565b5b6000610cb984828501610c80565b91505092915050565b600081519050919050565b600082825260208201905092915050565b60005b83811015610cfc578082015181840152602081019050610ce1565b60008484015250505050565b6000601f19601f8301169050919050565b6000610d2482610cc2565b610d2e8185610ccd565b9350610d3e818560208601610cde565b610d4781610d08565b840191505092915050565b6000819050919050565b610d6581610d52565b82525050565b60006080830160008301518482036000860152610d888282610d19565b91505060208301518482036020860152610da28282610d19565b9150506040830151610db76040860182610d5c565b506060830151610dca6060860182610d5c565b508091505092915050565b60006020820190508181036000830152610def8184610d6b565b905092915050565b600080fd5b600060a08284031215610e1257610e11610df7565b5b81905092915050565b600060208284031215610e3157610e30610b00565b5b600082013567ffffffffffffffff811115610e4f57610e4e610b05565b5b610e5b84828501610dfc565b91505092915050565b6000610e6f82610c11565b9050919050565b610e7f81610e64565b82525050565b6000602082019050610e9a6000830184610e76565b92915050565b6000610eab82610bc5565b9050919050565b610ebb81610ea0565b82525050565b6000602082019050610ed66000830184610eb2565b92915050565b6000610ee782610c11565b9050919050565b610ef781610edc565b82525050565b6000602082019050610f126000830184610eee565b92915050565b600080fd5b600080fd5b600080fd5b60008083601f840112610f3d57610f3c610f18565b5b8235905067ffffffffffffffff811115610f5a57610f59610f1d565b5b602083019150836020820283011115610f7657610f75610f22565b5b9250929050565b600080600060408486031215610f9657610f95610b00565b5b6000610fa486828701610c80565b935050602084013567ffffffffffffffff811115610fc557610fc4610b05565b5b610fd186828701610f27565b92509250509250925092565b7f4e487b7100000000000000000000000000000000000000000000000000000000600052604160045260246000fd5b6000819050919050565b600067ffffffffffffffff82169050919050565b600061104561104061103b8461100c565b610be5565b611016565b9050919050565b6110558161102a565b82525050565b600081519050919050565b600082825260208201905092915050565b60006110828261105b565b61108c8185611066565b935061109c818560208601610cde565b6110a581610d08565b840191505092915050565b600081519050919050565b600082825260208201905092915050565b6000819050602082019050919050565b6110e581610ea0565b82525050565b6110f481610c5f565b82525050565b60408201600082015161111060008501826110dc565b50602082015161112360208501826110eb565b50505050565b600061113583836110fa565b60408301905092915050565b6000602082019050919050565b6000611159826110b0565b61116381856110bb565b935061116e836110cc565b8060005b8381101561119f5781516111868882611129565b975061119183611141565b925050600181019050611172565b5085935050505092915050565b600060a08301600083015184820360008601526111c98282611077565b915050602083015184820360208601526111e38282611077565b915050604083015184820360408601526111fd828261114e565b915050606083015161121260608601826110dc565b506080830151848203608086015261122a8282611077565b9150508091505092915050565b600060408201905061124c600083018561104c565b818103602083015261125e81846111ac565b90509392505050565b60008151905061127681610c69565b92915050565b60006020828403121561129257611291610b00565b5b60006112a084828501611267565b91505092915050565b6112b281610d52565b81146112bd57600080fd5b50565b6000815190506112cf816112a9565b92915050565b6000602082840312156112eb576112ea610b00565b5b60006112f9848285016112c0565b91505092915050565b61130b81610d52565b82525050565b60006020820190506113266000830184611302565b92915050565b61133581610c5f565b82525050565b6000602082019050611350600083018461132c565b92915050565b600080fd5b61136482610d08565b810181811067ffffffffffffffff8211171561138357611382610fdd565b5b80604052505050565b6000611396610af6565b90506113a2828261135b565b919050565b600080fd5b600080fd5b600067ffffffffffffffff8211156113cc576113cb610fdd565b5b6113d582610d08565b9050602081019050919050565b60006113f56113f0846113b1565b61138c565b905082815260208101848484011115611411576114106113ac565b5b61141c848285610cde565b509392505050565b600082601f83011261143957611438610f18565b5b81516114498482602086016113e2565b91505092915050565b60006080828403121561146857611467611356565b5b611472608061138c565b9050600082015167ffffffffffffffff811115611492576114916113a7565b5b61149e84828501611424565b600083015250602082015167ffffffffffffffff8111156114c2576114c16113a7565b5b6114ce84828501611424565b60208301525060406114e2848285016112c0565b60408301525060606114f6848285016112c0565b60608301525092915050565b60006020828403121561151857611517610b00565b5b600082015167ffffffffffffffff81111561153657611535610b05565b5b61154284828501611452565b91505092915050565b60008135905061155a816112a9565b92915050565b61156981611016565b811461157457600080fd5b50565b60008135905061158681611560565b92915050565b600067ffffffffffffffff8211156115a7576115a6610fdd565b5b6115b082610d08565b9050602081019050919050565b82818337600083830152505050565b60006115df6115da8461158c565b61138c565b9050828152602081018484840111156115fb576115fa6113ac565b5b6116068482856115bd565b509392505050565b600082601f83011261162357611622610f18565b5b81356116338482602086016115cc565b91505092915050565b600067ffffffffffffffff82111561165757611656610fdd565b5b602082029050602081019050919050565b61167181610ea0565b811461167c57600080fd5b50565b60008135905061168e81611668565b92915050565b6000604082840312156116aa576116a9611356565b5b6116b4604061138c565b905060006116c48482850161167f565b60008301525060206116d884828501610c80565b60208301525092915050565b60006116f76116f28461163c565b61138c565b9050808382526020820190506040840283018581111561171a57611719610f22565b5b835b81811015611743578061172f8882611694565b84526020840193505060408101905061171c565b5050509392505050565b600082601f83011261176257611761610f18565b5b81356117728482602086016116e4565b91505092915050565b600060a0828403121561179157611790611356565b5b61179b60a061138c565b905060006117ab8482850161154b565b60008301525060206117bf84828501611577565b602083015250604082013567ffffffffffffffff8111156117e3576117e26113a7565b5b6117ef8482850161160e565b604083015250606082013567ffffffffffffffff811115611813576118126113a7565b5b61181f8482850161160e565b606083015250608082013567ffffffffffffffff811115611843576118426113a7565b5b61184f8482850161174d565b60808301525092915050565b6000611867368361177b565b9050919050565b600082825260208201905092915050565b600080fd5b82818337505050565b6000611899838561186e565b93507f07ffffffffffffffffffffffffffffffffffffffffffffffffffffffffffffff8311156118cc576118cb61187f565b5b6020830292506118dd838584611884565b82840190509392505050565b60006040820190506118fe600083018661132c565b818103602083015261191181848661188d565b9050949350505050565b600061192682610bc5565b9050919050565b6119368161191b565b811461194157600080fd5b50565b6000815190506119538161192d565b92915050565b60006020828403121561196f5761196e610b00565b5b600061197d84828501611944565b91505092915050565b7f4e487b7100000000000000000000000000000000000000000000000000000000600052601160045260246000fd5b60006119c082610c5f565b91506119cb83610c5f565b92508282019050808211156119e3576119e2611986565b5b92915050565b60006040820190506119fe6000830185610eb2565b611a0b602083018461132c565b9392505050565b611a1b81610b8f565b8114611a2657600080fd5b50565b600081519050611a3881611a12565b92915050565b600060208284031215611a5457611a53610b00565b5b6000611a6284828501611a29565b91505092915050565b611a7481611016565b82525050565b6000608082019050611a8f6000830187611302565b611a9c6020830186611a6b565b611aa96040830185610eb2565b611ab6606083018461132c565b9594505050505056fea264697066735822122070284352c525b9aa0ebb5449c0cc0a174389ee48ae4b76800146ab495ee74b7164736f6c63430008180033",
  "linkReferences": {},
  "deployedLinkReferences": {}
}