{
  "_format": "hh-sol-artifact-1",
  "contractName": "MehAdV2",
  "sourceName": "contracts/MehAdV2.sol",
  "abi": [
    {
      "inputs": [
        {
          "internalType": "address",
          "name": "_baseContractAddress",
          "type": "address"
        },
        {
          "internalType": "address",
          "name": "_router",
          "type": "address"
        },
        {
          "internalType": "address",
          "name": "_linkTokenAddress",
          "type": "address"
        },
        {
          "internalType": "address",
          "name": "_ercAdAddress",
          "type": "address"
        },
        {
          "internalType": "uint64",
          "name": "_destinationChainSelector",
          "type": "uint64"
        }
      ],
      "stateMutability": "nonpayable",
      "type": "constructor"
    },
    {
      "anonymous": false,
      "inputs": [
        {
          "indexed": false,
          "internalType": "bytes32",
          "name": "messageId",
          "type": "bytes32"
        },
        {
          "indexed": false,
          "internalType": "address",
          "name": "sender",
          "type": "address"
        },
        {
          "indexed": false,
          "internalType": "uint256",
          "name": "fees",
          "type": "uint256"
        }
      ],
      "name": "MessageSent",
      "type": "event"
    },
    {
      "anonymous": false,
      "inputs": [
        {
          "indexed": true,
          "internalType": "address",
          "name": "previousOwner",
          "type": "address"
        },
        {
          "indexed": true,
          "internalType": "address",
          "name": "newOwner",
          "type": "address"
        }
      ],
      "name": "OwnershipTransferred",
      "type": "event"
    },
    {
      "inputs": [],
      "name": "baseContractAddress",
      "outputs": [
        {
          "internalType": "address",
          "name": "",
          "type": "address"
        }
      ],
      "stateMutability": "view",
      "type": "function"
    },
    {
      "inputs": [],
      "name": "destinationChainSelector",
      "outputs": [
        {
          "internalType": "uint64",
          "name": "",
          "type": "uint64"
        }
      ],
      "stateMutability": "view",
      "type": "function"
    },
    {
      "inputs": [
        {
          "internalType": "uint256",
          "name": "id",
          "type": "uint256"
        }
      ],
      "name": "displayAd",
      "outputs": [
        {
          "components": [
            {
              "internalType": "string",
              "name": "adURI",
              "type": "string"
            },
            {
              "internalType": "string",
              "name": "dataURI",
              "type": "string"
            },
            {
              "internalType": "bytes32",
              "name": "signatureRoot",
              "type": "bytes32"
            },
            {
              "internalType": "bytes32",
              "name": "audienceRoot",
              "type": "bytes32"
            }
          ],
          "internalType": "struct IERCAd.Ad",
          "name": "",
          "type": "tuple"
        }
      ],
      "stateMutability": "view",
      "type": "function"
    },
    {
      "inputs": [],
      "name": "ercAdContract",
      "outputs": [
        {
          "internalType": "contract IERCAd",
          "name": "",
          "type": "address"
        }
      ],
      "stateMutability": "view",
      "type": "function"
    },
    {
      "inputs": [],
      "name": "linkToken",
      "outputs": [
        {
          "internalType": "contract IERC20",
          "name": "",
          "type": "address"
        }
      ],
      "stateMutability": "view",
      "type": "function"
    },
    {
      "inputs": [],
      "name": "owner",
      "outputs": [
        {
          "internalType": "address",
          "name": "",
          "type": "address"
        }
      ],
      "stateMutability": "view",
      "type": "function"
    },
    {
      "inputs": [],
      "name": "renounceOwnership",
      "outputs": [],
      "stateMutability": "nonpayable",
      "type": "function"
    },
    {
      "inputs": [],
      "name": "router",
      "outputs": [
        {
          "internalType": "contract IRouterClient",
          "name": "",
          "type": "address"
        }
      ],
      "stateMutability": "view",
      "type": "function"
    },
    {
      "inputs": [
        {
          "internalType": "uint64",
          "name": "destinationChainSelector",
          "type": "uint64"
        },
        {
          "internalType": "address",
          "name": "receiver",
          "type": "address"
        },
        {
          "components": [
            {
              "internalType": "uint256",
              "name": "eth",
              "type": "uint256"
            },
            {
              "internalType": "uint256",
              "name": "link",
              "type": "uint256"
            }
          ],
          "internalType": "struct MehAdV2.CrossChainCapital",
          "name": "message",
          "type": "tuple"
        }
      ],
      "name": "sendMessage",
      "outputs": [
        {
          "internalType": "bytes32",
          "name": "messageId",
          "type": "bytes32"
        }
      ],
      "stateMutability": "nonpayable",
      "type": "function"
    },
    {
      "inputs": [
        {
          "internalType": "uint256",
          "name": "id",
          "type": "uint256"
        },
        {
          "internalType": "bytes32[]",
          "name": "proof",
          "type": "bytes32[]"
        }
      ],
      "name": "signAd",
      "outputs": [],
      "stateMutability": "nonpayable",
      "type": "function"
    },
    {
      "inputs": [
        {
          "internalType": "address",
          "name": "newOwner",
          "type": "address"
        }
      ],
      "name": "transferOwnership",
      "outputs": [],
      "stateMutability": "nonpayable",
      "type": "function"
    },
    {
      "stateMutability": "payable",
      "type": "receive"
    }
  ],
  "bytecode": "0x60806040523480156200001157600080fd5b5060405162001b7c38038062001b7c83398181016040528101906200003791906200030a565b620000576200004b6200018f60201b60201c565b6200019760201b60201c565b84600160006101000a81548173ffffffffffffffffffffffffffffffffffffffff021916908373ffffffffffffffffffffffffffffffffffffffff16021790555083600260006101000a81548173ffffffffffffffffffffffffffffffffffffffff021916908373ffffffffffffffffffffffffffffffffffffffff16021790555082600360006101000a81548173ffffffffffffffffffffffffffffffffffffffff021916908373ffffffffffffffffffffffffffffffffffffffff16021790555081600460006101000a81548173ffffffffffffffffffffffffffffffffffffffff021916908373ffffffffffffffffffffffffffffffffffffffff16021790555080600460146101000a81548167ffffffffffffffff021916908367ffffffffffffffff160217905550505050505062000392565b600033905090565b60008060009054906101000a900473ffffffffffffffffffffffffffffffffffffffff169050816000806101000a81548173ffffffffffffffffffffffffffffffffffffffff021916908373ffffffffffffffffffffffffffffffffffffffff1602179055508173ffffffffffffffffffffffffffffffffffffffff168173ffffffffffffffffffffffffffffffffffffffff167f8be0079c531659141344cd1fd0a4f28419497f9722a3daafe3b4186f6b6457e060405160405180910390a35050565b600080fd5b600073ffffffffffffffffffffffffffffffffffffffff82169050919050565b60006200028d8262000260565b9050919050565b6200029f8162000280565b8114620002ab57600080fd5b50565b600081519050620002bf8162000294565b92915050565b600067ffffffffffffffff82169050919050565b620002e481620002c5565b8114620002f057600080fd5b50565b6000815190506200030481620002d9565b92915050565b600080600080600060a086880312156200032957620003286200025b565b5b60006200033988828901620002ae565b95505060206200034c88828901620002ae565b94505060406200035f88828901620002ae565b93505060606200037288828901620002ae565b92505060806200038588828901620002f3565b9150509295509295909350565b6117da80620003a26000396000f3fe6080604052600436106100a05760003560e01c80638da5cb5b116100645780638da5cb5b1461018157806392b9d025146101ac578063f2fde38b146101d7578063f887ea4014610200578063fe49e8331461022b578063fece27a314610254576100a7565b806331db1ffc146100ac57806357970e93146100d75780635f1ca70114610102578063672fb9691461012d578063715018a61461016a576100a7565b366100a757005b600080fd5b3480156100b857600080fd5b506100c1610291565b6040516100ce9190610b0f565b60405180910390f35b3480156100e357600080fd5b506100ec6102ab565b6040516100f99190610ba9565b60405180910390f35b34801561010e57600080fd5b506101176102d1565b6040516101249190610be5565b60405180910390f35b34801561013957600080fd5b50610154600480360381019061014f9190610c4a565b6102f7565b6040516101619190610d8a565b60405180910390f35b34801561017657600080fd5b5061017f6103a7565b005b34801561018d57600080fd5b506101966103bb565b6040516101a39190610be5565b60405180910390f35b3480156101b857600080fd5b506101c16103e4565b6040516101ce9190610dcd565b60405180910390f35b3480156101e357600080fd5b506101fe60048036038101906101f99190610e14565b61040a565b005b34801561020c57600080fd5b5061021561048d565b6040516102229190610e62565b60405180910390f35b34801561023757600080fd5b50610252600480360381019061024d9190610ee2565b6104b3565b005b34801561026057600080fd5b5061027b60048036038101906102769190611043565b61064e565b60405161028891906110a5565b60405180910390f35b600460149054906101000a900467ffffffffffffffff1681565b600360009054906101000a900473ffffffffffffffffffffffffffffffffffffffff1681565b600160009054906101000a900473ffffffffffffffffffffffffffffffffffffffff1681565b6102ff610a8e565b600460009054906101000a900473ffffffffffffffffffffffffffffffffffffffff1673ffffffffffffffffffffffffffffffffffffffff1663672fb969836040518263ffffffff1660e01b815260040161035a91906110cf565b600060405180830381865afa158015610377573d6000803e3d6000fd5b505050506040513d6000823e3d601f19601f820116820180604052508101906103a0919061126c565b9050919050565b6103af6108c5565b6103b96000610943565b565b60008060009054906101000a900473ffffffffffffffffffffffffffffffffffffffff16905090565b600460009054906101000a900473ffffffffffffffffffffffffffffffffffffffff1681565b6104126108c5565b600073ffffffffffffffffffffffffffffffffffffffff168173ffffffffffffffffffffffffffffffffffffffff1603610481576040517f08c379a000000000000000000000000000000000000000000000000000000000815260040161047890611338565b60405180910390fd5b61048a81610943565b50565b600260009054906101000a900473ffffffffffffffffffffffffffffffffffffffff1681565b600460009054906101000a900473ffffffffffffffffffffffffffffffffffffffff1673ffffffffffffffffffffffffffffffffffffffff1663fe49e8338484846040518463ffffffff1660e01b8152600401610512939291906113d3565b600060405180830381600087803b15801561052c57600080fd5b505af1158015610540573d6000803e3d6000fd5b5050505060004790506000600360009054906101000a900473ffffffffffffffffffffffffffffffffffffffff1673ffffffffffffffffffffffffffffffffffffffff166370a08231306040518263ffffffff1660e01b81526004016105a69190610be5565b602060405180830381865afa1580156105c3573d6000803e3d6000fd5b505050506040513d601f19601f820116820180604052508101906105e7919061141a565b905060006040518060400160405280848152602001838152509050610645600460149054906101000a900467ffffffffffffffff16600160009054906101000a900473ffffffffffffffffffffffffffffffffffffffff168361064e565b50505050505050565b6000806040518060a001604052808560405160200161066d9190610be5565b6040516020818303038152906040528152602001846040516020016106929190611485565b6040516020818303038152906040528152602001600067ffffffffffffffff8111156106c1576106c0610f73565b5b6040519080825280602002602001820160405280156106fa57816020015b6106e7610abc565b8152602001906001900390816106df5790505b508152602001600073ffffffffffffffffffffffffffffffffffffffff168152602001610737604051806020016040528062061a80815250610a07565b81525090506000600260009054906101000a900473ffffffffffffffffffffffffffffffffffffffff1673ffffffffffffffffffffffffffffffffffffffff166320487ded87846040518363ffffffff1660e01b815260040161079b92919061166d565b602060405180830381865afa1580156107b8573d6000803e3d6000fd5b505050506040513d601f19601f820116820180604052508101906107dc919061141a565b9050600260009054906101000a900473ffffffffffffffffffffffffffffffffffffffff1673ffffffffffffffffffffffffffffffffffffffff166396f4e9f98288856040518463ffffffff1660e01b815260040161083c92919061166d565b60206040518083038185885af115801561085a573d6000803e3d6000fd5b50505050506040513d601f19601f8201168201806040525081019061087f919061169d565b92507f75fd0efc5a2f31d8a767b97de6a7f5b89bb2ddd3168651fe4b1cbfc683074f678333836040516108b4939291906116ca565b60405180910390a150509392505050565b6108cd610a86565b73ffffffffffffffffffffffffffffffffffffffff166108eb6103bb565b73ffffffffffffffffffffffffffffffffffffffff1614610941576040517f08c379a00000000000000000000000000000000000000000000000000000000081526004016109389061174d565b60405180910390fd5b565b60008060009054906101000a900473ffffffffffffffffffffffffffffffffffffffff169050816000806101000a81548173ffffffffffffffffffffffffffffffffffffffff021916908373ffffffffffffffffffffffffffffffffffffffff1602179055508173ffffffffffffffffffffffffffffffffffffffff168173ffffffffffffffffffffffffffffffffffffffff167f8be0079c531659141344cd1fd0a4f28419497f9722a3daafe3b4186f6b6457e060405160405180910390a35050565b60606397a657c960e01b82604051602401610a229190611789565b604051602081830303815290604052907bffffffffffffffffffffffffffffffffffffffffffffffffffffffff19166020820180517bffffffffffffffffffffffffffffffffffffffffffffffffffffffff83818316178352505050509050919050565b600033905090565b6040518060800160405280606081526020016060815260200160008019168152602001600080191681525090565b6040518060400160405280600073ffffffffffffffffffffffffffffffffffffffff168152602001600081525090565b600067ffffffffffffffff82169050919050565b610b0981610aec565b82525050565b6000602082019050610b246000830184610b00565b92915050565b600073ffffffffffffffffffffffffffffffffffffffff82169050919050565b6000819050919050565b6000610b6f610b6a610b6584610b2a565b610b4a565b610b2a565b9050919050565b6000610b8182610b54565b9050919050565b6000610b9382610b76565b9050919050565b610ba381610b88565b82525050565b6000602082019050610bbe6000830184610b9a565b92915050565b6000610bcf82610b2a565b9050919050565b610bdf81610bc4565b82525050565b6000602082019050610bfa6000830184610bd6565b92915050565b6000604051905090565b600080fd5b600080fd5b6000819050919050565b610c2781610c14565b8114610c3257600080fd5b50565b600081359050610c4481610c1e565b92915050565b600060208284031215610c6057610c5f610c0a565b5b6000610c6e84828501610c35565b91505092915050565b600081519050919050565b600082825260208201905092915050565b60005b83811015610cb1578082015181840152602081019050610c96565b60008484015250505050565b6000601f19601f8301169050919050565b6000610cd982610c77565b610ce38185610c82565b9350610cf3818560208601610c93565b610cfc81610cbd565b840191505092915050565b6000819050919050565b610d1a81610d07565b82525050565b60006080830160008301518482036000860152610d3d8282610cce565b91505060208301518482036020860152610d578282610cce565b9150506040830151610d6c6040860182610d11565b506060830151610d7f6060860182610d11565b508091505092915050565b60006020820190508181036000830152610da48184610d20565b905092915050565b6000610db782610b76565b9050919050565b610dc781610dac565b82525050565b6000602082019050610de26000830184610dbe565b92915050565b610df181610bc4565b8114610dfc57600080fd5b50565b600081359050610e0e81610de8565b92915050565b600060208284031215610e2a57610e29610c0a565b5b6000610e3884828501610dff565b91505092915050565b6000610e4c82610b76565b9050919050565b610e5c81610e41565b82525050565b6000602082019050610e776000830184610e53565b92915050565b600080fd5b600080fd5b600080fd5b60008083601f840112610ea257610ea1610e7d565b5b8235905067ffffffffffffffff811115610ebf57610ebe610e82565b5b602083019150836020820283011115610edb57610eda610e87565b5b9250929050565b600080600060408486031215610efb57610efa610c0a565b5b6000610f0986828701610c35565b935050602084013567ffffffffffffffff811115610f2a57610f29610c0f565b5b610f3686828701610e8c565b92509250509250925092565b610f4b81610aec565b8114610f5657600080fd5b50565b600081359050610f6881610f42565b92915050565b600080fd5b7f4e487b7100000000000000000000000000000000000000000000000000000000600052604160045260246000fd5b610fab82610cbd565b810181811067ffffffffffffffff82111715610fca57610fc9610f73565b5b80604052505050565b6000610fdd610c00565b9050610fe98282610fa2565b919050565b600080fd5b60006040828403121561100957611008610f6e565b5b6110136040610fd3565b9050600061102384828501610c35565b600083015250602061103784828501610c35565b60208301525092915050565b60008060006080848603121561105c5761105b610c0a565b5b600061106a86828701610f59565b935050602061107b86828701610dff565b925050604061108c86828701610ff3565b9150509250925092565b61109f81610d07565b82525050565b60006020820190506110ba6000830184611096565b92915050565b6110c981610c14565b82525050565b60006020820190506110e460008301846110c0565b92915050565b600080fd5b600067ffffffffffffffff82111561110a57611109610f73565b5b61111382610cbd565b9050602081019050919050565b600061113361112e846110ef565b610fd3565b90508281526020810184848401111561114f5761114e6110ea565b5b61115a848285610c93565b509392505050565b600082601f83011261117757611176610e7d565b5b8151611187848260208601611120565b91505092915050565b61119981610d07565b81146111a457600080fd5b50565b6000815190506111b681611190565b92915050565b6000608082840312156111d2576111d1610f6e565b5b6111dc6080610fd3565b9050600082015167ffffffffffffffff8111156111fc576111fb610fee565b5b61120884828501611162565b600083015250602082015167ffffffffffffffff81111561122c5761122b610fee565b5b61123884828501611162565b602083015250604061124c848285016111a7565b6040830152506060611260848285016111a7565b60608301525092915050565b60006020828403121561128257611281610c0a565b5b600082015167ffffffffffffffff8111156112a05761129f610c0f565b5b6112ac848285016111bc565b91505092915050565b600082825260208201905092915050565b7f4f776e61626c653a206e6577206f776e657220697320746865207a65726f206160008201527f6464726573730000000000000000000000000000000000000000000000000000602082015250565b60006113226026836112b5565b915061132d826112c6565b604082019050919050565b6000602082019050818103600083015261135181611315565b9050919050565b600082825260208201905092915050565b600080fd5b82818337505050565b60006113838385611358565b93507f07ffffffffffffffffffffffffffffffffffffffffffffffffffffffffffffff8311156113b6576113b5611369565b5b6020830292506113c783858461136e565b82840190509392505050565b60006040820190506113e860008301866110c0565b81810360208301526113fb818486611377565b9050949350505050565b60008151905061141481610c1e565b92915050565b6000602082840312156114305761142f610c0a565b5b600061143e84828501611405565b91505092915050565b61145081610c14565b82525050565b60408201600082015161146c6000850182611447565b50602082015161147f6020850182611447565b50505050565b600060408201905061149a6000830184611456565b92915050565b600081519050919050565b600082825260208201905092915050565b60006114c7826114a0565b6114d181856114ab565b93506114e1818560208601610c93565b6114ea81610cbd565b840191505092915050565b600081519050919050565b600082825260208201905092915050565b6000819050602082019050919050565b61152a81610bc4565b82525050565b6040820160008201516115466000850182611521565b5060208201516115596020850182611447565b50505050565b600061156b8383611530565b60408301905092915050565b6000602082019050919050565b600061158f826114f5565b6115998185611500565b93506115a483611511565b8060005b838110156115d55781516115bc888261155f565b97506115c783611577565b9250506001810190506115a8565b5085935050505092915050565b600060a08301600083015184820360008601526115ff82826114bc565b9150506020830151848203602086015261161982826114bc565b915050604083015184820360408601526116338282611584565b91505060608301516116486060860182611521565b506080830151848203608086015261166082826114bc565b9150508091505092915050565b60006040820190506116826000830185610b00565b818103602083015261169481846115e2565b90509392505050565b6000602082840312156116b3576116b2610c0a565b5b60006116c1848285016111a7565b91505092915050565b60006060820190506116df6000830186611096565b6116ec6020830185610bd6565b6116f960408301846110c0565b949350505050565b7f4f776e61626c653a2063616c6c6572206973206e6f7420746865206f776e6572600082015250565b60006117376020836112b5565b915061174282611701565b602082019050919050565b600060208201905081810360008301526117668161172a565b9050919050565b6020820160008201516117836000850182611447565b50505050565b600060208201905061179e600083018461176d565b9291505056fea26469706673582212203b515ca258c2c954220a9c4a5ee89b88f9fabfa7e19fa8c436927e0e86f018d564736f6c63430008180033",
  "linkReferences": {},
  "deployedLinkReferences": {}
}