{
  "_format": "hh-sol-artifact-1",
  "contractName": "MehAdV2",
  "sourceName": "contracts/MehAdV2.sol",
  "abi": [
    {
      "inputs": [
        {
          "internalType": "address",
          "name": "_mainnetContractAddress",
          "type": "address"
        },
        {
          "internalType": "address",
          "name": "_router",
          "type": "address"
        },
        {
          "internalType": "address",
          "name": "_linkTokenAddress",
          "type": "address"
        },
        {
          "internalType": "address",
          "name": "_mehTokenAddress",
          "type": "address"
        },
        {
          "internalType": "address",
          "name": "_ercAdAddress",
          "type": "address"
        },
        {
          "internalType": "uint64",
          "name": "_destinationChainSelector",
          "type": "uint64"
        }
      ],
      "stateMutability": "nonpayable",
      "type": "constructor"
    },
    {
      "inputs": [
        {
          "internalType": "address",
          "name": "router",
          "type": "address"
        }
      ],
      "name": "InvalidRouter",
      "type": "error"
    },
    {
      "anonymous": false,
      "inputs": [
        {
          "indexed": false,
          "internalType": "string",
          "name": "reason",
          "type": "string"
        }
      ],
      "name": "ErrorOccurred",
      "type": "event"
    },
    {
      "anonymous": false,
      "inputs": [
        {
          "indexed": false,
          "internalType": "bytes32",
          "name": "messageId",
          "type": "bytes32"
        },
        {
          "indexed": false,
          "internalType": "uint64",
          "name": "sourceChainSelector",
          "type": "uint64"
        },
        {
          "indexed": false,
          "internalType": "address",
          "name": "sender",
          "type": "address"
        },
        {
          "indexed": false,
          "internalType": "uint256",
          "name": "balance",
          "type": "uint256"
        }
      ],
      "name": "MessageReceived",
      "type": "event"
    },
    {
      "anonymous": false,
      "inputs": [
        {
          "indexed": false,
          "internalType": "bytes32",
          "name": "messageId",
          "type": "bytes32"
        }
      ],
      "name": "MessageSent",
      "type": "event"
    },
    {
      "inputs": [
        {
          "components": [
            {
              "internalType": "bytes32",
              "name": "messageId",
              "type": "bytes32"
            },
            {
              "internalType": "uint64",
              "name": "sourceChainSelector",
              "type": "uint64"
            },
            {
              "internalType": "bytes",
              "name": "sender",
              "type": "bytes"
            },
            {
              "internalType": "bytes",
              "name": "data",
              "type": "bytes"
            },
            {
              "components": [
                {
                  "internalType": "address",
                  "name": "token",
                  "type": "address"
                },
                {
                  "internalType": "uint256",
                  "name": "amount",
                  "type": "uint256"
                }
              ],
              "internalType": "struct Client.EVMTokenAmount[]",
              "name": "destTokenAmounts",
              "type": "tuple[]"
            }
          ],
          "internalType": "struct Client.Any2EVMMessage",
          "name": "message",
          "type": "tuple"
        }
      ],
      "name": "ccipReceive",
      "outputs": [],
      "stateMutability": "nonpayable",
      "type": "function"
    },
    {
      "inputs": [],
      "name": "destinationChainSelector",
      "outputs": [
        {
          "internalType": "uint64",
          "name": "",
          "type": "uint64"
        }
      ],
      "stateMutability": "view",
      "type": "function"
    },
    {
      "inputs": [
        {
          "internalType": "uint256",
          "name": "id",
          "type": "uint256"
        }
      ],
      "name": "displayAd",
      "outputs": [
        {
          "components": [
            {
              "internalType": "string",
              "name": "adURI",
              "type": "string"
            },
            {
              "internalType": "string",
              "name": "dataURI",
              "type": "string"
            },
            {
              "internalType": "bytes32",
              "name": "signatureRoot",
              "type": "bytes32"
            },
            {
              "internalType": "bytes32",
              "name": "audienceRoot",
              "type": "bytes32"
            }
          ],
          "internalType": "struct IERCAd.Ad",
          "name": "",
          "type": "tuple"
        }
      ],
      "stateMutability": "view",
      "type": "function"
    },
    {
      "inputs": [],
      "name": "ercAdContract",
      "outputs": [
        {
          "internalType": "contract IERCAd",
          "name": "",
          "type": "address"
        }
      ],
      "stateMutability": "view",
      "type": "function"
    },
    {
      "inputs": [],
      "name": "getLinkBalance",
      "outputs": [],
      "stateMutability": "nonpayable",
      "type": "function"
    },
    {
      "inputs": [],
      "name": "getRouter",
      "outputs": [
        {
          "internalType": "address",
          "name": "",
          "type": "address"
        }
      ],
      "stateMutability": "view",
      "type": "function"
    },
    {
      "inputs": [],
      "name": "linkToken",
      "outputs": [
        {
          "internalType": "contract IERC20",
          "name": "",
          "type": "address"
        }
      ],
      "stateMutability": "view",
      "type": "function"
    },
    {
      "inputs": [],
      "name": "mainnetContractAddress",
      "outputs": [
        {
          "internalType": "address",
          "name": "",
          "type": "address"
        }
      ],
      "stateMutability": "view",
      "type": "function"
    },
    {
      "inputs": [],
      "name": "mehToken",
      "outputs": [
        {
          "internalType": "contract IERC20",
          "name": "",
          "type": "address"
        }
      ],
      "stateMutability": "view",
      "type": "function"
    },
    {
      "inputs": [],
      "name": "router",
      "outputs": [
        {
          "internalType": "contract IRouterClient",
          "name": "",
          "type": "address"
        }
      ],
      "stateMutability": "view",
      "type": "function"
    },
    {
      "inputs": [
        {
          "internalType": "uint256",
          "name": "id",
          "type": "uint256"
        },
        {
          "internalType": "bytes32[]",
          "name": "proof",
          "type": "bytes32[]"
        }
      ],
      "name": "signAd",
      "outputs": [],
      "stateMutability": "nonpayable",
      "type": "function"
    },
    {
      "inputs": [
        {
          "internalType": "bytes4",
          "name": "interfaceId",
          "type": "bytes4"
        }
      ],
      "name": "supportsInterface",
      "outputs": [
        {
          "internalType": "bool",
          "name": "",
          "type": "bool"
        }
      ],
      "stateMutability": "pure",
      "type": "function"
    }
  ],
  "bytecode": "0x60a06040523480156200001157600080fd5b50604051620022073803806200220783398181016040528101906200003791906200030a565b84600073ffffffffffffffffffffffffffffffffffffffff168173ffffffffffffffffffffffffffffffffffffffff1603620000ad5760006040517fd7f73334000000000000000000000000000000000000000000000000000000008152600401620000a49190620003b7565b60405180910390fd5b8073ffffffffffffffffffffffffffffffffffffffff1660808173ffffffffffffffffffffffffffffffffffffffff168152505050856000806101000a81548173ffffffffffffffffffffffffffffffffffffffff021916908373ffffffffffffffffffffffffffffffffffffffff16021790555084600160006101000a81548173ffffffffffffffffffffffffffffffffffffffff021916908373ffffffffffffffffffffffffffffffffffffffff16021790555082600260006101000a81548173ffffffffffffffffffffffffffffffffffffffff021916908373ffffffffffffffffffffffffffffffffffffffff16021790555083600360006101000a81548173ffffffffffffffffffffffffffffffffffffffff021916908373ffffffffffffffffffffffffffffffffffffffff16021790555081600460006101000a81548173ffffffffffffffffffffffffffffffffffffffff021916908373ffffffffffffffffffffffffffffffffffffffff16021790555080600460146101000a81548167ffffffffffffffff021916908367ffffffffffffffff160217905550505050505050620003d4565b600080fd5b600073ffffffffffffffffffffffffffffffffffffffff82169050919050565b60006200028d8262000260565b9050919050565b6200029f8162000280565b8114620002ab57600080fd5b50565b600081519050620002bf8162000294565b92915050565b600067ffffffffffffffff82169050919050565b620002e481620002c5565b8114620002f057600080fd5b50565b6000815190506200030481620002d9565b92915050565b60008060008060008060c087890312156200032a57620003296200025b565b5b60006200033a89828a01620002ae565b96505060206200034d89828a01620002ae565b95505060406200036089828a01620002ae565b94505060606200037389828a01620002ae565b93505060806200038689828a01620002ae565b92505060a06200039989828a01620002f3565b9150509295509295509295565b620003b18162000280565b82525050565b6000602082019050620003ce6000830184620003a6565b92915050565b608051611e10620003f7600039600081816107d601526108a30152611e106000f3fe608060405234801561001057600080fd5b50600436106100b45760003560e01c806392b9d0251161007157806392b9d0251461017b578063b0f479a114610199578063c6269389146101b7578063e2c2c884146101d5578063f887ea40146101f3578063fe49e83314610211576100b4565b806301ffc9a7146100b957806331db1ffc146100e957806350c5f9751461010757806357970e9314610111578063672fb9691461012f57806385572ffb1461015f575b600080fd5b6100d360048036038101906100ce9190610ca3565b61022d565b6040516100e09190610ceb565b60405180910390f35b6100f16102ff565b6040516100fe9190610d29565b60405180910390f35b61010f610319565b005b6101196106fe565b6040516101269190610dc3565b60405180910390f35b61014960048036038101906101449190610e14565b610724565b6040516101569190610f54565b60405180910390f35b61017960048036038101906101749190610f9a565b6107d4565b005b610183610879565b6040516101909190611004565b60405180910390f35b6101a161089f565b6040516101ae9190611040565b60405180910390f35b6101bf6108c7565b6040516101cc9190611040565b60405180910390f35b6101dd6108eb565b6040516101ea9190610dc3565b60405180910390f35b6101fb610911565b604051610208919061107c565b60405180910390f35b61022b600480360381019061022691906110fc565b610937565b005b60007f85572ffb000000000000000000000000000000000000000000000000000000007bffffffffffffffffffffffffffffffffffffffffffffffffffffffff1916827bffffffffffffffffffffffffffffffffffffffffffffffffffffffff191614806102f857507f01ffc9a7000000000000000000000000000000000000000000000000000000007bffffffffffffffffffffffffffffffffffffffffffffffffffffffff1916827bffffffffffffffffffffffffffffffffffffffffffffffffffffffff1916145b9050919050565b600460149054906101000a900467ffffffffffffffff1681565b60006040518060400160405280601081526020017f6765744c696e6b42616c616e6365282900000000000000000000000000000000815250805190602001209050600081604051602401604051602081830303815290604052907bffffffffffffffffffffffffffffffffffffffffffffffffffffffff19166020820180517bffffffffffffffffffffffffffffffffffffffffffffffffffffffff8381831617835250505050905060008067ffffffffffffffff8111156103de576103dd61115c565b5b60405190808252806020026020018201604052801561041757816020015b610404610bd9565b8152602001906001900390816103fc5790505b50905060008060009054906101000a900473ffffffffffffffffffffffffffffffffffffffff1660405160200161044e91906111d3565b604051602081830303815290604052905060006040518060a00160405280838152602001858152602001848152602001600073ffffffffffffffffffffffffffffffffffffffff1681526020016040518060200160405280600081525081525090506000600160009054906101000a900473ffffffffffffffffffffffffffffffffffffffff1673ffffffffffffffffffffffffffffffffffffffff166320487ded600460149054906101000a900467ffffffffffffffff16846040518363ffffffff1660e01b81526004016105259291906113ca565b602060405180830381865afa158015610542573d6000803e3d6000fd5b505050506040513d601f19601f82011682018060405250810190610566919061140f565b9050600160009054906101000a900473ffffffffffffffffffffffffffffffffffffffff1673ffffffffffffffffffffffffffffffffffffffff166396f4e9f982600460149054906101000a900467ffffffffffffffff16856040518463ffffffff1660e01b81526004016105dc9291906113ca565b60206040518083038185885af19350505050801561061857506040513d601f19601f820116820180604052508101906106159190611468565b60015b6106bd576106246114a2565b806308c379a00361068057506106386114f5565b806106435750610682565b7fcc8610635659273962514cbb1e149386cc83625cb5595394a01869a0c3fbf7cb8160405161067291906115cf565b60405180910390a1506106b8565b505b7fcc8610635659273962514cbb1e149386cc83625cb5595394a01869a0c3fbf7cb6040516106af9061163d565b60405180910390a15b6106f6565b7f54791b38f3859327992a1ca0590ad3c0f08feba98d1a4f56ab0dca74d203392a816040516106ec919061166c565b60405180910390a1505b505050505050565b600360009054906101000a900473ffffffffffffffffffffffffffffffffffffffff1681565b61072c610c09565b600460009054906101000a900473ffffffffffffffffffffffffffffffffffffffff1673ffffffffffffffffffffffffffffffffffffffff1663672fb969836040518263ffffffff1660e01b81526004016107879190611696565b600060405180830381865afa1580156107a4573d6000803e3d6000fd5b505050506040513d6000823e3d601f19601f820116820180604052508101906107cd919061182c565b9050919050565b7f000000000000000000000000000000000000000000000000000000000000000073ffffffffffffffffffffffffffffffffffffffff163373ffffffffffffffffffffffffffffffffffffffff161461086457336040517fd7f7333400000000000000000000000000000000000000000000000000000000815260040161085b9190611040565b60405180910390fd5b6108768161087190611b85565b6109d5565b50565b600460009054906101000a900473ffffffffffffffffffffffffffffffffffffffff1681565b60007f0000000000000000000000000000000000000000000000000000000000000000905090565b60008054906101000a900473ffffffffffffffffffffffffffffffffffffffff1681565b600260009054906101000a900473ffffffffffffffffffffffffffffffffffffffff1681565b600160009054906101000a900473ffffffffffffffffffffffffffffffffffffffff1681565b600460009054906101000a900473ffffffffffffffffffffffffffffffffffffffff1673ffffffffffffffffffffffffffffffffffffffff1663fe49e8338484846040518463ffffffff1660e01b815260040161099693929190611c13565b600060405180830381600087803b1580156109b057600080fd5b505af11580156109c4573d6000803e3d6000fd5b505050506109d0610319565b505050565b600081606001518060200190518101906109ef919061140f565b905060008260400151806020019051810190610a0b9190611c83565b9050600360009054906101000a900473ffffffffffffffffffffffffffffffffffffffff1673ffffffffffffffffffffffffffffffffffffffff166370a08231306040518263ffffffff1660e01b8152600401610a689190611040565b602060405180830381865afa158015610a85573d6000803e3d6000fd5b505050506040513d601f19601f82011682018060405250810190610aa9919061140f565b82610ab49190611cdf565b91506000690a968163f0a57b4000009050670de0b6b3a76400008310610aed576969e10de76676d080000081610aea9190611cdf565b90505b600260009054906101000a900473ffffffffffffffffffffffffffffffffffffffff1673ffffffffffffffffffffffffffffffffffffffff1663a9059cbb33836040518363ffffffff1660e01b8152600401610b4a929190611d13565b6020604051808303816000875af1158015610b69573d6000803e3d6000fd5b505050506040513d601f19601f82011682018060405250810190610b8d9190611d68565b507f9e0cedd023f625fb8db19f2eb903c24aa1a45f05fd9ef9431a80505ad65e30fe846000015185602001518486604051610bcb9493929190611d95565b60405180910390a150505050565b6040518060400160405280600073ffffffffffffffffffffffffffffffffffffffff168152602001600081525090565b6040518060800160405280606081526020016060815260200160008019168152602001600080191681525090565b6000604051905090565b600080fd5b600080fd5b60007fffffffff0000000000000000000000000000000000000000000000000000000082169050919050565b610c8081610c4b565b8114610c8b57600080fd5b50565b600081359050610c9d81610c77565b92915050565b600060208284031215610cb957610cb8610c41565b5b6000610cc784828501610c8e565b91505092915050565b60008115159050919050565b610ce581610cd0565b82525050565b6000602082019050610d006000830184610cdc565b92915050565b600067ffffffffffffffff82169050919050565b610d2381610d06565b82525050565b6000602082019050610d3e6000830184610d1a565b92915050565b600073ffffffffffffffffffffffffffffffffffffffff82169050919050565b6000819050919050565b6000610d89610d84610d7f84610d44565b610d64565b610d44565b9050919050565b6000610d9b82610d6e565b9050919050565b6000610dad82610d90565b9050919050565b610dbd81610da2565b82525050565b6000602082019050610dd86000830184610db4565b92915050565b6000819050919050565b610df181610dde565b8114610dfc57600080fd5b50565b600081359050610e0e81610de8565b92915050565b600060208284031215610e2a57610e29610c41565b5b6000610e3884828501610dff565b91505092915050565b600081519050919050565b600082825260208201905092915050565b60005b83811015610e7b578082015181840152602081019050610e60565b60008484015250505050565b6000601f19601f8301169050919050565b6000610ea382610e41565b610ead8185610e4c565b9350610ebd818560208601610e5d565b610ec681610e87565b840191505092915050565b6000819050919050565b610ee481610ed1565b82525050565b60006080830160008301518482036000860152610f078282610e98565b91505060208301518482036020860152610f218282610e98565b9150506040830151610f366040860182610edb565b506060830151610f496060860182610edb565b508091505092915050565b60006020820190508181036000830152610f6e8184610eea565b905092915050565b600080fd5b600060a08284031215610f9157610f90610f76565b5b81905092915050565b600060208284031215610fb057610faf610c41565b5b600082013567ffffffffffffffff811115610fce57610fcd610c46565b5b610fda84828501610f7b565b91505092915050565b6000610fee82610d90565b9050919050565b610ffe81610fe3565b82525050565b60006020820190506110196000830184610ff5565b92915050565b600061102a82610d44565b9050919050565b61103a8161101f565b82525050565b60006020820190506110556000830184611031565b92915050565b600061106682610d90565b9050919050565b6110768161105b565b82525050565b6000602082019050611091600083018461106d565b92915050565b600080fd5b600080fd5b600080fd5b60008083601f8401126110bc576110bb611097565b5b8235905067ffffffffffffffff8111156110d9576110d861109c565b5b6020830191508360208202830111156110f5576110f46110a1565b5b9250929050565b60008060006040848603121561111557611114610c41565b5b600061112386828701610dff565b935050602084013567ffffffffffffffff81111561114457611143610c46565b5b611150868287016110a6565b92509250509250925092565b7f4e487b7100000000000000000000000000000000000000000000000000000000600052604160045260246000fd5b60008160601b9050919050565b60006111a38261118b565b9050919050565b60006111b582611198565b9050919050565b6111cd6111c88261101f565b6111aa565b82525050565b60006111df82846111bc565b60148201915081905092915050565b600081519050919050565b600082825260208201905092915050565b6000611215826111ee565b61121f81856111f9565b935061122f818560208601610e5d565b61123881610e87565b840191505092915050565b600081519050919050565b600082825260208201905092915050565b6000819050602082019050919050565b6112788161101f565b82525050565b61128781610dde565b82525050565b6040820160008201516112a3600085018261126f565b5060208201516112b6602085018261127e565b50505050565b60006112c8838361128d565b60408301905092915050565b6000602082019050919050565b60006112ec82611243565b6112f6818561124e565b93506113018361125f565b8060005b8381101561133257815161131988826112bc565b9750611324836112d4565b925050600181019050611305565b5085935050505092915050565b600060a083016000830151848203600086015261135c828261120a565b91505060208301518482036020860152611376828261120a565b9150506040830151848203604086015261139082826112e1565b91505060608301516113a5606086018261126f565b50608083015184820360808601526113bd828261120a565b9150508091505092915050565b60006040820190506113df6000830185610d1a565b81810360208301526113f1818461133f565b90509392505050565b60008151905061140981610de8565b92915050565b60006020828403121561142557611424610c41565b5b6000611433848285016113fa565b91505092915050565b61144581610ed1565b811461145057600080fd5b50565b6000815190506114628161143c565b92915050565b60006020828403121561147e5761147d610c41565b5b600061148c84828501611453565b91505092915050565b60008160e01c9050919050565b600060033d11156114c15760046000803e6114be600051611495565b90505b90565b6114cd82610e87565b810181811067ffffffffffffffff821117156114ec576114eb61115c565b5b80604052505050565b600060443d1061158257611507610c37565b60043d036004823e80513d602482011167ffffffffffffffff8211171561152f575050611582565b808201805167ffffffffffffffff81111561154d5750505050611582565b80602083010160043d03850181111561156a575050505050611582565b611579826020018501866114c4565b82955050505050505b90565b600082825260208201905092915050565b60006115a182610e41565b6115ab8185611585565b93506115bb818560208601610e5d565b6115c481610e87565b840191505092915050565b600060208201905081810360008301526115e98184611596565b905092915050565b7f556e6b6e6f776e206572726f72206f6363757272656400000000000000000000600082015250565b6000611627601683611585565b9150611632826115f1565b602082019050919050565b600060208201905081810360008301526116568161161a565b9050919050565b61166681610ed1565b82525050565b6000602082019050611681600083018461165d565b92915050565b61169081610dde565b82525050565b60006020820190506116ab6000830184611687565b92915050565b600080fd5b60006116c0610c37565b90506116cc82826114c4565b919050565b600080fd5b600080fd5b600067ffffffffffffffff8211156116f6576116f561115c565b5b6116ff82610e87565b9050602081019050919050565b600061171f61171a846116db565b6116b6565b90508281526020810184848401111561173b5761173a6116d6565b5b611746848285610e5d565b509392505050565b600082601f83011261176357611762611097565b5b815161177384826020860161170c565b91505092915050565b600060808284031215611792576117916116b1565b5b61179c60806116b6565b9050600082015167ffffffffffffffff8111156117bc576117bb6116d1565b5b6117c88482850161174e565b600083015250602082015167ffffffffffffffff8111156117ec576117eb6116d1565b5b6117f88482850161174e565b602083015250604061180c84828501611453565b604083015250606061182084828501611453565b60608301525092915050565b60006020828403121561184257611841610c41565b5b600082015167ffffffffffffffff8111156118605761185f610c46565b5b61186c8482850161177c565b91505092915050565b6000813590506118848161143c565b92915050565b61189381610d06565b811461189e57600080fd5b50565b6000813590506118b08161188a565b92915050565b600067ffffffffffffffff8211156118d1576118d061115c565b5b6118da82610e87565b9050602081019050919050565b82818337600083830152505050565b6000611909611904846118b6565b6116b6565b905082815260208101848484011115611925576119246116d6565b5b6119308482856118e7565b509392505050565b600082601f83011261194d5761194c611097565b5b813561195d8482602086016118f6565b91505092915050565b600067ffffffffffffffff8211156119815761198061115c565b5b602082029050602081019050919050565b61199b8161101f565b81146119a657600080fd5b50565b6000813590506119b881611992565b92915050565b6000604082840312156119d4576119d36116b1565b5b6119de60406116b6565b905060006119ee848285016119a9565b6000830152506020611a0284828501610dff565b60208301525092915050565b6000611a21611a1c84611966565b6116b6565b90508083825260208201905060408402830185811115611a4457611a436110a1565b5b835b81811015611a6d5780611a5988826119be565b845260208401935050604081019050611a46565b5050509392505050565b600082601f830112611a8c57611a8b611097565b5b8135611a9c848260208601611a0e565b91505092915050565b600060a08284031215611abb57611aba6116b1565b5b611ac560a06116b6565b90506000611ad584828501611875565b6000830152506020611ae9848285016118a1565b602083015250604082013567ffffffffffffffff811115611b0d57611b0c6116d1565b5b611b1984828501611938565b604083015250606082013567ffffffffffffffff811115611b3d57611b3c6116d1565b5b611b4984828501611938565b606083015250608082013567ffffffffffffffff811115611b6d57611b6c6116d1565b5b611b7984828501611a77565b60808301525092915050565b6000611b913683611aa5565b9050919050565b600082825260208201905092915050565b600080fd5b82818337505050565b6000611bc38385611b98565b93507f07ffffffffffffffffffffffffffffffffffffffffffffffffffffffffffffff831115611bf657611bf5611ba9565b5b602083029250611c07838584611bae565b82840190509392505050565b6000604082019050611c286000830186611687565b8181036020830152611c3b818486611bb7565b9050949350505050565b6000611c5082610d44565b9050919050565b611c6081611c45565b8114611c6b57600080fd5b50565b600081519050611c7d81611c57565b92915050565b600060208284031215611c9957611c98610c41565b5b6000611ca784828501611c6e565b91505092915050565b7f4e487b7100000000000000000000000000000000000000000000000000000000600052601160045260246000fd5b6000611cea82610dde565b9150611cf583610dde565b9250828201905080821115611d0d57611d0c611cb0565b5b92915050565b6000604082019050611d286000830185611031565b611d356020830184611687565b9392505050565b611d4581610cd0565b8114611d5057600080fd5b50565b600081519050611d6281611d3c565b92915050565b600060208284031215611d7e57611d7d610c41565b5b6000611d8c84828501611d53565b91505092915050565b6000608082019050611daa600083018761165d565b611db76020830186610d1a565b611dc46040830185611031565b611dd16060830184611687565b9594505050505056fea264697066735822122027f7947f95f52d08c699cb3cb4d1147874795ecc4cd083d7fbb31a67deb938a464736f6c63430008180033",
  "linkReferences": {},
  "deployedLinkReferences": {}
}