{
  "_format": "hh-sol-artifact-1",
  "contractName": "MehAdV2",
  "sourceName": "contracts/MehAdV2.sol",
  "abi": [
    {
      "inputs": [
        {
          "internalType": "address",
          "name": "_baseContractAddress",
          "type": "address"
        },
        {
          "internalType": "address",
          "name": "_router",
          "type": "address"
        },
        {
          "internalType": "address",
          "name": "_linkTokenAddress",
          "type": "address"
        },
        {
          "internalType": "address",
          "name": "_ercAdAddress",
          "type": "address"
        },
        {
          "internalType": "uint64",
          "name": "_destinationChainSelector",
          "type": "uint64"
        }
      ],
      "stateMutability": "nonpayable",
      "type": "constructor"
    },
    {
      "anonymous": false,
      "inputs": [
        {
          "indexed": false,
          "internalType": "bytes32",
          "name": "messageId",
          "type": "bytes32"
        },
        {
          "indexed": false,
          "internalType": "address",
          "name": "sender",
          "type": "address"
        },
        {
          "indexed": false,
          "internalType": "uint256",
          "name": "fees",
          "type": "uint256"
        },
        {
          "indexed": false,
          "internalType": "uint256",
          "name": "linkBalance",
          "type": "uint256"
        }
      ],
      "name": "MessageSent",
      "type": "event"
    },
    {
      "anonymous": false,
      "inputs": [
        {
          "indexed": true,
          "internalType": "address",
          "name": "previousOwner",
          "type": "address"
        },
        {
          "indexed": true,
          "internalType": "address",
          "name": "newOwner",
          "type": "address"
        }
      ],
      "name": "OwnershipTransferred",
      "type": "event"
    },
    {
      "inputs": [],
      "name": "baseContractAddress",
      "outputs": [
        {
          "internalType": "address",
          "name": "",
          "type": "address"
        }
      ],
      "stateMutability": "view",
      "type": "function"
    },
    {
      "inputs": [],
      "name": "destinationChainSelector",
      "outputs": [
        {
          "internalType": "uint64",
          "name": "",
          "type": "uint64"
        }
      ],
      "stateMutability": "view",
      "type": "function"
    },
    {
      "inputs": [
        {
          "internalType": "uint256",
          "name": "id",
          "type": "uint256"
        }
      ],
      "name": "displayAd",
      "outputs": [
        {
          "components": [
            {
              "internalType": "string",
              "name": "adURI",
              "type": "string"
            },
            {
              "internalType": "string",
              "name": "dataURI",
              "type": "string"
            },
            {
              "internalType": "bytes32",
              "name": "signatureRoot",
              "type": "bytes32"
            },
            {
              "internalType": "bytes32",
              "name": "audienceRoot",
              "type": "bytes32"
            }
          ],
          "internalType": "struct IERCAd.Ad",
          "name": "",
          "type": "tuple"
        }
      ],
      "stateMutability": "view",
      "type": "function"
    },
    {
      "inputs": [],
      "name": "ercAdContract",
      "outputs": [
        {
          "internalType": "contract IERCAd",
          "name": "",
          "type": "address"
        }
      ],
      "stateMutability": "view",
      "type": "function"
    },
    {
      "inputs": [],
      "name": "linkToken",
      "outputs": [
        {
          "internalType": "contract IERC20",
          "name": "",
          "type": "address"
        }
      ],
      "stateMutability": "view",
      "type": "function"
    },
    {
      "inputs": [],
      "name": "owner",
      "outputs": [
        {
          "internalType": "address",
          "name": "",
          "type": "address"
        }
      ],
      "stateMutability": "view",
      "type": "function"
    },
    {
      "inputs": [],
      "name": "renounceOwnership",
      "outputs": [],
      "stateMutability": "nonpayable",
      "type": "function"
    },
    {
      "inputs": [],
      "name": "router",
      "outputs": [
        {
          "internalType": "contract IRouterClient",
          "name": "",
          "type": "address"
        }
      ],
      "stateMutability": "view",
      "type": "function"
    },
    {
      "inputs": [
        {
          "components": [
            {
              "internalType": "uint256",
              "name": "eth",
              "type": "uint256"
            },
            {
              "internalType": "uint256",
              "name": "link",
              "type": "uint256"
            }
          ],
          "internalType": "struct MehAdV2.CrossChainCapital",
          "name": "message",
          "type": "tuple"
        }
      ],
      "name": "sendMessage",
      "outputs": [
        {
          "internalType": "bytes32",
          "name": "messageId",
          "type": "bytes32"
        }
      ],
      "stateMutability": "nonpayable",
      "type": "function"
    },
    {
      "inputs": [
        {
          "internalType": "uint256",
          "name": "id",
          "type": "uint256"
        },
        {
          "internalType": "bytes32[]",
          "name": "proof",
          "type": "bytes32[]"
        }
      ],
      "name": "signAd",
      "outputs": [],
      "stateMutability": "nonpayable",
      "type": "function"
    },
    {
      "inputs": [
        {
          "internalType": "address",
          "name": "newOwner",
          "type": "address"
        }
      ],
      "name": "transferOwnership",
      "outputs": [],
      "stateMutability": "nonpayable",
      "type": "function"
    },
    {
      "stateMutability": "payable",
      "type": "receive"
    }
  ],
  "bytecode": "0x60806040523480156200001157600080fd5b5060405162001b5038038062001b5083398181016040528101906200003791906200030a565b620000576200004b6200018f60201b60201c565b6200019760201b60201c565b84600160006101000a81548173ffffffffffffffffffffffffffffffffffffffff021916908373ffffffffffffffffffffffffffffffffffffffff16021790555083600260006101000a81548173ffffffffffffffffffffffffffffffffffffffff021916908373ffffffffffffffffffffffffffffffffffffffff16021790555082600360006101000a81548173ffffffffffffffffffffffffffffffffffffffff021916908373ffffffffffffffffffffffffffffffffffffffff16021790555081600460006101000a81548173ffffffffffffffffffffffffffffffffffffffff021916908373ffffffffffffffffffffffffffffffffffffffff16021790555080600460146101000a81548167ffffffffffffffff021916908367ffffffffffffffff160217905550505050505062000392565b600033905090565b60008060009054906101000a900473ffffffffffffffffffffffffffffffffffffffff169050816000806101000a81548173ffffffffffffffffffffffffffffffffffffffff021916908373ffffffffffffffffffffffffffffffffffffffff1602179055508173ffffffffffffffffffffffffffffffffffffffff168173ffffffffffffffffffffffffffffffffffffffff167f8be0079c531659141344cd1fd0a4f28419497f9722a3daafe3b4186f6b6457e060405160405180910390a35050565b600080fd5b600073ffffffffffffffffffffffffffffffffffffffff82169050919050565b60006200028d8262000260565b9050919050565b6200029f8162000280565b8114620002ab57600080fd5b50565b600081519050620002bf8162000294565b92915050565b600067ffffffffffffffff82169050919050565b620002e481620002c5565b8114620002f057600080fd5b50565b6000815190506200030481620002d9565b92915050565b600080600080600060a086880312156200032957620003286200025b565b5b60006200033988828901620002ae565b95505060206200034c88828901620002ae565b94505060406200035f88828901620002ae565b93505060606200037288828901620002ae565b92505060806200038588828901620002f3565b9150509295509295909350565b6117ae80620003a26000396000f3fe6080604052600436106100a05760003560e01c8063715018a611610064578063715018a6146101a75780638da5cb5b146101be57806392b9d025146101e9578063f2fde38b14610214578063f887ea401461023d578063fe49e83314610268576100a7565b806331db1ffc146100ac5780635252d083146100d757806357970e93146101145780635f1ca7011461013f578063672fb9691461016a576100a7565b366100a757005b600080fd5b3480156100b857600080fd5b506100c1610291565b6040516100ce9190610b27565b60405180910390f35b3480156100e357600080fd5b506100fe60048036038101906100f99190610c72565b6102ab565b60405161010b9190610cb8565b60405180910390f35b34801561012057600080fd5b50610129610574565b6040516101369190610d52565b60405180910390f35b34801561014b57600080fd5b5061015461059a565b6040516101619190610d8e565b60405180910390f35b34801561017657600080fd5b50610191600480360381019061018c9190610da9565b6105c0565b60405161019e9190610ece565b60405180910390f35b3480156101b357600080fd5b506101bc610670565b005b3480156101ca57600080fd5b506101d3610684565b6040516101e09190610d8e565b60405180910390f35b3480156101f557600080fd5b506101fe6106ad565b60405161020b9190610f11565b60405180910390f35b34801561022057600080fd5b5061023b60048036038101906102369190610f58565b6106d3565b005b34801561024957600080fd5b50610252610756565b60405161025f9190610fa6565b60405180910390f35b34801561027457600080fd5b5061028f600480360381019061028a9190611026565b61077c565b005b600460149054906101000a900467ffffffffffffffff1681565b6000806040518060a00160405280600160009054906101000a900473ffffffffffffffffffffffffffffffffffffffff166040516020016102ec9190610d8e565b60405160208183030381529060405281526020018460405160200161031191906110c4565b6040516020818303038152906040528152602001600067ffffffffffffffff8111156103405761033f610b6c565b5b60405190808252806020026020018201604052801561037957816020015b610366610aa6565b81526020019060019003908161035e5790505b508152602001600073ffffffffffffffffffffffffffffffffffffffff1681526020016103b6604051806020016040528062061a808152506108dd565b81525090506000600260009054906101000a900473ffffffffffffffffffffffffffffffffffffffff1673ffffffffffffffffffffffffffffffffffffffff166320487ded600460149054906101000a900467ffffffffffffffff16846040518363ffffffff1660e01b81526004016104309291906112ac565b602060405180830381865afa15801561044d573d6000803e3d6000fd5b505050506040513d601f19601f8201168201806040525081019061047191906112f1565b9050600260009054906101000a900473ffffffffffffffffffffffffffffffffffffffff1673ffffffffffffffffffffffffffffffffffffffff166396f4e9f982600460149054906101000a900467ffffffffffffffff16856040518463ffffffff1660e01b81526004016104e79291906112ac565b60206040518083038185885af1158015610505573d6000803e3d6000fd5b50505050506040513d601f19601f8201168201806040525081019061052a919061134a565b92507fa1b6c39465f3228ad8bc71e80a4e6b6b4ff8c562238e799d97e47a5993a0415983338387602001516040516105659493929190611386565b60405180910390a15050919050565b600360009054906101000a900473ffffffffffffffffffffffffffffffffffffffff1681565b600160009054906101000a900473ffffffffffffffffffffffffffffffffffffffff1681565b6105c8610ad6565b600460009054906101000a900473ffffffffffffffffffffffffffffffffffffffff1673ffffffffffffffffffffffffffffffffffffffff1663672fb969836040518263ffffffff1660e01b815260040161062391906113cb565b600060405180830381865afa158015610640573d6000803e3d6000fd5b505050506040513d6000823e3d601f19601f82011682018060405250810190610669919061153c565b9050919050565b61067861095c565b61068260006109da565b565b60008060009054906101000a900473ffffffffffffffffffffffffffffffffffffffff16905090565b600460009054906101000a900473ffffffffffffffffffffffffffffffffffffffff1681565b6106db61095c565b600073ffffffffffffffffffffffffffffffffffffffff168173ffffffffffffffffffffffffffffffffffffffff160361074a576040517f08c379a000000000000000000000000000000000000000000000000000000000815260040161074190611608565b60405180910390fd5b610753816109da565b50565b600260009054906101000a900473ffffffffffffffffffffffffffffffffffffffff1681565b600460009054906101000a900473ffffffffffffffffffffffffffffffffffffffff1673ffffffffffffffffffffffffffffffffffffffff1663fe49e8338484846040518463ffffffff1660e01b81526004016107db939291906116a3565b600060405180830381600087803b1580156107f557600080fd5b505af1158015610809573d6000803e3d6000fd5b5050505060004790506000600360009054906101000a900473ffffffffffffffffffffffffffffffffffffffff1673ffffffffffffffffffffffffffffffffffffffff166370a08231336040518263ffffffff1660e01b815260040161086f9190610d8e565b602060405180830381865afa15801561088c573d6000803e3d6000fd5b505050506040513d601f19601f820116820180604052508101906108b091906112f1565b9050600060405180604001604052808481526020018381525090506108d4816102ab565b50505050505050565b60606397a657c960e01b826040516024016108f891906116f1565b604051602081830303815290604052907bffffffffffffffffffffffffffffffffffffffffffffffffffffffff19166020820180517bffffffffffffffffffffffffffffffffffffffffffffffffffffffff83818316178352505050509050919050565b610964610a9e565b73ffffffffffffffffffffffffffffffffffffffff16610982610684565b73ffffffffffffffffffffffffffffffffffffffff16146109d8576040517f08c379a00000000000000000000000000000000000000000000000000000000081526004016109cf90611758565b60405180910390fd5b565b60008060009054906101000a900473ffffffffffffffffffffffffffffffffffffffff169050816000806101000a81548173ffffffffffffffffffffffffffffffffffffffff021916908373ffffffffffffffffffffffffffffffffffffffff1602179055508173ffffffffffffffffffffffffffffffffffffffff168173ffffffffffffffffffffffffffffffffffffffff167f8be0079c531659141344cd1fd0a4f28419497f9722a3daafe3b4186f6b6457e060405160405180910390a35050565b600033905090565b6040518060400160405280600073ffffffffffffffffffffffffffffffffffffffff168152602001600081525090565b6040518060800160405280606081526020016060815260200160008019168152602001600080191681525090565b600067ffffffffffffffff82169050919050565b610b2181610b04565b82525050565b6000602082019050610b3c6000830184610b18565b92915050565b6000604051905090565b600080fd5b600080fd5b600080fd5b6000601f19601f8301169050919050565b7f4e487b7100000000000000000000000000000000000000000000000000000000600052604160045260246000fd5b610ba482610b5b565b810181811067ffffffffffffffff82111715610bc357610bc2610b6c565b5b80604052505050565b6000610bd6610b42565b9050610be28282610b9b565b919050565b600080fd5b6000819050919050565b610bff81610bec565b8114610c0a57600080fd5b50565b600081359050610c1c81610bf6565b92915050565b600060408284031215610c3857610c37610b56565b5b610c426040610bcc565b90506000610c5284828501610c0d565b6000830152506020610c6684828501610c0d565b60208301525092915050565b600060408284031215610c8857610c87610b4c565b5b6000610c9684828501610c22565b91505092915050565b6000819050919050565b610cb281610c9f565b82525050565b6000602082019050610ccd6000830184610ca9565b92915050565b600073ffffffffffffffffffffffffffffffffffffffff82169050919050565b6000819050919050565b6000610d18610d13610d0e84610cd3565b610cf3565b610cd3565b9050919050565b6000610d2a82610cfd565b9050919050565b6000610d3c82610d1f565b9050919050565b610d4c81610d31565b82525050565b6000602082019050610d676000830184610d43565b92915050565b6000610d7882610cd3565b9050919050565b610d8881610d6d565b82525050565b6000602082019050610da36000830184610d7f565b92915050565b600060208284031215610dbf57610dbe610b4c565b5b6000610dcd84828501610c0d565b91505092915050565b600081519050919050565b600082825260208201905092915050565b60005b83811015610e10578082015181840152602081019050610df5565b60008484015250505050565b6000610e2782610dd6565b610e318185610de1565b9350610e41818560208601610df2565b610e4a81610b5b565b840191505092915050565b610e5e81610c9f565b82525050565b60006080830160008301518482036000860152610e818282610e1c565b91505060208301518482036020860152610e9b8282610e1c565b9150506040830151610eb06040860182610e55565b506060830151610ec36060860182610e55565b508091505092915050565b60006020820190508181036000830152610ee88184610e64565b905092915050565b6000610efb82610d1f565b9050919050565b610f0b81610ef0565b82525050565b6000602082019050610f266000830184610f02565b92915050565b610f3581610d6d565b8114610f4057600080fd5b50565b600081359050610f5281610f2c565b92915050565b600060208284031215610f6e57610f6d610b4c565b5b6000610f7c84828501610f43565b91505092915050565b6000610f9082610d1f565b9050919050565b610fa081610f85565b82525050565b6000602082019050610fbb6000830184610f97565b92915050565b600080fd5b600080fd5b600080fd5b60008083601f840112610fe657610fe5610fc1565b5b8235905067ffffffffffffffff81111561100357611002610fc6565b5b60208301915083602082028301111561101f5761101e610fcb565b5b9250929050565b60008060006040848603121561103f5761103e610b4c565b5b600061104d86828701610c0d565b935050602084013567ffffffffffffffff81111561106e5761106d610b51565b5b61107a86828701610fd0565b92509250509250925092565b61108f81610bec565b82525050565b6040820160008201516110ab6000850182611086565b5060208201516110be6020850182611086565b50505050565b60006040820190506110d96000830184611095565b92915050565b600081519050919050565b600082825260208201905092915050565b6000611106826110df565b61111081856110ea565b9350611120818560208601610df2565b61112981610b5b565b840191505092915050565b600081519050919050565b600082825260208201905092915050565b6000819050602082019050919050565b61116981610d6d565b82525050565b6040820160008201516111856000850182611160565b5060208201516111986020850182611086565b50505050565b60006111aa838361116f565b60408301905092915050565b6000602082019050919050565b60006111ce82611134565b6111d8818561113f565b93506111e383611150565b8060005b838110156112145781516111fb888261119e565b9750611206836111b6565b9250506001810190506111e7565b5085935050505092915050565b600060a083016000830151848203600086015261123e82826110fb565b9150506020830151848203602086015261125882826110fb565b9150506040830151848203604086015261127282826111c3565b91505060608301516112876060860182611160565b506080830151848203608086015261129f82826110fb565b9150508091505092915050565b60006040820190506112c16000830185610b18565b81810360208301526112d38184611221565b90509392505050565b6000815190506112eb81610bf6565b92915050565b60006020828403121561130757611306610b4c565b5b6000611315848285016112dc565b91505092915050565b61132781610c9f565b811461133257600080fd5b50565b6000815190506113448161131e565b92915050565b6000602082840312156113605761135f610b4c565b5b600061136e84828501611335565b91505092915050565b61138081610bec565b82525050565b600060808201905061139b6000830187610ca9565b6113a86020830186610d7f565b6113b56040830185611377565b6113c26060830184611377565b95945050505050565b60006020820190506113e06000830184611377565b92915050565b600080fd5b600067ffffffffffffffff82111561140657611405610b6c565b5b61140f82610b5b565b9050602081019050919050565b600061142f61142a846113eb565b610bcc565b90508281526020810184848401111561144b5761144a6113e6565b5b611456848285610df2565b509392505050565b600082601f83011261147357611472610fc1565b5b815161148384826020860161141c565b91505092915050565b6000608082840312156114a2576114a1610b56565b5b6114ac6080610bcc565b9050600082015167ffffffffffffffff8111156114cc576114cb610be7565b5b6114d88482850161145e565b600083015250602082015167ffffffffffffffff8111156114fc576114fb610be7565b5b6115088482850161145e565b602083015250604061151c84828501611335565b604083015250606061153084828501611335565b60608301525092915050565b60006020828403121561155257611551610b4c565b5b600082015167ffffffffffffffff8111156115705761156f610b51565b5b61157c8482850161148c565b91505092915050565b600082825260208201905092915050565b7f4f776e61626c653a206e6577206f776e657220697320746865207a65726f206160008201527f6464726573730000000000000000000000000000000000000000000000000000602082015250565b60006115f2602683611585565b91506115fd82611596565b604082019050919050565b60006020820190508181036000830152611621816115e5565b9050919050565b600082825260208201905092915050565b600080fd5b82818337505050565b60006116538385611628565b93507f07ffffffffffffffffffffffffffffffffffffffffffffffffffffffffffffff83111561168657611685611639565b5b60208302925061169783858461163e565b82840190509392505050565b60006040820190506116b86000830186611377565b81810360208301526116cb818486611647565b9050949350505050565b6020820160008201516116eb6000850182611086565b50505050565b600060208201905061170660008301846116d5565b92915050565b7f4f776e61626c653a2063616c6c6572206973206e6f7420746865206f776e6572600082015250565b6000611742602083611585565b915061174d8261170c565b602082019050919050565b6000602082019050818103600083015261177181611735565b905091905056fea2646970667358221220b62ef31e714e779926f94bd929b8fb48de76304d3da4e86898662ff2a576e21564736f6c63430008180033",
  "linkReferences": {},
  "deployedLinkReferences": {}
}