{
  "_format": "hh-sol-artifact-1",
  "contractName": "MehAdV2",
  "sourceName": "contracts/MehAdV2.sol",
  "abi": [
    {
      "inputs": [
        {
          "internalType": "address",
          "name": "_mainnetContractAddress",
          "type": "address"
        },
        {
          "internalType": "address",
          "name": "_router",
          "type": "address"
        },
        {
          "internalType": "address",
          "name": "_linkTokenAddress",
          "type": "address"
        },
        {
          "internalType": "address",
          "name": "_mehTokenAddress",
          "type": "address"
        },
        {
          "internalType": "address",
          "name": "_ercAdAddress",
          "type": "address"
        },
        {
          "internalType": "uint64",
          "name": "_destinationChainSelector",
          "type": "uint64"
        }
      ],
      "stateMutability": "nonpayable",
      "type": "constructor"
    },
    {
      "inputs": [
        {
          "internalType": "address",
          "name": "router",
          "type": "address"
        }
      ],
      "name": "InvalidRouter",
      "type": "error"
    },
    {
      "anonymous": false,
      "inputs": [
        {
          "indexed": false,
          "internalType": "string",
          "name": "reason",
          "type": "string"
        }
      ],
      "name": "ErrorOccurred",
      "type": "event"
    },
    {
      "anonymous": false,
      "inputs": [
        {
          "indexed": false,
          "internalType": "bytes32",
          "name": "messageId",
          "type": "bytes32"
        },
        {
          "indexed": false,
          "internalType": "uint64",
          "name": "sourceChainSelector",
          "type": "uint64"
        },
        {
          "indexed": false,
          "internalType": "address",
          "name": "sender",
          "type": "address"
        },
        {
          "indexed": false,
          "internalType": "uint256",
          "name": "balance",
          "type": "uint256"
        }
      ],
      "name": "MessageReceived",
      "type": "event"
    },
    {
      "anonymous": false,
      "inputs": [
        {
          "indexed": false,
          "internalType": "bytes32",
          "name": "messageId",
          "type": "bytes32"
        }
      ],
      "name": "MessageSent",
      "type": "event"
    },
    {
      "anonymous": false,
      "inputs": [
        {
          "indexed": true,
          "internalType": "address",
          "name": "previousOwner",
          "type": "address"
        },
        {
          "indexed": true,
          "internalType": "address",
          "name": "newOwner",
          "type": "address"
        }
      ],
      "name": "OwnershipTransferred",
      "type": "event"
    },
    {
      "inputs": [
        {
          "components": [
            {
              "internalType": "bytes32",
              "name": "messageId",
              "type": "bytes32"
            },
            {
              "internalType": "uint64",
              "name": "sourceChainSelector",
              "type": "uint64"
            },
            {
              "internalType": "bytes",
              "name": "sender",
              "type": "bytes"
            },
            {
              "internalType": "bytes",
              "name": "data",
              "type": "bytes"
            },
            {
              "components": [
                {
                  "internalType": "address",
                  "name": "token",
                  "type": "address"
                },
                {
                  "internalType": "uint256",
                  "name": "amount",
                  "type": "uint256"
                }
              ],
              "internalType": "struct Client.EVMTokenAmount[]",
              "name": "destTokenAmounts",
              "type": "tuple[]"
            }
          ],
          "internalType": "struct Client.Any2EVMMessage",
          "name": "message",
          "type": "tuple"
        }
      ],
      "name": "ccipReceive",
      "outputs": [],
      "stateMutability": "nonpayable",
      "type": "function"
    },
    {
      "inputs": [],
      "name": "destinationChainSelector",
      "outputs": [
        {
          "internalType": "uint64",
          "name": "",
          "type": "uint64"
        }
      ],
      "stateMutability": "view",
      "type": "function"
    },
    {
      "inputs": [
        {
          "internalType": "uint256",
          "name": "id",
          "type": "uint256"
        }
      ],
      "name": "displayAd",
      "outputs": [
        {
          "components": [
            {
              "internalType": "string",
              "name": "adURI",
              "type": "string"
            },
            {
              "internalType": "string",
              "name": "dataURI",
              "type": "string"
            },
            {
              "internalType": "bytes32",
              "name": "signatureRoot",
              "type": "bytes32"
            },
            {
              "internalType": "bytes32",
              "name": "audienceRoot",
              "type": "bytes32"
            }
          ],
          "internalType": "struct IERCAd.Ad",
          "name": "",
          "type": "tuple"
        }
      ],
      "stateMutability": "view",
      "type": "function"
    },
    {
      "inputs": [],
      "name": "ercAdContract",
      "outputs": [
        {
          "internalType": "contract IERCAd",
          "name": "",
          "type": "address"
        }
      ],
      "stateMutability": "view",
      "type": "function"
    },
    {
      "inputs": [],
      "name": "getRouter",
      "outputs": [
        {
          "internalType": "address",
          "name": "",
          "type": "address"
        }
      ],
      "stateMutability": "view",
      "type": "function"
    },
    {
      "inputs": [],
      "name": "linkToken",
      "outputs": [
        {
          "internalType": "contract IERC20",
          "name": "",
          "type": "address"
        }
      ],
      "stateMutability": "view",
      "type": "function"
    },
    {
      "inputs": [],
      "name": "mainnetContractAddress",
      "outputs": [
        {
          "internalType": "address",
          "name": "",
          "type": "address"
        }
      ],
      "stateMutability": "view",
      "type": "function"
    },
    {
      "inputs": [],
      "name": "mehToken",
      "outputs": [
        {
          "internalType": "contract IERC20",
          "name": "",
          "type": "address"
        }
      ],
      "stateMutability": "view",
      "type": "function"
    },
    {
      "inputs": [],
      "name": "owner",
      "outputs": [
        {
          "internalType": "address",
          "name": "",
          "type": "address"
        }
      ],
      "stateMutability": "view",
      "type": "function"
    },
    {
      "inputs": [],
      "name": "renounceOwnership",
      "outputs": [],
      "stateMutability": "nonpayable",
      "type": "function"
    },
    {
      "inputs": [],
      "name": "router",
      "outputs": [
        {
          "internalType": "contract IRouterClient",
          "name": "",
          "type": "address"
        }
      ],
      "stateMutability": "view",
      "type": "function"
    },
    {
      "inputs": [],
      "name": "sendWalletAddress",
      "outputs": [],
      "stateMutability": "nonpayable",
      "type": "function"
    },
    {
      "inputs": [
        {
          "internalType": "uint256",
          "name": "id",
          "type": "uint256"
        },
        {
          "internalType": "bytes32[]",
          "name": "proof",
          "type": "bytes32[]"
        }
      ],
      "name": "signAd",
      "outputs": [],
      "stateMutability": "nonpayable",
      "type": "function"
    },
    {
      "inputs": [
        {
          "internalType": "bytes4",
          "name": "interfaceId",
          "type": "bytes4"
        }
      ],
      "name": "supportsInterface",
      "outputs": [
        {
          "internalType": "bool",
          "name": "",
          "type": "bool"
        }
      ],
      "stateMutability": "pure",
      "type": "function"
    },
    {
      "inputs": [
        {
          "internalType": "address",
          "name": "newOwner",
          "type": "address"
        }
      ],
      "name": "transferOwnership",
      "outputs": [],
      "stateMutability": "nonpayable",
      "type": "function"
    },
    {
      "inputs": [],
      "name": "withdrawMeh",
      "outputs": [],
      "stateMutability": "nonpayable",
      "type": "function"
    }
  ],
  "bytecode": "0x60a06040523480156200001157600080fd5b50604051620027e4380380620027e48339818101604052810190620000379190620003f7565b84600073ffffffffffffffffffffffffffffffffffffffff168173ffffffffffffffffffffffffffffffffffffffff1603620000ad5760006040517fd7f73334000000000000000000000000000000000000000000000000000000008152600401620000a49190620004a4565b60405180910390fd5b8073ffffffffffffffffffffffffffffffffffffffff1660808173ffffffffffffffffffffffffffffffffffffffff16815250505062000102620000f66200027c60201b60201c565b6200028460201b60201c565b85600160006101000a81548173ffffffffffffffffffffffffffffffffffffffff021916908373ffffffffffffffffffffffffffffffffffffffff16021790555084600260006101000a81548173ffffffffffffffffffffffffffffffffffffffff021916908373ffffffffffffffffffffffffffffffffffffffff16021790555082600360006101000a81548173ffffffffffffffffffffffffffffffffffffffff021916908373ffffffffffffffffffffffffffffffffffffffff16021790555083600460006101000a81548173ffffffffffffffffffffffffffffffffffffffff021916908373ffffffffffffffffffffffffffffffffffffffff16021790555081600560006101000a81548173ffffffffffffffffffffffffffffffffffffffff021916908373ffffffffffffffffffffffffffffffffffffffff16021790555080600560146101000a81548167ffffffffffffffff021916908367ffffffffffffffff160217905550505050505050620004c1565b600033905090565b60008060009054906101000a900473ffffffffffffffffffffffffffffffffffffffff169050816000806101000a81548173ffffffffffffffffffffffffffffffffffffffff021916908373ffffffffffffffffffffffffffffffffffffffff1602179055508173ffffffffffffffffffffffffffffffffffffffff168173ffffffffffffffffffffffffffffffffffffffff167f8be0079c531659141344cd1fd0a4f28419497f9722a3daafe3b4186f6b6457e060405160405180910390a35050565b600080fd5b600073ffffffffffffffffffffffffffffffffffffffff82169050919050565b60006200037a826200034d565b9050919050565b6200038c816200036d565b81146200039857600080fd5b50565b600081519050620003ac8162000381565b92915050565b600067ffffffffffffffff82169050919050565b620003d181620003b2565b8114620003dd57600080fd5b50565b600081519050620003f181620003c6565b92915050565b60008060008060008060c0878903121562000417576200041662000348565b5b60006200042789828a016200039b565b96505060206200043a89828a016200039b565b95505060406200044d89828a016200039b565b94505060606200046089828a016200039b565b93505060806200047389828a016200039b565b92505060a06200048689828a01620003e0565b9150509295509295509295565b6200049e816200036d565b82525050565b6000602082019050620004bb600083018462000493565b92915050565b608051612300620004e4600039600081816107fd01526108f301526123006000f3fe608060405234801561001057600080fd5b50600436106101005760003560e01c806392b9d02511610097578063f2fde38b11610066578063f2fde38b14610267578063f887ea4014610283578063fd56b55a146102a1578063fe49e833146102ab57610100565b806392b9d025146101ef578063b0f479a11461020d578063c62693891461022b578063e2c2c8841461024957610100565b806369bf713e116100d357806369bf713e146101a1578063715018a6146101ab57806385572ffb146101b55780638da5cb5b146101d157610100565b806301ffc9a71461010557806331db1ffc1461013557806357970e9314610153578063672fb96914610171575b600080fd5b61011f600480360381019061011a9190611094565b6102c7565b60405161012c91906110dc565b60405180910390f35b61013d610399565b60405161014a919061111a565b60405180910390f35b61015b6103b3565b60405161016891906111b4565b60405180910390f35b61018b60048036038101906101869190611205565b6103d9565b6040516101989190611345565b60405180910390f35b6101a9610489565b005b6101b36107e7565b005b6101cf60048036038101906101ca919061138b565b6107fb565b005b6101d96108a0565b6040516101e691906113f5565b60405180910390f35b6101f76108c9565b6040516102049190611431565b60405180910390f35b6102156108ef565b60405161022291906113f5565b60405180910390f35b610233610917565b60405161024091906113f5565b60405180910390f35b61025161093d565b60405161025e91906111b4565b60405180910390f35b610281600480360381019061027c9190611478565b610963565b005b61028b6109e6565b60405161029891906114c6565b60405180910390f35b6102a9610a0c565b005b6102c560048036038101906102c09190611546565b610b5f565b005b60007f85572ffb000000000000000000000000000000000000000000000000000000007bffffffffffffffffffffffffffffffffffffffffffffffffffffffff1916827bffffffffffffffffffffffffffffffffffffffffffffffffffffffff1916148061039257507f01ffc9a7000000000000000000000000000000000000000000000000000000007bffffffffffffffffffffffffffffffffffffffffffffffffffffffff1916827bffffffffffffffffffffffffffffffffffffffffffffffffffffffff1916145b9050919050565b600560149054906101000a900467ffffffffffffffff1681565b600460009054906101000a900473ffffffffffffffffffffffffffffffffffffffff1681565b6103e1610fca565b600560009054906101000a900473ffffffffffffffffffffffffffffffffffffffff1673ffffffffffffffffffffffffffffffffffffffff1663672fb969836040518263ffffffff1660e01b815260040161043c91906115b5565b600060405180830381865afa158015610459573d6000803e3d6000fd5b505050506040513d6000823e3d601f19601f8201168201806040525081019061048291906117d7565b9050919050565b60008067ffffffffffffffff8111156104a5576104a46115d5565b5b6040519080825280602002602001820160405280156104de57816020015b6104cb610ff8565b8152602001906001900390816104c35790505b50905060006040518060a00160405280600160009054906101000a900473ffffffffffffffffffffffffffffffffffffffff1660405160200161052191906113f5565b60405160208183030381529060405281526020013360405160200161054691906113f5565b6040516020818303038152906040528152602001838152602001600073ffffffffffffffffffffffffffffffffffffffff168152602001610597604051806020016040528062061a80815250610bfd565b81525090506000600260009054906101000a900473ffffffffffffffffffffffffffffffffffffffff1673ffffffffffffffffffffffffffffffffffffffff166320487ded600560149054906101000a900467ffffffffffffffff16846040518363ffffffff1660e01b81526004016106119291906119fc565b602060405180830381865afa15801561062e573d6000803e3d6000fd5b505050506040513d601f19601f820116820180604052508101906106529190611a41565b9050600260009054906101000a900473ffffffffffffffffffffffffffffffffffffffff1673ffffffffffffffffffffffffffffffffffffffff166396f4e9f982600560149054906101000a900467ffffffffffffffff16856040518463ffffffff1660e01b81526004016106c89291906119fc565b60206040518083038185885af19350505050801561070457506040513d601f19601f820116820180604052508101906107019190611a6e565b60015b6107a957610710611aa8565b806308c379a00361076c5750610724611aca565b8061072f575061076e565b7fcc8610635659273962514cbb1e149386cc83625cb5595394a01869a0c3fbf7cb8160405161075e9190611ba4565b60405180910390a1506107a4565b505b7fcc8610635659273962514cbb1e149386cc83625cb5595394a01869a0c3fbf7cb60405161079b90611c12565b60405180910390a15b6107e2565b7f54791b38f3859327992a1ca0590ad3c0f08feba98d1a4f56ab0dca74d203392a816040516107d89190611c41565b60405180910390a1505b505050565b6107ef610c7c565b6107f96000610cfa565b565b7f000000000000000000000000000000000000000000000000000000000000000073ffffffffffffffffffffffffffffffffffffffff163373ffffffffffffffffffffffffffffffffffffffff161461088b57336040517fd7f7333400000000000000000000000000000000000000000000000000000000815260040161088291906113f5565b60405180910390fd5b61089d8161089890611f40565b610dbe565b50565b60008060009054906101000a900473ffffffffffffffffffffffffffffffffffffffff16905090565b600560009054906101000a900473ffffffffffffffffffffffffffffffffffffffff1681565b60007f0000000000000000000000000000000000000000000000000000000000000000905090565b600160009054906101000a900473ffffffffffffffffffffffffffffffffffffffff1681565b600360009054906101000a900473ffffffffffffffffffffffffffffffffffffffff1681565b61096b610c7c565b600073ffffffffffffffffffffffffffffffffffffffff168173ffffffffffffffffffffffffffffffffffffffff16036109da576040517f08c379a00000000000000000000000000000000000000000000000000000000081526004016109d190611fc5565b60405180910390fd5b6109e381610cfa565b50565b600260009054906101000a900473ffffffffffffffffffffffffffffffffffffffff1681565b610a14610c7c565b6000600360009054906101000a900473ffffffffffffffffffffffffffffffffffffffff1673ffffffffffffffffffffffffffffffffffffffff166370a08231306040518263ffffffff1660e01b8152600401610a7191906113f5565b602060405180830381865afa158015610a8e573d6000803e3d6000fd5b505050506040513d601f19601f82011682018060405250810190610ab29190611a41565b9050600360009054906101000a900473ffffffffffffffffffffffffffffffffffffffff1673ffffffffffffffffffffffffffffffffffffffff1663a9059cbb610afa6108a0565b836040518363ffffffff1660e01b8152600401610b18929190611fe5565b6020604051808303816000875af1158015610b37573d6000803e3d6000fd5b505050506040513d601f19601f82011682018060405250810190610b5b919061203a565b5050565b600560009054906101000a900473ffffffffffffffffffffffffffffffffffffffff1673ffffffffffffffffffffffffffffffffffffffff1663fe49e8338484846040518463ffffffff1660e01b8152600401610bbe939291906120e2565b600060405180830381600087803b158015610bd857600080fd5b505af1158015610bec573d6000803e3d6000fd5b50505050610bf8610489565b505050565b60606397a657c960e01b82604051602401610c189190612130565b604051602081830303815290604052907bffffffffffffffffffffffffffffffffffffffffffffffffffffffff19166020820180517bffffffffffffffffffffffffffffffffffffffffffffffffffffffff83818316178352505050509050919050565b610c84610fc2565b73ffffffffffffffffffffffffffffffffffffffff16610ca26108a0565b73ffffffffffffffffffffffffffffffffffffffff1614610cf8576040517f08c379a0000000000000000000000000000000000000000000000000000000008152600401610cef90612197565b60405180910390fd5b565b60008060009054906101000a900473ffffffffffffffffffffffffffffffffffffffff169050816000806101000a81548173ffffffffffffffffffffffffffffffffffffffff021916908373ffffffffffffffffffffffffffffffffffffffff1602179055508173ffffffffffffffffffffffffffffffffffffffff168173ffffffffffffffffffffffffffffffffffffffff167f8be0079c531659141344cd1fd0a4f28419497f9722a3daafe3b4186f6b6457e060405160405180910390a35050565b60008160600151806020019051810190610dd89190611a41565b905060008260400151806020019051810190610df491906121f5565b9050600460009054906101000a900473ffffffffffffffffffffffffffffffffffffffff1673ffffffffffffffffffffffffffffffffffffffff166370a08231306040518263ffffffff1660e01b8152600401610e5191906113f5565b602060405180830381865afa158015610e6e573d6000803e3d6000fd5b505050506040513d601f19601f82011682018060405250810190610e929190611a41565b82610e9d9190612251565b91506000690a968163f0a57b4000009050670de0b6b3a76400008310610ed6576969e10de76676d080000081610ed39190612251565b90505b600360009054906101000a900473ffffffffffffffffffffffffffffffffffffffff1673ffffffffffffffffffffffffffffffffffffffff1663a9059cbb33836040518363ffffffff1660e01b8152600401610f33929190611fe5565b6020604051808303816000875af1158015610f52573d6000803e3d6000fd5b505050506040513d601f19601f82011682018060405250810190610f76919061203a565b507f9e0cedd023f625fb8db19f2eb903c24aa1a45f05fd9ef9431a80505ad65e30fe846000015185602001518486604051610fb49493929190612285565b60405180910390a150505050565b600033905090565b6040518060800160405280606081526020016060815260200160008019168152602001600080191681525090565b6040518060400160405280600073ffffffffffffffffffffffffffffffffffffffff168152602001600081525090565b6000604051905090565b600080fd5b600080fd5b60007fffffffff0000000000000000000000000000000000000000000000000000000082169050919050565b6110718161103c565b811461107c57600080fd5b50565b60008135905061108e81611068565b92915050565b6000602082840312156110aa576110a9611032565b5b60006110b88482850161107f565b91505092915050565b60008115159050919050565b6110d6816110c1565b82525050565b60006020820190506110f160008301846110cd565b92915050565b600067ffffffffffffffff82169050919050565b611114816110f7565b82525050565b600060208201905061112f600083018461110b565b92915050565b600073ffffffffffffffffffffffffffffffffffffffff82169050919050565b6000819050919050565b600061117a61117561117084611135565b611155565b611135565b9050919050565b600061118c8261115f565b9050919050565b600061119e82611181565b9050919050565b6111ae81611193565b82525050565b60006020820190506111c960008301846111a5565b92915050565b6000819050919050565b6111e2816111cf565b81146111ed57600080fd5b50565b6000813590506111ff816111d9565b92915050565b60006020828403121561121b5761121a611032565b5b6000611229848285016111f0565b91505092915050565b600081519050919050565b600082825260208201905092915050565b60005b8381101561126c578082015181840152602081019050611251565b60008484015250505050565b6000601f19601f8301169050919050565b600061129482611232565b61129e818561123d565b93506112ae81856020860161124e565b6112b781611278565b840191505092915050565b6000819050919050565b6112d5816112c2565b82525050565b600060808301600083015184820360008601526112f88282611289565b915050602083015184820360208601526113128282611289565b915050604083015161132760408601826112cc565b50606083015161133a60608601826112cc565b508091505092915050565b6000602082019050818103600083015261135f81846112db565b905092915050565b600080fd5b600060a0828403121561138257611381611367565b5b81905092915050565b6000602082840312156113a1576113a0611032565b5b600082013567ffffffffffffffff8111156113bf576113be611037565b5b6113cb8482850161136c565b91505092915050565b60006113df82611135565b9050919050565b6113ef816113d4565b82525050565b600060208201905061140a60008301846113e6565b92915050565b600061141b82611181565b9050919050565b61142b81611410565b82525050565b60006020820190506114466000830184611422565b92915050565b611455816113d4565b811461146057600080fd5b50565b6000813590506114728161144c565b92915050565b60006020828403121561148e5761148d611032565b5b600061149c84828501611463565b91505092915050565b60006114b082611181565b9050919050565b6114c0816114a5565b82525050565b60006020820190506114db60008301846114b7565b92915050565b600080fd5b600080fd5b600080fd5b60008083601f840112611506576115056114e1565b5b8235905067ffffffffffffffff811115611523576115226114e6565b5b60208301915083602082028301111561153f5761153e6114eb565b5b9250929050565b60008060006040848603121561155f5761155e611032565b5b600061156d868287016111f0565b935050602084013567ffffffffffffffff81111561158e5761158d611037565b5b61159a868287016114f0565b92509250509250925092565b6115af816111cf565b82525050565b60006020820190506115ca60008301846115a6565b92915050565b600080fd5b7f4e487b7100000000000000000000000000000000000000000000000000000000600052604160045260246000fd5b61160d82611278565b810181811067ffffffffffffffff8211171561162c5761162b6115d5565b5b80604052505050565b600061163f611028565b905061164b8282611604565b919050565b600080fd5b600080fd5b600067ffffffffffffffff821115611675576116746115d5565b5b61167e82611278565b9050602081019050919050565b600061169e6116998461165a565b611635565b9050828152602081018484840111156116ba576116b9611655565b5b6116c584828561124e565b509392505050565b600082601f8301126116e2576116e16114e1565b5b81516116f284826020860161168b565b91505092915050565b611704816112c2565b811461170f57600080fd5b50565b600081519050611721816116fb565b92915050565b60006080828403121561173d5761173c6115d0565b5b6117476080611635565b9050600082015167ffffffffffffffff81111561176757611766611650565b5b611773848285016116cd565b600083015250602082015167ffffffffffffffff81111561179757611796611650565b5b6117a3848285016116cd565b60208301525060406117b784828501611712565b60408301525060606117cb84828501611712565b60608301525092915050565b6000602082840312156117ed576117ec611032565b5b600082015167ffffffffffffffff81111561180b5761180a611037565b5b61181784828501611727565b91505092915050565b600081519050919050565b600082825260208201905092915050565b600061184782611820565b611851818561182b565b935061186181856020860161124e565b61186a81611278565b840191505092915050565b600081519050919050565b600082825260208201905092915050565b6000819050602082019050919050565b6118aa816113d4565b82525050565b6118b9816111cf565b82525050565b6040820160008201516118d560008501826118a1565b5060208201516118e860208501826118b0565b50505050565b60006118fa83836118bf565b60408301905092915050565b6000602082019050919050565b600061191e82611875565b6119288185611880565b935061193383611891565b8060005b8381101561196457815161194b88826118ee565b975061195683611906565b925050600181019050611937565b5085935050505092915050565b600060a083016000830151848203600086015261198e828261183c565b915050602083015184820360208601526119a8828261183c565b915050604083015184820360408601526119c28282611913565b91505060608301516119d760608601826118a1565b50608083015184820360808601526119ef828261183c565b9150508091505092915050565b6000604082019050611a11600083018561110b565b8181036020830152611a238184611971565b90509392505050565b600081519050611a3b816111d9565b92915050565b600060208284031215611a5757611a56611032565b5b6000611a6584828501611a2c565b91505092915050565b600060208284031215611a8457611a83611032565b5b6000611a9284828501611712565b91505092915050565b60008160e01c9050919050565b600060033d1115611ac75760046000803e611ac4600051611a9b565b90505b90565b600060443d10611b5757611adc611028565b60043d036004823e80513d602482011167ffffffffffffffff82111715611b04575050611b57565b808201805167ffffffffffffffff811115611b225750505050611b57565b80602083010160043d038501811115611b3f575050505050611b57565b611b4e82602001850186611604565b82955050505050505b90565b600082825260208201905092915050565b6000611b7682611232565b611b808185611b5a565b9350611b9081856020860161124e565b611b9981611278565b840191505092915050565b60006020820190508181036000830152611bbe8184611b6b565b905092915050565b7f556e6b6e6f776e206572726f72206f6363757272656400000000000000000000600082015250565b6000611bfc601683611b5a565b9150611c0782611bc6565b602082019050919050565b60006020820190508181036000830152611c2b81611bef565b9050919050565b611c3b816112c2565b82525050565b6000602082019050611c566000830184611c32565b92915050565b600081359050611c6b816116fb565b92915050565b611c7a816110f7565b8114611c8557600080fd5b50565b600081359050611c9781611c71565b92915050565b600067ffffffffffffffff821115611cb857611cb76115d5565b5b611cc182611278565b9050602081019050919050565b82818337600083830152505050565b6000611cf0611ceb84611c9d565b611635565b905082815260208101848484011115611d0c57611d0b611655565b5b611d17848285611cce565b509392505050565b600082601f830112611d3457611d336114e1565b5b8135611d44848260208601611cdd565b91505092915050565b600067ffffffffffffffff821115611d6857611d676115d5565b5b602082029050602081019050919050565b600060408284031215611d8f57611d8e6115d0565b5b611d996040611635565b90506000611da984828501611463565b6000830152506020611dbd848285016111f0565b60208301525092915050565b6000611ddc611dd784611d4d565b611635565b90508083825260208201905060408402830185811115611dff57611dfe6114eb565b5b835b81811015611e285780611e148882611d79565b845260208401935050604081019050611e01565b5050509392505050565b600082601f830112611e4757611e466114e1565b5b8135611e57848260208601611dc9565b91505092915050565b600060a08284031215611e7657611e756115d0565b5b611e8060a0611635565b90506000611e9084828501611c5c565b6000830152506020611ea484828501611c88565b602083015250604082013567ffffffffffffffff811115611ec857611ec7611650565b5b611ed484828501611d1f565b604083015250606082013567ffffffffffffffff811115611ef857611ef7611650565b5b611f0484828501611d1f565b606083015250608082013567ffffffffffffffff811115611f2857611f27611650565b5b611f3484828501611e32565b60808301525092915050565b6000611f4c3683611e60565b9050919050565b7f4f776e61626c653a206e6577206f776e657220697320746865207a65726f206160008201527f6464726573730000000000000000000000000000000000000000000000000000602082015250565b6000611faf602683611b5a565b9150611fba82611f53565b604082019050919050565b60006020820190508181036000830152611fde81611fa2565b9050919050565b6000604082019050611ffa60008301856113e6565b61200760208301846115a6565b9392505050565b612017816110c1565b811461202257600080fd5b50565b6000815190506120348161200e565b92915050565b6000602082840312156120505761204f611032565b5b600061205e84828501612025565b91505092915050565b600082825260208201905092915050565b600080fd5b82818337505050565b60006120928385612067565b93507f07ffffffffffffffffffffffffffffffffffffffffffffffffffffffffffffff8311156120c5576120c4612078565b5b6020830292506120d683858461207d565b82840190509392505050565b60006040820190506120f760008301866115a6565b818103602083015261210a818486612086565b9050949350505050565b60208201600082015161212a60008501826118b0565b50505050565b60006020820190506121456000830184612114565b92915050565b7f4f776e61626c653a2063616c6c6572206973206e6f7420746865206f776e6572600082015250565b6000612181602083611b5a565b915061218c8261214b565b602082019050919050565b600060208201905081810360008301526121b081612174565b9050919050565b60006121c282611135565b9050919050565b6121d2816121b7565b81146121dd57600080fd5b50565b6000815190506121ef816121c9565b92915050565b60006020828403121561220b5761220a611032565b5b6000612219848285016121e0565b91505092915050565b7f4e487b7100000000000000000000000000000000000000000000000000000000600052601160045260246000fd5b600061225c826111cf565b9150612267836111cf565b925082820190508082111561227f5761227e612222565b5b92915050565b600060808201905061229a6000830187611c32565b6122a7602083018661110b565b6122b460408301856113e6565b6122c160608301846115a6565b9594505050505056fea26469706673582212209c95b53b05df01fef67fe65805be39e3440a3bad8912008dcd26538d67593d5664736f6c63430008180033",
  "linkReferences": {},
  "deployedLinkReferences": {}
}