{
  "_format": "hh-sol-artifact-1",
  "contractName": "MehFaucetV1",
  "sourceName": "contracts/MehFaucetV1.sol",
  "abi": [
    {
      "inputs": [
        {
          "internalType": "contract IERC20",
          "name": "_mehToken",
          "type": "address"
        }
      ],
      "stateMutability": "nonpayable",
      "type": "constructor"
    },
    {
      "anonymous": false,
      "inputs": [
        {
          "indexed": true,
          "internalType": "address",
          "name": "previousOwner",
          "type": "address"
        },
        {
          "indexed": true,
          "internalType": "address",
          "name": "newOwner",
          "type": "address"
        }
      ],
      "name": "OwnershipTransferred",
      "type": "event"
    },
    {
      "inputs": [],
      "name": "MAX_TOKEN_AMOUNT",
      "outputs": [
        {
          "internalType": "uint256",
          "name": "",
          "type": "uint256"
        }
      ],
      "stateMutability": "view",
      "type": "function"
    },
    {
      "inputs": [],
      "name": "MIN_TOKEN_AMOUNT",
      "outputs": [
        {
          "internalType": "uint256",
          "name": "",
          "type": "uint256"
        }
      ],
      "stateMutability": "view",
      "type": "function"
    },
    {
      "inputs": [],
      "name": "TIME_INTERVAL",
      "outputs": [
        {
          "internalType": "uint256",
          "name": "",
          "type": "uint256"
        }
      ],
      "stateMutability": "view",
      "type": "function"
    },
    {
      "inputs": [],
      "name": "faucet",
      "outputs": [],
      "stateMutability": "nonpayable",
      "type": "function"
    },
    {
      "inputs": [],
      "name": "faucetOn",
      "outputs": [
        {
          "internalType": "bool",
          "name": "",
          "type": "bool"
        }
      ],
      "stateMutability": "view",
      "type": "function"
    },
    {
      "inputs": [
        {
          "internalType": "address",
          "name": "",
          "type": "address"
        }
      ],
      "name": "lastAccessTime",
      "outputs": [
        {
          "internalType": "uint256",
          "name": "",
          "type": "uint256"
        }
      ],
      "stateMutability": "view",
      "type": "function"
    },
    {
      "inputs": [],
      "name": "mehToken",
      "outputs": [
        {
          "internalType": "contract IERC20",
          "name": "",
          "type": "address"
        }
      ],
      "stateMutability": "view",
      "type": "function"
    },
    {
      "inputs": [],
      "name": "owner",
      "outputs": [
        {
          "internalType": "address",
          "name": "",
          "type": "address"
        }
      ],
      "stateMutability": "view",
      "type": "function"
    },
    {
      "inputs": [],
      "name": "renounceOwnership",
      "outputs": [],
      "stateMutability": "nonpayable",
      "type": "function"
    },
    {
      "inputs": [],
      "name": "toggleFaucet",
      "outputs": [],
      "stateMutability": "nonpayable",
      "type": "function"
    },
    {
      "inputs": [
        {
          "internalType": "address",
          "name": "newOwner",
          "type": "address"
        }
      ],
      "name": "transferOwnership",
      "outputs": [],
      "stateMutability": "nonpayable",
      "type": "function"
    }
  ],
  "bytecode": "0x60a06040523480156200001157600080fd5b50604051620010a5380380620010a5833981810160405281019062000037919062000201565b60016000819055506200005f62000053620000b560201b60201c565b620000bd60201b60201c565b8073ffffffffffffffffffffffffffffffffffffffff1660808173ffffffffffffffffffffffffffffffffffffffff16815250506000600360006101000a81548160ff0219169083151502179055505062000233565b600033905090565b6000600160009054906101000a900473ffffffffffffffffffffffffffffffffffffffff16905081600160006101000a81548173ffffffffffffffffffffffffffffffffffffffff021916908373ffffffffffffffffffffffffffffffffffffffff1602179055508173ffffffffffffffffffffffffffffffffffffffff168173ffffffffffffffffffffffffffffffffffffffff167f8be0079c531659141344cd1fd0a4f28419497f9722a3daafe3b4186f6b6457e060405160405180910390a35050565b600080fd5b600073ffffffffffffffffffffffffffffffffffffffff82169050919050565b6000620001b58262000188565b9050919050565b6000620001c982620001a8565b9050919050565b620001db81620001bc565b8114620001e757600080fd5b50565b600081519050620001fb81620001d0565b92915050565b6000602082840312156200021a576200021962000183565b5b60006200022a84828501620001ea565b91505092915050565b608051610e486200025d6000396000818161036c0152818161048b01526105350152610e486000f3fe608060405234801561001057600080fd5b50600436106100a95760003560e01c8063b264e66411610071578063b264e6641461012e578063de5f72fd1461014c578063e2c2c88414610156578063e3b45ab714610174578063e9bb37a014610192578063f2fde38b146101b0576100a9565b80631e9c2d67146100ae578063295711f9146100cc578063715018a6146100d6578063844b829a146100e05780638da5cb5b14610110575b600080fd5b6100b66101cc565b6040516100c3919061082e565b60405180910390f35b6100d46101d9565b005b6100de61020d565b005b6100fa60048036038101906100f591906108ac565b610221565b604051610107919061082e565b60405180910390f35b610118610239565b60405161012591906108e8565b60405180910390f35b610136610263565b604051610143919061091e565b60405180910390f35b610154610276565b005b61015e610533565b60405161016b9190610998565b60405180910390f35b61017c610557565b604051610189919061082e565b60405180910390f35b61019a610564565b6040516101a7919061082e565b60405180910390f35b6101ca60048036038101906101c591906108ac565b61056b565b005b683ba1910bf341b0000081565b6101e16105ee565b600360009054906101000a900460ff1615600360006101000a81548160ff021916908315150217905550565b6102156105ee565b61021f600061066c565b565b60026020528060005260406000206000915090505481565b6000600160009054906101000a900473ffffffffffffffffffffffffffffffffffffffff16905090565b600360009054906101000a900460ff1681565b61027e610732565b600360009054906101000a900460ff166102cd576040517f08c379a00000000000000000000000000000000000000000000000000000000081526004016102c490610a10565b60405180910390fd5b62015180600260003373ffffffffffffffffffffffffffffffffffffffff1673ffffffffffffffffffffffffffffffffffffffff1681526020019081526020016000205461031b9190610a5f565b42101561035d576040517f08c379a000000000000000000000000000000000000000000000000000000000815260040161035490610a10565b60405180910390fd5b6000610367610781565b9050807f000000000000000000000000000000000000000000000000000000000000000073ffffffffffffffffffffffffffffffffffffffff166370a08231306040518263ffffffff1660e01b81526004016103c391906108e8565b602060405180830381865afa1580156103e0573d6000803e3d6000fd5b505050506040513d601f19601f820116820180604052508101906104049190610abf565b1015610445576040517f08c379a000000000000000000000000000000000000000000000000000000000815260040161043c90610a10565b60405180910390fd5b42600260003373ffffffffffffffffffffffffffffffffffffffff1673ffffffffffffffffffffffffffffffffffffffff168152602001908152602001600020819055507f000000000000000000000000000000000000000000000000000000000000000073ffffffffffffffffffffffffffffffffffffffff1663a9059cbb33836040518363ffffffff1660e01b81526004016104e4929190610aec565b6020604051808303816000875af1158015610503573d6000803e3d6000fd5b505050506040513d601f19601f820116820180604052508101906105279190610b41565b5050610531610803565b565b7f000000000000000000000000000000000000000000000000000000000000000081565b6825f273933db570000081565b6201518081565b6105736105ee565b600073ffffffffffffffffffffffffffffffffffffffff168173ffffffffffffffffffffffffffffffffffffffff16036105e2576040517f08c379a00000000000000000000000000000000000000000000000000000000081526004016105d990610be0565b60405180910390fd5b6105eb8161066c565b50565b6105f661080d565b73ffffffffffffffffffffffffffffffffffffffff16610614610239565b73ffffffffffffffffffffffffffffffffffffffff161461066a576040517f08c379a000000000000000000000000000000000000000000000000000000000815260040161066190610c4c565b60405180910390fd5b565b6000600160009054906101000a900473ffffffffffffffffffffffffffffffffffffffff16905081600160006101000a81548173ffffffffffffffffffffffffffffffffffffffff021916908373ffffffffffffffffffffffffffffffffffffffff1602179055508173ffffffffffffffffffffffffffffffffffffffff168173ffffffffffffffffffffffffffffffffffffffff167f8be0079c531659141344cd1fd0a4f28419497f9722a3daafe3b4186f6b6457e060405160405180910390a35050565b600260005403610777576040517f08c379a000000000000000000000000000000000000000000000000000000000815260040161076e90610cb8565b60405180910390fd5b6002600081905550565b60008060016825f273933db5700000683ba1910bf341b000006107a49190610cd8565b6107ae9190610a5f565b4442336040516020016107c393929190610d75565b6040516020818303038152906040528051906020012060001c6107e69190610de1565b90506825f273933db5700000816107fd9190610a5f565b91505090565b6001600081905550565b600033905090565b6000819050919050565b61082881610815565b82525050565b6000602082019050610843600083018461081f565b92915050565b600080fd5b600073ffffffffffffffffffffffffffffffffffffffff82169050919050565b60006108798261084e565b9050919050565b6108898161086e565b811461089457600080fd5b50565b6000813590506108a681610880565b92915050565b6000602082840312156108c2576108c1610849565b5b60006108d084828501610897565b91505092915050565b6108e28161086e565b82525050565b60006020820190506108fd60008301846108d9565b92915050565b60008115159050919050565b61091881610903565b82525050565b6000602082019050610933600083018461090f565b92915050565b6000819050919050565b600061095e6109596109548461084e565b610939565b61084e565b9050919050565b600061097082610943565b9050919050565b600061098282610965565b9050919050565b61099281610977565b82525050565b60006020820190506109ad6000830184610989565b92915050565b600082825260208201905092915050565b7f6d65680000000000000000000000000000000000000000000000000000000000600082015250565b60006109fa6003836109b3565b9150610a05826109c4565b602082019050919050565b60006020820190508181036000830152610a29816109ed565b9050919050565b7f4e487b7100000000000000000000000000000000000000000000000000000000600052601160045260246000fd5b6000610a6a82610815565b9150610a7583610815565b9250828201905080821115610a8d57610a8c610a30565b5b92915050565b610a9c81610815565b8114610aa757600080fd5b50565b600081519050610ab981610a93565b92915050565b600060208284031215610ad557610ad4610849565b5b6000610ae384828501610aaa565b91505092915050565b6000604082019050610b0160008301856108d9565b610b0e602083018461081f565b9392505050565b610b1e81610903565b8114610b2957600080fd5b50565b600081519050610b3b81610b15565b92915050565b600060208284031215610b5757610b56610849565b5b6000610b6584828501610b2c565b91505092915050565b7f4f776e61626c653a206e6577206f776e657220697320746865207a65726f206160008201527f6464726573730000000000000000000000000000000000000000000000000000602082015250565b6000610bca6026836109b3565b9150610bd582610b6e565b604082019050919050565b60006020820190508181036000830152610bf981610bbd565b9050919050565b7f4f776e61626c653a2063616c6c6572206973206e6f7420746865206f776e6572600082015250565b6000610c366020836109b3565b9150610c4182610c00565b602082019050919050565b60006020820190508181036000830152610c6581610c29565b9050919050565b7f5265656e7472616e637947756172643a207265656e7472616e742063616c6c00600082015250565b6000610ca2601f836109b3565b9150610cad82610c6c565b602082019050919050565b60006020820190508181036000830152610cd181610c95565b9050919050565b6000610ce382610815565b9150610cee83610815565b9250828203905081811115610d0657610d05610a30565b5b92915050565b6000819050919050565b610d27610d2282610815565b610d0c565b82525050565b60008160601b9050919050565b6000610d4582610d2d565b9050919050565b6000610d5782610d3a565b9050919050565b610d6f610d6a8261086e565b610d4c565b82525050565b6000610d818286610d16565b602082019150610d918285610d16565b602082019150610da18284610d5e565b601482019150819050949350505050565b7f4e487b7100000000000000000000000000000000000000000000000000000000600052601260045260246000fd5b6000610dec82610815565b9150610df783610815565b925082610e0757610e06610db2565b5b82820690509291505056fea2646970667358221220ad2e357242e0d7d725481dbc922abad6aaafa60ed9ffdb88a37c183226cd0e8364736f6c63430008180033",
  "linkReferences": {},
  "deployedLinkReferences": {}
}