{
  "_format": "hh-sol-artifact-1",
  "contractName": "MehFaucetV1",
  "sourceName": "contracts/MehFaucetV1.sol",
  "abi": [
    {
      "inputs": [
        {
          "internalType": "contract IERC20",
          "name": "_mehToken",
          "type": "address"
        }
      ],
      "stateMutability": "nonpayable",
      "type": "constructor"
    },
    {
      "anonymous": false,
      "inputs": [
        {
          "indexed": true,
          "internalType": "address",
          "name": "previousOwner",
          "type": "address"
        },
        {
          "indexed": true,
          "internalType": "address",
          "name": "newOwner",
          "type": "address"
        }
      ],
      "name": "OwnershipTransferred",
      "type": "event"
    },
    {
      "inputs": [],
      "name": "MAX_TOKEN_AMOUNT",
      "outputs": [
        {
          "internalType": "uint256",
          "name": "",
          "type": "uint256"
        }
      ],
      "stateMutability": "view",
      "type": "function"
    },
    {
      "inputs": [],
      "name": "MIN_TOKEN_AMOUNT",
      "outputs": [
        {
          "internalType": "uint256",
          "name": "",
          "type": "uint256"
        }
      ],
      "stateMutability": "view",
      "type": "function"
    },
    {
      "inputs": [],
      "name": "TIME_INTERVAL",
      "outputs": [
        {
          "internalType": "uint256",
          "name": "",
          "type": "uint256"
        }
      ],
      "stateMutability": "view",
      "type": "function"
    },
    {
      "inputs": [],
      "name": "faucet",
      "outputs": [],
      "stateMutability": "nonpayable",
      "type": "function"
    },
    {
      "inputs": [],
      "name": "faucetOn",
      "outputs": [
        {
          "internalType": "bool",
          "name": "",
          "type": "bool"
        }
      ],
      "stateMutability": "view",
      "type": "function"
    },
    {
      "inputs": [
        {
          "internalType": "address",
          "name": "",
          "type": "address"
        }
      ],
      "name": "lastAccessTime",
      "outputs": [
        {
          "internalType": "uint256",
          "name": "",
          "type": "uint256"
        }
      ],
      "stateMutability": "view",
      "type": "function"
    },
    {
      "inputs": [],
      "name": "mehToken",
      "outputs": [
        {
          "internalType": "contract IERC20",
          "name": "",
          "type": "address"
        }
      ],
      "stateMutability": "view",
      "type": "function"
    },
    {
      "inputs": [],
      "name": "owner",
      "outputs": [
        {
          "internalType": "address",
          "name": "",
          "type": "address"
        }
      ],
      "stateMutability": "view",
      "type": "function"
    },
    {
      "inputs": [],
      "name": "renounceOwnership",
      "outputs": [],
      "stateMutability": "nonpayable",
      "type": "function"
    },
    {
      "inputs": [],
      "name": "toggleFaucet",
      "outputs": [],
      "stateMutability": "nonpayable",
      "type": "function"
    },
    {
      "inputs": [
        {
          "internalType": "address",
          "name": "newOwner",
          "type": "address"
        }
      ],
      "name": "transferOwnership",
      "outputs": [],
      "stateMutability": "nonpayable",
      "type": "function"
    }
  ],
  "bytecode": "0x60a06040523480156200001157600080fd5b50604051620010aa380380620010aa833981810160405281019062000037919062000201565b60016000819055506200005f62000053620000b560201b60201c565b620000bd60201b60201c565b8073ffffffffffffffffffffffffffffffffffffffff1660808173ffffffffffffffffffffffffffffffffffffffff16815250506000600360006101000a81548160ff0219169083151502179055505062000233565b600033905090565b6000600160009054906101000a900473ffffffffffffffffffffffffffffffffffffffff16905081600160006101000a81548173ffffffffffffffffffffffffffffffffffffffff021916908373ffffffffffffffffffffffffffffffffffffffff1602179055508173ffffffffffffffffffffffffffffffffffffffff168173ffffffffffffffffffffffffffffffffffffffff167f8be0079c531659141344cd1fd0a4f28419497f9722a3daafe3b4186f6b6457e060405160405180910390a35050565b600080fd5b600073ffffffffffffffffffffffffffffffffffffffff82169050919050565b6000620001b58262000188565b9050919050565b6000620001c982620001a8565b9050919050565b620001db81620001bc565b8114620001e757600080fd5b50565b600081519050620001fb81620001d0565b92915050565b6000602082840312156200021a576200021962000183565b5b60006200022a84828501620001ea565b91505092915050565b608051610e4d6200025d6000396000818161036d0152818161048c01526105360152610e4d6000f3fe608060405234801561001057600080fd5b50600436106100a95760003560e01c8063b264e66411610071578063b264e6641461012e578063de5f72fd1461014c578063e2c2c88414610156578063e3b45ab714610174578063e9bb37a014610192578063f2fde38b146101b0576100a9565b80631e9c2d67146100ae578063295711f9146100cc578063715018a6146100d6578063844b829a146100e05780638da5cb5b14610110575b600080fd5b6100b66101cc565b6040516100c39190610833565b60405180910390f35b6100d46101da565b005b6100de61020e565b005b6100fa60048036038101906100f591906108b1565b610222565b6040516101079190610833565b60405180910390f35b61011861023a565b60405161012591906108ed565b60405180910390f35b610136610264565b6040516101439190610923565b60405180910390f35b610154610277565b005b61015e610534565b60405161016b919061099d565b60405180910390f35b61017c610558565b6040516101899190610833565b60405180910390f35b61019a610566565b6040516101a79190610833565b60405180910390f35b6101ca60048036038101906101c591906108b1565b61056d565b005b6905150ae84a8cdf00000081565b6101e26105f0565b600360009054906101000a900460ff1615600360006101000a81548160ff021916908315150217905550565b6102166105f0565b610220600061066e565b565b60026020528060005260406000206000915090505481565b6000600160009054906101000a900473ffffffffffffffffffffffffffffffffffffffff16905090565b600360009054906101000a900460ff1681565b61027f610734565b600360009054906101000a900460ff166102ce576040517f08c379a00000000000000000000000000000000000000000000000000000000081526004016102c590610a15565b60405180910390fd5b62015180600260003373ffffffffffffffffffffffffffffffffffffffff1673ffffffffffffffffffffffffffffffffffffffff1681526020019081526020016000205461031c9190610a64565b42101561035e576040517f08c379a000000000000000000000000000000000000000000000000000000000815260040161035590610a15565b60405180910390fd5b6000610368610783565b9050807f000000000000000000000000000000000000000000000000000000000000000073ffffffffffffffffffffffffffffffffffffffff166370a08231306040518263ffffffff1660e01b81526004016103c491906108ed565b602060405180830381865afa1580156103e1573d6000803e3d6000fd5b505050506040513d601f19601f820116820180604052508101906104059190610ac4565b1015610446576040517f08c379a000000000000000000000000000000000000000000000000000000000815260040161043d90610a15565b60405180910390fd5b42600260003373ffffffffffffffffffffffffffffffffffffffff1673ffffffffffffffffffffffffffffffffffffffff168152602001908152602001600020819055507f000000000000000000000000000000000000000000000000000000000000000073ffffffffffffffffffffffffffffffffffffffff1663a9059cbb33836040518363ffffffff1660e01b81526004016104e5929190610af1565b6020604051808303816000875af1158015610504573d6000803e3d6000fd5b505050506040513d601f19601f820116820180604052508101906105289190610b46565b5050610532610808565b565b7f000000000000000000000000000000000000000000000000000000000000000081565b69028a857425466f80000081565b6201518081565b6105756105f0565b600073ffffffffffffffffffffffffffffffffffffffff168173ffffffffffffffffffffffffffffffffffffffff16036105e4576040517f08c379a00000000000000000000000000000000000000000000000000000000081526004016105db90610be5565b60405180910390fd5b6105ed8161066e565b50565b6105f8610812565b73ffffffffffffffffffffffffffffffffffffffff1661061661023a565b73ffffffffffffffffffffffffffffffffffffffff161461066c576040517f08c379a000000000000000000000000000000000000000000000000000000000815260040161066390610c51565b60405180910390fd5b565b6000600160009054906101000a900473ffffffffffffffffffffffffffffffffffffffff16905081600160006101000a81548173ffffffffffffffffffffffffffffffffffffffff021916908373ffffffffffffffffffffffffffffffffffffffff1602179055508173ffffffffffffffffffffffffffffffffffffffff168173ffffffffffffffffffffffffffffffffffffffff167f8be0079c531659141344cd1fd0a4f28419497f9722a3daafe3b4186f6b6457e060405160405180910390a35050565b600260005403610779576040517f08c379a000000000000000000000000000000000000000000000000000000000815260040161077090610cbd565b60405180910390fd5b6002600081905550565b600080600169028a857425466f8000006905150ae84a8cdf0000006107a89190610cdd565b6107b29190610a64565b4442336040516020016107c793929190610d7a565b6040516020818303038152906040528051906020012060001c6107ea9190610de6565b905069028a857425466f800000816108029190610a64565b91505090565b6001600081905550565b600033905090565b6000819050919050565b61082d8161081a565b82525050565b60006020820190506108486000830184610824565b92915050565b600080fd5b600073ffffffffffffffffffffffffffffffffffffffff82169050919050565b600061087e82610853565b9050919050565b61088e81610873565b811461089957600080fd5b50565b6000813590506108ab81610885565b92915050565b6000602082840312156108c7576108c661084e565b5b60006108d58482850161089c565b91505092915050565b6108e781610873565b82525050565b600060208201905061090260008301846108de565b92915050565b60008115159050919050565b61091d81610908565b82525050565b60006020820190506109386000830184610914565b92915050565b6000819050919050565b600061096361095e61095984610853565b61093e565b610853565b9050919050565b600061097582610948565b9050919050565b60006109878261096a565b9050919050565b6109978161097c565b82525050565b60006020820190506109b2600083018461098e565b92915050565b600082825260208201905092915050565b7f6d65680000000000000000000000000000000000000000000000000000000000600082015250565b60006109ff6003836109b8565b9150610a0a826109c9565b602082019050919050565b60006020820190508181036000830152610a2e816109f2565b9050919050565b7f4e487b7100000000000000000000000000000000000000000000000000000000600052601160045260246000fd5b6000610a6f8261081a565b9150610a7a8361081a565b9250828201905080821115610a9257610a91610a35565b5b92915050565b610aa18161081a565b8114610aac57600080fd5b50565b600081519050610abe81610a98565b92915050565b600060208284031215610ada57610ad961084e565b5b6000610ae884828501610aaf565b91505092915050565b6000604082019050610b0660008301856108de565b610b136020830184610824565b9392505050565b610b2381610908565b8114610b2e57600080fd5b50565b600081519050610b4081610b1a565b92915050565b600060208284031215610b5c57610b5b61084e565b5b6000610b6a84828501610b31565b91505092915050565b7f4f776e61626c653a206e6577206f776e657220697320746865207a65726f206160008201527f6464726573730000000000000000000000000000000000000000000000000000602082015250565b6000610bcf6026836109b8565b9150610bda82610b73565b604082019050919050565b60006020820190508181036000830152610bfe81610bc2565b9050919050565b7f4f776e61626c653a2063616c6c6572206973206e6f7420746865206f776e6572600082015250565b6000610c3b6020836109b8565b9150610c4682610c05565b602082019050919050565b60006020820190508181036000830152610c6a81610c2e565b9050919050565b7f5265656e7472616e637947756172643a207265656e7472616e742063616c6c00600082015250565b6000610ca7601f836109b8565b9150610cb282610c71565b602082019050919050565b60006020820190508181036000830152610cd681610c9a565b9050919050565b6000610ce88261081a565b9150610cf38361081a565b9250828203905081811115610d0b57610d0a610a35565b5b92915050565b6000819050919050565b610d2c610d278261081a565b610d11565b82525050565b60008160601b9050919050565b6000610d4a82610d32565b9050919050565b6000610d5c82610d3f565b9050919050565b610d74610d6f82610873565b610d51565b82525050565b6000610d868286610d1b565b602082019150610d968285610d1b565b602082019150610da68284610d63565b601482019150819050949350505050565b7f4e487b7100000000000000000000000000000000000000000000000000000000600052601260045260246000fd5b6000610df18261081a565b9150610dfc8361081a565b925082610e0c57610e0b610db7565b5b82820690509291505056fea26469706673582212209e6fb0130c335b79d6ef8c879970b2a31e340066264d627e838db4ec44aafeb764736f6c63430008180033",
  "linkReferences": {},
  "deployedLinkReferences": {}
}