{
  "_format": "hh-sol-artifact-1",
  "contractName": "MehV1",
  "sourceName": "contracts/MehV1.sol",
  "abi": [
    {
      "inputs": [
        {
          "internalType": "contract IERC20",
          "name": "_mehToken",
          "type": "address"
        }
      ],
      "stateMutability": "nonpayable",
      "type": "constructor"
    },
    {
      "anonymous": false,
      "inputs": [
        {
          "indexed": true,
          "internalType": "address",
          "name": "previousOwner",
          "type": "address"
        },
        {
          "indexed": true,
          "internalType": "address",
          "name": "newOwner",
          "type": "address"
        }
      ],
      "name": "OwnershipTransferred",
      "type": "event"
    },
    {
      "inputs": [],
      "name": "MEH_MULTIPLIER",
      "outputs": [
        {
          "internalType": "uint256",
          "name": "",
          "type": "uint256"
        }
      ],
      "stateMutability": "view",
      "type": "function"
    },
    {
      "inputs": [
        {
          "internalType": "uint256",
          "name": "mehId",
          "type": "uint256"
        }
      ],
      "name": "distribute",
      "outputs": [],
      "stateMutability": "nonpayable",
      "type": "function"
    },
    {
      "inputs": [
        {
          "internalType": "uint256",
          "name": "mehId",
          "type": "uint256"
        }
      ],
      "name": "isMeh",
      "outputs": [
        {
          "internalType": "bool",
          "name": "",
          "type": "bool"
        }
      ],
      "stateMutability": "view",
      "type": "function"
    },
    {
      "inputs": [
        {
          "internalType": "string",
          "name": "name",
          "type": "string"
        },
        {
          "internalType": "string",
          "name": "link",
          "type": "string"
        },
        {
          "internalType": "string",
          "name": "media",
          "type": "string"
        }
      ],
      "name": "makeMeh",
      "outputs": [],
      "stateMutability": "nonpayable",
      "type": "function"
    },
    {
      "inputs": [
        {
          "internalType": "uint256",
          "name": "",
          "type": "uint256"
        }
      ],
      "name": "meh",
      "outputs": [
        {
          "internalType": "string",
          "name": "name",
          "type": "string"
        },
        {
          "internalType": "string",
          "name": "link",
          "type": "string"
        },
        {
          "internalType": "string",
          "name": "media",
          "type": "string"
        },
        {
          "internalType": "address",
          "name": "creator",
          "type": "address"
        },
        {
          "internalType": "uint256",
          "name": "begin",
          "type": "uint256"
        },
        {
          "internalType": "uint256",
          "name": "end",
          "type": "uint256"
        },
        {
          "internalType": "uint256",
          "name": "amt",
          "type": "uint256"
        },
        {
          "internalType": "uint256",
          "name": "meh",
          "type": "uint256"
        },
        {
          "internalType": "uint256",
          "name": "total",
          "type": "uint256"
        },
        {
          "internalType": "bool",
          "name": "isMeh",
          "type": "bool"
        }
      ],
      "stateMutability": "view",
      "type": "function"
    },
    {
      "inputs": [],
      "name": "mehNeeded",
      "outputs": [
        {
          "internalType": "uint256",
          "name": "",
          "type": "uint256"
        }
      ],
      "stateMutability": "view",
      "type": "function"
    },
    {
      "inputs": [],
      "name": "mehToken",
      "outputs": [
        {
          "internalType": "contract IERC20",
          "name": "",
          "type": "address"
        }
      ],
      "stateMutability": "view",
      "type": "function"
    },
    {
      "inputs": [],
      "name": "owner",
      "outputs": [
        {
          "internalType": "address",
          "name": "",
          "type": "address"
        }
      ],
      "stateMutability": "view",
      "type": "function"
    },
    {
      "inputs": [],
      "name": "renounceOwnership",
      "outputs": [],
      "stateMutability": "nonpayable",
      "type": "function"
    },
    {
      "inputs": [
        {
          "internalType": "address",
          "name": "newOwner",
          "type": "address"
        }
      ],
      "name": "transferOwnership",
      "outputs": [],
      "stateMutability": "nonpayable",
      "type": "function"
    }
  ],
  "bytecode": "0x60a060405260006003553480156200001657600080fd5b50604051620016de380380620016de83398181016040528101906200003c9190620001e8565b6200005c620000506200009e60201b60201c565b620000a660201b60201c565b600180819055508073ffffffffffffffffffffffffffffffffffffffff1660808173ffffffffffffffffffffffffffffffffffffffff1681525050506200021a565b600033905090565b60008060009054906101000a900473ffffffffffffffffffffffffffffffffffffffff169050816000806101000a81548173ffffffffffffffffffffffffffffffffffffffff021916908373ffffffffffffffffffffffffffffffffffffffff1602179055508173ffffffffffffffffffffffffffffffffffffffff168173ffffffffffffffffffffffffffffffffffffffff167f8be0079c531659141344cd1fd0a4f28419497f9722a3daafe3b4186f6b6457e060405160405180910390a35050565b600080fd5b600073ffffffffffffffffffffffffffffffffffffffff82169050919050565b60006200019c826200016f565b9050919050565b6000620001b0826200018f565b9050919050565b620001c281620001a3565b8114620001ce57600080fd5b50565b600081519050620001e281620001b7565b92915050565b6000602082840312156200020157620002006200016a565b5b60006200021184828501620001d1565b91505092915050565b6080516114a16200023d600039600081816101f801526106bc01526114a16000f3fe608060405234801561001057600080fd5b506004361061009e5760003560e01c8063903bf0a911610066578063903bf0a91461013e57806391c05b0b1461016e578063e2c2c8841461018a578063f2fde38b146101a8578063f80ef7f8146101c45761009e565b80632e4ebfe5146100a357806341dee8e8146100bf578063715018a6146100f8578063871b7f4a146101025780638da5cb5b14610120575b600080fd5b6100bd60048036038101906100b89190610a87565b6101e2565b005b6100d960048036038101906100d49190610b64565b6103b1565b6040516100ef9a99989796959493929190610c7b565b60405180910390f35b6101006105ca565b005b61010a6105de565b6040516101179190610d2c565b60405180910390f35b610128610657565b6040516101359190610d47565b60405180910390f35b61015860048036038101906101539190610b64565b610680565b6040516101659190610d62565b60405180910390f35b61018860048036038101906101839190610b64565b6106b7565b005b6101926106ba565b60405161019f9190610ddc565b60405180910390f35b6101c260048036038101906101bd9190610e23565b6106de565b005b6101cc610761565b6040516101d99190610d2c565b60405180910390f35b6101ea610767565b60006101f46105de565b90507f000000000000000000000000000000000000000000000000000000000000000073ffffffffffffffffffffffffffffffffffffffff166323b872dd3330846040518463ffffffff1660e01b815260040161025393929190610e50565b6020604051808303816000875af1158015610272573d6000803e3d6000fd5b505050506040513d601f19601f820116820180604052508101906102969190610eb3565b61029f57600080fd5b60006102ab60026107b6565b90506000600460008381526020019081526020016000209050858160000190816102d591906110e2565b50848160010190816102e791906110e2565b50838160020190816102f991906110e2565b50338160030160006101000a81548173ffffffffffffffffffffffffffffffffffffffff021916908373ffffffffffffffffffffffffffffffffffffffff160217905550828160060181905550620151806004600061035860026107b6565b81526020019081526020016000206005015461037491906111e3565b816004018190555062015180816004015461038f91906111e3565b81600501819055506103a160026107c4565b5050506103ac6107da565b505050565b60046020528060005260406000206000915090508060000180546103d490610f0f565b80601f016020809104026020016040519081016040528092919081815260200182805461040090610f0f565b801561044d5780601f106104225761010080835404028352916020019161044d565b820191906000526020600020905b81548152906001019060200180831161043057829003601f168201915b50505050509080600101805461046290610f0f565b80601f016020809104026020016040519081016040528092919081815260200182805461048e90610f0f565b80156104db5780601f106104b0576101008083540402835291602001916104db565b820191906000526020600020905b8154815290600101906020018083116104be57829003601f168201915b5050505050908060020180546104f090610f0f565b80601f016020809104026020016040519081016040528092919081815260200182805461051c90610f0f565b80156105695780601f1061053e57610100808354040283529160200191610569565b820191906000526020600020905b81548152906001019060200180831161054c57829003601f168201915b5050505050908060030160009054906101000a900473ffffffffffffffffffffffffffffffffffffffff16908060040154908060050154908060060154908060070154908060080154908060090160009054906101000a900460ff1690508a565b6105d26107e3565b6105dc6000610861565b565b60008060019050600060035490505b6105f760026107b6565b811015610637574260046000838152602001908152602001600020600501541061062a57818061062690611217565b9250505b80806001019150506105ed565b506103e88182610647919061125f565b610651919061125f565b91505090565b60008060009054906101000a900473ffffffffffffffffffffffffffffffffffffffff16905090565b600080600460008481526020019081526020016000209050600281600801546106a991906112d0565b816007015411915050919050565b50565b7f000000000000000000000000000000000000000000000000000000000000000081565b6106e66107e3565b600073ffffffffffffffffffffffffffffffffffffffff168173ffffffffffffffffffffffffffffffffffffffff1603610755576040517f08c379a000000000000000000000000000000000000000000000000000000000815260040161074c90611373565b60405180910390fd5b61075e81610861565b50565b6103e881565b6002600154036107ac576040517f08c379a00000000000000000000000000000000000000000000000000000000081526004016107a3906113df565b60405180910390fd5b6002600181905550565b600081600001549050919050565b6001816000016000828254019250508190555050565b60018081905550565b6107eb610925565b73ffffffffffffffffffffffffffffffffffffffff16610809610657565b73ffffffffffffffffffffffffffffffffffffffff161461085f576040517f08c379a00000000000000000000000000000000000000000000000000000000081526004016108569061144b565b60405180910390fd5b565b60008060009054906101000a900473ffffffffffffffffffffffffffffffffffffffff169050816000806101000a81548173ffffffffffffffffffffffffffffffffffffffff021916908373ffffffffffffffffffffffffffffffffffffffff1602179055508173ffffffffffffffffffffffffffffffffffffffff168173ffffffffffffffffffffffffffffffffffffffff167f8be0079c531659141344cd1fd0a4f28419497f9722a3daafe3b4186f6b6457e060405160405180910390a35050565b600033905090565b6000604051905090565b600080fd5b600080fd5b600080fd5b600080fd5b6000601f19601f8301169050919050565b7f4e487b7100000000000000000000000000000000000000000000000000000000600052604160045260246000fd5b6109948261094b565b810181811067ffffffffffffffff821117156109b3576109b261095c565b5b80604052505050565b60006109c661092d565b90506109d2828261098b565b919050565b600067ffffffffffffffff8211156109f2576109f161095c565b5b6109fb8261094b565b9050602081019050919050565b82818337600083830152505050565b6000610a2a610a25846109d7565b6109bc565b905082815260208101848484011115610a4657610a45610946565b5b610a51848285610a08565b509392505050565b600082601f830112610a6e57610a6d610941565b5b8135610a7e848260208601610a17565b91505092915050565b600080600060608486031215610aa057610a9f610937565b5b600084013567ffffffffffffffff811115610abe57610abd61093c565b5b610aca86828701610a59565b935050602084013567ffffffffffffffff811115610aeb57610aea61093c565b5b610af786828701610a59565b925050604084013567ffffffffffffffff811115610b1857610b1761093c565b5b610b2486828701610a59565b9150509250925092565b6000819050919050565b610b4181610b2e565b8114610b4c57600080fd5b50565b600081359050610b5e81610b38565b92915050565b600060208284031215610b7a57610b79610937565b5b6000610b8884828501610b4f565b91505092915050565b600081519050919050565b600082825260208201905092915050565b60005b83811015610bcb578082015181840152602081019050610bb0565b60008484015250505050565b6000610be282610b91565b610bec8185610b9c565b9350610bfc818560208601610bad565b610c058161094b565b840191505092915050565b600073ffffffffffffffffffffffffffffffffffffffff82169050919050565b6000610c3b82610c10565b9050919050565b610c4b81610c30565b82525050565b610c5a81610b2e565b82525050565b60008115159050919050565b610c7581610c60565b82525050565b6000610140820190508181036000830152610c96818d610bd7565b90508181036020830152610caa818c610bd7565b90508181036040830152610cbe818b610bd7565b9050610ccd606083018a610c42565b610cda6080830189610c51565b610ce760a0830188610c51565b610cf460c0830187610c51565b610d0160e0830186610c51565b610d0f610100830185610c51565b610d1d610120830184610c6c565b9b9a5050505050505050505050565b6000602082019050610d416000830184610c51565b92915050565b6000602082019050610d5c6000830184610c42565b92915050565b6000602082019050610d776000830184610c6c565b92915050565b6000819050919050565b6000610da2610d9d610d9884610c10565b610d7d565b610c10565b9050919050565b6000610db482610d87565b9050919050565b6000610dc682610da9565b9050919050565b610dd681610dbb565b82525050565b6000602082019050610df16000830184610dcd565b92915050565b610e0081610c30565b8114610e0b57600080fd5b50565b600081359050610e1d81610df7565b92915050565b600060208284031215610e3957610e38610937565b5b6000610e4784828501610e0e565b91505092915050565b6000606082019050610e656000830186610c42565b610e726020830185610c42565b610e7f6040830184610c51565b949350505050565b610e9081610c60565b8114610e9b57600080fd5b50565b600081519050610ead81610e87565b92915050565b600060208284031215610ec957610ec8610937565b5b6000610ed784828501610e9e565b91505092915050565b7f4e487b7100000000000000000000000000000000000000000000000000000000600052602260045260246000fd5b60006002820490506001821680610f2757607f821691505b602082108103610f3a57610f39610ee0565b5b50919050565b60008190508160005260206000209050919050565b60006020601f8301049050919050565b600082821b905092915050565b600060088302610fa27fffffffffffffffffffffffffffffffffffffffffffffffffffffffffffffffff82610f65565b610fac8683610f65565b95508019841693508086168417925050509392505050565b6000610fdf610fda610fd584610b2e565b610d7d565b610b2e565b9050919050565b6000819050919050565b610ff983610fc4565b61100d61100582610fe6565b848454610f72565b825550505050565b600090565b611022611015565b61102d818484610ff0565b505050565b5b818110156110515761104660008261101a565b600181019050611033565b5050565b601f8211156110965761106781610f40565b61107084610f55565b8101602085101561107f578190505b61109361108b85610f55565b830182611032565b50505b505050565b600082821c905092915050565b60006110b96000198460080261109b565b1980831691505092915050565b60006110d283836110a8565b9150826002028217905092915050565b6110eb82610b91565b67ffffffffffffffff8111156111045761110361095c565b5b61110e8254610f0f565b611119828285611055565b600060209050601f83116001811461114c576000841561113a578287015190505b61114485826110c6565b8655506111ac565b601f19841661115a86610f40565b60005b828110156111825784890151825560018201915060208501945060208101905061115d565b8683101561119f578489015161119b601f8916826110a8565b8355505b6001600288020188555050505b505050505050565b7f4e487b7100000000000000000000000000000000000000000000000000000000600052601160045260246000fd5b60006111ee82610b2e565b91506111f983610b2e565b9250828201905080821115611211576112106111b4565b5b92915050565b600061122282610b2e565b91507fffffffffffffffffffffffffffffffffffffffffffffffffffffffffffffffff8203611254576112536111b4565b5b600182019050919050565b600061126a82610b2e565b915061127583610b2e565b925082820261128381610b2e565b9150828204841483151761129a576112996111b4565b5b5092915050565b7f4e487b7100000000000000000000000000000000000000000000000000000000600052601260045260246000fd5b60006112db82610b2e565b91506112e683610b2e565b9250826112f6576112f56112a1565b5b828204905092915050565b7f4f776e61626c653a206e6577206f776e657220697320746865207a65726f206160008201527f6464726573730000000000000000000000000000000000000000000000000000602082015250565b600061135d602683610b9c565b915061136882611301565b604082019050919050565b6000602082019050818103600083015261138c81611350565b9050919050565b7f5265656e7472616e637947756172643a207265656e7472616e742063616c6c00600082015250565b60006113c9601f83610b9c565b91506113d482611393565b602082019050919050565b600060208201905081810360008301526113f8816113bc565b9050919050565b7f4f776e61626c653a2063616c6c6572206973206e6f7420746865206f776e6572600082015250565b6000611435602083610b9c565b9150611440826113ff565b602082019050919050565b6000602082019050818103600083015261146481611428565b905091905056fea2646970667358221220d9c51ddfc2a2197c6395e5df5c5df24f04c11aab3214d08c283600cec3d286f864736f6c63430008180033",
  "linkReferences": {},
  "deployedLinkReferences": {}
}