{
  "_format": "hh-sol-artifact-1",
  "contractName": "MehStoreNFT",
  "sourceName": "contracts/store/MehStoreNFT.sol",
  "abi": [
    {
      "inputs": [],
      "stateMutability": "nonpayable",
      "type": "constructor"
    },
    {
      "anonymous": false,
      "inputs": [
        {
          "indexed": true,
          "internalType": "address",
          "name": "owner",
          "type": "address"
        },
        {
          "indexed": true,
          "internalType": "address",
          "name": "approved",
          "type": "address"
        },
        {
          "indexed": true,
          "internalType": "uint256",
          "name": "tokenId",
          "type": "uint256"
        }
      ],
      "name": "Approval",
      "type": "event"
    },
    {
      "anonymous": false,
      "inputs": [
        {
          "indexed": true,
          "internalType": "address",
          "name": "owner",
          "type": "address"
        },
        {
          "indexed": true,
          "internalType": "address",
          "name": "operator",
          "type": "address"
        },
        {
          "indexed": false,
          "internalType": "bool",
          "name": "approved",
          "type": "bool"
        }
      ],
      "name": "ApprovalForAll",
      "type": "event"
    },
    {
      "anonymous": false,
      "inputs": [
        {
          "indexed": true,
          "internalType": "address",
          "name": "previousOwner",
          "type": "address"
        },
        {
          "indexed": true,
          "internalType": "address",
          "name": "newOwner",
          "type": "address"
        }
      ],
      "name": "OwnershipTransferred",
      "type": "event"
    },
    {
      "anonymous": false,
      "inputs": [
        {
          "indexed": true,
          "internalType": "address",
          "name": "from",
          "type": "address"
        },
        {
          "indexed": true,
          "internalType": "address",
          "name": "to",
          "type": "address"
        },
        {
          "indexed": true,
          "internalType": "uint256",
          "name": "tokenId",
          "type": "uint256"
        }
      ],
      "name": "Transfer",
      "type": "event"
    },
    {
      "inputs": [
        {
          "internalType": "address",
          "name": "to",
          "type": "address"
        },
        {
          "internalType": "uint256",
          "name": "tokenId",
          "type": "uint256"
        }
      ],
      "name": "approve",
      "outputs": [],
      "stateMutability": "nonpayable",
      "type": "function"
    },
    {
      "inputs": [
        {
          "internalType": "address",
          "name": "owner",
          "type": "address"
        }
      ],
      "name": "balanceOf",
      "outputs": [
        {
          "internalType": "uint256",
          "name": "",
          "type": "uint256"
        }
      ],
      "stateMutability": "view",
      "type": "function"
    },
    {
      "inputs": [
        {
          "internalType": "uint256",
          "name": "tokenId",
          "type": "uint256"
        }
      ],
      "name": "burn",
      "outputs": [],
      "stateMutability": "nonpayable",
      "type": "function"
    },
    {
      "inputs": [
        {
          "internalType": "uint256",
          "name": "tokenId",
          "type": "uint256"
        },
        {
          "internalType": "string",
          "name": "deliveryAddress",
          "type": "string"
        }
      ],
      "name": "enterDeliveryAddress",
      "outputs": [],
      "stateMutability": "nonpayable",
      "type": "function"
    },
    {
      "inputs": [
        {
          "internalType": "uint256",
          "name": "tokenId",
          "type": "uint256"
        }
      ],
      "name": "getApproved",
      "outputs": [
        {
          "internalType": "address",
          "name": "",
          "type": "address"
        }
      ],
      "stateMutability": "view",
      "type": "function"
    },
    {
      "inputs": [
        {
          "internalType": "uint256",
          "name": "tokenId",
          "type": "uint256"
        }
      ],
      "name": "getPrice",
      "outputs": [
        {
          "internalType": "uint256",
          "name": "",
          "type": "uint256"
        }
      ],
      "stateMutability": "view",
      "type": "function"
    },
    {
      "inputs": [
        {
          "internalType": "uint256",
          "name": "productId",
          "type": "uint256"
        }
      ],
      "name": "getTokenIdByProductId",
      "outputs": [
        {
          "internalType": "uint256",
          "name": "",
          "type": "uint256"
        }
      ],
      "stateMutability": "view",
      "type": "function"
    },
    {
      "inputs": [
        {
          "internalType": "address",
          "name": "owner",
          "type": "address"
        },
        {
          "internalType": "address",
          "name": "operator",
          "type": "address"
        }
      ],
      "name": "isApprovedForAll",
      "outputs": [
        {
          "internalType": "bool",
          "name": "",
          "type": "bool"
        }
      ],
      "stateMutability": "view",
      "type": "function"
    },
    {
      "inputs": [],
      "name": "mehStoreV1",
      "outputs": [
        {
          "internalType": "address",
          "name": "",
          "type": "address"
        }
      ],
      "stateMutability": "view",
      "type": "function"
    },
    {
      "inputs": [
        {
          "internalType": "address",
          "name": "to",
          "type": "address"
        },
        {
          "internalType": "uint256",
          "name": "productId",
          "type": "uint256"
        },
        {
          "internalType": "uint256",
          "name": "price",
          "type": "uint256"
        }
      ],
      "name": "mint",
      "outputs": [],
      "stateMutability": "nonpayable",
      "type": "function"
    },
    {
      "inputs": [],
      "name": "name",
      "outputs": [
        {
          "internalType": "string",
          "name": "",
          "type": "string"
        }
      ],
      "stateMutability": "view",
      "type": "function"
    },
    {
      "inputs": [],
      "name": "nextTokenId",
      "outputs": [
        {
          "internalType": "uint256",
          "name": "",
          "type": "uint256"
        }
      ],
      "stateMutability": "view",
      "type": "function"
    },
    {
      "inputs": [
        {
          "internalType": "uint256",
          "name": "",
          "type": "uint256"
        }
      ],
      "name": "nftDetails",
      "outputs": [
        {
          "internalType": "uint256",
          "name": "productId",
          "type": "uint256"
        },
        {
          "internalType": "uint256",
          "name": "price",
          "type": "uint256"
        },
        {
          "internalType": "string",
          "name": "deliveryAddress",
          "type": "string"
        }
      ],
      "stateMutability": "view",
      "type": "function"
    },
    {
      "inputs": [],
      "name": "owner",
      "outputs": [
        {
          "internalType": "address",
          "name": "",
          "type": "address"
        }
      ],
      "stateMutability": "view",
      "type": "function"
    },
    {
      "inputs": [
        {
          "internalType": "uint256",
          "name": "tokenId",
          "type": "uint256"
        }
      ],
      "name": "ownerOf",
      "outputs": [
        {
          "internalType": "address",
          "name": "",
          "type": "address"
        }
      ],
      "stateMutability": "view",
      "type": "function"
    },
    {
      "inputs": [
        {
          "internalType": "uint256",
          "name": "",
          "type": "uint256"
        }
      ],
      "name": "productToToken",
      "outputs": [
        {
          "internalType": "uint256",
          "name": "",
          "type": "uint256"
        }
      ],
      "stateMutability": "view",
      "type": "function"
    },
    {
      "inputs": [],
      "name": "renounceOwnership",
      "outputs": [],
      "stateMutability": "nonpayable",
      "type": "function"
    },
    {
      "inputs": [
        {
          "internalType": "address",
          "name": "from",
          "type": "address"
        },
        {
          "internalType": "address",
          "name": "to",
          "type": "address"
        },
        {
          "internalType": "uint256",
          "name": "tokenId",
          "type": "uint256"
        }
      ],
      "name": "safeTransferFrom",
      "outputs": [],
      "stateMutability": "nonpayable",
      "type": "function"
    },
    {
      "inputs": [
        {
          "internalType": "address",
          "name": "from",
          "type": "address"
        },
        {
          "internalType": "address",
          "name": "to",
          "type": "address"
        },
        {
          "internalType": "uint256",
          "name": "tokenId",
          "type": "uint256"
        },
        {
          "internalType": "bytes",
          "name": "data",
          "type": "bytes"
        }
      ],
      "name": "safeTransferFrom",
      "outputs": [],
      "stateMutability": "nonpayable",
      "type": "function"
    },
    {
      "inputs": [
        {
          "internalType": "address",
          "name": "operator",
          "type": "address"
        },
        {
          "internalType": "bool",
          "name": "approved",
          "type": "bool"
        }
      ],
      "name": "setApprovalForAll",
      "outputs": [],
      "stateMutability": "nonpayable",
      "type": "function"
    },
    {
      "inputs": [
        {
          "internalType": "address",
          "name": "_mehStoreV1",
          "type": "address"
        }
      ],
      "name": "setMehStoreV1",
      "outputs": [],
      "stateMutability": "nonpayable",
      "type": "function"
    },
    {
      "inputs": [
        {
          "internalType": "bytes4",
          "name": "interfaceId",
          "type": "bytes4"
        }
      ],
      "name": "supportsInterface",
      "outputs": [
        {
          "internalType": "bool",
          "name": "",
          "type": "bool"
        }
      ],
      "stateMutability": "view",
      "type": "function"
    },
    {
      "inputs": [],
      "name": "symbol",
      "outputs": [
        {
          "internalType": "string",
          "name": "",
          "type": "string"
        }
      ],
      "stateMutability": "view",
      "type": "function"
    },
    {
      "inputs": [
        {
          "internalType": "uint256",
          "name": "tokenId",
          "type": "uint256"
        }
      ],
      "name": "tokenURI",
      "outputs": [
        {
          "internalType": "string",
          "name": "",
          "type": "string"
        }
      ],
      "stateMutability": "view",
      "type": "function"
    },
    {
      "inputs": [
        {
          "internalType": "address",
          "name": "from",
          "type": "address"
        },
        {
          "internalType": "address",
          "name": "to",
          "type": "address"
        },
        {
          "internalType": "uint256",
          "name": "tokenId",
          "type": "uint256"
        }
      ],
      "name": "transferFrom",
      "outputs": [],
      "stateMutability": "nonpayable",
      "type": "function"
    },
    {
      "inputs": [
        {
          "internalType": "address",
          "name": "newOwner",
          "type": "address"
        }
      ],
      "name": "transferOwnership",
      "outputs": [],
      "stateMutability": "nonpayable",
      "type": "function"
    }
  ],
  "bytecode": "0x60806040523480156200001157600080fd5b506040518060400160405280600b81526020017f4d656853746f72654e46540000000000000000000000000000000000000000008152506040518060400160405280600381526020017f4d534e000000000000000000000000000000000000000000000000000000000081525081600090816200008f919062000412565b508060019081620000a1919062000412565b505050620000c4620000b8620000ca60201b60201c565b620000d260201b60201c565b620004f9565b600033905090565b6000600660009054906101000a900473ffffffffffffffffffffffffffffffffffffffff16905081600660006101000a81548173ffffffffffffffffffffffffffffffffffffffff021916908373ffffffffffffffffffffffffffffffffffffffff1602179055508173ffffffffffffffffffffffffffffffffffffffff168173ffffffffffffffffffffffffffffffffffffffff167f8be0079c531659141344cd1fd0a4f28419497f9722a3daafe3b4186f6b6457e060405160405180910390a35050565b600081519050919050565b7f4e487b7100000000000000000000000000000000000000000000000000000000600052604160045260246000fd5b7f4e487b7100000000000000000000000000000000000000000000000000000000600052602260045260246000fd5b600060028204905060018216806200021a57607f821691505b60208210810362000230576200022f620001d2565b5b50919050565b60008190508160005260206000209050919050565b60006020601f8301049050919050565b600082821b905092915050565b6000600883026200029a7fffffffffffffffffffffffffffffffffffffffffffffffffffffffffffffffff826200025b565b620002a686836200025b565b95508019841693508086168417925050509392505050565b6000819050919050565b6000819050919050565b6000620002f3620002ed620002e784620002be565b620002c8565b620002be565b9050919050565b6000819050919050565b6200030f83620002d2565b620003276200031e82620002fa565b84845462000268565b825550505050565b600090565b6200033e6200032f565b6200034b81848462000304565b505050565b5b8181101562000373576200036760008262000334565b60018101905062000351565b5050565b601f821115620003c2576200038c8162000236565b62000397846200024b565b81016020851015620003a7578190505b620003bf620003b6856200024b565b83018262000350565b50505b505050565b600082821c905092915050565b6000620003e760001984600802620003c7565b1980831691505092915050565b6000620004028383620003d4565b9150826002028217905092915050565b6200041d8262000198565b67ffffffffffffffff811115620004395762000438620001a3565b5b62000445825462000201565b6200045282828562000377565b600060209050601f8311600181146200048a576000841562000475578287015190505b620004818582620003f4565b865550620004f1565b601f1984166200049a8662000236565b60005b82811015620004c4578489015182556001820191506020850194506020810190506200049d565b86831015620004e45784890151620004e0601f891682620003d4565b8355505b6001600288020188555050505b505050505050565b61352080620005096000396000f3fe608060405234801561001057600080fd5b506004361061018e5760003560e01c806370a08231116100de578063a22cb46511610097578063c87b56dd11610071578063c87b56dd14610481578063e7572230146104b1578063e985e9c5146104e1578063f2fde38b146105115761018e565b8063a22cb4651461042d578063b88d4fde14610449578063be46fffe146104655761018e565b806370a0823114610367578063715018a61461039757806375794a3c146103a15780637d4cd847146103bf5780638da5cb5b146103f157806395d89b411461040f5761018e565b8063095ea7b31161014b57806342842e0e1161012557806342842e0e146102cf57806342966c68146102eb57806343d53078146103075780636352211e146103375761018e565b8063095ea7b31461027b578063156e29f61461029757806323b872dd146102b35761018e565b806301ffc9a71461019357806306fdde03146101c357806307bd6467146101e15780630812a3cb146101fd578063081812fc1461022d578063084e8c471461025d575b600080fd5b6101ad60048036038101906101a8919061219d565b61052d565b6040516101ba91906121e5565b60405180910390f35b6101cb61060f565b6040516101d89190612290565b60405180910390f35b6101fb60048036038101906101f6919061241d565b6106a1565b005b61021760048036038101906102129190612479565b610751565b60405161022491906124b5565b60405180910390f35b61024760048036038101906102429190612479565b61076e565b6040516102549190612511565b60405180910390f35b6102656107b4565b6040516102729190612511565b60405180910390f35b61029560048036038101906102909190612558565b6107da565b005b6102b160048036038101906102ac9190612598565b6108f1565b005b6102cd60048036038101906102c891906125eb565b610a2e565b005b6102e960048036038101906102e491906125eb565b610a8e565b005b61030560048036038101906103009190612479565b610aae565b005b610321600480360381019061031c9190612479565b610bad565b60405161032e91906124b5565b60405180910390f35b610351600480360381019061034c9190612479565b610bc5565b60405161035e9190612511565b60405180910390f35b610381600480360381019061037c919061263e565b610c4b565b60405161038e91906124b5565b60405180910390f35b61039f610d02565b005b6103a9610d16565b6040516103b691906124b5565b60405180910390f35b6103d960048036038101906103d49190612479565b610d1c565b6040516103e89392919061266b565b60405180910390f35b6103f9610dce565b6040516104069190612511565b60405180910390f35b610417610df8565b6040516104249190612290565b60405180910390f35b610447600480360381019061044291906126d5565b610e8a565b005b610463600480360381019061045e91906127b6565b610ea0565b005b61047f600480360381019061047a919061263e565b610f02565b005b61049b60048036038101906104969190612479565b610f4e565b6040516104a89190612290565b60405180910390f35b6104cb60048036038101906104c69190612479565b610fb6565b6040516104d891906124b5565b60405180910390f35b6104fb60048036038101906104f69190612839565b610fd6565b60405161050891906121e5565b60405180910390f35b61052b6004803603810190610526919061263e565b61106a565b005b60007f80ac58cd000000000000000000000000000000000000000000000000000000007bffffffffffffffffffffffffffffffffffffffffffffffffffffffff1916827bffffffffffffffffffffffffffffffffffffffffffffffffffffffff191614806105f857507f5b5e139f000000000000000000000000000000000000000000000000000000007bffffffffffffffffffffffffffffffffffffffffffffffffffffffff1916827bffffffffffffffffffffffffffffffffffffffffffffffffffffffff1916145b806106085750610607826110ed565b5b9050919050565b60606000805461061e906128a8565b80601f016020809104026020016040519081016040528092919081815260200182805461064a906128a8565b80156106975780601f1061066c57610100808354040283529160200191610697565b820191906000526020600020905b81548152906001019060200180831161067a57829003601f168201915b5050505050905090565b3373ffffffffffffffffffffffffffffffffffffffff166106c183610bc5565b73ffffffffffffffffffffffffffffffffffffffff1614610717576040517f08c379a000000000000000000000000000000000000000000000000000000000815260040161070e90612925565b60405180910390fd5b8060076000848152602001908152602001600020600201908161073a9190612af1565b5061074d33610747610dce565b84611157565b5050565b600060086000838152602001908152602001600020549050919050565b600061077982611450565b6004600083815260200190815260200160002060009054906101000a900473ffffffffffffffffffffffffffffffffffffffff169050919050565b600a60009054906101000a900473ffffffffffffffffffffffffffffffffffffffff1681565b60006107e582610bc5565b90508073ffffffffffffffffffffffffffffffffffffffff168373ffffffffffffffffffffffffffffffffffffffff1603610855576040517f08c379a000000000000000000000000000000000000000000000000000000000815260040161084c90612c35565b60405180910390fd5b8073ffffffffffffffffffffffffffffffffffffffff1661087461149b565b73ffffffffffffffffffffffffffffffffffffffff1614806108a357506108a28161089d61149b565b610fd6565b5b6108e2576040517f08c379a00000000000000000000000000000000000000000000000000000000081526004016108d990612cc7565b60405180910390fd5b6108ec83836114a3565b505050565b600a60009054906101000a900473ffffffffffffffffffffffffffffffffffffffff1673ffffffffffffffffffffffffffffffffffffffff163373ffffffffffffffffffffffffffffffffffffffff1614610981576040517f08c379a000000000000000000000000000000000000000000000000000000000815260040161097890612d59565b60405180910390fd5b60006009600081548092919061099690612da8565b9190505590506109a6848261155c565b6040518060600160405280848152602001838152602001604051806020016040528060008152508152506007600083815260200190815260200160002060008201518160000155602082015181600101556040820151816002019081610a0c9190612af1565b5090505080600860008581526020019081526020016000208190555050505050565b610a3f610a3961149b565b82611779565b610a7e576040517f08c379a0000000000000000000000000000000000000000000000000000000008152600401610a7590612e62565b60405180910390fd5b610a89838383611157565b505050565b610aa983838360405180602001604052806000815250610ea0565b505050565b600a60009054906101000a900473ffffffffffffffffffffffffffffffffffffffff1673ffffffffffffffffffffffffffffffffffffffff163373ffffffffffffffffffffffffffffffffffffffff1614610b3e576040517f08c379a0000000000000000000000000000000000000000000000000000000008152600401610b3590612d59565b60405180910390fd5b600860006007600084815260200190815260200160002060000154815260200190815260200160002060009055610b748161180e565b600760008281526020019081526020016000206000808201600090556001820160009055600282016000610ba891906120d4565b505050565b60086020528060005260406000206000915090505481565b600080610bd18361195c565b9050600073ffffffffffffffffffffffffffffffffffffffff168173ffffffffffffffffffffffffffffffffffffffff1603610c42576040517f08c379a0000000000000000000000000000000000000000000000000000000008152600401610c3990612ece565b60405180910390fd5b80915050919050565b60008073ffffffffffffffffffffffffffffffffffffffff168273ffffffffffffffffffffffffffffffffffffffff1603610cbb576040517f08c379a0000000000000000000000000000000000000000000000000000000008152600401610cb290612f60565b60405180910390fd5b600360008373ffffffffffffffffffffffffffffffffffffffff1673ffffffffffffffffffffffffffffffffffffffff168152602001908152602001600020549050919050565b610d0a611999565b610d146000611a17565b565b60095481565b6007602052806000526040600020600091509050806000015490806001015490806002018054610d4b906128a8565b80601f0160208091040260200160405190810160405280929190818152602001828054610d77906128a8565b8015610dc45780601f10610d9957610100808354040283529160200191610dc4565b820191906000526020600020905b815481529060010190602001808311610da757829003601f168201915b5050505050905083565b6000600660009054906101000a900473ffffffffffffffffffffffffffffffffffffffff16905090565b606060018054610e07906128a8565b80601f0160208091040260200160405190810160405280929190818152602001828054610e33906128a8565b8015610e805780601f10610e5557610100808354040283529160200191610e80565b820191906000526020600020905b815481529060010190602001808311610e6357829003601f168201915b5050505050905090565b610e9c610e9561149b565b8383611add565b5050565b610eb1610eab61149b565b83611779565b610ef0576040517f08c379a0000000000000000000000000000000000000000000000000000000008152600401610ee790612e62565b60405180910390fd5b610efc84848484611c49565b50505050565b610f0a611999565b80600a60006101000a81548173ffffffffffffffffffffffffffffffffffffffff021916908373ffffffffffffffffffffffffffffffffffffffff16021790555050565b6060610f5982611450565b6000610f63611ca5565b90506000815111610f835760405180602001604052806000815250610fae565b80610f8d84611cbc565b604051602001610f9e929190612fbc565b6040516020818303038152906040525b915050919050565b600060076000838152602001908152602001600020600101549050919050565b6000600560008473ffffffffffffffffffffffffffffffffffffffff1673ffffffffffffffffffffffffffffffffffffffff16815260200190815260200160002060008373ffffffffffffffffffffffffffffffffffffffff1673ffffffffffffffffffffffffffffffffffffffff16815260200190815260200160002060009054906101000a900460ff16905092915050565b611072611999565b600073ffffffffffffffffffffffffffffffffffffffff168173ffffffffffffffffffffffffffffffffffffffff16036110e1576040517f08c379a00000000000000000000000000000000000000000000000000000000081526004016110d890613052565b60405180910390fd5b6110ea81611a17565b50565b60007f01ffc9a7000000000000000000000000000000000000000000000000000000007bffffffffffffffffffffffffffffffffffffffffffffffffffffffff1916827bffffffffffffffffffffffffffffffffffffffffffffffffffffffff1916149050919050565b8273ffffffffffffffffffffffffffffffffffffffff1661117782610bc5565b73ffffffffffffffffffffffffffffffffffffffff16146111cd576040517f08c379a00000000000000000000000000000000000000000000000000000000081526004016111c4906130e4565b60405180910390fd5b600073ffffffffffffffffffffffffffffffffffffffff168273ffffffffffffffffffffffffffffffffffffffff160361123c576040517f08c379a000000000000000000000000000000000000000000000000000000000815260040161123390613176565b60405180910390fd5b6112498383836001611d8a565b8273ffffffffffffffffffffffffffffffffffffffff1661126982610bc5565b73ffffffffffffffffffffffffffffffffffffffff16146112bf576040517f08c379a00000000000000000000000000000000000000000000000000000000081526004016112b6906130e4565b60405180910390fd5b6004600082815260200190815260200160002060006101000a81549073ffffffffffffffffffffffffffffffffffffffff02191690556001600360008573ffffffffffffffffffffffffffffffffffffffff1673ffffffffffffffffffffffffffffffffffffffff168152602001908152602001600020600082825403925050819055506001600360008473ffffffffffffffffffffffffffffffffffffffff1673ffffffffffffffffffffffffffffffffffffffff16815260200190815260200160002060008282540192505081905550816002600083815260200190815260200160002060006101000a81548173ffffffffffffffffffffffffffffffffffffffff021916908373ffffffffffffffffffffffffffffffffffffffff160217905550808273ffffffffffffffffffffffffffffffffffffffff168473ffffffffffffffffffffffffffffffffffffffff167fddf252ad1be2c89b69c2b068fc378daa952ba7f163c4a11628f55a4df523b3ef60405160405180910390a461144b8383836001611d90565b505050565b61145981611d96565b611498576040517f08c379a000000000000000000000000000000000000000000000000000000000815260040161148f90612ece565b60405180910390fd5b50565b600033905090565b816004600083815260200190815260200160002060006101000a81548173ffffffffffffffffffffffffffffffffffffffff021916908373ffffffffffffffffffffffffffffffffffffffff160217905550808273ffffffffffffffffffffffffffffffffffffffff1661151683610bc5565b73ffffffffffffffffffffffffffffffffffffffff167f8c5be1e5ebec7d5bd14f71427d1e84f3dd0314c0f7b2291e5b200ac8c7c3b92560405160405180910390a45050565b600073ffffffffffffffffffffffffffffffffffffffff168273ffffffffffffffffffffffffffffffffffffffff16036115cb576040517f08c379a00000000000000000000000000000000000000000000000000000000081526004016115c2906131e2565b60405180910390fd5b6115d481611d96565b15611614576040517f08c379a000000000000000000000000000000000000000000000000000000000815260040161160b9061324e565b60405180910390fd5b611622600083836001611d8a565b61162b81611d96565b1561166b576040517f08c379a00000000000000000000000000000000000000000000000000000000081526004016116629061324e565b60405180910390fd5b6001600360008473ffffffffffffffffffffffffffffffffffffffff1673ffffffffffffffffffffffffffffffffffffffff16815260200190815260200160002060008282540192505081905550816002600083815260200190815260200160002060006101000a81548173ffffffffffffffffffffffffffffffffffffffff021916908373ffffffffffffffffffffffffffffffffffffffff160217905550808273ffffffffffffffffffffffffffffffffffffffff16600073ffffffffffffffffffffffffffffffffffffffff167fddf252ad1be2c89b69c2b068fc378daa952ba7f163c4a11628f55a4df523b3ef60405160405180910390a4611775600083836001611d90565b5050565b60008061178583610bc5565b90508073ffffffffffffffffffffffffffffffffffffffff168473ffffffffffffffffffffffffffffffffffffffff1614806117c757506117c68185610fd6565b5b8061180557508373ffffffffffffffffffffffffffffffffffffffff166117ed8461076e565b73ffffffffffffffffffffffffffffffffffffffff16145b91505092915050565b600061181982610bc5565b9050611829816000846001611d8a565b61183282610bc5565b90506004600083815260200190815260200160002060006101000a81549073ffffffffffffffffffffffffffffffffffffffff02191690556001600360008373ffffffffffffffffffffffffffffffffffffffff1673ffffffffffffffffffffffffffffffffffffffff168152602001908152602001600020600082825403925050819055506002600083815260200190815260200160002060006101000a81549073ffffffffffffffffffffffffffffffffffffffff021916905581600073ffffffffffffffffffffffffffffffffffffffff168273ffffffffffffffffffffffffffffffffffffffff167fddf252ad1be2c89b69c2b068fc378daa952ba7f163c4a11628f55a4df523b3ef60405160405180910390a4611958816000846001611d90565b5050565b60006002600083815260200190815260200160002060009054906101000a900473ffffffffffffffffffffffffffffffffffffffff169050919050565b6119a161149b565b73ffffffffffffffffffffffffffffffffffffffff166119bf610dce565b73ffffffffffffffffffffffffffffffffffffffff1614611a15576040517f08c379a0000000000000000000000000000000000000000000000000000000008152600401611a0c906132ba565b60405180910390fd5b565b6000600660009054906101000a900473ffffffffffffffffffffffffffffffffffffffff16905081600660006101000a81548173ffffffffffffffffffffffffffffffffffffffff021916908373ffffffffffffffffffffffffffffffffffffffff1602179055508173ffffffffffffffffffffffffffffffffffffffff168173ffffffffffffffffffffffffffffffffffffffff167f8be0079c531659141344cd1fd0a4f28419497f9722a3daafe3b4186f6b6457e060405160405180910390a35050565b8173ffffffffffffffffffffffffffffffffffffffff168373ffffffffffffffffffffffffffffffffffffffff1603611b4b576040517f08c379a0000000000000000000000000000000000000000000000000000000008152600401611b4290613326565b60405180910390fd5b80600560008573ffffffffffffffffffffffffffffffffffffffff1673ffffffffffffffffffffffffffffffffffffffff16815260200190815260200160002060008473ffffffffffffffffffffffffffffffffffffffff1673ffffffffffffffffffffffffffffffffffffffff16815260200190815260200160002060006101000a81548160ff0219169083151502179055508173ffffffffffffffffffffffffffffffffffffffff168373ffffffffffffffffffffffffffffffffffffffff167f17307eab39ab6107e8899845ad3d59bd9653f200f220920489ca2b5937696c3183604051611c3c91906121e5565b60405180910390a3505050565b611c54848484611157565b611c6084848484611dd7565b611c9f576040517f08c379a0000000000000000000000000000000000000000000000000000000008152600401611c96906133b8565b60405180910390fd5b50505050565b606060405180602001604052806000815250905090565b606060006001611ccb84611f5e565b01905060008167ffffffffffffffff811115611cea57611ce96122f2565b5b6040519080825280601f01601f191660200182016040528015611d1c5781602001600182028036833780820191505090505b509050600082602001820190505b600115611d7f578080600190039150507f3031323334353637383961626364656600000000000000000000000000000000600a86061a8153600a8581611d7357611d726133d8565b5b04945060008503611d2a575b819350505050919050565b50505050565b50505050565b60008073ffffffffffffffffffffffffffffffffffffffff16611db88361195c565b73ffffffffffffffffffffffffffffffffffffffff1614159050919050565b6000611df88473ffffffffffffffffffffffffffffffffffffffff166120b1565b15611f51578373ffffffffffffffffffffffffffffffffffffffff1663150b7a02611e2161149b565b8786866040518563ffffffff1660e01b8152600401611e43949392919061345c565b6020604051808303816000875af1925050508015611e7f57506040513d601f19601f82011682018060405250810190611e7c91906134bd565b60015b611f01573d8060008114611eaf576040519150601f19603f3d011682016040523d82523d6000602084013e611eb4565b606091505b506000815103611ef9576040517f08c379a0000000000000000000000000000000000000000000000000000000008152600401611ef0906133b8565b60405180910390fd5b805181602001fd5b63150b7a0260e01b7bffffffffffffffffffffffffffffffffffffffffffffffffffffffff1916817bffffffffffffffffffffffffffffffffffffffffffffffffffffffff191614915050611f56565b600190505b949350505050565b600080600090507a184f03e93ff9f4daa797ed6e38ed64bf6a1f0100000000000000008310611fbc577a184f03e93ff9f4daa797ed6e38ed64bf6a1f0100000000000000008381611fb257611fb16133d8565b5b0492506040810190505b6d04ee2d6d415b85acef81000000008310611ff9576d04ee2d6d415b85acef81000000008381611fef57611fee6133d8565b5b0492506020810190505b662386f26fc10000831061202857662386f26fc10000838161201e5761201d6133d8565b5b0492506010810190505b6305f5e1008310612051576305f5e1008381612047576120466133d8565b5b0492506008810190505b612710831061207657612710838161206c5761206b6133d8565b5b0492506004810190505b60648310612099576064838161208f5761208e6133d8565b5b0492506002810190505b600a83106120a8576001810190505b80915050919050565b6000808273ffffffffffffffffffffffffffffffffffffffff163b119050919050565b5080546120e0906128a8565b6000825580601f106120f25750612111565b601f0160209004906000526020600020908101906121109190612114565b5b50565b5b8082111561212d576000816000905550600101612115565b5090565b6000604051905090565b600080fd5b600080fd5b60007fffffffff0000000000000000000000000000000000000000000000000000000082169050919050565b61217a81612145565b811461218557600080fd5b50565b60008135905061219781612171565b92915050565b6000602082840312156121b3576121b261213b565b5b60006121c184828501612188565b91505092915050565b60008115159050919050565b6121df816121ca565b82525050565b60006020820190506121fa60008301846121d6565b92915050565b600081519050919050565b600082825260208201905092915050565b60005b8381101561223a57808201518184015260208101905061221f565b60008484015250505050565b6000601f19601f8301169050919050565b600061226282612200565b61226c818561220b565b935061227c81856020860161221c565b61228581612246565b840191505092915050565b600060208201905081810360008301526122aa8184612257565b905092915050565b6000819050919050565b6122c5816122b2565b81146122d057600080fd5b50565b6000813590506122e2816122bc565b92915050565b600080fd5b600080fd5b7f4e487b7100000000000000000000000000000000000000000000000000000000600052604160045260246000fd5b61232a82612246565b810181811067ffffffffffffffff82111715612349576123486122f2565b5b80604052505050565b600061235c612131565b90506123688282612321565b919050565b600067ffffffffffffffff821115612388576123876122f2565b5b61239182612246565b9050602081019050919050565b82818337600083830152505050565b60006123c06123bb8461236d565b612352565b9050828152602081018484840111156123dc576123db6122ed565b5b6123e784828561239e565b509392505050565b600082601f830112612404576124036122e8565b5b81356124148482602086016123ad565b91505092915050565b600080604083850312156124345761243361213b565b5b6000612442858286016122d3565b925050602083013567ffffffffffffffff81111561246357612462612140565b5b61246f858286016123ef565b9150509250929050565b60006020828403121561248f5761248e61213b565b5b600061249d848285016122d3565b91505092915050565b6124af816122b2565b82525050565b60006020820190506124ca60008301846124a6565b92915050565b600073ffffffffffffffffffffffffffffffffffffffff82169050919050565b60006124fb826124d0565b9050919050565b61250b816124f0565b82525050565b60006020820190506125266000830184612502565b92915050565b612535816124f0565b811461254057600080fd5b50565b6000813590506125528161252c565b92915050565b6000806040838503121561256f5761256e61213b565b5b600061257d85828601612543565b925050602061258e858286016122d3565b9150509250929050565b6000806000606084860312156125b1576125b061213b565b5b60006125bf86828701612543565b93505060206125d0868287016122d3565b92505060406125e1868287016122d3565b9150509250925092565b6000806000606084860312156126045761260361213b565b5b600061261286828701612543565b935050602061262386828701612543565b9250506040612634868287016122d3565b9150509250925092565b6000602082840312156126545761265361213b565b5b600061266284828501612543565b91505092915050565b600060608201905061268060008301866124a6565b61268d60208301856124a6565b818103604083015261269f8184612257565b9050949350505050565b6126b2816121ca565b81146126bd57600080fd5b50565b6000813590506126cf816126a9565b92915050565b600080604083850312156126ec576126eb61213b565b5b60006126fa85828601612543565b925050602061270b858286016126c0565b9150509250929050565b600067ffffffffffffffff8211156127305761272f6122f2565b5b61273982612246565b9050602081019050919050565b600061275961275484612715565b612352565b905082815260208101848484011115612775576127746122ed565b5b61278084828561239e565b509392505050565b600082601f83011261279d5761279c6122e8565b5b81356127ad848260208601612746565b91505092915050565b600080600080608085870312156127d0576127cf61213b565b5b60006127de87828801612543565b94505060206127ef87828801612543565b9350506040612800878288016122d3565b925050606085013567ffffffffffffffff81111561282157612820612140565b5b61282d87828801612788565b91505092959194509250565b600080604083850312156128505761284f61213b565b5b600061285e85828601612543565b925050602061286f85828601612543565b9150509250929050565b7f4e487b7100000000000000000000000000000000000000000000000000000000600052602260045260246000fd5b600060028204905060018216806128c057607f821691505b6020821081036128d3576128d2612879565b5b50919050565b7f4e6f7420746865206f776e657200000000000000000000000000000000000000600082015250565b600061290f600d8361220b565b915061291a826128d9565b602082019050919050565b6000602082019050818103600083015261293e81612902565b9050919050565b60008190508160005260206000209050919050565b60006020601f8301049050919050565b600082821b905092915050565b6000600883026129a77fffffffffffffffffffffffffffffffffffffffffffffffffffffffffffffffff8261296a565b6129b1868361296a565b95508019841693508086168417925050509392505050565b6000819050919050565b60006129ee6129e96129e4846122b2565b6129c9565b6122b2565b9050919050565b6000819050919050565b612a08836129d3565b612a1c612a14826129f5565b848454612977565b825550505050565b600090565b612a31612a24565b612a3c8184846129ff565b505050565b5b81811015612a6057612a55600082612a29565b600181019050612a42565b5050565b601f821115612aa557612a7681612945565b612a7f8461295a565b81016020851015612a8e578190505b612aa2612a9a8561295a565b830182612a41565b50505b505050565b600082821c905092915050565b6000612ac860001984600802612aaa565b1980831691505092915050565b6000612ae18383612ab7565b9150826002028217905092915050565b612afa82612200565b67ffffffffffffffff811115612b1357612b126122f2565b5b612b1d82546128a8565b612b28828285612a64565b600060209050601f831160018114612b5b5760008415612b49578287015190505b612b538582612ad5565b865550612bbb565b601f198416612b6986612945565b60005b82811015612b9157848901518255600182019150602085019450602081019050612b6c565b86831015612bae5784890151612baa601f891682612ab7565b8355505b6001600288020188555050505b505050505050565b7f4552433732313a20617070726f76616c20746f2063757272656e74206f776e6560008201527f7200000000000000000000000000000000000000000000000000000000000000602082015250565b6000612c1f60218361220b565b9150612c2a82612bc3565b604082019050919050565b60006020820190508181036000830152612c4e81612c12565b9050919050565b7f4552433732313a20617070726f76652063616c6c6572206973206e6f7420746f60008201527f6b656e206f776e6572206f7220617070726f76656420666f7220616c6c000000602082015250565b6000612cb1603d8361220b565b9150612cbc82612c55565b604082019050919050565b60006020820190508181036000830152612ce081612ca4565b9050919050565b7f4f6e6c79204d656853746f726556312063616e2063616c6c207468697320667560008201527f6e6374696f6e0000000000000000000000000000000000000000000000000000602082015250565b6000612d4360268361220b565b9150612d4e82612ce7565b604082019050919050565b60006020820190508181036000830152612d7281612d36565b9050919050565b7f4e487b7100000000000000000000000000000000000000000000000000000000600052601160045260246000fd5b6000612db3826122b2565b91507fffffffffffffffffffffffffffffffffffffffffffffffffffffffffffffffff8203612de557612de4612d79565b5b600182019050919050565b7f4552433732313a2063616c6c6572206973206e6f7420746f6b656e206f776e6560008201527f72206f7220617070726f76656400000000000000000000000000000000000000602082015250565b6000612e4c602d8361220b565b9150612e5782612df0565b604082019050919050565b60006020820190508181036000830152612e7b81612e3f565b9050919050565b7f4552433732313a20696e76616c696420746f6b656e2049440000000000000000600082015250565b6000612eb860188361220b565b9150612ec382612e82565b602082019050919050565b60006020820190508181036000830152612ee781612eab565b9050919050565b7f4552433732313a2061646472657373207a65726f206973206e6f74206120766160008201527f6c6964206f776e65720000000000000000000000000000000000000000000000602082015250565b6000612f4a60298361220b565b9150612f5582612eee565b604082019050919050565b60006020820190508181036000830152612f7981612f3d565b9050919050565b600081905092915050565b6000612f9682612200565b612fa08185612f80565b9350612fb081856020860161221c565b80840191505092915050565b6000612fc88285612f8b565b9150612fd48284612f8b565b91508190509392505050565b7f4f776e61626c653a206e6577206f776e657220697320746865207a65726f206160008201527f6464726573730000000000000000000000000000000000000000000000000000602082015250565b600061303c60268361220b565b915061304782612fe0565b604082019050919050565b6000602082019050818103600083015261306b8161302f565b9050919050565b7f4552433732313a207472616e736665722066726f6d20696e636f72726563742060008201527f6f776e6572000000000000000000000000000000000000000000000000000000602082015250565b60006130ce60258361220b565b91506130d982613072565b604082019050919050565b600060208201905081810360008301526130fd816130c1565b9050919050565b7f4552433732313a207472616e7366657220746f20746865207a65726f2061646460008201527f7265737300000000000000000000000000000000000000000000000000000000602082015250565b600061316060248361220b565b915061316b82613104565b604082019050919050565b6000602082019050818103600083015261318f81613153565b9050919050565b7f4552433732313a206d696e7420746f20746865207a65726f2061646472657373600082015250565b60006131cc60208361220b565b91506131d782613196565b602082019050919050565b600060208201905081810360008301526131fb816131bf565b9050919050565b7f4552433732313a20746f6b656e20616c7265616479206d696e74656400000000600082015250565b6000613238601c8361220b565b915061324382613202565b602082019050919050565b600060208201905081810360008301526132678161322b565b9050919050565b7f4f776e61626c653a2063616c6c6572206973206e6f7420746865206f776e6572600082015250565b60006132a460208361220b565b91506132af8261326e565b602082019050919050565b600060208201905081810360008301526132d381613297565b9050919050565b7f4552433732313a20617070726f766520746f2063616c6c657200000000000000600082015250565b600061331060198361220b565b915061331b826132da565b602082019050919050565b6000602082019050818103600083015261333f81613303565b9050919050565b7f4552433732313a207472616e7366657220746f206e6f6e20455243373231526560008201527f63656976657220696d706c656d656e7465720000000000000000000000000000602082015250565b60006133a260328361220b565b91506133ad82613346565b604082019050919050565b600060208201905081810360008301526133d181613395565b9050919050565b7f4e487b7100000000000000000000000000000000000000000000000000000000600052601260045260246000fd5b600081519050919050565b600082825260208201905092915050565b600061342e82613407565b6134388185613412565b935061344881856020860161221c565b61345181612246565b840191505092915050565b60006080820190506134716000830187612502565b61347e6020830186612502565b61348b60408301856124a6565b818103606083015261349d8184613423565b905095945050505050565b6000815190506134b781612171565b92915050565b6000602082840312156134d3576134d261213b565b5b60006134e1848285016134a8565b9150509291505056fea264697066735822122080a65688b3322140cc826c6f74b00cc974168b8d7f1840372ad61ba63afe099a64736f6c63430008180033",
  "linkReferences": {},
  "deployedLinkReferences": {}
}