{
  "_format": "hh-sol-artifact-1",
  "contractName": "MehStoreNFT",
  "sourceName": "contracts/store/MehStoreNFT.sol",
  "abi": [
    {
      "inputs": [],
      "stateMutability": "nonpayable",
      "type": "constructor"
    },
    {
      "anonymous": false,
      "inputs": [
        {
          "indexed": true,
          "internalType": "address",
          "name": "owner",
          "type": "address"
        },
        {
          "indexed": true,
          "internalType": "address",
          "name": "approved",
          "type": "address"
        },
        {
          "indexed": true,
          "internalType": "uint256",
          "name": "tokenId",
          "type": "uint256"
        }
      ],
      "name": "Approval",
      "type": "event"
    },
    {
      "anonymous": false,
      "inputs": [
        {
          "indexed": true,
          "internalType": "address",
          "name": "owner",
          "type": "address"
        },
        {
          "indexed": true,
          "internalType": "address",
          "name": "operator",
          "type": "address"
        },
        {
          "indexed": false,
          "internalType": "bool",
          "name": "approved",
          "type": "bool"
        }
      ],
      "name": "ApprovalForAll",
      "type": "event"
    },
    {
      "anonymous": false,
      "inputs": [
        {
          "indexed": true,
          "internalType": "address",
          "name": "previousOwner",
          "type": "address"
        },
        {
          "indexed": true,
          "internalType": "address",
          "name": "newOwner",
          "type": "address"
        }
      ],
      "name": "OwnershipTransferred",
      "type": "event"
    },
    {
      "anonymous": false,
      "inputs": [
        {
          "indexed": true,
          "internalType": "address",
          "name": "from",
          "type": "address"
        },
        {
          "indexed": true,
          "internalType": "address",
          "name": "to",
          "type": "address"
        },
        {
          "indexed": true,
          "internalType": "uint256",
          "name": "tokenId",
          "type": "uint256"
        }
      ],
      "name": "Transfer",
      "type": "event"
    },
    {
      "inputs": [
        {
          "internalType": "address",
          "name": "to",
          "type": "address"
        },
        {
          "internalType": "uint256",
          "name": "tokenId",
          "type": "uint256"
        }
      ],
      "name": "approve",
      "outputs": [],
      "stateMutability": "nonpayable",
      "type": "function"
    },
    {
      "inputs": [
        {
          "internalType": "address",
          "name": "owner",
          "type": "address"
        }
      ],
      "name": "balanceOf",
      "outputs": [
        {
          "internalType": "uint256",
          "name": "",
          "type": "uint256"
        }
      ],
      "stateMutability": "view",
      "type": "function"
    },
    {
      "inputs": [
        {
          "internalType": "uint256",
          "name": "tokenId",
          "type": "uint256"
        }
      ],
      "name": "burn",
      "outputs": [],
      "stateMutability": "nonpayable",
      "type": "function"
    },
    {
      "inputs": [
        {
          "internalType": "uint256",
          "name": "tokenId",
          "type": "uint256"
        },
        {
          "internalType": "string",
          "name": "deliveryAddress",
          "type": "string"
        }
      ],
      "name": "enterDeliveryAddress",
      "outputs": [],
      "stateMutability": "nonpayable",
      "type": "function"
    },
    {
      "inputs": [
        {
          "internalType": "uint256",
          "name": "tokenId",
          "type": "uint256"
        }
      ],
      "name": "getApproved",
      "outputs": [
        {
          "internalType": "address",
          "name": "",
          "type": "address"
        }
      ],
      "stateMutability": "view",
      "type": "function"
    },
    {
      "inputs": [
        {
          "internalType": "uint256",
          "name": "tokenId",
          "type": "uint256"
        }
      ],
      "name": "getPrice",
      "outputs": [
        {
          "internalType": "uint256",
          "name": "",
          "type": "uint256"
        }
      ],
      "stateMutability": "view",
      "type": "function"
    },
    {
      "inputs": [
        {
          "internalType": "uint256",
          "name": "productId",
          "type": "uint256"
        }
      ],
      "name": "getTokenIdByProductId",
      "outputs": [
        {
          "internalType": "uint256",
          "name": "",
          "type": "uint256"
        }
      ],
      "stateMutability": "view",
      "type": "function"
    },
    {
      "inputs": [
        {
          "internalType": "address",
          "name": "owner",
          "type": "address"
        },
        {
          "internalType": "address",
          "name": "operator",
          "type": "address"
        }
      ],
      "name": "isApprovedForAll",
      "outputs": [
        {
          "internalType": "bool",
          "name": "",
          "type": "bool"
        }
      ],
      "stateMutability": "view",
      "type": "function"
    },
    {
      "inputs": [],
      "name": "mehStoreV1",
      "outputs": [
        {
          "internalType": "address",
          "name": "",
          "type": "address"
        }
      ],
      "stateMutability": "view",
      "type": "function"
    },
    {
      "inputs": [
        {
          "internalType": "address",
          "name": "to",
          "type": "address"
        },
        {
          "internalType": "uint256",
          "name": "productId",
          "type": "uint256"
        },
        {
          "internalType": "uint256",
          "name": "price",
          "type": "uint256"
        }
      ],
      "name": "mint",
      "outputs": [],
      "stateMutability": "nonpayable",
      "type": "function"
    },
    {
      "inputs": [],
      "name": "name",
      "outputs": [
        {
          "internalType": "string",
          "name": "",
          "type": "string"
        }
      ],
      "stateMutability": "view",
      "type": "function"
    },
    {
      "inputs": [],
      "name": "nextTokenId",
      "outputs": [
        {
          "internalType": "uint256",
          "name": "",
          "type": "uint256"
        }
      ],
      "stateMutability": "view",
      "type": "function"
    },
    {
      "inputs": [
        {
          "internalType": "uint256",
          "name": "",
          "type": "uint256"
        }
      ],
      "name": "nftDetails",
      "outputs": [
        {
          "internalType": "uint256",
          "name": "productId",
          "type": "uint256"
        },
        {
          "internalType": "uint256",
          "name": "price",
          "type": "uint256"
        },
        {
          "internalType": "string",
          "name": "deliveryAddress",
          "type": "string"
        }
      ],
      "stateMutability": "view",
      "type": "function"
    },
    {
      "inputs": [],
      "name": "owner",
      "outputs": [
        {
          "internalType": "address",
          "name": "",
          "type": "address"
        }
      ],
      "stateMutability": "view",
      "type": "function"
    },
    {
      "inputs": [
        {
          "internalType": "uint256",
          "name": "tokenId",
          "type": "uint256"
        }
      ],
      "name": "ownerOf",
      "outputs": [
        {
          "internalType": "address",
          "name": "",
          "type": "address"
        }
      ],
      "stateMutability": "view",
      "type": "function"
    },
    {
      "inputs": [
        {
          "internalType": "uint256",
          "name": "",
          "type": "uint256"
        }
      ],
      "name": "productToToken",
      "outputs": [
        {
          "internalType": "uint256",
          "name": "",
          "type": "uint256"
        }
      ],
      "stateMutability": "view",
      "type": "function"
    },
    {
      "inputs": [],
      "name": "renounceOwnership",
      "outputs": [],
      "stateMutability": "nonpayable",
      "type": "function"
    },
    {
      "inputs": [
        {
          "internalType": "address",
          "name": "from",
          "type": "address"
        },
        {
          "internalType": "address",
          "name": "to",
          "type": "address"
        },
        {
          "internalType": "uint256",
          "name": "tokenId",
          "type": "uint256"
        }
      ],
      "name": "safeTransferFrom",
      "outputs": [],
      "stateMutability": "nonpayable",
      "type": "function"
    },
    {
      "inputs": [
        {
          "internalType": "address",
          "name": "from",
          "type": "address"
        },
        {
          "internalType": "address",
          "name": "to",
          "type": "address"
        },
        {
          "internalType": "uint256",
          "name": "tokenId",
          "type": "uint256"
        },
        {
          "internalType": "bytes",
          "name": "data",
          "type": "bytes"
        }
      ],
      "name": "safeTransferFrom",
      "outputs": [],
      "stateMutability": "nonpayable",
      "type": "function"
    },
    {
      "inputs": [
        {
          "internalType": "address",
          "name": "operator",
          "type": "address"
        },
        {
          "internalType": "bool",
          "name": "approved",
          "type": "bool"
        }
      ],
      "name": "setApprovalForAll",
      "outputs": [],
      "stateMutability": "nonpayable",
      "type": "function"
    },
    {
      "inputs": [
        {
          "internalType": "address",
          "name": "_mehStoreV1",
          "type": "address"
        }
      ],
      "name": "setMehStoreV1",
      "outputs": [],
      "stateMutability": "nonpayable",
      "type": "function"
    },
    {
      "inputs": [
        {
          "internalType": "bytes4",
          "name": "interfaceId",
          "type": "bytes4"
        }
      ],
      "name": "supportsInterface",
      "outputs": [
        {
          "internalType": "bool",
          "name": "",
          "type": "bool"
        }
      ],
      "stateMutability": "view",
      "type": "function"
    },
    {
      "inputs": [],
      "name": "symbol",
      "outputs": [
        {
          "internalType": "string",
          "name": "",
          "type": "string"
        }
      ],
      "stateMutability": "view",
      "type": "function"
    },
    {
      "inputs": [
        {
          "internalType": "uint256",
          "name": "tokenId",
          "type": "uint256"
        }
      ],
      "name": "tokenURI",
      "outputs": [
        {
          "internalType": "string",
          "name": "",
          "type": "string"
        }
      ],
      "stateMutability": "view",
      "type": "function"
    },
    {
      "inputs": [
        {
          "internalType": "address",
          "name": "from",
          "type": "address"
        },
        {
          "internalType": "address",
          "name": "to",
          "type": "address"
        },
        {
          "internalType": "uint256",
          "name": "tokenId",
          "type": "uint256"
        }
      ],
      "name": "transferFrom",
      "outputs": [],
      "stateMutability": "nonpayable",
      "type": "function"
    },
    {
      "inputs": [
        {
          "internalType": "address",
          "name": "newOwner",
          "type": "address"
        }
      ],
      "name": "transferOwnership",
      "outputs": [],
      "stateMutability": "nonpayable",
      "type": "function"
    }
  ],
  "bytecode": "0x60806040523480156200001157600080fd5b506040518060400160405280600b81526020017f4d656853746f72654e46540000000000000000000000000000000000000000008152506040518060400160405280600381526020017f4d534e000000000000000000000000000000000000000000000000000000000081525081600090816200008f919062000412565b508060019081620000a1919062000412565b505050620000c4620000b8620000ca60201b60201c565b620000d260201b60201c565b620004f9565b600033905090565b6000600660009054906101000a900473ffffffffffffffffffffffffffffffffffffffff16905081600660006101000a81548173ffffffffffffffffffffffffffffffffffffffff021916908373ffffffffffffffffffffffffffffffffffffffff1602179055508173ffffffffffffffffffffffffffffffffffffffff168173ffffffffffffffffffffffffffffffffffffffff167f8be0079c531659141344cd1fd0a4f28419497f9722a3daafe3b4186f6b6457e060405160405180910390a35050565b600081519050919050565b7f4e487b7100000000000000000000000000000000000000000000000000000000600052604160045260246000fd5b7f4e487b7100000000000000000000000000000000000000000000000000000000600052602260045260246000fd5b600060028204905060018216806200021a57607f821691505b60208210810362000230576200022f620001d2565b5b50919050565b60008190508160005260206000209050919050565b60006020601f8301049050919050565b600082821b905092915050565b6000600883026200029a7fffffffffffffffffffffffffffffffffffffffffffffffffffffffffffffffff826200025b565b620002a686836200025b565b95508019841693508086168417925050509392505050565b6000819050919050565b6000819050919050565b6000620002f3620002ed620002e784620002be565b620002c8565b620002be565b9050919050565b6000819050919050565b6200030f83620002d2565b620003276200031e82620002fa565b84845462000268565b825550505050565b600090565b6200033e6200032f565b6200034b81848462000304565b505050565b5b8181101562000373576200036760008262000334565b60018101905062000351565b5050565b601f821115620003c2576200038c8162000236565b62000397846200024b565b81016020851015620003a7578190505b620003bf620003b6856200024b565b83018262000350565b50505b505050565b600082821c905092915050565b6000620003e760001984600802620003c7565b1980831691505092915050565b6000620004028383620003d4565b9150826002028217905092915050565b6200041d8262000198565b67ffffffffffffffff811115620004395762000438620001a3565b5b62000445825462000201565b6200045282828562000377565b600060209050601f8311600181146200048a576000841562000475578287015190505b620004818582620003f4565b865550620004f1565b601f1984166200049a8662000236565b60005b82811015620004c4578489015182556001820191506020850194506020810190506200049d565b86831015620004e45784890151620004e0601f891682620003d4565b8355505b6001600288020188555050505b505050505050565b61350e80620005096000396000f3fe608060405234801561001057600080fd5b506004361061018e5760003560e01c806370a08231116100de578063a22cb46511610097578063c87b56dd11610071578063c87b56dd14610481578063e7572230146104b1578063e985e9c5146104e1578063f2fde38b146105115761018e565b8063a22cb4651461042d578063b88d4fde14610449578063be46fffe146104655761018e565b806370a0823114610367578063715018a61461039757806375794a3c146103a15780637d4cd847146103bf5780638da5cb5b146103f157806395d89b411461040f5761018e565b8063095ea7b31161014b57806342842e0e1161012557806342842e0e146102cf57806342966c68146102eb57806343d53078146103075780636352211e146103375761018e565b8063095ea7b31461027b578063156e29f61461029757806323b872dd146102b35761018e565b806301ffc9a71461019357806306fdde03146101c357806307bd6467146101e15780630812a3cb146101fd578063081812fc1461022d578063084e8c471461025d575b600080fd5b6101ad60048036038101906101a8919061218b565b61052d565b6040516101ba91906121d3565b60405180910390f35b6101cb61060f565b6040516101d8919061227e565b60405180910390f35b6101fb60048036038101906101f6919061240b565b6106a1565b005b61021760048036038101906102129190612467565b61073f565b60405161022491906124a3565b60405180910390f35b61024760048036038101906102429190612467565b61075c565b60405161025491906124ff565b60405180910390f35b6102656107a2565b60405161027291906124ff565b60405180910390f35b61029560048036038101906102909190612546565b6107c8565b005b6102b160048036038101906102ac9190612586565b6108df565b005b6102cd60048036038101906102c891906125d9565b610a1c565b005b6102e960048036038101906102e491906125d9565b610a7c565b005b61030560048036038101906103009190612467565b610a9c565b005b610321600480360381019061031c9190612467565b610b9b565b60405161032e91906124a3565b60405180910390f35b610351600480360381019061034c9190612467565b610bb3565b60405161035e91906124ff565b60405180910390f35b610381600480360381019061037c919061262c565b610c39565b60405161038e91906124a3565b60405180910390f35b61039f610cf0565b005b6103a9610d04565b6040516103b691906124a3565b60405180910390f35b6103d960048036038101906103d49190612467565b610d0a565b6040516103e893929190612659565b60405180910390f35b6103f9610dbc565b60405161040691906124ff565b60405180910390f35b610417610de6565b604051610424919061227e565b60405180910390f35b610447600480360381019061044291906126c3565b610e78565b005b610463600480360381019061045e91906127a4565b610e8e565b005b61047f600480360381019061047a919061262c565b610ef0565b005b61049b60048036038101906104969190612467565b610f3c565b6040516104a8919061227e565b60405180910390f35b6104cb60048036038101906104c69190612467565b610fa4565b6040516104d891906124a3565b60405180910390f35b6104fb60048036038101906104f69190612827565b610fc4565b60405161050891906121d3565b60405180910390f35b61052b6004803603810190610526919061262c565b611058565b005b60007f80ac58cd000000000000000000000000000000000000000000000000000000007bffffffffffffffffffffffffffffffffffffffffffffffffffffffff1916827bffffffffffffffffffffffffffffffffffffffffffffffffffffffff191614806105f857507f5b5e139f000000000000000000000000000000000000000000000000000000007bffffffffffffffffffffffffffffffffffffffffffffffffffffffff1916827bffffffffffffffffffffffffffffffffffffffffffffffffffffffff1916145b806106085750610607826110db565b5b9050919050565b60606000805461061e90612896565b80601f016020809104026020016040519081016040528092919081815260200182805461064a90612896565b80156106975780601f1061066c57610100808354040283529160200191610697565b820191906000526020600020905b81548152906001019060200180831161067a57829003601f168201915b5050505050905090565b3373ffffffffffffffffffffffffffffffffffffffff166106c183610bb3565b73ffffffffffffffffffffffffffffffffffffffff1614610717576040517f08c379a000000000000000000000000000000000000000000000000000000000815260040161070e90612913565b60405180910390fd5b8060076000848152602001908152602001600020600201908161073a9190612adf565b505050565b600060086000838152602001908152602001600020549050919050565b600061076782611145565b6004600083815260200190815260200160002060009054906101000a900473ffffffffffffffffffffffffffffffffffffffff169050919050565b600a60009054906101000a900473ffffffffffffffffffffffffffffffffffffffff1681565b60006107d382610bb3565b90508073ffffffffffffffffffffffffffffffffffffffff168373ffffffffffffffffffffffffffffffffffffffff1603610843576040517f08c379a000000000000000000000000000000000000000000000000000000000815260040161083a90612c23565b60405180910390fd5b8073ffffffffffffffffffffffffffffffffffffffff16610862611190565b73ffffffffffffffffffffffffffffffffffffffff16148061089157506108908161088b611190565b610fc4565b5b6108d0576040517f08c379a00000000000000000000000000000000000000000000000000000000081526004016108c790612cb5565b60405180910390fd5b6108da8383611198565b505050565b600a60009054906101000a900473ffffffffffffffffffffffffffffffffffffffff1673ffffffffffffffffffffffffffffffffffffffff163373ffffffffffffffffffffffffffffffffffffffff161461096f576040517f08c379a000000000000000000000000000000000000000000000000000000000815260040161096690612d47565b60405180910390fd5b60006009600081548092919061098490612d96565b9190505590506109948482611251565b60405180606001604052808481526020018381526020016040518060200160405280600081525081525060076000838152602001908152602001600020600082015181600001556020820151816001015560408201518160020190816109fa9190612adf565b5090505080600860008581526020019081526020016000208190555050505050565b610a2d610a27611190565b8261146e565b610a6c576040517f08c379a0000000000000000000000000000000000000000000000000000000008152600401610a6390612e50565b60405180910390fd5b610a77838383611503565b505050565b610a9783838360405180602001604052806000815250610e8e565b505050565b600a60009054906101000a900473ffffffffffffffffffffffffffffffffffffffff1673ffffffffffffffffffffffffffffffffffffffff163373ffffffffffffffffffffffffffffffffffffffff1614610b2c576040517f08c379a0000000000000000000000000000000000000000000000000000000008152600401610b2390612d47565b60405180910390fd5b600860006007600084815260200190815260200160002060000154815260200190815260200160002060009055610b62816117fc565b600760008281526020019081526020016000206000808201600090556001820160009055600282016000610b9691906120c2565b505050565b60086020528060005260406000206000915090505481565b600080610bbf8361194a565b9050600073ffffffffffffffffffffffffffffffffffffffff168173ffffffffffffffffffffffffffffffffffffffff1603610c30576040517f08c379a0000000000000000000000000000000000000000000000000000000008152600401610c2790612ebc565b60405180910390fd5b80915050919050565b60008073ffffffffffffffffffffffffffffffffffffffff168273ffffffffffffffffffffffffffffffffffffffff1603610ca9576040517f08c379a0000000000000000000000000000000000000000000000000000000008152600401610ca090612f4e565b60405180910390fd5b600360008373ffffffffffffffffffffffffffffffffffffffff1673ffffffffffffffffffffffffffffffffffffffff168152602001908152602001600020549050919050565b610cf8611987565b610d026000611a05565b565b60095481565b6007602052806000526040600020600091509050806000015490806001015490806002018054610d3990612896565b80601f0160208091040260200160405190810160405280929190818152602001828054610d6590612896565b8015610db25780601f10610d8757610100808354040283529160200191610db2565b820191906000526020600020905b815481529060010190602001808311610d9557829003601f168201915b5050505050905083565b6000600660009054906101000a900473ffffffffffffffffffffffffffffffffffffffff16905090565b606060018054610df590612896565b80601f0160208091040260200160405190810160405280929190818152602001828054610e2190612896565b8015610e6e5780601f10610e4357610100808354040283529160200191610e6e565b820191906000526020600020905b815481529060010190602001808311610e5157829003601f168201915b5050505050905090565b610e8a610e83611190565b8383611acb565b5050565b610e9f610e99611190565b8361146e565b610ede576040517f08c379a0000000000000000000000000000000000000000000000000000000008152600401610ed590612e50565b60405180910390fd5b610eea84848484611c37565b50505050565b610ef8611987565b80600a60006101000a81548173ffffffffffffffffffffffffffffffffffffffff021916908373ffffffffffffffffffffffffffffffffffffffff16021790555050565b6060610f4782611145565b6000610f51611c93565b90506000815111610f715760405180602001604052806000815250610f9c565b80610f7b84611caa565b604051602001610f8c929190612faa565b6040516020818303038152906040525b915050919050565b600060076000838152602001908152602001600020600101549050919050565b6000600560008473ffffffffffffffffffffffffffffffffffffffff1673ffffffffffffffffffffffffffffffffffffffff16815260200190815260200160002060008373ffffffffffffffffffffffffffffffffffffffff1673ffffffffffffffffffffffffffffffffffffffff16815260200190815260200160002060009054906101000a900460ff16905092915050565b611060611987565b600073ffffffffffffffffffffffffffffffffffffffff168173ffffffffffffffffffffffffffffffffffffffff16036110cf576040517f08c379a00000000000000000000000000000000000000000000000000000000081526004016110c690613040565b60405180910390fd5b6110d881611a05565b50565b60007f01ffc9a7000000000000000000000000000000000000000000000000000000007bffffffffffffffffffffffffffffffffffffffffffffffffffffffff1916827bffffffffffffffffffffffffffffffffffffffffffffffffffffffff1916149050919050565b61114e81611d78565b61118d576040517f08c379a000000000000000000000000000000000000000000000000000000000815260040161118490612ebc565b60405180910390fd5b50565b600033905090565b816004600083815260200190815260200160002060006101000a81548173ffffffffffffffffffffffffffffffffffffffff021916908373ffffffffffffffffffffffffffffffffffffffff160217905550808273ffffffffffffffffffffffffffffffffffffffff1661120b83610bb3565b73ffffffffffffffffffffffffffffffffffffffff167f8c5be1e5ebec7d5bd14f71427d1e84f3dd0314c0f7b2291e5b200ac8c7c3b92560405160405180910390a45050565b600073ffffffffffffffffffffffffffffffffffffffff168273ffffffffffffffffffffffffffffffffffffffff16036112c0576040517f08c379a00000000000000000000000000000000000000000000000000000000081526004016112b7906130ac565b60405180910390fd5b6112c981611d78565b15611309576040517f08c379a000000000000000000000000000000000000000000000000000000000815260040161130090613118565b60405180910390fd5b611317600083836001611db9565b61132081611d78565b15611360576040517f08c379a000000000000000000000000000000000000000000000000000000000815260040161135790613118565b60405180910390fd5b6001600360008473ffffffffffffffffffffffffffffffffffffffff1673ffffffffffffffffffffffffffffffffffffffff16815260200190815260200160002060008282540192505081905550816002600083815260200190815260200160002060006101000a81548173ffffffffffffffffffffffffffffffffffffffff021916908373ffffffffffffffffffffffffffffffffffffffff160217905550808273ffffffffffffffffffffffffffffffffffffffff16600073ffffffffffffffffffffffffffffffffffffffff167fddf252ad1be2c89b69c2b068fc378daa952ba7f163c4a11628f55a4df523b3ef60405160405180910390a461146a600083836001611dbf565b5050565b60008061147a83610bb3565b90508073ffffffffffffffffffffffffffffffffffffffff168473ffffffffffffffffffffffffffffffffffffffff1614806114bc57506114bb8185610fc4565b5b806114fa57508373ffffffffffffffffffffffffffffffffffffffff166114e28461075c565b73ffffffffffffffffffffffffffffffffffffffff16145b91505092915050565b8273ffffffffffffffffffffffffffffffffffffffff1661152382610bb3565b73ffffffffffffffffffffffffffffffffffffffff1614611579576040517f08c379a0000000000000000000000000000000000000000000000000000000008152600401611570906131aa565b60405180910390fd5b600073ffffffffffffffffffffffffffffffffffffffff168273ffffffffffffffffffffffffffffffffffffffff16036115e8576040517f08c379a00000000000000000000000000000000000000000000000000000000081526004016115df9061323c565b60405180910390fd5b6115f58383836001611db9565b8273ffffffffffffffffffffffffffffffffffffffff1661161582610bb3565b73ffffffffffffffffffffffffffffffffffffffff161461166b576040517f08c379a0000000000000000000000000000000000000000000000000000000008152600401611662906131aa565b60405180910390fd5b6004600082815260200190815260200160002060006101000a81549073ffffffffffffffffffffffffffffffffffffffff02191690556001600360008573ffffffffffffffffffffffffffffffffffffffff1673ffffffffffffffffffffffffffffffffffffffff168152602001908152602001600020600082825403925050819055506001600360008473ffffffffffffffffffffffffffffffffffffffff1673ffffffffffffffffffffffffffffffffffffffff16815260200190815260200160002060008282540192505081905550816002600083815260200190815260200160002060006101000a81548173ffffffffffffffffffffffffffffffffffffffff021916908373ffffffffffffffffffffffffffffffffffffffff160217905550808273ffffffffffffffffffffffffffffffffffffffff168473ffffffffffffffffffffffffffffffffffffffff167fddf252ad1be2c89b69c2b068fc378daa952ba7f163c4a11628f55a4df523b3ef60405160405180910390a46117f78383836001611dbf565b505050565b600061180782610bb3565b9050611817816000846001611db9565b61182082610bb3565b90506004600083815260200190815260200160002060006101000a81549073ffffffffffffffffffffffffffffffffffffffff02191690556001600360008373ffffffffffffffffffffffffffffffffffffffff1673ffffffffffffffffffffffffffffffffffffffff168152602001908152602001600020600082825403925050819055506002600083815260200190815260200160002060006101000a81549073ffffffffffffffffffffffffffffffffffffffff021916905581600073ffffffffffffffffffffffffffffffffffffffff168273ffffffffffffffffffffffffffffffffffffffff167fddf252ad1be2c89b69c2b068fc378daa952ba7f163c4a11628f55a4df523b3ef60405160405180910390a4611946816000846001611dbf565b5050565b60006002600083815260200190815260200160002060009054906101000a900473ffffffffffffffffffffffffffffffffffffffff169050919050565b61198f611190565b73ffffffffffffffffffffffffffffffffffffffff166119ad610dbc565b73ffffffffffffffffffffffffffffffffffffffff1614611a03576040517f08c379a00000000000000000000000000000000000000000000000000000000081526004016119fa906132a8565b60405180910390fd5b565b6000600660009054906101000a900473ffffffffffffffffffffffffffffffffffffffff16905081600660006101000a81548173ffffffffffffffffffffffffffffffffffffffff021916908373ffffffffffffffffffffffffffffffffffffffff1602179055508173ffffffffffffffffffffffffffffffffffffffff168173ffffffffffffffffffffffffffffffffffffffff167f8be0079c531659141344cd1fd0a4f28419497f9722a3daafe3b4186f6b6457e060405160405180910390a35050565b8173ffffffffffffffffffffffffffffffffffffffff168373ffffffffffffffffffffffffffffffffffffffff1603611b39576040517f08c379a0000000000000000000000000000000000000000000000000000000008152600401611b3090613314565b60405180910390fd5b80600560008573ffffffffffffffffffffffffffffffffffffffff1673ffffffffffffffffffffffffffffffffffffffff16815260200190815260200160002060008473ffffffffffffffffffffffffffffffffffffffff1673ffffffffffffffffffffffffffffffffffffffff16815260200190815260200160002060006101000a81548160ff0219169083151502179055508173ffffffffffffffffffffffffffffffffffffffff168373ffffffffffffffffffffffffffffffffffffffff167f17307eab39ab6107e8899845ad3d59bd9653f200f220920489ca2b5937696c3183604051611c2a91906121d3565b60405180910390a3505050565b611c42848484611503565b611c4e84848484611dc5565b611c8d576040517f08c379a0000000000000000000000000000000000000000000000000000000008152600401611c84906133a6565b60405180910390fd5b50505050565b606060405180602001604052806000815250905090565b606060006001611cb984611f4c565b01905060008167ffffffffffffffff811115611cd857611cd76122e0565b5b6040519080825280601f01601f191660200182016040528015611d0a5781602001600182028036833780820191505090505b509050600082602001820190505b600115611d6d578080600190039150507f3031323334353637383961626364656600000000000000000000000000000000600a86061a8153600a8581611d6157611d606133c6565b5b04945060008503611d18575b819350505050919050565b60008073ffffffffffffffffffffffffffffffffffffffff16611d9a8361194a565b73ffffffffffffffffffffffffffffffffffffffff1614159050919050565b50505050565b50505050565b6000611de68473ffffffffffffffffffffffffffffffffffffffff1661209f565b15611f3f578373ffffffffffffffffffffffffffffffffffffffff1663150b7a02611e0f611190565b8786866040518563ffffffff1660e01b8152600401611e31949392919061344a565b6020604051808303816000875af1925050508015611e6d57506040513d601f19601f82011682018060405250810190611e6a91906134ab565b60015b611eef573d8060008114611e9d576040519150601f19603f3d011682016040523d82523d6000602084013e611ea2565b606091505b506000815103611ee7576040517f08c379a0000000000000000000000000000000000000000000000000000000008152600401611ede906133a6565b60405180910390fd5b805181602001fd5b63150b7a0260e01b7bffffffffffffffffffffffffffffffffffffffffffffffffffffffff1916817bffffffffffffffffffffffffffffffffffffffffffffffffffffffff191614915050611f44565b600190505b949350505050565b600080600090507a184f03e93ff9f4daa797ed6e38ed64bf6a1f0100000000000000008310611faa577a184f03e93ff9f4daa797ed6e38ed64bf6a1f0100000000000000008381611fa057611f9f6133c6565b5b0492506040810190505b6d04ee2d6d415b85acef81000000008310611fe7576d04ee2d6d415b85acef81000000008381611fdd57611fdc6133c6565b5b0492506020810190505b662386f26fc10000831061201657662386f26fc10000838161200c5761200b6133c6565b5b0492506010810190505b6305f5e100831061203f576305f5e1008381612035576120346133c6565b5b0492506008810190505b612710831061206457612710838161205a576120596133c6565b5b0492506004810190505b60648310612087576064838161207d5761207c6133c6565b5b0492506002810190505b600a8310612096576001810190505b80915050919050565b6000808273ffffffffffffffffffffffffffffffffffffffff163b119050919050565b5080546120ce90612896565b6000825580601f106120e057506120ff565b601f0160209004906000526020600020908101906120fe9190612102565b5b50565b5b8082111561211b576000816000905550600101612103565b5090565b6000604051905090565b600080fd5b600080fd5b60007fffffffff0000000000000000000000000000000000000000000000000000000082169050919050565b61216881612133565b811461217357600080fd5b50565b6000813590506121858161215f565b92915050565b6000602082840312156121a1576121a0612129565b5b60006121af84828501612176565b91505092915050565b60008115159050919050565b6121cd816121b8565b82525050565b60006020820190506121e860008301846121c4565b92915050565b600081519050919050565b600082825260208201905092915050565b60005b8381101561222857808201518184015260208101905061220d565b60008484015250505050565b6000601f19601f8301169050919050565b6000612250826121ee565b61225a81856121f9565b935061226a81856020860161220a565b61227381612234565b840191505092915050565b600060208201905081810360008301526122988184612245565b905092915050565b6000819050919050565b6122b3816122a0565b81146122be57600080fd5b50565b6000813590506122d0816122aa565b92915050565b600080fd5b600080fd5b7f4e487b7100000000000000000000000000000000000000000000000000000000600052604160045260246000fd5b61231882612234565b810181811067ffffffffffffffff82111715612337576123366122e0565b5b80604052505050565b600061234a61211f565b9050612356828261230f565b919050565b600067ffffffffffffffff821115612376576123756122e0565b5b61237f82612234565b9050602081019050919050565b82818337600083830152505050565b60006123ae6123a98461235b565b612340565b9050828152602081018484840111156123ca576123c96122db565b5b6123d584828561238c565b509392505050565b600082601f8301126123f2576123f16122d6565b5b813561240284826020860161239b565b91505092915050565b6000806040838503121561242257612421612129565b5b6000612430858286016122c1565b925050602083013567ffffffffffffffff8111156124515761245061212e565b5b61245d858286016123dd565b9150509250929050565b60006020828403121561247d5761247c612129565b5b600061248b848285016122c1565b91505092915050565b61249d816122a0565b82525050565b60006020820190506124b86000830184612494565b92915050565b600073ffffffffffffffffffffffffffffffffffffffff82169050919050565b60006124e9826124be565b9050919050565b6124f9816124de565b82525050565b600060208201905061251460008301846124f0565b92915050565b612523816124de565b811461252e57600080fd5b50565b6000813590506125408161251a565b92915050565b6000806040838503121561255d5761255c612129565b5b600061256b85828601612531565b925050602061257c858286016122c1565b9150509250929050565b60008060006060848603121561259f5761259e612129565b5b60006125ad86828701612531565b93505060206125be868287016122c1565b92505060406125cf868287016122c1565b9150509250925092565b6000806000606084860312156125f2576125f1612129565b5b600061260086828701612531565b935050602061261186828701612531565b9250506040612622868287016122c1565b9150509250925092565b60006020828403121561264257612641612129565b5b600061265084828501612531565b91505092915050565b600060608201905061266e6000830186612494565b61267b6020830185612494565b818103604083015261268d8184612245565b9050949350505050565b6126a0816121b8565b81146126ab57600080fd5b50565b6000813590506126bd81612697565b92915050565b600080604083850312156126da576126d9612129565b5b60006126e885828601612531565b92505060206126f9858286016126ae565b9150509250929050565b600067ffffffffffffffff82111561271e5761271d6122e0565b5b61272782612234565b9050602081019050919050565b600061274761274284612703565b612340565b905082815260208101848484011115612763576127626122db565b5b61276e84828561238c565b509392505050565b600082601f83011261278b5761278a6122d6565b5b813561279b848260208601612734565b91505092915050565b600080600080608085870312156127be576127bd612129565b5b60006127cc87828801612531565b94505060206127dd87828801612531565b93505060406127ee878288016122c1565b925050606085013567ffffffffffffffff81111561280f5761280e61212e565b5b61281b87828801612776565b91505092959194509250565b6000806040838503121561283e5761283d612129565b5b600061284c85828601612531565b925050602061285d85828601612531565b9150509250929050565b7f4e487b7100000000000000000000000000000000000000000000000000000000600052602260045260246000fd5b600060028204905060018216806128ae57607f821691505b6020821081036128c1576128c0612867565b5b50919050565b7f4e6f7420746865206f776e657200000000000000000000000000000000000000600082015250565b60006128fd600d836121f9565b9150612908826128c7565b602082019050919050565b6000602082019050818103600083015261292c816128f0565b9050919050565b60008190508160005260206000209050919050565b60006020601f8301049050919050565b600082821b905092915050565b6000600883026129957fffffffffffffffffffffffffffffffffffffffffffffffffffffffffffffffff82612958565b61299f8683612958565b95508019841693508086168417925050509392505050565b6000819050919050565b60006129dc6129d76129d2846122a0565b6129b7565b6122a0565b9050919050565b6000819050919050565b6129f6836129c1565b612a0a612a02826129e3565b848454612965565b825550505050565b600090565b612a1f612a12565b612a2a8184846129ed565b505050565b5b81811015612a4e57612a43600082612a17565b600181019050612a30565b5050565b601f821115612a9357612a6481612933565b612a6d84612948565b81016020851015612a7c578190505b612a90612a8885612948565b830182612a2f565b50505b505050565b600082821c905092915050565b6000612ab660001984600802612a98565b1980831691505092915050565b6000612acf8383612aa5565b9150826002028217905092915050565b612ae8826121ee565b67ffffffffffffffff811115612b0157612b006122e0565b5b612b0b8254612896565b612b16828285612a52565b600060209050601f831160018114612b495760008415612b37578287015190505b612b418582612ac3565b865550612ba9565b601f198416612b5786612933565b60005b82811015612b7f57848901518255600182019150602085019450602081019050612b5a565b86831015612b9c5784890151612b98601f891682612aa5565b8355505b6001600288020188555050505b505050505050565b7f4552433732313a20617070726f76616c20746f2063757272656e74206f776e6560008201527f7200000000000000000000000000000000000000000000000000000000000000602082015250565b6000612c0d6021836121f9565b9150612c1882612bb1565b604082019050919050565b60006020820190508181036000830152612c3c81612c00565b9050919050565b7f4552433732313a20617070726f76652063616c6c6572206973206e6f7420746f60008201527f6b656e206f776e6572206f7220617070726f76656420666f7220616c6c000000602082015250565b6000612c9f603d836121f9565b9150612caa82612c43565b604082019050919050565b60006020820190508181036000830152612cce81612c92565b9050919050565b7f4f6e6c79204d656853746f726556312063616e2063616c6c207468697320667560008201527f6e6374696f6e0000000000000000000000000000000000000000000000000000602082015250565b6000612d316026836121f9565b9150612d3c82612cd5565b604082019050919050565b60006020820190508181036000830152612d6081612d24565b9050919050565b7f4e487b7100000000000000000000000000000000000000000000000000000000600052601160045260246000fd5b6000612da1826122a0565b91507fffffffffffffffffffffffffffffffffffffffffffffffffffffffffffffffff8203612dd357612dd2612d67565b5b600182019050919050565b7f4552433732313a2063616c6c6572206973206e6f7420746f6b656e206f776e6560008201527f72206f7220617070726f76656400000000000000000000000000000000000000602082015250565b6000612e3a602d836121f9565b9150612e4582612dde565b604082019050919050565b60006020820190508181036000830152612e6981612e2d565b9050919050565b7f4552433732313a20696e76616c696420746f6b656e2049440000000000000000600082015250565b6000612ea66018836121f9565b9150612eb182612e70565b602082019050919050565b60006020820190508181036000830152612ed581612e99565b9050919050565b7f4552433732313a2061646472657373207a65726f206973206e6f74206120766160008201527f6c6964206f776e65720000000000000000000000000000000000000000000000602082015250565b6000612f386029836121f9565b9150612f4382612edc565b604082019050919050565b60006020820190508181036000830152612f6781612f2b565b9050919050565b600081905092915050565b6000612f84826121ee565b612f8e8185612f6e565b9350612f9e81856020860161220a565b80840191505092915050565b6000612fb68285612f79565b9150612fc28284612f79565b91508190509392505050565b7f4f776e61626c653a206e6577206f776e657220697320746865207a65726f206160008201527f6464726573730000000000000000000000000000000000000000000000000000602082015250565b600061302a6026836121f9565b915061303582612fce565b604082019050919050565b600060208201905081810360008301526130598161301d565b9050919050565b7f4552433732313a206d696e7420746f20746865207a65726f2061646472657373600082015250565b60006130966020836121f9565b91506130a182613060565b602082019050919050565b600060208201905081810360008301526130c581613089565b9050919050565b7f4552433732313a20746f6b656e20616c7265616479206d696e74656400000000600082015250565b6000613102601c836121f9565b915061310d826130cc565b602082019050919050565b60006020820190508181036000830152613131816130f5565b9050919050565b7f4552433732313a207472616e736665722066726f6d20696e636f72726563742060008201527f6f776e6572000000000000000000000000000000000000000000000000000000602082015250565b60006131946025836121f9565b915061319f82613138565b604082019050919050565b600060208201905081810360008301526131c381613187565b9050919050565b7f4552433732313a207472616e7366657220746f20746865207a65726f2061646460008201527f7265737300000000000000000000000000000000000000000000000000000000602082015250565b60006132266024836121f9565b9150613231826131ca565b604082019050919050565b6000602082019050818103600083015261325581613219565b9050919050565b7f4f776e61626c653a2063616c6c6572206973206e6f7420746865206f776e6572600082015250565b60006132926020836121f9565b915061329d8261325c565b602082019050919050565b600060208201905081810360008301526132c181613285565b9050919050565b7f4552433732313a20617070726f766520746f2063616c6c657200000000000000600082015250565b60006132fe6019836121f9565b9150613309826132c8565b602082019050919050565b6000602082019050818103600083015261332d816132f1565b9050919050565b7f4552433732313a207472616e7366657220746f206e6f6e20455243373231526560008201527f63656976657220696d706c656d656e7465720000000000000000000000000000602082015250565b60006133906032836121f9565b915061339b82613334565b604082019050919050565b600060208201905081810360008301526133bf81613383565b9050919050565b7f4e487b7100000000000000000000000000000000000000000000000000000000600052601260045260246000fd5b600081519050919050565b600082825260208201905092915050565b600061341c826133f5565b6134268185613400565b935061343681856020860161220a565b61343f81612234565b840191505092915050565b600060808201905061345f60008301876124f0565b61346c60208301866124f0565b6134796040830185612494565b818103606083015261348b8184613411565b905095945050505050565b6000815190506134a58161215f565b92915050565b6000602082840312156134c1576134c0612129565b5b60006134cf84828501613496565b9150509291505056fea264697066735822122014db78c45899bb7c0290fafcaf77b636b75deae7798aea6fa51c14bcf112be9164736f6c63430008180033",
  "linkReferences": {},
  "deployedLinkReferences": {}
}