{
  "_format": "hh-sol-artifact-1",
  "contractName": "MehStoreNFT",
  "sourceName": "contracts/store/MehStoreNFT.sol",
  "abi": [
    {
      "inputs": [],
      "stateMutability": "nonpayable",
      "type": "constructor"
    },
    {
      "anonymous": false,
      "inputs": [
        {
          "indexed": true,
          "internalType": "address",
          "name": "owner",
          "type": "address"
        },
        {
          "indexed": true,
          "internalType": "address",
          "name": "approved",
          "type": "address"
        },
        {
          "indexed": true,
          "internalType": "uint256",
          "name": "tokenId",
          "type": "uint256"
        }
      ],
      "name": "Approval",
      "type": "event"
    },
    {
      "anonymous": false,
      "inputs": [
        {
          "indexed": true,
          "internalType": "address",
          "name": "owner",
          "type": "address"
        },
        {
          "indexed": true,
          "internalType": "address",
          "name": "operator",
          "type": "address"
        },
        {
          "indexed": false,
          "internalType": "bool",
          "name": "approved",
          "type": "bool"
        }
      ],
      "name": "ApprovalForAll",
      "type": "event"
    },
    {
      "anonymous": false,
      "inputs": [
        {
          "indexed": true,
          "internalType": "address",
          "name": "previousOwner",
          "type": "address"
        },
        {
          "indexed": true,
          "internalType": "address",
          "name": "newOwner",
          "type": "address"
        }
      ],
      "name": "OwnershipTransferred",
      "type": "event"
    },
    {
      "anonymous": false,
      "inputs": [
        {
          "indexed": true,
          "internalType": "address",
          "name": "from",
          "type": "address"
        },
        {
          "indexed": true,
          "internalType": "address",
          "name": "to",
          "type": "address"
        },
        {
          "indexed": true,
          "internalType": "uint256",
          "name": "tokenId",
          "type": "uint256"
        }
      ],
      "name": "Transfer",
      "type": "event"
    },
    {
      "inputs": [
        {
          "internalType": "address",
          "name": "to",
          "type": "address"
        },
        {
          "internalType": "uint256",
          "name": "tokenId",
          "type": "uint256"
        }
      ],
      "name": "approve",
      "outputs": [],
      "stateMutability": "nonpayable",
      "type": "function"
    },
    {
      "inputs": [
        {
          "internalType": "address",
          "name": "owner",
          "type": "address"
        }
      ],
      "name": "balanceOf",
      "outputs": [
        {
          "internalType": "uint256",
          "name": "",
          "type": "uint256"
        }
      ],
      "stateMutability": "view",
      "type": "function"
    },
    {
      "inputs": [
        {
          "internalType": "uint256",
          "name": "tokenId",
          "type": "uint256"
        }
      ],
      "name": "burn",
      "outputs": [],
      "stateMutability": "nonpayable",
      "type": "function"
    },
    {
      "inputs": [
        {
          "internalType": "uint256",
          "name": "tokenId",
          "type": "uint256"
        },
        {
          "internalType": "string",
          "name": "deliveryAddress",
          "type": "string"
        }
      ],
      "name": "enterDeliveryAddress",
      "outputs": [],
      "stateMutability": "nonpayable",
      "type": "function"
    },
    {
      "inputs": [
        {
          "internalType": "uint256",
          "name": "tokenId",
          "type": "uint256"
        }
      ],
      "name": "getApproved",
      "outputs": [
        {
          "internalType": "address",
          "name": "",
          "type": "address"
        }
      ],
      "stateMutability": "view",
      "type": "function"
    },
    {
      "inputs": [
        {
          "internalType": "uint256",
          "name": "tokenId",
          "type": "uint256"
        }
      ],
      "name": "getNFTDetails",
      "outputs": [
        {
          "components": [
            {
              "internalType": "uint256",
              "name": "productId",
              "type": "uint256"
            },
            {
              "internalType": "uint256",
              "name": "price",
              "type": "uint256"
            },
            {
              "internalType": "string",
              "name": "deliveryAddress",
              "type": "string"
            }
          ],
          "internalType": "struct MehStoreNFT.NFTDetails",
          "name": "",
          "type": "tuple"
        }
      ],
      "stateMutability": "view",
      "type": "function"
    },
    {
      "inputs": [
        {
          "internalType": "uint256",
          "name": "tokenId",
          "type": "uint256"
        }
      ],
      "name": "getPrice",
      "outputs": [
        {
          "internalType": "uint256",
          "name": "",
          "type": "uint256"
        }
      ],
      "stateMutability": "view",
      "type": "function"
    },
    {
      "inputs": [
        {
          "internalType": "uint256",
          "name": "productId",
          "type": "uint256"
        }
      ],
      "name": "getTokenIdByProductId",
      "outputs": [
        {
          "internalType": "uint256",
          "name": "",
          "type": "uint256"
        }
      ],
      "stateMutability": "view",
      "type": "function"
    },
    {
      "inputs": [
        {
          "internalType": "address",
          "name": "owner",
          "type": "address"
        },
        {
          "internalType": "address",
          "name": "operator",
          "type": "address"
        }
      ],
      "name": "isApprovedForAll",
      "outputs": [
        {
          "internalType": "bool",
          "name": "",
          "type": "bool"
        }
      ],
      "stateMutability": "view",
      "type": "function"
    },
    {
      "inputs": [],
      "name": "mehStoreV1",
      "outputs": [
        {
          "internalType": "address",
          "name": "",
          "type": "address"
        }
      ],
      "stateMutability": "view",
      "type": "function"
    },
    {
      "inputs": [
        {
          "internalType": "address",
          "name": "to",
          "type": "address"
        },
        {
          "internalType": "uint256",
          "name": "productId",
          "type": "uint256"
        },
        {
          "internalType": "uint256",
          "name": "price",
          "type": "uint256"
        }
      ],
      "name": "mint",
      "outputs": [],
      "stateMutability": "nonpayable",
      "type": "function"
    },
    {
      "inputs": [],
      "name": "name",
      "outputs": [
        {
          "internalType": "string",
          "name": "",
          "type": "string"
        }
      ],
      "stateMutability": "view",
      "type": "function"
    },
    {
      "inputs": [],
      "name": "nextTokenId",
      "outputs": [
        {
          "internalType": "uint256",
          "name": "",
          "type": "uint256"
        }
      ],
      "stateMutability": "view",
      "type": "function"
    },
    {
      "inputs": [],
      "name": "owner",
      "outputs": [
        {
          "internalType": "address",
          "name": "",
          "type": "address"
        }
      ],
      "stateMutability": "view",
      "type": "function"
    },
    {
      "inputs": [
        {
          "internalType": "uint256",
          "name": "tokenId",
          "type": "uint256"
        }
      ],
      "name": "ownerOf",
      "outputs": [
        {
          "internalType": "address",
          "name": "",
          "type": "address"
        }
      ],
      "stateMutability": "view",
      "type": "function"
    },
    {
      "inputs": [
        {
          "internalType": "uint256",
          "name": "",
          "type": "uint256"
        }
      ],
      "name": "productToToken",
      "outputs": [
        {
          "internalType": "uint256",
          "name": "",
          "type": "uint256"
        }
      ],
      "stateMutability": "view",
      "type": "function"
    },
    {
      "inputs": [],
      "name": "renounceOwnership",
      "outputs": [],
      "stateMutability": "nonpayable",
      "type": "function"
    },
    {
      "inputs": [
        {
          "internalType": "address",
          "name": "from",
          "type": "address"
        },
        {
          "internalType": "address",
          "name": "to",
          "type": "address"
        },
        {
          "internalType": "uint256",
          "name": "tokenId",
          "type": "uint256"
        }
      ],
      "name": "safeTransferFrom",
      "outputs": [],
      "stateMutability": "nonpayable",
      "type": "function"
    },
    {
      "inputs": [
        {
          "internalType": "address",
          "name": "from",
          "type": "address"
        },
        {
          "internalType": "address",
          "name": "to",
          "type": "address"
        },
        {
          "internalType": "uint256",
          "name": "tokenId",
          "type": "uint256"
        },
        {
          "internalType": "bytes",
          "name": "data",
          "type": "bytes"
        }
      ],
      "name": "safeTransferFrom",
      "outputs": [],
      "stateMutability": "nonpayable",
      "type": "function"
    },
    {
      "inputs": [
        {
          "internalType": "address",
          "name": "operator",
          "type": "address"
        },
        {
          "internalType": "bool",
          "name": "approved",
          "type": "bool"
        }
      ],
      "name": "setApprovalForAll",
      "outputs": [],
      "stateMutability": "nonpayable",
      "type": "function"
    },
    {
      "inputs": [
        {
          "internalType": "address",
          "name": "_mehStoreV1",
          "type": "address"
        }
      ],
      "name": "setMehStoreV1",
      "outputs": [],
      "stateMutability": "nonpayable",
      "type": "function"
    },
    {
      "inputs": [
        {
          "internalType": "bytes4",
          "name": "interfaceId",
          "type": "bytes4"
        }
      ],
      "name": "supportsInterface",
      "outputs": [
        {
          "internalType": "bool",
          "name": "",
          "type": "bool"
        }
      ],
      "stateMutability": "view",
      "type": "function"
    },
    {
      "inputs": [],
      "name": "symbol",
      "outputs": [
        {
          "internalType": "string",
          "name": "",
          "type": "string"
        }
      ],
      "stateMutability": "view",
      "type": "function"
    },
    {
      "inputs": [
        {
          "internalType": "uint256",
          "name": "tokenId",
          "type": "uint256"
        }
      ],
      "name": "tokenURI",
      "outputs": [
        {
          "internalType": "string",
          "name": "",
          "type": "string"
        }
      ],
      "stateMutability": "view",
      "type": "function"
    },
    {
      "inputs": [
        {
          "internalType": "address",
          "name": "from",
          "type": "address"
        },
        {
          "internalType": "address",
          "name": "to",
          "type": "address"
        },
        {
          "internalType": "uint256",
          "name": "tokenId",
          "type": "uint256"
        }
      ],
      "name": "transferFrom",
      "outputs": [],
      "stateMutability": "nonpayable",
      "type": "function"
    },
    {
      "inputs": [
        {
          "internalType": "address",
          "name": "newOwner",
          "type": "address"
        }
      ],
      "name": "transferOwnership",
      "outputs": [],
      "stateMutability": "nonpayable",
      "type": "function"
    }
  ],
  "bytecode": "0x60806040523480156200001157600080fd5b506040518060400160405280600b81526020017f4d656853746f72654e46540000000000000000000000000000000000000000008152506040518060400160405280600281526020017f4d5300000000000000000000000000000000000000000000000000000000000081525081600090816200008f919062000412565b508060019081620000a1919062000412565b505050620000c4620000b8620000ca60201b60201c565b620000d260201b60201c565b620004f9565b600033905090565b6000600660009054906101000a900473ffffffffffffffffffffffffffffffffffffffff16905081600660006101000a81548173ffffffffffffffffffffffffffffffffffffffff021916908373ffffffffffffffffffffffffffffffffffffffff1602179055508173ffffffffffffffffffffffffffffffffffffffff168173ffffffffffffffffffffffffffffffffffffffff167f8be0079c531659141344cd1fd0a4f28419497f9722a3daafe3b4186f6b6457e060405160405180910390a35050565b600081519050919050565b7f4e487b7100000000000000000000000000000000000000000000000000000000600052604160045260246000fd5b7f4e487b7100000000000000000000000000000000000000000000000000000000600052602260045260246000fd5b600060028204905060018216806200021a57607f821691505b60208210810362000230576200022f620001d2565b5b50919050565b60008190508160005260206000209050919050565b60006020601f8301049050919050565b600082821b905092915050565b6000600883026200029a7fffffffffffffffffffffffffffffffffffffffffffffffffffffffffffffffff826200025b565b620002a686836200025b565b95508019841693508086168417925050509392505050565b6000819050919050565b6000819050919050565b6000620002f3620002ed620002e784620002be565b620002c8565b620002be565b9050919050565b6000819050919050565b6200030f83620002d2565b620003276200031e82620002fa565b84845462000268565b825550505050565b600090565b6200033e6200032f565b6200034b81848462000304565b505050565b5b8181101562000373576200036760008262000334565b60018101905062000351565b5050565b601f821115620003c2576200038c8162000236565b62000397846200024b565b81016020851015620003a7578190505b620003bf620003b6856200024b565b83018262000350565b50505b505050565b600082821c905092915050565b6000620003e760001984600802620003c7565b1980831691505092915050565b6000620004028383620003d4565b9150826002028217905092915050565b6200041d8262000198565b67ffffffffffffffff811115620004395762000438620001a3565b5b62000445825462000201565b6200045282828562000377565b600060209050601f8311600181146200048a576000841562000475578287015190505b620004818582620003f4565b865550620004f1565b601f1984166200049a8662000236565b60005b82811015620004c4578489015182556001820191506020850194506020810190506200049d565b86831015620004e45784890151620004e0601f891682620003d4565b8355505b6001600288020188555050505b505050505050565b6135f580620005096000396000f3fe608060405234801561001057600080fd5b506004361061018e5760003560e01c806370a08231116100de578063a22cb46511610097578063c87b56dd11610071578063c87b56dd1461047f578063e7572230146104af578063e985e9c5146104df578063f2fde38b1461050f5761018e565b8063a22cb4651461042b578063b88d4fde14610447578063be46fffe146104635761018e565b806370a0823114610367578063715018a61461039757806375794a3c146103a157806382260f35146103bf5780638da5cb5b146103ef57806395d89b411461040d5761018e565b8063095ea7b31161014b57806342842e0e1161012557806342842e0e146102cf57806342966c68146102eb57806343d53078146103075780636352211e146103375761018e565b8063095ea7b31461027b578063156e29f61461029757806323b872dd146102b35761018e565b806301ffc9a71461019357806306fdde03146101c357806307bd6467146101e15780630812a3cb146101fd578063081812fc1461022d578063084e8c471461025d575b600080fd5b6101ad60048036038101906101a891906121e5565b61052b565b6040516101ba919061222d565b60405180910390f35b6101cb61060d565b6040516101d891906122d8565b60405180910390f35b6101fb60048036038101906101f69190612465565b61069f565b005b610217600480360381019061021291906124c1565b61074f565b60405161022491906124fd565b60405180910390f35b610247600480360381019061024291906124c1565b61076c565b6040516102549190612559565b60405180910390f35b6102656107b2565b6040516102729190612559565b60405180910390f35b610295600480360381019061029091906125a0565b6107d8565b005b6102b160048036038101906102ac91906125e0565b6108ef565b005b6102cd60048036038101906102c89190612633565b610a2c565b005b6102e960048036038101906102e49190612633565b610a8c565b005b610305600480360381019061030091906124c1565b610aac565b005b610321600480360381019061031c91906124c1565b610bab565b60405161032e91906124fd565b60405180910390f35b610351600480360381019061034c91906124c1565b610bc3565b60405161035e9190612559565b60405180910390f35b610381600480360381019061037c9190612686565b610c49565b60405161038e91906124fd565b60405180910390f35b61039f610d00565b005b6103a9610d14565b6040516103b691906124fd565b60405180910390f35b6103d960048036038101906103d491906124c1565b610d1a565b6040516103e6919061275c565b60405180910390f35b6103f7610df5565b6040516104049190612559565b60405180910390f35b610415610e1f565b60405161042291906122d8565b60405180910390f35b610445600480360381019061044091906127aa565b610eb1565b005b610461600480360381019061045c919061288b565b610ec7565b005b61047d60048036038101906104789190612686565b610f29565b005b610499600480360381019061049491906124c1565b610f75565b6040516104a691906122d8565b60405180910390f35b6104c960048036038101906104c491906124c1565b610fdd565b6040516104d691906124fd565b60405180910390f35b6104f960048036038101906104f4919061290e565b610ffd565b604051610506919061222d565b60405180910390f35b61052960048036038101906105249190612686565b611091565b005b60007f80ac58cd000000000000000000000000000000000000000000000000000000007bffffffffffffffffffffffffffffffffffffffffffffffffffffffff1916827bffffffffffffffffffffffffffffffffffffffffffffffffffffffff191614806105f657507f5b5e139f000000000000000000000000000000000000000000000000000000007bffffffffffffffffffffffffffffffffffffffffffffffffffffffff1916827bffffffffffffffffffffffffffffffffffffffffffffffffffffffff1916145b80610606575061060582611114565b5b9050919050565b60606000805461061c9061297d565b80601f01602080910402602001604051908101604052809291908181526020018280546106489061297d565b80156106955780601f1061066a57610100808354040283529160200191610695565b820191906000526020600020905b81548152906001019060200180831161067857829003601f168201915b5050505050905090565b3373ffffffffffffffffffffffffffffffffffffffff166106bf83610bc3565b73ffffffffffffffffffffffffffffffffffffffff1614610715576040517f08c379a000000000000000000000000000000000000000000000000000000000815260040161070c906129fa565b60405180910390fd5b806007600084815260200190815260200160002060020190816107389190612bc6565b5061074b33610745610df5565b8461117e565b5050565b600060086000838152602001908152602001600020549050919050565b600061077782611477565b6004600083815260200190815260200160002060009054906101000a900473ffffffffffffffffffffffffffffffffffffffff169050919050565b600a60009054906101000a900473ffffffffffffffffffffffffffffffffffffffff1681565b60006107e382610bc3565b90508073ffffffffffffffffffffffffffffffffffffffff168373ffffffffffffffffffffffffffffffffffffffff1603610853576040517f08c379a000000000000000000000000000000000000000000000000000000000815260040161084a90612d0a565b60405180910390fd5b8073ffffffffffffffffffffffffffffffffffffffff166108726114c2565b73ffffffffffffffffffffffffffffffffffffffff1614806108a157506108a08161089b6114c2565b610ffd565b5b6108e0576040517f08c379a00000000000000000000000000000000000000000000000000000000081526004016108d790612d9c565b60405180910390fd5b6108ea83836114ca565b505050565b600a60009054906101000a900473ffffffffffffffffffffffffffffffffffffffff1673ffffffffffffffffffffffffffffffffffffffff163373ffffffffffffffffffffffffffffffffffffffff161461097f576040517f08c379a000000000000000000000000000000000000000000000000000000000815260040161097690612e2e565b60405180910390fd5b60006009600081548092919061099490612e7d565b9190505590506109a48482611583565b6040518060600160405280848152602001838152602001604051806020016040528060008152508152506007600083815260200190815260200160002060008201518160000155602082015181600101556040820151816002019081610a0a9190612bc6565b5090505080600860008581526020019081526020016000208190555050505050565b610a3d610a376114c2565b826117a0565b610a7c576040517f08c379a0000000000000000000000000000000000000000000000000000000008152600401610a7390612f37565b60405180910390fd5b610a8783838361117e565b505050565b610aa783838360405180602001604052806000815250610ec7565b505050565b600a60009054906101000a900473ffffffffffffffffffffffffffffffffffffffff1673ffffffffffffffffffffffffffffffffffffffff163373ffffffffffffffffffffffffffffffffffffffff1614610b3c576040517f08c379a0000000000000000000000000000000000000000000000000000000008152600401610b3390612e2e565b60405180910390fd5b600860006007600084815260200190815260200160002060000154815260200190815260200160002060009055610b7281611835565b600760008281526020019081526020016000206000808201600090556001820160009055600282016000610ba691906120fb565b505050565b60086020528060005260406000206000915090505481565b600080610bcf83611983565b9050600073ffffffffffffffffffffffffffffffffffffffff168173ffffffffffffffffffffffffffffffffffffffff1603610c40576040517f08c379a0000000000000000000000000000000000000000000000000000000008152600401610c3790612fa3565b60405180910390fd5b80915050919050565b60008073ffffffffffffffffffffffffffffffffffffffff168273ffffffffffffffffffffffffffffffffffffffff1603610cb9576040517f08c379a0000000000000000000000000000000000000000000000000000000008152600401610cb090613035565b60405180910390fd5b600360008373ffffffffffffffffffffffffffffffffffffffff1673ffffffffffffffffffffffffffffffffffffffff168152602001908152602001600020549050919050565b610d086119c0565b610d126000611a3e565b565b60095481565b610d2261213b565b610d2a6119c0565b600760008381526020019081526020016000206040518060600160405290816000820154815260200160018201548152602001600282018054610d6c9061297d565b80601f0160208091040260200160405190810160405280929190818152602001828054610d989061297d565b8015610de55780601f10610dba57610100808354040283529160200191610de5565b820191906000526020600020905b815481529060010190602001808311610dc857829003601f168201915b5050505050815250509050919050565b6000600660009054906101000a900473ffffffffffffffffffffffffffffffffffffffff16905090565b606060018054610e2e9061297d565b80601f0160208091040260200160405190810160405280929190818152602001828054610e5a9061297d565b8015610ea75780601f10610e7c57610100808354040283529160200191610ea7565b820191906000526020600020905b815481529060010190602001808311610e8a57829003601f168201915b5050505050905090565b610ec3610ebc6114c2565b8383611b04565b5050565b610ed8610ed26114c2565b836117a0565b610f17576040517f08c379a0000000000000000000000000000000000000000000000000000000008152600401610f0e90612f37565b60405180910390fd5b610f2384848484611c70565b50505050565b610f316119c0565b80600a60006101000a81548173ffffffffffffffffffffffffffffffffffffffff021916908373ffffffffffffffffffffffffffffffffffffffff16021790555050565b6060610f8082611477565b6000610f8a611ccc565b90506000815111610faa5760405180602001604052806000815250610fd5565b80610fb484611ce3565b604051602001610fc5929190613091565b6040516020818303038152906040525b915050919050565b600060076000838152602001908152602001600020600101549050919050565b6000600560008473ffffffffffffffffffffffffffffffffffffffff1673ffffffffffffffffffffffffffffffffffffffff16815260200190815260200160002060008373ffffffffffffffffffffffffffffffffffffffff1673ffffffffffffffffffffffffffffffffffffffff16815260200190815260200160002060009054906101000a900460ff16905092915050565b6110996119c0565b600073ffffffffffffffffffffffffffffffffffffffff168173ffffffffffffffffffffffffffffffffffffffff1603611108576040517f08c379a00000000000000000000000000000000000000000000000000000000081526004016110ff90613127565b60405180910390fd5b61111181611a3e565b50565b60007f01ffc9a7000000000000000000000000000000000000000000000000000000007bffffffffffffffffffffffffffffffffffffffffffffffffffffffff1916827bffffffffffffffffffffffffffffffffffffffffffffffffffffffff1916149050919050565b8273ffffffffffffffffffffffffffffffffffffffff1661119e82610bc3565b73ffffffffffffffffffffffffffffffffffffffff16146111f4576040517f08c379a00000000000000000000000000000000000000000000000000000000081526004016111eb906131b9565b60405180910390fd5b600073ffffffffffffffffffffffffffffffffffffffff168273ffffffffffffffffffffffffffffffffffffffff1603611263576040517f08c379a000000000000000000000000000000000000000000000000000000000815260040161125a9061324b565b60405180910390fd5b6112708383836001611db1565b8273ffffffffffffffffffffffffffffffffffffffff1661129082610bc3565b73ffffffffffffffffffffffffffffffffffffffff16146112e6576040517f08c379a00000000000000000000000000000000000000000000000000000000081526004016112dd906131b9565b60405180910390fd5b6004600082815260200190815260200160002060006101000a81549073ffffffffffffffffffffffffffffffffffffffff02191690556001600360008573ffffffffffffffffffffffffffffffffffffffff1673ffffffffffffffffffffffffffffffffffffffff168152602001908152602001600020600082825403925050819055506001600360008473ffffffffffffffffffffffffffffffffffffffff1673ffffffffffffffffffffffffffffffffffffffff16815260200190815260200160002060008282540192505081905550816002600083815260200190815260200160002060006101000a81548173ffffffffffffffffffffffffffffffffffffffff021916908373ffffffffffffffffffffffffffffffffffffffff160217905550808273ffffffffffffffffffffffffffffffffffffffff168473ffffffffffffffffffffffffffffffffffffffff167fddf252ad1be2c89b69c2b068fc378daa952ba7f163c4a11628f55a4df523b3ef60405160405180910390a46114728383836001611db7565b505050565b61148081611dbd565b6114bf576040517f08c379a00000000000000000000000000000000000000000000000000000000081526004016114b690612fa3565b60405180910390fd5b50565b600033905090565b816004600083815260200190815260200160002060006101000a81548173ffffffffffffffffffffffffffffffffffffffff021916908373ffffffffffffffffffffffffffffffffffffffff160217905550808273ffffffffffffffffffffffffffffffffffffffff1661153d83610bc3565b73ffffffffffffffffffffffffffffffffffffffff167f8c5be1e5ebec7d5bd14f71427d1e84f3dd0314c0f7b2291e5b200ac8c7c3b92560405160405180910390a45050565b600073ffffffffffffffffffffffffffffffffffffffff168273ffffffffffffffffffffffffffffffffffffffff16036115f2576040517f08c379a00000000000000000000000000000000000000000000000000000000081526004016115e9906132b7565b60405180910390fd5b6115fb81611dbd565b1561163b576040517f08c379a000000000000000000000000000000000000000000000000000000000815260040161163290613323565b60405180910390fd5b611649600083836001611db1565b61165281611dbd565b15611692576040517f08c379a000000000000000000000000000000000000000000000000000000000815260040161168990613323565b60405180910390fd5b6001600360008473ffffffffffffffffffffffffffffffffffffffff1673ffffffffffffffffffffffffffffffffffffffff16815260200190815260200160002060008282540192505081905550816002600083815260200190815260200160002060006101000a81548173ffffffffffffffffffffffffffffffffffffffff021916908373ffffffffffffffffffffffffffffffffffffffff160217905550808273ffffffffffffffffffffffffffffffffffffffff16600073ffffffffffffffffffffffffffffffffffffffff167fddf252ad1be2c89b69c2b068fc378daa952ba7f163c4a11628f55a4df523b3ef60405160405180910390a461179c600083836001611db7565b5050565b6000806117ac83610bc3565b90508073ffffffffffffffffffffffffffffffffffffffff168473ffffffffffffffffffffffffffffffffffffffff1614806117ee57506117ed8185610ffd565b5b8061182c57508373ffffffffffffffffffffffffffffffffffffffff166118148461076c565b73ffffffffffffffffffffffffffffffffffffffff16145b91505092915050565b600061184082610bc3565b9050611850816000846001611db1565b61185982610bc3565b90506004600083815260200190815260200160002060006101000a81549073ffffffffffffffffffffffffffffffffffffffff02191690556001600360008373ffffffffffffffffffffffffffffffffffffffff1673ffffffffffffffffffffffffffffffffffffffff168152602001908152602001600020600082825403925050819055506002600083815260200190815260200160002060006101000a81549073ffffffffffffffffffffffffffffffffffffffff021916905581600073ffffffffffffffffffffffffffffffffffffffff168273ffffffffffffffffffffffffffffffffffffffff167fddf252ad1be2c89b69c2b068fc378daa952ba7f163c4a11628f55a4df523b3ef60405160405180910390a461197f816000846001611db7565b5050565b60006002600083815260200190815260200160002060009054906101000a900473ffffffffffffffffffffffffffffffffffffffff169050919050565b6119c86114c2565b73ffffffffffffffffffffffffffffffffffffffff166119e6610df5565b73ffffffffffffffffffffffffffffffffffffffff1614611a3c576040517f08c379a0000000000000000000000000000000000000000000000000000000008152600401611a339061338f565b60405180910390fd5b565b6000600660009054906101000a900473ffffffffffffffffffffffffffffffffffffffff16905081600660006101000a81548173ffffffffffffffffffffffffffffffffffffffff021916908373ffffffffffffffffffffffffffffffffffffffff1602179055508173ffffffffffffffffffffffffffffffffffffffff168173ffffffffffffffffffffffffffffffffffffffff167f8be0079c531659141344cd1fd0a4f28419497f9722a3daafe3b4186f6b6457e060405160405180910390a35050565b8173ffffffffffffffffffffffffffffffffffffffff168373ffffffffffffffffffffffffffffffffffffffff1603611b72576040517f08c379a0000000000000000000000000000000000000000000000000000000008152600401611b69906133fb565b60405180910390fd5b80600560008573ffffffffffffffffffffffffffffffffffffffff1673ffffffffffffffffffffffffffffffffffffffff16815260200190815260200160002060008473ffffffffffffffffffffffffffffffffffffffff1673ffffffffffffffffffffffffffffffffffffffff16815260200190815260200160002060006101000a81548160ff0219169083151502179055508173ffffffffffffffffffffffffffffffffffffffff168373ffffffffffffffffffffffffffffffffffffffff167f17307eab39ab6107e8899845ad3d59bd9653f200f220920489ca2b5937696c3183604051611c63919061222d565b60405180910390a3505050565b611c7b84848461117e565b611c8784848484611dfe565b611cc6576040517f08c379a0000000000000000000000000000000000000000000000000000000008152600401611cbd9061348d565b60405180910390fd5b50505050565b606060405180602001604052806000815250905090565b606060006001611cf284611f85565b01905060008167ffffffffffffffff811115611d1157611d1061233a565b5b6040519080825280601f01601f191660200182016040528015611d435781602001600182028036833780820191505090505b509050600082602001820190505b600115611da6578080600190039150507f3031323334353637383961626364656600000000000000000000000000000000600a86061a8153600a8581611d9a57611d996134ad565b5b04945060008503611d51575b819350505050919050565b50505050565b50505050565b60008073ffffffffffffffffffffffffffffffffffffffff16611ddf83611983565b73ffffffffffffffffffffffffffffffffffffffff1614159050919050565b6000611e1f8473ffffffffffffffffffffffffffffffffffffffff166120d8565b15611f78578373ffffffffffffffffffffffffffffffffffffffff1663150b7a02611e486114c2565b8786866040518563ffffffff1660e01b8152600401611e6a9493929190613531565b6020604051808303816000875af1925050508015611ea657506040513d601f19601f82011682018060405250810190611ea39190613592565b60015b611f28573d8060008114611ed6576040519150601f19603f3d011682016040523d82523d6000602084013e611edb565b606091505b506000815103611f20576040517f08c379a0000000000000000000000000000000000000000000000000000000008152600401611f179061348d565b60405180910390fd5b805181602001fd5b63150b7a0260e01b7bffffffffffffffffffffffffffffffffffffffffffffffffffffffff1916817bffffffffffffffffffffffffffffffffffffffffffffffffffffffff191614915050611f7d565b600190505b949350505050565b600080600090507a184f03e93ff9f4daa797ed6e38ed64bf6a1f0100000000000000008310611fe3577a184f03e93ff9f4daa797ed6e38ed64bf6a1f0100000000000000008381611fd957611fd86134ad565b5b0492506040810190505b6d04ee2d6d415b85acef81000000008310612020576d04ee2d6d415b85acef81000000008381612016576120156134ad565b5b0492506020810190505b662386f26fc10000831061204f57662386f26fc100008381612045576120446134ad565b5b0492506010810190505b6305f5e1008310612078576305f5e100838161206e5761206d6134ad565b5b0492506008810190505b612710831061209d576127108381612093576120926134ad565b5b0492506004810190505b606483106120c057606483816120b6576120b56134ad565b5b0492506002810190505b600a83106120cf576001810190505b80915050919050565b6000808273ffffffffffffffffffffffffffffffffffffffff163b119050919050565b5080546121079061297d565b6000825580601f106121195750612138565b601f016020900490600052602060002090810190612137919061215c565b5b50565b60405180606001604052806000815260200160008152602001606081525090565b5b8082111561217557600081600090555060010161215d565b5090565b6000604051905090565b600080fd5b600080fd5b60007fffffffff0000000000000000000000000000000000000000000000000000000082169050919050565b6121c28161218d565b81146121cd57600080fd5b50565b6000813590506121df816121b9565b92915050565b6000602082840312156121fb576121fa612183565b5b6000612209848285016121d0565b91505092915050565b60008115159050919050565b61222781612212565b82525050565b6000602082019050612242600083018461221e565b92915050565b600081519050919050565b600082825260208201905092915050565b60005b83811015612282578082015181840152602081019050612267565b60008484015250505050565b6000601f19601f8301169050919050565b60006122aa82612248565b6122b48185612253565b93506122c4818560208601612264565b6122cd8161228e565b840191505092915050565b600060208201905081810360008301526122f2818461229f565b905092915050565b6000819050919050565b61230d816122fa565b811461231857600080fd5b50565b60008135905061232a81612304565b92915050565b600080fd5b600080fd5b7f4e487b7100000000000000000000000000000000000000000000000000000000600052604160045260246000fd5b6123728261228e565b810181811067ffffffffffffffff821117156123915761239061233a565b5b80604052505050565b60006123a4612179565b90506123b08282612369565b919050565b600067ffffffffffffffff8211156123d0576123cf61233a565b5b6123d98261228e565b9050602081019050919050565b82818337600083830152505050565b6000612408612403846123b5565b61239a565b90508281526020810184848401111561242457612423612335565b5b61242f8482856123e6565b509392505050565b600082601f83011261244c5761244b612330565b5b813561245c8482602086016123f5565b91505092915050565b6000806040838503121561247c5761247b612183565b5b600061248a8582860161231b565b925050602083013567ffffffffffffffff8111156124ab576124aa612188565b5b6124b785828601612437565b9150509250929050565b6000602082840312156124d7576124d6612183565b5b60006124e58482850161231b565b91505092915050565b6124f7816122fa565b82525050565b600060208201905061251260008301846124ee565b92915050565b600073ffffffffffffffffffffffffffffffffffffffff82169050919050565b600061254382612518565b9050919050565b61255381612538565b82525050565b600060208201905061256e600083018461254a565b92915050565b61257d81612538565b811461258857600080fd5b50565b60008135905061259a81612574565b92915050565b600080604083850312156125b7576125b6612183565b5b60006125c58582860161258b565b92505060206125d68582860161231b565b9150509250929050565b6000806000606084860312156125f9576125f8612183565b5b60006126078682870161258b565b93505060206126188682870161231b565b92505060406126298682870161231b565b9150509250925092565b60008060006060848603121561264c5761264b612183565b5b600061265a8682870161258b565b935050602061266b8682870161258b565b925050604061267c8682870161231b565b9150509250925092565b60006020828403121561269c5761269b612183565b5b60006126aa8482850161258b565b91505092915050565b6126bc816122fa565b82525050565b600082825260208201905092915050565b60006126de82612248565b6126e881856126c2565b93506126f8818560208601612264565b6127018161228e565b840191505092915050565b600060608301600083015161272460008601826126b3565b50602083015161273760208601826126b3565b506040830151848203604086015261274f82826126d3565b9150508091505092915050565b60006020820190508181036000830152612776818461270c565b905092915050565b61278781612212565b811461279257600080fd5b50565b6000813590506127a48161277e565b92915050565b600080604083850312156127c1576127c0612183565b5b60006127cf8582860161258b565b92505060206127e085828601612795565b9150509250929050565b600067ffffffffffffffff8211156128055761280461233a565b5b61280e8261228e565b9050602081019050919050565b600061282e612829846127ea565b61239a565b90508281526020810184848401111561284a57612849612335565b5b6128558482856123e6565b509392505050565b600082601f83011261287257612871612330565b5b813561288284826020860161281b565b91505092915050565b600080600080608085870312156128a5576128a4612183565b5b60006128b38782880161258b565b94505060206128c48782880161258b565b93505060406128d58782880161231b565b925050606085013567ffffffffffffffff8111156128f6576128f5612188565b5b6129028782880161285d565b91505092959194509250565b6000806040838503121561292557612924612183565b5b60006129338582860161258b565b92505060206129448582860161258b565b9150509250929050565b7f4e487b7100000000000000000000000000000000000000000000000000000000600052602260045260246000fd5b6000600282049050600182168061299557607f821691505b6020821081036129a8576129a761294e565b5b50919050565b7f4e6f7420746865206f776e657200000000000000000000000000000000000000600082015250565b60006129e4600d83612253565b91506129ef826129ae565b602082019050919050565b60006020820190508181036000830152612a13816129d7565b9050919050565b60008190508160005260206000209050919050565b60006020601f8301049050919050565b600082821b905092915050565b600060088302612a7c7fffffffffffffffffffffffffffffffffffffffffffffffffffffffffffffffff82612a3f565b612a868683612a3f565b95508019841693508086168417925050509392505050565b6000819050919050565b6000612ac3612abe612ab9846122fa565b612a9e565b6122fa565b9050919050565b6000819050919050565b612add83612aa8565b612af1612ae982612aca565b848454612a4c565b825550505050565b600090565b612b06612af9565b612b11818484612ad4565b505050565b5b81811015612b3557612b2a600082612afe565b600181019050612b17565b5050565b601f821115612b7a57612b4b81612a1a565b612b5484612a2f565b81016020851015612b63578190505b612b77612b6f85612a2f565b830182612b16565b50505b505050565b600082821c905092915050565b6000612b9d60001984600802612b7f565b1980831691505092915050565b6000612bb68383612b8c565b9150826002028217905092915050565b612bcf82612248565b67ffffffffffffffff811115612be857612be761233a565b5b612bf2825461297d565b612bfd828285612b39565b600060209050601f831160018114612c305760008415612c1e578287015190505b612c288582612baa565b865550612c90565b601f198416612c3e86612a1a565b60005b82811015612c6657848901518255600182019150602085019450602081019050612c41565b86831015612c835784890151612c7f601f891682612b8c565b8355505b6001600288020188555050505b505050505050565b7f4552433732313a20617070726f76616c20746f2063757272656e74206f776e6560008201527f7200000000000000000000000000000000000000000000000000000000000000602082015250565b6000612cf4602183612253565b9150612cff82612c98565b604082019050919050565b60006020820190508181036000830152612d2381612ce7565b9050919050565b7f4552433732313a20617070726f76652063616c6c6572206973206e6f7420746f60008201527f6b656e206f776e6572206f7220617070726f76656420666f7220616c6c000000602082015250565b6000612d86603d83612253565b9150612d9182612d2a565b604082019050919050565b60006020820190508181036000830152612db581612d79565b9050919050565b7f4f6e6c79204d656853746f726556312063616e2063616c6c207468697320667560008201527f6e6374696f6e0000000000000000000000000000000000000000000000000000602082015250565b6000612e18602683612253565b9150612e2382612dbc565b604082019050919050565b60006020820190508181036000830152612e4781612e0b565b9050919050565b7f4e487b7100000000000000000000000000000000000000000000000000000000600052601160045260246000fd5b6000612e88826122fa565b91507fffffffffffffffffffffffffffffffffffffffffffffffffffffffffffffffff8203612eba57612eb9612e4e565b5b600182019050919050565b7f4552433732313a2063616c6c6572206973206e6f7420746f6b656e206f776e6560008201527f72206f7220617070726f76656400000000000000000000000000000000000000602082015250565b6000612f21602d83612253565b9150612f2c82612ec5565b604082019050919050565b60006020820190508181036000830152612f5081612f14565b9050919050565b7f4552433732313a20696e76616c696420746f6b656e2049440000000000000000600082015250565b6000612f8d601883612253565b9150612f9882612f57565b602082019050919050565b60006020820190508181036000830152612fbc81612f80565b9050919050565b7f4552433732313a2061646472657373207a65726f206973206e6f74206120766160008201527f6c6964206f776e65720000000000000000000000000000000000000000000000602082015250565b600061301f602983612253565b915061302a82612fc3565b604082019050919050565b6000602082019050818103600083015261304e81613012565b9050919050565b600081905092915050565b600061306b82612248565b6130758185613055565b9350613085818560208601612264565b80840191505092915050565b600061309d8285613060565b91506130a98284613060565b91508190509392505050565b7f4f776e61626c653a206e6577206f776e657220697320746865207a65726f206160008201527f6464726573730000000000000000000000000000000000000000000000000000602082015250565b6000613111602683612253565b915061311c826130b5565b604082019050919050565b6000602082019050818103600083015261314081613104565b9050919050565b7f4552433732313a207472616e736665722066726f6d20696e636f72726563742060008201527f6f776e6572000000000000000000000000000000000000000000000000000000602082015250565b60006131a3602583612253565b91506131ae82613147565b604082019050919050565b600060208201905081810360008301526131d281613196565b9050919050565b7f4552433732313a207472616e7366657220746f20746865207a65726f2061646460008201527f7265737300000000000000000000000000000000000000000000000000000000602082015250565b6000613235602483612253565b9150613240826131d9565b604082019050919050565b6000602082019050818103600083015261326481613228565b9050919050565b7f4552433732313a206d696e7420746f20746865207a65726f2061646472657373600082015250565b60006132a1602083612253565b91506132ac8261326b565b602082019050919050565b600060208201905081810360008301526132d081613294565b9050919050565b7f4552433732313a20746f6b656e20616c7265616479206d696e74656400000000600082015250565b600061330d601c83612253565b9150613318826132d7565b602082019050919050565b6000602082019050818103600083015261333c81613300565b9050919050565b7f4f776e61626c653a2063616c6c6572206973206e6f7420746865206f776e6572600082015250565b6000613379602083612253565b915061338482613343565b602082019050919050565b600060208201905081810360008301526133a88161336c565b9050919050565b7f4552433732313a20617070726f766520746f2063616c6c657200000000000000600082015250565b60006133e5601983612253565b91506133f0826133af565b602082019050919050565b60006020820190508181036000830152613414816133d8565b9050919050565b7f4552433732313a207472616e7366657220746f206e6f6e20455243373231526560008201527f63656976657220696d706c656d656e7465720000000000000000000000000000602082015250565b6000613477603283612253565b91506134828261341b565b604082019050919050565b600060208201905081810360008301526134a68161346a565b9050919050565b7f4e487b7100000000000000000000000000000000000000000000000000000000600052601260045260246000fd5b600081519050919050565b600082825260208201905092915050565b6000613503826134dc565b61350d81856134e7565b935061351d818560208601612264565b6135268161228e565b840191505092915050565b6000608082019050613546600083018761254a565b613553602083018661254a565b61356060408301856124ee565b818103606083015261357281846134f8565b905095945050505050565b60008151905061358c816121b9565b92915050565b6000602082840312156135a8576135a7612183565b5b60006135b68482850161357d565b9150509291505056fea26469706673582212202f8f72905bd6632461d7da477b5eebeed8a0ddc2092afc7c0946a729a813ca4c64736f6c63430008180033",
  "linkReferences": {},
  "deployedLinkReferences": {}
}