{
  "_format": "hh-sol-artifact-1",
  "contractName": "MehStoreNFT",
  "sourceName": "contracts/store/MehStoreNFT.sol",
  "abi": [
    {
      "inputs": [],
      "stateMutability": "nonpayable",
      "type": "constructor"
    },
    {
      "anonymous": false,
      "inputs": [
        {
          "indexed": true,
          "internalType": "address",
          "name": "owner",
          "type": "address"
        },
        {
          "indexed": true,
          "internalType": "address",
          "name": "approved",
          "type": "address"
        },
        {
          "indexed": true,
          "internalType": "uint256",
          "name": "tokenId",
          "type": "uint256"
        }
      ],
      "name": "Approval",
      "type": "event"
    },
    {
      "anonymous": false,
      "inputs": [
        {
          "indexed": true,
          "internalType": "address",
          "name": "owner",
          "type": "address"
        },
        {
          "indexed": true,
          "internalType": "address",
          "name": "operator",
          "type": "address"
        },
        {
          "indexed": false,
          "internalType": "bool",
          "name": "approved",
          "type": "bool"
        }
      ],
      "name": "ApprovalForAll",
      "type": "event"
    },
    {
      "anonymous": false,
      "inputs": [
        {
          "indexed": true,
          "internalType": "address",
          "name": "previousOwner",
          "type": "address"
        },
        {
          "indexed": true,
          "internalType": "address",
          "name": "newOwner",
          "type": "address"
        }
      ],
      "name": "OwnershipTransferred",
      "type": "event"
    },
    {
      "anonymous": false,
      "inputs": [
        {
          "indexed": true,
          "internalType": "address",
          "name": "from",
          "type": "address"
        },
        {
          "indexed": true,
          "internalType": "address",
          "name": "to",
          "type": "address"
        },
        {
          "indexed": true,
          "internalType": "uint256",
          "name": "tokenId",
          "type": "uint256"
        }
      ],
      "name": "Transfer",
      "type": "event"
    },
    {
      "inputs": [
        {
          "internalType": "address",
          "name": "to",
          "type": "address"
        },
        {
          "internalType": "uint256",
          "name": "tokenId",
          "type": "uint256"
        }
      ],
      "name": "approve",
      "outputs": [],
      "stateMutability": "nonpayable",
      "type": "function"
    },
    {
      "inputs": [
        {
          "internalType": "address",
          "name": "owner",
          "type": "address"
        }
      ],
      "name": "balanceOf",
      "outputs": [
        {
          "internalType": "uint256",
          "name": "",
          "type": "uint256"
        }
      ],
      "stateMutability": "view",
      "type": "function"
    },
    {
      "inputs": [
        {
          "internalType": "uint256",
          "name": "tokenId",
          "type": "uint256"
        }
      ],
      "name": "burn",
      "outputs": [],
      "stateMutability": "nonpayable",
      "type": "function"
    },
    {
      "inputs": [
        {
          "internalType": "uint256",
          "name": "tokenId",
          "type": "uint256"
        },
        {
          "internalType": "string",
          "name": "deliveryAddress",
          "type": "string"
        }
      ],
      "name": "enterDeliveryAddress",
      "outputs": [],
      "stateMutability": "nonpayable",
      "type": "function"
    },
    {
      "inputs": [
        {
          "internalType": "uint256",
          "name": "tokenId",
          "type": "uint256"
        }
      ],
      "name": "getApproved",
      "outputs": [
        {
          "internalType": "address",
          "name": "",
          "type": "address"
        }
      ],
      "stateMutability": "view",
      "type": "function"
    },
    {
      "inputs": [
        {
          "internalType": "uint256",
          "name": "tokenId",
          "type": "uint256"
        }
      ],
      "name": "getNFTDetails",
      "outputs": [
        {
          "components": [
            {
              "internalType": "uint256",
              "name": "productId",
              "type": "uint256"
            },
            {
              "internalType": "uint256",
              "name": "price",
              "type": "uint256"
            },
            {
              "internalType": "string",
              "name": "deliveryAddress",
              "type": "string"
            }
          ],
          "internalType": "struct MehStoreNFT.NFTDetails",
          "name": "",
          "type": "tuple"
        }
      ],
      "stateMutability": "view",
      "type": "function"
    },
    {
      "inputs": [
        {
          "internalType": "uint256",
          "name": "tokenId",
          "type": "uint256"
        }
      ],
      "name": "getNFTDetailsByTokenId",
      "outputs": [
        {
          "internalType": "uint256",
          "name": "productId",
          "type": "uint256"
        },
        {
          "internalType": "uint256",
          "name": "price",
          "type": "uint256"
        }
      ],
      "stateMutability": "view",
      "type": "function"
    },
    {
      "inputs": [
        {
          "internalType": "uint256",
          "name": "tokenId",
          "type": "uint256"
        }
      ],
      "name": "getPrice",
      "outputs": [
        {
          "internalType": "uint256",
          "name": "",
          "type": "uint256"
        }
      ],
      "stateMutability": "view",
      "type": "function"
    },
    {
      "inputs": [
        {
          "internalType": "uint256",
          "name": "productId",
          "type": "uint256"
        }
      ],
      "name": "getTokenIdByProductId",
      "outputs": [
        {
          "internalType": "uint256",
          "name": "",
          "type": "uint256"
        }
      ],
      "stateMutability": "view",
      "type": "function"
    },
    {
      "inputs": [
        {
          "internalType": "address",
          "name": "owner",
          "type": "address"
        },
        {
          "internalType": "address",
          "name": "operator",
          "type": "address"
        }
      ],
      "name": "isApprovedForAll",
      "outputs": [
        {
          "internalType": "bool",
          "name": "",
          "type": "bool"
        }
      ],
      "stateMutability": "view",
      "type": "function"
    },
    {
      "inputs": [],
      "name": "mehStoreV1",
      "outputs": [
        {
          "internalType": "address",
          "name": "",
          "type": "address"
        }
      ],
      "stateMutability": "view",
      "type": "function"
    },
    {
      "inputs": [
        {
          "internalType": "address",
          "name": "to",
          "type": "address"
        },
        {
          "internalType": "uint256",
          "name": "productId",
          "type": "uint256"
        },
        {
          "internalType": "uint256",
          "name": "price",
          "type": "uint256"
        }
      ],
      "name": "mint",
      "outputs": [],
      "stateMutability": "nonpayable",
      "type": "function"
    },
    {
      "inputs": [],
      "name": "name",
      "outputs": [
        {
          "internalType": "string",
          "name": "",
          "type": "string"
        }
      ],
      "stateMutability": "view",
      "type": "function"
    },
    {
      "inputs": [],
      "name": "nextTokenId",
      "outputs": [
        {
          "internalType": "uint256",
          "name": "",
          "type": "uint256"
        }
      ],
      "stateMutability": "view",
      "type": "function"
    },
    {
      "inputs": [],
      "name": "owner",
      "outputs": [
        {
          "internalType": "address",
          "name": "",
          "type": "address"
        }
      ],
      "stateMutability": "view",
      "type": "function"
    },
    {
      "inputs": [
        {
          "internalType": "uint256",
          "name": "tokenId",
          "type": "uint256"
        }
      ],
      "name": "ownerOf",
      "outputs": [
        {
          "internalType": "address",
          "name": "",
          "type": "address"
        }
      ],
      "stateMutability": "view",
      "type": "function"
    },
    {
      "inputs": [
        {
          "internalType": "uint256",
          "name": "",
          "type": "uint256"
        }
      ],
      "name": "productToToken",
      "outputs": [
        {
          "internalType": "uint256",
          "name": "",
          "type": "uint256"
        }
      ],
      "stateMutability": "view",
      "type": "function"
    },
    {
      "inputs": [],
      "name": "renounceOwnership",
      "outputs": [],
      "stateMutability": "nonpayable",
      "type": "function"
    },
    {
      "inputs": [
        {
          "internalType": "address",
          "name": "from",
          "type": "address"
        },
        {
          "internalType": "address",
          "name": "to",
          "type": "address"
        },
        {
          "internalType": "uint256",
          "name": "tokenId",
          "type": "uint256"
        }
      ],
      "name": "safeTransferFrom",
      "outputs": [],
      "stateMutability": "nonpayable",
      "type": "function"
    },
    {
      "inputs": [
        {
          "internalType": "address",
          "name": "from",
          "type": "address"
        },
        {
          "internalType": "address",
          "name": "to",
          "type": "address"
        },
        {
          "internalType": "uint256",
          "name": "tokenId",
          "type": "uint256"
        },
        {
          "internalType": "bytes",
          "name": "data",
          "type": "bytes"
        }
      ],
      "name": "safeTransferFrom",
      "outputs": [],
      "stateMutability": "nonpayable",
      "type": "function"
    },
    {
      "inputs": [
        {
          "internalType": "address",
          "name": "operator",
          "type": "address"
        },
        {
          "internalType": "bool",
          "name": "approved",
          "type": "bool"
        }
      ],
      "name": "setApprovalForAll",
      "outputs": [],
      "stateMutability": "nonpayable",
      "type": "function"
    },
    {
      "inputs": [
        {
          "internalType": "address",
          "name": "_mehStoreV1",
          "type": "address"
        }
      ],
      "name": "setMehStoreV1",
      "outputs": [],
      "stateMutability": "nonpayable",
      "type": "function"
    },
    {
      "inputs": [
        {
          "internalType": "bytes4",
          "name": "interfaceId",
          "type": "bytes4"
        }
      ],
      "name": "supportsInterface",
      "outputs": [
        {
          "internalType": "bool",
          "name": "",
          "type": "bool"
        }
      ],
      "stateMutability": "view",
      "type": "function"
    },
    {
      "inputs": [],
      "name": "symbol",
      "outputs": [
        {
          "internalType": "string",
          "name": "",
          "type": "string"
        }
      ],
      "stateMutability": "view",
      "type": "function"
    },
    {
      "inputs": [
        {
          "internalType": "uint256",
          "name": "tokenId",
          "type": "uint256"
        }
      ],
      "name": "tokenURI",
      "outputs": [
        {
          "internalType": "string",
          "name": "",
          "type": "string"
        }
      ],
      "stateMutability": "view",
      "type": "function"
    },
    {
      "inputs": [
        {
          "internalType": "address",
          "name": "from",
          "type": "address"
        },
        {
          "internalType": "address",
          "name": "to",
          "type": "address"
        },
        {
          "internalType": "uint256",
          "name": "tokenId",
          "type": "uint256"
        }
      ],
      "name": "transferFrom",
      "outputs": [],
      "stateMutability": "nonpayable",
      "type": "function"
    },
    {
      "inputs": [
        {
          "internalType": "address",
          "name": "newOwner",
          "type": "address"
        }
      ],
      "name": "transferOwnership",
      "outputs": [],
      "stateMutability": "nonpayable",
      "type": "function"
    }
  ],
  "bytecode": "0x60806040523480156200001157600080fd5b506040518060400160405280600b81526020017f4d656853746f72654e46540000000000000000000000000000000000000000008152506040518060400160405280600281526020017f4d5300000000000000000000000000000000000000000000000000000000000081525081600090816200008f919062000412565b508060019081620000a1919062000412565b505050620000c4620000b8620000ca60201b60201c565b620000d260201b60201c565b620004f9565b600033905090565b6000600660009054906101000a900473ffffffffffffffffffffffffffffffffffffffff16905081600660006101000a81548173ffffffffffffffffffffffffffffffffffffffff021916908373ffffffffffffffffffffffffffffffffffffffff1602179055508173ffffffffffffffffffffffffffffffffffffffff168173ffffffffffffffffffffffffffffffffffffffff167f8be0079c531659141344cd1fd0a4f28419497f9722a3daafe3b4186f6b6457e060405160405180910390a35050565b600081519050919050565b7f4e487b7100000000000000000000000000000000000000000000000000000000600052604160045260246000fd5b7f4e487b7100000000000000000000000000000000000000000000000000000000600052602260045260246000fd5b600060028204905060018216806200021a57607f821691505b60208210810362000230576200022f620001d2565b5b50919050565b60008190508160005260206000209050919050565b60006020601f8301049050919050565b600082821b905092915050565b6000600883026200029a7fffffffffffffffffffffffffffffffffffffffffffffffffffffffffffffffff826200025b565b620002a686836200025b565b95508019841693508086168417925050509392505050565b6000819050919050565b6000819050919050565b6000620002f3620002ed620002e784620002be565b620002c8565b620002be565b9050919050565b6000819050919050565b6200030f83620002d2565b620003276200031e82620002fa565b84845462000268565b825550505050565b600090565b6200033e6200032f565b6200034b81848462000304565b505050565b5b8181101562000373576200036760008262000334565b60018101905062000351565b5050565b601f821115620003c2576200038c8162000236565b62000397846200024b565b81016020851015620003a7578190505b620003bf620003b6856200024b565b83018262000350565b50505b505050565b600082821c905092915050565b6000620003e760001984600802620003c7565b1980831691505092915050565b6000620004028383620003d4565b9150826002028217905092915050565b6200041d8262000198565b67ffffffffffffffff811115620004395762000438620001a3565b5b62000445825462000201565b6200045282828562000377565b600060209050601f8311600181146200048a576000841562000475578287015190505b620004818582620003f4565b865550620004f1565b601f1984166200049a8662000236565b60005b82811015620004c4578489015182556001820191506020850194506020810190506200049d565b86831015620004e45784890151620004e0601f891682620003d4565b8355505b6001600288020188555050505b505050505050565b61374980620005096000396000f3fe608060405234801561001057600080fd5b50600436106101a95760003560e01c806370a08231116100f9578063ab82505011610097578063c87b56dd11610071578063c87b56dd146104cb578063e7572230146104fb578063e985e9c51461052b578063f2fde38b1461055b576101a9565b8063ab82505014610462578063b88d4fde14610493578063be46fffe146104af576101a9565b806382260f35116100d357806382260f35146103da5780638da5cb5b1461040a57806395d89b4114610428578063a22cb46514610446576101a9565b806370a0823114610382578063715018a6146103b257806375794a3c146103bc576101a9565b8063095ea7b31161016657806342842e0e1161014057806342842e0e146102ea57806342966c681461030657806343d53078146103225780636352211e14610352576101a9565b8063095ea7b314610296578063156e29f6146102b257806323b872dd146102ce576101a9565b806301ffc9a7146101ae57806306fdde03146101de57806307bd6467146101fc5780630812a3cb14610218578063081812fc14610248578063084e8c4714610278575b600080fd5b6101c860048036038101906101c39190612310565b610577565b6040516101d59190612358565b60405180910390f35b6101e6610659565b6040516101f39190612403565b60405180910390f35b61021660048036038101906102119190612590565b6106eb565b005b610232600480360381019061022d91906125ec565b61079b565b60405161023f9190612628565b60405180910390f35b610262600480360381019061025d91906125ec565b6107b8565b60405161026f9190612684565b60405180910390f35b6102806107fe565b60405161028d9190612684565b60405180910390f35b6102b060048036038101906102ab91906126cb565b610824565b005b6102cc60048036038101906102c7919061270b565b61093b565b005b6102e860048036038101906102e3919061275e565b610a78565b005b61030460048036038101906102ff919061275e565b610ad8565b005b610320600480360381019061031b91906125ec565b610af8565b005b61033c600480360381019061033791906125ec565b610bf7565b6040516103499190612628565b60405180910390f35b61036c600480360381019061036791906125ec565b610c0f565b6040516103799190612684565b60405180910390f35b61039c600480360381019061039791906127b1565b610c95565b6040516103a99190612628565b60405180910390f35b6103ba610d4c565b005b6103c4610d60565b6040516103d19190612628565b60405180910390f35b6103f460048036038101906103ef91906125ec565b610d66565b6040516104019190612887565b60405180910390f35b610412610e41565b60405161041f9190612684565b60405180910390f35b610430610e6b565b60405161043d9190612403565b60405180910390f35b610460600480360381019061045b91906128d5565b610efd565b005b61047c600480360381019061047791906125ec565b610f13565b60405161048a929190612915565b60405180910390f35b6104ad60048036038101906104a891906129df565b610ff2565b005b6104c960048036038101906104c491906127b1565b611054565b005b6104e560048036038101906104e091906125ec565b6110a0565b6040516104f29190612403565b60405180910390f35b610515600480360381019061051091906125ec565b611108565b6040516105229190612628565b60405180910390f35b61054560048036038101906105409190612a62565b611128565b6040516105529190612358565b60405180910390f35b610575600480360381019061057091906127b1565b6111bc565b005b60007f80ac58cd000000000000000000000000000000000000000000000000000000007bffffffffffffffffffffffffffffffffffffffffffffffffffffffff1916827bffffffffffffffffffffffffffffffffffffffffffffffffffffffff1916148061064257507f5b5e139f000000000000000000000000000000000000000000000000000000007bffffffffffffffffffffffffffffffffffffffffffffffffffffffff1916827bffffffffffffffffffffffffffffffffffffffffffffffffffffffff1916145b8061065257506106518261123f565b5b9050919050565b60606000805461066890612ad1565b80601f016020809104026020016040519081016040528092919081815260200182805461069490612ad1565b80156106e15780601f106106b6576101008083540402835291602001916106e1565b820191906000526020600020905b8154815290600101906020018083116106c457829003601f168201915b5050505050905090565b3373ffffffffffffffffffffffffffffffffffffffff1661070b83610c0f565b73ffffffffffffffffffffffffffffffffffffffff1614610761576040517f08c379a000000000000000000000000000000000000000000000000000000000815260040161075890612b4e565b60405180910390fd5b806007600084815260200190815260200160002060020190816107849190612d1a565b5061079733610791610e41565b846112a9565b5050565b600060086000838152602001908152602001600020549050919050565b60006107c3826115a2565b6004600083815260200190815260200160002060009054906101000a900473ffffffffffffffffffffffffffffffffffffffff169050919050565b600a60009054906101000a900473ffffffffffffffffffffffffffffffffffffffff1681565b600061082f82610c0f565b90508073ffffffffffffffffffffffffffffffffffffffff168373ffffffffffffffffffffffffffffffffffffffff160361089f576040517f08c379a000000000000000000000000000000000000000000000000000000000815260040161089690612e5e565b60405180910390fd5b8073ffffffffffffffffffffffffffffffffffffffff166108be6115ed565b73ffffffffffffffffffffffffffffffffffffffff1614806108ed57506108ec816108e76115ed565b611128565b5b61092c576040517f08c379a000000000000000000000000000000000000000000000000000000000815260040161092390612ef0565b60405180910390fd5b61093683836115f5565b505050565b600a60009054906101000a900473ffffffffffffffffffffffffffffffffffffffff1673ffffffffffffffffffffffffffffffffffffffff163373ffffffffffffffffffffffffffffffffffffffff16146109cb576040517f08c379a00000000000000000000000000000000000000000000000000000000081526004016109c290612f82565b60405180910390fd5b6000600960008154809291906109e090612fd1565b9190505590506109f084826116ae565b6040518060600160405280848152602001838152602001604051806020016040528060008152508152506007600083815260200190815260200160002060008201518160000155602082015181600101556040820151816002019081610a569190612d1a565b5090505080600860008581526020019081526020016000208190555050505050565b610a89610a836115ed565b826118cb565b610ac8576040517f08c379a0000000000000000000000000000000000000000000000000000000008152600401610abf9061308b565b60405180910390fd5b610ad38383836112a9565b505050565b610af383838360405180602001604052806000815250610ff2565b505050565b600a60009054906101000a900473ffffffffffffffffffffffffffffffffffffffff1673ffffffffffffffffffffffffffffffffffffffff163373ffffffffffffffffffffffffffffffffffffffff1614610b88576040517f08c379a0000000000000000000000000000000000000000000000000000000008152600401610b7f90612f82565b60405180910390fd5b600860006007600084815260200190815260200160002060000154815260200190815260200160002060009055610bbe81611960565b600760008281526020019081526020016000206000808201600090556001820160009055600282016000610bf29190612226565b505050565b60086020528060005260406000206000915090505481565b600080610c1b83611aae565b9050600073ffffffffffffffffffffffffffffffffffffffff168173ffffffffffffffffffffffffffffffffffffffff1603610c8c576040517f08c379a0000000000000000000000000000000000000000000000000000000008152600401610c83906130f7565b60405180910390fd5b80915050919050565b60008073ffffffffffffffffffffffffffffffffffffffff168273ffffffffffffffffffffffffffffffffffffffff1603610d05576040517f08c379a0000000000000000000000000000000000000000000000000000000008152600401610cfc90613189565b60405180910390fd5b600360008373ffffffffffffffffffffffffffffffffffffffff1673ffffffffffffffffffffffffffffffffffffffff168152602001908152602001600020549050919050565b610d54611aeb565b610d5e6000611b69565b565b60095481565b610d6e612266565b610d76611aeb565b600760008381526020019081526020016000206040518060600160405290816000820154815260200160018201548152602001600282018054610db890612ad1565b80601f0160208091040260200160405190810160405280929190818152602001828054610de490612ad1565b8015610e315780601f10610e0657610100808354040283529160200191610e31565b820191906000526020600020905b815481529060010190602001808311610e1457829003601f168201915b5050505050815250509050919050565b6000600660009054906101000a900473ffffffffffffffffffffffffffffffffffffffff16905090565b606060018054610e7a90612ad1565b80601f0160208091040260200160405190810160405280929190818152602001828054610ea690612ad1565b8015610ef35780601f10610ec857610100808354040283529160200191610ef3565b820191906000526020600020905b815481529060010190602001808311610ed657829003601f168201915b5050505050905090565b610f0f610f086115ed565b8383611c2f565b5050565b6000806000600760008581526020019081526020016000206040518060600160405290816000820154815260200160018201548152602001600282018054610f5a90612ad1565b80601f0160208091040260200160405190810160405280929190818152602001828054610f8690612ad1565b8015610fd35780601f10610fa857610100808354040283529160200191610fd3565b820191906000526020600020905b815481529060010190602001808311610fb657829003601f168201915b5050505050815250509050806000015181602001519250925050915091565b611003610ffd6115ed565b836118cb565b611042576040517f08c379a00000000000000000000000000000000000000000000000000000000081526004016110399061308b565b60405180910390fd5b61104e84848484611d9b565b50505050565b61105c611aeb565b80600a60006101000a81548173ffffffffffffffffffffffffffffffffffffffff021916908373ffffffffffffffffffffffffffffffffffffffff16021790555050565b60606110ab826115a2565b60006110b5611df7565b905060008151116110d55760405180602001604052806000815250611100565b806110df84611e0e565b6040516020016110f09291906131e5565b6040516020818303038152906040525b915050919050565b600060076000838152602001908152602001600020600101549050919050565b6000600560008473ffffffffffffffffffffffffffffffffffffffff1673ffffffffffffffffffffffffffffffffffffffff16815260200190815260200160002060008373ffffffffffffffffffffffffffffffffffffffff1673ffffffffffffffffffffffffffffffffffffffff16815260200190815260200160002060009054906101000a900460ff16905092915050565b6111c4611aeb565b600073ffffffffffffffffffffffffffffffffffffffff168173ffffffffffffffffffffffffffffffffffffffff1603611233576040517f08c379a000000000000000000000000000000000000000000000000000000000815260040161122a9061327b565b60405180910390fd5b61123c81611b69565b50565b60007f01ffc9a7000000000000000000000000000000000000000000000000000000007bffffffffffffffffffffffffffffffffffffffffffffffffffffffff1916827bffffffffffffffffffffffffffffffffffffffffffffffffffffffff1916149050919050565b8273ffffffffffffffffffffffffffffffffffffffff166112c982610c0f565b73ffffffffffffffffffffffffffffffffffffffff161461131f576040517f08c379a00000000000000000000000000000000000000000000000000000000081526004016113169061330d565b60405180910390fd5b600073ffffffffffffffffffffffffffffffffffffffff168273ffffffffffffffffffffffffffffffffffffffff160361138e576040517f08c379a00000000000000000000000000000000000000000000000000000000081526004016113859061339f565b60405180910390fd5b61139b8383836001611edc565b8273ffffffffffffffffffffffffffffffffffffffff166113bb82610c0f565b73ffffffffffffffffffffffffffffffffffffffff1614611411576040517f08c379a00000000000000000000000000000000000000000000000000000000081526004016114089061330d565b60405180910390fd5b6004600082815260200190815260200160002060006101000a81549073ffffffffffffffffffffffffffffffffffffffff02191690556001600360008573ffffffffffffffffffffffffffffffffffffffff1673ffffffffffffffffffffffffffffffffffffffff168152602001908152602001600020600082825403925050819055506001600360008473ffffffffffffffffffffffffffffffffffffffff1673ffffffffffffffffffffffffffffffffffffffff16815260200190815260200160002060008282540192505081905550816002600083815260200190815260200160002060006101000a81548173ffffffffffffffffffffffffffffffffffffffff021916908373ffffffffffffffffffffffffffffffffffffffff160217905550808273ffffffffffffffffffffffffffffffffffffffff168473ffffffffffffffffffffffffffffffffffffffff167fddf252ad1be2c89b69c2b068fc378daa952ba7f163c4a11628f55a4df523b3ef60405160405180910390a461159d8383836001611ee2565b505050565b6115ab81611ee8565b6115ea576040517f08c379a00000000000000000000000000000000000000000000000000000000081526004016115e1906130f7565b60405180910390fd5b50565b600033905090565b816004600083815260200190815260200160002060006101000a81548173ffffffffffffffffffffffffffffffffffffffff021916908373ffffffffffffffffffffffffffffffffffffffff160217905550808273ffffffffffffffffffffffffffffffffffffffff1661166883610c0f565b73ffffffffffffffffffffffffffffffffffffffff167f8c5be1e5ebec7d5bd14f71427d1e84f3dd0314c0f7b2291e5b200ac8c7c3b92560405160405180910390a45050565b600073ffffffffffffffffffffffffffffffffffffffff168273ffffffffffffffffffffffffffffffffffffffff160361171d576040517f08c379a00000000000000000000000000000000000000000000000000000000081526004016117149061340b565b60405180910390fd5b61172681611ee8565b15611766576040517f08c379a000000000000000000000000000000000000000000000000000000000815260040161175d90613477565b60405180910390fd5b611774600083836001611edc565b61177d81611ee8565b156117bd576040517f08c379a00000000000000000000000000000000000000000000000000000000081526004016117b490613477565b60405180910390fd5b6001600360008473ffffffffffffffffffffffffffffffffffffffff1673ffffffffffffffffffffffffffffffffffffffff16815260200190815260200160002060008282540192505081905550816002600083815260200190815260200160002060006101000a81548173ffffffffffffffffffffffffffffffffffffffff021916908373ffffffffffffffffffffffffffffffffffffffff160217905550808273ffffffffffffffffffffffffffffffffffffffff16600073ffffffffffffffffffffffffffffffffffffffff167fddf252ad1be2c89b69c2b068fc378daa952ba7f163c4a11628f55a4df523b3ef60405160405180910390a46118c7600083836001611ee2565b5050565b6000806118d783610c0f565b90508073ffffffffffffffffffffffffffffffffffffffff168473ffffffffffffffffffffffffffffffffffffffff16148061191957506119188185611128565b5b8061195757508373ffffffffffffffffffffffffffffffffffffffff1661193f846107b8565b73ffffffffffffffffffffffffffffffffffffffff16145b91505092915050565b600061196b82610c0f565b905061197b816000846001611edc565b61198482610c0f565b90506004600083815260200190815260200160002060006101000a81549073ffffffffffffffffffffffffffffffffffffffff02191690556001600360008373ffffffffffffffffffffffffffffffffffffffff1673ffffffffffffffffffffffffffffffffffffffff168152602001908152602001600020600082825403925050819055506002600083815260200190815260200160002060006101000a81549073ffffffffffffffffffffffffffffffffffffffff021916905581600073ffffffffffffffffffffffffffffffffffffffff168273ffffffffffffffffffffffffffffffffffffffff167fddf252ad1be2c89b69c2b068fc378daa952ba7f163c4a11628f55a4df523b3ef60405160405180910390a4611aaa816000846001611ee2565b5050565b60006002600083815260200190815260200160002060009054906101000a900473ffffffffffffffffffffffffffffffffffffffff169050919050565b611af36115ed565b73ffffffffffffffffffffffffffffffffffffffff16611b11610e41565b73ffffffffffffffffffffffffffffffffffffffff1614611b67576040517f08c379a0000000000000000000000000000000000000000000000000000000008152600401611b5e906134e3565b60405180910390fd5b565b6000600660009054906101000a900473ffffffffffffffffffffffffffffffffffffffff16905081600660006101000a81548173ffffffffffffffffffffffffffffffffffffffff021916908373ffffffffffffffffffffffffffffffffffffffff1602179055508173ffffffffffffffffffffffffffffffffffffffff168173ffffffffffffffffffffffffffffffffffffffff167f8be0079c531659141344cd1fd0a4f28419497f9722a3daafe3b4186f6b6457e060405160405180910390a35050565b8173ffffffffffffffffffffffffffffffffffffffff168373ffffffffffffffffffffffffffffffffffffffff1603611c9d576040517f08c379a0000000000000000000000000000000000000000000000000000000008152600401611c949061354f565b60405180910390fd5b80600560008573ffffffffffffffffffffffffffffffffffffffff1673ffffffffffffffffffffffffffffffffffffffff16815260200190815260200160002060008473ffffffffffffffffffffffffffffffffffffffff1673ffffffffffffffffffffffffffffffffffffffff16815260200190815260200160002060006101000a81548160ff0219169083151502179055508173ffffffffffffffffffffffffffffffffffffffff168373ffffffffffffffffffffffffffffffffffffffff167f17307eab39ab6107e8899845ad3d59bd9653f200f220920489ca2b5937696c3183604051611d8e9190612358565b60405180910390a3505050565b611da68484846112a9565b611db284848484611f29565b611df1576040517f08c379a0000000000000000000000000000000000000000000000000000000008152600401611de8906135e1565b60405180910390fd5b50505050565b606060405180602001604052806000815250905090565b606060006001611e1d846120b0565b01905060008167ffffffffffffffff811115611e3c57611e3b612465565b5b6040519080825280601f01601f191660200182016040528015611e6e5781602001600182028036833780820191505090505b509050600082602001820190505b600115611ed1578080600190039150507f3031323334353637383961626364656600000000000000000000000000000000600a86061a8153600a8581611ec557611ec4613601565b5b04945060008503611e7c575b819350505050919050565b50505050565b50505050565b60008073ffffffffffffffffffffffffffffffffffffffff16611f0a83611aae565b73ffffffffffffffffffffffffffffffffffffffff1614159050919050565b6000611f4a8473ffffffffffffffffffffffffffffffffffffffff16612203565b156120a3578373ffffffffffffffffffffffffffffffffffffffff1663150b7a02611f736115ed565b8786866040518563ffffffff1660e01b8152600401611f959493929190613685565b6020604051808303816000875af1925050508015611fd157506040513d601f19601f82011682018060405250810190611fce91906136e6565b60015b612053573d8060008114612001576040519150601f19603f3d011682016040523d82523d6000602084013e612006565b606091505b50600081510361204b576040517f08c379a0000000000000000000000000000000000000000000000000000000008152600401612042906135e1565b60405180910390fd5b805181602001fd5b63150b7a0260e01b7bffffffffffffffffffffffffffffffffffffffffffffffffffffffff1916817bffffffffffffffffffffffffffffffffffffffffffffffffffffffff1916149150506120a8565b600190505b949350505050565b600080600090507a184f03e93ff9f4daa797ed6e38ed64bf6a1f010000000000000000831061210e577a184f03e93ff9f4daa797ed6e38ed64bf6a1f010000000000000000838161210457612103613601565b5b0492506040810190505b6d04ee2d6d415b85acef8100000000831061214b576d04ee2d6d415b85acef8100000000838161214157612140613601565b5b0492506020810190505b662386f26fc10000831061217a57662386f26fc1000083816121705761216f613601565b5b0492506010810190505b6305f5e10083106121a3576305f5e100838161219957612198613601565b5b0492506008810190505b61271083106121c85761271083816121be576121bd613601565b5b0492506004810190505b606483106121eb57606483816121e1576121e0613601565b5b0492506002810190505b600a83106121fa576001810190505b80915050919050565b6000808273ffffffffffffffffffffffffffffffffffffffff163b119050919050565b50805461223290612ad1565b6000825580601f106122445750612263565b601f0160209004906000526020600020908101906122629190612287565b5b50565b60405180606001604052806000815260200160008152602001606081525090565b5b808211156122a0576000816000905550600101612288565b5090565b6000604051905090565b600080fd5b600080fd5b60007fffffffff0000000000000000000000000000000000000000000000000000000082169050919050565b6122ed816122b8565b81146122f857600080fd5b50565b60008135905061230a816122e4565b92915050565b600060208284031215612326576123256122ae565b5b6000612334848285016122fb565b91505092915050565b60008115159050919050565b6123528161233d565b82525050565b600060208201905061236d6000830184612349565b92915050565b600081519050919050565b600082825260208201905092915050565b60005b838110156123ad578082015181840152602081019050612392565b60008484015250505050565b6000601f19601f8301169050919050565b60006123d582612373565b6123df818561237e565b93506123ef81856020860161238f565b6123f8816123b9565b840191505092915050565b6000602082019050818103600083015261241d81846123ca565b905092915050565b6000819050919050565b61243881612425565b811461244357600080fd5b50565b6000813590506124558161242f565b92915050565b600080fd5b600080fd5b7f4e487b7100000000000000000000000000000000000000000000000000000000600052604160045260246000fd5b61249d826123b9565b810181811067ffffffffffffffff821117156124bc576124bb612465565b5b80604052505050565b60006124cf6122a4565b90506124db8282612494565b919050565b600067ffffffffffffffff8211156124fb576124fa612465565b5b612504826123b9565b9050602081019050919050565b82818337600083830152505050565b600061253361252e846124e0565b6124c5565b90508281526020810184848401111561254f5761254e612460565b5b61255a848285612511565b509392505050565b600082601f8301126125775761257661245b565b5b8135612587848260208601612520565b91505092915050565b600080604083850312156125a7576125a66122ae565b5b60006125b585828601612446565b925050602083013567ffffffffffffffff8111156125d6576125d56122b3565b5b6125e285828601612562565b9150509250929050565b600060208284031215612602576126016122ae565b5b600061261084828501612446565b91505092915050565b61262281612425565b82525050565b600060208201905061263d6000830184612619565b92915050565b600073ffffffffffffffffffffffffffffffffffffffff82169050919050565b600061266e82612643565b9050919050565b61267e81612663565b82525050565b60006020820190506126996000830184612675565b92915050565b6126a881612663565b81146126b357600080fd5b50565b6000813590506126c58161269f565b92915050565b600080604083850312156126e2576126e16122ae565b5b60006126f0858286016126b6565b925050602061270185828601612446565b9150509250929050565b600080600060608486031215612724576127236122ae565b5b6000612732868287016126b6565b935050602061274386828701612446565b925050604061275486828701612446565b9150509250925092565b600080600060608486031215612777576127766122ae565b5b6000612785868287016126b6565b9350506020612796868287016126b6565b92505060406127a786828701612446565b9150509250925092565b6000602082840312156127c7576127c66122ae565b5b60006127d5848285016126b6565b91505092915050565b6127e781612425565b82525050565b600082825260208201905092915050565b600061280982612373565b61281381856127ed565b935061282381856020860161238f565b61282c816123b9565b840191505092915050565b600060608301600083015161284f60008601826127de565b50602083015161286260208601826127de565b506040830151848203604086015261287a82826127fe565b9150508091505092915050565b600060208201905081810360008301526128a18184612837565b905092915050565b6128b28161233d565b81146128bd57600080fd5b50565b6000813590506128cf816128a9565b92915050565b600080604083850312156128ec576128eb6122ae565b5b60006128fa858286016126b6565b925050602061290b858286016128c0565b9150509250929050565b600060408201905061292a6000830185612619565b6129376020830184612619565b9392505050565b600067ffffffffffffffff82111561295957612958612465565b5b612962826123b9565b9050602081019050919050565b600061298261297d8461293e565b6124c5565b90508281526020810184848401111561299e5761299d612460565b5b6129a9848285612511565b509392505050565b600082601f8301126129c6576129c561245b565b5b81356129d684826020860161296f565b91505092915050565b600080600080608085870312156129f9576129f86122ae565b5b6000612a07878288016126b6565b9450506020612a18878288016126b6565b9350506040612a2987828801612446565b925050606085013567ffffffffffffffff811115612a4a57612a496122b3565b5b612a56878288016129b1565b91505092959194509250565b60008060408385031215612a7957612a786122ae565b5b6000612a87858286016126b6565b9250506020612a98858286016126b6565b9150509250929050565b7f4e487b7100000000000000000000000000000000000000000000000000000000600052602260045260246000fd5b60006002820490506001821680612ae957607f821691505b602082108103612afc57612afb612aa2565b5b50919050565b7f4e6f7420746865206f776e657200000000000000000000000000000000000000600082015250565b6000612b38600d8361237e565b9150612b4382612b02565b602082019050919050565b60006020820190508181036000830152612b6781612b2b565b9050919050565b60008190508160005260206000209050919050565b60006020601f8301049050919050565b600082821b905092915050565b600060088302612bd07fffffffffffffffffffffffffffffffffffffffffffffffffffffffffffffffff82612b93565b612bda8683612b93565b95508019841693508086168417925050509392505050565b6000819050919050565b6000612c17612c12612c0d84612425565b612bf2565b612425565b9050919050565b6000819050919050565b612c3183612bfc565b612c45612c3d82612c1e565b848454612ba0565b825550505050565b600090565b612c5a612c4d565b612c65818484612c28565b505050565b5b81811015612c8957612c7e600082612c52565b600181019050612c6b565b5050565b601f821115612cce57612c9f81612b6e565b612ca884612b83565b81016020851015612cb7578190505b612ccb612cc385612b83565b830182612c6a565b50505b505050565b600082821c905092915050565b6000612cf160001984600802612cd3565b1980831691505092915050565b6000612d0a8383612ce0565b9150826002028217905092915050565b612d2382612373565b67ffffffffffffffff811115612d3c57612d3b612465565b5b612d468254612ad1565b612d51828285612c8d565b600060209050601f831160018114612d845760008415612d72578287015190505b612d7c8582612cfe565b865550612de4565b601f198416612d9286612b6e565b60005b82811015612dba57848901518255600182019150602085019450602081019050612d95565b86831015612dd75784890151612dd3601f891682612ce0565b8355505b6001600288020188555050505b505050505050565b7f4552433732313a20617070726f76616c20746f2063757272656e74206f776e6560008201527f7200000000000000000000000000000000000000000000000000000000000000602082015250565b6000612e4860218361237e565b9150612e5382612dec565b604082019050919050565b60006020820190508181036000830152612e7781612e3b565b9050919050565b7f4552433732313a20617070726f76652063616c6c6572206973206e6f7420746f60008201527f6b656e206f776e6572206f7220617070726f76656420666f7220616c6c000000602082015250565b6000612eda603d8361237e565b9150612ee582612e7e565b604082019050919050565b60006020820190508181036000830152612f0981612ecd565b9050919050565b7f4f6e6c79204d656853746f726556312063616e2063616c6c207468697320667560008201527f6e6374696f6e0000000000000000000000000000000000000000000000000000602082015250565b6000612f6c60268361237e565b9150612f7782612f10565b604082019050919050565b60006020820190508181036000830152612f9b81612f5f565b9050919050565b7f4e487b7100000000000000000000000000000000000000000000000000000000600052601160045260246000fd5b6000612fdc82612425565b91507fffffffffffffffffffffffffffffffffffffffffffffffffffffffffffffffff820361300e5761300d612fa2565b5b600182019050919050565b7f4552433732313a2063616c6c6572206973206e6f7420746f6b656e206f776e6560008201527f72206f7220617070726f76656400000000000000000000000000000000000000602082015250565b6000613075602d8361237e565b915061308082613019565b604082019050919050565b600060208201905081810360008301526130a481613068565b9050919050565b7f4552433732313a20696e76616c696420746f6b656e2049440000000000000000600082015250565b60006130e160188361237e565b91506130ec826130ab565b602082019050919050565b60006020820190508181036000830152613110816130d4565b9050919050565b7f4552433732313a2061646472657373207a65726f206973206e6f74206120766160008201527f6c6964206f776e65720000000000000000000000000000000000000000000000602082015250565b600061317360298361237e565b915061317e82613117565b604082019050919050565b600060208201905081810360008301526131a281613166565b9050919050565b600081905092915050565b60006131bf82612373565b6131c981856131a9565b93506131d981856020860161238f565b80840191505092915050565b60006131f182856131b4565b91506131fd82846131b4565b91508190509392505050565b7f4f776e61626c653a206e6577206f776e657220697320746865207a65726f206160008201527f6464726573730000000000000000000000000000000000000000000000000000602082015250565b600061326560268361237e565b915061327082613209565b604082019050919050565b6000602082019050818103600083015261329481613258565b9050919050565b7f4552433732313a207472616e736665722066726f6d20696e636f72726563742060008201527f6f776e6572000000000000000000000000000000000000000000000000000000602082015250565b60006132f760258361237e565b91506133028261329b565b604082019050919050565b60006020820190508181036000830152613326816132ea565b9050919050565b7f4552433732313a207472616e7366657220746f20746865207a65726f2061646460008201527f7265737300000000000000000000000000000000000000000000000000000000602082015250565b600061338960248361237e565b91506133948261332d565b604082019050919050565b600060208201905081810360008301526133b88161337c565b9050919050565b7f4552433732313a206d696e7420746f20746865207a65726f2061646472657373600082015250565b60006133f560208361237e565b9150613400826133bf565b602082019050919050565b60006020820190508181036000830152613424816133e8565b9050919050565b7f4552433732313a20746f6b656e20616c7265616479206d696e74656400000000600082015250565b6000613461601c8361237e565b915061346c8261342b565b602082019050919050565b6000602082019050818103600083015261349081613454565b9050919050565b7f4f776e61626c653a2063616c6c6572206973206e6f7420746865206f776e6572600082015250565b60006134cd60208361237e565b91506134d882613497565b602082019050919050565b600060208201905081810360008301526134fc816134c0565b9050919050565b7f4552433732313a20617070726f766520746f2063616c6c657200000000000000600082015250565b600061353960198361237e565b915061354482613503565b602082019050919050565b600060208201905081810360008301526135688161352c565b9050919050565b7f4552433732313a207472616e7366657220746f206e6f6e20455243373231526560008201527f63656976657220696d706c656d656e7465720000000000000000000000000000602082015250565b60006135cb60328361237e565b91506135d68261356f565b604082019050919050565b600060208201905081810360008301526135fa816135be565b9050919050565b7f4e487b7100000000000000000000000000000000000000000000000000000000600052601260045260246000fd5b600081519050919050565b600082825260208201905092915050565b600061365782613630565b613661818561363b565b935061367181856020860161238f565b61367a816123b9565b840191505092915050565b600060808201905061369a6000830187612675565b6136a76020830186612675565b6136b46040830185612619565b81810360608301526136c6818461364c565b905095945050505050565b6000815190506136e0816122e4565b92915050565b6000602082840312156136fc576136fb6122ae565b5b600061370a848285016136d1565b9150509291505056fea2646970667358221220d981ba3d7862efe2863b5e4f42982b0719fe1866fff970774b150d33e8dffb3964736f6c63430008180033",
  "linkReferences": {},
  "deployedLinkReferences": {}
}