{
  "_format": "hh-sol-artifact-1",
  "contractName": "ERCAd",
  "sourceName": "contracts/ERCAd/ERCAd.sol",
  "abi": [
    {
      "inputs": [
        {
          "internalType": "string",
          "name": "name",
          "type": "string"
        },
        {
          "internalType": "string",
          "name": "symbol",
          "type": "string"
        }
      ],
      "stateMutability": "nonpayable",
      "type": "constructor"
    },
    {
      "anonymous": false,
      "inputs": [
        {
          "indexed": true,
          "internalType": "address",
          "name": "owner",
          "type": "address"
        },
        {
          "indexed": true,
          "internalType": "address",
          "name": "approved",
          "type": "address"
        },
        {
          "indexed": true,
          "internalType": "uint256",
          "name": "tokenId",
          "type": "uint256"
        }
      ],
      "name": "Approval",
      "type": "event"
    },
    {
      "anonymous": false,
      "inputs": [
        {
          "indexed": true,
          "internalType": "address",
          "name": "owner",
          "type": "address"
        },
        {
          "indexed": true,
          "internalType": "address",
          "name": "operator",
          "type": "address"
        },
        {
          "indexed": false,
          "internalType": "bool",
          "name": "approved",
          "type": "bool"
        }
      ],
      "name": "ApprovalForAll",
      "type": "event"
    },
    {
      "anonymous": false,
      "inputs": [
        {
          "indexed": true,
          "internalType": "address",
          "name": "previousOwner",
          "type": "address"
        },
        {
          "indexed": true,
          "internalType": "address",
          "name": "newOwner",
          "type": "address"
        }
      ],
      "name": "OwnershipTransferred",
      "type": "event"
    },
    {
      "anonymous": false,
      "inputs": [
        {
          "indexed": true,
          "internalType": "address",
          "name": "from",
          "type": "address"
        },
        {
          "indexed": true,
          "internalType": "address",
          "name": "to",
          "type": "address"
        },
        {
          "indexed": true,
          "internalType": "uint256",
          "name": "tokenId",
          "type": "uint256"
        }
      ],
      "name": "Transfer",
      "type": "event"
    },
    {
      "inputs": [
        {
          "internalType": "address",
          "name": "to",
          "type": "address"
        },
        {
          "internalType": "uint256",
          "name": "tokenId",
          "type": "uint256"
        }
      ],
      "name": "approve",
      "outputs": [],
      "stateMutability": "nonpayable",
      "type": "function"
    },
    {
      "inputs": [
        {
          "internalType": "address",
          "name": "owner",
          "type": "address"
        }
      ],
      "name": "balanceOf",
      "outputs": [
        {
          "internalType": "uint256",
          "name": "",
          "type": "uint256"
        }
      ],
      "stateMutability": "view",
      "type": "function"
    },
    {
      "inputs": [
        {
          "internalType": "uint256",
          "name": "id",
          "type": "uint256"
        }
      ],
      "name": "displayAd",
      "outputs": [
        {
          "components": [
            {
              "internalType": "string",
              "name": "adURI",
              "type": "string"
            },
            {
              "internalType": "string",
              "name": "dataURI",
              "type": "string"
            },
            {
              "internalType": "bytes32",
              "name": "signatureRoot",
              "type": "bytes32"
            },
            {
              "internalType": "bytes32",
              "name": "audienceRoot",
              "type": "bytes32"
            }
          ],
          "internalType": "struct IERCAd.Ad",
          "name": "",
          "type": "tuple"
        }
      ],
      "stateMutability": "view",
      "type": "function"
    },
    {
      "inputs": [
        {
          "internalType": "uint256",
          "name": "tokenId",
          "type": "uint256"
        }
      ],
      "name": "getApproved",
      "outputs": [
        {
          "internalType": "address",
          "name": "",
          "type": "address"
        }
      ],
      "stateMutability": "view",
      "type": "function"
    },
    {
      "inputs": [
        {
          "internalType": "address",
          "name": "",
          "type": "address"
        }
      ],
      "name": "hasSigned",
      "outputs": [
        {
          "internalType": "bool",
          "name": "",
          "type": "bool"
        }
      ],
      "stateMutability": "view",
      "type": "function"
    },
    {
      "inputs": [
        {
          "internalType": "uint256",
          "name": "id",
          "type": "uint256"
        },
        {
          "internalType": "bytes32[]",
          "name": "proof",
          "type": "bytes32[]"
        }
      ],
      "name": "hasSignedAd",
      "outputs": [
        {
          "internalType": "bool",
          "name": "",
          "type": "bool"
        }
      ],
      "stateMutability": "view",
      "type": "function"
    },
    {
      "inputs": [
        {
          "internalType": "address",
          "name": "owner",
          "type": "address"
        },
        {
          "internalType": "address",
          "name": "operator",
          "type": "address"
        }
      ],
      "name": "isApprovedForAll",
      "outputs": [
        {
          "internalType": "bool",
          "name": "",
          "type": "bool"
        }
      ],
      "stateMutability": "view",
      "type": "function"
    },
    {
      "inputs": [
        {
          "internalType": "uint256",
          "name": "id",
          "type": "uint256"
        },
        {
          "internalType": "bytes32[]",
          "name": "proof",
          "type": "bytes32[]"
        }
      ],
      "name": "isInAudience",
      "outputs": [
        {
          "internalType": "bool",
          "name": "",
          "type": "bool"
        }
      ],
      "stateMutability": "view",
      "type": "function"
    },
    {
      "inputs": [],
      "name": "name",
      "outputs": [
        {
          "internalType": "string",
          "name": "",
          "type": "string"
        }
      ],
      "stateMutability": "view",
      "type": "function"
    },
    {
      "inputs": [],
      "name": "owner",
      "outputs": [
        {
          "internalType": "address",
          "name": "",
          "type": "address"
        }
      ],
      "stateMutability": "view",
      "type": "function"
    },
    {
      "inputs": [
        {
          "internalType": "uint256",
          "name": "tokenId",
          "type": "uint256"
        }
      ],
      "name": "ownerOf",
      "outputs": [
        {
          "internalType": "address",
          "name": "",
          "type": "address"
        }
      ],
      "stateMutability": "view",
      "type": "function"
    },
    {
      "inputs": [],
      "name": "renounceOwnership",
      "outputs": [],
      "stateMutability": "nonpayable",
      "type": "function"
    },
    {
      "inputs": [
        {
          "internalType": "address",
          "name": "from",
          "type": "address"
        },
        {
          "internalType": "address",
          "name": "to",
          "type": "address"
        },
        {
          "internalType": "uint256",
          "name": "tokenId",
          "type": "uint256"
        }
      ],
      "name": "safeTransferFrom",
      "outputs": [],
      "stateMutability": "nonpayable",
      "type": "function"
    },
    {
      "inputs": [
        {
          "internalType": "address",
          "name": "from",
          "type": "address"
        },
        {
          "internalType": "address",
          "name": "to",
          "type": "address"
        },
        {
          "internalType": "uint256",
          "name": "tokenId",
          "type": "uint256"
        },
        {
          "internalType": "bytes",
          "name": "data",
          "type": "bytes"
        }
      ],
      "name": "safeTransferFrom",
      "outputs": [],
      "stateMutability": "nonpayable",
      "type": "function"
    },
    {
      "inputs": [
        {
          "internalType": "string",
          "name": "adURI",
          "type": "string"
        },
        {
          "internalType": "string",
          "name": "dataURI",
          "type": "string"
        },
        {
          "internalType": "bytes32",
          "name": "signatureRoot",
          "type": "bytes32"
        },
        {
          "internalType": "bytes32",
          "name": "audienceRoot",
          "type": "bytes32"
        }
      ],
      "name": "setAd",
      "outputs": [],
      "stateMutability": "nonpayable",
      "type": "function"
    },
    {
      "inputs": [
        {
          "internalType": "address",
          "name": "operator",
          "type": "address"
        },
        {
          "internalType": "bool",
          "name": "approved",
          "type": "bool"
        }
      ],
      "name": "setApprovalForAll",
      "outputs": [],
      "stateMutability": "nonpayable",
      "type": "function"
    },
    {
      "inputs": [
        {
          "internalType": "uint256",
          "name": "id",
          "type": "uint256"
        },
        {
          "internalType": "bytes32[]",
          "name": "proof",
          "type": "bytes32[]"
        }
      ],
      "name": "signAd",
      "outputs": [],
      "stateMutability": "nonpayable",
      "type": "function"
    },
    {
      "inputs": [
        {
          "internalType": "bytes4",
          "name": "interfaceId",
          "type": "bytes4"
        }
      ],
      "name": "supportsInterface",
      "outputs": [
        {
          "internalType": "bool",
          "name": "",
          "type": "bool"
        }
      ],
      "stateMutability": "view",
      "type": "function"
    },
    {
      "inputs": [],
      "name": "symbol",
      "outputs": [
        {
          "internalType": "string",
          "name": "",
          "type": "string"
        }
      ],
      "stateMutability": "view",
      "type": "function"
    },
    {
      "inputs": [
        {
          "internalType": "uint256",
          "name": "tokenId",
          "type": "uint256"
        }
      ],
      "name": "tokenURI",
      "outputs": [
        {
          "internalType": "string",
          "name": "",
          "type": "string"
        }
      ],
      "stateMutability": "view",
      "type": "function"
    },
    {
      "inputs": [
        {
          "internalType": "address",
          "name": "from",
          "type": "address"
        },
        {
          "internalType": "address",
          "name": "to",
          "type": "address"
        },
        {
          "internalType": "uint256",
          "name": "tokenId",
          "type": "uint256"
        }
      ],
      "name": "transferFrom",
      "outputs": [],
      "stateMutability": "nonpayable",
      "type": "function"
    },
    {
      "inputs": [
        {
          "internalType": "address",
          "name": "newOwner",
          "type": "address"
        }
      ],
      "name": "transferOwnership",
      "outputs": [],
      "stateMutability": "nonpayable",
      "type": "function"
    }
  ],
  "bytecode": "0x60806040523480156200001157600080fd5b5060405162003e2638038062003e268339818101604052810190620000379190620002e8565b818181600090816200004a9190620005b8565b5080600190816200005c9190620005b8565b5050506200007f620000736200008760201b60201c565b6200008f60201b60201c565b50506200069f565b600033905090565b6000600660009054906101000a900473ffffffffffffffffffffffffffffffffffffffff16905081600660006101000a81548173ffffffffffffffffffffffffffffffffffffffff021916908373ffffffffffffffffffffffffffffffffffffffff1602179055508173ffffffffffffffffffffffffffffffffffffffff168173ffffffffffffffffffffffffffffffffffffffff167f8be0079c531659141344cd1fd0a4f28419497f9722a3daafe3b4186f6b6457e060405160405180910390a35050565b6000604051905090565b600080fd5b600080fd5b600080fd5b600080fd5b6000601f19601f8301169050919050565b7f4e487b7100000000000000000000000000000000000000000000000000000000600052604160045260246000fd5b620001be8262000173565b810181811067ffffffffffffffff82111715620001e057620001df62000184565b5b80604052505050565b6000620001f562000155565b9050620002038282620001b3565b919050565b600067ffffffffffffffff82111562000226576200022562000184565b5b620002318262000173565b9050602081019050919050565b60005b838110156200025e57808201518184015260208101905062000241565b60008484015250505050565b6000620002816200027b8462000208565b620001e9565b905082815260208101848484011115620002a0576200029f6200016e565b5b620002ad8482856200023e565b509392505050565b600082601f830112620002cd57620002cc62000169565b5b8151620002df8482602086016200026a565b91505092915050565b600080604083850312156200030257620003016200015f565b5b600083015167ffffffffffffffff81111562000323576200032262000164565b5b6200033185828601620002b5565b925050602083015167ffffffffffffffff81111562000355576200035462000164565b5b6200036385828601620002b5565b9150509250929050565b600081519050919050565b7f4e487b7100000000000000000000000000000000000000000000000000000000600052602260045260246000fd5b60006002820490506001821680620003c057607f821691505b602082108103620003d657620003d562000378565b5b50919050565b60008190508160005260206000209050919050565b60006020601f8301049050919050565b600082821b905092915050565b600060088302620004407fffffffffffffffffffffffffffffffffffffffffffffffffffffffffffffffff8262000401565b6200044c868362000401565b95508019841693508086168417925050509392505050565b6000819050919050565b6000819050919050565b600062000499620004936200048d8462000464565b6200046e565b62000464565b9050919050565b6000819050919050565b620004b58362000478565b620004cd620004c482620004a0565b8484546200040e565b825550505050565b600090565b620004e4620004d5565b620004f1818484620004aa565b505050565b5b8181101562000519576200050d600082620004da565b600181019050620004f7565b5050565b601f82111562000568576200053281620003dc565b6200053d84620003f1565b810160208510156200054d578190505b620005656200055c85620003f1565b830182620004f6565b50505b505050565b600082821c905092915050565b60006200058d600019846008026200056d565b1980831691505092915050565b6000620005a883836200057a565b9150826002028217905092915050565b620005c3826200036d565b67ffffffffffffffff811115620005df57620005de62000184565b5b620005eb8254620003a7565b620005f88282856200051d565b600060209050601f8311600181146200063057600084156200061b578287015190505b6200062785826200059a565b86555062000697565b601f1984166200064086620003dc565b60005b828110156200066a5784890151825560018201915060208501945060208101905062000643565b868310156200068a578489015162000686601f8916826200057a565b8355505b6001600288020188555050505b505050505050565b61377780620006af6000396000f3fe608060405234801561001057600080fd5b50600436106101425760003560e01c80638da5cb5b116100b8578063c87b56dd1161007c578063c87b56dd14610387578063d13e2af9146103b7578063dfe194fe146103d3578063e985e9c514610403578063f2fde38b14610433578063fe49e8331461044f57610142565b80638da5cb5b146102e357806395d89b4114610301578063a22cb4651461031f578063b88d4fde1461033b578063bf6a14131461035757610142565b806342842e0e1161010a57806342842e0e146101fd5780636352211e14610219578063672fb9691461024957806370a0823114610279578063715018a6146102a95780638b4d9eb9146102b357610142565b806301ffc9a71461014757806306fdde0314610177578063081812fc14610195578063095ea7b3146101c557806323b872dd146101e1575b600080fd5b610161600480360381019061015c91906120b8565b61046b565b60405161016e9190612100565b60405180910390f35b61017f61054d565b60405161018c91906121ab565b60405180910390f35b6101af60048036038101906101aa9190612203565b6105df565b6040516101bc9190612271565b60405180910390f35b6101df60048036038101906101da91906122b8565b610625565b005b6101fb60048036038101906101f691906122f8565b61073c565b005b610217600480360381019061021291906122f8565b61079c565b005b610233600480360381019061022e9190612203565b6107bc565b6040516102409190612271565b60405180910390f35b610263600480360381019061025e9190612203565b610842565b6040516102709190612418565b60405180910390f35b610293600480360381019061028e919061243a565b6109a7565b6040516102a09190612476565b60405180910390f35b6102b1610a5e565b005b6102cd60048036038101906102c891906124f6565b610a72565b6040516102da9190612100565b60405180910390f35b6102eb610b59565b6040516102f89190612271565b60405180910390f35b610309610b83565b60405161031691906121ab565b60405180910390f35b61033960048036038101906103349190612582565b610c15565b005b610355600480360381019061035091906126f2565b610c2b565b005b610371600480360381019061036c919061243a565b610c8d565b60405161037e9190612100565b60405180910390f35b6103a1600480360381019061039c9190612203565b610cad565b6040516103ae91906121ab565b60405180910390f35b6103d160048036038101906103cc9190612842565b610d8c565b005b6103ed60048036038101906103e891906124f6565b610e8a565b6040516103fa9190612100565b60405180910390f35b61041d600480360381019061041891906128e1565b610f8a565b60405161042a9190612100565b60405180910390f35b61044d6004803603810190610448919061243a565b61101e565b005b610469600480360381019061046491906124f6565b6110a1565b005b60007f80ac58cd000000000000000000000000000000000000000000000000000000007bffffffffffffffffffffffffffffffffffffffffffffffffffffffff1916827bffffffffffffffffffffffffffffffffffffffffffffffffffffffff1916148061053657507f5b5e139f000000000000000000000000000000000000000000000000000000007bffffffffffffffffffffffffffffffffffffffffffffffffffffffff1916827bffffffffffffffffffffffffffffffffffffffffffffffffffffffff1916145b806105465750610545826112f0565b5b9050919050565b60606000805461055c90612950565b80601f016020809104026020016040519081016040528092919081815260200182805461058890612950565b80156105d55780601f106105aa576101008083540402835291602001916105d5565b820191906000526020600020905b8154815290600101906020018083116105b857829003601f168201915b5050505050905090565b60006105ea8261135a565b6004600083815260200190815260200160002060009054906101000a900473ffffffffffffffffffffffffffffffffffffffff169050919050565b6000610630826107bc565b90508073ffffffffffffffffffffffffffffffffffffffff168373ffffffffffffffffffffffffffffffffffffffff16036106a0576040517f08c379a0000000000000000000000000000000000000000000000000000000008152600401610697906129f3565b60405180910390fd5b8073ffffffffffffffffffffffffffffffffffffffff166106bf6113a5565b73ffffffffffffffffffffffffffffffffffffffff1614806106ee57506106ed816106e86113a5565b610f8a565b5b61072d576040517f08c379a000000000000000000000000000000000000000000000000000000000815260040161072490612a85565b60405180910390fd5b61073783836113ad565b505050565b61074d6107476113a5565b82611466565b61078c576040517f08c379a000000000000000000000000000000000000000000000000000000000815260040161078390612b17565b60405180910390fd5b6107978383836114fb565b505050565b6107b783838360405180602001604052806000815250610c2b565b505050565b6000806107c8836117f4565b9050600073ffffffffffffffffffffffffffffffffffffffff168173ffffffffffffffffffffffffffffffffffffffff1603610839576040517f08c379a000000000000000000000000000000000000000000000000000000000815260040161083090612b83565b60405180910390fd5b80915050919050565b61084a61201e565b600c600083815260200190815260200160002060405180608001604052908160008201805461087890612950565b80601f01602080910402602001604051908101604052809291908181526020018280546108a490612950565b80156108f15780601f106108c6576101008083540402835291602001916108f1565b820191906000526020600020905b8154815290600101906020018083116108d457829003601f168201915b5050505050815260200160018201805461090a90612950565b80601f016020809104026020016040519081016040528092919081815260200182805461093690612950565b80156109835780601f1061095857610100808354040283529160200191610983565b820191906000526020600020905b81548152906001019060200180831161096657829003601f168201915b50505050508152602001600282015481526020016003820154815250509050919050565b60008073ffffffffffffffffffffffffffffffffffffffff168273ffffffffffffffffffffffffffffffffffffffff1603610a17576040517f08c379a0000000000000000000000000000000000000000000000000000000008152600401610a0e90612c15565b60405180910390fd5b600360008373ffffffffffffffffffffffffffffffffffffffff1673ffffffffffffffffffffffffffffffffffffffff168152602001908152602001600020549050919050565b610a66611831565b610a7060006118af565b565b6000610a7d84611975565b610abc576040517f08c379a0000000000000000000000000000000000000000000000000000000008152600401610ab390612c81565b60405180910390fd5b6000600c60008681526020019081526020016000209050600033604051602001610ae69190612ce9565b604051602081830303815290604052805190602001209050610b4e858580806020026020016040519081016040528093929190818152602001838360200280828437600081840152601f19601f820116905080830192505050505050508360020154836119b6565b925050509392505050565b6000600660009054906101000a900473ffffffffffffffffffffffffffffffffffffffff16905090565b606060018054610b9290612950565b80601f0160208091040260200160405190810160405280929190818152602001828054610bbe90612950565b8015610c0b5780601f10610be057610100808354040283529160200191610c0b565b820191906000526020600020905b815481529060010190602001808311610bee57829003601f168201915b5050505050905090565b610c27610c206113a5565b83836119cd565b5050565b610c3c610c366113a5565b83611466565b610c7b576040517f08c379a0000000000000000000000000000000000000000000000000000000008152600401610c7290612b17565b60405180910390fd5b610c8784848484611b39565b50505050565b600d6020528060005260406000206000915054906101000a900460ff1681565b6060610cb882611975565b610cf7576040517f08c379a0000000000000000000000000000000000000000000000000000000008152600401610cee90612d76565b60405180910390fd5b60086000018054610d0790612950565b80601f0160208091040260200160405190810160405280929190818152602001828054610d3390612950565b8015610d805780601f10610d5557610100808354040283529160200191610d80565b820191906000526020600020905b815481529060010190602001808311610d6357829003601f168201915b50505050509050919050565b610d94611831565b610d9e6007611b95565b6000610daa6007611bab565b9050604051806080016040528086815260200185815260200184815260200183815250600c60008381526020019081526020016000206000820151816000019081610df59190612f42565b506020820151816001019081610e0b9190612f42565b506040820151816002015560608201518160030155905050610e2d3382611bb9565b600c6000828152602001908152602001600020600860008201816000019081610e56919061302a565b5060018201816001019081610e6b919061302a565b5060028201548160020155600382015481600301559050505050505050565b6000610e9584611975565b610ed4576040517f08c379a0000000000000000000000000000000000000000000000000000000008152600401610ecb90612c81565b60405180910390fd5b6000600c600086815260200190815260200160002090506000801b816003015414610f7d57600033604051602001610f0c9190612ce9565b604051602081830303815290604052805190602001209050610f74858580806020026020016040519081016040528093929190818152602001838360200280828437600081840152601f19601f820116905080830192505050505050508360030154836119b6565b92505050610f83565b60019150505b9392505050565b6000600560008473ffffffffffffffffffffffffffffffffffffffff1673ffffffffffffffffffffffffffffffffffffffff16815260200190815260200160002060008373ffffffffffffffffffffffffffffffffffffffff1673ffffffffffffffffffffffffffffffffffffffff16815260200190815260200160002060009054906101000a900460ff16905092915050565b611026611831565b600073ffffffffffffffffffffffffffffffffffffffff168173ffffffffffffffffffffffffffffffffffffffff1603611095576040517f08c379a000000000000000000000000000000000000000000000000000000000815260040161108c90613184565b60405180910390fd5b61109e816118af565b50565b6110aa83611975565b6110e9576040517f08c379a00000000000000000000000000000000000000000000000000000000081526004016110e090612c81565b60405180910390fd5b600d60003373ffffffffffffffffffffffffffffffffffffffff1673ffffffffffffffffffffffffffffffffffffffff16815260200190815260200160002060009054906101000a900460ff1615611176576040517f08c379a000000000000000000000000000000000000000000000000000000000815260040161116d906131f0565b60405180910390fd5b6000600c600085815260200190815260200160002090506000801b816003015414611257576000336040516020016111ae9190612ce9565b604051602081830303815290604052805190602001209050611216848480806020026020016040519081016040528093929190818152602001838360200280828437600081840152601f19601f820116905080830192505050505050508360030154836119b6565b611255576040517f08c379a000000000000000000000000000000000000000000000000000000000815260040161124c9061325c565b60405180910390fd5b505b600081600201543360405160200161127092919061329d565b6040516020818303038152906040529050808051906020012082600201819055506001600d60003373ffffffffffffffffffffffffffffffffffffffff1673ffffffffffffffffffffffffffffffffffffffff16815260200190815260200160002060006101000a81548160ff0219169083151502179055505050505050565b60007f01ffc9a7000000000000000000000000000000000000000000000000000000007bffffffffffffffffffffffffffffffffffffffffffffffffffffffff1916827bffffffffffffffffffffffffffffffffffffffffffffffffffffffff1916149050919050565b61136381611975565b6113a2576040517f08c379a000000000000000000000000000000000000000000000000000000000815260040161139990612b83565b60405180910390fd5b50565b600033905090565b816004600083815260200190815260200160002060006101000a81548173ffffffffffffffffffffffffffffffffffffffff021916908373ffffffffffffffffffffffffffffffffffffffff160217905550808273ffffffffffffffffffffffffffffffffffffffff16611420836107bc565b73ffffffffffffffffffffffffffffffffffffffff167f8c5be1e5ebec7d5bd14f71427d1e84f3dd0314c0f7b2291e5b200ac8c7c3b92560405160405180910390a45050565b600080611472836107bc565b90508073ffffffffffffffffffffffffffffffffffffffff168473ffffffffffffffffffffffffffffffffffffffff1614806114b457506114b38185610f8a565b5b806114f257508373ffffffffffffffffffffffffffffffffffffffff166114da846105df565b73ffffffffffffffffffffffffffffffffffffffff16145b91505092915050565b8273ffffffffffffffffffffffffffffffffffffffff1661151b826107bc565b73ffffffffffffffffffffffffffffffffffffffff1614611571576040517f08c379a00000000000000000000000000000000000000000000000000000000081526004016115689061333b565b60405180910390fd5b600073ffffffffffffffffffffffffffffffffffffffff168273ffffffffffffffffffffffffffffffffffffffff16036115e0576040517f08c379a00000000000000000000000000000000000000000000000000000000081526004016115d7906133cd565b60405180910390fd5b6115ed8383836001611dd6565b8273ffffffffffffffffffffffffffffffffffffffff1661160d826107bc565b73ffffffffffffffffffffffffffffffffffffffff1614611663576040517f08c379a000000000000000000000000000000000000000000000000000000000815260040161165a9061333b565b60405180910390fd5b6004600082815260200190815260200160002060006101000a81549073ffffffffffffffffffffffffffffffffffffffff02191690556001600360008573ffffffffffffffffffffffffffffffffffffffff1673ffffffffffffffffffffffffffffffffffffffff168152602001908152602001600020600082825403925050819055506001600360008473ffffffffffffffffffffffffffffffffffffffff1673ffffffffffffffffffffffffffffffffffffffff16815260200190815260200160002060008282540192505081905550816002600083815260200190815260200160002060006101000a81548173ffffffffffffffffffffffffffffffffffffffff021916908373ffffffffffffffffffffffffffffffffffffffff160217905550808273ffffffffffffffffffffffffffffffffffffffff168473ffffffffffffffffffffffffffffffffffffffff167fddf252ad1be2c89b69c2b068fc378daa952ba7f163c4a11628f55a4df523b3ef60405160405180910390a46117ef8383836001611ddc565b505050565b60006002600083815260200190815260200160002060009054906101000a900473ffffffffffffffffffffffffffffffffffffffff169050919050565b6118396113a5565b73ffffffffffffffffffffffffffffffffffffffff16611857610b59565b73ffffffffffffffffffffffffffffffffffffffff16146118ad576040517f08c379a00000000000000000000000000000000000000000000000000000000081526004016118a490613439565b60405180910390fd5b565b6000600660009054906101000a900473ffffffffffffffffffffffffffffffffffffffff16905081600660006101000a81548173ffffffffffffffffffffffffffffffffffffffff021916908373ffffffffffffffffffffffffffffffffffffffff1602179055508173ffffffffffffffffffffffffffffffffffffffff168173ffffffffffffffffffffffffffffffffffffffff167f8be0079c531659141344cd1fd0a4f28419497f9722a3daafe3b4186f6b6457e060405160405180910390a35050565b60008073ffffffffffffffffffffffffffffffffffffffff16611997836117f4565b73ffffffffffffffffffffffffffffffffffffffff1614159050919050565b6000826119c38584611de2565b1490509392505050565b8173ffffffffffffffffffffffffffffffffffffffff168373ffffffffffffffffffffffffffffffffffffffff1603611a3b576040517f08c379a0000000000000000000000000000000000000000000000000000000008152600401611a32906134a5565b60405180910390fd5b80600560008573ffffffffffffffffffffffffffffffffffffffff1673ffffffffffffffffffffffffffffffffffffffff16815260200190815260200160002060008473ffffffffffffffffffffffffffffffffffffffff1673ffffffffffffffffffffffffffffffffffffffff16815260200190815260200160002060006101000a81548160ff0219169083151502179055508173ffffffffffffffffffffffffffffffffffffffff168373ffffffffffffffffffffffffffffffffffffffff167f17307eab39ab6107e8899845ad3d59bd9653f200f220920489ca2b5937696c3183604051611b2c9190612100565b60405180910390a3505050565b611b448484846114fb565b611b5084848484611e32565b611b8f576040517f08c379a0000000000000000000000000000000000000000000000000000000008152600401611b8690613537565b60405180910390fd5b50505050565b6001816000016000828254019250508190555050565b600081600001549050919050565b600073ffffffffffffffffffffffffffffffffffffffff168273ffffffffffffffffffffffffffffffffffffffff1603611c28576040517f08c379a0000000000000000000000000000000000000000000000000000000008152600401611c1f906135a3565b60405180910390fd5b611c3181611975565b15611c71576040517f08c379a0000000000000000000000000000000000000000000000000000000008152600401611c689061360f565b60405180910390fd5b611c7f600083836001611dd6565b611c8881611975565b15611cc8576040517f08c379a0000000000000000000000000000000000000000000000000000000008152600401611cbf9061360f565b60405180910390fd5b6001600360008473ffffffffffffffffffffffffffffffffffffffff1673ffffffffffffffffffffffffffffffffffffffff16815260200190815260200160002060008282540192505081905550816002600083815260200190815260200160002060006101000a81548173ffffffffffffffffffffffffffffffffffffffff021916908373ffffffffffffffffffffffffffffffffffffffff160217905550808273ffffffffffffffffffffffffffffffffffffffff16600073ffffffffffffffffffffffffffffffffffffffff167fddf252ad1be2c89b69c2b068fc378daa952ba7f163c4a11628f55a4df523b3ef60405160405180910390a4611dd2600083836001611ddc565b5050565b50505050565b50505050565b60008082905060005b8451811015611e2757611e1882868381518110611e0b57611e0a61362f565b5b6020026020010151611fb9565b91508080600101915050611deb565b508091505092915050565b6000611e538473ffffffffffffffffffffffffffffffffffffffff16611fe4565b15611fac578373ffffffffffffffffffffffffffffffffffffffff1663150b7a02611e7c6113a5565b8786866040518563ffffffff1660e01b8152600401611e9e94939291906136b3565b6020604051808303816000875af1925050508015611eda57506040513d601f19601f82011682018060405250810190611ed79190613714565b60015b611f5c573d8060008114611f0a576040519150601f19603f3d011682016040523d82523d6000602084013e611f0f565b606091505b506000815103611f54576040517f08c379a0000000000000000000000000000000000000000000000000000000008152600401611f4b90613537565b60405180910390fd5b805181602001fd5b63150b7a0260e01b7bffffffffffffffffffffffffffffffffffffffffffffffffffffffff1916817bffffffffffffffffffffffffffffffffffffffffffffffffffffffff191614915050611fb1565b600190505b949350505050565b6000818310611fd157611fcc8284612007565b611fdc565b611fdb8383612007565b5b905092915050565b6000808273ffffffffffffffffffffffffffffffffffffffff163b119050919050565b600082600052816020526040600020905092915050565b6040518060800160405280606081526020016060815260200160008019168152602001600080191681525090565b6000604051905090565b600080fd5b600080fd5b60007fffffffff0000000000000000000000000000000000000000000000000000000082169050919050565b61209581612060565b81146120a057600080fd5b50565b6000813590506120b28161208c565b92915050565b6000602082840312156120ce576120cd612056565b5b60006120dc848285016120a3565b91505092915050565b60008115159050919050565b6120fa816120e5565b82525050565b600060208201905061211560008301846120f1565b92915050565b600081519050919050565b600082825260208201905092915050565b60005b8381101561215557808201518184015260208101905061213a565b60008484015250505050565b6000601f19601f8301169050919050565b600061217d8261211b565b6121878185612126565b9350612197818560208601612137565b6121a081612161565b840191505092915050565b600060208201905081810360008301526121c58184612172565b905092915050565b6000819050919050565b6121e0816121cd565b81146121eb57600080fd5b50565b6000813590506121fd816121d7565b92915050565b60006020828403121561221957612218612056565b5b6000612227848285016121ee565b91505092915050565b600073ffffffffffffffffffffffffffffffffffffffff82169050919050565b600061225b82612230565b9050919050565b61226b81612250565b82525050565b60006020820190506122866000830184612262565b92915050565b61229581612250565b81146122a057600080fd5b50565b6000813590506122b28161228c565b92915050565b600080604083850312156122cf576122ce612056565b5b60006122dd858286016122a3565b92505060206122ee858286016121ee565b9150509250929050565b60008060006060848603121561231157612310612056565b5b600061231f868287016122a3565b9350506020612330868287016122a3565b9250506040612341868287016121ee565b9150509250925092565b600082825260208201905092915050565b60006123678261211b565b612371818561234b565b9350612381818560208601612137565b61238a81612161565b840191505092915050565b6000819050919050565b6123a881612395565b82525050565b600060808301600083015184820360008601526123cb828261235c565b915050602083015184820360208601526123e5828261235c565b91505060408301516123fa604086018261239f565b50606083015161240d606086018261239f565b508091505092915050565b6000602082019050818103600083015261243281846123ae565b905092915050565b6000602082840312156124505761244f612056565b5b600061245e848285016122a3565b91505092915050565b612470816121cd565b82525050565b600060208201905061248b6000830184612467565b92915050565b600080fd5b600080fd5b600080fd5b60008083601f8401126124b6576124b5612491565b5b8235905067ffffffffffffffff8111156124d3576124d2612496565b5b6020830191508360208202830111156124ef576124ee61249b565b5b9250929050565b60008060006040848603121561250f5761250e612056565b5b600061251d868287016121ee565b935050602084013567ffffffffffffffff81111561253e5761253d61205b565b5b61254a868287016124a0565b92509250509250925092565b61255f816120e5565b811461256a57600080fd5b50565b60008135905061257c81612556565b92915050565b6000806040838503121561259957612598612056565b5b60006125a7858286016122a3565b92505060206125b88582860161256d565b9150509250929050565b600080fd5b7f4e487b7100000000000000000000000000000000000000000000000000000000600052604160045260246000fd5b6125ff82612161565b810181811067ffffffffffffffff8211171561261e5761261d6125c7565b5b80604052505050565b600061263161204c565b905061263d82826125f6565b919050565b600067ffffffffffffffff82111561265d5761265c6125c7565b5b61266682612161565b9050602081019050919050565b82818337600083830152505050565b600061269561269084612642565b612627565b9050828152602081018484840111156126b1576126b06125c2565b5b6126bc848285612673565b509392505050565b600082601f8301126126d9576126d8612491565b5b81356126e9848260208601612682565b91505092915050565b6000806000806080858703121561270c5761270b612056565b5b600061271a878288016122a3565b945050602061272b878288016122a3565b935050604061273c878288016121ee565b925050606085013567ffffffffffffffff81111561275d5761275c61205b565b5b612769878288016126c4565b91505092959194509250565b600067ffffffffffffffff8211156127905761278f6125c7565b5b61279982612161565b9050602081019050919050565b60006127b96127b484612775565b612627565b9050828152602081018484840111156127d5576127d46125c2565b5b6127e0848285612673565b509392505050565b600082601f8301126127fd576127fc612491565b5b813561280d8482602086016127a6565b91505092915050565b61281f81612395565b811461282a57600080fd5b50565b60008135905061283c81612816565b92915050565b6000806000806080858703121561285c5761285b612056565b5b600085013567ffffffffffffffff81111561287a5761287961205b565b5b612886878288016127e8565b945050602085013567ffffffffffffffff8111156128a7576128a661205b565b5b6128b3878288016127e8565b93505060406128c48782880161282d565b92505060606128d58782880161282d565b91505092959194509250565b600080604083850312156128f8576128f7612056565b5b6000612906858286016122a3565b9250506020612917858286016122a3565b9150509250929050565b7f4e487b7100000000000000000000000000000000000000000000000000000000600052602260045260246000fd5b6000600282049050600182168061296857607f821691505b60208210810361297b5761297a612921565b5b50919050565b7f4552433732313a20617070726f76616c20746f2063757272656e74206f776e6560008201527f7200000000000000000000000000000000000000000000000000000000000000602082015250565b60006129dd602183612126565b91506129e882612981565b604082019050919050565b60006020820190508181036000830152612a0c816129d0565b9050919050565b7f4552433732313a20617070726f76652063616c6c6572206973206e6f7420746f60008201527f6b656e206f776e6572206f7220617070726f76656420666f7220616c6c000000602082015250565b6000612a6f603d83612126565b9150612a7a82612a13565b604082019050919050565b60006020820190508181036000830152612a9e81612a62565b9050919050565b7f4552433732313a2063616c6c6572206973206e6f7420746f6b656e206f776e6560008201527f72206f7220617070726f76656400000000000000000000000000000000000000602082015250565b6000612b01602d83612126565b9150612b0c82612aa5565b604082019050919050565b60006020820190508181036000830152612b3081612af4565b9050919050565b7f4552433732313a20696e76616c696420746f6b656e2049440000000000000000600082015250565b6000612b6d601883612126565b9150612b7882612b37565b602082019050919050565b60006020820190508181036000830152612b9c81612b60565b9050919050565b7f4552433732313a2061646472657373207a65726f206973206e6f74206120766160008201527f6c6964206f776e65720000000000000000000000000000000000000000000000602082015250565b6000612bff602983612126565b9150612c0a82612ba3565b604082019050919050565b60006020820190508181036000830152612c2e81612bf2565b9050919050565b7f4552433732313a20616420646f6573206e6f7420657869737400000000000000600082015250565b6000612c6b601983612126565b9150612c7682612c35565b602082019050919050565b60006020820190508181036000830152612c9a81612c5e565b9050919050565b60008160601b9050919050565b6000612cb982612ca1565b9050919050565b6000612ccb82612cae565b9050919050565b612ce3612cde82612250565b612cc0565b82525050565b6000612cf58284612cd2565b60148201915081905092915050565b7f4552433732314d657461646174613a2055524920717565727920666f72206e6f60008201527f6e6578697374656e7420746f6b656e0000000000000000000000000000000000602082015250565b6000612d60602f83612126565b9150612d6b82612d04565b604082019050919050565b60006020820190508181036000830152612d8f81612d53565b9050919050565b60008190508160005260206000209050919050565b60006020601f8301049050919050565b600082821b905092915050565b600060088302612df87fffffffffffffffffffffffffffffffffffffffffffffffffffffffffffffffff82612dbb565b612e028683612dbb565b95508019841693508086168417925050509392505050565b6000819050919050565b6000612e3f612e3a612e35846121cd565b612e1a565b6121cd565b9050919050565b6000819050919050565b612e5983612e24565b612e6d612e6582612e46565b848454612dc8565b825550505050565b600090565b612e82612e75565b612e8d818484612e50565b505050565b5b81811015612eb157612ea6600082612e7a565b600181019050612e93565b5050565b601f821115612ef657612ec781612d96565b612ed084612dab565b81016020851015612edf578190505b612ef3612eeb85612dab565b830182612e92565b50505b505050565b600082821c905092915050565b6000612f1960001984600802612efb565b1980831691505092915050565b6000612f328383612f08565b9150826002028217905092915050565b612f4b8261211b565b67ffffffffffffffff811115612f6457612f636125c7565b5b612f6e8254612950565b612f79828285612eb5565b600060209050601f831160018114612fac5760008415612f9a578287015190505b612fa48582612f26565b86555061300c565b601f198416612fba86612d96565b60005b82811015612fe257848901518255600182019150602085019450602081019050612fbd565b86831015612fff5784890151612ffb601f891682612f08565b8355505b6001600288020188555050505b505050505050565b60008154905061302381612950565b9050919050565b818103613038575050613110565b61304182613014565b67ffffffffffffffff81111561305a576130596125c7565b5b6130648254612950565b61306f828285612eb5565b6000601f83116001811461309e576000841561308c578287015490505b6130968582612f26565b865550613109565b601f1984166130ac87612d96565b96506130b786612d96565b60005b828110156130df578489015482556001820191506001850194506020810190506130ba565b868310156130fc57848901546130f8601f891682612f08565b8355505b6001600288020188555050505b5050505050505b565b7f4f776e61626c653a206e6577206f776e657220697320746865207a65726f206160008201527f6464726573730000000000000000000000000000000000000000000000000000602082015250565b600061316e602683612126565b915061317982613112565b604082019050919050565b6000602082019050818103600083015261319d81613161565b9050919050565b7f616c7265616479207369676e6564206164000000000000000000000000000000600082015250565b60006131da601183612126565b91506131e5826131a4565b602082019050919050565b60006020820190508181036000830152613209816131cd565b9050919050565b7f53656e646572206e6f7420696e207461726765742061756469656e6365000000600082015250565b6000613246601d83612126565b915061325182613210565b602082019050919050565b6000602082019050818103600083015261327581613239565b9050919050565b6000819050919050565b61329761329282612395565b61327c565b82525050565b60006132a98285613286565b6020820191506132b98284612cd2565b6014820191508190509392505050565b7f4552433732313a207472616e736665722066726f6d20696e636f72726563742060008201527f6f776e6572000000000000000000000000000000000000000000000000000000602082015250565b6000613325602583612126565b9150613330826132c9565b604082019050919050565b6000602082019050818103600083015261335481613318565b9050919050565b7f4552433732313a207472616e7366657220746f20746865207a65726f2061646460008201527f7265737300000000000000000000000000000000000000000000000000000000602082015250565b60006133b7602483612126565b91506133c28261335b565b604082019050919050565b600060208201905081810360008301526133e6816133aa565b9050919050565b7f4f776e61626c653a2063616c6c6572206973206e6f7420746865206f776e6572600082015250565b6000613423602083612126565b915061342e826133ed565b602082019050919050565b6000602082019050818103600083015261345281613416565b9050919050565b7f4552433732313a20617070726f766520746f2063616c6c657200000000000000600082015250565b600061348f601983612126565b915061349a82613459565b602082019050919050565b600060208201905081810360008301526134be81613482565b9050919050565b7f4552433732313a207472616e7366657220746f206e6f6e20455243373231526560008201527f63656976657220696d706c656d656e7465720000000000000000000000000000602082015250565b6000613521603283612126565b915061352c826134c5565b604082019050919050565b6000602082019050818103600083015261355081613514565b9050919050565b7f4552433732313a206d696e7420746f20746865207a65726f2061646472657373600082015250565b600061358d602083612126565b915061359882613557565b602082019050919050565b600060208201905081810360008301526135bc81613580565b9050919050565b7f4552433732313a20746f6b656e20616c7265616479206d696e74656400000000600082015250565b60006135f9601c83612126565b9150613604826135c3565b602082019050919050565b60006020820190508181036000830152613628816135ec565b9050919050565b7f4e487b7100000000000000000000000000000000000000000000000000000000600052603260045260246000fd5b600081519050919050565b600082825260208201905092915050565b60006136858261365e565b61368f8185613669565b935061369f818560208601612137565b6136a881612161565b840191505092915050565b60006080820190506136c86000830187612262565b6136d56020830186612262565b6136e26040830185612467565b81810360608301526136f4818461367a565b905095945050505050565b60008151905061370e8161208c565b92915050565b60006020828403121561372a57613729612056565b5b6000613738848285016136ff565b9150509291505056fea2646970667358221220ba45d6dbe47efdbfd54e6ac9054f77ed88b61d28d6fc0305f6dccaba072b825564736f6c63430008180033",
  "linkReferences": {},
  "deployedLinkReferences": {}
}