{
  "_format": "hh-sol-artifact-1",
  "contractName": "ERCAd",
  "sourceName": "contracts/ERCAd/ERCAd.sol",
  "abi": [
    {
      "inputs": [
        {
          "internalType": "string",
          "name": "name",
          "type": "string"
        },
        {
          "internalType": "string",
          "name": "symbol",
          "type": "string"
        }
      ],
      "stateMutability": "nonpayable",
      "type": "constructor"
    },
    {
      "anonymous": false,
      "inputs": [
        {
          "indexed": true,
          "internalType": "address",
          "name": "owner",
          "type": "address"
        },
        {
          "indexed": true,
          "internalType": "address",
          "name": "approved",
          "type": "address"
        },
        {
          "indexed": true,
          "internalType": "uint256",
          "name": "tokenId",
          "type": "uint256"
        }
      ],
      "name": "Approval",
      "type": "event"
    },
    {
      "anonymous": false,
      "inputs": [
        {
          "indexed": true,
          "internalType": "address",
          "name": "owner",
          "type": "address"
        },
        {
          "indexed": true,
          "internalType": "address",
          "name": "operator",
          "type": "address"
        },
        {
          "indexed": false,
          "internalType": "bool",
          "name": "approved",
          "type": "bool"
        }
      ],
      "name": "ApprovalForAll",
      "type": "event"
    },
    {
      "anonymous": false,
      "inputs": [
        {
          "indexed": true,
          "internalType": "address",
          "name": "previousOwner",
          "type": "address"
        },
        {
          "indexed": true,
          "internalType": "address",
          "name": "newOwner",
          "type": "address"
        }
      ],
      "name": "OwnershipTransferred",
      "type": "event"
    },
    {
      "anonymous": false,
      "inputs": [
        {
          "indexed": true,
          "internalType": "address",
          "name": "from",
          "type": "address"
        },
        {
          "indexed": true,
          "internalType": "address",
          "name": "to",
          "type": "address"
        },
        {
          "indexed": true,
          "internalType": "uint256",
          "name": "tokenId",
          "type": "uint256"
        }
      ],
      "name": "Transfer",
      "type": "event"
    },
    {
      "inputs": [
        {
          "internalType": "address",
          "name": "to",
          "type": "address"
        },
        {
          "internalType": "uint256",
          "name": "tokenId",
          "type": "uint256"
        }
      ],
      "name": "approve",
      "outputs": [],
      "stateMutability": "nonpayable",
      "type": "function"
    },
    {
      "inputs": [
        {
          "internalType": "address",
          "name": "owner",
          "type": "address"
        }
      ],
      "name": "balanceOf",
      "outputs": [
        {
          "internalType": "uint256",
          "name": "",
          "type": "uint256"
        }
      ],
      "stateMutability": "view",
      "type": "function"
    },
    {
      "inputs": [
        {
          "internalType": "uint256",
          "name": "id",
          "type": "uint256"
        }
      ],
      "name": "displayAd",
      "outputs": [
        {
          "components": [
            {
              "internalType": "string",
              "name": "adURI",
              "type": "string"
            },
            {
              "internalType": "string",
              "name": "dataURI",
              "type": "string"
            },
            {
              "internalType": "bytes32",
              "name": "signatureRoot",
              "type": "bytes32"
            },
            {
              "internalType": "bytes32",
              "name": "audienceRoot",
              "type": "bytes32"
            }
          ],
          "internalType": "struct IERCAd.Ad",
          "name": "",
          "type": "tuple"
        }
      ],
      "stateMutability": "view",
      "type": "function"
    },
    {
      "inputs": [
        {
          "internalType": "uint256",
          "name": "tokenId",
          "type": "uint256"
        }
      ],
      "name": "getApproved",
      "outputs": [
        {
          "internalType": "address",
          "name": "",
          "type": "address"
        }
      ],
      "stateMutability": "view",
      "type": "function"
    },
    {
      "inputs": [
        {
          "internalType": "address",
          "name": "",
          "type": "address"
        }
      ],
      "name": "hasSigned",
      "outputs": [
        {
          "internalType": "bool",
          "name": "",
          "type": "bool"
        }
      ],
      "stateMutability": "view",
      "type": "function"
    },
    {
      "inputs": [
        {
          "internalType": "address",
          "name": "owner",
          "type": "address"
        },
        {
          "internalType": "address",
          "name": "operator",
          "type": "address"
        }
      ],
      "name": "isApprovedForAll",
      "outputs": [
        {
          "internalType": "bool",
          "name": "",
          "type": "bool"
        }
      ],
      "stateMutability": "view",
      "type": "function"
    },
    {
      "inputs": [
        {
          "internalType": "uint256",
          "name": "id",
          "type": "uint256"
        },
        {
          "internalType": "bytes32[]",
          "name": "proof",
          "type": "bytes32[]"
        }
      ],
      "name": "isInAudience",
      "outputs": [
        {
          "internalType": "bool",
          "name": "",
          "type": "bool"
        }
      ],
      "stateMutability": "view",
      "type": "function"
    },
    {
      "inputs": [],
      "name": "name",
      "outputs": [
        {
          "internalType": "string",
          "name": "",
          "type": "string"
        }
      ],
      "stateMutability": "view",
      "type": "function"
    },
    {
      "inputs": [],
      "name": "owner",
      "outputs": [
        {
          "internalType": "address",
          "name": "",
          "type": "address"
        }
      ],
      "stateMutability": "view",
      "type": "function"
    },
    {
      "inputs": [
        {
          "internalType": "uint256",
          "name": "tokenId",
          "type": "uint256"
        }
      ],
      "name": "ownerOf",
      "outputs": [
        {
          "internalType": "address",
          "name": "",
          "type": "address"
        }
      ],
      "stateMutability": "view",
      "type": "function"
    },
    {
      "inputs": [],
      "name": "renounceOwnership",
      "outputs": [],
      "stateMutability": "nonpayable",
      "type": "function"
    },
    {
      "inputs": [
        {
          "internalType": "address",
          "name": "from",
          "type": "address"
        },
        {
          "internalType": "address",
          "name": "to",
          "type": "address"
        },
        {
          "internalType": "uint256",
          "name": "tokenId",
          "type": "uint256"
        }
      ],
      "name": "safeTransferFrom",
      "outputs": [],
      "stateMutability": "nonpayable",
      "type": "function"
    },
    {
      "inputs": [
        {
          "internalType": "address",
          "name": "from",
          "type": "address"
        },
        {
          "internalType": "address",
          "name": "to",
          "type": "address"
        },
        {
          "internalType": "uint256",
          "name": "tokenId",
          "type": "uint256"
        },
        {
          "internalType": "bytes",
          "name": "data",
          "type": "bytes"
        }
      ],
      "name": "safeTransferFrom",
      "outputs": [],
      "stateMutability": "nonpayable",
      "type": "function"
    },
    {
      "inputs": [
        {
          "internalType": "string",
          "name": "adURI",
          "type": "string"
        },
        {
          "internalType": "string",
          "name": "dataURI",
          "type": "string"
        },
        {
          "internalType": "bytes32",
          "name": "signatureRoot",
          "type": "bytes32"
        },
        {
          "internalType": "bytes32",
          "name": "audienceRoot",
          "type": "bytes32"
        }
      ],
      "name": "setAd",
      "outputs": [],
      "stateMutability": "nonpayable",
      "type": "function"
    },
    {
      "inputs": [
        {
          "internalType": "address",
          "name": "operator",
          "type": "address"
        },
        {
          "internalType": "bool",
          "name": "approved",
          "type": "bool"
        }
      ],
      "name": "setApprovalForAll",
      "outputs": [],
      "stateMutability": "nonpayable",
      "type": "function"
    },
    {
      "inputs": [
        {
          "internalType": "uint256",
          "name": "id",
          "type": "uint256"
        },
        {
          "internalType": "bytes32[]",
          "name": "proof",
          "type": "bytes32[]"
        }
      ],
      "name": "signAd",
      "outputs": [],
      "stateMutability": "nonpayable",
      "type": "function"
    },
    {
      "inputs": [
        {
          "internalType": "bytes4",
          "name": "interfaceId",
          "type": "bytes4"
        }
      ],
      "name": "supportsInterface",
      "outputs": [
        {
          "internalType": "bool",
          "name": "",
          "type": "bool"
        }
      ],
      "stateMutability": "view",
      "type": "function"
    },
    {
      "inputs": [],
      "name": "symbol",
      "outputs": [
        {
          "internalType": "string",
          "name": "",
          "type": "string"
        }
      ],
      "stateMutability": "view",
      "type": "function"
    },
    {
      "inputs": [
        {
          "internalType": "uint256",
          "name": "tokenId",
          "type": "uint256"
        }
      ],
      "name": "tokenURI",
      "outputs": [
        {
          "internalType": "string",
          "name": "",
          "type": "string"
        }
      ],
      "stateMutability": "view",
      "type": "function"
    },
    {
      "inputs": [
        {
          "internalType": "address",
          "name": "from",
          "type": "address"
        },
        {
          "internalType": "address",
          "name": "to",
          "type": "address"
        },
        {
          "internalType": "uint256",
          "name": "tokenId",
          "type": "uint256"
        }
      ],
      "name": "transferFrom",
      "outputs": [],
      "stateMutability": "nonpayable",
      "type": "function"
    },
    {
      "inputs": [
        {
          "internalType": "address",
          "name": "newOwner",
          "type": "address"
        }
      ],
      "name": "transferOwnership",
      "outputs": [],
      "stateMutability": "nonpayable",
      "type": "function"
    }
  ],
  "bytecode": "0x60806040523480156200001157600080fd5b5060405162003bb338038062003bb38339818101604052810190620000379190620002e8565b818181600090816200004a9190620005b8565b5080600190816200005c9190620005b8565b5050506200007f620000736200008760201b60201c565b6200008f60201b60201c565b50506200069f565b600033905090565b6000600660009054906101000a900473ffffffffffffffffffffffffffffffffffffffff16905081600660006101000a81548173ffffffffffffffffffffffffffffffffffffffff021916908373ffffffffffffffffffffffffffffffffffffffff1602179055508173ffffffffffffffffffffffffffffffffffffffff168173ffffffffffffffffffffffffffffffffffffffff167f8be0079c531659141344cd1fd0a4f28419497f9722a3daafe3b4186f6b6457e060405160405180910390a35050565b6000604051905090565b600080fd5b600080fd5b600080fd5b600080fd5b6000601f19601f8301169050919050565b7f4e487b7100000000000000000000000000000000000000000000000000000000600052604160045260246000fd5b620001be8262000173565b810181811067ffffffffffffffff82111715620001e057620001df62000184565b5b80604052505050565b6000620001f562000155565b9050620002038282620001b3565b919050565b600067ffffffffffffffff82111562000226576200022562000184565b5b620002318262000173565b9050602081019050919050565b60005b838110156200025e57808201518184015260208101905062000241565b60008484015250505050565b6000620002816200027b8462000208565b620001e9565b905082815260208101848484011115620002a0576200029f6200016e565b5b620002ad8482856200023e565b509392505050565b600082601f830112620002cd57620002cc62000169565b5b8151620002df8482602086016200026a565b91505092915050565b600080604083850312156200030257620003016200015f565b5b600083015167ffffffffffffffff81111562000323576200032262000164565b5b6200033185828601620002b5565b925050602083015167ffffffffffffffff81111562000355576200035462000164565b5b6200036385828601620002b5565b9150509250929050565b600081519050919050565b7f4e487b7100000000000000000000000000000000000000000000000000000000600052602260045260246000fd5b60006002820490506001821680620003c057607f821691505b602082108103620003d657620003d562000378565b5b50919050565b60008190508160005260206000209050919050565b60006020601f8301049050919050565b600082821b905092915050565b600060088302620004407fffffffffffffffffffffffffffffffffffffffffffffffffffffffffffffffff8262000401565b6200044c868362000401565b95508019841693508086168417925050509392505050565b6000819050919050565b6000819050919050565b600062000499620004936200048d8462000464565b6200046e565b62000464565b9050919050565b6000819050919050565b620004b58362000478565b620004cd620004c482620004a0565b8484546200040e565b825550505050565b600090565b620004e4620004d5565b620004f1818484620004aa565b505050565b5b8181101562000519576200050d600082620004da565b600181019050620004f7565b5050565b601f82111562000568576200053281620003dc565b6200053d84620003f1565b810160208510156200054d578190505b620005656200055c85620003f1565b830182620004f6565b50505b505050565b600082821c905092915050565b60006200058d600019846008026200056d565b1980831691505092915050565b6000620005a883836200057a565b9150826002028217905092915050565b620005c3826200036d565b67ffffffffffffffff811115620005df57620005de62000184565b5b620005eb8254620003a7565b620005f88282856200051d565b600060209050601f8311600181146200063057600084156200061b578287015190505b6200062785826200059a565b86555062000697565b601f1984166200064086620003dc565b60005b828110156200066a5784890151825560018201915060208501945060208101905062000643565b868310156200068a578489015162000686601f8916826200057a565b8355505b6001600288020188555050505b505050505050565b61350480620006af6000396000f3fe608060405234801561001057600080fd5b50600436106101375760003560e01c80638da5cb5b116100b8578063c87b56dd1161007c578063c87b56dd1461034c578063d13e2af91461037c578063dfe194fe14610398578063e985e9c5146103c8578063f2fde38b146103f8578063fe49e8331461041457610137565b80638da5cb5b146102a857806395d89b41146102c6578063a22cb465146102e4578063b88d4fde14610300578063bf6a14131461031c57610137565b806342842e0e116100ff57806342842e0e146101f25780636352211e1461020e578063672fb9691461023e57806370a082311461026e578063715018a61461029e57610137565b806301ffc9a71461013c57806306fdde031461016c578063081812fc1461018a578063095ea7b3146101ba57806323b872dd146101d6575b600080fd5b61015660048036038101906101519190611eb1565b610430565b6040516101639190611ef9565b60405180910390f35b610174610512565b6040516101819190611fa4565b60405180910390f35b6101a4600480360381019061019f9190611ffc565b6105a4565b6040516101b1919061206a565b60405180910390f35b6101d460048036038101906101cf91906120b1565b6105ea565b005b6101f060048036038101906101eb91906120f1565b610701565b005b61020c600480360381019061020791906120f1565b610761565b005b61022860048036038101906102239190611ffc565b610781565b604051610235919061206a565b60405180910390f35b61025860048036038101906102539190611ffc565b610807565b6040516102659190612211565b60405180910390f35b61028860048036038101906102839190612233565b61096c565b604051610295919061226f565b60405180910390f35b6102a6610a23565b005b6102b0610a37565b6040516102bd919061206a565b60405180910390f35b6102ce610a61565b6040516102db9190611fa4565b60405180910390f35b6102fe60048036038101906102f991906122b6565b610af3565b005b61031a6004803603810190610315919061242b565b610b09565b005b61033660048036038101906103319190612233565b610b6b565b6040516103439190611ef9565b60405180910390f35b61036660048036038101906103619190611ffc565b610b8b565b6040516103739190611fa4565b60405180910390f35b6103966004803603810190610391919061257b565b610c6a565b005b6103b260048036038101906103ad919061267a565b610d68565b6040516103bf9190611ef9565b60405180910390f35b6103e260048036038101906103dd91906126da565b610e68565b6040516103ef9190611ef9565b60405180910390f35b610412600480360381019061040d9190612233565b610efc565b005b61042e6004803603810190610429919061267a565b610f7f565b005b60007f80ac58cd000000000000000000000000000000000000000000000000000000007bffffffffffffffffffffffffffffffffffffffffffffffffffffffff1916827bffffffffffffffffffffffffffffffffffffffffffffffffffffffff191614806104fb57507f5b5e139f000000000000000000000000000000000000000000000000000000007bffffffffffffffffffffffffffffffffffffffffffffffffffffffff1916827bffffffffffffffffffffffffffffffffffffffffffffffffffffffff1916145b8061050b575061050a826110e9565b5b9050919050565b60606000805461052190612749565b80601f016020809104026020016040519081016040528092919081815260200182805461054d90612749565b801561059a5780601f1061056f5761010080835404028352916020019161059a565b820191906000526020600020905b81548152906001019060200180831161057d57829003601f168201915b5050505050905090565b60006105af82611153565b6004600083815260200190815260200160002060009054906101000a900473ffffffffffffffffffffffffffffffffffffffff169050919050565b60006105f582610781565b90508073ffffffffffffffffffffffffffffffffffffffff168373ffffffffffffffffffffffffffffffffffffffff1603610665576040517f08c379a000000000000000000000000000000000000000000000000000000000815260040161065c906127ec565b60405180910390fd5b8073ffffffffffffffffffffffffffffffffffffffff1661068461119e565b73ffffffffffffffffffffffffffffffffffffffff1614806106b357506106b2816106ad61119e565b610e68565b5b6106f2576040517f08c379a00000000000000000000000000000000000000000000000000000000081526004016106e99061287e565b60405180910390fd5b6106fc83836111a6565b505050565b61071261070c61119e565b8261125f565b610751576040517f08c379a000000000000000000000000000000000000000000000000000000000815260040161074890612910565b60405180910390fd5b61075c8383836112f4565b505050565b61077c83838360405180602001604052806000815250610b09565b505050565b60008061078d836115ed565b9050600073ffffffffffffffffffffffffffffffffffffffff168173ffffffffffffffffffffffffffffffffffffffff16036107fe576040517f08c379a00000000000000000000000000000000000000000000000000000000081526004016107f59061297c565b60405180910390fd5b80915050919050565b61080f611e17565b600c600083815260200190815260200160002060405180608001604052908160008201805461083d90612749565b80601f016020809104026020016040519081016040528092919081815260200182805461086990612749565b80156108b65780601f1061088b576101008083540402835291602001916108b6565b820191906000526020600020905b81548152906001019060200180831161089957829003601f168201915b505050505081526020016001820180546108cf90612749565b80601f01602080910402602001604051908101604052809291908181526020018280546108fb90612749565b80156109485780601f1061091d57610100808354040283529160200191610948565b820191906000526020600020905b81548152906001019060200180831161092b57829003601f168201915b50505050508152602001600282015481526020016003820154815250509050919050565b60008073ffffffffffffffffffffffffffffffffffffffff168273ffffffffffffffffffffffffffffffffffffffff16036109dc576040517f08c379a00000000000000000000000000000000000000000000000000000000081526004016109d390612a0e565b60405180910390fd5b600360008373ffffffffffffffffffffffffffffffffffffffff1673ffffffffffffffffffffffffffffffffffffffff168152602001908152602001600020549050919050565b610a2b61162a565b610a3560006116a8565b565b6000600660009054906101000a900473ffffffffffffffffffffffffffffffffffffffff16905090565b606060018054610a7090612749565b80601f0160208091040260200160405190810160405280929190818152602001828054610a9c90612749565b8015610ae95780601f10610abe57610100808354040283529160200191610ae9565b820191906000526020600020905b815481529060010190602001808311610acc57829003601f168201915b5050505050905090565b610b05610afe61119e565b838361176e565b5050565b610b1a610b1461119e565b8361125f565b610b59576040517f08c379a0000000000000000000000000000000000000000000000000000000008152600401610b5090612910565b60405180910390fd5b610b65848484846118da565b50505050565b600d6020528060005260406000206000915054906101000a900460ff1681565b6060610b9682611936565b610bd5576040517f08c379a0000000000000000000000000000000000000000000000000000000008152600401610bcc90612aa0565b60405180910390fd5b60086000018054610be590612749565b80601f0160208091040260200160405190810160405280929190818152602001828054610c1190612749565b8015610c5e5780601f10610c3357610100808354040283529160200191610c5e565b820191906000526020600020905b815481529060010190602001808311610c4157829003601f168201915b50505050509050919050565b610c7261162a565b610c7c6007611977565b6000610c88600761198d565b9050604051806080016040528086815260200185815260200184815260200183815250600c60008381526020019081526020016000206000820151816000019081610cd39190612c6c565b506020820151816001019081610ce99190612c6c565b506040820151816002015560608201518160030155905050610d0b338261199b565b600c6000828152602001908152602001600020600860008201816000019081610d349190612d54565b5060018201816001019081610d499190612d54565b5060028201548160020155600382015481600301559050505050505050565b6000610d7384611936565b610db2576040517f08c379a0000000000000000000000000000000000000000000000000000000008152600401610da990612e88565b60405180910390fd5b6000600c600086815260200190815260200160002090506000801b816003015414610e5b57600033604051602001610dea9190612ef0565b604051602081830303815290604052805190602001209050610e52858580806020026020016040519081016040528093929190818152602001838360200280828437600081840152601f19601f82011690508083019250505050505050836003015483611bb8565b92505050610e61565b60019150505b9392505050565b6000600560008473ffffffffffffffffffffffffffffffffffffffff1673ffffffffffffffffffffffffffffffffffffffff16815260200190815260200160002060008373ffffffffffffffffffffffffffffffffffffffff1673ffffffffffffffffffffffffffffffffffffffff16815260200190815260200160002060009054906101000a900460ff16905092915050565b610f0461162a565b600073ffffffffffffffffffffffffffffffffffffffff168173ffffffffffffffffffffffffffffffffffffffff1603610f73576040517f08c379a0000000000000000000000000000000000000000000000000000000008152600401610f6a90612f7d565b60405180910390fd5b610f7c816116a8565b50565b610f8883611936565b610fc7576040517f08c379a0000000000000000000000000000000000000000000000000000000008152600401610fbe90612e88565b60405180910390fd5b6000600c600085815260200190815260200160002090506000801b8160030154146110a857600033604051602001610fff9190612ef0565b604051602081830303815290604052805190602001209050611067848480806020026020016040519081016040528093929190818152602001838360200280828437600081840152601f19601f82011690508083019250505050505050836003015483611bb8565b6110a6576040517f08c379a000000000000000000000000000000000000000000000000000000000815260040161109d90612fe9565b60405180910390fd5b505b60008160020154336040516020016110c192919061302a565b6040516020818303038152906040529050808051906020012082600201819055505050505050565b60007f01ffc9a7000000000000000000000000000000000000000000000000000000007bffffffffffffffffffffffffffffffffffffffffffffffffffffffff1916827bffffffffffffffffffffffffffffffffffffffffffffffffffffffff1916149050919050565b61115c81611936565b61119b576040517f08c379a00000000000000000000000000000000000000000000000000000000081526004016111929061297c565b60405180910390fd5b50565b600033905090565b816004600083815260200190815260200160002060006101000a81548173ffffffffffffffffffffffffffffffffffffffff021916908373ffffffffffffffffffffffffffffffffffffffff160217905550808273ffffffffffffffffffffffffffffffffffffffff1661121983610781565b73ffffffffffffffffffffffffffffffffffffffff167f8c5be1e5ebec7d5bd14f71427d1e84f3dd0314c0f7b2291e5b200ac8c7c3b92560405160405180910390a45050565b60008061126b83610781565b90508073ffffffffffffffffffffffffffffffffffffffff168473ffffffffffffffffffffffffffffffffffffffff1614806112ad57506112ac8185610e68565b5b806112eb57508373ffffffffffffffffffffffffffffffffffffffff166112d3846105a4565b73ffffffffffffffffffffffffffffffffffffffff16145b91505092915050565b8273ffffffffffffffffffffffffffffffffffffffff1661131482610781565b73ffffffffffffffffffffffffffffffffffffffff161461136a576040517f08c379a0000000000000000000000000000000000000000000000000000000008152600401611361906130c8565b60405180910390fd5b600073ffffffffffffffffffffffffffffffffffffffff168273ffffffffffffffffffffffffffffffffffffffff16036113d9576040517f08c379a00000000000000000000000000000000000000000000000000000000081526004016113d09061315a565b60405180910390fd5b6113e68383836001611bcf565b8273ffffffffffffffffffffffffffffffffffffffff1661140682610781565b73ffffffffffffffffffffffffffffffffffffffff161461145c576040517f08c379a0000000000000000000000000000000000000000000000000000000008152600401611453906130c8565b60405180910390fd5b6004600082815260200190815260200160002060006101000a81549073ffffffffffffffffffffffffffffffffffffffff02191690556001600360008573ffffffffffffffffffffffffffffffffffffffff1673ffffffffffffffffffffffffffffffffffffffff168152602001908152602001600020600082825403925050819055506001600360008473ffffffffffffffffffffffffffffffffffffffff1673ffffffffffffffffffffffffffffffffffffffff16815260200190815260200160002060008282540192505081905550816002600083815260200190815260200160002060006101000a81548173ffffffffffffffffffffffffffffffffffffffff021916908373ffffffffffffffffffffffffffffffffffffffff160217905550808273ffffffffffffffffffffffffffffffffffffffff168473ffffffffffffffffffffffffffffffffffffffff167fddf252ad1be2c89b69c2b068fc378daa952ba7f163c4a11628f55a4df523b3ef60405160405180910390a46115e88383836001611bd5565b505050565b60006002600083815260200190815260200160002060009054906101000a900473ffffffffffffffffffffffffffffffffffffffff169050919050565b61163261119e565b73ffffffffffffffffffffffffffffffffffffffff16611650610a37565b73ffffffffffffffffffffffffffffffffffffffff16146116a6576040517f08c379a000000000000000000000000000000000000000000000000000000000815260040161169d906131c6565b60405180910390fd5b565b6000600660009054906101000a900473ffffffffffffffffffffffffffffffffffffffff16905081600660006101000a81548173ffffffffffffffffffffffffffffffffffffffff021916908373ffffffffffffffffffffffffffffffffffffffff1602179055508173ffffffffffffffffffffffffffffffffffffffff168173ffffffffffffffffffffffffffffffffffffffff167f8be0079c531659141344cd1fd0a4f28419497f9722a3daafe3b4186f6b6457e060405160405180910390a35050565b8173ffffffffffffffffffffffffffffffffffffffff168373ffffffffffffffffffffffffffffffffffffffff16036117dc576040517f08c379a00000000000000000000000000000000000000000000000000000000081526004016117d390613232565b60405180910390fd5b80600560008573ffffffffffffffffffffffffffffffffffffffff1673ffffffffffffffffffffffffffffffffffffffff16815260200190815260200160002060008473ffffffffffffffffffffffffffffffffffffffff1673ffffffffffffffffffffffffffffffffffffffff16815260200190815260200160002060006101000a81548160ff0219169083151502179055508173ffffffffffffffffffffffffffffffffffffffff168373ffffffffffffffffffffffffffffffffffffffff167f17307eab39ab6107e8899845ad3d59bd9653f200f220920489ca2b5937696c31836040516118cd9190611ef9565b60405180910390a3505050565b6118e58484846112f4565b6118f184848484611bdb565b611930576040517f08c379a0000000000000000000000000000000000000000000000000000000008152600401611927906132c4565b60405180910390fd5b50505050565b60008073ffffffffffffffffffffffffffffffffffffffff16611958836115ed565b73ffffffffffffffffffffffffffffffffffffffff1614159050919050565b6001816000016000828254019250508190555050565b600081600001549050919050565b600073ffffffffffffffffffffffffffffffffffffffff168273ffffffffffffffffffffffffffffffffffffffff1603611a0a576040517f08c379a0000000000000000000000000000000000000000000000000000000008152600401611a0190613330565b60405180910390fd5b611a1381611936565b15611a53576040517f08c379a0000000000000000000000000000000000000000000000000000000008152600401611a4a9061339c565b60405180910390fd5b611a61600083836001611bcf565b611a6a81611936565b15611aaa576040517f08c379a0000000000000000000000000000000000000000000000000000000008152600401611aa19061339c565b60405180910390fd5b6001600360008473ffffffffffffffffffffffffffffffffffffffff1673ffffffffffffffffffffffffffffffffffffffff16815260200190815260200160002060008282540192505081905550816002600083815260200190815260200160002060006101000a81548173ffffffffffffffffffffffffffffffffffffffff021916908373ffffffffffffffffffffffffffffffffffffffff160217905550808273ffffffffffffffffffffffffffffffffffffffff16600073ffffffffffffffffffffffffffffffffffffffff167fddf252ad1be2c89b69c2b068fc378daa952ba7f163c4a11628f55a4df523b3ef60405160405180910390a4611bb4600083836001611bd5565b5050565b600082611bc58584611d62565b1490509392505050565b50505050565b50505050565b6000611bfc8473ffffffffffffffffffffffffffffffffffffffff16611db2565b15611d55578373ffffffffffffffffffffffffffffffffffffffff1663150b7a02611c2561119e565b8786866040518563ffffffff1660e01b8152600401611c479493929190613411565b6020604051808303816000875af1925050508015611c8357506040513d601f19601f82011682018060405250810190611c809190613472565b60015b611d05573d8060008114611cb3576040519150601f19603f3d011682016040523d82523d6000602084013e611cb8565b606091505b506000815103611cfd576040517f08c379a0000000000000000000000000000000000000000000000000000000008152600401611cf4906132c4565b60405180910390fd5b805181602001fd5b63150b7a0260e01b7bffffffffffffffffffffffffffffffffffffffffffffffffffffffff1916817bffffffffffffffffffffffffffffffffffffffffffffffffffffffff191614915050611d5a565b600190505b949350505050565b60008082905060005b8451811015611da757611d9882868381518110611d8b57611d8a61349f565b5b6020026020010151611dd5565b91508080600101915050611d6b565b508091505092915050565b6000808273ffffffffffffffffffffffffffffffffffffffff163b119050919050565b6000818310611ded57611de88284611e00565b611df8565b611df78383611e00565b5b905092915050565b600082600052816020526040600020905092915050565b6040518060800160405280606081526020016060815260200160008019168152602001600080191681525090565b6000604051905090565b600080fd5b600080fd5b60007fffffffff0000000000000000000000000000000000000000000000000000000082169050919050565b611e8e81611e59565b8114611e9957600080fd5b50565b600081359050611eab81611e85565b92915050565b600060208284031215611ec757611ec6611e4f565b5b6000611ed584828501611e9c565b91505092915050565b60008115159050919050565b611ef381611ede565b82525050565b6000602082019050611f0e6000830184611eea565b92915050565b600081519050919050565b600082825260208201905092915050565b60005b83811015611f4e578082015181840152602081019050611f33565b60008484015250505050565b6000601f19601f8301169050919050565b6000611f7682611f14565b611f808185611f1f565b9350611f90818560208601611f30565b611f9981611f5a565b840191505092915050565b60006020820190508181036000830152611fbe8184611f6b565b905092915050565b6000819050919050565b611fd981611fc6565b8114611fe457600080fd5b50565b600081359050611ff681611fd0565b92915050565b60006020828403121561201257612011611e4f565b5b600061202084828501611fe7565b91505092915050565b600073ffffffffffffffffffffffffffffffffffffffff82169050919050565b600061205482612029565b9050919050565b61206481612049565b82525050565b600060208201905061207f600083018461205b565b92915050565b61208e81612049565b811461209957600080fd5b50565b6000813590506120ab81612085565b92915050565b600080604083850312156120c8576120c7611e4f565b5b60006120d68582860161209c565b92505060206120e785828601611fe7565b9150509250929050565b60008060006060848603121561210a57612109611e4f565b5b60006121188682870161209c565b93505060206121298682870161209c565b925050604061213a86828701611fe7565b9150509250925092565b600082825260208201905092915050565b600061216082611f14565b61216a8185612144565b935061217a818560208601611f30565b61218381611f5a565b840191505092915050565b6000819050919050565b6121a18161218e565b82525050565b600060808301600083015184820360008601526121c48282612155565b915050602083015184820360208601526121de8282612155565b91505060408301516121f36040860182612198565b5060608301516122066060860182612198565b508091505092915050565b6000602082019050818103600083015261222b81846121a7565b905092915050565b60006020828403121561224957612248611e4f565b5b60006122578482850161209c565b91505092915050565b61226981611fc6565b82525050565b60006020820190506122846000830184612260565b92915050565b61229381611ede565b811461229e57600080fd5b50565b6000813590506122b08161228a565b92915050565b600080604083850312156122cd576122cc611e4f565b5b60006122db8582860161209c565b92505060206122ec858286016122a1565b9150509250929050565b600080fd5b600080fd5b7f4e487b7100000000000000000000000000000000000000000000000000000000600052604160045260246000fd5b61233882611f5a565b810181811067ffffffffffffffff8211171561235757612356612300565b5b80604052505050565b600061236a611e45565b9050612376828261232f565b919050565b600067ffffffffffffffff82111561239657612395612300565b5b61239f82611f5a565b9050602081019050919050565b82818337600083830152505050565b60006123ce6123c98461237b565b612360565b9050828152602081018484840111156123ea576123e96122fb565b5b6123f58482856123ac565b509392505050565b600082601f830112612412576124116122f6565b5b81356124228482602086016123bb565b91505092915050565b6000806000806080858703121561244557612444611e4f565b5b60006124538782880161209c565b94505060206124648782880161209c565b935050604061247587828801611fe7565b925050606085013567ffffffffffffffff81111561249657612495611e54565b5b6124a2878288016123fd565b91505092959194509250565b600067ffffffffffffffff8211156124c9576124c8612300565b5b6124d282611f5a565b9050602081019050919050565b60006124f26124ed846124ae565b612360565b90508281526020810184848401111561250e5761250d6122fb565b5b6125198482856123ac565b509392505050565b600082601f830112612536576125356122f6565b5b81356125468482602086016124df565b91505092915050565b6125588161218e565b811461256357600080fd5b50565b6000813590506125758161254f565b92915050565b6000806000806080858703121561259557612594611e4f565b5b600085013567ffffffffffffffff8111156125b3576125b2611e54565b5b6125bf87828801612521565b945050602085013567ffffffffffffffff8111156125e0576125df611e54565b5b6125ec87828801612521565b93505060406125fd87828801612566565b925050606061260e87828801612566565b91505092959194509250565b600080fd5b600080fd5b60008083601f84011261263a576126396122f6565b5b8235905067ffffffffffffffff8111156126575761265661261a565b5b6020830191508360208202830111156126735761267261261f565b5b9250929050565b60008060006040848603121561269357612692611e4f565b5b60006126a186828701611fe7565b935050602084013567ffffffffffffffff8111156126c2576126c1611e54565b5b6126ce86828701612624565b92509250509250925092565b600080604083850312156126f1576126f0611e4f565b5b60006126ff8582860161209c565b92505060206127108582860161209c565b9150509250929050565b7f4e487b7100000000000000000000000000000000000000000000000000000000600052602260045260246000fd5b6000600282049050600182168061276157607f821691505b6020821081036127745761277361271a565b5b50919050565b7f4552433732313a20617070726f76616c20746f2063757272656e74206f776e6560008201527f7200000000000000000000000000000000000000000000000000000000000000602082015250565b60006127d6602183611f1f565b91506127e18261277a565b604082019050919050565b60006020820190508181036000830152612805816127c9565b9050919050565b7f4552433732313a20617070726f76652063616c6c6572206973206e6f7420746f60008201527f6b656e206f776e6572206f7220617070726f76656420666f7220616c6c000000602082015250565b6000612868603d83611f1f565b91506128738261280c565b604082019050919050565b600060208201905081810360008301526128978161285b565b9050919050565b7f4552433732313a2063616c6c6572206973206e6f7420746f6b656e206f776e6560008201527f72206f7220617070726f76656400000000000000000000000000000000000000602082015250565b60006128fa602d83611f1f565b91506129058261289e565b604082019050919050565b60006020820190508181036000830152612929816128ed565b9050919050565b7f4552433732313a20696e76616c696420746f6b656e2049440000000000000000600082015250565b6000612966601883611f1f565b915061297182612930565b602082019050919050565b6000602082019050818103600083015261299581612959565b9050919050565b7f4552433732313a2061646472657373207a65726f206973206e6f74206120766160008201527f6c6964206f776e65720000000000000000000000000000000000000000000000602082015250565b60006129f8602983611f1f565b9150612a038261299c565b604082019050919050565b60006020820190508181036000830152612a27816129eb565b9050919050565b7f4552433732314d657461646174613a2055524920717565727920666f72206e6f60008201527f6e6578697374656e7420746f6b656e0000000000000000000000000000000000602082015250565b6000612a8a602f83611f1f565b9150612a9582612a2e565b604082019050919050565b60006020820190508181036000830152612ab981612a7d565b9050919050565b60008190508160005260206000209050919050565b60006020601f8301049050919050565b600082821b905092915050565b600060088302612b227fffffffffffffffffffffffffffffffffffffffffffffffffffffffffffffffff82612ae5565b612b2c8683612ae5565b95508019841693508086168417925050509392505050565b6000819050919050565b6000612b69612b64612b5f84611fc6565b612b44565b611fc6565b9050919050565b6000819050919050565b612b8383612b4e565b612b97612b8f82612b70565b848454612af2565b825550505050565b600090565b612bac612b9f565b612bb7818484612b7a565b505050565b5b81811015612bdb57612bd0600082612ba4565b600181019050612bbd565b5050565b601f821115612c2057612bf181612ac0565b612bfa84612ad5565b81016020851015612c09578190505b612c1d612c1585612ad5565b830182612bbc565b50505b505050565b600082821c905092915050565b6000612c4360001984600802612c25565b1980831691505092915050565b6000612c5c8383612c32565b9150826002028217905092915050565b612c7582611f14565b67ffffffffffffffff811115612c8e57612c8d612300565b5b612c988254612749565b612ca3828285612bdf565b600060209050601f831160018114612cd65760008415612cc4578287015190505b612cce8582612c50565b865550612d36565b601f198416612ce486612ac0565b60005b82811015612d0c57848901518255600182019150602085019450602081019050612ce7565b86831015612d295784890151612d25601f891682612c32565b8355505b6001600288020188555050505b505050505050565b600081549050612d4d81612749565b9050919050565b818103612d62575050612e3a565b612d6b82612d3e565b67ffffffffffffffff811115612d8457612d83612300565b5b612d8e8254612749565b612d99828285612bdf565b6000601f831160018114612dc85760008415612db6578287015490505b612dc08582612c50565b865550612e33565b601f198416612dd687612ac0565b9650612de186612ac0565b60005b82811015612e0957848901548255600182019150600185019450602081019050612de4565b86831015612e265784890154612e22601f891682612c32565b8355505b6001600288020188555050505b5050505050505b565b7f4552433732313a20616420646f6573206e6f7420657869737400000000000000600082015250565b6000612e72601983611f1f565b9150612e7d82612e3c565b602082019050919050565b60006020820190508181036000830152612ea181612e65565b9050919050565b60008160601b9050919050565b6000612ec082612ea8565b9050919050565b6000612ed282612eb5565b9050919050565b612eea612ee582612049565b612ec7565b82525050565b6000612efc8284612ed9565b60148201915081905092915050565b7f4f776e61626c653a206e6577206f776e657220697320746865207a65726f206160008201527f6464726573730000000000000000000000000000000000000000000000000000602082015250565b6000612f67602683611f1f565b9150612f7282612f0b565b604082019050919050565b60006020820190508181036000830152612f9681612f5a565b9050919050565b7f53656e646572206e6f7420696e207461726765742061756469656e6365000000600082015250565b6000612fd3601d83611f1f565b9150612fde82612f9d565b602082019050919050565b6000602082019050818103600083015261300281612fc6565b9050919050565b6000819050919050565b61302461301f8261218e565b613009565b82525050565b60006130368285613013565b6020820191506130468284612ed9565b6014820191508190509392505050565b7f4552433732313a207472616e736665722066726f6d20696e636f72726563742060008201527f6f776e6572000000000000000000000000000000000000000000000000000000602082015250565b60006130b2602583611f1f565b91506130bd82613056565b604082019050919050565b600060208201905081810360008301526130e1816130a5565b9050919050565b7f4552433732313a207472616e7366657220746f20746865207a65726f2061646460008201527f7265737300000000000000000000000000000000000000000000000000000000602082015250565b6000613144602483611f1f565b915061314f826130e8565b604082019050919050565b6000602082019050818103600083015261317381613137565b9050919050565b7f4f776e61626c653a2063616c6c6572206973206e6f7420746865206f776e6572600082015250565b60006131b0602083611f1f565b91506131bb8261317a565b602082019050919050565b600060208201905081810360008301526131df816131a3565b9050919050565b7f4552433732313a20617070726f766520746f2063616c6c657200000000000000600082015250565b600061321c601983611f1f565b9150613227826131e6565b602082019050919050565b6000602082019050818103600083015261324b8161320f565b9050919050565b7f4552433732313a207472616e7366657220746f206e6f6e20455243373231526560008201527f63656976657220696d706c656d656e7465720000000000000000000000000000602082015250565b60006132ae603283611f1f565b91506132b982613252565b604082019050919050565b600060208201905081810360008301526132dd816132a1565b9050919050565b7f4552433732313a206d696e7420746f20746865207a65726f2061646472657373600082015250565b600061331a602083611f1f565b9150613325826132e4565b602082019050919050565b600060208201905081810360008301526133498161330d565b9050919050565b7f4552433732313a20746f6b656e20616c7265616479206d696e74656400000000600082015250565b6000613386601c83611f1f565b915061339182613350565b602082019050919050565b600060208201905081810360008301526133b581613379565b9050919050565b600081519050919050565b600082825260208201905092915050565b60006133e3826133bc565b6133ed81856133c7565b93506133fd818560208601611f30565b61340681611f5a565b840191505092915050565b6000608082019050613426600083018761205b565b613433602083018661205b565b6134406040830185612260565b818103606083015261345281846133d8565b905095945050505050565b60008151905061346c81611e85565b92915050565b60006020828403121561348857613487611e4f565b5b60006134968482850161345d565b91505092915050565b7f4e487b7100000000000000000000000000000000000000000000000000000000600052603260045260246000fdfea26469706673582212209c5c268440510b75f038c6b3542c3337c384af1ed424fd08c38a5c76aa9e3e6d64736f6c63430008180033",
  "linkReferences": {},
  "deployedLinkReferences": {}
}