{
  "_format": "hh-sol-artifact-1",
  "contractName": "ERCAd",
  "sourceName": "contracts/ERCAd/ERCAd.sol",
  "abi": [
    {
      "inputs": [
        {
          "internalType": "string",
          "name": "name",
          "type": "string"
        },
        {
          "internalType": "string",
          "name": "symbol",
          "type": "string"
        }
      ],
      "stateMutability": "nonpayable",
      "type": "constructor"
    },
    {
      "anonymous": false,
      "inputs": [
        {
          "indexed": true,
          "internalType": "address",
          "name": "owner",
          "type": "address"
        },
        {
          "indexed": true,
          "internalType": "address",
          "name": "approved",
          "type": "address"
        },
        {
          "indexed": true,
          "internalType": "uint256",
          "name": "tokenId",
          "type": "uint256"
        }
      ],
      "name": "Approval",
      "type": "event"
    },
    {
      "anonymous": false,
      "inputs": [
        {
          "indexed": true,
          "internalType": "address",
          "name": "owner",
          "type": "address"
        },
        {
          "indexed": true,
          "internalType": "address",
          "name": "operator",
          "type": "address"
        },
        {
          "indexed": false,
          "internalType": "bool",
          "name": "approved",
          "type": "bool"
        }
      ],
      "name": "ApprovalForAll",
      "type": "event"
    },
    {
      "anonymous": false,
      "inputs": [
        {
          "indexed": true,
          "internalType": "address",
          "name": "previousOwner",
          "type": "address"
        },
        {
          "indexed": true,
          "internalType": "address",
          "name": "newOwner",
          "type": "address"
        }
      ],
      "name": "OwnershipTransferred",
      "type": "event"
    },
    {
      "anonymous": false,
      "inputs": [
        {
          "indexed": true,
          "internalType": "address",
          "name": "from",
          "type": "address"
        },
        {
          "indexed": true,
          "internalType": "address",
          "name": "to",
          "type": "address"
        },
        {
          "indexed": true,
          "internalType": "uint256",
          "name": "tokenId",
          "type": "uint256"
        }
      ],
      "name": "Transfer",
      "type": "event"
    },
    {
      "inputs": [
        {
          "internalType": "address",
          "name": "to",
          "type": "address"
        },
        {
          "internalType": "uint256",
          "name": "tokenId",
          "type": "uint256"
        }
      ],
      "name": "approve",
      "outputs": [],
      "stateMutability": "nonpayable",
      "type": "function"
    },
    {
      "inputs": [
        {
          "internalType": "address",
          "name": "owner",
          "type": "address"
        }
      ],
      "name": "balanceOf",
      "outputs": [
        {
          "internalType": "uint256",
          "name": "",
          "type": "uint256"
        }
      ],
      "stateMutability": "view",
      "type": "function"
    },
    {
      "inputs": [
        {
          "internalType": "uint256",
          "name": "id",
          "type": "uint256"
        }
      ],
      "name": "displayAd",
      "outputs": [
        {
          "components": [
            {
              "internalType": "string",
              "name": "adURI",
              "type": "string"
            },
            {
              "internalType": "string",
              "name": "dataURI",
              "type": "string"
            },
            {
              "internalType": "bytes32",
              "name": "signatureRoot",
              "type": "bytes32"
            },
            {
              "internalType": "bytes32",
              "name": "audienceRoot",
              "type": "bytes32"
            }
          ],
          "internalType": "struct IERCAd.Ad",
          "name": "",
          "type": "tuple"
        }
      ],
      "stateMutability": "view",
      "type": "function"
    },
    {
      "inputs": [
        {
          "internalType": "uint256",
          "name": "tokenId",
          "type": "uint256"
        }
      ],
      "name": "getApproved",
      "outputs": [
        {
          "internalType": "address",
          "name": "",
          "type": "address"
        }
      ],
      "stateMutability": "view",
      "type": "function"
    },
    {
      "inputs": [
        {
          "internalType": "address",
          "name": "",
          "type": "address"
        }
      ],
      "name": "hasSigned",
      "outputs": [
        {
          "internalType": "bool",
          "name": "",
          "type": "bool"
        }
      ],
      "stateMutability": "view",
      "type": "function"
    },
    {
      "inputs": [
        {
          "internalType": "uint256",
          "name": "id",
          "type": "uint256"
        },
        {
          "internalType": "bytes32[]",
          "name": "proof",
          "type": "bytes32[]"
        }
      ],
      "name": "hasSignedAd",
      "outputs": [
        {
          "internalType": "bool",
          "name": "",
          "type": "bool"
        }
      ],
      "stateMutability": "view",
      "type": "function"
    },
    {
      "inputs": [
        {
          "internalType": "address",
          "name": "owner",
          "type": "address"
        },
        {
          "internalType": "address",
          "name": "operator",
          "type": "address"
        }
      ],
      "name": "isApprovedForAll",
      "outputs": [
        {
          "internalType": "bool",
          "name": "",
          "type": "bool"
        }
      ],
      "stateMutability": "view",
      "type": "function"
    },
    {
      "inputs": [
        {
          "internalType": "uint256",
          "name": "id",
          "type": "uint256"
        },
        {
          "internalType": "bytes32[]",
          "name": "proof",
          "type": "bytes32[]"
        }
      ],
      "name": "isInAudience",
      "outputs": [
        {
          "internalType": "bool",
          "name": "",
          "type": "bool"
        }
      ],
      "stateMutability": "view",
      "type": "function"
    },
    {
      "inputs": [],
      "name": "name",
      "outputs": [
        {
          "internalType": "string",
          "name": "",
          "type": "string"
        }
      ],
      "stateMutability": "view",
      "type": "function"
    },
    {
      "inputs": [],
      "name": "owner",
      "outputs": [
        {
          "internalType": "address",
          "name": "",
          "type": "address"
        }
      ],
      "stateMutability": "view",
      "type": "function"
    },
    {
      "inputs": [
        {
          "internalType": "uint256",
          "name": "tokenId",
          "type": "uint256"
        }
      ],
      "name": "ownerOf",
      "outputs": [
        {
          "internalType": "address",
          "name": "",
          "type": "address"
        }
      ],
      "stateMutability": "view",
      "type": "function"
    },
    {
      "inputs": [],
      "name": "renounceOwnership",
      "outputs": [],
      "stateMutability": "nonpayable",
      "type": "function"
    },
    {
      "inputs": [
        {
          "internalType": "address",
          "name": "from",
          "type": "address"
        },
        {
          "internalType": "address",
          "name": "to",
          "type": "address"
        },
        {
          "internalType": "uint256",
          "name": "tokenId",
          "type": "uint256"
        }
      ],
      "name": "safeTransferFrom",
      "outputs": [],
      "stateMutability": "nonpayable",
      "type": "function"
    },
    {
      "inputs": [
        {
          "internalType": "address",
          "name": "from",
          "type": "address"
        },
        {
          "internalType": "address",
          "name": "to",
          "type": "address"
        },
        {
          "internalType": "uint256",
          "name": "tokenId",
          "type": "uint256"
        },
        {
          "internalType": "bytes",
          "name": "data",
          "type": "bytes"
        }
      ],
      "name": "safeTransferFrom",
      "outputs": [],
      "stateMutability": "nonpayable",
      "type": "function"
    },
    {
      "inputs": [
        {
          "internalType": "string",
          "name": "adURI",
          "type": "string"
        },
        {
          "internalType": "string",
          "name": "dataURI",
          "type": "string"
        },
        {
          "internalType": "bytes32",
          "name": "signatureRoot",
          "type": "bytes32"
        },
        {
          "internalType": "bytes32",
          "name": "audienceRoot",
          "type": "bytes32"
        }
      ],
      "name": "setAd",
      "outputs": [],
      "stateMutability": "nonpayable",
      "type": "function"
    },
    {
      "inputs": [
        {
          "internalType": "address",
          "name": "operator",
          "type": "address"
        },
        {
          "internalType": "bool",
          "name": "approved",
          "type": "bool"
        }
      ],
      "name": "setApprovalForAll",
      "outputs": [],
      "stateMutability": "nonpayable",
      "type": "function"
    },
    {
      "inputs": [
        {
          "internalType": "uint256",
          "name": "id",
          "type": "uint256"
        },
        {
          "internalType": "bytes32[]",
          "name": "proof",
          "type": "bytes32[]"
        }
      ],
      "name": "signAd",
      "outputs": [],
      "stateMutability": "nonpayable",
      "type": "function"
    },
    {
      "inputs": [
        {
          "internalType": "bytes4",
          "name": "interfaceId",
          "type": "bytes4"
        }
      ],
      "name": "supportsInterface",
      "outputs": [
        {
          "internalType": "bool",
          "name": "",
          "type": "bool"
        }
      ],
      "stateMutability": "view",
      "type": "function"
    },
    {
      "inputs": [],
      "name": "symbol",
      "outputs": [
        {
          "internalType": "string",
          "name": "",
          "type": "string"
        }
      ],
      "stateMutability": "view",
      "type": "function"
    },
    {
      "inputs": [
        {
          "internalType": "uint256",
          "name": "tokenId",
          "type": "uint256"
        }
      ],
      "name": "tokenURI",
      "outputs": [
        {
          "internalType": "string",
          "name": "",
          "type": "string"
        }
      ],
      "stateMutability": "view",
      "type": "function"
    },
    {
      "inputs": [
        {
          "internalType": "address",
          "name": "from",
          "type": "address"
        },
        {
          "internalType": "address",
          "name": "to",
          "type": "address"
        },
        {
          "internalType": "uint256",
          "name": "tokenId",
          "type": "uint256"
        }
      ],
      "name": "transferFrom",
      "outputs": [],
      "stateMutability": "nonpayable",
      "type": "function"
    },
    {
      "inputs": [
        {
          "internalType": "address",
          "name": "newOwner",
          "type": "address"
        }
      ],
      "name": "transferOwnership",
      "outputs": [],
      "stateMutability": "nonpayable",
      "type": "function"
    }
  ],
  "bytecode": "0x60806040523480156200001157600080fd5b5060405162003dce38038062003dce8339818101604052810190620000379190620002e8565b818181600090816200004a9190620005b8565b5080600190816200005c9190620005b8565b5050506200007f620000736200008760201b60201c565b6200008f60201b60201c565b50506200069f565b600033905090565b6000600660009054906101000a900473ffffffffffffffffffffffffffffffffffffffff16905081600660006101000a81548173ffffffffffffffffffffffffffffffffffffffff021916908373ffffffffffffffffffffffffffffffffffffffff1602179055508173ffffffffffffffffffffffffffffffffffffffff168173ffffffffffffffffffffffffffffffffffffffff167f8be0079c531659141344cd1fd0a4f28419497f9722a3daafe3b4186f6b6457e060405160405180910390a35050565b6000604051905090565b600080fd5b600080fd5b600080fd5b600080fd5b6000601f19601f8301169050919050565b7f4e487b7100000000000000000000000000000000000000000000000000000000600052604160045260246000fd5b620001be8262000173565b810181811067ffffffffffffffff82111715620001e057620001df62000184565b5b80604052505050565b6000620001f562000155565b9050620002038282620001b3565b919050565b600067ffffffffffffffff82111562000226576200022562000184565b5b620002318262000173565b9050602081019050919050565b60005b838110156200025e57808201518184015260208101905062000241565b60008484015250505050565b6000620002816200027b8462000208565b620001e9565b905082815260208101848484011115620002a0576200029f6200016e565b5b620002ad8482856200023e565b509392505050565b600082601f830112620002cd57620002cc62000169565b5b8151620002df8482602086016200026a565b91505092915050565b600080604083850312156200030257620003016200015f565b5b600083015167ffffffffffffffff81111562000323576200032262000164565b5b6200033185828601620002b5565b925050602083015167ffffffffffffffff81111562000355576200035462000164565b5b6200036385828601620002b5565b9150509250929050565b600081519050919050565b7f4e487b7100000000000000000000000000000000000000000000000000000000600052602260045260246000fd5b60006002820490506001821680620003c057607f821691505b602082108103620003d657620003d562000378565b5b50919050565b60008190508160005260206000209050919050565b60006020601f8301049050919050565b600082821b905092915050565b600060088302620004407fffffffffffffffffffffffffffffffffffffffffffffffffffffffffffffffff8262000401565b6200044c868362000401565b95508019841693508086168417925050509392505050565b6000819050919050565b6000819050919050565b600062000499620004936200048d8462000464565b6200046e565b62000464565b9050919050565b6000819050919050565b620004b58362000478565b620004cd620004c482620004a0565b8484546200040e565b825550505050565b600090565b620004e4620004d5565b620004f1818484620004aa565b505050565b5b8181101562000519576200050d600082620004da565b600181019050620004f7565b5050565b601f82111562000568576200053281620003dc565b6200053d84620003f1565b810160208510156200054d578190505b620005656200055c85620003f1565b830182620004f6565b50505b505050565b600082821c905092915050565b60006200058d600019846008026200056d565b1980831691505092915050565b6000620005a883836200057a565b9150826002028217905092915050565b620005c3826200036d565b67ffffffffffffffff811115620005df57620005de62000184565b5b620005eb8254620003a7565b620005f88282856200051d565b600060209050601f8311600181146200063057600084156200061b578287015190505b6200062785826200059a565b86555062000697565b601f1984166200064086620003dc565b60005b828110156200066a5784890151825560018201915060208501945060208101905062000643565b868310156200068a578489015162000686601f8916826200057a565b8355505b6001600288020188555050505b505050505050565b61371f80620006af6000396000f3fe608060405234801561001057600080fd5b50600436106101425760003560e01c80638da5cb5b116100b8578063c87b56dd1161007c578063c87b56dd14610387578063d13e2af9146103b7578063dfe194fe146103d3578063e985e9c514610403578063f2fde38b14610433578063fe49e8331461044f57610142565b80638da5cb5b146102e357806395d89b4114610301578063a22cb4651461031f578063b88d4fde1461033b578063bf6a14131461035757610142565b806342842e0e1161010a57806342842e0e146101fd5780636352211e14610219578063672fb9691461024957806370a0823114610279578063715018a6146102a95780638b4d9eb9146102b357610142565b806301ffc9a71461014757806306fdde0314610177578063081812fc14610195578063095ea7b3146101c557806323b872dd146101e1575b600080fd5b610161600480360381019061015c9190612060565b61046b565b60405161016e91906120a8565b60405180910390f35b61017f61054d565b60405161018c9190612153565b60405180910390f35b6101af60048036038101906101aa91906121ab565b6105df565b6040516101bc9190612219565b60405180910390f35b6101df60048036038101906101da9190612260565b610625565b005b6101fb60048036038101906101f691906122a0565b61073c565b005b610217600480360381019061021291906122a0565b61079c565b005b610233600480360381019061022e91906121ab565b6107bc565b6040516102409190612219565b60405180910390f35b610263600480360381019061025e91906121ab565b610842565b60405161027091906123c0565b60405180910390f35b610293600480360381019061028e91906123e2565b6109a7565b6040516102a0919061241e565b60405180910390f35b6102b1610a5e565b005b6102cd60048036038101906102c8919061249e565b610a72565b6040516102da91906120a8565b60405180910390f35b6102eb610b59565b6040516102f89190612219565b60405180910390f35b610309610b83565b6040516103169190612153565b60405180910390f35b6103396004803603810190610334919061252a565b610c15565b005b6103556004803603810190610350919061269a565b610c2b565b005b610371600480360381019061036c91906123e2565b610c8d565b60405161037e91906120a8565b60405180910390f35b6103a1600480360381019061039c91906121ab565b610cad565b6040516103ae9190612153565b60405180910390f35b6103d160048036038101906103cc91906127ea565b610d8c565b005b6103ed60048036038101906103e8919061249e565b610e8a565b6040516103fa91906120a8565b60405180910390f35b61041d60048036038101906104189190612889565b610f8a565b60405161042a91906120a8565b60405180910390f35b61044d600480360381019061044891906123e2565b61101e565b005b6104696004803603810190610464919061249e565b6110a1565b005b60007f80ac58cd000000000000000000000000000000000000000000000000000000007bffffffffffffffffffffffffffffffffffffffffffffffffffffffff1916827bffffffffffffffffffffffffffffffffffffffffffffffffffffffff1916148061053657507f5b5e139f000000000000000000000000000000000000000000000000000000007bffffffffffffffffffffffffffffffffffffffffffffffffffffffff1916827bffffffffffffffffffffffffffffffffffffffffffffffffffffffff1916145b80610546575061054582611298565b5b9050919050565b60606000805461055c906128f8565b80601f0160208091040260200160405190810160405280929190818152602001828054610588906128f8565b80156105d55780601f106105aa576101008083540402835291602001916105d5565b820191906000526020600020905b8154815290600101906020018083116105b857829003601f168201915b5050505050905090565b60006105ea82611302565b6004600083815260200190815260200160002060009054906101000a900473ffffffffffffffffffffffffffffffffffffffff169050919050565b6000610630826107bc565b90508073ffffffffffffffffffffffffffffffffffffffff168373ffffffffffffffffffffffffffffffffffffffff16036106a0576040517f08c379a00000000000000000000000000000000000000000000000000000000081526004016106979061299b565b60405180910390fd5b8073ffffffffffffffffffffffffffffffffffffffff166106bf61134d565b73ffffffffffffffffffffffffffffffffffffffff1614806106ee57506106ed816106e861134d565b610f8a565b5b61072d576040517f08c379a000000000000000000000000000000000000000000000000000000000815260040161072490612a2d565b60405180910390fd5b6107378383611355565b505050565b61074d61074761134d565b8261140e565b61078c576040517f08c379a000000000000000000000000000000000000000000000000000000000815260040161078390612abf565b60405180910390fd5b6107978383836114a3565b505050565b6107b783838360405180602001604052806000815250610c2b565b505050565b6000806107c88361179c565b9050600073ffffffffffffffffffffffffffffffffffffffff168173ffffffffffffffffffffffffffffffffffffffff1603610839576040517f08c379a000000000000000000000000000000000000000000000000000000000815260040161083090612b2b565b60405180910390fd5b80915050919050565b61084a611fc6565b600c6000838152602001908152602001600020604051806080016040529081600082018054610878906128f8565b80601f01602080910402602001604051908101604052809291908181526020018280546108a4906128f8565b80156108f15780601f106108c6576101008083540402835291602001916108f1565b820191906000526020600020905b8154815290600101906020018083116108d457829003601f168201915b5050505050815260200160018201805461090a906128f8565b80601f0160208091040260200160405190810160405280929190818152602001828054610936906128f8565b80156109835780601f1061095857610100808354040283529160200191610983565b820191906000526020600020905b81548152906001019060200180831161096657829003601f168201915b50505050508152602001600282015481526020016003820154815250509050919050565b60008073ffffffffffffffffffffffffffffffffffffffff168273ffffffffffffffffffffffffffffffffffffffff1603610a17576040517f08c379a0000000000000000000000000000000000000000000000000000000008152600401610a0e90612bbd565b60405180910390fd5b600360008373ffffffffffffffffffffffffffffffffffffffff1673ffffffffffffffffffffffffffffffffffffffff168152602001908152602001600020549050919050565b610a666117d9565b610a706000611857565b565b6000610a7d8461191d565b610abc576040517f08c379a0000000000000000000000000000000000000000000000000000000008152600401610ab390612c29565b60405180910390fd5b6000600c60008681526020019081526020016000209050600033604051602001610ae69190612c91565b604051602081830303815290604052805190602001209050610b4e858580806020026020016040519081016040528093929190818152602001838360200280828437600081840152601f19601f8201169050808301925050505050505083600201548361195e565b925050509392505050565b6000600660009054906101000a900473ffffffffffffffffffffffffffffffffffffffff16905090565b606060018054610b92906128f8565b80601f0160208091040260200160405190810160405280929190818152602001828054610bbe906128f8565b8015610c0b5780601f10610be057610100808354040283529160200191610c0b565b820191906000526020600020905b815481529060010190602001808311610bee57829003601f168201915b5050505050905090565b610c27610c2061134d565b8383611975565b5050565b610c3c610c3661134d565b8361140e565b610c7b576040517f08c379a0000000000000000000000000000000000000000000000000000000008152600401610c7290612abf565b60405180910390fd5b610c8784848484611ae1565b50505050565b600d6020528060005260406000206000915054906101000a900460ff1681565b6060610cb88261191d565b610cf7576040517f08c379a0000000000000000000000000000000000000000000000000000000008152600401610cee90612d1e565b60405180910390fd5b60086000018054610d07906128f8565b80601f0160208091040260200160405190810160405280929190818152602001828054610d33906128f8565b8015610d805780601f10610d5557610100808354040283529160200191610d80565b820191906000526020600020905b815481529060010190602001808311610d6357829003601f168201915b50505050509050919050565b610d946117d9565b610d9e6007611b3d565b6000610daa6007611b53565b9050604051806080016040528086815260200185815260200184815260200183815250600c60008381526020019081526020016000206000820151816000019081610df59190612eea565b506020820151816001019081610e0b9190612eea565b506040820151816002015560608201518160030155905050610e2d3382611b61565b600c6000828152602001908152602001600020600860008201816000019081610e569190612fd2565b5060018201816001019081610e6b9190612fd2565b5060028201548160020155600382015481600301559050505050505050565b6000610e958461191d565b610ed4576040517f08c379a0000000000000000000000000000000000000000000000000000000008152600401610ecb90612c29565b60405180910390fd5b6000600c600086815260200190815260200160002090506000801b816003015414610f7d57600033604051602001610f0c9190612c91565b604051602081830303815290604052805190602001209050610f74858580806020026020016040519081016040528093929190818152602001838360200280828437600081840152601f19601f8201169050808301925050505050505083600301548361195e565b92505050610f83565b60019150505b9392505050565b6000600560008473ffffffffffffffffffffffffffffffffffffffff1673ffffffffffffffffffffffffffffffffffffffff16815260200190815260200160002060008373ffffffffffffffffffffffffffffffffffffffff1673ffffffffffffffffffffffffffffffffffffffff16815260200190815260200160002060009054906101000a900460ff16905092915050565b6110266117d9565b600073ffffffffffffffffffffffffffffffffffffffff168173ffffffffffffffffffffffffffffffffffffffff1603611095576040517f08c379a000000000000000000000000000000000000000000000000000000000815260040161108c9061312c565b60405180910390fd5b61109e81611857565b50565b6110aa8361191d565b6110e9576040517f08c379a00000000000000000000000000000000000000000000000000000000081526004016110e090612c29565b60405180910390fd5b600d60003373ffffffffffffffffffffffffffffffffffffffff1673ffffffffffffffffffffffffffffffffffffffff16815260200190815260200160002060009054906101000a900460ff1615611176576040517f08c379a000000000000000000000000000000000000000000000000000000000815260040161116d90613198565b60405180910390fd5b6000600c600085815260200190815260200160002090506000801b816003015414611257576000336040516020016111ae9190612c91565b604051602081830303815290604052805190602001209050611216848480806020026020016040519081016040528093929190818152602001838360200280828437600081840152601f19601f8201169050808301925050505050505083600301548361195e565b611255576040517f08c379a000000000000000000000000000000000000000000000000000000000815260040161124c90613204565b60405180910390fd5b505b6000816002015433604051602001611270929190613245565b6040516020818303038152906040529050808051906020012082600201819055505050505050565b60007f01ffc9a7000000000000000000000000000000000000000000000000000000007bffffffffffffffffffffffffffffffffffffffffffffffffffffffff1916827bffffffffffffffffffffffffffffffffffffffffffffffffffffffff1916149050919050565b61130b8161191d565b61134a576040517f08c379a000000000000000000000000000000000000000000000000000000000815260040161134190612b2b565b60405180910390fd5b50565b600033905090565b816004600083815260200190815260200160002060006101000a81548173ffffffffffffffffffffffffffffffffffffffff021916908373ffffffffffffffffffffffffffffffffffffffff160217905550808273ffffffffffffffffffffffffffffffffffffffff166113c8836107bc565b73ffffffffffffffffffffffffffffffffffffffff167f8c5be1e5ebec7d5bd14f71427d1e84f3dd0314c0f7b2291e5b200ac8c7c3b92560405160405180910390a45050565b60008061141a836107bc565b90508073ffffffffffffffffffffffffffffffffffffffff168473ffffffffffffffffffffffffffffffffffffffff16148061145c575061145b8185610f8a565b5b8061149a57508373ffffffffffffffffffffffffffffffffffffffff16611482846105df565b73ffffffffffffffffffffffffffffffffffffffff16145b91505092915050565b8273ffffffffffffffffffffffffffffffffffffffff166114c3826107bc565b73ffffffffffffffffffffffffffffffffffffffff1614611519576040517f08c379a0000000000000000000000000000000000000000000000000000000008152600401611510906132e3565b60405180910390fd5b600073ffffffffffffffffffffffffffffffffffffffff168273ffffffffffffffffffffffffffffffffffffffff1603611588576040517f08c379a000000000000000000000000000000000000000000000000000000000815260040161157f90613375565b60405180910390fd5b6115958383836001611d7e565b8273ffffffffffffffffffffffffffffffffffffffff166115b5826107bc565b73ffffffffffffffffffffffffffffffffffffffff161461160b576040517f08c379a0000000000000000000000000000000000000000000000000000000008152600401611602906132e3565b60405180910390fd5b6004600082815260200190815260200160002060006101000a81549073ffffffffffffffffffffffffffffffffffffffff02191690556001600360008573ffffffffffffffffffffffffffffffffffffffff1673ffffffffffffffffffffffffffffffffffffffff168152602001908152602001600020600082825403925050819055506001600360008473ffffffffffffffffffffffffffffffffffffffff1673ffffffffffffffffffffffffffffffffffffffff16815260200190815260200160002060008282540192505081905550816002600083815260200190815260200160002060006101000a81548173ffffffffffffffffffffffffffffffffffffffff021916908373ffffffffffffffffffffffffffffffffffffffff160217905550808273ffffffffffffffffffffffffffffffffffffffff168473ffffffffffffffffffffffffffffffffffffffff167fddf252ad1be2c89b69c2b068fc378daa952ba7f163c4a11628f55a4df523b3ef60405160405180910390a46117978383836001611d84565b505050565b60006002600083815260200190815260200160002060009054906101000a900473ffffffffffffffffffffffffffffffffffffffff169050919050565b6117e161134d565b73ffffffffffffffffffffffffffffffffffffffff166117ff610b59565b73ffffffffffffffffffffffffffffffffffffffff1614611855576040517f08c379a000000000000000000000000000000000000000000000000000000000815260040161184c906133e1565b60405180910390fd5b565b6000600660009054906101000a900473ffffffffffffffffffffffffffffffffffffffff16905081600660006101000a81548173ffffffffffffffffffffffffffffffffffffffff021916908373ffffffffffffffffffffffffffffffffffffffff1602179055508173ffffffffffffffffffffffffffffffffffffffff168173ffffffffffffffffffffffffffffffffffffffff167f8be0079c531659141344cd1fd0a4f28419497f9722a3daafe3b4186f6b6457e060405160405180910390a35050565b60008073ffffffffffffffffffffffffffffffffffffffff1661193f8361179c565b73ffffffffffffffffffffffffffffffffffffffff1614159050919050565b60008261196b8584611d8a565b1490509392505050565b8173ffffffffffffffffffffffffffffffffffffffff168373ffffffffffffffffffffffffffffffffffffffff16036119e3576040517f08c379a00000000000000000000000000000000000000000000000000000000081526004016119da9061344d565b60405180910390fd5b80600560008573ffffffffffffffffffffffffffffffffffffffff1673ffffffffffffffffffffffffffffffffffffffff16815260200190815260200160002060008473ffffffffffffffffffffffffffffffffffffffff1673ffffffffffffffffffffffffffffffffffffffff16815260200190815260200160002060006101000a81548160ff0219169083151502179055508173ffffffffffffffffffffffffffffffffffffffff168373ffffffffffffffffffffffffffffffffffffffff167f17307eab39ab6107e8899845ad3d59bd9653f200f220920489ca2b5937696c3183604051611ad491906120a8565b60405180910390a3505050565b611aec8484846114a3565b611af884848484611dda565b611b37576040517f08c379a0000000000000000000000000000000000000000000000000000000008152600401611b2e906134df565b60405180910390fd5b50505050565b6001816000016000828254019250508190555050565b600081600001549050919050565b600073ffffffffffffffffffffffffffffffffffffffff168273ffffffffffffffffffffffffffffffffffffffff1603611bd0576040517f08c379a0000000000000000000000000000000000000000000000000000000008152600401611bc79061354b565b60405180910390fd5b611bd98161191d565b15611c19576040517f08c379a0000000000000000000000000000000000000000000000000000000008152600401611c10906135b7565b60405180910390fd5b611c27600083836001611d7e565b611c308161191d565b15611c70576040517f08c379a0000000000000000000000000000000000000000000000000000000008152600401611c67906135b7565b60405180910390fd5b6001600360008473ffffffffffffffffffffffffffffffffffffffff1673ffffffffffffffffffffffffffffffffffffffff16815260200190815260200160002060008282540192505081905550816002600083815260200190815260200160002060006101000a81548173ffffffffffffffffffffffffffffffffffffffff021916908373ffffffffffffffffffffffffffffffffffffffff160217905550808273ffffffffffffffffffffffffffffffffffffffff16600073ffffffffffffffffffffffffffffffffffffffff167fddf252ad1be2c89b69c2b068fc378daa952ba7f163c4a11628f55a4df523b3ef60405160405180910390a4611d7a600083836001611d84565b5050565b50505050565b50505050565b60008082905060005b8451811015611dcf57611dc082868381518110611db357611db26135d7565b5b6020026020010151611f61565b91508080600101915050611d93565b508091505092915050565b6000611dfb8473ffffffffffffffffffffffffffffffffffffffff16611f8c565b15611f54578373ffffffffffffffffffffffffffffffffffffffff1663150b7a02611e2461134d565b8786866040518563ffffffff1660e01b8152600401611e46949392919061365b565b6020604051808303816000875af1925050508015611e8257506040513d601f19601f82011682018060405250810190611e7f91906136bc565b60015b611f04573d8060008114611eb2576040519150601f19603f3d011682016040523d82523d6000602084013e611eb7565b606091505b506000815103611efc576040517f08c379a0000000000000000000000000000000000000000000000000000000008152600401611ef3906134df565b60405180910390fd5b805181602001fd5b63150b7a0260e01b7bffffffffffffffffffffffffffffffffffffffffffffffffffffffff1916817bffffffffffffffffffffffffffffffffffffffffffffffffffffffff191614915050611f59565b600190505b949350505050565b6000818310611f7957611f748284611faf565b611f84565b611f838383611faf565b5b905092915050565b6000808273ffffffffffffffffffffffffffffffffffffffff163b119050919050565b600082600052816020526040600020905092915050565b6040518060800160405280606081526020016060815260200160008019168152602001600080191681525090565b6000604051905090565b600080fd5b600080fd5b60007fffffffff0000000000000000000000000000000000000000000000000000000082169050919050565b61203d81612008565b811461204857600080fd5b50565b60008135905061205a81612034565b92915050565b60006020828403121561207657612075611ffe565b5b60006120848482850161204b565b91505092915050565b60008115159050919050565b6120a28161208d565b82525050565b60006020820190506120bd6000830184612099565b92915050565b600081519050919050565b600082825260208201905092915050565b60005b838110156120fd5780820151818401526020810190506120e2565b60008484015250505050565b6000601f19601f8301169050919050565b6000612125826120c3565b61212f81856120ce565b935061213f8185602086016120df565b61214881612109565b840191505092915050565b6000602082019050818103600083015261216d818461211a565b905092915050565b6000819050919050565b61218881612175565b811461219357600080fd5b50565b6000813590506121a58161217f565b92915050565b6000602082840312156121c1576121c0611ffe565b5b60006121cf84828501612196565b91505092915050565b600073ffffffffffffffffffffffffffffffffffffffff82169050919050565b6000612203826121d8565b9050919050565b612213816121f8565b82525050565b600060208201905061222e600083018461220a565b92915050565b61223d816121f8565b811461224857600080fd5b50565b60008135905061225a81612234565b92915050565b6000806040838503121561227757612276611ffe565b5b60006122858582860161224b565b925050602061229685828601612196565b9150509250929050565b6000806000606084860312156122b9576122b8611ffe565b5b60006122c78682870161224b565b93505060206122d88682870161224b565b92505060406122e986828701612196565b9150509250925092565b600082825260208201905092915050565b600061230f826120c3565b61231981856122f3565b93506123298185602086016120df565b61233281612109565b840191505092915050565b6000819050919050565b6123508161233d565b82525050565b600060808301600083015184820360008601526123738282612304565b9150506020830151848203602086015261238d8282612304565b91505060408301516123a26040860182612347565b5060608301516123b56060860182612347565b508091505092915050565b600060208201905081810360008301526123da8184612356565b905092915050565b6000602082840312156123f8576123f7611ffe565b5b60006124068482850161224b565b91505092915050565b61241881612175565b82525050565b6000602082019050612433600083018461240f565b92915050565b600080fd5b600080fd5b600080fd5b60008083601f84011261245e5761245d612439565b5b8235905067ffffffffffffffff81111561247b5761247a61243e565b5b60208301915083602082028301111561249757612496612443565b5b9250929050565b6000806000604084860312156124b7576124b6611ffe565b5b60006124c586828701612196565b935050602084013567ffffffffffffffff8111156124e6576124e5612003565b5b6124f286828701612448565b92509250509250925092565b6125078161208d565b811461251257600080fd5b50565b600081359050612524816124fe565b92915050565b6000806040838503121561254157612540611ffe565b5b600061254f8582860161224b565b925050602061256085828601612515565b9150509250929050565b600080fd5b7f4e487b7100000000000000000000000000000000000000000000000000000000600052604160045260246000fd5b6125a782612109565b810181811067ffffffffffffffff821117156125c6576125c561256f565b5b80604052505050565b60006125d9611ff4565b90506125e5828261259e565b919050565b600067ffffffffffffffff8211156126055761260461256f565b5b61260e82612109565b9050602081019050919050565b82818337600083830152505050565b600061263d612638846125ea565b6125cf565b9050828152602081018484840111156126595761265861256a565b5b61266484828561261b565b509392505050565b600082601f83011261268157612680612439565b5b813561269184826020860161262a565b91505092915050565b600080600080608085870312156126b4576126b3611ffe565b5b60006126c28782880161224b565b94505060206126d38782880161224b565b93505060406126e487828801612196565b925050606085013567ffffffffffffffff81111561270557612704612003565b5b6127118782880161266c565b91505092959194509250565b600067ffffffffffffffff8211156127385761273761256f565b5b61274182612109565b9050602081019050919050565b600061276161275c8461271d565b6125cf565b90508281526020810184848401111561277d5761277c61256a565b5b61278884828561261b565b509392505050565b600082601f8301126127a5576127a4612439565b5b81356127b584826020860161274e565b91505092915050565b6127c78161233d565b81146127d257600080fd5b50565b6000813590506127e4816127be565b92915050565b6000806000806080858703121561280457612803611ffe565b5b600085013567ffffffffffffffff81111561282257612821612003565b5b61282e87828801612790565b945050602085013567ffffffffffffffff81111561284f5761284e612003565b5b61285b87828801612790565b935050604061286c878288016127d5565b925050606061287d878288016127d5565b91505092959194509250565b600080604083850312156128a05761289f611ffe565b5b60006128ae8582860161224b565b92505060206128bf8582860161224b565b9150509250929050565b7f4e487b7100000000000000000000000000000000000000000000000000000000600052602260045260246000fd5b6000600282049050600182168061291057607f821691505b602082108103612923576129226128c9565b5b50919050565b7f4552433732313a20617070726f76616c20746f2063757272656e74206f776e6560008201527f7200000000000000000000000000000000000000000000000000000000000000602082015250565b60006129856021836120ce565b915061299082612929565b604082019050919050565b600060208201905081810360008301526129b481612978565b9050919050565b7f4552433732313a20617070726f76652063616c6c6572206973206e6f7420746f60008201527f6b656e206f776e6572206f7220617070726f76656420666f7220616c6c000000602082015250565b6000612a17603d836120ce565b9150612a22826129bb565b604082019050919050565b60006020820190508181036000830152612a4681612a0a565b9050919050565b7f4552433732313a2063616c6c6572206973206e6f7420746f6b656e206f776e6560008201527f72206f7220617070726f76656400000000000000000000000000000000000000602082015250565b6000612aa9602d836120ce565b9150612ab482612a4d565b604082019050919050565b60006020820190508181036000830152612ad881612a9c565b9050919050565b7f4552433732313a20696e76616c696420746f6b656e2049440000000000000000600082015250565b6000612b156018836120ce565b9150612b2082612adf565b602082019050919050565b60006020820190508181036000830152612b4481612b08565b9050919050565b7f4552433732313a2061646472657373207a65726f206973206e6f74206120766160008201527f6c6964206f776e65720000000000000000000000000000000000000000000000602082015250565b6000612ba76029836120ce565b9150612bb282612b4b565b604082019050919050565b60006020820190508181036000830152612bd681612b9a565b9050919050565b7f4552433732313a20616420646f6573206e6f7420657869737400000000000000600082015250565b6000612c136019836120ce565b9150612c1e82612bdd565b602082019050919050565b60006020820190508181036000830152612c4281612c06565b9050919050565b60008160601b9050919050565b6000612c6182612c49565b9050919050565b6000612c7382612c56565b9050919050565b612c8b612c86826121f8565b612c68565b82525050565b6000612c9d8284612c7a565b60148201915081905092915050565b7f4552433732314d657461646174613a2055524920717565727920666f72206e6f60008201527f6e6578697374656e7420746f6b656e0000000000000000000000000000000000602082015250565b6000612d08602f836120ce565b9150612d1382612cac565b604082019050919050565b60006020820190508181036000830152612d3781612cfb565b9050919050565b60008190508160005260206000209050919050565b60006020601f8301049050919050565b600082821b905092915050565b600060088302612da07fffffffffffffffffffffffffffffffffffffffffffffffffffffffffffffffff82612d63565b612daa8683612d63565b95508019841693508086168417925050509392505050565b6000819050919050565b6000612de7612de2612ddd84612175565b612dc2565b612175565b9050919050565b6000819050919050565b612e0183612dcc565b612e15612e0d82612dee565b848454612d70565b825550505050565b600090565b612e2a612e1d565b612e35818484612df8565b505050565b5b81811015612e5957612e4e600082612e22565b600181019050612e3b565b5050565b601f821115612e9e57612e6f81612d3e565b612e7884612d53565b81016020851015612e87578190505b612e9b612e9385612d53565b830182612e3a565b50505b505050565b600082821c905092915050565b6000612ec160001984600802612ea3565b1980831691505092915050565b6000612eda8383612eb0565b9150826002028217905092915050565b612ef3826120c3565b67ffffffffffffffff811115612f0c57612f0b61256f565b5b612f1682546128f8565b612f21828285612e5d565b600060209050601f831160018114612f545760008415612f42578287015190505b612f4c8582612ece565b865550612fb4565b601f198416612f6286612d3e565b60005b82811015612f8a57848901518255600182019150602085019450602081019050612f65565b86831015612fa75784890151612fa3601f891682612eb0565b8355505b6001600288020188555050505b505050505050565b600081549050612fcb816128f8565b9050919050565b818103612fe05750506130b8565b612fe982612fbc565b67ffffffffffffffff8111156130025761300161256f565b5b61300c82546128f8565b613017828285612e5d565b6000601f8311600181146130465760008415613034578287015490505b61303e8582612ece565b8655506130b1565b601f19841661305487612d3e565b965061305f86612d3e565b60005b8281101561308757848901548255600182019150600185019450602081019050613062565b868310156130a457848901546130a0601f891682612eb0565b8355505b6001600288020188555050505b5050505050505b565b7f4f776e61626c653a206e6577206f776e657220697320746865207a65726f206160008201527f6464726573730000000000000000000000000000000000000000000000000000602082015250565b60006131166026836120ce565b9150613121826130ba565b604082019050919050565b6000602082019050818103600083015261314581613109565b9050919050565b7f616c7265616479207369676e6564206164000000000000000000000000000000600082015250565b60006131826011836120ce565b915061318d8261314c565b602082019050919050565b600060208201905081810360008301526131b181613175565b9050919050565b7f53656e646572206e6f7420696e207461726765742061756469656e6365000000600082015250565b60006131ee601d836120ce565b91506131f9826131b8565b602082019050919050565b6000602082019050818103600083015261321d816131e1565b9050919050565b6000819050919050565b61323f61323a8261233d565b613224565b82525050565b6000613251828561322e565b6020820191506132618284612c7a565b6014820191508190509392505050565b7f4552433732313a207472616e736665722066726f6d20696e636f72726563742060008201527f6f776e6572000000000000000000000000000000000000000000000000000000602082015250565b60006132cd6025836120ce565b91506132d882613271565b604082019050919050565b600060208201905081810360008301526132fc816132c0565b9050919050565b7f4552433732313a207472616e7366657220746f20746865207a65726f2061646460008201527f7265737300000000000000000000000000000000000000000000000000000000602082015250565b600061335f6024836120ce565b915061336a82613303565b604082019050919050565b6000602082019050818103600083015261338e81613352565b9050919050565b7f4f776e61626c653a2063616c6c6572206973206e6f7420746865206f776e6572600082015250565b60006133cb6020836120ce565b91506133d682613395565b602082019050919050565b600060208201905081810360008301526133fa816133be565b9050919050565b7f4552433732313a20617070726f766520746f2063616c6c657200000000000000600082015250565b60006134376019836120ce565b915061344282613401565b602082019050919050565b600060208201905081810360008301526134668161342a565b9050919050565b7f4552433732313a207472616e7366657220746f206e6f6e20455243373231526560008201527f63656976657220696d706c656d656e7465720000000000000000000000000000602082015250565b60006134c96032836120ce565b91506134d48261346d565b604082019050919050565b600060208201905081810360008301526134f8816134bc565b9050919050565b7f4552433732313a206d696e7420746f20746865207a65726f2061646472657373600082015250565b60006135356020836120ce565b9150613540826134ff565b602082019050919050565b6000602082019050818103600083015261356481613528565b9050919050565b7f4552433732313a20746f6b656e20616c7265616479206d696e74656400000000600082015250565b60006135a1601c836120ce565b91506135ac8261356b565b602082019050919050565b600060208201905081810360008301526135d081613594565b9050919050565b7f4e487b7100000000000000000000000000000000000000000000000000000000600052603260045260246000fd5b600081519050919050565b600082825260208201905092915050565b600061362d82613606565b6136378185613611565b93506136478185602086016120df565b61365081612109565b840191505092915050565b6000608082019050613670600083018761220a565b61367d602083018661220a565b61368a604083018561240f565b818103606083015261369c8184613622565b905095945050505050565b6000815190506136b681612034565b92915050565b6000602082840312156136d2576136d1611ffe565b5b60006136e0848285016136a7565b9150509291505056fea2646970667358221220a0c6e0ff9ba33c545abfcc7a6677942d1fe2b474098f6735b0a9fd2ead49b69e64736f6c63430008180033",
  "linkReferences": {},
  "deployedLinkReferences": {}
}