{
  "_format": "hh-sol-artifact-1",
  "contractName": "ERCAd",
  "sourceName": "contracts/ERCAd/ERCAd.sol",
  "abi": [
    {
      "inputs": [
        {
          "internalType": "string",
          "name": "name",
          "type": "string"
        },
        {
          "internalType": "string",
          "name": "symbol",
          "type": "string"
        }
      ],
      "stateMutability": "nonpayable",
      "type": "constructor"
    },
    {
      "anonymous": false,
      "inputs": [
        {
          "indexed": true,
          "internalType": "address",
          "name": "owner",
          "type": "address"
        },
        {
          "indexed": true,
          "internalType": "address",
          "name": "approved",
          "type": "address"
        },
        {
          "indexed": true,
          "internalType": "uint256",
          "name": "tokenId",
          "type": "uint256"
        }
      ],
      "name": "Approval",
      "type": "event"
    },
    {
      "anonymous": false,
      "inputs": [
        {
          "indexed": true,
          "internalType": "address",
          "name": "owner",
          "type": "address"
        },
        {
          "indexed": true,
          "internalType": "address",
          "name": "operator",
          "type": "address"
        },
        {
          "indexed": false,
          "internalType": "bool",
          "name": "approved",
          "type": "bool"
        }
      ],
      "name": "ApprovalForAll",
      "type": "event"
    },
    {
      "anonymous": false,
      "inputs": [
        {
          "indexed": true,
          "internalType": "address",
          "name": "previousOwner",
          "type": "address"
        },
        {
          "indexed": true,
          "internalType": "address",
          "name": "newOwner",
          "type": "address"
        }
      ],
      "name": "OwnershipTransferred",
      "type": "event"
    },
    {
      "anonymous": false,
      "inputs": [
        {
          "indexed": true,
          "internalType": "address",
          "name": "from",
          "type": "address"
        },
        {
          "indexed": true,
          "internalType": "address",
          "name": "to",
          "type": "address"
        },
        {
          "indexed": true,
          "internalType": "uint256",
          "name": "tokenId",
          "type": "uint256"
        }
      ],
      "name": "Transfer",
      "type": "event"
    },
    {
      "inputs": [
        {
          "internalType": "address",
          "name": "to",
          "type": "address"
        },
        {
          "internalType": "uint256",
          "name": "tokenId",
          "type": "uint256"
        }
      ],
      "name": "approve",
      "outputs": [],
      "stateMutability": "nonpayable",
      "type": "function"
    },
    {
      "inputs": [
        {
          "internalType": "address",
          "name": "owner",
          "type": "address"
        }
      ],
      "name": "balanceOf",
      "outputs": [
        {
          "internalType": "uint256",
          "name": "",
          "type": "uint256"
        }
      ],
      "stateMutability": "view",
      "type": "function"
    },
    {
      "inputs": [
        {
          "internalType": "uint256",
          "name": "id",
          "type": "uint256"
        }
      ],
      "name": "displayAd",
      "outputs": [
        {
          "components": [
            {
              "internalType": "string",
              "name": "adURI",
              "type": "string"
            },
            {
              "internalType": "string",
              "name": "dataURI",
              "type": "string"
            },
            {
              "internalType": "bytes32",
              "name": "signatureRoot",
              "type": "bytes32"
            },
            {
              "internalType": "bytes32",
              "name": "audienceRoot",
              "type": "bytes32"
            }
          ],
          "internalType": "struct IERCAd.Ad",
          "name": "",
          "type": "tuple"
        }
      ],
      "stateMutability": "view",
      "type": "function"
    },
    {
      "inputs": [
        {
          "internalType": "uint256",
          "name": "tokenId",
          "type": "uint256"
        }
      ],
      "name": "getApproved",
      "outputs": [
        {
          "internalType": "address",
          "name": "",
          "type": "address"
        }
      ],
      "stateMutability": "view",
      "type": "function"
    },
    {
      "inputs": [
        {
          "internalType": "uint256",
          "name": "id",
          "type": "uint256"
        },
        {
          "internalType": "bytes32[]",
          "name": "proof",
          "type": "bytes32[]"
        }
      ],
      "name": "hasSignedAd",
      "outputs": [
        {
          "internalType": "bool",
          "name": "",
          "type": "bool"
        }
      ],
      "stateMutability": "view",
      "type": "function"
    },
    {
      "inputs": [
        {
          "internalType": "address",
          "name": "owner",
          "type": "address"
        },
        {
          "internalType": "address",
          "name": "operator",
          "type": "address"
        }
      ],
      "name": "isApprovedForAll",
      "outputs": [
        {
          "internalType": "bool",
          "name": "",
          "type": "bool"
        }
      ],
      "stateMutability": "view",
      "type": "function"
    },
    {
      "inputs": [
        {
          "internalType": "uint256",
          "name": "id",
          "type": "uint256"
        },
        {
          "internalType": "bytes32[]",
          "name": "proof",
          "type": "bytes32[]"
        }
      ],
      "name": "isInAudience",
      "outputs": [
        {
          "internalType": "bool",
          "name": "",
          "type": "bool"
        }
      ],
      "stateMutability": "view",
      "type": "function"
    },
    {
      "inputs": [],
      "name": "name",
      "outputs": [
        {
          "internalType": "string",
          "name": "",
          "type": "string"
        }
      ],
      "stateMutability": "view",
      "type": "function"
    },
    {
      "inputs": [],
      "name": "owner",
      "outputs": [
        {
          "internalType": "address",
          "name": "",
          "type": "address"
        }
      ],
      "stateMutability": "view",
      "type": "function"
    },
    {
      "inputs": [
        {
          "internalType": "uint256",
          "name": "tokenId",
          "type": "uint256"
        }
      ],
      "name": "ownerOf",
      "outputs": [
        {
          "internalType": "address",
          "name": "",
          "type": "address"
        }
      ],
      "stateMutability": "view",
      "type": "function"
    },
    {
      "inputs": [],
      "name": "renounceOwnership",
      "outputs": [],
      "stateMutability": "nonpayable",
      "type": "function"
    },
    {
      "inputs": [
        {
          "internalType": "address",
          "name": "from",
          "type": "address"
        },
        {
          "internalType": "address",
          "name": "to",
          "type": "address"
        },
        {
          "internalType": "uint256",
          "name": "tokenId",
          "type": "uint256"
        }
      ],
      "name": "safeTransferFrom",
      "outputs": [],
      "stateMutability": "nonpayable",
      "type": "function"
    },
    {
      "inputs": [
        {
          "internalType": "address",
          "name": "from",
          "type": "address"
        },
        {
          "internalType": "address",
          "name": "to",
          "type": "address"
        },
        {
          "internalType": "uint256",
          "name": "tokenId",
          "type": "uint256"
        },
        {
          "internalType": "bytes",
          "name": "data",
          "type": "bytes"
        }
      ],
      "name": "safeTransferFrom",
      "outputs": [],
      "stateMutability": "nonpayable",
      "type": "function"
    },
    {
      "inputs": [
        {
          "internalType": "string",
          "name": "adURI",
          "type": "string"
        },
        {
          "internalType": "string",
          "name": "dataURI",
          "type": "string"
        },
        {
          "internalType": "bytes32",
          "name": "signatureRoot",
          "type": "bytes32"
        },
        {
          "internalType": "bytes32",
          "name": "audienceRoot",
          "type": "bytes32"
        }
      ],
      "name": "setAd",
      "outputs": [],
      "stateMutability": "nonpayable",
      "type": "function"
    },
    {
      "inputs": [
        {
          "internalType": "address",
          "name": "operator",
          "type": "address"
        },
        {
          "internalType": "bool",
          "name": "approved",
          "type": "bool"
        }
      ],
      "name": "setApprovalForAll",
      "outputs": [],
      "stateMutability": "nonpayable",
      "type": "function"
    },
    {
      "inputs": [
        {
          "internalType": "uint256",
          "name": "id",
          "type": "uint256"
        },
        {
          "internalType": "bytes32[]",
          "name": "proof",
          "type": "bytes32[]"
        }
      ],
      "name": "signAd",
      "outputs": [],
      "stateMutability": "nonpayable",
      "type": "function"
    },
    {
      "inputs": [
        {
          "internalType": "bytes4",
          "name": "interfaceId",
          "type": "bytes4"
        }
      ],
      "name": "supportsInterface",
      "outputs": [
        {
          "internalType": "bool",
          "name": "",
          "type": "bool"
        }
      ],
      "stateMutability": "view",
      "type": "function"
    },
    {
      "inputs": [],
      "name": "symbol",
      "outputs": [
        {
          "internalType": "string",
          "name": "",
          "type": "string"
        }
      ],
      "stateMutability": "view",
      "type": "function"
    },
    {
      "inputs": [
        {
          "internalType": "uint256",
          "name": "tokenId",
          "type": "uint256"
        }
      ],
      "name": "tokenURI",
      "outputs": [
        {
          "internalType": "string",
          "name": "",
          "type": "string"
        }
      ],
      "stateMutability": "view",
      "type": "function"
    },
    {
      "inputs": [
        {
          "internalType": "address",
          "name": "from",
          "type": "address"
        },
        {
          "internalType": "address",
          "name": "to",
          "type": "address"
        },
        {
          "internalType": "uint256",
          "name": "tokenId",
          "type": "uint256"
        }
      ],
      "name": "transferFrom",
      "outputs": [],
      "stateMutability": "nonpayable",
      "type": "function"
    },
    {
      "inputs": [
        {
          "internalType": "address",
          "name": "newOwner",
          "type": "address"
        }
      ],
      "name": "transferOwnership",
      "outputs": [],
      "stateMutability": "nonpayable",
      "type": "function"
    }
  ],
  "bytecode": "0x60806040523480156200001157600080fd5b5060405162003d3138038062003d318339818101604052810190620000379190620002e8565b818181600090816200004a9190620005b8565b5080600190816200005c9190620005b8565b5050506200007f620000736200008760201b60201c565b6200008f60201b60201c565b50506200069f565b600033905090565b6000600660009054906101000a900473ffffffffffffffffffffffffffffffffffffffff16905081600660006101000a81548173ffffffffffffffffffffffffffffffffffffffff021916908373ffffffffffffffffffffffffffffffffffffffff1602179055508173ffffffffffffffffffffffffffffffffffffffff168173ffffffffffffffffffffffffffffffffffffffff167f8be0079c531659141344cd1fd0a4f28419497f9722a3daafe3b4186f6b6457e060405160405180910390a35050565b6000604051905090565b600080fd5b600080fd5b600080fd5b600080fd5b6000601f19601f8301169050919050565b7f4e487b7100000000000000000000000000000000000000000000000000000000600052604160045260246000fd5b620001be8262000173565b810181811067ffffffffffffffff82111715620001e057620001df62000184565b5b80604052505050565b6000620001f562000155565b9050620002038282620001b3565b919050565b600067ffffffffffffffff82111562000226576200022562000184565b5b620002318262000173565b9050602081019050919050565b60005b838110156200025e57808201518184015260208101905062000241565b60008484015250505050565b6000620002816200027b8462000208565b620001e9565b905082815260208101848484011115620002a0576200029f6200016e565b5b620002ad8482856200023e565b509392505050565b600082601f830112620002cd57620002cc62000169565b5b8151620002df8482602086016200026a565b91505092915050565b600080604083850312156200030257620003016200015f565b5b600083015167ffffffffffffffff81111562000323576200032262000164565b5b6200033185828601620002b5565b925050602083015167ffffffffffffffff81111562000355576200035462000164565b5b6200036385828601620002b5565b9150509250929050565b600081519050919050565b7f4e487b7100000000000000000000000000000000000000000000000000000000600052602260045260246000fd5b60006002820490506001821680620003c057607f821691505b602082108103620003d657620003d562000378565b5b50919050565b60008190508160005260206000209050919050565b60006020601f8301049050919050565b600082821b905092915050565b600060088302620004407fffffffffffffffffffffffffffffffffffffffffffffffffffffffffffffffff8262000401565b6200044c868362000401565b95508019841693508086168417925050509392505050565b6000819050919050565b6000819050919050565b600062000499620004936200048d8462000464565b6200046e565b62000464565b9050919050565b6000819050919050565b620004b58362000478565b620004cd620004c482620004a0565b8484546200040e565b825550505050565b600090565b620004e4620004d5565b620004f1818484620004aa565b505050565b5b8181101562000519576200050d600082620004da565b600181019050620004f7565b5050565b601f82111562000568576200053281620003dc565b6200053d84620003f1565b810160208510156200054d578190505b620005656200055c85620003f1565b830182620004f6565b50505b505050565b600082821c905092915050565b60006200058d600019846008026200056d565b1980831691505092915050565b6000620005a883836200057a565b9150826002028217905092915050565b620005c3826200036d565b67ffffffffffffffff811115620005df57620005de62000184565b5b620005eb8254620003a7565b620005f88282856200051d565b600060209050601f8311600181146200063057600084156200061b578287015190505b6200062785826200059a565b86555062000697565b601f1984166200064086620003dc565b60005b828110156200066a5784890151825560018201915060208501945060208101905062000643565b868310156200068a578489015162000686601f8916826200057a565b8355505b6001600288020188555050505b505050505050565b61368280620006af6000396000f3fe608060405234801561001057600080fd5b50600436106101375760003560e01c80638b4d9eb9116100b8578063c87b56dd1161007c578063c87b56dd1461034c578063d13e2af91461037c578063dfe194fe14610398578063e985e9c5146103c8578063f2fde38b146103f8578063fe49e8331461041457610137565b80638b4d9eb9146102a85780638da5cb5b146102d857806395d89b41146102f6578063a22cb46514610314578063b88d4fde1461033057610137565b806342842e0e116100ff57806342842e0e146101f25780636352211e1461020e578063672fb9691461023e57806370a082311461026e578063715018a61461029e57610137565b806301ffc9a71461013c57806306fdde031461016c578063081812fc1461018a578063095ea7b3146101ba57806323b872dd146101d6575b600080fd5b61015660048036038101906101519190611fc3565b610430565b604051610163919061200b565b60405180910390f35b610174610512565b60405161018191906120b6565b60405180910390f35b6101a4600480360381019061019f919061210e565b6105a4565b6040516101b1919061217c565b60405180910390f35b6101d460048036038101906101cf91906121c3565b6105ea565b005b6101f060048036038101906101eb9190612203565b610701565b005b61020c60048036038101906102079190612203565b610761565b005b6102286004803603810190610223919061210e565b610781565b604051610235919061217c565b60405180910390f35b6102586004803603810190610253919061210e565b610807565b6040516102659190612323565b60405180910390f35b61028860048036038101906102839190612345565b61096c565b6040516102959190612381565b60405180910390f35b6102a6610a23565b005b6102c260048036038101906102bd9190612401565b610a37565b6040516102cf919061200b565b60405180910390f35b6102e0610b1e565b6040516102ed919061217c565b60405180910390f35b6102fe610b48565b60405161030b91906120b6565b60405180910390f35b61032e6004803603810190610329919061248d565b610bda565b005b61034a600480360381019061034591906125fd565b610bf0565b005b6103666004803603810190610361919061210e565b610c52565b60405161037391906120b6565b60405180910390f35b6103966004803603810190610391919061274d565b610d31565b005b6103b260048036038101906103ad9190612401565b610e2f565b6040516103bf919061200b565b60405180910390f35b6103e260048036038101906103dd91906127ec565b610f2f565b6040516103ef919061200b565b60405180910390f35b610412600480360381019061040d9190612345565b610fc3565b005b61042e60048036038101906104299190612401565b611046565b005b60007f80ac58cd000000000000000000000000000000000000000000000000000000007bffffffffffffffffffffffffffffffffffffffffffffffffffffffff1916827bffffffffffffffffffffffffffffffffffffffffffffffffffffffff191614806104fb57507f5b5e139f000000000000000000000000000000000000000000000000000000007bffffffffffffffffffffffffffffffffffffffffffffffffffffffff1916827bffffffffffffffffffffffffffffffffffffffffffffffffffffffff1916145b8061050b575061050a826111fb565b5b9050919050565b6060600080546105219061285b565b80601f016020809104026020016040519081016040528092919081815260200182805461054d9061285b565b801561059a5780601f1061056f5761010080835404028352916020019161059a565b820191906000526020600020905b81548152906001019060200180831161057d57829003601f168201915b5050505050905090565b60006105af82611265565b6004600083815260200190815260200160002060009054906101000a900473ffffffffffffffffffffffffffffffffffffffff169050919050565b60006105f582610781565b90508073ffffffffffffffffffffffffffffffffffffffff168373ffffffffffffffffffffffffffffffffffffffff1603610665576040517f08c379a000000000000000000000000000000000000000000000000000000000815260040161065c906128fe565b60405180910390fd5b8073ffffffffffffffffffffffffffffffffffffffff166106846112b0565b73ffffffffffffffffffffffffffffffffffffffff1614806106b357506106b2816106ad6112b0565b610f2f565b5b6106f2576040517f08c379a00000000000000000000000000000000000000000000000000000000081526004016106e990612990565b60405180910390fd5b6106fc83836112b8565b505050565b61071261070c6112b0565b82611371565b610751576040517f08c379a000000000000000000000000000000000000000000000000000000000815260040161074890612a22565b60405180910390fd5b61075c838383611406565b505050565b61077c83838360405180602001604052806000815250610bf0565b505050565b60008061078d836116ff565b9050600073ffffffffffffffffffffffffffffffffffffffff168173ffffffffffffffffffffffffffffffffffffffff16036107fe576040517f08c379a00000000000000000000000000000000000000000000000000000000081526004016107f590612a8e565b60405180910390fd5b80915050919050565b61080f611f29565b600c600083815260200190815260200160002060405180608001604052908160008201805461083d9061285b565b80601f01602080910402602001604051908101604052809291908181526020018280546108699061285b565b80156108b65780601f1061088b576101008083540402835291602001916108b6565b820191906000526020600020905b81548152906001019060200180831161089957829003601f168201915b505050505081526020016001820180546108cf9061285b565b80601f01602080910402602001604051908101604052809291908181526020018280546108fb9061285b565b80156109485780601f1061091d57610100808354040283529160200191610948565b820191906000526020600020905b81548152906001019060200180831161092b57829003601f168201915b50505050508152602001600282015481526020016003820154815250509050919050565b60008073ffffffffffffffffffffffffffffffffffffffff168273ffffffffffffffffffffffffffffffffffffffff16036109dc576040517f08c379a00000000000000000000000000000000000000000000000000000000081526004016109d390612b20565b60405180910390fd5b600360008373ffffffffffffffffffffffffffffffffffffffff1673ffffffffffffffffffffffffffffffffffffffff168152602001908152602001600020549050919050565b610a2b61173c565b610a3560006117ba565b565b6000610a4284611880565b610a81576040517f08c379a0000000000000000000000000000000000000000000000000000000008152600401610a7890612b8c565b60405180910390fd5b6000600c60008681526020019081526020016000209050600033604051602001610aab9190612bf4565b604051602081830303815290604052805190602001209050610b13858580806020026020016040519081016040528093929190818152602001838360200280828437600081840152601f19601f820116905080830192505050505050508360020154836118c1565b925050509392505050565b6000600660009054906101000a900473ffffffffffffffffffffffffffffffffffffffff16905090565b606060018054610b579061285b565b80601f0160208091040260200160405190810160405280929190818152602001828054610b839061285b565b8015610bd05780601f10610ba557610100808354040283529160200191610bd0565b820191906000526020600020905b815481529060010190602001808311610bb357829003601f168201915b5050505050905090565b610bec610be56112b0565b83836118d8565b5050565b610c01610bfb6112b0565b83611371565b610c40576040517f08c379a0000000000000000000000000000000000000000000000000000000008152600401610c3790612a22565b60405180910390fd5b610c4c84848484611a44565b50505050565b6060610c5d82611880565b610c9c576040517f08c379a0000000000000000000000000000000000000000000000000000000008152600401610c9390612c81565b60405180910390fd5b60086000018054610cac9061285b565b80601f0160208091040260200160405190810160405280929190818152602001828054610cd89061285b565b8015610d255780601f10610cfa57610100808354040283529160200191610d25565b820191906000526020600020905b815481529060010190602001808311610d0857829003601f168201915b50505050509050919050565b610d3961173c565b610d436007611aa0565b6000610d4f6007611ab6565b9050604051806080016040528086815260200185815260200184815260200183815250600c60008381526020019081526020016000206000820151816000019081610d9a9190612e4d565b506020820151816001019081610db09190612e4d565b506040820151816002015560608201518160030155905050610dd23382611ac4565b600c6000828152602001908152602001600020600860008201816000019081610dfb9190612f35565b5060018201816001019081610e109190612f35565b5060028201548160020155600382015481600301559050505050505050565b6000610e3a84611880565b610e79576040517f08c379a0000000000000000000000000000000000000000000000000000000008152600401610e7090612b8c565b60405180910390fd5b6000600c600086815260200190815260200160002090506000801b816003015414610f2257600033604051602001610eb19190612bf4565b604051602081830303815290604052805190602001209050610f19858580806020026020016040519081016040528093929190818152602001838360200280828437600081840152601f19601f820116905080830192505050505050508360030154836118c1565b92505050610f28565b60019150505b9392505050565b6000600560008473ffffffffffffffffffffffffffffffffffffffff1673ffffffffffffffffffffffffffffffffffffffff16815260200190815260200160002060008373ffffffffffffffffffffffffffffffffffffffff1673ffffffffffffffffffffffffffffffffffffffff16815260200190815260200160002060009054906101000a900460ff16905092915050565b610fcb61173c565b600073ffffffffffffffffffffffffffffffffffffffff168173ffffffffffffffffffffffffffffffffffffffff160361103a576040517f08c379a00000000000000000000000000000000000000000000000000000000081526004016110319061308f565b60405180910390fd5b611043816117ba565b50565b61104f83611880565b61108e576040517f08c379a000000000000000000000000000000000000000000000000000000000815260040161108590612b8c565b60405180910390fd5b6000600c600085815260200190815260200160002090506110b0848484610a37565b156110f0576040517f08c379a00000000000000000000000000000000000000000000000000000000081526004016110e7906130fb565b60405180910390fd5b6000801b8160030154146111ba576000336040516020016111119190612bf4565b604051602081830303815290604052805190602001209050611179848480806020026020016040519081016040528093929190818152602001838360200280828437600081840152601f19601f820116905080830192505050505050508360030154836118c1565b6111b8576040517f08c379a00000000000000000000000000000000000000000000000000000000081526004016111af90613167565b60405180910390fd5b505b60008160020154336040516020016111d39291906131a8565b6040516020818303038152906040529050808051906020012082600201819055505050505050565b60007f01ffc9a7000000000000000000000000000000000000000000000000000000007bffffffffffffffffffffffffffffffffffffffffffffffffffffffff1916827bffffffffffffffffffffffffffffffffffffffffffffffffffffffff1916149050919050565b61126e81611880565b6112ad576040517f08c379a00000000000000000000000000000000000000000000000000000000081526004016112a490612a8e565b60405180910390fd5b50565b600033905090565b816004600083815260200190815260200160002060006101000a81548173ffffffffffffffffffffffffffffffffffffffff021916908373ffffffffffffffffffffffffffffffffffffffff160217905550808273ffffffffffffffffffffffffffffffffffffffff1661132b83610781565b73ffffffffffffffffffffffffffffffffffffffff167f8c5be1e5ebec7d5bd14f71427d1e84f3dd0314c0f7b2291e5b200ac8c7c3b92560405160405180910390a45050565b60008061137d83610781565b90508073ffffffffffffffffffffffffffffffffffffffff168473ffffffffffffffffffffffffffffffffffffffff1614806113bf57506113be8185610f2f565b5b806113fd57508373ffffffffffffffffffffffffffffffffffffffff166113e5846105a4565b73ffffffffffffffffffffffffffffffffffffffff16145b91505092915050565b8273ffffffffffffffffffffffffffffffffffffffff1661142682610781565b73ffffffffffffffffffffffffffffffffffffffff161461147c576040517f08c379a000000000000000000000000000000000000000000000000000000000815260040161147390613246565b60405180910390fd5b600073ffffffffffffffffffffffffffffffffffffffff168273ffffffffffffffffffffffffffffffffffffffff16036114eb576040517f08c379a00000000000000000000000000000000000000000000000000000000081526004016114e2906132d8565b60405180910390fd5b6114f88383836001611ce1565b8273ffffffffffffffffffffffffffffffffffffffff1661151882610781565b73ffffffffffffffffffffffffffffffffffffffff161461156e576040517f08c379a000000000000000000000000000000000000000000000000000000000815260040161156590613246565b60405180910390fd5b6004600082815260200190815260200160002060006101000a81549073ffffffffffffffffffffffffffffffffffffffff02191690556001600360008573ffffffffffffffffffffffffffffffffffffffff1673ffffffffffffffffffffffffffffffffffffffff168152602001908152602001600020600082825403925050819055506001600360008473ffffffffffffffffffffffffffffffffffffffff1673ffffffffffffffffffffffffffffffffffffffff16815260200190815260200160002060008282540192505081905550816002600083815260200190815260200160002060006101000a81548173ffffffffffffffffffffffffffffffffffffffff021916908373ffffffffffffffffffffffffffffffffffffffff160217905550808273ffffffffffffffffffffffffffffffffffffffff168473ffffffffffffffffffffffffffffffffffffffff167fddf252ad1be2c89b69c2b068fc378daa952ba7f163c4a11628f55a4df523b3ef60405160405180910390a46116fa8383836001611ce7565b505050565b60006002600083815260200190815260200160002060009054906101000a900473ffffffffffffffffffffffffffffffffffffffff169050919050565b6117446112b0565b73ffffffffffffffffffffffffffffffffffffffff16611762610b1e565b73ffffffffffffffffffffffffffffffffffffffff16146117b8576040517f08c379a00000000000000000000000000000000000000000000000000000000081526004016117af90613344565b60405180910390fd5b565b6000600660009054906101000a900473ffffffffffffffffffffffffffffffffffffffff16905081600660006101000a81548173ffffffffffffffffffffffffffffffffffffffff021916908373ffffffffffffffffffffffffffffffffffffffff1602179055508173ffffffffffffffffffffffffffffffffffffffff168173ffffffffffffffffffffffffffffffffffffffff167f8be0079c531659141344cd1fd0a4f28419497f9722a3daafe3b4186f6b6457e060405160405180910390a35050565b60008073ffffffffffffffffffffffffffffffffffffffff166118a2836116ff565b73ffffffffffffffffffffffffffffffffffffffff1614159050919050565b6000826118ce8584611ced565b1490509392505050565b8173ffffffffffffffffffffffffffffffffffffffff168373ffffffffffffffffffffffffffffffffffffffff1603611946576040517f08c379a000000000000000000000000000000000000000000000000000000000815260040161193d906133b0565b60405180910390fd5b80600560008573ffffffffffffffffffffffffffffffffffffffff1673ffffffffffffffffffffffffffffffffffffffff16815260200190815260200160002060008473ffffffffffffffffffffffffffffffffffffffff1673ffffffffffffffffffffffffffffffffffffffff16815260200190815260200160002060006101000a81548160ff0219169083151502179055508173ffffffffffffffffffffffffffffffffffffffff168373ffffffffffffffffffffffffffffffffffffffff167f17307eab39ab6107e8899845ad3d59bd9653f200f220920489ca2b5937696c3183604051611a37919061200b565b60405180910390a3505050565b611a4f848484611406565b611a5b84848484611d3d565b611a9a576040517f08c379a0000000000000000000000000000000000000000000000000000000008152600401611a9190613442565b60405180910390fd5b50505050565b6001816000016000828254019250508190555050565b600081600001549050919050565b600073ffffffffffffffffffffffffffffffffffffffff168273ffffffffffffffffffffffffffffffffffffffff1603611b33576040517f08c379a0000000000000000000000000000000000000000000000000000000008152600401611b2a906134ae565b60405180910390fd5b611b3c81611880565b15611b7c576040517f08c379a0000000000000000000000000000000000000000000000000000000008152600401611b739061351a565b60405180910390fd5b611b8a600083836001611ce1565b611b9381611880565b15611bd3576040517f08c379a0000000000000000000000000000000000000000000000000000000008152600401611bca9061351a565b60405180910390fd5b6001600360008473ffffffffffffffffffffffffffffffffffffffff1673ffffffffffffffffffffffffffffffffffffffff16815260200190815260200160002060008282540192505081905550816002600083815260200190815260200160002060006101000a81548173ffffffffffffffffffffffffffffffffffffffff021916908373ffffffffffffffffffffffffffffffffffffffff160217905550808273ffffffffffffffffffffffffffffffffffffffff16600073ffffffffffffffffffffffffffffffffffffffff167fddf252ad1be2c89b69c2b068fc378daa952ba7f163c4a11628f55a4df523b3ef60405160405180910390a4611cdd600083836001611ce7565b5050565b50505050565b50505050565b60008082905060005b8451811015611d3257611d2382868381518110611d1657611d1561353a565b5b6020026020010151611ec4565b91508080600101915050611cf6565b508091505092915050565b6000611d5e8473ffffffffffffffffffffffffffffffffffffffff16611eef565b15611eb7578373ffffffffffffffffffffffffffffffffffffffff1663150b7a02611d876112b0565b8786866040518563ffffffff1660e01b8152600401611da994939291906135be565b6020604051808303816000875af1925050508015611de557506040513d601f19601f82011682018060405250810190611de2919061361f565b60015b611e67573d8060008114611e15576040519150601f19603f3d011682016040523d82523d6000602084013e611e1a565b606091505b506000815103611e5f576040517f08c379a0000000000000000000000000000000000000000000000000000000008152600401611e5690613442565b60405180910390fd5b805181602001fd5b63150b7a0260e01b7bffffffffffffffffffffffffffffffffffffffffffffffffffffffff1916817bffffffffffffffffffffffffffffffffffffffffffffffffffffffff191614915050611ebc565b600190505b949350505050565b6000818310611edc57611ed78284611f12565b611ee7565b611ee68383611f12565b5b905092915050565b6000808273ffffffffffffffffffffffffffffffffffffffff163b119050919050565b600082600052816020526040600020905092915050565b6040518060800160405280606081526020016060815260200160008019168152602001600080191681525090565b6000604051905090565b600080fd5b600080fd5b60007fffffffff0000000000000000000000000000000000000000000000000000000082169050919050565b611fa081611f6b565b8114611fab57600080fd5b50565b600081359050611fbd81611f97565b92915050565b600060208284031215611fd957611fd8611f61565b5b6000611fe784828501611fae565b91505092915050565b60008115159050919050565b61200581611ff0565b82525050565b60006020820190506120206000830184611ffc565b92915050565b600081519050919050565b600082825260208201905092915050565b60005b83811015612060578082015181840152602081019050612045565b60008484015250505050565b6000601f19601f8301169050919050565b600061208882612026565b6120928185612031565b93506120a2818560208601612042565b6120ab8161206c565b840191505092915050565b600060208201905081810360008301526120d0818461207d565b905092915050565b6000819050919050565b6120eb816120d8565b81146120f657600080fd5b50565b600081359050612108816120e2565b92915050565b60006020828403121561212457612123611f61565b5b6000612132848285016120f9565b91505092915050565b600073ffffffffffffffffffffffffffffffffffffffff82169050919050565b60006121668261213b565b9050919050565b6121768161215b565b82525050565b6000602082019050612191600083018461216d565b92915050565b6121a08161215b565b81146121ab57600080fd5b50565b6000813590506121bd81612197565b92915050565b600080604083850312156121da576121d9611f61565b5b60006121e8858286016121ae565b92505060206121f9858286016120f9565b9150509250929050565b60008060006060848603121561221c5761221b611f61565b5b600061222a868287016121ae565b935050602061223b868287016121ae565b925050604061224c868287016120f9565b9150509250925092565b600082825260208201905092915050565b600061227282612026565b61227c8185612256565b935061228c818560208601612042565b6122958161206c565b840191505092915050565b6000819050919050565b6122b3816122a0565b82525050565b600060808301600083015184820360008601526122d68282612267565b915050602083015184820360208601526122f08282612267565b915050604083015161230560408601826122aa565b50606083015161231860608601826122aa565b508091505092915050565b6000602082019050818103600083015261233d81846122b9565b905092915050565b60006020828403121561235b5761235a611f61565b5b6000612369848285016121ae565b91505092915050565b61237b816120d8565b82525050565b60006020820190506123966000830184612372565b92915050565b600080fd5b600080fd5b600080fd5b60008083601f8401126123c1576123c061239c565b5b8235905067ffffffffffffffff8111156123de576123dd6123a1565b5b6020830191508360208202830111156123fa576123f96123a6565b5b9250929050565b60008060006040848603121561241a57612419611f61565b5b6000612428868287016120f9565b935050602084013567ffffffffffffffff81111561244957612448611f66565b5b612455868287016123ab565b92509250509250925092565b61246a81611ff0565b811461247557600080fd5b50565b60008135905061248781612461565b92915050565b600080604083850312156124a4576124a3611f61565b5b60006124b2858286016121ae565b92505060206124c385828601612478565b9150509250929050565b600080fd5b7f4e487b7100000000000000000000000000000000000000000000000000000000600052604160045260246000fd5b61250a8261206c565b810181811067ffffffffffffffff82111715612529576125286124d2565b5b80604052505050565b600061253c611f57565b90506125488282612501565b919050565b600067ffffffffffffffff821115612568576125676124d2565b5b6125718261206c565b9050602081019050919050565b82818337600083830152505050565b60006125a061259b8461254d565b612532565b9050828152602081018484840111156125bc576125bb6124cd565b5b6125c784828561257e565b509392505050565b600082601f8301126125e4576125e361239c565b5b81356125f484826020860161258d565b91505092915050565b6000806000806080858703121561261757612616611f61565b5b6000612625878288016121ae565b9450506020612636878288016121ae565b9350506040612647878288016120f9565b925050606085013567ffffffffffffffff81111561266857612667611f66565b5b612674878288016125cf565b91505092959194509250565b600067ffffffffffffffff82111561269b5761269a6124d2565b5b6126a48261206c565b9050602081019050919050565b60006126c46126bf84612680565b612532565b9050828152602081018484840111156126e0576126df6124cd565b5b6126eb84828561257e565b509392505050565b600082601f8301126127085761270761239c565b5b81356127188482602086016126b1565b91505092915050565b61272a816122a0565b811461273557600080fd5b50565b60008135905061274781612721565b92915050565b6000806000806080858703121561276757612766611f61565b5b600085013567ffffffffffffffff81111561278557612784611f66565b5b612791878288016126f3565b945050602085013567ffffffffffffffff8111156127b2576127b1611f66565b5b6127be878288016126f3565b93505060406127cf87828801612738565b92505060606127e087828801612738565b91505092959194509250565b6000806040838503121561280357612802611f61565b5b6000612811858286016121ae565b9250506020612822858286016121ae565b9150509250929050565b7f4e487b7100000000000000000000000000000000000000000000000000000000600052602260045260246000fd5b6000600282049050600182168061287357607f821691505b6020821081036128865761288561282c565b5b50919050565b7f4552433732313a20617070726f76616c20746f2063757272656e74206f776e6560008201527f7200000000000000000000000000000000000000000000000000000000000000602082015250565b60006128e8602183612031565b91506128f38261288c565b604082019050919050565b60006020820190508181036000830152612917816128db565b9050919050565b7f4552433732313a20617070726f76652063616c6c6572206973206e6f7420746f60008201527f6b656e206f776e6572206f7220617070726f76656420666f7220616c6c000000602082015250565b600061297a603d83612031565b91506129858261291e565b604082019050919050565b600060208201905081810360008301526129a98161296d565b9050919050565b7f4552433732313a2063616c6c6572206973206e6f7420746f6b656e206f776e6560008201527f72206f7220617070726f76656400000000000000000000000000000000000000602082015250565b6000612a0c602d83612031565b9150612a17826129b0565b604082019050919050565b60006020820190508181036000830152612a3b816129ff565b9050919050565b7f4552433732313a20696e76616c696420746f6b656e2049440000000000000000600082015250565b6000612a78601883612031565b9150612a8382612a42565b602082019050919050565b60006020820190508181036000830152612aa781612a6b565b9050919050565b7f4552433732313a2061646472657373207a65726f206973206e6f74206120766160008201527f6c6964206f776e65720000000000000000000000000000000000000000000000602082015250565b6000612b0a602983612031565b9150612b1582612aae565b604082019050919050565b60006020820190508181036000830152612b3981612afd565b9050919050565b7f4552433732313a20616420646f6573206e6f7420657869737400000000000000600082015250565b6000612b76601983612031565b9150612b8182612b40565b602082019050919050565b60006020820190508181036000830152612ba581612b69565b9050919050565b60008160601b9050919050565b6000612bc482612bac565b9050919050565b6000612bd682612bb9565b9050919050565b612bee612be98261215b565b612bcb565b82525050565b6000612c008284612bdd565b60148201915081905092915050565b7f4552433732314d657461646174613a2055524920717565727920666f72206e6f60008201527f6e6578697374656e7420746f6b656e0000000000000000000000000000000000602082015250565b6000612c6b602f83612031565b9150612c7682612c0f565b604082019050919050565b60006020820190508181036000830152612c9a81612c5e565b9050919050565b60008190508160005260206000209050919050565b60006020601f8301049050919050565b600082821b905092915050565b600060088302612d037fffffffffffffffffffffffffffffffffffffffffffffffffffffffffffffffff82612cc6565b612d0d8683612cc6565b95508019841693508086168417925050509392505050565b6000819050919050565b6000612d4a612d45612d40846120d8565b612d25565b6120d8565b9050919050565b6000819050919050565b612d6483612d2f565b612d78612d7082612d51565b848454612cd3565b825550505050565b600090565b612d8d612d80565b612d98818484612d5b565b505050565b5b81811015612dbc57612db1600082612d85565b600181019050612d9e565b5050565b601f821115612e0157612dd281612ca1565b612ddb84612cb6565b81016020851015612dea578190505b612dfe612df685612cb6565b830182612d9d565b50505b505050565b600082821c905092915050565b6000612e2460001984600802612e06565b1980831691505092915050565b6000612e3d8383612e13565b9150826002028217905092915050565b612e5682612026565b67ffffffffffffffff811115612e6f57612e6e6124d2565b5b612e79825461285b565b612e84828285612dc0565b600060209050601f831160018114612eb75760008415612ea5578287015190505b612eaf8582612e31565b865550612f17565b601f198416612ec586612ca1565b60005b82811015612eed57848901518255600182019150602085019450602081019050612ec8565b86831015612f0a5784890151612f06601f891682612e13565b8355505b6001600288020188555050505b505050505050565b600081549050612f2e8161285b565b9050919050565b818103612f4357505061301b565b612f4c82612f1f565b67ffffffffffffffff811115612f6557612f646124d2565b5b612f6f825461285b565b612f7a828285612dc0565b6000601f831160018114612fa95760008415612f97578287015490505b612fa18582612e31565b865550613014565b601f198416612fb787612ca1565b9650612fc286612ca1565b60005b82811015612fea57848901548255600182019150600185019450602081019050612fc5565b868310156130075784890154613003601f891682612e13565b8355505b6001600288020188555050505b5050505050505b565b7f4f776e61626c653a206e6577206f776e657220697320746865207a65726f206160008201527f6464726573730000000000000000000000000000000000000000000000000000602082015250565b6000613079602683612031565b91506130848261301d565b604082019050919050565b600060208201905081810360008301526130a88161306c565b9050919050565b7f53656e64657220616c7265616479207369676e65640000000000000000000000600082015250565b60006130e5601583612031565b91506130f0826130af565b602082019050919050565b60006020820190508181036000830152613114816130d8565b9050919050565b7f53656e646572206e6f7420696e207461726765742061756469656e6365000000600082015250565b6000613151601d83612031565b915061315c8261311b565b602082019050919050565b6000602082019050818103600083015261318081613144565b9050919050565b6000819050919050565b6131a261319d826122a0565b613187565b82525050565b60006131b48285613191565b6020820191506131c48284612bdd565b6014820191508190509392505050565b7f4552433732313a207472616e736665722066726f6d20696e636f72726563742060008201527f6f776e6572000000000000000000000000000000000000000000000000000000602082015250565b6000613230602583612031565b915061323b826131d4565b604082019050919050565b6000602082019050818103600083015261325f81613223565b9050919050565b7f4552433732313a207472616e7366657220746f20746865207a65726f2061646460008201527f7265737300000000000000000000000000000000000000000000000000000000602082015250565b60006132c2602483612031565b91506132cd82613266565b604082019050919050565b600060208201905081810360008301526132f1816132b5565b9050919050565b7f4f776e61626c653a2063616c6c6572206973206e6f7420746865206f776e6572600082015250565b600061332e602083612031565b9150613339826132f8565b602082019050919050565b6000602082019050818103600083015261335d81613321565b9050919050565b7f4552433732313a20617070726f766520746f2063616c6c657200000000000000600082015250565b600061339a601983612031565b91506133a582613364565b602082019050919050565b600060208201905081810360008301526133c98161338d565b9050919050565b7f4552433732313a207472616e7366657220746f206e6f6e20455243373231526560008201527f63656976657220696d706c656d656e7465720000000000000000000000000000602082015250565b600061342c603283612031565b9150613437826133d0565b604082019050919050565b6000602082019050818103600083015261345b8161341f565b9050919050565b7f4552433732313a206d696e7420746f20746865207a65726f2061646472657373600082015250565b6000613498602083612031565b91506134a382613462565b602082019050919050565b600060208201905081810360008301526134c78161348b565b9050919050565b7f4552433732313a20746f6b656e20616c7265616479206d696e74656400000000600082015250565b6000613504601c83612031565b915061350f826134ce565b602082019050919050565b60006020820190508181036000830152613533816134f7565b9050919050565b7f4e487b7100000000000000000000000000000000000000000000000000000000600052603260045260246000fd5b600081519050919050565b600082825260208201905092915050565b600061359082613569565b61359a8185613574565b93506135aa818560208601612042565b6135b38161206c565b840191505092915050565b60006080820190506135d3600083018761216d565b6135e0602083018661216d565b6135ed6040830185612372565b81810360608301526135ff8184613585565b905095945050505050565b60008151905061361981611f97565b92915050565b60006020828403121561363557613634611f61565b5b60006136438482850161360a565b9150509291505056fea26469706673582212202492aa0b4aa61055fd119f371bc07c26b04c9cc40db97842adda2ef7f894cebb64736f6c63430008180033",
  "linkReferences": {},
  "deployedLinkReferences": {}
}