{
  "_format": "hh-sol-artifact-1",
  "contractName": "ERCAd",
  "sourceName": "contracts/ERCAd/ERCAd.sol",
  "abi": [
    {
      "inputs": [
        {
          "internalType": "string",
          "name": "name",
          "type": "string"
        },
        {
          "internalType": "string",
          "name": "symbol",
          "type": "string"
        }
      ],
      "stateMutability": "nonpayable",
      "type": "constructor"
    },
    {
      "anonymous": false,
      "inputs": [
        {
          "indexed": true,
          "internalType": "address",
          "name": "owner",
          "type": "address"
        },
        {
          "indexed": true,
          "internalType": "address",
          "name": "approved",
          "type": "address"
        },
        {
          "indexed": true,
          "internalType": "uint256",
          "name": "tokenId",
          "type": "uint256"
        }
      ],
      "name": "Approval",
      "type": "event"
    },
    {
      "anonymous": false,
      "inputs": [
        {
          "indexed": true,
          "internalType": "address",
          "name": "owner",
          "type": "address"
        },
        {
          "indexed": true,
          "internalType": "address",
          "name": "operator",
          "type": "address"
        },
        {
          "indexed": false,
          "internalType": "bool",
          "name": "approved",
          "type": "bool"
        }
      ],
      "name": "ApprovalForAll",
      "type": "event"
    },
    {
      "anonymous": false,
      "inputs": [
        {
          "indexed": true,
          "internalType": "address",
          "name": "previousOwner",
          "type": "address"
        },
        {
          "indexed": true,
          "internalType": "address",
          "name": "newOwner",
          "type": "address"
        }
      ],
      "name": "OwnershipTransferred",
      "type": "event"
    },
    {
      "anonymous": false,
      "inputs": [
        {
          "indexed": true,
          "internalType": "address",
          "name": "from",
          "type": "address"
        },
        {
          "indexed": true,
          "internalType": "address",
          "name": "to",
          "type": "address"
        },
        {
          "indexed": true,
          "internalType": "uint256",
          "name": "tokenId",
          "type": "uint256"
        }
      ],
      "name": "Transfer",
      "type": "event"
    },
    {
      "inputs": [
        {
          "internalType": "address",
          "name": "to",
          "type": "address"
        },
        {
          "internalType": "uint256",
          "name": "tokenId",
          "type": "uint256"
        }
      ],
      "name": "approve",
      "outputs": [],
      "stateMutability": "nonpayable",
      "type": "function"
    },
    {
      "inputs": [
        {
          "internalType": "address",
          "name": "owner",
          "type": "address"
        }
      ],
      "name": "balanceOf",
      "outputs": [
        {
          "internalType": "uint256",
          "name": "",
          "type": "uint256"
        }
      ],
      "stateMutability": "view",
      "type": "function"
    },
    {
      "inputs": [
        {
          "internalType": "uint256",
          "name": "id",
          "type": "uint256"
        }
      ],
      "name": "displayAd",
      "outputs": [
        {
          "components": [
            {
              "internalType": "string",
              "name": "adURI",
              "type": "string"
            },
            {
              "internalType": "string",
              "name": "dataURI",
              "type": "string"
            },
            {
              "internalType": "bytes32",
              "name": "signatureRoot",
              "type": "bytes32"
            },
            {
              "internalType": "bytes32",
              "name": "audienceRoot",
              "type": "bytes32"
            },
            {
              "internalType": "bool",
              "name": "isActive",
              "type": "bool"
            }
          ],
          "internalType": "struct IERCAd.Ad",
          "name": "",
          "type": "tuple"
        }
      ],
      "stateMutability": "view",
      "type": "function"
    },
    {
      "inputs": [
        {
          "internalType": "uint256",
          "name": "tokenId",
          "type": "uint256"
        }
      ],
      "name": "getApproved",
      "outputs": [
        {
          "internalType": "address",
          "name": "",
          "type": "address"
        }
      ],
      "stateMutability": "view",
      "type": "function"
    },
    {
      "inputs": [
        {
          "internalType": "uint256",
          "name": "id",
          "type": "uint256"
        },
        {
          "internalType": "bytes32[]",
          "name": "proof",
          "type": "bytes32[]"
        }
      ],
      "name": "hasSignedAd",
      "outputs": [
        {
          "internalType": "bool",
          "name": "",
          "type": "bool"
        }
      ],
      "stateMutability": "view",
      "type": "function"
    },
    {
      "inputs": [
        {
          "internalType": "address",
          "name": "owner",
          "type": "address"
        },
        {
          "internalType": "address",
          "name": "operator",
          "type": "address"
        }
      ],
      "name": "isApprovedForAll",
      "outputs": [
        {
          "internalType": "bool",
          "name": "",
          "type": "bool"
        }
      ],
      "stateMutability": "view",
      "type": "function"
    },
    {
      "inputs": [
        {
          "internalType": "uint256",
          "name": "id",
          "type": "uint256"
        },
        {
          "internalType": "bytes32[]",
          "name": "proof",
          "type": "bytes32[]"
        }
      ],
      "name": "isInAudience",
      "outputs": [
        {
          "internalType": "bool",
          "name": "",
          "type": "bool"
        }
      ],
      "stateMutability": "view",
      "type": "function"
    },
    {
      "inputs": [],
      "name": "name",
      "outputs": [
        {
          "internalType": "string",
          "name": "",
          "type": "string"
        }
      ],
      "stateMutability": "view",
      "type": "function"
    },
    {
      "inputs": [],
      "name": "owner",
      "outputs": [
        {
          "internalType": "address",
          "name": "",
          "type": "address"
        }
      ],
      "stateMutability": "view",
      "type": "function"
    },
    {
      "inputs": [
        {
          "internalType": "uint256",
          "name": "tokenId",
          "type": "uint256"
        }
      ],
      "name": "ownerOf",
      "outputs": [
        {
          "internalType": "address",
          "name": "",
          "type": "address"
        }
      ],
      "stateMutability": "view",
      "type": "function"
    },
    {
      "inputs": [],
      "name": "renounceOwnership",
      "outputs": [],
      "stateMutability": "nonpayable",
      "type": "function"
    },
    {
      "inputs": [
        {
          "internalType": "address",
          "name": "from",
          "type": "address"
        },
        {
          "internalType": "address",
          "name": "to",
          "type": "address"
        },
        {
          "internalType": "uint256",
          "name": "tokenId",
          "type": "uint256"
        }
      ],
      "name": "safeTransferFrom",
      "outputs": [],
      "stateMutability": "nonpayable",
      "type": "function"
    },
    {
      "inputs": [
        {
          "internalType": "address",
          "name": "from",
          "type": "address"
        },
        {
          "internalType": "address",
          "name": "to",
          "type": "address"
        },
        {
          "internalType": "uint256",
          "name": "tokenId",
          "type": "uint256"
        },
        {
          "internalType": "bytes",
          "name": "data",
          "type": "bytes"
        }
      ],
      "name": "safeTransferFrom",
      "outputs": [],
      "stateMutability": "nonpayable",
      "type": "function"
    },
    {
      "inputs": [
        {
          "internalType": "string",
          "name": "adURI",
          "type": "string"
        },
        {
          "internalType": "string",
          "name": "dataURI",
          "type": "string"
        },
        {
          "internalType": "bytes32",
          "name": "signatureRoot",
          "type": "bytes32"
        },
        {
          "internalType": "bytes32",
          "name": "audienceRoot",
          "type": "bytes32"
        }
      ],
      "name": "setAd",
      "outputs": [],
      "stateMutability": "nonpayable",
      "type": "function"
    },
    {
      "inputs": [
        {
          "internalType": "address",
          "name": "operator",
          "type": "address"
        },
        {
          "internalType": "bool",
          "name": "approved",
          "type": "bool"
        }
      ],
      "name": "setApprovalForAll",
      "outputs": [],
      "stateMutability": "nonpayable",
      "type": "function"
    },
    {
      "inputs": [
        {
          "internalType": "uint256",
          "name": "id",
          "type": "uint256"
        },
        {
          "internalType": "bytes32[]",
          "name": "proof",
          "type": "bytes32[]"
        }
      ],
      "name": "signAd",
      "outputs": [],
      "stateMutability": "nonpayable",
      "type": "function"
    },
    {
      "inputs": [
        {
          "internalType": "bytes4",
          "name": "interfaceId",
          "type": "bytes4"
        }
      ],
      "name": "supportsInterface",
      "outputs": [
        {
          "internalType": "bool",
          "name": "",
          "type": "bool"
        }
      ],
      "stateMutability": "view",
      "type": "function"
    },
    {
      "inputs": [],
      "name": "symbol",
      "outputs": [
        {
          "internalType": "string",
          "name": "",
          "type": "string"
        }
      ],
      "stateMutability": "view",
      "type": "function"
    },
    {
      "inputs": [
        {
          "internalType": "uint256",
          "name": "tokenId",
          "type": "uint256"
        }
      ],
      "name": "tokenURI",
      "outputs": [
        {
          "internalType": "string",
          "name": "",
          "type": "string"
        }
      ],
      "stateMutability": "view",
      "type": "function"
    },
    {
      "inputs": [
        {
          "internalType": "address",
          "name": "from",
          "type": "address"
        },
        {
          "internalType": "address",
          "name": "to",
          "type": "address"
        },
        {
          "internalType": "uint256",
          "name": "tokenId",
          "type": "uint256"
        }
      ],
      "name": "transferFrom",
      "outputs": [],
      "stateMutability": "nonpayable",
      "type": "function"
    },
    {
      "inputs": [
        {
          "internalType": "address",
          "name": "newOwner",
          "type": "address"
        }
      ],
      "name": "transferOwnership",
      "outputs": [],
      "stateMutability": "nonpayable",
      "type": "function"
    }
  ],
  "bytecode": "0x60806040523480156200001157600080fd5b5060405162003eb138038062003eb18339818101604052810190620000379190620002e8565b818181600090816200004a9190620005b8565b5080600190816200005c9190620005b8565b5050506200007f620000736200008760201b60201c565b6200008f60201b60201c565b50506200069f565b600033905090565b6000600660009054906101000a900473ffffffffffffffffffffffffffffffffffffffff16905081600660006101000a81548173ffffffffffffffffffffffffffffffffffffffff021916908373ffffffffffffffffffffffffffffffffffffffff1602179055508173ffffffffffffffffffffffffffffffffffffffff168173ffffffffffffffffffffffffffffffffffffffff167f8be0079c531659141344cd1fd0a4f28419497f9722a3daafe3b4186f6b6457e060405160405180910390a35050565b6000604051905090565b600080fd5b600080fd5b600080fd5b600080fd5b6000601f19601f8301169050919050565b7f4e487b7100000000000000000000000000000000000000000000000000000000600052604160045260246000fd5b620001be8262000173565b810181811067ffffffffffffffff82111715620001e057620001df62000184565b5b80604052505050565b6000620001f562000155565b9050620002038282620001b3565b919050565b600067ffffffffffffffff82111562000226576200022562000184565b5b620002318262000173565b9050602081019050919050565b60005b838110156200025e57808201518184015260208101905062000241565b60008484015250505050565b6000620002816200027b8462000208565b620001e9565b905082815260208101848484011115620002a0576200029f6200016e565b5b620002ad8482856200023e565b509392505050565b600082601f830112620002cd57620002cc62000169565b5b8151620002df8482602086016200026a565b91505092915050565b600080604083850312156200030257620003016200015f565b5b600083015167ffffffffffffffff81111562000323576200032262000164565b5b6200033185828601620002b5565b925050602083015167ffffffffffffffff81111562000355576200035462000164565b5b6200036385828601620002b5565b9150509250929050565b600081519050919050565b7f4e487b7100000000000000000000000000000000000000000000000000000000600052602260045260246000fd5b60006002820490506001821680620003c057607f821691505b602082108103620003d657620003d562000378565b5b50919050565b60008190508160005260206000209050919050565b60006020601f8301049050919050565b600082821b905092915050565b600060088302620004407fffffffffffffffffffffffffffffffffffffffffffffffffffffffffffffffff8262000401565b6200044c868362000401565b95508019841693508086168417925050509392505050565b6000819050919050565b6000819050919050565b600062000499620004936200048d8462000464565b6200046e565b62000464565b9050919050565b6000819050919050565b620004b58362000478565b620004cd620004c482620004a0565b8484546200040e565b825550505050565b600090565b620004e4620004d5565b620004f1818484620004aa565b505050565b5b8181101562000519576200050d600082620004da565b600181019050620004f7565b5050565b601f82111562000568576200053281620003dc565b6200053d84620003f1565b810160208510156200054d578190505b620005656200055c85620003f1565b830182620004f6565b50505b505050565b600082821c905092915050565b60006200058d600019846008026200056d565b1980831691505092915050565b6000620005a883836200057a565b9150826002028217905092915050565b620005c3826200036d565b67ffffffffffffffff811115620005df57620005de62000184565b5b620005eb8254620003a7565b620005f88282856200051d565b600060209050601f8311600181146200063057600084156200061b578287015190505b6200062785826200059a565b86555062000697565b601f1984166200064086620003dc565b60005b828110156200066a5784890151825560018201915060208501945060208101905062000643565b868310156200068a578489015162000686601f8916826200057a565b8355505b6001600288020188555050505b505050505050565b61380280620006af6000396000f3fe608060405234801561001057600080fd5b50600436106101375760003560e01c80638b4d9eb9116100b8578063c87b56dd1161007c578063c87b56dd1461034c578063d13e2af91461037c578063dfe194fe14610398578063e985e9c5146103c8578063f2fde38b146103f8578063fe49e8331461041457610137565b80638b4d9eb9146102a85780638da5cb5b146102d857806395d89b41146102f6578063a22cb46514610314578063b88d4fde1461033057610137565b806342842e0e116100ff57806342842e0e146101f25780636352211e1461020e578063672fb9691461023e57806370a082311461026e578063715018a61461029e57610137565b806301ffc9a71461013c57806306fdde031461016c578063081812fc1461018a578063095ea7b3146101ba57806323b872dd146101d6575b600080fd5b61015660048036038101906101519190612121565b610430565b6040516101639190612169565b60405180910390f35b610174610512565b6040516101819190612214565b60405180910390f35b6101a4600480360381019061019f919061226c565b6105a4565b6040516101b191906122da565b60405180910390f35b6101d460048036038101906101cf9190612321565b6105ea565b005b6101f060048036038101906101eb9190612361565b610701565b005b61020c60048036038101906102079190612361565b610761565b005b6102286004803603810190610223919061226c565b610781565b60405161023591906122da565b60405180910390f35b6102586004803603810190610253919061226c565b610807565b60405161026591906124a3565b60405180910390f35b610288600480360381019061028391906124c5565b610987565b6040516102959190612501565b60405180910390f35b6102a6610a3e565b005b6102c260048036038101906102bd9190612581565b610a52565b6040516102cf9190612169565b60405180910390f35b6102e0610b8a565b6040516102ed91906122da565b60405180910390f35b6102fe610bb4565b60405161030b9190612214565b60405180910390f35b61032e6004803603810190610329919061260d565b610c46565b005b61034a6004803603810190610345919061277d565b610c5c565b005b6103666004803603810190610361919061226c565b610cbe565b6040516103739190612214565b60405180910390f35b610396600480360381019061039191906128cd565b610d9d565b005b6103b260048036038101906103ad9190612581565b610ef1565b6040516103bf9190612169565b60405180910390f35b6103e260048036038101906103dd919061296c565b611042565b6040516103ef9190612169565b60405180910390f35b610412600480360381019061040d91906124c5565b6110d6565b005b61042e60048036038101906104299190612581565b611159565b005b60007f80ac58cd000000000000000000000000000000000000000000000000000000007bffffffffffffffffffffffffffffffffffffffffffffffffffffffff1916827bffffffffffffffffffffffffffffffffffffffffffffffffffffffff191614806104fb57507f5b5e139f000000000000000000000000000000000000000000000000000000007bffffffffffffffffffffffffffffffffffffffffffffffffffffffff1916827bffffffffffffffffffffffffffffffffffffffffffffffffffffffff1916145b8061050b575061050a82611350565b5b9050919050565b606060008054610521906129db565b80601f016020809104026020016040519081016040528092919081815260200182805461054d906129db565b801561059a5780601f1061056f5761010080835404028352916020019161059a565b820191906000526020600020905b81548152906001019060200180831161057d57829003601f168201915b5050505050905090565b60006105af826113ba565b6004600083815260200190815260200160002060009054906101000a900473ffffffffffffffffffffffffffffffffffffffff169050919050565b60006105f582610781565b90508073ffffffffffffffffffffffffffffffffffffffff168373ffffffffffffffffffffffffffffffffffffffff1603610665576040517f08c379a000000000000000000000000000000000000000000000000000000000815260040161065c90612a7e565b60405180910390fd5b8073ffffffffffffffffffffffffffffffffffffffff16610684611405565b73ffffffffffffffffffffffffffffffffffffffff1614806106b357506106b2816106ad611405565b611042565b5b6106f2576040517f08c379a00000000000000000000000000000000000000000000000000000000081526004016106e990612b10565b60405180910390fd5b6106fc838361140d565b505050565b61071261070c611405565b826114c6565b610751576040517f08c379a000000000000000000000000000000000000000000000000000000000815260040161074890612ba2565b60405180910390fd5b61075c83838361155b565b505050565b61077c83838360405180602001604052806000815250610c5c565b505050565b60008061078d83611854565b9050600073ffffffffffffffffffffffffffffffffffffffff168173ffffffffffffffffffffffffffffffffffffffff16036107fe576040517f08c379a00000000000000000000000000000000000000000000000000000000081526004016107f590612c0e565b60405180910390fd5b80915050919050565b61080f61207e565b600d60008381526020019081526020016000206040518060a001604052908160008201805461083d906129db565b80601f0160208091040260200160405190810160405280929190818152602001828054610869906129db565b80156108b65780601f1061088b576101008083540402835291602001916108b6565b820191906000526020600020905b81548152906001019060200180831161089957829003601f168201915b505050505081526020016001820180546108cf906129db565b80601f01602080910402602001604051908101604052809291908181526020018280546108fb906129db565b80156109485780601f1061091d57610100808354040283529160200191610948565b820191906000526020600020905b81548152906001019060200180831161092b57829003601f168201915b5050505050815260200160028201548152602001600382015481526020016004820160009054906101000a900460ff1615151515815250509050919050565b60008073ffffffffffffffffffffffffffffffffffffffff168273ffffffffffffffffffffffffffffffffffffffff16036109f7576040517f08c379a00000000000000000000000000000000000000000000000000000000081526004016109ee90612ca0565b60405180910390fd5b600360008373ffffffffffffffffffffffffffffffffffffffff1673ffffffffffffffffffffffffffffffffffffffff168152602001908152602001600020549050919050565b610a46611891565b610a50600061190f565b565b6000610a5d846119d5565b610a9c576040517f08c379a0000000000000000000000000000000000000000000000000000000008152600401610a9390612d0c565b60405180910390fd5b6000600d600086815260200190815260200160002090508060040160009054906101000a900460ff16610b04576040517f08c379a0000000000000000000000000000000000000000000000000000000008152600401610afb90612d78565b60405180910390fd5b600033604051602001610b179190612de0565b604051602081830303815290604052805190602001209050610b7f858580806020026020016040519081016040528093929190818152602001838360200280828437600081840152601f19601f82011690508083019250505050505050836002015483611a16565b925050509392505050565b6000600660009054906101000a900473ffffffffffffffffffffffffffffffffffffffff16905090565b606060018054610bc3906129db565b80601f0160208091040260200160405190810160405280929190818152602001828054610bef906129db565b8015610c3c5780601f10610c1157610100808354040283529160200191610c3c565b820191906000526020600020905b815481529060010190602001808311610c1f57829003601f168201915b5050505050905090565b610c58610c51611405565b8383611a2d565b5050565b610c6d610c67611405565b836114c6565b610cac576040517f08c379a0000000000000000000000000000000000000000000000000000000008152600401610ca390612ba2565b60405180910390fd5b610cb884848484611b99565b50505050565b6060610cc9826119d5565b610d08576040517f08c379a0000000000000000000000000000000000000000000000000000000008152600401610cff90612e6d565b60405180910390fd5b60086000018054610d18906129db565b80601f0160208091040260200160405190810160405280929190818152602001828054610d44906129db565b8015610d915780601f10610d6657610100808354040283529160200191610d91565b820191906000526020600020905b815481529060010190602001808311610d7457829003601f168201915b50505050509050919050565b610da5611891565b610daf6007611bf5565b6000610dbb6007611c0b565b90506040518060a0016040528086815260200185815260200184815260200183815260200160011515815250600d60008381526020019081526020016000206000820151816000019081610e0f9190613039565b506020820151816001019081610e259190613039565b50604082015181600201556060820151816003015560808201518160040160006101000a81548160ff021916908315150217905550905050610e673382611c19565b600d6000828152602001908152602001600020600860008201816000019081610e909190613121565b5060018201816001019081610ea59190613121565b5060028201548160020155600382015481600301556004820160009054906101000a900460ff168160040160006101000a81548160ff0219169083151502179055509050505050505050565b6000610efc846119d5565b610f3b576040517f08c379a0000000000000000000000000000000000000000000000000000000008152600401610f3290612d0c565b60405180910390fd5b6000600d600086815260200190815260200160002090508060040160009054906101000a900460ff16610fa3576040517f08c379a0000000000000000000000000000000000000000000000000000000008152600401610f9a90612d78565b60405180910390fd5b6000801b81600301541461103557600033604051602001610fc49190612de0565b60405160208183030381529060405280519060200120905061102c858580806020026020016040519081016040528093929190818152602001838360200280828437600081840152601f19601f82011690508083019250505050505050836003015483611a16565b9250505061103b565b60019150505b9392505050565b6000600560008473ffffffffffffffffffffffffffffffffffffffff1673ffffffffffffffffffffffffffffffffffffffff16815260200190815260200160002060008373ffffffffffffffffffffffffffffffffffffffff1673ffffffffffffffffffffffffffffffffffffffff16815260200190815260200160002060009054906101000a900460ff16905092915050565b6110de611891565b600073ffffffffffffffffffffffffffffffffffffffff168173ffffffffffffffffffffffffffffffffffffffff160361114d576040517f08c379a00000000000000000000000000000000000000000000000000000000081526004016111449061327b565b60405180910390fd5b6111568161190f565b50565b611162836119d5565b6111a1576040517f08c379a000000000000000000000000000000000000000000000000000000000815260040161119890612d0c565b60405180910390fd5b6000600d600085815260200190815260200160002090508060040160009054906101000a900460ff16611209576040517f08c379a000000000000000000000000000000000000000000000000000000000815260040161120090612d78565b60405180910390fd5b611214848484610a52565b15611254576040517f08c379a000000000000000000000000000000000000000000000000000000000815260040161124b906132e7565b60405180910390fd5b6000336040516020016112679190612de0565b6040516020818303038152906040528051906020012090506112cf848480806020026020016040519081016040528093929190818152602001838360200280828437600081840152601f19601f82011690508083019250505050505050836002015483611a16565b61130e576040517f08c379a0000000000000000000000000000000000000000000000000000000008152600401611305906132e7565b60405180910390fd5b6000826002015433604051602001611327929190613328565b604051602081830303815290604052905080805190602001208360020181905550505050505050565b60007f01ffc9a7000000000000000000000000000000000000000000000000000000007bffffffffffffffffffffffffffffffffffffffffffffffffffffffff1916827bffffffffffffffffffffffffffffffffffffffffffffffffffffffff1916149050919050565b6113c3816119d5565b611402576040517f08c379a00000000000000000000000000000000000000000000000000000000081526004016113f990612c0e565b60405180910390fd5b50565b600033905090565b816004600083815260200190815260200160002060006101000a81548173ffffffffffffffffffffffffffffffffffffffff021916908373ffffffffffffffffffffffffffffffffffffffff160217905550808273ffffffffffffffffffffffffffffffffffffffff1661148083610781565b73ffffffffffffffffffffffffffffffffffffffff167f8c5be1e5ebec7d5bd14f71427d1e84f3dd0314c0f7b2291e5b200ac8c7c3b92560405160405180910390a45050565b6000806114d283610781565b90508073ffffffffffffffffffffffffffffffffffffffff168473ffffffffffffffffffffffffffffffffffffffff16148061151457506115138185611042565b5b8061155257508373ffffffffffffffffffffffffffffffffffffffff1661153a846105a4565b73ffffffffffffffffffffffffffffffffffffffff16145b91505092915050565b8273ffffffffffffffffffffffffffffffffffffffff1661157b82610781565b73ffffffffffffffffffffffffffffffffffffffff16146115d1576040517f08c379a00000000000000000000000000000000000000000000000000000000081526004016115c8906133c6565b60405180910390fd5b600073ffffffffffffffffffffffffffffffffffffffff168273ffffffffffffffffffffffffffffffffffffffff1603611640576040517f08c379a000000000000000000000000000000000000000000000000000000000815260040161163790613458565b60405180910390fd5b61164d8383836001611e36565b8273ffffffffffffffffffffffffffffffffffffffff1661166d82610781565b73ffffffffffffffffffffffffffffffffffffffff16146116c3576040517f08c379a00000000000000000000000000000000000000000000000000000000081526004016116ba906133c6565b60405180910390fd5b6004600082815260200190815260200160002060006101000a81549073ffffffffffffffffffffffffffffffffffffffff02191690556001600360008573ffffffffffffffffffffffffffffffffffffffff1673ffffffffffffffffffffffffffffffffffffffff168152602001908152602001600020600082825403925050819055506001600360008473ffffffffffffffffffffffffffffffffffffffff1673ffffffffffffffffffffffffffffffffffffffff16815260200190815260200160002060008282540192505081905550816002600083815260200190815260200160002060006101000a81548173ffffffffffffffffffffffffffffffffffffffff021916908373ffffffffffffffffffffffffffffffffffffffff160217905550808273ffffffffffffffffffffffffffffffffffffffff168473ffffffffffffffffffffffffffffffffffffffff167fddf252ad1be2c89b69c2b068fc378daa952ba7f163c4a11628f55a4df523b3ef60405160405180910390a461184f8383836001611e3c565b505050565b60006002600083815260200190815260200160002060009054906101000a900473ffffffffffffffffffffffffffffffffffffffff169050919050565b611899611405565b73ffffffffffffffffffffffffffffffffffffffff166118b7610b8a565b73ffffffffffffffffffffffffffffffffffffffff161461190d576040517f08c379a0000000000000000000000000000000000000000000000000000000008152600401611904906134c4565b60405180910390fd5b565b6000600660009054906101000a900473ffffffffffffffffffffffffffffffffffffffff16905081600660006101000a81548173ffffffffffffffffffffffffffffffffffffffff021916908373ffffffffffffffffffffffffffffffffffffffff1602179055508173ffffffffffffffffffffffffffffffffffffffff168173ffffffffffffffffffffffffffffffffffffffff167f8be0079c531659141344cd1fd0a4f28419497f9722a3daafe3b4186f6b6457e060405160405180910390a35050565b60008073ffffffffffffffffffffffffffffffffffffffff166119f783611854565b73ffffffffffffffffffffffffffffffffffffffff1614159050919050565b600082611a238584611e42565b1490509392505050565b8173ffffffffffffffffffffffffffffffffffffffff168373ffffffffffffffffffffffffffffffffffffffff1603611a9b576040517f08c379a0000000000000000000000000000000000000000000000000000000008152600401611a9290613530565b60405180910390fd5b80600560008573ffffffffffffffffffffffffffffffffffffffff1673ffffffffffffffffffffffffffffffffffffffff16815260200190815260200160002060008473ffffffffffffffffffffffffffffffffffffffff1673ffffffffffffffffffffffffffffffffffffffff16815260200190815260200160002060006101000a81548160ff0219169083151502179055508173ffffffffffffffffffffffffffffffffffffffff168373ffffffffffffffffffffffffffffffffffffffff167f17307eab39ab6107e8899845ad3d59bd9653f200f220920489ca2b5937696c3183604051611b8c9190612169565b60405180910390a3505050565b611ba484848461155b565b611bb084848484611e92565b611bef576040517f08c379a0000000000000000000000000000000000000000000000000000000008152600401611be6906135c2565b60405180910390fd5b50505050565b6001816000016000828254019250508190555050565b600081600001549050919050565b600073ffffffffffffffffffffffffffffffffffffffff168273ffffffffffffffffffffffffffffffffffffffff1603611c88576040517f08c379a0000000000000000000000000000000000000000000000000000000008152600401611c7f9061362e565b60405180910390fd5b611c91816119d5565b15611cd1576040517f08c379a0000000000000000000000000000000000000000000000000000000008152600401611cc89061369a565b60405180910390fd5b611cdf600083836001611e36565b611ce8816119d5565b15611d28576040517f08c379a0000000000000000000000000000000000000000000000000000000008152600401611d1f9061369a565b60405180910390fd5b6001600360008473ffffffffffffffffffffffffffffffffffffffff1673ffffffffffffffffffffffffffffffffffffffff16815260200190815260200160002060008282540192505081905550816002600083815260200190815260200160002060006101000a81548173ffffffffffffffffffffffffffffffffffffffff021916908373ffffffffffffffffffffffffffffffffffffffff160217905550808273ffffffffffffffffffffffffffffffffffffffff16600073ffffffffffffffffffffffffffffffffffffffff167fddf252ad1be2c89b69c2b068fc378daa952ba7f163c4a11628f55a4df523b3ef60405160405180910390a4611e32600083836001611e3c565b5050565b50505050565b50505050565b60008082905060005b8451811015611e8757611e7882868381518110611e6b57611e6a6136ba565b5b6020026020010151612019565b91508080600101915050611e4b565b508091505092915050565b6000611eb38473ffffffffffffffffffffffffffffffffffffffff16612044565b1561200c578373ffffffffffffffffffffffffffffffffffffffff1663150b7a02611edc611405565b8786866040518563ffffffff1660e01b8152600401611efe949392919061373e565b6020604051808303816000875af1925050508015611f3a57506040513d601f19601f82011682018060405250810190611f37919061379f565b60015b611fbc573d8060008114611f6a576040519150601f19603f3d011682016040523d82523d6000602084013e611f6f565b606091505b506000815103611fb4576040517f08c379a0000000000000000000000000000000000000000000000000000000008152600401611fab906135c2565b60405180910390fd5b805181602001fd5b63150b7a0260e01b7bffffffffffffffffffffffffffffffffffffffffffffffffffffffff1916817bffffffffffffffffffffffffffffffffffffffffffffffffffffffff191614915050612011565b600190505b949350505050565b60008183106120315761202c8284612067565b61203c565b61203b8383612067565b5b905092915050565b6000808273ffffffffffffffffffffffffffffffffffffffff163b119050919050565b600082600052816020526040600020905092915050565b6040518060a00160405280606081526020016060815260200160008019168152602001600080191681526020016000151581525090565b6000604051905090565b600080fd5b600080fd5b60007fffffffff0000000000000000000000000000000000000000000000000000000082169050919050565b6120fe816120c9565b811461210957600080fd5b50565b60008135905061211b816120f5565b92915050565b600060208284031215612137576121366120bf565b5b60006121458482850161210c565b91505092915050565b60008115159050919050565b6121638161214e565b82525050565b600060208201905061217e600083018461215a565b92915050565b600081519050919050565b600082825260208201905092915050565b60005b838110156121be5780820151818401526020810190506121a3565b60008484015250505050565b6000601f19601f8301169050919050565b60006121e682612184565b6121f0818561218f565b93506122008185602086016121a0565b612209816121ca565b840191505092915050565b6000602082019050818103600083015261222e81846121db565b905092915050565b6000819050919050565b61224981612236565b811461225457600080fd5b50565b60008135905061226681612240565b92915050565b600060208284031215612282576122816120bf565b5b600061229084828501612257565b91505092915050565b600073ffffffffffffffffffffffffffffffffffffffff82169050919050565b60006122c482612299565b9050919050565b6122d4816122b9565b82525050565b60006020820190506122ef60008301846122cb565b92915050565b6122fe816122b9565b811461230957600080fd5b50565b60008135905061231b816122f5565b92915050565b60008060408385031215612338576123376120bf565b5b60006123468582860161230c565b925050602061235785828601612257565b9150509250929050565b60008060006060848603121561237a576123796120bf565b5b60006123888682870161230c565b93505060206123998682870161230c565b92505060406123aa86828701612257565b9150509250925092565b600082825260208201905092915050565b60006123d082612184565b6123da81856123b4565b93506123ea8185602086016121a0565b6123f3816121ca565b840191505092915050565b6000819050919050565b612411816123fe565b82525050565b6124208161214e565b82525050565b600060a083016000830151848203600086015261244382826123c5565b9150506020830151848203602086015261245d82826123c5565b91505060408301516124726040860182612408565b5060608301516124856060860182612408565b5060808301516124986080860182612417565b508091505092915050565b600060208201905081810360008301526124bd8184612426565b905092915050565b6000602082840312156124db576124da6120bf565b5b60006124e98482850161230c565b91505092915050565b6124fb81612236565b82525050565b600060208201905061251660008301846124f2565b92915050565b600080fd5b600080fd5b600080fd5b60008083601f8401126125415761254061251c565b5b8235905067ffffffffffffffff81111561255e5761255d612521565b5b60208301915083602082028301111561257a57612579612526565b5b9250929050565b60008060006040848603121561259a576125996120bf565b5b60006125a886828701612257565b935050602084013567ffffffffffffffff8111156125c9576125c86120c4565b5b6125d58682870161252b565b92509250509250925092565b6125ea8161214e565b81146125f557600080fd5b50565b600081359050612607816125e1565b92915050565b60008060408385031215612624576126236120bf565b5b60006126328582860161230c565b9250506020612643858286016125f8565b9150509250929050565b600080fd5b7f4e487b7100000000000000000000000000000000000000000000000000000000600052604160045260246000fd5b61268a826121ca565b810181811067ffffffffffffffff821117156126a9576126a8612652565b5b80604052505050565b60006126bc6120b5565b90506126c88282612681565b919050565b600067ffffffffffffffff8211156126e8576126e7612652565b5b6126f1826121ca565b9050602081019050919050565b82818337600083830152505050565b600061272061271b846126cd565b6126b2565b90508281526020810184848401111561273c5761273b61264d565b5b6127478482856126fe565b509392505050565b600082601f8301126127645761276361251c565b5b813561277484826020860161270d565b91505092915050565b60008060008060808587031215612797576127966120bf565b5b60006127a58782880161230c565b94505060206127b68782880161230c565b93505060406127c787828801612257565b925050606085013567ffffffffffffffff8111156127e8576127e76120c4565b5b6127f48782880161274f565b91505092959194509250565b600067ffffffffffffffff82111561281b5761281a612652565b5b612824826121ca565b9050602081019050919050565b600061284461283f84612800565b6126b2565b9050828152602081018484840111156128605761285f61264d565b5b61286b8482856126fe565b509392505050565b600082601f8301126128885761288761251c565b5b8135612898848260208601612831565b91505092915050565b6128aa816123fe565b81146128b557600080fd5b50565b6000813590506128c7816128a1565b92915050565b600080600080608085870312156128e7576128e66120bf565b5b600085013567ffffffffffffffff811115612905576129046120c4565b5b61291187828801612873565b945050602085013567ffffffffffffffff811115612932576129316120c4565b5b61293e87828801612873565b935050604061294f878288016128b8565b9250506060612960878288016128b8565b91505092959194509250565b60008060408385031215612983576129826120bf565b5b60006129918582860161230c565b92505060206129a28582860161230c565b9150509250929050565b7f4e487b7100000000000000000000000000000000000000000000000000000000600052602260045260246000fd5b600060028204905060018216806129f357607f821691505b602082108103612a0657612a056129ac565b5b50919050565b7f4552433732313a20617070726f76616c20746f2063757272656e74206f776e6560008201527f7200000000000000000000000000000000000000000000000000000000000000602082015250565b6000612a6860218361218f565b9150612a7382612a0c565b604082019050919050565b60006020820190508181036000830152612a9781612a5b565b9050919050565b7f4552433732313a20617070726f76652063616c6c6572206973206e6f7420746f60008201527f6b656e206f776e6572206f7220617070726f76656420666f7220616c6c000000602082015250565b6000612afa603d8361218f565b9150612b0582612a9e565b604082019050919050565b60006020820190508181036000830152612b2981612aed565b9050919050565b7f4552433732313a2063616c6c6572206973206e6f7420746f6b656e206f776e6560008201527f72206f7220617070726f76656400000000000000000000000000000000000000602082015250565b6000612b8c602d8361218f565b9150612b9782612b30565b604082019050919050565b60006020820190508181036000830152612bbb81612b7f565b9050919050565b7f4552433732313a20696e76616c696420746f6b656e2049440000000000000000600082015250565b6000612bf860188361218f565b9150612c0382612bc2565b602082019050919050565b60006020820190508181036000830152612c2781612beb565b9050919050565b7f4552433732313a2061646472657373207a65726f206973206e6f74206120766160008201527f6c6964206f776e65720000000000000000000000000000000000000000000000602082015250565b6000612c8a60298361218f565b9150612c9582612c2e565b604082019050919050565b60006020820190508181036000830152612cb981612c7d565b9050919050565b7f4552433732313a20616420646f6573206e6f7420657869737400000000000000600082015250565b6000612cf660198361218f565b9150612d0182612cc0565b602082019050919050565b60006020820190508181036000830152612d2581612ce9565b9050919050565b7f45524341643a20616420646f6573206e6f742065786973740000000000000000600082015250565b6000612d6260188361218f565b9150612d6d82612d2c565b602082019050919050565b60006020820190508181036000830152612d9181612d55565b9050919050565b60008160601b9050919050565b6000612db082612d98565b9050919050565b6000612dc282612da5565b9050919050565b612dda612dd5826122b9565b612db7565b82525050565b6000612dec8284612dc9565b60148201915081905092915050565b7f4552433732314d657461646174613a2055524920717565727920666f72206e6f60008201527f6e6578697374656e7420746f6b656e0000000000000000000000000000000000602082015250565b6000612e57602f8361218f565b9150612e6282612dfb565b604082019050919050565b60006020820190508181036000830152612e8681612e4a565b9050919050565b60008190508160005260206000209050919050565b60006020601f8301049050919050565b600082821b905092915050565b600060088302612eef7fffffffffffffffffffffffffffffffffffffffffffffffffffffffffffffffff82612eb2565b612ef98683612eb2565b95508019841693508086168417925050509392505050565b6000819050919050565b6000612f36612f31612f2c84612236565b612f11565b612236565b9050919050565b6000819050919050565b612f5083612f1b565b612f64612f5c82612f3d565b848454612ebf565b825550505050565b600090565b612f79612f6c565b612f84818484612f47565b505050565b5b81811015612fa857612f9d600082612f71565b600181019050612f8a565b5050565b601f821115612fed57612fbe81612e8d565b612fc784612ea2565b81016020851015612fd6578190505b612fea612fe285612ea2565b830182612f89565b50505b505050565b600082821c905092915050565b600061301060001984600802612ff2565b1980831691505092915050565b60006130298383612fff565b9150826002028217905092915050565b61304282612184565b67ffffffffffffffff81111561305b5761305a612652565b5b61306582546129db565b613070828285612fac565b600060209050601f8311600181146130a35760008415613091578287015190505b61309b858261301d565b865550613103565b601f1984166130b186612e8d565b60005b828110156130d9578489015182556001820191506020850194506020810190506130b4565b868310156130f657848901516130f2601f891682612fff565b8355505b6001600288020188555050505b505050505050565b60008154905061311a816129db565b9050919050565b81810361312f575050613207565b6131388261310b565b67ffffffffffffffff81111561315157613150612652565b5b61315b82546129db565b613166828285612fac565b6000601f8311600181146131955760008415613183578287015490505b61318d858261301d565b865550613200565b601f1984166131a387612e8d565b96506131ae86612e8d565b60005b828110156131d6578489015482556001820191506001850194506020810190506131b1565b868310156131f357848901546131ef601f891682612fff565b8355505b6001600288020188555050505b5050505050505b565b7f4f776e61626c653a206e6577206f776e657220697320746865207a65726f206160008201527f6464726573730000000000000000000000000000000000000000000000000000602082015250565b600061326560268361218f565b915061327082613209565b604082019050919050565b6000602082019050818103600083015261329481613258565b9050919050565b7f53656e64657220616c7265616479207369676e65640000000000000000000000600082015250565b60006132d160158361218f565b91506132dc8261329b565b602082019050919050565b60006020820190508181036000830152613300816132c4565b9050919050565b6000819050919050565b61332261331d826123fe565b613307565b82525050565b60006133348285613311565b6020820191506133448284612dc9565b6014820191508190509392505050565b7f4552433732313a207472616e736665722066726f6d20696e636f72726563742060008201527f6f776e6572000000000000000000000000000000000000000000000000000000602082015250565b60006133b060258361218f565b91506133bb82613354565b604082019050919050565b600060208201905081810360008301526133df816133a3565b9050919050565b7f4552433732313a207472616e7366657220746f20746865207a65726f2061646460008201527f7265737300000000000000000000000000000000000000000000000000000000602082015250565b600061344260248361218f565b915061344d826133e6565b604082019050919050565b6000602082019050818103600083015261347181613435565b9050919050565b7f4f776e61626c653a2063616c6c6572206973206e6f7420746865206f776e6572600082015250565b60006134ae60208361218f565b91506134b982613478565b602082019050919050565b600060208201905081810360008301526134dd816134a1565b9050919050565b7f4552433732313a20617070726f766520746f2063616c6c657200000000000000600082015250565b600061351a60198361218f565b9150613525826134e4565b602082019050919050565b600060208201905081810360008301526135498161350d565b9050919050565b7f4552433732313a207472616e7366657220746f206e6f6e20455243373231526560008201527f63656976657220696d706c656d656e7465720000000000000000000000000000602082015250565b60006135ac60328361218f565b91506135b782613550565b604082019050919050565b600060208201905081810360008301526135db8161359f565b9050919050565b7f4552433732313a206d696e7420746f20746865207a65726f2061646472657373600082015250565b600061361860208361218f565b9150613623826135e2565b602082019050919050565b600060208201905081810360008301526136478161360b565b9050919050565b7f4552433732313a20746f6b656e20616c7265616479206d696e74656400000000600082015250565b6000613684601c8361218f565b915061368f8261364e565b602082019050919050565b600060208201905081810360008301526136b381613677565b9050919050565b7f4e487b7100000000000000000000000000000000000000000000000000000000600052603260045260246000fd5b600081519050919050565b600082825260208201905092915050565b6000613710826136e9565b61371a81856136f4565b935061372a8185602086016121a0565b613733816121ca565b840191505092915050565b600060808201905061375360008301876122cb565b61376060208301866122cb565b61376d60408301856124f2565b818103606083015261377f8184613705565b905095945050505050565b600081519050613799816120f5565b92915050565b6000602082840312156137b5576137b46120bf565b5b60006137c38482850161378a565b9150509291505056fea2646970667358221220a702e3988b414d4cb4fffedeef2d2652688d9ea9687451695be17e946a30c82c64736f6c63430008180033",
  "linkReferences": {},
  "deployedLinkReferences": {}
}