{
  "_format": "hh-sol-artifact-1",
  "contractName": "ERCAd",
  "sourceName": "contracts/ERCAd.sol",
  "abi": [
    {
      "inputs": [
        {
          "internalType": "string",
          "name": "name",
          "type": "string"
        },
        {
          "internalType": "string",
          "name": "symbol",
          "type": "string"
        }
      ],
      "stateMutability": "nonpayable",
      "type": "constructor"
    },
    {
      "anonymous": false,
      "inputs": [
        {
          "indexed": true,
          "internalType": "address",
          "name": "owner",
          "type": "address"
        },
        {
          "indexed": true,
          "internalType": "address",
          "name": "approved",
          "type": "address"
        },
        {
          "indexed": true,
          "internalType": "uint256",
          "name": "tokenId",
          "type": "uint256"
        }
      ],
      "name": "Approval",
      "type": "event"
    },
    {
      "anonymous": false,
      "inputs": [
        {
          "indexed": true,
          "internalType": "address",
          "name": "owner",
          "type": "address"
        },
        {
          "indexed": true,
          "internalType": "address",
          "name": "operator",
          "type": "address"
        },
        {
          "indexed": false,
          "internalType": "bool",
          "name": "approved",
          "type": "bool"
        }
      ],
      "name": "ApprovalForAll",
      "type": "event"
    },
    {
      "anonymous": false,
      "inputs": [
        {
          "indexed": true,
          "internalType": "address",
          "name": "previousOwner",
          "type": "address"
        },
        {
          "indexed": true,
          "internalType": "address",
          "name": "newOwner",
          "type": "address"
        }
      ],
      "name": "OwnershipTransferred",
      "type": "event"
    },
    {
      "anonymous": false,
      "inputs": [
        {
          "indexed": true,
          "internalType": "address",
          "name": "from",
          "type": "address"
        },
        {
          "indexed": true,
          "internalType": "address",
          "name": "to",
          "type": "address"
        },
        {
          "indexed": true,
          "internalType": "uint256",
          "name": "tokenId",
          "type": "uint256"
        }
      ],
      "name": "Transfer",
      "type": "event"
    },
    {
      "inputs": [
        {
          "internalType": "address",
          "name": "to",
          "type": "address"
        },
        {
          "internalType": "uint256",
          "name": "tokenId",
          "type": "uint256"
        }
      ],
      "name": "approve",
      "outputs": [],
      "stateMutability": "nonpayable",
      "type": "function"
    },
    {
      "inputs": [
        {
          "internalType": "address",
          "name": "owner",
          "type": "address"
        }
      ],
      "name": "balanceOf",
      "outputs": [
        {
          "internalType": "uint256",
          "name": "",
          "type": "uint256"
        }
      ],
      "stateMutability": "view",
      "type": "function"
    },
    {
      "inputs": [
        {
          "internalType": "uint256",
          "name": "id",
          "type": "uint256"
        }
      ],
      "name": "displayAd",
      "outputs": [
        {
          "components": [
            {
              "internalType": "string",
              "name": "adURI",
              "type": "string"
            },
            {
              "internalType": "string",
              "name": "dataURI",
              "type": "string"
            },
            {
              "internalType": "bytes32",
              "name": "signatureRoot",
              "type": "bytes32"
            },
            {
              "internalType": "bytes32",
              "name": "audienceRoot",
              "type": "bytes32"
            },
            {
              "internalType": "bool",
              "name": "isActive",
              "type": "bool"
            }
          ],
          "internalType": "struct IERCAd.Ad",
          "name": "",
          "type": "tuple"
        }
      ],
      "stateMutability": "view",
      "type": "function"
    },
    {
      "inputs": [
        {
          "internalType": "uint256",
          "name": "tokenId",
          "type": "uint256"
        }
      ],
      "name": "getApproved",
      "outputs": [
        {
          "internalType": "address",
          "name": "",
          "type": "address"
        }
      ],
      "stateMutability": "view",
      "type": "function"
    },
    {
      "inputs": [
        {
          "internalType": "address",
          "name": "owner",
          "type": "address"
        },
        {
          "internalType": "address",
          "name": "operator",
          "type": "address"
        }
      ],
      "name": "isApprovedForAll",
      "outputs": [
        {
          "internalType": "bool",
          "name": "",
          "type": "bool"
        }
      ],
      "stateMutability": "view",
      "type": "function"
    },
    {
      "inputs": [],
      "name": "name",
      "outputs": [
        {
          "internalType": "string",
          "name": "",
          "type": "string"
        }
      ],
      "stateMutability": "view",
      "type": "function"
    },
    {
      "inputs": [],
      "name": "owner",
      "outputs": [
        {
          "internalType": "address",
          "name": "",
          "type": "address"
        }
      ],
      "stateMutability": "view",
      "type": "function"
    },
    {
      "inputs": [
        {
          "internalType": "uint256",
          "name": "tokenId",
          "type": "uint256"
        }
      ],
      "name": "ownerOf",
      "outputs": [
        {
          "internalType": "address",
          "name": "",
          "type": "address"
        }
      ],
      "stateMutability": "view",
      "type": "function"
    },
    {
      "inputs": [],
      "name": "renounceOwnership",
      "outputs": [],
      "stateMutability": "nonpayable",
      "type": "function"
    },
    {
      "inputs": [
        {
          "internalType": "address",
          "name": "from",
          "type": "address"
        },
        {
          "internalType": "address",
          "name": "to",
          "type": "address"
        },
        {
          "internalType": "uint256",
          "name": "tokenId",
          "type": "uint256"
        }
      ],
      "name": "safeTransferFrom",
      "outputs": [],
      "stateMutability": "nonpayable",
      "type": "function"
    },
    {
      "inputs": [
        {
          "internalType": "address",
          "name": "from",
          "type": "address"
        },
        {
          "internalType": "address",
          "name": "to",
          "type": "address"
        },
        {
          "internalType": "uint256",
          "name": "tokenId",
          "type": "uint256"
        },
        {
          "internalType": "bytes",
          "name": "data",
          "type": "bytes"
        }
      ],
      "name": "safeTransferFrom",
      "outputs": [],
      "stateMutability": "nonpayable",
      "type": "function"
    },
    {
      "inputs": [
        {
          "internalType": "string",
          "name": "adURI",
          "type": "string"
        },
        {
          "internalType": "string",
          "name": "dataURI",
          "type": "string"
        },
        {
          "internalType": "bytes32",
          "name": "signatureRoot",
          "type": "bytes32"
        },
        {
          "internalType": "bytes32",
          "name": "audienceRoot",
          "type": "bytes32"
        }
      ],
      "name": "setAd",
      "outputs": [],
      "stateMutability": "nonpayable",
      "type": "function"
    },
    {
      "inputs": [
        {
          "internalType": "address",
          "name": "operator",
          "type": "address"
        },
        {
          "internalType": "bool",
          "name": "approved",
          "type": "bool"
        }
      ],
      "name": "setApprovalForAll",
      "outputs": [],
      "stateMutability": "nonpayable",
      "type": "function"
    },
    {
      "inputs": [
        {
          "internalType": "uint256",
          "name": "id",
          "type": "uint256"
        },
        {
          "internalType": "bytes32[]",
          "name": "proof",
          "type": "bytes32[]"
        }
      ],
      "name": "signAd",
      "outputs": [],
      "stateMutability": "nonpayable",
      "type": "function"
    },
    {
      "inputs": [
        {
          "internalType": "bytes4",
          "name": "interfaceId",
          "type": "bytes4"
        }
      ],
      "name": "supportsInterface",
      "outputs": [
        {
          "internalType": "bool",
          "name": "",
          "type": "bool"
        }
      ],
      "stateMutability": "view",
      "type": "function"
    },
    {
      "inputs": [],
      "name": "symbol",
      "outputs": [
        {
          "internalType": "string",
          "name": "",
          "type": "string"
        }
      ],
      "stateMutability": "view",
      "type": "function"
    },
    {
      "inputs": [
        {
          "internalType": "uint256",
          "name": "tokenId",
          "type": "uint256"
        }
      ],
      "name": "tokenURI",
      "outputs": [
        {
          "internalType": "string",
          "name": "",
          "type": "string"
        }
      ],
      "stateMutability": "view",
      "type": "function"
    },
    {
      "inputs": [
        {
          "internalType": "address",
          "name": "from",
          "type": "address"
        },
        {
          "internalType": "address",
          "name": "to",
          "type": "address"
        },
        {
          "internalType": "uint256",
          "name": "tokenId",
          "type": "uint256"
        }
      ],
      "name": "transferFrom",
      "outputs": [],
      "stateMutability": "nonpayable",
      "type": "function"
    },
    {
      "inputs": [
        {
          "internalType": "address",
          "name": "newOwner",
          "type": "address"
        }
      ],
      "name": "transferOwnership",
      "outputs": [],
      "stateMutability": "nonpayable",
      "type": "function"
    }
  ],
  "bytecode": "0x60806040523480156200001157600080fd5b5060405162003c6238038062003c628339818101604052810190620000379190620002e8565b818181600090816200004a9190620005b8565b5080600190816200005c9190620005b8565b5050506200007f620000736200008760201b60201c565b6200008f60201b60201c565b50506200069f565b600033905090565b6000600660009054906101000a900473ffffffffffffffffffffffffffffffffffffffff16905081600660006101000a81548173ffffffffffffffffffffffffffffffffffffffff021916908373ffffffffffffffffffffffffffffffffffffffff1602179055508173ffffffffffffffffffffffffffffffffffffffff168173ffffffffffffffffffffffffffffffffffffffff167f8be0079c531659141344cd1fd0a4f28419497f9722a3daafe3b4186f6b6457e060405160405180910390a35050565b6000604051905090565b600080fd5b600080fd5b600080fd5b600080fd5b6000601f19601f8301169050919050565b7f4e487b7100000000000000000000000000000000000000000000000000000000600052604160045260246000fd5b620001be8262000173565b810181811067ffffffffffffffff82111715620001e057620001df62000184565b5b80604052505050565b6000620001f562000155565b9050620002038282620001b3565b919050565b600067ffffffffffffffff82111562000226576200022562000184565b5b620002318262000173565b9050602081019050919050565b60005b838110156200025e57808201518184015260208101905062000241565b60008484015250505050565b6000620002816200027b8462000208565b620001e9565b905082815260208101848484011115620002a0576200029f6200016e565b5b620002ad8482856200023e565b509392505050565b600082601f830112620002cd57620002cc62000169565b5b8151620002df8482602086016200026a565b91505092915050565b600080604083850312156200030257620003016200015f565b5b600083015167ffffffffffffffff81111562000323576200032262000164565b5b6200033185828601620002b5565b925050602083015167ffffffffffffffff81111562000355576200035462000164565b5b6200036385828601620002b5565b9150509250929050565b600081519050919050565b7f4e487b7100000000000000000000000000000000000000000000000000000000600052602260045260246000fd5b60006002820490506001821680620003c057607f821691505b602082108103620003d657620003d562000378565b5b50919050565b60008190508160005260206000209050919050565b60006020601f8301049050919050565b600082821b905092915050565b600060088302620004407fffffffffffffffffffffffffffffffffffffffffffffffffffffffffffffffff8262000401565b6200044c868362000401565b95508019841693508086168417925050509392505050565b6000819050919050565b6000819050919050565b600062000499620004936200048d8462000464565b6200046e565b62000464565b9050919050565b6000819050919050565b620004b58362000478565b620004cd620004c482620004a0565b8484546200040e565b825550505050565b600090565b620004e4620004d5565b620004f1818484620004aa565b505050565b5b8181101562000519576200050d600082620004da565b600181019050620004f7565b5050565b601f82111562000568576200053281620003dc565b6200053d84620003f1565b810160208510156200054d578190505b620005656200055c85620003f1565b830182620004f6565b50505b505050565b600082821c905092915050565b60006200058d600019846008026200056d565b1980831691505092915050565b6000620005a883836200057a565b9150826002028217905092915050565b620005c3826200036d565b67ffffffffffffffff811115620005df57620005de62000184565b5b620005eb8254620003a7565b620005f88282856200051d565b600060209050601f8311600181146200063057600084156200061b578287015190505b6200062785826200059a565b86555062000697565b601f1984166200064086620003dc565b60005b828110156200066a5784890151825560018201915060208501945060208101905062000643565b868310156200068a578489015162000686601f8916826200057a565b8355505b6001600288020188555050505b505050505050565b6135b380620006af6000396000f3fe608060405234801561001057600080fd5b50600436106101215760003560e01c8063715018a6116100ad578063c87b56dd11610071578063c87b56dd14610306578063d13e2af914610336578063e985e9c514610352578063f2fde38b14610382578063fe49e8331461039e57610121565b8063715018a6146102885780638da5cb5b1461029257806395d89b41146102b0578063a22cb465146102ce578063b88d4fde146102ea57610121565b806323b872dd116100f457806323b872dd146101c057806342842e0e146101dc5780636352211e146101f8578063672fb9691461022857806370a082311461025857610121565b806301ffc9a71461012657806306fdde0314610156578063081812fc14610174578063095ea7b3146101a4575b600080fd5b610140600480360381019061013b9190611e66565b6103ba565b60405161014d9190611eae565b60405180910390f35b61015e61049c565b60405161016b9190611f59565b60405180910390f35b61018e60048036038101906101899190611fb1565b61052e565b60405161019b919061201f565b60405180910390f35b6101be60048036038101906101b99190612066565b610574565b005b6101da60048036038101906101d591906120a6565b61068b565b005b6101f660048036038101906101f191906120a6565b6106eb565b005b610212600480360381019061020d9190611fb1565b61070b565b60405161021f919061201f565b60405180910390f35b610242600480360381019061023d9190611fb1565b610791565b60405161024f91906121e8565b60405180910390f35b610272600480360381019061026d919061220a565b610911565b60405161027f9190612246565b60405180910390f35b6102906109c8565b005b61029a6109dc565b6040516102a7919061201f565b60405180910390f35b6102b8610a06565b6040516102c59190611f59565b60405180910390f35b6102e860048036038101906102e3919061228d565b610a98565b005b61030460048036038101906102ff9190612402565b610aae565b005b610320600480360381019061031b9190611fb1565b610b10565b60405161032d9190611f59565b60405180910390f35b610350600480360381019061034b9190612552565b610bef565b005b61036c600480360381019061036791906125f1565b610d43565b6040516103799190611eae565b60405180910390f35b61039c6004803603810190610397919061220a565b610dd7565b005b6103b860048036038101906103b39190612691565b610e5a565b005b60007f80ac58cd000000000000000000000000000000000000000000000000000000007bffffffffffffffffffffffffffffffffffffffffffffffffffffffff1916827bffffffffffffffffffffffffffffffffffffffffffffffffffffffff1916148061048557507f5b5e139f000000000000000000000000000000000000000000000000000000007bffffffffffffffffffffffffffffffffffffffffffffffffffffffff1916827bffffffffffffffffffffffffffffffffffffffffffffffffffffffff1916145b80610495575061049482611095565b5b9050919050565b6060600080546104ab90612720565b80601f01602080910402602001604051908101604052809291908181526020018280546104d790612720565b80156105245780601f106104f957610100808354040283529160200191610524565b820191906000526020600020905b81548152906001019060200180831161050757829003601f168201915b5050505050905090565b6000610539826110ff565b6004600083815260200190815260200160002060009054906101000a900473ffffffffffffffffffffffffffffffffffffffff169050919050565b600061057f8261070b565b90508073ffffffffffffffffffffffffffffffffffffffff168373ffffffffffffffffffffffffffffffffffffffff16036105ef576040517f08c379a00000000000000000000000000000000000000000000000000000000081526004016105e6906127c3565b60405180910390fd5b8073ffffffffffffffffffffffffffffffffffffffff1661060e61114a565b73ffffffffffffffffffffffffffffffffffffffff16148061063d575061063c8161063761114a565b610d43565b5b61067c576040517f08c379a000000000000000000000000000000000000000000000000000000000815260040161067390612855565b60405180910390fd5b6106868383611152565b505050565b61069c61069661114a565b8261120b565b6106db576040517f08c379a00000000000000000000000000000000000000000000000000000000081526004016106d2906128e7565b60405180910390fd5b6106e68383836112a0565b505050565b61070683838360405180602001604052806000815250610aae565b505050565b60008061071783611599565b9050600073ffffffffffffffffffffffffffffffffffffffff168173ffffffffffffffffffffffffffffffffffffffff1603610788576040517f08c379a000000000000000000000000000000000000000000000000000000000815260040161077f90612953565b60405180910390fd5b80915050919050565b610799611dc3565b600d60008381526020019081526020016000206040518060a00160405290816000820180546107c790612720565b80601f01602080910402602001604051908101604052809291908181526020018280546107f390612720565b80156108405780601f1061081557610100808354040283529160200191610840565b820191906000526020600020905b81548152906001019060200180831161082357829003601f168201915b5050505050815260200160018201805461085990612720565b80601f016020809104026020016040519081016040528092919081815260200182805461088590612720565b80156108d25780601f106108a7576101008083540402835291602001916108d2565b820191906000526020600020905b8154815290600101906020018083116108b557829003601f168201915b5050505050815260200160028201548152602001600382015481526020016004820160009054906101000a900460ff1615151515815250509050919050565b60008073ffffffffffffffffffffffffffffffffffffffff168273ffffffffffffffffffffffffffffffffffffffff1603610981576040517f08c379a0000000000000000000000000000000000000000000000000000000008152600401610978906129e5565b60405180910390fd5b600360008373ffffffffffffffffffffffffffffffffffffffff1673ffffffffffffffffffffffffffffffffffffffff168152602001908152602001600020549050919050565b6109d06115d6565b6109da6000611654565b565b6000600660009054906101000a900473ffffffffffffffffffffffffffffffffffffffff16905090565b606060018054610a1590612720565b80601f0160208091040260200160405190810160405280929190818152602001828054610a4190612720565b8015610a8e5780601f10610a6357610100808354040283529160200191610a8e565b820191906000526020600020905b815481529060010190602001808311610a7157829003601f168201915b5050505050905090565b610aaa610aa361114a565b838361171a565b5050565b610abf610ab961114a565b8361120b565b610afe576040517f08c379a0000000000000000000000000000000000000000000000000000000008152600401610af5906128e7565b60405180910390fd5b610b0a84848484611886565b50505050565b6060610b1b826118e2565b610b5a576040517f08c379a0000000000000000000000000000000000000000000000000000000008152600401610b5190612a77565b60405180910390fd5b60086000018054610b6a90612720565b80601f0160208091040260200160405190810160405280929190818152602001828054610b9690612720565b8015610be35780601f10610bb857610100808354040283529160200191610be3565b820191906000526020600020905b815481529060010190602001808311610bc657829003601f168201915b50505050509050919050565b610bf76115d6565b610c016007611923565b6000610c0d6007611939565b90506040518060a0016040528086815260200185815260200184815260200183815260200160011515815250600d60008381526020019081526020016000206000820151816000019081610c619190612c43565b506020820151816001019081610c779190612c43565b50604082015181600201556060820151816003015560808201518160040160006101000a81548160ff021916908315150217905550905050610cb93382611947565b600d6000828152602001908152602001600020600860008201816000019081610ce29190612d2b565b5060018201816001019081610cf79190612d2b565b5060028201548160020155600382015481600301556004820160009054906101000a900460ff168160040160006101000a81548160ff0219169083151502179055509050505050505050565b6000600560008473ffffffffffffffffffffffffffffffffffffffff1673ffffffffffffffffffffffffffffffffffffffff16815260200190815260200160002060008373ffffffffffffffffffffffffffffffffffffffff1673ffffffffffffffffffffffffffffffffffffffff16815260200190815260200160002060009054906101000a900460ff16905092915050565b610ddf6115d6565b600073ffffffffffffffffffffffffffffffffffffffff168173ffffffffffffffffffffffffffffffffffffffff1603610e4e576040517f08c379a0000000000000000000000000000000000000000000000000000000008152600401610e4590612e85565b60405180910390fd5b610e5781611654565b50565b610e63836118e2565b610ea2576040517f08c379a0000000000000000000000000000000000000000000000000000000008152600401610e9990612ef1565b60405180910390fd5b6000600d600085815260200190815260200160002090508060040160009054906101000a900460ff16610f0a576040517f08c379a0000000000000000000000000000000000000000000000000000000008152600401610f0190612f5d565b60405180910390fd5b600033604051602001610f1d9190612fc5565b604051602081830303815290604052805190602001209050610f85848480806020026020016040519081016040528093929190818152602001838360200280828437600081840152601f19601f82011690508083019250505050505050836003015483611b64565b610fc4576040517f08c379a0000000000000000000000000000000000000000000000000000000008152600401610fbb9061302c565b60405180910390fd5b611014848480806020026020016040519081016040528093929190818152602001838360200280828437600081840152601f19601f82011690508083019250505050505050836002015483611b64565b611053576040517f08c379a000000000000000000000000000000000000000000000000000000000815260040161104a90613098565b60405180910390fd5b600082600201543360405160200161106c9291906130d9565b604051602081830303815290604052905080805190602001208360020181905550505050505050565b60007f01ffc9a7000000000000000000000000000000000000000000000000000000007bffffffffffffffffffffffffffffffffffffffffffffffffffffffff1916827bffffffffffffffffffffffffffffffffffffffffffffffffffffffff1916149050919050565b611108816118e2565b611147576040517f08c379a000000000000000000000000000000000000000000000000000000000815260040161113e90612953565b60405180910390fd5b50565b600033905090565b816004600083815260200190815260200160002060006101000a81548173ffffffffffffffffffffffffffffffffffffffff021916908373ffffffffffffffffffffffffffffffffffffffff160217905550808273ffffffffffffffffffffffffffffffffffffffff166111c58361070b565b73ffffffffffffffffffffffffffffffffffffffff167f8c5be1e5ebec7d5bd14f71427d1e84f3dd0314c0f7b2291e5b200ac8c7c3b92560405160405180910390a45050565b6000806112178361070b565b90508073ffffffffffffffffffffffffffffffffffffffff168473ffffffffffffffffffffffffffffffffffffffff16148061125957506112588185610d43565b5b8061129757508373ffffffffffffffffffffffffffffffffffffffff1661127f8461052e565b73ffffffffffffffffffffffffffffffffffffffff16145b91505092915050565b8273ffffffffffffffffffffffffffffffffffffffff166112c08261070b565b73ffffffffffffffffffffffffffffffffffffffff1614611316576040517f08c379a000000000000000000000000000000000000000000000000000000000815260040161130d90613177565b60405180910390fd5b600073ffffffffffffffffffffffffffffffffffffffff168273ffffffffffffffffffffffffffffffffffffffff1603611385576040517f08c379a000000000000000000000000000000000000000000000000000000000815260040161137c90613209565b60405180910390fd5b6113928383836001611b7b565b8273ffffffffffffffffffffffffffffffffffffffff166113b28261070b565b73ffffffffffffffffffffffffffffffffffffffff1614611408576040517f08c379a00000000000000000000000000000000000000000000000000000000081526004016113ff90613177565b60405180910390fd5b6004600082815260200190815260200160002060006101000a81549073ffffffffffffffffffffffffffffffffffffffff02191690556001600360008573ffffffffffffffffffffffffffffffffffffffff1673ffffffffffffffffffffffffffffffffffffffff168152602001908152602001600020600082825403925050819055506001600360008473ffffffffffffffffffffffffffffffffffffffff1673ffffffffffffffffffffffffffffffffffffffff16815260200190815260200160002060008282540192505081905550816002600083815260200190815260200160002060006101000a81548173ffffffffffffffffffffffffffffffffffffffff021916908373ffffffffffffffffffffffffffffffffffffffff160217905550808273ffffffffffffffffffffffffffffffffffffffff168473ffffffffffffffffffffffffffffffffffffffff167fddf252ad1be2c89b69c2b068fc378daa952ba7f163c4a11628f55a4df523b3ef60405160405180910390a46115948383836001611b81565b505050565b60006002600083815260200190815260200160002060009054906101000a900473ffffffffffffffffffffffffffffffffffffffff169050919050565b6115de61114a565b73ffffffffffffffffffffffffffffffffffffffff166115fc6109dc565b73ffffffffffffffffffffffffffffffffffffffff1614611652576040517f08c379a000000000000000000000000000000000000000000000000000000000815260040161164990613275565b60405180910390fd5b565b6000600660009054906101000a900473ffffffffffffffffffffffffffffffffffffffff16905081600660006101000a81548173ffffffffffffffffffffffffffffffffffffffff021916908373ffffffffffffffffffffffffffffffffffffffff1602179055508173ffffffffffffffffffffffffffffffffffffffff168173ffffffffffffffffffffffffffffffffffffffff167f8be0079c531659141344cd1fd0a4f28419497f9722a3daafe3b4186f6b6457e060405160405180910390a35050565b8173ffffffffffffffffffffffffffffffffffffffff168373ffffffffffffffffffffffffffffffffffffffff1603611788576040517f08c379a000000000000000000000000000000000000000000000000000000000815260040161177f906132e1565b60405180910390fd5b80600560008573ffffffffffffffffffffffffffffffffffffffff1673ffffffffffffffffffffffffffffffffffffffff16815260200190815260200160002060008473ffffffffffffffffffffffffffffffffffffffff1673ffffffffffffffffffffffffffffffffffffffff16815260200190815260200160002060006101000a81548160ff0219169083151502179055508173ffffffffffffffffffffffffffffffffffffffff168373ffffffffffffffffffffffffffffffffffffffff167f17307eab39ab6107e8899845ad3d59bd9653f200f220920489ca2b5937696c31836040516118799190611eae565b60405180910390a3505050565b6118918484846112a0565b61189d84848484611b87565b6118dc576040517f08c379a00000000000000000000000000000000000000000000000000000000081526004016118d390613373565b60405180910390fd5b50505050565b60008073ffffffffffffffffffffffffffffffffffffffff1661190483611599565b73ffffffffffffffffffffffffffffffffffffffff1614159050919050565b6001816000016000828254019250508190555050565b600081600001549050919050565b600073ffffffffffffffffffffffffffffffffffffffff168273ffffffffffffffffffffffffffffffffffffffff16036119b6576040517f08c379a00000000000000000000000000000000000000000000000000000000081526004016119ad906133df565b60405180910390fd5b6119bf816118e2565b156119ff576040517f08c379a00000000000000000000000000000000000000000000000000000000081526004016119f69061344b565b60405180910390fd5b611a0d600083836001611b7b565b611a16816118e2565b15611a56576040517f08c379a0000000000000000000000000000000000000000000000000000000008152600401611a4d9061344b565b60405180910390fd5b6001600360008473ffffffffffffffffffffffffffffffffffffffff1673ffffffffffffffffffffffffffffffffffffffff16815260200190815260200160002060008282540192505081905550816002600083815260200190815260200160002060006101000a81548173ffffffffffffffffffffffffffffffffffffffff021916908373ffffffffffffffffffffffffffffffffffffffff160217905550808273ffffffffffffffffffffffffffffffffffffffff16600073ffffffffffffffffffffffffffffffffffffffff167fddf252ad1be2c89b69c2b068fc378daa952ba7f163c4a11628f55a4df523b3ef60405160405180910390a4611b60600083836001611b81565b5050565b600082611b718584611d0e565b1490509392505050565b50505050565b50505050565b6000611ba88473ffffffffffffffffffffffffffffffffffffffff16611d5e565b15611d01578373ffffffffffffffffffffffffffffffffffffffff1663150b7a02611bd161114a565b8786866040518563ffffffff1660e01b8152600401611bf394939291906134c0565b6020604051808303816000875af1925050508015611c2f57506040513d601f19601f82011682018060405250810190611c2c9190613521565b60015b611cb1573d8060008114611c5f576040519150601f19603f3d011682016040523d82523d6000602084013e611c64565b606091505b506000815103611ca9576040517f08c379a0000000000000000000000000000000000000000000000000000000008152600401611ca090613373565b60405180910390fd5b805181602001fd5b63150b7a0260e01b7bffffffffffffffffffffffffffffffffffffffffffffffffffffffff1916817bffffffffffffffffffffffffffffffffffffffffffffffffffffffff191614915050611d06565b600190505b949350505050565b60008082905060005b8451811015611d5357611d4482868381518110611d3757611d3661354e565b5b6020026020010151611d81565b91508080600101915050611d17565b508091505092915050565b6000808273ffffffffffffffffffffffffffffffffffffffff163b119050919050565b6000818310611d9957611d948284611dac565b611da4565b611da38383611dac565b5b905092915050565b600082600052816020526040600020905092915050565b6040518060a00160405280606081526020016060815260200160008019168152602001600080191681526020016000151581525090565b6000604051905090565b600080fd5b600080fd5b60007fffffffff0000000000000000000000000000000000000000000000000000000082169050919050565b611e4381611e0e565b8114611e4e57600080fd5b50565b600081359050611e6081611e3a565b92915050565b600060208284031215611e7c57611e7b611e04565b5b6000611e8a84828501611e51565b91505092915050565b60008115159050919050565b611ea881611e93565b82525050565b6000602082019050611ec36000830184611e9f565b92915050565b600081519050919050565b600082825260208201905092915050565b60005b83811015611f03578082015181840152602081019050611ee8565b60008484015250505050565b6000601f19601f8301169050919050565b6000611f2b82611ec9565b611f358185611ed4565b9350611f45818560208601611ee5565b611f4e81611f0f565b840191505092915050565b60006020820190508181036000830152611f738184611f20565b905092915050565b6000819050919050565b611f8e81611f7b565b8114611f9957600080fd5b50565b600081359050611fab81611f85565b92915050565b600060208284031215611fc757611fc6611e04565b5b6000611fd584828501611f9c565b91505092915050565b600073ffffffffffffffffffffffffffffffffffffffff82169050919050565b600061200982611fde565b9050919050565b61201981611ffe565b82525050565b60006020820190506120346000830184612010565b92915050565b61204381611ffe565b811461204e57600080fd5b50565b6000813590506120608161203a565b92915050565b6000806040838503121561207d5761207c611e04565b5b600061208b85828601612051565b925050602061209c85828601611f9c565b9150509250929050565b6000806000606084860312156120bf576120be611e04565b5b60006120cd86828701612051565b93505060206120de86828701612051565b92505060406120ef86828701611f9c565b9150509250925092565b600082825260208201905092915050565b600061211582611ec9565b61211f81856120f9565b935061212f818560208601611ee5565b61213881611f0f565b840191505092915050565b6000819050919050565b61215681612143565b82525050565b61216581611e93565b82525050565b600060a0830160008301518482036000860152612188828261210a565b915050602083015184820360208601526121a2828261210a565b91505060408301516121b7604086018261214d565b5060608301516121ca606086018261214d565b5060808301516121dd608086018261215c565b508091505092915050565b60006020820190508181036000830152612202818461216b565b905092915050565b6000602082840312156122205761221f611e04565b5b600061222e84828501612051565b91505092915050565b61224081611f7b565b82525050565b600060208201905061225b6000830184612237565b92915050565b61226a81611e93565b811461227557600080fd5b50565b60008135905061228781612261565b92915050565b600080604083850312156122a4576122a3611e04565b5b60006122b285828601612051565b92505060206122c385828601612278565b9150509250929050565b600080fd5b600080fd5b7f4e487b7100000000000000000000000000000000000000000000000000000000600052604160045260246000fd5b61230f82611f0f565b810181811067ffffffffffffffff8211171561232e5761232d6122d7565b5b80604052505050565b6000612341611dfa565b905061234d8282612306565b919050565b600067ffffffffffffffff82111561236d5761236c6122d7565b5b61237682611f0f565b9050602081019050919050565b82818337600083830152505050565b60006123a56123a084612352565b612337565b9050828152602081018484840111156123c1576123c06122d2565b5b6123cc848285612383565b509392505050565b600082601f8301126123e9576123e86122cd565b5b81356123f9848260208601612392565b91505092915050565b6000806000806080858703121561241c5761241b611e04565b5b600061242a87828801612051565b945050602061243b87828801612051565b935050604061244c87828801611f9c565b925050606085013567ffffffffffffffff81111561246d5761246c611e09565b5b612479878288016123d4565b91505092959194509250565b600067ffffffffffffffff8211156124a05761249f6122d7565b5b6124a982611f0f565b9050602081019050919050565b60006124c96124c484612485565b612337565b9050828152602081018484840111156124e5576124e46122d2565b5b6124f0848285612383565b509392505050565b600082601f83011261250d5761250c6122cd565b5b813561251d8482602086016124b6565b91505092915050565b61252f81612143565b811461253a57600080fd5b50565b60008135905061254c81612526565b92915050565b6000806000806080858703121561256c5761256b611e04565b5b600085013567ffffffffffffffff81111561258a57612589611e09565b5b612596878288016124f8565b945050602085013567ffffffffffffffff8111156125b7576125b6611e09565b5b6125c3878288016124f8565b93505060406125d48782880161253d565b92505060606125e58782880161253d565b91505092959194509250565b6000806040838503121561260857612607611e04565b5b600061261685828601612051565b925050602061262785828601612051565b9150509250929050565b600080fd5b600080fd5b60008083601f840112612651576126506122cd565b5b8235905067ffffffffffffffff81111561266e5761266d612631565b5b60208301915083602082028301111561268a57612689612636565b5b9250929050565b6000806000604084860312156126aa576126a9611e04565b5b60006126b886828701611f9c565b935050602084013567ffffffffffffffff8111156126d9576126d8611e09565b5b6126e58682870161263b565b92509250509250925092565b7f4e487b7100000000000000000000000000000000000000000000000000000000600052602260045260246000fd5b6000600282049050600182168061273857607f821691505b60208210810361274b5761274a6126f1565b5b50919050565b7f4552433732313a20617070726f76616c20746f2063757272656e74206f776e6560008201527f7200000000000000000000000000000000000000000000000000000000000000602082015250565b60006127ad602183611ed4565b91506127b882612751565b604082019050919050565b600060208201905081810360008301526127dc816127a0565b9050919050565b7f4552433732313a20617070726f76652063616c6c6572206973206e6f7420746f60008201527f6b656e206f776e6572206f7220617070726f76656420666f7220616c6c000000602082015250565b600061283f603d83611ed4565b915061284a826127e3565b604082019050919050565b6000602082019050818103600083015261286e81612832565b9050919050565b7f4552433732313a2063616c6c6572206973206e6f7420746f6b656e206f776e6560008201527f72206f7220617070726f76656400000000000000000000000000000000000000602082015250565b60006128d1602d83611ed4565b91506128dc82612875565b604082019050919050565b60006020820190508181036000830152612900816128c4565b9050919050565b7f4552433732313a20696e76616c696420746f6b656e2049440000000000000000600082015250565b600061293d601883611ed4565b915061294882612907565b602082019050919050565b6000602082019050818103600083015261296c81612930565b9050919050565b7f4552433732313a2061646472657373207a65726f206973206e6f74206120766160008201527f6c6964206f776e65720000000000000000000000000000000000000000000000602082015250565b60006129cf602983611ed4565b91506129da82612973565b604082019050919050565b600060208201905081810360008301526129fe816129c2565b9050919050565b7f4552433732314d657461646174613a2055524920717565727920666f72206e6f60008201527f6e6578697374656e7420746f6b656e0000000000000000000000000000000000602082015250565b6000612a61602f83611ed4565b9150612a6c82612a05565b604082019050919050565b60006020820190508181036000830152612a9081612a54565b9050919050565b60008190508160005260206000209050919050565b60006020601f8301049050919050565b600082821b905092915050565b600060088302612af97fffffffffffffffffffffffffffffffffffffffffffffffffffffffffffffffff82612abc565b612b038683612abc565b95508019841693508086168417925050509392505050565b6000819050919050565b6000612b40612b3b612b3684611f7b565b612b1b565b611f7b565b9050919050565b6000819050919050565b612b5a83612b25565b612b6e612b6682612b47565b848454612ac9565b825550505050565b600090565b612b83612b76565b612b8e818484612b51565b505050565b5b81811015612bb257612ba7600082612b7b565b600181019050612b94565b5050565b601f821115612bf757612bc881612a97565b612bd184612aac565b81016020851015612be0578190505b612bf4612bec85612aac565b830182612b93565b50505b505050565b600082821c905092915050565b6000612c1a60001984600802612bfc565b1980831691505092915050565b6000612c338383612c09565b9150826002028217905092915050565b612c4c82611ec9565b67ffffffffffffffff811115612c6557612c646122d7565b5b612c6f8254612720565b612c7a828285612bb6565b600060209050601f831160018114612cad5760008415612c9b578287015190505b612ca58582612c27565b865550612d0d565b601f198416612cbb86612a97565b60005b82811015612ce357848901518255600182019150602085019450602081019050612cbe565b86831015612d005784890151612cfc601f891682612c09565b8355505b6001600288020188555050505b505050505050565b600081549050612d2481612720565b9050919050565b818103612d39575050612e11565b612d4282612d15565b67ffffffffffffffff811115612d5b57612d5a6122d7565b5b612d658254612720565b612d70828285612bb6565b6000601f831160018114612d9f5760008415612d8d578287015490505b612d978582612c27565b865550612e0a565b601f198416612dad87612a97565b9650612db886612a97565b60005b82811015612de057848901548255600182019150600185019450602081019050612dbb565b86831015612dfd5784890154612df9601f891682612c09565b8355505b6001600288020188555050505b5050505050505b565b7f4f776e61626c653a206e6577206f776e657220697320746865207a65726f206160008201527f6464726573730000000000000000000000000000000000000000000000000000602082015250565b6000612e6f602683611ed4565b9150612e7a82612e13565b604082019050919050565b60006020820190508181036000830152612e9e81612e62565b9050919050565b7f4552433732313a20616420646f6573206e6f7420657869737400000000000000600082015250565b6000612edb601983611ed4565b9150612ee682612ea5565b602082019050919050565b60006020820190508181036000830152612f0a81612ece565b9050919050565b7f45524341643a20616420646f6573206e6f742065786973740000000000000000600082015250565b6000612f47601883611ed4565b9150612f5282612f11565b602082019050919050565b60006020820190508181036000830152612f7681612f3a565b9050919050565b60008160601b9050919050565b6000612f9582612f7d565b9050919050565b6000612fa782612f8a565b9050919050565b612fbf612fba82611ffe565b612f9c565b82525050565b6000612fd18284612fae565b60148201915081905092915050565b7f53656e646572206e6f7420696e2061756469656e636500000000000000000000600082015250565b6000613016601683611ed4565b915061302182612fe0565b602082019050919050565b6000602082019050818103600083015261304581613009565b9050919050565b7f53656e64657220616c7265616479207369676e65640000000000000000000000600082015250565b6000613082601583611ed4565b915061308d8261304c565b602082019050919050565b600060208201905081810360008301526130b181613075565b9050919050565b6000819050919050565b6130d36130ce82612143565b6130b8565b82525050565b60006130e582856130c2565b6020820191506130f58284612fae565b6014820191508190509392505050565b7f4552433732313a207472616e736665722066726f6d20696e636f72726563742060008201527f6f776e6572000000000000000000000000000000000000000000000000000000602082015250565b6000613161602583611ed4565b915061316c82613105565b604082019050919050565b6000602082019050818103600083015261319081613154565b9050919050565b7f4552433732313a207472616e7366657220746f20746865207a65726f2061646460008201527f7265737300000000000000000000000000000000000000000000000000000000602082015250565b60006131f3602483611ed4565b91506131fe82613197565b604082019050919050565b60006020820190508181036000830152613222816131e6565b9050919050565b7f4f776e61626c653a2063616c6c6572206973206e6f7420746865206f776e6572600082015250565b600061325f602083611ed4565b915061326a82613229565b602082019050919050565b6000602082019050818103600083015261328e81613252565b9050919050565b7f4552433732313a20617070726f766520746f2063616c6c657200000000000000600082015250565b60006132cb601983611ed4565b91506132d682613295565b602082019050919050565b600060208201905081810360008301526132fa816132be565b9050919050565b7f4552433732313a207472616e7366657220746f206e6f6e20455243373231526560008201527f63656976657220696d706c656d656e7465720000000000000000000000000000602082015250565b600061335d603283611ed4565b915061336882613301565b604082019050919050565b6000602082019050818103600083015261338c81613350565b9050919050565b7f4552433732313a206d696e7420746f20746865207a65726f2061646472657373600082015250565b60006133c9602083611ed4565b91506133d482613393565b602082019050919050565b600060208201905081810360008301526133f8816133bc565b9050919050565b7f4552433732313a20746f6b656e20616c7265616479206d696e74656400000000600082015250565b6000613435601c83611ed4565b9150613440826133ff565b602082019050919050565b6000602082019050818103600083015261346481613428565b9050919050565b600081519050919050565b600082825260208201905092915050565b60006134928261346b565b61349c8185613476565b93506134ac818560208601611ee5565b6134b581611f0f565b840191505092915050565b60006080820190506134d56000830187612010565b6134e26020830186612010565b6134ef6040830185612237565b81810360608301526135018184613487565b905095945050505050565b60008151905061351b81611e3a565b92915050565b60006020828403121561353757613536611e04565b5b60006135458482850161350c565b91505092915050565b7f4e487b7100000000000000000000000000000000000000000000000000000000600052603260045260246000fdfea26469706673582212209c89c4ae8f012d2bb833c1f90a9b8dc9ae313bcd02584718ff92cda861271cf364736f6c63430008180033",
  "linkReferences": {},
  "deployedLinkReferences": {}
}