{
  "_format": "hh-sol-artifact-1",
  "contractName": "MehStoreV1",
  "sourceName": "contracts/store/MehStoreV1.sol",
  "abi": [
    {
      "inputs": [
        {
          "internalType": "contract IERC20",
          "name": "_usdc",
          "type": "address"
        },
        {
          "internalType": "address",
          "name": "_mehStoreNFTAddress",
          "type": "address"
        },
        {
          "internalType": "contract IERC20",
          "name": "_meh",
          "type": "address"
        }
      ],
      "stateMutability": "nonpayable",
      "type": "constructor"
    },
    {
      "anonymous": false,
      "inputs": [
        {
          "indexed": true,
          "internalType": "address",
          "name": "previousOwner",
          "type": "address"
        },
        {
          "indexed": true,
          "internalType": "address",
          "name": "newOwner",
          "type": "address"
        }
      ],
      "name": "OwnershipTransferred",
      "type": "event"
    },
    {
      "anonymous": false,
      "inputs": [
        {
          "indexed": true,
          "internalType": "address",
          "name": "buyer",
          "type": "address"
        },
        {
          "indexed": true,
          "internalType": "uint256",
          "name": "saleId",
          "type": "uint256"
        },
        {
          "indexed": true,
          "internalType": "uint256",
          "name": "productId",
          "type": "uint256"
        },
        {
          "indexed": false,
          "internalType": "uint256",
          "name": "price",
          "type": "uint256"
        },
        {
          "indexed": false,
          "internalType": "string",
          "name": "size",
          "type": "string"
        }
      ],
      "name": "Purchase",
      "type": "event"
    },
    {
      "anonymous": false,
      "inputs": [
        {
          "indexed": false,
          "internalType": "uint256",
          "name": "amount",
          "type": "uint256"
        }
      ],
      "name": "RandomMeh",
      "type": "event"
    },
    {
      "inputs": [
        {
          "internalType": "uint256",
          "name": "price",
          "type": "uint256"
        },
        {
          "internalType": "string",
          "name": "title",
          "type": "string"
        },
        {
          "internalType": "string",
          "name": "mediaURL",
          "type": "string"
        }
      ],
      "name": "addProduct",
      "outputs": [],
      "stateMutability": "nonpayable",
      "type": "function"
    },
    {
      "inputs": [
        {
          "internalType": "uint256",
          "name": "productId",
          "type": "uint256"
        },
        {
          "internalType": "string",
          "name": "newSize",
          "type": "string"
        }
      ],
      "name": "addProductSize",
      "outputs": [],
      "stateMutability": "nonpayable",
      "type": "function"
    },
    {
      "inputs": [
        {
          "internalType": "uint256",
          "name": "productId",
          "type": "uint256"
        }
      ],
      "name": "deactivateProduct",
      "outputs": [],
      "stateMutability": "nonpayable",
      "type": "function"
    },
    {
      "inputs": [
        {
          "internalType": "uint256",
          "name": "",
          "type": "uint256"
        }
      ],
      "name": "escrow",
      "outputs": [
        {
          "internalType": "uint256",
          "name": "",
          "type": "uint256"
        }
      ],
      "stateMutability": "view",
      "type": "function"
    },
    {
      "inputs": [
        {
          "internalType": "uint256",
          "name": "amount",
          "type": "uint256"
        }
      ],
      "name": "extractMehTokens",
      "outputs": [],
      "stateMutability": "nonpayable",
      "type": "function"
    },
    {
      "inputs": [
        {
          "internalType": "uint256",
          "name": "amount",
          "type": "uint256"
        }
      ],
      "name": "extractUSDC",
      "outputs": [],
      "stateMutability": "nonpayable",
      "type": "function"
    },
    {
      "inputs": [],
      "name": "meh",
      "outputs": [
        {
          "internalType": "contract IERC20",
          "name": "",
          "type": "address"
        }
      ],
      "stateMutability": "view",
      "type": "function"
    },
    {
      "inputs": [],
      "name": "mehStoreNFT",
      "outputs": [
        {
          "internalType": "contract MehStoreNFT",
          "name": "",
          "type": "address"
        }
      ],
      "stateMutability": "view",
      "type": "function"
    },
    {
      "inputs": [],
      "name": "nextProductId",
      "outputs": [
        {
          "internalType": "uint256",
          "name": "",
          "type": "uint256"
        }
      ],
      "stateMutability": "view",
      "type": "function"
    },
    {
      "inputs": [],
      "name": "nextSaleId",
      "outputs": [
        {
          "internalType": "uint256",
          "name": "",
          "type": "uint256"
        }
      ],
      "stateMutability": "view",
      "type": "function"
    },
    {
      "inputs": [],
      "name": "owner",
      "outputs": [
        {
          "internalType": "address",
          "name": "",
          "type": "address"
        }
      ],
      "stateMutability": "view",
      "type": "function"
    },
    {
      "inputs": [
        {
          "internalType": "uint256",
          "name": "",
          "type": "uint256"
        }
      ],
      "name": "products",
      "outputs": [
        {
          "internalType": "uint256",
          "name": "price",
          "type": "uint256"
        },
        {
          "internalType": "string",
          "name": "title",
          "type": "string"
        },
        {
          "internalType": "string",
          "name": "mediaURL",
          "type": "string"
        },
        {
          "internalType": "bool",
          "name": "isShipped",
          "type": "bool"
        },
        {
          "internalType": "bool",
          "name": "isActive",
          "type": "bool"
        }
      ],
      "stateMutability": "view",
      "type": "function"
    },
    {
      "inputs": [
        {
          "internalType": "uint256",
          "name": "productId",
          "type": "uint256"
        },
        {
          "internalType": "string",
          "name": "size",
          "type": "string"
        },
        {
          "internalType": "bool",
          "name": "applyDiscount",
          "type": "bool"
        }
      ],
      "name": "purchaseProduct",
      "outputs": [],
      "stateMutability": "nonpayable",
      "type": "function"
    },
    {
      "inputs": [],
      "name": "randomFactor",
      "outputs": [
        {
          "internalType": "uint256",
          "name": "",
          "type": "uint256"
        }
      ],
      "stateMutability": "view",
      "type": "function"
    },
    {
      "inputs": [
        {
          "internalType": "uint256",
          "name": "productId",
          "type": "uint256"
        }
      ],
      "name": "refund",
      "outputs": [],
      "stateMutability": "nonpayable",
      "type": "function"
    },
    {
      "inputs": [],
      "name": "renounceOwnership",
      "outputs": [],
      "stateMutability": "nonpayable",
      "type": "function"
    },
    {
      "inputs": [
        {
          "internalType": "uint256",
          "name": "",
          "type": "uint256"
        }
      ],
      "name": "sales",
      "outputs": [
        {
          "internalType": "address",
          "name": "buyer",
          "type": "address"
        },
        {
          "internalType": "uint256",
          "name": "productId",
          "type": "uint256"
        },
        {
          "internalType": "uint256",
          "name": "price",
          "type": "uint256"
        },
        {
          "internalType": "string",
          "name": "size",
          "type": "string"
        }
      ],
      "stateMutability": "view",
      "type": "function"
    },
    {
      "inputs": [
        {
          "internalType": "uint256",
          "name": "productId",
          "type": "uint256"
        }
      ],
      "name": "shipProduct",
      "outputs": [],
      "stateMutability": "nonpayable",
      "type": "function"
    },
    {
      "inputs": [
        {
          "internalType": "address",
          "name": "newOwner",
          "type": "address"
        }
      ],
      "name": "transferOwnership",
      "outputs": [],
      "stateMutability": "nonpayable",
      "type": "function"
    },
    {
      "inputs": [
        {
          "internalType": "uint256",
          "name": "productId",
          "type": "uint256"
        },
        {
          "internalType": "uint256",
          "name": "newPrice",
          "type": "uint256"
        },
        {
          "internalType": "string",
          "name": "newTitle",
          "type": "string"
        },
        {
          "internalType": "string",
          "name": "newMediaURL",
          "type": "string"
        }
      ],
      "name": "updateProduct",
      "outputs": [],
      "stateMutability": "nonpayable",
      "type": "function"
    },
    {
      "inputs": [],
      "name": "usdc",
      "outputs": [
        {
          "internalType": "contract IERC20",
          "name": "",
          "type": "address"
        }
      ],
      "stateMutability": "view",
      "type": "function"
    }
  ],
  "bytecode": "0x60806040526001600a553480156200001657600080fd5b50604051620030803803806200308083398181016040528101906200003c9190620002aa565b6200005c620000506200012f60201b60201c565b6200013760201b60201c565b6001808190555082600260006101000a81548173ffffffffffffffffffffffffffffffffffffffff021916908373ffffffffffffffffffffffffffffffffffffffff16021790555081600460006101000a81548173ffffffffffffffffffffffffffffffffffffffff021916908373ffffffffffffffffffffffffffffffffffffffff16021790555080600360006101000a81548173ffffffffffffffffffffffffffffffffffffffff021916908373ffffffffffffffffffffffffffffffffffffffff16021790555050505062000306565b600033905090565b60008060009054906101000a900473ffffffffffffffffffffffffffffffffffffffff169050816000806101000a81548173ffffffffffffffffffffffffffffffffffffffff021916908373ffffffffffffffffffffffffffffffffffffffff1602179055508173ffffffffffffffffffffffffffffffffffffffff168173ffffffffffffffffffffffffffffffffffffffff167f8be0079c531659141344cd1fd0a4f28419497f9722a3daafe3b4186f6b6457e060405160405180910390a35050565b600080fd5b600073ffffffffffffffffffffffffffffffffffffffff82169050919050565b60006200022d8262000200565b9050919050565b6000620002418262000220565b9050919050565b620002538162000234565b81146200025f57600080fd5b50565b600081519050620002738162000248565b92915050565b620002848162000220565b81146200029057600080fd5b50565b600081519050620002a48162000279565b92915050565b600080600060608486031215620002c657620002c5620001fb565b5b6000620002d68682870162000262565b9350506020620002e98682870162000293565b9250506040620002fc8682870162000262565b9150509250925092565b612d6a80620003166000396000f3fe608060405234801561001057600080fd5b50600436106101375760003560e01c8063715018a6116100b8578063b5f522f71161007c578063b5f522f7146102f0578063d68ff19114610323578063d8ec55ed14610353578063deb077b914610371578063f2fde38b1461038f578063fd77e5de146103ab57610137565b8063715018a61461025a5780637acc0b20146102645780638da5cb5b14610298578063a81aae6d146102b6578063ac510f8c146102d457610137565b80633e413bee116100ff5780633e413bee146101ca5780634aeda87e146101e85780634de91a6314610204578063587380f51461022257806358d9a0401461023e57610137565b8063031528e91461013c578063037bbfa61461015a578063084a856214610176578063278ecde1146101925780632927d1d9146101ae575b600080fd5b6101446103c7565b6040516101519190611a58565b60405180910390f35b610174600480360381019061016f9190611c31565b6103cd565b005b610190600480360381019061018b9190611ca0565b610909565b005b6101ac60048036038101906101a79190611ca0565b6109f3565b005b6101c860048036038101906101c39190611ca0565b610e51565b005b6101d2610fbd565b6040516101df9190611d4c565b60405180910390f35b61020260048036038101906101fd9190611d67565b610fe3565b005b61020c61103e565b6040516102199190611a58565b60405180910390f35b61023c60048036038101906102379190611dc3565b611044565b005b61025860048036038101906102539190611e62565b611097565b005b6102626111e8565b005b61027e60048036038101906102799190611ca0565b6111fc565b60405161028f959493929190611f7b565b60405180910390f35b6102a061135c565b6040516102ad9190611ffd565b60405180910390f35b6102be611385565b6040516102cb9190612039565b60405180910390f35b6102ee60048036038101906102e99190611ca0565b6113ab565b005b61030a60048036038101906103059190611ca0565b611585565b60405161031a9493929190612054565b60405180910390f35b61033d60048036038101906103389190611ca0565b61165d565b60405161034a9190611a58565b60405180910390f35b61035b611675565b6040516103689190611d4c565b60405180910390f35b61037961169b565b6040516103869190611a58565b60405180910390f35b6103a960048036038101906103a491906120cc565b6116a1565b005b6103c560048036038101906103c09190611ca0565b611724565b005b600a5481565b6103d561175e565b60006005600085815260200190815260200160002090508060030160019054906101000a900460ff1661043d576040517f08c379a000000000000000000000000000000000000000000000000000000000815260040161043490612145565b60405180910390fd5b6000816000015490508215610468576064604b8261045b9190612194565b6104659190612205565b90505b600260009054906101000a900473ffffffffffffffffffffffffffffffffffffffff1673ffffffffffffffffffffffffffffffffffffffff166323b872dd3330846040518463ffffffff1660e01b81526004016104c793929190612236565b6020604051808303816000875af11580156104e6573d6000803e3d6000fd5b505050506040513d601f19601f8201168201806040525081019061050a9190612282565b610549576040517f08c379a0000000000000000000000000000000000000000000000000000000008152600401610540906122fb565b60405180910390fd5b8060066000878152602001908152602001600020600082825461056c919061231b565b92505081905550600460009054906101000a900473ffffffffffffffffffffffffffffffffffffffff1673ffffffffffffffffffffffffffffffffffffffff1663156e29f63387846040518463ffffffff1660e01b81526004016105d29392919061234f565b600060405180830381600087803b1580156105ec57600080fd5b505af1158015610600573d6000803e3d6000fd5b505050506000600954905060405180608001604052803373ffffffffffffffffffffffffffffffffffffffff168152602001878152602001838152602001868152506007600083815260200190815260200160002060008201518160000160006101000a81548173ffffffffffffffffffffffffffffffffffffffff021916908373ffffffffffffffffffffffffffffffffffffffff160217905550602082015181600101556040820151816002015560608201518160030190816106c59190612588565b50905050600960008154809291906106dc9061265a565b919050555085813373ffffffffffffffffffffffffffffffffffffffff167f84752513c16e395e5da1c8c3a6aa33d59904ec0aa642c74ecca12bc39cac8955858960405161072b9291906126a2565b60405180910390a4600061073d6117ad565b905080600360009054906101000a900473ffffffffffffffffffffffffffffffffffffffff1673ffffffffffffffffffffffffffffffffffffffff166370a08231306040518263ffffffff1660e01b815260040161079b9190611ffd565b602060405180830381865afa1580156107b8573d6000803e3d6000fd5b505050506040513d601f19601f820116820180604052508101906107dc91906126e7565b106108f857600360009054906101000a900473ffffffffffffffffffffffffffffffffffffffff1673ffffffffffffffffffffffffffffffffffffffff1663a9059cbb33836040518363ffffffff1660e01b815260040161083e929190612714565b6020604051808303816000875af115801561085d573d6000803e3d6000fd5b505050506040513d601f19601f820116820180604052508101906108819190612282565b6108c0576040517f08c379a00000000000000000000000000000000000000000000000000000000081526004016108b790612789565b60405180910390fd5b7f10e3896cff14c0d12b7cb560023bfc86387a545f393ce518ffae112366eb34c0816040516108ef9190611a58565b60405180910390a15b50505050610904611812565b505050565b61091161181b565b600360009054906101000a900473ffffffffffffffffffffffffffffffffffffffff1673ffffffffffffffffffffffffffffffffffffffff1663a9059cbb33836040518363ffffffff1660e01b815260040161096e929190612714565b6020604051808303816000875af115801561098d573d6000803e3d6000fd5b505050506040513d601f19601f820116820180604052508101906109b19190612282565b6109f0576040517f08c379a00000000000000000000000000000000000000000000000000000000081526004016109e790612789565b60405180910390fd5b50565b6109fb61175e565b60006005600083815260200190815260200160002090508060030160009054906101000a900460ff1615610a64576040517f08c379a0000000000000000000000000000000000000000000000000000000008152600401610a5b9061281b565b60405180910390fd5b6000600460009054906101000a900473ffffffffffffffffffffffffffffffffffffffff1673ffffffffffffffffffffffffffffffffffffffff16630812a3cb846040518263ffffffff1660e01b8152600401610ac19190611a58565b602060405180830381865afa158015610ade573d6000803e3d6000fd5b505050506040513d601f19601f82011682018060405250810190610b0291906126e7565b90503373ffffffffffffffffffffffffffffffffffffffff16600460009054906101000a900473ffffffffffffffffffffffffffffffffffffffff1673ffffffffffffffffffffffffffffffffffffffff16636352211e836040518263ffffffff1660e01b8152600401610b769190611a58565b602060405180830381865afa158015610b93573d6000803e3d6000fd5b505050506040513d601f19601f82011682018060405250810190610bb79190612850565b73ffffffffffffffffffffffffffffffffffffffff1614610c0d576040517f08c379a0000000000000000000000000000000000000000000000000000000008152600401610c04906128c9565b60405180910390fd5b6000600460009054906101000a900473ffffffffffffffffffffffffffffffffffffffff1673ffffffffffffffffffffffffffffffffffffffff1663e7572230836040518263ffffffff1660e01b8152600401610c6a9190611a58565b602060405180830381865afa158015610c87573d6000803e3d6000fd5b505050506040513d601f19601f82011682018060405250810190610cab91906126e7565b9050600260009054906101000a900473ffffffffffffffffffffffffffffffffffffffff1673ffffffffffffffffffffffffffffffffffffffff1663a9059cbb33836040518363ffffffff1660e01b8152600401610d0a929190612714565b6020604051808303816000875af1158015610d29573d6000803e3d6000fd5b505050506040513d601f19601f82011682018060405250810190610d4d9190612282565b610d8c576040517f08c379a0000000000000000000000000000000000000000000000000000000008152600401610d8390612935565b60405180910390fd5b80600660008681526020019081526020016000206000828254610daf9190612955565b92505081905550600460009054906101000a900473ffffffffffffffffffffffffffffffffffffffff1673ffffffffffffffffffffffffffffffffffffffff166342966c68836040518263ffffffff1660e01b8152600401610e119190611a58565b600060405180830381600087803b158015610e2b57600080fd5b505af1158015610e3f573d6000803e3d6000fd5b50505050505050610e4e611812565b50565b610e5961181b565b60006005600083815260200190815260200160002090508060030160009054906101000a900460ff1615610ec2576040517f08c379a0000000000000000000000000000000000000000000000000000000008152600401610eb9906129d5565b60405180910390fd5b60018160030160006101000a81548160ff02191690831515021790555060006006600084815260200190815260200160002054905060006006600085815260200190815260200160002081905550600260009054906101000a900473ffffffffffffffffffffffffffffffffffffffff1673ffffffffffffffffffffffffffffffffffffffff1663a9059cbb610f5661135c565b836040518363ffffffff1660e01b8152600401610f74929190612714565b6020604051808303816000875af1158015610f93573d6000803e3d6000fd5b505050506040513d601f19601f82011682018060405250810190610fb79190612282565b50505050565b600260009054906101000a900473ffffffffffffffffffffffffffffffffffffffff1681565b610feb61181b565b600060056000848152602001908152602001600020905080600401829080600181540180825580915050600190039060005260206000200160009091909190915090816110389190612588565b50505050565b60085481565b61104c61181b565b60006005600086815260200190815260200160002090508381600001819055508281600101908161107d9190612588565b508181600201908161108f9190612588565b505050505050565b61109f61181b565b6040518060c00160405280848152602001838152602001828152602001600015158152602001600115158152602001600067ffffffffffffffff8111156110e9576110e8611ace565b5b60405190808252806020026020018201604052801561111c57816020015b60608152602001906001900390816111075790505b508152506005600060085481526020019081526020016000206000820151816000015560208201518160010190816111549190612588565b50604082015181600201908161116a9190612588565b5060608201518160030160006101000a81548160ff02191690831515021790555060808201518160030160016101000a81548160ff02191690831515021790555060a08201518160040190805190602001906111c7929190611965565b50905050600860008154809291906111de9061265a565b9190505550505050565b6111f061181b565b6111fa6000611899565b565b6005602052806000526040600020600091509050806000015490806001018054611225906123b5565b80601f0160208091040260200160405190810160405280929190818152602001828054611251906123b5565b801561129e5780601f106112735761010080835404028352916020019161129e565b820191906000526020600020905b81548152906001019060200180831161128157829003601f168201915b5050505050908060020180546112b3906123b5565b80601f01602080910402602001604051908101604052809291908181526020018280546112df906123b5565b801561132c5780601f106113015761010080835404028352916020019161132c565b820191906000526020600020905b81548152906001019060200180831161130f57829003601f168201915b5050505050908060030160009054906101000a900460ff16908060030160019054906101000a900460ff16905085565b60008060009054906101000a900473ffffffffffffffffffffffffffffffffffffffff16905090565b600460009054906101000a900473ffffffffffffffffffffffffffffffffffffffff1681565b6113b361181b565b600081116113f6576040517f08c379a00000000000000000000000000000000000000000000000000000000081526004016113ed90612a41565b60405180910390fd5b6000600260009054906101000a900473ffffffffffffffffffffffffffffffffffffffff1673ffffffffffffffffffffffffffffffffffffffff166370a08231306040518263ffffffff1660e01b81526004016114539190611ffd565b602060405180830381865afa158015611470573d6000803e3d6000fd5b505050506040513d601f19601f8201168201806040525081019061149491906126e7565b9050818110156114d9576040517f08c379a00000000000000000000000000000000000000000000000000000000081526004016114d090612ad3565b60405180910390fd5b600260009054906101000a900473ffffffffffffffffffffffffffffffffffffffff1673ffffffffffffffffffffffffffffffffffffffff1663a9059cbb61151f61135c565b846040518363ffffffff1660e01b815260040161153d929190612714565b6020604051808303816000875af115801561155c573d6000803e3d6000fd5b505050506040513d601f19601f820116820180604052508101906115809190612282565b505050565b60076020528060005260406000206000915090508060000160009054906101000a900473ffffffffffffffffffffffffffffffffffffffff16908060010154908060020154908060030180546115da906123b5565b80601f0160208091040260200160405190810160405280929190818152602001828054611606906123b5565b80156116535780601f1061162857610100808354040283529160200191611653565b820191906000526020600020905b81548152906001019060200180831161163657829003601f168201915b5050505050905084565b60066020528060005260406000206000915090505481565b600360009054906101000a900473ffffffffffffffffffffffffffffffffffffffff1681565b60095481565b6116a961181b565b600073ffffffffffffffffffffffffffffffffffffffff168173ffffffffffffffffffffffffffffffffffffffff1603611718576040517f08c379a000000000000000000000000000000000000000000000000000000000815260040161170f90612b65565b60405180910390fd5b61172181611899565b50565b61172c61181b565b60006005600083815260200190815260200160002060030160016101000a81548160ff02191690831515021790555050565b6002600154036117a3576040517f08c379a000000000000000000000000000000000000000000000000000000000815260040161179a90612bd1565b60405180910390fd5b6002600181905550565b600080692a5a058fc295ed0000006a017d2a320dd745550000004244336040516020016117dc93929190612c5a565b6040516020818303038152906040528051906020012060001c6117ff9190612c97565b611809919061231b565b90508091505090565b60018081905550565b61182361195d565b73ffffffffffffffffffffffffffffffffffffffff1661184161135c565b73ffffffffffffffffffffffffffffffffffffffff1614611897576040517f08c379a000000000000000000000000000000000000000000000000000000000815260040161188e90612d14565b60405180910390fd5b565b60008060009054906101000a900473ffffffffffffffffffffffffffffffffffffffff169050816000806101000a81548173ffffffffffffffffffffffffffffffffffffffff021916908373ffffffffffffffffffffffffffffffffffffffff1602179055508173ffffffffffffffffffffffffffffffffffffffff168173ffffffffffffffffffffffffffffffffffffffff167f8be0079c531659141344cd1fd0a4f28419497f9722a3daafe3b4186f6b6457e060405160405180910390a35050565b600033905090565b8280548282559060005260206000209081019282156119ad579160200282015b828111156119ac57825182908161199c9190612588565b5091602001919060010190611985565b5b5090506119ba91906119be565b5090565b5b808211156119de57600081816119d591906119e2565b506001016119bf565b5090565b5080546119ee906123b5565b6000825580601f10611a005750611a1f565b601f016020900490600052602060002090810190611a1e9190611a22565b5b50565b5b80821115611a3b576000816000905550600101611a23565b5090565b6000819050919050565b611a5281611a3f565b82525050565b6000602082019050611a6d6000830184611a49565b92915050565b6000604051905090565b600080fd5b600080fd5b611a9081611a3f565b8114611a9b57600080fd5b50565b600081359050611aad81611a87565b92915050565b600080fd5b600080fd5b6000601f19601f8301169050919050565b7f4e487b7100000000000000000000000000000000000000000000000000000000600052604160045260246000fd5b611b0682611abd565b810181811067ffffffffffffffff82111715611b2557611b24611ace565b5b80604052505050565b6000611b38611a73565b9050611b448282611afd565b919050565b600067ffffffffffffffff821115611b6457611b63611ace565b5b611b6d82611abd565b9050602081019050919050565b82818337600083830152505050565b6000611b9c611b9784611b49565b611b2e565b905082815260208101848484011115611bb857611bb7611ab8565b5b611bc3848285611b7a565b509392505050565b600082601f830112611be057611bdf611ab3565b5b8135611bf0848260208601611b89565b91505092915050565b60008115159050919050565b611c0e81611bf9565b8114611c1957600080fd5b50565b600081359050611c2b81611c05565b92915050565b600080600060608486031215611c4a57611c49611a7d565b5b6000611c5886828701611a9e565b935050602084013567ffffffffffffffff811115611c7957611c78611a82565b5b611c8586828701611bcb565b9250506040611c9686828701611c1c565b9150509250925092565b600060208284031215611cb657611cb5611a7d565b5b6000611cc484828501611a9e565b91505092915050565b600073ffffffffffffffffffffffffffffffffffffffff82169050919050565b6000819050919050565b6000611d12611d0d611d0884611ccd565b611ced565b611ccd565b9050919050565b6000611d2482611cf7565b9050919050565b6000611d3682611d19565b9050919050565b611d4681611d2b565b82525050565b6000602082019050611d616000830184611d3d565b92915050565b60008060408385031215611d7e57611d7d611a7d565b5b6000611d8c85828601611a9e565b925050602083013567ffffffffffffffff811115611dad57611dac611a82565b5b611db985828601611bcb565b9150509250929050565b60008060008060808587031215611ddd57611ddc611a7d565b5b6000611deb87828801611a9e565b9450506020611dfc87828801611a9e565b935050604085013567ffffffffffffffff811115611e1d57611e1c611a82565b5b611e2987828801611bcb565b925050606085013567ffffffffffffffff811115611e4a57611e49611a82565b5b611e5687828801611bcb565b91505092959194509250565b600080600060608486031215611e7b57611e7a611a7d565b5b6000611e8986828701611a9e565b935050602084013567ffffffffffffffff811115611eaa57611ea9611a82565b5b611eb686828701611bcb565b925050604084013567ffffffffffffffff811115611ed757611ed6611a82565b5b611ee386828701611bcb565b9150509250925092565b600081519050919050565b600082825260208201905092915050565b60005b83811015611f27578082015181840152602081019050611f0c565b60008484015250505050565b6000611f3e82611eed565b611f488185611ef8565b9350611f58818560208601611f09565b611f6181611abd565b840191505092915050565b611f7581611bf9565b82525050565b600060a082019050611f906000830188611a49565b8181036020830152611fa28187611f33565b90508181036040830152611fb68186611f33565b9050611fc56060830185611f6c565b611fd26080830184611f6c565b9695505050505050565b6000611fe782611ccd565b9050919050565b611ff781611fdc565b82525050565b60006020820190506120126000830184611fee565b92915050565b600061202382611d19565b9050919050565b61203381612018565b82525050565b600060208201905061204e600083018461202a565b92915050565b60006080820190506120696000830187611fee565b6120766020830186611a49565b6120836040830185611a49565b81810360608301526120958184611f33565b905095945050505050565b6120a981611fdc565b81146120b457600080fd5b50565b6000813590506120c6816120a0565b92915050565b6000602082840312156120e2576120e1611a7d565b5b60006120f0848285016120b7565b91505092915050565b7f50726f64756374206973206e6f74206163746976650000000000000000000000600082015250565b600061212f601583611ef8565b915061213a826120f9565b602082019050919050565b6000602082019050818103600083015261215e81612122565b9050919050565b7f4e487b7100000000000000000000000000000000000000000000000000000000600052601160045260246000fd5b600061219f82611a3f565b91506121aa83611a3f565b92508282026121b881611a3f565b915082820484148315176121cf576121ce612165565b5b5092915050565b7f4e487b7100000000000000000000000000000000000000000000000000000000600052601260045260246000fd5b600061221082611a3f565b915061221b83611a3f565b92508261222b5761222a6121d6565b5b828204905092915050565b600060608201905061224b6000830186611fee565b6122586020830185611fee565b6122656040830184611a49565b949350505050565b60008151905061227c81611c05565b92915050565b60006020828403121561229857612297611a7d565b5b60006122a68482850161226d565b91505092915050565b7f5061796d656e74206661696c6564000000000000000000000000000000000000600082015250565b60006122e5600e83611ef8565b91506122f0826122af565b602082019050919050565b60006020820190508181036000830152612314816122d8565b9050919050565b600061232682611a3f565b915061233183611a3f565b925082820190508082111561234957612348612165565b5b92915050565b60006060820190506123646000830186611fee565b6123716020830185611a49565b61237e6040830184611a49565b949350505050565b7f4e487b7100000000000000000000000000000000000000000000000000000000600052602260045260246000fd5b600060028204905060018216806123cd57607f821691505b6020821081036123e0576123df612386565b5b50919050565b60008190508160005260206000209050919050565b60006020601f8301049050919050565b600082821b905092915050565b6000600883026124487fffffffffffffffffffffffffffffffffffffffffffffffffffffffffffffffff8261240b565b612452868361240b565b95508019841693508086168417925050509392505050565b600061248561248061247b84611a3f565b611ced565b611a3f565b9050919050565b6000819050919050565b61249f8361246a565b6124b36124ab8261248c565b848454612418565b825550505050565b600090565b6124c86124bb565b6124d3818484612496565b505050565b5b818110156124f7576124ec6000826124c0565b6001810190506124d9565b5050565b601f82111561253c5761250d816123e6565b612516846123fb565b81016020851015612525578190505b612539612531856123fb565b8301826124d8565b50505b505050565b600082821c905092915050565b600061255f60001984600802612541565b1980831691505092915050565b6000612578838361254e565b9150826002028217905092915050565b61259182611eed565b67ffffffffffffffff8111156125aa576125a9611ace565b5b6125b482546123b5565b6125bf8282856124fb565b600060209050601f8311600181146125f257600084156125e0578287015190505b6125ea858261256c565b865550612652565b601f198416612600866123e6565b60005b8281101561262857848901518255600182019150602085019450602081019050612603565b868310156126455784890151612641601f89168261254e565b8355505b6001600288020188555050505b505050505050565b600061266582611a3f565b91507fffffffffffffffffffffffffffffffffffffffffffffffffffffffffffffffff820361269757612696612165565b5b600182019050919050565b60006040820190506126b76000830185611a49565b81810360208301526126c98184611f33565b90509392505050565b6000815190506126e181611a87565b92915050565b6000602082840312156126fd576126fc611a7d565b5b600061270b848285016126d2565b91505092915050565b60006040820190506127296000830185611fee565b6127366020830184611a49565b9392505050565b7f6d656820746f6b656e207472616e73666572206661696c656400000000000000600082015250565b6000612773601983611ef8565b915061277e8261273d565b602082019050919050565b600060208201905081810360008301526127a281612766565b9050919050565b7f50726f647563747320696e207368697070696e672063616e6e6f74206265207260008201527f6566756e64656400000000000000000000000000000000000000000000000000602082015250565b6000612805602783611ef8565b9150612810826127a9565b604082019050919050565b60006020820190508181036000830152612834816127f8565b9050919050565b60008151905061284a816120a0565b92915050565b60006020828403121561286657612865611a7d565b5b60006128748482850161283b565b91505092915050565b7f4e4654206e6f74206465706f7369746564000000000000000000000000000000600082015250565b60006128b3601183611ef8565b91506128be8261287d565b602082019050919050565b600060208201905081810360008301526128e2816128a6565b9050919050565b7f526566756e64206661696c656400000000000000000000000000000000000000600082015250565b600061291f600d83611ef8565b915061292a826128e9565b602082019050919050565b6000602082019050818103600083015261294e81612912565b9050919050565b600061296082611a3f565b915061296b83611a3f565b925082820390508181111561298357612982612165565b5b92915050565b7f416c726561647920736869707065640000000000000000000000000000000000600082015250565b60006129bf600f83611ef8565b91506129ca82612989565b602082019050919050565b600060208201905081810360008301526129ee816129b2565b9050919050565b7f416d6f756e74206d7573742062652067726561746572207468616e207a65726f600082015250565b6000612a2b602083611ef8565b9150612a36826129f5565b602082019050919050565b60006020820190508181036000830152612a5a81612a1e565b9050919050565b7f496e73756666696369656e7420555344432062616c616e636520696e20636f6e60008201527f7472616374000000000000000000000000000000000000000000000000000000602082015250565b6000612abd602583611ef8565b9150612ac882612a61565b604082019050919050565b60006020820190508181036000830152612aec81612ab0565b9050919050565b7f4f776e61626c653a206e6577206f776e657220697320746865207a65726f206160008201527f6464726573730000000000000000000000000000000000000000000000000000602082015250565b6000612b4f602683611ef8565b9150612b5a82612af3565b604082019050919050565b60006020820190508181036000830152612b7e81612b42565b9050919050565b7f5265656e7472616e637947756172643a207265656e7472616e742063616c6c00600082015250565b6000612bbb601f83611ef8565b9150612bc682612b85565b602082019050919050565b60006020820190508181036000830152612bea81612bae565b9050919050565b6000819050919050565b612c0c612c0782611a3f565b612bf1565b82525050565b60008160601b9050919050565b6000612c2a82612c12565b9050919050565b6000612c3c82612c1f565b9050919050565b612c54612c4f82611fdc565b612c31565b82525050565b6000612c668286612bfb565b602082019150612c768285612bfb565b602082019150612c868284612c43565b601482019150819050949350505050565b6000612ca282611a3f565b9150612cad83611a3f565b925082612cbd57612cbc6121d6565b5b828206905092915050565b7f4f776e61626c653a2063616c6c6572206973206e6f7420746865206f776e6572600082015250565b6000612cfe602083611ef8565b9150612d0982612cc8565b602082019050919050565b60006020820190508181036000830152612d2d81612cf1565b905091905056fea26469706673582212209c0cc2dc64db7e8a2de5ba245b067aa4c1e654e76c67af442959460db6a18b5e64736f6c63430008180033",
  "linkReferences": {},
  "deployedLinkReferences": {}
}