{
  "_format": "hh-sol-artifact-1",
  "contractName": "MehStoreV1",
  "sourceName": "contracts/store/MehStoreV1.sol",
  "abi": [
    {
      "inputs": [
        {
          "internalType": "contract IERC20",
          "name": "_usdc",
          "type": "address"
        },
        {
          "internalType": "address",
          "name": "_mehStoreNFTAddress",
          "type": "address"
        },
        {
          "internalType": "contract IERC20",
          "name": "_meh",
          "type": "address"
        }
      ],
      "stateMutability": "nonpayable",
      "type": "constructor"
    },
    {
      "anonymous": false,
      "inputs": [
        {
          "indexed": true,
          "internalType": "address",
          "name": "previousOwner",
          "type": "address"
        },
        {
          "indexed": true,
          "internalType": "address",
          "name": "newOwner",
          "type": "address"
        }
      ],
      "name": "OwnershipTransferred",
      "type": "event"
    },
    {
      "anonymous": false,
      "inputs": [
        {
          "indexed": true,
          "internalType": "address",
          "name": "buyer",
          "type": "address"
        },
        {
          "indexed": true,
          "internalType": "uint256",
          "name": "saleId",
          "type": "uint256"
        },
        {
          "indexed": true,
          "internalType": "uint256",
          "name": "productId",
          "type": "uint256"
        },
        {
          "indexed": false,
          "internalType": "uint256",
          "name": "price",
          "type": "uint256"
        },
        {
          "indexed": false,
          "internalType": "string",
          "name": "size",
          "type": "string"
        }
      ],
      "name": "Purchase",
      "type": "event"
    },
    {
      "anonymous": false,
      "inputs": [
        {
          "indexed": false,
          "internalType": "uint256",
          "name": "amount",
          "type": "uint256"
        }
      ],
      "name": "RandomMeh",
      "type": "event"
    },
    {
      "inputs": [
        {
          "internalType": "uint256",
          "name": "price",
          "type": "uint256"
        },
        {
          "internalType": "string",
          "name": "title",
          "type": "string"
        },
        {
          "internalType": "string",
          "name": "mediaURL",
          "type": "string"
        }
      ],
      "name": "addProduct",
      "outputs": [],
      "stateMutability": "nonpayable",
      "type": "function"
    },
    {
      "inputs": [
        {
          "internalType": "uint256",
          "name": "productId",
          "type": "uint256"
        },
        {
          "internalType": "string",
          "name": "newSize",
          "type": "string"
        }
      ],
      "name": "addProductSize",
      "outputs": [],
      "stateMutability": "nonpayable",
      "type": "function"
    },
    {
      "inputs": [
        {
          "internalType": "uint256",
          "name": "productId",
          "type": "uint256"
        }
      ],
      "name": "deactivateProduct",
      "outputs": [],
      "stateMutability": "nonpayable",
      "type": "function"
    },
    {
      "inputs": [
        {
          "internalType": "uint256",
          "name": "",
          "type": "uint256"
        }
      ],
      "name": "escrow",
      "outputs": [
        {
          "internalType": "uint256",
          "name": "",
          "type": "uint256"
        }
      ],
      "stateMutability": "view",
      "type": "function"
    },
    {
      "inputs": [
        {
          "internalType": "uint256",
          "name": "amount",
          "type": "uint256"
        }
      ],
      "name": "extractMehTokens",
      "outputs": [],
      "stateMutability": "nonpayable",
      "type": "function"
    },
    {
      "inputs": [],
      "name": "meh",
      "outputs": [
        {
          "internalType": "contract IERC20",
          "name": "",
          "type": "address"
        }
      ],
      "stateMutability": "view",
      "type": "function"
    },
    {
      "inputs": [],
      "name": "mehStoreNFT",
      "outputs": [
        {
          "internalType": "contract MehStoreNFT",
          "name": "",
          "type": "address"
        }
      ],
      "stateMutability": "view",
      "type": "function"
    },
    {
      "inputs": [],
      "name": "nextProductId",
      "outputs": [
        {
          "internalType": "uint256",
          "name": "",
          "type": "uint256"
        }
      ],
      "stateMutability": "view",
      "type": "function"
    },
    {
      "inputs": [],
      "name": "nextSaleId",
      "outputs": [
        {
          "internalType": "uint256",
          "name": "",
          "type": "uint256"
        }
      ],
      "stateMutability": "view",
      "type": "function"
    },
    {
      "inputs": [],
      "name": "owner",
      "outputs": [
        {
          "internalType": "address",
          "name": "",
          "type": "address"
        }
      ],
      "stateMutability": "view",
      "type": "function"
    },
    {
      "inputs": [
        {
          "internalType": "uint256",
          "name": "",
          "type": "uint256"
        }
      ],
      "name": "products",
      "outputs": [
        {
          "internalType": "uint256",
          "name": "price",
          "type": "uint256"
        },
        {
          "internalType": "string",
          "name": "title",
          "type": "string"
        },
        {
          "internalType": "string",
          "name": "mediaURL",
          "type": "string"
        },
        {
          "internalType": "bool",
          "name": "isShipped",
          "type": "bool"
        },
        {
          "internalType": "bool",
          "name": "isActive",
          "type": "bool"
        }
      ],
      "stateMutability": "view",
      "type": "function"
    },
    {
      "inputs": [
        {
          "internalType": "uint256",
          "name": "productId",
          "type": "uint256"
        },
        {
          "internalType": "string",
          "name": "size",
          "type": "string"
        },
        {
          "internalType": "bool",
          "name": "applyDiscount",
          "type": "bool"
        }
      ],
      "name": "purchaseProduct",
      "outputs": [],
      "stateMutability": "nonpayable",
      "type": "function"
    },
    {
      "inputs": [],
      "name": "randomFactor",
      "outputs": [
        {
          "internalType": "uint256",
          "name": "",
          "type": "uint256"
        }
      ],
      "stateMutability": "view",
      "type": "function"
    },
    {
      "inputs": [
        {
          "internalType": "uint256",
          "name": "productId",
          "type": "uint256"
        }
      ],
      "name": "refund",
      "outputs": [],
      "stateMutability": "nonpayable",
      "type": "function"
    },
    {
      "inputs": [],
      "name": "renounceOwnership",
      "outputs": [],
      "stateMutability": "nonpayable",
      "type": "function"
    },
    {
      "inputs": [
        {
          "internalType": "uint256",
          "name": "",
          "type": "uint256"
        }
      ],
      "name": "sales",
      "outputs": [
        {
          "internalType": "address",
          "name": "buyer",
          "type": "address"
        },
        {
          "internalType": "uint256",
          "name": "productId",
          "type": "uint256"
        },
        {
          "internalType": "uint256",
          "name": "price",
          "type": "uint256"
        },
        {
          "internalType": "string",
          "name": "size",
          "type": "string"
        }
      ],
      "stateMutability": "view",
      "type": "function"
    },
    {
      "inputs": [
        {
          "internalType": "uint256",
          "name": "_randomFactor",
          "type": "uint256"
        }
      ],
      "name": "setRandomFactor",
      "outputs": [],
      "stateMutability": "nonpayable",
      "type": "function"
    },
    {
      "inputs": [
        {
          "internalType": "uint256",
          "name": "productId",
          "type": "uint256"
        }
      ],
      "name": "shipProduct",
      "outputs": [],
      "stateMutability": "nonpayable",
      "type": "function"
    },
    {
      "inputs": [
        {
          "internalType": "address",
          "name": "newOwner",
          "type": "address"
        }
      ],
      "name": "transferOwnership",
      "outputs": [],
      "stateMutability": "nonpayable",
      "type": "function"
    },
    {
      "inputs": [
        {
          "internalType": "uint256",
          "name": "productId",
          "type": "uint256"
        },
        {
          "internalType": "uint256",
          "name": "newPrice",
          "type": "uint256"
        },
        {
          "internalType": "string",
          "name": "newTitle",
          "type": "string"
        },
        {
          "internalType": "string",
          "name": "newMediaURL",
          "type": "string"
        }
      ],
      "name": "updateProduct",
      "outputs": [],
      "stateMutability": "nonpayable",
      "type": "function"
    },
    {
      "inputs": [],
      "name": "usdc",
      "outputs": [
        {
          "internalType": "contract IERC20",
          "name": "",
          "type": "address"
        }
      ],
      "stateMutability": "view",
      "type": "function"
    },
    {
      "inputs": [
        {
          "internalType": "uint256",
          "name": "amount",
          "type": "uint256"
        }
      ],
      "name": "withdrawUSDC",
      "outputs": [],
      "stateMutability": "nonpayable",
      "type": "function"
    }
  ],
  "bytecode": "0x60806040526001600a553480156200001657600080fd5b50604051620030d2380380620030d283398181016040528101906200003c9190620002aa565b6200005c620000506200012f60201b60201c565b6200013760201b60201c565b6001808190555082600260006101000a81548173ffffffffffffffffffffffffffffffffffffffff021916908373ffffffffffffffffffffffffffffffffffffffff16021790555081600460006101000a81548173ffffffffffffffffffffffffffffffffffffffff021916908373ffffffffffffffffffffffffffffffffffffffff16021790555080600360006101000a81548173ffffffffffffffffffffffffffffffffffffffff021916908373ffffffffffffffffffffffffffffffffffffffff16021790555050505062000306565b600033905090565b60008060009054906101000a900473ffffffffffffffffffffffffffffffffffffffff169050816000806101000a81548173ffffffffffffffffffffffffffffffffffffffff021916908373ffffffffffffffffffffffffffffffffffffffff1602179055508173ffffffffffffffffffffffffffffffffffffffff168173ffffffffffffffffffffffffffffffffffffffff167f8be0079c531659141344cd1fd0a4f28419497f9722a3daafe3b4186f6b6457e060405160405180910390a35050565b600080fd5b600073ffffffffffffffffffffffffffffffffffffffff82169050919050565b60006200022d8262000200565b9050919050565b6000620002418262000220565b9050919050565b620002538162000234565b81146200025f57600080fd5b50565b600081519050620002738162000248565b92915050565b620002848162000220565b81146200029057600080fd5b50565b600081519050620002a48162000279565b92915050565b600080600060608486031215620002c657620002c5620001fb565b5b6000620002d68682870162000262565b9350506020620002e98682870162000293565b9250506040620002fc8682870162000262565b9150509250925092565b612dbc80620003166000396000f3fe608060405234801561001057600080fd5b50600436106101425760003560e01c80637acc0b20116100b8578063d68ff1911161007c578063d68ff1911461032e578063d8ec55ed1461035e578063db81f99b1461037c578063deb077b914610398578063f2fde38b146103b6578063fd77e5de146103d257610142565b80637acc0b201461026f5780638da5cb5b146102a3578063a81aae6d146102c1578063b5f522f7146102df578063baf342e21461031257610142565b80633e413bee1161010a5780633e413bee146101d55780634aeda87e146101f35780634de91a631461020f578063587380f51461022d57806358d9a04014610249578063715018a61461026557610142565b8063031528e914610147578063037bbfa614610165578063084a856214610181578063278ecde11461019d5780632927d1d9146101b9575b600080fd5b61014f6103ee565b60405161015c9190611aaa565b60405180910390f35b61017f600480360381019061017a9190611c83565b6103f4565b005b61019b60048036038101906101969190611cf2565b610930565b005b6101b760048036038101906101b29190611cf2565b610a1a565b005b6101d360048036038101906101ce9190611cf2565b610e78565b005b6101dd610fe4565b6040516101ea9190611d9e565b60405180910390f35b61020d60048036038101906102089190611db9565b61100a565b005b610217611065565b6040516102249190611aaa565b60405180910390f35b61024760048036038101906102429190611e15565b61106b565b005b610263600480360381019061025e9190611eb4565b6110be565b005b61026d61120f565b005b61028960048036038101906102849190611cf2565b611223565b60405161029a959493929190611fcd565b60405180910390f35b6102ab611383565b6040516102b8919061204f565b60405180910390f35b6102c96113ac565b6040516102d6919061208b565b60405180910390f35b6102f960048036038101906102f49190611cf2565b6113d2565b60405161030994939291906120a6565b60405180910390f35b61032c60048036038101906103279190611cf2565b6114aa565b005b61034860048036038101906103439190611cf2565b6114bc565b6040516103559190611aaa565b60405180910390f35b6103666114d4565b6040516103739190611d9e565b60405180910390f35b61039660048036038101906103919190611cf2565b6114fa565b005b6103a06116d4565b6040516103ad9190611aaa565b60405180910390f35b6103d060048036038101906103cb919061211e565b6116da565b005b6103ec60048036038101906103e79190611cf2565b61175d565b005b600a5481565b6103fc611797565b60006005600085815260200190815260200160002090508060030160019054906101000a900460ff16610464576040517f08c379a000000000000000000000000000000000000000000000000000000000815260040161045b90612197565b60405180910390fd5b600081600001549050821561048f576064604b8261048291906121e6565b61048c9190612257565b90505b600260009054906101000a900473ffffffffffffffffffffffffffffffffffffffff1673ffffffffffffffffffffffffffffffffffffffff166323b872dd3330846040518463ffffffff1660e01b81526004016104ee93929190612288565b6020604051808303816000875af115801561050d573d6000803e3d6000fd5b505050506040513d601f19601f8201168201806040525081019061053191906122d4565b610570576040517f08c379a00000000000000000000000000000000000000000000000000000000081526004016105679061234d565b60405180910390fd5b80600660008781526020019081526020016000206000828254610593919061236d565b92505081905550600460009054906101000a900473ffffffffffffffffffffffffffffffffffffffff1673ffffffffffffffffffffffffffffffffffffffff1663156e29f63387846040518463ffffffff1660e01b81526004016105f9939291906123a1565b600060405180830381600087803b15801561061357600080fd5b505af1158015610627573d6000803e3d6000fd5b505050506000600954905060405180608001604052803373ffffffffffffffffffffffffffffffffffffffff168152602001878152602001838152602001868152506007600083815260200190815260200160002060008201518160000160006101000a81548173ffffffffffffffffffffffffffffffffffffffff021916908373ffffffffffffffffffffffffffffffffffffffff160217905550602082015181600101556040820151816002015560608201518160030190816106ec91906125da565b5090505060096000815480929190610703906126ac565b919050555085813373ffffffffffffffffffffffffffffffffffffffff167f84752513c16e395e5da1c8c3a6aa33d59904ec0aa642c74ecca12bc39cac895585896040516107529291906126f4565b60405180910390a460006107646117e6565b905080600360009054906101000a900473ffffffffffffffffffffffffffffffffffffffff1673ffffffffffffffffffffffffffffffffffffffff166370a08231306040518263ffffffff1660e01b81526004016107c2919061204f565b602060405180830381865afa1580156107df573d6000803e3d6000fd5b505050506040513d601f19601f820116820180604052508101906108039190612739565b1061091f57600360009054906101000a900473ffffffffffffffffffffffffffffffffffffffff1673ffffffffffffffffffffffffffffffffffffffff1663a9059cbb33836040518363ffffffff1660e01b8152600401610865929190612766565b6020604051808303816000875af1158015610884573d6000803e3d6000fd5b505050506040513d601f19601f820116820180604052508101906108a891906122d4565b6108e7576040517f08c379a00000000000000000000000000000000000000000000000000000000081526004016108de906127db565b60405180910390fd5b7f10e3896cff14c0d12b7cb560023bfc86387a545f393ce518ffae112366eb34c0816040516109169190611aaa565b60405180910390a15b5050505061092b611864565b505050565b61093861186d565b600360009054906101000a900473ffffffffffffffffffffffffffffffffffffffff1673ffffffffffffffffffffffffffffffffffffffff1663a9059cbb33836040518363ffffffff1660e01b8152600401610995929190612766565b6020604051808303816000875af11580156109b4573d6000803e3d6000fd5b505050506040513d601f19601f820116820180604052508101906109d891906122d4565b610a17576040517f08c379a0000000000000000000000000000000000000000000000000000000008152600401610a0e906127db565b60405180910390fd5b50565b610a22611797565b60006005600083815260200190815260200160002090508060030160009054906101000a900460ff1615610a8b576040517f08c379a0000000000000000000000000000000000000000000000000000000008152600401610a829061286d565b60405180910390fd5b6000600460009054906101000a900473ffffffffffffffffffffffffffffffffffffffff1673ffffffffffffffffffffffffffffffffffffffff16630812a3cb846040518263ffffffff1660e01b8152600401610ae89190611aaa565b602060405180830381865afa158015610b05573d6000803e3d6000fd5b505050506040513d601f19601f82011682018060405250810190610b299190612739565b90503373ffffffffffffffffffffffffffffffffffffffff16600460009054906101000a900473ffffffffffffffffffffffffffffffffffffffff1673ffffffffffffffffffffffffffffffffffffffff16636352211e836040518263ffffffff1660e01b8152600401610b9d9190611aaa565b602060405180830381865afa158015610bba573d6000803e3d6000fd5b505050506040513d601f19601f82011682018060405250810190610bde91906128a2565b73ffffffffffffffffffffffffffffffffffffffff1614610c34576040517f08c379a0000000000000000000000000000000000000000000000000000000008152600401610c2b9061291b565b60405180910390fd5b6000600460009054906101000a900473ffffffffffffffffffffffffffffffffffffffff1673ffffffffffffffffffffffffffffffffffffffff1663e7572230836040518263ffffffff1660e01b8152600401610c919190611aaa565b602060405180830381865afa158015610cae573d6000803e3d6000fd5b505050506040513d601f19601f82011682018060405250810190610cd29190612739565b9050600260009054906101000a900473ffffffffffffffffffffffffffffffffffffffff1673ffffffffffffffffffffffffffffffffffffffff1663a9059cbb33836040518363ffffffff1660e01b8152600401610d31929190612766565b6020604051808303816000875af1158015610d50573d6000803e3d6000fd5b505050506040513d601f19601f82011682018060405250810190610d7491906122d4565b610db3576040517f08c379a0000000000000000000000000000000000000000000000000000000008152600401610daa90612987565b60405180910390fd5b80600660008681526020019081526020016000206000828254610dd691906129a7565b92505081905550600460009054906101000a900473ffffffffffffffffffffffffffffffffffffffff1673ffffffffffffffffffffffffffffffffffffffff166342966c68836040518263ffffffff1660e01b8152600401610e389190611aaa565b600060405180830381600087803b158015610e5257600080fd5b505af1158015610e66573d6000803e3d6000fd5b50505050505050610e75611864565b50565b610e8061186d565b60006005600083815260200190815260200160002090508060030160009054906101000a900460ff1615610ee9576040517f08c379a0000000000000000000000000000000000000000000000000000000008152600401610ee090612a27565b60405180910390fd5b60018160030160006101000a81548160ff02191690831515021790555060006006600084815260200190815260200160002054905060006006600085815260200190815260200160002081905550600260009054906101000a900473ffffffffffffffffffffffffffffffffffffffff1673ffffffffffffffffffffffffffffffffffffffff1663a9059cbb610f7d611383565b836040518363ffffffff1660e01b8152600401610f9b929190612766565b6020604051808303816000875af1158015610fba573d6000803e3d6000fd5b505050506040513d601f19601f82011682018060405250810190610fde91906122d4565b50505050565b600260009054906101000a900473ffffffffffffffffffffffffffffffffffffffff1681565b61101261186d565b6000600560008481526020019081526020016000209050806004018290806001815401808255809150506001900390600052602060002001600090919091909150908161105f91906125da565b50505050565b60085481565b61107361186d565b6000600560008681526020019081526020016000209050838160000181905550828160010190816110a491906125da565b50818160020190816110b691906125da565b505050505050565b6110c661186d565b6040518060c00160405280848152602001838152602001828152602001600015158152602001600115158152602001600067ffffffffffffffff8111156111105761110f611b20565b5b60405190808252806020026020018201604052801561114357816020015b606081526020019060019003908161112e5790505b5081525060056000600854815260200190815260200160002060008201518160000155602082015181600101908161117b91906125da565b50604082015181600201908161119191906125da565b5060608201518160030160006101000a81548160ff02191690831515021790555060808201518160030160016101000a81548160ff02191690831515021790555060a08201518160040190805190602001906111ee9291906119b7565b5090505060086000815480929190611205906126ac565b9190505550505050565b61121761186d565b61122160006118eb565b565b600560205280600052604060002060009150905080600001549080600101805461124c90612407565b80601f016020809104026020016040519081016040528092919081815260200182805461127890612407565b80156112c55780601f1061129a576101008083540402835291602001916112c5565b820191906000526020600020905b8154815290600101906020018083116112a857829003601f168201915b5050505050908060020180546112da90612407565b80601f016020809104026020016040519081016040528092919081815260200182805461130690612407565b80156113535780601f1061132857610100808354040283529160200191611353565b820191906000526020600020905b81548152906001019060200180831161133657829003601f168201915b5050505050908060030160009054906101000a900460ff16908060030160019054906101000a900460ff16905085565b60008060009054906101000a900473ffffffffffffffffffffffffffffffffffffffff16905090565b600460009054906101000a900473ffffffffffffffffffffffffffffffffffffffff1681565b60076020528060005260406000206000915090508060000160009054906101000a900473ffffffffffffffffffffffffffffffffffffffff169080600101549080600201549080600301805461142790612407565b80601f016020809104026020016040519081016040528092919081815260200182805461145390612407565b80156114a05780601f10611475576101008083540402835291602001916114a0565b820191906000526020600020905b81548152906001019060200180831161148357829003601f168201915b5050505050905084565b6114b261186d565b80600a8190555050565b60066020528060005260406000206000915090505481565b600360009054906101000a900473ffffffffffffffffffffffffffffffffffffffff1681565b61150261186d565b60008111611545576040517f08c379a000000000000000000000000000000000000000000000000000000000815260040161153c90612a93565b60405180910390fd5b6000600260009054906101000a900473ffffffffffffffffffffffffffffffffffffffff1673ffffffffffffffffffffffffffffffffffffffff166370a08231306040518263ffffffff1660e01b81526004016115a2919061204f565b602060405180830381865afa1580156115bf573d6000803e3d6000fd5b505050506040513d601f19601f820116820180604052508101906115e39190612739565b905081811015611628576040517f08c379a000000000000000000000000000000000000000000000000000000000815260040161161f90612b25565b60405180910390fd5b600260009054906101000a900473ffffffffffffffffffffffffffffffffffffffff1673ffffffffffffffffffffffffffffffffffffffff1663a9059cbb61166e611383565b846040518363ffffffff1660e01b815260040161168c929190612766565b6020604051808303816000875af11580156116ab573d6000803e3d6000fd5b505050506040513d601f19601f820116820180604052508101906116cf91906122d4565b505050565b60095481565b6116e261186d565b600073ffffffffffffffffffffffffffffffffffffffff168173ffffffffffffffffffffffffffffffffffffffff1603611751576040517f08c379a000000000000000000000000000000000000000000000000000000000815260040161174890612bb7565b60405180910390fd5b61175a816118eb565b50565b61176561186d565b60006005600083815260200190815260200160002060030160016101000a81548160ff02191690831515021790555050565b6002600154036117dc576040517f08c379a00000000000000000000000000000000000000000000000000000000081526004016117d390612c23565b60405180910390fd5b6002600181905550565b60008069152d02c7e14af68000006aa55a78b6c8385ad180000042443360405160200161181593929190612cac565b6040516020818303038152906040528051906020012060001c6118389190612ce9565b611842919061236d565b90506064600a546118539190612257565b8161185e91906121e6565b91505090565b60018081905550565b6118756119af565b73ffffffffffffffffffffffffffffffffffffffff16611893611383565b73ffffffffffffffffffffffffffffffffffffffff16146118e9576040517f08c379a00000000000000000000000000000000000000000000000000000000081526004016118e090612d66565b60405180910390fd5b565b60008060009054906101000a900473ffffffffffffffffffffffffffffffffffffffff169050816000806101000a81548173ffffffffffffffffffffffffffffffffffffffff021916908373ffffffffffffffffffffffffffffffffffffffff1602179055508173ffffffffffffffffffffffffffffffffffffffff168173ffffffffffffffffffffffffffffffffffffffff167f8be0079c531659141344cd1fd0a4f28419497f9722a3daafe3b4186f6b6457e060405160405180910390a35050565b600033905090565b8280548282559060005260206000209081019282156119ff579160200282015b828111156119fe5782518290816119ee91906125da565b50916020019190600101906119d7565b5b509050611a0c9190611a10565b5090565b5b80821115611a305760008181611a279190611a34565b50600101611a11565b5090565b508054611a4090612407565b6000825580601f10611a525750611a71565b601f016020900490600052602060002090810190611a709190611a74565b5b50565b5b80821115611a8d576000816000905550600101611a75565b5090565b6000819050919050565b611aa481611a91565b82525050565b6000602082019050611abf6000830184611a9b565b92915050565b6000604051905090565b600080fd5b600080fd5b611ae281611a91565b8114611aed57600080fd5b50565b600081359050611aff81611ad9565b92915050565b600080fd5b600080fd5b6000601f19601f8301169050919050565b7f4e487b7100000000000000000000000000000000000000000000000000000000600052604160045260246000fd5b611b5882611b0f565b810181811067ffffffffffffffff82111715611b7757611b76611b20565b5b80604052505050565b6000611b8a611ac5565b9050611b968282611b4f565b919050565b600067ffffffffffffffff821115611bb657611bb5611b20565b5b611bbf82611b0f565b9050602081019050919050565b82818337600083830152505050565b6000611bee611be984611b9b565b611b80565b905082815260208101848484011115611c0a57611c09611b0a565b5b611c15848285611bcc565b509392505050565b600082601f830112611c3257611c31611b05565b5b8135611c42848260208601611bdb565b91505092915050565b60008115159050919050565b611c6081611c4b565b8114611c6b57600080fd5b50565b600081359050611c7d81611c57565b92915050565b600080600060608486031215611c9c57611c9b611acf565b5b6000611caa86828701611af0565b935050602084013567ffffffffffffffff811115611ccb57611cca611ad4565b5b611cd786828701611c1d565b9250506040611ce886828701611c6e565b9150509250925092565b600060208284031215611d0857611d07611acf565b5b6000611d1684828501611af0565b91505092915050565b600073ffffffffffffffffffffffffffffffffffffffff82169050919050565b6000819050919050565b6000611d64611d5f611d5a84611d1f565b611d3f565b611d1f565b9050919050565b6000611d7682611d49565b9050919050565b6000611d8882611d6b565b9050919050565b611d9881611d7d565b82525050565b6000602082019050611db36000830184611d8f565b92915050565b60008060408385031215611dd057611dcf611acf565b5b6000611dde85828601611af0565b925050602083013567ffffffffffffffff811115611dff57611dfe611ad4565b5b611e0b85828601611c1d565b9150509250929050565b60008060008060808587031215611e2f57611e2e611acf565b5b6000611e3d87828801611af0565b9450506020611e4e87828801611af0565b935050604085013567ffffffffffffffff811115611e6f57611e6e611ad4565b5b611e7b87828801611c1d565b925050606085013567ffffffffffffffff811115611e9c57611e9b611ad4565b5b611ea887828801611c1d565b91505092959194509250565b600080600060608486031215611ecd57611ecc611acf565b5b6000611edb86828701611af0565b935050602084013567ffffffffffffffff811115611efc57611efb611ad4565b5b611f0886828701611c1d565b925050604084013567ffffffffffffffff811115611f2957611f28611ad4565b5b611f3586828701611c1d565b9150509250925092565b600081519050919050565b600082825260208201905092915050565b60005b83811015611f79578082015181840152602081019050611f5e565b60008484015250505050565b6000611f9082611f3f565b611f9a8185611f4a565b9350611faa818560208601611f5b565b611fb381611b0f565b840191505092915050565b611fc781611c4b565b82525050565b600060a082019050611fe26000830188611a9b565b8181036020830152611ff48187611f85565b905081810360408301526120088186611f85565b90506120176060830185611fbe565b6120246080830184611fbe565b9695505050505050565b600061203982611d1f565b9050919050565b6120498161202e565b82525050565b60006020820190506120646000830184612040565b92915050565b600061207582611d6b565b9050919050565b6120858161206a565b82525050565b60006020820190506120a0600083018461207c565b92915050565b60006080820190506120bb6000830187612040565b6120c86020830186611a9b565b6120d56040830185611a9b565b81810360608301526120e78184611f85565b905095945050505050565b6120fb8161202e565b811461210657600080fd5b50565b600081359050612118816120f2565b92915050565b60006020828403121561213457612133611acf565b5b600061214284828501612109565b91505092915050565b7f50726f64756374206973206e6f74206163746976650000000000000000000000600082015250565b6000612181601583611f4a565b915061218c8261214b565b602082019050919050565b600060208201905081810360008301526121b081612174565b9050919050565b7f4e487b7100000000000000000000000000000000000000000000000000000000600052601160045260246000fd5b60006121f182611a91565b91506121fc83611a91565b925082820261220a81611a91565b91508282048414831517612221576122206121b7565b5b5092915050565b7f4e487b7100000000000000000000000000000000000000000000000000000000600052601260045260246000fd5b600061226282611a91565b915061226d83611a91565b92508261227d5761227c612228565b5b828204905092915050565b600060608201905061229d6000830186612040565b6122aa6020830185612040565b6122b76040830184611a9b565b949350505050565b6000815190506122ce81611c57565b92915050565b6000602082840312156122ea576122e9611acf565b5b60006122f8848285016122bf565b91505092915050565b7f5061796d656e74206661696c6564000000000000000000000000000000000000600082015250565b6000612337600e83611f4a565b915061234282612301565b602082019050919050565b600060208201905081810360008301526123668161232a565b9050919050565b600061237882611a91565b915061238383611a91565b925082820190508082111561239b5761239a6121b7565b5b92915050565b60006060820190506123b66000830186612040565b6123c36020830185611a9b565b6123d06040830184611a9b565b949350505050565b7f4e487b7100000000000000000000000000000000000000000000000000000000600052602260045260246000fd5b6000600282049050600182168061241f57607f821691505b602082108103612432576124316123d8565b5b50919050565b60008190508160005260206000209050919050565b60006020601f8301049050919050565b600082821b905092915050565b60006008830261249a7fffffffffffffffffffffffffffffffffffffffffffffffffffffffffffffffff8261245d565b6124a4868361245d565b95508019841693508086168417925050509392505050565b60006124d76124d26124cd84611a91565b611d3f565b611a91565b9050919050565b6000819050919050565b6124f1836124bc565b6125056124fd826124de565b84845461246a565b825550505050565b600090565b61251a61250d565b6125258184846124e8565b505050565b5b818110156125495761253e600082612512565b60018101905061252b565b5050565b601f82111561258e5761255f81612438565b6125688461244d565b81016020851015612577578190505b61258b6125838561244d565b83018261252a565b50505b505050565b600082821c905092915050565b60006125b160001984600802612593565b1980831691505092915050565b60006125ca83836125a0565b9150826002028217905092915050565b6125e382611f3f565b67ffffffffffffffff8111156125fc576125fb611b20565b5b6126068254612407565b61261182828561254d565b600060209050601f8311600181146126445760008415612632578287015190505b61263c85826125be565b8655506126a4565b601f19841661265286612438565b60005b8281101561267a57848901518255600182019150602085019450602081019050612655565b868310156126975784890151612693601f8916826125a0565b8355505b6001600288020188555050505b505050505050565b60006126b782611a91565b91507fffffffffffffffffffffffffffffffffffffffffffffffffffffffffffffffff82036126e9576126e86121b7565b5b600182019050919050565b60006040820190506127096000830185611a9b565b818103602083015261271b8184611f85565b90509392505050565b60008151905061273381611ad9565b92915050565b60006020828403121561274f5761274e611acf565b5b600061275d84828501612724565b91505092915050565b600060408201905061277b6000830185612040565b6127886020830184611a9b565b9392505050565b7f6d656820746f6b656e207472616e73666572206661696c656400000000000000600082015250565b60006127c5601983611f4a565b91506127d08261278f565b602082019050919050565b600060208201905081810360008301526127f4816127b8565b9050919050565b7f50726f647563747320696e207368697070696e672063616e6e6f74206265207260008201527f6566756e64656400000000000000000000000000000000000000000000000000602082015250565b6000612857602783611f4a565b9150612862826127fb565b604082019050919050565b600060208201905081810360008301526128868161284a565b9050919050565b60008151905061289c816120f2565b92915050565b6000602082840312156128b8576128b7611acf565b5b60006128c68482850161288d565b91505092915050565b7f4e4654206e6f74206465706f7369746564000000000000000000000000000000600082015250565b6000612905601183611f4a565b9150612910826128cf565b602082019050919050565b60006020820190508181036000830152612934816128f8565b9050919050565b7f526566756e64206661696c656400000000000000000000000000000000000000600082015250565b6000612971600d83611f4a565b915061297c8261293b565b602082019050919050565b600060208201905081810360008301526129a081612964565b9050919050565b60006129b282611a91565b91506129bd83611a91565b92508282039050818111156129d5576129d46121b7565b5b92915050565b7f416c726561647920736869707065640000000000000000000000000000000000600082015250565b6000612a11600f83611f4a565b9150612a1c826129db565b602082019050919050565b60006020820190508181036000830152612a4081612a04565b9050919050565b7f416d6f756e74206d7573742062652067726561746572207468616e207a65726f600082015250565b6000612a7d602083611f4a565b9150612a8882612a47565b602082019050919050565b60006020820190508181036000830152612aac81612a70565b9050919050565b7f496e73756666696369656e7420555344432062616c616e636520696e20636f6e60008201527f7472616374000000000000000000000000000000000000000000000000000000602082015250565b6000612b0f602583611f4a565b9150612b1a82612ab3565b604082019050919050565b60006020820190508181036000830152612b3e81612b02565b9050919050565b7f4f776e61626c653a206e6577206f776e657220697320746865207a65726f206160008201527f6464726573730000000000000000000000000000000000000000000000000000602082015250565b6000612ba1602683611f4a565b9150612bac82612b45565b604082019050919050565b60006020820190508181036000830152612bd081612b94565b9050919050565b7f5265656e7472616e637947756172643a207265656e7472616e742063616c6c00600082015250565b6000612c0d601f83611f4a565b9150612c1882612bd7565b602082019050919050565b60006020820190508181036000830152612c3c81612c00565b9050919050565b6000819050919050565b612c5e612c5982611a91565b612c43565b82525050565b60008160601b9050919050565b6000612c7c82612c64565b9050919050565b6000612c8e82612c71565b9050919050565b612ca6612ca18261202e565b612c83565b82525050565b6000612cb88286612c4d565b602082019150612cc88285612c4d565b602082019150612cd88284612c95565b601482019150819050949350505050565b6000612cf482611a91565b9150612cff83611a91565b925082612d0f57612d0e612228565b5b828206905092915050565b7f4f776e61626c653a2063616c6c6572206973206e6f7420746865206f776e6572600082015250565b6000612d50602083611f4a565b9150612d5b82612d1a565b602082019050919050565b60006020820190508181036000830152612d7f81612d43565b905091905056fea264697066735822122060e22d291700c151124e83fa50670ff3a4d8ff64eb6d00c1fb271b34182be59364736f6c63430008180033",
  "linkReferences": {},
  "deployedLinkReferences": {}
}