{
  "_format": "hh-sol-artifact-1",
  "contractName": "MehStoreV1",
  "sourceName": "contracts/store/MehStoreV1.sol",
  "abi": [
    {
      "inputs": [
        {
          "internalType": "contract IERC20",
          "name": "_usdc",
          "type": "address"
        },
        {
          "internalType": "address",
          "name": "_mehStoreNFTAddress",
          "type": "address"
        }
      ],
      "stateMutability": "nonpayable",
      "type": "constructor"
    },
    {
      "anonymous": false,
      "inputs": [
        {
          "indexed": true,
          "internalType": "address",
          "name": "previousOwner",
          "type": "address"
        },
        {
          "indexed": true,
          "internalType": "address",
          "name": "newOwner",
          "type": "address"
        }
      ],
      "name": "OwnershipTransferred",
      "type": "event"
    },
    {
      "inputs": [
        {
          "internalType": "uint256",
          "name": "price",
          "type": "uint256"
        },
        {
          "internalType": "string",
          "name": "title",
          "type": "string"
        },
        {
          "internalType": "string",
          "name": "description",
          "type": "string"
        },
        {
          "internalType": "string",
          "name": "mediaURL",
          "type": "string"
        },
        {
          "internalType": "enum MehStoreV1.Category",
          "name": "category",
          "type": "uint8"
        }
      ],
      "name": "addProduct",
      "outputs": [],
      "stateMutability": "nonpayable",
      "type": "function"
    },
    {
      "inputs": [
        {
          "internalType": "uint256",
          "name": "",
          "type": "uint256"
        }
      ],
      "name": "escrow",
      "outputs": [
        {
          "internalType": "uint256",
          "name": "",
          "type": "uint256"
        }
      ],
      "stateMutability": "view",
      "type": "function"
    },
    {
      "inputs": [],
      "name": "mehStoreNFT",
      "outputs": [
        {
          "internalType": "contract MehStoreNFT",
          "name": "",
          "type": "address"
        }
      ],
      "stateMutability": "view",
      "type": "function"
    },
    {
      "inputs": [],
      "name": "nextProductId",
      "outputs": [
        {
          "internalType": "uint256",
          "name": "",
          "type": "uint256"
        }
      ],
      "stateMutability": "view",
      "type": "function"
    },
    {
      "inputs": [],
      "name": "owner",
      "outputs": [
        {
          "internalType": "address",
          "name": "",
          "type": "address"
        }
      ],
      "stateMutability": "view",
      "type": "function"
    },
    {
      "inputs": [
        {
          "internalType": "uint256",
          "name": "",
          "type": "uint256"
        }
      ],
      "name": "products",
      "outputs": [
        {
          "internalType": "uint256",
          "name": "price",
          "type": "uint256"
        },
        {
          "internalType": "string",
          "name": "title",
          "type": "string"
        },
        {
          "internalType": "string",
          "name": "description",
          "type": "string"
        },
        {
          "internalType": "string",
          "name": "mediaURL",
          "type": "string"
        },
        {
          "internalType": "enum MehStoreV1.Category",
          "name": "category",
          "type": "uint8"
        },
        {
          "internalType": "bool",
          "name": "isShipped",
          "type": "bool"
        }
      ],
      "stateMutability": "view",
      "type": "function"
    },
    {
      "inputs": [
        {
          "internalType": "uint256",
          "name": "productId",
          "type": "uint256"
        }
      ],
      "name": "purchaseProduct",
      "outputs": [],
      "stateMutability": "nonpayable",
      "type": "function"
    },
    {
      "inputs": [
        {
          "internalType": "uint256",
          "name": "productId",
          "type": "uint256"
        }
      ],
      "name": "refund",
      "outputs": [],
      "stateMutability": "nonpayable",
      "type": "function"
    },
    {
      "inputs": [],
      "name": "renounceOwnership",
      "outputs": [],
      "stateMutability": "nonpayable",
      "type": "function"
    },
    {
      "inputs": [
        {
          "internalType": "uint256",
          "name": "productId",
          "type": "uint256"
        }
      ],
      "name": "shipProduct",
      "outputs": [],
      "stateMutability": "nonpayable",
      "type": "function"
    },
    {
      "inputs": [
        {
          "internalType": "address",
          "name": "newOwner",
          "type": "address"
        }
      ],
      "name": "transferOwnership",
      "outputs": [],
      "stateMutability": "nonpayable",
      "type": "function"
    },
    {
      "inputs": [],
      "name": "usdc",
      "outputs": [
        {
          "internalType": "contract IERC20",
          "name": "",
          "type": "address"
        }
      ],
      "stateMutability": "view",
      "type": "function"
    }
  ],
  "bytecode": "0x60806040523480156200001157600080fd5b5060405162001e9f38038062001e9f83398181016040528101906200003791906200025c565b620000576200004b620000e160201b60201c565b620000e960201b60201c565b81600160006101000a81548173ffffffffffffffffffffffffffffffffffffffff021916908373ffffffffffffffffffffffffffffffffffffffff16021790555080600560006101000a81548173ffffffffffffffffffffffffffffffffffffffff021916908373ffffffffffffffffffffffffffffffffffffffff1602179055505050620002a3565b600033905090565b60008060009054906101000a900473ffffffffffffffffffffffffffffffffffffffff169050816000806101000a81548173ffffffffffffffffffffffffffffffffffffffff021916908373ffffffffffffffffffffffffffffffffffffffff1602179055508173ffffffffffffffffffffffffffffffffffffffff168173ffffffffffffffffffffffffffffffffffffffff167f8be0079c531659141344cd1fd0a4f28419497f9722a3daafe3b4186f6b6457e060405160405180910390a35050565b600080fd5b600073ffffffffffffffffffffffffffffffffffffffff82169050919050565b6000620001df82620001b2565b9050919050565b6000620001f382620001d2565b9050919050565b6200020581620001e6565b81146200021157600080fd5b50565b6000815190506200022581620001fa565b92915050565b6200023681620001d2565b81146200024257600080fd5b50565b60008151905062000256816200022b565b92915050565b60008060408385031215620002765762000275620001ad565b5b6000620002868582860162000214565b9250506020620002998582860162000245565b9150509250929050565b611bec80620002b36000396000f3fe608060405234801561001057600080fd5b50600436106100b45760003560e01c80637acc0b20116100715780637acc0b20146101535780638da5cb5b14610188578063a81aae6d146101a6578063d68ff191146101c4578063e5a2d811146101f4578063f2fde38b14610210576100b4565b8063278ecde1146100b95780632927d1d9146100d557806338e76a03146100f15780633e413bee1461010d5780634de91a631461012b578063715018a614610149575b600080fd5b6100d360048036038101906100ce9190610eca565b61022c565b005b6100ef60048036038101906100ea9190610eca565b6105d2565b005b61010b60048036038101906101069190610eca565b61073e565b005b610115610901565b6040516101229190610f76565b60405180910390f35b610133610927565b6040516101409190610fa0565b60405180910390f35b61015161092d565b005b61016d60048036038101906101689190610eca565b610941565b60405161017f969594939291906110dd565b60405180910390f35b610190610b2f565b60405161019d9190611174565b60405180910390f35b6101ae610b58565b6040516101bb91906111b0565b60405180910390f35b6101de60048036038101906101d99190610eca565b610b7e565b6040516101eb9190610fa0565b60405180910390f35b61020e60048036038101906102099190611325565b610b96565b005b61022a60048036038101906102259190611420565b610cb3565b005b6000600560009054906101000a900473ffffffffffffffffffffffffffffffffffffffff1673ffffffffffffffffffffffffffffffffffffffff16630812a3cb836040518263ffffffff1660e01b81526004016102899190610fa0565b602060405180830381865afa1580156102a6573d6000803e3d6000fd5b505050506040513d601f19601f820116820180604052508101906102ca9190611462565b90503073ffffffffffffffffffffffffffffffffffffffff16600560009054906101000a900473ffffffffffffffffffffffffffffffffffffffff1673ffffffffffffffffffffffffffffffffffffffff16636352211e836040518263ffffffff1660e01b815260040161033e9190610fa0565b602060405180830381865afa15801561035b573d6000803e3d6000fd5b505050506040513d601f19601f8201168201806040525081019061037f91906114a4565b73ffffffffffffffffffffffffffffffffffffffff16146103d5576040517f08c379a00000000000000000000000000000000000000000000000000000000081526004016103cc9061151d565b60405180910390fd5b6000600560009054906101000a900473ffffffffffffffffffffffffffffffffffffffff1673ffffffffffffffffffffffffffffffffffffffff1663e7572230836040518263ffffffff1660e01b81526004016104329190610fa0565b602060405180830381865afa15801561044f573d6000803e3d6000fd5b505050506040513d601f19601f820116820180604052508101906104739190611462565b9050600160009054906101000a900473ffffffffffffffffffffffffffffffffffffffff1673ffffffffffffffffffffffffffffffffffffffff1663a9059cbb33836040518363ffffffff1660e01b81526004016104d292919061153d565b6020604051808303816000875af11580156104f1573d6000803e3d6000fd5b505050506040513d601f19601f820116820180604052508101906105159190611592565b508060036000858152602001908152602001600020600082825461053991906115ee565b92505081905550600560009054906101000a900473ffffffffffffffffffffffffffffffffffffffff1673ffffffffffffffffffffffffffffffffffffffff166342966c68836040518263ffffffff1660e01b815260040161059b9190610fa0565b600060405180830381600087803b1580156105b557600080fd5b505af11580156105c9573d6000803e3d6000fd5b50505050505050565b6105da610d36565b60006002600083815260200190815260200160002090508060040160019054906101000a900460ff1615610643576040517f08c379a000000000000000000000000000000000000000000000000000000000815260040161063a9061166e565b60405180910390fd5b60018160040160016101000a81548160ff02191690831515021790555060006003600084815260200190815260200160002054905060006003600085815260200190815260200160002081905550600160009054906101000a900473ffffffffffffffffffffffffffffffffffffffff1673ffffffffffffffffffffffffffffffffffffffff1663a9059cbb6106d7610b2f565b836040518363ffffffff1660e01b81526004016106f592919061153d565b6020604051808303816000875af1158015610714573d6000803e3d6000fd5b505050506040513d601f19601f820116820180604052508101906107389190611592565b50505050565b6000600260008381526020019081526020016000209050600160009054906101000a900473ffffffffffffffffffffffffffffffffffffffff1673ffffffffffffffffffffffffffffffffffffffff166323b872dd333084600001546040518463ffffffff1660e01b81526004016107b89392919061168e565b6020604051808303816000875af11580156107d7573d6000803e3d6000fd5b505050506040513d601f19601f820116820180604052508101906107fb9190611592565b61083a576040517f08c379a000000000000000000000000000000000000000000000000000000000815260040161083190611711565b60405180910390fd5b80600001546003600084815260200190815260200160002060008282546108619190611731565b92505081905550600560009054906101000a900473ffffffffffffffffffffffffffffffffffffffff1673ffffffffffffffffffffffffffffffffffffffff1663156e29f6338484600001546040518463ffffffff1660e01b81526004016108cb93929190611765565b600060405180830381600087803b1580156108e557600080fd5b505af11580156108f9573d6000803e3d6000fd5b505050505050565b600160009054906101000a900473ffffffffffffffffffffffffffffffffffffffff1681565b60045481565b610935610d36565b61093f6000610db4565b565b600260205280600052604060002060009150905080600001549080600101805461096a906117cb565b80601f0160208091040260200160405190810160405280929190818152602001828054610996906117cb565b80156109e35780601f106109b8576101008083540402835291602001916109e3565b820191906000526020600020905b8154815290600101906020018083116109c657829003601f168201915b5050505050908060020180546109f8906117cb565b80601f0160208091040260200160405190810160405280929190818152602001828054610a24906117cb565b8015610a715780601f10610a4657610100808354040283529160200191610a71565b820191906000526020600020905b815481529060010190602001808311610a5457829003601f168201915b505050505090806003018054610a86906117cb565b80601f0160208091040260200160405190810160405280929190818152602001828054610ab2906117cb565b8015610aff5780601f10610ad457610100808354040283529160200191610aff565b820191906000526020600020905b815481529060010190602001808311610ae257829003601f168201915b5050505050908060040160009054906101000a900460ff16908060040160019054906101000a900460ff16905086565b60008060009054906101000a900473ffffffffffffffffffffffffffffffffffffffff16905090565b600560009054906101000a900473ffffffffffffffffffffffffffffffffffffffff1681565b60036020528060005260406000206000915090505481565b610b9e610d36565b6040518060c00160405280868152602001858152602001848152602001838152602001826008811115610bd457610bd361104b565b5b815260200160001515815250600260006004548152602001908152602001600020600082015181600001556020820151816001019081610c14919061199e565b506040820151816002019081610c2a919061199e565b506060820151816003019081610c40919061199e565b5060808201518160040160006101000a81548160ff02191690836008811115610c6c57610c6b61104b565b5b021790555060a08201518160040160016101000a81548160ff02191690831515021790555090505060046000815480929190610ca790611a70565b91905055505050505050565b610cbb610d36565b600073ffffffffffffffffffffffffffffffffffffffff168173ffffffffffffffffffffffffffffffffffffffff1603610d2a576040517f08c379a0000000000000000000000000000000000000000000000000000000008152600401610d2190611b2a565b60405180910390fd5b610d3381610db4565b50565b610d3e610e78565b73ffffffffffffffffffffffffffffffffffffffff16610d5c610b2f565b73ffffffffffffffffffffffffffffffffffffffff1614610db2576040517f08c379a0000000000000000000000000000000000000000000000000000000008152600401610da990611b96565b60405180910390fd5b565b60008060009054906101000a900473ffffffffffffffffffffffffffffffffffffffff169050816000806101000a81548173ffffffffffffffffffffffffffffffffffffffff021916908373ffffffffffffffffffffffffffffffffffffffff1602179055508173ffffffffffffffffffffffffffffffffffffffff168173ffffffffffffffffffffffffffffffffffffffff167f8be0079c531659141344cd1fd0a4f28419497f9722a3daafe3b4186f6b6457e060405160405180910390a35050565b600033905090565b6000604051905090565b600080fd5b600080fd5b6000819050919050565b610ea781610e94565b8114610eb257600080fd5b50565b600081359050610ec481610e9e565b92915050565b600060208284031215610ee057610edf610e8a565b5b6000610eee84828501610eb5565b91505092915050565b600073ffffffffffffffffffffffffffffffffffffffff82169050919050565b6000819050919050565b6000610f3c610f37610f3284610ef7565b610f17565b610ef7565b9050919050565b6000610f4e82610f21565b9050919050565b6000610f6082610f43565b9050919050565b610f7081610f55565b82525050565b6000602082019050610f8b6000830184610f67565b92915050565b610f9a81610e94565b82525050565b6000602082019050610fb56000830184610f91565b92915050565b600081519050919050565b600082825260208201905092915050565b60005b83811015610ff5578082015181840152602081019050610fda565b60008484015250505050565b6000601f19601f8301169050919050565b600061101d82610fbb565b6110278185610fc6565b9350611037818560208601610fd7565b61104081611001565b840191505092915050565b7f4e487b7100000000000000000000000000000000000000000000000000000000600052602160045260246000fd5b6009811061108b5761108a61104b565b5b50565b600081905061109c8261107a565b919050565b60006110ac8261108e565b9050919050565b6110bc816110a1565b82525050565b60008115159050919050565b6110d7816110c2565b82525050565b600060c0820190506110f26000830189610f91565b81810360208301526111048188611012565b905081810360408301526111188187611012565b9050818103606083015261112c8186611012565b905061113b60808301856110b3565b61114860a08301846110ce565b979650505050505050565b600061115e82610ef7565b9050919050565b61116e81611153565b82525050565b60006020820190506111896000830184611165565b92915050565b600061119a82610f43565b9050919050565b6111aa8161118f565b82525050565b60006020820190506111c560008301846111a1565b92915050565b600080fd5b600080fd5b7f4e487b7100000000000000000000000000000000000000000000000000000000600052604160045260246000fd5b61120d82611001565b810181811067ffffffffffffffff8211171561122c5761122b6111d5565b5b80604052505050565b600061123f610e80565b905061124b8282611204565b919050565b600067ffffffffffffffff82111561126b5761126a6111d5565b5b61127482611001565b9050602081019050919050565b82818337600083830152505050565b60006112a361129e84611250565b611235565b9050828152602081018484840111156112bf576112be6111d0565b5b6112ca848285611281565b509392505050565b600082601f8301126112e7576112e66111cb565b5b81356112f7848260208601611290565b91505092915050565b6009811061130d57600080fd5b50565b60008135905061131f81611300565b92915050565b600080600080600060a0868803121561134157611340610e8a565b5b600061134f88828901610eb5565b955050602086013567ffffffffffffffff8111156113705761136f610e8f565b5b61137c888289016112d2565b945050604086013567ffffffffffffffff81111561139d5761139c610e8f565b5b6113a9888289016112d2565b935050606086013567ffffffffffffffff8111156113ca576113c9610e8f565b5b6113d6888289016112d2565b92505060806113e788828901611310565b9150509295509295909350565b6113fd81611153565b811461140857600080fd5b50565b60008135905061141a816113f4565b92915050565b60006020828403121561143657611435610e8a565b5b60006114448482850161140b565b91505092915050565b60008151905061145c81610e9e565b92915050565b60006020828403121561147857611477610e8a565b5b60006114868482850161144d565b91505092915050565b60008151905061149e816113f4565b92915050565b6000602082840312156114ba576114b9610e8a565b5b60006114c88482850161148f565b91505092915050565b7f4e4654206e6f74206465706f7369746564000000000000000000000000000000600082015250565b6000611507601183610fc6565b9150611512826114d1565b602082019050919050565b60006020820190508181036000830152611536816114fa565b9050919050565b60006040820190506115526000830185611165565b61155f6020830184610f91565b9392505050565b61156f816110c2565b811461157a57600080fd5b50565b60008151905061158c81611566565b92915050565b6000602082840312156115a8576115a7610e8a565b5b60006115b68482850161157d565b91505092915050565b7f4e487b7100000000000000000000000000000000000000000000000000000000600052601160045260246000fd5b60006115f982610e94565b915061160483610e94565b925082820390508181111561161c5761161b6115bf565b5b92915050565b7f416c726561647920736869707065640000000000000000000000000000000000600082015250565b6000611658600f83610fc6565b915061166382611622565b602082019050919050565b600060208201905081810360008301526116878161164b565b9050919050565b60006060820190506116a36000830186611165565b6116b06020830185611165565b6116bd6040830184610f91565b949350505050565b7f5061796d656e74206661696c6564000000000000000000000000000000000000600082015250565b60006116fb600e83610fc6565b9150611706826116c5565b602082019050919050565b6000602082019050818103600083015261172a816116ee565b9050919050565b600061173c82610e94565b915061174783610e94565b925082820190508082111561175f5761175e6115bf565b5b92915050565b600060608201905061177a6000830186611165565b6117876020830185610f91565b6117946040830184610f91565b949350505050565b7f4e487b7100000000000000000000000000000000000000000000000000000000600052602260045260246000fd5b600060028204905060018216806117e357607f821691505b6020821081036117f6576117f561179c565b5b50919050565b60008190508160005260206000209050919050565b60006020601f8301049050919050565b600082821b905092915050565b60006008830261185e7fffffffffffffffffffffffffffffffffffffffffffffffffffffffffffffffff82611821565b6118688683611821565b95508019841693508086168417925050509392505050565b600061189b61189661189184610e94565b610f17565b610e94565b9050919050565b6000819050919050565b6118b583611880565b6118c96118c1826118a2565b84845461182e565b825550505050565b600090565b6118de6118d1565b6118e98184846118ac565b505050565b5b8181101561190d576119026000826118d6565b6001810190506118ef565b5050565b601f82111561195257611923816117fc565b61192c84611811565b8101602085101561193b578190505b61194f61194785611811565b8301826118ee565b50505b505050565b600082821c905092915050565b600061197560001984600802611957565b1980831691505092915050565b600061198e8383611964565b9150826002028217905092915050565b6119a782610fbb565b67ffffffffffffffff8111156119c0576119bf6111d5565b5b6119ca82546117cb565b6119d5828285611911565b600060209050601f831160018114611a0857600084156119f6578287015190505b611a008582611982565b865550611a68565b601f198416611a16866117fc565b60005b82811015611a3e57848901518255600182019150602085019450602081019050611a19565b86831015611a5b5784890151611a57601f891682611964565b8355505b6001600288020188555050505b505050505050565b6000611a7b82610e94565b91507fffffffffffffffffffffffffffffffffffffffffffffffffffffffffffffffff8203611aad57611aac6115bf565b5b600182019050919050565b7f4f776e61626c653a206e6577206f776e657220697320746865207a65726f206160008201527f6464726573730000000000000000000000000000000000000000000000000000602082015250565b6000611b14602683610fc6565b9150611b1f82611ab8565b604082019050919050565b60006020820190508181036000830152611b4381611b07565b9050919050565b7f4f776e61626c653a2063616c6c6572206973206e6f7420746865206f776e6572600082015250565b6000611b80602083610fc6565b9150611b8b82611b4a565b602082019050919050565b60006020820190508181036000830152611baf81611b73565b905091905056fea26469706673582212202f9b1e1ce84f802f77801f5522a9e375b1bc0679c63b1179203ee27137d9fed364736f6c63430008180033",
  "linkReferences": {},
  "deployedLinkReferences": {}
}