{
  "_format": "hh-sol-artifact-1",
  "contractName": "MehStoreV1",
  "sourceName": "contracts/store/MehStoreV1.sol",
  "abi": [
    {
      "inputs": [
        {
          "internalType": "contract IERC20",
          "name": "_usdc",
          "type": "address"
        },
        {
          "internalType": "address",
          "name": "_mehStoreNFTAddress",
          "type": "address"
        }
      ],
      "stateMutability": "nonpayable",
      "type": "constructor"
    },
    {
      "anonymous": false,
      "inputs": [
        {
          "indexed": true,
          "internalType": "address",
          "name": "previousOwner",
          "type": "address"
        },
        {
          "indexed": true,
          "internalType": "address",
          "name": "newOwner",
          "type": "address"
        }
      ],
      "name": "OwnershipTransferred",
      "type": "event"
    },
    {
      "anonymous": false,
      "inputs": [
        {
          "indexed": true,
          "internalType": "address",
          "name": "buyer",
          "type": "address"
        },
        {
          "indexed": true,
          "internalType": "uint256",
          "name": "saleId",
          "type": "uint256"
        },
        {
          "indexed": true,
          "internalType": "uint256",
          "name": "productId",
          "type": "uint256"
        },
        {
          "indexed": false,
          "internalType": "uint256",
          "name": "price",
          "type": "uint256"
        },
        {
          "indexed": false,
          "internalType": "string",
          "name": "size",
          "type": "string"
        }
      ],
      "name": "Purchase",
      "type": "event"
    },
    {
      "inputs": [
        {
          "internalType": "uint256",
          "name": "price",
          "type": "uint256"
        },
        {
          "internalType": "string",
          "name": "title",
          "type": "string"
        },
        {
          "internalType": "string",
          "name": "mediaURL",
          "type": "string"
        }
      ],
      "name": "addProduct",
      "outputs": [],
      "stateMutability": "nonpayable",
      "type": "function"
    },
    {
      "inputs": [
        {
          "internalType": "uint256",
          "name": "productId",
          "type": "uint256"
        },
        {
          "internalType": "string",
          "name": "newSize",
          "type": "string"
        }
      ],
      "name": "addProductSize",
      "outputs": [],
      "stateMutability": "nonpayable",
      "type": "function"
    },
    {
      "inputs": [
        {
          "internalType": "uint256",
          "name": "productId",
          "type": "uint256"
        }
      ],
      "name": "deactivateProduct",
      "outputs": [],
      "stateMutability": "nonpayable",
      "type": "function"
    },
    {
      "inputs": [
        {
          "internalType": "uint256",
          "name": "",
          "type": "uint256"
        }
      ],
      "name": "escrow",
      "outputs": [
        {
          "internalType": "uint256",
          "name": "",
          "type": "uint256"
        }
      ],
      "stateMutability": "view",
      "type": "function"
    },
    {
      "inputs": [],
      "name": "mehStoreNFT",
      "outputs": [
        {
          "internalType": "contract MehStoreNFT",
          "name": "",
          "type": "address"
        }
      ],
      "stateMutability": "view",
      "type": "function"
    },
    {
      "inputs": [],
      "name": "nextProductId",
      "outputs": [
        {
          "internalType": "uint256",
          "name": "",
          "type": "uint256"
        }
      ],
      "stateMutability": "view",
      "type": "function"
    },
    {
      "inputs": [],
      "name": "nextSaleId",
      "outputs": [
        {
          "internalType": "uint256",
          "name": "",
          "type": "uint256"
        }
      ],
      "stateMutability": "view",
      "type": "function"
    },
    {
      "inputs": [],
      "name": "owner",
      "outputs": [
        {
          "internalType": "address",
          "name": "",
          "type": "address"
        }
      ],
      "stateMutability": "view",
      "type": "function"
    },
    {
      "inputs": [
        {
          "internalType": "uint256",
          "name": "",
          "type": "uint256"
        }
      ],
      "name": "products",
      "outputs": [
        {
          "internalType": "uint256",
          "name": "price",
          "type": "uint256"
        },
        {
          "internalType": "string",
          "name": "title",
          "type": "string"
        },
        {
          "internalType": "string",
          "name": "mediaURL",
          "type": "string"
        },
        {
          "internalType": "bool",
          "name": "isShipped",
          "type": "bool"
        },
        {
          "internalType": "bool",
          "name": "isActive",
          "type": "bool"
        }
      ],
      "stateMutability": "view",
      "type": "function"
    },
    {
      "inputs": [
        {
          "internalType": "uint256",
          "name": "productId",
          "type": "uint256"
        },
        {
          "internalType": "string",
          "name": "size",
          "type": "string"
        },
        {
          "internalType": "bool",
          "name": "applyDiscount",
          "type": "bool"
        }
      ],
      "name": "purchaseProduct",
      "outputs": [],
      "stateMutability": "nonpayable",
      "type": "function"
    },
    {
      "inputs": [
        {
          "internalType": "uint256",
          "name": "productId",
          "type": "uint256"
        }
      ],
      "name": "refund",
      "outputs": [],
      "stateMutability": "nonpayable",
      "type": "function"
    },
    {
      "inputs": [],
      "name": "renounceOwnership",
      "outputs": [],
      "stateMutability": "nonpayable",
      "type": "function"
    },
    {
      "inputs": [
        {
          "internalType": "uint256",
          "name": "",
          "type": "uint256"
        }
      ],
      "name": "sales",
      "outputs": [
        {
          "internalType": "address",
          "name": "buyer",
          "type": "address"
        },
        {
          "internalType": "uint256",
          "name": "productId",
          "type": "uint256"
        },
        {
          "internalType": "uint256",
          "name": "price",
          "type": "uint256"
        },
        {
          "internalType": "string",
          "name": "size",
          "type": "string"
        }
      ],
      "stateMutability": "view",
      "type": "function"
    },
    {
      "inputs": [
        {
          "internalType": "uint256",
          "name": "productId",
          "type": "uint256"
        }
      ],
      "name": "shipProduct",
      "outputs": [],
      "stateMutability": "nonpayable",
      "type": "function"
    },
    {
      "inputs": [
        {
          "internalType": "address",
          "name": "newOwner",
          "type": "address"
        }
      ],
      "name": "transferOwnership",
      "outputs": [],
      "stateMutability": "nonpayable",
      "type": "function"
    },
    {
      "inputs": [
        {
          "internalType": "uint256",
          "name": "productId",
          "type": "uint256"
        },
        {
          "internalType": "uint256",
          "name": "newPrice",
          "type": "uint256"
        },
        {
          "internalType": "string",
          "name": "newTitle",
          "type": "string"
        },
        {
          "internalType": "string",
          "name": "newMediaURL",
          "type": "string"
        }
      ],
      "name": "updateProduct",
      "outputs": [],
      "stateMutability": "nonpayable",
      "type": "function"
    },
    {
      "inputs": [],
      "name": "usdc",
      "outputs": [
        {
          "internalType": "contract IERC20",
          "name": "",
          "type": "address"
        }
      ],
      "stateMutability": "view",
      "type": "function"
    },
    {
      "inputs": [
        {
          "internalType": "uint256",
          "name": "amount",
          "type": "uint256"
        }
      ],
      "name": "withdrawUSDC",
      "outputs": [],
      "stateMutability": "nonpayable",
      "type": "function"
    }
  ],
  "bytecode": "0x60806040523480156200001157600080fd5b5060405162002b2738038062002b27833981810160405281019062000037919062000263565b620000576200004b620000e860201b60201c565b620000f060201b60201c565b6001808190555081600260006101000a81548173ffffffffffffffffffffffffffffffffffffffff021916908373ffffffffffffffffffffffffffffffffffffffff16021790555080600860006101000a81548173ffffffffffffffffffffffffffffffffffffffff021916908373ffffffffffffffffffffffffffffffffffffffff1602179055505050620002aa565b600033905090565b60008060009054906101000a900473ffffffffffffffffffffffffffffffffffffffff169050816000806101000a81548173ffffffffffffffffffffffffffffffffffffffff021916908373ffffffffffffffffffffffffffffffffffffffff1602179055508173ffffffffffffffffffffffffffffffffffffffff168173ffffffffffffffffffffffffffffffffffffffff167f8be0079c531659141344cd1fd0a4f28419497f9722a3daafe3b4186f6b6457e060405160405180910390a35050565b600080fd5b600073ffffffffffffffffffffffffffffffffffffffff82169050919050565b6000620001e682620001b9565b9050919050565b6000620001fa82620001d9565b9050919050565b6200020c81620001ed565b81146200021857600080fd5b50565b6000815190506200022c8162000201565b92915050565b6200023d81620001d9565b81146200024957600080fd5b50565b6000815190506200025d8162000232565b92915050565b600080604083850312156200027d576200027c620001b4565b5b60006200028d858286016200021b565b9250506020620002a0858286016200024c565b9150509250929050565b61286d80620002ba6000396000f3fe608060405234801561001057600080fd5b50600436106101165760003560e01c80637acc0b20116100a2578063d68ff19111610071578063d68ff191146102ac578063db81f99b146102dc578063deb077b9146102f8578063f2fde38b14610316578063fd77e5de1461033257610116565b80637acc0b20146102095780638da5cb5b1461023d578063a81aae6d1461025b578063b5f522f71461027957610116565b80634aeda87e116100e95780634aeda87e1461018d5780634de91a63146101a9578063587380f5146101c757806358d9a040146101e3578063715018a6146101ff57610116565b8063037bbfa61461011b578063278ecde1146101375780632927d1d9146101535780633e413bee1461016f575b600080fd5b6101356004803603810190610130919061184d565b61034e565b005b610151600480360381019061014c91906118bc565b6106c4565b005b61016d600480360381019061016891906118bc565b610b22565b005b610177610c8e565b6040516101849190611968565b60405180910390f35b6101a760048036038101906101a29190611983565b610cb4565b005b6101b1610d0f565b6040516101be91906119ee565b60405180910390f35b6101e160048036038101906101dc9190611a09565b610d15565b005b6101fd60048036038101906101f89190611aa8565b610d68565b005b610207610eb9565b005b610223600480360381019061021e91906118bc565b610ecd565b604051610234959493929190611bc1565b60405180910390f35b61024561102d565b6040516102529190611c43565b60405180910390f35b610263611056565b6040516102709190611c7f565b60405180910390f35b610293600480360381019061028e91906118bc565b61107c565b6040516102a39493929190611c9a565b60405180910390f35b6102c660048036038101906102c191906118bc565b611154565b6040516102d391906119ee565b60405180910390f35b6102f660048036038101906102f191906118bc565b61116c565b005b610300611346565b60405161030d91906119ee565b60405180910390f35b610330600480360381019061032b9190611d12565b61134c565b005b61034c600480360381019061034791906118bc565b6113cf565b005b610356611409565b60006003600085815260200190815260200160002090508060030160019054906101000a900460ff166103be576040517f08c379a00000000000000000000000000000000000000000000000000000000081526004016103b590611d8b565b60405180910390fd5b60008160000154905082156103e9576064604b826103dc9190611dda565b6103e69190611e4b565b90505b600260009054906101000a900473ffffffffffffffffffffffffffffffffffffffff1673ffffffffffffffffffffffffffffffffffffffff166323b872dd3330846040518463ffffffff1660e01b815260040161044893929190611e7c565b6020604051808303816000875af1158015610467573d6000803e3d6000fd5b505050506040513d601f19601f8201168201806040525081019061048b9190611ec8565b6104ca576040517f08c379a00000000000000000000000000000000000000000000000000000000081526004016104c190611f41565b60405180910390fd5b806004600087815260200190815260200160002060008282546104ed9190611f61565b92505081905550600860009054906101000a900473ffffffffffffffffffffffffffffffffffffffff1673ffffffffffffffffffffffffffffffffffffffff1663156e29f63387846040518463ffffffff1660e01b815260040161055393929190611f95565b600060405180830381600087803b15801561056d57600080fd5b505af1158015610581573d6000803e3d6000fd5b505050506000600754905060405180608001604052803373ffffffffffffffffffffffffffffffffffffffff168152602001878152602001838152602001868152506005600083815260200190815260200160002060008201518160000160006101000a81548173ffffffffffffffffffffffffffffffffffffffff021916908373ffffffffffffffffffffffffffffffffffffffff1602179055506020820151816001015560408201518160020155606082015181600301908161064691906121ce565b509050506007600081548092919061065d906122a0565b919050555085813373ffffffffffffffffffffffffffffffffffffffff167f84752513c16e395e5da1c8c3a6aa33d59904ec0aa642c74ecca12bc39cac895585896040516106ac9291906122e8565b60405180910390a45050506106bf611458565b505050565b6106cc611409565b60006003600083815260200190815260200160002090508060030160009054906101000a900460ff1615610735576040517f08c379a000000000000000000000000000000000000000000000000000000000815260040161072c9061238a565b60405180910390fd5b6000600860009054906101000a900473ffffffffffffffffffffffffffffffffffffffff1673ffffffffffffffffffffffffffffffffffffffff16630812a3cb846040518263ffffffff1660e01b815260040161079291906119ee565b602060405180830381865afa1580156107af573d6000803e3d6000fd5b505050506040513d601f19601f820116820180604052508101906107d391906123bf565b90503373ffffffffffffffffffffffffffffffffffffffff16600860009054906101000a900473ffffffffffffffffffffffffffffffffffffffff1673ffffffffffffffffffffffffffffffffffffffff16636352211e836040518263ffffffff1660e01b815260040161084791906119ee565b602060405180830381865afa158015610864573d6000803e3d6000fd5b505050506040513d601f19601f820116820180604052508101906108889190612401565b73ffffffffffffffffffffffffffffffffffffffff16146108de576040517f08c379a00000000000000000000000000000000000000000000000000000000081526004016108d59061247a565b60405180910390fd5b6000600860009054906101000a900473ffffffffffffffffffffffffffffffffffffffff1673ffffffffffffffffffffffffffffffffffffffff1663e7572230836040518263ffffffff1660e01b815260040161093b91906119ee565b602060405180830381865afa158015610958573d6000803e3d6000fd5b505050506040513d601f19601f8201168201806040525081019061097c91906123bf565b9050600260009054906101000a900473ffffffffffffffffffffffffffffffffffffffff1673ffffffffffffffffffffffffffffffffffffffff1663a9059cbb33836040518363ffffffff1660e01b81526004016109db92919061249a565b6020604051808303816000875af11580156109fa573d6000803e3d6000fd5b505050506040513d601f19601f82011682018060405250810190610a1e9190611ec8565b610a5d576040517f08c379a0000000000000000000000000000000000000000000000000000000008152600401610a549061250f565b60405180910390fd5b80600460008681526020019081526020016000206000828254610a80919061252f565b92505081905550600860009054906101000a900473ffffffffffffffffffffffffffffffffffffffff1673ffffffffffffffffffffffffffffffffffffffff166342966c68836040518263ffffffff1660e01b8152600401610ae291906119ee565b600060405180830381600087803b158015610afc57600080fd5b505af1158015610b10573d6000803e3d6000fd5b50505050505050610b1f611458565b50565b610b2a611461565b60006003600083815260200190815260200160002090508060030160009054906101000a900460ff1615610b93576040517f08c379a0000000000000000000000000000000000000000000000000000000008152600401610b8a906125af565b60405180910390fd5b60018160030160006101000a81548160ff02191690831515021790555060006004600084815260200190815260200160002054905060006004600085815260200190815260200160002081905550600260009054906101000a900473ffffffffffffffffffffffffffffffffffffffff1673ffffffffffffffffffffffffffffffffffffffff1663a9059cbb610c2761102d565b836040518363ffffffff1660e01b8152600401610c4592919061249a565b6020604051808303816000875af1158015610c64573d6000803e3d6000fd5b505050506040513d601f19601f82011682018060405250810190610c889190611ec8565b50505050565b600260009054906101000a900473ffffffffffffffffffffffffffffffffffffffff1681565b610cbc611461565b60006003600084815260200190815260200160002090508060040182908060018154018082558091505060019003906000526020600020016000909190919091509081610d0991906121ce565b50505050565b60065481565b610d1d611461565b600060036000868152602001908152602001600020905083816000018190555082816001019081610d4e91906121ce565b5081816002019081610d6091906121ce565b505050505050565b610d70611461565b6040518060c00160405280848152602001838152602001828152602001600015158152602001600115158152602001600067ffffffffffffffff811115610dba57610db96116ea565b5b604051908082528060200260200182016040528015610ded57816020015b6060815260200190600190039081610dd85790505b50815250600360006006548152602001908152602001600020600082015181600001556020820151816001019081610e2591906121ce565b506040820151816002019081610e3b91906121ce565b5060608201518160030160006101000a81548160ff02191690831515021790555060808201518160030160016101000a81548160ff02191690831515021790555060a0820151816004019080519060200190610e989291906115ab565b5090505060066000815480929190610eaf906122a0565b9190505550505050565b610ec1611461565b610ecb60006114df565b565b6003602052806000526040600020600091509050806000015490806001018054610ef690611ffb565b80601f0160208091040260200160405190810160405280929190818152602001828054610f2290611ffb565b8015610f6f5780601f10610f4457610100808354040283529160200191610f6f565b820191906000526020600020905b815481529060010190602001808311610f5257829003601f168201915b505050505090806002018054610f8490611ffb565b80601f0160208091040260200160405190810160405280929190818152602001828054610fb090611ffb565b8015610ffd5780601f10610fd257610100808354040283529160200191610ffd565b820191906000526020600020905b815481529060010190602001808311610fe057829003601f168201915b5050505050908060030160009054906101000a900460ff16908060030160019054906101000a900460ff16905085565b60008060009054906101000a900473ffffffffffffffffffffffffffffffffffffffff16905090565b600860009054906101000a900473ffffffffffffffffffffffffffffffffffffffff1681565b60056020528060005260406000206000915090508060000160009054906101000a900473ffffffffffffffffffffffffffffffffffffffff16908060010154908060020154908060030180546110d190611ffb565b80601f01602080910402602001604051908101604052809291908181526020018280546110fd90611ffb565b801561114a5780601f1061111f5761010080835404028352916020019161114a565b820191906000526020600020905b81548152906001019060200180831161112d57829003601f168201915b5050505050905084565b60046020528060005260406000206000915090505481565b611174611461565b600081116111b7576040517f08c379a00000000000000000000000000000000000000000000000000000000081526004016111ae9061261b565b60405180910390fd5b6000600260009054906101000a900473ffffffffffffffffffffffffffffffffffffffff1673ffffffffffffffffffffffffffffffffffffffff166370a08231306040518263ffffffff1660e01b81526004016112149190611c43565b602060405180830381865afa158015611231573d6000803e3d6000fd5b505050506040513d601f19601f8201168201806040525081019061125591906123bf565b90508181101561129a576040517f08c379a0000000000000000000000000000000000000000000000000000000008152600401611291906126ad565b60405180910390fd5b600260009054906101000a900473ffffffffffffffffffffffffffffffffffffffff1673ffffffffffffffffffffffffffffffffffffffff1663a9059cbb6112e061102d565b846040518363ffffffff1660e01b81526004016112fe92919061249a565b6020604051808303816000875af115801561131d573d6000803e3d6000fd5b505050506040513d601f19601f820116820180604052508101906113419190611ec8565b505050565b60075481565b611354611461565b600073ffffffffffffffffffffffffffffffffffffffff168173ffffffffffffffffffffffffffffffffffffffff16036113c3576040517f08c379a00000000000000000000000000000000000000000000000000000000081526004016113ba9061273f565b60405180910390fd5b6113cc816114df565b50565b6113d7611461565b60006003600083815260200190815260200160002060030160016101000a81548160ff02191690831515021790555050565b60026001540361144e576040517f08c379a0000000000000000000000000000000000000000000000000000000008152600401611445906127ab565b60405180910390fd5b6002600181905550565b60018081905550565b6114696115a3565b73ffffffffffffffffffffffffffffffffffffffff1661148761102d565b73ffffffffffffffffffffffffffffffffffffffff16146114dd576040517f08c379a00000000000000000000000000000000000000000000000000000000081526004016114d490612817565b60405180910390fd5b565b60008060009054906101000a900473ffffffffffffffffffffffffffffffffffffffff169050816000806101000a81548173ffffffffffffffffffffffffffffffffffffffff021916908373ffffffffffffffffffffffffffffffffffffffff1602179055508173ffffffffffffffffffffffffffffffffffffffff168173ffffffffffffffffffffffffffffffffffffffff167f8be0079c531659141344cd1fd0a4f28419497f9722a3daafe3b4186f6b6457e060405160405180910390a35050565b600033905090565b8280548282559060005260206000209081019282156115f3579160200282015b828111156115f25782518290816115e291906121ce565b50916020019190600101906115cb565b5b5090506116009190611604565b5090565b5b80821115611624576000818161161b9190611628565b50600101611605565b5090565b50805461163490611ffb565b6000825580601f106116465750611665565b601f0160209004906000526020600020908101906116649190611668565b5b50565b5b80821115611681576000816000905550600101611669565b5090565b6000604051905090565b600080fd5b600080fd5b6000819050919050565b6116ac81611699565b81146116b757600080fd5b50565b6000813590506116c9816116a3565b92915050565b600080fd5b600080fd5b6000601f19601f8301169050919050565b7f4e487b7100000000000000000000000000000000000000000000000000000000600052604160045260246000fd5b611722826116d9565b810181811067ffffffffffffffff82111715611741576117406116ea565b5b80604052505050565b6000611754611685565b90506117608282611719565b919050565b600067ffffffffffffffff8211156117805761177f6116ea565b5b611789826116d9565b9050602081019050919050565b82818337600083830152505050565b60006117b86117b384611765565b61174a565b9050828152602081018484840111156117d4576117d36116d4565b5b6117df848285611796565b509392505050565b600082601f8301126117fc576117fb6116cf565b5b813561180c8482602086016117a5565b91505092915050565b60008115159050919050565b61182a81611815565b811461183557600080fd5b50565b60008135905061184781611821565b92915050565b6000806000606084860312156118665761186561168f565b5b6000611874868287016116ba565b935050602084013567ffffffffffffffff81111561189557611894611694565b5b6118a1868287016117e7565b92505060406118b286828701611838565b9150509250925092565b6000602082840312156118d2576118d161168f565b5b60006118e0848285016116ba565b91505092915050565b600073ffffffffffffffffffffffffffffffffffffffff82169050919050565b6000819050919050565b600061192e611929611924846118e9565b611909565b6118e9565b9050919050565b600061194082611913565b9050919050565b600061195282611935565b9050919050565b61196281611947565b82525050565b600060208201905061197d6000830184611959565b92915050565b6000806040838503121561199a5761199961168f565b5b60006119a8858286016116ba565b925050602083013567ffffffffffffffff8111156119c9576119c8611694565b5b6119d5858286016117e7565b9150509250929050565b6119e881611699565b82525050565b6000602082019050611a0360008301846119df565b92915050565b60008060008060808587031215611a2357611a2261168f565b5b6000611a31878288016116ba565b9450506020611a42878288016116ba565b935050604085013567ffffffffffffffff811115611a6357611a62611694565b5b611a6f878288016117e7565b925050606085013567ffffffffffffffff811115611a9057611a8f611694565b5b611a9c878288016117e7565b91505092959194509250565b600080600060608486031215611ac157611ac061168f565b5b6000611acf868287016116ba565b935050602084013567ffffffffffffffff811115611af057611aef611694565b5b611afc868287016117e7565b925050604084013567ffffffffffffffff811115611b1d57611b1c611694565b5b611b29868287016117e7565b9150509250925092565b600081519050919050565b600082825260208201905092915050565b60005b83811015611b6d578082015181840152602081019050611b52565b60008484015250505050565b6000611b8482611b33565b611b8e8185611b3e565b9350611b9e818560208601611b4f565b611ba7816116d9565b840191505092915050565b611bbb81611815565b82525050565b600060a082019050611bd660008301886119df565b8181036020830152611be88187611b79565b90508181036040830152611bfc8186611b79565b9050611c0b6060830185611bb2565b611c186080830184611bb2565b9695505050505050565b6000611c2d826118e9565b9050919050565b611c3d81611c22565b82525050565b6000602082019050611c586000830184611c34565b92915050565b6000611c6982611935565b9050919050565b611c7981611c5e565b82525050565b6000602082019050611c946000830184611c70565b92915050565b6000608082019050611caf6000830187611c34565b611cbc60208301866119df565b611cc960408301856119df565b8181036060830152611cdb8184611b79565b905095945050505050565b611cef81611c22565b8114611cfa57600080fd5b50565b600081359050611d0c81611ce6565b92915050565b600060208284031215611d2857611d2761168f565b5b6000611d3684828501611cfd565b91505092915050565b7f50726f64756374206973206e6f74206163746976650000000000000000000000600082015250565b6000611d75601583611b3e565b9150611d8082611d3f565b602082019050919050565b60006020820190508181036000830152611da481611d68565b9050919050565b7f4e487b7100000000000000000000000000000000000000000000000000000000600052601160045260246000fd5b6000611de582611699565b9150611df083611699565b9250828202611dfe81611699565b91508282048414831517611e1557611e14611dab565b5b5092915050565b7f4e487b7100000000000000000000000000000000000000000000000000000000600052601260045260246000fd5b6000611e5682611699565b9150611e6183611699565b925082611e7157611e70611e1c565b5b828204905092915050565b6000606082019050611e916000830186611c34565b611e9e6020830185611c34565b611eab60408301846119df565b949350505050565b600081519050611ec281611821565b92915050565b600060208284031215611ede57611edd61168f565b5b6000611eec84828501611eb3565b91505092915050565b7f5061796d656e74206661696c6564000000000000000000000000000000000000600082015250565b6000611f2b600e83611b3e565b9150611f3682611ef5565b602082019050919050565b60006020820190508181036000830152611f5a81611f1e565b9050919050565b6000611f6c82611699565b9150611f7783611699565b9250828201905080821115611f8f57611f8e611dab565b5b92915050565b6000606082019050611faa6000830186611c34565b611fb760208301856119df565b611fc460408301846119df565b949350505050565b7f4e487b7100000000000000000000000000000000000000000000000000000000600052602260045260246000fd5b6000600282049050600182168061201357607f821691505b60208210810361202657612025611fcc565b5b50919050565b60008190508160005260206000209050919050565b60006020601f8301049050919050565b600082821b905092915050565b60006008830261208e7fffffffffffffffffffffffffffffffffffffffffffffffffffffffffffffffff82612051565b6120988683612051565b95508019841693508086168417925050509392505050565b60006120cb6120c66120c184611699565b611909565b611699565b9050919050565b6000819050919050565b6120e5836120b0565b6120f96120f1826120d2565b84845461205e565b825550505050565b600090565b61210e612101565b6121198184846120dc565b505050565b5b8181101561213d57612132600082612106565b60018101905061211f565b5050565b601f821115612182576121538161202c565b61215c84612041565b8101602085101561216b578190505b61217f61217785612041565b83018261211e565b50505b505050565b600082821c905092915050565b60006121a560001984600802612187565b1980831691505092915050565b60006121be8383612194565b9150826002028217905092915050565b6121d782611b33565b67ffffffffffffffff8111156121f0576121ef6116ea565b5b6121fa8254611ffb565b612205828285612141565b600060209050601f8311600181146122385760008415612226578287015190505b61223085826121b2565b865550612298565b601f1984166122468661202c565b60005b8281101561226e57848901518255600182019150602085019450602081019050612249565b8683101561228b5784890151612287601f891682612194565b8355505b6001600288020188555050505b505050505050565b60006122ab82611699565b91507fffffffffffffffffffffffffffffffffffffffffffffffffffffffffffffffff82036122dd576122dc611dab565b5b600182019050919050565b60006040820190506122fd60008301856119df565b818103602083015261230f8184611b79565b90509392505050565b7f50726f647563747320696e207368697070696e672063616e6e6f74206265207260008201527f6566756e64656400000000000000000000000000000000000000000000000000602082015250565b6000612374602783611b3e565b915061237f82612318565b604082019050919050565b600060208201905081810360008301526123a381612367565b9050919050565b6000815190506123b9816116a3565b92915050565b6000602082840312156123d5576123d461168f565b5b60006123e3848285016123aa565b91505092915050565b6000815190506123fb81611ce6565b92915050565b6000602082840312156124175761241661168f565b5b6000612425848285016123ec565b91505092915050565b7f4e4654206e6f74206465706f7369746564000000000000000000000000000000600082015250565b6000612464601183611b3e565b915061246f8261242e565b602082019050919050565b6000602082019050818103600083015261249381612457565b9050919050565b60006040820190506124af6000830185611c34565b6124bc60208301846119df565b9392505050565b7f526566756e64206661696c656400000000000000000000000000000000000000600082015250565b60006124f9600d83611b3e565b9150612504826124c3565b602082019050919050565b60006020820190508181036000830152612528816124ec565b9050919050565b600061253a82611699565b915061254583611699565b925082820390508181111561255d5761255c611dab565b5b92915050565b7f416c726561647920736869707065640000000000000000000000000000000000600082015250565b6000612599600f83611b3e565b91506125a482612563565b602082019050919050565b600060208201905081810360008301526125c88161258c565b9050919050565b7f416d6f756e74206d7573742062652067726561746572207468616e207a65726f600082015250565b6000612605602083611b3e565b9150612610826125cf565b602082019050919050565b60006020820190508181036000830152612634816125f8565b9050919050565b7f496e73756666696369656e7420555344432062616c616e636520696e20636f6e60008201527f7472616374000000000000000000000000000000000000000000000000000000602082015250565b6000612697602583611b3e565b91506126a28261263b565b604082019050919050565b600060208201905081810360008301526126c68161268a565b9050919050565b7f4f776e61626c653a206e6577206f776e657220697320746865207a65726f206160008201527f6464726573730000000000000000000000000000000000000000000000000000602082015250565b6000612729602683611b3e565b9150612734826126cd565b604082019050919050565b600060208201905081810360008301526127588161271c565b9050919050565b7f5265656e7472616e637947756172643a207265656e7472616e742063616c6c00600082015250565b6000612795601f83611b3e565b91506127a08261275f565b602082019050919050565b600060208201905081810360008301526127c481612788565b9050919050565b7f4f776e61626c653a2063616c6c6572206973206e6f7420746865206f776e6572600082015250565b6000612801602083611b3e565b915061280c826127cb565b602082019050919050565b60006020820190508181036000830152612830816127f4565b905091905056fea264697066735822122003098befda5fd8a20a05aaf8d487c4d29beb9c65f5f4b8987b5db9bcfee11e7a64736f6c63430008180033",
  "linkReferences": {},
  "deployedLinkReferences": {}
}