{
  "_format": "hh-sol-artifact-1",
  "contractName": "MehStoreV1",
  "sourceName": "contracts/store/MehStoreV1.sol",
  "abi": [
    {
      "inputs": [
        {
          "internalType": "contract IERC20",
          "name": "_usdc",
          "type": "address"
        },
        {
          "internalType": "address",
          "name": "_mehStoreNFTAddress",
          "type": "address"
        },
        {
          "internalType": "contract IERC20",
          "name": "_meh",
          "type": "address"
        }
      ],
      "stateMutability": "nonpayable",
      "type": "constructor"
    },
    {
      "anonymous": false,
      "inputs": [
        {
          "indexed": true,
          "internalType": "address",
          "name": "previousOwner",
          "type": "address"
        },
        {
          "indexed": true,
          "internalType": "address",
          "name": "newOwner",
          "type": "address"
        }
      ],
      "name": "OwnershipTransferred",
      "type": "event"
    },
    {
      "anonymous": false,
      "inputs": [
        {
          "indexed": true,
          "internalType": "address",
          "name": "buyer",
          "type": "address"
        },
        {
          "indexed": true,
          "internalType": "uint256",
          "name": "saleId",
          "type": "uint256"
        },
        {
          "indexed": true,
          "internalType": "uint256",
          "name": "productId",
          "type": "uint256"
        },
        {
          "indexed": false,
          "internalType": "uint256",
          "name": "price",
          "type": "uint256"
        },
        {
          "indexed": false,
          "internalType": "string",
          "name": "size",
          "type": "string"
        }
      ],
      "name": "Purchase",
      "type": "event"
    },
    {
      "anonymous": false,
      "inputs": [
        {
          "indexed": false,
          "internalType": "uint256",
          "name": "amount",
          "type": "uint256"
        }
      ],
      "name": "RandomMeh",
      "type": "event"
    },
    {
      "inputs": [
        {
          "internalType": "uint256",
          "name": "price",
          "type": "uint256"
        },
        {
          "internalType": "string",
          "name": "title",
          "type": "string"
        },
        {
          "internalType": "string",
          "name": "mediaURL",
          "type": "string"
        }
      ],
      "name": "addProduct",
      "outputs": [],
      "stateMutability": "nonpayable",
      "type": "function"
    },
    {
      "inputs": [
        {
          "internalType": "uint256",
          "name": "productId",
          "type": "uint256"
        },
        {
          "internalType": "string",
          "name": "newSize",
          "type": "string"
        }
      ],
      "name": "addProductSize",
      "outputs": [],
      "stateMutability": "nonpayable",
      "type": "function"
    },
    {
      "inputs": [
        {
          "internalType": "uint256",
          "name": "productId",
          "type": "uint256"
        }
      ],
      "name": "deactivateProduct",
      "outputs": [],
      "stateMutability": "nonpayable",
      "type": "function"
    },
    {
      "inputs": [
        {
          "internalType": "uint256",
          "name": "",
          "type": "uint256"
        }
      ],
      "name": "escrow",
      "outputs": [
        {
          "internalType": "uint256",
          "name": "",
          "type": "uint256"
        }
      ],
      "stateMutability": "view",
      "type": "function"
    },
    {
      "inputs": [
        {
          "internalType": "uint256",
          "name": "amount",
          "type": "uint256"
        }
      ],
      "name": "extractMehTokens",
      "outputs": [],
      "stateMutability": "nonpayable",
      "type": "function"
    },
    {
      "inputs": [],
      "name": "meh",
      "outputs": [
        {
          "internalType": "contract IERC20",
          "name": "",
          "type": "address"
        }
      ],
      "stateMutability": "view",
      "type": "function"
    },
    {
      "inputs": [],
      "name": "mehStoreNFT",
      "outputs": [
        {
          "internalType": "contract MehStoreNFT",
          "name": "",
          "type": "address"
        }
      ],
      "stateMutability": "view",
      "type": "function"
    },
    {
      "inputs": [],
      "name": "nextProductId",
      "outputs": [
        {
          "internalType": "uint256",
          "name": "",
          "type": "uint256"
        }
      ],
      "stateMutability": "view",
      "type": "function"
    },
    {
      "inputs": [],
      "name": "nextSaleId",
      "outputs": [
        {
          "internalType": "uint256",
          "name": "",
          "type": "uint256"
        }
      ],
      "stateMutability": "view",
      "type": "function"
    },
    {
      "inputs": [],
      "name": "owner",
      "outputs": [
        {
          "internalType": "address",
          "name": "",
          "type": "address"
        }
      ],
      "stateMutability": "view",
      "type": "function"
    },
    {
      "inputs": [
        {
          "internalType": "uint256",
          "name": "",
          "type": "uint256"
        }
      ],
      "name": "products",
      "outputs": [
        {
          "internalType": "uint256",
          "name": "price",
          "type": "uint256"
        },
        {
          "internalType": "string",
          "name": "title",
          "type": "string"
        },
        {
          "internalType": "string",
          "name": "mediaURL",
          "type": "string"
        },
        {
          "internalType": "bool",
          "name": "isShipped",
          "type": "bool"
        },
        {
          "internalType": "bool",
          "name": "isActive",
          "type": "bool"
        }
      ],
      "stateMutability": "view",
      "type": "function"
    },
    {
      "inputs": [
        {
          "internalType": "uint256",
          "name": "productId",
          "type": "uint256"
        },
        {
          "internalType": "string",
          "name": "size",
          "type": "string"
        },
        {
          "internalType": "bool",
          "name": "applyDiscount",
          "type": "bool"
        }
      ],
      "name": "purchaseProduct",
      "outputs": [],
      "stateMutability": "nonpayable",
      "type": "function"
    },
    {
      "inputs": [],
      "name": "randomFactor",
      "outputs": [
        {
          "internalType": "uint256",
          "name": "",
          "type": "uint256"
        }
      ],
      "stateMutability": "view",
      "type": "function"
    },
    {
      "inputs": [
        {
          "internalType": "uint256",
          "name": "productId",
          "type": "uint256"
        }
      ],
      "name": "refund",
      "outputs": [],
      "stateMutability": "nonpayable",
      "type": "function"
    },
    {
      "inputs": [],
      "name": "renounceOwnership",
      "outputs": [],
      "stateMutability": "nonpayable",
      "type": "function"
    },
    {
      "inputs": [
        {
          "internalType": "uint256",
          "name": "",
          "type": "uint256"
        }
      ],
      "name": "sales",
      "outputs": [
        {
          "internalType": "address",
          "name": "buyer",
          "type": "address"
        },
        {
          "internalType": "uint256",
          "name": "productId",
          "type": "uint256"
        },
        {
          "internalType": "uint256",
          "name": "price",
          "type": "uint256"
        },
        {
          "internalType": "string",
          "name": "size",
          "type": "string"
        }
      ],
      "stateMutability": "view",
      "type": "function"
    },
    {
      "inputs": [
        {
          "internalType": "uint256",
          "name": "_randomFactor",
          "type": "uint256"
        }
      ],
      "name": "setRandomFactor",
      "outputs": [],
      "stateMutability": "nonpayable",
      "type": "function"
    },
    {
      "inputs": [
        {
          "internalType": "uint256",
          "name": "productId",
          "type": "uint256"
        }
      ],
      "name": "shipProduct",
      "outputs": [],
      "stateMutability": "nonpayable",
      "type": "function"
    },
    {
      "inputs": [
        {
          "internalType": "address",
          "name": "newOwner",
          "type": "address"
        }
      ],
      "name": "transferOwnership",
      "outputs": [],
      "stateMutability": "nonpayable",
      "type": "function"
    },
    {
      "inputs": [
        {
          "internalType": "uint256",
          "name": "productId",
          "type": "uint256"
        },
        {
          "internalType": "uint256",
          "name": "newPrice",
          "type": "uint256"
        },
        {
          "internalType": "string",
          "name": "newTitle",
          "type": "string"
        },
        {
          "internalType": "string",
          "name": "newMediaURL",
          "type": "string"
        }
      ],
      "name": "updateProduct",
      "outputs": [],
      "stateMutability": "nonpayable",
      "type": "function"
    },
    {
      "inputs": [],
      "name": "usdc",
      "outputs": [
        {
          "internalType": "contract IERC20",
          "name": "",
          "type": "address"
        }
      ],
      "stateMutability": "view",
      "type": "function"
    },
    {
      "inputs": [
        {
          "internalType": "uint256",
          "name": "amount",
          "type": "uint256"
        }
      ],
      "name": "withdrawUSDC",
      "outputs": [],
      "stateMutability": "nonpayable",
      "type": "function"
    }
  ],
  "bytecode": "0x60806040526001600a553480156200001657600080fd5b50604051620030b9380380620030b983398181016040528101906200003c9190620002aa565b6200005c620000506200012f60201b60201c565b6200013760201b60201c565b6001808190555082600260006101000a81548173ffffffffffffffffffffffffffffffffffffffff021916908373ffffffffffffffffffffffffffffffffffffffff16021790555081600460006101000a81548173ffffffffffffffffffffffffffffffffffffffff021916908373ffffffffffffffffffffffffffffffffffffffff16021790555080600360006101000a81548173ffffffffffffffffffffffffffffffffffffffff021916908373ffffffffffffffffffffffffffffffffffffffff16021790555050505062000306565b600033905090565b60008060009054906101000a900473ffffffffffffffffffffffffffffffffffffffff169050816000806101000a81548173ffffffffffffffffffffffffffffffffffffffff021916908373ffffffffffffffffffffffffffffffffffffffff1602179055508173ffffffffffffffffffffffffffffffffffffffff168173ffffffffffffffffffffffffffffffffffffffff167f8be0079c531659141344cd1fd0a4f28419497f9722a3daafe3b4186f6b6457e060405160405180910390a35050565b600080fd5b600073ffffffffffffffffffffffffffffffffffffffff82169050919050565b60006200022d8262000200565b9050919050565b6000620002418262000220565b9050919050565b620002538162000234565b81146200025f57600080fd5b50565b600081519050620002738162000248565b92915050565b620002848162000220565b81146200029057600080fd5b50565b600081519050620002a48162000279565b92915050565b600080600060608486031215620002c657620002c5620001fb565b5b6000620002d68682870162000262565b9350506020620002e98682870162000293565b9250506040620002fc8682870162000262565b9150509250925092565b612da380620003166000396000f3fe608060405234801561001057600080fd5b50600436106101425760003560e01c80637acc0b20116100b8578063d68ff1911161007c578063d68ff1911461032e578063d8ec55ed1461035e578063db81f99b1461037c578063deb077b914610398578063f2fde38b146103b6578063fd77e5de146103d257610142565b80637acc0b201461026f5780638da5cb5b146102a3578063a81aae6d146102c1578063b5f522f7146102df578063baf342e21461031257610142565b80633e413bee1161010a5780633e413bee146101d55780634aeda87e146101f35780634de91a631461020f578063587380f51461022d57806358d9a04014610249578063715018a61461026557610142565b8063031528e914610147578063037bbfa614610165578063084a856214610181578063278ecde11461019d5780632927d1d9146101b9575b600080fd5b61014f6103ee565b60405161015c9190611a91565b60405180910390f35b61017f600480360381019061017a9190611c6a565b6103f4565b005b61019b60048036038101906101969190611cd9565b610930565b005b6101b760048036038101906101b29190611cd9565b610a1a565b005b6101d360048036038101906101ce9190611cd9565b610e78565b005b6101dd610fe4565b6040516101ea9190611d85565b60405180910390f35b61020d60048036038101906102089190611da0565b61100a565b005b610217611065565b6040516102249190611a91565b60405180910390f35b61024760048036038101906102429190611dfc565b61106b565b005b610263600480360381019061025e9190611e9b565b6110be565b005b61026d61120f565b005b61028960048036038101906102849190611cd9565b611223565b60405161029a959493929190611fb4565b60405180910390f35b6102ab611383565b6040516102b89190612036565b60405180910390f35b6102c96113ac565b6040516102d69190612072565b60405180910390f35b6102f960048036038101906102f49190611cd9565b6113d2565b604051610309949392919061208d565b60405180910390f35b61032c60048036038101906103279190611cd9565b6114aa565b005b61034860048036038101906103439190611cd9565b6114bc565b6040516103559190611a91565b60405180910390f35b6103666114d4565b6040516103739190611d85565b60405180910390f35b61039660048036038101906103919190611cd9565b6114fa565b005b6103a06116d4565b6040516103ad9190611a91565b60405180910390f35b6103d060048036038101906103cb9190612105565b6116da565b005b6103ec60048036038101906103e79190611cd9565b61175d565b005b600a5481565b6103fc611797565b60006005600085815260200190815260200160002090508060030160019054906101000a900460ff16610464576040517f08c379a000000000000000000000000000000000000000000000000000000000815260040161045b9061217e565b60405180910390fd5b600081600001549050821561048f576064604b8261048291906121cd565b61048c919061223e565b90505b600260009054906101000a900473ffffffffffffffffffffffffffffffffffffffff1673ffffffffffffffffffffffffffffffffffffffff166323b872dd3330846040518463ffffffff1660e01b81526004016104ee9392919061226f565b6020604051808303816000875af115801561050d573d6000803e3d6000fd5b505050506040513d601f19601f8201168201806040525081019061053191906122bb565b610570576040517f08c379a000000000000000000000000000000000000000000000000000000000815260040161056790612334565b60405180910390fd5b806006600087815260200190815260200160002060008282546105939190612354565b92505081905550600460009054906101000a900473ffffffffffffffffffffffffffffffffffffffff1673ffffffffffffffffffffffffffffffffffffffff1663156e29f63387846040518463ffffffff1660e01b81526004016105f993929190612388565b600060405180830381600087803b15801561061357600080fd5b505af1158015610627573d6000803e3d6000fd5b505050506000600954905060405180608001604052803373ffffffffffffffffffffffffffffffffffffffff168152602001878152602001838152602001868152506007600083815260200190815260200160002060008201518160000160006101000a81548173ffffffffffffffffffffffffffffffffffffffff021916908373ffffffffffffffffffffffffffffffffffffffff160217905550602082015181600101556040820151816002015560608201518160030190816106ec91906125c1565b509050506009600081548092919061070390612693565b919050555085813373ffffffffffffffffffffffffffffffffffffffff167f84752513c16e395e5da1c8c3a6aa33d59904ec0aa642c74ecca12bc39cac895585896040516107529291906126db565b60405180910390a460006107646117e6565b905080600360009054906101000a900473ffffffffffffffffffffffffffffffffffffffff1673ffffffffffffffffffffffffffffffffffffffff166370a08231306040518263ffffffff1660e01b81526004016107c29190612036565b602060405180830381865afa1580156107df573d6000803e3d6000fd5b505050506040513d601f19601f820116820180604052508101906108039190612720565b1061091f57600360009054906101000a900473ffffffffffffffffffffffffffffffffffffffff1673ffffffffffffffffffffffffffffffffffffffff1663a9059cbb33836040518363ffffffff1660e01b815260040161086592919061274d565b6020604051808303816000875af1158015610884573d6000803e3d6000fd5b505050506040513d601f19601f820116820180604052508101906108a891906122bb565b6108e7576040517f08c379a00000000000000000000000000000000000000000000000000000000081526004016108de906127c2565b60405180910390fd5b7f10e3896cff14c0d12b7cb560023bfc86387a545f393ce518ffae112366eb34c0816040516109169190611a91565b60405180910390a15b5050505061092b61184b565b505050565b610938611854565b600360009054906101000a900473ffffffffffffffffffffffffffffffffffffffff1673ffffffffffffffffffffffffffffffffffffffff1663a9059cbb33836040518363ffffffff1660e01b815260040161099592919061274d565b6020604051808303816000875af11580156109b4573d6000803e3d6000fd5b505050506040513d601f19601f820116820180604052508101906109d891906122bb565b610a17576040517f08c379a0000000000000000000000000000000000000000000000000000000008152600401610a0e906127c2565b60405180910390fd5b50565b610a22611797565b60006005600083815260200190815260200160002090508060030160009054906101000a900460ff1615610a8b576040517f08c379a0000000000000000000000000000000000000000000000000000000008152600401610a8290612854565b60405180910390fd5b6000600460009054906101000a900473ffffffffffffffffffffffffffffffffffffffff1673ffffffffffffffffffffffffffffffffffffffff16630812a3cb846040518263ffffffff1660e01b8152600401610ae89190611a91565b602060405180830381865afa158015610b05573d6000803e3d6000fd5b505050506040513d601f19601f82011682018060405250810190610b299190612720565b90503373ffffffffffffffffffffffffffffffffffffffff16600460009054906101000a900473ffffffffffffffffffffffffffffffffffffffff1673ffffffffffffffffffffffffffffffffffffffff16636352211e836040518263ffffffff1660e01b8152600401610b9d9190611a91565b602060405180830381865afa158015610bba573d6000803e3d6000fd5b505050506040513d601f19601f82011682018060405250810190610bde9190612889565b73ffffffffffffffffffffffffffffffffffffffff1614610c34576040517f08c379a0000000000000000000000000000000000000000000000000000000008152600401610c2b90612902565b60405180910390fd5b6000600460009054906101000a900473ffffffffffffffffffffffffffffffffffffffff1673ffffffffffffffffffffffffffffffffffffffff1663e7572230836040518263ffffffff1660e01b8152600401610c919190611a91565b602060405180830381865afa158015610cae573d6000803e3d6000fd5b505050506040513d601f19601f82011682018060405250810190610cd29190612720565b9050600260009054906101000a900473ffffffffffffffffffffffffffffffffffffffff1673ffffffffffffffffffffffffffffffffffffffff1663a9059cbb33836040518363ffffffff1660e01b8152600401610d3192919061274d565b6020604051808303816000875af1158015610d50573d6000803e3d6000fd5b505050506040513d601f19601f82011682018060405250810190610d7491906122bb565b610db3576040517f08c379a0000000000000000000000000000000000000000000000000000000008152600401610daa9061296e565b60405180910390fd5b80600660008681526020019081526020016000206000828254610dd6919061298e565b92505081905550600460009054906101000a900473ffffffffffffffffffffffffffffffffffffffff1673ffffffffffffffffffffffffffffffffffffffff166342966c68836040518263ffffffff1660e01b8152600401610e389190611a91565b600060405180830381600087803b158015610e5257600080fd5b505af1158015610e66573d6000803e3d6000fd5b50505050505050610e7561184b565b50565b610e80611854565b60006005600083815260200190815260200160002090508060030160009054906101000a900460ff1615610ee9576040517f08c379a0000000000000000000000000000000000000000000000000000000008152600401610ee090612a0e565b60405180910390fd5b60018160030160006101000a81548160ff02191690831515021790555060006006600084815260200190815260200160002054905060006006600085815260200190815260200160002081905550600260009054906101000a900473ffffffffffffffffffffffffffffffffffffffff1673ffffffffffffffffffffffffffffffffffffffff1663a9059cbb610f7d611383565b836040518363ffffffff1660e01b8152600401610f9b92919061274d565b6020604051808303816000875af1158015610fba573d6000803e3d6000fd5b505050506040513d601f19601f82011682018060405250810190610fde91906122bb565b50505050565b600260009054906101000a900473ffffffffffffffffffffffffffffffffffffffff1681565b611012611854565b6000600560008481526020019081526020016000209050806004018290806001815401808255809150506001900390600052602060002001600090919091909150908161105f91906125c1565b50505050565b60085481565b611073611854565b6000600560008681526020019081526020016000209050838160000181905550828160010190816110a491906125c1565b50818160020190816110b691906125c1565b505050505050565b6110c6611854565b6040518060c00160405280848152602001838152602001828152602001600015158152602001600115158152602001600067ffffffffffffffff8111156111105761110f611b07565b5b60405190808252806020026020018201604052801561114357816020015b606081526020019060019003908161112e5790505b5081525060056000600854815260200190815260200160002060008201518160000155602082015181600101908161117b91906125c1565b50604082015181600201908161119191906125c1565b5060608201518160030160006101000a81548160ff02191690831515021790555060808201518160030160016101000a81548160ff02191690831515021790555060a08201518160040190805190602001906111ee92919061199e565b509050506008600081548092919061120590612693565b9190505550505050565b611217611854565b61122160006118d2565b565b600560205280600052604060002060009150905080600001549080600101805461124c906123ee565b80601f0160208091040260200160405190810160405280929190818152602001828054611278906123ee565b80156112c55780601f1061129a576101008083540402835291602001916112c5565b820191906000526020600020905b8154815290600101906020018083116112a857829003601f168201915b5050505050908060020180546112da906123ee565b80601f0160208091040260200160405190810160405280929190818152602001828054611306906123ee565b80156113535780601f1061132857610100808354040283529160200191611353565b820191906000526020600020905b81548152906001019060200180831161133657829003601f168201915b5050505050908060030160009054906101000a900460ff16908060030160019054906101000a900460ff16905085565b60008060009054906101000a900473ffffffffffffffffffffffffffffffffffffffff16905090565b600460009054906101000a900473ffffffffffffffffffffffffffffffffffffffff1681565b60076020528060005260406000206000915090508060000160009054906101000a900473ffffffffffffffffffffffffffffffffffffffff1690806001015490806002015490806003018054611427906123ee565b80601f0160208091040260200160405190810160405280929190818152602001828054611453906123ee565b80156114a05780601f10611475576101008083540402835291602001916114a0565b820191906000526020600020905b81548152906001019060200180831161148357829003601f168201915b5050505050905084565b6114b2611854565b80600a8190555050565b60066020528060005260406000206000915090505481565b600360009054906101000a900473ffffffffffffffffffffffffffffffffffffffff1681565b611502611854565b60008111611545576040517f08c379a000000000000000000000000000000000000000000000000000000000815260040161153c90612a7a565b60405180910390fd5b6000600260009054906101000a900473ffffffffffffffffffffffffffffffffffffffff1673ffffffffffffffffffffffffffffffffffffffff166370a08231306040518263ffffffff1660e01b81526004016115a29190612036565b602060405180830381865afa1580156115bf573d6000803e3d6000fd5b505050506040513d601f19601f820116820180604052508101906115e39190612720565b905081811015611628576040517f08c379a000000000000000000000000000000000000000000000000000000000815260040161161f90612b0c565b60405180910390fd5b600260009054906101000a900473ffffffffffffffffffffffffffffffffffffffff1673ffffffffffffffffffffffffffffffffffffffff1663a9059cbb61166e611383565b846040518363ffffffff1660e01b815260040161168c92919061274d565b6020604051808303816000875af11580156116ab573d6000803e3d6000fd5b505050506040513d601f19601f820116820180604052508101906116cf91906122bb565b505050565b60095481565b6116e2611854565b600073ffffffffffffffffffffffffffffffffffffffff168173ffffffffffffffffffffffffffffffffffffffff1603611751576040517f08c379a000000000000000000000000000000000000000000000000000000000815260040161174890612b9e565b60405180910390fd5b61175a816118d2565b50565b611765611854565b60006005600083815260200190815260200160002060030160016101000a81548160ff02191690831515021790555050565b6002600154036117dc576040517f08c379a00000000000000000000000000000000000000000000000000000000081526004016117d390612c0a565b60405180910390fd5b6002600181905550565b600080692a5a058fc295ed0000006a017d2a320dd7455500000042443360405160200161181593929190612c93565b6040516020818303038152906040528051906020012060001c6118389190612cd0565b6118429190612354565b90508091505090565b60018081905550565b61185c611996565b73ffffffffffffffffffffffffffffffffffffffff1661187a611383565b73ffffffffffffffffffffffffffffffffffffffff16146118d0576040517f08c379a00000000000000000000000000000000000000000000000000000000081526004016118c790612d4d565b60405180910390fd5b565b60008060009054906101000a900473ffffffffffffffffffffffffffffffffffffffff169050816000806101000a81548173ffffffffffffffffffffffffffffffffffffffff021916908373ffffffffffffffffffffffffffffffffffffffff1602179055508173ffffffffffffffffffffffffffffffffffffffff168173ffffffffffffffffffffffffffffffffffffffff167f8be0079c531659141344cd1fd0a4f28419497f9722a3daafe3b4186f6b6457e060405160405180910390a35050565b600033905090565b8280548282559060005260206000209081019282156119e6579160200282015b828111156119e55782518290816119d591906125c1565b50916020019190600101906119be565b5b5090506119f391906119f7565b5090565b5b80821115611a175760008181611a0e9190611a1b565b506001016119f8565b5090565b508054611a27906123ee565b6000825580601f10611a395750611a58565b601f016020900490600052602060002090810190611a579190611a5b565b5b50565b5b80821115611a74576000816000905550600101611a5c565b5090565b6000819050919050565b611a8b81611a78565b82525050565b6000602082019050611aa66000830184611a82565b92915050565b6000604051905090565b600080fd5b600080fd5b611ac981611a78565b8114611ad457600080fd5b50565b600081359050611ae681611ac0565b92915050565b600080fd5b600080fd5b6000601f19601f8301169050919050565b7f4e487b7100000000000000000000000000000000000000000000000000000000600052604160045260246000fd5b611b3f82611af6565b810181811067ffffffffffffffff82111715611b5e57611b5d611b07565b5b80604052505050565b6000611b71611aac565b9050611b7d8282611b36565b919050565b600067ffffffffffffffff821115611b9d57611b9c611b07565b5b611ba682611af6565b9050602081019050919050565b82818337600083830152505050565b6000611bd5611bd084611b82565b611b67565b905082815260208101848484011115611bf157611bf0611af1565b5b611bfc848285611bb3565b509392505050565b600082601f830112611c1957611c18611aec565b5b8135611c29848260208601611bc2565b91505092915050565b60008115159050919050565b611c4781611c32565b8114611c5257600080fd5b50565b600081359050611c6481611c3e565b92915050565b600080600060608486031215611c8357611c82611ab6565b5b6000611c9186828701611ad7565b935050602084013567ffffffffffffffff811115611cb257611cb1611abb565b5b611cbe86828701611c04565b9250506040611ccf86828701611c55565b9150509250925092565b600060208284031215611cef57611cee611ab6565b5b6000611cfd84828501611ad7565b91505092915050565b600073ffffffffffffffffffffffffffffffffffffffff82169050919050565b6000819050919050565b6000611d4b611d46611d4184611d06565b611d26565b611d06565b9050919050565b6000611d5d82611d30565b9050919050565b6000611d6f82611d52565b9050919050565b611d7f81611d64565b82525050565b6000602082019050611d9a6000830184611d76565b92915050565b60008060408385031215611db757611db6611ab6565b5b6000611dc585828601611ad7565b925050602083013567ffffffffffffffff811115611de657611de5611abb565b5b611df285828601611c04565b9150509250929050565b60008060008060808587031215611e1657611e15611ab6565b5b6000611e2487828801611ad7565b9450506020611e3587828801611ad7565b935050604085013567ffffffffffffffff811115611e5657611e55611abb565b5b611e6287828801611c04565b925050606085013567ffffffffffffffff811115611e8357611e82611abb565b5b611e8f87828801611c04565b91505092959194509250565b600080600060608486031215611eb457611eb3611ab6565b5b6000611ec286828701611ad7565b935050602084013567ffffffffffffffff811115611ee357611ee2611abb565b5b611eef86828701611c04565b925050604084013567ffffffffffffffff811115611f1057611f0f611abb565b5b611f1c86828701611c04565b9150509250925092565b600081519050919050565b600082825260208201905092915050565b60005b83811015611f60578082015181840152602081019050611f45565b60008484015250505050565b6000611f7782611f26565b611f818185611f31565b9350611f91818560208601611f42565b611f9a81611af6565b840191505092915050565b611fae81611c32565b82525050565b600060a082019050611fc96000830188611a82565b8181036020830152611fdb8187611f6c565b90508181036040830152611fef8186611f6c565b9050611ffe6060830185611fa5565b61200b6080830184611fa5565b9695505050505050565b600061202082611d06565b9050919050565b61203081612015565b82525050565b600060208201905061204b6000830184612027565b92915050565b600061205c82611d52565b9050919050565b61206c81612051565b82525050565b60006020820190506120876000830184612063565b92915050565b60006080820190506120a26000830187612027565b6120af6020830186611a82565b6120bc6040830185611a82565b81810360608301526120ce8184611f6c565b905095945050505050565b6120e281612015565b81146120ed57600080fd5b50565b6000813590506120ff816120d9565b92915050565b60006020828403121561211b5761211a611ab6565b5b6000612129848285016120f0565b91505092915050565b7f50726f64756374206973206e6f74206163746976650000000000000000000000600082015250565b6000612168601583611f31565b915061217382612132565b602082019050919050565b600060208201905081810360008301526121978161215b565b9050919050565b7f4e487b7100000000000000000000000000000000000000000000000000000000600052601160045260246000fd5b60006121d882611a78565b91506121e383611a78565b92508282026121f181611a78565b915082820484148315176122085761220761219e565b5b5092915050565b7f4e487b7100000000000000000000000000000000000000000000000000000000600052601260045260246000fd5b600061224982611a78565b915061225483611a78565b9250826122645761226361220f565b5b828204905092915050565b60006060820190506122846000830186612027565b6122916020830185612027565b61229e6040830184611a82565b949350505050565b6000815190506122b581611c3e565b92915050565b6000602082840312156122d1576122d0611ab6565b5b60006122df848285016122a6565b91505092915050565b7f5061796d656e74206661696c6564000000000000000000000000000000000000600082015250565b600061231e600e83611f31565b9150612329826122e8565b602082019050919050565b6000602082019050818103600083015261234d81612311565b9050919050565b600061235f82611a78565b915061236a83611a78565b92508282019050808211156123825761238161219e565b5b92915050565b600060608201905061239d6000830186612027565b6123aa6020830185611a82565b6123b76040830184611a82565b949350505050565b7f4e487b7100000000000000000000000000000000000000000000000000000000600052602260045260246000fd5b6000600282049050600182168061240657607f821691505b602082108103612419576124186123bf565b5b50919050565b60008190508160005260206000209050919050565b60006020601f8301049050919050565b600082821b905092915050565b6000600883026124817fffffffffffffffffffffffffffffffffffffffffffffffffffffffffffffffff82612444565b61248b8683612444565b95508019841693508086168417925050509392505050565b60006124be6124b96124b484611a78565b611d26565b611a78565b9050919050565b6000819050919050565b6124d8836124a3565b6124ec6124e4826124c5565b848454612451565b825550505050565b600090565b6125016124f4565b61250c8184846124cf565b505050565b5b81811015612530576125256000826124f9565b600181019050612512565b5050565b601f821115612575576125468161241f565b61254f84612434565b8101602085101561255e578190505b61257261256a85612434565b830182612511565b50505b505050565b600082821c905092915050565b60006125986000198460080261257a565b1980831691505092915050565b60006125b18383612587565b9150826002028217905092915050565b6125ca82611f26565b67ffffffffffffffff8111156125e3576125e2611b07565b5b6125ed82546123ee565b6125f8828285612534565b600060209050601f83116001811461262b5760008415612619578287015190505b61262385826125a5565b86555061268b565b601f1984166126398661241f565b60005b828110156126615784890151825560018201915060208501945060208101905061263c565b8683101561267e578489015161267a601f891682612587565b8355505b6001600288020188555050505b505050505050565b600061269e82611a78565b91507fffffffffffffffffffffffffffffffffffffffffffffffffffffffffffffffff82036126d0576126cf61219e565b5b600182019050919050565b60006040820190506126f06000830185611a82565b81810360208301526127028184611f6c565b90509392505050565b60008151905061271a81611ac0565b92915050565b60006020828403121561273657612735611ab6565b5b60006127448482850161270b565b91505092915050565b60006040820190506127626000830185612027565b61276f6020830184611a82565b9392505050565b7f6d656820746f6b656e207472616e73666572206661696c656400000000000000600082015250565b60006127ac601983611f31565b91506127b782612776565b602082019050919050565b600060208201905081810360008301526127db8161279f565b9050919050565b7f50726f647563747320696e207368697070696e672063616e6e6f74206265207260008201527f6566756e64656400000000000000000000000000000000000000000000000000602082015250565b600061283e602783611f31565b9150612849826127e2565b604082019050919050565b6000602082019050818103600083015261286d81612831565b9050919050565b600081519050612883816120d9565b92915050565b60006020828403121561289f5761289e611ab6565b5b60006128ad84828501612874565b91505092915050565b7f4e4654206e6f74206465706f7369746564000000000000000000000000000000600082015250565b60006128ec601183611f31565b91506128f7826128b6565b602082019050919050565b6000602082019050818103600083015261291b816128df565b9050919050565b7f526566756e64206661696c656400000000000000000000000000000000000000600082015250565b6000612958600d83611f31565b915061296382612922565b602082019050919050565b600060208201905081810360008301526129878161294b565b9050919050565b600061299982611a78565b91506129a483611a78565b92508282039050818111156129bc576129bb61219e565b5b92915050565b7f416c726561647920736869707065640000000000000000000000000000000000600082015250565b60006129f8600f83611f31565b9150612a03826129c2565b602082019050919050565b60006020820190508181036000830152612a27816129eb565b9050919050565b7f416d6f756e74206d7573742062652067726561746572207468616e207a65726f600082015250565b6000612a64602083611f31565b9150612a6f82612a2e565b602082019050919050565b60006020820190508181036000830152612a9381612a57565b9050919050565b7f496e73756666696369656e7420555344432062616c616e636520696e20636f6e60008201527f7472616374000000000000000000000000000000000000000000000000000000602082015250565b6000612af6602583611f31565b9150612b0182612a9a565b604082019050919050565b60006020820190508181036000830152612b2581612ae9565b9050919050565b7f4f776e61626c653a206e6577206f776e657220697320746865207a65726f206160008201527f6464726573730000000000000000000000000000000000000000000000000000602082015250565b6000612b88602683611f31565b9150612b9382612b2c565b604082019050919050565b60006020820190508181036000830152612bb781612b7b565b9050919050565b7f5265656e7472616e637947756172643a207265656e7472616e742063616c6c00600082015250565b6000612bf4601f83611f31565b9150612bff82612bbe565b602082019050919050565b60006020820190508181036000830152612c2381612be7565b9050919050565b6000819050919050565b612c45612c4082611a78565b612c2a565b82525050565b60008160601b9050919050565b6000612c6382612c4b565b9050919050565b6000612c7582612c58565b9050919050565b612c8d612c8882612015565b612c6a565b82525050565b6000612c9f8286612c34565b602082019150612caf8285612c34565b602082019150612cbf8284612c7c565b601482019150819050949350505050565b6000612cdb82611a78565b9150612ce683611a78565b925082612cf657612cf561220f565b5b828206905092915050565b7f4f776e61626c653a2063616c6c6572206973206e6f7420746865206f776e6572600082015250565b6000612d37602083611f31565b9150612d4282612d01565b602082019050919050565b60006020820190508181036000830152612d6681612d2a565b905091905056fea2646970667358221220d37792e34466e90998dd2e11d5909af9c65cc52e3109af21d764eefc484c517964736f6c63430008180033",
  "linkReferences": {},
  "deployedLinkReferences": {}
}