{
  "_format": "hh-sol-artifact-1",
  "contractName": "MehStoreV1",
  "sourceName": "contracts/store/MehStoreV1.sol",
  "abi": [
    {
      "inputs": [
        {
          "internalType": "contract IERC20",
          "name": "_usdc",
          "type": "address"
        },
        {
          "internalType": "address",
          "name": "_mehStoreNFTAddress",
          "type": "address"
        }
      ],
      "stateMutability": "nonpayable",
      "type": "constructor"
    },
    {
      "anonymous": false,
      "inputs": [
        {
          "indexed": true,
          "internalType": "address",
          "name": "previousOwner",
          "type": "address"
        },
        {
          "indexed": true,
          "internalType": "address",
          "name": "newOwner",
          "type": "address"
        }
      ],
      "name": "OwnershipTransferred",
      "type": "event"
    },
    {
      "anonymous": false,
      "inputs": [
        {
          "indexed": true,
          "internalType": "address",
          "name": "buyer",
          "type": "address"
        },
        {
          "indexed": true,
          "internalType": "uint256",
          "name": "saleId",
          "type": "uint256"
        },
        {
          "indexed": true,
          "internalType": "uint256",
          "name": "productId",
          "type": "uint256"
        },
        {
          "indexed": false,
          "internalType": "uint256",
          "name": "price",
          "type": "uint256"
        },
        {
          "indexed": false,
          "internalType": "string",
          "name": "size",
          "type": "string"
        }
      ],
      "name": "Purchase",
      "type": "event"
    },
    {
      "inputs": [
        {
          "internalType": "uint256",
          "name": "price",
          "type": "uint256"
        },
        {
          "internalType": "string",
          "name": "title",
          "type": "string"
        },
        {
          "internalType": "string",
          "name": "mediaURL",
          "type": "string"
        }
      ],
      "name": "addProduct",
      "outputs": [],
      "stateMutability": "nonpayable",
      "type": "function"
    },
    {
      "inputs": [
        {
          "internalType": "uint256",
          "name": "productId",
          "type": "uint256"
        },
        {
          "internalType": "string",
          "name": "newSize",
          "type": "string"
        }
      ],
      "name": "addProductSize",
      "outputs": [],
      "stateMutability": "nonpayable",
      "type": "function"
    },
    {
      "inputs": [
        {
          "internalType": "uint256",
          "name": "productId",
          "type": "uint256"
        }
      ],
      "name": "deactivateProduct",
      "outputs": [],
      "stateMutability": "nonpayable",
      "type": "function"
    },
    {
      "inputs": [
        {
          "internalType": "uint256",
          "name": "",
          "type": "uint256"
        }
      ],
      "name": "escrow",
      "outputs": [
        {
          "internalType": "uint256",
          "name": "",
          "type": "uint256"
        }
      ],
      "stateMutability": "view",
      "type": "function"
    },
    {
      "inputs": [],
      "name": "mehStoreNFT",
      "outputs": [
        {
          "internalType": "contract MehStoreNFT",
          "name": "",
          "type": "address"
        }
      ],
      "stateMutability": "view",
      "type": "function"
    },
    {
      "inputs": [],
      "name": "nextProductId",
      "outputs": [
        {
          "internalType": "uint256",
          "name": "",
          "type": "uint256"
        }
      ],
      "stateMutability": "view",
      "type": "function"
    },
    {
      "inputs": [],
      "name": "nextSaleId",
      "outputs": [
        {
          "internalType": "uint256",
          "name": "",
          "type": "uint256"
        }
      ],
      "stateMutability": "view",
      "type": "function"
    },
    {
      "inputs": [],
      "name": "owner",
      "outputs": [
        {
          "internalType": "address",
          "name": "",
          "type": "address"
        }
      ],
      "stateMutability": "view",
      "type": "function"
    },
    {
      "inputs": [
        {
          "internalType": "uint256",
          "name": "",
          "type": "uint256"
        }
      ],
      "name": "products",
      "outputs": [
        {
          "internalType": "uint256",
          "name": "price",
          "type": "uint256"
        },
        {
          "internalType": "string",
          "name": "title",
          "type": "string"
        },
        {
          "internalType": "string",
          "name": "mediaURL",
          "type": "string"
        },
        {
          "internalType": "bool",
          "name": "isShipped",
          "type": "bool"
        },
        {
          "internalType": "bool",
          "name": "isActive",
          "type": "bool"
        }
      ],
      "stateMutability": "view",
      "type": "function"
    },
    {
      "inputs": [
        {
          "internalType": "uint256",
          "name": "productId",
          "type": "uint256"
        },
        {
          "internalType": "string",
          "name": "size",
          "type": "string"
        }
      ],
      "name": "purchaseProduct",
      "outputs": [],
      "stateMutability": "nonpayable",
      "type": "function"
    },
    {
      "inputs": [
        {
          "internalType": "uint256",
          "name": "productId",
          "type": "uint256"
        }
      ],
      "name": "refund",
      "outputs": [],
      "stateMutability": "nonpayable",
      "type": "function"
    },
    {
      "inputs": [],
      "name": "renounceOwnership",
      "outputs": [],
      "stateMutability": "nonpayable",
      "type": "function"
    },
    {
      "inputs": [
        {
          "internalType": "uint256",
          "name": "",
          "type": "uint256"
        }
      ],
      "name": "sales",
      "outputs": [
        {
          "internalType": "address",
          "name": "buyer",
          "type": "address"
        },
        {
          "internalType": "uint256",
          "name": "productId",
          "type": "uint256"
        },
        {
          "internalType": "uint256",
          "name": "price",
          "type": "uint256"
        },
        {
          "internalType": "string",
          "name": "size",
          "type": "string"
        }
      ],
      "stateMutability": "view",
      "type": "function"
    },
    {
      "inputs": [
        {
          "internalType": "uint256",
          "name": "productId",
          "type": "uint256"
        }
      ],
      "name": "shipProduct",
      "outputs": [],
      "stateMutability": "nonpayable",
      "type": "function"
    },
    {
      "inputs": [
        {
          "internalType": "address",
          "name": "newOwner",
          "type": "address"
        }
      ],
      "name": "transferOwnership",
      "outputs": [],
      "stateMutability": "nonpayable",
      "type": "function"
    },
    {
      "inputs": [],
      "name": "usdc",
      "outputs": [
        {
          "internalType": "contract IERC20",
          "name": "",
          "type": "address"
        }
      ],
      "stateMutability": "view",
      "type": "function"
    },
    {
      "inputs": [
        {
          "internalType": "uint256",
          "name": "amount",
          "type": "uint256"
        }
      ],
      "name": "withdrawUSDC",
      "outputs": [],
      "stateMutability": "nonpayable",
      "type": "function"
    }
  ],
  "bytecode": "0x60806040523480156200001157600080fd5b50604051620028cf380380620028cf833981810160405281019062000037919062000263565b620000576200004b620000e860201b60201c565b620000f060201b60201c565b6001808190555081600260006101000a81548173ffffffffffffffffffffffffffffffffffffffff021916908373ffffffffffffffffffffffffffffffffffffffff16021790555080600860006101000a81548173ffffffffffffffffffffffffffffffffffffffff021916908373ffffffffffffffffffffffffffffffffffffffff1602179055505050620002aa565b600033905090565b60008060009054906101000a900473ffffffffffffffffffffffffffffffffffffffff169050816000806101000a81548173ffffffffffffffffffffffffffffffffffffffff021916908373ffffffffffffffffffffffffffffffffffffffff1602179055508173ffffffffffffffffffffffffffffffffffffffff168173ffffffffffffffffffffffffffffffffffffffff167f8be0079c531659141344cd1fd0a4f28419497f9722a3daafe3b4186f6b6457e060405160405180910390a35050565b600080fd5b600073ffffffffffffffffffffffffffffffffffffffff82169050919050565b6000620001e682620001b9565b9050919050565b6000620001fa82620001d9565b9050919050565b6200020c81620001ed565b81146200021857600080fd5b50565b6000815190506200022c8162000201565b92915050565b6200023d81620001d9565b81146200024957600080fd5b50565b6000815190506200025d8162000232565b92915050565b600080604083850312156200027d576200027c620001b4565b5b60006200028d858286016200021b565b9250506020620002a0858286016200024c565b9150509250929050565b61261580620002ba6000396000f3fe608060405234801561001057600080fd5b506004361061010b5760003560e01c80638af34246116100a2578063d68ff19111610071578063d68ff19114610285578063db81f99b146102b5578063deb077b9146102d1578063f2fde38b146102ef578063fd77e5de1461030b5761010b565b80638af34246146101fa5780638da5cb5b14610216578063a81aae6d14610234578063b5f522f7146102525761010b565b80634de91a63116100de5780634de91a631461018257806358d9a040146101a0578063715018a6146101bc5780637acc0b20146101c65761010b565b8063278ecde1146101105780632927d1d91461012c5780633e413bee146101485780634aeda87e14610166575b600080fd5b61012a6004803603810190610125919061163c565b610327565b005b6101466004803603810190610141919061163c565b610785565b005b6101506108f1565b60405161015d91906116e8565b60405180910390f35b610180600480360381019061017b9190611849565b610917565b005b61018a610972565b60405161019791906118b4565b60405180910390f35b6101ba60048036038101906101b591906118cf565b610978565b005b6101c4610ac9565b005b6101e060048036038101906101db919061163c565b610add565b6040516101f19594939291906119f4565b60405180910390f35b610214600480360381019061020f9190611849565b610c3d565b005b61021e610f9a565b60405161022b9190611a76565b60405180910390f35b61023c610fc3565b6040516102499190611ab2565b60405180910390f35b61026c6004803603810190610267919061163c565b610fe9565b60405161027c9493929190611acd565b60405180910390f35b61029f600480360381019061029a919061163c565b6110c1565b6040516102ac91906118b4565b60405180910390f35b6102cf60048036038101906102ca919061163c565b6110d9565b005b6102d96112b3565b6040516102e691906118b4565b60405180910390f35b61030960048036038101906103049190611b45565b6112b9565b005b6103256004803603810190610320919061163c565b61133c565b005b61032f611376565b60006003600083815260200190815260200160002090508060030160009054906101000a900460ff1615610398576040517f08c379a000000000000000000000000000000000000000000000000000000000815260040161038f90611be4565b60405180910390fd5b6000600860009054906101000a900473ffffffffffffffffffffffffffffffffffffffff1673ffffffffffffffffffffffffffffffffffffffff16630812a3cb846040518263ffffffff1660e01b81526004016103f591906118b4565b602060405180830381865afa158015610412573d6000803e3d6000fd5b505050506040513d601f19601f820116820180604052508101906104369190611c19565b90503373ffffffffffffffffffffffffffffffffffffffff16600860009054906101000a900473ffffffffffffffffffffffffffffffffffffffff1673ffffffffffffffffffffffffffffffffffffffff16636352211e836040518263ffffffff1660e01b81526004016104aa91906118b4565b602060405180830381865afa1580156104c7573d6000803e3d6000fd5b505050506040513d601f19601f820116820180604052508101906104eb9190611c5b565b73ffffffffffffffffffffffffffffffffffffffff1614610541576040517f08c379a000000000000000000000000000000000000000000000000000000000815260040161053890611cd4565b60405180910390fd5b6000600860009054906101000a900473ffffffffffffffffffffffffffffffffffffffff1673ffffffffffffffffffffffffffffffffffffffff1663e7572230836040518263ffffffff1660e01b815260040161059e91906118b4565b602060405180830381865afa1580156105bb573d6000803e3d6000fd5b505050506040513d601f19601f820116820180604052508101906105df9190611c19565b9050600260009054906101000a900473ffffffffffffffffffffffffffffffffffffffff1673ffffffffffffffffffffffffffffffffffffffff1663a9059cbb33836040518363ffffffff1660e01b815260040161063e929190611cf4565b6020604051808303816000875af115801561065d573d6000803e3d6000fd5b505050506040513d601f19601f820116820180604052508101906106819190611d49565b6106c0576040517f08c379a00000000000000000000000000000000000000000000000000000000081526004016106b790611dc2565b60405180910390fd5b806004600086815260200190815260200160002060008282546106e39190611e11565b92505081905550600860009054906101000a900473ffffffffffffffffffffffffffffffffffffffff1673ffffffffffffffffffffffffffffffffffffffff166342966c68836040518263ffffffff1660e01b815260040161074591906118b4565b600060405180830381600087803b15801561075f57600080fd5b505af1158015610773573d6000803e3d6000fd5b505050505050506107826113c5565b50565b61078d6113ce565b60006003600083815260200190815260200160002090508060030160009054906101000a900460ff16156107f6576040517f08c379a00000000000000000000000000000000000000000000000000000000081526004016107ed90611e91565b60405180910390fd5b60018160030160006101000a81548160ff02191690831515021790555060006004600084815260200190815260200160002054905060006004600085815260200190815260200160002081905550600260009054906101000a900473ffffffffffffffffffffffffffffffffffffffff1673ffffffffffffffffffffffffffffffffffffffff1663a9059cbb61088a610f9a565b836040518363ffffffff1660e01b81526004016108a8929190611cf4565b6020604051808303816000875af11580156108c7573d6000803e3d6000fd5b505050506040513d601f19601f820116820180604052508101906108eb9190611d49565b50505050565b600260009054906101000a900473ffffffffffffffffffffffffffffffffffffffff1681565b61091f6113ce565b6000600360008481526020019081526020016000209050806004018290806001815401808255809150506001900390600052602060002001600090919091909150908161096c91906120b3565b50505050565b60065481565b6109806113ce565b6040518060c00160405280848152602001838152602001828152602001600015158152602001600115158152602001600067ffffffffffffffff8111156109ca576109c961171e565b5b6040519080825280602002602001820160405280156109fd57816020015b60608152602001906001900390816109e85790505b50815250600360006006548152602001908152602001600020600082015181600001556020820151816001019081610a3591906120b3565b506040820151816002019081610a4b91906120b3565b5060608201518160030160006101000a81548160ff02191690831515021790555060808201518160030160016101000a81548160ff02191690831515021790555060a0820151816004019080519060200190610aa8929190611518565b5090505060066000815480929190610abf90612185565b9190505550505050565b610ad16113ce565b610adb600061144c565b565b6003602052806000526040600020600091509050806000015490806001018054610b0690611ee0565b80601f0160208091040260200160405190810160405280929190818152602001828054610b3290611ee0565b8015610b7f5780601f10610b5457610100808354040283529160200191610b7f565b820191906000526020600020905b815481529060010190602001808311610b6257829003601f168201915b505050505090806002018054610b9490611ee0565b80601f0160208091040260200160405190810160405280929190818152602001828054610bc090611ee0565b8015610c0d5780601f10610be257610100808354040283529160200191610c0d565b820191906000526020600020905b815481529060010190602001808311610bf057829003601f168201915b5050505050908060030160009054906101000a900460ff16908060030160019054906101000a900460ff16905085565b610c45611376565b60006003600084815260200190815260200160002090508060030160019054906101000a900460ff16610cad576040517f08c379a0000000000000000000000000000000000000000000000000000000008152600401610ca490612219565b60405180910390fd5b600260009054906101000a900473ffffffffffffffffffffffffffffffffffffffff1673ffffffffffffffffffffffffffffffffffffffff166323b872dd333084600001546040518463ffffffff1660e01b8152600401610d1093929190612239565b6020604051808303816000875af1158015610d2f573d6000803e3d6000fd5b505050506040513d601f19601f82011682018060405250810190610d539190611d49565b610d92576040517f08c379a0000000000000000000000000000000000000000000000000000000008152600401610d89906122bc565b60405180910390fd5b8060000154600460008581526020019081526020016000206000828254610db991906122dc565b92505081905550600860009054906101000a900473ffffffffffffffffffffffffffffffffffffffff1673ffffffffffffffffffffffffffffffffffffffff1663156e29f6338584600001546040518463ffffffff1660e01b8152600401610e2393929190612310565b600060405180830381600087803b158015610e3d57600080fd5b505af1158015610e51573d6000803e3d6000fd5b505050506000600754905060405180608001604052803373ffffffffffffffffffffffffffffffffffffffff16815260200185815260200183600001548152602001848152506005600083815260200190815260200160002060008201518160000160006101000a81548173ffffffffffffffffffffffffffffffffffffffff021916908373ffffffffffffffffffffffffffffffffffffffff16021790555060208201518160010155604082015181600201556060820151816003019081610f1a91906120b3565b5090505060076000815480929190610f3190612185565b919050555083813373ffffffffffffffffffffffffffffffffffffffff167f84752513c16e395e5da1c8c3a6aa33d59904ec0aa642c74ecca12bc39cac8955856000015487604051610f84929190612347565b60405180910390a45050610f966113c5565b5050565b60008060009054906101000a900473ffffffffffffffffffffffffffffffffffffffff16905090565b600860009054906101000a900473ffffffffffffffffffffffffffffffffffffffff1681565b60056020528060005260406000206000915090508060000160009054906101000a900473ffffffffffffffffffffffffffffffffffffffff169080600101549080600201549080600301805461103e90611ee0565b80601f016020809104026020016040519081016040528092919081815260200182805461106a90611ee0565b80156110b75780601f1061108c576101008083540402835291602001916110b7565b820191906000526020600020905b81548152906001019060200180831161109a57829003601f168201915b5050505050905084565b60046020528060005260406000206000915090505481565b6110e16113ce565b60008111611124576040517f08c379a000000000000000000000000000000000000000000000000000000000815260040161111b906123c3565b60405180910390fd5b6000600260009054906101000a900473ffffffffffffffffffffffffffffffffffffffff1673ffffffffffffffffffffffffffffffffffffffff166370a08231306040518263ffffffff1660e01b81526004016111819190611a76565b602060405180830381865afa15801561119e573d6000803e3d6000fd5b505050506040513d601f19601f820116820180604052508101906111c29190611c19565b905081811015611207576040517f08c379a00000000000000000000000000000000000000000000000000000000081526004016111fe90612455565b60405180910390fd5b600260009054906101000a900473ffffffffffffffffffffffffffffffffffffffff1673ffffffffffffffffffffffffffffffffffffffff1663a9059cbb61124d610f9a565b846040518363ffffffff1660e01b815260040161126b929190611cf4565b6020604051808303816000875af115801561128a573d6000803e3d6000fd5b505050506040513d601f19601f820116820180604052508101906112ae9190611d49565b505050565b60075481565b6112c16113ce565b600073ffffffffffffffffffffffffffffffffffffffff168173ffffffffffffffffffffffffffffffffffffffff1603611330576040517f08c379a0000000000000000000000000000000000000000000000000000000008152600401611327906124e7565b60405180910390fd5b6113398161144c565b50565b6113446113ce565b60006003600083815260200190815260200160002060030160016101000a81548160ff02191690831515021790555050565b6002600154036113bb576040517f08c379a00000000000000000000000000000000000000000000000000000000081526004016113b290612553565b60405180910390fd5b6002600181905550565b60018081905550565b6113d6611510565b73ffffffffffffffffffffffffffffffffffffffff166113f4610f9a565b73ffffffffffffffffffffffffffffffffffffffff161461144a576040517f08c379a0000000000000000000000000000000000000000000000000000000008152600401611441906125bf565b60405180910390fd5b565b60008060009054906101000a900473ffffffffffffffffffffffffffffffffffffffff169050816000806101000a81548173ffffffffffffffffffffffffffffffffffffffff021916908373ffffffffffffffffffffffffffffffffffffffff1602179055508173ffffffffffffffffffffffffffffffffffffffff168173ffffffffffffffffffffffffffffffffffffffff167f8be0079c531659141344cd1fd0a4f28419497f9722a3daafe3b4186f6b6457e060405160405180910390a35050565b600033905090565b828054828255906000526020600020908101928215611560579160200282015b8281111561155f57825182908161154f91906120b3565b5091602001919060010190611538565b5b50905061156d9190611571565b5090565b5b8082111561159157600081816115889190611595565b50600101611572565b5090565b5080546115a190611ee0565b6000825580601f106115b357506115d2565b601f0160209004906000526020600020908101906115d191906115d5565b5b50565b5b808211156115ee5760008160009055506001016115d6565b5090565b6000604051905090565b600080fd5b600080fd5b6000819050919050565b61161981611606565b811461162457600080fd5b50565b60008135905061163681611610565b92915050565b600060208284031215611652576116516115fc565b5b600061166084828501611627565b91505092915050565b600073ffffffffffffffffffffffffffffffffffffffff82169050919050565b6000819050919050565b60006116ae6116a96116a484611669565b611689565b611669565b9050919050565b60006116c082611693565b9050919050565b60006116d2826116b5565b9050919050565b6116e2816116c7565b82525050565b60006020820190506116fd60008301846116d9565b92915050565b600080fd5b600080fd5b6000601f19601f8301169050919050565b7f4e487b7100000000000000000000000000000000000000000000000000000000600052604160045260246000fd5b6117568261170d565b810181811067ffffffffffffffff821117156117755761177461171e565b5b80604052505050565b60006117886115f2565b9050611794828261174d565b919050565b600067ffffffffffffffff8211156117b4576117b361171e565b5b6117bd8261170d565b9050602081019050919050565b82818337600083830152505050565b60006117ec6117e784611799565b61177e565b90508281526020810184848401111561180857611807611708565b5b6118138482856117ca565b509392505050565b600082601f8301126118305761182f611703565b5b81356118408482602086016117d9565b91505092915050565b600080604083850312156118605761185f6115fc565b5b600061186e85828601611627565b925050602083013567ffffffffffffffff81111561188f5761188e611601565b5b61189b8582860161181b565b9150509250929050565b6118ae81611606565b82525050565b60006020820190506118c960008301846118a5565b92915050565b6000806000606084860312156118e8576118e76115fc565b5b60006118f686828701611627565b935050602084013567ffffffffffffffff81111561191757611916611601565b5b6119238682870161181b565b925050604084013567ffffffffffffffff81111561194457611943611601565b5b6119508682870161181b565b9150509250925092565b600081519050919050565b600082825260208201905092915050565b60005b83811015611994578082015181840152602081019050611979565b60008484015250505050565b60006119ab8261195a565b6119b58185611965565b93506119c5818560208601611976565b6119ce8161170d565b840191505092915050565b60008115159050919050565b6119ee816119d9565b82525050565b600060a082019050611a0960008301886118a5565b8181036020830152611a1b81876119a0565b90508181036040830152611a2f81866119a0565b9050611a3e60608301856119e5565b611a4b60808301846119e5565b9695505050505050565b6000611a6082611669565b9050919050565b611a7081611a55565b82525050565b6000602082019050611a8b6000830184611a67565b92915050565b6000611a9c826116b5565b9050919050565b611aac81611a91565b82525050565b6000602082019050611ac76000830184611aa3565b92915050565b6000608082019050611ae26000830187611a67565b611aef60208301866118a5565b611afc60408301856118a5565b8181036060830152611b0e81846119a0565b905095945050505050565b611b2281611a55565b8114611b2d57600080fd5b50565b600081359050611b3f81611b19565b92915050565b600060208284031215611b5b57611b5a6115fc565b5b6000611b6984828501611b30565b91505092915050565b7f50726f647563747320696e207368697070696e672063616e6e6f74206265207260008201527f6566756e64656400000000000000000000000000000000000000000000000000602082015250565b6000611bce602783611965565b9150611bd982611b72565b604082019050919050565b60006020820190508181036000830152611bfd81611bc1565b9050919050565b600081519050611c1381611610565b92915050565b600060208284031215611c2f57611c2e6115fc565b5b6000611c3d84828501611c04565b91505092915050565b600081519050611c5581611b19565b92915050565b600060208284031215611c7157611c706115fc565b5b6000611c7f84828501611c46565b91505092915050565b7f4e4654206e6f74206465706f7369746564000000000000000000000000000000600082015250565b6000611cbe601183611965565b9150611cc982611c88565b602082019050919050565b60006020820190508181036000830152611ced81611cb1565b9050919050565b6000604082019050611d096000830185611a67565b611d1660208301846118a5565b9392505050565b611d26816119d9565b8114611d3157600080fd5b50565b600081519050611d4381611d1d565b92915050565b600060208284031215611d5f57611d5e6115fc565b5b6000611d6d84828501611d34565b91505092915050565b7f526566756e64206661696c656400000000000000000000000000000000000000600082015250565b6000611dac600d83611965565b9150611db782611d76565b602082019050919050565b60006020820190508181036000830152611ddb81611d9f565b9050919050565b7f4e487b7100000000000000000000000000000000000000000000000000000000600052601160045260246000fd5b6000611e1c82611606565b9150611e2783611606565b9250828203905081811115611e3f57611e3e611de2565b5b92915050565b7f416c726561647920736869707065640000000000000000000000000000000000600082015250565b6000611e7b600f83611965565b9150611e8682611e45565b602082019050919050565b60006020820190508181036000830152611eaa81611e6e565b9050919050565b7f4e487b7100000000000000000000000000000000000000000000000000000000600052602260045260246000fd5b60006002820490506001821680611ef857607f821691505b602082108103611f0b57611f0a611eb1565b5b50919050565b60008190508160005260206000209050919050565b60006020601f8301049050919050565b600082821b905092915050565b600060088302611f737fffffffffffffffffffffffffffffffffffffffffffffffffffffffffffffffff82611f36565b611f7d8683611f36565b95508019841693508086168417925050509392505050565b6000611fb0611fab611fa684611606565b611689565b611606565b9050919050565b6000819050919050565b611fca83611f95565b611fde611fd682611fb7565b848454611f43565b825550505050565b600090565b611ff3611fe6565b611ffe818484611fc1565b505050565b5b8181101561202257612017600082611feb565b600181019050612004565b5050565b601f8211156120675761203881611f11565b61204184611f26565b81016020851015612050578190505b61206461205c85611f26565b830182612003565b50505b505050565b600082821c905092915050565b600061208a6000198460080261206c565b1980831691505092915050565b60006120a38383612079565b9150826002028217905092915050565b6120bc8261195a565b67ffffffffffffffff8111156120d5576120d461171e565b5b6120df8254611ee0565b6120ea828285612026565b600060209050601f83116001811461211d576000841561210b578287015190505b6121158582612097565b86555061217d565b601f19841661212b86611f11565b60005b828110156121535784890151825560018201915060208501945060208101905061212e565b86831015612170578489015161216c601f891682612079565b8355505b6001600288020188555050505b505050505050565b600061219082611606565b91507fffffffffffffffffffffffffffffffffffffffffffffffffffffffffffffffff82036121c2576121c1611de2565b5b600182019050919050565b7f50726f64756374206973206e6f74206163746976650000000000000000000000600082015250565b6000612203601583611965565b915061220e826121cd565b602082019050919050565b60006020820190508181036000830152612232816121f6565b9050919050565b600060608201905061224e6000830186611a67565b61225b6020830185611a67565b61226860408301846118a5565b949350505050565b7f5061796d656e74206661696c6564000000000000000000000000000000000000600082015250565b60006122a6600e83611965565b91506122b182612270565b602082019050919050565b600060208201905081810360008301526122d581612299565b9050919050565b60006122e782611606565b91506122f283611606565b925082820190508082111561230a57612309611de2565b5b92915050565b60006060820190506123256000830186611a67565b61233260208301856118a5565b61233f60408301846118a5565b949350505050565b600060408201905061235c60008301856118a5565b818103602083015261236e81846119a0565b90509392505050565b7f416d6f756e74206d7573742062652067726561746572207468616e207a65726f600082015250565b60006123ad602083611965565b91506123b882612377565b602082019050919050565b600060208201905081810360008301526123dc816123a0565b9050919050565b7f496e73756666696369656e7420555344432062616c616e636520696e20636f6e60008201527f7472616374000000000000000000000000000000000000000000000000000000602082015250565b600061243f602583611965565b915061244a826123e3565b604082019050919050565b6000602082019050818103600083015261246e81612432565b9050919050565b7f4f776e61626c653a206e6577206f776e657220697320746865207a65726f206160008201527f6464726573730000000000000000000000000000000000000000000000000000602082015250565b60006124d1602683611965565b91506124dc82612475565b604082019050919050565b60006020820190508181036000830152612500816124c4565b9050919050565b7f5265656e7472616e637947756172643a207265656e7472616e742063616c6c00600082015250565b600061253d601f83611965565b915061254882612507565b602082019050919050565b6000602082019050818103600083015261256c81612530565b9050919050565b7f4f776e61626c653a2063616c6c6572206973206e6f7420746865206f776e6572600082015250565b60006125a9602083611965565b91506125b482612573565b602082019050919050565b600060208201905081810360008301526125d88161259c565b905091905056fea2646970667358221220e43b356147ff53422b8e70d79266cad04a804dcf3163cb9214d15a5ea1e995ce64736f6c63430008180033",
  "linkReferences": {},
  "deployedLinkReferences": {}
}