{
  "_format": "hh-sol-artifact-1",
  "contractName": "MehStoreV1",
  "sourceName": "contracts/store/MehStoreV1.sol",
  "abi": [
    {
      "inputs": [
        {
          "internalType": "contract IERC20",
          "name": "_usdc",
          "type": "address"
        },
        {
          "internalType": "address",
          "name": "_mehStoreNFTAddress",
          "type": "address"
        }
      ],
      "stateMutability": "nonpayable",
      "type": "constructor"
    },
    {
      "anonymous": false,
      "inputs": [
        {
          "indexed": true,
          "internalType": "address",
          "name": "previousOwner",
          "type": "address"
        },
        {
          "indexed": true,
          "internalType": "address",
          "name": "newOwner",
          "type": "address"
        }
      ],
      "name": "OwnershipTransferred",
      "type": "event"
    },
    {
      "anonymous": false,
      "inputs": [
        {
          "indexed": true,
          "internalType": "address",
          "name": "buyer",
          "type": "address"
        },
        {
          "indexed": true,
          "internalType": "uint256",
          "name": "saleId",
          "type": "uint256"
        },
        {
          "indexed": true,
          "internalType": "uint256",
          "name": "productId",
          "type": "uint256"
        },
        {
          "indexed": false,
          "internalType": "uint256",
          "name": "price",
          "type": "uint256"
        },
        {
          "indexed": false,
          "internalType": "string",
          "name": "size",
          "type": "string"
        }
      ],
      "name": "Purchase",
      "type": "event"
    },
    {
      "inputs": [
        {
          "internalType": "uint256",
          "name": "price",
          "type": "uint256"
        },
        {
          "internalType": "string",
          "name": "title",
          "type": "string"
        },
        {
          "internalType": "string",
          "name": "mediaURL",
          "type": "string"
        }
      ],
      "name": "addProduct",
      "outputs": [],
      "stateMutability": "nonpayable",
      "type": "function"
    },
    {
      "inputs": [
        {
          "internalType": "uint256",
          "name": "productId",
          "type": "uint256"
        },
        {
          "internalType": "string",
          "name": "newSize",
          "type": "string"
        }
      ],
      "name": "addProductSize",
      "outputs": [],
      "stateMutability": "nonpayable",
      "type": "function"
    },
    {
      "inputs": [
        {
          "internalType": "uint256",
          "name": "productId",
          "type": "uint256"
        }
      ],
      "name": "deactivateProduct",
      "outputs": [],
      "stateMutability": "nonpayable",
      "type": "function"
    },
    {
      "inputs": [
        {
          "internalType": "uint256",
          "name": "",
          "type": "uint256"
        }
      ],
      "name": "escrow",
      "outputs": [
        {
          "internalType": "uint256",
          "name": "",
          "type": "uint256"
        }
      ],
      "stateMutability": "view",
      "type": "function"
    },
    {
      "inputs": [],
      "name": "mehStoreNFT",
      "outputs": [
        {
          "internalType": "contract MehStoreNFT",
          "name": "",
          "type": "address"
        }
      ],
      "stateMutability": "view",
      "type": "function"
    },
    {
      "inputs": [],
      "name": "nextProductId",
      "outputs": [
        {
          "internalType": "uint256",
          "name": "",
          "type": "uint256"
        }
      ],
      "stateMutability": "view",
      "type": "function"
    },
    {
      "inputs": [],
      "name": "nextSaleId",
      "outputs": [
        {
          "internalType": "uint256",
          "name": "",
          "type": "uint256"
        }
      ],
      "stateMutability": "view",
      "type": "function"
    },
    {
      "inputs": [],
      "name": "owner",
      "outputs": [
        {
          "internalType": "address",
          "name": "",
          "type": "address"
        }
      ],
      "stateMutability": "view",
      "type": "function"
    },
    {
      "inputs": [
        {
          "internalType": "uint256",
          "name": "",
          "type": "uint256"
        }
      ],
      "name": "products",
      "outputs": [
        {
          "internalType": "uint256",
          "name": "price",
          "type": "uint256"
        },
        {
          "internalType": "string",
          "name": "title",
          "type": "string"
        },
        {
          "internalType": "string",
          "name": "mediaURL",
          "type": "string"
        },
        {
          "internalType": "bool",
          "name": "isShipped",
          "type": "bool"
        },
        {
          "internalType": "bool",
          "name": "isActive",
          "type": "bool"
        }
      ],
      "stateMutability": "view",
      "type": "function"
    },
    {
      "inputs": [
        {
          "internalType": "uint256",
          "name": "productId",
          "type": "uint256"
        },
        {
          "internalType": "string",
          "name": "size",
          "type": "string"
        }
      ],
      "name": "purchaseProduct",
      "outputs": [],
      "stateMutability": "nonpayable",
      "type": "function"
    },
    {
      "inputs": [
        {
          "internalType": "uint256",
          "name": "productId",
          "type": "uint256"
        }
      ],
      "name": "refund",
      "outputs": [],
      "stateMutability": "nonpayable",
      "type": "function"
    },
    {
      "inputs": [],
      "name": "renounceOwnership",
      "outputs": [],
      "stateMutability": "nonpayable",
      "type": "function"
    },
    {
      "inputs": [
        {
          "internalType": "uint256",
          "name": "",
          "type": "uint256"
        }
      ],
      "name": "sales",
      "outputs": [
        {
          "internalType": "address",
          "name": "buyer",
          "type": "address"
        },
        {
          "internalType": "uint256",
          "name": "productId",
          "type": "uint256"
        },
        {
          "internalType": "uint256",
          "name": "price",
          "type": "uint256"
        },
        {
          "internalType": "string",
          "name": "size",
          "type": "string"
        }
      ],
      "stateMutability": "view",
      "type": "function"
    },
    {
      "inputs": [
        {
          "internalType": "uint256",
          "name": "productId",
          "type": "uint256"
        }
      ],
      "name": "shipProduct",
      "outputs": [],
      "stateMutability": "nonpayable",
      "type": "function"
    },
    {
      "inputs": [
        {
          "internalType": "address",
          "name": "newOwner",
          "type": "address"
        }
      ],
      "name": "transferOwnership",
      "outputs": [],
      "stateMutability": "nonpayable",
      "type": "function"
    },
    {
      "inputs": [],
      "name": "usdc",
      "outputs": [
        {
          "internalType": "contract IERC20",
          "name": "",
          "type": "address"
        }
      ],
      "stateMutability": "view",
      "type": "function"
    }
  ],
  "bytecode": "0x60806040523480156200001157600080fd5b50604051620025d2380380620025d2833981810160405281019062000037919062000263565b620000576200004b620000e860201b60201c565b620000f060201b60201c565b6001808190555081600260006101000a81548173ffffffffffffffffffffffffffffffffffffffff021916908373ffffffffffffffffffffffffffffffffffffffff16021790555080600860006101000a81548173ffffffffffffffffffffffffffffffffffffffff021916908373ffffffffffffffffffffffffffffffffffffffff1602179055505050620002aa565b600033905090565b60008060009054906101000a900473ffffffffffffffffffffffffffffffffffffffff169050816000806101000a81548173ffffffffffffffffffffffffffffffffffffffff021916908373ffffffffffffffffffffffffffffffffffffffff1602179055508173ffffffffffffffffffffffffffffffffffffffff168173ffffffffffffffffffffffffffffffffffffffff167f8be0079c531659141344cd1fd0a4f28419497f9722a3daafe3b4186f6b6457e060405160405180910390a35050565b600080fd5b600073ffffffffffffffffffffffffffffffffffffffff82169050919050565b6000620001e682620001b9565b9050919050565b6000620001fa82620001d9565b9050919050565b6200020c81620001ed565b81146200021857600080fd5b50565b6000815190506200022c8162000201565b92915050565b6200023d81620001d9565b81146200024957600080fd5b50565b6000815190506200025d8162000232565b92915050565b600080604083850312156200027d576200027c620001b4565b5b60006200028d858286016200021b565b9250506020620002a0858286016200024c565b9150509250929050565b61231880620002ba6000396000f3fe608060405234801561001057600080fd5b50600436106101005760003560e01c80638af3424611610097578063d68ff19111610066578063d68ff1911461027a578063deb077b9146102aa578063f2fde38b146102c8578063fd77e5de146102e457610100565b80638af34246146101ef5780638da5cb5b1461020b578063a81aae6d14610229578063b5f522f71461024757610100565b80634de91a63116100d35780634de91a631461017757806358d9a04014610195578063715018a6146101b15780637acc0b20146101bb57610100565b8063278ecde1146101055780632927d1d9146101215780633e413bee1461013d5780634aeda87e1461015b575b600080fd5b61011f600480360381019061011a919061143d565b610300565b005b61013b6004803603810190610136919061143d565b610760565b005b6101456108cc565b60405161015291906114e9565b60405180910390f35b6101756004803603810190610170919061164a565b6108f2565b005b61017f61094d565b60405161018c91906116b5565b60405180910390f35b6101af60048036038101906101aa91906116d0565b610953565b005b6101b9610aa4565b005b6101d560048036038101906101d0919061143d565b610ab8565b6040516101e69594939291906117f5565b60405180910390f35b6102096004803603810190610204919061164a565b610c18565b005b610213610f75565b6040516102209190611877565b60405180910390f35b610231610f9e565b60405161023e91906118b3565b60405180910390f35b610261600480360381019061025c919061143d565b610fc4565b60405161027194939291906118ce565b60405180910390f35b610294600480360381019061028f919061143d565b61109c565b6040516102a191906116b5565b60405180910390f35b6102b26110b4565b6040516102bf91906116b5565b60405180910390f35b6102e260048036038101906102dd9190611946565b6110ba565b005b6102fe60048036038101906102f9919061143d565b61113d565b005b610308611177565b60006003600083815260200190815260200160002090508060030160009054906101000a900460ff1615610371576040517f08c379a0000000000000000000000000000000000000000000000000000000008152600401610368906119e5565b60405180910390fd5b6000600860009054906101000a900473ffffffffffffffffffffffffffffffffffffffff1673ffffffffffffffffffffffffffffffffffffffff16630812a3cb846040518263ffffffff1660e01b81526004016103ce91906116b5565b602060405180830381865afa1580156103eb573d6000803e3d6000fd5b505050506040513d601f19601f8201168201806040525081019061040f9190611a1a565b90503373ffffffffffffffffffffffffffffffffffffffff16600860009054906101000a900473ffffffffffffffffffffffffffffffffffffffff1673ffffffffffffffffffffffffffffffffffffffff16636352211e836040518263ffffffff1660e01b815260040161048391906116b5565b602060405180830381865afa1580156104a0573d6000803e3d6000fd5b505050506040513d601f19601f820116820180604052508101906104c49190611a5c565b73ffffffffffffffffffffffffffffffffffffffff161461051a576040517f08c379a000000000000000000000000000000000000000000000000000000000815260040161051190611ad5565b60405180910390fd5b6000600860009054906101000a900473ffffffffffffffffffffffffffffffffffffffff1673ffffffffffffffffffffffffffffffffffffffff1663e7572230836040518263ffffffff1660e01b815260040161057791906116b5565b602060405180830381865afa158015610594573d6000803e3d6000fd5b505050506040513d601f19601f820116820180604052508101906105b89190611a1a565b9050600260009054906101000a900473ffffffffffffffffffffffffffffffffffffffff1673ffffffffffffffffffffffffffffffffffffffff166323b872dd3033846040518463ffffffff1660e01b815260040161061993929190611af5565b6020604051808303816000875af1158015610638573d6000803e3d6000fd5b505050506040513d601f19601f8201168201806040525081019061065c9190611b58565b61069b576040517f08c379a000000000000000000000000000000000000000000000000000000000815260040161069290611bd1565b60405180910390fd5b806004600086815260200190815260200160002060008282546106be9190611c20565b92505081905550600860009054906101000a900473ffffffffffffffffffffffffffffffffffffffff1673ffffffffffffffffffffffffffffffffffffffff166342966c68836040518263ffffffff1660e01b815260040161072091906116b5565b600060405180830381600087803b15801561073a57600080fd5b505af115801561074e573d6000803e3d6000fd5b5050505050505061075d6111c6565b50565b6107686111cf565b60006003600083815260200190815260200160002090508060030160009054906101000a900460ff16156107d1576040517f08c379a00000000000000000000000000000000000000000000000000000000081526004016107c890611ca0565b60405180910390fd5b60018160030160006101000a81548160ff02191690831515021790555060006004600084815260200190815260200160002054905060006004600085815260200190815260200160002081905550600260009054906101000a900473ffffffffffffffffffffffffffffffffffffffff1673ffffffffffffffffffffffffffffffffffffffff1663a9059cbb610865610f75565b836040518363ffffffff1660e01b8152600401610883929190611cc0565b6020604051808303816000875af11580156108a2573d6000803e3d6000fd5b505050506040513d601f19601f820116820180604052508101906108c69190611b58565b50505050565b600260009054906101000a900473ffffffffffffffffffffffffffffffffffffffff1681565b6108fa6111cf565b600060036000848152602001908152602001600020905080600401829080600181540180825580915050600190039060005260206000200160009091909190915090816109479190611eeb565b50505050565b60065481565b61095b6111cf565b6040518060c00160405280848152602001838152602001828152602001600015158152602001600115158152602001600067ffffffffffffffff8111156109a5576109a461151f565b5b6040519080825280602002602001820160405280156109d857816020015b60608152602001906001900390816109c35790505b50815250600360006006548152602001908152602001600020600082015181600001556020820151816001019081610a109190611eeb565b506040820151816002019081610a269190611eeb565b5060608201518160030160006101000a81548160ff02191690831515021790555060808201518160030160016101000a81548160ff02191690831515021790555060a0820151816004019080519060200190610a83929190611319565b5090505060066000815480929190610a9a90611fbd565b9190505550505050565b610aac6111cf565b610ab6600061124d565b565b6003602052806000526040600020600091509050806000015490806001018054610ae190611d18565b80601f0160208091040260200160405190810160405280929190818152602001828054610b0d90611d18565b8015610b5a5780601f10610b2f57610100808354040283529160200191610b5a565b820191906000526020600020905b815481529060010190602001808311610b3d57829003601f168201915b505050505090806002018054610b6f90611d18565b80601f0160208091040260200160405190810160405280929190818152602001828054610b9b90611d18565b8015610be85780601f10610bbd57610100808354040283529160200191610be8565b820191906000526020600020905b815481529060010190602001808311610bcb57829003601f168201915b5050505050908060030160009054906101000a900460ff16908060030160019054906101000a900460ff16905085565b610c20611177565b60006003600084815260200190815260200160002090508060030160019054906101000a900460ff16610c88576040517f08c379a0000000000000000000000000000000000000000000000000000000008152600401610c7f90612051565b60405180910390fd5b600260009054906101000a900473ffffffffffffffffffffffffffffffffffffffff1673ffffffffffffffffffffffffffffffffffffffff166323b872dd333084600001546040518463ffffffff1660e01b8152600401610ceb93929190611af5565b6020604051808303816000875af1158015610d0a573d6000803e3d6000fd5b505050506040513d601f19601f82011682018060405250810190610d2e9190611b58565b610d6d576040517f08c379a0000000000000000000000000000000000000000000000000000000008152600401610d64906120bd565b60405180910390fd5b8060000154600460008581526020019081526020016000206000828254610d9491906120dd565b92505081905550600860009054906101000a900473ffffffffffffffffffffffffffffffffffffffff1673ffffffffffffffffffffffffffffffffffffffff1663156e29f6338584600001546040518463ffffffff1660e01b8152600401610dfe93929190612111565b600060405180830381600087803b158015610e1857600080fd5b505af1158015610e2c573d6000803e3d6000fd5b505050506000600754905060405180608001604052803373ffffffffffffffffffffffffffffffffffffffff16815260200185815260200183600001548152602001848152506005600083815260200190815260200160002060008201518160000160006101000a81548173ffffffffffffffffffffffffffffffffffffffff021916908373ffffffffffffffffffffffffffffffffffffffff16021790555060208201518160010155604082015181600201556060820151816003019081610ef59190611eeb565b5090505060076000815480929190610f0c90611fbd565b919050555083813373ffffffffffffffffffffffffffffffffffffffff167f84752513c16e395e5da1c8c3a6aa33d59904ec0aa642c74ecca12bc39cac8955856000015487604051610f5f929190612148565b60405180910390a45050610f716111c6565b5050565b60008060009054906101000a900473ffffffffffffffffffffffffffffffffffffffff16905090565b600860009054906101000a900473ffffffffffffffffffffffffffffffffffffffff1681565b60056020528060005260406000206000915090508060000160009054906101000a900473ffffffffffffffffffffffffffffffffffffffff169080600101549080600201549080600301805461101990611d18565b80601f016020809104026020016040519081016040528092919081815260200182805461104590611d18565b80156110925780601f1061106757610100808354040283529160200191611092565b820191906000526020600020905b81548152906001019060200180831161107557829003601f168201915b5050505050905084565b60046020528060005260406000206000915090505481565b60075481565b6110c26111cf565b600073ffffffffffffffffffffffffffffffffffffffff168173ffffffffffffffffffffffffffffffffffffffff1603611131576040517f08c379a0000000000000000000000000000000000000000000000000000000008152600401611128906121ea565b60405180910390fd5b61113a8161124d565b50565b6111456111cf565b60006003600083815260200190815260200160002060030160016101000a81548160ff02191690831515021790555050565b6002600154036111bc576040517f08c379a00000000000000000000000000000000000000000000000000000000081526004016111b390612256565b60405180910390fd5b6002600181905550565b60018081905550565b6111d7611311565b73ffffffffffffffffffffffffffffffffffffffff166111f5610f75565b73ffffffffffffffffffffffffffffffffffffffff161461124b576040517f08c379a0000000000000000000000000000000000000000000000000000000008152600401611242906122c2565b60405180910390fd5b565b60008060009054906101000a900473ffffffffffffffffffffffffffffffffffffffff169050816000806101000a81548173ffffffffffffffffffffffffffffffffffffffff021916908373ffffffffffffffffffffffffffffffffffffffff1602179055508173ffffffffffffffffffffffffffffffffffffffff168173ffffffffffffffffffffffffffffffffffffffff167f8be0079c531659141344cd1fd0a4f28419497f9722a3daafe3b4186f6b6457e060405160405180910390a35050565b600033905090565b828054828255906000526020600020908101928215611361579160200282015b828111156113605782518290816113509190611eeb565b5091602001919060010190611339565b5b50905061136e9190611372565b5090565b5b8082111561139257600081816113899190611396565b50600101611373565b5090565b5080546113a290611d18565b6000825580601f106113b457506113d3565b601f0160209004906000526020600020908101906113d291906113d6565b5b50565b5b808211156113ef5760008160009055506001016113d7565b5090565b6000604051905090565b600080fd5b600080fd5b6000819050919050565b61141a81611407565b811461142557600080fd5b50565b60008135905061143781611411565b92915050565b600060208284031215611453576114526113fd565b5b600061146184828501611428565b91505092915050565b600073ffffffffffffffffffffffffffffffffffffffff82169050919050565b6000819050919050565b60006114af6114aa6114a58461146a565b61148a565b61146a565b9050919050565b60006114c182611494565b9050919050565b60006114d3826114b6565b9050919050565b6114e3816114c8565b82525050565b60006020820190506114fe60008301846114da565b92915050565b600080fd5b600080fd5b6000601f19601f8301169050919050565b7f4e487b7100000000000000000000000000000000000000000000000000000000600052604160045260246000fd5b6115578261150e565b810181811067ffffffffffffffff821117156115765761157561151f565b5b80604052505050565b60006115896113f3565b9050611595828261154e565b919050565b600067ffffffffffffffff8211156115b5576115b461151f565b5b6115be8261150e565b9050602081019050919050565b82818337600083830152505050565b60006115ed6115e88461159a565b61157f565b90508281526020810184848401111561160957611608611509565b5b6116148482856115cb565b509392505050565b600082601f83011261163157611630611504565b5b81356116418482602086016115da565b91505092915050565b60008060408385031215611661576116606113fd565b5b600061166f85828601611428565b925050602083013567ffffffffffffffff8111156116905761168f611402565b5b61169c8582860161161c565b9150509250929050565b6116af81611407565b82525050565b60006020820190506116ca60008301846116a6565b92915050565b6000806000606084860312156116e9576116e86113fd565b5b60006116f786828701611428565b935050602084013567ffffffffffffffff81111561171857611717611402565b5b6117248682870161161c565b925050604084013567ffffffffffffffff81111561174557611744611402565b5b6117518682870161161c565b9150509250925092565b600081519050919050565b600082825260208201905092915050565b60005b8381101561179557808201518184015260208101905061177a565b60008484015250505050565b60006117ac8261175b565b6117b68185611766565b93506117c6818560208601611777565b6117cf8161150e565b840191505092915050565b60008115159050919050565b6117ef816117da565b82525050565b600060a08201905061180a60008301886116a6565b818103602083015261181c81876117a1565b9050818103604083015261183081866117a1565b905061183f60608301856117e6565b61184c60808301846117e6565b9695505050505050565b60006118618261146a565b9050919050565b61187181611856565b82525050565b600060208201905061188c6000830184611868565b92915050565b600061189d826114b6565b9050919050565b6118ad81611892565b82525050565b60006020820190506118c860008301846118a4565b92915050565b60006080820190506118e36000830187611868565b6118f060208301866116a6565b6118fd60408301856116a6565b818103606083015261190f81846117a1565b905095945050505050565b61192381611856565b811461192e57600080fd5b50565b6000813590506119408161191a565b92915050565b60006020828403121561195c5761195b6113fd565b5b600061196a84828501611931565b91505092915050565b7f50726f647563747320696e207368697070696e672063616e6e6f74206265207260008201527f6566756e64656400000000000000000000000000000000000000000000000000602082015250565b60006119cf602783611766565b91506119da82611973565b604082019050919050565b600060208201905081810360008301526119fe816119c2565b9050919050565b600081519050611a1481611411565b92915050565b600060208284031215611a3057611a2f6113fd565b5b6000611a3e84828501611a05565b91505092915050565b600081519050611a568161191a565b92915050565b600060208284031215611a7257611a716113fd565b5b6000611a8084828501611a47565b91505092915050565b7f4e4654206e6f74206465706f7369746564000000000000000000000000000000600082015250565b6000611abf601183611766565b9150611aca82611a89565b602082019050919050565b60006020820190508181036000830152611aee81611ab2565b9050919050565b6000606082019050611b0a6000830186611868565b611b176020830185611868565b611b2460408301846116a6565b949350505050565b611b35816117da565b8114611b4057600080fd5b50565b600081519050611b5281611b2c565b92915050565b600060208284031215611b6e57611b6d6113fd565b5b6000611b7c84828501611b43565b91505092915050565b7f526566756e64206661696c656400000000000000000000000000000000000000600082015250565b6000611bbb600d83611766565b9150611bc682611b85565b602082019050919050565b60006020820190508181036000830152611bea81611bae565b9050919050565b7f4e487b7100000000000000000000000000000000000000000000000000000000600052601160045260246000fd5b6000611c2b82611407565b9150611c3683611407565b9250828203905081811115611c4e57611c4d611bf1565b5b92915050565b7f416c726561647920736869707065640000000000000000000000000000000000600082015250565b6000611c8a600f83611766565b9150611c9582611c54565b602082019050919050565b60006020820190508181036000830152611cb981611c7d565b9050919050565b6000604082019050611cd56000830185611868565b611ce260208301846116a6565b9392505050565b7f4e487b7100000000000000000000000000000000000000000000000000000000600052602260045260246000fd5b60006002820490506001821680611d3057607f821691505b602082108103611d4357611d42611ce9565b5b50919050565b60008190508160005260206000209050919050565b60006020601f8301049050919050565b600082821b905092915050565b600060088302611dab7fffffffffffffffffffffffffffffffffffffffffffffffffffffffffffffffff82611d6e565b611db58683611d6e565b95508019841693508086168417925050509392505050565b6000611de8611de3611dde84611407565b61148a565b611407565b9050919050565b6000819050919050565b611e0283611dcd565b611e16611e0e82611def565b848454611d7b565b825550505050565b600090565b611e2b611e1e565b611e36818484611df9565b505050565b5b81811015611e5a57611e4f600082611e23565b600181019050611e3c565b5050565b601f821115611e9f57611e7081611d49565b611e7984611d5e565b81016020851015611e88578190505b611e9c611e9485611d5e565b830182611e3b565b50505b505050565b600082821c905092915050565b6000611ec260001984600802611ea4565b1980831691505092915050565b6000611edb8383611eb1565b9150826002028217905092915050565b611ef48261175b565b67ffffffffffffffff811115611f0d57611f0c61151f565b5b611f178254611d18565b611f22828285611e5e565b600060209050601f831160018114611f555760008415611f43578287015190505b611f4d8582611ecf565b865550611fb5565b601f198416611f6386611d49565b60005b82811015611f8b57848901518255600182019150602085019450602081019050611f66565b86831015611fa85784890151611fa4601f891682611eb1565b8355505b6001600288020188555050505b505050505050565b6000611fc882611407565b91507fffffffffffffffffffffffffffffffffffffffffffffffffffffffffffffffff8203611ffa57611ff9611bf1565b5b600182019050919050565b7f50726f64756374206973206e6f74206163746976650000000000000000000000600082015250565b600061203b601583611766565b915061204682612005565b602082019050919050565b6000602082019050818103600083015261206a8161202e565b9050919050565b7f5061796d656e74206661696c6564000000000000000000000000000000000000600082015250565b60006120a7600e83611766565b91506120b282612071565b602082019050919050565b600060208201905081810360008301526120d68161209a565b9050919050565b60006120e882611407565b91506120f383611407565b925082820190508082111561210b5761210a611bf1565b5b92915050565b60006060820190506121266000830186611868565b61213360208301856116a6565b61214060408301846116a6565b949350505050565b600060408201905061215d60008301856116a6565b818103602083015261216f81846117a1565b90509392505050565b7f4f776e61626c653a206e6577206f776e657220697320746865207a65726f206160008201527f6464726573730000000000000000000000000000000000000000000000000000602082015250565b60006121d4602683611766565b91506121df82612178565b604082019050919050565b60006020820190508181036000830152612203816121c7565b9050919050565b7f5265656e7472616e637947756172643a207265656e7472616e742063616c6c00600082015250565b6000612240601f83611766565b915061224b8261220a565b602082019050919050565b6000602082019050818103600083015261226f81612233565b9050919050565b7f4f776e61626c653a2063616c6c6572206973206e6f7420746865206f776e6572600082015250565b60006122ac602083611766565b91506122b782612276565b602082019050919050565b600060208201905081810360008301526122db8161229f565b905091905056fea264697066735822122038331ae8452f3468078810b1b69cea4ad62359456b77a8355fd9c4490ced289a64736f6c63430008180033",
  "linkReferences": {},
  "deployedLinkReferences": {}
}