{
  "_format": "hh-sol-artifact-1",
  "contractName": "MehCrossChain",
  "sourceName": "contracts/MehCrossChain.sol",
  "abi": [
    {
      "inputs": [
        {
          "internalType": "address",
          "name": "_linkAddress",
          "type": "address"
        },
        {
          "internalType": "address",
          "name": "_router",
          "type": "address"
        },
        {
          "internalType": "uint64",
          "name": "_sourceChainSelector",
          "type": "uint64"
        }
      ],
      "stateMutability": "nonpayable",
      "type": "constructor"
    },
    {
      "inputs": [
        {
          "internalType": "address",
          "name": "router",
          "type": "address"
        }
      ],
      "name": "InvalidRouter",
      "type": "error"
    },
    {
      "anonymous": false,
      "inputs": [
        {
          "indexed": false,
          "internalType": "string",
          "name": "reason",
          "type": "string"
        }
      ],
      "name": "ErrorOccurred",
      "type": "event"
    },
    {
      "anonymous": false,
      "inputs": [
        {
          "indexed": false,
          "internalType": "bytes32",
          "name": "messageId",
          "type": "bytes32"
        },
        {
          "indexed": false,
          "internalType": "address",
          "name": "sender",
          "type": "address"
        }
      ],
      "name": "MessageReceived",
      "type": "event"
    },
    {
      "anonymous": false,
      "inputs": [
        {
          "indexed": false,
          "internalType": "bytes32",
          "name": "messageId",
          "type": "bytes32"
        }
      ],
      "name": "MessageSent",
      "type": "event"
    },
    {
      "anonymous": false,
      "inputs": [
        {
          "indexed": true,
          "internalType": "address",
          "name": "previousOwner",
          "type": "address"
        },
        {
          "indexed": true,
          "internalType": "address",
          "name": "newOwner",
          "type": "address"
        }
      ],
      "name": "OwnershipTransferred",
      "type": "event"
    },
    {
      "inputs": [
        {
          "components": [
            {
              "internalType": "bytes32",
              "name": "messageId",
              "type": "bytes32"
            },
            {
              "internalType": "uint64",
              "name": "sourceChainSelector",
              "type": "uint64"
            },
            {
              "internalType": "bytes",
              "name": "sender",
              "type": "bytes"
            },
            {
              "internalType": "bytes",
              "name": "data",
              "type": "bytes"
            },
            {
              "components": [
                {
                  "internalType": "address",
                  "name": "token",
                  "type": "address"
                },
                {
                  "internalType": "uint256",
                  "name": "amount",
                  "type": "uint256"
                }
              ],
              "internalType": "struct Client.EVMTokenAmount[]",
              "name": "destTokenAmounts",
              "type": "tuple[]"
            }
          ],
          "internalType": "struct Client.Any2EVMMessage",
          "name": "message",
          "type": "tuple"
        }
      ],
      "name": "ccipReceive",
      "outputs": [],
      "stateMutability": "nonpayable",
      "type": "function"
    },
    {
      "inputs": [],
      "name": "getRouter",
      "outputs": [
        {
          "internalType": "address",
          "name": "",
          "type": "address"
        }
      ],
      "stateMutability": "view",
      "type": "function"
    },
    {
      "inputs": [],
      "name": "linkToken",
      "outputs": [
        {
          "internalType": "contract IERC20",
          "name": "",
          "type": "address"
        }
      ],
      "stateMutability": "view",
      "type": "function"
    },
    {
      "inputs": [],
      "name": "owner",
      "outputs": [
        {
          "internalType": "address",
          "name": "",
          "type": "address"
        }
      ],
      "stateMutability": "view",
      "type": "function"
    },
    {
      "inputs": [],
      "name": "renounceOwnership",
      "outputs": [],
      "stateMutability": "nonpayable",
      "type": "function"
    },
    {
      "inputs": [],
      "name": "router",
      "outputs": [
        {
          "internalType": "contract IRouterClient",
          "name": "",
          "type": "address"
        }
      ],
      "stateMutability": "view",
      "type": "function"
    },
    {
      "inputs": [
        {
          "internalType": "address",
          "name": "_sourceContractAddress",
          "type": "address"
        }
      ],
      "name": "setSourceContractAddress",
      "outputs": [],
      "stateMutability": "nonpayable",
      "type": "function"
    },
    {
      "inputs": [],
      "name": "sourceChainSelector",
      "outputs": [
        {
          "internalType": "uint64",
          "name": "",
          "type": "uint64"
        }
      ],
      "stateMutability": "view",
      "type": "function"
    },
    {
      "inputs": [],
      "name": "sourceContractAddress",
      "outputs": [
        {
          "internalType": "address",
          "name": "",
          "type": "address"
        }
      ],
      "stateMutability": "view",
      "type": "function"
    },
    {
      "inputs": [
        {
          "internalType": "bytes4",
          "name": "interfaceId",
          "type": "bytes4"
        }
      ],
      "name": "supportsInterface",
      "outputs": [
        {
          "internalType": "bool",
          "name": "",
          "type": "bool"
        }
      ],
      "stateMutability": "pure",
      "type": "function"
    },
    {
      "inputs": [
        {
          "internalType": "address",
          "name": "newOwner",
          "type": "address"
        }
      ],
      "name": "transferOwnership",
      "outputs": [],
      "stateMutability": "nonpayable",
      "type": "function"
    },
    {
      "inputs": [],
      "name": "withdrawETH",
      "outputs": [],
      "stateMutability": "nonpayable",
      "type": "function"
    },
    {
      "stateMutability": "payable",
      "type": "receive"
    }
  ],
  "bytecode": "0x60a06040523480156200001157600080fd5b506040516200148338038062001483833981810160405281019062000037919062000331565b81600073ffffffffffffffffffffffffffffffffffffffff168173ffffffffffffffffffffffffffffffffffffffff1603620000ad5760006040517fd7f73334000000000000000000000000000000000000000000000000000000008152600401620000a491906200039e565b60405180910390fd5b8073ffffffffffffffffffffffffffffffffffffffff1660808173ffffffffffffffffffffffffffffffffffffffff16815250505062000102620000f6620001b660201b60201c565b620001be60201b60201c565b82600160006101000a81548173ffffffffffffffffffffffffffffffffffffffff021916908373ffffffffffffffffffffffffffffffffffffffff16021790555081600260006101000a81548173ffffffffffffffffffffffffffffffffffffffff021916908373ffffffffffffffffffffffffffffffffffffffff16021790555080600260146101000a81548167ffffffffffffffff021916908367ffffffffffffffff160217905550505050620003bb565b600033905090565b60008060009054906101000a900473ffffffffffffffffffffffffffffffffffffffff169050816000806101000a81548173ffffffffffffffffffffffffffffffffffffffff021916908373ffffffffffffffffffffffffffffffffffffffff1602179055508173ffffffffffffffffffffffffffffffffffffffff168173ffffffffffffffffffffffffffffffffffffffff167f8be0079c531659141344cd1fd0a4f28419497f9722a3daafe3b4186f6b6457e060405160405180910390a35050565b600080fd5b600073ffffffffffffffffffffffffffffffffffffffff82169050919050565b6000620002b48262000287565b9050919050565b620002c681620002a7565b8114620002d257600080fd5b50565b600081519050620002e681620002bb565b92915050565b600067ffffffffffffffff82169050919050565b6200030b81620002ec565b81146200031757600080fd5b50565b6000815190506200032b8162000300565b92915050565b6000806000606084860312156200034d576200034c62000282565b5b60006200035d86828701620002d5565b93505060206200037086828701620002d5565b925050604062000383868287016200031a565b9150509250925092565b6200039881620002a7565b82525050565b6000602082019050620003b560008301846200038d565b92915050565b6080516110a5620003de6000396000818161041f01526104ef01526110a56000f3fe6080604052600436106100ab5760003560e01c80638da5cb5b116100645780638da5cb5b146101b3578063b0f479a1146101de578063e086e5ec14610209578063f2fde38b14610220578063f887ea4014610249578063fbf4e70814610274576100b2565b806301ffc9a7146100b75780633a85f16a146100f457806357970e931461011f578063715018a61461014a57806373df29d31461016157806385572ffb1461018a576100b2565b366100b257005b600080fd5b3480156100c357600080fd5b506100de60048036038101906100d99190610851565b61029f565b6040516100eb9190610899565b60405180910390f35b34801561010057600080fd5b50610109610371565b60405161011691906108f5565b60405180910390f35b34801561012b57600080fd5b50610134610397565b604051610141919061096f565b60405180910390f35b34801561015657600080fd5b5061015f6103bd565b005b34801561016d57600080fd5b50610188600480360381019061018391906109b6565b6103d1565b005b34801561019657600080fd5b506101b160048036038101906101ac9190610a07565b61041d565b005b3480156101bf57600080fd5b506101c86104c2565b6040516101d591906108f5565b60405180910390f35b3480156101ea57600080fd5b506101f36104eb565b60405161020091906108f5565b60405180910390f35b34801561021557600080fd5b5061021e610513565b005b34801561022c57600080fd5b50610247600480360381019061024291906109b6565b61056b565b005b34801561025557600080fd5b5061025e6105ee565b60405161026b9190610a71565b60405180910390f35b34801561028057600080fd5b50610289610614565b6040516102969190610aaf565b60405180910390f35b60007f85572ffb000000000000000000000000000000000000000000000000000000007bffffffffffffffffffffffffffffffffffffffffffffffffffffffff1916827bffffffffffffffffffffffffffffffffffffffffffffffffffffffff1916148061036a57507f01ffc9a7000000000000000000000000000000000000000000000000000000007bffffffffffffffffffffffffffffffffffffffffffffffffffffffff1916827bffffffffffffffffffffffffffffffffffffffffffffffffffffffff1916145b9050919050565b600360009054906101000a900473ffffffffffffffffffffffffffffffffffffffff1681565b600160009054906101000a900473ffffffffffffffffffffffffffffffffffffffff1681565b6103c561062e565b6103cf60006106ac565b565b6103d961062e565b80600360006101000a81548173ffffffffffffffffffffffffffffffffffffffff021916908373ffffffffffffffffffffffffffffffffffffffff16021790555050565b7f000000000000000000000000000000000000000000000000000000000000000073ffffffffffffffffffffffffffffffffffffffff163373ffffffffffffffffffffffffffffffffffffffff16146104ad57336040517fd7f733340000000000000000000000000000000000000000000000000000000081526004016104a491906108f5565b60405180910390fd5b6104bf816104ba90610eaa565b610770565b50565b60008060009054906101000a900473ffffffffffffffffffffffffffffffffffffffff16905090565b60007f0000000000000000000000000000000000000000000000000000000000000000905090565b61051b61062e565b6105236104c2565b73ffffffffffffffffffffffffffffffffffffffff166108fc479081150290604051600060405180830381858888f19350505050158015610568573d6000803e3d6000fd5b50565b61057361062e565b600073ffffffffffffffffffffffffffffffffffffffff168173ffffffffffffffffffffffffffffffffffffffff16036105e2576040517f08c379a00000000000000000000000000000000000000000000000000000000081526004016105d990610f40565b60405180910390fd5b6105eb816106ac565b50565b600260009054906101000a900473ffffffffffffffffffffffffffffffffffffffff1681565b600260149054906101000a900467ffffffffffffffff1681565b6106366107dd565b73ffffffffffffffffffffffffffffffffffffffff166106546104c2565b73ffffffffffffffffffffffffffffffffffffffff16146106aa576040517f08c379a00000000000000000000000000000000000000000000000000000000081526004016106a190610fac565b60405180910390fd5b565b60008060009054906101000a900473ffffffffffffffffffffffffffffffffffffffff169050816000806101000a81548173ffffffffffffffffffffffffffffffffffffffff021916908373ffffffffffffffffffffffffffffffffffffffff1602179055508173ffffffffffffffffffffffffffffffffffffffff168173ffffffffffffffffffffffffffffffffffffffff167f8be0079c531659141344cd1fd0a4f28419497f9722a3daafe3b4186f6b6457e060405160405180910390a35050565b6000816000015190506000826020015190506000836040015180602001905181019061079c919061100a565b90507fc586db0dec01db54c43883a128581c790656c11c018a59334fcff74020e91dd883826040516107cf929190611046565b60405180910390a150505050565b600033905090565b6000604051905090565b600080fd5b600080fd5b60007fffffffff0000000000000000000000000000000000000000000000000000000082169050919050565b61082e816107f9565b811461083957600080fd5b50565b60008135905061084b81610825565b92915050565b600060208284031215610867576108666107ef565b5b60006108758482850161083c565b91505092915050565b60008115159050919050565b6108938161087e565b82525050565b60006020820190506108ae600083018461088a565b92915050565b600073ffffffffffffffffffffffffffffffffffffffff82169050919050565b60006108df826108b4565b9050919050565b6108ef816108d4565b82525050565b600060208201905061090a60008301846108e6565b92915050565b6000819050919050565b600061093561093061092b846108b4565b610910565b6108b4565b9050919050565b60006109478261091a565b9050919050565b60006109598261093c565b9050919050565b6109698161094e565b82525050565b60006020820190506109846000830184610960565b92915050565b610993816108d4565b811461099e57600080fd5b50565b6000813590506109b08161098a565b92915050565b6000602082840312156109cc576109cb6107ef565b5b60006109da848285016109a1565b91505092915050565b600080fd5b600060a082840312156109fe576109fd6109e3565b5b81905092915050565b600060208284031215610a1d57610a1c6107ef565b5b600082013567ffffffffffffffff811115610a3b57610a3a6107f4565b5b610a47848285016109e8565b91505092915050565b6000610a5b8261093c565b9050919050565b610a6b81610a50565b82525050565b6000602082019050610a866000830184610a62565b92915050565b600067ffffffffffffffff82169050919050565b610aa981610a8c565b82525050565b6000602082019050610ac46000830184610aa0565b92915050565b600080fd5b6000601f19601f8301169050919050565b7f4e487b7100000000000000000000000000000000000000000000000000000000600052604160045260246000fd5b610b1882610acf565b810181811067ffffffffffffffff82111715610b3757610b36610ae0565b5b80604052505050565b6000610b4a6107e5565b9050610b568282610b0f565b919050565b600080fd5b6000819050919050565b610b7381610b60565b8114610b7e57600080fd5b50565b600081359050610b9081610b6a565b92915050565b610b9f81610a8c565b8114610baa57600080fd5b50565b600081359050610bbc81610b96565b92915050565b600080fd5b600080fd5b600067ffffffffffffffff821115610be757610be6610ae0565b5b610bf082610acf565b9050602081019050919050565b82818337600083830152505050565b6000610c1f610c1a84610bcc565b610b40565b905082815260208101848484011115610c3b57610c3a610bc7565b5b610c46848285610bfd565b509392505050565b600082601f830112610c6357610c62610bc2565b5b8135610c73848260208601610c0c565b91505092915050565b600067ffffffffffffffff821115610c9757610c96610ae0565b5b602082029050602081019050919050565b600080fd5b6000819050919050565b610cc081610cad565b8114610ccb57600080fd5b50565b600081359050610cdd81610cb7565b92915050565b600060408284031215610cf957610cf8610aca565b5b610d036040610b40565b90506000610d13848285016109a1565b6000830152506020610d2784828501610cce565b60208301525092915050565b6000610d46610d4184610c7c565b610b40565b90508083825260208201905060408402830185811115610d6957610d68610ca8565b5b835b81811015610d925780610d7e8882610ce3565b845260208401935050604081019050610d6b565b5050509392505050565b600082601f830112610db157610db0610bc2565b5b8135610dc1848260208601610d33565b91505092915050565b600060a08284031215610de057610ddf610aca565b5b610dea60a0610b40565b90506000610dfa84828501610b81565b6000830152506020610e0e84828501610bad565b602083015250604082013567ffffffffffffffff811115610e3257610e31610b5b565b5b610e3e84828501610c4e565b604083015250606082013567ffffffffffffffff811115610e6257610e61610b5b565b5b610e6e84828501610c4e565b606083015250608082013567ffffffffffffffff811115610e9257610e91610b5b565b5b610e9e84828501610d9c565b60808301525092915050565b6000610eb63683610dca565b9050919050565b600082825260208201905092915050565b7f4f776e61626c653a206e6577206f776e657220697320746865207a65726f206160008201527f6464726573730000000000000000000000000000000000000000000000000000602082015250565b6000610f2a602683610ebd565b9150610f3582610ece565b604082019050919050565b60006020820190508181036000830152610f5981610f1d565b9050919050565b7f4f776e61626c653a2063616c6c6572206973206e6f7420746865206f776e6572600082015250565b6000610f96602083610ebd565b9150610fa182610f60565b602082019050919050565b60006020820190508181036000830152610fc581610f89565b9050919050565b6000610fd7826108b4565b9050919050565b610fe781610fcc565b8114610ff257600080fd5b50565b60008151905061100481610fde565b92915050565b6000602082840312156110205761101f6107ef565b5b600061102e84828501610ff5565b91505092915050565b61104081610b60565b82525050565b600060408201905061105b6000830185611037565b61106860208301846108e6565b939250505056fea26469706673582212207bb0d585295e76326da70ed99ac066ebed54c2bde90c87cd28c6158aa3bfbebc64736f6c63430008180033",
  "linkReferences": {},
  "deployedLinkReferences": {}
}