{
  "_format": "hh-sol-artifact-1",
  "contractName": "MehAdV1",
  "sourceName": "contracts/MehAdV1.sol",
  "abi": [
    {
      "inputs": [
        {
          "internalType": "string",
          "name": "name",
          "type": "string"
        },
        {
          "internalType": "string",
          "name": "symbol",
          "type": "string"
        },
        {
          "internalType": "address",
          "name": "mehTokenAddress",
          "type": "address"
        }
      ],
      "stateMutability": "nonpayable",
      "type": "constructor"
    },
    {
      "anonymous": false,
      "inputs": [
        {
          "indexed": true,
          "internalType": "address",
          "name": "owner",
          "type": "address"
        },
        {
          "indexed": true,
          "internalType": "address",
          "name": "approved",
          "type": "address"
        },
        {
          "indexed": true,
          "internalType": "uint256",
          "name": "tokenId",
          "type": "uint256"
        }
      ],
      "name": "Approval",
      "type": "event"
    },
    {
      "anonymous": false,
      "inputs": [
        {
          "indexed": true,
          "internalType": "address",
          "name": "owner",
          "type": "address"
        },
        {
          "indexed": true,
          "internalType": "address",
          "name": "operator",
          "type": "address"
        },
        {
          "indexed": false,
          "internalType": "bool",
          "name": "approved",
          "type": "bool"
        }
      ],
      "name": "ApprovalForAll",
      "type": "event"
    },
    {
      "anonymous": false,
      "inputs": [
        {
          "indexed": true,
          "internalType": "address",
          "name": "previousOwner",
          "type": "address"
        },
        {
          "indexed": true,
          "internalType": "address",
          "name": "newOwner",
          "type": "address"
        }
      ],
      "name": "OwnershipTransferred",
      "type": "event"
    },
    {
      "anonymous": false,
      "inputs": [
        {
          "indexed": true,
          "internalType": "address",
          "name": "from",
          "type": "address"
        },
        {
          "indexed": true,
          "internalType": "address",
          "name": "to",
          "type": "address"
        },
        {
          "indexed": true,
          "internalType": "uint256",
          "name": "tokenId",
          "type": "uint256"
        }
      ],
      "name": "Transfer",
      "type": "event"
    },
    {
      "inputs": [],
      "name": "adAmt",
      "outputs": [
        {
          "internalType": "uint256",
          "name": "",
          "type": "uint256"
        },
        {
          "internalType": "uint256",
          "name": "",
          "type": "uint256"
        }
      ],
      "stateMutability": "view",
      "type": "function"
    },
    {
      "inputs": [
        {
          "internalType": "address",
          "name": "to",
          "type": "address"
        },
        {
          "internalType": "uint256",
          "name": "tokenId",
          "type": "uint256"
        }
      ],
      "name": "approve",
      "outputs": [],
      "stateMutability": "nonpayable",
      "type": "function"
    },
    {
      "inputs": [
        {
          "internalType": "address",
          "name": "owner",
          "type": "address"
        }
      ],
      "name": "balanceOf",
      "outputs": [
        {
          "internalType": "uint256",
          "name": "",
          "type": "uint256"
        }
      ],
      "stateMutability": "view",
      "type": "function"
    },
    {
      "inputs": [
        {
          "internalType": "address",
          "name": "",
          "type": "address"
        }
      ],
      "name": "discounts",
      "outputs": [
        {
          "internalType": "uint256",
          "name": "",
          "type": "uint256"
        }
      ],
      "stateMutability": "view",
      "type": "function"
    },
    {
      "inputs": [
        {
          "internalType": "uint256",
          "name": "id",
          "type": "uint256"
        }
      ],
      "name": "displayAd",
      "outputs": [
        {
          "components": [
            {
              "internalType": "string",
              "name": "adURI",
              "type": "string"
            },
            {
              "internalType": "string",
              "name": "dataURI",
              "type": "string"
            },
            {
              "internalType": "bytes32",
              "name": "signatureRoot",
              "type": "bytes32"
            },
            {
              "internalType": "bytes32",
              "name": "audienceRoot",
              "type": "bytes32"
            }
          ],
          "internalType": "struct IERCAd.Ad",
          "name": "",
          "type": "tuple"
        }
      ],
      "stateMutability": "view",
      "type": "function"
    },
    {
      "inputs": [
        {
          "internalType": "uint256",
          "name": "tokenId",
          "type": "uint256"
        }
      ],
      "name": "getApproved",
      "outputs": [
        {
          "internalType": "address",
          "name": "",
          "type": "address"
        }
      ],
      "stateMutability": "view",
      "type": "function"
    },
    {
      "inputs": [
        {
          "internalType": "address",
          "name": "",
          "type": "address"
        }
      ],
      "name": "hasSigned",
      "outputs": [
        {
          "internalType": "bool",
          "name": "",
          "type": "bool"
        }
      ],
      "stateMutability": "view",
      "type": "function"
    },
    {
      "inputs": [
        {
          "internalType": "address",
          "name": "owner",
          "type": "address"
        },
        {
          "internalType": "address",
          "name": "operator",
          "type": "address"
        }
      ],
      "name": "isApprovedForAll",
      "outputs": [
        {
          "internalType": "bool",
          "name": "",
          "type": "bool"
        }
      ],
      "stateMutability": "view",
      "type": "function"
    },
    {
      "inputs": [
        {
          "internalType": "uint256",
          "name": "id",
          "type": "uint256"
        },
        {
          "internalType": "bytes32[]",
          "name": "proof",
          "type": "bytes32[]"
        }
      ],
      "name": "isInAudience",
      "outputs": [
        {
          "internalType": "bool",
          "name": "",
          "type": "bool"
        }
      ],
      "stateMutability": "view",
      "type": "function"
    },
    {
      "inputs": [],
      "name": "mehToken",
      "outputs": [
        {
          "internalType": "contract IERC20",
          "name": "",
          "type": "address"
        }
      ],
      "stateMutability": "view",
      "type": "function"
    },
    {
      "inputs": [],
      "name": "name",
      "outputs": [
        {
          "internalType": "string",
          "name": "",
          "type": "string"
        }
      ],
      "stateMutability": "view",
      "type": "function"
    },
    {
      "inputs": [],
      "name": "owner",
      "outputs": [
        {
          "internalType": "address",
          "name": "",
          "type": "address"
        }
      ],
      "stateMutability": "view",
      "type": "function"
    },
    {
      "inputs": [
        {
          "internalType": "uint256",
          "name": "tokenId",
          "type": "uint256"
        }
      ],
      "name": "ownerOf",
      "outputs": [
        {
          "internalType": "address",
          "name": "",
          "type": "address"
        }
      ],
      "stateMutability": "view",
      "type": "function"
    },
    {
      "inputs": [],
      "name": "renounceOwnership",
      "outputs": [],
      "stateMutability": "nonpayable",
      "type": "function"
    },
    {
      "inputs": [
        {
          "internalType": "address",
          "name": "from",
          "type": "address"
        },
        {
          "internalType": "address",
          "name": "to",
          "type": "address"
        },
        {
          "internalType": "uint256",
          "name": "tokenId",
          "type": "uint256"
        }
      ],
      "name": "safeTransferFrom",
      "outputs": [],
      "stateMutability": "nonpayable",
      "type": "function"
    },
    {
      "inputs": [
        {
          "internalType": "address",
          "name": "from",
          "type": "address"
        },
        {
          "internalType": "address",
          "name": "to",
          "type": "address"
        },
        {
          "internalType": "uint256",
          "name": "tokenId",
          "type": "uint256"
        },
        {
          "internalType": "bytes",
          "name": "data",
          "type": "bytes"
        }
      ],
      "name": "safeTransferFrom",
      "outputs": [],
      "stateMutability": "nonpayable",
      "type": "function"
    },
    {
      "inputs": [
        {
          "internalType": "string",
          "name": "adURI",
          "type": "string"
        },
        {
          "internalType": "string",
          "name": "dataURI",
          "type": "string"
        },
        {
          "internalType": "bytes32",
          "name": "signatureRoot",
          "type": "bytes32"
        },
        {
          "internalType": "bytes32",
          "name": "audienceRoot",
          "type": "bytes32"
        }
      ],
      "name": "setAd",
      "outputs": [],
      "stateMutability": "nonpayable",
      "type": "function"
    },
    {
      "inputs": [
        {
          "internalType": "address",
          "name": "operator",
          "type": "address"
        },
        {
          "internalType": "bool",
          "name": "approved",
          "type": "bool"
        }
      ],
      "name": "setApprovalForAll",
      "outputs": [],
      "stateMutability": "nonpayable",
      "type": "function"
    },
    {
      "inputs": [
        {
          "internalType": "uint256",
          "name": "id",
          "type": "uint256"
        },
        {
          "internalType": "bytes32[]",
          "name": "proof",
          "type": "bytes32[]"
        }
      ],
      "name": "signAd",
      "outputs": [],
      "stateMutability": "nonpayable",
      "type": "function"
    },
    {
      "inputs": [
        {
          "internalType": "bytes4",
          "name": "interfaceId",
          "type": "bytes4"
        }
      ],
      "name": "supportsInterface",
      "outputs": [
        {
          "internalType": "bool",
          "name": "",
          "type": "bool"
        }
      ],
      "stateMutability": "view",
      "type": "function"
    },
    {
      "inputs": [],
      "name": "symbol",
      "outputs": [
        {
          "internalType": "string",
          "name": "",
          "type": "string"
        }
      ],
      "stateMutability": "view",
      "type": "function"
    },
    {
      "inputs": [
        {
          "internalType": "uint256",
          "name": "tokenId",
          "type": "uint256"
        }
      ],
      "name": "tokenURI",
      "outputs": [
        {
          "internalType": "string",
          "name": "",
          "type": "string"
        }
      ],
      "stateMutability": "view",
      "type": "function"
    },
    {
      "inputs": [
        {
          "internalType": "address",
          "name": "from",
          "type": "address"
        },
        {
          "internalType": "address",
          "name": "to",
          "type": "address"
        },
        {
          "internalType": "uint256",
          "name": "tokenId",
          "type": "uint256"
        }
      ],
      "name": "transferFrom",
      "outputs": [],
      "stateMutability": "nonpayable",
      "type": "function"
    },
    {
      "inputs": [
        {
          "internalType": "address",
          "name": "newOwner",
          "type": "address"
        }
      ],
      "name": "transferOwnership",
      "outputs": [],
      "stateMutability": "nonpayable",
      "type": "function"
    }
  ],
  "bytecode": "0x60806040523480156200001157600080fd5b50604051620040a0380380620040a0833981810160405281019062000037919062000393565b8282818181600090816200004c919062000678565b5080600190816200005e919062000678565b5050506200008162000075620000cd60201b60201c565b620000d560201b60201c565b505080600e60006101000a81548173ffffffffffffffffffffffffffffffffffffffff021916908373ffffffffffffffffffffffffffffffffffffffff1602179055505050506200075f565b600033905090565b6000600660009054906101000a900473ffffffffffffffffffffffffffffffffffffffff16905081600660006101000a81548173ffffffffffffffffffffffffffffffffffffffff021916908373ffffffffffffffffffffffffffffffffffffffff1602179055508173ffffffffffffffffffffffffffffffffffffffff168173ffffffffffffffffffffffffffffffffffffffff167f8be0079c531659141344cd1fd0a4f28419497f9722a3daafe3b4186f6b6457e060405160405180910390a35050565b6000604051905090565b600080fd5b600080fd5b600080fd5b600080fd5b6000601f19601f8301169050919050565b7f4e487b7100000000000000000000000000000000000000000000000000000000600052604160045260246000fd5b6200020482620001b9565b810181811067ffffffffffffffff82111715620002265762000225620001ca565b5b80604052505050565b60006200023b6200019b565b9050620002498282620001f9565b919050565b600067ffffffffffffffff8211156200026c576200026b620001ca565b5b6200027782620001b9565b9050602081019050919050565b60005b83811015620002a457808201518184015260208101905062000287565b60008484015250505050565b6000620002c7620002c1846200024e565b6200022f565b905082815260208101848484011115620002e657620002e5620001b4565b5b620002f384828562000284565b509392505050565b600082601f830112620003135762000312620001af565b5b815162000325848260208601620002b0565b91505092915050565b600073ffffffffffffffffffffffffffffffffffffffff82169050919050565b60006200035b826200032e565b9050919050565b6200036d816200034e565b81146200037957600080fd5b50565b6000815190506200038d8162000362565b92915050565b600080600060608486031215620003af57620003ae620001a5565b5b600084015167ffffffffffffffff811115620003d057620003cf620001aa565b5b620003de86828701620002fb565b935050602084015167ffffffffffffffff811115620004025762000401620001aa565b5b6200041086828701620002fb565b925050604062000423868287016200037c565b9150509250925092565b600081519050919050565b7f4e487b7100000000000000000000000000000000000000000000000000000000600052602260045260246000fd5b600060028204905060018216806200048057607f821691505b60208210810362000496576200049562000438565b5b50919050565b60008190508160005260206000209050919050565b60006020601f8301049050919050565b600082821b905092915050565b600060088302620005007fffffffffffffffffffffffffffffffffffffffffffffffffffffffffffffffff82620004c1565b6200050c8683620004c1565b95508019841693508086168417925050509392505050565b6000819050919050565b6000819050919050565b600062000559620005536200054d8462000524565b6200052e565b62000524565b9050919050565b6000819050919050565b620005758362000538565b6200058d620005848262000560565b848454620004ce565b825550505050565b600090565b620005a462000595565b620005b18184846200056a565b505050565b5b81811015620005d957620005cd6000826200059a565b600181019050620005b7565b5050565b601f8211156200062857620005f2816200049c565b620005fd84620004b1565b810160208510156200060d578190505b620006256200061c85620004b1565b830182620005b6565b50505b505050565b600082821c905092915050565b60006200064d600019846008026200062d565b1980831691505092915050565b60006200066883836200063a565b9150826002028217905092915050565b62000683826200042d565b67ffffffffffffffff8111156200069f576200069e620001ca565b5b620006ab825462000467565b620006b8828285620005dd565b600060209050601f831160018114620006f05760008415620006db578287015190505b620006e785826200065a565b86555062000757565b601f19841662000700866200049c565b60005b828110156200072a5784890151825560018201915060208501945060208101905062000703565b868310156200074a578489015162000746601f8916826200063a565b8355505b6001600288020188555050505b505050505050565b613931806200076f6000396000f3fe608060405234801561001057600080fd5b50600436106101585760003560e01c80638da5cb5b116100c3578063d13e2af91161007c578063d13e2af9146103ec578063dfe194fe14610408578063e2c2c88414610438578063e985e9c514610456578063f2fde38b14610486578063fe49e833146104a257610158565b80638da5cb5b1461031857806395d89b4114610336578063a22cb46514610354578063b88d4fde14610370578063bf6a14131461038c578063c87b56dd146103bc57610158565b806342842e0e1161011557806342842e0e146102435780634c2c315a1461025f5780636352211e1461027e578063672fb969146102ae57806370a08231146102de578063715018a61461030e57610158565b806301ffc9a71461015d57806306fdde031461018d578063081812fc146101ab578063095ea7b3146101db5780630fff4474146101f757806323b872dd14610227575b600080fd5b610177600480360381019061017291906120d5565b6104be565b604051610184919061211d565b60405180910390f35b6101956105a0565b6040516101a291906121c8565b60405180910390f35b6101c560048036038101906101c09190612220565b610632565b6040516101d2919061228e565b60405180910390f35b6101f560048036038101906101f091906122d5565b610678565b005b610211600480360381019061020c9190612315565b61078f565b60405161021e9190612351565b60405180910390f35b610241600480360381019061023c919061236c565b6107a7565b005b61025d6004803603810190610258919061236c565b610807565b005b610267610827565b6040516102759291906123bf565b60405180910390f35b61029860048036038101906102939190612220565b6108c0565b6040516102a5919061228e565b60405180910390f35b6102c860048036038101906102c39190612220565b610946565b6040516102d591906124b5565b60405180910390f35b6102f860048036038101906102f39190612315565b610aab565b6040516103059190612351565b60405180910390f35b610316610b62565b005b610320610b76565b60405161032d919061228e565b60405180910390f35b61033e610ba0565b60405161034b91906121c8565b60405180910390f35b61036e60048036038101906103699190612503565b610c32565b005b61038a60048036038101906103859190612678565b610c48565b005b6103a660048036038101906103a19190612315565b610caa565b6040516103b3919061211d565b60405180910390f35b6103d660048036038101906103d19190612220565b610cca565b6040516103e391906121c8565b60405180910390f35b610406600480360381019061040191906127c8565b610da9565b005b610422600480360381019061041d91906128c7565b610ea7565b60405161042f919061211d565b60405180910390f35b610440610fa7565b60405161044d9190612986565b60405180910390f35b610470600480360381019061046b91906129a1565b610fcd565b60405161047d919061211d565b60405180910390f35b6104a0600480360381019061049b9190612315565b611061565b005b6104bc60048036038101906104b791906128c7565b6110e4565b005b60007f80ac58cd000000000000000000000000000000000000000000000000000000007bffffffffffffffffffffffffffffffffffffffffffffffffffffffff1916827bffffffffffffffffffffffffffffffffffffffffffffffffffffffff1916148061058957507f5b5e139f000000000000000000000000000000000000000000000000000000007bffffffffffffffffffffffffffffffffffffffffffffffffffffffff1916827bffffffffffffffffffffffffffffffffffffffffffffffffffffffff1916145b806105995750610598826111a3565b5b9050919050565b6060600080546105af90612a10565b80601f01602080910402602001604051908101604052809291908181526020018280546105db90612a10565b80156106285780601f106105fd57610100808354040283529160200191610628565b820191906000526020600020905b81548152906001019060200180831161060b57829003601f168201915b5050505050905090565b600061063d8261120d565b6004600083815260200190815260200160002060009054906101000a900473ffffffffffffffffffffffffffffffffffffffff169050919050565b6000610683826108c0565b90508073ffffffffffffffffffffffffffffffffffffffff168373ffffffffffffffffffffffffffffffffffffffff16036106f3576040517f08c379a00000000000000000000000000000000000000000000000000000000081526004016106ea90612ab3565b60405180910390fd5b8073ffffffffffffffffffffffffffffffffffffffff16610712611258565b73ffffffffffffffffffffffffffffffffffffffff16148061074157506107408161073b611258565b610fcd565b5b610780576040517f08c379a000000000000000000000000000000000000000000000000000000000815260040161077790612b45565b60405180910390fd5b61078a8383611260565b505050565b600f6020528060005260406000206000915090505481565b6107b86107b2611258565b82611319565b6107f7576040517f08c379a00000000000000000000000000000000000000000000000000000000081526004016107ee90612bd7565b60405180910390fd5b6108028383836113ae565b505050565b61082283838360405180602001604052806000815250610c48565b505050565b60008060003373ffffffffffffffffffffffffffffffffffffffff163190506000670de0b6b3a7640000905060008183836161a86108659190612c26565b61086f9190612c26565b6108799190612c97565b826161a86108879190612c26565b6108919190612cc8565b90506934f086f3b33b684000008111156108b3576934f086f3b33b6840000090505b8083945094505050509091565b6000806108cc836116a7565b9050600073ffffffffffffffffffffffffffffffffffffffff168173ffffffffffffffffffffffffffffffffffffffff160361093d576040517f08c379a000000000000000000000000000000000000000000000000000000000815260040161093490612d48565b60405180910390fd5b80915050919050565b61094e61203b565b600c600083815260200190815260200160002060405180608001604052908160008201805461097c90612a10565b80601f01602080910402602001604051908101604052809291908181526020018280546109a890612a10565b80156109f55780601f106109ca576101008083540402835291602001916109f5565b820191906000526020600020905b8154815290600101906020018083116109d857829003601f168201915b50505050508152602001600182018054610a0e90612a10565b80601f0160208091040260200160405190810160405280929190818152602001828054610a3a90612a10565b8015610a875780601f10610a5c57610100808354040283529160200191610a87565b820191906000526020600020905b815481529060010190602001808311610a6a57829003601f168201915b50505050508152602001600282015481526020016003820154815250509050919050565b60008073ffffffffffffffffffffffffffffffffffffffff168273ffffffffffffffffffffffffffffffffffffffff1603610b1b576040517f08c379a0000000000000000000000000000000000000000000000000000000008152600401610b1290612dda565b60405180910390fd5b600360008373ffffffffffffffffffffffffffffffffffffffff1673ffffffffffffffffffffffffffffffffffffffff168152602001908152602001600020549050919050565b610b6a6116e4565b610b746000611762565b565b6000600660009054906101000a900473ffffffffffffffffffffffffffffffffffffffff16905090565b606060018054610baf90612a10565b80601f0160208091040260200160405190810160405280929190818152602001828054610bdb90612a10565b8015610c285780601f10610bfd57610100808354040283529160200191610c28565b820191906000526020600020905b815481529060010190602001808311610c0b57829003601f168201915b5050505050905090565b610c44610c3d611258565b8383611828565b5050565b610c59610c53611258565b83611319565b610c98576040517f08c379a0000000000000000000000000000000000000000000000000000000008152600401610c8f90612bd7565b60405180910390fd5b610ca484848484611994565b50505050565b600d6020528060005260406000206000915054906101000a900460ff1681565b6060610cd5826119f0565b610d14576040517f08c379a0000000000000000000000000000000000000000000000000000000008152600401610d0b90612e6c565b60405180910390fd5b60086000018054610d2490612a10565b80601f0160208091040260200160405190810160405280929190818152602001828054610d5090612a10565b8015610d9d5780601f10610d7257610100808354040283529160200191610d9d565b820191906000526020600020905b815481529060010190602001808311610d8057829003601f168201915b50505050509050919050565b610db16116e4565b610dbb6007611a31565b6000610dc76007611a47565b9050604051806080016040528086815260200185815260200184815260200183815250600c60008381526020019081526020016000206000820151816000019081610e12919061302e565b506020820151816001019081610e28919061302e565b506040820151816002015560608201518160030155905050610e4a3382611a55565b600c6000828152602001908152602001600020600860008201816000019081610e739190613116565b5060018201816001019081610e889190613116565b5060028201548160020155600382015481600301559050505050505050565b6000610eb2846119f0565b610ef1576040517f08c379a0000000000000000000000000000000000000000000000000000000008152600401610ee89061324a565b60405180910390fd5b6000600c600086815260200190815260200160002090506000801b816003015414610f9a57600033604051602001610f2991906132b2565b604051602081830303815290604052805190602001209050610f91858580806020026020016040519081016040528093929190818152602001838360200280828437600081840152601f19601f82011690508083019250505050505050836003015483611c72565b92505050610fa0565b60019150505b9392505050565b600e60009054906101000a900473ffffffffffffffffffffffffffffffffffffffff1681565b6000600560008473ffffffffffffffffffffffffffffffffffffffff1673ffffffffffffffffffffffffffffffffffffffff16815260200190815260200160002060008373ffffffffffffffffffffffffffffffffffffffff1673ffffffffffffffffffffffffffffffffffffffff16815260200190815260200160002060009054906101000a900460ff16905092915050565b6110696116e4565b600073ffffffffffffffffffffffffffffffffffffffff168173ffffffffffffffffffffffffffffffffffffffff16036110d8576040517f08c379a00000000000000000000000000000000000000000000000000000000081526004016110cf9061333f565b60405180910390fd5b6110e181611762565b50565b6110ef838383611c89565b60006110f9610827565b509050600e60009054906101000a900473ffffffffffffffffffffffffffffffffffffffff1673ffffffffffffffffffffffffffffffffffffffff1663a9059cbb33836040518363ffffffff1660e01b815260040161115992919061335f565b6020604051808303816000875af1158015611178573d6000803e3d6000fd5b505050506040513d601f19601f8201168201806040525081019061119c919061339d565b5050505050565b60007f01ffc9a7000000000000000000000000000000000000000000000000000000007bffffffffffffffffffffffffffffffffffffffffffffffffffffffff1916827bffffffffffffffffffffffffffffffffffffffffffffffffffffffff1916149050919050565b611216816119f0565b611255576040517f08c379a000000000000000000000000000000000000000000000000000000000815260040161124c90612d48565b60405180910390fd5b50565b600033905090565b816004600083815260200190815260200160002060006101000a81548173ffffffffffffffffffffffffffffffffffffffff021916908373ffffffffffffffffffffffffffffffffffffffff160217905550808273ffffffffffffffffffffffffffffffffffffffff166112d3836108c0565b73ffffffffffffffffffffffffffffffffffffffff167f8c5be1e5ebec7d5bd14f71427d1e84f3dd0314c0f7b2291e5b200ac8c7c3b92560405160405180910390a45050565b600080611325836108c0565b90508073ffffffffffffffffffffffffffffffffffffffff168473ffffffffffffffffffffffffffffffffffffffff16148061136757506113668185610fcd565b5b806113a557508373ffffffffffffffffffffffffffffffffffffffff1661138d84610632565b73ffffffffffffffffffffffffffffffffffffffff16145b91505092915050565b8273ffffffffffffffffffffffffffffffffffffffff166113ce826108c0565b73ffffffffffffffffffffffffffffffffffffffff1614611424576040517f08c379a000000000000000000000000000000000000000000000000000000000815260040161141b9061343c565b60405180910390fd5b600073ffffffffffffffffffffffffffffffffffffffff168273ffffffffffffffffffffffffffffffffffffffff1603611493576040517f08c379a000000000000000000000000000000000000000000000000000000000815260040161148a906134ce565b60405180910390fd5b6114a08383836001611df3565b8273ffffffffffffffffffffffffffffffffffffffff166114c0826108c0565b73ffffffffffffffffffffffffffffffffffffffff1614611516576040517f08c379a000000000000000000000000000000000000000000000000000000000815260040161150d9061343c565b60405180910390fd5b6004600082815260200190815260200160002060006101000a81549073ffffffffffffffffffffffffffffffffffffffff02191690556001600360008573ffffffffffffffffffffffffffffffffffffffff1673ffffffffffffffffffffffffffffffffffffffff168152602001908152602001600020600082825403925050819055506001600360008473ffffffffffffffffffffffffffffffffffffffff1673ffffffffffffffffffffffffffffffffffffffff16815260200190815260200160002060008282540192505081905550816002600083815260200190815260200160002060006101000a81548173ffffffffffffffffffffffffffffffffffffffff021916908373ffffffffffffffffffffffffffffffffffffffff160217905550808273ffffffffffffffffffffffffffffffffffffffff168473ffffffffffffffffffffffffffffffffffffffff167fddf252ad1be2c89b69c2b068fc378daa952ba7f163c4a11628f55a4df523b3ef60405160405180910390a46116a28383836001611df9565b505050565b60006002600083815260200190815260200160002060009054906101000a900473ffffffffffffffffffffffffffffffffffffffff169050919050565b6116ec611258565b73ffffffffffffffffffffffffffffffffffffffff1661170a610b76565b73ffffffffffffffffffffffffffffffffffffffff1614611760576040517f08c379a00000000000000000000000000000000000000000000000000000000081526004016117579061353a565b60405180910390fd5b565b6000600660009054906101000a900473ffffffffffffffffffffffffffffffffffffffff16905081600660006101000a81548173ffffffffffffffffffffffffffffffffffffffff021916908373ffffffffffffffffffffffffffffffffffffffff1602179055508173ffffffffffffffffffffffffffffffffffffffff168173ffffffffffffffffffffffffffffffffffffffff167f8be0079c531659141344cd1fd0a4f28419497f9722a3daafe3b4186f6b6457e060405160405180910390a35050565b8173ffffffffffffffffffffffffffffffffffffffff168373ffffffffffffffffffffffffffffffffffffffff1603611896576040517f08c379a000000000000000000000000000000000000000000000000000000000815260040161188d906135a6565b60405180910390fd5b80600560008573ffffffffffffffffffffffffffffffffffffffff1673ffffffffffffffffffffffffffffffffffffffff16815260200190815260200160002060008473ffffffffffffffffffffffffffffffffffffffff1673ffffffffffffffffffffffffffffffffffffffff16815260200190815260200160002060006101000a81548160ff0219169083151502179055508173ffffffffffffffffffffffffffffffffffffffff168373ffffffffffffffffffffffffffffffffffffffff167f17307eab39ab6107e8899845ad3d59bd9653f200f220920489ca2b5937696c3183604051611987919061211d565b60405180910390a3505050565b61199f8484846113ae565b6119ab84848484611dff565b6119ea576040517f08c379a00000000000000000000000000000000000000000000000000000000081526004016119e190613638565b60405180910390fd5b50505050565b60008073ffffffffffffffffffffffffffffffffffffffff16611a12836116a7565b73ffffffffffffffffffffffffffffffffffffffff1614159050919050565b6001816000016000828254019250508190555050565b600081600001549050919050565b600073ffffffffffffffffffffffffffffffffffffffff168273ffffffffffffffffffffffffffffffffffffffff1603611ac4576040517f08c379a0000000000000000000000000000000000000000000000000000000008152600401611abb906136a4565b60405180910390fd5b611acd816119f0565b15611b0d576040517f08c379a0000000000000000000000000000000000000000000000000000000008152600401611b0490613710565b60405180910390fd5b611b1b600083836001611df3565b611b24816119f0565b15611b64576040517f08c379a0000000000000000000000000000000000000000000000000000000008152600401611b5b90613710565b60405180910390fd5b6001600360008473ffffffffffffffffffffffffffffffffffffffff1673ffffffffffffffffffffffffffffffffffffffff16815260200190815260200160002060008282540192505081905550816002600083815260200190815260200160002060006101000a81548173ffffffffffffffffffffffffffffffffffffffff021916908373ffffffffffffffffffffffffffffffffffffffff160217905550808273ffffffffffffffffffffffffffffffffffffffff16600073ffffffffffffffffffffffffffffffffffffffff167fddf252ad1be2c89b69c2b068fc378daa952ba7f163c4a11628f55a4df523b3ef60405160405180910390a4611c6e600083836001611df9565b5050565b600082611c7f8584611f86565b1490509392505050565b611c92836119f0565b611cd1576040517f08c379a0000000000000000000000000000000000000000000000000000000008152600401611cc89061324a565b60405180910390fd5b6000600c600085815260200190815260200160002090506000801b816003015414611db257600033604051602001611d0991906132b2565b604051602081830303815290604052805190602001209050611d71848480806020026020016040519081016040528093929190818152602001838360200280828437600081840152601f19601f82011690508083019250505050505050836003015483611c72565b611db0576040517f08c379a0000000000000000000000000000000000000000000000000000000008152600401611da79061377c565b60405180910390fd5b505b6000816002015433604051602001611dcb9291906137bd565b6040516020818303038152906040529050808051906020012082600201819055505050505050565b50505050565b50505050565b6000611e208473ffffffffffffffffffffffffffffffffffffffff16611fd6565b15611f79578373ffffffffffffffffffffffffffffffffffffffff1663150b7a02611e49611258565b8786866040518563ffffffff1660e01b8152600401611e6b949392919061383e565b6020604051808303816000875af1925050508015611ea757506040513d601f19601f82011682018060405250810190611ea4919061389f565b60015b611f29573d8060008114611ed7576040519150601f19603f3d011682016040523d82523d6000602084013e611edc565b606091505b506000815103611f21576040517f08c379a0000000000000000000000000000000000000000000000000000000008152600401611f1890613638565b60405180910390fd5b805181602001fd5b63150b7a0260e01b7bffffffffffffffffffffffffffffffffffffffffffffffffffffffff1916817bffffffffffffffffffffffffffffffffffffffffffffffffffffffff191614915050611f7e565b600190505b949350505050565b60008082905060005b8451811015611fcb57611fbc82868381518110611faf57611fae6138cc565b5b6020026020010151611ff9565b91508080600101915050611f8f565b508091505092915050565b6000808273ffffffffffffffffffffffffffffffffffffffff163b119050919050565b60008183106120115761200c8284612024565b61201c565b61201b8383612024565b5b905092915050565b600082600052816020526040600020905092915050565b6040518060800160405280606081526020016060815260200160008019168152602001600080191681525090565b6000604051905090565b600080fd5b600080fd5b60007fffffffff0000000000000000000000000000000000000000000000000000000082169050919050565b6120b28161207d565b81146120bd57600080fd5b50565b6000813590506120cf816120a9565b92915050565b6000602082840312156120eb576120ea612073565b5b60006120f9848285016120c0565b91505092915050565b60008115159050919050565b61211781612102565b82525050565b6000602082019050612132600083018461210e565b92915050565b600081519050919050565b600082825260208201905092915050565b60005b83811015612172578082015181840152602081019050612157565b60008484015250505050565b6000601f19601f8301169050919050565b600061219a82612138565b6121a48185612143565b93506121b4818560208601612154565b6121bd8161217e565b840191505092915050565b600060208201905081810360008301526121e2818461218f565b905092915050565b6000819050919050565b6121fd816121ea565b811461220857600080fd5b50565b60008135905061221a816121f4565b92915050565b60006020828403121561223657612235612073565b5b60006122448482850161220b565b91505092915050565b600073ffffffffffffffffffffffffffffffffffffffff82169050919050565b60006122788261224d565b9050919050565b6122888161226d565b82525050565b60006020820190506122a3600083018461227f565b92915050565b6122b28161226d565b81146122bd57600080fd5b50565b6000813590506122cf816122a9565b92915050565b600080604083850312156122ec576122eb612073565b5b60006122fa858286016122c0565b925050602061230b8582860161220b565b9150509250929050565b60006020828403121561232b5761232a612073565b5b6000612339848285016122c0565b91505092915050565b61234b816121ea565b82525050565b60006020820190506123666000830184612342565b92915050565b60008060006060848603121561238557612384612073565b5b6000612393868287016122c0565b93505060206123a4868287016122c0565b92505060406123b58682870161220b565b9150509250925092565b60006040820190506123d46000830185612342565b6123e16020830184612342565b9392505050565b600082825260208201905092915050565b600061240482612138565b61240e81856123e8565b935061241e818560208601612154565b6124278161217e565b840191505092915050565b6000819050919050565b61244581612432565b82525050565b6000608083016000830151848203600086015261246882826123f9565b9150506020830151848203602086015261248282826123f9565b9150506040830151612497604086018261243c565b5060608301516124aa606086018261243c565b508091505092915050565b600060208201905081810360008301526124cf818461244b565b905092915050565b6124e081612102565b81146124eb57600080fd5b50565b6000813590506124fd816124d7565b92915050565b6000806040838503121561251a57612519612073565b5b6000612528858286016122c0565b9250506020612539858286016124ee565b9150509250929050565b600080fd5b600080fd5b7f4e487b7100000000000000000000000000000000000000000000000000000000600052604160045260246000fd5b6125858261217e565b810181811067ffffffffffffffff821117156125a4576125a361254d565b5b80604052505050565b60006125b7612069565b90506125c3828261257c565b919050565b600067ffffffffffffffff8211156125e3576125e261254d565b5b6125ec8261217e565b9050602081019050919050565b82818337600083830152505050565b600061261b612616846125c8565b6125ad565b90508281526020810184848401111561263757612636612548565b5b6126428482856125f9565b509392505050565b600082601f83011261265f5761265e612543565b5b813561266f848260208601612608565b91505092915050565b6000806000806080858703121561269257612691612073565b5b60006126a0878288016122c0565b94505060206126b1878288016122c0565b93505060406126c28782880161220b565b925050606085013567ffffffffffffffff8111156126e3576126e2612078565b5b6126ef8782880161264a565b91505092959194509250565b600067ffffffffffffffff8211156127165761271561254d565b5b61271f8261217e565b9050602081019050919050565b600061273f61273a846126fb565b6125ad565b90508281526020810184848401111561275b5761275a612548565b5b6127668482856125f9565b509392505050565b600082601f83011261278357612782612543565b5b813561279384826020860161272c565b91505092915050565b6127a581612432565b81146127b057600080fd5b50565b6000813590506127c28161279c565b92915050565b600080600080608085870312156127e2576127e1612073565b5b600085013567ffffffffffffffff811115612800576127ff612078565b5b61280c8782880161276e565b945050602085013567ffffffffffffffff81111561282d5761282c612078565b5b6128398782880161276e565b935050604061284a878288016127b3565b925050606061285b878288016127b3565b91505092959194509250565b600080fd5b600080fd5b60008083601f84011261288757612886612543565b5b8235905067ffffffffffffffff8111156128a4576128a3612867565b5b6020830191508360208202830111156128c0576128bf61286c565b5b9250929050565b6000806000604084860312156128e0576128df612073565b5b60006128ee8682870161220b565b935050602084013567ffffffffffffffff81111561290f5761290e612078565b5b61291b86828701612871565b92509250509250925092565b6000819050919050565b600061294c6129476129428461224d565b612927565b61224d565b9050919050565b600061295e82612931565b9050919050565b600061297082612953565b9050919050565b61298081612965565b82525050565b600060208201905061299b6000830184612977565b92915050565b600080604083850312156129b8576129b7612073565b5b60006129c6858286016122c0565b92505060206129d7858286016122c0565b9150509250929050565b7f4e487b7100000000000000000000000000000000000000000000000000000000600052602260045260246000fd5b60006002820490506001821680612a2857607f821691505b602082108103612a3b57612a3a6129e1565b5b50919050565b7f4552433732313a20617070726f76616c20746f2063757272656e74206f776e6560008201527f7200000000000000000000000000000000000000000000000000000000000000602082015250565b6000612a9d602183612143565b9150612aa882612a41565b604082019050919050565b60006020820190508181036000830152612acc81612a90565b9050919050565b7f4552433732313a20617070726f76652063616c6c6572206973206e6f7420746f60008201527f6b656e206f776e6572206f7220617070726f76656420666f7220616c6c000000602082015250565b6000612b2f603d83612143565b9150612b3a82612ad3565b604082019050919050565b60006020820190508181036000830152612b5e81612b22565b9050919050565b7f4552433732313a2063616c6c6572206973206e6f7420746f6b656e206f776e6560008201527f72206f7220617070726f76656400000000000000000000000000000000000000602082015250565b6000612bc1602d83612143565b9150612bcc82612b65565b604082019050919050565b60006020820190508181036000830152612bf081612bb4565b9050919050565b7f4e487b7100000000000000000000000000000000000000000000000000000000600052601160045260246000fd5b6000612c31826121ea565b9150612c3c836121ea565b9250828202612c4a816121ea565b91508282048414831517612c6157612c60612bf7565b5b5092915050565b7f4e487b7100000000000000000000000000000000000000000000000000000000600052601260045260246000fd5b6000612ca2826121ea565b9150612cad836121ea565b925082612cbd57612cbc612c68565b5b828204905092915050565b6000612cd3826121ea565b9150612cde836121ea565b9250828201905080821115612cf657612cf5612bf7565b5b92915050565b7f4552433732313a20696e76616c696420746f6b656e2049440000000000000000600082015250565b6000612d32601883612143565b9150612d3d82612cfc565b602082019050919050565b60006020820190508181036000830152612d6181612d25565b9050919050565b7f4552433732313a2061646472657373207a65726f206973206e6f74206120766160008201527f6c6964206f776e65720000000000000000000000000000000000000000000000602082015250565b6000612dc4602983612143565b9150612dcf82612d68565b604082019050919050565b60006020820190508181036000830152612df381612db7565b9050919050565b7f4552433732314d657461646174613a2055524920717565727920666f72206e6f60008201527f6e6578697374656e7420746f6b656e0000000000000000000000000000000000602082015250565b6000612e56602f83612143565b9150612e6182612dfa565b604082019050919050565b60006020820190508181036000830152612e8581612e49565b9050919050565b60008190508160005260206000209050919050565b60006020601f8301049050919050565b600082821b905092915050565b600060088302612eee7fffffffffffffffffffffffffffffffffffffffffffffffffffffffffffffffff82612eb1565b612ef88683612eb1565b95508019841693508086168417925050509392505050565b6000612f2b612f26612f21846121ea565b612927565b6121ea565b9050919050565b6000819050919050565b612f4583612f10565b612f59612f5182612f32565b848454612ebe565b825550505050565b600090565b612f6e612f61565b612f79818484612f3c565b505050565b5b81811015612f9d57612f92600082612f66565b600181019050612f7f565b5050565b601f821115612fe257612fb381612e8c565b612fbc84612ea1565b81016020851015612fcb578190505b612fdf612fd785612ea1565b830182612f7e565b50505b505050565b600082821c905092915050565b600061300560001984600802612fe7565b1980831691505092915050565b600061301e8383612ff4565b9150826002028217905092915050565b61303782612138565b67ffffffffffffffff8111156130505761304f61254d565b5b61305a8254612a10565b613065828285612fa1565b600060209050601f8311600181146130985760008415613086578287015190505b6130908582613012565b8655506130f8565b601f1984166130a686612e8c565b60005b828110156130ce578489015182556001820191506020850194506020810190506130a9565b868310156130eb57848901516130e7601f891682612ff4565b8355505b6001600288020188555050505b505050505050565b60008154905061310f81612a10565b9050919050565b8181036131245750506131fc565b61312d82613100565b67ffffffffffffffff8111156131465761314561254d565b5b6131508254612a10565b61315b828285612fa1565b6000601f83116001811461318a5760008415613178578287015490505b6131828582613012565b8655506131f5565b601f19841661319887612e8c565b96506131a386612e8c565b60005b828110156131cb578489015482556001820191506001850194506020810190506131a6565b868310156131e857848901546131e4601f891682612ff4565b8355505b6001600288020188555050505b5050505050505b565b7f4552433732313a20616420646f6573206e6f7420657869737400000000000000600082015250565b6000613234601983612143565b915061323f826131fe565b602082019050919050565b6000602082019050818103600083015261326381613227565b9050919050565b60008160601b9050919050565b60006132828261326a565b9050919050565b600061329482613277565b9050919050565b6132ac6132a78261226d565b613289565b82525050565b60006132be828461329b565b60148201915081905092915050565b7f4f776e61626c653a206e6577206f776e657220697320746865207a65726f206160008201527f6464726573730000000000000000000000000000000000000000000000000000602082015250565b6000613329602683612143565b9150613334826132cd565b604082019050919050565b600060208201905081810360008301526133588161331c565b9050919050565b6000604082019050613374600083018561227f565b6133816020830184612342565b9392505050565b600081519050613397816124d7565b92915050565b6000602082840312156133b3576133b2612073565b5b60006133c184828501613388565b91505092915050565b7f4552433732313a207472616e736665722066726f6d20696e636f72726563742060008201527f6f776e6572000000000000000000000000000000000000000000000000000000602082015250565b6000613426602583612143565b9150613431826133ca565b604082019050919050565b6000602082019050818103600083015261345581613419565b9050919050565b7f4552433732313a207472616e7366657220746f20746865207a65726f2061646460008201527f7265737300000000000000000000000000000000000000000000000000000000602082015250565b60006134b8602483612143565b91506134c38261345c565b604082019050919050565b600060208201905081810360008301526134e7816134ab565b9050919050565b7f4f776e61626c653a2063616c6c6572206973206e6f7420746865206f776e6572600082015250565b6000613524602083612143565b915061352f826134ee565b602082019050919050565b6000602082019050818103600083015261355381613517565b9050919050565b7f4552433732313a20617070726f766520746f2063616c6c657200000000000000600082015250565b6000613590601983612143565b915061359b8261355a565b602082019050919050565b600060208201905081810360008301526135bf81613583565b9050919050565b7f4552433732313a207472616e7366657220746f206e6f6e20455243373231526560008201527f63656976657220696d706c656d656e7465720000000000000000000000000000602082015250565b6000613622603283612143565b915061362d826135c6565b604082019050919050565b6000602082019050818103600083015261365181613615565b9050919050565b7f4552433732313a206d696e7420746f20746865207a65726f2061646472657373600082015250565b600061368e602083612143565b915061369982613658565b602082019050919050565b600060208201905081810360008301526136bd81613681565b9050919050565b7f4552433732313a20746f6b656e20616c7265616479206d696e74656400000000600082015250565b60006136fa601c83612143565b9150613705826136c4565b602082019050919050565b60006020820190508181036000830152613729816136ed565b9050919050565b7f53656e646572206e6f7420696e207461726765742061756469656e6365000000600082015250565b6000613766601d83612143565b915061377182613730565b602082019050919050565b6000602082019050818103600083015261379581613759565b9050919050565b6000819050919050565b6137b76137b282612432565b61379c565b82525050565b60006137c982856137a6565b6020820191506137d9828461329b565b6014820191508190509392505050565b600081519050919050565b600082825260208201905092915050565b6000613810826137e9565b61381a81856137f4565b935061382a818560208601612154565b6138338161217e565b840191505092915050565b6000608082019050613853600083018761227f565b613860602083018661227f565b61386d6040830185612342565b818103606083015261387f8184613805565b905095945050505050565b600081519050613899816120a9565b92915050565b6000602082840312156138b5576138b4612073565b5b60006138c38482850161388a565b91505092915050565b7f4e487b7100000000000000000000000000000000000000000000000000000000600052603260045260246000fdfea264697066735822122062e9277640ff32cf800261a537a50c4fb44bc2734cb1abe367a0232643b5db5a64736f6c63430008180033",
  "linkReferences": {},
  "deployedLinkReferences": {}
}