{
  "_format": "hh-sol-artifact-1",
  "contractName": "MehAdV1",
  "sourceName": "contracts/MehAdV1.sol",
  "abi": [
    {
      "inputs": [
        {
          "internalType": "string",
          "name": "name",
          "type": "string"
        },
        {
          "internalType": "string",
          "name": "symbol",
          "type": "string"
        },
        {
          "internalType": "address",
          "name": "mehTokenAddress",
          "type": "address"
        }
      ],
      "stateMutability": "nonpayable",
      "type": "constructor"
    },
    {
      "anonymous": false,
      "inputs": [
        {
          "indexed": true,
          "internalType": "address",
          "name": "owner",
          "type": "address"
        },
        {
          "indexed": true,
          "internalType": "address",
          "name": "approved",
          "type": "address"
        },
        {
          "indexed": true,
          "internalType": "uint256",
          "name": "tokenId",
          "type": "uint256"
        }
      ],
      "name": "Approval",
      "type": "event"
    },
    {
      "anonymous": false,
      "inputs": [
        {
          "indexed": true,
          "internalType": "address",
          "name": "owner",
          "type": "address"
        },
        {
          "indexed": true,
          "internalType": "address",
          "name": "operator",
          "type": "address"
        },
        {
          "indexed": false,
          "internalType": "bool",
          "name": "approved",
          "type": "bool"
        }
      ],
      "name": "ApprovalForAll",
      "type": "event"
    },
    {
      "anonymous": false,
      "inputs": [
        {
          "indexed": true,
          "internalType": "address",
          "name": "previousOwner",
          "type": "address"
        },
        {
          "indexed": true,
          "internalType": "address",
          "name": "newOwner",
          "type": "address"
        }
      ],
      "name": "OwnershipTransferred",
      "type": "event"
    },
    {
      "anonymous": false,
      "inputs": [
        {
          "indexed": true,
          "internalType": "address",
          "name": "from",
          "type": "address"
        },
        {
          "indexed": true,
          "internalType": "address",
          "name": "to",
          "type": "address"
        },
        {
          "indexed": true,
          "internalType": "uint256",
          "name": "tokenId",
          "type": "uint256"
        }
      ],
      "name": "Transfer",
      "type": "event"
    },
    {
      "inputs": [],
      "name": "adAmt",
      "outputs": [
        {
          "internalType": "uint256",
          "name": "",
          "type": "uint256"
        },
        {
          "internalType": "uint256",
          "name": "",
          "type": "uint256"
        }
      ],
      "stateMutability": "view",
      "type": "function"
    },
    {
      "inputs": [
        {
          "internalType": "address",
          "name": "to",
          "type": "address"
        },
        {
          "internalType": "uint256",
          "name": "tokenId",
          "type": "uint256"
        }
      ],
      "name": "approve",
      "outputs": [],
      "stateMutability": "nonpayable",
      "type": "function"
    },
    {
      "inputs": [
        {
          "internalType": "address",
          "name": "owner",
          "type": "address"
        }
      ],
      "name": "balanceOf",
      "outputs": [
        {
          "internalType": "uint256",
          "name": "",
          "type": "uint256"
        }
      ],
      "stateMutability": "view",
      "type": "function"
    },
    {
      "inputs": [
        {
          "internalType": "address",
          "name": "",
          "type": "address"
        }
      ],
      "name": "discounts",
      "outputs": [
        {
          "internalType": "uint256",
          "name": "",
          "type": "uint256"
        }
      ],
      "stateMutability": "view",
      "type": "function"
    },
    {
      "inputs": [
        {
          "internalType": "uint256",
          "name": "id",
          "type": "uint256"
        }
      ],
      "name": "displayAd",
      "outputs": [
        {
          "components": [
            {
              "internalType": "string",
              "name": "adURI",
              "type": "string"
            },
            {
              "internalType": "string",
              "name": "dataURI",
              "type": "string"
            },
            {
              "internalType": "bytes32",
              "name": "signatureRoot",
              "type": "bytes32"
            },
            {
              "internalType": "bytes32",
              "name": "audienceRoot",
              "type": "bytes32"
            }
          ],
          "internalType": "struct IERCAd.Ad",
          "name": "",
          "type": "tuple"
        }
      ],
      "stateMutability": "view",
      "type": "function"
    },
    {
      "inputs": [
        {
          "internalType": "uint256",
          "name": "tokenId",
          "type": "uint256"
        }
      ],
      "name": "getApproved",
      "outputs": [
        {
          "internalType": "address",
          "name": "",
          "type": "address"
        }
      ],
      "stateMutability": "view",
      "type": "function"
    },
    {
      "inputs": [
        {
          "internalType": "uint256",
          "name": "id",
          "type": "uint256"
        },
        {
          "internalType": "bytes32[]",
          "name": "proof",
          "type": "bytes32[]"
        }
      ],
      "name": "hasSignedAd",
      "outputs": [
        {
          "internalType": "bool",
          "name": "",
          "type": "bool"
        }
      ],
      "stateMutability": "view",
      "type": "function"
    },
    {
      "inputs": [
        {
          "internalType": "address",
          "name": "owner",
          "type": "address"
        },
        {
          "internalType": "address",
          "name": "operator",
          "type": "address"
        }
      ],
      "name": "isApprovedForAll",
      "outputs": [
        {
          "internalType": "bool",
          "name": "",
          "type": "bool"
        }
      ],
      "stateMutability": "view",
      "type": "function"
    },
    {
      "inputs": [
        {
          "internalType": "uint256",
          "name": "id",
          "type": "uint256"
        },
        {
          "internalType": "bytes32[]",
          "name": "proof",
          "type": "bytes32[]"
        }
      ],
      "name": "isInAudience",
      "outputs": [
        {
          "internalType": "bool",
          "name": "",
          "type": "bool"
        }
      ],
      "stateMutability": "view",
      "type": "function"
    },
    {
      "inputs": [],
      "name": "mehToken",
      "outputs": [
        {
          "internalType": "contract IERC20",
          "name": "",
          "type": "address"
        }
      ],
      "stateMutability": "view",
      "type": "function"
    },
    {
      "inputs": [],
      "name": "name",
      "outputs": [
        {
          "internalType": "string",
          "name": "",
          "type": "string"
        }
      ],
      "stateMutability": "view",
      "type": "function"
    },
    {
      "inputs": [],
      "name": "owner",
      "outputs": [
        {
          "internalType": "address",
          "name": "",
          "type": "address"
        }
      ],
      "stateMutability": "view",
      "type": "function"
    },
    {
      "inputs": [
        {
          "internalType": "uint256",
          "name": "tokenId",
          "type": "uint256"
        }
      ],
      "name": "ownerOf",
      "outputs": [
        {
          "internalType": "address",
          "name": "",
          "type": "address"
        }
      ],
      "stateMutability": "view",
      "type": "function"
    },
    {
      "inputs": [],
      "name": "renounceOwnership",
      "outputs": [],
      "stateMutability": "nonpayable",
      "type": "function"
    },
    {
      "inputs": [
        {
          "internalType": "address",
          "name": "from",
          "type": "address"
        },
        {
          "internalType": "address",
          "name": "to",
          "type": "address"
        },
        {
          "internalType": "uint256",
          "name": "tokenId",
          "type": "uint256"
        }
      ],
      "name": "safeTransferFrom",
      "outputs": [],
      "stateMutability": "nonpayable",
      "type": "function"
    },
    {
      "inputs": [
        {
          "internalType": "address",
          "name": "from",
          "type": "address"
        },
        {
          "internalType": "address",
          "name": "to",
          "type": "address"
        },
        {
          "internalType": "uint256",
          "name": "tokenId",
          "type": "uint256"
        },
        {
          "internalType": "bytes",
          "name": "data",
          "type": "bytes"
        }
      ],
      "name": "safeTransferFrom",
      "outputs": [],
      "stateMutability": "nonpayable",
      "type": "function"
    },
    {
      "inputs": [
        {
          "internalType": "string",
          "name": "adURI",
          "type": "string"
        },
        {
          "internalType": "string",
          "name": "dataURI",
          "type": "string"
        },
        {
          "internalType": "bytes32",
          "name": "signatureRoot",
          "type": "bytes32"
        },
        {
          "internalType": "bytes32",
          "name": "audienceRoot",
          "type": "bytes32"
        }
      ],
      "name": "setAd",
      "outputs": [],
      "stateMutability": "nonpayable",
      "type": "function"
    },
    {
      "inputs": [
        {
          "internalType": "address",
          "name": "operator",
          "type": "address"
        },
        {
          "internalType": "bool",
          "name": "approved",
          "type": "bool"
        }
      ],
      "name": "setApprovalForAll",
      "outputs": [],
      "stateMutability": "nonpayable",
      "type": "function"
    },
    {
      "inputs": [
        {
          "internalType": "uint256",
          "name": "id",
          "type": "uint256"
        },
        {
          "internalType": "bytes32[]",
          "name": "proof",
          "type": "bytes32[]"
        }
      ],
      "name": "signAd",
      "outputs": [],
      "stateMutability": "nonpayable",
      "type": "function"
    },
    {
      "inputs": [
        {
          "internalType": "bytes4",
          "name": "interfaceId",
          "type": "bytes4"
        }
      ],
      "name": "supportsInterface",
      "outputs": [
        {
          "internalType": "bool",
          "name": "",
          "type": "bool"
        }
      ],
      "stateMutability": "view",
      "type": "function"
    },
    {
      "inputs": [],
      "name": "symbol",
      "outputs": [
        {
          "internalType": "string",
          "name": "",
          "type": "string"
        }
      ],
      "stateMutability": "view",
      "type": "function"
    },
    {
      "inputs": [
        {
          "internalType": "uint256",
          "name": "tokenId",
          "type": "uint256"
        }
      ],
      "name": "tokenURI",
      "outputs": [
        {
          "internalType": "string",
          "name": "",
          "type": "string"
        }
      ],
      "stateMutability": "view",
      "type": "function"
    },
    {
      "inputs": [
        {
          "internalType": "address",
          "name": "from",
          "type": "address"
        },
        {
          "internalType": "address",
          "name": "to",
          "type": "address"
        },
        {
          "internalType": "uint256",
          "name": "tokenId",
          "type": "uint256"
        }
      ],
      "name": "transferFrom",
      "outputs": [],
      "stateMutability": "nonpayable",
      "type": "function"
    },
    {
      "inputs": [
        {
          "internalType": "address",
          "name": "newOwner",
          "type": "address"
        }
      ],
      "name": "transferOwnership",
      "outputs": [],
      "stateMutability": "nonpayable",
      "type": "function"
    }
  ],
  "bytecode": "0x60806040523480156200001157600080fd5b50604051620041a3380380620041a3833981810160405281019062000037919062000393565b8282818181600090816200004c919062000678565b5080600190816200005e919062000678565b5050506200008162000075620000cd60201b60201c565b620000d560201b60201c565b505080600d60006101000a81548173ffffffffffffffffffffffffffffffffffffffff021916908373ffffffffffffffffffffffffffffffffffffffff1602179055505050506200075f565b600033905090565b6000600660009054906101000a900473ffffffffffffffffffffffffffffffffffffffff16905081600660006101000a81548173ffffffffffffffffffffffffffffffffffffffff021916908373ffffffffffffffffffffffffffffffffffffffff1602179055508173ffffffffffffffffffffffffffffffffffffffff168173ffffffffffffffffffffffffffffffffffffffff167f8be0079c531659141344cd1fd0a4f28419497f9722a3daafe3b4186f6b6457e060405160405180910390a35050565b6000604051905090565b600080fd5b600080fd5b600080fd5b600080fd5b6000601f19601f8301169050919050565b7f4e487b7100000000000000000000000000000000000000000000000000000000600052604160045260246000fd5b6200020482620001b9565b810181811067ffffffffffffffff82111715620002265762000225620001ca565b5b80604052505050565b60006200023b6200019b565b9050620002498282620001f9565b919050565b600067ffffffffffffffff8211156200026c576200026b620001ca565b5b6200027782620001b9565b9050602081019050919050565b60005b83811015620002a457808201518184015260208101905062000287565b60008484015250505050565b6000620002c7620002c1846200024e565b6200022f565b905082815260208101848484011115620002e657620002e5620001b4565b5b620002f384828562000284565b509392505050565b600082601f830112620003135762000312620001af565b5b815162000325848260208601620002b0565b91505092915050565b600073ffffffffffffffffffffffffffffffffffffffff82169050919050565b60006200035b826200032e565b9050919050565b6200036d816200034e565b81146200037957600080fd5b50565b6000815190506200038d8162000362565b92915050565b600080600060608486031215620003af57620003ae620001a5565b5b600084015167ffffffffffffffff811115620003d057620003cf620001aa565b5b620003de86828701620002fb565b935050602084015167ffffffffffffffff811115620004025762000401620001aa565b5b6200041086828701620002fb565b925050604062000423868287016200037c565b9150509250925092565b600081519050919050565b7f4e487b7100000000000000000000000000000000000000000000000000000000600052602260045260246000fd5b600060028204905060018216806200048057607f821691505b60208210810362000496576200049562000438565b5b50919050565b60008190508160005260206000209050919050565b60006020601f8301049050919050565b600082821b905092915050565b600060088302620005007fffffffffffffffffffffffffffffffffffffffffffffffffffffffffffffffff82620004c1565b6200050c8683620004c1565b95508019841693508086168417925050509392505050565b6000819050919050565b6000819050919050565b600062000559620005536200054d8462000524565b6200052e565b62000524565b9050919050565b6000819050919050565b620005758362000538565b6200058d620005848262000560565b848454620004ce565b825550505050565b600090565b620005a462000595565b620005b18184846200056a565b505050565b5b81811015620005d957620005cd6000826200059a565b600181019050620005b7565b5050565b601f8211156200062857620005f2816200049c565b620005fd84620004b1565b810160208510156200060d578190505b620006256200061c85620004b1565b830182620005b6565b50505b505050565b600082821c905092915050565b60006200064d600019846008026200062d565b1980831691505092915050565b60006200066883836200063a565b9150826002028217905092915050565b62000683826200042d565b67ffffffffffffffff8111156200069f576200069e620001ca565b5b620006ab825462000467565b620006b8828285620005dd565b600060209050601f831160018114620006f05760008415620006db578287015190505b620006e785826200065a565b86555062000757565b601f19841662000700866200049c565b60005b828110156200072a5784890151825560018201915060208501945060208101905062000703565b868310156200074a578489015162000746601f8916826200063a565b8355505b6001600288020188555050505b505050505050565b613a34806200076f6000396000f3fe608060405234801561001057600080fd5b50600436106101585760003560e01c80638b4d9eb9116100c3578063d13e2af91161007c578063d13e2af9146103ec578063dfe194fe14610408578063e2c2c88414610438578063e985e9c514610456578063f2fde38b14610486578063fe49e833146104a257610158565b80638b4d9eb9146103185780638da5cb5b1461034857806395d89b4114610366578063a22cb46514610384578063b88d4fde146103a0578063c87b56dd146103bc57610158565b806342842e0e1161011557806342842e0e146102435780634c2c315a1461025f5780636352211e1461027e578063672fb969146102ae57806370a08231146102de578063715018a61461030e57610158565b806301ffc9a71461015d57806306fdde031461018d578063081812fc146101ab578063095ea7b3146101db5780630fff4474146101f757806323b872dd14610227575b600080fd5b610177600480360381019061017291906121cc565b6104be565b6040516101849190612214565b60405180910390f35b6101956105a0565b6040516101a291906122bf565b60405180910390f35b6101c560048036038101906101c09190612317565b610632565b6040516101d29190612385565b60405180910390f35b6101f560048036038101906101f091906123cc565b610678565b005b610211600480360381019061020c919061240c565b61078f565b60405161021e9190612448565b60405180910390f35b610241600480360381019061023c9190612463565b6107a7565b005b61025d60048036038101906102589190612463565b610807565b005b610267610827565b6040516102759291906124b6565b60405180910390f35b61029860048036038101906102939190612317565b6108a5565b6040516102a59190612385565b60405180910390f35b6102c860048036038101906102c39190612317565b61092b565b6040516102d591906125ac565b60405180910390f35b6102f860048036038101906102f3919061240c565b610a90565b6040516103059190612448565b60405180910390f35b610316610b47565b005b610332600480360381019061032d9190612633565b610b5b565b60405161033f9190612214565b60405180910390f35b610350610c42565b60405161035d9190612385565b60405180910390f35b61036e610c6c565b60405161037b91906122bf565b60405180910390f35b61039e600480360381019061039991906126bf565b610cfe565b005b6103ba60048036038101906103b5919061282f565b610d14565b005b6103d660048036038101906103d19190612317565b610d76565b6040516103e391906122bf565b60405180910390f35b6104066004803603810190610401919061297f565b610e55565b005b610422600480360381019061041d9190612633565b610f53565b60405161042f9190612214565b60405180910390f35b610440611053565b60405161044d9190612a7d565b60405180910390f35b610470600480360381019061046b9190612a98565b611079565b60405161047d9190612214565b60405180910390f35b6104a0600480360381019061049b919061240c565b61110d565b005b6104bc60048036038101906104b79190612633565b611190565b005b60007f80ac58cd000000000000000000000000000000000000000000000000000000007bffffffffffffffffffffffffffffffffffffffffffffffffffffffff1916827bffffffffffffffffffffffffffffffffffffffffffffffffffffffff1916148061058957507f5b5e139f000000000000000000000000000000000000000000000000000000007bffffffffffffffffffffffffffffffffffffffffffffffffffffffff1916827bffffffffffffffffffffffffffffffffffffffffffffffffffffffff1916145b8061059957506105988261124f565b5b9050919050565b6060600080546105af90612b07565b80601f01602080910402602001604051908101604052809291908181526020018280546105db90612b07565b80156106285780601f106105fd57610100808354040283529160200191610628565b820191906000526020600020905b81548152906001019060200180831161060b57829003601f168201915b5050505050905090565b600061063d826112b9565b6004600083815260200190815260200160002060009054906101000a900473ffffffffffffffffffffffffffffffffffffffff169050919050565b6000610683826108a5565b90508073ffffffffffffffffffffffffffffffffffffffff168373ffffffffffffffffffffffffffffffffffffffff16036106f3576040517f08c379a00000000000000000000000000000000000000000000000000000000081526004016106ea90612baa565b60405180910390fd5b8073ffffffffffffffffffffffffffffffffffffffff16610712611304565b73ffffffffffffffffffffffffffffffffffffffff16148061074157506107408161073b611304565b611079565b5b610780576040517f08c379a000000000000000000000000000000000000000000000000000000000815260040161077790612c3c565b60405180910390fd5b61078a838361130c565b505050565b600e6020528060005260406000206000915090505481565b6107b86107b2611304565b826113c5565b6107f7576040517f08c379a00000000000000000000000000000000000000000000000000000000081526004016107ee90612cce565b60405180910390fd5b61080283838361145a565b505050565b61082283838360405180602001604052806000815250610d14565b505050565b60008060003373ffffffffffffffffffffffffffffffffffffffff163190506000670de0b6b3a7640000620186a0836108609190612d1d565b61086a9190612d1d565b6127106108779190612d5f565b905069d3c21bcecceda10000008111156108995769d3c21bcecceda100000090505b80829350935050509091565b6000806108b183611753565b9050600073ffffffffffffffffffffffffffffffffffffffff168173ffffffffffffffffffffffffffffffffffffffff1603610922576040517f08c379a000000000000000000000000000000000000000000000000000000000815260040161091990612ddf565b60405180910390fd5b80915050919050565b610933612132565b600c600083815260200190815260200160002060405180608001604052908160008201805461096190612b07565b80601f016020809104026020016040519081016040528092919081815260200182805461098d90612b07565b80156109da5780601f106109af576101008083540402835291602001916109da565b820191906000526020600020905b8154815290600101906020018083116109bd57829003601f168201915b505050505081526020016001820180546109f390612b07565b80601f0160208091040260200160405190810160405280929190818152602001828054610a1f90612b07565b8015610a6c5780601f10610a4157610100808354040283529160200191610a6c565b820191906000526020600020905b815481529060010190602001808311610a4f57829003601f168201915b50505050508152602001600282015481526020016003820154815250509050919050565b60008073ffffffffffffffffffffffffffffffffffffffff168273ffffffffffffffffffffffffffffffffffffffff1603610b00576040517f08c379a0000000000000000000000000000000000000000000000000000000008152600401610af790612e71565b60405180910390fd5b600360008373ffffffffffffffffffffffffffffffffffffffff1673ffffffffffffffffffffffffffffffffffffffff168152602001908152602001600020549050919050565b610b4f611790565b610b59600061180e565b565b6000610b66846118d4565b610ba5576040517f08c379a0000000000000000000000000000000000000000000000000000000008152600401610b9c90612edd565b60405180910390fd5b6000600c60008681526020019081526020016000209050600033604051602001610bcf9190612f45565b604051602081830303815290604052805190602001209050610c37858580806020026020016040519081016040528093929190818152602001838360200280828437600081840152601f19601f82011690508083019250505050505050836002015483611915565b925050509392505050565b6000600660009054906101000a900473ffffffffffffffffffffffffffffffffffffffff16905090565b606060018054610c7b90612b07565b80601f0160208091040260200160405190810160405280929190818152602001828054610ca790612b07565b8015610cf45780601f10610cc957610100808354040283529160200191610cf4565b820191906000526020600020905b815481529060010190602001808311610cd757829003601f168201915b5050505050905090565b610d10610d09611304565b838361192c565b5050565b610d25610d1f611304565b836113c5565b610d64576040517f08c379a0000000000000000000000000000000000000000000000000000000008152600401610d5b90612cce565b60405180910390fd5b610d7084848484611a98565b50505050565b6060610d81826118d4565b610dc0576040517f08c379a0000000000000000000000000000000000000000000000000000000008152600401610db790612fd2565b60405180910390fd5b60086000018054610dd090612b07565b80601f0160208091040260200160405190810160405280929190818152602001828054610dfc90612b07565b8015610e495780601f10610e1e57610100808354040283529160200191610e49565b820191906000526020600020905b815481529060010190602001808311610e2c57829003601f168201915b50505050509050919050565b610e5d611790565b610e676007611af4565b6000610e736007611b0a565b9050604051806080016040528086815260200185815260200184815260200183815250600c60008381526020019081526020016000206000820151816000019081610ebe9190613194565b506020820151816001019081610ed49190613194565b506040820151816002015560608201518160030155905050610ef63382611b18565b600c6000828152602001908152602001600020600860008201816000019081610f1f919061327c565b5060018201816001019081610f34919061327c565b5060028201548160020155600382015481600301559050505050505050565b6000610f5e846118d4565b610f9d576040517f08c379a0000000000000000000000000000000000000000000000000000000008152600401610f9490612edd565b60405180910390fd5b6000600c600086815260200190815260200160002090506000801b81600301541461104657600033604051602001610fd59190612f45565b60405160208183030381529060405280519060200120905061103d858580806020026020016040519081016040528093929190818152602001838360200280828437600081840152601f19601f82011690508083019250505050505050836003015483611915565b9250505061104c565b60019150505b9392505050565b600d60009054906101000a900473ffffffffffffffffffffffffffffffffffffffff1681565b6000600560008473ffffffffffffffffffffffffffffffffffffffff1673ffffffffffffffffffffffffffffffffffffffff16815260200190815260200160002060008373ffffffffffffffffffffffffffffffffffffffff1673ffffffffffffffffffffffffffffffffffffffff16815260200190815260200160002060009054906101000a900460ff16905092915050565b611115611790565b600073ffffffffffffffffffffffffffffffffffffffff168173ffffffffffffffffffffffffffffffffffffffff1603611184576040517f08c379a000000000000000000000000000000000000000000000000000000000815260040161117b906133d6565b60405180910390fd5b61118d8161180e565b50565b61119b838383611d35565b60006111a5610827565b509050600d60009054906101000a900473ffffffffffffffffffffffffffffffffffffffff1673ffffffffffffffffffffffffffffffffffffffff1663a9059cbb33836040518363ffffffff1660e01b81526004016112059291906133f6565b6020604051808303816000875af1158015611224573d6000803e3d6000fd5b505050506040513d601f19601f820116820180604052508101906112489190613434565b5050505050565b60007f01ffc9a7000000000000000000000000000000000000000000000000000000007bffffffffffffffffffffffffffffffffffffffffffffffffffffffff1916827bffffffffffffffffffffffffffffffffffffffffffffffffffffffff1916149050919050565b6112c2816118d4565b611301576040517f08c379a00000000000000000000000000000000000000000000000000000000081526004016112f890612ddf565b60405180910390fd5b50565b600033905090565b816004600083815260200190815260200160002060006101000a81548173ffffffffffffffffffffffffffffffffffffffff021916908373ffffffffffffffffffffffffffffffffffffffff160217905550808273ffffffffffffffffffffffffffffffffffffffff1661137f836108a5565b73ffffffffffffffffffffffffffffffffffffffff167f8c5be1e5ebec7d5bd14f71427d1e84f3dd0314c0f7b2291e5b200ac8c7c3b92560405160405180910390a45050565b6000806113d1836108a5565b90508073ffffffffffffffffffffffffffffffffffffffff168473ffffffffffffffffffffffffffffffffffffffff16148061141357506114128185611079565b5b8061145157508373ffffffffffffffffffffffffffffffffffffffff1661143984610632565b73ffffffffffffffffffffffffffffffffffffffff16145b91505092915050565b8273ffffffffffffffffffffffffffffffffffffffff1661147a826108a5565b73ffffffffffffffffffffffffffffffffffffffff16146114d0576040517f08c379a00000000000000000000000000000000000000000000000000000000081526004016114c7906134d3565b60405180910390fd5b600073ffffffffffffffffffffffffffffffffffffffff168273ffffffffffffffffffffffffffffffffffffffff160361153f576040517f08c379a000000000000000000000000000000000000000000000000000000000815260040161153690613565565b60405180910390fd5b61154c8383836001611eea565b8273ffffffffffffffffffffffffffffffffffffffff1661156c826108a5565b73ffffffffffffffffffffffffffffffffffffffff16146115c2576040517f08c379a00000000000000000000000000000000000000000000000000000000081526004016115b9906134d3565b60405180910390fd5b6004600082815260200190815260200160002060006101000a81549073ffffffffffffffffffffffffffffffffffffffff02191690556001600360008573ffffffffffffffffffffffffffffffffffffffff1673ffffffffffffffffffffffffffffffffffffffff168152602001908152602001600020600082825403925050819055506001600360008473ffffffffffffffffffffffffffffffffffffffff1673ffffffffffffffffffffffffffffffffffffffff16815260200190815260200160002060008282540192505081905550816002600083815260200190815260200160002060006101000a81548173ffffffffffffffffffffffffffffffffffffffff021916908373ffffffffffffffffffffffffffffffffffffffff160217905550808273ffffffffffffffffffffffffffffffffffffffff168473ffffffffffffffffffffffffffffffffffffffff167fddf252ad1be2c89b69c2b068fc378daa952ba7f163c4a11628f55a4df523b3ef60405160405180910390a461174e8383836001611ef0565b505050565b60006002600083815260200190815260200160002060009054906101000a900473ffffffffffffffffffffffffffffffffffffffff169050919050565b611798611304565b73ffffffffffffffffffffffffffffffffffffffff166117b6610c42565b73ffffffffffffffffffffffffffffffffffffffff161461180c576040517f08c379a0000000000000000000000000000000000000000000000000000000008152600401611803906135d1565b60405180910390fd5b565b6000600660009054906101000a900473ffffffffffffffffffffffffffffffffffffffff16905081600660006101000a81548173ffffffffffffffffffffffffffffffffffffffff021916908373ffffffffffffffffffffffffffffffffffffffff1602179055508173ffffffffffffffffffffffffffffffffffffffff168173ffffffffffffffffffffffffffffffffffffffff167f8be0079c531659141344cd1fd0a4f28419497f9722a3daafe3b4186f6b6457e060405160405180910390a35050565b60008073ffffffffffffffffffffffffffffffffffffffff166118f683611753565b73ffffffffffffffffffffffffffffffffffffffff1614159050919050565b6000826119228584611ef6565b1490509392505050565b8173ffffffffffffffffffffffffffffffffffffffff168373ffffffffffffffffffffffffffffffffffffffff160361199a576040517f08c379a00000000000000000000000000000000000000000000000000000000081526004016119919061363d565b60405180910390fd5b80600560008573ffffffffffffffffffffffffffffffffffffffff1673ffffffffffffffffffffffffffffffffffffffff16815260200190815260200160002060008473ffffffffffffffffffffffffffffffffffffffff1673ffffffffffffffffffffffffffffffffffffffff16815260200190815260200160002060006101000a81548160ff0219169083151502179055508173ffffffffffffffffffffffffffffffffffffffff168373ffffffffffffffffffffffffffffffffffffffff167f17307eab39ab6107e8899845ad3d59bd9653f200f220920489ca2b5937696c3183604051611a8b9190612214565b60405180910390a3505050565b611aa384848461145a565b611aaf84848484611f46565b611aee576040517f08c379a0000000000000000000000000000000000000000000000000000000008152600401611ae5906136cf565b60405180910390fd5b50505050565b6001816000016000828254019250508190555050565b600081600001549050919050565b600073ffffffffffffffffffffffffffffffffffffffff168273ffffffffffffffffffffffffffffffffffffffff1603611b87576040517f08c379a0000000000000000000000000000000000000000000000000000000008152600401611b7e9061373b565b60405180910390fd5b611b90816118d4565b15611bd0576040517f08c379a0000000000000000000000000000000000000000000000000000000008152600401611bc7906137a7565b60405180910390fd5b611bde600083836001611eea565b611be7816118d4565b15611c27576040517f08c379a0000000000000000000000000000000000000000000000000000000008152600401611c1e906137a7565b60405180910390fd5b6001600360008473ffffffffffffffffffffffffffffffffffffffff1673ffffffffffffffffffffffffffffffffffffffff16815260200190815260200160002060008282540192505081905550816002600083815260200190815260200160002060006101000a81548173ffffffffffffffffffffffffffffffffffffffff021916908373ffffffffffffffffffffffffffffffffffffffff160217905550808273ffffffffffffffffffffffffffffffffffffffff16600073ffffffffffffffffffffffffffffffffffffffff167fddf252ad1be2c89b69c2b068fc378daa952ba7f163c4a11628f55a4df523b3ef60405160405180910390a4611d31600083836001611ef0565b5050565b611d3e836118d4565b611d7d576040517f08c379a0000000000000000000000000000000000000000000000000000000008152600401611d7490612edd565b60405180910390fd5b6000600c60008581526020019081526020016000209050611d9f848484610b5b565b15611ddf576040517f08c379a0000000000000000000000000000000000000000000000000000000008152600401611dd690613813565b60405180910390fd5b6000801b816003015414611ea957600033604051602001611e009190612f45565b604051602081830303815290604052805190602001209050611e68848480806020026020016040519081016040528093929190818152602001838360200280828437600081840152601f19601f82011690508083019250505050505050836003015483611915565b611ea7576040517f08c379a0000000000000000000000000000000000000000000000000000000008152600401611e9e9061387f565b60405180910390fd5b505b6000816002015433604051602001611ec29291906138c0565b6040516020818303038152906040529050808051906020012082600201819055505050505050565b50505050565b50505050565b60008082905060005b8451811015611f3b57611f2c82868381518110611f1f57611f1e6138ec565b5b60200260200101516120cd565b91508080600101915050611eff565b508091505092915050565b6000611f678473ffffffffffffffffffffffffffffffffffffffff166120f8565b156120c0578373ffffffffffffffffffffffffffffffffffffffff1663150b7a02611f90611304565b8786866040518563ffffffff1660e01b8152600401611fb29493929190613970565b6020604051808303816000875af1925050508015611fee57506040513d601f19601f82011682018060405250810190611feb91906139d1565b60015b612070573d806000811461201e576040519150601f19603f3d011682016040523d82523d6000602084013e612023565b606091505b506000815103612068576040517f08c379a000000000000000000000000000000000000000000000000000000000815260040161205f906136cf565b60405180910390fd5b805181602001fd5b63150b7a0260e01b7bffffffffffffffffffffffffffffffffffffffffffffffffffffffff1916817bffffffffffffffffffffffffffffffffffffffffffffffffffffffff1916149150506120c5565b600190505b949350505050565b60008183106120e5576120e0828461211b565b6120f0565b6120ef838361211b565b5b905092915050565b6000808273ffffffffffffffffffffffffffffffffffffffff163b119050919050565b600082600052816020526040600020905092915050565b6040518060800160405280606081526020016060815260200160008019168152602001600080191681525090565b6000604051905090565b600080fd5b600080fd5b60007fffffffff0000000000000000000000000000000000000000000000000000000082169050919050565b6121a981612174565b81146121b457600080fd5b50565b6000813590506121c6816121a0565b92915050565b6000602082840312156121e2576121e161216a565b5b60006121f0848285016121b7565b91505092915050565b60008115159050919050565b61220e816121f9565b82525050565b60006020820190506122296000830184612205565b92915050565b600081519050919050565b600082825260208201905092915050565b60005b8381101561226957808201518184015260208101905061224e565b60008484015250505050565b6000601f19601f8301169050919050565b60006122918261222f565b61229b818561223a565b93506122ab81856020860161224b565b6122b481612275565b840191505092915050565b600060208201905081810360008301526122d98184612286565b905092915050565b6000819050919050565b6122f4816122e1565b81146122ff57600080fd5b50565b600081359050612311816122eb565b92915050565b60006020828403121561232d5761232c61216a565b5b600061233b84828501612302565b91505092915050565b600073ffffffffffffffffffffffffffffffffffffffff82169050919050565b600061236f82612344565b9050919050565b61237f81612364565b82525050565b600060208201905061239a6000830184612376565b92915050565b6123a981612364565b81146123b457600080fd5b50565b6000813590506123c6816123a0565b92915050565b600080604083850312156123e3576123e261216a565b5b60006123f1858286016123b7565b925050602061240285828601612302565b9150509250929050565b6000602082840312156124225761242161216a565b5b6000612430848285016123b7565b91505092915050565b612442816122e1565b82525050565b600060208201905061245d6000830184612439565b92915050565b60008060006060848603121561247c5761247b61216a565b5b600061248a868287016123b7565b935050602061249b868287016123b7565b92505060406124ac86828701612302565b9150509250925092565b60006040820190506124cb6000830185612439565b6124d86020830184612439565b9392505050565b600082825260208201905092915050565b60006124fb8261222f565b61250581856124df565b935061251581856020860161224b565b61251e81612275565b840191505092915050565b6000819050919050565b61253c81612529565b82525050565b6000608083016000830151848203600086015261255f82826124f0565b9150506020830151848203602086015261257982826124f0565b915050604083015161258e6040860182612533565b5060608301516125a16060860182612533565b508091505092915050565b600060208201905081810360008301526125c68184612542565b905092915050565b600080fd5b600080fd5b600080fd5b60008083601f8401126125f3576125f26125ce565b5b8235905067ffffffffffffffff8111156126105761260f6125d3565b5b60208301915083602082028301111561262c5761262b6125d8565b5b9250929050565b60008060006040848603121561264c5761264b61216a565b5b600061265a86828701612302565b935050602084013567ffffffffffffffff81111561267b5761267a61216f565b5b612687868287016125dd565b92509250509250925092565b61269c816121f9565b81146126a757600080fd5b50565b6000813590506126b981612693565b92915050565b600080604083850312156126d6576126d561216a565b5b60006126e4858286016123b7565b92505060206126f5858286016126aa565b9150509250929050565b600080fd5b7f4e487b7100000000000000000000000000000000000000000000000000000000600052604160045260246000fd5b61273c82612275565b810181811067ffffffffffffffff8211171561275b5761275a612704565b5b80604052505050565b600061276e612160565b905061277a8282612733565b919050565b600067ffffffffffffffff82111561279a57612799612704565b5b6127a382612275565b9050602081019050919050565b82818337600083830152505050565b60006127d26127cd8461277f565b612764565b9050828152602081018484840111156127ee576127ed6126ff565b5b6127f98482856127b0565b509392505050565b600082601f830112612816576128156125ce565b5b81356128268482602086016127bf565b91505092915050565b600080600080608085870312156128495761284861216a565b5b6000612857878288016123b7565b9450506020612868878288016123b7565b935050604061287987828801612302565b925050606085013567ffffffffffffffff81111561289a5761289961216f565b5b6128a687828801612801565b91505092959194509250565b600067ffffffffffffffff8211156128cd576128cc612704565b5b6128d682612275565b9050602081019050919050565b60006128f66128f1846128b2565b612764565b905082815260208101848484011115612912576129116126ff565b5b61291d8482856127b0565b509392505050565b600082601f83011261293a576129396125ce565b5b813561294a8482602086016128e3565b91505092915050565b61295c81612529565b811461296757600080fd5b50565b60008135905061297981612953565b92915050565b600080600080608085870312156129995761299861216a565b5b600085013567ffffffffffffffff8111156129b7576129b661216f565b5b6129c387828801612925565b945050602085013567ffffffffffffffff8111156129e4576129e361216f565b5b6129f087828801612925565b9350506040612a018782880161296a565b9250506060612a128782880161296a565b91505092959194509250565b6000819050919050565b6000612a43612a3e612a3984612344565b612a1e565b612344565b9050919050565b6000612a5582612a28565b9050919050565b6000612a6782612a4a565b9050919050565b612a7781612a5c565b82525050565b6000602082019050612a926000830184612a6e565b92915050565b60008060408385031215612aaf57612aae61216a565b5b6000612abd858286016123b7565b9250506020612ace858286016123b7565b9150509250929050565b7f4e487b7100000000000000000000000000000000000000000000000000000000600052602260045260246000fd5b60006002820490506001821680612b1f57607f821691505b602082108103612b3257612b31612ad8565b5b50919050565b7f4552433732313a20617070726f76616c20746f2063757272656e74206f776e6560008201527f7200000000000000000000000000000000000000000000000000000000000000602082015250565b6000612b9460218361223a565b9150612b9f82612b38565b604082019050919050565b60006020820190508181036000830152612bc381612b87565b9050919050565b7f4552433732313a20617070726f76652063616c6c6572206973206e6f7420746f60008201527f6b656e206f776e6572206f7220617070726f76656420666f7220616c6c000000602082015250565b6000612c26603d8361223a565b9150612c3182612bca565b604082019050919050565b60006020820190508181036000830152612c5581612c19565b9050919050565b7f4552433732313a2063616c6c6572206973206e6f7420746f6b656e206f776e6560008201527f72206f7220617070726f76656400000000000000000000000000000000000000602082015250565b6000612cb8602d8361223a565b9150612cc382612c5c565b604082019050919050565b60006020820190508181036000830152612ce781612cab565b9050919050565b7f4e487b7100000000000000000000000000000000000000000000000000000000600052601160045260246000fd5b6000612d28826122e1565b9150612d33836122e1565b9250828202612d41816122e1565b91508282048414831517612d5857612d57612cee565b5b5092915050565b6000612d6a826122e1565b9150612d75836122e1565b9250828201905080821115612d8d57612d8c612cee565b5b92915050565b7f4552433732313a20696e76616c696420746f6b656e2049440000000000000000600082015250565b6000612dc960188361223a565b9150612dd482612d93565b602082019050919050565b60006020820190508181036000830152612df881612dbc565b9050919050565b7f4552433732313a2061646472657373207a65726f206973206e6f74206120766160008201527f6c6964206f776e65720000000000000000000000000000000000000000000000602082015250565b6000612e5b60298361223a565b9150612e6682612dff565b604082019050919050565b60006020820190508181036000830152612e8a81612e4e565b9050919050565b7f4552433732313a20616420646f6573206e6f7420657869737400000000000000600082015250565b6000612ec760198361223a565b9150612ed282612e91565b602082019050919050565b60006020820190508181036000830152612ef681612eba565b9050919050565b60008160601b9050919050565b6000612f1582612efd565b9050919050565b6000612f2782612f0a565b9050919050565b612f3f612f3a82612364565b612f1c565b82525050565b6000612f518284612f2e565b60148201915081905092915050565b7f4552433732314d657461646174613a2055524920717565727920666f72206e6f60008201527f6e6578697374656e7420746f6b656e0000000000000000000000000000000000602082015250565b6000612fbc602f8361223a565b9150612fc782612f60565b604082019050919050565b60006020820190508181036000830152612feb81612faf565b9050919050565b60008190508160005260206000209050919050565b60006020601f8301049050919050565b600082821b905092915050565b6000600883026130547fffffffffffffffffffffffffffffffffffffffffffffffffffffffffffffffff82613017565b61305e8683613017565b95508019841693508086168417925050509392505050565b600061309161308c613087846122e1565b612a1e565b6122e1565b9050919050565b6000819050919050565b6130ab83613076565b6130bf6130b782613098565b848454613024565b825550505050565b600090565b6130d46130c7565b6130df8184846130a2565b505050565b5b81811015613103576130f86000826130cc565b6001810190506130e5565b5050565b601f8211156131485761311981612ff2565b61312284613007565b81016020851015613131578190505b61314561313d85613007565b8301826130e4565b50505b505050565b600082821c905092915050565b600061316b6000198460080261314d565b1980831691505092915050565b6000613184838361315a565b9150826002028217905092915050565b61319d8261222f565b67ffffffffffffffff8111156131b6576131b5612704565b5b6131c08254612b07565b6131cb828285613107565b600060209050601f8311600181146131fe57600084156131ec578287015190505b6131f68582613178565b86555061325e565b601f19841661320c86612ff2565b60005b828110156132345784890151825560018201915060208501945060208101905061320f565b86831015613251578489015161324d601f89168261315a565b8355505b6001600288020188555050505b505050505050565b60008154905061327581612b07565b9050919050565b81810361328a575050613362565b61329382613266565b67ffffffffffffffff8111156132ac576132ab612704565b5b6132b68254612b07565b6132c1828285613107565b6000601f8311600181146132f057600084156132de578287015490505b6132e88582613178565b86555061335b565b601f1984166132fe87612ff2565b965061330986612ff2565b60005b828110156133315784890154825560018201915060018501945060208101905061330c565b8683101561334e578489015461334a601f89168261315a565b8355505b6001600288020188555050505b5050505050505b565b7f4f776e61626c653a206e6577206f776e657220697320746865207a65726f206160008201527f6464726573730000000000000000000000000000000000000000000000000000602082015250565b60006133c060268361223a565b91506133cb82613364565b604082019050919050565b600060208201905081810360008301526133ef816133b3565b9050919050565b600060408201905061340b6000830185612376565b6134186020830184612439565b9392505050565b60008151905061342e81612693565b92915050565b60006020828403121561344a5761344961216a565b5b60006134588482850161341f565b91505092915050565b7f4552433732313a207472616e736665722066726f6d20696e636f72726563742060008201527f6f776e6572000000000000000000000000000000000000000000000000000000602082015250565b60006134bd60258361223a565b91506134c882613461565b604082019050919050565b600060208201905081810360008301526134ec816134b0565b9050919050565b7f4552433732313a207472616e7366657220746f20746865207a65726f2061646460008201527f7265737300000000000000000000000000000000000000000000000000000000602082015250565b600061354f60248361223a565b915061355a826134f3565b604082019050919050565b6000602082019050818103600083015261357e81613542565b9050919050565b7f4f776e61626c653a2063616c6c6572206973206e6f7420746865206f776e6572600082015250565b60006135bb60208361223a565b91506135c682613585565b602082019050919050565b600060208201905081810360008301526135ea816135ae565b9050919050565b7f4552433732313a20617070726f766520746f2063616c6c657200000000000000600082015250565b600061362760198361223a565b9150613632826135f1565b602082019050919050565b600060208201905081810360008301526136568161361a565b9050919050565b7f4552433732313a207472616e7366657220746f206e6f6e20455243373231526560008201527f63656976657220696d706c656d656e7465720000000000000000000000000000602082015250565b60006136b960328361223a565b91506136c48261365d565b604082019050919050565b600060208201905081810360008301526136e8816136ac565b9050919050565b7f4552433732313a206d696e7420746f20746865207a65726f2061646472657373600082015250565b600061372560208361223a565b9150613730826136ef565b602082019050919050565b6000602082019050818103600083015261375481613718565b9050919050565b7f4552433732313a20746f6b656e20616c7265616479206d696e74656400000000600082015250565b6000613791601c8361223a565b915061379c8261375b565b602082019050919050565b600060208201905081810360008301526137c081613784565b9050919050565b7f53656e64657220616c7265616479207369676e65640000000000000000000000600082015250565b60006137fd60158361223a565b9150613808826137c7565b602082019050919050565b6000602082019050818103600083015261382c816137f0565b9050919050565b7f53656e646572206e6f7420696e207461726765742061756469656e6365000000600082015250565b6000613869601d8361223a565b915061387482613833565b602082019050919050565b600060208201905081810360008301526138988161385c565b9050919050565b6000819050919050565b6138ba6138b582612529565b61389f565b82525050565b60006138cc82856138a9565b6020820191506138dc8284612f2e565b6014820191508190509392505050565b7f4e487b7100000000000000000000000000000000000000000000000000000000600052603260045260246000fd5b600081519050919050565b600082825260208201905092915050565b60006139428261391b565b61394c8185613926565b935061395c81856020860161224b565b61396581612275565b840191505092915050565b60006080820190506139856000830187612376565b6139926020830186612376565b61399f6040830185612439565b81810360608301526139b18184613937565b905095945050505050565b6000815190506139cb816121a0565b92915050565b6000602082840312156139e7576139e661216a565b5b60006139f5848285016139bc565b9150509291505056fea2646970667358221220b1136538bb30acec2373628161117e649bcf53a2e53ecef1ca8b9ad2736486fb64736f6c63430008180033",
  "linkReferences": {},
  "deployedLinkReferences": {}
}