{
  "_format": "hh-sol-artifact-1",
  "contractName": "MehAdV1",
  "sourceName": "contracts/MehAdV1.sol",
  "abi": [
    {
      "inputs": [
        {
          "internalType": "string",
          "name": "name",
          "type": "string"
        },
        {
          "internalType": "string",
          "name": "symbol",
          "type": "string"
        },
        {
          "internalType": "address",
          "name": "mehTokenAddress",
          "type": "address"
        }
      ],
      "stateMutability": "nonpayable",
      "type": "constructor"
    },
    {
      "anonymous": false,
      "inputs": [
        {
          "indexed": true,
          "internalType": "address",
          "name": "owner",
          "type": "address"
        },
        {
          "indexed": true,
          "internalType": "address",
          "name": "approved",
          "type": "address"
        },
        {
          "indexed": true,
          "internalType": "uint256",
          "name": "tokenId",
          "type": "uint256"
        }
      ],
      "name": "Approval",
      "type": "event"
    },
    {
      "anonymous": false,
      "inputs": [
        {
          "indexed": true,
          "internalType": "address",
          "name": "owner",
          "type": "address"
        },
        {
          "indexed": true,
          "internalType": "address",
          "name": "operator",
          "type": "address"
        },
        {
          "indexed": false,
          "internalType": "bool",
          "name": "approved",
          "type": "bool"
        }
      ],
      "name": "ApprovalForAll",
      "type": "event"
    },
    {
      "anonymous": false,
      "inputs": [
        {
          "indexed": true,
          "internalType": "address",
          "name": "previousOwner",
          "type": "address"
        },
        {
          "indexed": true,
          "internalType": "address",
          "name": "newOwner",
          "type": "address"
        }
      ],
      "name": "OwnershipTransferred",
      "type": "event"
    },
    {
      "anonymous": false,
      "inputs": [
        {
          "indexed": true,
          "internalType": "address",
          "name": "from",
          "type": "address"
        },
        {
          "indexed": true,
          "internalType": "address",
          "name": "to",
          "type": "address"
        },
        {
          "indexed": true,
          "internalType": "uint256",
          "name": "tokenId",
          "type": "uint256"
        }
      ],
      "name": "Transfer",
      "type": "event"
    },
    {
      "inputs": [
        {
          "internalType": "address",
          "name": "to",
          "type": "address"
        },
        {
          "internalType": "uint256",
          "name": "tokenId",
          "type": "uint256"
        }
      ],
      "name": "approve",
      "outputs": [],
      "stateMutability": "nonpayable",
      "type": "function"
    },
    {
      "inputs": [
        {
          "internalType": "address",
          "name": "owner",
          "type": "address"
        }
      ],
      "name": "balanceOf",
      "outputs": [
        {
          "internalType": "uint256",
          "name": "",
          "type": "uint256"
        }
      ],
      "stateMutability": "view",
      "type": "function"
    },
    {
      "inputs": [
        {
          "internalType": "address",
          "name": "",
          "type": "address"
        }
      ],
      "name": "discounts",
      "outputs": [
        {
          "internalType": "uint256",
          "name": "",
          "type": "uint256"
        }
      ],
      "stateMutability": "view",
      "type": "function"
    },
    {
      "inputs": [
        {
          "internalType": "uint256",
          "name": "id",
          "type": "uint256"
        }
      ],
      "name": "displayAd",
      "outputs": [
        {
          "components": [
            {
              "internalType": "string",
              "name": "adURI",
              "type": "string"
            },
            {
              "internalType": "string",
              "name": "dataURI",
              "type": "string"
            },
            {
              "internalType": "bytes32",
              "name": "signatureRoot",
              "type": "bytes32"
            },
            {
              "internalType": "bytes32",
              "name": "audienceRoot",
              "type": "bytes32"
            }
          ],
          "internalType": "struct IERCAd.Ad",
          "name": "",
          "type": "tuple"
        }
      ],
      "stateMutability": "view",
      "type": "function"
    },
    {
      "inputs": [
        {
          "internalType": "uint256",
          "name": "tokenId",
          "type": "uint256"
        }
      ],
      "name": "getApproved",
      "outputs": [
        {
          "internalType": "address",
          "name": "",
          "type": "address"
        }
      ],
      "stateMutability": "view",
      "type": "function"
    },
    {
      "inputs": [
        {
          "internalType": "uint256",
          "name": "id",
          "type": "uint256"
        },
        {
          "internalType": "bytes32[]",
          "name": "proof",
          "type": "bytes32[]"
        }
      ],
      "name": "hasSignedAd",
      "outputs": [
        {
          "internalType": "bool",
          "name": "",
          "type": "bool"
        }
      ],
      "stateMutability": "view",
      "type": "function"
    },
    {
      "inputs": [
        {
          "internalType": "address",
          "name": "owner",
          "type": "address"
        },
        {
          "internalType": "address",
          "name": "operator",
          "type": "address"
        }
      ],
      "name": "isApprovedForAll",
      "outputs": [
        {
          "internalType": "bool",
          "name": "",
          "type": "bool"
        }
      ],
      "stateMutability": "view",
      "type": "function"
    },
    {
      "inputs": [
        {
          "internalType": "uint256",
          "name": "id",
          "type": "uint256"
        },
        {
          "internalType": "bytes32[]",
          "name": "proof",
          "type": "bytes32[]"
        }
      ],
      "name": "isInAudience",
      "outputs": [
        {
          "internalType": "bool",
          "name": "",
          "type": "bool"
        }
      ],
      "stateMutability": "view",
      "type": "function"
    },
    {
      "inputs": [],
      "name": "mehToken",
      "outputs": [
        {
          "internalType": "contract IERC20",
          "name": "",
          "type": "address"
        }
      ],
      "stateMutability": "view",
      "type": "function"
    },
    {
      "inputs": [],
      "name": "name",
      "outputs": [
        {
          "internalType": "string",
          "name": "",
          "type": "string"
        }
      ],
      "stateMutability": "view",
      "type": "function"
    },
    {
      "inputs": [],
      "name": "owner",
      "outputs": [
        {
          "internalType": "address",
          "name": "",
          "type": "address"
        }
      ],
      "stateMutability": "view",
      "type": "function"
    },
    {
      "inputs": [
        {
          "internalType": "uint256",
          "name": "tokenId",
          "type": "uint256"
        }
      ],
      "name": "ownerOf",
      "outputs": [
        {
          "internalType": "address",
          "name": "",
          "type": "address"
        }
      ],
      "stateMutability": "view",
      "type": "function"
    },
    {
      "inputs": [],
      "name": "renounceOwnership",
      "outputs": [],
      "stateMutability": "nonpayable",
      "type": "function"
    },
    {
      "inputs": [
        {
          "internalType": "address",
          "name": "from",
          "type": "address"
        },
        {
          "internalType": "address",
          "name": "to",
          "type": "address"
        },
        {
          "internalType": "uint256",
          "name": "tokenId",
          "type": "uint256"
        }
      ],
      "name": "safeTransferFrom",
      "outputs": [],
      "stateMutability": "nonpayable",
      "type": "function"
    },
    {
      "inputs": [
        {
          "internalType": "address",
          "name": "from",
          "type": "address"
        },
        {
          "internalType": "address",
          "name": "to",
          "type": "address"
        },
        {
          "internalType": "uint256",
          "name": "tokenId",
          "type": "uint256"
        },
        {
          "internalType": "bytes",
          "name": "data",
          "type": "bytes"
        }
      ],
      "name": "safeTransferFrom",
      "outputs": [],
      "stateMutability": "nonpayable",
      "type": "function"
    },
    {
      "inputs": [
        {
          "internalType": "string",
          "name": "adURI",
          "type": "string"
        },
        {
          "internalType": "string",
          "name": "dataURI",
          "type": "string"
        },
        {
          "internalType": "bytes32",
          "name": "signatureRoot",
          "type": "bytes32"
        },
        {
          "internalType": "bytes32",
          "name": "audienceRoot",
          "type": "bytes32"
        }
      ],
      "name": "setAd",
      "outputs": [],
      "stateMutability": "nonpayable",
      "type": "function"
    },
    {
      "inputs": [
        {
          "internalType": "address",
          "name": "operator",
          "type": "address"
        },
        {
          "internalType": "bool",
          "name": "approved",
          "type": "bool"
        }
      ],
      "name": "setApprovalForAll",
      "outputs": [],
      "stateMutability": "nonpayable",
      "type": "function"
    },
    {
      "inputs": [
        {
          "internalType": "uint256",
          "name": "id",
          "type": "uint256"
        },
        {
          "internalType": "bytes32[]",
          "name": "proof",
          "type": "bytes32[]"
        }
      ],
      "name": "signAd",
      "outputs": [],
      "stateMutability": "nonpayable",
      "type": "function"
    },
    {
      "inputs": [
        {
          "internalType": "bytes4",
          "name": "interfaceId",
          "type": "bytes4"
        }
      ],
      "name": "supportsInterface",
      "outputs": [
        {
          "internalType": "bool",
          "name": "",
          "type": "bool"
        }
      ],
      "stateMutability": "view",
      "type": "function"
    },
    {
      "inputs": [],
      "name": "symbol",
      "outputs": [
        {
          "internalType": "string",
          "name": "",
          "type": "string"
        }
      ],
      "stateMutability": "view",
      "type": "function"
    },
    {
      "inputs": [
        {
          "internalType": "uint256",
          "name": "tokenId",
          "type": "uint256"
        }
      ],
      "name": "tokenURI",
      "outputs": [
        {
          "internalType": "string",
          "name": "",
          "type": "string"
        }
      ],
      "stateMutability": "view",
      "type": "function"
    },
    {
      "inputs": [
        {
          "internalType": "address",
          "name": "from",
          "type": "address"
        },
        {
          "internalType": "address",
          "name": "to",
          "type": "address"
        },
        {
          "internalType": "uint256",
          "name": "tokenId",
          "type": "uint256"
        }
      ],
      "name": "transferFrom",
      "outputs": [],
      "stateMutability": "nonpayable",
      "type": "function"
    },
    {
      "inputs": [
        {
          "internalType": "address",
          "name": "newOwner",
          "type": "address"
        }
      ],
      "name": "transferOwnership",
      "outputs": [],
      "stateMutability": "nonpayable",
      "type": "function"
    }
  ],
  "bytecode": "0x60806040523480156200001157600080fd5b506040516200403a3803806200403a833981810160405281019062000037919062000393565b8282818181600090816200004c919062000678565b5080600190816200005e919062000678565b5050506200008162000075620000cd60201b60201c565b620000d560201b60201c565b505080600d60006101000a81548173ffffffffffffffffffffffffffffffffffffffff021916908373ffffffffffffffffffffffffffffffffffffffff1602179055505050506200075f565b600033905090565b6000600660009054906101000a900473ffffffffffffffffffffffffffffffffffffffff16905081600660006101000a81548173ffffffffffffffffffffffffffffffffffffffff021916908373ffffffffffffffffffffffffffffffffffffffff1602179055508173ffffffffffffffffffffffffffffffffffffffff168173ffffffffffffffffffffffffffffffffffffffff167f8be0079c531659141344cd1fd0a4f28419497f9722a3daafe3b4186f6b6457e060405160405180910390a35050565b6000604051905090565b600080fd5b600080fd5b600080fd5b600080fd5b6000601f19601f8301169050919050565b7f4e487b7100000000000000000000000000000000000000000000000000000000600052604160045260246000fd5b6200020482620001b9565b810181811067ffffffffffffffff82111715620002265762000225620001ca565b5b80604052505050565b60006200023b6200019b565b9050620002498282620001f9565b919050565b600067ffffffffffffffff8211156200026c576200026b620001ca565b5b6200027782620001b9565b9050602081019050919050565b60005b83811015620002a457808201518184015260208101905062000287565b60008484015250505050565b6000620002c7620002c1846200024e565b6200022f565b905082815260208101848484011115620002e657620002e5620001b4565b5b620002f384828562000284565b509392505050565b600082601f830112620003135762000312620001af565b5b815162000325848260208601620002b0565b91505092915050565b600073ffffffffffffffffffffffffffffffffffffffff82169050919050565b60006200035b826200032e565b9050919050565b6200036d816200034e565b81146200037957600080fd5b50565b6000815190506200038d8162000362565b92915050565b600080600060608486031215620003af57620003ae620001a5565b5b600084015167ffffffffffffffff811115620003d057620003cf620001aa565b5b620003de86828701620002fb565b935050602084015167ffffffffffffffff811115620004025762000401620001aa565b5b6200041086828701620002fb565b925050604062000423868287016200037c565b9150509250925092565b600081519050919050565b7f4e487b7100000000000000000000000000000000000000000000000000000000600052602260045260246000fd5b600060028204905060018216806200048057607f821691505b60208210810362000496576200049562000438565b5b50919050565b60008190508160005260206000209050919050565b60006020601f8301049050919050565b600082821b905092915050565b600060088302620005007fffffffffffffffffffffffffffffffffffffffffffffffffffffffffffffffff82620004c1565b6200050c8683620004c1565b95508019841693508086168417925050509392505050565b6000819050919050565b6000819050919050565b600062000559620005536200054d8462000524565b6200052e565b62000524565b9050919050565b6000819050919050565b620005758362000538565b6200058d620005848262000560565b848454620004ce565b825550505050565b600090565b620005a462000595565b620005b18184846200056a565b505050565b5b81811015620005d957620005cd6000826200059a565b600181019050620005b7565b5050565b601f8211156200062857620005f2816200049c565b620005fd84620004b1565b810160208510156200060d578190505b620006256200061c85620004b1565b830182620005b6565b50505b505050565b600082821c905092915050565b60006200064d600019846008026200062d565b1980831691505092915050565b60006200066883836200063a565b9150826002028217905092915050565b62000683826200042d565b67ffffffffffffffff8111156200069f576200069e620001ca565b5b620006ab825462000467565b620006b8828285620005dd565b600060209050601f831160018114620006f05760008415620006db578287015190505b620006e785826200065a565b86555062000757565b601f19841662000700866200049c565b60005b828110156200072a5784890151825560018201915060208501945060208101905062000703565b868310156200074a578489015162000746601f8916826200063a565b8355505b6001600288020188555050505b505050505050565b6138cb806200076f6000396000f3fe608060405234801561001057600080fd5b506004361061014d5760003560e01c80638b4d9eb9116100c3578063d13e2af91161007c578063d13e2af9146103c2578063dfe194fe146103de578063e2c2c8841461040e578063e985e9c51461042c578063f2fde38b1461045c578063fe49e833146104785761014d565b80638b4d9eb9146102ee5780638da5cb5b1461031e57806395d89b411461033c578063a22cb4651461035a578063b88d4fde14610376578063c87b56dd146103925761014d565b806323b872dd1161011557806323b872dd1461021c57806342842e0e146102385780636352211e14610254578063672fb9691461028457806370a08231146102b4578063715018a6146102e45761014d565b806301ffc9a71461015257806306fdde0314610182578063081812fc146101a0578063095ea7b3146101d05780630fff4474146101ec575b600080fd5b61016c60048036038101906101679190612162565b610494565b60405161017991906121aa565b60405180910390f35b61018a610576565b6040516101979190612255565b60405180910390f35b6101ba60048036038101906101b591906122ad565b610608565b6040516101c7919061231b565b60405180910390f35b6101ea60048036038101906101e59190612362565b61064e565b005b610206600480360381019061020191906123a2565b610765565b60405161021391906123de565b60405180910390f35b610236600480360381019061023191906123f9565b61077d565b005b610252600480360381019061024d91906123f9565b6107dd565b005b61026e600480360381019061026991906122ad565b6107fd565b60405161027b919061231b565b60405180910390f35b61029e600480360381019061029991906122ad565b610883565b6040516102ab9190612519565b60405180910390f35b6102ce60048036038101906102c991906123a2565b6109e8565b6040516102db91906123de565b60405180910390f35b6102ec610a9f565b005b610308600480360381019061030391906125a0565b610ab3565b60405161031591906121aa565b60405180910390f35b610326610b9a565b604051610333919061231b565b60405180910390f35b610344610bc4565b6040516103519190612255565b60405180910390f35b610374600480360381019061036f919061262c565b610c56565b005b610390600480360381019061038b919061279c565b610c6c565b005b6103ac60048036038101906103a791906122ad565b610cce565b6040516103b99190612255565b60405180910390f35b6103dc60048036038101906103d791906128ec565b610dad565b005b6103f860048036038101906103f391906125a0565b610eab565b60405161040591906121aa565b60405180910390f35b610416610fab565b60405161042391906129ea565b60405180910390f35b61044660048036038101906104419190612a05565b610fd1565b60405161045391906121aa565b60405180910390f35b610476600480360381019061047191906123a2565b611065565b005b610492600480360381019061048d91906125a0565b6110e8565b005b60007f80ac58cd000000000000000000000000000000000000000000000000000000007bffffffffffffffffffffffffffffffffffffffffffffffffffffffff1916827bffffffffffffffffffffffffffffffffffffffffffffffffffffffff1916148061055f57507f5b5e139f000000000000000000000000000000000000000000000000000000007bffffffffffffffffffffffffffffffffffffffffffffffffffffffff1916827bffffffffffffffffffffffffffffffffffffffffffffffffffffffff1916145b8061056f575061056e826111ac565b5b9050919050565b60606000805461058590612a74565b80601f01602080910402602001604051908101604052809291908181526020018280546105b190612a74565b80156105fe5780601f106105d3576101008083540402835291602001916105fe565b820191906000526020600020905b8154815290600101906020018083116105e157829003601f168201915b5050505050905090565b600061061382611216565b6004600083815260200190815260200160002060009054906101000a900473ffffffffffffffffffffffffffffffffffffffff169050919050565b6000610659826107fd565b90508073ffffffffffffffffffffffffffffffffffffffff168373ffffffffffffffffffffffffffffffffffffffff16036106c9576040517f08c379a00000000000000000000000000000000000000000000000000000000081526004016106c090612b17565b60405180910390fd5b8073ffffffffffffffffffffffffffffffffffffffff166106e8611261565b73ffffffffffffffffffffffffffffffffffffffff161480610717575061071681610711611261565b610fd1565b5b610756576040517f08c379a000000000000000000000000000000000000000000000000000000000815260040161074d90612ba9565b60405180910390fd5b6107608383611269565b505050565b600e6020528060005260406000206000915090505481565b61078e610788611261565b82611322565b6107cd576040517f08c379a00000000000000000000000000000000000000000000000000000000081526004016107c490612c3b565b60405180910390fd5b6107d88383836113b7565b505050565b6107f883838360405180602001604052806000815250610c6c565b505050565b600080610809836116b0565b9050600073ffffffffffffffffffffffffffffffffffffffff168173ffffffffffffffffffffffffffffffffffffffff160361087a576040517f08c379a000000000000000000000000000000000000000000000000000000000815260040161087190612ca7565b60405180910390fd5b80915050919050565b61088b6120c8565b600c60008381526020019081526020016000206040518060800160405290816000820180546108b990612a74565b80601f01602080910402602001604051908101604052809291908181526020018280546108e590612a74565b80156109325780601f1061090757610100808354040283529160200191610932565b820191906000526020600020905b81548152906001019060200180831161091557829003601f168201915b5050505050815260200160018201805461094b90612a74565b80601f016020809104026020016040519081016040528092919081815260200182805461097790612a74565b80156109c45780601f10610999576101008083540402835291602001916109c4565b820191906000526020600020905b8154815290600101906020018083116109a757829003601f168201915b50505050508152602001600282015481526020016003820154815250509050919050565b60008073ffffffffffffffffffffffffffffffffffffffff168273ffffffffffffffffffffffffffffffffffffffff1603610a58576040517f08c379a0000000000000000000000000000000000000000000000000000000008152600401610a4f90612d39565b60405180910390fd5b600360008373ffffffffffffffffffffffffffffffffffffffff1673ffffffffffffffffffffffffffffffffffffffff168152602001908152602001600020549050919050565b610aa76116ed565b610ab1600061176b565b565b6000610abe84611831565b610afd576040517f08c379a0000000000000000000000000000000000000000000000000000000008152600401610af490612da5565b60405180910390fd5b6000600c60008681526020019081526020016000209050600033604051602001610b279190612e0d565b604051602081830303815290604052805190602001209050610b8f858580806020026020016040519081016040528093929190818152602001838360200280828437600081840152601f19601f82011690508083019250505050505050836002015483611872565b925050509392505050565b6000600660009054906101000a900473ffffffffffffffffffffffffffffffffffffffff16905090565b606060018054610bd390612a74565b80601f0160208091040260200160405190810160405280929190818152602001828054610bff90612a74565b8015610c4c5780601f10610c2157610100808354040283529160200191610c4c565b820191906000526020600020905b815481529060010190602001808311610c2f57829003601f168201915b5050505050905090565b610c68610c61611261565b8383611889565b5050565b610c7d610c77611261565b83611322565b610cbc576040517f08c379a0000000000000000000000000000000000000000000000000000000008152600401610cb390612c3b565b60405180910390fd5b610cc8848484846119f5565b50505050565b6060610cd982611831565b610d18576040517f08c379a0000000000000000000000000000000000000000000000000000000008152600401610d0f90612e9a565b60405180910390fd5b60086000018054610d2890612a74565b80601f0160208091040260200160405190810160405280929190818152602001828054610d5490612a74565b8015610da15780601f10610d7657610100808354040283529160200191610da1565b820191906000526020600020905b815481529060010190602001808311610d8457829003601f168201915b50505050509050919050565b610db56116ed565b610dbf6007611a51565b6000610dcb6007611a67565b9050604051806080016040528086815260200185815260200184815260200183815250600c60008381526020019081526020016000206000820151816000019081610e16919061305c565b506020820151816001019081610e2c919061305c565b506040820151816002015560608201518160030155905050610e4e3382611a75565b600c6000828152602001908152602001600020600860008201816000019081610e779190613144565b5060018201816001019081610e8c9190613144565b5060028201548160020155600382015481600301559050505050505050565b6000610eb684611831565b610ef5576040517f08c379a0000000000000000000000000000000000000000000000000000000008152600401610eec90612da5565b60405180910390fd5b6000600c600086815260200190815260200160002090506000801b816003015414610f9e57600033604051602001610f2d9190612e0d565b604051602081830303815290604052805190602001209050610f95858580806020026020016040519081016040528093929190818152602001838360200280828437600081840152601f19601f82011690508083019250505050505050836003015483611872565b92505050610fa4565b60019150505b9392505050565b600d60009054906101000a900473ffffffffffffffffffffffffffffffffffffffff1681565b6000600560008473ffffffffffffffffffffffffffffffffffffffff1673ffffffffffffffffffffffffffffffffffffffff16815260200190815260200160002060008373ffffffffffffffffffffffffffffffffffffffff1673ffffffffffffffffffffffffffffffffffffffff16815260200190815260200160002060009054906101000a900460ff16905092915050565b61106d6116ed565b600073ffffffffffffffffffffffffffffffffffffffff168173ffffffffffffffffffffffffffffffffffffffff16036110dc576040517f08c379a00000000000000000000000000000000000000000000000000000000081526004016110d39061329e565b60405180910390fd5b6110e58161176b565b50565b6110f3838383611c92565b6110fc83611e38565b600d60009054906101000a900473ffffffffffffffffffffffffffffffffffffffff1673ffffffffffffffffffffffffffffffffffffffff1663a9059cbb33690a968163f0a57b4000006040518363ffffffff1660e01b81526004016111639291906132f9565b6020604051808303816000875af1158015611182573d6000803e3d6000fd5b505050506040513d601f19601f820116820180604052508101906111a69190613337565b50505050565b60007f01ffc9a7000000000000000000000000000000000000000000000000000000007bffffffffffffffffffffffffffffffffffffffffffffffffffffffff1916827bffffffffffffffffffffffffffffffffffffffffffffffffffffffff1916149050919050565b61121f81611831565b61125e576040517f08c379a000000000000000000000000000000000000000000000000000000000815260040161125590612ca7565b60405180910390fd5b50565b600033905090565b816004600083815260200190815260200160002060006101000a81548173ffffffffffffffffffffffffffffffffffffffff021916908373ffffffffffffffffffffffffffffffffffffffff160217905550808273ffffffffffffffffffffffffffffffffffffffff166112dc836107fd565b73ffffffffffffffffffffffffffffffffffffffff167f8c5be1e5ebec7d5bd14f71427d1e84f3dd0314c0f7b2291e5b200ac8c7c3b92560405160405180910390a45050565b60008061132e836107fd565b90508073ffffffffffffffffffffffffffffffffffffffff168473ffffffffffffffffffffffffffffffffffffffff161480611370575061136f8185610fd1565b5b806113ae57508373ffffffffffffffffffffffffffffffffffffffff1661139684610608565b73ffffffffffffffffffffffffffffffffffffffff16145b91505092915050565b8273ffffffffffffffffffffffffffffffffffffffff166113d7826107fd565b73ffffffffffffffffffffffffffffffffffffffff161461142d576040517f08c379a0000000000000000000000000000000000000000000000000000000008152600401611424906133d6565b60405180910390fd5b600073ffffffffffffffffffffffffffffffffffffffff168273ffffffffffffffffffffffffffffffffffffffff160361149c576040517f08c379a000000000000000000000000000000000000000000000000000000000815260040161149390613468565b60405180910390fd5b6114a98383836001611e80565b8273ffffffffffffffffffffffffffffffffffffffff166114c9826107fd565b73ffffffffffffffffffffffffffffffffffffffff161461151f576040517f08c379a0000000000000000000000000000000000000000000000000000000008152600401611516906133d6565b60405180910390fd5b6004600082815260200190815260200160002060006101000a81549073ffffffffffffffffffffffffffffffffffffffff02191690556001600360008573ffffffffffffffffffffffffffffffffffffffff1673ffffffffffffffffffffffffffffffffffffffff168152602001908152602001600020600082825403925050819055506001600360008473ffffffffffffffffffffffffffffffffffffffff1673ffffffffffffffffffffffffffffffffffffffff16815260200190815260200160002060008282540192505081905550816002600083815260200190815260200160002060006101000a81548173ffffffffffffffffffffffffffffffffffffffff021916908373ffffffffffffffffffffffffffffffffffffffff160217905550808273ffffffffffffffffffffffffffffffffffffffff168473ffffffffffffffffffffffffffffffffffffffff167fddf252ad1be2c89b69c2b068fc378daa952ba7f163c4a11628f55a4df523b3ef60405160405180910390a46116ab8383836001611e86565b505050565b60006002600083815260200190815260200160002060009054906101000a900473ffffffffffffffffffffffffffffffffffffffff169050919050565b6116f5611261565b73ffffffffffffffffffffffffffffffffffffffff16611713610b9a565b73ffffffffffffffffffffffffffffffffffffffff1614611769576040517f08c379a0000000000000000000000000000000000000000000000000000000008152600401611760906134d4565b60405180910390fd5b565b6000600660009054906101000a900473ffffffffffffffffffffffffffffffffffffffff16905081600660006101000a81548173ffffffffffffffffffffffffffffffffffffffff021916908373ffffffffffffffffffffffffffffffffffffffff1602179055508173ffffffffffffffffffffffffffffffffffffffff168173ffffffffffffffffffffffffffffffffffffffff167f8be0079c531659141344cd1fd0a4f28419497f9722a3daafe3b4186f6b6457e060405160405180910390a35050565b60008073ffffffffffffffffffffffffffffffffffffffff16611853836116b0565b73ffffffffffffffffffffffffffffffffffffffff1614159050919050565b60008261187f8584611e8c565b1490509392505050565b8173ffffffffffffffffffffffffffffffffffffffff168373ffffffffffffffffffffffffffffffffffffffff16036118f7576040517f08c379a00000000000000000000000000000000000000000000000000000000081526004016118ee90613540565b60405180910390fd5b80600560008573ffffffffffffffffffffffffffffffffffffffff1673ffffffffffffffffffffffffffffffffffffffff16815260200190815260200160002060008473ffffffffffffffffffffffffffffffffffffffff1673ffffffffffffffffffffffffffffffffffffffff16815260200190815260200160002060006101000a81548160ff0219169083151502179055508173ffffffffffffffffffffffffffffffffffffffff168373ffffffffffffffffffffffffffffffffffffffff167f17307eab39ab6107e8899845ad3d59bd9653f200f220920489ca2b5937696c31836040516119e891906121aa565b60405180910390a3505050565b611a008484846113b7565b611a0c84848484611edc565b611a4b576040517f08c379a0000000000000000000000000000000000000000000000000000000008152600401611a42906135d2565b60405180910390fd5b50505050565b6001816000016000828254019250508190555050565b600081600001549050919050565b600073ffffffffffffffffffffffffffffffffffffffff168273ffffffffffffffffffffffffffffffffffffffff1603611ae4576040517f08c379a0000000000000000000000000000000000000000000000000000000008152600401611adb9061363e565b60405180910390fd5b611aed81611831565b15611b2d576040517f08c379a0000000000000000000000000000000000000000000000000000000008152600401611b24906136aa565b60405180910390fd5b611b3b600083836001611e80565b611b4481611831565b15611b84576040517f08c379a0000000000000000000000000000000000000000000000000000000008152600401611b7b906136aa565b60405180910390fd5b6001600360008473ffffffffffffffffffffffffffffffffffffffff1673ffffffffffffffffffffffffffffffffffffffff16815260200190815260200160002060008282540192505081905550816002600083815260200190815260200160002060006101000a81548173ffffffffffffffffffffffffffffffffffffffff021916908373ffffffffffffffffffffffffffffffffffffffff160217905550808273ffffffffffffffffffffffffffffffffffffffff16600073ffffffffffffffffffffffffffffffffffffffff167fddf252ad1be2c89b69c2b068fc378daa952ba7f163c4a11628f55a4df523b3ef60405160405180910390a4611c8e600083836001611e86565b5050565b611c9b83611831565b611cda576040517f08c379a0000000000000000000000000000000000000000000000000000000008152600401611cd190612da5565b60405180910390fd5b6000600c60008581526020019081526020016000209050611cfc848484610ab3565b15611d3c576040517f08c379a0000000000000000000000000000000000000000000000000000000008152600401611d3390613716565b60405180910390fd5b600033604051602001611d4f9190612e0d565b604051602081830303815290604052805190602001209050611db7848480806020026020016040519081016040528093929190818152602001838360200280828437600081840152601f19601f82011690508083019250505050505050836002015483611872565b611df6576040517f08c379a0000000000000000000000000000000000000000000000000000000008152600401611ded90613716565b60405180910390fd5b6000826002015433604051602001611e0f929190613757565b604051602081830303815290604052905080805190602001208360020181905550505050505050565b6014600e60003373ffffffffffffffffffffffffffffffffffffffff1673ffffffffffffffffffffffffffffffffffffffff1681526020019081526020016000208190555050565b50505050565b50505050565b60008082905060005b8451811015611ed157611ec282868381518110611eb557611eb4613783565b5b6020026020010151612063565b91508080600101915050611e95565b508091505092915050565b6000611efd8473ffffffffffffffffffffffffffffffffffffffff1661208e565b15612056578373ffffffffffffffffffffffffffffffffffffffff1663150b7a02611f26611261565b8786866040518563ffffffff1660e01b8152600401611f489493929190613807565b6020604051808303816000875af1925050508015611f8457506040513d601f19601f82011682018060405250810190611f819190613868565b60015b612006573d8060008114611fb4576040519150601f19603f3d011682016040523d82523d6000602084013e611fb9565b606091505b506000815103611ffe576040517f08c379a0000000000000000000000000000000000000000000000000000000008152600401611ff5906135d2565b60405180910390fd5b805181602001fd5b63150b7a0260e01b7bffffffffffffffffffffffffffffffffffffffffffffffffffffffff1916817bffffffffffffffffffffffffffffffffffffffffffffffffffffffff19161491505061205b565b600190505b949350505050565b600081831061207b5761207682846120b1565b612086565b61208583836120b1565b5b905092915050565b6000808273ffffffffffffffffffffffffffffffffffffffff163b119050919050565b600082600052816020526040600020905092915050565b6040518060800160405280606081526020016060815260200160008019168152602001600080191681525090565b6000604051905090565b600080fd5b600080fd5b60007fffffffff0000000000000000000000000000000000000000000000000000000082169050919050565b61213f8161210a565b811461214a57600080fd5b50565b60008135905061215c81612136565b92915050565b60006020828403121561217857612177612100565b5b60006121868482850161214d565b91505092915050565b60008115159050919050565b6121a48161218f565b82525050565b60006020820190506121bf600083018461219b565b92915050565b600081519050919050565b600082825260208201905092915050565b60005b838110156121ff5780820151818401526020810190506121e4565b60008484015250505050565b6000601f19601f8301169050919050565b6000612227826121c5565b61223181856121d0565b93506122418185602086016121e1565b61224a8161220b565b840191505092915050565b6000602082019050818103600083015261226f818461221c565b905092915050565b6000819050919050565b61228a81612277565b811461229557600080fd5b50565b6000813590506122a781612281565b92915050565b6000602082840312156122c3576122c2612100565b5b60006122d184828501612298565b91505092915050565b600073ffffffffffffffffffffffffffffffffffffffff82169050919050565b6000612305826122da565b9050919050565b612315816122fa565b82525050565b6000602082019050612330600083018461230c565b92915050565b61233f816122fa565b811461234a57600080fd5b50565b60008135905061235c81612336565b92915050565b6000806040838503121561237957612378612100565b5b60006123878582860161234d565b925050602061239885828601612298565b9150509250929050565b6000602082840312156123b8576123b7612100565b5b60006123c68482850161234d565b91505092915050565b6123d881612277565b82525050565b60006020820190506123f360008301846123cf565b92915050565b60008060006060848603121561241257612411612100565b5b60006124208682870161234d565b93505060206124318682870161234d565b925050604061244286828701612298565b9150509250925092565b600082825260208201905092915050565b6000612468826121c5565b612472818561244c565b93506124828185602086016121e1565b61248b8161220b565b840191505092915050565b6000819050919050565b6124a981612496565b82525050565b600060808301600083015184820360008601526124cc828261245d565b915050602083015184820360208601526124e6828261245d565b91505060408301516124fb60408601826124a0565b50606083015161250e60608601826124a0565b508091505092915050565b6000602082019050818103600083015261253381846124af565b905092915050565b600080fd5b600080fd5b600080fd5b60008083601f8401126125605761255f61253b565b5b8235905067ffffffffffffffff81111561257d5761257c612540565b5b60208301915083602082028301111561259957612598612545565b5b9250929050565b6000806000604084860312156125b9576125b8612100565b5b60006125c786828701612298565b935050602084013567ffffffffffffffff8111156125e8576125e7612105565b5b6125f48682870161254a565b92509250509250925092565b6126098161218f565b811461261457600080fd5b50565b60008135905061262681612600565b92915050565b6000806040838503121561264357612642612100565b5b60006126518582860161234d565b925050602061266285828601612617565b9150509250929050565b600080fd5b7f4e487b7100000000000000000000000000000000000000000000000000000000600052604160045260246000fd5b6126a98261220b565b810181811067ffffffffffffffff821117156126c8576126c7612671565b5b80604052505050565b60006126db6120f6565b90506126e782826126a0565b919050565b600067ffffffffffffffff82111561270757612706612671565b5b6127108261220b565b9050602081019050919050565b82818337600083830152505050565b600061273f61273a846126ec565b6126d1565b90508281526020810184848401111561275b5761275a61266c565b5b61276684828561271d565b509392505050565b600082601f8301126127835761278261253b565b5b813561279384826020860161272c565b91505092915050565b600080600080608085870312156127b6576127b5612100565b5b60006127c48782880161234d565b94505060206127d58782880161234d565b93505060406127e687828801612298565b925050606085013567ffffffffffffffff81111561280757612806612105565b5b6128138782880161276e565b91505092959194509250565b600067ffffffffffffffff82111561283a57612839612671565b5b6128438261220b565b9050602081019050919050565b600061286361285e8461281f565b6126d1565b90508281526020810184848401111561287f5761287e61266c565b5b61288a84828561271d565b509392505050565b600082601f8301126128a7576128a661253b565b5b81356128b7848260208601612850565b91505092915050565b6128c981612496565b81146128d457600080fd5b50565b6000813590506128e6816128c0565b92915050565b6000806000806080858703121561290657612905612100565b5b600085013567ffffffffffffffff81111561292457612923612105565b5b61293087828801612892565b945050602085013567ffffffffffffffff81111561295157612950612105565b5b61295d87828801612892565b935050604061296e878288016128d7565b925050606061297f878288016128d7565b91505092959194509250565b6000819050919050565b60006129b06129ab6129a6846122da565b61298b565b6122da565b9050919050565b60006129c282612995565b9050919050565b60006129d4826129b7565b9050919050565b6129e4816129c9565b82525050565b60006020820190506129ff60008301846129db565b92915050565b60008060408385031215612a1c57612a1b612100565b5b6000612a2a8582860161234d565b9250506020612a3b8582860161234d565b9150509250929050565b7f4e487b7100000000000000000000000000000000000000000000000000000000600052602260045260246000fd5b60006002820490506001821680612a8c57607f821691505b602082108103612a9f57612a9e612a45565b5b50919050565b7f4552433732313a20617070726f76616c20746f2063757272656e74206f776e6560008201527f7200000000000000000000000000000000000000000000000000000000000000602082015250565b6000612b016021836121d0565b9150612b0c82612aa5565b604082019050919050565b60006020820190508181036000830152612b3081612af4565b9050919050565b7f4552433732313a20617070726f76652063616c6c6572206973206e6f7420746f60008201527f6b656e206f776e6572206f7220617070726f76656420666f7220616c6c000000602082015250565b6000612b93603d836121d0565b9150612b9e82612b37565b604082019050919050565b60006020820190508181036000830152612bc281612b86565b9050919050565b7f4552433732313a2063616c6c6572206973206e6f7420746f6b656e206f776e6560008201527f72206f7220617070726f76656400000000000000000000000000000000000000602082015250565b6000612c25602d836121d0565b9150612c3082612bc9565b604082019050919050565b60006020820190508181036000830152612c5481612c18565b9050919050565b7f4552433732313a20696e76616c696420746f6b656e2049440000000000000000600082015250565b6000612c916018836121d0565b9150612c9c82612c5b565b602082019050919050565b60006020820190508181036000830152612cc081612c84565b9050919050565b7f4552433732313a2061646472657373207a65726f206973206e6f74206120766160008201527f6c6964206f776e65720000000000000000000000000000000000000000000000602082015250565b6000612d236029836121d0565b9150612d2e82612cc7565b604082019050919050565b60006020820190508181036000830152612d5281612d16565b9050919050565b7f4552433732313a20616420646f6573206e6f7420657869737400000000000000600082015250565b6000612d8f6019836121d0565b9150612d9a82612d59565b602082019050919050565b60006020820190508181036000830152612dbe81612d82565b9050919050565b60008160601b9050919050565b6000612ddd82612dc5565b9050919050565b6000612def82612dd2565b9050919050565b612e07612e02826122fa565b612de4565b82525050565b6000612e198284612df6565b60148201915081905092915050565b7f4552433732314d657461646174613a2055524920717565727920666f72206e6f60008201527f6e6578697374656e7420746f6b656e0000000000000000000000000000000000602082015250565b6000612e84602f836121d0565b9150612e8f82612e28565b604082019050919050565b60006020820190508181036000830152612eb381612e77565b9050919050565b60008190508160005260206000209050919050565b60006020601f8301049050919050565b600082821b905092915050565b600060088302612f1c7fffffffffffffffffffffffffffffffffffffffffffffffffffffffffffffffff82612edf565b612f268683612edf565b95508019841693508086168417925050509392505050565b6000612f59612f54612f4f84612277565b61298b565b612277565b9050919050565b6000819050919050565b612f7383612f3e565b612f87612f7f82612f60565b848454612eec565b825550505050565b600090565b612f9c612f8f565b612fa7818484612f6a565b505050565b5b81811015612fcb57612fc0600082612f94565b600181019050612fad565b5050565b601f82111561301057612fe181612eba565b612fea84612ecf565b81016020851015612ff9578190505b61300d61300585612ecf565b830182612fac565b50505b505050565b600082821c905092915050565b600061303360001984600802613015565b1980831691505092915050565b600061304c8383613022565b9150826002028217905092915050565b613065826121c5565b67ffffffffffffffff81111561307e5761307d612671565b5b6130888254612a74565b613093828285612fcf565b600060209050601f8311600181146130c657600084156130b4578287015190505b6130be8582613040565b865550613126565b601f1984166130d486612eba565b60005b828110156130fc578489015182556001820191506020850194506020810190506130d7565b868310156131195784890151613115601f891682613022565b8355505b6001600288020188555050505b505050505050565b60008154905061313d81612a74565b9050919050565b81810361315257505061322a565b61315b8261312e565b67ffffffffffffffff81111561317457613173612671565b5b61317e8254612a74565b613189828285612fcf565b6000601f8311600181146131b857600084156131a6578287015490505b6131b08582613040565b865550613223565b601f1984166131c687612eba565b96506131d186612eba565b60005b828110156131f9578489015482556001820191506001850194506020810190506131d4565b868310156132165784890154613212601f891682613022565b8355505b6001600288020188555050505b5050505050505b565b7f4f776e61626c653a206e6577206f776e657220697320746865207a65726f206160008201527f6464726573730000000000000000000000000000000000000000000000000000602082015250565b60006132886026836121d0565b91506132938261322c565b604082019050919050565b600060208201905081810360008301526132b78161327b565b9050919050565b6000819050919050565b60006132e36132de6132d9846132be565b61298b565b612277565b9050919050565b6132f3816132c8565b82525050565b600060408201905061330e600083018561230c565b61331b60208301846132ea565b9392505050565b60008151905061333181612600565b92915050565b60006020828403121561334d5761334c612100565b5b600061335b84828501613322565b91505092915050565b7f4552433732313a207472616e736665722066726f6d20696e636f72726563742060008201527f6f776e6572000000000000000000000000000000000000000000000000000000602082015250565b60006133c06025836121d0565b91506133cb82613364565b604082019050919050565b600060208201905081810360008301526133ef816133b3565b9050919050565b7f4552433732313a207472616e7366657220746f20746865207a65726f2061646460008201527f7265737300000000000000000000000000000000000000000000000000000000602082015250565b60006134526024836121d0565b915061345d826133f6565b604082019050919050565b6000602082019050818103600083015261348181613445565b9050919050565b7f4f776e61626c653a2063616c6c6572206973206e6f7420746865206f776e6572600082015250565b60006134be6020836121d0565b91506134c982613488565b602082019050919050565b600060208201905081810360008301526134ed816134b1565b9050919050565b7f4552433732313a20617070726f766520746f2063616c6c657200000000000000600082015250565b600061352a6019836121d0565b9150613535826134f4565b602082019050919050565b600060208201905081810360008301526135598161351d565b9050919050565b7f4552433732313a207472616e7366657220746f206e6f6e20455243373231526560008201527f63656976657220696d706c656d656e7465720000000000000000000000000000602082015250565b60006135bc6032836121d0565b91506135c782613560565b604082019050919050565b600060208201905081810360008301526135eb816135af565b9050919050565b7f4552433732313a206d696e7420746f20746865207a65726f2061646472657373600082015250565b60006136286020836121d0565b9150613633826135f2565b602082019050919050565b600060208201905081810360008301526136578161361b565b9050919050565b7f4552433732313a20746f6b656e20616c7265616479206d696e74656400000000600082015250565b6000613694601c836121d0565b915061369f8261365e565b602082019050919050565b600060208201905081810360008301526136c381613687565b9050919050565b7f53656e64657220616c7265616479207369676e65640000000000000000000000600082015250565b60006137006015836121d0565b915061370b826136ca565b602082019050919050565b6000602082019050818103600083015261372f816136f3565b9050919050565b6000819050919050565b61375161374c82612496565b613736565b82525050565b60006137638285613740565b6020820191506137738284612df6565b6014820191508190509392505050565b7f4e487b7100000000000000000000000000000000000000000000000000000000600052603260045260246000fd5b600081519050919050565b600082825260208201905092915050565b60006137d9826137b2565b6137e381856137bd565b93506137f38185602086016121e1565b6137fc8161220b565b840191505092915050565b600060808201905061381c600083018761230c565b613829602083018661230c565b61383660408301856123cf565b818103606083015261384881846137ce565b905095945050505050565b60008151905061386281612136565b92915050565b60006020828403121561387e5761387d612100565b5b600061388c84828501613853565b9150509291505056fea264697066735822122044bff22d4576c715bf6c3b3319278629f587b2c68217a28209f3197e411e434064736f6c63430008180033",
  "linkReferences": {},
  "deployedLinkReferences": {}
}