{
  "_format": "hh-sol-artifact-1",
  "contractName": "MehAdV1",
  "sourceName": "contracts/MehAdV1.sol",
  "abi": [
    {
      "inputs": [
        {
          "internalType": "string",
          "name": "name",
          "type": "string"
        },
        {
          "internalType": "string",
          "name": "symbol",
          "type": "string"
        },
        {
          "internalType": "address",
          "name": "mehTokenAddress",
          "type": "address"
        }
      ],
      "stateMutability": "nonpayable",
      "type": "constructor"
    },
    {
      "anonymous": false,
      "inputs": [
        {
          "indexed": true,
          "internalType": "address",
          "name": "owner",
          "type": "address"
        },
        {
          "indexed": true,
          "internalType": "address",
          "name": "approved",
          "type": "address"
        },
        {
          "indexed": true,
          "internalType": "uint256",
          "name": "tokenId",
          "type": "uint256"
        }
      ],
      "name": "Approval",
      "type": "event"
    },
    {
      "anonymous": false,
      "inputs": [
        {
          "indexed": true,
          "internalType": "address",
          "name": "owner",
          "type": "address"
        },
        {
          "indexed": true,
          "internalType": "address",
          "name": "operator",
          "type": "address"
        },
        {
          "indexed": false,
          "internalType": "bool",
          "name": "approved",
          "type": "bool"
        }
      ],
      "name": "ApprovalForAll",
      "type": "event"
    },
    {
      "anonymous": false,
      "inputs": [
        {
          "indexed": true,
          "internalType": "address",
          "name": "previousOwner",
          "type": "address"
        },
        {
          "indexed": true,
          "internalType": "address",
          "name": "newOwner",
          "type": "address"
        }
      ],
      "name": "OwnershipTransferred",
      "type": "event"
    },
    {
      "anonymous": false,
      "inputs": [
        {
          "indexed": true,
          "internalType": "address",
          "name": "from",
          "type": "address"
        },
        {
          "indexed": true,
          "internalType": "address",
          "name": "to",
          "type": "address"
        },
        {
          "indexed": true,
          "internalType": "uint256",
          "name": "tokenId",
          "type": "uint256"
        }
      ],
      "name": "Transfer",
      "type": "event"
    },
    {
      "inputs": [
        {
          "internalType": "address",
          "name": "to",
          "type": "address"
        },
        {
          "internalType": "uint256",
          "name": "tokenId",
          "type": "uint256"
        }
      ],
      "name": "approve",
      "outputs": [],
      "stateMutability": "nonpayable",
      "type": "function"
    },
    {
      "inputs": [
        {
          "internalType": "address",
          "name": "owner",
          "type": "address"
        }
      ],
      "name": "balanceOf",
      "outputs": [
        {
          "internalType": "uint256",
          "name": "",
          "type": "uint256"
        }
      ],
      "stateMutability": "view",
      "type": "function"
    },
    {
      "inputs": [
        {
          "internalType": "address",
          "name": "",
          "type": "address"
        }
      ],
      "name": "discounts",
      "outputs": [
        {
          "internalType": "uint256",
          "name": "",
          "type": "uint256"
        }
      ],
      "stateMutability": "view",
      "type": "function"
    },
    {
      "inputs": [
        {
          "internalType": "uint256",
          "name": "id",
          "type": "uint256"
        }
      ],
      "name": "displayAd",
      "outputs": [
        {
          "components": [
            {
              "internalType": "string",
              "name": "adURI",
              "type": "string"
            },
            {
              "internalType": "string",
              "name": "dataURI",
              "type": "string"
            },
            {
              "internalType": "bytes32",
              "name": "signatureRoot",
              "type": "bytes32"
            },
            {
              "internalType": "bytes32",
              "name": "audienceRoot",
              "type": "bytes32"
            }
          ],
          "internalType": "struct IERCAd.Ad",
          "name": "",
          "type": "tuple"
        }
      ],
      "stateMutability": "view",
      "type": "function"
    },
    {
      "inputs": [
        {
          "internalType": "uint256",
          "name": "tokenId",
          "type": "uint256"
        }
      ],
      "name": "getApproved",
      "outputs": [
        {
          "internalType": "address",
          "name": "",
          "type": "address"
        }
      ],
      "stateMutability": "view",
      "type": "function"
    },
    {
      "inputs": [
        {
          "internalType": "uint256",
          "name": "id",
          "type": "uint256"
        },
        {
          "internalType": "bytes32[]",
          "name": "proof",
          "type": "bytes32[]"
        }
      ],
      "name": "hasSignedAd",
      "outputs": [
        {
          "internalType": "bool",
          "name": "",
          "type": "bool"
        }
      ],
      "stateMutability": "view",
      "type": "function"
    },
    {
      "inputs": [
        {
          "internalType": "address",
          "name": "owner",
          "type": "address"
        },
        {
          "internalType": "address",
          "name": "operator",
          "type": "address"
        }
      ],
      "name": "isApprovedForAll",
      "outputs": [
        {
          "internalType": "bool",
          "name": "",
          "type": "bool"
        }
      ],
      "stateMutability": "view",
      "type": "function"
    },
    {
      "inputs": [
        {
          "internalType": "uint256",
          "name": "id",
          "type": "uint256"
        },
        {
          "internalType": "bytes32[]",
          "name": "proof",
          "type": "bytes32[]"
        }
      ],
      "name": "isInAudience",
      "outputs": [
        {
          "internalType": "bool",
          "name": "",
          "type": "bool"
        }
      ],
      "stateMutability": "view",
      "type": "function"
    },
    {
      "inputs": [],
      "name": "mehToken",
      "outputs": [
        {
          "internalType": "contract IERC20",
          "name": "",
          "type": "address"
        }
      ],
      "stateMutability": "view",
      "type": "function"
    },
    {
      "inputs": [],
      "name": "name",
      "outputs": [
        {
          "internalType": "string",
          "name": "",
          "type": "string"
        }
      ],
      "stateMutability": "view",
      "type": "function"
    },
    {
      "inputs": [],
      "name": "owner",
      "outputs": [
        {
          "internalType": "address",
          "name": "",
          "type": "address"
        }
      ],
      "stateMutability": "view",
      "type": "function"
    },
    {
      "inputs": [
        {
          "internalType": "uint256",
          "name": "tokenId",
          "type": "uint256"
        }
      ],
      "name": "ownerOf",
      "outputs": [
        {
          "internalType": "address",
          "name": "",
          "type": "address"
        }
      ],
      "stateMutability": "view",
      "type": "function"
    },
    {
      "inputs": [],
      "name": "renounceOwnership",
      "outputs": [],
      "stateMutability": "nonpayable",
      "type": "function"
    },
    {
      "inputs": [
        {
          "internalType": "address",
          "name": "from",
          "type": "address"
        },
        {
          "internalType": "address",
          "name": "to",
          "type": "address"
        },
        {
          "internalType": "uint256",
          "name": "tokenId",
          "type": "uint256"
        }
      ],
      "name": "safeTransferFrom",
      "outputs": [],
      "stateMutability": "nonpayable",
      "type": "function"
    },
    {
      "inputs": [
        {
          "internalType": "address",
          "name": "from",
          "type": "address"
        },
        {
          "internalType": "address",
          "name": "to",
          "type": "address"
        },
        {
          "internalType": "uint256",
          "name": "tokenId",
          "type": "uint256"
        },
        {
          "internalType": "bytes",
          "name": "data",
          "type": "bytes"
        }
      ],
      "name": "safeTransferFrom",
      "outputs": [],
      "stateMutability": "nonpayable",
      "type": "function"
    },
    {
      "inputs": [
        {
          "internalType": "string",
          "name": "adURI",
          "type": "string"
        },
        {
          "internalType": "string",
          "name": "dataURI",
          "type": "string"
        },
        {
          "internalType": "bytes32",
          "name": "signatureRoot",
          "type": "bytes32"
        },
        {
          "internalType": "bytes32",
          "name": "audienceRoot",
          "type": "bytes32"
        }
      ],
      "name": "setAd",
      "outputs": [],
      "stateMutability": "nonpayable",
      "type": "function"
    },
    {
      "inputs": [
        {
          "internalType": "address",
          "name": "operator",
          "type": "address"
        },
        {
          "internalType": "bool",
          "name": "approved",
          "type": "bool"
        }
      ],
      "name": "setApprovalForAll",
      "outputs": [],
      "stateMutability": "nonpayable",
      "type": "function"
    },
    {
      "inputs": [
        {
          "internalType": "uint256",
          "name": "id",
          "type": "uint256"
        },
        {
          "internalType": "bytes32[]",
          "name": "proof",
          "type": "bytes32[]"
        }
      ],
      "name": "signAd",
      "outputs": [],
      "stateMutability": "nonpayable",
      "type": "function"
    },
    {
      "inputs": [
        {
          "internalType": "bytes4",
          "name": "interfaceId",
          "type": "bytes4"
        }
      ],
      "name": "supportsInterface",
      "outputs": [
        {
          "internalType": "bool",
          "name": "",
          "type": "bool"
        }
      ],
      "stateMutability": "view",
      "type": "function"
    },
    {
      "inputs": [],
      "name": "symbol",
      "outputs": [
        {
          "internalType": "string",
          "name": "",
          "type": "string"
        }
      ],
      "stateMutability": "view",
      "type": "function"
    },
    {
      "inputs": [
        {
          "internalType": "uint256",
          "name": "tokenId",
          "type": "uint256"
        }
      ],
      "name": "tokenURI",
      "outputs": [
        {
          "internalType": "string",
          "name": "",
          "type": "string"
        }
      ],
      "stateMutability": "view",
      "type": "function"
    },
    {
      "inputs": [
        {
          "internalType": "address",
          "name": "from",
          "type": "address"
        },
        {
          "internalType": "address",
          "name": "to",
          "type": "address"
        },
        {
          "internalType": "uint256",
          "name": "tokenId",
          "type": "uint256"
        }
      ],
      "name": "transferFrom",
      "outputs": [],
      "stateMutability": "nonpayable",
      "type": "function"
    },
    {
      "inputs": [
        {
          "internalType": "address",
          "name": "newOwner",
          "type": "address"
        }
      ],
      "name": "transferOwnership",
      "outputs": [],
      "stateMutability": "nonpayable",
      "type": "function"
    }
  ],
  "bytecode": "0x60806040523480156200001157600080fd5b50604051620040b5380380620040b5833981810160405281019062000037919062000393565b8282818181600090816200004c919062000678565b5080600190816200005e919062000678565b5050506200008162000075620000cd60201b60201c565b620000d560201b60201c565b505080600d60006101000a81548173ffffffffffffffffffffffffffffffffffffffff021916908373ffffffffffffffffffffffffffffffffffffffff1602179055505050506200075f565b600033905090565b6000600660009054906101000a900473ffffffffffffffffffffffffffffffffffffffff16905081600660006101000a81548173ffffffffffffffffffffffffffffffffffffffff021916908373ffffffffffffffffffffffffffffffffffffffff1602179055508173ffffffffffffffffffffffffffffffffffffffff168173ffffffffffffffffffffffffffffffffffffffff167f8be0079c531659141344cd1fd0a4f28419497f9722a3daafe3b4186f6b6457e060405160405180910390a35050565b6000604051905090565b600080fd5b600080fd5b600080fd5b600080fd5b6000601f19601f8301169050919050565b7f4e487b7100000000000000000000000000000000000000000000000000000000600052604160045260246000fd5b6200020482620001b9565b810181811067ffffffffffffffff82111715620002265762000225620001ca565b5b80604052505050565b60006200023b6200019b565b9050620002498282620001f9565b919050565b600067ffffffffffffffff8211156200026c576200026b620001ca565b5b6200027782620001b9565b9050602081019050919050565b60005b83811015620002a457808201518184015260208101905062000287565b60008484015250505050565b6000620002c7620002c1846200024e565b6200022f565b905082815260208101848484011115620002e657620002e5620001b4565b5b620002f384828562000284565b509392505050565b600082601f830112620003135762000312620001af565b5b815162000325848260208601620002b0565b91505092915050565b600073ffffffffffffffffffffffffffffffffffffffff82169050919050565b60006200035b826200032e565b9050919050565b6200036d816200034e565b81146200037957600080fd5b50565b6000815190506200038d8162000362565b92915050565b600080600060608486031215620003af57620003ae620001a5565b5b600084015167ffffffffffffffff811115620003d057620003cf620001aa565b5b620003de86828701620002fb565b935050602084015167ffffffffffffffff811115620004025762000401620001aa565b5b6200041086828701620002fb565b925050604062000423868287016200037c565b9150509250925092565b600081519050919050565b7f4e487b7100000000000000000000000000000000000000000000000000000000600052602260045260246000fd5b600060028204905060018216806200048057607f821691505b60208210810362000496576200049562000438565b5b50919050565b60008190508160005260206000209050919050565b60006020601f8301049050919050565b600082821b905092915050565b600060088302620005007fffffffffffffffffffffffffffffffffffffffffffffffffffffffffffffffff82620004c1565b6200050c8683620004c1565b95508019841693508086168417925050509392505050565b6000819050919050565b6000819050919050565b600062000559620005536200054d8462000524565b6200052e565b62000524565b9050919050565b6000819050919050565b620005758362000538565b6200058d620005848262000560565b848454620004ce565b825550505050565b600090565b620005a462000595565b620005b18184846200056a565b505050565b5b81811015620005d957620005cd6000826200059a565b600181019050620005b7565b5050565b601f8211156200062857620005f2816200049c565b620005fd84620004b1565b810160208510156200060d578190505b620006256200061c85620004b1565b830182620005b6565b50505b505050565b600082821c905092915050565b60006200064d600019846008026200062d565b1980831691505092915050565b60006200066883836200063a565b9150826002028217905092915050565b62000683826200042d565b67ffffffffffffffff8111156200069f576200069e620001ca565b5b620006ab825462000467565b620006b8828285620005dd565b600060209050601f831160018114620006f05760008415620006db578287015190505b620006e785826200065a565b86555062000757565b601f19841662000700866200049c565b60005b828110156200072a5784890151825560018201915060208501945060208101905062000703565b868310156200074a578489015162000746601f8916826200063a565b8355505b6001600288020188555050505b505050505050565b613946806200076f6000396000f3fe608060405234801561001057600080fd5b506004361061014d5760003560e01c80638b4d9eb9116100c3578063d13e2af91161007c578063d13e2af9146103c2578063dfe194fe146103de578063e2c2c8841461040e578063e985e9c51461042c578063f2fde38b1461045c578063fe49e833146104785761014d565b80638b4d9eb9146102ee5780638da5cb5b1461031e57806395d89b411461033c578063a22cb4651461035a578063b88d4fde14610376578063c87b56dd146103925761014d565b806323b872dd1161011557806323b872dd1461021c57806342842e0e146102385780636352211e14610254578063672fb9691461028457806370a08231146102b4578063715018a6146102e45761014d565b806301ffc9a71461015257806306fdde0314610182578063081812fc146101a0578063095ea7b3146101d05780630fff4474146101ec575b600080fd5b61016c60048036038101906101679190612171565b610494565b60405161017991906121b9565b60405180910390f35b61018a610576565b6040516101979190612264565b60405180910390f35b6101ba60048036038101906101b591906122bc565b610608565b6040516101c7919061232a565b60405180910390f35b6101ea60048036038101906101e59190612371565b61064e565b005b610206600480360381019061020191906123b1565b610765565b60405161021391906123ed565b60405180910390f35b61023660048036038101906102319190612408565b61077d565b005b610252600480360381019061024d9190612408565b6107dd565b005b61026e600480360381019061026991906122bc565b6107fd565b60405161027b919061232a565b60405180910390f35b61029e600480360381019061029991906122bc565b610883565b6040516102ab9190612528565b60405180910390f35b6102ce60048036038101906102c991906123b1565b6109e8565b6040516102db91906123ed565b60405180910390f35b6102ec610a9f565b005b610308600480360381019061030391906125af565b610ab3565b60405161031591906121b9565b60405180910390f35b610326610b9a565b604051610333919061232a565b60405180910390f35b610344610bc4565b6040516103519190612264565b60405180910390f35b610374600480360381019061036f919061263b565b610c56565b005b610390600480360381019061038b91906127ab565b610c6c565b005b6103ac60048036038101906103a791906122bc565b610cce565b6040516103b99190612264565b60405180910390f35b6103dc60048036038101906103d791906128fb565b610dad565b005b6103f860048036038101906103f391906125af565b610eab565b60405161040591906121b9565b60405180910390f35b610416610fab565b60405161042391906129f9565b60405180910390f35b61044660048036038101906104419190612a14565b610fd1565b60405161045391906121b9565b60405180910390f35b610476600480360381019061047191906123b1565b611065565b005b610492600480360381019061048d91906125af565b6110e8565b005b60007f80ac58cd000000000000000000000000000000000000000000000000000000007bffffffffffffffffffffffffffffffffffffffffffffffffffffffff1916827bffffffffffffffffffffffffffffffffffffffffffffffffffffffff1916148061055f57507f5b5e139f000000000000000000000000000000000000000000000000000000007bffffffffffffffffffffffffffffffffffffffffffffffffffffffff1916827bffffffffffffffffffffffffffffffffffffffffffffffffffffffff1916145b8061056f575061056e826111ac565b5b9050919050565b60606000805461058590612a83565b80601f01602080910402602001604051908101604052809291908181526020018280546105b190612a83565b80156105fe5780601f106105d3576101008083540402835291602001916105fe565b820191906000526020600020905b8154815290600101906020018083116105e157829003601f168201915b5050505050905090565b600061061382611216565b6004600083815260200190815260200160002060009054906101000a900473ffffffffffffffffffffffffffffffffffffffff169050919050565b6000610659826107fd565b90508073ffffffffffffffffffffffffffffffffffffffff168373ffffffffffffffffffffffffffffffffffffffff16036106c9576040517f08c379a00000000000000000000000000000000000000000000000000000000081526004016106c090612b26565b60405180910390fd5b8073ffffffffffffffffffffffffffffffffffffffff166106e8611261565b73ffffffffffffffffffffffffffffffffffffffff161480610717575061071681610711611261565b610fd1565b5b610756576040517f08c379a000000000000000000000000000000000000000000000000000000000815260040161074d90612bb8565b60405180910390fd5b6107608383611269565b505050565b600e6020528060005260406000206000915090505481565b61078e610788611261565b82611322565b6107cd576040517f08c379a00000000000000000000000000000000000000000000000000000000081526004016107c490612c4a565b60405180910390fd5b6107d88383836113b7565b505050565b6107f883838360405180602001604052806000815250610c6c565b505050565b600080610809836116b0565b9050600073ffffffffffffffffffffffffffffffffffffffff168173ffffffffffffffffffffffffffffffffffffffff160361087a576040517f08c379a000000000000000000000000000000000000000000000000000000000815260040161087190612cb6565b60405180910390fd5b80915050919050565b61088b6120d7565b600c60008381526020019081526020016000206040518060800160405290816000820180546108b990612a83565b80601f01602080910402602001604051908101604052809291908181526020018280546108e590612a83565b80156109325780601f1061090757610100808354040283529160200191610932565b820191906000526020600020905b81548152906001019060200180831161091557829003601f168201915b5050505050815260200160018201805461094b90612a83565b80601f016020809104026020016040519081016040528092919081815260200182805461097790612a83565b80156109c45780601f10610999576101008083540402835291602001916109c4565b820191906000526020600020905b8154815290600101906020018083116109a757829003601f168201915b50505050508152602001600282015481526020016003820154815250509050919050565b60008073ffffffffffffffffffffffffffffffffffffffff168273ffffffffffffffffffffffffffffffffffffffff1603610a58576040517f08c379a0000000000000000000000000000000000000000000000000000000008152600401610a4f90612d48565b60405180910390fd5b600360008373ffffffffffffffffffffffffffffffffffffffff1673ffffffffffffffffffffffffffffffffffffffff168152602001908152602001600020549050919050565b610aa76116ed565b610ab1600061176b565b565b6000610abe84611831565b610afd576040517f08c379a0000000000000000000000000000000000000000000000000000000008152600401610af490612db4565b60405180910390fd5b6000600c60008681526020019081526020016000209050600033604051602001610b279190612e1c565b604051602081830303815290604052805190602001209050610b8f858580806020026020016040519081016040528093929190818152602001838360200280828437600081840152601f19601f82011690508083019250505050505050836002015483611872565b925050509392505050565b6000600660009054906101000a900473ffffffffffffffffffffffffffffffffffffffff16905090565b606060018054610bd390612a83565b80601f0160208091040260200160405190810160405280929190818152602001828054610bff90612a83565b8015610c4c5780601f10610c2157610100808354040283529160200191610c4c565b820191906000526020600020905b815481529060010190602001808311610c2f57829003601f168201915b5050505050905090565b610c68610c61611261565b8383611889565b5050565b610c7d610c77611261565b83611322565b610cbc576040517f08c379a0000000000000000000000000000000000000000000000000000000008152600401610cb390612c4a565b60405180910390fd5b610cc8848484846119f5565b50505050565b6060610cd982611831565b610d18576040517f08c379a0000000000000000000000000000000000000000000000000000000008152600401610d0f90612ea9565b60405180910390fd5b60086000018054610d2890612a83565b80601f0160208091040260200160405190810160405280929190818152602001828054610d5490612a83565b8015610da15780601f10610d7657610100808354040283529160200191610da1565b820191906000526020600020905b815481529060010190602001808311610d8457829003601f168201915b50505050509050919050565b610db56116ed565b610dbf6007611a51565b6000610dcb6007611a67565b9050604051806080016040528086815260200185815260200184815260200183815250600c60008381526020019081526020016000206000820151816000019081610e16919061306b565b506020820151816001019081610e2c919061306b565b506040820151816002015560608201518160030155905050610e4e3382611a75565b600c6000828152602001908152602001600020600860008201816000019081610e779190613153565b5060018201816001019081610e8c9190613153565b5060028201548160020155600382015481600301559050505050505050565b6000610eb684611831565b610ef5576040517f08c379a0000000000000000000000000000000000000000000000000000000008152600401610eec90612db4565b60405180910390fd5b6000600c600086815260200190815260200160002090506000801b816003015414610f9e57600033604051602001610f2d9190612e1c565b604051602081830303815290604052805190602001209050610f95858580806020026020016040519081016040528093929190818152602001838360200280828437600081840152601f19601f82011690508083019250505050505050836003015483611872565b92505050610fa4565b60019150505b9392505050565b600d60009054906101000a900473ffffffffffffffffffffffffffffffffffffffff1681565b6000600560008473ffffffffffffffffffffffffffffffffffffffff1673ffffffffffffffffffffffffffffffffffffffff16815260200190815260200160002060008373ffffffffffffffffffffffffffffffffffffffff1673ffffffffffffffffffffffffffffffffffffffff16815260200190815260200160002060009054906101000a900460ff16905092915050565b61106d6116ed565b600073ffffffffffffffffffffffffffffffffffffffff168173ffffffffffffffffffffffffffffffffffffffff16036110dc576040517f08c379a00000000000000000000000000000000000000000000000000000000081526004016110d3906132ad565b60405180910390fd5b6110e58161176b565b50565b6110f3838383611c92565b6110fc83611e47565b600d60009054906101000a900473ffffffffffffffffffffffffffffffffffffffff1673ffffffffffffffffffffffffffffffffffffffff1663a9059cbb33690a968163f0a57b4000006040518363ffffffff1660e01b8152600401611163929190613308565b6020604051808303816000875af1158015611182573d6000803e3d6000fd5b505050506040513d601f19601f820116820180604052508101906111a69190613346565b50505050565b60007f01ffc9a7000000000000000000000000000000000000000000000000000000007bffffffffffffffffffffffffffffffffffffffffffffffffffffffff1916827bffffffffffffffffffffffffffffffffffffffffffffffffffffffff1916149050919050565b61121f81611831565b61125e576040517f08c379a000000000000000000000000000000000000000000000000000000000815260040161125590612cb6565b60405180910390fd5b50565b600033905090565b816004600083815260200190815260200160002060006101000a81548173ffffffffffffffffffffffffffffffffffffffff021916908373ffffffffffffffffffffffffffffffffffffffff160217905550808273ffffffffffffffffffffffffffffffffffffffff166112dc836107fd565b73ffffffffffffffffffffffffffffffffffffffff167f8c5be1e5ebec7d5bd14f71427d1e84f3dd0314c0f7b2291e5b200ac8c7c3b92560405160405180910390a45050565b60008061132e836107fd565b90508073ffffffffffffffffffffffffffffffffffffffff168473ffffffffffffffffffffffffffffffffffffffff161480611370575061136f8185610fd1565b5b806113ae57508373ffffffffffffffffffffffffffffffffffffffff1661139684610608565b73ffffffffffffffffffffffffffffffffffffffff16145b91505092915050565b8273ffffffffffffffffffffffffffffffffffffffff166113d7826107fd565b73ffffffffffffffffffffffffffffffffffffffff161461142d576040517f08c379a0000000000000000000000000000000000000000000000000000000008152600401611424906133e5565b60405180910390fd5b600073ffffffffffffffffffffffffffffffffffffffff168273ffffffffffffffffffffffffffffffffffffffff160361149c576040517f08c379a000000000000000000000000000000000000000000000000000000000815260040161149390613477565b60405180910390fd5b6114a98383836001611e8f565b8273ffffffffffffffffffffffffffffffffffffffff166114c9826107fd565b73ffffffffffffffffffffffffffffffffffffffff161461151f576040517f08c379a0000000000000000000000000000000000000000000000000000000008152600401611516906133e5565b60405180910390fd5b6004600082815260200190815260200160002060006101000a81549073ffffffffffffffffffffffffffffffffffffffff02191690556001600360008573ffffffffffffffffffffffffffffffffffffffff1673ffffffffffffffffffffffffffffffffffffffff168152602001908152602001600020600082825403925050819055506001600360008473ffffffffffffffffffffffffffffffffffffffff1673ffffffffffffffffffffffffffffffffffffffff16815260200190815260200160002060008282540192505081905550816002600083815260200190815260200160002060006101000a81548173ffffffffffffffffffffffffffffffffffffffff021916908373ffffffffffffffffffffffffffffffffffffffff160217905550808273ffffffffffffffffffffffffffffffffffffffff168473ffffffffffffffffffffffffffffffffffffffff167fddf252ad1be2c89b69c2b068fc378daa952ba7f163c4a11628f55a4df523b3ef60405160405180910390a46116ab8383836001611e95565b505050565b60006002600083815260200190815260200160002060009054906101000a900473ffffffffffffffffffffffffffffffffffffffff169050919050565b6116f5611261565b73ffffffffffffffffffffffffffffffffffffffff16611713610b9a565b73ffffffffffffffffffffffffffffffffffffffff1614611769576040517f08c379a0000000000000000000000000000000000000000000000000000000008152600401611760906134e3565b60405180910390fd5b565b6000600660009054906101000a900473ffffffffffffffffffffffffffffffffffffffff16905081600660006101000a81548173ffffffffffffffffffffffffffffffffffffffff021916908373ffffffffffffffffffffffffffffffffffffffff1602179055508173ffffffffffffffffffffffffffffffffffffffff168173ffffffffffffffffffffffffffffffffffffffff167f8be0079c531659141344cd1fd0a4f28419497f9722a3daafe3b4186f6b6457e060405160405180910390a35050565b60008073ffffffffffffffffffffffffffffffffffffffff16611853836116b0565b73ffffffffffffffffffffffffffffffffffffffff1614159050919050565b60008261187f8584611e9b565b1490509392505050565b8173ffffffffffffffffffffffffffffffffffffffff168373ffffffffffffffffffffffffffffffffffffffff16036118f7576040517f08c379a00000000000000000000000000000000000000000000000000000000081526004016118ee9061354f565b60405180910390fd5b80600560008573ffffffffffffffffffffffffffffffffffffffff1673ffffffffffffffffffffffffffffffffffffffff16815260200190815260200160002060008473ffffffffffffffffffffffffffffffffffffffff1673ffffffffffffffffffffffffffffffffffffffff16815260200190815260200160002060006101000a81548160ff0219169083151502179055508173ffffffffffffffffffffffffffffffffffffffff168373ffffffffffffffffffffffffffffffffffffffff167f17307eab39ab6107e8899845ad3d59bd9653f200f220920489ca2b5937696c31836040516119e891906121b9565b60405180910390a3505050565b611a008484846113b7565b611a0c84848484611eeb565b611a4b576040517f08c379a0000000000000000000000000000000000000000000000000000000008152600401611a42906135e1565b60405180910390fd5b50505050565b6001816000016000828254019250508190555050565b600081600001549050919050565b600073ffffffffffffffffffffffffffffffffffffffff168273ffffffffffffffffffffffffffffffffffffffff1603611ae4576040517f08c379a0000000000000000000000000000000000000000000000000000000008152600401611adb9061364d565b60405180910390fd5b611aed81611831565b15611b2d576040517f08c379a0000000000000000000000000000000000000000000000000000000008152600401611b24906136b9565b60405180910390fd5b611b3b600083836001611e8f565b611b4481611831565b15611b84576040517f08c379a0000000000000000000000000000000000000000000000000000000008152600401611b7b906136b9565b60405180910390fd5b6001600360008473ffffffffffffffffffffffffffffffffffffffff1673ffffffffffffffffffffffffffffffffffffffff16815260200190815260200160002060008282540192505081905550816002600083815260200190815260200160002060006101000a81548173ffffffffffffffffffffffffffffffffffffffff021916908373ffffffffffffffffffffffffffffffffffffffff160217905550808273ffffffffffffffffffffffffffffffffffffffff16600073ffffffffffffffffffffffffffffffffffffffff167fddf252ad1be2c89b69c2b068fc378daa952ba7f163c4a11628f55a4df523b3ef60405160405180910390a4611c8e600083836001611e95565b5050565b611c9b83611831565b611cda576040517f08c379a0000000000000000000000000000000000000000000000000000000008152600401611cd190612db4565b60405180910390fd5b6000600c60008581526020019081526020016000209050611cfc848484610ab3565b15611d3c576040517f08c379a0000000000000000000000000000000000000000000000000000000008152600401611d3390613725565b60405180910390fd5b6000801b816003015414611e0657600033604051602001611d5d9190612e1c565b604051602081830303815290604052805190602001209050611dc5848480806020026020016040519081016040528093929190818152602001838360200280828437600081840152601f19601f82011690508083019250505050505050836003015483611872565b611e04576040517f08c379a0000000000000000000000000000000000000000000000000000000008152600401611dfb90613791565b60405180910390fd5b505b6000816002015433604051602001611e1f9291906137d2565b6040516020818303038152906040529050808051906020012082600201819055505050505050565b6014600e60003373ffffffffffffffffffffffffffffffffffffffff1673ffffffffffffffffffffffffffffffffffffffff1681526020019081526020016000208190555050565b50505050565b50505050565b60008082905060005b8451811015611ee057611ed182868381518110611ec457611ec36137fe565b5b6020026020010151612072565b91508080600101915050611ea4565b508091505092915050565b6000611f0c8473ffffffffffffffffffffffffffffffffffffffff1661209d565b15612065578373ffffffffffffffffffffffffffffffffffffffff1663150b7a02611f35611261565b8786866040518563ffffffff1660e01b8152600401611f579493929190613882565b6020604051808303816000875af1925050508015611f9357506040513d601f19601f82011682018060405250810190611f9091906138e3565b60015b612015573d8060008114611fc3576040519150601f19603f3d011682016040523d82523d6000602084013e611fc8565b606091505b50600081510361200d576040517f08c379a0000000000000000000000000000000000000000000000000000000008152600401612004906135e1565b60405180910390fd5b805181602001fd5b63150b7a0260e01b7bffffffffffffffffffffffffffffffffffffffffffffffffffffffff1916817bffffffffffffffffffffffffffffffffffffffffffffffffffffffff19161491505061206a565b600190505b949350505050565b600081831061208a5761208582846120c0565b612095565b61209483836120c0565b5b905092915050565b6000808273ffffffffffffffffffffffffffffffffffffffff163b119050919050565b600082600052816020526040600020905092915050565b6040518060800160405280606081526020016060815260200160008019168152602001600080191681525090565b6000604051905090565b600080fd5b600080fd5b60007fffffffff0000000000000000000000000000000000000000000000000000000082169050919050565b61214e81612119565b811461215957600080fd5b50565b60008135905061216b81612145565b92915050565b6000602082840312156121875761218661210f565b5b60006121958482850161215c565b91505092915050565b60008115159050919050565b6121b38161219e565b82525050565b60006020820190506121ce60008301846121aa565b92915050565b600081519050919050565b600082825260208201905092915050565b60005b8381101561220e5780820151818401526020810190506121f3565b60008484015250505050565b6000601f19601f8301169050919050565b6000612236826121d4565b61224081856121df565b93506122508185602086016121f0565b6122598161221a565b840191505092915050565b6000602082019050818103600083015261227e818461222b565b905092915050565b6000819050919050565b61229981612286565b81146122a457600080fd5b50565b6000813590506122b681612290565b92915050565b6000602082840312156122d2576122d161210f565b5b60006122e0848285016122a7565b91505092915050565b600073ffffffffffffffffffffffffffffffffffffffff82169050919050565b6000612314826122e9565b9050919050565b61232481612309565b82525050565b600060208201905061233f600083018461231b565b92915050565b61234e81612309565b811461235957600080fd5b50565b60008135905061236b81612345565b92915050565b600080604083850312156123885761238761210f565b5b60006123968582860161235c565b92505060206123a7858286016122a7565b9150509250929050565b6000602082840312156123c7576123c661210f565b5b60006123d58482850161235c565b91505092915050565b6123e781612286565b82525050565b600060208201905061240260008301846123de565b92915050565b6000806000606084860312156124215761242061210f565b5b600061242f8682870161235c565b93505060206124408682870161235c565b9250506040612451868287016122a7565b9150509250925092565b600082825260208201905092915050565b6000612477826121d4565b612481818561245b565b93506124918185602086016121f0565b61249a8161221a565b840191505092915050565b6000819050919050565b6124b8816124a5565b82525050565b600060808301600083015184820360008601526124db828261246c565b915050602083015184820360208601526124f5828261246c565b915050604083015161250a60408601826124af565b50606083015161251d60608601826124af565b508091505092915050565b6000602082019050818103600083015261254281846124be565b905092915050565b600080fd5b600080fd5b600080fd5b60008083601f84011261256f5761256e61254a565b5b8235905067ffffffffffffffff81111561258c5761258b61254f565b5b6020830191508360208202830111156125a8576125a7612554565b5b9250929050565b6000806000604084860312156125c8576125c761210f565b5b60006125d6868287016122a7565b935050602084013567ffffffffffffffff8111156125f7576125f6612114565b5b61260386828701612559565b92509250509250925092565b6126188161219e565b811461262357600080fd5b50565b6000813590506126358161260f565b92915050565b600080604083850312156126525761265161210f565b5b60006126608582860161235c565b925050602061267185828601612626565b9150509250929050565b600080fd5b7f4e487b7100000000000000000000000000000000000000000000000000000000600052604160045260246000fd5b6126b88261221a565b810181811067ffffffffffffffff821117156126d7576126d6612680565b5b80604052505050565b60006126ea612105565b90506126f682826126af565b919050565b600067ffffffffffffffff82111561271657612715612680565b5b61271f8261221a565b9050602081019050919050565b82818337600083830152505050565b600061274e612749846126fb565b6126e0565b90508281526020810184848401111561276a5761276961267b565b5b61277584828561272c565b509392505050565b600082601f8301126127925761279161254a565b5b81356127a284826020860161273b565b91505092915050565b600080600080608085870312156127c5576127c461210f565b5b60006127d38782880161235c565b94505060206127e48782880161235c565b93505060406127f5878288016122a7565b925050606085013567ffffffffffffffff81111561281657612815612114565b5b6128228782880161277d565b91505092959194509250565b600067ffffffffffffffff82111561284957612848612680565b5b6128528261221a565b9050602081019050919050565b600061287261286d8461282e565b6126e0565b90508281526020810184848401111561288e5761288d61267b565b5b61289984828561272c565b509392505050565b600082601f8301126128b6576128b561254a565b5b81356128c684826020860161285f565b91505092915050565b6128d8816124a5565b81146128e357600080fd5b50565b6000813590506128f5816128cf565b92915050565b600080600080608085870312156129155761291461210f565b5b600085013567ffffffffffffffff81111561293357612932612114565b5b61293f878288016128a1565b945050602085013567ffffffffffffffff8111156129605761295f612114565b5b61296c878288016128a1565b935050604061297d878288016128e6565b925050606061298e878288016128e6565b91505092959194509250565b6000819050919050565b60006129bf6129ba6129b5846122e9565b61299a565b6122e9565b9050919050565b60006129d1826129a4565b9050919050565b60006129e3826129c6565b9050919050565b6129f3816129d8565b82525050565b6000602082019050612a0e60008301846129ea565b92915050565b60008060408385031215612a2b57612a2a61210f565b5b6000612a398582860161235c565b9250506020612a4a8582860161235c565b9150509250929050565b7f4e487b7100000000000000000000000000000000000000000000000000000000600052602260045260246000fd5b60006002820490506001821680612a9b57607f821691505b602082108103612aae57612aad612a54565b5b50919050565b7f4552433732313a20617070726f76616c20746f2063757272656e74206f776e6560008201527f7200000000000000000000000000000000000000000000000000000000000000602082015250565b6000612b106021836121df565b9150612b1b82612ab4565b604082019050919050565b60006020820190508181036000830152612b3f81612b03565b9050919050565b7f4552433732313a20617070726f76652063616c6c6572206973206e6f7420746f60008201527f6b656e206f776e6572206f7220617070726f76656420666f7220616c6c000000602082015250565b6000612ba2603d836121df565b9150612bad82612b46565b604082019050919050565b60006020820190508181036000830152612bd181612b95565b9050919050565b7f4552433732313a2063616c6c6572206973206e6f7420746f6b656e206f776e6560008201527f72206f7220617070726f76656400000000000000000000000000000000000000602082015250565b6000612c34602d836121df565b9150612c3f82612bd8565b604082019050919050565b60006020820190508181036000830152612c6381612c27565b9050919050565b7f4552433732313a20696e76616c696420746f6b656e2049440000000000000000600082015250565b6000612ca06018836121df565b9150612cab82612c6a565b602082019050919050565b60006020820190508181036000830152612ccf81612c93565b9050919050565b7f4552433732313a2061646472657373207a65726f206973206e6f74206120766160008201527f6c6964206f776e65720000000000000000000000000000000000000000000000602082015250565b6000612d326029836121df565b9150612d3d82612cd6565b604082019050919050565b60006020820190508181036000830152612d6181612d25565b9050919050565b7f4552433732313a20616420646f6573206e6f7420657869737400000000000000600082015250565b6000612d9e6019836121df565b9150612da982612d68565b602082019050919050565b60006020820190508181036000830152612dcd81612d91565b9050919050565b60008160601b9050919050565b6000612dec82612dd4565b9050919050565b6000612dfe82612de1565b9050919050565b612e16612e1182612309565b612df3565b82525050565b6000612e288284612e05565b60148201915081905092915050565b7f4552433732314d657461646174613a2055524920717565727920666f72206e6f60008201527f6e6578697374656e7420746f6b656e0000000000000000000000000000000000602082015250565b6000612e93602f836121df565b9150612e9e82612e37565b604082019050919050565b60006020820190508181036000830152612ec281612e86565b9050919050565b60008190508160005260206000209050919050565b60006020601f8301049050919050565b600082821b905092915050565b600060088302612f2b7fffffffffffffffffffffffffffffffffffffffffffffffffffffffffffffffff82612eee565b612f358683612eee565b95508019841693508086168417925050509392505050565b6000612f68612f63612f5e84612286565b61299a565b612286565b9050919050565b6000819050919050565b612f8283612f4d565b612f96612f8e82612f6f565b848454612efb565b825550505050565b600090565b612fab612f9e565b612fb6818484612f79565b505050565b5b81811015612fda57612fcf600082612fa3565b600181019050612fbc565b5050565b601f82111561301f57612ff081612ec9565b612ff984612ede565b81016020851015613008578190505b61301c61301485612ede565b830182612fbb565b50505b505050565b600082821c905092915050565b600061304260001984600802613024565b1980831691505092915050565b600061305b8383613031565b9150826002028217905092915050565b613074826121d4565b67ffffffffffffffff81111561308d5761308c612680565b5b6130978254612a83565b6130a2828285612fde565b600060209050601f8311600181146130d557600084156130c3578287015190505b6130cd858261304f565b865550613135565b601f1984166130e386612ec9565b60005b8281101561310b578489015182556001820191506020850194506020810190506130e6565b868310156131285784890151613124601f891682613031565b8355505b6001600288020188555050505b505050505050565b60008154905061314c81612a83565b9050919050565b818103613161575050613239565b61316a8261313d565b67ffffffffffffffff81111561318357613182612680565b5b61318d8254612a83565b613198828285612fde565b6000601f8311600181146131c757600084156131b5578287015490505b6131bf858261304f565b865550613232565b601f1984166131d587612ec9565b96506131e086612ec9565b60005b82811015613208578489015482556001820191506001850194506020810190506131e3565b868310156132255784890154613221601f891682613031565b8355505b6001600288020188555050505b5050505050505b565b7f4f776e61626c653a206e6577206f776e657220697320746865207a65726f206160008201527f6464726573730000000000000000000000000000000000000000000000000000602082015250565b60006132976026836121df565b91506132a28261323b565b604082019050919050565b600060208201905081810360008301526132c68161328a565b9050919050565b6000819050919050565b60006132f26132ed6132e8846132cd565b61299a565b612286565b9050919050565b613302816132d7565b82525050565b600060408201905061331d600083018561231b565b61332a60208301846132f9565b9392505050565b6000815190506133408161260f565b92915050565b60006020828403121561335c5761335b61210f565b5b600061336a84828501613331565b91505092915050565b7f4552433732313a207472616e736665722066726f6d20696e636f72726563742060008201527f6f776e6572000000000000000000000000000000000000000000000000000000602082015250565b60006133cf6025836121df565b91506133da82613373565b604082019050919050565b600060208201905081810360008301526133fe816133c2565b9050919050565b7f4552433732313a207472616e7366657220746f20746865207a65726f2061646460008201527f7265737300000000000000000000000000000000000000000000000000000000602082015250565b60006134616024836121df565b915061346c82613405565b604082019050919050565b6000602082019050818103600083015261349081613454565b9050919050565b7f4f776e61626c653a2063616c6c6572206973206e6f7420746865206f776e6572600082015250565b60006134cd6020836121df565b91506134d882613497565b602082019050919050565b600060208201905081810360008301526134fc816134c0565b9050919050565b7f4552433732313a20617070726f766520746f2063616c6c657200000000000000600082015250565b60006135396019836121df565b915061354482613503565b602082019050919050565b600060208201905081810360008301526135688161352c565b9050919050565b7f4552433732313a207472616e7366657220746f206e6f6e20455243373231526560008201527f63656976657220696d706c656d656e7465720000000000000000000000000000602082015250565b60006135cb6032836121df565b91506135d68261356f565b604082019050919050565b600060208201905081810360008301526135fa816135be565b9050919050565b7f4552433732313a206d696e7420746f20746865207a65726f2061646472657373600082015250565b60006136376020836121df565b915061364282613601565b602082019050919050565b600060208201905081810360008301526136668161362a565b9050919050565b7f4552433732313a20746f6b656e20616c7265616479206d696e74656400000000600082015250565b60006136a3601c836121df565b91506136ae8261366d565b602082019050919050565b600060208201905081810360008301526136d281613696565b9050919050565b7f53656e64657220616c7265616479207369676e65640000000000000000000000600082015250565b600061370f6015836121df565b915061371a826136d9565b602082019050919050565b6000602082019050818103600083015261373e81613702565b9050919050565b7f53656e646572206e6f7420696e207461726765742061756469656e6365000000600082015250565b600061377b601d836121df565b915061378682613745565b602082019050919050565b600060208201905081810360008301526137aa8161376e565b9050919050565b6000819050919050565b6137cc6137c7826124a5565b6137b1565b82525050565b60006137de82856137bb565b6020820191506137ee8284612e05565b6014820191508190509392505050565b7f4e487b7100000000000000000000000000000000000000000000000000000000600052603260045260246000fd5b600081519050919050565b600082825260208201905092915050565b60006138548261382d565b61385e8185613838565b935061386e8185602086016121f0565b6138778161221a565b840191505092915050565b6000608082019050613897600083018761231b565b6138a4602083018661231b565b6138b160408301856123de565b81810360608301526138c38184613849565b905095945050505050565b6000815190506138dd81612145565b92915050565b6000602082840312156138f9576138f861210f565b5b6000613907848285016138ce565b9150509291505056fea264697066735822122090dcc6a4377692217e59f454317d975325116fc5200888664cf47683a2bec39e64736f6c63430008180033",
  "linkReferences": {},
  "deployedLinkReferences": {}
}