{
  "_format": "hh-sol-artifact-1",
  "contractName": "MehAdV1",
  "sourceName": "contracts/MehAdV1.sol",
  "abi": [
    {
      "inputs": [
        {
          "internalType": "string",
          "name": "name",
          "type": "string"
        },
        {
          "internalType": "string",
          "name": "symbol",
          "type": "string"
        },
        {
          "internalType": "address",
          "name": "mehTokenAddress",
          "type": "address"
        }
      ],
      "stateMutability": "nonpayable",
      "type": "constructor"
    },
    {
      "anonymous": false,
      "inputs": [
        {
          "indexed": true,
          "internalType": "address",
          "name": "owner",
          "type": "address"
        },
        {
          "indexed": true,
          "internalType": "address",
          "name": "approved",
          "type": "address"
        },
        {
          "indexed": true,
          "internalType": "uint256",
          "name": "tokenId",
          "type": "uint256"
        }
      ],
      "name": "Approval",
      "type": "event"
    },
    {
      "anonymous": false,
      "inputs": [
        {
          "indexed": true,
          "internalType": "address",
          "name": "owner",
          "type": "address"
        },
        {
          "indexed": true,
          "internalType": "address",
          "name": "operator",
          "type": "address"
        },
        {
          "indexed": false,
          "internalType": "bool",
          "name": "approved",
          "type": "bool"
        }
      ],
      "name": "ApprovalForAll",
      "type": "event"
    },
    {
      "anonymous": false,
      "inputs": [
        {
          "indexed": true,
          "internalType": "address",
          "name": "previousOwner",
          "type": "address"
        },
        {
          "indexed": true,
          "internalType": "address",
          "name": "newOwner",
          "type": "address"
        }
      ],
      "name": "OwnershipTransferred",
      "type": "event"
    },
    {
      "anonymous": false,
      "inputs": [
        {
          "indexed": true,
          "internalType": "address",
          "name": "from",
          "type": "address"
        },
        {
          "indexed": true,
          "internalType": "address",
          "name": "to",
          "type": "address"
        },
        {
          "indexed": true,
          "internalType": "uint256",
          "name": "tokenId",
          "type": "uint256"
        }
      ],
      "name": "Transfer",
      "type": "event"
    },
    {
      "inputs": [],
      "name": "adAmt",
      "outputs": [
        {
          "internalType": "uint256",
          "name": "",
          "type": "uint256"
        },
        {
          "internalType": "uint256",
          "name": "",
          "type": "uint256"
        }
      ],
      "stateMutability": "view",
      "type": "function"
    },
    {
      "inputs": [
        {
          "internalType": "address",
          "name": "to",
          "type": "address"
        },
        {
          "internalType": "uint256",
          "name": "tokenId",
          "type": "uint256"
        }
      ],
      "name": "approve",
      "outputs": [],
      "stateMutability": "nonpayable",
      "type": "function"
    },
    {
      "inputs": [
        {
          "internalType": "address",
          "name": "owner",
          "type": "address"
        }
      ],
      "name": "balanceOf",
      "outputs": [
        {
          "internalType": "uint256",
          "name": "",
          "type": "uint256"
        }
      ],
      "stateMutability": "view",
      "type": "function"
    },
    {
      "inputs": [
        {
          "internalType": "address",
          "name": "",
          "type": "address"
        }
      ],
      "name": "discounts",
      "outputs": [
        {
          "internalType": "uint256",
          "name": "",
          "type": "uint256"
        }
      ],
      "stateMutability": "view",
      "type": "function"
    },
    {
      "inputs": [
        {
          "internalType": "uint256",
          "name": "id",
          "type": "uint256"
        }
      ],
      "name": "displayAd",
      "outputs": [
        {
          "components": [
            {
              "internalType": "string",
              "name": "adURI",
              "type": "string"
            },
            {
              "internalType": "string",
              "name": "dataURI",
              "type": "string"
            },
            {
              "internalType": "bytes32",
              "name": "signatureRoot",
              "type": "bytes32"
            },
            {
              "internalType": "bytes32",
              "name": "audienceRoot",
              "type": "bytes32"
            }
          ],
          "internalType": "struct IERCAd.Ad",
          "name": "",
          "type": "tuple"
        }
      ],
      "stateMutability": "view",
      "type": "function"
    },
    {
      "inputs": [
        {
          "internalType": "uint256",
          "name": "tokenId",
          "type": "uint256"
        }
      ],
      "name": "getApproved",
      "outputs": [
        {
          "internalType": "address",
          "name": "",
          "type": "address"
        }
      ],
      "stateMutability": "view",
      "type": "function"
    },
    {
      "inputs": [
        {
          "internalType": "address",
          "name": "",
          "type": "address"
        }
      ],
      "name": "hasSigned",
      "outputs": [
        {
          "internalType": "bool",
          "name": "",
          "type": "bool"
        }
      ],
      "stateMutability": "view",
      "type": "function"
    },
    {
      "inputs": [
        {
          "internalType": "uint256",
          "name": "id",
          "type": "uint256"
        },
        {
          "internalType": "bytes32[]",
          "name": "proof",
          "type": "bytes32[]"
        }
      ],
      "name": "hasSignedAd",
      "outputs": [
        {
          "internalType": "bool",
          "name": "",
          "type": "bool"
        }
      ],
      "stateMutability": "view",
      "type": "function"
    },
    {
      "inputs": [
        {
          "internalType": "address",
          "name": "owner",
          "type": "address"
        },
        {
          "internalType": "address",
          "name": "operator",
          "type": "address"
        }
      ],
      "name": "isApprovedForAll",
      "outputs": [
        {
          "internalType": "bool",
          "name": "",
          "type": "bool"
        }
      ],
      "stateMutability": "view",
      "type": "function"
    },
    {
      "inputs": [
        {
          "internalType": "uint256",
          "name": "id",
          "type": "uint256"
        },
        {
          "internalType": "bytes32[]",
          "name": "proof",
          "type": "bytes32[]"
        }
      ],
      "name": "isInAudience",
      "outputs": [
        {
          "internalType": "bool",
          "name": "",
          "type": "bool"
        }
      ],
      "stateMutability": "view",
      "type": "function"
    },
    {
      "inputs": [],
      "name": "mehToken",
      "outputs": [
        {
          "internalType": "contract IERC20",
          "name": "",
          "type": "address"
        }
      ],
      "stateMutability": "view",
      "type": "function"
    },
    {
      "inputs": [],
      "name": "name",
      "outputs": [
        {
          "internalType": "string",
          "name": "",
          "type": "string"
        }
      ],
      "stateMutability": "view",
      "type": "function"
    },
    {
      "inputs": [],
      "name": "owner",
      "outputs": [
        {
          "internalType": "address",
          "name": "",
          "type": "address"
        }
      ],
      "stateMutability": "view",
      "type": "function"
    },
    {
      "inputs": [
        {
          "internalType": "uint256",
          "name": "tokenId",
          "type": "uint256"
        }
      ],
      "name": "ownerOf",
      "outputs": [
        {
          "internalType": "address",
          "name": "",
          "type": "address"
        }
      ],
      "stateMutability": "view",
      "type": "function"
    },
    {
      "inputs": [],
      "name": "renounceOwnership",
      "outputs": [],
      "stateMutability": "nonpayable",
      "type": "function"
    },
    {
      "inputs": [
        {
          "internalType": "address",
          "name": "from",
          "type": "address"
        },
        {
          "internalType": "address",
          "name": "to",
          "type": "address"
        },
        {
          "internalType": "uint256",
          "name": "tokenId",
          "type": "uint256"
        }
      ],
      "name": "safeTransferFrom",
      "outputs": [],
      "stateMutability": "nonpayable",
      "type": "function"
    },
    {
      "inputs": [
        {
          "internalType": "address",
          "name": "from",
          "type": "address"
        },
        {
          "internalType": "address",
          "name": "to",
          "type": "address"
        },
        {
          "internalType": "uint256",
          "name": "tokenId",
          "type": "uint256"
        },
        {
          "internalType": "bytes",
          "name": "data",
          "type": "bytes"
        }
      ],
      "name": "safeTransferFrom",
      "outputs": [],
      "stateMutability": "nonpayable",
      "type": "function"
    },
    {
      "inputs": [
        {
          "internalType": "string",
          "name": "adURI",
          "type": "string"
        },
        {
          "internalType": "string",
          "name": "dataURI",
          "type": "string"
        },
        {
          "internalType": "bytes32",
          "name": "signatureRoot",
          "type": "bytes32"
        },
        {
          "internalType": "bytes32",
          "name": "audienceRoot",
          "type": "bytes32"
        }
      ],
      "name": "setAd",
      "outputs": [],
      "stateMutability": "nonpayable",
      "type": "function"
    },
    {
      "inputs": [
        {
          "internalType": "address",
          "name": "operator",
          "type": "address"
        },
        {
          "internalType": "bool",
          "name": "approved",
          "type": "bool"
        }
      ],
      "name": "setApprovalForAll",
      "outputs": [],
      "stateMutability": "nonpayable",
      "type": "function"
    },
    {
      "inputs": [
        {
          "internalType": "uint256",
          "name": "id",
          "type": "uint256"
        },
        {
          "internalType": "bytes32[]",
          "name": "proof",
          "type": "bytes32[]"
        }
      ],
      "name": "signAd",
      "outputs": [],
      "stateMutability": "nonpayable",
      "type": "function"
    },
    {
      "inputs": [
        {
          "internalType": "bytes4",
          "name": "interfaceId",
          "type": "bytes4"
        }
      ],
      "name": "supportsInterface",
      "outputs": [
        {
          "internalType": "bool",
          "name": "",
          "type": "bool"
        }
      ],
      "stateMutability": "view",
      "type": "function"
    },
    {
      "inputs": [],
      "name": "symbol",
      "outputs": [
        {
          "internalType": "string",
          "name": "",
          "type": "string"
        }
      ],
      "stateMutability": "view",
      "type": "function"
    },
    {
      "inputs": [
        {
          "internalType": "uint256",
          "name": "tokenId",
          "type": "uint256"
        }
      ],
      "name": "tokenURI",
      "outputs": [
        {
          "internalType": "string",
          "name": "",
          "type": "string"
        }
      ],
      "stateMutability": "view",
      "type": "function"
    },
    {
      "inputs": [
        {
          "internalType": "address",
          "name": "from",
          "type": "address"
        },
        {
          "internalType": "address",
          "name": "to",
          "type": "address"
        },
        {
          "internalType": "uint256",
          "name": "tokenId",
          "type": "uint256"
        }
      ],
      "name": "transferFrom",
      "outputs": [],
      "stateMutability": "nonpayable",
      "type": "function"
    },
    {
      "inputs": [
        {
          "internalType": "address",
          "name": "newOwner",
          "type": "address"
        }
      ],
      "name": "transferOwnership",
      "outputs": [],
      "stateMutability": "nonpayable",
      "type": "function"
    }
  ],
  "bytecode": "0x60806040523480156200001157600080fd5b50604051620043cf380380620043cf833981810160405281019062000037919062000393565b8282818181600090816200004c919062000678565b5080600190816200005e919062000678565b5050506200008162000075620000cd60201b60201c565b620000d560201b60201c565b505080600d60006101000a81548173ffffffffffffffffffffffffffffffffffffffff021916908373ffffffffffffffffffffffffffffffffffffffff1602179055505050506200075f565b600033905090565b6000600660009054906101000a900473ffffffffffffffffffffffffffffffffffffffff16905081600660006101000a81548173ffffffffffffffffffffffffffffffffffffffff021916908373ffffffffffffffffffffffffffffffffffffffff1602179055508173ffffffffffffffffffffffffffffffffffffffff168173ffffffffffffffffffffffffffffffffffffffff167f8be0079c531659141344cd1fd0a4f28419497f9722a3daafe3b4186f6b6457e060405160405180910390a35050565b6000604051905090565b600080fd5b600080fd5b600080fd5b600080fd5b6000601f19601f8301169050919050565b7f4e487b7100000000000000000000000000000000000000000000000000000000600052604160045260246000fd5b6200020482620001b9565b810181811067ffffffffffffffff82111715620002265762000225620001ca565b5b80604052505050565b60006200023b6200019b565b9050620002498282620001f9565b919050565b600067ffffffffffffffff8211156200026c576200026b620001ca565b5b6200027782620001b9565b9050602081019050919050565b60005b83811015620002a457808201518184015260208101905062000287565b60008484015250505050565b6000620002c7620002c1846200024e565b6200022f565b905082815260208101848484011115620002e657620002e5620001b4565b5b620002f384828562000284565b509392505050565b600082601f830112620003135762000312620001af565b5b815162000325848260208601620002b0565b91505092915050565b600073ffffffffffffffffffffffffffffffffffffffff82169050919050565b60006200035b826200032e565b9050919050565b6200036d816200034e565b81146200037957600080fd5b50565b6000815190506200038d8162000362565b92915050565b600080600060608486031215620003af57620003ae620001a5565b5b600084015167ffffffffffffffff811115620003d057620003cf620001aa565b5b620003de86828701620002fb565b935050602084015167ffffffffffffffff811115620004025762000401620001aa565b5b6200041086828701620002fb565b925050604062000423868287016200037c565b9150509250925092565b600081519050919050565b7f4e487b7100000000000000000000000000000000000000000000000000000000600052602260045260246000fd5b600060028204905060018216806200048057607f821691505b60208210810362000496576200049562000438565b5b50919050565b60008190508160005260206000209050919050565b60006020601f8301049050919050565b600082821b905092915050565b600060088302620005007fffffffffffffffffffffffffffffffffffffffffffffffffffffffffffffffff82620004c1565b6200050c8683620004c1565b95508019841693508086168417925050509392505050565b6000819050919050565b6000819050919050565b600062000559620005536200054d8462000524565b6200052e565b62000524565b9050919050565b6000819050919050565b620005758362000538565b6200058d620005848262000560565b848454620004ce565b825550505050565b600090565b620005a462000595565b620005b18184846200056a565b505050565b5b81811015620005d957620005cd6000826200059a565b600181019050620005b7565b5050565b601f8211156200062857620005f2816200049c565b620005fd84620004b1565b810160208510156200060d578190505b620006256200061c85620004b1565b830182620005b6565b50505b505050565b600082821c905092915050565b60006200064d600019846008026200062d565b1980831691505092915050565b60006200066883836200063a565b9150826002028217905092915050565b62000683826200042d565b67ffffffffffffffff8111156200069f576200069e620001ca565b5b620006ab825462000467565b620006b8828285620005dd565b600060209050601f831160018114620006f05760008415620006db578287015190505b620006e785826200065a565b86555062000757565b601f19841662000700866200049c565b60005b828110156200072a5784890151825560018201915060208501945060208101905062000703565b868310156200074a578489015162000746601f8916826200063a565b8355505b6001600288020188555050505b505050505050565b613c60806200076f6000396000f3fe608060405234801561001057600080fd5b50600436106101735760003560e01c80638b4d9eb9116100de578063c87b56dd11610097578063e2c2c88411610071578063e2c2c88414610483578063e985e9c5146104a1578063f2fde38b146104d1578063fe49e833146104ed57610173565b8063c87b56dd14610407578063d13e2af914610437578063dfe194fe1461045357610173565b80638b4d9eb9146103335780638da5cb5b1461036357806395d89b4114610381578063a22cb4651461039f578063b88d4fde146103bb578063bf6a1413146103d757610173565b806342842e0e1161013057806342842e0e1461025e5780634c2c315a1461027a5780636352211e14610299578063672fb969146102c957806370a08231146102f9578063715018a61461032957610173565b806301ffc9a71461017857806306fdde03146101a8578063081812fc146101c6578063095ea7b3146101f65780630fff44741461021257806323b872dd14610242575b600080fd5b610192600480360381019061018d919061232c565b610509565b60405161019f9190612374565b60405180910390f35b6101b06105eb565b6040516101bd919061241f565b60405180910390f35b6101e060048036038101906101db9190612477565b61067d565b6040516101ed91906124e5565b60405180910390f35b610210600480360381019061020b919061252c565b6106c3565b005b61022c6004803603810190610227919061256c565b6107da565b60405161023991906125a8565b60405180910390f35b61025c600480360381019061025791906125c3565b6107f2565b005b610278600480360381019061027391906125c3565b610852565b005b610282610872565b604051610290929190612616565b60405180910390f35b6102b360048036038101906102ae9190612477565b610900565b6040516102c091906124e5565b60405180910390f35b6102e360048036038101906102de9190612477565b610986565b6040516102f0919061270c565b60405180910390f35b610313600480360381019061030e919061256c565b610aeb565b60405161032091906125a8565b60405180910390f35b610331610ba2565b005b61034d60048036038101906103489190612793565b610bb6565b60405161035a9190612374565b60405180910390f35b61036b610c9d565b60405161037891906124e5565b60405180910390f35b610389610cc7565b604051610396919061241f565b60405180910390f35b6103b960048036038101906103b4919061281f565b610d59565b005b6103d560048036038101906103d0919061298f565b610d6f565b005b6103f160048036038101906103ec919061256c565b610dd1565b6040516103fe9190612374565b60405180910390f35b610421600480360381019061041c9190612477565b610df1565b60405161042e919061241f565b60405180910390f35b610451600480360381019061044c9190612adf565b610ed0565b005b61046d60048036038101906104689190612793565b610fce565b60405161047a9190612374565b60405180910390f35b61048b6110ce565b6040516104989190612bdd565b60405180910390f35b6104bb60048036038101906104b69190612bf8565b6110f4565b6040516104c89190612374565b60405180910390f35b6104eb60048036038101906104e6919061256c565b611188565b005b61050760048036038101906105029190612793565b61120b565b005b60007f80ac58cd000000000000000000000000000000000000000000000000000000007bffffffffffffffffffffffffffffffffffffffffffffffffffffffff1916827bffffffffffffffffffffffffffffffffffffffffffffffffffffffff191614806105d457507f5b5e139f000000000000000000000000000000000000000000000000000000007bffffffffffffffffffffffffffffffffffffffffffffffffffffffff1916827bffffffffffffffffffffffffffffffffffffffffffffffffffffffff1916145b806105e457506105e3826113af565b5b9050919050565b6060600080546105fa90612c67565b80601f016020809104026020016040519081016040528092919081815260200182805461062690612c67565b80156106735780601f1061064857610100808354040283529160200191610673565b820191906000526020600020905b81548152906001019060200180831161065657829003601f168201915b5050505050905090565b600061068882611419565b6004600083815260200190815260200160002060009054906101000a900473ffffffffffffffffffffffffffffffffffffffff169050919050565b60006106ce82610900565b90508073ffffffffffffffffffffffffffffffffffffffff168373ffffffffffffffffffffffffffffffffffffffff160361073e576040517f08c379a000000000000000000000000000000000000000000000000000000000815260040161073590612d0a565b60405180910390fd5b8073ffffffffffffffffffffffffffffffffffffffff1661075d611464565b73ffffffffffffffffffffffffffffffffffffffff16148061078c575061078b81610786611464565b6110f4565b5b6107cb576040517f08c379a00000000000000000000000000000000000000000000000000000000081526004016107c290612d9c565b60405180910390fd5b6107d5838361146c565b505050565b600e6020528060005260406000206000915090505481565b6108036107fd611464565b82611525565b610842576040517f08c379a000000000000000000000000000000000000000000000000000000000815260040161083990612e2e565b60405180910390fd5b61084d8383836115ba565b505050565b61086d83838360405180602001604052806000815250610d6f565b505050565b60008060003373ffffffffffffffffffffffffffffffffffffffff163190506000670de0b6b3a76400009050600081836161a86108af9190612e7d565b6108b99190612eee565b826161a86108c79190612e7d565b6108d19190612f1f565b90506934f086f3b33b684000008111156108f3576934f086f3b33b6840000090505b8083945094505050509091565b60008061090c836118b3565b9050600073ffffffffffffffffffffffffffffffffffffffff168173ffffffffffffffffffffffffffffffffffffffff160361097d576040517f08c379a000000000000000000000000000000000000000000000000000000000815260040161097490612f9f565b60405180910390fd5b80915050919050565b61098e612292565b600c60008381526020019081526020016000206040518060800160405290816000820180546109bc90612c67565b80601f01602080910402602001604051908101604052809291908181526020018280546109e890612c67565b8015610a355780601f10610a0a57610100808354040283529160200191610a35565b820191906000526020600020905b815481529060010190602001808311610a1857829003601f168201915b50505050508152602001600182018054610a4e90612c67565b80601f0160208091040260200160405190810160405280929190818152602001828054610a7a90612c67565b8015610ac75780601f10610a9c57610100808354040283529160200191610ac7565b820191906000526020600020905b815481529060010190602001808311610aaa57829003601f168201915b50505050508152602001600282015481526020016003820154815250509050919050565b60008073ffffffffffffffffffffffffffffffffffffffff168273ffffffffffffffffffffffffffffffffffffffff1603610b5b576040517f08c379a0000000000000000000000000000000000000000000000000000000008152600401610b5290613031565b60405180910390fd5b600360008373ffffffffffffffffffffffffffffffffffffffff1673ffffffffffffffffffffffffffffffffffffffff168152602001908152602001600020549050919050565b610baa6118f0565b610bb4600061196e565b565b6000610bc184611a34565b610c00576040517f08c379a0000000000000000000000000000000000000000000000000000000008152600401610bf79061309d565b60405180910390fd5b6000600c60008681526020019081526020016000209050600033604051602001610c2a9190613105565b604051602081830303815290604052805190602001209050610c92858580806020026020016040519081016040528093929190818152602001838360200280828437600081840152601f19601f82011690508083019250505050505050836002015483611a75565b925050509392505050565b6000600660009054906101000a900473ffffffffffffffffffffffffffffffffffffffff16905090565b606060018054610cd690612c67565b80601f0160208091040260200160405190810160405280929190818152602001828054610d0290612c67565b8015610d4f5780601f10610d2457610100808354040283529160200191610d4f565b820191906000526020600020905b815481529060010190602001808311610d3257829003601f168201915b5050505050905090565b610d6b610d64611464565b8383611a8c565b5050565b610d80610d7a611464565b83611525565b610dbf576040517f08c379a0000000000000000000000000000000000000000000000000000000008152600401610db690612e2e565b60405180910390fd5b610dcb84848484611bf8565b50505050565b600f6020528060005260406000206000915054906101000a900460ff1681565b6060610dfc82611a34565b610e3b576040517f08c379a0000000000000000000000000000000000000000000000000000000008152600401610e3290613192565b60405180910390fd5b60086000018054610e4b90612c67565b80601f0160208091040260200160405190810160405280929190818152602001828054610e7790612c67565b8015610ec45780601f10610e9957610100808354040283529160200191610ec4565b820191906000526020600020905b815481529060010190602001808311610ea757829003601f168201915b50505050509050919050565b610ed86118f0565b610ee26007611c54565b6000610eee6007611c6a565b9050604051806080016040528086815260200185815260200184815260200183815250600c60008381526020019081526020016000206000820151816000019081610f399190613354565b506020820151816001019081610f4f9190613354565b506040820151816002015560608201518160030155905050610f713382611c78565b600c6000828152602001908152602001600020600860008201816000019081610f9a919061343c565b5060018201816001019081610faf919061343c565b5060028201548160020155600382015481600301559050505050505050565b6000610fd984611a34565b611018576040517f08c379a000000000000000000000000000000000000000000000000000000000815260040161100f9061309d565b60405180910390fd5b6000600c600086815260200190815260200160002090506000801b8160030154146110c1576000336040516020016110509190613105565b6040516020818303038152906040528051906020012090506110b8858580806020026020016040519081016040528093929190818152602001838360200280828437600081840152601f19601f82011690508083019250505050505050836003015483611a75565b925050506110c7565b60019150505b9392505050565b600d60009054906101000a900473ffffffffffffffffffffffffffffffffffffffff1681565b6000600560008473ffffffffffffffffffffffffffffffffffffffff1673ffffffffffffffffffffffffffffffffffffffff16815260200190815260200160002060008373ffffffffffffffffffffffffffffffffffffffff1673ffffffffffffffffffffffffffffffffffffffff16815260200190815260200160002060009054906101000a900460ff16905092915050565b6111906118f0565b600073ffffffffffffffffffffffffffffffffffffffff168173ffffffffffffffffffffffffffffffffffffffff16036111ff576040517f08c379a00000000000000000000000000000000000000000000000000000000081526004016111f690613596565b60405180910390fd5b6112088161196e565b50565b600f60003373ffffffffffffffffffffffffffffffffffffffff1673ffffffffffffffffffffffffffffffffffffffff16815260200190815260200160002060009054906101000a900460ff1615611298576040517f08c379a000000000000000000000000000000000000000000000000000000000815260040161128f90613602565b60405180910390fd5b6112a3838383611e95565b60006112ad610872565b509050600d60009054906101000a900473ffffffffffffffffffffffffffffffffffffffff1673ffffffffffffffffffffffffffffffffffffffff1663a9059cbb33836040518363ffffffff1660e01b815260040161130d929190613622565b6020604051808303816000875af115801561132c573d6000803e3d6000fd5b505050506040513d601f19601f820116820180604052508101906113509190613660565b506001600f60003373ffffffffffffffffffffffffffffffffffffffff1673ffffffffffffffffffffffffffffffffffffffff16815260200190815260200160002060006101000a81548160ff02191690831515021790555050505050565b60007f01ffc9a7000000000000000000000000000000000000000000000000000000007bffffffffffffffffffffffffffffffffffffffffffffffffffffffff1916827bffffffffffffffffffffffffffffffffffffffffffffffffffffffff1916149050919050565b61142281611a34565b611461576040517f08c379a000000000000000000000000000000000000000000000000000000000815260040161145890612f9f565b60405180910390fd5b50565b600033905090565b816004600083815260200190815260200160002060006101000a81548173ffffffffffffffffffffffffffffffffffffffff021916908373ffffffffffffffffffffffffffffffffffffffff160217905550808273ffffffffffffffffffffffffffffffffffffffff166114df83610900565b73ffffffffffffffffffffffffffffffffffffffff167f8c5be1e5ebec7d5bd14f71427d1e84f3dd0314c0f7b2291e5b200ac8c7c3b92560405160405180910390a45050565b60008061153183610900565b90508073ffffffffffffffffffffffffffffffffffffffff168473ffffffffffffffffffffffffffffffffffffffff161480611573575061157281856110f4565b5b806115b157508373ffffffffffffffffffffffffffffffffffffffff166115998461067d565b73ffffffffffffffffffffffffffffffffffffffff16145b91505092915050565b8273ffffffffffffffffffffffffffffffffffffffff166115da82610900565b73ffffffffffffffffffffffffffffffffffffffff1614611630576040517f08c379a0000000000000000000000000000000000000000000000000000000008152600401611627906136ff565b60405180910390fd5b600073ffffffffffffffffffffffffffffffffffffffff168273ffffffffffffffffffffffffffffffffffffffff160361169f576040517f08c379a000000000000000000000000000000000000000000000000000000000815260040161169690613791565b60405180910390fd5b6116ac838383600161204a565b8273ffffffffffffffffffffffffffffffffffffffff166116cc82610900565b73ffffffffffffffffffffffffffffffffffffffff1614611722576040517f08c379a0000000000000000000000000000000000000000000000000000000008152600401611719906136ff565b60405180910390fd5b6004600082815260200190815260200160002060006101000a81549073ffffffffffffffffffffffffffffffffffffffff02191690556001600360008573ffffffffffffffffffffffffffffffffffffffff1673ffffffffffffffffffffffffffffffffffffffff168152602001908152602001600020600082825403925050819055506001600360008473ffffffffffffffffffffffffffffffffffffffff1673ffffffffffffffffffffffffffffffffffffffff16815260200190815260200160002060008282540192505081905550816002600083815260200190815260200160002060006101000a81548173ffffffffffffffffffffffffffffffffffffffff021916908373ffffffffffffffffffffffffffffffffffffffff160217905550808273ffffffffffffffffffffffffffffffffffffffff168473ffffffffffffffffffffffffffffffffffffffff167fddf252ad1be2c89b69c2b068fc378daa952ba7f163c4a11628f55a4df523b3ef60405160405180910390a46118ae8383836001612050565b505050565b60006002600083815260200190815260200160002060009054906101000a900473ffffffffffffffffffffffffffffffffffffffff169050919050565b6118f8611464565b73ffffffffffffffffffffffffffffffffffffffff16611916610c9d565b73ffffffffffffffffffffffffffffffffffffffff161461196c576040517f08c379a0000000000000000000000000000000000000000000000000000000008152600401611963906137fd565b60405180910390fd5b565b6000600660009054906101000a900473ffffffffffffffffffffffffffffffffffffffff16905081600660006101000a81548173ffffffffffffffffffffffffffffffffffffffff021916908373ffffffffffffffffffffffffffffffffffffffff1602179055508173ffffffffffffffffffffffffffffffffffffffff168173ffffffffffffffffffffffffffffffffffffffff167f8be0079c531659141344cd1fd0a4f28419497f9722a3daafe3b4186f6b6457e060405160405180910390a35050565b60008073ffffffffffffffffffffffffffffffffffffffff16611a56836118b3565b73ffffffffffffffffffffffffffffffffffffffff1614159050919050565b600082611a828584612056565b1490509392505050565b8173ffffffffffffffffffffffffffffffffffffffff168373ffffffffffffffffffffffffffffffffffffffff1603611afa576040517f08c379a0000000000000000000000000000000000000000000000000000000008152600401611af190613869565b60405180910390fd5b80600560008573ffffffffffffffffffffffffffffffffffffffff1673ffffffffffffffffffffffffffffffffffffffff16815260200190815260200160002060008473ffffffffffffffffffffffffffffffffffffffff1673ffffffffffffffffffffffffffffffffffffffff16815260200190815260200160002060006101000a81548160ff0219169083151502179055508173ffffffffffffffffffffffffffffffffffffffff168373ffffffffffffffffffffffffffffffffffffffff167f17307eab39ab6107e8899845ad3d59bd9653f200f220920489ca2b5937696c3183604051611beb9190612374565b60405180910390a3505050565b611c038484846115ba565b611c0f848484846120a6565b611c4e576040517f08c379a0000000000000000000000000000000000000000000000000000000008152600401611c45906138fb565b60405180910390fd5b50505050565b6001816000016000828254019250508190555050565b600081600001549050919050565b600073ffffffffffffffffffffffffffffffffffffffff168273ffffffffffffffffffffffffffffffffffffffff1603611ce7576040517f08c379a0000000000000000000000000000000000000000000000000000000008152600401611cde90613967565b60405180910390fd5b611cf081611a34565b15611d30576040517f08c379a0000000000000000000000000000000000000000000000000000000008152600401611d27906139d3565b60405180910390fd5b611d3e60008383600161204a565b611d4781611a34565b15611d87576040517f08c379a0000000000000000000000000000000000000000000000000000000008152600401611d7e906139d3565b60405180910390fd5b6001600360008473ffffffffffffffffffffffffffffffffffffffff1673ffffffffffffffffffffffffffffffffffffffff16815260200190815260200160002060008282540192505081905550816002600083815260200190815260200160002060006101000a81548173ffffffffffffffffffffffffffffffffffffffff021916908373ffffffffffffffffffffffffffffffffffffffff160217905550808273ffffffffffffffffffffffffffffffffffffffff16600073ffffffffffffffffffffffffffffffffffffffff167fddf252ad1be2c89b69c2b068fc378daa952ba7f163c4a11628f55a4df523b3ef60405160405180910390a4611e91600083836001612050565b5050565b611e9e83611a34565b611edd576040517f08c379a0000000000000000000000000000000000000000000000000000000008152600401611ed49061309d565b60405180910390fd5b6000600c60008581526020019081526020016000209050611eff848484610bb6565b15611f3f576040517f08c379a0000000000000000000000000000000000000000000000000000000008152600401611f3690613a3f565b60405180910390fd5b6000801b81600301541461200957600033604051602001611f609190613105565b604051602081830303815290604052805190602001209050611fc8848480806020026020016040519081016040528093929190818152602001838360200280828437600081840152601f19601f82011690508083019250505050505050836003015483611a75565b612007576040517f08c379a0000000000000000000000000000000000000000000000000000000008152600401611ffe90613aab565b60405180910390fd5b505b6000816002015433604051602001612022929190613aec565b6040516020818303038152906040529050808051906020012082600201819055505050505050565b50505050565b50505050565b60008082905060005b845181101561209b5761208c8286838151811061207f5761207e613b18565b5b602002602001015161222d565b9150808060010191505061205f565b508091505092915050565b60006120c78473ffffffffffffffffffffffffffffffffffffffff16612258565b15612220578373ffffffffffffffffffffffffffffffffffffffff1663150b7a026120f0611464565b8786866040518563ffffffff1660e01b81526004016121129493929190613b9c565b6020604051808303816000875af192505050801561214e57506040513d601f19601f8201168201806040525081019061214b9190613bfd565b60015b6121d0573d806000811461217e576040519150601f19603f3d011682016040523d82523d6000602084013e612183565b606091505b5060008151036121c8576040517f08c379a00000000000000000000000000000000000000000000000000000000081526004016121bf906138fb565b60405180910390fd5b805181602001fd5b63150b7a0260e01b7bffffffffffffffffffffffffffffffffffffffffffffffffffffffff1916817bffffffffffffffffffffffffffffffffffffffffffffffffffffffff191614915050612225565b600190505b949350505050565b600081831061224557612240828461227b565b612250565b61224f838361227b565b5b905092915050565b6000808273ffffffffffffffffffffffffffffffffffffffff163b119050919050565b600082600052816020526040600020905092915050565b6040518060800160405280606081526020016060815260200160008019168152602001600080191681525090565b6000604051905090565b600080fd5b600080fd5b60007fffffffff0000000000000000000000000000000000000000000000000000000082169050919050565b612309816122d4565b811461231457600080fd5b50565b60008135905061232681612300565b92915050565b600060208284031215612342576123416122ca565b5b600061235084828501612317565b91505092915050565b60008115159050919050565b61236e81612359565b82525050565b60006020820190506123896000830184612365565b92915050565b600081519050919050565b600082825260208201905092915050565b60005b838110156123c95780820151818401526020810190506123ae565b60008484015250505050565b6000601f19601f8301169050919050565b60006123f18261238f565b6123fb818561239a565b935061240b8185602086016123ab565b612414816123d5565b840191505092915050565b6000602082019050818103600083015261243981846123e6565b905092915050565b6000819050919050565b61245481612441565b811461245f57600080fd5b50565b6000813590506124718161244b565b92915050565b60006020828403121561248d5761248c6122ca565b5b600061249b84828501612462565b91505092915050565b600073ffffffffffffffffffffffffffffffffffffffff82169050919050565b60006124cf826124a4565b9050919050565b6124df816124c4565b82525050565b60006020820190506124fa60008301846124d6565b92915050565b612509816124c4565b811461251457600080fd5b50565b60008135905061252681612500565b92915050565b60008060408385031215612543576125426122ca565b5b600061255185828601612517565b925050602061256285828601612462565b9150509250929050565b600060208284031215612582576125816122ca565b5b600061259084828501612517565b91505092915050565b6125a281612441565b82525050565b60006020820190506125bd6000830184612599565b92915050565b6000806000606084860312156125dc576125db6122ca565b5b60006125ea86828701612517565b93505060206125fb86828701612517565b925050604061260c86828701612462565b9150509250925092565b600060408201905061262b6000830185612599565b6126386020830184612599565b9392505050565b600082825260208201905092915050565b600061265b8261238f565b612665818561263f565b93506126758185602086016123ab565b61267e816123d5565b840191505092915050565b6000819050919050565b61269c81612689565b82525050565b600060808301600083015184820360008601526126bf8282612650565b915050602083015184820360208601526126d98282612650565b91505060408301516126ee6040860182612693565b5060608301516127016060860182612693565b508091505092915050565b6000602082019050818103600083015261272681846126a2565b905092915050565b600080fd5b600080fd5b600080fd5b60008083601f8401126127535761275261272e565b5b8235905067ffffffffffffffff8111156127705761276f612733565b5b60208301915083602082028301111561278c5761278b612738565b5b9250929050565b6000806000604084860312156127ac576127ab6122ca565b5b60006127ba86828701612462565b935050602084013567ffffffffffffffff8111156127db576127da6122cf565b5b6127e78682870161273d565b92509250509250925092565b6127fc81612359565b811461280757600080fd5b50565b600081359050612819816127f3565b92915050565b60008060408385031215612836576128356122ca565b5b600061284485828601612517565b92505060206128558582860161280a565b9150509250929050565b600080fd5b7f4e487b7100000000000000000000000000000000000000000000000000000000600052604160045260246000fd5b61289c826123d5565b810181811067ffffffffffffffff821117156128bb576128ba612864565b5b80604052505050565b60006128ce6122c0565b90506128da8282612893565b919050565b600067ffffffffffffffff8211156128fa576128f9612864565b5b612903826123d5565b9050602081019050919050565b82818337600083830152505050565b600061293261292d846128df565b6128c4565b90508281526020810184848401111561294e5761294d61285f565b5b612959848285612910565b509392505050565b600082601f8301126129765761297561272e565b5b813561298684826020860161291f565b91505092915050565b600080600080608085870312156129a9576129a86122ca565b5b60006129b787828801612517565b94505060206129c887828801612517565b93505060406129d987828801612462565b925050606085013567ffffffffffffffff8111156129fa576129f96122cf565b5b612a0687828801612961565b91505092959194509250565b600067ffffffffffffffff821115612a2d57612a2c612864565b5b612a36826123d5565b9050602081019050919050565b6000612a56612a5184612a12565b6128c4565b905082815260208101848484011115612a7257612a7161285f565b5b612a7d848285612910565b509392505050565b600082601f830112612a9a57612a9961272e565b5b8135612aaa848260208601612a43565b91505092915050565b612abc81612689565b8114612ac757600080fd5b50565b600081359050612ad981612ab3565b92915050565b60008060008060808587031215612af957612af86122ca565b5b600085013567ffffffffffffffff811115612b1757612b166122cf565b5b612b2387828801612a85565b945050602085013567ffffffffffffffff811115612b4457612b436122cf565b5b612b5087828801612a85565b9350506040612b6187828801612aca565b9250506060612b7287828801612aca565b91505092959194509250565b6000819050919050565b6000612ba3612b9e612b99846124a4565b612b7e565b6124a4565b9050919050565b6000612bb582612b88565b9050919050565b6000612bc782612baa565b9050919050565b612bd781612bbc565b82525050565b6000602082019050612bf26000830184612bce565b92915050565b60008060408385031215612c0f57612c0e6122ca565b5b6000612c1d85828601612517565b9250506020612c2e85828601612517565b9150509250929050565b7f4e487b7100000000000000000000000000000000000000000000000000000000600052602260045260246000fd5b60006002820490506001821680612c7f57607f821691505b602082108103612c9257612c91612c38565b5b50919050565b7f4552433732313a20617070726f76616c20746f2063757272656e74206f776e6560008201527f7200000000000000000000000000000000000000000000000000000000000000602082015250565b6000612cf460218361239a565b9150612cff82612c98565b604082019050919050565b60006020820190508181036000830152612d2381612ce7565b9050919050565b7f4552433732313a20617070726f76652063616c6c6572206973206e6f7420746f60008201527f6b656e206f776e6572206f7220617070726f76656420666f7220616c6c000000602082015250565b6000612d86603d8361239a565b9150612d9182612d2a565b604082019050919050565b60006020820190508181036000830152612db581612d79565b9050919050565b7f4552433732313a2063616c6c6572206973206e6f7420746f6b656e206f776e6560008201527f72206f7220617070726f76656400000000000000000000000000000000000000602082015250565b6000612e18602d8361239a565b9150612e2382612dbc565b604082019050919050565b60006020820190508181036000830152612e4781612e0b565b9050919050565b7f4e487b7100000000000000000000000000000000000000000000000000000000600052601160045260246000fd5b6000612e8882612441565b9150612e9383612441565b9250828202612ea181612441565b91508282048414831517612eb857612eb7612e4e565b5b5092915050565b7f4e487b7100000000000000000000000000000000000000000000000000000000600052601260045260246000fd5b6000612ef982612441565b9150612f0483612441565b925082612f1457612f13612ebf565b5b828204905092915050565b6000612f2a82612441565b9150612f3583612441565b9250828201905080821115612f4d57612f4c612e4e565b5b92915050565b7f4552433732313a20696e76616c696420746f6b656e2049440000000000000000600082015250565b6000612f8960188361239a565b9150612f9482612f53565b602082019050919050565b60006020820190508181036000830152612fb881612f7c565b9050919050565b7f4552433732313a2061646472657373207a65726f206973206e6f74206120766160008201527f6c6964206f776e65720000000000000000000000000000000000000000000000602082015250565b600061301b60298361239a565b915061302682612fbf565b604082019050919050565b6000602082019050818103600083015261304a8161300e565b9050919050565b7f4552433732313a20616420646f6573206e6f7420657869737400000000000000600082015250565b600061308760198361239a565b915061309282613051565b602082019050919050565b600060208201905081810360008301526130b68161307a565b9050919050565b60008160601b9050919050565b60006130d5826130bd565b9050919050565b60006130e7826130ca565b9050919050565b6130ff6130fa826124c4565b6130dc565b82525050565b600061311182846130ee565b60148201915081905092915050565b7f4552433732314d657461646174613a2055524920717565727920666f72206e6f60008201527f6e6578697374656e7420746f6b656e0000000000000000000000000000000000602082015250565b600061317c602f8361239a565b915061318782613120565b604082019050919050565b600060208201905081810360008301526131ab8161316f565b9050919050565b60008190508160005260206000209050919050565b60006020601f8301049050919050565b600082821b905092915050565b6000600883026132147fffffffffffffffffffffffffffffffffffffffffffffffffffffffffffffffff826131d7565b61321e86836131d7565b95508019841693508086168417925050509392505050565b600061325161324c61324784612441565b612b7e565b612441565b9050919050565b6000819050919050565b61326b83613236565b61327f61327782613258565b8484546131e4565b825550505050565b600090565b613294613287565b61329f818484613262565b505050565b5b818110156132c3576132b860008261328c565b6001810190506132a5565b5050565b601f821115613308576132d9816131b2565b6132e2846131c7565b810160208510156132f1578190505b6133056132fd856131c7565b8301826132a4565b50505b505050565b600082821c905092915050565b600061332b6000198460080261330d565b1980831691505092915050565b6000613344838361331a565b9150826002028217905092915050565b61335d8261238f565b67ffffffffffffffff81111561337657613375612864565b5b6133808254612c67565b61338b8282856132c7565b600060209050601f8311600181146133be57600084156133ac578287015190505b6133b68582613338565b86555061341e565b601f1984166133cc866131b2565b60005b828110156133f4578489015182556001820191506020850194506020810190506133cf565b86831015613411578489015161340d601f89168261331a565b8355505b6001600288020188555050505b505050505050565b60008154905061343581612c67565b9050919050565b81810361344a575050613522565b61345382613426565b67ffffffffffffffff81111561346c5761346b612864565b5b6134768254612c67565b6134818282856132c7565b6000601f8311600181146134b0576000841561349e578287015490505b6134a88582613338565b86555061351b565b601f1984166134be876131b2565b96506134c9866131b2565b60005b828110156134f1578489015482556001820191506001850194506020810190506134cc565b8683101561350e578489015461350a601f89168261331a565b8355505b6001600288020188555050505b5050505050505b565b7f4f776e61626c653a206e6577206f776e657220697320746865207a65726f206160008201527f6464726573730000000000000000000000000000000000000000000000000000602082015250565b600061358060268361239a565b915061358b82613524565b604082019050919050565b600060208201905081810360008301526135af81613573565b9050919050565b7f616c7265616479207369676e6564206164000000000000000000000000000000600082015250565b60006135ec60118361239a565b91506135f7826135b6565b602082019050919050565b6000602082019050818103600083015261361b816135df565b9050919050565b600060408201905061363760008301856124d6565b6136446020830184612599565b9392505050565b60008151905061365a816127f3565b92915050565b600060208284031215613676576136756122ca565b5b60006136848482850161364b565b91505092915050565b7f4552433732313a207472616e736665722066726f6d20696e636f72726563742060008201527f6f776e6572000000000000000000000000000000000000000000000000000000602082015250565b60006136e960258361239a565b91506136f48261368d565b604082019050919050565b60006020820190508181036000830152613718816136dc565b9050919050565b7f4552433732313a207472616e7366657220746f20746865207a65726f2061646460008201527f7265737300000000000000000000000000000000000000000000000000000000602082015250565b600061377b60248361239a565b91506137868261371f565b604082019050919050565b600060208201905081810360008301526137aa8161376e565b9050919050565b7f4f776e61626c653a2063616c6c6572206973206e6f7420746865206f776e6572600082015250565b60006137e760208361239a565b91506137f2826137b1565b602082019050919050565b60006020820190508181036000830152613816816137da565b9050919050565b7f4552433732313a20617070726f766520746f2063616c6c657200000000000000600082015250565b600061385360198361239a565b915061385e8261381d565b602082019050919050565b6000602082019050818103600083015261388281613846565b9050919050565b7f4552433732313a207472616e7366657220746f206e6f6e20455243373231526560008201527f63656976657220696d706c656d656e7465720000000000000000000000000000602082015250565b60006138e560328361239a565b91506138f082613889565b604082019050919050565b60006020820190508181036000830152613914816138d8565b9050919050565b7f4552433732313a206d696e7420746f20746865207a65726f2061646472657373600082015250565b600061395160208361239a565b915061395c8261391b565b602082019050919050565b6000602082019050818103600083015261398081613944565b9050919050565b7f4552433732313a20746f6b656e20616c7265616479206d696e74656400000000600082015250565b60006139bd601c8361239a565b91506139c882613987565b602082019050919050565b600060208201905081810360008301526139ec816139b0565b9050919050565b7f53656e64657220616c7265616479207369676e65640000000000000000000000600082015250565b6000613a2960158361239a565b9150613a34826139f3565b602082019050919050565b60006020820190508181036000830152613a5881613a1c565b9050919050565b7f53656e646572206e6f7420696e207461726765742061756469656e6365000000600082015250565b6000613a95601d8361239a565b9150613aa082613a5f565b602082019050919050565b60006020820190508181036000830152613ac481613a88565b9050919050565b6000819050919050565b613ae6613ae182612689565b613acb565b82525050565b6000613af88285613ad5565b602082019150613b0882846130ee565b6014820191508190509392505050565b7f4e487b7100000000000000000000000000000000000000000000000000000000600052603260045260246000fd5b600081519050919050565b600082825260208201905092915050565b6000613b6e82613b47565b613b788185613b52565b9350613b888185602086016123ab565b613b91816123d5565b840191505092915050565b6000608082019050613bb160008301876124d6565b613bbe60208301866124d6565b613bcb6040830185612599565b8181036060830152613bdd8184613b63565b905095945050505050565b600081519050613bf781612300565b92915050565b600060208284031215613c1357613c126122ca565b5b6000613c2184828501613be8565b9150509291505056fea2646970667358221220de32f4d06b9e9857a5925b4e28d295f6ac0c98bbf3b19f55c5f0aa517523c70764736f6c63430008180033",
  "linkReferences": {},
  "deployedLinkReferences": {}
}