{
  "_format": "hh-sol-artifact-1",
  "contractName": "MehAdV1",
  "sourceName": "contracts/MehAdV1.sol",
  "abi": [
    {
      "inputs": [
        {
          "internalType": "string",
          "name": "name",
          "type": "string"
        },
        {
          "internalType": "string",
          "name": "symbol",
          "type": "string"
        },
        {
          "internalType": "address",
          "name": "mehTokenAddress",
          "type": "address"
        }
      ],
      "stateMutability": "nonpayable",
      "type": "constructor"
    },
    {
      "anonymous": false,
      "inputs": [
        {
          "indexed": true,
          "internalType": "address",
          "name": "owner",
          "type": "address"
        },
        {
          "indexed": true,
          "internalType": "address",
          "name": "approved",
          "type": "address"
        },
        {
          "indexed": true,
          "internalType": "uint256",
          "name": "tokenId",
          "type": "uint256"
        }
      ],
      "name": "Approval",
      "type": "event"
    },
    {
      "anonymous": false,
      "inputs": [
        {
          "indexed": true,
          "internalType": "address",
          "name": "owner",
          "type": "address"
        },
        {
          "indexed": true,
          "internalType": "address",
          "name": "operator",
          "type": "address"
        },
        {
          "indexed": false,
          "internalType": "bool",
          "name": "approved",
          "type": "bool"
        }
      ],
      "name": "ApprovalForAll",
      "type": "event"
    },
    {
      "anonymous": false,
      "inputs": [
        {
          "indexed": true,
          "internalType": "address",
          "name": "previousOwner",
          "type": "address"
        },
        {
          "indexed": true,
          "internalType": "address",
          "name": "newOwner",
          "type": "address"
        }
      ],
      "name": "OwnershipTransferred",
      "type": "event"
    },
    {
      "anonymous": false,
      "inputs": [
        {
          "indexed": true,
          "internalType": "address",
          "name": "from",
          "type": "address"
        },
        {
          "indexed": true,
          "internalType": "address",
          "name": "to",
          "type": "address"
        },
        {
          "indexed": true,
          "internalType": "uint256",
          "name": "tokenId",
          "type": "uint256"
        }
      ],
      "name": "Transfer",
      "type": "event"
    },
    {
      "inputs": [],
      "name": "adAmt",
      "outputs": [
        {
          "internalType": "uint256",
          "name": "",
          "type": "uint256"
        },
        {
          "internalType": "uint256",
          "name": "",
          "type": "uint256"
        }
      ],
      "stateMutability": "view",
      "type": "function"
    },
    {
      "inputs": [
        {
          "internalType": "address",
          "name": "to",
          "type": "address"
        },
        {
          "internalType": "uint256",
          "name": "tokenId",
          "type": "uint256"
        }
      ],
      "name": "approve",
      "outputs": [],
      "stateMutability": "nonpayable",
      "type": "function"
    },
    {
      "inputs": [
        {
          "internalType": "address",
          "name": "owner",
          "type": "address"
        }
      ],
      "name": "balanceOf",
      "outputs": [
        {
          "internalType": "uint256",
          "name": "",
          "type": "uint256"
        }
      ],
      "stateMutability": "view",
      "type": "function"
    },
    {
      "inputs": [
        {
          "internalType": "address",
          "name": "",
          "type": "address"
        }
      ],
      "name": "discounts",
      "outputs": [
        {
          "internalType": "uint256",
          "name": "",
          "type": "uint256"
        }
      ],
      "stateMutability": "view",
      "type": "function"
    },
    {
      "inputs": [
        {
          "internalType": "uint256",
          "name": "id",
          "type": "uint256"
        }
      ],
      "name": "displayAd",
      "outputs": [
        {
          "components": [
            {
              "internalType": "string",
              "name": "adURI",
              "type": "string"
            },
            {
              "internalType": "string",
              "name": "dataURI",
              "type": "string"
            },
            {
              "internalType": "bytes32",
              "name": "signatureRoot",
              "type": "bytes32"
            },
            {
              "internalType": "bytes32",
              "name": "audienceRoot",
              "type": "bytes32"
            }
          ],
          "internalType": "struct IERCAd.Ad",
          "name": "",
          "type": "tuple"
        }
      ],
      "stateMutability": "view",
      "type": "function"
    },
    {
      "inputs": [
        {
          "internalType": "uint256",
          "name": "tokenId",
          "type": "uint256"
        }
      ],
      "name": "getApproved",
      "outputs": [
        {
          "internalType": "address",
          "name": "",
          "type": "address"
        }
      ],
      "stateMutability": "view",
      "type": "function"
    },
    {
      "inputs": [
        {
          "internalType": "address",
          "name": "",
          "type": "address"
        }
      ],
      "name": "hasSigned",
      "outputs": [
        {
          "internalType": "bool",
          "name": "",
          "type": "bool"
        }
      ],
      "stateMutability": "view",
      "type": "function"
    },
    {
      "inputs": [
        {
          "internalType": "uint256",
          "name": "id",
          "type": "uint256"
        },
        {
          "internalType": "bytes32[]",
          "name": "proof",
          "type": "bytes32[]"
        }
      ],
      "name": "hasSignedAd",
      "outputs": [
        {
          "internalType": "bool",
          "name": "",
          "type": "bool"
        }
      ],
      "stateMutability": "view",
      "type": "function"
    },
    {
      "inputs": [
        {
          "internalType": "address",
          "name": "owner",
          "type": "address"
        },
        {
          "internalType": "address",
          "name": "operator",
          "type": "address"
        }
      ],
      "name": "isApprovedForAll",
      "outputs": [
        {
          "internalType": "bool",
          "name": "",
          "type": "bool"
        }
      ],
      "stateMutability": "view",
      "type": "function"
    },
    {
      "inputs": [
        {
          "internalType": "uint256",
          "name": "id",
          "type": "uint256"
        },
        {
          "internalType": "bytes32[]",
          "name": "proof",
          "type": "bytes32[]"
        }
      ],
      "name": "isInAudience",
      "outputs": [
        {
          "internalType": "bool",
          "name": "",
          "type": "bool"
        }
      ],
      "stateMutability": "view",
      "type": "function"
    },
    {
      "inputs": [],
      "name": "mehToken",
      "outputs": [
        {
          "internalType": "contract IERC20",
          "name": "",
          "type": "address"
        }
      ],
      "stateMutability": "view",
      "type": "function"
    },
    {
      "inputs": [],
      "name": "name",
      "outputs": [
        {
          "internalType": "string",
          "name": "",
          "type": "string"
        }
      ],
      "stateMutability": "view",
      "type": "function"
    },
    {
      "inputs": [],
      "name": "owner",
      "outputs": [
        {
          "internalType": "address",
          "name": "",
          "type": "address"
        }
      ],
      "stateMutability": "view",
      "type": "function"
    },
    {
      "inputs": [
        {
          "internalType": "uint256",
          "name": "tokenId",
          "type": "uint256"
        }
      ],
      "name": "ownerOf",
      "outputs": [
        {
          "internalType": "address",
          "name": "",
          "type": "address"
        }
      ],
      "stateMutability": "view",
      "type": "function"
    },
    {
      "inputs": [],
      "name": "renounceOwnership",
      "outputs": [],
      "stateMutability": "nonpayable",
      "type": "function"
    },
    {
      "inputs": [
        {
          "internalType": "address",
          "name": "from",
          "type": "address"
        },
        {
          "internalType": "address",
          "name": "to",
          "type": "address"
        },
        {
          "internalType": "uint256",
          "name": "tokenId",
          "type": "uint256"
        }
      ],
      "name": "safeTransferFrom",
      "outputs": [],
      "stateMutability": "nonpayable",
      "type": "function"
    },
    {
      "inputs": [
        {
          "internalType": "address",
          "name": "from",
          "type": "address"
        },
        {
          "internalType": "address",
          "name": "to",
          "type": "address"
        },
        {
          "internalType": "uint256",
          "name": "tokenId",
          "type": "uint256"
        },
        {
          "internalType": "bytes",
          "name": "data",
          "type": "bytes"
        }
      ],
      "name": "safeTransferFrom",
      "outputs": [],
      "stateMutability": "nonpayable",
      "type": "function"
    },
    {
      "inputs": [
        {
          "internalType": "string",
          "name": "adURI",
          "type": "string"
        },
        {
          "internalType": "string",
          "name": "dataURI",
          "type": "string"
        },
        {
          "internalType": "bytes32",
          "name": "signatureRoot",
          "type": "bytes32"
        },
        {
          "internalType": "bytes32",
          "name": "audienceRoot",
          "type": "bytes32"
        }
      ],
      "name": "setAd",
      "outputs": [],
      "stateMutability": "nonpayable",
      "type": "function"
    },
    {
      "inputs": [
        {
          "internalType": "address",
          "name": "operator",
          "type": "address"
        },
        {
          "internalType": "bool",
          "name": "approved",
          "type": "bool"
        }
      ],
      "name": "setApprovalForAll",
      "outputs": [],
      "stateMutability": "nonpayable",
      "type": "function"
    },
    {
      "inputs": [
        {
          "internalType": "uint256",
          "name": "id",
          "type": "uint256"
        },
        {
          "internalType": "bytes32[]",
          "name": "proof",
          "type": "bytes32[]"
        }
      ],
      "name": "signAd",
      "outputs": [],
      "stateMutability": "nonpayable",
      "type": "function"
    },
    {
      "inputs": [
        {
          "internalType": "bytes4",
          "name": "interfaceId",
          "type": "bytes4"
        }
      ],
      "name": "supportsInterface",
      "outputs": [
        {
          "internalType": "bool",
          "name": "",
          "type": "bool"
        }
      ],
      "stateMutability": "view",
      "type": "function"
    },
    {
      "inputs": [],
      "name": "symbol",
      "outputs": [
        {
          "internalType": "string",
          "name": "",
          "type": "string"
        }
      ],
      "stateMutability": "view",
      "type": "function"
    },
    {
      "inputs": [
        {
          "internalType": "uint256",
          "name": "tokenId",
          "type": "uint256"
        }
      ],
      "name": "tokenURI",
      "outputs": [
        {
          "internalType": "string",
          "name": "",
          "type": "string"
        }
      ],
      "stateMutability": "view",
      "type": "function"
    },
    {
      "inputs": [
        {
          "internalType": "address",
          "name": "from",
          "type": "address"
        },
        {
          "internalType": "address",
          "name": "to",
          "type": "address"
        },
        {
          "internalType": "uint256",
          "name": "tokenId",
          "type": "uint256"
        }
      ],
      "name": "transferFrom",
      "outputs": [],
      "stateMutability": "nonpayable",
      "type": "function"
    },
    {
      "inputs": [
        {
          "internalType": "address",
          "name": "newOwner",
          "type": "address"
        }
      ],
      "name": "transferOwnership",
      "outputs": [],
      "stateMutability": "nonpayable",
      "type": "function"
    }
  ],
  "bytecode": "0x60806040523480156200001157600080fd5b50604051620043da380380620043da833981810160405281019062000037919062000393565b8282818181600090816200004c919062000678565b5080600190816200005e919062000678565b5050506200008162000075620000cd60201b60201c565b620000d560201b60201c565b505080600d60006101000a81548173ffffffffffffffffffffffffffffffffffffffff021916908373ffffffffffffffffffffffffffffffffffffffff1602179055505050506200075f565b600033905090565b6000600660009054906101000a900473ffffffffffffffffffffffffffffffffffffffff16905081600660006101000a81548173ffffffffffffffffffffffffffffffffffffffff021916908373ffffffffffffffffffffffffffffffffffffffff1602179055508173ffffffffffffffffffffffffffffffffffffffff168173ffffffffffffffffffffffffffffffffffffffff167f8be0079c531659141344cd1fd0a4f28419497f9722a3daafe3b4186f6b6457e060405160405180910390a35050565b6000604051905090565b600080fd5b600080fd5b600080fd5b600080fd5b6000601f19601f8301169050919050565b7f4e487b7100000000000000000000000000000000000000000000000000000000600052604160045260246000fd5b6200020482620001b9565b810181811067ffffffffffffffff82111715620002265762000225620001ca565b5b80604052505050565b60006200023b6200019b565b9050620002498282620001f9565b919050565b600067ffffffffffffffff8211156200026c576200026b620001ca565b5b6200027782620001b9565b9050602081019050919050565b60005b83811015620002a457808201518184015260208101905062000287565b60008484015250505050565b6000620002c7620002c1846200024e565b6200022f565b905082815260208101848484011115620002e657620002e5620001b4565b5b620002f384828562000284565b509392505050565b600082601f830112620003135762000312620001af565b5b815162000325848260208601620002b0565b91505092915050565b600073ffffffffffffffffffffffffffffffffffffffff82169050919050565b60006200035b826200032e565b9050919050565b6200036d816200034e565b81146200037957600080fd5b50565b6000815190506200038d8162000362565b92915050565b600080600060608486031215620003af57620003ae620001a5565b5b600084015167ffffffffffffffff811115620003d057620003cf620001aa565b5b620003de86828701620002fb565b935050602084015167ffffffffffffffff811115620004025762000401620001aa565b5b6200041086828701620002fb565b925050604062000423868287016200037c565b9150509250925092565b600081519050919050565b7f4e487b7100000000000000000000000000000000000000000000000000000000600052602260045260246000fd5b600060028204905060018216806200048057607f821691505b60208210810362000496576200049562000438565b5b50919050565b60008190508160005260206000209050919050565b60006020601f8301049050919050565b600082821b905092915050565b600060088302620005007fffffffffffffffffffffffffffffffffffffffffffffffffffffffffffffffff82620004c1565b6200050c8683620004c1565b95508019841693508086168417925050509392505050565b6000819050919050565b6000819050919050565b600062000559620005536200054d8462000524565b6200052e565b62000524565b9050919050565b6000819050919050565b620005758362000538565b6200058d620005848262000560565b848454620004ce565b825550505050565b600090565b620005a462000595565b620005b18184846200056a565b505050565b5b81811015620005d957620005cd6000826200059a565b600181019050620005b7565b5050565b601f8211156200062857620005f2816200049c565b620005fd84620004b1565b810160208510156200060d578190505b620006256200061c85620004b1565b830182620005b6565b50505b505050565b600082821c905092915050565b60006200064d600019846008026200062d565b1980831691505092915050565b60006200066883836200063a565b9150826002028217905092915050565b62000683826200042d565b67ffffffffffffffff8111156200069f576200069e620001ca565b5b620006ab825462000467565b620006b8828285620005dd565b600060209050601f831160018114620006f05760008415620006db578287015190505b620006e785826200065a565b86555062000757565b601f19841662000700866200049c565b60005b828110156200072a5784890151825560018201915060208501945060208101905062000703565b868310156200074a578489015162000746601f8916826200063a565b8355505b6001600288020188555050505b505050505050565b613c6b806200076f6000396000f3fe608060405234801561001057600080fd5b50600436106101735760003560e01c80638b4d9eb9116100de578063c87b56dd11610097578063e2c2c88411610071578063e2c2c88414610483578063e985e9c5146104a1578063f2fde38b146104d1578063fe49e833146104ed57610173565b8063c87b56dd14610407578063d13e2af914610437578063dfe194fe1461045357610173565b80638b4d9eb9146103335780638da5cb5b1461036357806395d89b4114610381578063a22cb4651461039f578063b88d4fde146103bb578063bf6a1413146103d757610173565b806342842e0e1161013057806342842e0e1461025e5780634c2c315a1461027a5780636352211e14610299578063672fb969146102c957806370a08231146102f9578063715018a61461032957610173565b806301ffc9a71461017857806306fdde03146101a8578063081812fc146101c6578063095ea7b3146101f65780630fff44741461021257806323b872dd14610242575b600080fd5b610192600480360381019061018d9190612337565b610509565b60405161019f919061237f565b60405180910390f35b6101b06105eb565b6040516101bd919061242a565b60405180910390f35b6101e060048036038101906101db9190612482565b61067d565b6040516101ed91906124f0565b60405180910390f35b610210600480360381019061020b9190612537565b6106c3565b005b61022c60048036038101906102279190612577565b6107da565b60405161023991906125b3565b60405180910390f35b61025c600480360381019061025791906125ce565b6107f2565b005b610278600480360381019061027391906125ce565b610852565b005b610282610872565b604051610290929190612621565b60405180910390f35b6102b360048036038101906102ae9190612482565b61090b565b6040516102c091906124f0565b60405180910390f35b6102e360048036038101906102de9190612482565b610991565b6040516102f09190612717565b60405180910390f35b610313600480360381019061030e9190612577565b610af6565b60405161032091906125b3565b60405180910390f35b610331610bad565b005b61034d6004803603810190610348919061279e565b610bc1565b60405161035a919061237f565b60405180910390f35b61036b610ca8565b60405161037891906124f0565b60405180910390f35b610389610cd2565b604051610396919061242a565b60405180910390f35b6103b960048036038101906103b4919061282a565b610d64565b005b6103d560048036038101906103d0919061299a565b610d7a565b005b6103f160048036038101906103ec9190612577565b610ddc565b6040516103fe919061237f565b60405180910390f35b610421600480360381019061041c9190612482565b610dfc565b60405161042e919061242a565b60405180910390f35b610451600480360381019061044c9190612aea565b610edb565b005b61046d6004803603810190610468919061279e565b610fd9565b60405161047a919061237f565b60405180910390f35b61048b6110d9565b6040516104989190612be8565b60405180910390f35b6104bb60048036038101906104b69190612c03565b6110ff565b6040516104c8919061237f565b60405180910390f35b6104eb60048036038101906104e69190612577565b611193565b005b6105076004803603810190610502919061279e565b611216565b005b60007f80ac58cd000000000000000000000000000000000000000000000000000000007bffffffffffffffffffffffffffffffffffffffffffffffffffffffff1916827bffffffffffffffffffffffffffffffffffffffffffffffffffffffff191614806105d457507f5b5e139f000000000000000000000000000000000000000000000000000000007bffffffffffffffffffffffffffffffffffffffffffffffffffffffff1916827bffffffffffffffffffffffffffffffffffffffffffffffffffffffff1916145b806105e457506105e3826113ba565b5b9050919050565b6060600080546105fa90612c72565b80601f016020809104026020016040519081016040528092919081815260200182805461062690612c72565b80156106735780601f1061064857610100808354040283529160200191610673565b820191906000526020600020905b81548152906001019060200180831161065657829003601f168201915b5050505050905090565b600061068882611424565b6004600083815260200190815260200160002060009054906101000a900473ffffffffffffffffffffffffffffffffffffffff169050919050565b60006106ce8261090b565b90508073ffffffffffffffffffffffffffffffffffffffff168373ffffffffffffffffffffffffffffffffffffffff160361073e576040517f08c379a000000000000000000000000000000000000000000000000000000000815260040161073590612d15565b60405180910390fd5b8073ffffffffffffffffffffffffffffffffffffffff1661075d61146f565b73ffffffffffffffffffffffffffffffffffffffff16148061078c575061078b8161078661146f565b6110ff565b5b6107cb576040517f08c379a00000000000000000000000000000000000000000000000000000000081526004016107c290612da7565b60405180910390fd5b6107d58383611477565b505050565b600e6020528060005260406000206000915090505481565b6108036107fd61146f565b82611530565b610842576040517f08c379a000000000000000000000000000000000000000000000000000000000815260040161083990612e39565b60405180910390fd5b61084d8383836115c5565b505050565b61086d83838360405180602001604052806000815250610d7a565b505050565b60008060003373ffffffffffffffffffffffffffffffffffffffff163190506000670de0b6b3a7640000905060008183836161a86108b09190612e88565b6108ba9190612e88565b6108c49190612ef9565b826161a86108d29190612e88565b6108dc9190612f2a565b90506934f086f3b33b684000008111156108fe576934f086f3b33b6840000090505b8083945094505050509091565b600080610917836118be565b9050600073ffffffffffffffffffffffffffffffffffffffff168173ffffffffffffffffffffffffffffffffffffffff1603610988576040517f08c379a000000000000000000000000000000000000000000000000000000000815260040161097f90612faa565b60405180910390fd5b80915050919050565b61099961229d565b600c60008381526020019081526020016000206040518060800160405290816000820180546109c790612c72565b80601f01602080910402602001604051908101604052809291908181526020018280546109f390612c72565b8015610a405780601f10610a1557610100808354040283529160200191610a40565b820191906000526020600020905b815481529060010190602001808311610a2357829003601f168201915b50505050508152602001600182018054610a5990612c72565b80601f0160208091040260200160405190810160405280929190818152602001828054610a8590612c72565b8015610ad25780601f10610aa757610100808354040283529160200191610ad2565b820191906000526020600020905b815481529060010190602001808311610ab557829003601f168201915b50505050508152602001600282015481526020016003820154815250509050919050565b60008073ffffffffffffffffffffffffffffffffffffffff168273ffffffffffffffffffffffffffffffffffffffff1603610b66576040517f08c379a0000000000000000000000000000000000000000000000000000000008152600401610b5d9061303c565b60405180910390fd5b600360008373ffffffffffffffffffffffffffffffffffffffff1673ffffffffffffffffffffffffffffffffffffffff168152602001908152602001600020549050919050565b610bb56118fb565b610bbf6000611979565b565b6000610bcc84611a3f565b610c0b576040517f08c379a0000000000000000000000000000000000000000000000000000000008152600401610c02906130a8565b60405180910390fd5b6000600c60008681526020019081526020016000209050600033604051602001610c359190613110565b604051602081830303815290604052805190602001209050610c9d858580806020026020016040519081016040528093929190818152602001838360200280828437600081840152601f19601f82011690508083019250505050505050836002015483611a80565b925050509392505050565b6000600660009054906101000a900473ffffffffffffffffffffffffffffffffffffffff16905090565b606060018054610ce190612c72565b80601f0160208091040260200160405190810160405280929190818152602001828054610d0d90612c72565b8015610d5a5780601f10610d2f57610100808354040283529160200191610d5a565b820191906000526020600020905b815481529060010190602001808311610d3d57829003601f168201915b5050505050905090565b610d76610d6f61146f565b8383611a97565b5050565b610d8b610d8561146f565b83611530565b610dca576040517f08c379a0000000000000000000000000000000000000000000000000000000008152600401610dc190612e39565b60405180910390fd5b610dd684848484611c03565b50505050565b600f6020528060005260406000206000915054906101000a900460ff1681565b6060610e0782611a3f565b610e46576040517f08c379a0000000000000000000000000000000000000000000000000000000008152600401610e3d9061319d565b60405180910390fd5b60086000018054610e5690612c72565b80601f0160208091040260200160405190810160405280929190818152602001828054610e8290612c72565b8015610ecf5780601f10610ea457610100808354040283529160200191610ecf565b820191906000526020600020905b815481529060010190602001808311610eb257829003601f168201915b50505050509050919050565b610ee36118fb565b610eed6007611c5f565b6000610ef96007611c75565b9050604051806080016040528086815260200185815260200184815260200183815250600c60008381526020019081526020016000206000820151816000019081610f44919061335f565b506020820151816001019081610f5a919061335f565b506040820151816002015560608201518160030155905050610f7c3382611c83565b600c6000828152602001908152602001600020600860008201816000019081610fa59190613447565b5060018201816001019081610fba9190613447565b5060028201548160020155600382015481600301559050505050505050565b6000610fe484611a3f565b611023576040517f08c379a000000000000000000000000000000000000000000000000000000000815260040161101a906130a8565b60405180910390fd5b6000600c600086815260200190815260200160002090506000801b8160030154146110cc5760003360405160200161105b9190613110565b6040516020818303038152906040528051906020012090506110c3858580806020026020016040519081016040528093929190818152602001838360200280828437600081840152601f19601f82011690508083019250505050505050836003015483611a80565b925050506110d2565b60019150505b9392505050565b600d60009054906101000a900473ffffffffffffffffffffffffffffffffffffffff1681565b6000600560008473ffffffffffffffffffffffffffffffffffffffff1673ffffffffffffffffffffffffffffffffffffffff16815260200190815260200160002060008373ffffffffffffffffffffffffffffffffffffffff1673ffffffffffffffffffffffffffffffffffffffff16815260200190815260200160002060009054906101000a900460ff16905092915050565b61119b6118fb565b600073ffffffffffffffffffffffffffffffffffffffff168173ffffffffffffffffffffffffffffffffffffffff160361120a576040517f08c379a0000000000000000000000000000000000000000000000000000000008152600401611201906135a1565b60405180910390fd5b61121381611979565b50565b600f60003373ffffffffffffffffffffffffffffffffffffffff1673ffffffffffffffffffffffffffffffffffffffff16815260200190815260200160002060009054906101000a900460ff16156112a3576040517f08c379a000000000000000000000000000000000000000000000000000000000815260040161129a9061360d565b60405180910390fd5b6112ae838383611ea0565b60006112b8610872565b509050600d60009054906101000a900473ffffffffffffffffffffffffffffffffffffffff1673ffffffffffffffffffffffffffffffffffffffff1663a9059cbb33836040518363ffffffff1660e01b815260040161131892919061362d565b6020604051808303816000875af1158015611337573d6000803e3d6000fd5b505050506040513d601f19601f8201168201806040525081019061135b919061366b565b506001600f60003373ffffffffffffffffffffffffffffffffffffffff1673ffffffffffffffffffffffffffffffffffffffff16815260200190815260200160002060006101000a81548160ff02191690831515021790555050505050565b60007f01ffc9a7000000000000000000000000000000000000000000000000000000007bffffffffffffffffffffffffffffffffffffffffffffffffffffffff1916827bffffffffffffffffffffffffffffffffffffffffffffffffffffffff1916149050919050565b61142d81611a3f565b61146c576040517f08c379a000000000000000000000000000000000000000000000000000000000815260040161146390612faa565b60405180910390fd5b50565b600033905090565b816004600083815260200190815260200160002060006101000a81548173ffffffffffffffffffffffffffffffffffffffff021916908373ffffffffffffffffffffffffffffffffffffffff160217905550808273ffffffffffffffffffffffffffffffffffffffff166114ea8361090b565b73ffffffffffffffffffffffffffffffffffffffff167f8c5be1e5ebec7d5bd14f71427d1e84f3dd0314c0f7b2291e5b200ac8c7c3b92560405160405180910390a45050565b60008061153c8361090b565b90508073ffffffffffffffffffffffffffffffffffffffff168473ffffffffffffffffffffffffffffffffffffffff16148061157e575061157d81856110ff565b5b806115bc57508373ffffffffffffffffffffffffffffffffffffffff166115a48461067d565b73ffffffffffffffffffffffffffffffffffffffff16145b91505092915050565b8273ffffffffffffffffffffffffffffffffffffffff166115e58261090b565b73ffffffffffffffffffffffffffffffffffffffff161461163b576040517f08c379a00000000000000000000000000000000000000000000000000000000081526004016116329061370a565b60405180910390fd5b600073ffffffffffffffffffffffffffffffffffffffff168273ffffffffffffffffffffffffffffffffffffffff16036116aa576040517f08c379a00000000000000000000000000000000000000000000000000000000081526004016116a19061379c565b60405180910390fd5b6116b78383836001612055565b8273ffffffffffffffffffffffffffffffffffffffff166116d78261090b565b73ffffffffffffffffffffffffffffffffffffffff161461172d576040517f08c379a00000000000000000000000000000000000000000000000000000000081526004016117249061370a565b60405180910390fd5b6004600082815260200190815260200160002060006101000a81549073ffffffffffffffffffffffffffffffffffffffff02191690556001600360008573ffffffffffffffffffffffffffffffffffffffff1673ffffffffffffffffffffffffffffffffffffffff168152602001908152602001600020600082825403925050819055506001600360008473ffffffffffffffffffffffffffffffffffffffff1673ffffffffffffffffffffffffffffffffffffffff16815260200190815260200160002060008282540192505081905550816002600083815260200190815260200160002060006101000a81548173ffffffffffffffffffffffffffffffffffffffff021916908373ffffffffffffffffffffffffffffffffffffffff160217905550808273ffffffffffffffffffffffffffffffffffffffff168473ffffffffffffffffffffffffffffffffffffffff167fddf252ad1be2c89b69c2b068fc378daa952ba7f163c4a11628f55a4df523b3ef60405160405180910390a46118b9838383600161205b565b505050565b60006002600083815260200190815260200160002060009054906101000a900473ffffffffffffffffffffffffffffffffffffffff169050919050565b61190361146f565b73ffffffffffffffffffffffffffffffffffffffff16611921610ca8565b73ffffffffffffffffffffffffffffffffffffffff1614611977576040517f08c379a000000000000000000000000000000000000000000000000000000000815260040161196e90613808565b60405180910390fd5b565b6000600660009054906101000a900473ffffffffffffffffffffffffffffffffffffffff16905081600660006101000a81548173ffffffffffffffffffffffffffffffffffffffff021916908373ffffffffffffffffffffffffffffffffffffffff1602179055508173ffffffffffffffffffffffffffffffffffffffff168173ffffffffffffffffffffffffffffffffffffffff167f8be0079c531659141344cd1fd0a4f28419497f9722a3daafe3b4186f6b6457e060405160405180910390a35050565b60008073ffffffffffffffffffffffffffffffffffffffff16611a61836118be565b73ffffffffffffffffffffffffffffffffffffffff1614159050919050565b600082611a8d8584612061565b1490509392505050565b8173ffffffffffffffffffffffffffffffffffffffff168373ffffffffffffffffffffffffffffffffffffffff1603611b05576040517f08c379a0000000000000000000000000000000000000000000000000000000008152600401611afc90613874565b60405180910390fd5b80600560008573ffffffffffffffffffffffffffffffffffffffff1673ffffffffffffffffffffffffffffffffffffffff16815260200190815260200160002060008473ffffffffffffffffffffffffffffffffffffffff1673ffffffffffffffffffffffffffffffffffffffff16815260200190815260200160002060006101000a81548160ff0219169083151502179055508173ffffffffffffffffffffffffffffffffffffffff168373ffffffffffffffffffffffffffffffffffffffff167f17307eab39ab6107e8899845ad3d59bd9653f200f220920489ca2b5937696c3183604051611bf6919061237f565b60405180910390a3505050565b611c0e8484846115c5565b611c1a848484846120b1565b611c59576040517f08c379a0000000000000000000000000000000000000000000000000000000008152600401611c5090613906565b60405180910390fd5b50505050565b6001816000016000828254019250508190555050565b600081600001549050919050565b600073ffffffffffffffffffffffffffffffffffffffff168273ffffffffffffffffffffffffffffffffffffffff1603611cf2576040517f08c379a0000000000000000000000000000000000000000000000000000000008152600401611ce990613972565b60405180910390fd5b611cfb81611a3f565b15611d3b576040517f08c379a0000000000000000000000000000000000000000000000000000000008152600401611d32906139de565b60405180910390fd5b611d49600083836001612055565b611d5281611a3f565b15611d92576040517f08c379a0000000000000000000000000000000000000000000000000000000008152600401611d89906139de565b60405180910390fd5b6001600360008473ffffffffffffffffffffffffffffffffffffffff1673ffffffffffffffffffffffffffffffffffffffff16815260200190815260200160002060008282540192505081905550816002600083815260200190815260200160002060006101000a81548173ffffffffffffffffffffffffffffffffffffffff021916908373ffffffffffffffffffffffffffffffffffffffff160217905550808273ffffffffffffffffffffffffffffffffffffffff16600073ffffffffffffffffffffffffffffffffffffffff167fddf252ad1be2c89b69c2b068fc378daa952ba7f163c4a11628f55a4df523b3ef60405160405180910390a4611e9c60008383600161205b565b5050565b611ea983611a3f565b611ee8576040517f08c379a0000000000000000000000000000000000000000000000000000000008152600401611edf906130a8565b60405180910390fd5b6000600c60008581526020019081526020016000209050611f0a848484610bc1565b15611f4a576040517f08c379a0000000000000000000000000000000000000000000000000000000008152600401611f4190613a4a565b60405180910390fd5b6000801b81600301541461201457600033604051602001611f6b9190613110565b604051602081830303815290604052805190602001209050611fd3848480806020026020016040519081016040528093929190818152602001838360200280828437600081840152601f19601f82011690508083019250505050505050836003015483611a80565b612012576040517f08c379a000000000000000000000000000000000000000000000000000000000815260040161200990613ab6565b60405180910390fd5b505b600081600201543360405160200161202d929190613af7565b6040516020818303038152906040529050808051906020012082600201819055505050505050565b50505050565b50505050565b60008082905060005b84518110156120a6576120978286838151811061208a57612089613b23565b5b6020026020010151612238565b9150808060010191505061206a565b508091505092915050565b60006120d28473ffffffffffffffffffffffffffffffffffffffff16612263565b1561222b578373ffffffffffffffffffffffffffffffffffffffff1663150b7a026120fb61146f565b8786866040518563ffffffff1660e01b815260040161211d9493929190613ba7565b6020604051808303816000875af192505050801561215957506040513d601f19601f820116820180604052508101906121569190613c08565b60015b6121db573d8060008114612189576040519150601f19603f3d011682016040523d82523d6000602084013e61218e565b606091505b5060008151036121d3576040517f08c379a00000000000000000000000000000000000000000000000000000000081526004016121ca90613906565b60405180910390fd5b805181602001fd5b63150b7a0260e01b7bffffffffffffffffffffffffffffffffffffffffffffffffffffffff1916817bffffffffffffffffffffffffffffffffffffffffffffffffffffffff191614915050612230565b600190505b949350505050565b60008183106122505761224b8284612286565b61225b565b61225a8383612286565b5b905092915050565b6000808273ffffffffffffffffffffffffffffffffffffffff163b119050919050565b600082600052816020526040600020905092915050565b6040518060800160405280606081526020016060815260200160008019168152602001600080191681525090565b6000604051905090565b600080fd5b600080fd5b60007fffffffff0000000000000000000000000000000000000000000000000000000082169050919050565b612314816122df565b811461231f57600080fd5b50565b6000813590506123318161230b565b92915050565b60006020828403121561234d5761234c6122d5565b5b600061235b84828501612322565b91505092915050565b60008115159050919050565b61237981612364565b82525050565b60006020820190506123946000830184612370565b92915050565b600081519050919050565b600082825260208201905092915050565b60005b838110156123d45780820151818401526020810190506123b9565b60008484015250505050565b6000601f19601f8301169050919050565b60006123fc8261239a565b61240681856123a5565b93506124168185602086016123b6565b61241f816123e0565b840191505092915050565b6000602082019050818103600083015261244481846123f1565b905092915050565b6000819050919050565b61245f8161244c565b811461246a57600080fd5b50565b60008135905061247c81612456565b92915050565b600060208284031215612498576124976122d5565b5b60006124a68482850161246d565b91505092915050565b600073ffffffffffffffffffffffffffffffffffffffff82169050919050565b60006124da826124af565b9050919050565b6124ea816124cf565b82525050565b600060208201905061250560008301846124e1565b92915050565b612514816124cf565b811461251f57600080fd5b50565b6000813590506125318161250b565b92915050565b6000806040838503121561254e5761254d6122d5565b5b600061255c85828601612522565b925050602061256d8582860161246d565b9150509250929050565b60006020828403121561258d5761258c6122d5565b5b600061259b84828501612522565b91505092915050565b6125ad8161244c565b82525050565b60006020820190506125c860008301846125a4565b92915050565b6000806000606084860312156125e7576125e66122d5565b5b60006125f586828701612522565b935050602061260686828701612522565b92505060406126178682870161246d565b9150509250925092565b600060408201905061263660008301856125a4565b61264360208301846125a4565b9392505050565b600082825260208201905092915050565b60006126668261239a565b612670818561264a565b93506126808185602086016123b6565b612689816123e0565b840191505092915050565b6000819050919050565b6126a781612694565b82525050565b600060808301600083015184820360008601526126ca828261265b565b915050602083015184820360208601526126e4828261265b565b91505060408301516126f9604086018261269e565b50606083015161270c606086018261269e565b508091505092915050565b6000602082019050818103600083015261273181846126ad565b905092915050565b600080fd5b600080fd5b600080fd5b60008083601f84011261275e5761275d612739565b5b8235905067ffffffffffffffff81111561277b5761277a61273e565b5b60208301915083602082028301111561279757612796612743565b5b9250929050565b6000806000604084860312156127b7576127b66122d5565b5b60006127c58682870161246d565b935050602084013567ffffffffffffffff8111156127e6576127e56122da565b5b6127f286828701612748565b92509250509250925092565b61280781612364565b811461281257600080fd5b50565b600081359050612824816127fe565b92915050565b60008060408385031215612841576128406122d5565b5b600061284f85828601612522565b925050602061286085828601612815565b9150509250929050565b600080fd5b7f4e487b7100000000000000000000000000000000000000000000000000000000600052604160045260246000fd5b6128a7826123e0565b810181811067ffffffffffffffff821117156128c6576128c561286f565b5b80604052505050565b60006128d96122cb565b90506128e5828261289e565b919050565b600067ffffffffffffffff8211156129055761290461286f565b5b61290e826123e0565b9050602081019050919050565b82818337600083830152505050565b600061293d612938846128ea565b6128cf565b9050828152602081018484840111156129595761295861286a565b5b61296484828561291b565b509392505050565b600082601f83011261298157612980612739565b5b813561299184826020860161292a565b91505092915050565b600080600080608085870312156129b4576129b36122d5565b5b60006129c287828801612522565b94505060206129d387828801612522565b93505060406129e48782880161246d565b925050606085013567ffffffffffffffff811115612a0557612a046122da565b5b612a118782880161296c565b91505092959194509250565b600067ffffffffffffffff821115612a3857612a3761286f565b5b612a41826123e0565b9050602081019050919050565b6000612a61612a5c84612a1d565b6128cf565b905082815260208101848484011115612a7d57612a7c61286a565b5b612a8884828561291b565b509392505050565b600082601f830112612aa557612aa4612739565b5b8135612ab5848260208601612a4e565b91505092915050565b612ac781612694565b8114612ad257600080fd5b50565b600081359050612ae481612abe565b92915050565b60008060008060808587031215612b0457612b036122d5565b5b600085013567ffffffffffffffff811115612b2257612b216122da565b5b612b2e87828801612a90565b945050602085013567ffffffffffffffff811115612b4f57612b4e6122da565b5b612b5b87828801612a90565b9350506040612b6c87828801612ad5565b9250506060612b7d87828801612ad5565b91505092959194509250565b6000819050919050565b6000612bae612ba9612ba4846124af565b612b89565b6124af565b9050919050565b6000612bc082612b93565b9050919050565b6000612bd282612bb5565b9050919050565b612be281612bc7565b82525050565b6000602082019050612bfd6000830184612bd9565b92915050565b60008060408385031215612c1a57612c196122d5565b5b6000612c2885828601612522565b9250506020612c3985828601612522565b9150509250929050565b7f4e487b7100000000000000000000000000000000000000000000000000000000600052602260045260246000fd5b60006002820490506001821680612c8a57607f821691505b602082108103612c9d57612c9c612c43565b5b50919050565b7f4552433732313a20617070726f76616c20746f2063757272656e74206f776e6560008201527f7200000000000000000000000000000000000000000000000000000000000000602082015250565b6000612cff6021836123a5565b9150612d0a82612ca3565b604082019050919050565b60006020820190508181036000830152612d2e81612cf2565b9050919050565b7f4552433732313a20617070726f76652063616c6c6572206973206e6f7420746f60008201527f6b656e206f776e6572206f7220617070726f76656420666f7220616c6c000000602082015250565b6000612d91603d836123a5565b9150612d9c82612d35565b604082019050919050565b60006020820190508181036000830152612dc081612d84565b9050919050565b7f4552433732313a2063616c6c6572206973206e6f7420746f6b656e206f776e6560008201527f72206f7220617070726f76656400000000000000000000000000000000000000602082015250565b6000612e23602d836123a5565b9150612e2e82612dc7565b604082019050919050565b60006020820190508181036000830152612e5281612e16565b9050919050565b7f4e487b7100000000000000000000000000000000000000000000000000000000600052601160045260246000fd5b6000612e938261244c565b9150612e9e8361244c565b9250828202612eac8161244c565b91508282048414831517612ec357612ec2612e59565b5b5092915050565b7f4e487b7100000000000000000000000000000000000000000000000000000000600052601260045260246000fd5b6000612f048261244c565b9150612f0f8361244c565b925082612f1f57612f1e612eca565b5b828204905092915050565b6000612f358261244c565b9150612f408361244c565b9250828201905080821115612f5857612f57612e59565b5b92915050565b7f4552433732313a20696e76616c696420746f6b656e2049440000000000000000600082015250565b6000612f946018836123a5565b9150612f9f82612f5e565b602082019050919050565b60006020820190508181036000830152612fc381612f87565b9050919050565b7f4552433732313a2061646472657373207a65726f206973206e6f74206120766160008201527f6c6964206f776e65720000000000000000000000000000000000000000000000602082015250565b60006130266029836123a5565b915061303182612fca565b604082019050919050565b6000602082019050818103600083015261305581613019565b9050919050565b7f4552433732313a20616420646f6573206e6f7420657869737400000000000000600082015250565b60006130926019836123a5565b915061309d8261305c565b602082019050919050565b600060208201905081810360008301526130c181613085565b9050919050565b60008160601b9050919050565b60006130e0826130c8565b9050919050565b60006130f2826130d5565b9050919050565b61310a613105826124cf565b6130e7565b82525050565b600061311c82846130f9565b60148201915081905092915050565b7f4552433732314d657461646174613a2055524920717565727920666f72206e6f60008201527f6e6578697374656e7420746f6b656e0000000000000000000000000000000000602082015250565b6000613187602f836123a5565b91506131928261312b565b604082019050919050565b600060208201905081810360008301526131b68161317a565b9050919050565b60008190508160005260206000209050919050565b60006020601f8301049050919050565b600082821b905092915050565b60006008830261321f7fffffffffffffffffffffffffffffffffffffffffffffffffffffffffffffffff826131e2565b61322986836131e2565b95508019841693508086168417925050509392505050565b600061325c6132576132528461244c565b612b89565b61244c565b9050919050565b6000819050919050565b61327683613241565b61328a61328282613263565b8484546131ef565b825550505050565b600090565b61329f613292565b6132aa81848461326d565b505050565b5b818110156132ce576132c3600082613297565b6001810190506132b0565b5050565b601f821115613313576132e4816131bd565b6132ed846131d2565b810160208510156132fc578190505b613310613308856131d2565b8301826132af565b50505b505050565b600082821c905092915050565b600061333660001984600802613318565b1980831691505092915050565b600061334f8383613325565b9150826002028217905092915050565b6133688261239a565b67ffffffffffffffff8111156133815761338061286f565b5b61338b8254612c72565b6133968282856132d2565b600060209050601f8311600181146133c957600084156133b7578287015190505b6133c18582613343565b865550613429565b601f1984166133d7866131bd565b60005b828110156133ff578489015182556001820191506020850194506020810190506133da565b8683101561341c5784890151613418601f891682613325565b8355505b6001600288020188555050505b505050505050565b60008154905061344081612c72565b9050919050565b81810361345557505061352d565b61345e82613431565b67ffffffffffffffff8111156134775761347661286f565b5b6134818254612c72565b61348c8282856132d2565b6000601f8311600181146134bb57600084156134a9578287015490505b6134b38582613343565b865550613526565b601f1984166134c9876131bd565b96506134d4866131bd565b60005b828110156134fc578489015482556001820191506001850194506020810190506134d7565b868310156135195784890154613515601f891682613325565b8355505b6001600288020188555050505b5050505050505b565b7f4f776e61626c653a206e6577206f776e657220697320746865207a65726f206160008201527f6464726573730000000000000000000000000000000000000000000000000000602082015250565b600061358b6026836123a5565b91506135968261352f565b604082019050919050565b600060208201905081810360008301526135ba8161357e565b9050919050565b7f616c7265616479207369676e6564206164000000000000000000000000000000600082015250565b60006135f76011836123a5565b9150613602826135c1565b602082019050919050565b60006020820190508181036000830152613626816135ea565b9050919050565b600060408201905061364260008301856124e1565b61364f60208301846125a4565b9392505050565b600081519050613665816127fe565b92915050565b600060208284031215613681576136806122d5565b5b600061368f84828501613656565b91505092915050565b7f4552433732313a207472616e736665722066726f6d20696e636f72726563742060008201527f6f776e6572000000000000000000000000000000000000000000000000000000602082015250565b60006136f46025836123a5565b91506136ff82613698565b604082019050919050565b60006020820190508181036000830152613723816136e7565b9050919050565b7f4552433732313a207472616e7366657220746f20746865207a65726f2061646460008201527f7265737300000000000000000000000000000000000000000000000000000000602082015250565b60006137866024836123a5565b91506137918261372a565b604082019050919050565b600060208201905081810360008301526137b581613779565b9050919050565b7f4f776e61626c653a2063616c6c6572206973206e6f7420746865206f776e6572600082015250565b60006137f26020836123a5565b91506137fd826137bc565b602082019050919050565b60006020820190508181036000830152613821816137e5565b9050919050565b7f4552433732313a20617070726f766520746f2063616c6c657200000000000000600082015250565b600061385e6019836123a5565b915061386982613828565b602082019050919050565b6000602082019050818103600083015261388d81613851565b9050919050565b7f4552433732313a207472616e7366657220746f206e6f6e20455243373231526560008201527f63656976657220696d706c656d656e7465720000000000000000000000000000602082015250565b60006138f06032836123a5565b91506138fb82613894565b604082019050919050565b6000602082019050818103600083015261391f816138e3565b9050919050565b7f4552433732313a206d696e7420746f20746865207a65726f2061646472657373600082015250565b600061395c6020836123a5565b915061396782613926565b602082019050919050565b6000602082019050818103600083015261398b8161394f565b9050919050565b7f4552433732313a20746f6b656e20616c7265616479206d696e74656400000000600082015250565b60006139c8601c836123a5565b91506139d382613992565b602082019050919050565b600060208201905081810360008301526139f7816139bb565b9050919050565b7f53656e64657220616c7265616479207369676e65640000000000000000000000600082015250565b6000613a346015836123a5565b9150613a3f826139fe565b602082019050919050565b60006020820190508181036000830152613a6381613a27565b9050919050565b7f53656e646572206e6f7420696e207461726765742061756469656e6365000000600082015250565b6000613aa0601d836123a5565b9150613aab82613a6a565b602082019050919050565b60006020820190508181036000830152613acf81613a93565b9050919050565b6000819050919050565b613af1613aec82612694565b613ad6565b82525050565b6000613b038285613ae0565b602082019150613b1382846130f9565b6014820191508190509392505050565b7f4e487b7100000000000000000000000000000000000000000000000000000000600052603260045260246000fd5b600081519050919050565b600082825260208201905092915050565b6000613b7982613b52565b613b838185613b5d565b9350613b938185602086016123b6565b613b9c816123e0565b840191505092915050565b6000608082019050613bbc60008301876124e1565b613bc960208301866124e1565b613bd660408301856125a4565b8181036060830152613be88184613b6e565b905095945050505050565b600081519050613c028161230b565b92915050565b600060208284031215613c1e57613c1d6122d5565b5b6000613c2c84828501613bf3565b9150509291505056fea2646970667358221220a368a66c21296386a6d67542757e00de7ff6113730518bc227a276df6474cd9464736f6c63430008180033",
  "linkReferences": {},
  "deployedLinkReferences": {}
}