{
  "_format": "hh-sol-artifact-1",
  "contractName": "MehNetworkV1",
  "sourceName": "contracts/MehNetworkV1.sol",
  "abi": [
    {
      "inputs": [
        {
          "internalType": "string",
          "name": "name",
          "type": "string"
        },
        {
          "internalType": "string",
          "name": "symbol",
          "type": "string"
        }
      ],
      "stateMutability": "nonpayable",
      "type": "constructor"
    },
    {
      "anonymous": false,
      "inputs": [
        {
          "indexed": true,
          "internalType": "address",
          "name": "owner",
          "type": "address"
        },
        {
          "indexed": true,
          "internalType": "address",
          "name": "approved",
          "type": "address"
        },
        {
          "indexed": true,
          "internalType": "uint256",
          "name": "tokenId",
          "type": "uint256"
        }
      ],
      "name": "Approval",
      "type": "event"
    },
    {
      "anonymous": false,
      "inputs": [
        {
          "indexed": true,
          "internalType": "address",
          "name": "owner",
          "type": "address"
        },
        {
          "indexed": true,
          "internalType": "address",
          "name": "operator",
          "type": "address"
        },
        {
          "indexed": false,
          "internalType": "bool",
          "name": "approved",
          "type": "bool"
        }
      ],
      "name": "ApprovalForAll",
      "type": "event"
    },
    {
      "anonymous": false,
      "inputs": [
        {
          "indexed": true,
          "internalType": "address",
          "name": "previousOwner",
          "type": "address"
        },
        {
          "indexed": true,
          "internalType": "address",
          "name": "newOwner",
          "type": "address"
        }
      ],
      "name": "OwnershipTransferred",
      "type": "event"
    },
    {
      "anonymous": false,
      "inputs": [
        {
          "indexed": true,
          "internalType": "address",
          "name": "from",
          "type": "address"
        },
        {
          "indexed": true,
          "internalType": "address",
          "name": "to",
          "type": "address"
        },
        {
          "indexed": true,
          "internalType": "uint256",
          "name": "tokenId",
          "type": "uint256"
        }
      ],
      "name": "Transfer",
      "type": "event"
    },
    {
      "inputs": [
        {
          "internalType": "address",
          "name": "to",
          "type": "address"
        },
        {
          "internalType": "uint256",
          "name": "tokenId",
          "type": "uint256"
        }
      ],
      "name": "approve",
      "outputs": [],
      "stateMutability": "nonpayable",
      "type": "function"
    },
    {
      "inputs": [
        {
          "internalType": "address",
          "name": "owner",
          "type": "address"
        }
      ],
      "name": "balanceOf",
      "outputs": [
        {
          "internalType": "uint256",
          "name": "",
          "type": "uint256"
        }
      ],
      "stateMutability": "view",
      "type": "function"
    },
    {
      "inputs": [
        {
          "internalType": "uint256",
          "name": "id",
          "type": "uint256"
        }
      ],
      "name": "displayAd",
      "outputs": [
        {
          "components": [
            {
              "internalType": "string",
              "name": "adURI",
              "type": "string"
            },
            {
              "internalType": "string",
              "name": "dataURI",
              "type": "string"
            },
            {
              "internalType": "bytes32",
              "name": "signatureRoot",
              "type": "bytes32"
            },
            {
              "internalType": "bytes32",
              "name": "audienceRoot",
              "type": "bytes32"
            },
            {
              "internalType": "bool",
              "name": "isActive",
              "type": "bool"
            }
          ],
          "internalType": "struct IERCAd.Ad",
          "name": "",
          "type": "tuple"
        }
      ],
      "stateMutability": "view",
      "type": "function"
    },
    {
      "inputs": [
        {
          "internalType": "uint256",
          "name": "tokenId",
          "type": "uint256"
        }
      ],
      "name": "getApproved",
      "outputs": [
        {
          "internalType": "address",
          "name": "",
          "type": "address"
        }
      ],
      "stateMutability": "view",
      "type": "function"
    },
    {
      "inputs": [
        {
          "internalType": "address",
          "name": "owner",
          "type": "address"
        },
        {
          "internalType": "address",
          "name": "operator",
          "type": "address"
        }
      ],
      "name": "isApprovedForAll",
      "outputs": [
        {
          "internalType": "bool",
          "name": "",
          "type": "bool"
        }
      ],
      "stateMutability": "view",
      "type": "function"
    },
    {
      "inputs": [],
      "name": "name",
      "outputs": [
        {
          "internalType": "string",
          "name": "",
          "type": "string"
        }
      ],
      "stateMutability": "view",
      "type": "function"
    },
    {
      "inputs": [],
      "name": "owner",
      "outputs": [
        {
          "internalType": "address",
          "name": "",
          "type": "address"
        }
      ],
      "stateMutability": "view",
      "type": "function"
    },
    {
      "inputs": [
        {
          "internalType": "uint256",
          "name": "tokenId",
          "type": "uint256"
        }
      ],
      "name": "ownerOf",
      "outputs": [
        {
          "internalType": "address",
          "name": "",
          "type": "address"
        }
      ],
      "stateMutability": "view",
      "type": "function"
    },
    {
      "inputs": [],
      "name": "renounceOwnership",
      "outputs": [],
      "stateMutability": "nonpayable",
      "type": "function"
    },
    {
      "inputs": [
        {
          "internalType": "address",
          "name": "from",
          "type": "address"
        },
        {
          "internalType": "address",
          "name": "to",
          "type": "address"
        },
        {
          "internalType": "uint256",
          "name": "tokenId",
          "type": "uint256"
        }
      ],
      "name": "safeTransferFrom",
      "outputs": [],
      "stateMutability": "nonpayable",
      "type": "function"
    },
    {
      "inputs": [
        {
          "internalType": "address",
          "name": "from",
          "type": "address"
        },
        {
          "internalType": "address",
          "name": "to",
          "type": "address"
        },
        {
          "internalType": "uint256",
          "name": "tokenId",
          "type": "uint256"
        },
        {
          "internalType": "bytes",
          "name": "data",
          "type": "bytes"
        }
      ],
      "name": "safeTransferFrom",
      "outputs": [],
      "stateMutability": "nonpayable",
      "type": "function"
    },
    {
      "inputs": [
        {
          "internalType": "string",
          "name": "adURI",
          "type": "string"
        },
        {
          "internalType": "string",
          "name": "dataURI",
          "type": "string"
        },
        {
          "internalType": "bytes32",
          "name": "signatureRoot",
          "type": "bytes32"
        },
        {
          "internalType": "bytes32",
          "name": "audienceRoot",
          "type": "bytes32"
        }
      ],
      "name": "setAd",
      "outputs": [],
      "stateMutability": "nonpayable",
      "type": "function"
    },
    {
      "inputs": [
        {
          "internalType": "address",
          "name": "operator",
          "type": "address"
        },
        {
          "internalType": "bool",
          "name": "approved",
          "type": "bool"
        }
      ],
      "name": "setApprovalForAll",
      "outputs": [],
      "stateMutability": "nonpayable",
      "type": "function"
    },
    {
      "inputs": [
        {
          "internalType": "uint256",
          "name": "id",
          "type": "uint256"
        },
        {
          "internalType": "bytes32[]",
          "name": "proof",
          "type": "bytes32[]"
        }
      ],
      "name": "signAd",
      "outputs": [],
      "stateMutability": "nonpayable",
      "type": "function"
    },
    {
      "inputs": [
        {
          "internalType": "bytes4",
          "name": "interfaceId",
          "type": "bytes4"
        }
      ],
      "name": "supportsInterface",
      "outputs": [
        {
          "internalType": "bool",
          "name": "",
          "type": "bool"
        }
      ],
      "stateMutability": "view",
      "type": "function"
    },
    {
      "inputs": [],
      "name": "symbol",
      "outputs": [
        {
          "internalType": "string",
          "name": "",
          "type": "string"
        }
      ],
      "stateMutability": "view",
      "type": "function"
    },
    {
      "inputs": [
        {
          "internalType": "uint256",
          "name": "tokenId",
          "type": "uint256"
        }
      ],
      "name": "tokenURI",
      "outputs": [
        {
          "internalType": "string",
          "name": "",
          "type": "string"
        }
      ],
      "stateMutability": "view",
      "type": "function"
    },
    {
      "inputs": [
        {
          "internalType": "address",
          "name": "from",
          "type": "address"
        },
        {
          "internalType": "address",
          "name": "to",
          "type": "address"
        },
        {
          "internalType": "uint256",
          "name": "tokenId",
          "type": "uint256"
        }
      ],
      "name": "transferFrom",
      "outputs": [],
      "stateMutability": "nonpayable",
      "type": "function"
    },
    {
      "inputs": [
        {
          "internalType": "address",
          "name": "newOwner",
          "type": "address"
        }
      ],
      "name": "transferOwnership",
      "outputs": [],
      "stateMutability": "nonpayable",
      "type": "function"
    }
  ],
  "bytecode": "0x60806040523480156200001157600080fd5b5060405162003c7638038062003c768339818101604052810190620000379190620002ec565b8181818181600090816200004c9190620005bc565b5080600190816200005e9190620005bc565b50505062000081620000756200008b60201b60201c565b6200009360201b60201c565b50505050620006a3565b600033905090565b6000600660009054906101000a900473ffffffffffffffffffffffffffffffffffffffff16905081600660006101000a81548173ffffffffffffffffffffffffffffffffffffffff021916908373ffffffffffffffffffffffffffffffffffffffff1602179055508173ffffffffffffffffffffffffffffffffffffffff168173ffffffffffffffffffffffffffffffffffffffff167f8be0079c531659141344cd1fd0a4f28419497f9722a3daafe3b4186f6b6457e060405160405180910390a35050565b6000604051905090565b600080fd5b600080fd5b600080fd5b600080fd5b6000601f19601f8301169050919050565b7f4e487b7100000000000000000000000000000000000000000000000000000000600052604160045260246000fd5b620001c28262000177565b810181811067ffffffffffffffff82111715620001e457620001e362000188565b5b80604052505050565b6000620001f962000159565b9050620002078282620001b7565b919050565b600067ffffffffffffffff8211156200022a576200022962000188565b5b620002358262000177565b9050602081019050919050565b60005b838110156200026257808201518184015260208101905062000245565b60008484015250505050565b6000620002856200027f846200020c565b620001ed565b905082815260208101848484011115620002a457620002a362000172565b5b620002b184828562000242565b509392505050565b600082601f830112620002d157620002d06200016d565b5b8151620002e38482602086016200026e565b91505092915050565b6000806040838503121562000306576200030562000163565b5b600083015167ffffffffffffffff81111562000327576200032662000168565b5b6200033585828601620002b9565b925050602083015167ffffffffffffffff81111562000359576200035862000168565b5b6200036785828601620002b9565b9150509250929050565b600081519050919050565b7f4e487b7100000000000000000000000000000000000000000000000000000000600052602260045260246000fd5b60006002820490506001821680620003c457607f821691505b602082108103620003da57620003d96200037c565b5b50919050565b60008190508160005260206000209050919050565b60006020601f8301049050919050565b600082821b905092915050565b600060088302620004447fffffffffffffffffffffffffffffffffffffffffffffffffffffffffffffffff8262000405565b62000450868362000405565b95508019841693508086168417925050509392505050565b6000819050919050565b6000819050919050565b60006200049d62000497620004918462000468565b62000472565b62000468565b9050919050565b6000819050919050565b620004b9836200047c565b620004d1620004c882620004a4565b84845462000412565b825550505050565b600090565b620004e8620004d9565b620004f5818484620004ae565b505050565b5b818110156200051d5762000511600082620004de565b600181019050620004fb565b5050565b601f8211156200056c576200053681620003e0565b6200054184620003f5565b8101602085101562000551578190505b620005696200056085620003f5565b830182620004fa565b50505b505050565b600082821c905092915050565b6000620005916000198460080262000571565b1980831691505092915050565b6000620005ac83836200057e565b9150826002028217905092915050565b620005c78262000371565b67ffffffffffffffff811115620005e357620005e262000188565b5b620005ef8254620003ab565b620005fc82828562000521565b600060209050601f8311600181146200063457600084156200061f578287015190505b6200062b85826200059e565b8655506200069b565b601f1984166200064486620003e0565b60005b828110156200066e5784890151825560018201915060208501945060208101905062000647565b868310156200068e57848901516200068a601f8916826200057e565b8355505b6001600288020188555050505b505050505050565b6135c380620006b36000396000f3fe608060405234801561001057600080fd5b50600436106101215760003560e01c8063715018a6116100ad578063c87b56dd11610071578063c87b56dd14610306578063d13e2af914610336578063e985e9c514610352578063f2fde38b14610382578063fe49e8331461039e57610121565b8063715018a6146102885780638da5cb5b1461029257806395d89b41146102b0578063a22cb465146102ce578063b88d4fde146102ea57610121565b806323b872dd116100f457806323b872dd146101c057806342842e0e146101dc5780636352211e146101f8578063672fb9691461022857806370a082311461025857610121565b806301ffc9a71461012657806306fdde0314610156578063081812fc14610174578063095ea7b3146101a4575b600080fd5b610140600480360381019061013b9190611e76565b6103ba565b60405161014d9190611ebe565b60405180910390f35b61015e61049c565b60405161016b9190611f69565b60405180910390f35b61018e60048036038101906101899190611fc1565b61052e565b60405161019b919061202f565b60405180910390f35b6101be60048036038101906101b99190612076565b610574565b005b6101da60048036038101906101d591906120b6565b61068b565b005b6101f660048036038101906101f191906120b6565b6106eb565b005b610212600480360381019061020d9190611fc1565b61070b565b60405161021f919061202f565b60405180910390f35b610242600480360381019061023d9190611fc1565b610791565b60405161024f91906121f8565b60405180910390f35b610272600480360381019061026d919061221a565b610911565b60405161027f9190612256565b60405180910390f35b6102906109c8565b005b61029a6109dc565b6040516102a7919061202f565b60405180910390f35b6102b8610a06565b6040516102c59190611f69565b60405180910390f35b6102e860048036038101906102e3919061229d565b610a98565b005b61030460048036038101906102ff9190612412565b610aae565b005b610320600480360381019061031b9190611fc1565b610b10565b60405161032d9190611f69565b60405180910390f35b610350600480360381019061034b9190612562565b610bef565b005b61036c60048036038101906103679190612601565b610d43565b6040516103799190611ebe565b60405180910390f35b61039c6004803603810190610397919061221a565b610dd7565b005b6103b860048036038101906103b391906126a1565b610e5a565b005b60007f80ac58cd000000000000000000000000000000000000000000000000000000007bffffffffffffffffffffffffffffffffffffffffffffffffffffffff1916827bffffffffffffffffffffffffffffffffffffffffffffffffffffffff1916148061048557507f5b5e139f000000000000000000000000000000000000000000000000000000007bffffffffffffffffffffffffffffffffffffffffffffffffffffffff1916827bffffffffffffffffffffffffffffffffffffffffffffffffffffffff1916145b80610495575061049482610e6a565b5b9050919050565b6060600080546104ab90612730565b80601f01602080910402602001604051908101604052809291908181526020018280546104d790612730565b80156105245780601f106104f957610100808354040283529160200191610524565b820191906000526020600020905b81548152906001019060200180831161050757829003601f168201915b5050505050905090565b600061053982610ed4565b6004600083815260200190815260200160002060009054906101000a900473ffffffffffffffffffffffffffffffffffffffff169050919050565b600061057f8261070b565b90508073ffffffffffffffffffffffffffffffffffffffff168373ffffffffffffffffffffffffffffffffffffffff16036105ef576040517f08c379a00000000000000000000000000000000000000000000000000000000081526004016105e6906127d3565b60405180910390fd5b8073ffffffffffffffffffffffffffffffffffffffff1661060e610f1f565b73ffffffffffffffffffffffffffffffffffffffff16148061063d575061063c81610637610f1f565b610d43565b5b61067c576040517f08c379a000000000000000000000000000000000000000000000000000000000815260040161067390612865565b60405180910390fd5b6106868383610f27565b505050565b61069c610696610f1f565b82610fe0565b6106db576040517f08c379a00000000000000000000000000000000000000000000000000000000081526004016106d2906128f7565b60405180910390fd5b6106e6838383611075565b505050565b61070683838360405180602001604052806000815250610aae565b505050565b6000806107178361136e565b9050600073ffffffffffffffffffffffffffffffffffffffff168173ffffffffffffffffffffffffffffffffffffffff1603610788576040517f08c379a000000000000000000000000000000000000000000000000000000000815260040161077f90612963565b60405180910390fd5b80915050919050565b610799611dd3565b600d60008381526020019081526020016000206040518060a00160405290816000820180546107c790612730565b80601f01602080910402602001604051908101604052809291908181526020018280546107f390612730565b80156108405780601f1061081557610100808354040283529160200191610840565b820191906000526020600020905b81548152906001019060200180831161082357829003601f168201915b5050505050815260200160018201805461085990612730565b80601f016020809104026020016040519081016040528092919081815260200182805461088590612730565b80156108d25780601f106108a7576101008083540402835291602001916108d2565b820191906000526020600020905b8154815290600101906020018083116108b557829003601f168201915b5050505050815260200160028201548152602001600382015481526020016004820160009054906101000a900460ff1615151515815250509050919050565b60008073ffffffffffffffffffffffffffffffffffffffff168273ffffffffffffffffffffffffffffffffffffffff1603610981576040517f08c379a0000000000000000000000000000000000000000000000000000000008152600401610978906129f5565b60405180910390fd5b600360008373ffffffffffffffffffffffffffffffffffffffff1673ffffffffffffffffffffffffffffffffffffffff168152602001908152602001600020549050919050565b6109d06113ab565b6109da6000611429565b565b6000600660009054906101000a900473ffffffffffffffffffffffffffffffffffffffff16905090565b606060018054610a1590612730565b80601f0160208091040260200160405190810160405280929190818152602001828054610a4190612730565b8015610a8e5780601f10610a6357610100808354040283529160200191610a8e565b820191906000526020600020905b815481529060010190602001808311610a7157829003601f168201915b5050505050905090565b610aaa610aa3610f1f565b83836114ef565b5050565b610abf610ab9610f1f565b83610fe0565b610afe576040517f08c379a0000000000000000000000000000000000000000000000000000000008152600401610af5906128f7565b60405180910390fd5b610b0a8484848461165b565b50505050565b6060610b1b826116b7565b610b5a576040517f08c379a0000000000000000000000000000000000000000000000000000000008152600401610b5190612a87565b60405180910390fd5b60086000018054610b6a90612730565b80601f0160208091040260200160405190810160405280929190818152602001828054610b9690612730565b8015610be35780601f10610bb857610100808354040283529160200191610be3565b820191906000526020600020905b815481529060010190602001808311610bc657829003601f168201915b50505050509050919050565b610bf76113ab565b610c0160076116f8565b6000610c0d600761170e565b90506040518060a0016040528086815260200185815260200184815260200183815260200160011515815250600d60008381526020019081526020016000206000820151816000019081610c619190612c53565b506020820151816001019081610c779190612c53565b50604082015181600201556060820151816003015560808201518160040160006101000a81548160ff021916908315150217905550905050610cb9338261171c565b600d6000828152602001908152602001600020600860008201816000019081610ce29190612d3b565b5060018201816001019081610cf79190612d3b565b5060028201548160020155600382015481600301556004820160009054906101000a900460ff168160040160006101000a81548160ff0219169083151502179055509050505050505050565b6000600560008473ffffffffffffffffffffffffffffffffffffffff1673ffffffffffffffffffffffffffffffffffffffff16815260200190815260200160002060008373ffffffffffffffffffffffffffffffffffffffff1673ffffffffffffffffffffffffffffffffffffffff16815260200190815260200160002060009054906101000a900460ff16905092915050565b610ddf6113ab565b600073ffffffffffffffffffffffffffffffffffffffff168173ffffffffffffffffffffffffffffffffffffffff1603610e4e576040517f08c379a0000000000000000000000000000000000000000000000000000000008152600401610e4590612e95565b60405180910390fd5b610e5781611429565b50565b610e65838383611939565b505050565b60007f01ffc9a7000000000000000000000000000000000000000000000000000000007bffffffffffffffffffffffffffffffffffffffffffffffffffffffff1916827bffffffffffffffffffffffffffffffffffffffffffffffffffffffff1916149050919050565b610edd816116b7565b610f1c576040517f08c379a0000000000000000000000000000000000000000000000000000000008152600401610f1390612963565b60405180910390fd5b50565b600033905090565b816004600083815260200190815260200160002060006101000a81548173ffffffffffffffffffffffffffffffffffffffff021916908373ffffffffffffffffffffffffffffffffffffffff160217905550808273ffffffffffffffffffffffffffffffffffffffff16610f9a8361070b565b73ffffffffffffffffffffffffffffffffffffffff167f8c5be1e5ebec7d5bd14f71427d1e84f3dd0314c0f7b2291e5b200ac8c7c3b92560405160405180910390a45050565b600080610fec8361070b565b90508073ffffffffffffffffffffffffffffffffffffffff168473ffffffffffffffffffffffffffffffffffffffff16148061102e575061102d8185610d43565b5b8061106c57508373ffffffffffffffffffffffffffffffffffffffff166110548461052e565b73ffffffffffffffffffffffffffffffffffffffff16145b91505092915050565b8273ffffffffffffffffffffffffffffffffffffffff166110958261070b565b73ffffffffffffffffffffffffffffffffffffffff16146110eb576040517f08c379a00000000000000000000000000000000000000000000000000000000081526004016110e290612f27565b60405180910390fd5b600073ffffffffffffffffffffffffffffffffffffffff168273ffffffffffffffffffffffffffffffffffffffff160361115a576040517f08c379a000000000000000000000000000000000000000000000000000000000815260040161115190612fb9565b60405180910390fd5b6111678383836001611b74565b8273ffffffffffffffffffffffffffffffffffffffff166111878261070b565b73ffffffffffffffffffffffffffffffffffffffff16146111dd576040517f08c379a00000000000000000000000000000000000000000000000000000000081526004016111d490612f27565b60405180910390fd5b6004600082815260200190815260200160002060006101000a81549073ffffffffffffffffffffffffffffffffffffffff02191690556001600360008573ffffffffffffffffffffffffffffffffffffffff1673ffffffffffffffffffffffffffffffffffffffff168152602001908152602001600020600082825403925050819055506001600360008473ffffffffffffffffffffffffffffffffffffffff1673ffffffffffffffffffffffffffffffffffffffff16815260200190815260200160002060008282540192505081905550816002600083815260200190815260200160002060006101000a81548173ffffffffffffffffffffffffffffffffffffffff021916908373ffffffffffffffffffffffffffffffffffffffff160217905550808273ffffffffffffffffffffffffffffffffffffffff168473ffffffffffffffffffffffffffffffffffffffff167fddf252ad1be2c89b69c2b068fc378daa952ba7f163c4a11628f55a4df523b3ef60405160405180910390a46113698383836001611b7a565b505050565b60006002600083815260200190815260200160002060009054906101000a900473ffffffffffffffffffffffffffffffffffffffff169050919050565b6113b3610f1f565b73ffffffffffffffffffffffffffffffffffffffff166113d16109dc565b73ffffffffffffffffffffffffffffffffffffffff1614611427576040517f08c379a000000000000000000000000000000000000000000000000000000000815260040161141e90613025565b60405180910390fd5b565b6000600660009054906101000a900473ffffffffffffffffffffffffffffffffffffffff16905081600660006101000a81548173ffffffffffffffffffffffffffffffffffffffff021916908373ffffffffffffffffffffffffffffffffffffffff1602179055508173ffffffffffffffffffffffffffffffffffffffff168173ffffffffffffffffffffffffffffffffffffffff167f8be0079c531659141344cd1fd0a4f28419497f9722a3daafe3b4186f6b6457e060405160405180910390a35050565b8173ffffffffffffffffffffffffffffffffffffffff168373ffffffffffffffffffffffffffffffffffffffff160361155d576040517f08c379a000000000000000000000000000000000000000000000000000000000815260040161155490613091565b60405180910390fd5b80600560008573ffffffffffffffffffffffffffffffffffffffff1673ffffffffffffffffffffffffffffffffffffffff16815260200190815260200160002060008473ffffffffffffffffffffffffffffffffffffffff1673ffffffffffffffffffffffffffffffffffffffff16815260200190815260200160002060006101000a81548160ff0219169083151502179055508173ffffffffffffffffffffffffffffffffffffffff168373ffffffffffffffffffffffffffffffffffffffff167f17307eab39ab6107e8899845ad3d59bd9653f200f220920489ca2b5937696c318360405161164e9190611ebe565b60405180910390a3505050565b611666848484611075565b61167284848484611b80565b6116b1576040517f08c379a00000000000000000000000000000000000000000000000000000000081526004016116a890613123565b60405180910390fd5b50505050565b60008073ffffffffffffffffffffffffffffffffffffffff166116d98361136e565b73ffffffffffffffffffffffffffffffffffffffff1614159050919050565b6001816000016000828254019250508190555050565b600081600001549050919050565b600073ffffffffffffffffffffffffffffffffffffffff168273ffffffffffffffffffffffffffffffffffffffff160361178b576040517f08c379a00000000000000000000000000000000000000000000000000000000081526004016117829061318f565b60405180910390fd5b611794816116b7565b156117d4576040517f08c379a00000000000000000000000000000000000000000000000000000000081526004016117cb906131fb565b60405180910390fd5b6117e2600083836001611b74565b6117eb816116b7565b1561182b576040517f08c379a0000000000000000000000000000000000000000000000000000000008152600401611822906131fb565b60405180910390fd5b6001600360008473ffffffffffffffffffffffffffffffffffffffff1673ffffffffffffffffffffffffffffffffffffffff16815260200190815260200160002060008282540192505081905550816002600083815260200190815260200160002060006101000a81548173ffffffffffffffffffffffffffffffffffffffff021916908373ffffffffffffffffffffffffffffffffffffffff160217905550808273ffffffffffffffffffffffffffffffffffffffff16600073ffffffffffffffffffffffffffffffffffffffff167fddf252ad1be2c89b69c2b068fc378daa952ba7f163c4a11628f55a4df523b3ef60405160405180910390a4611935600083836001611b7a565b5050565b611942836116b7565b611981576040517f08c379a000000000000000000000000000000000000000000000000000000000815260040161197890613267565b60405180910390fd5b6000600d600085815260200190815260200160002090508060040160009054906101000a900460ff166119e9576040517f08c379a00000000000000000000000000000000000000000000000000000000081526004016119e0906132d3565b60405180910390fd5b6000336040516020016119fc919061333b565b604051602081830303815290604052805190602001209050611a64848480806020026020016040519081016040528093929190818152602001838360200280828437600081840152601f19601f82011690508083019250505050505050836003015483611d07565b611aa3576040517f08c379a0000000000000000000000000000000000000000000000000000000008152600401611a9a906133a2565b60405180910390fd5b611af3848480806020026020016040519081016040528093929190818152602001838360200280828437600081840152601f19601f82011690508083019250505050505050836002015483611d07565b611b32576040517f08c379a0000000000000000000000000000000000000000000000000000000008152600401611b299061340e565b60405180910390fd5b6000826002015433604051602001611b4b92919061344f565b604051602081830303815290604052905080805190602001208360020181905550505050505050565b50505050565b50505050565b6000611ba18473ffffffffffffffffffffffffffffffffffffffff16611d1e565b15611cfa578373ffffffffffffffffffffffffffffffffffffffff1663150b7a02611bca610f1f565b8786866040518563ffffffff1660e01b8152600401611bec94939291906134d0565b6020604051808303816000875af1925050508015611c2857506040513d601f19601f82011682018060405250810190611c259190613531565b60015b611caa573d8060008114611c58576040519150601f19603f3d011682016040523d82523d6000602084013e611c5d565b606091505b506000815103611ca2576040517f08c379a0000000000000000000000000000000000000000000000000000000008152600401611c9990613123565b60405180910390fd5b805181602001fd5b63150b7a0260e01b7bffffffffffffffffffffffffffffffffffffffffffffffffffffffff1916817bffffffffffffffffffffffffffffffffffffffffffffffffffffffff191614915050611cff565b600190505b949350505050565b600082611d148584611d41565b1490509392505050565b6000808273ffffffffffffffffffffffffffffffffffffffff163b119050919050565b60008082905060005b8451811015611d8657611d7782868381518110611d6a57611d6961355e565b5b6020026020010151611d91565b91508080600101915050611d4a565b508091505092915050565b6000818310611da957611da48284611dbc565b611db4565b611db38383611dbc565b5b905092915050565b600082600052816020526040600020905092915050565b6040518060a00160405280606081526020016060815260200160008019168152602001600080191681526020016000151581525090565b6000604051905090565b600080fd5b600080fd5b60007fffffffff0000000000000000000000000000000000000000000000000000000082169050919050565b611e5381611e1e565b8114611e5e57600080fd5b50565b600081359050611e7081611e4a565b92915050565b600060208284031215611e8c57611e8b611e14565b5b6000611e9a84828501611e61565b91505092915050565b60008115159050919050565b611eb881611ea3565b82525050565b6000602082019050611ed36000830184611eaf565b92915050565b600081519050919050565b600082825260208201905092915050565b60005b83811015611f13578082015181840152602081019050611ef8565b60008484015250505050565b6000601f19601f8301169050919050565b6000611f3b82611ed9565b611f458185611ee4565b9350611f55818560208601611ef5565b611f5e81611f1f565b840191505092915050565b60006020820190508181036000830152611f838184611f30565b905092915050565b6000819050919050565b611f9e81611f8b565b8114611fa957600080fd5b50565b600081359050611fbb81611f95565b92915050565b600060208284031215611fd757611fd6611e14565b5b6000611fe584828501611fac565b91505092915050565b600073ffffffffffffffffffffffffffffffffffffffff82169050919050565b600061201982611fee565b9050919050565b6120298161200e565b82525050565b60006020820190506120446000830184612020565b92915050565b6120538161200e565b811461205e57600080fd5b50565b6000813590506120708161204a565b92915050565b6000806040838503121561208d5761208c611e14565b5b600061209b85828601612061565b92505060206120ac85828601611fac565b9150509250929050565b6000806000606084860312156120cf576120ce611e14565b5b60006120dd86828701612061565b93505060206120ee86828701612061565b92505060406120ff86828701611fac565b9150509250925092565b600082825260208201905092915050565b600061212582611ed9565b61212f8185612109565b935061213f818560208601611ef5565b61214881611f1f565b840191505092915050565b6000819050919050565b61216681612153565b82525050565b61217581611ea3565b82525050565b600060a0830160008301518482036000860152612198828261211a565b915050602083015184820360208601526121b2828261211a565b91505060408301516121c7604086018261215d565b5060608301516121da606086018261215d565b5060808301516121ed608086018261216c565b508091505092915050565b60006020820190508181036000830152612212818461217b565b905092915050565b6000602082840312156122305761222f611e14565b5b600061223e84828501612061565b91505092915050565b61225081611f8b565b82525050565b600060208201905061226b6000830184612247565b92915050565b61227a81611ea3565b811461228557600080fd5b50565b60008135905061229781612271565b92915050565b600080604083850312156122b4576122b3611e14565b5b60006122c285828601612061565b92505060206122d385828601612288565b9150509250929050565b600080fd5b600080fd5b7f4e487b7100000000000000000000000000000000000000000000000000000000600052604160045260246000fd5b61231f82611f1f565b810181811067ffffffffffffffff8211171561233e5761233d6122e7565b5b80604052505050565b6000612351611e0a565b905061235d8282612316565b919050565b600067ffffffffffffffff82111561237d5761237c6122e7565b5b61238682611f1f565b9050602081019050919050565b82818337600083830152505050565b60006123b56123b084612362565b612347565b9050828152602081018484840111156123d1576123d06122e2565b5b6123dc848285612393565b509392505050565b600082601f8301126123f9576123f86122dd565b5b81356124098482602086016123a2565b91505092915050565b6000806000806080858703121561242c5761242b611e14565b5b600061243a87828801612061565b945050602061244b87828801612061565b935050604061245c87828801611fac565b925050606085013567ffffffffffffffff81111561247d5761247c611e19565b5b612489878288016123e4565b91505092959194509250565b600067ffffffffffffffff8211156124b0576124af6122e7565b5b6124b982611f1f565b9050602081019050919050565b60006124d96124d484612495565b612347565b9050828152602081018484840111156124f5576124f46122e2565b5b612500848285612393565b509392505050565b600082601f83011261251d5761251c6122dd565b5b813561252d8482602086016124c6565b91505092915050565b61253f81612153565b811461254a57600080fd5b50565b60008135905061255c81612536565b92915050565b6000806000806080858703121561257c5761257b611e14565b5b600085013567ffffffffffffffff81111561259a57612599611e19565b5b6125a687828801612508565b945050602085013567ffffffffffffffff8111156125c7576125c6611e19565b5b6125d387828801612508565b93505060406125e48782880161254d565b92505060606125f58782880161254d565b91505092959194509250565b6000806040838503121561261857612617611e14565b5b600061262685828601612061565b925050602061263785828601612061565b9150509250929050565b600080fd5b600080fd5b60008083601f840112612661576126606122dd565b5b8235905067ffffffffffffffff81111561267e5761267d612641565b5b60208301915083602082028301111561269a57612699612646565b5b9250929050565b6000806000604084860312156126ba576126b9611e14565b5b60006126c886828701611fac565b935050602084013567ffffffffffffffff8111156126e9576126e8611e19565b5b6126f58682870161264b565b92509250509250925092565b7f4e487b7100000000000000000000000000000000000000000000000000000000600052602260045260246000fd5b6000600282049050600182168061274857607f821691505b60208210810361275b5761275a612701565b5b50919050565b7f4552433732313a20617070726f76616c20746f2063757272656e74206f776e6560008201527f7200000000000000000000000000000000000000000000000000000000000000602082015250565b60006127bd602183611ee4565b91506127c882612761565b604082019050919050565b600060208201905081810360008301526127ec816127b0565b9050919050565b7f4552433732313a20617070726f76652063616c6c6572206973206e6f7420746f60008201527f6b656e206f776e6572206f7220617070726f76656420666f7220616c6c000000602082015250565b600061284f603d83611ee4565b915061285a826127f3565b604082019050919050565b6000602082019050818103600083015261287e81612842565b9050919050565b7f4552433732313a2063616c6c6572206973206e6f7420746f6b656e206f776e6560008201527f72206f7220617070726f76656400000000000000000000000000000000000000602082015250565b60006128e1602d83611ee4565b91506128ec82612885565b604082019050919050565b60006020820190508181036000830152612910816128d4565b9050919050565b7f4552433732313a20696e76616c696420746f6b656e2049440000000000000000600082015250565b600061294d601883611ee4565b915061295882612917565b602082019050919050565b6000602082019050818103600083015261297c81612940565b9050919050565b7f4552433732313a2061646472657373207a65726f206973206e6f74206120766160008201527f6c6964206f776e65720000000000000000000000000000000000000000000000602082015250565b60006129df602983611ee4565b91506129ea82612983565b604082019050919050565b60006020820190508181036000830152612a0e816129d2565b9050919050565b7f4552433732314d657461646174613a2055524920717565727920666f72206e6f60008201527f6e6578697374656e7420746f6b656e0000000000000000000000000000000000602082015250565b6000612a71602f83611ee4565b9150612a7c82612a15565b604082019050919050565b60006020820190508181036000830152612aa081612a64565b9050919050565b60008190508160005260206000209050919050565b60006020601f8301049050919050565b600082821b905092915050565b600060088302612b097fffffffffffffffffffffffffffffffffffffffffffffffffffffffffffffffff82612acc565b612b138683612acc565b95508019841693508086168417925050509392505050565b6000819050919050565b6000612b50612b4b612b4684611f8b565b612b2b565b611f8b565b9050919050565b6000819050919050565b612b6a83612b35565b612b7e612b7682612b57565b848454612ad9565b825550505050565b600090565b612b93612b86565b612b9e818484612b61565b505050565b5b81811015612bc257612bb7600082612b8b565b600181019050612ba4565b5050565b601f821115612c0757612bd881612aa7565b612be184612abc565b81016020851015612bf0578190505b612c04612bfc85612abc565b830182612ba3565b50505b505050565b600082821c905092915050565b6000612c2a60001984600802612c0c565b1980831691505092915050565b6000612c438383612c19565b9150826002028217905092915050565b612c5c82611ed9565b67ffffffffffffffff811115612c7557612c746122e7565b5b612c7f8254612730565b612c8a828285612bc6565b600060209050601f831160018114612cbd5760008415612cab578287015190505b612cb58582612c37565b865550612d1d565b601f198416612ccb86612aa7565b60005b82811015612cf357848901518255600182019150602085019450602081019050612cce565b86831015612d105784890151612d0c601f891682612c19565b8355505b6001600288020188555050505b505050505050565b600081549050612d3481612730565b9050919050565b818103612d49575050612e21565b612d5282612d25565b67ffffffffffffffff811115612d6b57612d6a6122e7565b5b612d758254612730565b612d80828285612bc6565b6000601f831160018114612daf5760008415612d9d578287015490505b612da78582612c37565b865550612e1a565b601f198416612dbd87612aa7565b9650612dc886612aa7565b60005b82811015612df057848901548255600182019150600185019450602081019050612dcb565b86831015612e0d5784890154612e09601f891682612c19565b8355505b6001600288020188555050505b5050505050505b565b7f4f776e61626c653a206e6577206f776e657220697320746865207a65726f206160008201527f6464726573730000000000000000000000000000000000000000000000000000602082015250565b6000612e7f602683611ee4565b9150612e8a82612e23565b604082019050919050565b60006020820190508181036000830152612eae81612e72565b9050919050565b7f4552433732313a207472616e736665722066726f6d20696e636f72726563742060008201527f6f776e6572000000000000000000000000000000000000000000000000000000602082015250565b6000612f11602583611ee4565b9150612f1c82612eb5565b604082019050919050565b60006020820190508181036000830152612f4081612f04565b9050919050565b7f4552433732313a207472616e7366657220746f20746865207a65726f2061646460008201527f7265737300000000000000000000000000000000000000000000000000000000602082015250565b6000612fa3602483611ee4565b9150612fae82612f47565b604082019050919050565b60006020820190508181036000830152612fd281612f96565b9050919050565b7f4f776e61626c653a2063616c6c6572206973206e6f7420746865206f776e6572600082015250565b600061300f602083611ee4565b915061301a82612fd9565b602082019050919050565b6000602082019050818103600083015261303e81613002565b9050919050565b7f4552433732313a20617070726f766520746f2063616c6c657200000000000000600082015250565b600061307b601983611ee4565b915061308682613045565b602082019050919050565b600060208201905081810360008301526130aa8161306e565b9050919050565b7f4552433732313a207472616e7366657220746f206e6f6e20455243373231526560008201527f63656976657220696d706c656d656e7465720000000000000000000000000000602082015250565b600061310d603283611ee4565b9150613118826130b1565b604082019050919050565b6000602082019050818103600083015261313c81613100565b9050919050565b7f4552433732313a206d696e7420746f20746865207a65726f2061646472657373600082015250565b6000613179602083611ee4565b915061318482613143565b602082019050919050565b600060208201905081810360008301526131a88161316c565b9050919050565b7f4552433732313a20746f6b656e20616c7265616479206d696e74656400000000600082015250565b60006131e5601c83611ee4565b91506131f0826131af565b602082019050919050565b60006020820190508181036000830152613214816131d8565b9050919050565b7f4552433732313a20616420646f6573206e6f7420657869737400000000000000600082015250565b6000613251601983611ee4565b915061325c8261321b565b602082019050919050565b6000602082019050818103600083015261328081613244565b9050919050565b7f45524341643a20616420646f6573206e6f742065786973740000000000000000600082015250565b60006132bd601883611ee4565b91506132c882613287565b602082019050919050565b600060208201905081810360008301526132ec816132b0565b9050919050565b60008160601b9050919050565b600061330b826132f3565b9050919050565b600061331d82613300565b9050919050565b6133356133308261200e565b613312565b82525050565b60006133478284613324565b60148201915081905092915050565b7f53656e646572206e6f7420696e2061756469656e636500000000000000000000600082015250565b600061338c601683611ee4565b915061339782613356565b602082019050919050565b600060208201905081810360008301526133bb8161337f565b9050919050565b7f53656e64657220616c7265616479207369676e65640000000000000000000000600082015250565b60006133f8601583611ee4565b9150613403826133c2565b602082019050919050565b60006020820190508181036000830152613427816133eb565b9050919050565b6000819050919050565b61344961344482612153565b61342e565b82525050565b600061345b8285613438565b60208201915061346b8284613324565b6014820191508190509392505050565b600081519050919050565b600082825260208201905092915050565b60006134a28261347b565b6134ac8185613486565b93506134bc818560208601611ef5565b6134c581611f1f565b840191505092915050565b60006080820190506134e56000830187612020565b6134f26020830186612020565b6134ff6040830185612247565b81810360608301526135118184613497565b905095945050505050565b60008151905061352b81611e4a565b92915050565b60006020828403121561354757613546611e14565b5b60006135558482850161351c565b91505092915050565b7f4e487b7100000000000000000000000000000000000000000000000000000000600052603260045260246000fdfea264697066735822122034a5b794950719f9f6f7536103b5b905ccb30b85eabe2fde6f9c8b5eba9d2c4d64736f6c63430008180033",
  "linkReferences": {},
  "deployedLinkReferences": {}
}