{
  "_format": "hh-sol-artifact-1",
  "contractName": "MehNetworkV1",
  "sourceName": "contracts/MehNetworkV1.sol",
  "abi": [
    {
      "inputs": [
        {
          "internalType": "string",
          "name": "name",
          "type": "string"
        },
        {
          "internalType": "string",
          "name": "symbol",
          "type": "string"
        }
      ],
      "stateMutability": "nonpayable",
      "type": "constructor"
    },
    {
      "anonymous": false,
      "inputs": [
        {
          "indexed": true,
          "internalType": "address",
          "name": "owner",
          "type": "address"
        },
        {
          "indexed": true,
          "internalType": "address",
          "name": "approved",
          "type": "address"
        },
        {
          "indexed": true,
          "internalType": "uint256",
          "name": "tokenId",
          "type": "uint256"
        }
      ],
      "name": "Approval",
      "type": "event"
    },
    {
      "anonymous": false,
      "inputs": [
        {
          "indexed": true,
          "internalType": "address",
          "name": "owner",
          "type": "address"
        },
        {
          "indexed": true,
          "internalType": "address",
          "name": "operator",
          "type": "address"
        },
        {
          "indexed": false,
          "internalType": "bool",
          "name": "approved",
          "type": "bool"
        }
      ],
      "name": "ApprovalForAll",
      "type": "event"
    },
    {
      "anonymous": false,
      "inputs": [
        {
          "indexed": true,
          "internalType": "address",
          "name": "previousOwner",
          "type": "address"
        },
        {
          "indexed": true,
          "internalType": "address",
          "name": "newOwner",
          "type": "address"
        }
      ],
      "name": "OwnershipTransferred",
      "type": "event"
    },
    {
      "anonymous": false,
      "inputs": [
        {
          "indexed": true,
          "internalType": "address",
          "name": "from",
          "type": "address"
        },
        {
          "indexed": true,
          "internalType": "address",
          "name": "to",
          "type": "address"
        },
        {
          "indexed": true,
          "internalType": "uint256",
          "name": "tokenId",
          "type": "uint256"
        }
      ],
      "name": "Transfer",
      "type": "event"
    },
    {
      "inputs": [
        {
          "internalType": "address",
          "name": "to",
          "type": "address"
        },
        {
          "internalType": "uint256",
          "name": "tokenId",
          "type": "uint256"
        }
      ],
      "name": "approve",
      "outputs": [],
      "stateMutability": "nonpayable",
      "type": "function"
    },
    {
      "inputs": [
        {
          "internalType": "address",
          "name": "owner",
          "type": "address"
        }
      ],
      "name": "balanceOf",
      "outputs": [
        {
          "internalType": "uint256",
          "name": "",
          "type": "uint256"
        }
      ],
      "stateMutability": "view",
      "type": "function"
    },
    {
      "inputs": [
        {
          "internalType": "uint256",
          "name": "tokenId",
          "type": "uint256"
        }
      ],
      "name": "getApproved",
      "outputs": [
        {
          "internalType": "address",
          "name": "",
          "type": "address"
        }
      ],
      "stateMutability": "view",
      "type": "function"
    },
    {
      "inputs": [
        {
          "internalType": "address",
          "name": "owner",
          "type": "address"
        },
        {
          "internalType": "address",
          "name": "operator",
          "type": "address"
        }
      ],
      "name": "isApprovedForAll",
      "outputs": [
        {
          "internalType": "bool",
          "name": "",
          "type": "bool"
        }
      ],
      "stateMutability": "view",
      "type": "function"
    },
    {
      "inputs": [],
      "name": "name",
      "outputs": [
        {
          "internalType": "string",
          "name": "",
          "type": "string"
        }
      ],
      "stateMutability": "view",
      "type": "function"
    },
    {
      "inputs": [],
      "name": "owner",
      "outputs": [
        {
          "internalType": "address",
          "name": "",
          "type": "address"
        }
      ],
      "stateMutability": "view",
      "type": "function"
    },
    {
      "inputs": [
        {
          "internalType": "uint256",
          "name": "tokenId",
          "type": "uint256"
        }
      ],
      "name": "ownerOf",
      "outputs": [
        {
          "internalType": "address",
          "name": "",
          "type": "address"
        }
      ],
      "stateMutability": "view",
      "type": "function"
    },
    {
      "inputs": [],
      "name": "renounceOwnership",
      "outputs": [],
      "stateMutability": "nonpayable",
      "type": "function"
    },
    {
      "inputs": [
        {
          "internalType": "address",
          "name": "from",
          "type": "address"
        },
        {
          "internalType": "address",
          "name": "to",
          "type": "address"
        },
        {
          "internalType": "uint256",
          "name": "tokenId",
          "type": "uint256"
        }
      ],
      "name": "safeTransferFrom",
      "outputs": [],
      "stateMutability": "nonpayable",
      "type": "function"
    },
    {
      "inputs": [
        {
          "internalType": "address",
          "name": "from",
          "type": "address"
        },
        {
          "internalType": "address",
          "name": "to",
          "type": "address"
        },
        {
          "internalType": "uint256",
          "name": "tokenId",
          "type": "uint256"
        },
        {
          "internalType": "bytes",
          "name": "data",
          "type": "bytes"
        }
      ],
      "name": "safeTransferFrom",
      "outputs": [],
      "stateMutability": "nonpayable",
      "type": "function"
    },
    {
      "inputs": [
        {
          "internalType": "string",
          "name": "adURI",
          "type": "string"
        },
        {
          "internalType": "string",
          "name": "dataURI",
          "type": "string"
        },
        {
          "internalType": "string",
          "name": "signatureRoot",
          "type": "string"
        },
        {
          "internalType": "string",
          "name": "audienceRoot",
          "type": "string"
        }
      ],
      "name": "setAd",
      "outputs": [],
      "stateMutability": "nonpayable",
      "type": "function"
    },
    {
      "inputs": [
        {
          "internalType": "address",
          "name": "operator",
          "type": "address"
        },
        {
          "internalType": "bool",
          "name": "approved",
          "type": "bool"
        }
      ],
      "name": "setApprovalForAll",
      "outputs": [],
      "stateMutability": "nonpayable",
      "type": "function"
    },
    {
      "inputs": [],
      "name": "signAd",
      "outputs": [],
      "stateMutability": "pure",
      "type": "function"
    },
    {
      "inputs": [
        {
          "internalType": "bytes4",
          "name": "interfaceId",
          "type": "bytes4"
        }
      ],
      "name": "supportsInterface",
      "outputs": [
        {
          "internalType": "bool",
          "name": "",
          "type": "bool"
        }
      ],
      "stateMutability": "view",
      "type": "function"
    },
    {
      "inputs": [],
      "name": "symbol",
      "outputs": [
        {
          "internalType": "string",
          "name": "",
          "type": "string"
        }
      ],
      "stateMutability": "view",
      "type": "function"
    },
    {
      "inputs": [
        {
          "internalType": "uint256",
          "name": "tokenId",
          "type": "uint256"
        }
      ],
      "name": "tokenURI",
      "outputs": [
        {
          "internalType": "string",
          "name": "",
          "type": "string"
        }
      ],
      "stateMutability": "view",
      "type": "function"
    },
    {
      "inputs": [
        {
          "internalType": "address",
          "name": "from",
          "type": "address"
        },
        {
          "internalType": "address",
          "name": "to",
          "type": "address"
        },
        {
          "internalType": "uint256",
          "name": "tokenId",
          "type": "uint256"
        }
      ],
      "name": "transferFrom",
      "outputs": [],
      "stateMutability": "nonpayable",
      "type": "function"
    },
    {
      "inputs": [
        {
          "internalType": "address",
          "name": "newOwner",
          "type": "address"
        }
      ],
      "name": "transferOwnership",
      "outputs": [],
      "stateMutability": "nonpayable",
      "type": "function"
    }
  ],
  "bytecode": "0x60806040523480156200001157600080fd5b5060405162003304380380620033048339818101604052810190620000379190620002ec565b8181818181600090816200004c9190620005bc565b5080600190816200005e9190620005bc565b50505062000081620000756200008b60201b60201c565b6200009360201b60201c565b50505050620006a3565b600033905090565b6000600660009054906101000a900473ffffffffffffffffffffffffffffffffffffffff16905081600660006101000a81548173ffffffffffffffffffffffffffffffffffffffff021916908373ffffffffffffffffffffffffffffffffffffffff1602179055508173ffffffffffffffffffffffffffffffffffffffff168173ffffffffffffffffffffffffffffffffffffffff167f8be0079c531659141344cd1fd0a4f28419497f9722a3daafe3b4186f6b6457e060405160405180910390a35050565b6000604051905090565b600080fd5b600080fd5b600080fd5b600080fd5b6000601f19601f8301169050919050565b7f4e487b7100000000000000000000000000000000000000000000000000000000600052604160045260246000fd5b620001c28262000177565b810181811067ffffffffffffffff82111715620001e457620001e362000188565b5b80604052505050565b6000620001f962000159565b9050620002078282620001b7565b919050565b600067ffffffffffffffff8211156200022a576200022962000188565b5b620002358262000177565b9050602081019050919050565b60005b838110156200026257808201518184015260208101905062000245565b60008484015250505050565b6000620002856200027f846200020c565b620001ed565b905082815260208101848484011115620002a457620002a362000172565b5b620002b184828562000242565b509392505050565b600082601f830112620002d157620002d06200016d565b5b8151620002e38482602086016200026e565b91505092915050565b6000806040838503121562000306576200030562000163565b5b600083015167ffffffffffffffff81111562000327576200032662000168565b5b6200033585828601620002b9565b925050602083015167ffffffffffffffff81111562000359576200035862000168565b5b6200036785828601620002b9565b9150509250929050565b600081519050919050565b7f4e487b7100000000000000000000000000000000000000000000000000000000600052602260045260246000fd5b60006002820490506001821680620003c457607f821691505b602082108103620003da57620003d96200037c565b5b50919050565b60008190508160005260206000209050919050565b60006020601f8301049050919050565b600082821b905092915050565b600060088302620004447fffffffffffffffffffffffffffffffffffffffffffffffffffffffffffffffff8262000405565b62000450868362000405565b95508019841693508086168417925050509392505050565b6000819050919050565b6000819050919050565b60006200049d62000497620004918462000468565b62000472565b62000468565b9050919050565b6000819050919050565b620004b9836200047c565b620004d1620004c882620004a4565b84845462000412565b825550505050565b600090565b620004e8620004d9565b620004f5818484620004ae565b505050565b5b818110156200051d5762000511600082620004de565b600181019050620004fb565b5050565b601f8211156200056c576200053681620003e0565b6200054184620003f5565b8101602085101562000551578190505b620005696200056085620003f5565b830182620004fa565b50505b505050565b600082821c905092915050565b6000620005916000198460080262000571565b1980831691505092915050565b6000620005ac83836200057e565b9150826002028217905092915050565b620005c78262000371565b67ffffffffffffffff811115620005e357620005e262000188565b5b620005ef8254620003ab565b620005fc82828562000521565b600060209050601f8311600181146200063457600084156200061f578287015190505b6200062b85826200059e565b8655506200069b565b601f1984166200064486620003e0565b60005b828110156200066e5784890151825560018201915060208501945060208101905062000647565b868310156200068e57848901516200068a601f8916826200057e565b8355505b6001600288020188555050505b505050505050565b612c5180620006b36000396000f3fe608060405234801561001057600080fd5b50600436106101165760003560e01c80638da5cb5b116100a2578063b88d4fde11610071578063b88d4fde146102cb578063c87b56dd146102e7578063e985e9c514610317578063eecc015e14610347578063f2fde38b1461035157610116565b80638da5cb5b1461025757806395d89b4114610275578063a22cb46514610293578063b1dba8e3146102af57610116565b806323b872dd116100e957806323b872dd146101b557806342842e0e146101d15780636352211e146101ed57806370a082311461021d578063715018a61461024d57610116565b806301ffc9a71461011b57806306fdde031461014b578063081812fc14610169578063095ea7b314610199575b600080fd5b61013560048036038101906101309190611958565b61036d565b60405161014291906119a0565b60405180910390f35b61015361044f565b6040516101609190611a4b565b60405180910390f35b610183600480360381019061017e9190611aa3565b6104e1565b6040516101909190611b11565b60405180910390f35b6101b360048036038101906101ae9190611b58565b610527565b005b6101cf60048036038101906101ca9190611b98565b61063e565b005b6101eb60048036038101906101e69190611b98565b61069e565b005b61020760048036038101906102029190611aa3565b6106be565b6040516102149190611b11565b60405180910390f35b61023760048036038101906102329190611beb565b610744565b6040516102449190611c27565b60405180910390f35b6102556107fb565b005b61025f61080f565b60405161026c9190611b11565b60405180910390f35b61027d610839565b60405161028a9190611a4b565b60405180910390f35b6102ad60048036038101906102a89190611c6e565b6108cb565b005b6102c960048036038101906102c49190611de3565b6108e1565b005b6102e560048036038101906102e09190611f5b565b610a0d565b005b61030160048036038101906102fc9190611aa3565b610a6f565b60405161030e9190611a4b565b60405180910390f35b610331600480360381019061032c9190611fde565b610b4e565b60405161033e91906119a0565b60405180910390f35b61034f610be2565b005b61036b60048036038101906103669190611beb565b610be4565b005b60007f80ac58cd000000000000000000000000000000000000000000000000000000007bffffffffffffffffffffffffffffffffffffffffffffffffffffffff1916827bffffffffffffffffffffffffffffffffffffffffffffffffffffffff1916148061043857507f5b5e139f000000000000000000000000000000000000000000000000000000007bffffffffffffffffffffffffffffffffffffffffffffffffffffffff1916827bffffffffffffffffffffffffffffffffffffffffffffffffffffffff1916145b80610448575061044782610c67565b5b9050919050565b60606000805461045e9061204d565b80601f016020809104026020016040519081016040528092919081815260200182805461048a9061204d565b80156104d75780601f106104ac576101008083540402835291602001916104d7565b820191906000526020600020905b8154815290600101906020018083116104ba57829003601f168201915b5050505050905090565b60006104ec82610cd1565b6004600083815260200190815260200160002060009054906101000a900473ffffffffffffffffffffffffffffffffffffffff169050919050565b6000610532826106be565b90508073ffffffffffffffffffffffffffffffffffffffff168373ffffffffffffffffffffffffffffffffffffffff16036105a2576040517f08c379a0000000000000000000000000000000000000000000000000000000008152600401610599906120f0565b60405180910390fd5b8073ffffffffffffffffffffffffffffffffffffffff166105c1610d1c565b73ffffffffffffffffffffffffffffffffffffffff1614806105f057506105ef816105ea610d1c565b610b4e565b5b61062f576040517f08c379a000000000000000000000000000000000000000000000000000000000815260040161062690612182565b60405180910390fd5b6106398383610d24565b505050565b61064f610649610d1c565b82610ddd565b61068e576040517f08c379a000000000000000000000000000000000000000000000000000000000815260040161068590612214565b60405180910390fd5b610699838383610e72565b505050565b6106b983838360405180602001604052806000815250610a0d565b505050565b6000806106ca8361116b565b9050600073ffffffffffffffffffffffffffffffffffffffff168173ffffffffffffffffffffffffffffffffffffffff160361073b576040517f08c379a000000000000000000000000000000000000000000000000000000000815260040161073290612280565b60405180910390fd5b80915050919050565b60008073ffffffffffffffffffffffffffffffffffffffff168273ffffffffffffffffffffffffffffffffffffffff16036107b4576040517f08c379a00000000000000000000000000000000000000000000000000000000081526004016107ab90612312565b60405180910390fd5b600360008373ffffffffffffffffffffffffffffffffffffffff1673ffffffffffffffffffffffffffffffffffffffff168152602001908152602001600020549050919050565b6108036111a8565b61080d6000611226565b565b6000600660009054906101000a900473ffffffffffffffffffffffffffffffffffffffff16905090565b6060600180546108489061204d565b80601f01602080910402602001604051908101604052809291908181526020018280546108749061204d565b80156108c15780601f10610896576101008083540402835291602001916108c1565b820191906000526020600020905b8154815290600101906020018083116108a457829003601f168201915b5050505050905090565b6108dd6108d6610d1c565b83836112ec565b5050565b6108e96111a8565b6108f36007611458565b60006108ff600761146e565b9050604051806080016040528086815260200185815260200184815260200183815250600c6000838152602001908152602001600020600082015181600001908161094a91906124de565b50602082015181600101908161096091906124de565b50604082015181600201908161097691906124de565b50606082015181600301908161098c91906124de565b5090505061099a338261147c565b600c60008281526020019081526020016000206008600082018160000190816109c391906125c6565b50600182018160010190816109d891906125c6565b50600282018160020190816109ed91906125c6565b5060038201816003019081610a0291906125c6565b509050505050505050565b610a1e610a18610d1c565b83610ddd565b610a5d576040517f08c379a0000000000000000000000000000000000000000000000000000000008152600401610a5490612214565b60405180910390fd5b610a6984848484611699565b50505050565b6060610a7a826116f5565b610ab9576040517f08c379a0000000000000000000000000000000000000000000000000000000008152600401610ab090612720565b60405180910390fd5b60086000018054610ac99061204d565b80601f0160208091040260200160405190810160405280929190818152602001828054610af59061204d565b8015610b425780601f10610b1757610100808354040283529160200191610b42565b820191906000526020600020905b815481529060010190602001808311610b2557829003601f168201915b50505050509050919050565b6000600560008473ffffffffffffffffffffffffffffffffffffffff1673ffffffffffffffffffffffffffffffffffffffff16815260200190815260200160002060008373ffffffffffffffffffffffffffffffffffffffff1673ffffffffffffffffffffffffffffffffffffffff16815260200190815260200160002060009054906101000a900460ff16905092915050565b565b610bec6111a8565b600073ffffffffffffffffffffffffffffffffffffffff168173ffffffffffffffffffffffffffffffffffffffff1603610c5b576040517f08c379a0000000000000000000000000000000000000000000000000000000008152600401610c52906127b2565b60405180910390fd5b610c6481611226565b50565b60007f01ffc9a7000000000000000000000000000000000000000000000000000000007bffffffffffffffffffffffffffffffffffffffffffffffffffffffff1916827bffffffffffffffffffffffffffffffffffffffffffffffffffffffff1916149050919050565b610cda816116f5565b610d19576040517f08c379a0000000000000000000000000000000000000000000000000000000008152600401610d1090612280565b60405180910390fd5b50565b600033905090565b816004600083815260200190815260200160002060006101000a81548173ffffffffffffffffffffffffffffffffffffffff021916908373ffffffffffffffffffffffffffffffffffffffff160217905550808273ffffffffffffffffffffffffffffffffffffffff16610d97836106be565b73ffffffffffffffffffffffffffffffffffffffff167f8c5be1e5ebec7d5bd14f71427d1e84f3dd0314c0f7b2291e5b200ac8c7c3b92560405160405180910390a45050565b600080610de9836106be565b90508073ffffffffffffffffffffffffffffffffffffffff168473ffffffffffffffffffffffffffffffffffffffff161480610e2b5750610e2a8185610b4e565b5b80610e6957508373ffffffffffffffffffffffffffffffffffffffff16610e51846104e1565b73ffffffffffffffffffffffffffffffffffffffff16145b91505092915050565b8273ffffffffffffffffffffffffffffffffffffffff16610e92826106be565b73ffffffffffffffffffffffffffffffffffffffff1614610ee8576040517f08c379a0000000000000000000000000000000000000000000000000000000008152600401610edf90612844565b60405180910390fd5b600073ffffffffffffffffffffffffffffffffffffffff168273ffffffffffffffffffffffffffffffffffffffff1603610f57576040517f08c379a0000000000000000000000000000000000000000000000000000000008152600401610f4e906128d6565b60405180910390fd5b610f648383836001611736565b8273ffffffffffffffffffffffffffffffffffffffff16610f84826106be565b73ffffffffffffffffffffffffffffffffffffffff1614610fda576040517f08c379a0000000000000000000000000000000000000000000000000000000008152600401610fd190612844565b60405180910390fd5b6004600082815260200190815260200160002060006101000a81549073ffffffffffffffffffffffffffffffffffffffff02191690556001600360008573ffffffffffffffffffffffffffffffffffffffff1673ffffffffffffffffffffffffffffffffffffffff168152602001908152602001600020600082825403925050819055506001600360008473ffffffffffffffffffffffffffffffffffffffff1673ffffffffffffffffffffffffffffffffffffffff16815260200190815260200160002060008282540192505081905550816002600083815260200190815260200160002060006101000a81548173ffffffffffffffffffffffffffffffffffffffff021916908373ffffffffffffffffffffffffffffffffffffffff160217905550808273ffffffffffffffffffffffffffffffffffffffff168473ffffffffffffffffffffffffffffffffffffffff167fddf252ad1be2c89b69c2b068fc378daa952ba7f163c4a11628f55a4df523b3ef60405160405180910390a4611166838383600161173c565b505050565b60006002600083815260200190815260200160002060009054906101000a900473ffffffffffffffffffffffffffffffffffffffff169050919050565b6111b0610d1c565b73ffffffffffffffffffffffffffffffffffffffff166111ce61080f565b73ffffffffffffffffffffffffffffffffffffffff1614611224576040517f08c379a000000000000000000000000000000000000000000000000000000000815260040161121b90612942565b60405180910390fd5b565b6000600660009054906101000a900473ffffffffffffffffffffffffffffffffffffffff16905081600660006101000a81548173ffffffffffffffffffffffffffffffffffffffff021916908373ffffffffffffffffffffffffffffffffffffffff1602179055508173ffffffffffffffffffffffffffffffffffffffff168173ffffffffffffffffffffffffffffffffffffffff167f8be0079c531659141344cd1fd0a4f28419497f9722a3daafe3b4186f6b6457e060405160405180910390a35050565b8173ffffffffffffffffffffffffffffffffffffffff168373ffffffffffffffffffffffffffffffffffffffff160361135a576040517f08c379a0000000000000000000000000000000000000000000000000000000008152600401611351906129ae565b60405180910390fd5b80600560008573ffffffffffffffffffffffffffffffffffffffff1673ffffffffffffffffffffffffffffffffffffffff16815260200190815260200160002060008473ffffffffffffffffffffffffffffffffffffffff1673ffffffffffffffffffffffffffffffffffffffff16815260200190815260200160002060006101000a81548160ff0219169083151502179055508173ffffffffffffffffffffffffffffffffffffffff168373ffffffffffffffffffffffffffffffffffffffff167f17307eab39ab6107e8899845ad3d59bd9653f200f220920489ca2b5937696c318360405161144b91906119a0565b60405180910390a3505050565b6001816000016000828254019250508190555050565b600081600001549050919050565b600073ffffffffffffffffffffffffffffffffffffffff168273ffffffffffffffffffffffffffffffffffffffff16036114eb576040517f08c379a00000000000000000000000000000000000000000000000000000000081526004016114e290612a1a565b60405180910390fd5b6114f4816116f5565b15611534576040517f08c379a000000000000000000000000000000000000000000000000000000000815260040161152b90612a86565b60405180910390fd5b611542600083836001611736565b61154b816116f5565b1561158b576040517f08c379a000000000000000000000000000000000000000000000000000000000815260040161158290612a86565b60405180910390fd5b6001600360008473ffffffffffffffffffffffffffffffffffffffff1673ffffffffffffffffffffffffffffffffffffffff16815260200190815260200160002060008282540192505081905550816002600083815260200190815260200160002060006101000a81548173ffffffffffffffffffffffffffffffffffffffff021916908373ffffffffffffffffffffffffffffffffffffffff160217905550808273ffffffffffffffffffffffffffffffffffffffff16600073ffffffffffffffffffffffffffffffffffffffff167fddf252ad1be2c89b69c2b068fc378daa952ba7f163c4a11628f55a4df523b3ef60405160405180910390a461169560008383600161173c565b5050565b6116a4848484610e72565b6116b084848484611742565b6116ef576040517f08c379a00000000000000000000000000000000000000000000000000000000081526004016116e690612b18565b60405180910390fd5b50505050565b60008073ffffffffffffffffffffffffffffffffffffffff166117178361116b565b73ffffffffffffffffffffffffffffffffffffffff1614159050919050565b50505050565b50505050565b60006117638473ffffffffffffffffffffffffffffffffffffffff166118c9565b156118bc578373ffffffffffffffffffffffffffffffffffffffff1663150b7a0261178c610d1c565b8786866040518563ffffffff1660e01b81526004016117ae9493929190612b8d565b6020604051808303816000875af19250505080156117ea57506040513d601f19601f820116820180604052508101906117e79190612bee565b60015b61186c573d806000811461181a576040519150601f19603f3d011682016040523d82523d6000602084013e61181f565b606091505b506000815103611864576040517f08c379a000000000000000000000000000000000000000000000000000000000815260040161185b90612b18565b60405180910390fd5b805181602001fd5b63150b7a0260e01b7bffffffffffffffffffffffffffffffffffffffffffffffffffffffff1916817bffffffffffffffffffffffffffffffffffffffffffffffffffffffff1916149150506118c1565b600190505b949350505050565b6000808273ffffffffffffffffffffffffffffffffffffffff163b119050919050565b6000604051905090565b600080fd5b600080fd5b60007fffffffff0000000000000000000000000000000000000000000000000000000082169050919050565b61193581611900565b811461194057600080fd5b50565b6000813590506119528161192c565b92915050565b60006020828403121561196e5761196d6118f6565b5b600061197c84828501611943565b91505092915050565b60008115159050919050565b61199a81611985565b82525050565b60006020820190506119b56000830184611991565b92915050565b600081519050919050565b600082825260208201905092915050565b60005b838110156119f55780820151818401526020810190506119da565b60008484015250505050565b6000601f19601f8301169050919050565b6000611a1d826119bb565b611a2781856119c6565b9350611a378185602086016119d7565b611a4081611a01565b840191505092915050565b60006020820190508181036000830152611a658184611a12565b905092915050565b6000819050919050565b611a8081611a6d565b8114611a8b57600080fd5b50565b600081359050611a9d81611a77565b92915050565b600060208284031215611ab957611ab86118f6565b5b6000611ac784828501611a8e565b91505092915050565b600073ffffffffffffffffffffffffffffffffffffffff82169050919050565b6000611afb82611ad0565b9050919050565b611b0b81611af0565b82525050565b6000602082019050611b266000830184611b02565b92915050565b611b3581611af0565b8114611b4057600080fd5b50565b600081359050611b5281611b2c565b92915050565b60008060408385031215611b6f57611b6e6118f6565b5b6000611b7d85828601611b43565b9250506020611b8e85828601611a8e565b9150509250929050565b600080600060608486031215611bb157611bb06118f6565b5b6000611bbf86828701611b43565b9350506020611bd086828701611b43565b9250506040611be186828701611a8e565b9150509250925092565b600060208284031215611c0157611c006118f6565b5b6000611c0f84828501611b43565b91505092915050565b611c2181611a6d565b82525050565b6000602082019050611c3c6000830184611c18565b92915050565b611c4b81611985565b8114611c5657600080fd5b50565b600081359050611c6881611c42565b92915050565b60008060408385031215611c8557611c846118f6565b5b6000611c9385828601611b43565b9250506020611ca485828601611c59565b9150509250929050565b600080fd5b600080fd5b7f4e487b7100000000000000000000000000000000000000000000000000000000600052604160045260246000fd5b611cf082611a01565b810181811067ffffffffffffffff82111715611d0f57611d0e611cb8565b5b80604052505050565b6000611d226118ec565b9050611d2e8282611ce7565b919050565b600067ffffffffffffffff821115611d4e57611d4d611cb8565b5b611d5782611a01565b9050602081019050919050565b82818337600083830152505050565b6000611d86611d8184611d33565b611d18565b905082815260208101848484011115611da257611da1611cb3565b5b611dad848285611d64565b509392505050565b600082601f830112611dca57611dc9611cae565b5b8135611dda848260208601611d73565b91505092915050565b60008060008060808587031215611dfd57611dfc6118f6565b5b600085013567ffffffffffffffff811115611e1b57611e1a6118fb565b5b611e2787828801611db5565b945050602085013567ffffffffffffffff811115611e4857611e476118fb565b5b611e5487828801611db5565b935050604085013567ffffffffffffffff811115611e7557611e746118fb565b5b611e8187828801611db5565b925050606085013567ffffffffffffffff811115611ea257611ea16118fb565b5b611eae87828801611db5565b91505092959194509250565b600067ffffffffffffffff821115611ed557611ed4611cb8565b5b611ede82611a01565b9050602081019050919050565b6000611efe611ef984611eba565b611d18565b905082815260208101848484011115611f1a57611f19611cb3565b5b611f25848285611d64565b509392505050565b600082601f830112611f4257611f41611cae565b5b8135611f52848260208601611eeb565b91505092915050565b60008060008060808587031215611f7557611f746118f6565b5b6000611f8387828801611b43565b9450506020611f9487828801611b43565b9350506040611fa587828801611a8e565b925050606085013567ffffffffffffffff811115611fc657611fc56118fb565b5b611fd287828801611f2d565b91505092959194509250565b60008060408385031215611ff557611ff46118f6565b5b600061200385828601611b43565b925050602061201485828601611b43565b9150509250929050565b7f4e487b7100000000000000000000000000000000000000000000000000000000600052602260045260246000fd5b6000600282049050600182168061206557607f821691505b6020821081036120785761207761201e565b5b50919050565b7f4552433732313a20617070726f76616c20746f2063757272656e74206f776e6560008201527f7200000000000000000000000000000000000000000000000000000000000000602082015250565b60006120da6021836119c6565b91506120e58261207e565b604082019050919050565b60006020820190508181036000830152612109816120cd565b9050919050565b7f4552433732313a20617070726f76652063616c6c6572206973206e6f7420746f60008201527f6b656e206f776e6572206f7220617070726f76656420666f7220616c6c000000602082015250565b600061216c603d836119c6565b915061217782612110565b604082019050919050565b6000602082019050818103600083015261219b8161215f565b9050919050565b7f4552433732313a2063616c6c6572206973206e6f7420746f6b656e206f776e6560008201527f72206f7220617070726f76656400000000000000000000000000000000000000602082015250565b60006121fe602d836119c6565b9150612209826121a2565b604082019050919050565b6000602082019050818103600083015261222d816121f1565b9050919050565b7f4552433732313a20696e76616c696420746f6b656e2049440000000000000000600082015250565b600061226a6018836119c6565b915061227582612234565b602082019050919050565b600060208201905081810360008301526122998161225d565b9050919050565b7f4552433732313a2061646472657373207a65726f206973206e6f74206120766160008201527f6c6964206f776e65720000000000000000000000000000000000000000000000602082015250565b60006122fc6029836119c6565b9150612307826122a0565b604082019050919050565b6000602082019050818103600083015261232b816122ef565b9050919050565b60008190508160005260206000209050919050565b60006020601f8301049050919050565b600082821b905092915050565b6000600883026123947fffffffffffffffffffffffffffffffffffffffffffffffffffffffffffffffff82612357565b61239e8683612357565b95508019841693508086168417925050509392505050565b6000819050919050565b60006123db6123d66123d184611a6d565b6123b6565b611a6d565b9050919050565b6000819050919050565b6123f5836123c0565b612409612401826123e2565b848454612364565b825550505050565b600090565b61241e612411565b6124298184846123ec565b505050565b5b8181101561244d57612442600082612416565b60018101905061242f565b5050565b601f8211156124925761246381612332565b61246c84612347565b8101602085101561247b578190505b61248f61248785612347565b83018261242e565b50505b505050565b600082821c905092915050565b60006124b560001984600802612497565b1980831691505092915050565b60006124ce83836124a4565b9150826002028217905092915050565b6124e7826119bb565b67ffffffffffffffff811115612500576124ff611cb8565b5b61250a825461204d565b612515828285612451565b600060209050601f8311600181146125485760008415612536578287015190505b61254085826124c2565b8655506125a8565b601f19841661255686612332565b60005b8281101561257e57848901518255600182019150602085019450602081019050612559565b8683101561259b5784890151612597601f8916826124a4565b8355505b6001600288020188555050505b505050505050565b6000815490506125bf8161204d565b9050919050565b8181036125d45750506126ac565b6125dd826125b0565b67ffffffffffffffff8111156125f6576125f5611cb8565b5b612600825461204d565b61260b828285612451565b6000601f83116001811461263a5760008415612628578287015490505b61263285826124c2565b8655506126a5565b601f19841661264887612332565b965061265386612332565b60005b8281101561267b57848901548255600182019150600185019450602081019050612656565b868310156126985784890154612694601f8916826124a4565b8355505b6001600288020188555050505b5050505050505b565b7f4552433732314d657461646174613a2055524920717565727920666f72206e6f60008201527f6e6578697374656e7420746f6b656e0000000000000000000000000000000000602082015250565b600061270a602f836119c6565b9150612715826126ae565b604082019050919050565b60006020820190508181036000830152612739816126fd565b9050919050565b7f4f776e61626c653a206e6577206f776e657220697320746865207a65726f206160008201527f6464726573730000000000000000000000000000000000000000000000000000602082015250565b600061279c6026836119c6565b91506127a782612740565b604082019050919050565b600060208201905081810360008301526127cb8161278f565b9050919050565b7f4552433732313a207472616e736665722066726f6d20696e636f72726563742060008201527f6f776e6572000000000000000000000000000000000000000000000000000000602082015250565b600061282e6025836119c6565b9150612839826127d2565b604082019050919050565b6000602082019050818103600083015261285d81612821565b9050919050565b7f4552433732313a207472616e7366657220746f20746865207a65726f2061646460008201527f7265737300000000000000000000000000000000000000000000000000000000602082015250565b60006128c06024836119c6565b91506128cb82612864565b604082019050919050565b600060208201905081810360008301526128ef816128b3565b9050919050565b7f4f776e61626c653a2063616c6c6572206973206e6f7420746865206f776e6572600082015250565b600061292c6020836119c6565b9150612937826128f6565b602082019050919050565b6000602082019050818103600083015261295b8161291f565b9050919050565b7f4552433732313a20617070726f766520746f2063616c6c657200000000000000600082015250565b60006129986019836119c6565b91506129a382612962565b602082019050919050565b600060208201905081810360008301526129c78161298b565b9050919050565b7f4552433732313a206d696e7420746f20746865207a65726f2061646472657373600082015250565b6000612a046020836119c6565b9150612a0f826129ce565b602082019050919050565b60006020820190508181036000830152612a33816129f7565b9050919050565b7f4552433732313a20746f6b656e20616c7265616479206d696e74656400000000600082015250565b6000612a70601c836119c6565b9150612a7b82612a3a565b602082019050919050565b60006020820190508181036000830152612a9f81612a63565b9050919050565b7f4552433732313a207472616e7366657220746f206e6f6e20455243373231526560008201527f63656976657220696d706c656d656e7465720000000000000000000000000000602082015250565b6000612b026032836119c6565b9150612b0d82612aa6565b604082019050919050565b60006020820190508181036000830152612b3181612af5565b9050919050565b600081519050919050565b600082825260208201905092915050565b6000612b5f82612b38565b612b698185612b43565b9350612b798185602086016119d7565b612b8281611a01565b840191505092915050565b6000608082019050612ba26000830187611b02565b612baf6020830186611b02565b612bbc6040830185611c18565b8181036060830152612bce8184612b54565b905095945050505050565b600081519050612be88161192c565b92915050565b600060208284031215612c0457612c036118f6565b5b6000612c1284828501612bd9565b9150509291505056fea2646970667358221220c543f837d0bf627b7f2aab1fe335ce97345f8b36bef0fb3eede3e47454ffdfa264736f6c63430008180033",
  "linkReferences": {},
  "deployedLinkReferences": {}
}